{
  "contractName": "ApprovedTransfer",
  "abi": [
    {
      "constant": false,
      "inputs": [
        {
          "name": "_wallet",
          "type": "address"
        }
      ],
      "name": "init",
      "outputs": [],
      "payable": false,
      "stateMutability": "nonpayable",
      "type": "function"
    },
    {
      "constant": true,
      "inputs": [
        {
          "name": "_wallet",
          "type": "address"
        }
      ],
      "name": "getNonce",
      "outputs": [
        {
          "name": "nonce",
          "type": "uint256"
        }
      ],
      "payable": false,
      "stateMutability": "view",
      "type": "function"
    },
    {
      "constant": false,
      "inputs": [
        {
          "name": "_wallet",
          "type": "address"
        },
        {
          "name": "_module",
          "type": "address"
        }
      ],
      "name": "addModule",
      "outputs": [],
      "payable": false,
      "stateMutability": "nonpayable",
      "type": "function"
    },
    {
      "constant": false,
      "inputs": [
        {
          "name": "_token",
          "type": "address"
        }
      ],
      "name": "recoverToken",
      "outputs": [],
      "payable": false,
      "stateMutability": "nonpayable",
      "type": "function"
    },
    {
      "constant": false,
      "inputs": [
        {
          "name": "_wallet",
          "type": "address"
        },
        {
          "name": "_data",
          "type": "bytes"
        },
        {
          "name": "_nonce",
          "type": "uint256"
        },
        {
          "name": "_signatures",
          "type": "bytes"
        },
        {
          "name": "_gasPrice",
          "type": "uint256"
        },
        {
          "name": "_gasLimit",
          "type": "uint256"
        }
      ],
      "name": "execute",
      "outputs": [
        {
          "name": "success",
          "type": "bool"
        }
      ],
      "payable": false,
      "stateMutability": "nonpayable",
      "type": "function"
    },
    {
      "constant": true,
      "inputs": [
        {
          "name": "",
          "type": "address"
        }
      ],
      "name": "relayer",
      "outputs": [
        {
          "name": "nonce",
          "type": "uint256"
        }
      ],
      "payable": false,
      "stateMutability": "view",
      "type": "function"
    },
    {
      "inputs": [
        {
          "name": "_registry",
          "type": "address"
        },
        {
          "name": "_guardianStorage",
          "type": "address"
        }
      ],
      "payable": false,
      "stateMutability": "nonpayable",
      "type": "constructor"
    },
    {
      "anonymous": false,
      "inputs": [
        {
          "indexed": true,
          "name": "wallet",
          "type": "address"
        },
        {
          "indexed": true,
          "name": "token",
          "type": "address"
        },
        {
          "indexed": true,
          "name": "amount",
          "type": "uint256"
        },
        {
          "indexed": false,
          "name": "to",
          "type": "address"
        },
        {
          "indexed": false,
          "name": "data",
          "type": "bytes"
        }
      ],
      "name": "Transfer",
      "type": "event"
    },
    {
      "anonymous": false,
      "inputs": [
        {
          "indexed": true,
          "name": "wallet",
          "type": "address"
        },
        {
          "indexed": true,
          "name": "token",
          "type": "address"
        },
        {
          "indexed": false,
          "name": "amount",
          "type": "uint256"
        },
        {
          "indexed": false,
          "name": "spender",
          "type": "address"
        }
      ],
      "name": "Approved",
      "type": "event"
    },
    {
      "anonymous": false,
      "inputs": [
        {
          "indexed": true,
          "name": "wallet",
          "type": "address"
        },
        {
          "indexed": true,
          "name": "to",
          "type": "address"
        },
        {
          "indexed": false,
          "name": "amount",
          "type": "uint256"
        },
        {
          "indexed": false,
          "name": "data",
          "type": "bytes"
        }
      ],
      "name": "CalledContract",
      "type": "event"
    },
    {
      "anonymous": false,
      "inputs": [
        {
          "indexed": true,
          "name": "wallet",
          "type": "address"
        },
        {
          "indexed": true,
          "name": "success",
          "type": "bool"
        },
        {
          "indexed": false,
          "name": "signedHash",
          "type": "bytes32"
        }
      ],
      "name": "TransactionExecuted",
      "type": "event"
    },
    {
      "anonymous": false,
      "inputs": [
        {
          "indexed": false,
          "name": "name",
          "type": "bytes32"
        }
      ],
      "name": "ModuleCreated",
      "type": "event"
    },
    {
      "anonymous": false,
      "inputs": [
        {
          "indexed": false,
          "name": "wallet",
          "type": "address"
        }
      ],
      "name": "ModuleInitialised",
      "type": "event"
    },
    {
      "constant": false,
      "inputs": [
        {
          "name": "_wallet",
          "type": "address"
        },
        {
          "name": "_token",
          "type": "address"
        },
        {
          "name": "_to",
          "type": "address"
        },
        {
          "name": "_amount",
          "type": "uint256"
        },
        {
          "name": "_data",
          "type": "bytes"
        }
      ],
      "name": "transferToken",
      "outputs": [],
      "payable": false,
      "stateMutability": "nonpayable",
      "type": "function"
    },
    {
      "constant": false,
      "inputs": [
        {
          "name": "_wallet",
          "type": "address"
        },
        {
          "name": "_contract",
          "type": "address"
        },
        {
          "name": "_value",
          "type": "uint256"
        },
        {
          "name": "_data",
          "type": "bytes"
        }
      ],
      "name": "callContract",
      "outputs": [],
      "payable": false,
      "stateMutability": "nonpayable",
      "type": "function"
    }
  ],
  "bytecode": "0x608060405234801561001057600080fd5b50604051604080611e4a8339810180604052604081101561003057600080fd5b50805160209182015160008054600160a060020a03808516600160a060020a0319928316179092556001805492841692909116919091179055604080517f417070726f7665645472616e736665720000000000000000000000000000000080825291519394929385938593927f3019c8fc80239e3dff8f781212ae2004839c2cb61d6c70acd279ac65392145df929081900390910190a15050505050611d6f806100db6000396000f3fe608060405234801561001057600080fd5b50600436106100a5576000357c0100000000000000000000000000000000000000000000000000000000900480639be65a60116100785780639be65a60146101d0578063aacaaf88146101f6578063c9b5ef8e146102e6578063fd6ac3091461030c576100a5565b806319ab453c146100aa5780632d0335ab146100d25780632df546f41461010a5780635a1db8c4146101a2575b600080fd5b6100d0600480360360208110156100c057600080fd5b5035600160a060020a031661039c565b005b6100f8600480360360208110156100e857600080fd5b5035600160a060020a0316610442565b60408051918252519081900360200190f35b6100d0600480360360a081101561012057600080fd5b600160a060020a03823581169260208101358216926040820135909216916060820135919081019060a08101608082013564010000000081111561016357600080fd5b82018360208201111561017557600080fd5b8035906020019184600183028401116401000000008311171561019757600080fd5b50909250905061045d565b6100d0600480360360408110156101b857600080fd5b50600160a060020a03813581169160200135166105f4565b6100d0600480360360208110156101e657600080fd5b5035600160a060020a03166107b0565b6102d2600480360360c081101561020c57600080fd5b600160a060020a03823516919081019060408101602082013564010000000081111561023757600080fd5b82018360208201111561024957600080fd5b8035906020019184600183028401116401000000008311171561026b57600080fd5b9193909282359260408101906020013564010000000081111561028d57600080fd5b82018360208201111561029f57600080fd5b803590602001918460018302840111640100000000831117156102c157600080fd5b9193509150803590602001356108e3565b604080519115158252519081900360200190f35b6100f8600480360360208110156102fc57600080fd5b5035600160a060020a0316610bcb565b6100d06004803603608081101561032257600080fd5b600160a060020a0382358116926020810135909116916040820135919081019060808101606082013564010000000081111561035d57600080fd5b82018360208201111561036f57600080fd5b8035906020019184600183028401116401000000008311171561039157600080fd5b509092509050610bdd565b8033600160a060020a038216146104025760408051600080516020611d24833981519152815260206004820152601960248201527f424d3a2063616c6c6572206d7573742062652077616c6c657400000000000000604482015290519081900360640190fd5b60408051600160a060020a038416815290517f9fcca3f73f85397e2bf03647abf243c20b753bd54463ff3cae74de2971c112fa9181900360200190a15050565b600160a060020a031660009081526002602052604090205490565b3330146104b95760408051600080516020611d24833981519152815260206004820181905260248201527f524d3a206d7573742062652063616c6c65642076696120657865637574652829604482015290519081900360640190fd5b600154604080517f4a4fbeec000000000000000000000000000000000000000000000000000000008152600160a060020a03808a166004830152915189939290921691634a4fbeec91602480820192602092909190829003018186803b15801561052257600080fd5b505afa158015610536573d6000803e3d6000fd5b505050506040513d602081101561054c57600080fd5b5051156105a85760408051600080516020611d24833981519152815260206004820152601b60248201527f424d3a2077616c6c6574206d75737420626520756e6c6f636b65640000000000604482015290519081900360640190fd5b6105eb8787878787878080601f016020809104026020016040519081016040528093929190818152602001838380828437600092019190915250610e8a92505050565b50505050505050565b816105ff8133611025565b151561064457604051600080516020611d24833981519152815260040180806020018281038252602e815260200180611cf6602e913960400191505060405180910390fd5b600054604080517f0bcd4ebb000000000000000000000000000000000000000000000000000000008152600160a060020a03858116600483015291519190921691630bcd4ebb916024808301926020929190829003018186803b1580156106aa57600080fd5b505afa1580156106be573d6000803e3d6000fd5b505050506040513d60208110156106d457600080fd5b505115156107315760408051600080516020611d24833981519152815260206004820152601c60248201527f424d3a206d6f64756c65206973206e6f74207265676973746572656400000000604482015290519081900360640190fd5b604080517f1f17732d000000000000000000000000000000000000000000000000000000008152600160a060020a03848116600483015260016024830152915191851691631f17732d9160448082019260009290919082900301818387803b15801561079c57600080fd5b505af11580156105eb573d6000803e3d6000fd5b604080517f70a082310000000000000000000000000000000000000000000000000000000081523060048201529051600091600160a060020a038416916370a0823191602480820192602092909190829003018186803b15801561081357600080fd5b505afa158015610827573d6000803e3d6000fd5b505050506040513d602081101561083d57600080fd5b505160008054604080517fa9059cbb000000000000000000000000000000000000000000000000000000008152600160a060020a0392831660048201526024810185905290519394509085169263a9059cbb92604480840193602093929083900390910190829087803b1580156108b357600080fd5b505af11580156108c7573d6000803e3d6000fd5b505050506040513d60208110156108dd57600080fd5b50505050565b6000805a90506000610933308c60008d8d8080601f0160208091040260200160405190810160405280939291908181526020018383808284376000920191909152508f92508c91508b90506110c5565b90506109408b8983611208565b151561099b5760408051600080516020611d24833981519152815260206004820152601560248201527f524d3a204475706c696361746520726571756573740000000000000000000000604482015290519081900360640190fd5b6109db8b8b8b8080601f01602080910402602001604051908101604052809392919081815260200183838082843760009201919091525061128092505050565b1515610a2057604051600080516020611d24833981519152815260040180806020018281038252604a815260200180611cac604a913960600191505060405180910390fd5b6000610a628c8c8c8080601f0160208091040260200160405190810160405280939291908181526020018383808284376000920191909152506112f992505050565b905060418102871415610b7a57610a7b8c8688846113a0565b15610b7a57801580610afe5750610afe8c8c8c8080601f01602080910402602001604051908101604052809392919081815260200183838082843760009201919091525050604080516020601f8f018190048102820181019092528d815288935091508d908d908190840183828082843760009201919091525061147392505050565b15610b7a5730600160a060020a03168b8b604051808383808284376040519201945060009350909150508083038183865af19150503d8060008114610b5f576040519150601f19603f3d011682016040523d82523d6000602084013e610b64565b606091505b505080945050610b7a8c5a850388888533611620565b60408051838152905185151591600160a060020a038f16917f6bb0b384ce772133df63560651bc8c727c53306cec1d51e2cbf8ea35fb8f2ec19181900360200190a350505098975050505050505050565b60026020526000908152604090205481565b333014610c395760408051600080516020611d24833981519152815260206004820181905260248201527f524d3a206d7573742062652063616c6c65642076696120657865637574652829604482015290519081900360640190fd5b600154604080517f4a4fbeec000000000000000000000000000000000000000000000000000000008152600160a060020a038089166004830152915188939290921691634a4fbeec91602480820192602092909190829003018186803b158015610ca257600080fd5b505afa158015610cb6573d6000803e3d6000fd5b505050506040513d6020811015610ccc57600080fd5b505115610d285760408051600080516020611d24833981519152815260206004820152601b60248201527f424d3a2077616c6c6574206d75737420626520756e6c6f636b65640000000000604482015290519081900360640190fd5b85600160a060020a031663d6eb1bbf866040518263ffffffff167c01000000000000000000000000000000000000000000000000000000000281526004018082600160a060020a0316600160a060020a0316815260200191505060206040518083038186803b158015610d9a57600080fd5b505afa158015610dae573d6000803e3d6000fd5b505050506040513d6020811015610dc457600080fd5b5051158015610de5575085600160a060020a031685600160a060020a031614155b1515610e405760408051600080516020611d24833981519152815260206004820152601660248201527f41543a20466f7262696464656e20636f6e747261637400000000000000000000604482015290519081900360640190fd5b610e8286868686868080601f01602080910402602001604051908101604052809392919081815260200183838082843760009201919091525061167e92505050565b505050505050565b600160a060020a03841673eeeeeeeeeeeeeeeeeeeeeeeeeeeeeeeeeeeeeeee1415610ed157610ecb8584846020604051908101604052806000815250611746565b50610f56565b60408051600160a060020a038516602482015260448082018590528251808303909101815260649091019091526020810180517bffffffffffffffffffffffffffffffffffffffffffffffffffffffff167fa9059cbb00000000000000000000000000000000000000000000000000000000179052610f538686600084611746565b50505b8184600160a060020a031686600160a060020a03167fd5c97f2e041b2046be3b4337472f05720760a198f4d7d84980b7155eec7cca6f86856040518083600160a060020a0316600160a060020a0316815260200180602001828103825283818151815260200191508051906020019080838360005b83811015610fe3578181015183820152602001610fcb565b50505050905090810190601f1680156110105780820380516001836020036101000a031916815260200191505b50935050505060405180910390a45050505050565b600081600160a060020a031683600160a060020a0316638da5cb5b6040518163ffffffff167c010000000000000000000000000000000000000000000000000000000002815260040160206040518083038186803b15801561108657600080fd5b505afa15801561109a573d6000803e3d6000fd5b505050506040513d60208110156110b057600080fd5b5051600160a060020a03161490505b92915050565b6040517f190000000000000000000000000000000000000000000000000000000000000060208083018281526000602185018190526c01000000000000000000000000600160a060020a03808e16820260228801528c16026036860152604a85018a90528851909485938d938d938d938d938d938d938d939192606a909201918701908083835b6020831061116b5780518252601f19909201916020918201910161114c565b51815160209384036101000a600019018019909216911617905292019586525084810193909352506040808401919091528051808403820181526060840182528051908301207f19457468657265756d205369676e6564204d6573736167653a0a3332000000006080850152609c808501919091528151808503909101815260bc909301905281519101209e9d5050505050505050505050505050565b600160a060020a0383166000908152600260209081526040808320848452600190810190925282205460ff161515141561124457506000611279565b50600160a060020a03831660009081526002602090815260408083208484526001908101909252909120805460ff1916821790555b9392505050565b600060248251101515156112e35760408051600080516020611d24833981519152815260206004820152601660248201527f524d3a20496e76616c6964206461746157616c6c657400000000000000000000604482015290519081900360640190fd5b5060240151600160a060020a0391821691161490565b600154604080517f5040fb76000000000000000000000000000000000000000000000000000000008152600160a060020a0385811660048301529151600093611396931691635040fb76916024808301926020929190829003018186803b15801561136357600080fd5b505afa158015611377573d6000803e3d6000fd5b505050506040513d602081101561138d57600080fd5b505160026119ce565b6001019392505050565b600080831180156113b15750600182115b801561145a575082840285600160a060020a031631108061145a5750604080517fd6eb1bbf0000000000000000000000000000000000000000000000000000000081523060048201529051600160a060020a0387169163d6eb1bbf916024808301926020929190829003018186803b15801561142c57600080fd5b505afa158015611440573d6000803e3d6000fd5b505050506040513d602081101561145657600080fd5b5051155b156114675750600061146b565b5060015b949350505050565b600154604080517ff18858ab000000000000000000000000000000000000000000000000000000008152600160a060020a0387811660048301529151600093849360609391169163f18858ab916024808201928792909190829003018186803b1580156114df57600080fd5b505afa1580156114f3573d6000803e3d6000fd5b505050506040513d6000823e601f3d908101601f19168201604052602081101561151c57600080fd5b81019080805164010000000081111561153457600080fd5b8201602081018481111561154757600080fd5b815185602082028301116401000000008211171561156457600080fd5b509094506000935083925050505b8551604190048160ff16101561161157600061159288888460ff16611a02565b905060ff821615156115c1576115a88a82611025565b15156115bc5760009550505050505061146b565b611608565b600160a060020a03808616908216116115e25760009550505050505061146b565b8094506115ef8482611aac565b945092508215156116085760009550505050505061146b565b50600101611572565b50600198975050505050505050565b61726c85016000851180156116355750600183115b80156116415750838111155b156105eb573a851115611655573a02611658565b84025b6116748783836020604051908101604052806000815250611746565b5050505050505050565b61168a84848484611746565b5082600160a060020a031684600160a060020a03167fbfbd7fb6c6d7dd1ef01d18a7e98333f084363d82d5ce600328e8b941a53d665484846040518083815260200180602001828103825283818151815260200191508051906020019080838360005b838110156117055781810151838201526020016116ed565b50505050905090810190601f1680156117325780820380516001836020036101000a031916815260200191505b50935050505060405180910390a350505050565b6060600085600160a060020a03168585856040516024018084600160a060020a0316600160a060020a0316815260200183815260200180602001828103825283818151815260200191508051906020019080838360005b838110156117b557818101518382015260200161179d565b50505050905090810190601f1680156117e25780820380516001836020036101000a031916815260200191505b5060408051601f198184030181529181526020820180517bffffffffffffffffffffffffffffffffffffffffffffffffffffffff167f8f6f033200000000000000000000000000000000000000000000000000000000178152905182519297509550859450925090508083835b6020831061186e5780518252601f19909201916020918201910161184f565b6001836020036101000a0380198251168184511680821785525050505050509050019150506000604051808303816000865af19150503d80600081146118d0576040519150601f19603f3d011682016040523d82523d6000602084013e6118d5565b606091505b50925090508080156118e8575060008251115b156119555781806020019051602081101561190257600080fd5b81019080805164010000000081111561191a57600080fd5b8201602081018481111561192d57600080fd5b815164010000000081118282018710171561194757600080fd5b509095506119c59350505050565b600082511115611969573d6000803e3d6000fd5b8015156119c55760408051600080516020611d24833981519152815260206004820152601a60248201527f424d3a2077616c6c657420696e766f6b65207265766572746564000000000000604482015290519081900360640190fd5b50949350505050565b60008082848115156119dc57fe5b04905082848115156119ea57fe5b0615156119f85790506110bf565b60010190506110bf565b6041808202830160208101516040820151919092015160009260ff9190911691601b831480611a3457508260ff16601c145b1515611a3f57600080fd5b604080516000815260208082018084528a905260ff8616828401526060820185905260808201849052915160019260a0808401939192601f1981019281900390910190855afa158015611a96573d6000803e3d6000fd5b5050604051601f19015198975050505050505050565b60006060835160001480611ac75750600160a060020a038316155b15611ad757506000905082611c22565b600080905060606001865103604051908082528060200260200182016040528015611b0c578160200160208202803883390190505b5090506000805b8751811015611c0857831515611bb3578781815181101515611b3157fe5b90602001906020020151600160a060020a031687600160a060020a03161415611b5d5760019350611c00565b611b7d8882815181101515611b6e57fe5b90602001906020020151611c29565b8015611ba55750611ba58882815181101515611b9557fe5b9060200190602002015188611c37565b15611bb35760019350611c00565b8251821015611c00578781815181101515611bca57fe5b906020019060200201518383815181101515611be257fe5b600160a060020a039092166020928302909101909101526001909101905b600101611b13565b5082611c1657600087611c1a565b6001825b945094505050505b9250929050565b6000903b63ffffffff161190565b604080517f6f776e657228290000000000000000000000000000000000000000000000000081529051908190036007018120808252600091829190602081818189611388fa6001811415611c8a57815193505b505083600160a060020a031682600160a060020a031614925050509291505056fe524d3a207468652077616c6c657420617574686f72697a656420697320646966666572656e74207468656e2074686520746172676574206f66207468652072656c617965642064617461424d3a206d73672e73656e646572206d75737420626520616e206f776e657220666f72207468652077616c6c657408c379a000000000000000000000000000000000000000000000000000000000a165627a7a72305820d7488a67fb1eb381dd41206acfcc7d0b2936a4edec56d4270b150e35efc098810029",
  "source": "// Copyright (C) 2018  Argent Labs Ltd. <https://argent.xyz>\n\n// This program is free software: you can redistribute it and/or modify\n// it under the terms of the GNU General Public License as published by\n// the Free Software Foundation, either version 3 of the License, or\n// (at your option) any later version.\n\n// This program is distributed in the hope that it will be useful,\n// but WITHOUT ANY WARRANTY; without even the implied warranty of\n// MERCHANTABILITY or FITNESS FOR A PARTICULAR PURPOSE.  See the\n// GNU General Public License for more details.\n\n// You should have received a copy of the GNU General Public License\n// along with this program.  If not, see <http://www.gnu.org/licenses/>.\n\npragma solidity ^0.5.4;\nimport \"../wallet/BaseWallet.sol\";\nimport \"./common/BaseModule.sol\";\nimport \"./common/RelayerModule.sol\";\nimport \"./common/BaseTransfer.sol\";\nimport \"../../lib/utils/SafeMath.sol\";\nimport \"../utils/GuardianUtils.sol\";\n\n/**\n * @title ApprovedTransfer\n * @dev Module to transfer tokens (ETH or ERC20) with the approval of guardians.\n * @author Julien Niset - <julien@argent.im>\n */\ncontract ApprovedTransfer is BaseModule, RelayerModule, BaseTransfer {\n\n    bytes32 constant NAME = \"ApprovedTransfer\";\n\n    constructor(ModuleRegistry _registry, GuardianStorage _guardianStorage) BaseModule(_registry, _guardianStorage, NAME) public {\n\n    }\n\n    /**\n    * @dev transfers tokens (ETH or ERC20) from a wallet.\n    * @param _wallet The target wallet.\n    * @param _token The address of the token to transfer.\n    * @param _to The destination address\n    * @param _amount The amoutnof token to transfer\n    * @param _data  The data for the transaction (only for ETH transfers)\n    */\n    function transferToken(\n        BaseWallet _wallet,\n        address _token,\n        address _to,\n        uint256 _amount,\n        bytes calldata _data\n    )\n        external\n        onlyExecute\n        onlyWhenUnlocked(_wallet)\n    {\n        doTransfer(_wallet, _token, _to, _amount, _data);\n    }\n\n    /**\n    * @dev call a contract.\n    * @param _wallet The target wallet.\n    * @param _contract The address of the contract.\n    * @param _value The amount of ETH to transfer as part of call\n    * @param _data The encoded method data\n    */\n    function callContract(\n        BaseWallet _wallet,\n        address _contract,\n        uint256 _value,\n        bytes calldata _data\n    )\n        external\n        onlyExecute\n        onlyWhenUnlocked(_wallet)\n    {\n        require(!_wallet.authorised(_contract) && _contract != address(_wallet), \"AT: Forbidden contract\");\n        doCallContract(_wallet, _contract, _value, _data);\n    }\n\n    // *************** Implementation of RelayerModule methods ********************* //\n\n    function validateSignatures(\n        BaseWallet _wallet,\n        bytes memory /* _data */,\n        bytes32 _signHash,\n        bytes memory _signatures\n    )\n        internal\n        view\n        returns (bool)\n    {\n        address lastSigner = address(0);\n        address[] memory guardians = guardianStorage.getGuardians(_wallet);\n        bool isGuardian = false;\n        for (uint8 i = 0; i < _signatures.length / 65; i++) {\n            address signer = recoverSigner(_signHash, _signatures, i);\n            if (i == 0) {\n                // AT: first signer must be owner\n                if (!isOwner(_wallet, signer)) {\n                    return false;\n                }\n            } else {\n                // \"AT: signers must be different\"\n                if (signer <= lastSigner) {\n                    return false;\n                }\n                lastSigner = signer;\n                (isGuardian, guardians) = GuardianUtils.isGuardian(guardians, signer);\n                // \"AT: signatures not valid\"\n                if (!isGuardian) {\n                    return false;\n                }\n            }\n        }\n        return true;\n    }\n\n    function getRequiredSignatures(BaseWallet _wallet, bytes memory /* _data */) internal view returns (uint256) {\n        // owner  + [n/2] guardians\n        return  1 + SafeMath.ceil(guardianStorage.guardianCount(_wallet), 2);\n    }\n}",
  "sourcePath": "/Users/name/dev/argent-contracts-release-1.5.0/contracts/modules/ApprovedTransfer.sol",
  "compiler": {
    "name": "solc",
    "version": "0.5.4+commit.9549d8ff.Emscripten.clang",
    "optimizer": true,
    "runs": 999
  },
  "schemaVersion": "2.3.1",
  "updatedAt": "2020-04-01T15:58:47.185Z"
}