{
  "contractName": "ArgentENSResolver",
  "abi": [
    {
      "constant": false,
      "inputs": [
        {
          "name": "_manager",
          "type": "address"
        }
      ],
      "name": "addManager",
      "outputs": [],
      "payable": false,
      "stateMutability": "nonpayable",
      "type": "function"
    },
    {
      "constant": false,
      "inputs": [
        {
          "name": "_manager",
          "type": "address"
        }
      ],
      "name": "revokeManager",
      "outputs": [],
      "payable": false,
      "stateMutability": "nonpayable",
      "type": "function"
    },
    {
      "constant": true,
      "inputs": [],
      "name": "owner",
      "outputs": [
        {
          "name": "",
          "type": "address"
        }
      ],
      "payable": false,
      "stateMutability": "view",
      "type": "function"
    },
    {
      "constant": false,
      "inputs": [
        {
          "name": "_newOwner",
          "type": "address"
        }
      ],
      "name": "changeOwner",
      "outputs": [],
      "payable": false,
      "stateMutability": "nonpayable",
      "type": "function"
    },
    {
      "constant": true,
      "inputs": [
        {
          "name": "",
          "type": "address"
        }
      ],
      "name": "managers",
      "outputs": [
        {
          "name": "",
          "type": "bool"
        }
      ],
      "payable": false,
      "stateMutability": "view",
      "type": "function"
    },
    {
      "anonymous": false,
      "inputs": [
        {
          "indexed": true,
          "name": "_node",
          "type": "bytes32"
        },
        {
          "indexed": false,
          "name": "_addr",
          "type": "address"
        }
      ],
      "name": "AddrChanged",
      "type": "event"
    },
    {
      "anonymous": false,
      "inputs": [
        {
          "indexed": true,
          "name": "_node",
          "type": "bytes32"
        },
        {
          "indexed": false,
          "name": "_name",
          "type": "string"
        }
      ],
      "name": "NameChanged",
      "type": "event"
    },
    {
      "anonymous": false,
      "inputs": [
        {
          "indexed": true,
          "name": "_manager",
          "type": "address"
        }
      ],
      "name": "ManagerAdded",
      "type": "event"
    },
    {
      "anonymous": false,
      "inputs": [
        {
          "indexed": true,
          "name": "_manager",
          "type": "address"
        }
      ],
      "name": "ManagerRevoked",
      "type": "event"
    },
    {
      "anonymous": false,
      "inputs": [
        {
          "indexed": true,
          "name": "_newOwner",
          "type": "address"
        }
      ],
      "name": "OwnerChanged",
      "type": "event"
    },
    {
      "constant": false,
      "inputs": [
        {
          "name": "_node",
          "type": "bytes32"
        },
        {
          "name": "_addr",
          "type": "address"
        }
      ],
      "name": "setAddr",
      "outputs": [],
      "payable": false,
      "stateMutability": "nonpayable",
      "type": "function"
    },
    {
      "constant": false,
      "inputs": [
        {
          "name": "_node",
          "type": "bytes32"
        },
        {
          "name": "_name",
          "type": "string"
        }
      ],
      "name": "setName",
      "outputs": [],
      "payable": false,
      "stateMutability": "nonpayable",
      "type": "function"
    },
    {
      "constant": true,
      "inputs": [
        {
          "name": "_node",
          "type": "bytes32"
        }
      ],
      "name": "addr",
      "outputs": [
        {
          "name": "",
          "type": "address"
        }
      ],
      "payable": false,
      "stateMutability": "view",
      "type": "function"
    },
    {
      "constant": true,
      "inputs": [
        {
          "name": "_node",
          "type": "bytes32"
        }
      ],
      "name": "name",
      "outputs": [
        {
          "name": "",
          "type": "string"
        }
      ],
      "payable": false,
      "stateMutability": "view",
      "type": "function"
    },
    {
      "constant": true,
      "inputs": [
        {
          "name": "_interfaceID",
          "type": "bytes4"
        }
      ],
      "name": "supportsInterface",
      "outputs": [
        {
          "name": "",
          "type": "bool"
        }
      ],
      "payable": false,
      "stateMutability": "pure",
      "type": "function"
    }
  ],
  "bytecode": "0x608060405260008054600160a060020a03191633179055610d3f806100256000396000f3fe608060405234801561001057600080fd5b50600436106100db576000357c0100000000000000000000000000000000000000000000000000000000900480637737221311610093578063a6f9dae111610078578063a6f9dae114610328578063d5fa2b001461035b578063fdff9b4d14610394576100db565b806377372213146102735780638da5cb5b14610320576100db565b8063377e32e6116100c4578063377e32e6146101685780633b3b57de1461019b578063691f3431146101e1576100db565b806301ffc9a7146100e05780632d06177a14610133575b600080fd5b61011f600480360360208110156100f657600080fd5b50357fffffffff00000000000000000000000000000000000000000000000000000000166103c7565b604080519115158252519081900360200190f35b6101666004803603602081101561014957600080fd5b503573ffffffffffffffffffffffffffffffffffffffff166104ac565b005b6101666004803603602081101561017e57600080fd5b503573ffffffffffffffffffffffffffffffffffffffff16610642565b6101b8600480360360208110156101b157600080fd5b50356107a2565b6040805173ffffffffffffffffffffffffffffffffffffffff9092168252519081900360200190f35b6101fe600480360360208110156101f757600080fd5b50356107ca565b6040805160208082528351818301528351919283929083019185019080838360005b83811015610238578181015183820152602001610220565b50505050905090810190601f1680156102655780820380516001836020036101000a031916815260200191505b509250505060405180910390f35b6101666004803603604081101561028957600080fd5b813591908101906040810160208201356401000000008111156102ab57600080fd5b8201836020820111156102bd57600080fd5b803590602001918460018302840111640100000000831117156102df57600080fd5b91908080601f01602080910402602001604051908101604052809392919081815260200183838082843760009201919091525092955061086c945050505050565b6101b86109b4565b6101666004803603602081101561033e57600080fd5b503573ffffffffffffffffffffffffffffffffffffffff166109d0565b6101666004803603604081101561037157600080fd5b508035906020013573ffffffffffffffffffffffffffffffffffffffff16610b3c565b61011f600480360360208110156103aa57600080fd5b503573ffffffffffffffffffffffffffffffffffffffff16610c3e565b60007fffffffff0000000000000000000000000000000000000000000000000000000082167f01ffc9a700000000000000000000000000000000000000000000000000000000148061045a57507fffffffff0000000000000000000000000000000000000000000000000000000082167f3b3b57de00000000000000000000000000000000000000000000000000000000145b806104a657507fffffffff0000000000000000000000000000000000000000000000000000000082167f691f343100000000000000000000000000000000000000000000000000000000145b92915050565b60005473ffffffffffffffffffffffffffffffffffffffff16331461053257604080517f08c379a000000000000000000000000000000000000000000000000000000000815260206004820152600d60248201527f4d757374206265206f776e657200000000000000000000000000000000000000604482015290519081900360640190fd5b73ffffffffffffffffffffffffffffffffffffffff811615156105b657604080517f08c379a000000000000000000000000000000000000000000000000000000000815260206004820152601b60248201527f4d3a2041646472657373206d757374206e6f74206265206e756c6c0000000000604482015290519081900360640190fd5b73ffffffffffffffffffffffffffffffffffffffff811660009081526001602052604090205460ff16151561063f5773ffffffffffffffffffffffffffffffffffffffff81166000818152600160208190526040808320805460ff1916909217909155517f3b4a40cccf2058c593542587329dd385be4f0b588db5471fbd9598e56dd7093a9190a25b50565b60005473ffffffffffffffffffffffffffffffffffffffff1633146106c857604080517f08c379a000000000000000000000000000000000000000000000000000000000815260206004820152600d60248201527f4d757374206265206f776e657200000000000000000000000000000000000000604482015290519081900360640190fd5b73ffffffffffffffffffffffffffffffffffffffff811660009081526001602081905260409091205460ff1615151461074c576040517f08c379a0000000000000000000000000000000000000000000000000000000008152600401808060200182810382526025815260200180610cef6025913960400191505060405180910390fd5b73ffffffffffffffffffffffffffffffffffffffff8116600081815260016020526040808220805460ff19169055517fe5def11e0516f317f9c37b8835aec29fc01db4d4b6d6fecaca339d3596a29bc19190a250565b60009081526002602052604090205473ffffffffffffffffffffffffffffffffffffffff1690565b6000818152600260208181526040928390206001908101805485519281161561010002600019011693909304601f81018390048302820183019094528381526060939092918301828280156108605780601f1061083557610100808354040283529160200191610860565b820191906000526020600020905b81548152906001019060200180831161084357829003601f168201915b50505050509050919050565b3360009081526001602081905260409091205460ff161515146108f057604080517f08c379a000000000000000000000000000000000000000000000000000000000815260206004820152601260248201527f4d3a204d757374206265206d616e616765720000000000000000000000000000604482015290519081900360640190fd5b6000828152600260209081526040909120825161091592600190920191840190610c53565b50817fb7d29e911041e8d9b843369e890bcb72c9388692ba48b65ac54e7214c4c348f7826040518080602001828103825283818151815260200191508051906020019080838360005b8381101561097657818101518382015260200161095e565b50505050905090810190601f1680156109a35780820380516001836020036101000a031916815260200191505b509250505060405180910390a25050565b60005473ffffffffffffffffffffffffffffffffffffffff1681565b60005473ffffffffffffffffffffffffffffffffffffffff163314610a5657604080517f08c379a000000000000000000000000000000000000000000000000000000000815260206004820152600d60248201527f4d757374206265206f776e657200000000000000000000000000000000000000604482015290519081900360640190fd5b73ffffffffffffffffffffffffffffffffffffffff81161515610ada57604080517f08c379a000000000000000000000000000000000000000000000000000000000815260206004820152601860248201527f41646472657373206d757374206e6f74206265206e756c6c0000000000000000604482015290519081900360640190fd5b6000805473ffffffffffffffffffffffffffffffffffffffff191673ffffffffffffffffffffffffffffffffffffffff8316908117825560405190917fa2ea9883a321a3e97b8266c2b078bfeec6d50c711ed71f874a90d500ae2eaf3691a250565b3360009081526001602081905260409091205460ff16151514610bc057604080517f08c379a000000000000000000000000000000000000000000000000000000000815260206004820152601260248201527f4d3a204d757374206265206d616e616765720000000000000000000000000000604482015290519081900360640190fd5b600082815260026020908152604091829020805473ffffffffffffffffffffffffffffffffffffffff191673ffffffffffffffffffffffffffffffffffffffff85169081179091558251908152915184927f52d7d861f09ab3d26239d492e8968629f95e9e318cf0b73bfddc441522a15fd292908290030190a25050565b60016020526000908152604090205460ff1681565b828054600181600116156101000203166002900490600052602060002090601f016020900481019282601f10610c9457805160ff1916838001178555610cc1565b82800160010185558215610cc1579182015b82811115610cc1578251825591602001919060010190610ca6565b50610ccd929150610cd1565b5090565b610ceb91905b80821115610ccd5760008155600101610cd7565b9056fe4d3a20546172676574206d75737420626520616e206578697374696e67206d616e61676572a165627a7a7230582024f43697296c605f9ce31d6a3536204598a60670574a2929442fd38df9c4e8210029",
  "source": "// Copyright (C) 2018  Argent Labs Ltd. <https://argent.xyz>\n\n// This program is free software: you can redistribute it and/or modify\n// it under the terms of the GNU General Public License as published by\n// the Free Software Foundation, either version 3 of the License, or\n// (at your option) any later version.\n\n// This program is distributed in the hope that it will be useful,\n// but WITHOUT ANY WARRANTY; without even the implied warranty of\n// MERCHANTABILITY or FITNESS FOR A PARTICULAR PURPOSE.  See the\n// GNU General Public License for more details.\n\n// You should have received a copy of the GNU General Public License\n// along with this program.  If not, see <http://www.gnu.org/licenses/>.\n\npragma solidity ^0.5.4;\nimport \"../base/Owned.sol\";\nimport \"../base/Managed.sol\";\nimport \"./ENSResolver.sol\";\n\n/**\n * @title ArgentENSResolver\n * @dev Basic implementation of a Resolver.\n * The contract defines a manager role who is the only role that can add a new name\n * to the list of resolved names.\n * @author Julien Niset - <julien@argent.im>\n */\ncontract ArgentENSResolver is Owned, Managed, ENSResolver {\n\n    bytes4 constant SUPPORT_INTERFACE_ID = 0x01ffc9a7;\n    bytes4 constant ADDR_INTERFACE_ID = 0x3b3b57de;\n    bytes4 constant NAME_INTERFACE_ID = 0x691f3431;\n\n    // mapping between namehash and resolved records\n    mapping (bytes32 => Record) records;\n\n    struct Record {\n        address addr;\n        string name;\n    }\n\n    // *************** Public Functions ********************* //\n\n    /**\n     * @dev Lets the manager set the address associated with an ENS node.\n     * @param _node The node to update.\n     * @param _addr The address to set.\n     */\n    function setAddr(bytes32 _node, address _addr) public onlyManager {\n        records[_node].addr = _addr;\n        emit AddrChanged(_node, _addr);\n    }\n\n    /**\n     * @dev Lets the manager set the name associated with an ENS node.\n     * @param _node The node to update.\n     * @param _name The name to set.\n     */\n    function setName(bytes32 _node, string memory _name) public onlyManager {\n        records[_node].name = _name;\n        emit NameChanged(_node, _name);\n    }\n\n    /**\n     * @dev Gets the address associated to an ENS node.\n     * @param _node The target node.\n     * @return the address of the target node.\n     */\n    function addr(bytes32 _node) public view returns (address) {\n        return records[_node].addr;\n    }\n\n    /**\n     * @dev Gets the name associated to an ENS node.\n     * @param _node The target ENS node.\n     * @return the name of the target ENS node.\n     */\n    function name(bytes32 _node) public view returns (string memory) {\n        return records[_node].name;\n    }\n\n    /**\n     * @dev Returns true if the resolver implements the interface specified by the provided hash.\n     * @param _interfaceID The ID of the interface to check for.\n     * @return True if the contract implements the requested interface.\n     */\n    function supportsInterface(bytes4 _interfaceID) public pure returns (bool) {\n        return _interfaceID == SUPPORT_INTERFACE_ID || _interfaceID == ADDR_INTERFACE_ID || _interfaceID == NAME_INTERFACE_ID;\n    }\n\n}\n",
  "sourcePath": "/Users/name/dev/argent-contracts-release-1.5.0/contracts/ens/ArgentENSResolver.sol",
  "compiler": {
    "name": "solc",
    "version": "0.5.4+commit.9549d8ff.Emscripten.clang",
    "optimizer": true,
    "runs": 999
  },
  "schemaVersion": "2.3.1",
  "updatedAt": "2020-04-01T15:58:47.203Z"
}