{
  "contractName": "ArgentENSManager",
  "abi": [
    {
      "constant": false,
      "inputs": [
        {
          "name": "_manager",
          "type": "address"
        }
      ],
      "name": "addManager",
      "outputs": [],
      "payable": false,
      "stateMutability": "nonpayable",
      "type": "function"
    },
    {
      "constant": false,
      "inputs": [
        {
          "name": "_manager",
          "type": "address"
        }
      ],
      "name": "revokeManager",
      "outputs": [],
      "payable": false,
      "stateMutability": "nonpayable",
      "type": "function"
    },
    {
      "constant": true,
      "inputs": [],
      "name": "ADDR_REVERSE_NODE",
      "outputs": [
        {
          "name": "",
          "type": "bytes32"
        }
      ],
      "payable": false,
      "stateMutability": "view",
      "type": "function"
    },
    {
      "constant": true,
      "inputs": [],
      "name": "ensRegistry",
      "outputs": [
        {
          "name": "",
          "type": "address"
        }
      ],
      "payable": false,
      "stateMutability": "view",
      "type": "function"
    },
    {
      "constant": true,
      "inputs": [],
      "name": "owner",
      "outputs": [
        {
          "name": "",
          "type": "address"
        }
      ],
      "payable": false,
      "stateMutability": "view",
      "type": "function"
    },
    {
      "constant": false,
      "inputs": [
        {
          "name": "_newOwner",
          "type": "address"
        }
      ],
      "name": "changeOwner",
      "outputs": [],
      "payable": false,
      "stateMutability": "nonpayable",
      "type": "function"
    },
    {
      "constant": true,
      "inputs": [],
      "name": "ensResolver",
      "outputs": [
        {
          "name": "",
          "type": "address"
        }
      ],
      "payable": false,
      "stateMutability": "view",
      "type": "function"
    },
    {
      "constant": true,
      "inputs": [],
      "name": "rootName",
      "outputs": [
        {
          "name": "",
          "type": "string"
        }
      ],
      "payable": false,
      "stateMutability": "view",
      "type": "function"
    },
    {
      "constant": true,
      "inputs": [],
      "name": "rootNode",
      "outputs": [
        {
          "name": "",
          "type": "bytes32"
        }
      ],
      "payable": false,
      "stateMutability": "view",
      "type": "function"
    },
    {
      "constant": true,
      "inputs": [
        {
          "name": "",
          "type": "address"
        }
      ],
      "name": "managers",
      "outputs": [
        {
          "name": "",
          "type": "bool"
        }
      ],
      "payable": false,
      "stateMutability": "view",
      "type": "function"
    },
    {
      "inputs": [
        {
          "name": "_rootName",
          "type": "string"
        },
        {
          "name": "_rootNode",
          "type": "bytes32"
        },
        {
          "name": "_ensRegistry",
          "type": "address"
        },
        {
          "name": "_ensResolver",
          "type": "address"
        }
      ],
      "payable": false,
      "stateMutability": "nonpayable",
      "type": "constructor"
    },
    {
      "anonymous": false,
      "inputs": [
        {
          "indexed": true,
          "name": "_manager",
          "type": "address"
        }
      ],
      "name": "ManagerAdded",
      "type": "event"
    },
    {
      "anonymous": false,
      "inputs": [
        {
          "indexed": true,
          "name": "_manager",
          "type": "address"
        }
      ],
      "name": "ManagerRevoked",
      "type": "event"
    },
    {
      "anonymous": false,
      "inputs": [
        {
          "indexed": true,
          "name": "_newOwner",
          "type": "address"
        }
      ],
      "name": "OwnerChanged",
      "type": "event"
    },
    {
      "anonymous": false,
      "inputs": [
        {
          "indexed": true,
          "name": "_rootnode",
          "type": "bytes32"
        },
        {
          "indexed": true,
          "name": "_newOwner",
          "type": "address"
        }
      ],
      "name": "RootnodeOwnerChange",
      "type": "event"
    },
    {
      "anonymous": false,
      "inputs": [
        {
          "indexed": false,
          "name": "addr",
          "type": "address"
        }
      ],
      "name": "ENSResolverChanged",
      "type": "event"
    },
    {
      "anonymous": false,
      "inputs": [
        {
          "indexed": true,
          "name": "_owner",
          "type": "address"
        },
        {
          "indexed": false,
          "name": "_ens",
          "type": "string"
        }
      ],
      "name": "Registered",
      "type": "event"
    },
    {
      "anonymous": false,
      "inputs": [
        {
          "indexed": false,
          "name": "_ens",
          "type": "string"
        }
      ],
      "name": "Unregistered",
      "type": "event"
    },
    {
      "constant": false,
      "inputs": [
        {
          "name": "_newOwner",
          "type": "address"
        }
      ],
      "name": "changeRootnodeOwner",
      "outputs": [],
      "payable": false,
      "stateMutability": "nonpayable",
      "type": "function"
    },
    {
      "constant": false,
      "inputs": [
        {
          "name": "_ensResolver",
          "type": "address"
        }
      ],
      "name": "changeENSResolver",
      "outputs": [],
      "payable": false,
      "stateMutability": "nonpayable",
      "type": "function"
    },
    {
      "constant": false,
      "inputs": [
        {
          "name": "_label",
          "type": "string"
        },
        {
          "name": "_owner",
          "type": "address"
        }
      ],
      "name": "register",
      "outputs": [],
      "payable": false,
      "stateMutability": "nonpayable",
      "type": "function"
    },
    {
      "constant": true,
      "inputs": [],
      "name": "getENSReverseRegistrar",
      "outputs": [
        {
          "name": "",
          "type": "address"
        }
      ],
      "payable": false,
      "stateMutability": "view",
      "type": "function"
    },
    {
      "constant": true,
      "inputs": [
        {
          "name": "_subnode",
          "type": "bytes32"
        }
      ],
      "name": "isAvailable",
      "outputs": [
        {
          "name": "",
          "type": "bool"
        }
      ],
      "payable": false,
      "stateMutability": "view",
      "type": "function"
    }
  ],
  "bytecode": "0x60806040523480156200001157600080fd5b506040516200167e3803806200167e833981018060405260808110156200003757600080fd5b8101908080516401000000008111156200005057600080fd5b820160208101848111156200006457600080fd5b81516401000000008111828201871017156200007f57600080fd5b5050602080830151604084015160609094015160008054600160a060020a03191633179055835193965090945091620000bf9160029190870190620000f9565b5060039290925560048054600160a060020a03928316600160a060020a03199182161790915560058054929093169116179055506200019e565b828054600181600116156101000203166002900490600052602060002090601f016020900481019282601f106200013c57805160ff19168380011785556200016c565b828001600101855582156200016c579182015b828111156200016c5782518255916020019190600101906200014f565b506200017a9291506200017e565b5090565b6200019b91905b808211156200017a576000815560010162000185565b90565b6114d080620001ae6000396000f3fe608060405234801561001057600080fd5b5060043610610112576000357c01000000000000000000000000000000000000000000000000000000009004806389b6f027116100b4578063f20387df11610083578063f20387df146102b1578063faff50a81461032e578063fb41999914610336578063fdff9b4d1461035c57610112565b806389b6f0271461024a5780638da5cb5b1461027b578063a6f9dae114610283578063adce1c5f146102a957610112565b8063377e32e6116100f0578063377e32e6146101dc5780637cf8a2eb146102025780637d73b2311461021c57806386605d961461022457610112565b806309d73442146101175780631e59c5291461013b5780632d06177a146101b6575b600080fd5b61011f610382565b60408051600160a060020a039092168252519081900360200190f35b6101b46004803603604081101561015157600080fd5b81019060208101813564010000000081111561016c57600080fd5b82018360208201111561017e57600080fd5b803590602001918460018302840111640100000000831117156101a057600080fd5b919350915035600160a060020a0316610391565b005b6101b4600480360360208110156101cc57600080fd5b5035600160a060020a0316610a4d565b6101b4600480360360208110156101f257600080fd5b5035600160a060020a0316610b8b565b61020a610ca0565b60408051918252519081900360200190f35b61011f610cc4565b6101b46004803603602081101561023a57600080fd5b5035600160a060020a0316610cd3565b6102676004803603602081101561026057600080fd5b5035610dfe565b604080519115158252519081900360200190f35b61011f610ee4565b6101b46004803603602081101561029957600080fd5b5035600160a060020a0316610ef3565b61011f611014565b6102b9611023565b6040805160208082528351818301528351919283929083019185019080838360005b838110156102f35781810151838201526020016102db565b50505050905090810190601f1680156103205780820380516001836020036101000a031916815260200191505b509250505060405180910390f35b61020a6110ae565b6101b46004803603602081101561034c57600080fd5b5035600160a060020a03166110b4565b6102676004803603602081101561037257600080fd5b5035600160a060020a03166111e1565b600061038c6111f6565b905090565b3360009081526001602081905260409091205460ff161515146104035760408051600080516020611485833981519152815260206004820152601260248201527f4d3a204d757374206265206d616e616765720000000000000000000000000000604482015290519081900360640190fd5b60008383604051602001808383808284376040805191909301818103601f19018252808452815160209283012060035483830152818501819052845180830386018152606083018087528151918501919091206004547f02571be30000000000000000000000000000000000000000000000000000000090925260648401819052955191995094975060009650600160a060020a0390941694506302571be393608480830194509091829003018186803b1580156104c057600080fd5b505afa1580156104d4573d6000803e3d6000fd5b505050506040513d60208110156104ea57600080fd5b50519050600160a060020a038116156105525760408051600080516020611485833981519152815260206004820152601d60248201527f41454d3a205f6c6162656c20697320616c7265616c6479206f776e6564000000604482015290519081900360640190fd5b60048054600354600554604080517f5ef2c7f00000000000000000000000000000000000000000000000000000000081529485019290925260248401879052600160a060020a03888116604486015290811660648501526000608485018190529151921692635ef2c7f09260a4808301939282900301818387803b1580156105d957600080fd5b505af11580156105ed573d6000803e3d6000fd5b5050600554604080517fd5fa2b0000000000000000000000000000000000000000000000000000000000815260048101879052600160a060020a038981166024830152915191909216935063d5fa2b009250604480830192600092919082900301818387803b15801561065f57600080fd5b505af1158015610673573d6000803e3d6000fd5b505060408051600280825260608281019093529193509150816020015b610698611448565b8152602001906001900390816106905790505090506106ec87878080601f0160208091040260200160405190810160405280939291908181526020018383808284376000920191909152506112af92505050565b8160008151811015156106fb57fe5b602090810291909101810191909152600280546040805160018316156101000260001901909216839004601f810185900485028301850190915280825261079a939192918301828280156107905780601f1061076557610100808354040283529160200191610790565b820191906000526020600020905b81548152906001019060200180831161077357829003601f168201915b50505050506112af565b8160018151811015156107a957fe5b906020019060200201819052506060610806826107fa6040805190810160405280600181526020017f2e000000000000000000000000000000000000000000000000000000000000008152506112af565b9063ffffffff6112d416565b905060006108126111f6565b9050600081600160a060020a031663bffbe61c896040518263ffffffff167c01000000000000000000000000000000000000000000000000000000000281526004018082600160a060020a0316600160a060020a0316815260200191505060206040518083038186803b15801561088857600080fd5b505afa15801561089c573d6000803e3d6000fd5b505050506040513d60208110156108b257600080fd5b5051600554604080517f773722130000000000000000000000000000000000000000000000000000000081526004810184815260248201928352875160448301528751949550600160a060020a0390931693637737221393869389939192909160640190602085019080838360005b83811015610939578181015183820152602001610921565b50505050905090810190601f1680156109665780820380516001836020036101000a031916815260200191505b509350505050600060405180830381600087803b15801561098657600080fd5b505af115801561099a573d6000803e3d6000fd5b5050505087600160a060020a03167fb3eccf73f39b1c07947c780b2b39df2a1bb058b4037b0a42d0881ca1a028a132846040518080602001828103825283818151815260200191508051906020019080838360005b83811015610a075781810151838201526020016109ef565b50505050905090810190601f168015610a345780820380516001836020036101000a031916815260200191505b509250505060405180910390a250505050505050505050565b600054600160a060020a03163314610ab45760408051600080516020611485833981519152815260206004820152600d60248201527f4d757374206265206f776e657200000000000000000000000000000000000000604482015290519081900360640190fd5b600160a060020a0381161515610b195760408051600080516020611485833981519152815260206004820152601b60248201527f4d3a2041646472657373206d757374206e6f74206265206e756c6c0000000000604482015290519081900360640190fd5b600160a060020a03811660009081526001602052604090205460ff161515610b8857600160a060020a0381166000818152600160208190526040808320805460ff1916909217909155517f3b4a40cccf2058c593542587329dd385be4f0b588db5471fbd9598e56dd7093a9190a25b50565b600054600160a060020a03163314610bf25760408051600080516020611485833981519152815260206004820152600d60248201527f4d757374206265206f776e657200000000000000000000000000000000000000604482015290519081900360640190fd5b600160a060020a03811660009081526001602081905260409091205460ff16151514610c575760405160008051602061148583398151915281526004018080602001828103825260258152602001806114606025913960400191505060405180910390fd5b600160a060020a038116600081815260016020526040808220805460ff19169055517fe5def11e0516f317f9c37b8835aec29fc01db4d4b6d6fecaca339d3596a29bc19190a250565b7f91d1777781884d03a6757a803996e38de2a42967fb37eeaca72729271025a9e281565b600454600160a060020a031681565b600054600160a060020a03163314610d3a5760408051600080516020611485833981519152815260206004820152600d60248201527f4d757374206265206f776e657200000000000000000000000000000000000000604482015290519081900360640190fd5b60048054600354604080517f5b0fc9c300000000000000000000000000000000000000000000000000000000815293840191909152600160a060020a0384811660248501529051911691635b0fc9c391604480830192600092919082900301818387803b158015610daa57600080fd5b505af1158015610dbe573d6000803e3d6000fd5b5050505080600160a060020a03166003547f1219ccb7de3c75be86cb7065f05d9d42fb6a5162e02537d1b0d95a890ff4fd9d60405160405180910390a350565b60035460408051602080820193909352808201849052815180820383018152606082018084528151918501919091206004547f02571be3000000000000000000000000000000000000000000000000000000009092526064830181905292516000948593600160a060020a03909316926302571be39260848083019392829003018186803b158015610e8f57600080fd5b505afa158015610ea3573d6000803e3d6000fd5b505050506040513d6020811015610eb957600080fd5b50519050600160a060020a0381161515610ed857600192505050610edf565b6000925050505b919050565b600054600160a060020a031681565b600054600160a060020a03163314610f5a5760408051600080516020611485833981519152815260206004820152600d60248201527f4d757374206265206f776e657200000000000000000000000000000000000000604482015290519081900360640190fd5b600160a060020a0381161515610fbf5760408051600080516020611485833981519152815260206004820152601860248201527f41646472657373206d757374206e6f74206265206e756c6c0000000000000000604482015290519081900360640190fd5b6000805473ffffffffffffffffffffffffffffffffffffffff1916600160a060020a038316908117825560405190917fa2ea9883a321a3e97b8266c2b078bfeec6d50c711ed71f874a90d500ae2eaf3691a250565b600554600160a060020a031681565b6002805460408051602060018416156101000260001901909316849004601f810184900484028201840190925281815292918301828280156110a65780601f1061107b576101008083540402835291602001916110a6565b820191906000526020600020905b81548152906001019060200180831161108957829003601f168201915b505050505081565b60035481565b600054600160a060020a0316331461111b5760408051600080516020611485833981519152815260206004820152600d60248201527f4d757374206265206f776e657200000000000000000000000000000000000000604482015290519081900360640190fd5b600160a060020a03811615156111805760408051600080516020611485833981519152815260206004820152601a60248201527f57463a20616464726573732063616e6e6f74206265206e756c6c000000000000604482015290519081900360640190fd5b60058054600160a060020a03831673ffffffffffffffffffffffffffffffffffffffff19909116811790915560408051918252517f8bd878c65101d815c50829c7b19270ff5c19e91bd1ad6ebaa282c4a65a5baa5f9181900360200190a150565b60016020526000908152604090205460ff1681565b60048054604080517f02571be30000000000000000000000000000000000000000000000000000000081527f91d1777781884d03a6757a803996e38de2a42967fb37eeaca72729271025a9e29381019390935251600092600160a060020a03909216916302571be3916024808301926020929190829003018186803b15801561127e57600080fd5b505afa158015611292573d6000803e3d6000fd5b505050506040513d60208110156112a857600080fd5b5051905090565b6112b7611448565b506040805180820190915281518152602082810190820152919050565b60608151600014156112f55750604080516020810190915260008152611404565b815183516000199091010260005b835181101561133257838181518110151561131a57fe5b60209081029091010151519190910190600101611303565b506060816040519080825280601f01601f191660200182016040528015611360576020820181803883390190505b5090506020810160005b85518110156113fd576113b182878381518110151561138557fe5b906020019060200201516020015188848151811015156113a157fe5b602090810290910101515161140a565b85818151811015156113bf57fe5b60209081029091010151518651920191600019018110156113f5576113ed828860200151896000015161140a565b865191909101905b60010161136a565b5090925050505b92915050565b5b6020811061142a578151835260209283019290910190601f190161140b565b905182516020929092036101000a6000190180199091169116179052565b60408051808201909152600080825260208201529056fe4d3a20546172676574206d75737420626520616e206578697374696e67206d616e6167657208c379a000000000000000000000000000000000000000000000000000000000a165627a7a72305820775fcdfb60a57893df65d519fdea5cf2c0b31cd3a05720ebd17554d6d125090d0029",
  "source": "// Copyright (C) 2018  Argent Labs Ltd. <https://argent.xyz>\n\n// This program is free software: you can redistribute it and/or modify\n// it under the terms of the GNU General Public License as published by\n// the Free Software Foundation, either version 3 of the License, or\n// (at your option) any later version.\n\n// This program is distributed in the hope that it will be useful,\n// but WITHOUT ANY WARRANTY; without even the implied warranty of\n// MERCHANTABILITY or FITNESS FOR A PARTICULAR PURPOSE.  See the\n// GNU General Public License for more details.\n\n// You should have received a copy of the GNU General Public License\n// along with this program.  If not, see <http://www.gnu.org/licenses/>.\n\npragma solidity ^0.5.4;\nimport \"../../lib/ens/ENS.sol\";\nimport \"../../lib/utils/strings.sol\";\nimport \"./IENSManager.sol\";\nimport \"./ENSResolver.sol\";\nimport \"./ENSReverseRegistrar.sol\";\nimport \"../base/Managed.sol\";\n\n/**\n * @title ArgentENSManager\n * @dev Implementation of an ENS manager that orchestrates the complete\n * registration of subdomains for a single root (e.g. argent.eth).\n * The contract defines a manager role who is the only role that can trigger the registration of\n * a new subdomain.\n * @author Julien Niset - <julien@argent.im>\n */\ncontract ArgentENSManager is IENSManager, Owned, Managed {\n\n    using strings for *;\n\n    // The managed root name\n    string public rootName;\n    // The managed root node\n    bytes32 public rootNode;\n\n    ENS public ensRegistry;\n    ENSResolver public ensResolver;\n\n    // namehash('addr.reverse')\n    bytes32 constant public ADDR_REVERSE_NODE = 0x91d1777781884d03a6757a803996e38de2a42967fb37eeaca72729271025a9e2;\n\n    // *************** Constructor ********************** //\n\n    /**\n     * @dev Constructor that sets the ENS root name and root node to manage.\n     * @param _rootName The root name (e.g. argentx.eth).\n     * @param _rootNode The node of the root name (e.g. namehash(argentx.eth)).\n     * @param _ensRegistry The address of the ENS registry\n     * @param _ensResolver The address of the ENS resolver\n     */\n    constructor(string memory _rootName, bytes32 _rootNode, address _ensRegistry, address _ensResolver) public {\n        rootName = _rootName;\n        rootNode = _rootNode;\n        ensRegistry = ENS(_ensRegistry);\n        ensResolver = ENSResolver(_ensResolver);\n    }\n\n    // *************** External Functions ********************* //\n\n    /**\n     * @dev This function must be called when the ENS Manager contract is replaced\n     * and the address of the new Manager should be provided.\n     * @param _newOwner The address of the new ENS manager that will manage the root node.\n     */\n    function changeRootnodeOwner(address _newOwner) external onlyOwner {\n        ensRegistry.setOwner(rootNode, _newOwner);\n        emit RootnodeOwnerChange(rootNode, _newOwner);\n    }\n\n    /**\n     * @dev Lets the owner change the address of the ENS resolver contract.\n     * @param _ensResolver The address of the ENS resolver contract.\n     */\n    function changeENSResolver(address _ensResolver) external onlyOwner {\n        require(_ensResolver != address(0), \"WF: address cannot be null\");\n        ensResolver = ENSResolver(_ensResolver);\n        emit ENSResolverChanged(_ensResolver);\n    }\n\n    /**\n    * @dev Lets the manager assign an ENS subdomain of the root node to a target address.\n    * Registers both the forward and reverse ENS.\n    * @param _label The subdomain label.\n    * @param _owner The owner of the subdomain.\n    */\n    function register(string calldata _label, address _owner) external onlyManager {\n        bytes32 labelNode = keccak256(abi.encodePacked(_label));\n        bytes32 node = keccak256(abi.encodePacked(rootNode, labelNode));\n        address currentOwner = ensRegistry.owner(node);\n        require(currentOwner == address(0), \"AEM: _label is alrealdy owned\");\n\n        // Forward ENS\n        ensRegistry.setSubnodeRecord(rootNode, labelNode, _owner, address(ensResolver), 0);\n        ensResolver.setAddr(node, _owner);\n\n        // Reverse ENS\n        strings.slice[] memory parts = new strings.slice[](2);\n        parts[0] = _label.toSlice();\n        parts[1] = rootName.toSlice();\n        string memory name = \".\".toSlice().join(parts);\n        ENSReverseRegistrar reverseRegistrar = ENSReverseRegistrar(_getENSReverseRegistrar());\n        bytes32 reverseNode = reverseRegistrar.node(_owner);\n        ensResolver.setName(reverseNode, name);\n\n        emit Registered(_owner, name);\n    }\n\n    /**\n    * @dev Gets the official ENS reverse registrar.\n    * @return Address of the ENS reverse registrar.\n    */\n    function getENSReverseRegistrar() external view returns (address) {\n        return _getENSReverseRegistrar();\n    }\n\n    // *************** Public Functions ********************* //\n\n    /**\n     * @dev Returns true is a given subnode is available.\n     * @param _subnode The target subnode.\n     * @return true if the subnode is available.\n     */\n    function isAvailable(bytes32 _subnode) public view returns (bool) {\n        bytes32 node = keccak256(abi.encodePacked(rootNode, _subnode));\n        address currentOwner = ensRegistry.owner(node);\n        if (currentOwner == address(0)) {\n            return true;\n        }\n        return false;\n    }\n\n    function _getENSReverseRegistrar() internal view returns (address) {\n        return ensRegistry.owner(ADDR_REVERSE_NODE);\n    }\n}\n",
  "sourcePath": "/Users/name/dev/argent-contracts-release-1.5.0/contracts/ens/ArgentENSManager.sol",
  "compiler": {
    "name": "solc",
    "version": "0.5.4+commit.9549d8ff.Emscripten.clang",
    "optimizer": true,
    "runs": 999
  },
  "schemaVersion": "2.3.1",
  "updatedAt": "2020-04-01T15:58:47.156Z"
}