{
  "contractName": "BaseModule",
  "abi": [
    {
      "inputs": [
        {
          "name": "_registry",
          "type": "address"
        },
        {
          "name": "_guardianStorage",
          "type": "address"
        },
        {
          "name": "_name",
          "type": "bytes32"
        }
      ],
      "payable": false,
      "stateMutability": "nonpayable",
      "type": "constructor"
    },
    {
      "anonymous": false,
      "inputs": [
        {
          "indexed": false,
          "name": "name",
          "type": "bytes32"
        }
      ],
      "name": "ModuleCreated",
      "type": "event"
    },
    {
      "anonymous": false,
      "inputs": [
        {
          "indexed": false,
          "name": "wallet",
          "type": "address"
        }
      ],
      "name": "ModuleInitialised",
      "type": "event"
    },
    {
      "constant": false,
      "inputs": [
        {
          "name": "_wallet",
          "type": "address"
        }
      ],
      "name": "init",
      "outputs": [],
      "payable": false,
      "stateMutability": "nonpayable",
      "type": "function"
    },
    {
      "constant": false,
      "inputs": [
        {
          "name": "_wallet",
          "type": "address"
        },
        {
          "name": "_module",
          "type": "address"
        }
      ],
      "name": "addModule",
      "outputs": [],
      "payable": false,
      "stateMutability": "nonpayable",
      "type": "function"
    },
    {
      "constant": false,
      "inputs": [
        {
          "name": "_token",
          "type": "address"
        }
      ],
      "name": "recoverToken",
      "outputs": [],
      "payable": false,
      "stateMutability": "nonpayable",
      "type": "function"
    }
  ],
  "bytecode": "0x608060405234801561001057600080fd5b506040516060806106fc8339810180604052606081101561003057600080fd5b50805160208083015160409384015160008054600160a060020a03808716600160a060020a0319928316179092556001805492851692909116919091179055845181815294519394919390927f3019c8fc80239e3dff8f781212ae2004839c2cb61d6c70acd279ac65392145df928290030190a1505050610646806100b66000396000f3fe608060405234801561001057600080fd5b506004361061005d577c0100000000000000000000000000000000000000000000000000000000600035046319ab453c81146100625780635a1db8c4146100975780639be65a60146100d2575b600080fd5b6100956004803603602081101561007857600080fd5b503573ffffffffffffffffffffffffffffffffffffffff16610105565b005b610095600480360360408110156100ad57600080fd5b5073ffffffffffffffffffffffffffffffffffffffff813581169160200135166101d7565b610095600480360360208110156100e857600080fd5b503573ffffffffffffffffffffffffffffffffffffffff166103da565b803373ffffffffffffffffffffffffffffffffffffffff82161461018a57604080517f08c379a000000000000000000000000000000000000000000000000000000000815260206004820152601960248201527f424d3a2063616c6c6572206d7573742062652077616c6c657400000000000000604482015290519081900360640190fd5b6040805173ffffffffffffffffffffffffffffffffffffffff8416815290517f9fcca3f73f85397e2bf03647abf243c20b753bd54463ff3cae74de2971c112fa9181900360200190a15050565b816101e28133610527565b1515610239576040517f08c379a000000000000000000000000000000000000000000000000000000000815260040180806020018281038252602e8152602001806105ed602e913960400191505060405180910390fd5b600054604080517f0bcd4ebb00000000000000000000000000000000000000000000000000000000815273ffffffffffffffffffffffffffffffffffffffff858116600483015291519190921691630bcd4ebb916024808301926020929190829003018186803b1580156102ac57600080fd5b505afa1580156102c0573d6000803e3d6000fd5b505050506040513d60208110156102d657600080fd5b5051151561034557604080517f08c379a000000000000000000000000000000000000000000000000000000000815260206004820152601c60248201527f424d3a206d6f64756c65206973206e6f74207265676973746572656400000000604482015290519081900360640190fd5b604080517f1f17732d00000000000000000000000000000000000000000000000000000000815273ffffffffffffffffffffffffffffffffffffffff848116600483015260016024830152915191851691631f17732d9160448082019260009290919082900301818387803b1580156103bd57600080fd5b505af11580156103d1573d6000803e3d6000fd5b50505050505050565b604080517f70a08231000000000000000000000000000000000000000000000000000000008152306004820152905160009173ffffffffffffffffffffffffffffffffffffffff8416916370a0823191602480820192602092909190829003018186803b15801561044a57600080fd5b505afa15801561045e573d6000803e3d6000fd5b505050506040513d602081101561047457600080fd5b505160008054604080517fa9059cbb00000000000000000000000000000000000000000000000000000000815273ffffffffffffffffffffffffffffffffffffffff92831660048201526024810185905290519394509085169263a9059cbb92604480840193602093929083900390910190829087803b1580156104f757600080fd5b505af115801561050b573d6000803e3d6000fd5b505050506040513d602081101561052157600080fd5b50505050565b60008173ffffffffffffffffffffffffffffffffffffffff168373ffffffffffffffffffffffffffffffffffffffff16638da5cb5b6040518163ffffffff167c010000000000000000000000000000000000000000000000000000000002815260040160206040518083038186803b1580156105a257600080fd5b505afa1580156105b6573d6000803e3d6000fd5b505050506040513d60208110156105cc57600080fd5b505173ffffffffffffffffffffffffffffffffffffffff1614939250505056fe424d3a206d73672e73656e646572206d75737420626520616e206f776e657220666f72207468652077616c6c6574a165627a7a72305820aa26455778b93e99b969e1270123d7004df18b97adfeb1afd52dd6fa8a66b80e0029",
  "source": "// Copyright (C) 2018  Argent Labs Ltd. <https://argent.xyz>\n\n// This program is free software: you can redistribute it and/or modify\n// it under the terms of the GNU General Public License as published by\n// the Free Software Foundation, either version 3 of the License, or\n// (at your option) any later version.\n\n// This program is distributed in the hope that it will be useful,\n// but WITHOUT ANY WARRANTY; without even the implied warranty of\n// MERCHANTABILITY or FITNESS FOR A PARTICULAR PURPOSE.  See the\n// GNU General Public License for more details.\n\n// You should have received a copy of the GNU General Public License\n// along with this program.  If not, see <http://www.gnu.org/licenses/>.\n\npragma solidity ^0.5.4;\nimport \"../../wallet/BaseWallet.sol\";\nimport \"../../upgrade/ModuleRegistry.sol\";\nimport \"../../storage/GuardianStorage.sol\";\nimport \"../../interfaces/Module.sol\";\nimport \"../../exchange/ERC20.sol\";\n\n/**\n * @title BaseModule\n * @dev Basic module that contains some methods common to all modules.\n * @author Julien Niset - <julien@argent.im>\n */\ncontract BaseModule is Module {\n\n    // Empty calldata\n    bytes constant internal EMPTY_BYTES = \"\";\n\n    // The adddress of the module registry.\n    ModuleRegistry internal registry;\n    // The address of the Guardian storage\n    GuardianStorage internal guardianStorage;\n\n    /**\n     * @dev Throws if the wallet is locked.\n     */\n    modifier onlyWhenUnlocked(BaseWallet _wallet) {\n        // solium-disable-next-line security/no-block-members\n        require(!guardianStorage.isLocked(_wallet), \"BM: wallet must be unlocked\");\n        _;\n    }\n\n    event ModuleCreated(bytes32 name);\n    event ModuleInitialised(address wallet);\n\n    constructor(ModuleRegistry _registry, GuardianStorage _guardianStorage, bytes32 _name) public {\n        registry = _registry;\n        guardianStorage = _guardianStorage;\n        emit ModuleCreated(_name);\n    }\n\n    /**\n     * @dev Throws if the sender is not the target wallet of the call.\n     */\n    modifier onlyWallet(BaseWallet _wallet) {\n        require(msg.sender == address(_wallet), \"BM: caller must be wallet\");\n        _;\n    }\n\n    /**\n     * @dev Throws if the sender is not the owner of the target wallet or the module itself.\n     */\n    modifier onlyWalletOwner(BaseWallet _wallet) {\n        require(msg.sender == address(this) || isOwner(_wallet, msg.sender), \"BM: must be an owner for the wallet\");\n        _;\n    }\n\n    /**\n     * @dev Throws if the sender is not the owner of the target wallet.\n     */\n    modifier strictOnlyWalletOwner(BaseWallet _wallet) {\n        require(isOwner(_wallet, msg.sender), \"BM: msg.sender must be an owner for the wallet\");\n        _;\n    }\n\n    /**\n     * @dev Inits the module for a wallet by logging an event.\n     * The method can only be called by the wallet itself.\n     * @param _wallet The wallet.\n     */\n    function init(BaseWallet _wallet) public onlyWallet(_wallet) {\n        emit ModuleInitialised(address(_wallet));\n    }\n\n    /**\n     * @dev Adds a module to a wallet. First checks that the module is registered.\n     * @param _wallet The target wallet.\n     * @param _module The modules to authorise.\n     */\n    function addModule(BaseWallet _wallet, Module _module) external strictOnlyWalletOwner(_wallet) {\n        require(registry.isRegisteredModule(address(_module)), \"BM: module is not registered\");\n        _wallet.authoriseModule(address(_module), true);\n    }\n\n    /**\n    * @dev Utility method enbaling anyone to recover ERC20 token sent to the\n    * module by mistake and transfer them to the Module Registry.\n    * @param _token The token to recover.\n    */\n    function recoverToken(address _token) external {\n        uint total = ERC20(_token).balanceOf(address(this));\n        ERC20(_token).transfer(address(registry), total);\n    }\n\n    /**\n     * @dev Helper method to check if an address is the owner of a target wallet.\n     * @param _wallet The target wallet.\n     * @param _addr The address.\n     */\n    function isOwner(BaseWallet _wallet, address _addr) internal view returns (bool) {\n        return _wallet.owner() == _addr;\n    }\n\n    /**\n     * @dev Helper method to invoke a wallet.\n     * @param _wallet The target wallet.\n     * @param _to The target address for the transaction.\n     * @param _value The value of the transaction.\n     * @param _data The data of the transaction.\n     */\n    function invokeWallet(address _wallet, address _to, uint256 _value, bytes memory _data) internal returns (bytes memory _res) {\n        bool success;\n        // solium-disable-next-line security/no-call-value\n        (success, _res) = _wallet.call(abi.encodeWithSignature(\"invoke(address,uint256,bytes)\", _to, _value, _data));\n        if (success && _res.length > 0) { //_res is empty if _wallet is an \"old\" BaseWallet that can't return output values\n            (_res) = abi.decode(_res, (bytes));\n        } else if (_res.length > 0) {\n            // solium-disable-next-line security/no-inline-assembly\n            assembly {\n                returndatacopy(0, 0, returndatasize)\n                revert(0, returndatasize)\n            }\n        } else if (!success) {\n            revert(\"BM: wallet invoke reverted\");\n        }\n    }\n}",
  "sourcePath": "/Users/name/dev/smartcontracts/contracts/modules/common/BaseModule.sol",
  "compiler": {
    "name": "solc",
    "version": "0.5.4+commit.9549d8ff.Emscripten.clang",
    "optimizer": true,
    "runs": 999
  },
  "schemaVersion": "2.3.1",
  "updatedAt": "2020-04-01T21:49:52.968Z"
}