{
  "contractName": "CErc20",
  "abi": [
    {
      "constant": true,
      "inputs": [],
      "name": "name",
      "outputs": [
        {
          "name": "",
          "type": "string"
        }
      ],
      "payable": false,
      "stateMutability": "view",
      "type": "function"
    },
    {
      "constant": false,
      "inputs": [
        {
          "name": "spender",
          "type": "address"
        },
        {
          "name": "amount",
          "type": "uint256"
        }
      ],
      "name": "approve",
      "outputs": [
        {
          "name": "",
          "type": "bool"
        }
      ],
      "payable": false,
      "stateMutability": "nonpayable",
      "type": "function"
    },
    {
      "constant": true,
      "inputs": [],
      "name": "reserveFactorMantissa",
      "outputs": [
        {
          "name": "",
          "type": "uint256"
        }
      ],
      "payable": false,
      "stateMutability": "view",
      "type": "function"
    },
    {
      "constant": false,
      "inputs": [
        {
          "name": "account",
          "type": "address"
        }
      ],
      "name": "borrowBalanceCurrent",
      "outputs": [
        {
          "name": "",
          "type": "uint256"
        }
      ],
      "payable": false,
      "stateMutability": "nonpayable",
      "type": "function"
    },
    {
      "constant": true,
      "inputs": [],
      "name": "totalSupply",
      "outputs": [
        {
          "name": "",
          "type": "uint256"
        }
      ],
      "payable": false,
      "stateMutability": "view",
      "type": "function"
    },
    {
      "constant": true,
      "inputs": [],
      "name": "exchangeRateStored",
      "outputs": [
        {
          "name": "",
          "type": "uint256"
        }
      ],
      "payable": false,
      "stateMutability": "view",
      "type": "function"
    },
    {
      "constant": false,
      "inputs": [
        {
          "name": "src",
          "type": "address"
        },
        {
          "name": "dst",
          "type": "address"
        },
        {
          "name": "amount",
          "type": "uint256"
        }
      ],
      "name": "transferFrom",
      "outputs": [
        {
          "name": "",
          "type": "bool"
        }
      ],
      "payable": false,
      "stateMutability": "nonpayable",
      "type": "function"
    },
    {
      "constant": true,
      "inputs": [],
      "name": "pendingAdmin",
      "outputs": [
        {
          "name": "",
          "type": "address"
        }
      ],
      "payable": false,
      "stateMutability": "view",
      "type": "function"
    },
    {
      "constant": true,
      "inputs": [],
      "name": "decimals",
      "outputs": [
        {
          "name": "",
          "type": "uint256"
        }
      ],
      "payable": false,
      "stateMutability": "view",
      "type": "function"
    },
    {
      "constant": false,
      "inputs": [
        {
          "name": "owner",
          "type": "address"
        }
      ],
      "name": "balanceOfUnderlying",
      "outputs": [
        {
          "name": "",
          "type": "uint256"
        }
      ],
      "payable": false,
      "stateMutability": "nonpayable",
      "type": "function"
    },
    {
      "constant": true,
      "inputs": [],
      "name": "getCash",
      "outputs": [
        {
          "name": "",
          "type": "uint256"
        }
      ],
      "payable": false,
      "stateMutability": "view",
      "type": "function"
    },
    {
      "constant": false,
      "inputs": [
        {
          "name": "newComptroller",
          "type": "address"
        }
      ],
      "name": "_setComptroller",
      "outputs": [
        {
          "name": "",
          "type": "uint256"
        }
      ],
      "payable": false,
      "stateMutability": "nonpayable",
      "type": "function"
    },
    {
      "constant": true,
      "inputs": [],
      "name": "totalBorrows",
      "outputs": [
        {
          "name": "",
          "type": "uint256"
        }
      ],
      "payable": false,
      "stateMutability": "view",
      "type": "function"
    },
    {
      "constant": true,
      "inputs": [],
      "name": "comptroller",
      "outputs": [
        {
          "name": "",
          "type": "address"
        }
      ],
      "payable": false,
      "stateMutability": "view",
      "type": "function"
    },
    {
      "constant": false,
      "inputs": [
        {
          "name": "reduceAmount",
          "type": "uint256"
        }
      ],
      "name": "_reduceReserves",
      "outputs": [
        {
          "name": "",
          "type": "uint256"
        }
      ],
      "payable": false,
      "stateMutability": "nonpayable",
      "type": "function"
    },
    {
      "constant": true,
      "inputs": [],
      "name": "initialExchangeRateMantissa",
      "outputs": [
        {
          "name": "",
          "type": "uint256"
        }
      ],
      "payable": false,
      "stateMutability": "view",
      "type": "function"
    },
    {
      "constant": true,
      "inputs": [],
      "name": "accrualBlockNumber",
      "outputs": [
        {
          "name": "",
          "type": "uint256"
        }
      ],
      "payable": false,
      "stateMutability": "view",
      "type": "function"
    },
    {
      "constant": true,
      "inputs": [],
      "name": "underlying",
      "outputs": [
        {
          "name": "",
          "type": "address"
        }
      ],
      "payable": false,
      "stateMutability": "view",
      "type": "function"
    },
    {
      "constant": true,
      "inputs": [
        {
          "name": "owner",
          "type": "address"
        }
      ],
      "name": "balanceOf",
      "outputs": [
        {
          "name": "",
          "type": "uint256"
        }
      ],
      "payable": false,
      "stateMutability": "view",
      "type": "function"
    },
    {
      "constant": false,
      "inputs": [],
      "name": "totalBorrowsCurrent",
      "outputs": [
        {
          "name": "",
          "type": "uint256"
        }
      ],
      "payable": false,
      "stateMutability": "nonpayable",
      "type": "function"
    },
    {
      "constant": true,
      "inputs": [],
      "name": "totalReserves",
      "outputs": [
        {
          "name": "",
          "type": "uint256"
        }
      ],
      "payable": false,
      "stateMutability": "view",
      "type": "function"
    },
    {
      "constant": true,
      "inputs": [],
      "name": "symbol",
      "outputs": [
        {
          "name": "",
          "type": "string"
        }
      ],
      "payable": false,
      "stateMutability": "view",
      "type": "function"
    },
    {
      "constant": true,
      "inputs": [
        {
          "name": "account",
          "type": "address"
        }
      ],
      "name": "borrowBalanceStored",
      "outputs": [
        {
          "name": "",
          "type": "uint256"
        }
      ],
      "payable": false,
      "stateMutability": "view",
      "type": "function"
    },
    {
      "constant": false,
      "inputs": [],
      "name": "accrueInterest",
      "outputs": [
        {
          "name": "",
          "type": "uint256"
        }
      ],
      "payable": false,
      "stateMutability": "nonpayable",
      "type": "function"
    },
    {
      "constant": false,
      "inputs": [
        {
          "name": "dst",
          "type": "address"
        },
        {
          "name": "amount",
          "type": "uint256"
        }
      ],
      "name": "transfer",
      "outputs": [
        {
          "name": "",
          "type": "bool"
        }
      ],
      "payable": false,
      "stateMutability": "nonpayable",
      "type": "function"
    },
    {
      "constant": true,
      "inputs": [],
      "name": "borrowIndex",
      "outputs": [
        {
          "name": "",
          "type": "uint256"
        }
      ],
      "payable": false,
      "stateMutability": "view",
      "type": "function"
    },
    {
      "constant": true,
      "inputs": [],
      "name": "supplyRatePerBlock",
      "outputs": [
        {
          "name": "",
          "type": "uint256"
        }
      ],
      "payable": false,
      "stateMutability": "view",
      "type": "function"
    },
    {
      "constant": false,
      "inputs": [
        {
          "name": "liquidator",
          "type": "address"
        },
        {
          "name": "borrower",
          "type": "address"
        },
        {
          "name": "seizeTokens",
          "type": "uint256"
        }
      ],
      "name": "seize",
      "outputs": [
        {
          "name": "",
          "type": "uint256"
        }
      ],
      "payable": false,
      "stateMutability": "nonpayable",
      "type": "function"
    },
    {
      "constant": false,
      "inputs": [
        {
          "name": "newPendingAdmin",
          "type": "address"
        }
      ],
      "name": "_setPendingAdmin",
      "outputs": [
        {
          "name": "",
          "type": "uint256"
        }
      ],
      "payable": false,
      "stateMutability": "nonpayable",
      "type": "function"
    },
    {
      "constant": false,
      "inputs": [],
      "name": "exchangeRateCurrent",
      "outputs": [
        {
          "name": "",
          "type": "uint256"
        }
      ],
      "payable": false,
      "stateMutability": "nonpayable",
      "type": "function"
    },
    {
      "constant": true,
      "inputs": [
        {
          "name": "account",
          "type": "address"
        }
      ],
      "name": "getAccountSnapshot",
      "outputs": [
        {
          "name": "",
          "type": "uint256"
        },
        {
          "name": "",
          "type": "uint256"
        },
        {
          "name": "",
          "type": "uint256"
        },
        {
          "name": "",
          "type": "uint256"
        }
      ],
      "payable": false,
      "stateMutability": "view",
      "type": "function"
    },
    {
      "constant": true,
      "inputs": [
        {
          "name": "owner",
          "type": "address"
        },
        {
          "name": "spender",
          "type": "address"
        }
      ],
      "name": "allowance",
      "outputs": [
        {
          "name": "",
          "type": "uint256"
        }
      ],
      "payable": false,
      "stateMutability": "view",
      "type": "function"
    },
    {
      "constant": false,
      "inputs": [],
      "name": "_acceptAdmin",
      "outputs": [
        {
          "name": "",
          "type": "uint256"
        }
      ],
      "payable": false,
      "stateMutability": "nonpayable",
      "type": "function"
    },
    {
      "constant": false,
      "inputs": [
        {
          "name": "newInterestRateModel",
          "type": "address"
        }
      ],
      "name": "_setInterestRateModel",
      "outputs": [
        {
          "name": "",
          "type": "uint256"
        }
      ],
      "payable": false,
      "stateMutability": "nonpayable",
      "type": "function"
    },
    {
      "constant": true,
      "inputs": [],
      "name": "interestRateModel",
      "outputs": [
        {
          "name": "",
          "type": "address"
        }
      ],
      "payable": false,
      "stateMutability": "view",
      "type": "function"
    },
    {
      "constant": true,
      "inputs": [],
      "name": "admin",
      "outputs": [
        {
          "name": "",
          "type": "address"
        }
      ],
      "payable": false,
      "stateMutability": "view",
      "type": "function"
    },
    {
      "constant": true,
      "inputs": [],
      "name": "borrowRatePerBlock",
      "outputs": [
        {
          "name": "",
          "type": "uint256"
        }
      ],
      "payable": false,
      "stateMutability": "view",
      "type": "function"
    },
    {
      "constant": false,
      "inputs": [
        {
          "name": "newReserveFactorMantissa",
          "type": "uint256"
        }
      ],
      "name": "_setReserveFactor",
      "outputs": [
        {
          "name": "",
          "type": "uint256"
        }
      ],
      "payable": false,
      "stateMutability": "nonpayable",
      "type": "function"
    },
    {
      "constant": true,
      "inputs": [],
      "name": "isCToken",
      "outputs": [
        {
          "name": "",
          "type": "bool"
        }
      ],
      "payable": false,
      "stateMutability": "view",
      "type": "function"
    },
    {
      "inputs": [
        {
          "name": "underlying_",
          "type": "address"
        },
        {
          "name": "comptroller_",
          "type": "address"
        },
        {
          "name": "interestRateModel_",
          "type": "address"
        },
        {
          "name": "initialExchangeRateMantissa_",
          "type": "uint256"
        },
        {
          "name": "name_",
          "type": "string"
        },
        {
          "name": "symbol_",
          "type": "string"
        },
        {
          "name": "decimals_",
          "type": "uint256"
        }
      ],
      "payable": false,
      "stateMutability": "nonpayable",
      "type": "constructor"
    },
    {
      "anonymous": false,
      "inputs": [
        {
          "indexed": false,
          "name": "interestAccumulated",
          "type": "uint256"
        },
        {
          "indexed": false,
          "name": "borrowIndex",
          "type": "uint256"
        },
        {
          "indexed": false,
          "name": "totalBorrows",
          "type": "uint256"
        }
      ],
      "name": "AccrueInterest",
      "type": "event"
    },
    {
      "anonymous": false,
      "inputs": [
        {
          "indexed": false,
          "name": "minter",
          "type": "address"
        },
        {
          "indexed": false,
          "name": "mintAmount",
          "type": "uint256"
        },
        {
          "indexed": false,
          "name": "mintTokens",
          "type": "uint256"
        }
      ],
      "name": "Mint",
      "type": "event"
    },
    {
      "anonymous": false,
      "inputs": [
        {
          "indexed": false,
          "name": "redeemer",
          "type": "address"
        },
        {
          "indexed": false,
          "name": "redeemAmount",
          "type": "uint256"
        },
        {
          "indexed": false,
          "name": "redeemTokens",
          "type": "uint256"
        }
      ],
      "name": "Redeem",
      "type": "event"
    },
    {
      "anonymous": false,
      "inputs": [
        {
          "indexed": false,
          "name": "borrower",
          "type": "address"
        },
        {
          "indexed": false,
          "name": "borrowAmount",
          "type": "uint256"
        },
        {
          "indexed": false,
          "name": "accountBorrows",
          "type": "uint256"
        },
        {
          "indexed": false,
          "name": "totalBorrows",
          "type": "uint256"
        }
      ],
      "name": "Borrow",
      "type": "event"
    },
    {
      "anonymous": false,
      "inputs": [
        {
          "indexed": false,
          "name": "payer",
          "type": "address"
        },
        {
          "indexed": false,
          "name": "borrower",
          "type": "address"
        },
        {
          "indexed": false,
          "name": "repayAmount",
          "type": "uint256"
        },
        {
          "indexed": false,
          "name": "accountBorrows",
          "type": "uint256"
        },
        {
          "indexed": false,
          "name": "totalBorrows",
          "type": "uint256"
        }
      ],
      "name": "RepayBorrow",
      "type": "event"
    },
    {
      "anonymous": false,
      "inputs": [
        {
          "indexed": false,
          "name": "liquidator",
          "type": "address"
        },
        {
          "indexed": false,
          "name": "borrower",
          "type": "address"
        },
        {
          "indexed": false,
          "name": "repayAmount",
          "type": "uint256"
        },
        {
          "indexed": false,
          "name": "cTokenCollateral",
          "type": "address"
        },
        {
          "indexed": false,
          "name": "seizeTokens",
          "type": "uint256"
        }
      ],
      "name": "LiquidateBorrow",
      "type": "event"
    },
    {
      "anonymous": false,
      "inputs": [
        {
          "indexed": false,
          "name": "oldPendingAdmin",
          "type": "address"
        },
        {
          "indexed": false,
          "name": "newPendingAdmin",
          "type": "address"
        }
      ],
      "name": "NewPendingAdmin",
      "type": "event"
    },
    {
      "anonymous": false,
      "inputs": [
        {
          "indexed": false,
          "name": "oldAdmin",
          "type": "address"
        },
        {
          "indexed": false,
          "name": "newAdmin",
          "type": "address"
        }
      ],
      "name": "NewAdmin",
      "type": "event"
    },
    {
      "anonymous": false,
      "inputs": [
        {
          "indexed": false,
          "name": "oldComptroller",
          "type": "address"
        },
        {
          "indexed": false,
          "name": "newComptroller",
          "type": "address"
        }
      ],
      "name": "NewComptroller",
      "type": "event"
    },
    {
      "anonymous": false,
      "inputs": [
        {
          "indexed": false,
          "name": "oldInterestRateModel",
          "type": "address"
        },
        {
          "indexed": false,
          "name": "newInterestRateModel",
          "type": "address"
        }
      ],
      "name": "NewMarketInterestRateModel",
      "type": "event"
    },
    {
      "anonymous": false,
      "inputs": [
        {
          "indexed": false,
          "name": "oldReserveFactorMantissa",
          "type": "uint256"
        },
        {
          "indexed": false,
          "name": "newReserveFactorMantissa",
          "type": "uint256"
        }
      ],
      "name": "NewReserveFactor",
      "type": "event"
    },
    {
      "anonymous": false,
      "inputs": [
        {
          "indexed": false,
          "name": "admin",
          "type": "address"
        },
        {
          "indexed": false,
          "name": "reduceAmount",
          "type": "uint256"
        },
        {
          "indexed": false,
          "name": "newTotalReserves",
          "type": "uint256"
        }
      ],
      "name": "ReservesReduced",
      "type": "event"
    },
    {
      "anonymous": false,
      "inputs": [
        {
          "indexed": false,
          "name": "error",
          "type": "uint256"
        },
        {
          "indexed": false,
          "name": "info",
          "type": "uint256"
        },
        {
          "indexed": false,
          "name": "detail",
          "type": "uint256"
        }
      ],
      "name": "Failure",
      "type": "event"
    },
    {
      "anonymous": false,
      "inputs": [
        {
          "indexed": true,
          "name": "from",
          "type": "address"
        },
        {
          "indexed": true,
          "name": "to",
          "type": "address"
        },
        {
          "indexed": false,
          "name": "amount",
          "type": "uint256"
        }
      ],
      "name": "Transfer",
      "type": "event"
    },
    {
      "anonymous": false,
      "inputs": [
        {
          "indexed": true,
          "name": "owner",
          "type": "address"
        },
        {
          "indexed": true,
          "name": "spender",
          "type": "address"
        },
        {
          "indexed": false,
          "name": "amount",
          "type": "uint256"
        }
      ],
      "name": "Approval",
      "type": "event"
    },
    {
      "constant": false,
      "inputs": [
        {
          "name": "mintAmount",
          "type": "uint256"
        }
      ],
      "name": "mint",
      "outputs": [
        {
          "name": "",
          "type": "uint256"
        }
      ],
      "payable": false,
      "stateMutability": "nonpayable",
      "type": "function"
    },
    {
      "constant": false,
      "inputs": [
        {
          "name": "redeemTokens",
          "type": "uint256"
        }
      ],
      "name": "redeem",
      "outputs": [
        {
          "name": "",
          "type": "uint256"
        }
      ],
      "payable": false,
      "stateMutability": "nonpayable",
      "type": "function"
    },
    {
      "constant": false,
      "inputs": [
        {
          "name": "redeemAmount",
          "type": "uint256"
        }
      ],
      "name": "redeemUnderlying",
      "outputs": [
        {
          "name": "",
          "type": "uint256"
        }
      ],
      "payable": false,
      "stateMutability": "nonpayable",
      "type": "function"
    },
    {
      "constant": false,
      "inputs": [
        {
          "name": "borrowAmount",
          "type": "uint256"
        }
      ],
      "name": "borrow",
      "outputs": [
        {
          "name": "",
          "type": "uint256"
        }
      ],
      "payable": false,
      "stateMutability": "nonpayable",
      "type": "function"
    },
    {
      "constant": false,
      "inputs": [
        {
          "name": "repayAmount",
          "type": "uint256"
        }
      ],
      "name": "repayBorrow",
      "outputs": [
        {
          "name": "",
          "type": "uint256"
        }
      ],
      "payable": false,
      "stateMutability": "nonpayable",
      "type": "function"
    },
    {
      "constant": false,
      "inputs": [
        {
          "name": "borrower",
          "type": "address"
        },
        {
          "name": "repayAmount",
          "type": "uint256"
        }
      ],
      "name": "repayBorrowBehalf",
      "outputs": [
        {
          "name": "",
          "type": "uint256"
        }
      ],
      "payable": false,
      "stateMutability": "nonpayable",
      "type": "function"
    },
    {
      "constant": false,
      "inputs": [
        {
          "name": "borrower",
          "type": "address"
        },
        {
          "name": "repayAmount",
          "type": "uint256"
        },
        {
          "name": "cTokenCollateral",
          "type": "address"
        }
      ],
      "name": "liquidateBorrow",
      "outputs": [
        {
          "name": "",
          "type": "uint256"
        }
      ],
      "payable": false,
      "stateMutability": "nonpayable",
      "type": "function"
    }
  ],
  "bytecode": "0x60806040523480156200001157600080fd5b506040516200578138038062005781833981018060405260e08110156200003757600080fd5b8151602083015160408401516060850151608086018051949693959294919392830192916401000000008111156200006e57600080fd5b820160208101848111156200008257600080fd5b81516401000000008111828201871017156200009d57600080fd5b50509291906020018051640100000000811115620000ba57600080fd5b82016020810184811115620000ce57600080fd5b8151640100000000811182820187101715620000e957600080fd5b50506020909101516001600090815560048054600160a060020a0319163317905560088790559193509150869086908690869086908690841162000179576040517f08c379a0000000000000000000000000000000000000000000000000000000008152600401808060200182810382526030815260200180620057516030913960400191505060405180910390fd5b60006200018f8764010000000062000375810204565b90508015620001ff57604080517f08c379a000000000000000000000000000000000000000000000000000000000815260206004820152601a60248201527f53657474696e6720636f6d7074726f6c6c6572206661696c6564000000000000604482015290519081900360640190fd5b620002126401000000006200050d810204565b600a55670de0b6b3a7640000600b55620002358664010000000062000512810204565b9050801562000290576040517f08c379a00000000000000000000000000000000000000000000000000000000081526004018080602001828103825260228152602001806200572f6022913960400191505060405180910390fd5b8351620002a59060019060208701906200075b565b508251620002bb9060029060208601906200075b565b5050600355505060128054600160a060020a031916600160a060020a038c81169190911791829055604080517f18160ddd00000000000000000000000000000000000000000000000000000000815290519290911694506318160ddd93506004808201935060209291829003018186803b1580156200033957600080fd5b505afa1580156200034e573d6000803e3d6000fd5b505050506040513d60208110156200036557600080fd5b50620007fd975050505050505050565b600454600090600160a060020a03163314620003aa57620003a26001603f640100000000620006eb810204565b905062000508565b600654604080517e7e3dd20000000000000000000000000000000000000000000000000000000081529051600160a060020a0392831692851691627e3dd2916004808301926020929190829003018186803b1580156200040957600080fd5b505afa1580156200041e573d6000803e3d6000fd5b505050506040513d60208110156200043557600080fd5b50511515620004a557604080517f08c379a000000000000000000000000000000000000000000000000000000000815260206004820152601c60248201527f6d61726b6572206d6574686f642072657475726e65642066616c736500000000604482015290519081900360640190fd5b60068054600160a060020a031916600160a060020a03858116918217909255604080519284168352602083019190915280517f7ac369dbd14fa5ea3f473ed67cc9d598964a77501540ba6751eb0b3decf5870d9281900390910190a160005b9150505b919050565b435b90565b6004546000908190600160a060020a031633146200054a576200054160016042640100000000620006eb810204565b91505062000508565b6200055d6401000000006200050d810204565b600a54146200057d5762000541600a6041640100000000620006eb810204565b600760009054906101000a9004600160a060020a0316905082600160a060020a0316632191f92a6040518163ffffffff167c010000000000000000000000000000000000000000000000000000000002815260040160206040518083038186803b158015620005eb57600080fd5b505afa15801562000600573d6000803e3d6000fd5b505050506040513d60208110156200061757600080fd5b505115156200068757604080517f08c379a000000000000000000000000000000000000000000000000000000000815260206004820152601c60248201527f6d61726b6572206d6574686f642072657475726e65642066616c736500000000604482015290519081900360640190fd5b60078054600160a060020a031916600160a060020a03858116918217909255604080519284168352602083019190915280517fedffc32e068c7c95dfd4bdfd5c4d939a084d6b11c4199eac8436ed234d72f9269281900390910190a1600062000504565b60007f45b96fe442630264581b197e84bbada861235052c5a1aadfff9ea4e40a969aa08360108111156200071b57fe5b83604d8111156200072857fe5b604080519283526020830191909152600082820152519081900360600190a18260108111156200075457fe5b9392505050565b828054600181600116156101000203166002900490600052602060002090601f016020900481019282601f106200079e57805160ff1916838001178555620007ce565b82800160010185558215620007ce579182015b82811115620007ce578251825591602001919060010190620007b1565b50620007dc929150620007e0565b5090565b6200050f91905b80821115620007dc5760008155600101620007e7565b614f22806200080d6000396000f3fe608060405234801561001057600080fd5b5060043610610327576000357c0100000000000000000000000000000000000000000000000000000000900480638f840ddd116101b9578063c37f68e21161010b578063f3fdb15a116100b4578063f8f9da281161008e578063f8f9da28146107eb578063fca7820b146107f3578063fe9c44ae1461081057610327565b8063f3fdb15a146107a5578063f5e3c462146107ad578063f851a440146107e357610327565b8063dd62ed3e116100e5578063dd62ed3e14610749578063e9c714f214610777578063f2b3abbd1461077f57610327565b8063c37f68e2146106c3578063c5ebeaec1461070f578063db006a751461072c57610327565b8063a9059cbb1161016d578063b2a02ff111610147578063b2a02ff11461065f578063b71d1a0c14610695578063bd6d894d146106bb57610327565b8063a9059cbb14610623578063aa5af0fd1461064f578063ae9d70b01461065757610327565b806395dd91931161019e57806395dd9193146105d8578063a0712d68146105fe578063a6afed951461061b57610327565b80638f840ddd146105c857806395d89b41146105d057610327565b80633af9e6691161027d578063675d972c1161022657806370a082311161020057806370a082311461057d57806373acee98146105a3578063852a12e3146105ab57610327565b8063675d972c146105655780636c540baf1461056d5780636f307dc31461057557610327565b806347bd37181161025757806347bd3718146105385780635fe3b56714610540578063601a0bf11461054857610327565b80633af9e669146104e45780633b1d21a21461050a5780634576b5db1461051257610327565b806318160ddd116102df5780632608f818116102b95780632608f8181461048c57806326782247146104b8578063313ce567146104dc57610327565b806318160ddd14610446578063182df0f51461044e57806323b872dd1461045657610327565b80630e752702116103105780630e752702146103e9578063173b99041461041857806317bfdfbc1461042057610327565b806306fdde031461032c578063095ea7b3146103a9575b600080fd5b610334610818565b6040805160208082528351818301528351919283929083019185019080838360005b8381101561036e578181015183820152602001610356565b50505050905090810190601f16801561039b5780820380516001836020036101000a031916815260200191505b509250505060405180910390f35b6103d5600480360360408110156103bf57600080fd5b50600160a060020a0381351690602001356108a5565b604080519115158252519081900360200190f35b610406600480360360208110156103ff57600080fd5b5035610912565b60408051918252519081900360200190f35b610406610925565b6104066004803603602081101561043657600080fd5b5035600160a060020a031661092b565b610406610a08565b610406610a0e565b6103d56004803603606081101561046c57600080fd5b50600160a060020a03813581169160208101359091169060400135610a79565b610406600480360360408110156104a257600080fd5b50600160a060020a038135169060200135610afa565b6104c0610b0d565b60408051600160a060020a039092168252519081900360200190f35b610406610b1c565b610406600480360360208110156104fa57600080fd5b5035600160a060020a0316610b22565b610406610b91565b6104066004803603602081101561052857600080fd5b5035600160a060020a0316610ba0565b610406610d1f565b6104c0610d25565b6104066004803603602081101561055e57600080fd5b5035610d34565b610406610dd7565b610406610ddd565b6104c0610de3565b6104066004803603602081101561059357600080fd5b5035600160a060020a0316610df2565b610406610e0d565b610406600480360360208110156105c157600080fd5b5035610ee1565b610406610eec565b610334610ef2565b610406600480360360208110156105ee57600080fd5b5035600160a060020a0316610f4a565b6104066004803603602081101561061457600080fd5b5035610faf565b610406610fba565b6103d56004803603604081101561063957600080fd5b50600160a060020a0381351690602001356113d9565b610406611459565b61040661145f565b6104066004803603606081101561067557600080fd5b50600160a060020a0381358116916020810135909116906040013561176c565b610406600480360360208110156106ab57600080fd5b5035600160a060020a0316611a7c565b610406611b10565b6106e9600480360360208110156106d957600080fd5b5035600160a060020a0316611be5565b604080519485526020850193909352838301919091526060830152519081900360800190f35b6104066004803603602081101561072557600080fd5b5035611c7a565b6104066004803603602081101561074257600080fd5b5035611c85565b6104066004803603604081101561075f57600080fd5b50600160a060020a0381358116916020013516611c90565b610406611cbb565b6104066004803603602081101561079557600080fd5b5035600160a060020a0316611db7565b6104c0611df1565b610406600480360360608110156107c357600080fd5b50600160a060020a03813581169160208101359160409091013516611e00565b6104c0611e0d565b610406611e1c565b6104066004803603602081101561080957600080fd5b5035611f1c565b6103d5611f56565b60018054604080516020600284861615610100026000190190941693909304601f8101849004840282018401909252818152929183018282801561089d5780601f106108725761010080835404028352916020019161089d565b820191906000526020600020905b81548152906001019060200180831161088057829003601f168201915b505050505081565b336000818152601060209081526040808320600160a060020a03871680855290835281842086905581518681529151939493909284927f8c5be1e5ebec7d5bd14f71427d1e84f3dd0314c0f7b2291e5b200ac8c7c3b925929081900390910190a360019150505b92915050565b600061091d82611f5b565b90505b919050565b60095481565b600080546001018082558161093e610fba565b146109985760408051600080516020614d3e833981519152815260206004820152601660248201527f61636372756520696e746572657374206661696c656400000000000000000000604482015290519081900360640190fd5b6109a183610f4a565b91505b6000548114610a025760408051600080516020614d3e833981519152815260206004820152600a60248201527f72652d656e746572656400000000000000000000000000000000000000000000604482015290519081900360640190fd5b50919050565b600e5481565b6000806000610a1b611f97565b90925090506000826003811115610a2e57fe5b14610a7257604051600080516020614d3e8339815191528152600401808060200182810382526035815260200180614e6a6035913960400191505060405180910390fd5b9150505b90565b6000805460010180825581610a9033878787612045565b1491505b6000548114610af25760408051600080516020614d3e833981519152815260206004820152600a60248201527f72652d656e746572656400000000000000000000000000000000000000000000604482015290519081900360640190fd5b509392505050565b6000610b068383612397565b9392505050565b600554600160a060020a031681565b60035481565b6000610b2c614bc4565b602060405190810160405280610b40611b10565b9052600160a060020a0384166000908152600f6020526040812054919250908190610b6c90849061243c565b90925090506000826003811115610b7f57fe5b14610b8957600080fd5b949350505050565b6000610b9b612490565b905090565b600454600090600160a060020a03163314610bc857610bc16001603f612529565b9050610920565b600654604080517e7e3dd20000000000000000000000000000000000000000000000000000000081529051600160a060020a0392831692851691627e3dd2916004808301926020929190829003018186803b158015610c2657600080fd5b505afa158015610c3a573d6000803e3d6000fd5b505050506040513d6020811015610c5057600080fd5b50511515610cad5760408051600080516020614d3e833981519152815260206004820152601c60248201527f6d61726b6572206d6574686f642072657475726e65642066616c736500000000604482015290519081900360640190fd5b6006805473ffffffffffffffffffffffffffffffffffffffff1916600160a060020a03858116918217909255604080519284168352602083019190915280517f7ac369dbd14fa5ea3f473ed67cc9d598964a77501540ba6751eb0b3decf5870d9281900390910190a160009392505050565b600c5481565b600654600160a060020a031681565b6000805460010180825581610d47610fba565b90508015610d6d57610d65816010811115610d5e57fe5b6030612529565b9250506109a4565b610d768461258f565b9250506000548114610a025760408051600080516020614d3e833981519152815260206004820152600a60248201527f72652d656e746572656400000000000000000000000000000000000000000000604482015290519081900360640190fd5b60085481565b600a5481565b601254600160a060020a031681565b600160a060020a03166000908152600f602052604090205490565b6000805460010180825581610e20610fba565b14610e7a5760408051600080516020614d3e833981519152815260206004820152601660248201527f61636372756520696e746572657374206661696c656400000000000000000000604482015290519081900360640190fd5b600c5491506000548114610edd5760408051600080516020614d3e833981519152815260206004820152600a60248201527f72652d656e746572656400000000000000000000000000000000000000000000604482015290519081900360640190fd5b5090565b600061091d8261271d565b600d5481565b6002805460408051602060018416156101000260001901909316849004601f8101849004840282018401909252818152929183018282801561089d5780601f106108725761010080835404028352916020019161089d565b6000806000610f588461275a565b90925090506000826003811115610f6b57fe5b14610b0657604051600080516020614d3e8339815191528152600401808060200182810382526037815260200180614d5e6037913960400191505060405180910390fd5b600061091d82612810565b6000610fc4614bd6565b600754600160a060020a03166315f24053610fdd612490565b600c54600d546040518463ffffffff167c0100000000000000000000000000000000000000000000000000000000028152600401808481526020018381526020018281526020019350505050604080518083038186803b15801561104057600080fd5b505afa158015611054573d6000803e3d6000fd5b505050506040513d604081101561106a57600080fd5b50805160209182015160408401819052918301526601c6bf5263400010156110e15760408051600080516020614d3e833981519152815260206004820152601c60248201527f626f72726f772072617465206973206162737572646c79206869676800000000604482015290519081900360640190fd5b602081015115611104576110fc60056002836020015161284b565b915050610a76565b61110c6128b1565b60608201819052600a5461112091906128b5565b608083018190528282600381111561113457fe5b600381111561113f57fe5b905250600090508151600381111561115357fe5b1461115a57fe5b61117b602060405190810160405280836040015181525082608001516128d8565b60a083018190528282600381111561118f57fe5b600381111561119a57fe5b90525060009050815160038111156111ae57fe5b146111cf576110fc60096006836000015160038111156111ca57fe5b61284b565b6111df8160a00151600c5461243c565b60c08301819052828260038111156111f357fe5b60038111156111fe57fe5b905250600090508151600381111561121257fe5b1461122e576110fc60096001836000015160038111156111ca57fe5b61123e8160c00151600c54612940565b60e083018190528282600381111561125257fe5b600381111561125d57fe5b905250600090508151600381111561127157fe5b1461128d576110fc60096004836000015160038111156111ca57fe5b6112af6020604051908101604052806009548152508260c00151600d54612966565b6101008301819052828260038111156112c457fe5b60038111156112cf57fe5b90525060009050815160038111156112e357fe5b146112ff576110fc60096005836000015160038111156111ca57fe5b6113128160a00151600b54600b54612966565b61012083018190528282600381111561132757fe5b600381111561133257fe5b905250600090508151600381111561134657fe5b14611362576110fc60096003836000015160038111156111ca57fe5b606080820151600a55610120820151600b81905560e0830151600c819055610100840151600d5560c08401516040805191825260208201939093528083019190915290517f875352fb3fadeb8c0be7cbbe8ff761b308fa7033470cd0287f02f3436fd76cb9929181900390910190a1600091505090565b60008054600101808255816113f033338787612045565b1491505b60005481146114525760408051600080516020614d3e833981519152815260206004820152600a60248201527f72652d656e746572656400000000000000000000000000000000000000000000604482015290519081900360640190fd5b5092915050565b600b5481565b60008061146a610a0e565b6007549091506000908190600160a060020a03166315f2405361148b612490565b600c54600d546040518463ffffffff167c0100000000000000000000000000000000000000000000000000000000028152600401808481526020018381526020018281526020019350505050604080518083038186803b1580156114ee57600080fd5b505afa158015611502573d6000803e3d6000fd5b505050506040513d604081101561151857600080fd5b5080516020909101519092509050811561156b57604051600080516020614d3e8339815191528152600401808060200182810382526031815260200180614dfd6031913960400191505060405180910390fd5b6000611575614bc4565b61159060206040519081016040528087815250600e546128d8565b909250905060008260038111156115a357fe5b146115e757604051600080516020614d3e8339815191528152600401808060200182810382526031815260200180614d956031913960400191505060405180910390fd5b60006115f1614bc4565b6115fd600c54846129c2565b9092509050600082600381111561161057fe5b1461165457604051600080516020614d3e8339815191528152600401808060200182810382526031815260200180614cb96031913960400191505060405180910390fd5b600061165e614bc4565b6040805160208181018352670de0b6b3a764000082528251908101909252600954825261168a91612a21565b9092509050600082600381111561169d57fe5b146116e157604051600080516020614d3e833981519152815260040180806020018281038252603c815260200180614e2e603c913960400191505060405180910390fd5b60006116eb614bc4565b6117056020604051908101604052808b8152508487612a5b565b9092509050600082600381111561171857fe5b1461175c57604051600080516020614d3e8339815191528152600401808060200182810382526031815260200180614d0d6031913960400191505060405180910390fd5b519a505050505050505050505090565b60008054600101808255600654604080517fd02f7351000000000000000000000000000000000000000000000000000000008152306004820152336024820152600160a060020a03888116604483015287811660648301526084820187905291518593929092169163d02f73519160a48082019260209290919082900301818787803b1580156117fb57600080fd5b505af115801561180f573d6000803e3d6000fd5b505050506040513d602081101561182557600080fd5b5051905080156118445761183c6003601b8361284b565b925050610a94565b85600160a060020a031685600160a060020a0316141561186a5761183c6006601c612529565b600160a060020a0385166000908152600f60205260408120548190819061189190886128b5565b909350915060008360038111156118a457fe5b146118c7576118bc6009601a8560038111156111ca57fe5b955050505050610a94565b600160a060020a0389166000908152600f60205260409020546118ea9088612940565b909350905060008360038111156118fd57fe5b14611915576118bc600960198560038111156111ca57fe5b600160a060020a038089166000818152600f60209081526040808320879055938d168083529184902085905583518b8152935191937fddf252ad1be2c89b69c2b068fc378daa952ba7f163c4a11628f55a4df523b3ef929081900390910190a3600654604080517f6d35bf91000000000000000000000000000000000000000000000000000000008152306004820152336024820152600160a060020a038c811660448301528b81166064830152608482018b905291519190921691636d35bf919160a480830192600092919082900301818387803b1580156119f757600080fd5b505af1158015611a0b573d6000803e3d6000fd5b5060009250611a18915050565b9550505050506000548114610af25760408051600080516020614d3e833981519152815260206004820152600a60248201527f72652d656e746572656400000000000000000000000000000000000000000000604482015290519081900360640190fd5b600454600090600160a060020a03163314611a9d57610bc160016045612529565b60058054600160a060020a0384811673ffffffffffffffffffffffffffffffffffffffff19831681179093556040805191909216808252602082019390935281517fca4f2f25d0898edd99413412fb94012f9e54ec8142f9b093e7720646a95b16a9929181900390910190a16000610b06565b6000805460010180825581611b23610fba565b14611b7d5760408051600080516020614d3e833981519152815260206004820152601660248201527f61636372756520696e746572657374206661696c656400000000000000000000604482015290519081900360640190fd5b611b85610a0e565b91506000548114610edd5760408051600080516020614d3e833981519152815260206004820152600a60248201527f72652d656e746572656400000000000000000000000000000000000000000000604482015290519081900360640190fd5b600160a060020a0381166000908152600f6020526040812054819081908190818080611c108961275a565b935090506000816003811115611c2257fe5b14611c405760095b975060009650869550859450611c739350505050565b611c48611f97565b925090506000816003811115611c5a57fe5b14611c66576009611c2a565b5060009650919450925090505b9193509193565b600061091d82612aa5565b600061091d82612ae0565b600160a060020a03918216600090815260106020908152604080832093909416825291909152205490565b600554600090600160a060020a031633141580611cd6575033155b15611cee57611ce760016000612529565b9050610a76565b6004805460058054600160a060020a0380821673ffffffffffffffffffffffffffffffffffffffff1980861682179687905590921690925560408051938316808552949092166020840152815190927ff9ffabca9c8276e99321725bcb43fb076a6c66a54b7f21c4e8146d8519b417dc92908290030190a160055460408051600160a060020a038085168252909216602083015280517fca4f2f25d0898edd99413412fb94012f9e54ec8142f9b093e7720646a95b16a99281900390910190a160009250505090565b600080611dc2610fba565b90508015611de857611de0816010811115611dd957fe5b6040612529565b915050610920565b610b0683612b16565b600754600160a060020a031681565b6000610b89848484612cb9565b600454600160a060020a031681565b60075460009081908190600160a060020a03166315f24053611e3c612490565b600c54600d546040518463ffffffff167c0100000000000000000000000000000000000000000000000000000000028152600401808481526020018381526020018281526020019350505050604080518083038186803b158015611e9f57600080fd5b505afa158015611eb3573d6000803e3d6000fd5b505050506040513d6040811015611ec957600080fd5b50805160209091015190925090508115610a7257604051600080516020614d3e8339815191528152600401808060200182810382526037815260200180614dc66037913960400191505060405180910390fd5b6000805460010180825581611f2f610fba565b90508015611f4d57610d65816010811115611f4657fe5b6046612529565b610d7684612df8565b600181565b6000805460010180825581611f6e610fba565b90508015611f8c57610d65816010811115611f8557fe5b6036612529565b610d76333386612e9b565b600080600e5460001415611fb2575050600854600090612041565b6000611fbc612490565b90506000611fc8614bc4565b6000611fd984600c54600d54613328565b935090506000816003811115611feb57fe5b14611fff5794506000935061204192505050565b61200b83600e54613366565b92509050600081600381111561201d57fe5b146120315794506000935061204192505050565b5051600094509250612041915050565b9091565b600654604080517fbdcdc258000000000000000000000000000000000000000000000000000000008152306004820152600160a060020a03868116602483015285811660448301526064820185905291516000938493169163bdcdc25891608480830192602092919082900301818787803b1580156120c357600080fd5b505af11580156120d7573d6000803e3d6000fd5b505050506040513d60208110156120ed57600080fd5b50519050801561210c576121046003604a8361284b565b915050610b89565b83600160a060020a031685600160a060020a03161415612132576121046002604b612529565b6000600160a060020a0387811690871614156121515750600019612179565b50600160a060020a038086166000908152601060209081526040808320938a16835292905220545b60008060008061218985896128b5565b9094509250600084600381111561219c57fe5b146121ba576121ad6009604b612529565b9650505050505050610b89565b600160a060020a038a166000908152600f60205260409020546121dd90896128b5565b909450915060008460038111156121f057fe5b14612201576121ad6009604c612529565b600160a060020a0389166000908152600f60205260409020546122249089612940565b9094509050600084600381111561223757fe5b14612248576121ad6009604d612529565b600160a060020a03808b166000908152600f6020526040808220859055918b1681522081905560001985146122a057600160a060020a03808b166000908152601060209081526040808320938f168352929052208390555b88600160a060020a03168a600160a060020a03167fddf252ad1be2c89b69c2b068fc378daa952ba7f163c4a11628f55a4df523b3ef8a6040518082815260200191505060405180910390a3600654604080517f6a56947e000000000000000000000000000000000000000000000000000000008152306004820152600160a060020a038d811660248301528c81166044830152606482018c905291519190921691636a56947e91608480830192600092919082900301818387803b15801561236757600080fd5b505af115801561237b573d6000803e3d6000fd5b5060009250612388915050565b9b9a5050505050505050505050565b60008054600101808255816123aa610fba565b905080156123d0576123c88160108111156123c157fe5b6035612529565b9250506113f4565b6123db338686612e9b565b92505060005481146114525760408051600080516020614d3e833981519152815260206004820152600a60248201527f72652d656e746572656400000000000000000000000000000000000000000000604482015290519081900360640190fd5b6000806000612449614bc4565b61245386866128d8565b9092509050600082600381111561246657fe5b146124775750915060009050612489565b600061248282613416565b9350935050505b9250929050565b601254604080517f70a082310000000000000000000000000000000000000000000000000000000081523060048201529051600092600160a060020a03169182916370a0823191602480820192602092909190829003018186803b1580156124f757600080fd5b505afa15801561250b573d6000803e3d6000fd5b505050506040513d602081101561252157600080fd5b505191505090565b60007f45b96fe442630264581b197e84bbada861235052c5a1aadfff9ea4e40a969aa083601081111561255857fe5b83604d81111561256457fe5b604080519283526020830191909152600082820152519081900360600190a1826010811115610b0657fe5b60045460009081908190600160a060020a031633146125bd576125b460016031612529565b92505050610920565b6125c56128b1565b600a54146125d9576125b4600a6033612529565b836125e2612490565b10156125f4576125b4600e6032612529565b600d5484111561260a576125b460026034612529565b50600d548381039081111561265857604051600080516020614d3e8339815191528152600401808060200182810382526024815260200180614ed36024913960400191505060405180910390fd5b600d81905560045461267390600160a060020a031685613425565b9150600082601081111561268357fe5b146126c757604051600080516020614d3e8339815191528152600401808060200182810382526023815260200180614cea6023913960400191505060405180910390fd5b60045460408051600160a060020a03909216825260208201869052818101839052517f3bad0c59cf2f06e7314077049f48a93578cd16f5ef92329f1dab1420a99c177e9181900360600190a16000949350505050565b6000805460010180825581612730610fba565b9050801561274e57610d6581601081111561274757fe5b6027612529565b610d76336000866134fc565b600160a060020a038116600090815260116020526040812080548291829182918291151561279357506000945084935061280b92505050565b6127a38160000154600b54613a5f565b909450925060008460038111156127b657fe5b146127cb57509193506000925061280b915050565b6127d9838260010154613aa2565b909450915060008460038111156127ec57fe5b1461280157509193506000925061280b915050565b5060009450925050505b915091565b6000805460010180825581612823610fba565b9050801561284157610d6581601081111561283a57fe5b601e612529565b610d763385613ad1565b60007f45b96fe442630264581b197e84bbada861235052c5a1aadfff9ea4e40a969aa084601081111561287a57fe5b84604d81111561288657fe5b604080519283526020830191909152818101859052519081900360600190a1836010811115610b8957fe5b4390565b6000808383116128cc575060009050818303612489565b50600390506000612489565b60006128e2614bc4565b6000806128f3866000015186613a5f565b9092509050600082600381111561290657fe5b1461292557506040805160208101909152600081529092509050612489565b60408051602081019091529081526000969095509350505050565b60008083830184811061295857600092509050612489565b506002915060009050612489565b6000806000612973614bc4565b61297d87876128d8565b9092509050600082600381111561299057fe5b146129a157509150600090506129ba565b6129b36129ad82613416565b86612940565b9350935050505b935093915050565b60006129cc614bc4565b6000806129e1670de0b6b3a764000087613a5f565b909250905060008260038111156129f457fe5b14612a1357506040805160208101909152600081529092509050612489565b612482818660000151613366565b6000612a2b614bc4565b600080612a40866000015186600001516128b5565b60408051602081019091529081529097909650945050505050565b6000612a65614bc4565b6000612a6f614bc4565b612a798787613f5e565b90925090506000826003811115612a8c57fe5b14612a9b5790925090506129ba565b6129b38186613f5e565b6000805460010180825581612ab8610fba565b90508015612ad657610d65816010811115612acf57fe5b6008612529565b610d763385614047565b6000805460010180825581612af3610fba565b90508015612b0a57610d6581601081111561274757fe5b610d76338560006134fc565b6004546000908190600160a060020a03163314612b3957611de060016042612529565b612b416128b1565b600a5414612b5557611de0600a6041612529565b600760009054906101000a9004600160a060020a0316905082600160a060020a0316632191f92a6040518163ffffffff167c010000000000000000000000000000000000000000000000000000000002815260040160206040518083038186803b158015612bc257600080fd5b505afa158015612bd6573d6000803e3d6000fd5b505050506040513d6020811015612bec57600080fd5b50511515612c495760408051600080516020614d3e833981519152815260206004820152601c60248201527f6d61726b6572206d6574686f642072657475726e65642066616c736500000000604482015290519081900360640190fd5b6007805473ffffffffffffffffffffffffffffffffffffffff1916600160a060020a03858116918217909255604080519284168352602083019190915280517fedffc32e068c7c95dfd4bdfd5c4d939a084d6b11c4199eac8436ed234d72f9269281900390910190a16000610b06565b6000805460010180825581612ccc610fba565b90508015612cea5761183c816010811115612ce357fe5b600f612529565b83600160a060020a031663a6afed956040518163ffffffff167c0100000000000000000000000000000000000000000000000000000000028152600401602060405180830381600087803b158015612d4157600080fd5b505af1158015612d55573d6000803e3d6000fd5b505050506040513d6020811015612d6b57600080fd5b505190508015612d8b5761183c816010811115612d8457fe5b6010612529565b612d97338787876143e7565b9250506000548114610af25760408051600080516020614d3e833981519152815260206004820152600a60248201527f72652d656e746572656400000000000000000000000000000000000000000000604482015290519081900360640190fd5b600454600090600160a060020a03163314612e1957610bc160016047612529565b612e216128b1565b600a5414612e3557610bc1600a6048612529565b670de0b6b3a7640000821115612e5157610bc160026049612529565b6009805490839055604080518281526020810185905281517faaa68312e2ea9d50e16af5068410ab56e1a1fd06037b1a35664812c30f821460929181900390910190a16000610b06565b600654604080517f24008a62000000000000000000000000000000000000000000000000000000008152306004820152600160a060020a0386811660248301528581166044830152606482018590529151600093849316916324008a6291608480830192602092919082900301818787803b158015612f1957600080fd5b505af1158015612f2d573d6000803e3d6000fd5b505050506040513d6020811015612f4357600080fd5b505190508015612f6257612f5a600360388361284b565b915050610b06565b612f6a6128b1565b600a5414612f7e57612f5a600a6039612529565b612f86614c30565b600160a060020a0385166000908152601160205260409020600101546060820152612fb08561275a565b6080830181905260208301826003811115612fc757fe5b6003811115612fd257fe5b9052506000905081602001516003811115612fe957fe5b1461300e5761300560096037836020015160038111156111ca57fe5b92505050610b06565b600019841415613027576080810151604082015261302f565b604081018490525b61303d868260400151614972565b8190601081111561304a57fe5b9081601081111561305757fe5b90525060008151601081111561306957fe5b1461307b57805161300590603c612529565b61308d816080015182604001516128b5565b60a08301819052602083018260038111156130a457fe5b60038111156130af57fe5b90525060009050816020015160038111156130c657fe5b146130e2576130056009603a836020015160038111156111ca57fe5b6130f2600c5482604001516128b5565b60c083018190526020830182600381111561310957fe5b600381111561311457fe5b905250600090508160200151600381111561312b57fe5b14613147576130056009603b836020015160038111156111ca57fe5b613155868260400151614adb565b8190601081111561316257fe5b9081601081111561316f57fe5b90525060008151601081111561318157fe5b146131db5760408051600080516020614d3e833981519152815260206004820152601f60248201527f726570617920626f72726f77207472616e7366657220696e206661696c656400604482015290519081900360640190fd5b60a08082018051600160a060020a03808916600081815260116020908152604091829020948555600b5460019095019490945560c0870151600c8190558188015195518251948e16855294840192909252828101949094526060820192909252608081019190915290517f1a2a22cb034d26d1854bdc6666a5b91fe25efbbb5dcad3b0355478d6f5c362a1929181900390910190a1600654604080830151606084015182517f1ededc91000000000000000000000000000000000000000000000000000000008152306004820152600160a060020a038b811660248301528a81166044830152606482019390935260848101919091529151921691631ededc919160a48082019260009290919082900301818387803b1580156132fd57600080fd5b505af1158015613311573d6000803e3d6000fd5b506000925061331e915050565b9695505050505050565b6000806000806133388787612940565b9092509050600082600381111561334b57fe5b1461335c57509150600090506129ba565b6129b381866128b5565b6000613370614bc4565b60008061338586670de0b6b3a7640000613a5f565b9092509050600082600381111561339857fe5b146133b757506040805160208101909152600081529092509050612489565b6000806133c48388613aa2565b909250905060008260038111156133d757fe5b146133f957506040805160208101909152600081529094509250612489915050565b604080516020810190915290815260009890975095505050505050565b51670de0b6b3a7640000900490565b601254604080517fa9059cbb000000000000000000000000000000000000000000000000000000008152600160a060020a03858116600483015260248201859052915160009392909216918391839163a9059cbb91604480820192869290919082900301818387803b15801561349a57600080fd5b505af11580156134ae573d6000803e3d6000fd5b505050503d600081146134c857602081146134d257600080fd5b60001991506134de565b60206000803e60005191505b508015156134f15760109250505061090c565b506000949350505050565b6000821580613509575081155b151561354e57604051600080516020614d3e8339815191528152600401808060200182810382526034815260200180614e9f6034913960400191505060405180910390fd5b613556614c30565b61355e611f97565b604083018190526020830182600381111561357557fe5b600381111561358057fe5b905250600090508160200151600381111561359757fe5b146135b357612f5a6009602b836020015160038111156111ca57fe5b60008411156136375760608101849052604080516020810182529082015181526135dd908561243c565b60808301819052602083018260038111156135f457fe5b60038111156135ff57fe5b905250600090508160200151600381111561361657fe5b1461363257612f5a60096029836020015160038111156111ca57fe5b6136b1565b613654836020604051908101604052808460400151815250614bad565b606083018190526020830182600381111561366b57fe5b600381111561367657fe5b905250600090508160200151600381111561368d57fe5b146136a957612f5a6009602a836020015160038111156111ca57fe5b608081018390525b6006546060820151604080517feabe7d91000000000000000000000000000000000000000000000000000000008152306004820152600160a060020a03898116602483015260448201939093529051600093929092169163eabe7d919160648082019260209290919082900301818787803b15801561372f57600080fd5b505af1158015613743573d6000803e3d6000fd5b505050506040513d602081101561375957600080fd5b50519050801561377057613005600360288361284b565b6137786128b1565b600a541461378c57613005600a602c612529565b61379c600e5483606001516128b5565b60a08401819052602084018260038111156137b357fe5b60038111156137be57fe5b90525060009050826020015160038111156137d557fe5b146137f1576130056009602e846020015160038111156111ca57fe5b600160a060020a0386166000908152600f6020526040902054606083015161381991906128b5565b60c084018190526020840182600381111561383057fe5b600381111561383b57fe5b905250600090508260200151600381111561385257fe5b1461386e576130056009602d846020015160038111156111ca57fe5b816080015161387b612490565b101561388d57613005600e602f612529565b61389b868360800151613425565b829060108111156138a857fe5b908160108111156138b557fe5b9052506000825160108111156138c757fe5b146139215760408051600080516020614d3e833981519152815260206004820152601a60248201527f72656465656d207472616e73666572206f7574206661696c6564000000000000604482015290519081900360640190fd5b60a0820151600e5560c0820151600160a060020a0387166000818152600f60209081526040918290209390935560608501518151908152905130937fddf252ad1be2c89b69c2b068fc378daa952ba7f163c4a11628f55a4df523b3ef928290030190a3608082015160608084015160408051600160a060020a038b168152602081019490945283810191909152517fe5b754fb1abb7f01b499791d0b820ae3b6af3424ac1c59768edb53f4ec31a9299281900390910190a160065460808301516060840151604080517f51dff989000000000000000000000000000000000000000000000000000000008152306004820152600160a060020a038b81166024830152604482019490945260648101929092525191909216916351dff98991608480830192600092919082900301818387803b1580156132fd57600080fd5b600080831515613a7457506000905080612489565b838302838582811515613a8357fe5b0414613a9757506002915060009050612489565b600092509050612489565b600080821515613ab85750600190506000612489565b60008385811515613ac557fe5b04915091509250929050565b600654604080517f4ef4c3e1000000000000000000000000000000000000000000000000000000008152306004820152600160a060020a03858116602483015260448201859052915160009384931691634ef4c3e191606480830192602092919082900301818787803b158015613b4757600080fd5b505af1158015613b5b573d6000803e3d6000fd5b505050506040513d6020811015613b7157600080fd5b505190508015613b9057613b886003601f8361284b565b91505061090c565b613b986128b1565b600a5414613bac57613b88600a6022612529565b613bb4614c6e565b613bbe8585614972565b81906010811115613bcb57fe5b90816010811115613bd857fe5b905250600081516010811115613bea57fe5b14613c05578051613bfc906026612529565b9250505061090c565b613c0d611f97565b6040830181905260208301826003811115613c2457fe5b6003811115613c2f57fe5b9052506000905081602001516003811115613c4657fe5b14613c6257613bfc60096021836020015160038111156111ca57fe5b613c7f846020604051908101604052808460400151815250614bad565b6060830181905260208301826003811115613c9657fe5b6003811115613ca157fe5b9052506000905081602001516003811115613cb857fe5b14613cd457613bfc60096020836020015160038111156111ca57fe5b613ce4600e548260600151612940565b6080830181905260208301826003811115613cfb57fe5b6003811115613d0657fe5b9052506000905081602001516003811115613d1d57fe5b14613d3957613bfc60096024836020015160038111156111ca57fe5b600160a060020a0385166000908152600f60205260409020546060820151613d619190612940565b60a0830181905260208301826003811115613d7857fe5b6003811115613d8357fe5b9052506000905081602001516003811115613d9a57fe5b14613db657613bfc60096023836020015160038111156111ca57fe5b613dc08585614adb565b81906010811115613dcd57fe5b90816010811115613dda57fe5b905250600081516010811115613dec57fe5b14613dfe578051613bfc906025612529565b6080810151600e5560a0810151600160a060020a0386166000818152600f602090815260409182902093909355606080850151825193845293830188905282820193909352517f4c209b5fc8ad50758f13e2e1088ba56a560dff690a1c6fef26394f4c03821c4f929181900390910190a160608101516040805191825251600160a060020a0387169130917fddf252ad1be2c89b69c2b068fc378daa952ba7f163c4a11628f55a4df523b3ef9181900360200190a36006546060820151604080517f41c728b9000000000000000000000000000000000000000000000000000000008152306004820152600160a060020a038981166024830152604482018990526064820193909352905191909216916341c728b991608480830192600092919082900301818387803b158015613f3457600080fd5b505af1158015613f48573d6000803e3d6000fd5b5060009250613f55915050565b95945050505050565b6000613f68614bc4565b600080613f7d86600001518660000151613a5f565b90925090506000826003811115613f9057fe5b14613faf57506040805160208101909152600081529092509050612489565b600080613fc46706f05b59d3b2000084612940565b90925090506000826003811115613fd757fe5b14613ff957506040805160208101909152600081529094509250612489915050565b60008061400e83670de0b6b3a7640000613aa2565b9092509050600082600381111561402157fe5b1461402857fe5b604080516020810190915290815260009a909950975050505050505050565b600654604080517fda3d454c000000000000000000000000000000000000000000000000000000008152306004820152600160a060020a0385811660248301526044820185905291516000938493169163da3d454c91606480830192602092919082900301818787803b1580156140bd57600080fd5b505af11580156140d1573d6000803e3d6000fd5b505050506040513d60208110156140e757600080fd5b5051905080156140fe57613b886003600e8361284b565b6141066128b1565b600a541461411957613b88600a80612529565b82614122612490565b101561413457613b88600e6009612529565b61413c614c88565b6141458561275a565b604083018190526020830182600381111561415c57fe5b600381111561416757fe5b905250600090508160200151600381111561417e57fe5b1461419a57613bfc60096007836020015160038111156111ca57fe5b6141a8816040015185612940565b60608301819052602083018260038111156141bf57fe5b60038111156141ca57fe5b90525060009050816020015160038111156141e157fe5b146141fd57613bfc6009600c836020015160038111156111ca57fe5b614209600c5485612940565b608083018190526020830182600381111561422057fe5b600381111561422b57fe5b905250600090508160200151600381111561424257fe5b1461425e57613bfc6009600b836020015160038111156111ca57fe5b6142688585613425565b8190601081111561427557fe5b9081601081111561428257fe5b90525060008151601081111561429457fe5b146142ee5760408051600080516020614d3e833981519152815260206004820152601a60248201527f626f72726f77207472616e73666572206f7574206661696c6564000000000000604482015290519081900360640190fd5b60608082018051600160a060020a038816600081815260116020908152604091829020938455600b54600190940193909355608080870151600c819055945182519384529383018a9052828201939093529381019290925291517f13ed6866d4e1ee6da46f845c46d7e54120883d75c5ea9a2dacc1c4ca8984ab80929181900390910190a1600654604080517f5c778605000000000000000000000000000000000000000000000000000000008152306004820152600160a060020a0388811660248301526044820188905291519190921691635c77860591606480830192600092919082900301818387803b158015613f3457600080fd5b600654604080517f5fc7e71e000000000000000000000000000000000000000000000000000000008152306004820152600160a060020a0384811660248301528781166044830152868116606483015260848201869052915160009384931691635fc7e71e9160a480830192602092919082900301818787803b15801561446d57600080fd5b505af1158015614481573d6000803e3d6000fd5b505050506040513d602081101561449757600080fd5b5051905080156144ae57612104600360128361284b565b6144b66128b1565b600a54146144ca57612104600a6016612529565b6144d26128b1565b83600160a060020a0316636c540baf6040518163ffffffff167c010000000000000000000000000000000000000000000000000000000002815260040160206040518083038186803b15801561452757600080fd5b505afa15801561453b573d6000803e3d6000fd5b505050506040513d602081101561455157600080fd5b50511461456457612104600a6011612529565b85600160a060020a031685600160a060020a0316141561458a5761210460066017612529565b83151561459d5761210460076015612529565b6000198414156145b35761210460076014612529565b600654604080517fc488847b000000000000000000000000000000000000000000000000000000008152306004820152600160a060020a038681166024830152604482018890528251600094859492169263c488847b926064808301939192829003018186803b15801561462657600080fd5b505afa15801561463a573d6000803e3d6000fd5b505050506040513d604081101561465057600080fd5b5080516020909101519092509050811561467b57614671600460138461284b565b9350505050610b89565b84600160a060020a03166370a08231886040518263ffffffff167c01000000000000000000000000000000000000000000000000000000000281526004018082600160a060020a0316600160a060020a0316815260200191505060206040518083038186803b1580156146ed57600080fd5b505afa158015614701573d6000803e3d6000fd5b505050506040513d602081101561471757600080fd5b505181111561472c57614671600d601d612529565b6000614739898989612e9b565b905080156147625761475781601081111561475057fe5b6018612529565b945050505050610b89565b604080517fb2a02ff1000000000000000000000000000000000000000000000000000000008152600160a060020a038b811660048301528a8116602483015260448201859052915160009289169163b2a02ff191606480830192602092919082900301818787803b1580156147d657600080fd5b505af11580156147ea573d6000803e3d6000fd5b505050506040513d602081101561480057600080fd5b50519050801561485f5760408051600080516020614d3e833981519152815260206004820152601460248201527f746f6b656e207365697a757265206661696c6564000000000000000000000000604482015290519081900360640190fd5b60408051600160a060020a03808d168252808c1660208301528183018b9052891660608201526080810185905290517f298637f684da70674f26509b10f07ec2fbc77a335ab1e7d6215a4b2484d8bb529181900360a00190a1600654604080517f47ef3b3b000000000000000000000000000000000000000000000000000000008152306004820152600160a060020a038a811660248301528d811660448301528c81166064830152608482018c905260a48201879052915191909216916347ef3b3b9160c480830192600092919082900301818387803b15801561494357600080fd5b505af1158015614957573d6000803e3d6000fd5b5060009250614964915050565b9a9950505050505050505050565b601254604080517fdd62ed3e000000000000000000000000000000000000000000000000000000008152600160a060020a038581166004830152306024830152915160009392909216918491839163dd62ed3e91604480820192602092909190829003018186803b1580156149e657600080fd5b505afa1580156149fa573d6000803e3d6000fd5b505050506040513d6020811015614a1057600080fd5b50511015614a2257600c91505061090c565b8281600160a060020a03166370a08231866040518263ffffffff167c01000000000000000000000000000000000000000000000000000000000281526004018082600160a060020a0316600160a060020a0316815260200191505060206040518083038186803b158015614a9557600080fd5b505afa158015614aa9573d6000803e3d6000fd5b505050506040513d6020811015614abf57600080fd5b50511015614ad157600d91505061090c565b5060009392505050565b601254604080517f23b872dd000000000000000000000000000000000000000000000000000000008152600160a060020a0385811660048301523060248301526044820185905291516000939290921691839183916323b872dd91606480820192869290919082900301818387803b158015614b5657600080fd5b505af1158015614b6a573d6000803e3d6000fd5b505050503d60008114614b845760208114614b8e57600080fd5b6000199150614b9a565b60206000803e60005191505b508015156134f157600f9250505061090c565b6000806000614bba614bc4565b61245386866129c2565b60408051602081019091526000815290565b604080516101408101909152806000815260200160008152602001600081526020016000815260200160008152602001614c0e614bc4565b8152602001600081526020016000815260200160008152602001600081525090565b6040805160e0810190915280600081526020016000815260200160008152602001600081526020016000815260200160008152602001600081525090565b6040805160c0810190915280600081526020016000614c0e565b6040805160a08101909152806000815260200160008152602001600081526020016000815260200160008152509056fe737570706c7952617465506572426c6f636b3a2063616c63756c6174696e6720626f72726f7773506572206661696c6564726564756365207265736572766573207472616e73666572206f7574206661696c6564737570706c7952617465506572426c6f636b3a2063616c63756c6174696e6720737570706c7952617465206661696c656408c379a000000000000000000000000000000000000000000000000000000000626f72726f7742616c616e636553746f7265643a20626f72726f7742616c616e636553746f726564496e7465726e616c206661696c6564737570706c7952617465506572426c6f636b3a2063616c63756c6174696e6720756e6465726c79696e67206661696c6564626f72726f7752617465506572426c6f636b3a20696e746572657374526174654d6f64656c2e626f72726f7752617465206661696c6564737570706c7952617465506572426c6f636b3a2063616c63756c6174696e6720626f72726f7752617465206661696c6564737570706c7952617465506572426c6f636b3a2063616c63756c6174696e67206f6e654d696e757352657365727665466163746f72206661696c656465786368616e67655261746553746f7265643a2065786368616e67655261746553746f726564496e7465726e616c206661696c65646f6e65206f662072656465656d546f6b656e73496e206f722072656465656d416d6f756e74496e206d757374206265207a65726f72656475636520726573657276657320756e657870656374656420756e646572666c6f77a165627a7a72305820a5007d18420180e66ba264c9e623072996f9dd080cfce338bd25ef5008a529b7002953657474696e6720696e7465726573742072617465206d6f64656c206661696c6564496e697469616c2065786368616e67652072617465206d7573742062652067726561746572207468616e207a65726f2e",
  "source": "pragma solidity ^0.5.4;\n\nimport \"./CToken.sol\";\n\n/**\n * @title Compound's CErc20 Contract\n * @notice CTokens which wrap an EIP-20 underlying\n * @author Compound\n */\ncontract CErc20 is CToken {\n\n    /**\n     * @notice Underlying asset for this CToken\n     */\n    address public underlying;\n\n    /**\n     * @notice Construct a new money market\n     * @param underlying_ The address of the underlying asset\n     * @param comptroller_ The address of the Comptroller\n     * @param interestRateModel_ The address of the interest rate model\n     * @param initialExchangeRateMantissa_ The initial exchange rate, scaled by 1e18\n     * @param name_ ERC-20 name of this token\n     * @param symbol_ ERC-20 symbol of this token\n     * @param decimals_ ERC-20 decimal precision of this token\n     */\n    constructor(address underlying_,\n                ComptrollerInterface comptroller_,\n                InterestRateModel interestRateModel_,\n                uint initialExchangeRateMantissa_,\n                string memory name_,\n                string memory symbol_,\n                uint decimals_) public\n    CToken(comptroller_, interestRateModel_, initialExchangeRateMantissa_, name_, symbol_, decimals_) {\n        // Set underlying\n        underlying = underlying_;\n        EIP20Interface(underlying).totalSupply(); // Sanity check the underlying\n    }\n\n    /*** User Interface ***/\n\n    /**\n     * @notice Sender supplies assets into the market and receives cTokens in exchange\n     * @dev Accrues interest whether or not the operation succeeds, unless reverted\n     * @param mintAmount The amount of the underlying asset to supply\n     * @return uint 0=success, otherwise a failure (see ErrorReporter.sol for details)\n     */\n    function mint(uint mintAmount) external returns (uint) {\n        return mintInternal(mintAmount);\n    }\n\n    /**\n     * @notice Sender redeems cTokens in exchange for the underlying asset\n     * @dev Accrues interest whether or not the operation succeeds, unless reverted\n     * @param redeemTokens The number of cTokens to redeem into underlying\n     * @return uint 0=success, otherwise a failure (see ErrorReporter.sol for details)\n     */\n    function redeem(uint redeemTokens) external returns (uint) {\n        return redeemInternal(redeemTokens);\n    }\n\n    /**\n     * @notice Sender redeems cTokens in exchange for a specified amount of underlying asset\n     * @dev Accrues interest whether or not the operation succeeds, unless reverted\n     * @param redeemAmount The amount of underlying to redeem\n     * @return uint 0=success, otherwise a failure (see ErrorReporter.sol for details)\n     */\n    function redeemUnderlying(uint redeemAmount) external returns (uint) {\n        return redeemUnderlyingInternal(redeemAmount);\n    }\n\n    /**\n      * @notice Sender borrows assets from the protocol to their own address\n      * @param borrowAmount The amount of the underlying asset to borrow\n      * @return uint 0=success, otherwise a failure (see ErrorReporter.sol for details)\n      */\n    function borrow(uint borrowAmount) external returns (uint) {\n        return borrowInternal(borrowAmount);\n    }\n\n    /**\n     * @notice Sender repays their own borrow\n     * @param repayAmount The amount to repay\n     * @return uint 0=success, otherwise a failure (see ErrorReporter.sol for details)\n     */\n    function repayBorrow(uint repayAmount) external returns (uint) {\n        return repayBorrowInternal(repayAmount);\n    }\n\n    /**\n     * @notice Sender repays a borrow belonging to borrower\n     * @param borrower the account with the debt being payed off\n     * @param repayAmount The amount to repay\n     * @return uint 0=success, otherwise a failure (see ErrorReporter.sol for details)\n     */\n    function repayBorrowBehalf(address borrower, uint repayAmount) external returns (uint) {\n        return repayBorrowBehalfInternal(borrower, repayAmount);\n    }\n\n    /**\n     * @notice The sender liquidates the borrowers collateral.\n     *  The collateral seized is transferred to the liquidator.\n     * @param borrower The borrower of this cToken to be liquidated\n     * @param cTokenCollateral The market in which to seize collateral from the borrower\n     * @param repayAmount The amount of the underlying borrowed asset to repay\n     * @return uint 0=success, otherwise a failure (see ErrorReporter.sol for details)\n     */\n    function liquidateBorrow(address borrower, uint repayAmount, CToken cTokenCollateral) external returns (uint) {\n        return liquidateBorrowInternal(borrower, repayAmount, cTokenCollateral);\n    }\n\n    /*** Safe Token ***/\n\n    /**\n     * @notice Gets balance of this contract in terms of the underlying\n     * @dev This excludes the value of the current message, if any\n     * @return The quantity of underlying tokens owned by this contract\n     */\n    function getCashPrior() internal view returns (uint) {\n        EIP20Interface token = EIP20Interface(underlying);\n        return token.balanceOf(address(this));\n    }\n\n    /**\n     * @dev Checks whether or not there is sufficient allowance for this contract to move amount from `from` and\n     *      whether or not `from` has a balance of at least `amount`. Does NOT do a transfer.\n     */\n    function checkTransferIn(address from, uint amount) internal view returns (Error) {\n        EIP20Interface token = EIP20Interface(underlying);\n\n        if (token.allowance(from, address(this)) < amount) {\n            return Error.TOKEN_INSUFFICIENT_ALLOWANCE;\n        }\n\n        if (token.balanceOf(from) < amount) {\n            return Error.TOKEN_INSUFFICIENT_BALANCE;\n        }\n\n        return Error.NO_ERROR;\n    }\n\n    /**\n     * @dev Similar to EIP20 transfer, except it handles a False result from `transferFrom` and returns an explanatory\n     *      error code rather than reverting.  If caller has not called `checkTransferIn`, this may revert due to\n     *      insufficient balance or insufficient allowance. If caller has called `checkTransferIn` prior to this call,\n     *      and it returned Error.NO_ERROR, this should not revert in normal conditions.\n     *\n     *      Note: This wrapper safely handles non-standard ERC-20 tokens that do not return a value.\n     *            See here: https://medium.com/coinmonks/missing-return-value-bug-at-least-130-tokens-affected-d67bf08521ca\n     */\n    function doTransferIn(address from, uint amount) internal returns (Error) {\n        EIP20NonStandardInterface token = EIP20NonStandardInterface(underlying);\n        bool result;\n\n        token.transferFrom(from, address(this), amount);\n\n        // solium-disable-next-line security/no-inline-assembly\n        assembly {\n            switch returndatasize()\n                case 0 {                      // This is a non-standard ERC-20\n                    result := not(0)          // set result to true\n                }\n                case 32 {                     // This is a complaint ERC-20\n                    returndatacopy(0, 0, 32)\n                    result := mload(0)        // Set `result = returndata` of external call\n                }\n                default {                     // This is an excessively non-compliant ERC-20, revert.\n                    revert(0, 0)\n                }\n        }\n\n        if (!result) {\n            return Error.TOKEN_TRANSFER_IN_FAILED;\n        }\n\n        return Error.NO_ERROR;\n    }\n\n    /**\n     * @dev Similar to EIP20 transfer, except it handles a False result from `transfer` and returns an explanatory\n     *      error code rather than reverting. If caller has not called checked protocol's balance, this may revert due to\n     *      insufficient cash held in this contract. If caller has checked protocol's balance prior to this call, and verified\n     *      it is >= amount, this should not revert in normal conditions.\n     *\n     *      Note: This wrapper safely handles non-standard ERC-20 tokens that do not return a value.\n     *            See here: https://medium.com/coinmonks/missing-return-value-bug-at-least-130-tokens-affected-d67bf08521ca\n     */\n    function doTransferOut(address payable to, uint amount) internal returns (Error) {\n        EIP20NonStandardInterface token = EIP20NonStandardInterface(underlying);\n        bool result;\n\n        token.transfer(to, amount);\n\n        // solium-disable-next-line security/no-inline-assembly\n        assembly {\n            switch returndatasize()\n                case 0 {                      // This is a non-standard ERC-20\n                    result := not(0)          // set result to true\n                }\n                case 32 {                     // This is a complaint ERC-20\n                    returndatacopy(0, 0, 32)\n                    result := mload(0)        // Set `result = returndata` of external call\n                }\n                default {                     // This is an excessively non-compliant ERC-20, revert.\n                    revert(0, 0)\n                }\n        }\n\n        if (!result) {\n            return Error.TOKEN_TRANSFER_OUT_FAILED;\n        }\n\n        return Error.NO_ERROR;\n    }\n}\n",
  "sourcePath": "/Users/name/dev/argent-contracts-release-1.5.0/contracts/test/compound/CErc20.sol",
  "compiler": {
    "name": "solc",
    "version": "0.5.4+commit.9549d8ff.Emscripten.clang",
    "optimizer": true,
    "runs": 999
  },
  "schemaVersion": "2.3.1",
  "updatedAt": "2020-04-01T15:58:47.320Z"
}