{
  "contractName": "CEther",
  "abi": [
    {
      "constant": true,
      "inputs": [],
      "name": "name",
      "outputs": [
        {
          "name": "",
          "type": "string"
        }
      ],
      "payable": false,
      "stateMutability": "view",
      "type": "function"
    },
    {
      "constant": false,
      "inputs": [
        {
          "name": "spender",
          "type": "address"
        },
        {
          "name": "amount",
          "type": "uint256"
        }
      ],
      "name": "approve",
      "outputs": [
        {
          "name": "",
          "type": "bool"
        }
      ],
      "payable": false,
      "stateMutability": "nonpayable",
      "type": "function"
    },
    {
      "constant": true,
      "inputs": [],
      "name": "reserveFactorMantissa",
      "outputs": [
        {
          "name": "",
          "type": "uint256"
        }
      ],
      "payable": false,
      "stateMutability": "view",
      "type": "function"
    },
    {
      "constant": false,
      "inputs": [
        {
          "name": "account",
          "type": "address"
        }
      ],
      "name": "borrowBalanceCurrent",
      "outputs": [
        {
          "name": "",
          "type": "uint256"
        }
      ],
      "payable": false,
      "stateMutability": "nonpayable",
      "type": "function"
    },
    {
      "constant": true,
      "inputs": [],
      "name": "totalSupply",
      "outputs": [
        {
          "name": "",
          "type": "uint256"
        }
      ],
      "payable": false,
      "stateMutability": "view",
      "type": "function"
    },
    {
      "constant": true,
      "inputs": [],
      "name": "exchangeRateStored",
      "outputs": [
        {
          "name": "",
          "type": "uint256"
        }
      ],
      "payable": false,
      "stateMutability": "view",
      "type": "function"
    },
    {
      "constant": false,
      "inputs": [
        {
          "name": "src",
          "type": "address"
        },
        {
          "name": "dst",
          "type": "address"
        },
        {
          "name": "amount",
          "type": "uint256"
        }
      ],
      "name": "transferFrom",
      "outputs": [
        {
          "name": "",
          "type": "bool"
        }
      ],
      "payable": false,
      "stateMutability": "nonpayable",
      "type": "function"
    },
    {
      "constant": true,
      "inputs": [],
      "name": "pendingAdmin",
      "outputs": [
        {
          "name": "",
          "type": "address"
        }
      ],
      "payable": false,
      "stateMutability": "view",
      "type": "function"
    },
    {
      "constant": true,
      "inputs": [],
      "name": "decimals",
      "outputs": [
        {
          "name": "",
          "type": "uint256"
        }
      ],
      "payable": false,
      "stateMutability": "view",
      "type": "function"
    },
    {
      "constant": false,
      "inputs": [
        {
          "name": "owner",
          "type": "address"
        }
      ],
      "name": "balanceOfUnderlying",
      "outputs": [
        {
          "name": "",
          "type": "uint256"
        }
      ],
      "payable": false,
      "stateMutability": "nonpayable",
      "type": "function"
    },
    {
      "constant": true,
      "inputs": [],
      "name": "getCash",
      "outputs": [
        {
          "name": "",
          "type": "uint256"
        }
      ],
      "payable": false,
      "stateMutability": "view",
      "type": "function"
    },
    {
      "constant": false,
      "inputs": [
        {
          "name": "newComptroller",
          "type": "address"
        }
      ],
      "name": "_setComptroller",
      "outputs": [
        {
          "name": "",
          "type": "uint256"
        }
      ],
      "payable": false,
      "stateMutability": "nonpayable",
      "type": "function"
    },
    {
      "constant": true,
      "inputs": [],
      "name": "totalBorrows",
      "outputs": [
        {
          "name": "",
          "type": "uint256"
        }
      ],
      "payable": false,
      "stateMutability": "view",
      "type": "function"
    },
    {
      "constant": true,
      "inputs": [],
      "name": "comptroller",
      "outputs": [
        {
          "name": "",
          "type": "address"
        }
      ],
      "payable": false,
      "stateMutability": "view",
      "type": "function"
    },
    {
      "constant": false,
      "inputs": [
        {
          "name": "reduceAmount",
          "type": "uint256"
        }
      ],
      "name": "_reduceReserves",
      "outputs": [
        {
          "name": "",
          "type": "uint256"
        }
      ],
      "payable": false,
      "stateMutability": "nonpayable",
      "type": "function"
    },
    {
      "constant": true,
      "inputs": [],
      "name": "initialExchangeRateMantissa",
      "outputs": [
        {
          "name": "",
          "type": "uint256"
        }
      ],
      "payable": false,
      "stateMutability": "view",
      "type": "function"
    },
    {
      "constant": true,
      "inputs": [],
      "name": "accrualBlockNumber",
      "outputs": [
        {
          "name": "",
          "type": "uint256"
        }
      ],
      "payable": false,
      "stateMutability": "view",
      "type": "function"
    },
    {
      "constant": true,
      "inputs": [
        {
          "name": "owner",
          "type": "address"
        }
      ],
      "name": "balanceOf",
      "outputs": [
        {
          "name": "",
          "type": "uint256"
        }
      ],
      "payable": false,
      "stateMutability": "view",
      "type": "function"
    },
    {
      "constant": false,
      "inputs": [],
      "name": "totalBorrowsCurrent",
      "outputs": [
        {
          "name": "",
          "type": "uint256"
        }
      ],
      "payable": false,
      "stateMutability": "nonpayable",
      "type": "function"
    },
    {
      "constant": true,
      "inputs": [],
      "name": "totalReserves",
      "outputs": [
        {
          "name": "",
          "type": "uint256"
        }
      ],
      "payable": false,
      "stateMutability": "view",
      "type": "function"
    },
    {
      "constant": true,
      "inputs": [],
      "name": "symbol",
      "outputs": [
        {
          "name": "",
          "type": "string"
        }
      ],
      "payable": false,
      "stateMutability": "view",
      "type": "function"
    },
    {
      "constant": true,
      "inputs": [
        {
          "name": "account",
          "type": "address"
        }
      ],
      "name": "borrowBalanceStored",
      "outputs": [
        {
          "name": "",
          "type": "uint256"
        }
      ],
      "payable": false,
      "stateMutability": "view",
      "type": "function"
    },
    {
      "constant": false,
      "inputs": [],
      "name": "accrueInterest",
      "outputs": [
        {
          "name": "",
          "type": "uint256"
        }
      ],
      "payable": false,
      "stateMutability": "nonpayable",
      "type": "function"
    },
    {
      "constant": false,
      "inputs": [
        {
          "name": "dst",
          "type": "address"
        },
        {
          "name": "amount",
          "type": "uint256"
        }
      ],
      "name": "transfer",
      "outputs": [
        {
          "name": "",
          "type": "bool"
        }
      ],
      "payable": false,
      "stateMutability": "nonpayable",
      "type": "function"
    },
    {
      "constant": true,
      "inputs": [],
      "name": "borrowIndex",
      "outputs": [
        {
          "name": "",
          "type": "uint256"
        }
      ],
      "payable": false,
      "stateMutability": "view",
      "type": "function"
    },
    {
      "constant": true,
      "inputs": [],
      "name": "supplyRatePerBlock",
      "outputs": [
        {
          "name": "",
          "type": "uint256"
        }
      ],
      "payable": false,
      "stateMutability": "view",
      "type": "function"
    },
    {
      "constant": false,
      "inputs": [
        {
          "name": "liquidator",
          "type": "address"
        },
        {
          "name": "borrower",
          "type": "address"
        },
        {
          "name": "seizeTokens",
          "type": "uint256"
        }
      ],
      "name": "seize",
      "outputs": [
        {
          "name": "",
          "type": "uint256"
        }
      ],
      "payable": false,
      "stateMutability": "nonpayable",
      "type": "function"
    },
    {
      "constant": false,
      "inputs": [
        {
          "name": "newPendingAdmin",
          "type": "address"
        }
      ],
      "name": "_setPendingAdmin",
      "outputs": [
        {
          "name": "",
          "type": "uint256"
        }
      ],
      "payable": false,
      "stateMutability": "nonpayable",
      "type": "function"
    },
    {
      "constant": false,
      "inputs": [],
      "name": "exchangeRateCurrent",
      "outputs": [
        {
          "name": "",
          "type": "uint256"
        }
      ],
      "payable": false,
      "stateMutability": "nonpayable",
      "type": "function"
    },
    {
      "constant": true,
      "inputs": [
        {
          "name": "account",
          "type": "address"
        }
      ],
      "name": "getAccountSnapshot",
      "outputs": [
        {
          "name": "",
          "type": "uint256"
        },
        {
          "name": "",
          "type": "uint256"
        },
        {
          "name": "",
          "type": "uint256"
        },
        {
          "name": "",
          "type": "uint256"
        }
      ],
      "payable": false,
      "stateMutability": "view",
      "type": "function"
    },
    {
      "constant": true,
      "inputs": [
        {
          "name": "owner",
          "type": "address"
        },
        {
          "name": "spender",
          "type": "address"
        }
      ],
      "name": "allowance",
      "outputs": [
        {
          "name": "",
          "type": "uint256"
        }
      ],
      "payable": false,
      "stateMutability": "view",
      "type": "function"
    },
    {
      "constant": false,
      "inputs": [],
      "name": "_acceptAdmin",
      "outputs": [
        {
          "name": "",
          "type": "uint256"
        }
      ],
      "payable": false,
      "stateMutability": "nonpayable",
      "type": "function"
    },
    {
      "constant": false,
      "inputs": [
        {
          "name": "newInterestRateModel",
          "type": "address"
        }
      ],
      "name": "_setInterestRateModel",
      "outputs": [
        {
          "name": "",
          "type": "uint256"
        }
      ],
      "payable": false,
      "stateMutability": "nonpayable",
      "type": "function"
    },
    {
      "constant": true,
      "inputs": [],
      "name": "interestRateModel",
      "outputs": [
        {
          "name": "",
          "type": "address"
        }
      ],
      "payable": false,
      "stateMutability": "view",
      "type": "function"
    },
    {
      "constant": true,
      "inputs": [],
      "name": "admin",
      "outputs": [
        {
          "name": "",
          "type": "address"
        }
      ],
      "payable": false,
      "stateMutability": "view",
      "type": "function"
    },
    {
      "constant": true,
      "inputs": [],
      "name": "borrowRatePerBlock",
      "outputs": [
        {
          "name": "",
          "type": "uint256"
        }
      ],
      "payable": false,
      "stateMutability": "view",
      "type": "function"
    },
    {
      "constant": false,
      "inputs": [
        {
          "name": "newReserveFactorMantissa",
          "type": "uint256"
        }
      ],
      "name": "_setReserveFactor",
      "outputs": [
        {
          "name": "",
          "type": "uint256"
        }
      ],
      "payable": false,
      "stateMutability": "nonpayable",
      "type": "function"
    },
    {
      "constant": true,
      "inputs": [],
      "name": "isCToken",
      "outputs": [
        {
          "name": "",
          "type": "bool"
        }
      ],
      "payable": false,
      "stateMutability": "view",
      "type": "function"
    },
    {
      "inputs": [
        {
          "name": "comptroller_",
          "type": "address"
        },
        {
          "name": "interestRateModel_",
          "type": "address"
        },
        {
          "name": "initialExchangeRateMantissa_",
          "type": "uint256"
        },
        {
          "name": "name_",
          "type": "string"
        },
        {
          "name": "symbol_",
          "type": "string"
        },
        {
          "name": "decimals_",
          "type": "uint256"
        }
      ],
      "payable": false,
      "stateMutability": "nonpayable",
      "type": "constructor"
    },
    {
      "payable": true,
      "stateMutability": "payable",
      "type": "fallback"
    },
    {
      "anonymous": false,
      "inputs": [
        {
          "indexed": false,
          "name": "interestAccumulated",
          "type": "uint256"
        },
        {
          "indexed": false,
          "name": "borrowIndex",
          "type": "uint256"
        },
        {
          "indexed": false,
          "name": "totalBorrows",
          "type": "uint256"
        }
      ],
      "name": "AccrueInterest",
      "type": "event"
    },
    {
      "anonymous": false,
      "inputs": [
        {
          "indexed": false,
          "name": "minter",
          "type": "address"
        },
        {
          "indexed": false,
          "name": "mintAmount",
          "type": "uint256"
        },
        {
          "indexed": false,
          "name": "mintTokens",
          "type": "uint256"
        }
      ],
      "name": "Mint",
      "type": "event"
    },
    {
      "anonymous": false,
      "inputs": [
        {
          "indexed": false,
          "name": "redeemer",
          "type": "address"
        },
        {
          "indexed": false,
          "name": "redeemAmount",
          "type": "uint256"
        },
        {
          "indexed": false,
          "name": "redeemTokens",
          "type": "uint256"
        }
      ],
      "name": "Redeem",
      "type": "event"
    },
    {
      "anonymous": false,
      "inputs": [
        {
          "indexed": false,
          "name": "borrower",
          "type": "address"
        },
        {
          "indexed": false,
          "name": "borrowAmount",
          "type": "uint256"
        },
        {
          "indexed": false,
          "name": "accountBorrows",
          "type": "uint256"
        },
        {
          "indexed": false,
          "name": "totalBorrows",
          "type": "uint256"
        }
      ],
      "name": "Borrow",
      "type": "event"
    },
    {
      "anonymous": false,
      "inputs": [
        {
          "indexed": false,
          "name": "payer",
          "type": "address"
        },
        {
          "indexed": false,
          "name": "borrower",
          "type": "address"
        },
        {
          "indexed": false,
          "name": "repayAmount",
          "type": "uint256"
        },
        {
          "indexed": false,
          "name": "accountBorrows",
          "type": "uint256"
        },
        {
          "indexed": false,
          "name": "totalBorrows",
          "type": "uint256"
        }
      ],
      "name": "RepayBorrow",
      "type": "event"
    },
    {
      "anonymous": false,
      "inputs": [
        {
          "indexed": false,
          "name": "liquidator",
          "type": "address"
        },
        {
          "indexed": false,
          "name": "borrower",
          "type": "address"
        },
        {
          "indexed": false,
          "name": "repayAmount",
          "type": "uint256"
        },
        {
          "indexed": false,
          "name": "cTokenCollateral",
          "type": "address"
        },
        {
          "indexed": false,
          "name": "seizeTokens",
          "type": "uint256"
        }
      ],
      "name": "LiquidateBorrow",
      "type": "event"
    },
    {
      "anonymous": false,
      "inputs": [
        {
          "indexed": false,
          "name": "oldPendingAdmin",
          "type": "address"
        },
        {
          "indexed": false,
          "name": "newPendingAdmin",
          "type": "address"
        }
      ],
      "name": "NewPendingAdmin",
      "type": "event"
    },
    {
      "anonymous": false,
      "inputs": [
        {
          "indexed": false,
          "name": "oldAdmin",
          "type": "address"
        },
        {
          "indexed": false,
          "name": "newAdmin",
          "type": "address"
        }
      ],
      "name": "NewAdmin",
      "type": "event"
    },
    {
      "anonymous": false,
      "inputs": [
        {
          "indexed": false,
          "name": "oldComptroller",
          "type": "address"
        },
        {
          "indexed": false,
          "name": "newComptroller",
          "type": "address"
        }
      ],
      "name": "NewComptroller",
      "type": "event"
    },
    {
      "anonymous": false,
      "inputs": [
        {
          "indexed": false,
          "name": "oldInterestRateModel",
          "type": "address"
        },
        {
          "indexed": false,
          "name": "newInterestRateModel",
          "type": "address"
        }
      ],
      "name": "NewMarketInterestRateModel",
      "type": "event"
    },
    {
      "anonymous": false,
      "inputs": [
        {
          "indexed": false,
          "name": "oldReserveFactorMantissa",
          "type": "uint256"
        },
        {
          "indexed": false,
          "name": "newReserveFactorMantissa",
          "type": "uint256"
        }
      ],
      "name": "NewReserveFactor",
      "type": "event"
    },
    {
      "anonymous": false,
      "inputs": [
        {
          "indexed": false,
          "name": "admin",
          "type": "address"
        },
        {
          "indexed": false,
          "name": "reduceAmount",
          "type": "uint256"
        },
        {
          "indexed": false,
          "name": "newTotalReserves",
          "type": "uint256"
        }
      ],
      "name": "ReservesReduced",
      "type": "event"
    },
    {
      "anonymous": false,
      "inputs": [
        {
          "indexed": false,
          "name": "error",
          "type": "uint256"
        },
        {
          "indexed": false,
          "name": "info",
          "type": "uint256"
        },
        {
          "indexed": false,
          "name": "detail",
          "type": "uint256"
        }
      ],
      "name": "Failure",
      "type": "event"
    },
    {
      "anonymous": false,
      "inputs": [
        {
          "indexed": true,
          "name": "from",
          "type": "address"
        },
        {
          "indexed": true,
          "name": "to",
          "type": "address"
        },
        {
          "indexed": false,
          "name": "amount",
          "type": "uint256"
        }
      ],
      "name": "Transfer",
      "type": "event"
    },
    {
      "anonymous": false,
      "inputs": [
        {
          "indexed": true,
          "name": "owner",
          "type": "address"
        },
        {
          "indexed": true,
          "name": "spender",
          "type": "address"
        },
        {
          "indexed": false,
          "name": "amount",
          "type": "uint256"
        }
      ],
      "name": "Approval",
      "type": "event"
    },
    {
      "constant": false,
      "inputs": [],
      "name": "mint",
      "outputs": [],
      "payable": true,
      "stateMutability": "payable",
      "type": "function"
    },
    {
      "constant": false,
      "inputs": [
        {
          "name": "redeemTokens",
          "type": "uint256"
        }
      ],
      "name": "redeem",
      "outputs": [
        {
          "name": "",
          "type": "uint256"
        }
      ],
      "payable": false,
      "stateMutability": "nonpayable",
      "type": "function"
    },
    {
      "constant": false,
      "inputs": [
        {
          "name": "redeemAmount",
          "type": "uint256"
        }
      ],
      "name": "redeemUnderlying",
      "outputs": [
        {
          "name": "",
          "type": "uint256"
        }
      ],
      "payable": false,
      "stateMutability": "nonpayable",
      "type": "function"
    },
    {
      "constant": false,
      "inputs": [
        {
          "name": "borrowAmount",
          "type": "uint256"
        }
      ],
      "name": "borrow",
      "outputs": [
        {
          "name": "",
          "type": "uint256"
        }
      ],
      "payable": false,
      "stateMutability": "nonpayable",
      "type": "function"
    },
    {
      "constant": false,
      "inputs": [],
      "name": "repayBorrow",
      "outputs": [],
      "payable": true,
      "stateMutability": "payable",
      "type": "function"
    },
    {
      "constant": false,
      "inputs": [
        {
          "name": "borrower",
          "type": "address"
        }
      ],
      "name": "repayBorrowBehalf",
      "outputs": [],
      "payable": true,
      "stateMutability": "payable",
      "type": "function"
    },
    {
      "constant": false,
      "inputs": [
        {
          "name": "borrower",
          "type": "address"
        },
        {
          "name": "cTokenCollateral",
          "type": "address"
        }
      ],
      "name": "liquidateBorrow",
      "outputs": [],
      "payable": true,
      "stateMutability": "payable",
      "type": "function"
    }
  ],
  "bytecode": "0x60806040523480156200001157600080fd5b5060405162005a8038038062005a80833981018060405260c08110156200003757600080fd5b81516020830151604084015160608501805193959294919391830192916401000000008111156200006757600080fd5b820160208101848111156200007b57600080fd5b81516401000000008111828201871017156200009657600080fd5b50509291906020018051640100000000811115620000b357600080fd5b82016020810184811115620000c757600080fd5b8151640100000000811182820187101715620000e257600080fd5b50506020909101516001600090815560048054600160a060020a0319163317905560088790559193509150869086908690869086908690841162000172576040517f08c379a000000000000000000000000000000000000000000000000000000000815260040180806020018281038252603081526020018062005a506030913960400191505060405180910390fd5b60006200018887640100000000620002cb810204565b90508015620001f857604080517f08c379a000000000000000000000000000000000000000000000000000000000815260206004820152601a60248201527f53657474696e6720636f6d7074726f6c6c6572206661696c6564000000000000604482015290519081900360640190fd5b6200020b64010000000062000463810204565b600a55670de0b6b3a7640000600b556200022e8664010000000062000468810204565b9050801562000289576040517f08c379a000000000000000000000000000000000000000000000000000000000815260040180806020018281038252602281526020018062005a2e6022913960400191505060405180910390fd5b83516200029e906001906020870190620006b1565b508251620002b4906002906020860190620006b1565b505060035550620007539950505050505050505050565b600454600090600160a060020a031633146200030057620002f86001603f64010000000062000641810204565b90506200045e565b600654604080517e7e3dd20000000000000000000000000000000000000000000000000000000081529051600160a060020a0392831692851691627e3dd2916004808301926020929190829003018186803b1580156200035f57600080fd5b505afa15801562000374573d6000803e3d6000fd5b505050506040513d60208110156200038b57600080fd5b50511515620003fb57604080517f08c379a000000000000000000000000000000000000000000000000000000000815260206004820152601c60248201527f6d61726b6572206d6574686f642072657475726e65642066616c736500000000604482015290519081900360640190fd5b60068054600160a060020a031916600160a060020a03858116918217909255604080519284168352602083019190915280517f7ac369dbd14fa5ea3f473ed67cc9d598964a77501540ba6751eb0b3decf5870d9281900390910190a160005b9150505b919050565b435b90565b6004546000908190600160a060020a03163314620004a057620004976001604264010000000062000641810204565b9150506200045e565b620004b364010000000062000463810204565b600a5414620004d35762000497600a604164010000000062000641810204565b600760009054906101000a9004600160a060020a0316905082600160a060020a0316632191f92a6040518163ffffffff167c010000000000000000000000000000000000000000000000000000000002815260040160206040518083038186803b1580156200054157600080fd5b505afa15801562000556573d6000803e3d6000fd5b505050506040513d60208110156200056d57600080fd5b50511515620005dd57604080517f08c379a000000000000000000000000000000000000000000000000000000000815260206004820152601c60248201527f6d61726b6572206d6574686f642072657475726e65642066616c736500000000604482015290519081900360640190fd5b60078054600160a060020a031916600160a060020a03858116918217909255604080519284168352602083019190915280517fedffc32e068c7c95dfd4bdfd5c4d939a084d6b11c4199eac8436ed234d72f9269281900390910190a160006200045a565b60007f45b96fe442630264581b197e84bbada861235052c5a1aadfff9ea4e40a969aa08360108111156200067157fe5b83604d8111156200067e57fe5b604080519283526020830191909152600082820152519081900360600190a1826010811115620006aa57fe5b9392505050565b828054600181600116156101000203166002900490600052602060002090601f016020900481019282601f10620006f457805160ff191683800117855562000724565b8280016001018555821562000724579182015b828111156200072457825182559160200191906001019062000707565b506200073292915062000736565b5090565b6200046591905b808211156200073257600081556001016200073d565b6152cb80620007636000396000f3fe60806040526004361061030f576000357c0100000000000000000000000000000000000000000000000000000000900480638f840ddd116101ac578063c37f68e2116100fe578063f2b3abbd116100a7578063f8f9da2811610081578063f8f9da28146109c3578063fca7820b146109d8578063fe9c44ae14610a025761030f565b8063f2b3abbd14610966578063f3fdb15a14610999578063f851a440146109ae5761030f565b8063dd62ed3e116100d8578063dd62ed3e146108f0578063e59746191461092b578063e9c714f2146109515761030f565b8063c37f68e214610843578063c5ebeaec1461089c578063db006a75146108c65761030f565b8063aa5af0fd11610160578063b2a02ff11161013a578063b2a02ff1146107b8578063b71d1a0c146107fb578063bd6d894d1461082e5761030f565b8063aa5af0fd14610760578063aae40a2a14610775578063ae9d70b0146107a35761030f565b806395dd91931161019157806395dd9193146106df578063a6afed9514610712578063a9059cbb146107275761030f565b80638f840ddd146106b557806395d89b41146106ca5761030f565b80633b1d21a211610265578063601a0bf11161021957806370a08231116101f357806370a082311461064357806373acee9814610676578063852a12e31461068b5761030f565b8063601a0bf1146105ef578063675d972c146106195780636c540baf1461062e5761030f565b806347bd37181161024a57806347bd3718146105bd5780634e4d9fea146105d25780635fe3b567146105da5761030f565b80633b1d21a2146105755780634576b5db1461058a5761030f565b806318160ddd116102c757806326782247116102a157806326782247146104fc578063313ce5671461052d5780633af9e669146105425761030f565b806318160ddd1461048f578063182df0f5146104a457806323b872dd146104b95761030f565b80631249c58b116102f85780631249c58b1461042d578063173b99041461043557806317bfdfbc1461045c5761030f565b806306fdde0314610356578063095ea7b3146103e0575b61035461031b34610a17565b60408051808201909152600b81527f6d696e74206661696c65640000000000000000000000000000000000000000006020820152610ac2565b005b34801561036257600080fd5b5061036b610e42565b6040805160208082528351818301528351919283929083019185019080838360005b838110156103a557818101518382015260200161038d565b50505050905090810190601f1680156103d25780820380516001836020036101000a031916815260200191505b509250505060405180910390f35b3480156103ec57600080fd5b506104196004803603604081101561040357600080fd5b50600160a060020a038135169060200135610ecf565b604080519115158252519081900360200190f35b610354610f3c565b34801561044157600080fd5b5061044a610f4a565b60408051918252519081900360200190f35b34801561046857600080fd5b5061044a6004803603602081101561047f57600080fd5b5035600160a060020a0316610f50565b34801561049b57600080fd5b5061044a611026565b3480156104b057600080fd5b5061044a61102c565b3480156104c557600080fd5b50610419600480360360608110156104dc57600080fd5b50600160a060020a03813581169160208101359091169060400135611097565b34801561050857600080fd5b50610511611118565b60408051600160a060020a039092168252519081900360200190f35b34801561053957600080fd5b5061044a611127565b34801561054e57600080fd5b5061044a6004803603602081101561056557600080fd5b5035600160a060020a031661112d565b34801561058157600080fd5b5061044a61119e565b34801561059657600080fd5b5061044a600480360360208110156105ad57600080fd5b5035600160a060020a03166111ad565b3480156105c957600080fd5b5061044a61132d565b610354611333565b3480156105e657600080fd5b50610511611378565b3480156105fb57600080fd5b5061044a6004803603602081101561061257600080fd5b5035611387565b34801561062557600080fd5b5061044a6113c1565b34801561063a57600080fd5b5061044a6113c7565b34801561064f57600080fd5b5061044a6004803603602081101561066657600080fd5b5035600160a060020a03166113cd565b34801561068257600080fd5b5061044a6113e8565b34801561069757600080fd5b5061044a600480360360208110156106ae57600080fd5b50356114bc565b3480156106c157600080fd5b5061044a6114c7565b3480156106d657600080fd5b5061036b6114cd565b3480156106eb57600080fd5b5061044a6004803603602081101561070257600080fd5b5035600160a060020a0316611525565b34801561071e57600080fd5b5061044a61158a565b34801561073357600080fd5b506104196004803603604081101561074a57600080fd5b50600160a060020a0381351690602001356119a9565b34801561076c57600080fd5b5061044a611a29565b6103546004803603604081101561078b57600080fd5b50600160a060020a0381358116916020013516611a2f565b3480156107af57600080fd5b5061044a611a76565b3480156107c457600080fd5b5061044a600480360360608110156107db57600080fd5b50600160a060020a03813581169160208101359091169060400135611d83565b34801561080757600080fd5b5061044a6004803603602081101561081e57600080fd5b5035600160a060020a0316612093565b34801561083a57600080fd5b5061044a612127565b34801561084f57600080fd5b506108766004803603602081101561086657600080fd5b5035600160a060020a03166121fc565b604080519485526020850193909352838301919091526060830152519081900360800190f35b3480156108a857600080fd5b5061044a600480360360208110156108bf57600080fd5b5035612291565b3480156108d257600080fd5b5061044a600480360360208110156108e957600080fd5b503561229c565b3480156108fc57600080fd5b5061044a6004803603604081101561091357600080fd5b50600160a060020a03813581169160200135166122a7565b6103546004803603602081101561094157600080fd5b5035600160a060020a03166122d2565b34801561095d57600080fd5b5061044a61231b565b34801561097257600080fd5b5061044a6004803603602081101561098957600080fd5b5035600160a060020a0316612417565b3480156109a557600080fd5b50610511612451565b3480156109ba57600080fd5b50610511612460565b3480156109cf57600080fd5b5061044a61246f565b3480156109e457600080fd5b5061044a600480360360208110156109fb57600080fd5b503561256f565b348015610a0e57600080fd5b506104196125a9565b6000805460010180825581610a2a61158a565b90508015610a5057610a48816010811115610a4157fe5b601e6125ae565b925050610a5e565b610a5a3385612614565b9250505b6000548114610abc57604080516000805160206150e7833981519152815260206004820152600a60248201527f72652d656e746572656400000000000000000000000000000000000000000000604482015290519081900360640190fd5b50919050565b811515610ace57610e3e565b606081516005016040519080825280601f01601f191660200182016040528015610aff576020820181803883390190505b50905060005b8251811015610bad578281815181101515610b1c57fe5b9060200101517f010000000000000000000000000000000000000000000000000000000000000090047f0100000000000000000000000000000000000000000000000000000000000000028282815181101515610b7557fe5b9060200101907effffffffffffffffffffffffffffffffffffffffffffffffffffffffffffff1916908160001a905350600101610b05565b81517f200000000000000000000000000000000000000000000000000000000000000090839083908110610bdd57fe5b9060200101907effffffffffffffffffffffffffffffffffffffffffffffffffffffffffffff1916908160001a90535081517f280000000000000000000000000000000000000000000000000000000000000090839060018401908110610c4057fe5b9060200101907effffffffffffffffffffffffffffffffffffffffffffffffffffffffffffff1916908160001a905350600a84046030017f0100000000000000000000000000000000000000000000000000000000000000028282600201815181101515610caa57fe5b9060200101907effffffffffffffffffffffffffffffffffffffffffffffffffffffffffffff1916908160001a905350600a84066030017f0100000000000000000000000000000000000000000000000000000000000000028282600301815181101515610d1457fe5b9060200101907effffffffffffffffffffffffffffffffffffffffffffffffffffffffffffff1916908160001a90535081517f290000000000000000000000000000000000000000000000000000000000000090839060048401908110610d7757fe5b9060200101907effffffffffffffffffffffffffffffffffffffffffffffffffffffffffffff1916908160001a905350818415610e3a576040516000805160206150e783398151915281526004018080602001828103825283818151815260200191508051906020019080838360005b83811015610dff578181015183820152602001610de7565b50505050905090810190601f168015610e2c5780820380516001836020036101000a031916815260200191505b509250505060405180910390fd5b5050505b5050565b60018054604080516020600284861615610100026000190190941693909304601f81018490048402820184019092528181529291830182828015610ec75780601f10610e9c57610100808354040283529160200191610ec7565b820191906000526020600020905b815481529060010190602001808311610eaa57829003601f168201915b505050505081565b336000818152601060209081526040808320600160a060020a03871680855290835281842086905581518681529151939493909284927f8c5be1e5ebec7d5bd14f71427d1e84f3dd0314c0f7b2291e5b200ac8c7c3b925929081900390910190a360019150505b92915050565b610f4861031b34610a17565b565b60095481565b6000805460010180825581610f6361158a565b14610fbd57604080516000805160206150e7833981519152815260206004820152601660248201527f61636372756520696e746572657374206661696c656400000000000000000000604482015290519081900360640190fd5b610fc683611525565b91506000548114610abc57604080516000805160206150e7833981519152815260206004820152600a60248201527f72652d656e746572656400000000000000000000000000000000000000000000604482015290519081900360640190fd5b600e5481565b6000806000611039612aa1565b9092509050600082600381111561104c57fe5b14611090576040516000805160206150e783398151915281526004018080602001828103825260358152602001806152136035913960400191505060405180910390fd5b9150505b90565b60008054600101808255816110ae33878787612b4f565b1491505b600054811461111057604080516000805160206150e7833981519152815260206004820152600a60248201527f72652d656e746572656400000000000000000000000000000000000000000000604482015290519081900360640190fd5b509392505050565b600554600160a060020a031681565b60035481565b6000611137614f6d565b60206040519081016040528061114b612127565b9052600160a060020a0384166000908152600f6020526040812054919250908190611177908490612ea3565b9092509050600082600381111561118a57fe5b1461119457600080fd5b925050505b919050565b60006111a8612ef7565b905090565b600454600090600160a060020a031633146111d5576111ce6001603f6125ae565b9050611199565b600654604080517e7e3dd20000000000000000000000000000000000000000000000000000000081529051600160a060020a0392831692851691627e3dd2916004808301926020929190829003018186803b15801561123357600080fd5b505afa158015611247573d6000803e3d6000fd5b505050506040513d602081101561125d57600080fd5b505115156112ba57604080516000805160206150e7833981519152815260206004820152601c60248201527f6d61726b6572206d6574686f642072657475726e65642066616c736500000000604482015290519081900360640190fd5b6006805473ffffffffffffffffffffffffffffffffffffffff1916600160a060020a03858116918217909255604080519284168352602083019190915280517f7ac369dbd14fa5ea3f473ed67cc9d598964a77501540ba6751eb0b3decf5870d9281900390910190a160005b9392505050565b600c5481565b610f4861133f34612f23565b60408051808201909152601281527f7265706179426f72726f77206661696c656400000000000000000000000000006020820152610ac2565b600654600160a060020a031681565b600080546001018082558161139a61158a565b905080156113b857610a488160108111156113b157fe5b60306125ae565b610a5a84612f5f565b60085481565b600a5481565b600160a060020a03166000908152600f602052604090205490565b60008054600101808255816113fb61158a565b1461145557604080516000805160206150e7833981519152815260206004820152601660248201527f61636372756520696e746572657374206661696c656400000000000000000000604482015290519081900360640190fd5b600c54915060005481146114b857604080516000805160206150e7833981519152815260206004820152600a60248201527f72652d656e746572656400000000000000000000000000000000000000000000604482015290519081900360640190fd5b5090565b6000610f36826130ed565b600d5481565b6002805460408051602060018416156101000260001901909316849004601f81018490048402820184019092528181529291830182828015610ec75780601f10610e9c57610100808354040283529160200191610ec7565b60008060006115338461312a565b9092509050600082600381111561154657fe5b14611326576040516000805160206150e783398151915281526004018080602001828103825260378152602001806151076037913960400191505060405180910390fd5b6000611594614f7f565b600754600160a060020a03166315f240536115ad612ef7565b600c54600d546040518463ffffffff167c0100000000000000000000000000000000000000000000000000000000028152600401808481526020018381526020018281526020019350505050604080518083038186803b15801561161057600080fd5b505afa158015611624573d6000803e3d6000fd5b505050506040513d604081101561163a57600080fd5b50805160209182015160408401819052918301526601c6bf5263400010156116b157604080516000805160206150e7833981519152815260206004820152601c60248201527f626f72726f772072617465206973206162737572646c79206869676800000000604482015290519081900360640190fd5b6020810151156116d4576116cc6005600283602001516131e0565b915050611094565b6116dc613246565b60608201819052600a546116f0919061324a565b608083018190528282600381111561170457fe5b600381111561170f57fe5b905250600090508151600381111561172357fe5b1461172a57fe5b61174b6020604051908101604052808360400151815250826080015161326d565b60a083018190528282600381111561175f57fe5b600381111561176a57fe5b905250600090508151600381111561177e57fe5b1461179f576116cc600960068360000151600381111561179a57fe5b6131e0565b6117af8160a00151600c54612ea3565b60c08301819052828260038111156117c357fe5b60038111156117ce57fe5b90525060009050815160038111156117e257fe5b146117fe576116cc600960018360000151600381111561179a57fe5b61180e8160c00151600c546132d5565b60e083018190528282600381111561182257fe5b600381111561182d57fe5b905250600090508151600381111561184157fe5b1461185d576116cc600960048360000151600381111561179a57fe5b61187f6020604051908101604052806009548152508260c00151600d546132fb565b61010083018190528282600381111561189457fe5b600381111561189f57fe5b90525060009050815160038111156118b357fe5b146118cf576116cc600960058360000151600381111561179a57fe5b6118e28160a00151600b54600b546132fb565b6101208301819052828260038111156118f757fe5b600381111561190257fe5b905250600090508151600381111561191657fe5b14611932576116cc600960038360000151600381111561179a57fe5b606080820151600a55610120820151600b81905560e0830151600c819055610100840151600d5560c08401516040805191825260208201939093528083019190915290517f875352fb3fadeb8c0be7cbbe8ff761b308fa7033470cd0287f02f3436fd76cb9929181900390910190a1600091505090565b60008054600101808255816119c033338787612b4f565b1491505b6000548114611a2257604080516000805160206150e7833981519152815260206004820152600a60248201527f72652d656e746572656400000000000000000000000000000000000000000000604482015290519081900360640190fd5b5092915050565b600b5481565b610e3e611a3d833484613357565b60408051808201909152601681527f6c6971756964617465426f72726f77206661696c6564000000000000000000006020820152610ac2565b600080611a8161102c565b6007549091506000908190600160a060020a03166315f24053611aa2612ef7565b600c54600d546040518463ffffffff167c0100000000000000000000000000000000000000000000000000000000028152600401808481526020018381526020018281526020019350505050604080518083038186803b158015611b0557600080fd5b505afa158015611b19573d6000803e3d6000fd5b505050506040513d6040811015611b2f57600080fd5b50805160209091015190925090508115611b82576040516000805160206150e783398151915281526004018080602001828103825260318152602001806151a66031913960400191505060405180910390fd5b6000611b8c614f6d565b611ba760206040519081016040528087815250600e5461326d565b90925090506000826003811115611bba57fe5b14611bfe576040516000805160206150e7833981519152815260040180806020018281038252603181526020018061513e6031913960400191505060405180910390fd5b6000611c08614f6d565b611c14600c5484613496565b90925090506000826003811115611c2757fe5b14611c6b576040516000805160206150e783398151915281526004018080602001828103825260318152602001806150626031913960400191505060405180910390fd5b6000611c75614f6d565b6040805160208181018352670de0b6b3a7640000825282519081019092526009548252611ca1916134f5565b90925090506000826003811115611cb457fe5b14611cf8576040516000805160206150e7833981519152815260040180806020018281038252603c8152602001806151d7603c913960400191505060405180910390fd5b6000611d02614f6d565b611d1c6020604051908101604052808b815250848761352f565b90925090506000826003811115611d2f57fe5b14611d73576040516000805160206150e783398151915281526004018080602001828103825260318152602001806150b66031913960400191505060405180910390fd5b519a505050505050505050505090565b60008054600101808255600654604080517fd02f7351000000000000000000000000000000000000000000000000000000008152306004820152336024820152600160a060020a03888116604483015287811660648301526084820187905291518593929092169163d02f73519160a48082019260209290919082900301818787803b158015611e1257600080fd5b505af1158015611e26573d6000803e3d6000fd5b505050506040513d6020811015611e3c57600080fd5b505190508015611e5b57611e536003601b836131e0565b9250506110b2565b85600160a060020a031685600160a060020a03161415611e8157611e536006601c6125ae565b600160a060020a0385166000908152600f602052604081205481908190611ea8908861324a565b90935091506000836003811115611ebb57fe5b14611ede57611ed36009601a85600381111561179a57fe5b9550505050506110b2565b600160a060020a0389166000908152600f6020526040902054611f0190886132d5565b90935090506000836003811115611f1457fe5b14611f2c57611ed36009601985600381111561179a57fe5b600160a060020a038089166000818152600f60209081526040808320879055938d168083529184902085905583518b8152935191937fddf252ad1be2c89b69c2b068fc378daa952ba7f163c4a11628f55a4df523b3ef929081900390910190a3600654604080517f6d35bf91000000000000000000000000000000000000000000000000000000008152306004820152336024820152600160a060020a038c811660448301528b81166064830152608482018b905291519190921691636d35bf919160a480830192600092919082900301818387803b15801561200e57600080fd5b505af1158015612022573d6000803e3d6000fd5b506000925061202f915050565b955050505050600054811461111057604080516000805160206150e7833981519152815260206004820152600a60248201527f72652d656e746572656400000000000000000000000000000000000000000000604482015290519081900360640190fd5b600454600090600160a060020a031633146120b4576111ce600160456125ae565b60058054600160a060020a0384811673ffffffffffffffffffffffffffffffffffffffff19831681179093556040805191909216808252602082019390935281517fca4f2f25d0898edd99413412fb94012f9e54ec8142f9b093e7720646a95b16a9929181900390910190a16000611326565b600080546001018082558161213a61158a565b1461219457604080516000805160206150e7833981519152815260206004820152601660248201527f61636372756520696e746572657374206661696c656400000000000000000000604482015290519081900360640190fd5b61219c61102c565b915060005481146114b857604080516000805160206150e7833981519152815260206004820152600a60248201527f72652d656e746572656400000000000000000000000000000000000000000000604482015290519081900360640190fd5b600160a060020a0381166000908152600f60205260408120548190819081908180806122278961312a565b93509050600081600381111561223957fe5b146122575760095b97506000965086955085945061228a9350505050565b61225f612aa1565b92509050600081600381111561227157fe5b1461227d576009612241565b5060009650919450925090505b9193509193565b6000610f3682613579565b6000610f36826135b4565b600160a060020a03918216600090815260106020908152604080832093909416825291909152205490565b6123186122df82346135ea565b60408051808201909152601881527f7265706179426f72726f77426568616c66206661696c656400000000000000006020820152610ac2565b50565b600554600090600160a060020a031633141580612336575033155b1561234e57612347600160006125ae565b9050611094565b6004805460058054600160a060020a0380821673ffffffffffffffffffffffffffffffffffffffff1980861682179687905590921690925560408051938316808552949092166020840152815190927ff9ffabca9c8276e99321725bcb43fb076a6c66a54b7f21c4e8146d8519b417dc92908290030190a160055460408051600160a060020a038085168252909216602083015280517fca4f2f25d0898edd99413412fb94012f9e54ec8142f9b093e7720646a95b16a99281900390910190a160009250505090565b60008061242261158a565b905080156124485761244081601081111561243957fe5b60406125ae565b915050611199565b6113268361368f565b600754600160a060020a031681565b600454600160a060020a031681565b60075460009081908190600160a060020a03166315f2405361248f612ef7565b600c54600d546040518463ffffffff167c0100000000000000000000000000000000000000000000000000000000028152600401808481526020018381526020018281526020019350505050604080518083038186803b1580156124f257600080fd5b505afa158015612506573d6000803e3d6000fd5b505050506040513d604081101561251c57600080fd5b50805160209091015190925090508115611090576040516000805160206150e7833981519152815260040180806020018281038252603781526020018061516f6037913960400191505060405180910390fd5b600080546001018082558161258261158a565b905080156125a057610a4881601081111561259957fe5b60466125ae565b610a5a84613832565b600181565b60007f45b96fe442630264581b197e84bbada861235052c5a1aadfff9ea4e40a969aa08360108111156125dd57fe5b83604d8111156125e957fe5b604080519283526020830191909152600082820152519081900360600190a182601081111561132657fe5b600654604080517f4ef4c3e1000000000000000000000000000000000000000000000000000000008152306004820152600160a060020a03858116602483015260448201859052915160009384931691634ef4c3e191606480830192602092919082900301818787803b15801561268a57600080fd5b505af115801561269e573d6000803e3d6000fd5b505050506040513d60208110156126b457600080fd5b5051905080156126d3576126cb6003601f836131e0565b915050610f36565b6126db613246565b600a54146126ef576126cb600a60226125ae565b6126f7614fd9565b61270185856138d5565b8190601081111561270e57fe5b9081601081111561271b57fe5b90525060008151601081111561272d57fe5b1461274857805161273f9060266125ae565b92505050610f36565b612750612aa1565b604083018190526020830182600381111561276757fe5b600381111561277257fe5b905250600090508160200151600381111561278957fe5b146127a55761273f600960218360200151600381111561179a57fe5b6127c28460206040519081016040528084604001518152506139a1565b60608301819052602083018260038111156127d957fe5b60038111156127e457fe5b90525060009050816020015160038111156127fb57fe5b146128175761273f600960208360200151600381111561179a57fe5b612827600e5482606001516132d5565b608083018190526020830182600381111561283e57fe5b600381111561284957fe5b905250600090508160200151600381111561286057fe5b1461287c5761273f600960248360200151600381111561179a57fe5b600160a060020a0385166000908152600f602052604090205460608201516128a491906132d5565b60a08301819052602083018260038111156128bb57fe5b60038111156128c657fe5b90525060009050816020015160038111156128dd57fe5b146128f95761273f600960238360200151600381111561179a57fe5b61290385856138d5565b8190601081111561291057fe5b9081601081111561291d57fe5b90525060008151601081111561292f57fe5b1461294157805161273f9060256125ae565b6080810151600e5560a0810151600160a060020a0386166000818152600f602090815260409182902093909355606080850151825193845293830188905282820193909352517f4c209b5fc8ad50758f13e2e1088ba56a560dff690a1c6fef26394f4c03821c4f929181900390910190a160608101516040805191825251600160a060020a0387169130917fddf252ad1be2c89b69c2b068fc378daa952ba7f163c4a11628f55a4df523b3ef9181900360200190a36006546060820151604080517f41c728b9000000000000000000000000000000000000000000000000000000008152306004820152600160a060020a038981166024830152604482018990526064820193909352905191909216916341c728b991608480830192600092919082900301818387803b158015612a7757600080fd5b505af1158015612a8b573d6000803e3d6000fd5b5060009250612a98915050565b95945050505050565b600080600e5460001415612abc575050600854600090612b4b565b6000612ac6612ef7565b90506000612ad2614f6d565b6000612ae384600c54600d546139b8565b935090506000816003811115612af557fe5b14612b0957945060009350612b4b92505050565b612b1583600e546139f6565b925090506000816003811115612b2757fe5b14612b3b57945060009350612b4b92505050565b5051600094509250612b4b915050565b9091565b600654604080517fbdcdc258000000000000000000000000000000000000000000000000000000008152306004820152600160a060020a03868116602483015285811660448301526064820185905291516000938493169163bdcdc25891608480830192602092919082900301818787803b158015612bcd57600080fd5b505af1158015612be1573d6000803e3d6000fd5b505050506040513d6020811015612bf757600080fd5b505190508015612c1657612c0e6003604a836131e0565b915050612e9b565b83600160a060020a031685600160a060020a03161415612c3c57612c0e6002604b6125ae565b6000600160a060020a038781169087161415612c5b5750600019612c83565b50600160a060020a038086166000908152601060209081526040808320938a16835292905220545b600080600080612c93858961324a565b90945092506000846003811115612ca657fe5b14612cc457612cb76009604b6125ae565b9650505050505050612e9b565b600160a060020a038a166000908152600f6020526040902054612ce7908961324a565b90945091506000846003811115612cfa57fe5b14612d0b57612cb76009604c6125ae565b600160a060020a0389166000908152600f6020526040902054612d2e90896132d5565b90945090506000846003811115612d4157fe5b14612d5257612cb76009604d6125ae565b600160a060020a03808b166000908152600f6020526040808220859055918b168152208190556000198514612daa57600160a060020a03808b166000908152601060209081526040808320938f168352929052208390555b88600160a060020a03168a600160a060020a03167fddf252ad1be2c89b69c2b068fc378daa952ba7f163c4a11628f55a4df523b3ef8a6040518082815260200191505060405180910390a3600654604080517f6a56947e000000000000000000000000000000000000000000000000000000008152306004820152600160a060020a038d811660248301528c81166044830152606482018c905291519190921691636a56947e91608480830192600092919082900301818387803b158015612e7157600080fd5b505af1158015612e85573d6000803e3d6000fd5b5060009250612e92915050565b96505050505050505b949350505050565b6000806000612eb0614f6d565b612eba868661326d565b90925090506000826003811115612ecd57fe5b14612ede5750915060009050612ef0565b6000612ee982613aa6565b9350935050505b9250929050565b60008080612f0630313461324a565b90925090506000826003811115612f1957fe5b1461109057600080fd5b6000805460010180825581612f3661158a565b90508015612f5457610a48816010811115612f4d57fe5b60366125ae565b610a5a333386613ab5565b60045460009081908190600160a060020a03163314612f8d57612f84600160316125ae565b92505050611199565b612f95613246565b600a5414612fa957612f84600a60336125ae565b83612fb2612ef7565b1015612fc457612f84600e60326125ae565b600d54841115612fda57612f84600260346125ae565b50600d5483810390811115613028576040516000805160206150e7833981519152815260040180806020018281038252602481526020018061527c6024913960400191505060405180910390fd5b600d81905560045461304390600160a060020a031685613f42565b9150600082601081111561305357fe5b14613097576040516000805160206150e783398151915281526004018080602001828103825260238152602001806150936023913960400191505060405180910390fd5b60045460408051600160a060020a03909216825260208201869052818101839052517f3bad0c59cf2f06e7314077049f48a93578cd16f5ef92329f1dab1420a99c177e9181900360600190a16000949350505050565b600080546001018082558161310061158a565b9050801561311e57610a4881601081111561311757fe5b60276125ae565b610a5a33600086613f84565b600160a060020a03811660009081526011602052604081208054829182918291829115156131635750600094508493506131db92505050565b6131738160000154600b546144e7565b9094509250600084600381111561318657fe5b1461319b5750919350600092506131db915050565b6131a983826001015461452a565b909450915060008460038111156131bc57fe5b146131d15750919350600092506131db915050565b5060009450925050505b915091565b60007f45b96fe442630264581b197e84bbada861235052c5a1aadfff9ea4e40a969aa084601081111561320f57fe5b84604d81111561321b57fe5b604080519283526020830191909152818101859052519081900360600190a1836010811115612e9b57fe5b4390565b600080838311613261575060009050818303612ef0565b50600390506000612ef0565b6000613277614f6d565b6000806132888660000151866144e7565b9092509050600082600381111561329b57fe5b146132ba57506040805160208101909152600081529092509050612ef0565b60408051602081019091529081526000969095509350505050565b6000808383018481106132ed57600092509050612ef0565b506002915060009050612ef0565b6000806000613308614f6d565b613312878761326d565b9092509050600082600381111561332557fe5b14613336575091506000905061334f565b61334861334282613aa6565b866132d5565b9350935050505b935093915050565b600080546001018082558161336a61158a565b9050801561338857611e5381601081111561338157fe5b600f6125ae565b83600160a060020a031663a6afed956040518163ffffffff167c0100000000000000000000000000000000000000000000000000000000028152600401602060405180830381600087803b1580156133df57600080fd5b505af11580156133f3573d6000803e3d6000fd5b505050506040513d602081101561340957600080fd5b50519050801561342957611e5381601081111561342257fe5b60106125ae565b61343533878787614559565b925050600054811461111057604080516000805160206150e7833981519152815260206004820152600a60248201527f72652d656e746572656400000000000000000000000000000000000000000000604482015290519081900360640190fd5b60006134a0614f6d565b6000806134b5670de0b6b3a7640000876144e7565b909250905060008260038111156134c857fe5b146134e757506040805160208101909152600081529092509050612ef0565b612ee98186600001516139f6565b60006134ff614f6d565b6000806135148660000151866000015161324a565b60408051602081019091529081529097909650945050505050565b6000613539614f6d565b6000613543614f6d565b61354d8787614ae4565b9092509050600082600381111561356057fe5b1461356f57909250905061334f565b6133488186614ae4565b600080546001018082558161358c61158a565b905080156135aa57610a488160108111156135a357fe5b60086125ae565b610a5a3385614bcd565b60008054600101808255816135c761158a565b905080156135de57610a4881601081111561311757fe5b610a5a33856000613f84565b60008054600101808255816135fd61158a565b905080156136235761361b81601081111561361457fe5b60356125ae565b9250506119c4565b61362e338686613ab5565b9250506000548114611a2257604080516000805160206150e7833981519152815260206004820152600a60248201527f72652d656e746572656400000000000000000000000000000000000000000000604482015290519081900360640190fd5b6004546000908190600160a060020a031633146136b257612440600160426125ae565b6136ba613246565b600a54146136ce57612440600a60416125ae565b600760009054906101000a9004600160a060020a0316905082600160a060020a0316632191f92a6040518163ffffffff167c010000000000000000000000000000000000000000000000000000000002815260040160206040518083038186803b15801561373b57600080fd5b505afa15801561374f573d6000803e3d6000fd5b505050506040513d602081101561376557600080fd5b505115156137c257604080516000805160206150e7833981519152815260206004820152601c60248201527f6d61726b6572206d6574686f642072657475726e65642066616c736500000000604482015290519081900360640190fd5b6007805473ffffffffffffffffffffffffffffffffffffffff1916600160a060020a03858116918217909255604080519284168352602083019190915280517fedffc32e068c7c95dfd4bdfd5c4d939a084d6b11c4199eac8436ed234d72f9269281900390910190a16000611326565b600454600090600160a060020a03163314613853576111ce600160476125ae565b61385b613246565b600a541461386f576111ce600a60486125ae565b670de0b6b3a764000082111561388b576111ce600260496125ae565b6009805490839055604080518281526020810185905281517faaa68312e2ea9d50e16af5068410ab56e1a1fd06037b1a35664812c30f821460929181900390910190a16000611326565b600033600160a060020a0384161461393c57604080516000805160206150e7833981519152815260206004820152600f60248201527f73656e646572206d69736d617463680000000000000000000000000000000000604482015290519081900360640190fd5b34821461399857604080516000805160206150e7833981519152815260206004820152600e60248201527f76616c7565206d69736d61746368000000000000000000000000000000000000604482015290519081900360640190fd5b50600092915050565b60008060006139ae614f6d565b612eba8686613496565b6000806000806139c887876132d5565b909250905060008260038111156139db57fe5b146139ec575091506000905061334f565b613348818661324a565b6000613a00614f6d565b600080613a1586670de0b6b3a76400006144e7565b90925090506000826003811115613a2857fe5b14613a4757506040805160208101909152600081529092509050612ef0565b600080613a54838861452a565b90925090506000826003811115613a6757fe5b14613a8957506040805160208101909152600081529094509250612ef0915050565b604080516020810190915290815260009890975095505050505050565b51670de0b6b3a7640000900490565b600654604080517f24008a62000000000000000000000000000000000000000000000000000000008152306004820152600160a060020a0386811660248301528581166044830152606482018590529151600093849316916324008a6291608480830192602092919082900301818787803b158015613b3357600080fd5b505af1158015613b47573d6000803e3d6000fd5b505050506040513d6020811015613b5d57600080fd5b505190508015613b7c57613b7460036038836131e0565b915050611326565b613b84613246565b600a5414613b9857613b74600a60396125ae565b613ba0614ff3565b600160a060020a0385166000908152601160205260409020600101546060820152613bca8561312a565b6080830181905260208301826003811115613be157fe5b6003811115613bec57fe5b9052506000905081602001516003811115613c0357fe5b14613c2857613c1f600960378360200151600381111561179a57fe5b92505050611326565b600019841415613c415760808101516040820152613c49565b604081018490525b613c578682604001516138d5565b81906010811115613c6457fe5b90816010811115613c7157fe5b905250600081516010811115613c8357fe5b14613c95578051613c1f90603c6125ae565b613ca78160800151826040015161324a565b60a0830181905260208301826003811115613cbe57fe5b6003811115613cc957fe5b9052506000905081602001516003811115613ce057fe5b14613cfc57613c1f6009603a8360200151600381111561179a57fe5b613d0c600c54826040015161324a565b60c0830181905260208301826003811115613d2357fe5b6003811115613d2e57fe5b9052506000905081602001516003811115613d4557fe5b14613d6157613c1f6009603b8360200151600381111561179a57fe5b613d6f8682604001516138d5565b81906010811115613d7c57fe5b90816010811115613d8957fe5b905250600081516010811115613d9b57fe5b14613df557604080516000805160206150e7833981519152815260206004820152601f60248201527f726570617920626f72726f77207472616e7366657220696e206661696c656400604482015290519081900360640190fd5b60a08082018051600160a060020a03808916600081815260116020908152604091829020948555600b5460019095019490945560c0870151600c8190558188015195518251948e16855294840192909252828101949094526060820192909252608081019190915290517f1a2a22cb034d26d1854bdc6666a5b91fe25efbbb5dcad3b0355478d6f5c362a1929181900390910190a1600654604080830151606084015182517f1ededc91000000000000000000000000000000000000000000000000000000008152306004820152600160a060020a038b811660248301528a81166044830152606482019390935260848101919091529151921691631ededc919160a48082019260009290919082900301818387803b158015613f1757600080fd5b505af1158015613f2b573d6000803e3d6000fd5b5060009250613f38915050565b9695505050505050565b604051600090600160a060020a0384169083156108fc0290849084818181858888f19350505050158015613f7a573d6000803e3d6000fd5b5060009392505050565b6000821580613f91575081155b1515613fd6576040516000805160206150e783398151915281526004018080602001828103825260348152602001806152486034913960400191505060405180910390fd5b613fde614ff3565b613fe6612aa1565b6040830181905260208301826003811115613ffd57fe5b600381111561400857fe5b905250600090508160200151600381111561401f57fe5b1461403b57613b746009602b8360200151600381111561179a57fe5b60008411156140bf5760608101849052604080516020810182529082015181526140659085612ea3565b608083018190526020830182600381111561407c57fe5b600381111561408757fe5b905250600090508160200151600381111561409e57fe5b146140ba57613b74600960298360200151600381111561179a57fe5b614139565b6140dc8360206040519081016040528084604001518152506139a1565b60608301819052602083018260038111156140f357fe5b60038111156140fe57fe5b905250600090508160200151600381111561411557fe5b1461413157613b746009602a8360200151600381111561179a57fe5b608081018390525b6006546060820151604080517feabe7d91000000000000000000000000000000000000000000000000000000008152306004820152600160a060020a03898116602483015260448201939093529051600093929092169163eabe7d919160648082019260209290919082900301818787803b1580156141b757600080fd5b505af11580156141cb573d6000803e3d6000fd5b505050506040513d60208110156141e157600080fd5b5051905080156141f857613c1f60036028836131e0565b614200613246565b600a541461421457613c1f600a602c6125ae565b614224600e54836060015161324a565b60a084018190526020840182600381111561423b57fe5b600381111561424657fe5b905250600090508260200151600381111561425d57fe5b1461427957613c1f6009602e8460200151600381111561179a57fe5b600160a060020a0386166000908152600f602052604090205460608301516142a1919061324a565b60c08401819052602084018260038111156142b857fe5b60038111156142c357fe5b90525060009050826020015160038111156142da57fe5b146142f657613c1f6009602d8460200151600381111561179a57fe5b8160800151614303612ef7565b101561431557613c1f600e602f6125ae565b614323868360800151613f42565b8290601081111561433057fe5b9081601081111561433d57fe5b90525060008251601081111561434f57fe5b146143a957604080516000805160206150e7833981519152815260206004820152601a60248201527f72656465656d207472616e73666572206f7574206661696c6564000000000000604482015290519081900360640190fd5b60a0820151600e5560c0820151600160a060020a0387166000818152600f60209081526040918290209390935560608501518151908152905130937fddf252ad1be2c89b69c2b068fc378daa952ba7f163c4a11628f55a4df523b3ef928290030190a3608082015160608084015160408051600160a060020a038b168152602081019490945283810191909152517fe5b754fb1abb7f01b499791d0b820ae3b6af3424ac1c59768edb53f4ec31a9299281900390910190a160065460808301516060840151604080517f51dff989000000000000000000000000000000000000000000000000000000008152306004820152600160a060020a038b81166024830152604482019490945260648101929092525191909216916351dff98991608480830192600092919082900301818387803b158015613f1757600080fd5b6000808315156144fc57506000905080612ef0565b83830283858281151561450b57fe5b041461451f57506002915060009050612ef0565b600092509050612ef0565b6000808215156145405750600190506000612ef0565b6000838581151561454d57fe5b04915091509250929050565b600654604080517f5fc7e71e000000000000000000000000000000000000000000000000000000008152306004820152600160a060020a0384811660248301528781166044830152868116606483015260848201869052915160009384931691635fc7e71e9160a480830192602092919082900301818787803b1580156145df57600080fd5b505af11580156145f3573d6000803e3d6000fd5b505050506040513d602081101561460957600080fd5b50519050801561462057612c0e60036012836131e0565b614628613246565b600a541461463c57612c0e600a60166125ae565b614644613246565b83600160a060020a0316636c540baf6040518163ffffffff167c010000000000000000000000000000000000000000000000000000000002815260040160206040518083038186803b15801561469957600080fd5b505afa1580156146ad573d6000803e3d6000fd5b505050506040513d60208110156146c357600080fd5b5051146146d657612c0e600a60116125ae565b85600160a060020a031685600160a060020a031614156146fc57612c0e600660176125ae565b83151561470f57612c0e600760156125ae565b60001984141561472557612c0e600760146125ae565b600654604080517fc488847b000000000000000000000000000000000000000000000000000000008152306004820152600160a060020a038681166024830152604482018890528251600094859492169263c488847b926064808301939192829003018186803b15801561479857600080fd5b505afa1580156147ac573d6000803e3d6000fd5b505050506040513d60408110156147c257600080fd5b508051602090910151909250905081156147ed576147e360046013846131e0565b9350505050612e9b565b84600160a060020a03166370a08231886040518263ffffffff167c01000000000000000000000000000000000000000000000000000000000281526004018082600160a060020a0316600160a060020a0316815260200191505060206040518083038186803b15801561485f57600080fd5b505afa158015614873573d6000803e3d6000fd5b505050506040513d602081101561488957600080fd5b505181111561489e576147e3600d601d6125ae565b60006148ab898989613ab5565b905080156148d4576148c98160108111156148c257fe5b60186125ae565b945050505050612e9b565b604080517fb2a02ff1000000000000000000000000000000000000000000000000000000008152600160a060020a038b811660048301528a8116602483015260448201859052915160009289169163b2a02ff191606480830192602092919082900301818787803b15801561494857600080fd5b505af115801561495c573d6000803e3d6000fd5b505050506040513d602081101561497257600080fd5b5051905080156149d157604080516000805160206150e7833981519152815260206004820152601460248201527f746f6b656e207365697a757265206661696c6564000000000000000000000000604482015290519081900360640190fd5b60408051600160a060020a03808d168252808c1660208301528183018b9052891660608201526080810185905290517f298637f684da70674f26509b10f07ec2fbc77a335ab1e7d6215a4b2484d8bb529181900360a00190a1600654604080517f47ef3b3b000000000000000000000000000000000000000000000000000000008152306004820152600160a060020a038a811660248301528d811660448301528c81166064830152608482018c905260a48201879052915191909216916347ef3b3b9160c480830192600092919082900301818387803b158015614ab557600080fd5b505af1158015614ac9573d6000803e3d6000fd5b5060009250614ad6915050565b9a9950505050505050505050565b6000614aee614f6d565b600080614b03866000015186600001516144e7565b90925090506000826003811115614b1657fe5b14614b3557506040805160208101909152600081529092509050612ef0565b600080614b4a6706f05b59d3b20000846132d5565b90925090506000826003811115614b5d57fe5b14614b7f57506040805160208101909152600081529094509250612ef0915050565b600080614b9483670de0b6b3a764000061452a565b90925090506000826003811115614ba757fe5b14614bae57fe5b604080516020810190915290815260009a909950975050505050505050565b600654604080517fda3d454c000000000000000000000000000000000000000000000000000000008152306004820152600160a060020a0385811660248301526044820185905291516000938493169163da3d454c91606480830192602092919082900301818787803b158015614c4357600080fd5b505af1158015614c57573d6000803e3d6000fd5b505050506040513d6020811015614c6d57600080fd5b505190508015614c84576126cb6003600e836131e0565b614c8c613246565b600a5414614c9f576126cb600a806125ae565b82614ca8612ef7565b1015614cba576126cb600e60096125ae565b614cc2615031565b614ccb8561312a565b6040830181905260208301826003811115614ce257fe5b6003811115614ced57fe5b9052506000905081602001516003811115614d0457fe5b14614d205761273f600960078360200151600381111561179a57fe5b614d2e8160400151856132d5565b6060830181905260208301826003811115614d4557fe5b6003811115614d5057fe5b9052506000905081602001516003811115614d6757fe5b14614d835761273f6009600c8360200151600381111561179a57fe5b614d8f600c54856132d5565b6080830181905260208301826003811115614da657fe5b6003811115614db157fe5b9052506000905081602001516003811115614dc857fe5b14614de45761273f6009600b8360200151600381111561179a57fe5b614dee8585613f42565b81906010811115614dfb57fe5b90816010811115614e0857fe5b905250600081516010811115614e1a57fe5b14614e7457604080516000805160206150e7833981519152815260206004820152601a60248201527f626f72726f77207472616e73666572206f7574206661696c6564000000000000604482015290519081900360640190fd5b60608082018051600160a060020a038816600081815260116020908152604091829020938455600b54600190940193909355608080870151600c819055945182519384529383018a9052828201939093529381019290925291517f13ed6866d4e1ee6da46f845c46d7e54120883d75c5ea9a2dacc1c4ca8984ab80929181900390910190a1600654604080517f5c778605000000000000000000000000000000000000000000000000000000008152306004820152600160a060020a0388811660248301526044820188905291519190921691635c77860591606480830192600092919082900301818387803b158015612a7757600080fd5b60408051602081019091526000815290565b604080516101408101909152806000815260200160008152602001600081526020016000815260200160008152602001614fb7614f6d565b8152602001600081526020016000815260200160008152602001600081525090565b6040805160c0810190915280600081526020016000614fb7565b6040805160e0810190915280600081526020016000815260200160008152602001600081526020016000815260200160008152602001600081525090565b6040805160a08101909152806000815260200160008152602001600081526020016000815260200160008152509056fe737570706c7952617465506572426c6f636b3a2063616c63756c6174696e6720626f72726f7773506572206661696c6564726564756365207265736572766573207472616e73666572206f7574206661696c6564737570706c7952617465506572426c6f636b3a2063616c63756c6174696e6720737570706c7952617465206661696c656408c379a000000000000000000000000000000000000000000000000000000000626f72726f7742616c616e636553746f7265643a20626f72726f7742616c616e636553746f726564496e7465726e616c206661696c6564737570706c7952617465506572426c6f636b3a2063616c63756c6174696e6720756e6465726c79696e67206661696c6564626f72726f7752617465506572426c6f636b3a20696e746572657374526174654d6f64656c2e626f72726f7752617465206661696c6564737570706c7952617465506572426c6f636b3a2063616c63756c6174696e6720626f72726f7752617465206661696c6564737570706c7952617465506572426c6f636b3a2063616c63756c6174696e67206f6e654d696e757352657365727665466163746f72206661696c656465786368616e67655261746553746f7265643a2065786368616e67655261746553746f726564496e7465726e616c206661696c65646f6e65206f662072656465656d546f6b656e73496e206f722072656465656d416d6f756e74496e206d757374206265207a65726f72656475636520726573657276657320756e657870656374656420756e646572666c6f77a165627a7a72305820fe417aaf11567187e93bf1947a613ae187f127aae5860659c28e76e442f9f435002953657474696e6720696e7465726573742072617465206d6f64656c206661696c6564496e697469616c2065786368616e67652072617465206d7573742062652067726561746572207468616e207a65726f2e",
  "source": "pragma solidity ^0.5.4;\n\nimport \"./CToken.sol\";\n\n/**\n * @title Compound's CEther Contract\n * @notice CToken which wraps Ether\n * @author Compound\n */\ncontract CEther is CToken {\n\n    /**\n     * @notice Construct a new CEther money market\n     * @param comptroller_ The address of the Comptroller\n     * @param interestRateModel_ The address of the interest rate model\n     * @param initialExchangeRateMantissa_ The initial exchange rate, scaled by 1e18\n     * @param name_ ERC-20 name of this token\n     * @param symbol_ ERC-20 symbol of this token\n     * @param decimals_ ERC-20 decimal precision of this token\n     */\n    constructor(ComptrollerInterface comptroller_,\n                InterestRateModel interestRateModel_,\n                uint initialExchangeRateMantissa_,\n                string memory name_,\n                string memory symbol_,\n                uint decimals_) public\n    CToken(comptroller_, interestRateModel_, initialExchangeRateMantissa_, name_, symbol_, decimals_) {}\n\n    /*** User Interface ***/\n\n    /**\n     * @notice Sender supplies assets into the market and receives cTokens in exchange\n     * @dev Reverts upon any failure\n     */\n    function mint() external payable {\n        requireNoError(mintInternal(msg.value), \"mint failed\");\n    }\n\n    /**\n     * @notice Sender redeems cTokens in exchange for the underlying asset\n     * @dev Accrues interest whether or not the operation succeeds, unless reverted\n     * @param redeemTokens The number of cTokens to redeem into underlying\n     * @return uint 0=success, otherwise a failure (see ErrorReporter.sol for details)\n     */\n    function redeem(uint redeemTokens) external returns (uint) {\n        return redeemInternal(redeemTokens);\n    }\n\n    /**\n     * @notice Sender redeems cTokens in exchange for a specified amount of underlying asset\n     * @dev Accrues interest whether or not the operation succeeds, unless reverted\n     * @param redeemAmount The amount of underlying to redeem\n     * @return uint 0=success, otherwise a failure (see ErrorReporter.sol for details)\n     */\n    function redeemUnderlying(uint redeemAmount) external returns (uint) {\n        return redeemUnderlyingInternal(redeemAmount);\n    }\n\n    /**\n      * @notice Sender borrows assets from the protocol to their own address\n      * @param borrowAmount The amount of the underlying asset to borrow\n      * @return uint 0=success, otherwise a failure (see ErrorReporter.sol for details)\n      */\n    function borrow(uint borrowAmount) external returns (uint) {\n        return borrowInternal(borrowAmount);\n    }\n\n    /**\n     * @notice Sender repays their own borrow\n     * @dev Reverts upon any failure\n     */\n    function repayBorrow() external payable {\n        requireNoError(repayBorrowInternal(msg.value), \"repayBorrow failed\");\n    }\n\n    /**\n     * @notice Sender repays a borrow belonging to borrower\n     * @dev Reverts upon any failure\n     * @param borrower the account with the debt being payed off\n     */\n    function repayBorrowBehalf(address borrower) external payable {\n        requireNoError(repayBorrowBehalfInternal(borrower, msg.value), \"repayBorrowBehalf failed\");\n    }\n\n    /**\n     * @notice The sender liquidates the borrowers collateral.\n     *  The collateral seized is transferred to the liquidator.\n     * @dev Reverts upon any failure\n     * @param borrower The borrower of this cToken to be liquidated\n     * @param cTokenCollateral The market in which to seize collateral from the borrower\n     */\n    function liquidateBorrow(address borrower, CToken cTokenCollateral) external payable {\n        requireNoError(liquidateBorrowInternal(borrower, msg.value, cTokenCollateral), \"liquidateBorrow failed\");\n    }\n\n    /**\n     * @notice Send Ether to CEther to mint\n     */\n    function () external payable {\n        requireNoError(mintInternal(msg.value), \"mint failed\");\n    }\n\n    /*** Safe Token ***/\n\n    /**\n     * @notice Gets balance of this contract in terms of Ether, before this message\n     * @dev This excludes the value of the current message, if any\n     * @return The quantity of Ether owned by this contract\n     */\n    function getCashPrior() internal view returns (uint) {\n        (MathError err, uint startingBalance) = subUInt(address(this).balance, msg.value);\n        require(err == MathError.NO_ERROR);\n        return startingBalance;\n    }\n\n    /**\n     * @notice Checks whether the requested transfer matches the `msg`\n     * @dev Does NOT do a transfer\n     * @param from Address sending the Ether\n     * @param amount Amount of Ether being sent\n     * @return Whether or not the transfer checks out\n     */\n    function checkTransferIn(address from, uint amount) internal view returns (Error) {\n        // Sanity checks\n        require(msg.sender == from, \"sender mismatch\");\n        require(msg.value == amount, \"value mismatch\");\n        return Error.NO_ERROR;\n    }\n\n    /**\n     * @notice Perform the actual transfer in, which is a no-op\n     * @param from Address sending the Ether\n     * @param amount Amount of Ether being sent\n     * @return Success\n     */\n    function doTransferIn(address from, uint amount) internal returns (Error) {\n        // Sanity checks\n        require(msg.sender == from, \"sender mismatch\");\n        require(msg.value == amount, \"value mismatch\");\n        return Error.NO_ERROR;\n    }\n\n    function doTransferOut(address payable to, uint amount) internal returns (Error) {\n        /* Send the Ether, with minimal gas and revert on failure */\n        to.transfer(amount);\n        return Error.NO_ERROR;\n    }\n\n    function requireNoError(uint errCode, string memory message) internal pure {\n        if (errCode == uint(Error.NO_ERROR)) {\n            return;\n        }\n\n        bytes memory fullMessage = new bytes(bytes(message).length + 5);\n        uint i;\n\n        for (i = 0; i < bytes(message).length; i++) {\n            fullMessage[i] = bytes(message)[i];\n        }\n\n        fullMessage[i+0] = byte(uint8(32));\n        fullMessage[i+1] = byte(uint8(40));\n        fullMessage[i+2] = byte(uint8(48 + ( errCode / 10 )));\n        fullMessage[i+3] = byte(uint8(48 + ( errCode % 10 )));\n        fullMessage[i+4] = byte(uint8(41));\n\n        require(errCode == uint(Error.NO_ERROR), string(fullMessage));\n    }\n}\n",
  "sourcePath": "/Users/name/dev/smartcontracts/contracts/test/compound/CEther.sol",
  "compiler": {
    "name": "solc",
    "version": "0.5.4+commit.9549d8ff.Emscripten.clang",
    "optimizer": true,
    "runs": 999
  },
  "schemaVersion": "2.3.1",
  "updatedAt": "2020-04-01T21:49:53.139Z"
}