{
  "contractName": "CompoundManager",
  "abi": [
    {
      "constant": false,
      "inputs": [
        {
          "name": "_wallet",
          "type": "address"
        }
      ],
      "name": "init",
      "outputs": [],
      "payable": false,
      "stateMutability": "nonpayable",
      "type": "function"
    },
    {
      "constant": true,
      "inputs": [
        {
          "name": "_wallet",
          "type": "address"
        }
      ],
      "name": "getNonce",
      "outputs": [
        {
          "name": "nonce",
          "type": "uint256"
        }
      ],
      "payable": false,
      "stateMutability": "view",
      "type": "function"
    },
    {
      "constant": true,
      "inputs": [],
      "name": "compoundRegistry",
      "outputs": [
        {
          "name": "",
          "type": "address"
        }
      ],
      "payable": false,
      "stateMutability": "view",
      "type": "function"
    },
    {
      "constant": false,
      "inputs": [
        {
          "name": "_wallet",
          "type": "address"
        },
        {
          "name": "_module",
          "type": "address"
        }
      ],
      "name": "addModule",
      "outputs": [],
      "payable": false,
      "stateMutability": "nonpayable",
      "type": "function"
    },
    {
      "constant": true,
      "inputs": [],
      "name": "comptroller",
      "outputs": [
        {
          "name": "",
          "type": "address"
        }
      ],
      "payable": false,
      "stateMutability": "view",
      "type": "function"
    },
    {
      "constant": false,
      "inputs": [
        {
          "name": "_token",
          "type": "address"
        }
      ],
      "name": "recoverToken",
      "outputs": [],
      "payable": false,
      "stateMutability": "nonpayable",
      "type": "function"
    },
    {
      "constant": false,
      "inputs": [
        {
          "name": "_wallet",
          "type": "address"
        },
        {
          "name": "_data",
          "type": "bytes"
        },
        {
          "name": "_nonce",
          "type": "uint256"
        },
        {
          "name": "_signatures",
          "type": "bytes"
        },
        {
          "name": "_gasPrice",
          "type": "uint256"
        },
        {
          "name": "_gasLimit",
          "type": "uint256"
        }
      ],
      "name": "execute",
      "outputs": [
        {
          "name": "success",
          "type": "bool"
        }
      ],
      "payable": false,
      "stateMutability": "nonpayable",
      "type": "function"
    },
    {
      "constant": true,
      "inputs": [
        {
          "name": "",
          "type": "address"
        }
      ],
      "name": "relayer",
      "outputs": [
        {
          "name": "nonce",
          "type": "uint256"
        }
      ],
      "payable": false,
      "stateMutability": "view",
      "type": "function"
    },
    {
      "constant": true,
      "inputs": [],
      "name": "isOnlyOwnerModule",
      "outputs": [
        {
          "name": "",
          "type": "bytes4"
        }
      ],
      "payable": false,
      "stateMutability": "pure",
      "type": "function"
    },
    {
      "inputs": [
        {
          "name": "_registry",
          "type": "address"
        },
        {
          "name": "_guardianStorage",
          "type": "address"
        },
        {
          "name": "_comptroller",
          "type": "address"
        },
        {
          "name": "_compoundRegistry",
          "type": "address"
        }
      ],
      "payable": false,
      "stateMutability": "nonpayable",
      "type": "constructor"
    },
    {
      "anonymous": false,
      "inputs": [
        {
          "indexed": true,
          "name": "wallet",
          "type": "address"
        },
        {
          "indexed": true,
          "name": "success",
          "type": "bool"
        },
        {
          "indexed": false,
          "name": "signedHash",
          "type": "bytes32"
        }
      ],
      "name": "TransactionExecuted",
      "type": "event"
    },
    {
      "anonymous": false,
      "inputs": [
        {
          "indexed": false,
          "name": "name",
          "type": "bytes32"
        }
      ],
      "name": "ModuleCreated",
      "type": "event"
    },
    {
      "anonymous": false,
      "inputs": [
        {
          "indexed": false,
          "name": "wallet",
          "type": "address"
        }
      ],
      "name": "ModuleInitialised",
      "type": "event"
    },
    {
      "anonymous": false,
      "inputs": [
        {
          "indexed": true,
          "name": "_wallet",
          "type": "address"
        },
        {
          "indexed": false,
          "name": "_token",
          "type": "address"
        },
        {
          "indexed": false,
          "name": "_invested",
          "type": "uint256"
        },
        {
          "indexed": false,
          "name": "_period",
          "type": "uint256"
        }
      ],
      "name": "InvestmentAdded",
      "type": "event"
    },
    {
      "anonymous": false,
      "inputs": [
        {
          "indexed": true,
          "name": "_wallet",
          "type": "address"
        },
        {
          "indexed": false,
          "name": "_token",
          "type": "address"
        },
        {
          "indexed": false,
          "name": "_fraction",
          "type": "uint256"
        }
      ],
      "name": "InvestmentRemoved",
      "type": "event"
    },
    {
      "anonymous": false,
      "inputs": [
        {
          "indexed": true,
          "name": "_wallet",
          "type": "address"
        },
        {
          "indexed": true,
          "name": "_loanId",
          "type": "bytes32"
        },
        {
          "indexed": false,
          "name": "_collateral",
          "type": "address"
        },
        {
          "indexed": false,
          "name": "_collateralAmount",
          "type": "uint256"
        },
        {
          "indexed": false,
          "name": "_debtToken",
          "type": "address"
        },
        {
          "indexed": false,
          "name": "_debtAmount",
          "type": "uint256"
        }
      ],
      "name": "LoanOpened",
      "type": "event"
    },
    {
      "anonymous": false,
      "inputs": [
        {
          "indexed": true,
          "name": "_wallet",
          "type": "address"
        },
        {
          "indexed": true,
          "name": "_loanId",
          "type": "bytes32"
        }
      ],
      "name": "LoanClosed",
      "type": "event"
    },
    {
      "anonymous": false,
      "inputs": [
        {
          "indexed": true,
          "name": "_wallet",
          "type": "address"
        },
        {
          "indexed": true,
          "name": "_loanId",
          "type": "bytes32"
        },
        {
          "indexed": false,
          "name": "_collateral",
          "type": "address"
        },
        {
          "indexed": false,
          "name": "_collateralAmount",
          "type": "uint256"
        }
      ],
      "name": "CollateralAdded",
      "type": "event"
    },
    {
      "anonymous": false,
      "inputs": [
        {
          "indexed": true,
          "name": "_wallet",
          "type": "address"
        },
        {
          "indexed": true,
          "name": "_loanId",
          "type": "bytes32"
        },
        {
          "indexed": false,
          "name": "_collateral",
          "type": "address"
        },
        {
          "indexed": false,
          "name": "_collateralAmount",
          "type": "uint256"
        }
      ],
      "name": "CollateralRemoved",
      "type": "event"
    },
    {
      "anonymous": false,
      "inputs": [
        {
          "indexed": true,
          "name": "_wallet",
          "type": "address"
        },
        {
          "indexed": true,
          "name": "_loanId",
          "type": "bytes32"
        },
        {
          "indexed": false,
          "name": "_debtToken",
          "type": "address"
        },
        {
          "indexed": false,
          "name": "_debtAmount",
          "type": "uint256"
        }
      ],
      "name": "DebtAdded",
      "type": "event"
    },
    {
      "anonymous": false,
      "inputs": [
        {
          "indexed": true,
          "name": "_wallet",
          "type": "address"
        },
        {
          "indexed": true,
          "name": "_loanId",
          "type": "bytes32"
        },
        {
          "indexed": false,
          "name": "_debtToken",
          "type": "address"
        },
        {
          "indexed": false,
          "name": "_debtAmount",
          "type": "uint256"
        }
      ],
      "name": "DebtRemoved",
      "type": "event"
    },
    {
      "constant": false,
      "inputs": [
        {
          "name": "_wallet",
          "type": "address"
        },
        {
          "name": "_collateral",
          "type": "address"
        },
        {
          "name": "_collateralAmount",
          "type": "uint256"
        },
        {
          "name": "_debtToken",
          "type": "address"
        },
        {
          "name": "_debtAmount",
          "type": "uint256"
        }
      ],
      "name": "openLoan",
      "outputs": [
        {
          "name": "_loanId",
          "type": "bytes32"
        }
      ],
      "payable": false,
      "stateMutability": "nonpayable",
      "type": "function"
    },
    {
      "constant": false,
      "inputs": [
        {
          "name": "_wallet",
          "type": "address"
        },
        {
          "name": "_loanId",
          "type": "bytes32"
        }
      ],
      "name": "closeLoan",
      "outputs": [],
      "payable": false,
      "stateMutability": "nonpayable",
      "type": "function"
    },
    {
      "constant": false,
      "inputs": [
        {
          "name": "_wallet",
          "type": "address"
        },
        {
          "name": "_loanId",
          "type": "bytes32"
        },
        {
          "name": "_collateral",
          "type": "address"
        },
        {
          "name": "_collateralAmount",
          "type": "uint256"
        }
      ],
      "name": "addCollateral",
      "outputs": [],
      "payable": false,
      "stateMutability": "nonpayable",
      "type": "function"
    },
    {
      "constant": false,
      "inputs": [
        {
          "name": "_wallet",
          "type": "address"
        },
        {
          "name": "_loanId",
          "type": "bytes32"
        },
        {
          "name": "_collateral",
          "type": "address"
        },
        {
          "name": "_collateralAmount",
          "type": "uint256"
        }
      ],
      "name": "removeCollateral",
      "outputs": [],
      "payable": false,
      "stateMutability": "nonpayable",
      "type": "function"
    },
    {
      "constant": false,
      "inputs": [
        {
          "name": "_wallet",
          "type": "address"
        },
        {
          "name": "_loanId",
          "type": "bytes32"
        },
        {
          "name": "_debtToken",
          "type": "address"
        },
        {
          "name": "_debtAmount",
          "type": "uint256"
        }
      ],
      "name": "addDebt",
      "outputs": [],
      "payable": false,
      "stateMutability": "nonpayable",
      "type": "function"
    },
    {
      "constant": false,
      "inputs": [
        {
          "name": "_wallet",
          "type": "address"
        },
        {
          "name": "_loanId",
          "type": "bytes32"
        },
        {
          "name": "_debtToken",
          "type": "address"
        },
        {
          "name": "_debtAmount",
          "type": "uint256"
        }
      ],
      "name": "removeDebt",
      "outputs": [],
      "payable": false,
      "stateMutability": "nonpayable",
      "type": "function"
    },
    {
      "constant": true,
      "inputs": [
        {
          "name": "_wallet",
          "type": "address"
        },
        {
          "name": "",
          "type": "bytes32"
        }
      ],
      "name": "getLoan",
      "outputs": [
        {
          "name": "_status",
          "type": "uint8"
        },
        {
          "name": "_ethValue",
          "type": "uint256"
        }
      ],
      "payable": false,
      "stateMutability": "view",
      "type": "function"
    },
    {
      "constant": false,
      "inputs": [
        {
          "name": "_wallet",
          "type": "address"
        },
        {
          "name": "_token",
          "type": "address"
        },
        {
          "name": "_amount",
          "type": "uint256"
        },
        {
          "name": "_period",
          "type": "uint256"
        }
      ],
      "name": "addInvestment",
      "outputs": [
        {
          "name": "_invested",
          "type": "uint256"
        }
      ],
      "payable": false,
      "stateMutability": "nonpayable",
      "type": "function"
    },
    {
      "constant": false,
      "inputs": [
        {
          "name": "_wallet",
          "type": "address"
        },
        {
          "name": "_token",
          "type": "address"
        },
        {
          "name": "_fraction",
          "type": "uint256"
        }
      ],
      "name": "removeInvestment",
      "outputs": [],
      "payable": false,
      "stateMutability": "nonpayable",
      "type": "function"
    },
    {
      "constant": true,
      "inputs": [
        {
          "name": "_wallet",
          "type": "address"
        },
        {
          "name": "_token",
          "type": "address"
        }
      ],
      "name": "getInvestment",
      "outputs": [
        {
          "name": "_tokenValue",
          "type": "uint256"
        },
        {
          "name": "_periodEnd",
          "type": "uint256"
        }
      ],
      "payable": false,
      "stateMutability": "view",
      "type": "function"
    }
  ],
  "bytecode": "0x608060405234801561001057600080fd5b50604051608080613ede8339810180604052608081101561003057600080fd5b50805160208083015160408085015160609095015160008054600160a060020a03808816600160a060020a031992831617909255600180549286169290911691909117905581517f436f6d706f756e644d616e616765720000000000000000000000000000000000808252925195969395939491938793879390927f3019c8fc80239e3dff8f781212ae2004839c2cb61d6c70acd279ac65392145df929081900390910190a1505060038054600160a060020a03948516600160a060020a0319918216179091556004805493909416921691909117909155505050613dc48061011a6000396000f3fe608060405234801561001057600080fd5b506004361061016e576000357c010000000000000000000000000000000000000000000000000000000090048063a90cf0af116100ea578063c9b5ef8e1161009e578063d490da4d11610083578063d490da4d1461054d578063e8ca0ca31461058a578063ec9e13aa146105c45761016e565b8063c9b5ef8e146104e0578063cac7495c146105065761016e565b8063ac5f8d51116100cf578063ac5f8d5114610428578063b02c808d14610462578063b352d4af146104a65761016e565b8063a90cf0af1461030c578063aacaaf88146103385761016e565b80635fe3b5671161014157806385a13f381161012657806385a13f381461027657806398d53428146102b05780639be65a60146102e65761016e565b80635fe3b5671461022557806381c44b5c1461022d5761016e565b806319ab453c146101735780632d0335ab1461019b57806347eb8d43146101d35780635a1db8c4146101f7575b600080fd5b6101996004803603602081101561018957600080fd5b5035600160a060020a0316610600565b005b6101c1600480360360208110156101b157600080fd5b5035600160a060020a03166106a6565b60408051918252519081900360200190f35b6101db6106c1565b60408051600160a060020a039092168252519081900360200190f35b6101996004803603604081101561020d57600080fd5b50600160a060020a03813581169160200135166106d0565b6101db61089e565b6102596004803603604081101561024357600080fd5b50600160a060020a0381351690602001356108ad565b6040805160ff909316835260208301919091528051918290030190f35b6101996004803603608081101561028c57600080fd5b50600160a060020a03813581169160208101359160408201351690606001356109e4565b610199600480360360608110156102c657600080fd5b50600160a060020a03813581169160208101359091169060400135610c3d565b610199600480360360208110156102fc57600080fd5b5035600160a060020a0316610f78565b6101996004803603604081101561032257600080fd5b50600160a060020a0381351690602001356110ab565b610414600480360360c081101561034e57600080fd5b600160a060020a03823516919081019060408101602082013564010000000081111561037957600080fd5b82018360208201111561038b57600080fd5b803590602001918460018302840111640100000000831117156103ad57600080fd5b919390928235926040810190602001356401000000008111156103cf57600080fd5b8201836020820111156103e157600080fd5b8035906020019184600183028401116401000000008311171561040357600080fd5b919350915080359060200135611545565b604080519115158252519081900360200190f35b6101996004803603608081101561043e57600080fd5b50600160a060020a038135811691602081013591604082013516906060013561182d565b6101c1600480360360a081101561047857600080fd5b50600160a060020a038135811691602081013582169160408201359160608101359091169060800135611a85565b610199600480360360808110156104bc57600080fd5b50600160a060020a0381358116916020810135916040820135169060600135611ec2565b6101c1600480360360208110156104f657600080fd5b5035600160a060020a031661211c565b6105346004803603604081101561051c57600080fd5b50600160a060020a038135811691602001351661212e565b6040805192835260208301919091528051918290030190f35b610555612315565b604080517fffffffff000000000000000000000000000000000000000000000000000000009092168252519081900360200190f35b610199600480360360808110156105a057600080fd5b50600160a060020a0381358116916020810135916040820135169060600135612339565b6101c1600480360360808110156105da57600080fd5b50600160a060020a03813581169160208101359091169060408101359060600135612591565b8033600160a060020a038216146106665760408051600080516020613d09833981519152815260206004820152601960248201527f424d3a2063616c6c6572206d7573742062652077616c6c657400000000000000604482015290519081900360640190fd5b60408051600160a060020a038416815290517f9fcca3f73f85397e2bf03647abf243c20b753bd54463ff3cae74de2971c112fa9181900360200190a15050565b600160a060020a031660009081526002602052604090205490565b600454600160a060020a031681565b81333014806106e457506106e481336127dd565b151561072957604051600080516020613d098339815191528152600401808060200182810382526023815260200180613d296023913960400191505060405180910390fd5b600054604080517f0bcd4ebb000000000000000000000000000000000000000000000000000000008152600160a060020a03858116600483015291519190921691630bcd4ebb916024808301926020929190829003018186803b15801561078f57600080fd5b505afa1580156107a3573d6000803e3d6000fd5b505050506040513d60208110156107b957600080fd5b505115156108165760408051600080516020613d09833981519152815260206004820152601c60248201527f424d3a206d6f64756c65206973206e6f74207265676973746572656400000000604482015290519081900360640190fd5b604080517f1f17732d000000000000000000000000000000000000000000000000000000008152600160a060020a03848116600483015260016024830152915191851691631f17732d9160448082019260009290919082900301818387803b15801561088157600080fd5b505af1158015610895573d6000803e3d6000fd5b50505050505050565b600354600160a060020a031681565b600354604080517f5ec88c79000000000000000000000000000000000000000000000000000000008152600160a060020a038581166004830152915160009384938493849384939290921691635ec88c7991602480820192606092909190829003018186803b15801561091f57600080fd5b505afa158015610933573d6000803e3d6000fd5b505050506040513d606081101561094957600080fd5b5080516020820151604090920151909450909250905082156109a457604051600080516020613d098339815191528152600401808060200182810382526029815260200180613d706029913960400191505060405180910390fd5b60008211156109bb57506001935091506109dd9050565b60008111156109d2576002945092506109dd915050565b506000935083925050505b9250929050565b83333014806109f857506109f881336127dd565b1515610a3d57604051600080516020613d098339815191528152600401808060200182810382526023815260200180613d296023913960400191505060405180910390fd5b600154604080517f4a4fbeec000000000000000000000000000000000000000000000000000000008152600160a060020a038089166004830152915188939290921691634a4fbeec91602480820192602092909190829003018186803b158015610aa657600080fd5b505afa158015610aba573d6000803e3d6000fd5b505050506040513d6020811015610ad057600080fd5b505115610b2c5760408051600080516020613d09833981519152815260206004820152601b60248201527f424d3a2077616c6c6574206d75737420626520756e6c6f636b65640000000000604482015290519081900360640190fd5b60048054604080517f7e5a4eb9000000000000000000000000000000000000000000000000000000008152600160a060020a0388811694820194909452905160009390921691637e5a4eb991602480820192602092909190829003018186803b158015610b9857600080fd5b505afa158015610bac573d6000803e3d6000fd5b505050506040513d6020811015610bc257600080fd5b5051600354909150610be09088908390600160a060020a031661287d565b610beb8782866129c4565b60408051600160a060020a0387811682526020820187905282518993918b16927ff6669d5e7ff92997c22e9fe3b54f53ed18448cf5fdccb3eb1dc5004798fbb41492908290030190a350505050505050565b8233301480610c515750610c5181336127dd565b1515610c9657604051600080516020613d098339815191528152600401808060200182810382526023815260200180613d296023913960400191505060405180910390fd5b600154604080517f4a4fbeec000000000000000000000000000000000000000000000000000000008152600160a060020a038088166004830152915187939290921691634a4fbeec91602480820192602092909190829003018186803b158015610cff57600080fd5b505afa158015610d13573d6000803e3d6000fd5b505050506040513d6020811015610d2957600080fd5b505115610d855760408051600080516020613d09833981519152815260206004820152601b60248201527f424d3a2077616c6c6574206d75737420626520756e6c6f636b65640000000000604482015290519081900360640190fd5b612710831115610dce57604051600080516020613d098339815191528152600401808060200182810382526022815260200180613c9d6022913960400191505060405180910390fd5b60048054604080517f7e5a4eb9000000000000000000000000000000000000000000000000000000008152600160a060020a0388811694820194909452905160009390921691637e5a4eb991602480820192602092909190829003018186803b158015610e3a57600080fd5b505afa158015610e4e573d6000803e3d6000fd5b505050506040513d6020811015610e6457600080fd5b5051604080517f70a08231000000000000000000000000000000000000000000000000000000008152600160a060020a0389811660048301529151929350600092918416916370a0823191602480820192602092909190829003018186803b158015610ecf57600080fd5b505afa158015610ee3573d6000803e3d6000fd5b505050506040513d6020811015610ef957600080fd5b50519050610f298783610f24612710610f18868b63ffffffff612ae616565b9063ffffffff612b1816565b612b3c565b60408051600160a060020a038881168252602082018890528251908a16927f9aa275f858ea6286ee2cacd32cd2ae55f918a310ee6d0320caad244ee9d6109e928290030190a250505050505050565b604080517f70a082310000000000000000000000000000000000000000000000000000000081523060048201529051600091600160a060020a038416916370a0823191602480820192602092909190829003018186803b158015610fdb57600080fd5b505afa158015610fef573d6000803e3d6000fd5b505050506040513d602081101561100557600080fd5b505160008054604080517fa9059cbb000000000000000000000000000000000000000000000000000000008152600160a060020a0392831660048201526024810185905290519394509085169263a9059cbb92604480840193602093929083900390910190829087803b15801561107b57600080fd5b505af115801561108f573d6000803e3d6000fd5b505050506040513d60208110156110a557600080fd5b50505050565b81333014806110bf57506110bf81336127dd565b151561110457604051600080516020613d098339815191528152600401808060200182810382526023815260200180613d296023913960400191505060405180910390fd5b600154604080517f4a4fbeec000000000000000000000000000000000000000000000000000000008152600160a060020a038087166004830152915186939290921691634a4fbeec91602480820192602092909190829003018186803b15801561116d57600080fd5b505afa158015611181573d6000803e3d6000fd5b505050506040513d602081101561119757600080fd5b5051156111f35760408051600080516020613d09833981519152815260206004820152601b60248201527f424d3a2077616c6c6574206d75737420626520756e6c6f636b65640000000000604482015290519081900360640190fd5b600354604080517fabfceffc000000000000000000000000000000000000000000000000000000008152600160a060020a0387811660048301529151606093929092169163abfceffc91602480820192600092909190829003018186803b15801561125d57600080fd5b505afa158015611271573d6000803e3d6000fd5b505050506040513d6000823e601f3d908101601f19168201604052602081101561129a57600080fd5b8101908080516401000000008111156112b257600080fd5b820160208101848111156112c557600080fd5b81518560208202830111640100000000821117156112e257600080fd5b50909450600093505050505b8151811015611507576000828281518110151561130757fe5b906020019060200201519050600081600160a060020a03166317bfdfbc896040518263ffffffff167c01000000000000000000000000000000000000000000000000000000000281526004018082600160a060020a0316600160a060020a03168152602001915050602060405180830381600087803b15801561138957600080fd5b505af115801561139d573d6000803e3d6000fd5b505050506040513d60208110156113b357600080fd5b5051905060008111156114fd576113cb888383612c5e565b600082600160a060020a03166370a082318a6040518263ffffffff167c01000000000000000000000000000000000000000000000000000000000281526004018082600160a060020a0316600160a060020a0316815260200191505060206040518083038186803b15801561143f57600080fd5b505afa158015611453573d6000803e3d6000fd5b505050506040513d602081101561146957600080fd5b505190508015156114fb5760035460408051600160a060020a038681166024808401919091528351808403909101815260449092019092526020810180517bffffffffffffffffffffffffffffffffffffffffffffffffffffffff167fede4edd0000000000000000000000000000000000000000000000000000000001790526114f9928c921690600090613092565b505b505b50506001016112ee565b506040518490600160a060020a038716907f07e4a0c6f06275f83bcf78e5a10eb7f5515574d593bce993377961f4133b951c90600090a35050505050565b6000805a90506000611595308c60008d8d8080601f0160208091040260200160405190810160405280939291908181526020018383808284376000920191909152508f92508c91508b905061331a565b90506115a28b898361345d565b15156115fd5760408051600080516020613d09833981519152815260206004820152601560248201527f524d3a204475706c696361746520726571756573740000000000000000000000604482015290519081900360640190fd5b61163d8b8b8b8080601f01602080910402602001604051908101604052809392919081815260200183838082843760009201919091525061347192505050565b151561168257604051600080516020613d09833981519152815260040180806020018281038252604a815260200180613cbf604a913960600191505060405180910390fd5b60006116c48c8c8c8080601f0160208091040260200160405190810160405280939291908181526020018383808284376000920191909152506134ea92505050565b9050604181028714156117dc576116dd8c8688846134f2565b156117dc5780158061176057506117608c8c8c8080601f01602080910402602001604051908101604052809392919081815260200183838082843760009201919091525050604080516020601f8f018190048102820181019092528d815288935091508d908d90819084018382808284376000920191909152506135c492505050565b156117dc5730600160a060020a03168b8b604051808383808284376040519201945060009350909150508083038183865af19150503d80600081146117c1576040519150601f19603f3d011682016040523d82523d6000602084013e6117c6565b606091505b5050809450506117dc8c5a8503888885336135e9565b60408051838152905185151591600160a060020a038f16917f6bb0b384ce772133df63560651bc8c727c53306cec1d51e2cbf8ea35fb8f2ec19181900360200190a350505098975050505050505050565b8333301480611841575061184181336127dd565b151561188657604051600080516020613d098339815191528152600401808060200182810382526023815260200180613d296023913960400191505060405180910390fd5b600154604080517f4a4fbeec000000000000000000000000000000000000000000000000000000008152600160a060020a038089166004830152915188939290921691634a4fbeec91602480820192602092909190829003018186803b1580156118ef57600080fd5b505afa158015611903573d6000803e3d6000fd5b505050506040513d602081101561191957600080fd5b5051156119755760408051600080516020613d09833981519152815260206004820152601b60248201527f424d3a2077616c6c6574206d75737420626520756e6c6f636b65640000000000604482015290519081900360640190fd5b60048054604080517f7e5a4eb9000000000000000000000000000000000000000000000000000000008152600160a060020a0388811694820194909452905160009390921691637e5a4eb991602480820192602092909190829003018186803b1580156119e157600080fd5b505afa1580156119f5573d6000803e3d6000fd5b505050506040513d6020811015611a0b57600080fd5b50519050611a1a878286613647565b600354611a339088908390600160a060020a0316613769565b60408051600160a060020a0387811682526020820187905282518993918b16927ff1dec7a92ef063b16d2098bb05803ed604936a7ff30f0d245fe881baf96e8e6b92908290030190a350505050505050565b60008533301480611a9b5750611a9b81336127dd565b1515611ae057604051600080516020613d098339815191528152600401808060200182810382526023815260200180613d296023913960400191505060405180910390fd5b600154604080517f4a4fbeec000000000000000000000000000000000000000000000000000000008152600160a060020a03808b16600483015291518a939290921691634a4fbeec91602480820192602092909190829003018186803b158015611b4957600080fd5b505afa158015611b5d573d6000803e3d6000fd5b505050506040513d6020811015611b7357600080fd5b505115611bcf5760408051600080516020613d09833981519152815260206004820152601b60248201527f424d3a2077616c6c6574206d75737420626520756e6c6f636b65640000000000604482015290519081900360640190fd5b6040805160028082526060808301845292602083019080388339505060048054604080517f7e5a4eb9000000000000000000000000000000000000000000000000000000008152600160a060020a038e8116948201949094529051949550911692637e5a4eb992506024808301926020929190829003018186803b158015611c5657600080fd5b505afa158015611c6a573d6000803e3d6000fd5b505050506040513d6020811015611c8057600080fd5b5051815182906000908110611c9157fe5b600160a060020a03928316602091820290920181019190915260048054604080517f7e5a4eb90000000000000000000000000000000000000000000000000000000081528b86169381019390935251931692637e5a4eb992602480840193919291829003018186803b158015611d0657600080fd5b505afa158015611d1a573d6000803e3d6000fd5b505050506040513d6020811015611d3057600080fd5b5051815182906001908110611d4157fe5b600160a060020a03928316602091820290920181019190915260035460405160248101838152855160448301528551611e16958f9594169360009388939283926064909201918581019102808383895b83811015611da9578181015183820152602001611d91565b50506040805193909501838103601f19018452909452506020810180517fc2998238000000000000000000000000000000000000000000000000000000007bffffffffffffffffffffffffffffffffffffffffffffffffffffffff90911617905294506130929350505050565b50611e3b89826000815181101515611e2a57fe5b906020019060200201518a8a613939565b611e5e89826001815181101515611e4e57fe5b90602001906020020151876129c4565b60408051600160a060020a038a81168252602082018a90528881168284015260608201889052915186928c16917ff9d7e11fb5d8d1e0a4be344a6a6adfb912161747edf926fb283150d07c39c108919081900360800190a350505095945050505050565b8333301480611ed65750611ed681336127dd565b1515611f1b57604051600080516020613d098339815191528152600401808060200182810382526023815260200180613d296023913960400191505060405180910390fd5b600154604080517f4a4fbeec000000000000000000000000000000000000000000000000000000008152600160a060020a038089166004830152915188939290921691634a4fbeec91602480820192602092909190829003018186803b158015611f8457600080fd5b505afa158015611f98573d6000803e3d6000fd5b505050506040513d6020811015611fae57600080fd5b50511561200a5760408051600080516020613d09833981519152815260206004820152601b60248201527f424d3a2077616c6c6574206d75737420626520756e6c6f636b65640000000000604482015290519081900360640190fd5b60048054604080517f7e5a4eb9000000000000000000000000000000000000000000000000000000008152600160a060020a0388811694820194909452905160009390921691637e5a4eb991602480820192602092909190829003018186803b15801561207657600080fd5b505afa15801561208a573d6000803e3d6000fd5b505050506040513d60208110156120a057600080fd5b50516003549091506120be9088908390600160a060020a031661287d565b6120ca87828787613939565b60408051600160a060020a0387811682526020820187905282518993918b16927fdd016248708c391ccb5c72f9258127c75b9b291ac1479513fe4f331c3489013792908290030190a350505050505050565b60026020526000908152604090205481565b60048054604080517f7e5a4eb9000000000000000000000000000000000000000000000000000000008152600160a060020a0385811694820194909452905160009384938493911691637e5a4eb991602480820192602092909190829003018186803b15801561219d57600080fd5b505afa1580156121b1573d6000803e3d6000fd5b505050506040513d60208110156121c757600080fd5b5051604080517f70a08231000000000000000000000000000000000000000000000000000000008152600160a060020a0388811660048301529151929350600092918416916370a0823191602480820192602092909190829003018186803b15801561223257600080fd5b505afa158015612246573d6000803e3d6000fd5b505050506040513d602081101561225c57600080fd5b5051604080517f182df0f50000000000000000000000000000000000000000000000000000000081529051919250600091600160a060020a0385169163182df0f5916004808301926020929190829003018186803b1580156122bd57600080fd5b505afa1580156122d1573d6000803e3d6000fd5b505050506040513d60208110156122e757600080fd5b50519050612307670de0b6b3a7640000610f18848463ffffffff612ae616565b976000975095505050505050565b7fd490da4d0000000000000000000000000000000000000000000000000000000090565b833330148061234d575061234d81336127dd565b151561239257604051600080516020613d098339815191528152600401808060200182810382526023815260200180613d296023913960400191505060405180910390fd5b600154604080517f4a4fbeec000000000000000000000000000000000000000000000000000000008152600160a060020a038089166004830152915188939290921691634a4fbeec91602480820192602092909190829003018186803b1580156123fb57600080fd5b505afa15801561240f573d6000803e3d6000fd5b505050506040513d602081101561242557600080fd5b5051156124815760408051600080516020613d09833981519152815260206004820152601b60248201527f424d3a2077616c6c6574206d75737420626520756e6c6f636b65640000000000604482015290519081900360640190fd5b60048054604080517f7e5a4eb9000000000000000000000000000000000000000000000000000000008152600160a060020a0388811694820194909452905160009390921691637e5a4eb991602480820192602092909190829003018186803b1580156124ed57600080fd5b505afa158015612501573d6000803e3d6000fd5b505050506040513d602081101561251757600080fd5b50519050612526878286612c5e565b60035461253f9088908390600160a060020a0316613769565b60408051600160a060020a0387811682526020820187905282518993918b16927fbfa42ea7d37497e6a09441fadba47d64b610b6b1183d895dd0a42507973430bf92908290030190a350505050505050565b600084333014806125a757506125a781336127dd565b15156125ec57604051600080516020613d098339815191528152600401808060200182810382526023815260200180613d296023913960400191505060405180910390fd5b600154604080517f4a4fbeec000000000000000000000000000000000000000000000000000000008152600160a060020a03808a166004830152915189939290921691634a4fbeec91602480820192602092909190829003018186803b15801561265557600080fd5b505afa158015612669573d6000803e3d6000fd5b505050506040513d602081101561267f57600080fd5b5051156126db5760408051600080516020613d09833981519152815260206004820152601b60248201527f424d3a2077616c6c6574206d75737420626520756e6c6f636b65640000000000604482015290519081900360640190fd5b60048054604080517f7e5a4eb9000000000000000000000000000000000000000000000000000000008152600160a060020a038a811694820194909452905160009390921691637e5a4eb991602480820192602092909190829003018186803b15801561274757600080fd5b505afa15801561275b573d6000803e3d6000fd5b505050506040513d602081101561277157600080fd5b5051905061278188828989613939565b60408051600160a060020a038981168252602082018990528183018890529151889650918a16917ff8eece150ed2126815122a6def9737751aecd814379d4ce8c9edd07133a49cdb9181900360600190a2505050949350505050565b600081600160a060020a031683600160a060020a0316638da5cb5b6040518163ffffffff167c010000000000000000000000000000000000000000000000000000000002815260040160206040518083038186803b15801561283e57600080fd5b505afa158015612852573d6000803e3d6000fd5b505050506040513d602081101561286857600080fd5b5051600160a060020a03161490505b92915050565b604080517f929fe9a1000000000000000000000000000000000000000000000000000000008152600160a060020a0385811660048301528481166024830152915160009284169163929fe9a1916044808301926020929190829003018186803b1580156128e957600080fd5b505afa1580156128fd573d6000803e3d6000fd5b505050506040513d602081101561291357600080fd5b505190508015156110a557604080516001808252818301909252606091602080830190803883390190505090508381600081518110151561295057fe5b90602001906020020190600160a060020a03169081600160a060020a0316815250506129bc858460008460405160240180806020018281038252838181518152602001915080519060200190602002808383600083811015611da9578181015183820152602001611d91565b505050505050565b600160a060020a0382161515612a1357604051600080516020613d098339815191528152600401808060200182810382526024815260200180613d4c6024913960400191505060405180910390fd5b60008111612a705760408051600080516020613d09833981519152815260206004820152601c60248201527f436f6d706f756e643a20616d6f756e742063616e6e6f74206265203000000000604482015290519081900360640190fd5b6040805160248082018490528251808303909101815260449091019091526020810180517bffffffffffffffffffffffffffffffffffffffffffffffffffffffff167fc5ebeaec000000000000000000000000000000000000000000000000000000001790526110a59084908490600090613092565b6000821515612af757506000612877565b828202828482811515612b0657fe5b0414612b1157600080fd5b9392505050565b6000808211612b2657600080fd5b60008284811515612b3357fe5b04949350505050565b600160a060020a0382161515612b8b57604051600080516020613d098339815191528152600401808060200182810382526024815260200180613d4c6024913960400191505060405180910390fd5b60008111612be85760408051600080516020613d09833981519152815260206004820152601c60248201527f436f6d706f756e643a20616d6f756e742063616e6e6f74206265203000000000604482015290519081900360640190fd5b6040805160248082018490528251808303909101815260449091019091526020810180517bffffffffffffffffffffffffffffffffffffffffffffffffffffffff167fdb006a75000000000000000000000000000000000000000000000000000000001790526110a59084908490600090613092565b600160a060020a0382161515612cad57604051600080516020613d098339815191528152600401808060200182810382526024815260200180613d4c6024913960400191505060405180910390fd5b60008111612d0a5760408051600080516020613d09833981519152815260206004820152601c60248201527f436f6d706f756e643a20616d6f756e742063616e6e6f74206265203000000000604482015290519081900360640190fd5b606082600160a060020a03166395d89b416040518163ffffffff167c010000000000000000000000000000000000000000000000000000000002815260040160006040518083038186803b158015612d6157600080fd5b505afa158015612d75573d6000803e3d6000fd5b505050506040513d6000823e601f3d908101601f191682016040526020811015612d9e57600080fd5b810190808051640100000000811115612db657600080fd5b82016020810184811115612dc957600080fd5b8151640100000000811182820187101715612de357600080fd5b5050929190505050905060405160200180807f6345544800000000000000000000000000000000000000000000000000000000815250600401905060405160208183030381529060405280519060200120816040516020018082805190602001908083835b60208310612e675780518252601f199092019160209182019101612e48565b6001836020036101000a038019825116818451168082178552505050505050905001915050604051602081830303815290604052805190602001201415612f14576040805160048152602481019091526020810180517bffffffffffffffffffffffffffffffffffffffffffffffffffffffff167f4e4d9fea00000000000000000000000000000000000000000000000000000000179052612f0e90859085908590613092565b506110a5565b600083600160a060020a0316636f307dc36040518163ffffffff167c010000000000000000000000000000000000000000000000000000000002815260040160206040518083038186803b158015612f6b57600080fd5b505afa158015612f7f573d6000803e3d6000fd5b505050506040513d6020811015612f9557600080fd5b505160408051600160a060020a038716602482015260448082018790528251808303909101815260649091019091526020810180517bffffffffffffffffffffffffffffffffffffffffffffffffffffffff167f095ea7b30000000000000000000000000000000000000000000000000000000017905290915061301f9086908390600090613092565b506040805160248082018690528251808303909101815260449091019091526020810180517bffffffffffffffffffffffffffffffffffffffffffffffffffffffff167f0e752702000000000000000000000000000000000000000000000000000000001790526129bc90869086906000905b6060600085600160a060020a03168585856040516024018084600160a060020a0316600160a060020a0316815260200183815260200180602001828103825283818151815260200191508051906020019080838360005b838110156131015781810151838201526020016130e9565b50505050905090810190601f16801561312e5780820380516001836020036101000a031916815260200191505b5060408051601f198184030181529181526020820180517bffffffffffffffffffffffffffffffffffffffffffffffffffffffff167f8f6f033200000000000000000000000000000000000000000000000000000000178152905182519297509550859450925090508083835b602083106131ba5780518252601f19909201916020918201910161319b565b6001836020036101000a0380198251168184511680821785525050505050509050019150506000604051808303816000865af19150503d806000811461321c576040519150601f19603f3d011682016040523d82523d6000602084013e613221565b606091505b5092509050808015613234575060008251115b156132a15781806020019051602081101561324e57600080fd5b81019080805164010000000081111561326657600080fd5b8201602081018481111561327957600080fd5b815164010000000081118282018710171561329357600080fd5b509095506133119350505050565b6000825111156132b5573d6000803e3d6000fd5b8015156133115760408051600080516020613d09833981519152815260206004820152601a60248201527f424d3a2077616c6c657420696e766f6b65207265766572746564000000000000604482015290519081900360640190fd5b50949350505050565b6040517f190000000000000000000000000000000000000000000000000000000000000060208083018281526000602185018190526c01000000000000000000000000600160a060020a03808e16820260228801528c16026036860152604a85018a90528851909485938d938d938d938d938d938d938d939192606a909201918701908083835b602083106133c05780518252601f1990920191602091820191016133a1565b51815160209384036101000a600019018019909216911617905292019586525084810193909352506040808401919091528051808403820181526060840182528051908301207f19457468657265756d205369676e6564204d6573736167653a0a3332000000006080850152609c808501919091528151808503909101815260bc909301905281519101209e9d5050505050505050505050505050565b60006134698484613b6c565b949350505050565b600060248251101515156134d45760408051600080516020613d09833981519152815260206004820152601660248201527f524d3a20496e76616c6964206461746157616c6c657400000000000000000000604482015290519081900360640190fd5b5060240151600160a060020a0391821691161490565b600192915050565b600080831180156135035750600182115b80156135ac575082840285600160a060020a03163110806135ac5750604080517fd6eb1bbf0000000000000000000000000000000000000000000000000000000081523060048201529051600160a060020a0387169163d6eb1bbf916024808301926020929190829003018186803b15801561357e57600080fd5b505afa158015613592573d6000803e3d6000fd5b505050506040513d60208110156135a857600080fd5b5051155b156135b957506000613469565b506001949350505050565b6000806135d384846000613bf2565b90506135df86826127dd565b9695505050505050565b61726c85016000851180156135fe5750600183115b801561360a5750838111155b15610895573a85111561361e573a02613621565b84025b61363d8783836020604051908101604052806000815250613092565b5050505050505050565b600160a060020a038216151561369657604051600080516020613d098339815191528152600401808060200182810382526024815260200180613d4c6024913960400191505060405180910390fd5b600081116136f35760408051600080516020613d09833981519152815260206004820152601c60248201527f436f6d706f756e643a20616d6f756e742063616e6e6f74206265203000000000604482015290519081900360640190fd5b6040805160248082018490528251808303909101815260449091019091526020810180517bffffffffffffffffffffffffffffffffffffffffffffffffffffffff167f852a12e3000000000000000000000000000000000000000000000000000000001790526110a59084908490600090613092565b600082600160a060020a03166370a08231856040518263ffffffff167c01000000000000000000000000000000000000000000000000000000000281526004018082600160a060020a0316600160a060020a0316815260200191505060206040518083038186803b1580156137dd57600080fd5b505afa1580156137f1573d6000803e3d6000fd5b505050506040513d602081101561380757600080fd5b5051604080517f95dd9193000000000000000000000000000000000000000000000000000000008152600160a060020a0387811660048301529151929350600092918616916395dd919391602480820192602092909190829003018186803b15801561387257600080fd5b505afa158015613886573d6000803e3d6000fd5b505050506040513d602081101561389c57600080fd5b50519050811580156138ac575080155b156139325760408051600160a060020a0386166024808301919091528251808303909101815260449091019091526020810180517bffffffffffffffffffffffffffffffffffffffffffffffffffffffff167fede4edd0000000000000000000000000000000000000000000000000000000001790526129bc9086908590600090613092565b5050505050565b600160a060020a038316151561398857604051600080516020613d098339815191528152600401808060200182810382526024815260200180613d4c6024913960400191505060405180910390fd5b600081116139e55760408051600080516020613d09833981519152815260206004820152601c60248201527f436f6d706f756e643a20616d6f756e742063616e6e6f74206265203000000000604482015290519081900360640190fd5b600160a060020a03821673eeeeeeeeeeeeeeeeeeeeeeeeeeeeeeeeeeeeeeee1415613a70576040805160048152602481019091526020810180517bffffffffffffffffffffffffffffffffffffffffffffffffffffffff167f1249c58b00000000000000000000000000000000000000000000000000000000179052612f0e90859085908490613092565b60408051600160a060020a038516602482015260448082018490528251808303909101815260649091019091526020810180517bffffffffffffffffffffffffffffffffffffffffffffffffffffffff167f095ea7b300000000000000000000000000000000000000000000000000000000179052613af59085908490600090613092565b506040805160248082018490528251808303909101815260449091019091526020810180517bffffffffffffffffffffffffffffffffffffffffffffffffffffffff167fa0712d68000000000000000000000000000000000000000000000000000000001790526139329085908590600090613092565b600160a060020a0382166000908152600260205260408120548211613b9357506000612877565b7001000000000000000000000000000000006fffffffffffffffffffffffffffffffff198316044361271001811115613bd0576000915050612877565b5050600160a060020a0391909116600090815260026020526040902055600190565b6041808202830160208101516040820151919092015160009260ff9190911691601b831480613c2457508260ff16601c145b1515613c2f57600080fd5b604080516000815260208082018084528a905260ff8616828401526060820185905260808201849052915160019260a0808401939192601f1981019281900390910190855afa158015613c86573d6000803e3d6000fd5b5050604051601f1901519897505050505050505056fe436f6d706f756e6456323a20696e76616c6964206672616374696f6e2076616c7565524d3a207468652077616c6c657420617574686f72697a656420697320646966666572656e74207468656e2074686520746172676574206f66207468652072656c61796564206461746108c379a000000000000000000000000000000000000000000000000000000000424d3a206d75737420626520616e206f776e657220666f72207468652077616c6c6574436f6d706f756e643a204e6f206d61726b657420666f722074617267657420746f6b656e436f6d706f756e643a206661696c656420746f20676574206163636f756e74206c6971756964697479a165627a7a72305820b45427631c093b4c43da58d788465b1218683d513073bffa7ac8cc34922e42dc0029",
  "source": "// Copyright (C) 2018  Argent Labs Ltd. <https://argent.xyz>\n\n// This program is free software: you can redistribute it and/or modify\n// it under the terms of the GNU General Public License as published by\n// the Free Software Foundation, either version 3 of the License, or\n// (at your option) any later version.\n\n// This program is distributed in the hope that it will be useful,\n// but WITHOUT ANY WARRANTY; without even the implied warranty of\n// MERCHANTABILITY or FITNESS FOR A PARTICULAR PURPOSE.  See the\n// GNU General Public License for more details.\n\n// You should have received a copy of the GNU General Public License\n// along with this program.  If not, see <http://www.gnu.org/licenses/>.\n\npragma solidity ^0.5.4;\n\nimport \"../../lib/utils/SafeMath.sol\";\nimport \"../wallet/BaseWallet.sol\";\nimport \"./common/BaseModule.sol\";\nimport \"./common/RelayerModule.sol\";\nimport \"./common/OnlyOwnerModule.sol\";\nimport \"../defi/Loan.sol\";\nimport \"../defi/Invest.sol\";\nimport \"../defi/utils/CompoundRegistry.sol\";\n\ninterface IComptroller {\n    function enterMarkets(address[] calldata _cTokens) external returns (uint[] memory);\n    function exitMarket(address _cToken) external returns (uint);\n    function getAssetsIn(address _account) external view returns (address[] memory);\n    function getAccountLiquidity(address _account) external view returns (uint, uint, uint);\n    function checkMembership(address account, ICToken cToken) external view returns (bool);\n}\n\ninterface ICToken {\n    function comptroller() external view returns (address);\n    function underlying() external view returns (address);\n    function symbol() external view returns (string memory);\n    function exchangeRateCurrent() external returns (uint256);\n    function exchangeRateStored() external view returns (uint256);\n    function balanceOf(address _account) external view returns (uint256);\n    function borrowBalanceCurrent(address _account) external returns (uint256);\n    function borrowBalanceStored(address _account) external view returns (uint256);\n}\n\n/**\n * @title CompoundManager\n * @dev Module to invest and borrow tokens with CompoundV2\n * @author Julien Niset - <julien@argent.xyz>\n */\ncontract CompoundManager is Loan, Invest, BaseModule, RelayerModule, OnlyOwnerModule {\n\n    bytes32 constant NAME = \"CompoundManager\";\n\n    // The Compound IComptroller contract\n    IComptroller public comptroller;\n    // The registry mapping underlying with cTokens\n    CompoundRegistry public compoundRegistry;\n\n    // Mock token address for ETH\n    address constant internal ETH_TOKEN_ADDRESS = 0xEeeeeEeeeEeEeeEeEeEeeEEEeeeeEeeeeeeeEEeE;\n\n    using SafeMath for uint256;\n\n    constructor(\n        ModuleRegistry _registry,\n        GuardianStorage _guardianStorage,\n        IComptroller _comptroller,\n        CompoundRegistry _compoundRegistry\n    )\n        BaseModule(_registry, _guardianStorage, NAME)\n        public\n    {\n        comptroller = _comptroller;\n        compoundRegistry = _compoundRegistry;\n    }\n\n    /* ********************************** Implementation of Loan ************************************* */\n\n    /**\n     * @dev Opens a collateralized loan.\n     * @param _wallet The target wallet.\n     * @param _collateral The token used as a collateral.\n     * @param _collateralAmount The amount of collateral token provided.\n     * @param _debtToken The token borrowed.\n     * @param _debtAmount The amount of tokens borrowed.\n     * @return bytes32(0) as Compound does not allow the creation of multiple loans.\n     */\n    function openLoan(\n        BaseWallet _wallet,\n        address _collateral,\n        uint256 _collateralAmount,\n        address _debtToken,\n        uint256 _debtAmount\n    )\n        external\n        onlyWalletOwner(_wallet)\n        onlyWhenUnlocked(_wallet)\n        returns (bytes32 _loanId)\n    {\n        address[] memory markets = new address[](2);\n        markets[0] = compoundRegistry.getCToken(_collateral);\n        markets[1] = compoundRegistry.getCToken(_debtToken);\n        invokeWallet(address(_wallet), address(comptroller), 0, abi.encodeWithSignature(\"enterMarkets(address[])\", markets));\n        mint(_wallet, markets[0], _collateral, _collateralAmount);\n        borrow(_wallet, markets[1], _debtAmount);\n        emit LoanOpened(address(_wallet), _loanId, _collateral, _collateralAmount, _debtToken, _debtAmount);\n    }\n\n    /**\n     * @dev Closes the collateralized loan in all markets by repaying all debts (plus interest). Note that it does not redeem the collateral.\n     * @param _wallet The target wallet.\n     * @param _loanId bytes32(0) as Compound does not allow the creation of multiple loans.\n     */\n    function closeLoan(\n        BaseWallet _wallet,\n        bytes32 _loanId\n    )\n        external\n        onlyWalletOwner(_wallet)\n        onlyWhenUnlocked(_wallet)\n    {\n        address[] memory markets = comptroller.getAssetsIn(address(_wallet));\n        for (uint i = 0; i < markets.length; i++) {\n            address cToken = markets[i];\n            uint debt = ICToken(cToken).borrowBalanceCurrent(address(_wallet));\n            if (debt > 0) {\n                repayBorrow(_wallet, cToken, debt);\n                uint collateral = ICToken(cToken).balanceOf(address(_wallet));\n                if (collateral == 0) {\n                    invokeWallet(address(_wallet), address(comptroller), 0, abi.encodeWithSignature(\"exitMarket(address)\", address(cToken)));\n                }\n            }\n        }\n        emit LoanClosed(address(_wallet), _loanId);\n    }\n\n    /**\n     * @dev Adds collateral to a loan identified by its ID.\n     * @param _wallet The target wallet.\n     * @param _loanId bytes32(0) as Compound does not allow the creation of multiple loans.\n     * @param _collateral The token used as a collateral.\n     * @param _collateralAmount The amount of collateral to add.\n     */\n    function addCollateral(\n        BaseWallet _wallet,\n        bytes32 _loanId,\n        address _collateral,\n        uint256 _collateralAmount\n    )\n        external\n        onlyWalletOwner(_wallet)\n        onlyWhenUnlocked(_wallet)\n    {\n        address cToken = compoundRegistry.getCToken(_collateral);\n        enterMarketIfNeeded(_wallet, cToken, address(comptroller));\n        mint(_wallet, cToken, _collateral, _collateralAmount);\n        emit CollateralAdded(address(_wallet), _loanId, _collateral, _collateralAmount);\n    }\n\n    /**\n     * @dev Removes collateral from a loan identified by its ID.\n     * @param _wallet The target wallet.\n     * @param _loanId bytes32(0) as Compound does not allow the creation of multiple loans.\n     * @param _collateral The token used as a collateral.\n     * @param _collateralAmount The amount of collateral to remove.\n     */\n    function removeCollateral(\n        BaseWallet _wallet,\n        bytes32 _loanId,\n        address _collateral,\n        uint256 _collateralAmount\n    )\n        external\n        onlyWalletOwner(_wallet)\n        onlyWhenUnlocked(_wallet)\n    {\n        address cToken = compoundRegistry.getCToken(_collateral);\n        redeemUnderlying(_wallet, cToken, _collateralAmount);\n        exitMarketIfNeeded(_wallet, cToken, address(comptroller));\n        emit CollateralRemoved(address(_wallet), _loanId, _collateral, _collateralAmount);\n    }\n\n    /**\n     * @dev Increases the debt by borrowing more token from a loan identified by its ID.\n     * @param _wallet The target wallet.\n     * @param _loanId bytes32(0) as Compound does not allow the creation of multiple loans.\n     * @param _debtToken The token borrowed.\n     * @param _debtAmount The amount of token to borrow.\n     */\n    function addDebt(\n        BaseWallet _wallet,\n        bytes32 _loanId,\n        address _debtToken,\n        uint256 _debtAmount\n    )\n        external\n        onlyWalletOwner(_wallet)\n        onlyWhenUnlocked(_wallet)\n    {\n        address dToken = compoundRegistry.getCToken(_debtToken);\n        enterMarketIfNeeded(_wallet, dToken, address(comptroller));\n        borrow(_wallet, dToken, _debtAmount);\n        emit DebtAdded(address(_wallet), _loanId, _debtToken, _debtAmount);\n    }\n\n    /**\n     * @dev Decreases the debt by repaying some token from a loan identified by its ID.\n     * @param _wallet The target wallet.\n     * @param _loanId bytes32(0) as Compound does not allow the creation of multiple loans.\n     * @param _debtToken The token to repay.\n     * @param _debtAmount The amount of token to repay.\n     */\n    function removeDebt(\n        BaseWallet _wallet,\n        bytes32 _loanId,\n        address _debtToken,\n        uint256 _debtAmount\n    )\n        external\n        onlyWalletOwner(_wallet)\n        onlyWhenUnlocked(_wallet)\n    {\n        address dToken = compoundRegistry.getCToken(_debtToken);\n        repayBorrow(_wallet, dToken, _debtAmount);\n        exitMarketIfNeeded(_wallet, dToken, address(comptroller));\n        emit DebtRemoved(address(_wallet), _loanId, _debtToken, _debtAmount);\n    }\n\n    /**\n     * @dev Gets information about the loan status on Compound.\n     * @param _wallet The target wallet.\n     * @return a status [0: no loan, 1: loan is safe, 2: loan is unsafe and can be liquidated]\n     * and a value (in ETH) representing the value that could still be borrowed when status = 1; or the value of the collateral\n     * that should be added to avoid liquidation when status = 2.\n     */\n    function getLoan(\n        BaseWallet _wallet,\n        bytes32 /* _loanId */\n    )\n        external\n        view\n        returns (uint8 _status, uint256 _ethValue)\n    {\n        (uint error, uint liquidity, uint shortfall) = comptroller.getAccountLiquidity(address(_wallet));\n        require(error == 0, \"Compound: failed to get account liquidity\");\n        if (liquidity > 0) {\n            return (1, liquidity);\n        }\n        if (shortfall > 0) {\n            return (2, shortfall);\n        }\n        return (0,0);\n    }\n\n    /* ********************************** Implementation of Invest ************************************* */\n\n    /**\n     * @dev Invest tokens for a given period.\n     * @param _wallet The target wallet.\n     * @param _token The token address.\n     * @param _amount The amount of tokens to invest.\n     * @param _period The period over which the tokens may be locked in the investment (optional).\n     * @return The exact amount of tokens that have been invested.\n     */\n    function addInvestment(\n        BaseWallet _wallet,\n        address _token,\n        uint256 _amount,\n        uint256 _period\n    )\n        external\n        onlyWalletOwner(_wallet)\n        onlyWhenUnlocked(_wallet)\n        returns (uint256 _invested)\n    {\n        address cToken = compoundRegistry.getCToken(_token);\n        mint(_wallet, cToken, _token, _amount);\n        _invested = _amount;\n        emit InvestmentAdded(address(_wallet), _token, _amount, _period);\n    }\n\n    /**\n     * @dev Exit invested postions.\n     * @param _wallet The target wallet.\n     * @param _token The token address.\n     * @param _fraction The fraction of invested tokens to exit in per 10000.\n     */\n    function removeInvestment(\n        BaseWallet _wallet,\n        address _token,\n        uint256 _fraction\n    )\n        external\n        onlyWalletOwner(_wallet)\n        onlyWhenUnlocked(_wallet)\n    {\n        require(_fraction <= 10000, \"CompoundV2: invalid fraction value\");\n        address cToken = compoundRegistry.getCToken(_token);\n        uint shares = ICToken(cToken).balanceOf(address(_wallet));\n        redeem(_wallet, cToken, shares.mul(_fraction).div(10000));\n        emit InvestmentRemoved(address(_wallet), _token, _fraction);\n    }\n\n    /**\n     * @dev Get the amount of investment in a given token.\n     * @param _wallet The target wallet.\n     * @param _token The token address.\n     * @return The value in tokens of the investment (including interests) and the time at which the investment can be removed.\n     */\n    function getInvestment(\n        BaseWallet _wallet,\n        address _token\n    )\n        external\n        view\n        returns (uint256 _tokenValue, uint256 _periodEnd)\n    {\n        address cToken = compoundRegistry.getCToken(_token);\n        uint amount = ICToken(cToken).balanceOf(address(_wallet));\n        uint exchangeRateMantissa = ICToken(cToken).exchangeRateStored();\n        _tokenValue = amount.mul(exchangeRateMantissa).div(10 ** 18);\n        _periodEnd = 0;\n    }\n\n    /* ****************************************** Compound wrappers ******************************************* */\n\n    /**\n     * @dev Adds underlying tokens to a cToken contract.\n     * @param _wallet The target wallet.\n     * @param _cToken The cToken contract.\n     * @param _token The underlying token.\n     * @param _amount The amount of underlying token to add.\n     */\n    function mint(BaseWallet _wallet, address _cToken, address _token, uint256 _amount) internal {\n        require(_cToken != address(0), \"Compound: No market for target token\");\n        require(_amount > 0, \"Compound: amount cannot be 0\");\n        if (_token == ETH_TOKEN_ADDRESS) {\n            invokeWallet(address(_wallet), _cToken, _amount, abi.encodeWithSignature(\"mint()\"));\n        } else {\n            invokeWallet(address(_wallet), _token, 0, abi.encodeWithSignature(\"approve(address,uint256)\", _cToken, _amount));\n            invokeWallet(address(_wallet), _cToken, 0, abi.encodeWithSignature(\"mint(uint256)\", _amount));\n        }\n    }\n\n    /**\n     * @dev Redeems underlying tokens from a cToken contract.\n     * @param _wallet The target wallet.\n     * @param _cToken The cToken contract.\n     * @param _amount The amount of cToken to redeem.\n     */\n    function redeem(BaseWallet _wallet, address _cToken, uint256 _amount) internal {\n        require(_cToken != address(0), \"Compound: No market for target token\");\n        require(_amount > 0, \"Compound: amount cannot be 0\");\n        invokeWallet(address(_wallet), _cToken, 0, abi.encodeWithSignature(\"redeem(uint256)\", _amount));\n    }\n\n    /**\n     * @dev Redeems underlying tokens from a cToken contract.\n     * @param _wallet The target wallet.\n     * @param _cToken The cToken contract.\n     * @param _amount The amount of underlying token to redeem.\n     */\n    function redeemUnderlying(BaseWallet _wallet, address _cToken, uint256 _amount) internal {\n        require(_cToken != address(0), \"Compound: No market for target token\");\n        require(_amount > 0, \"Compound: amount cannot be 0\");\n        invokeWallet(address(_wallet), _cToken, 0, abi.encodeWithSignature(\"redeemUnderlying(uint256)\", _amount));\n    }\n\n    /**\n     * @dev Borrows underlying tokens from a cToken contract.\n     * @param _wallet The target wallet.\n     * @param _cToken The cToken contract.\n     * @param _amount The amount of underlying tokens to borrow.\n     */\n    function borrow(BaseWallet _wallet, address _cToken, uint256 _amount) internal {\n        require(_cToken != address(0), \"Compound: No market for target token\");\n        require(_amount > 0, \"Compound: amount cannot be 0\");\n        invokeWallet(address(_wallet), _cToken, 0, abi.encodeWithSignature(\"borrow(uint256)\", _amount));\n    }\n\n    /**\n     * @dev Repays some borrowed underlying tokens to a cToken contract.\n     * @param _wallet The target wallet.\n     * @param _cToken The cToken contract.\n     * @param _amount The amount of underlying to repay.\n     */\n    function repayBorrow(BaseWallet _wallet, address _cToken, uint256 _amount) internal {\n        require(_cToken != address(0), \"Compound: No market for target token\");\n        require(_amount > 0, \"Compound: amount cannot be 0\");\n        string memory symbol = ICToken(_cToken).symbol();\n        if (keccak256(abi.encodePacked(symbol)) == keccak256(abi.encodePacked(\"cETH\"))) {\n            invokeWallet(address(_wallet), _cToken, _amount, abi.encodeWithSignature(\"repayBorrow()\"));\n        } else {\n            address token = ICToken(_cToken).underlying();\n            invokeWallet(address(_wallet), token, 0, abi.encodeWithSignature(\"approve(address,uint256)\", _cToken, _amount));\n            invokeWallet(address(_wallet), _cToken, 0, abi.encodeWithSignature(\"repayBorrow(uint256)\", _amount));\n        }\n    }\n\n    /**\n     * @dev Enters a cToken market if it was not entered before.\n     * @param _wallet The target wallet.\n     * @param _cToken The cToken contract.\n     * @param _comptroller The comptroller contract.\n     */\n    function enterMarketIfNeeded(BaseWallet _wallet, address _cToken, address _comptroller) internal {\n        bool isEntered = IComptroller(_comptroller).checkMembership(address(_wallet), ICToken(_cToken));\n        if (!isEntered) {\n            address[] memory market = new address[](1);\n            market[0] = _cToken;\n            invokeWallet(address(_wallet), _comptroller, 0, abi.encodeWithSignature(\"enterMarkets(address[])\", market));\n        }\n    }\n\n    /**\n     * @dev Exits a cToken market if there is no more collateral and debt.\n     * @param _wallet The target wallet.\n     * @param _cToken The cToken contract.\n     * @param _comptroller The comptroller contract.\n     */\n    function exitMarketIfNeeded(BaseWallet _wallet, address _cToken, address _comptroller) internal {\n        uint collateral = ICToken(_cToken).balanceOf(address(_wallet));\n        uint debt = ICToken(_cToken).borrowBalanceStored(address(_wallet));\n        if (collateral == 0 && debt == 0) {\n            invokeWallet(address(_wallet), _comptroller, 0, abi.encodeWithSignature(\"exitMarket(address)\", _cToken));\n        }\n    }\n}\n",
  "sourcePath": "/Users/name/dev/argent-contracts-release-1.5.0/contracts/modules/CompoundManager.sol",
  "compiler": {
    "name": "solc",
    "version": "0.5.4+commit.9549d8ff.Emscripten.clang",
    "optimizer": true,
    "runs": 999
  },
  "schemaVersion": "2.3.1",
  "updatedAt": "2020-04-01T15:58:47.636Z"
}