{
  "contractName": "Comptroller",
  "abi": [
    {
      "constant": true,
      "inputs": [],
      "name": "isComptroller",
      "outputs": [
        {
          "name": "",
          "type": "bool"
        }
      ],
      "payable": false,
      "stateMutability": "view",
      "type": "function"
    },
    {
      "constant": true,
      "inputs": [],
      "name": "pendingAdmin",
      "outputs": [
        {
          "name": "",
          "type": "address"
        }
      ],
      "payable": false,
      "stateMutability": "view",
      "type": "function"
    },
    {
      "constant": true,
      "inputs": [],
      "name": "liquidationIncentiveMantissa",
      "outputs": [
        {
          "name": "",
          "type": "uint256"
        }
      ],
      "payable": false,
      "stateMutability": "view",
      "type": "function"
    },
    {
      "constant": true,
      "inputs": [],
      "name": "oracle",
      "outputs": [
        {
          "name": "",
          "type": "address"
        }
      ],
      "payable": false,
      "stateMutability": "view",
      "type": "function"
    },
    {
      "constant": true,
      "inputs": [
        {
          "name": "",
          "type": "address"
        }
      ],
      "name": "markets",
      "outputs": [
        {
          "name": "isListed",
          "type": "bool"
        },
        {
          "name": "collateralFactorMantissa",
          "type": "uint256"
        }
      ],
      "payable": false,
      "stateMutability": "view",
      "type": "function"
    },
    {
      "constant": true,
      "inputs": [],
      "name": "maxAssets",
      "outputs": [
        {
          "name": "",
          "type": "uint256"
        }
      ],
      "payable": false,
      "stateMutability": "view",
      "type": "function"
    },
    {
      "constant": true,
      "inputs": [],
      "name": "comptrollerImplementation",
      "outputs": [
        {
          "name": "",
          "type": "address"
        }
      ],
      "payable": false,
      "stateMutability": "view",
      "type": "function"
    },
    {
      "constant": true,
      "inputs": [
        {
          "name": "",
          "type": "address"
        },
        {
          "name": "",
          "type": "uint256"
        }
      ],
      "name": "accountAssets",
      "outputs": [
        {
          "name": "",
          "type": "address"
        }
      ],
      "payable": false,
      "stateMutability": "view",
      "type": "function"
    },
    {
      "constant": true,
      "inputs": [],
      "name": "pendingComptrollerImplementation",
      "outputs": [
        {
          "name": "",
          "type": "address"
        }
      ],
      "payable": false,
      "stateMutability": "view",
      "type": "function"
    },
    {
      "constant": true,
      "inputs": [],
      "name": "closeFactorMantissa",
      "outputs": [
        {
          "name": "",
          "type": "uint256"
        }
      ],
      "payable": false,
      "stateMutability": "view",
      "type": "function"
    },
    {
      "constant": true,
      "inputs": [],
      "name": "admin",
      "outputs": [
        {
          "name": "",
          "type": "address"
        }
      ],
      "payable": false,
      "stateMutability": "view",
      "type": "function"
    },
    {
      "inputs": [],
      "payable": false,
      "stateMutability": "nonpayable",
      "type": "constructor"
    },
    {
      "anonymous": false,
      "inputs": [
        {
          "indexed": false,
          "name": "cToken",
          "type": "address"
        }
      ],
      "name": "MarketListed",
      "type": "event"
    },
    {
      "anonymous": false,
      "inputs": [
        {
          "indexed": false,
          "name": "cToken",
          "type": "address"
        },
        {
          "indexed": false,
          "name": "account",
          "type": "address"
        }
      ],
      "name": "MarketEntered",
      "type": "event"
    },
    {
      "anonymous": false,
      "inputs": [
        {
          "indexed": false,
          "name": "cToken",
          "type": "address"
        },
        {
          "indexed": false,
          "name": "account",
          "type": "address"
        }
      ],
      "name": "MarketExited",
      "type": "event"
    },
    {
      "anonymous": false,
      "inputs": [
        {
          "indexed": false,
          "name": "oldCloseFactorMantissa",
          "type": "uint256"
        },
        {
          "indexed": false,
          "name": "newCloseFactorMantissa",
          "type": "uint256"
        }
      ],
      "name": "NewCloseFactor",
      "type": "event"
    },
    {
      "anonymous": false,
      "inputs": [
        {
          "indexed": false,
          "name": "cToken",
          "type": "address"
        },
        {
          "indexed": false,
          "name": "oldCollateralFactorMantissa",
          "type": "uint256"
        },
        {
          "indexed": false,
          "name": "newCollateralFactorMantissa",
          "type": "uint256"
        }
      ],
      "name": "NewCollateralFactor",
      "type": "event"
    },
    {
      "anonymous": false,
      "inputs": [
        {
          "indexed": false,
          "name": "oldLiquidationIncentiveMantissa",
          "type": "uint256"
        },
        {
          "indexed": false,
          "name": "newLiquidationIncentiveMantissa",
          "type": "uint256"
        }
      ],
      "name": "NewLiquidationIncentive",
      "type": "event"
    },
    {
      "anonymous": false,
      "inputs": [
        {
          "indexed": false,
          "name": "oldMaxAssets",
          "type": "uint256"
        },
        {
          "indexed": false,
          "name": "newMaxAssets",
          "type": "uint256"
        }
      ],
      "name": "NewMaxAssets",
      "type": "event"
    },
    {
      "anonymous": false,
      "inputs": [
        {
          "indexed": false,
          "name": "oldPriceOracle",
          "type": "address"
        },
        {
          "indexed": false,
          "name": "newPriceOracle",
          "type": "address"
        }
      ],
      "name": "NewPriceOracle",
      "type": "event"
    },
    {
      "anonymous": false,
      "inputs": [
        {
          "indexed": false,
          "name": "error",
          "type": "uint256"
        },
        {
          "indexed": false,
          "name": "info",
          "type": "uint256"
        },
        {
          "indexed": false,
          "name": "detail",
          "type": "uint256"
        }
      ],
      "name": "Failure",
      "type": "event"
    },
    {
      "constant": true,
      "inputs": [
        {
          "name": "account",
          "type": "address"
        }
      ],
      "name": "getAssetsIn",
      "outputs": [
        {
          "name": "",
          "type": "address[]"
        }
      ],
      "payable": false,
      "stateMutability": "view",
      "type": "function"
    },
    {
      "constant": true,
      "inputs": [
        {
          "name": "account",
          "type": "address"
        },
        {
          "name": "cToken",
          "type": "address"
        }
      ],
      "name": "checkMembership",
      "outputs": [
        {
          "name": "",
          "type": "bool"
        }
      ],
      "payable": false,
      "stateMutability": "view",
      "type": "function"
    },
    {
      "constant": false,
      "inputs": [
        {
          "name": "cTokens",
          "type": "address[]"
        }
      ],
      "name": "enterMarkets",
      "outputs": [
        {
          "name": "",
          "type": "uint256[]"
        }
      ],
      "payable": false,
      "stateMutability": "nonpayable",
      "type": "function"
    },
    {
      "constant": false,
      "inputs": [
        {
          "name": "cTokenAddress",
          "type": "address"
        }
      ],
      "name": "exitMarket",
      "outputs": [
        {
          "name": "",
          "type": "uint256"
        }
      ],
      "payable": false,
      "stateMutability": "nonpayable",
      "type": "function"
    },
    {
      "constant": false,
      "inputs": [
        {
          "name": "cToken",
          "type": "address"
        },
        {
          "name": "minter",
          "type": "address"
        },
        {
          "name": "mintAmount",
          "type": "uint256"
        }
      ],
      "name": "mintAllowed",
      "outputs": [
        {
          "name": "",
          "type": "uint256"
        }
      ],
      "payable": false,
      "stateMutability": "nonpayable",
      "type": "function"
    },
    {
      "constant": false,
      "inputs": [
        {
          "name": "cToken",
          "type": "address"
        },
        {
          "name": "minter",
          "type": "address"
        },
        {
          "name": "mintAmount",
          "type": "uint256"
        },
        {
          "name": "mintTokens",
          "type": "uint256"
        }
      ],
      "name": "mintVerify",
      "outputs": [],
      "payable": false,
      "stateMutability": "nonpayable",
      "type": "function"
    },
    {
      "constant": false,
      "inputs": [
        {
          "name": "cToken",
          "type": "address"
        },
        {
          "name": "redeemer",
          "type": "address"
        },
        {
          "name": "redeemTokens",
          "type": "uint256"
        }
      ],
      "name": "redeemAllowed",
      "outputs": [
        {
          "name": "",
          "type": "uint256"
        }
      ],
      "payable": false,
      "stateMutability": "nonpayable",
      "type": "function"
    },
    {
      "constant": false,
      "inputs": [
        {
          "name": "cToken",
          "type": "address"
        },
        {
          "name": "redeemer",
          "type": "address"
        },
        {
          "name": "redeemAmount",
          "type": "uint256"
        },
        {
          "name": "redeemTokens",
          "type": "uint256"
        }
      ],
      "name": "redeemVerify",
      "outputs": [],
      "payable": false,
      "stateMutability": "nonpayable",
      "type": "function"
    },
    {
      "constant": false,
      "inputs": [
        {
          "name": "cToken",
          "type": "address"
        },
        {
          "name": "borrower",
          "type": "address"
        },
        {
          "name": "borrowAmount",
          "type": "uint256"
        }
      ],
      "name": "borrowAllowed",
      "outputs": [
        {
          "name": "",
          "type": "uint256"
        }
      ],
      "payable": false,
      "stateMutability": "nonpayable",
      "type": "function"
    },
    {
      "constant": false,
      "inputs": [
        {
          "name": "cToken",
          "type": "address"
        },
        {
          "name": "borrower",
          "type": "address"
        },
        {
          "name": "borrowAmount",
          "type": "uint256"
        }
      ],
      "name": "borrowVerify",
      "outputs": [],
      "payable": false,
      "stateMutability": "nonpayable",
      "type": "function"
    },
    {
      "constant": false,
      "inputs": [
        {
          "name": "cToken",
          "type": "address"
        },
        {
          "name": "payer",
          "type": "address"
        },
        {
          "name": "borrower",
          "type": "address"
        },
        {
          "name": "repayAmount",
          "type": "uint256"
        }
      ],
      "name": "repayBorrowAllowed",
      "outputs": [
        {
          "name": "",
          "type": "uint256"
        }
      ],
      "payable": false,
      "stateMutability": "nonpayable",
      "type": "function"
    },
    {
      "constant": false,
      "inputs": [
        {
          "name": "cToken",
          "type": "address"
        },
        {
          "name": "payer",
          "type": "address"
        },
        {
          "name": "borrower",
          "type": "address"
        },
        {
          "name": "repayAmount",
          "type": "uint256"
        },
        {
          "name": "borrowerIndex",
          "type": "uint256"
        }
      ],
      "name": "repayBorrowVerify",
      "outputs": [],
      "payable": false,
      "stateMutability": "nonpayable",
      "type": "function"
    },
    {
      "constant": false,
      "inputs": [
        {
          "name": "cTokenBorrowed",
          "type": "address"
        },
        {
          "name": "cTokenCollateral",
          "type": "address"
        },
        {
          "name": "liquidator",
          "type": "address"
        },
        {
          "name": "borrower",
          "type": "address"
        },
        {
          "name": "repayAmount",
          "type": "uint256"
        }
      ],
      "name": "liquidateBorrowAllowed",
      "outputs": [
        {
          "name": "",
          "type": "uint256"
        }
      ],
      "payable": false,
      "stateMutability": "nonpayable",
      "type": "function"
    },
    {
      "constant": false,
      "inputs": [
        {
          "name": "cTokenBorrowed",
          "type": "address"
        },
        {
          "name": "cTokenCollateral",
          "type": "address"
        },
        {
          "name": "liquidator",
          "type": "address"
        },
        {
          "name": "borrower",
          "type": "address"
        },
        {
          "name": "repayAmount",
          "type": "uint256"
        },
        {
          "name": "seizeTokens",
          "type": "uint256"
        }
      ],
      "name": "liquidateBorrowVerify",
      "outputs": [],
      "payable": false,
      "stateMutability": "nonpayable",
      "type": "function"
    },
    {
      "constant": false,
      "inputs": [
        {
          "name": "cTokenCollateral",
          "type": "address"
        },
        {
          "name": "cTokenBorrowed",
          "type": "address"
        },
        {
          "name": "liquidator",
          "type": "address"
        },
        {
          "name": "borrower",
          "type": "address"
        },
        {
          "name": "seizeTokens",
          "type": "uint256"
        }
      ],
      "name": "seizeAllowed",
      "outputs": [
        {
          "name": "",
          "type": "uint256"
        }
      ],
      "payable": false,
      "stateMutability": "nonpayable",
      "type": "function"
    },
    {
      "constant": false,
      "inputs": [
        {
          "name": "cTokenCollateral",
          "type": "address"
        },
        {
          "name": "cTokenBorrowed",
          "type": "address"
        },
        {
          "name": "liquidator",
          "type": "address"
        },
        {
          "name": "borrower",
          "type": "address"
        },
        {
          "name": "seizeTokens",
          "type": "uint256"
        }
      ],
      "name": "seizeVerify",
      "outputs": [],
      "payable": false,
      "stateMutability": "nonpayable",
      "type": "function"
    },
    {
      "constant": false,
      "inputs": [
        {
          "name": "cToken",
          "type": "address"
        },
        {
          "name": "src",
          "type": "address"
        },
        {
          "name": "dst",
          "type": "address"
        },
        {
          "name": "transferTokens",
          "type": "uint256"
        }
      ],
      "name": "transferAllowed",
      "outputs": [
        {
          "name": "",
          "type": "uint256"
        }
      ],
      "payable": false,
      "stateMutability": "nonpayable",
      "type": "function"
    },
    {
      "constant": false,
      "inputs": [
        {
          "name": "cToken",
          "type": "address"
        },
        {
          "name": "src",
          "type": "address"
        },
        {
          "name": "dst",
          "type": "address"
        },
        {
          "name": "transferTokens",
          "type": "uint256"
        }
      ],
      "name": "transferVerify",
      "outputs": [],
      "payable": false,
      "stateMutability": "nonpayable",
      "type": "function"
    },
    {
      "constant": true,
      "inputs": [
        {
          "name": "account",
          "type": "address"
        }
      ],
      "name": "getAccountLiquidity",
      "outputs": [
        {
          "name": "",
          "type": "uint256"
        },
        {
          "name": "",
          "type": "uint256"
        },
        {
          "name": "",
          "type": "uint256"
        }
      ],
      "payable": false,
      "stateMutability": "view",
      "type": "function"
    },
    {
      "constant": true,
      "inputs": [
        {
          "name": "cTokenBorrowed",
          "type": "address"
        },
        {
          "name": "cTokenCollateral",
          "type": "address"
        },
        {
          "name": "repayAmount",
          "type": "uint256"
        }
      ],
      "name": "liquidateCalculateSeizeTokens",
      "outputs": [
        {
          "name": "",
          "type": "uint256"
        },
        {
          "name": "",
          "type": "uint256"
        }
      ],
      "payable": false,
      "stateMutability": "view",
      "type": "function"
    },
    {
      "constant": false,
      "inputs": [
        {
          "name": "newOracle",
          "type": "address"
        }
      ],
      "name": "_setPriceOracle",
      "outputs": [
        {
          "name": "",
          "type": "uint256"
        }
      ],
      "payable": false,
      "stateMutability": "nonpayable",
      "type": "function"
    },
    {
      "constant": false,
      "inputs": [
        {
          "name": "newCloseFactorMantissa",
          "type": "uint256"
        }
      ],
      "name": "_setCloseFactor",
      "outputs": [
        {
          "name": "",
          "type": "uint256"
        }
      ],
      "payable": false,
      "stateMutability": "nonpayable",
      "type": "function"
    },
    {
      "constant": false,
      "inputs": [
        {
          "name": "cToken",
          "type": "address"
        },
        {
          "name": "newCollateralFactorMantissa",
          "type": "uint256"
        }
      ],
      "name": "_setCollateralFactor",
      "outputs": [
        {
          "name": "",
          "type": "uint256"
        }
      ],
      "payable": false,
      "stateMutability": "nonpayable",
      "type": "function"
    },
    {
      "constant": false,
      "inputs": [
        {
          "name": "newMaxAssets",
          "type": "uint256"
        }
      ],
      "name": "_setMaxAssets",
      "outputs": [
        {
          "name": "",
          "type": "uint256"
        }
      ],
      "payable": false,
      "stateMutability": "nonpayable",
      "type": "function"
    },
    {
      "constant": false,
      "inputs": [
        {
          "name": "newLiquidationIncentiveMantissa",
          "type": "uint256"
        }
      ],
      "name": "_setLiquidationIncentive",
      "outputs": [
        {
          "name": "",
          "type": "uint256"
        }
      ],
      "payable": false,
      "stateMutability": "nonpayable",
      "type": "function"
    },
    {
      "constant": false,
      "inputs": [
        {
          "name": "cToken",
          "type": "address"
        }
      ],
      "name": "_supportMarket",
      "outputs": [
        {
          "name": "",
          "type": "uint256"
        }
      ],
      "payable": false,
      "stateMutability": "nonpayable",
      "type": "function"
    },
    {
      "constant": false,
      "inputs": [
        {
          "name": "unitroller",
          "type": "address"
        },
        {
          "name": "_oracle",
          "type": "address"
        },
        {
          "name": "_closeFactorMantissa",
          "type": "uint256"
        },
        {
          "name": "_maxAssets",
          "type": "uint256"
        },
        {
          "name": "reinitializing",
          "type": "bool"
        }
      ],
      "name": "_become",
      "outputs": [],
      "payable": false,
      "stateMutability": "nonpayable",
      "type": "function"
    }
  ],
  "bytecode": "0x608060405234801561001057600080fd5b5060008054600160a060020a03191633179055612e6a806100326000396000f3fe608060405234801561001057600080fd5b506004361061029f57600035600080516020612e1f833981519152900480638e8f294b1161016e578063d02f7351116100e6578063e4028eee1161009a578063eabe7d911161007f578063eabe7d9114610974578063ede4edd0146109aa578063f851a440146109d05761029f565b8063e4028eee14610940578063e87554461461096c5761029f565b8063da3d454c116100cb578063da3d454c146108d6578063dce154491461090c578063dcfbc0c7146109385761029f565b8063d02f735114610873578063d9226ced146108b95761029f565b8063abfceffc1161013d578063bdcdc25811610122578063bdcdc25814610745578063c299823814610781578063c488847b146108245761029f565b8063abfceffc146106c7578063bb82aa5e1461073d5761029f565b80638e8f294b1461062a578063929fe9a11461066b57806394b2294b14610699578063a76b3fda146106a15761029f565b80634ef4c3e11161021c5780635ec88c79116101d05780636a56947e116101b55780636a56947e146105a05780636d35bf91146105dc5780637dc0d1d0146106225761029f565b80635ec88c79146105165780635fc7e71e1461055a5761029f565b806351dff9891161020157806351dff989146103d757806355ee1fe1146104ba5780635c778605146104e05761029f565b80634ef4c3e1146104675780634fd42e171461049d5761029f565b8063317b0b771161027357806341c728b91161025857806341c728b9146103d757806347ef3b3b146104135780634ada90af1461045f5761029f565b8063317b0b771461037657806332000e00146103935761029f565b80627e3dd2146102a45780631ededc91146102c057806324008a62146103045780632678224714610352575b600080fd5b6102ac6109d8565b604080519115158252519081900360200190f35b610302600480360360a08110156102d657600080fd5b50600160a060020a038135811691602081013582169160408201351690606081013590608001356109dd565b005b6103406004803603608081101561031a57600080fd5b50600160a060020a038135811691602081013582169160408201351690606001356109e4565b60408051918252519081900360200190f35b61035a610a1c565b60408051600160a060020a039092168252519081900360200190f35b6103406004803603602081101561038c57600080fd5b5035610a2b565b610302600480360360a08110156103a957600080fd5b50600160a060020a038135811691602081013590911690604081013590606081013590608001351515610b3b565b610302600480360360808110156103ed57600080fd5b50600160a060020a038135811691602081013590911690604081013590606001356110dd565b610302600480360360c081101561042957600080fd5b50600160a060020a0381358116916020810135821691604082013581169160608101359091169060808101359060a001356110e3565b6103406110e8565b6103406004803603606081101561047d57600080fd5b50600160a060020a038135811691602081013590911690604001356110ee565b610340600480360360208110156104b357600080fd5b5035611127565b610340600480360360208110156104d057600080fd5b5035600160a060020a0316611218565b610302600480360360608110156104f657600080fd5b50600160a060020a038135811691602081013590911690604001356112a9565b61053c6004803603602081101561052c57600080fd5b5035600160a060020a03166112ae565b60408051938452602084019290925282820152519081900360600190f35b610340600480360360a081101561057057600080fd5b50600160a060020a03813581169160208101358216916040820135811691606081013590911690608001356112e3565b610302600480360360808110156105b657600080fd5b50600160a060020a038135811691602081013582169160408201351690606001356110dd565b610302600480360360a08110156105f257600080fd5b50600160a060020a03813581169160208101358216916040820135811691606081013590911690608001356109dd565b61035a611479565b6106506004803603602081101561064057600080fd5b5035600160a060020a0316611488565b60408051921515835260208301919091528051918290030190f35b6102ac6004803603604081101561068157600080fd5b50600160a060020a03813581169160200135166114a7565b6103406114db565b610340600480360360208110156106b757600080fd5b5035600160a060020a03166114e1565b6106ed600480360360208110156106dd57600080fd5b5035600160a060020a031661161d565b60408051602080825283518183015283519192839290830191858101910280838360005b83811015610729578181015183820152602001610711565b505050509050019250505060405180910390f35b61035a6116a6565b6103406004803603608081101561075b57600080fd5b50600160a060020a038135811691602081013582169160408201351690606001356116b5565b6106ed6004803603602081101561079757600080fd5b8101906020810181356401000000008111156107b257600080fd5b8201836020820111156107c457600080fd5b803590602001918460208302840111640100000000831117156107e657600080fd5b9190808060200260200160405190810160405280939291908181526020018383602002808284376000920191909152509295506116c2945050505050565b61085a6004803603606081101561083a57600080fd5b50600160a060020a03813581169160208101359091169060400135611877565b6040805192835260208301919091528051918290030190f35b610340600480360360a081101561088957600080fd5b50600160a060020a0381358116916020810135821691604082013581169160608101359091169060800135611b2b565b610340600480360360208110156108cf57600080fd5b5035611c94565b610340600480360360608110156108ec57600080fd5b50600160a060020a03813581169160208101359091169060400135611cfa565b61035a6004803603604081101561092257600080fd5b50600160a060020a038135169060200135611e50565b61035a611e87565b6103406004803603604081101561095657600080fd5b50600160a060020a038135169060200135611e96565b610340611fae565b6103406004803603606081101561098a57600080fd5b50600160a060020a03813581169160208101359091169060400135611fb4565b610340600480360360208110156109c057600080fd5b5035600160a060020a0316611fc1565b61035a61230a565b600181565b5050505050565b600160a060020a03841660009081526009602052604081205460ff161515610a0e57506009610a14565b60005b90505b949350505050565b600154600160a060020a031681565b6000610a35612319565b1515610a4e57610a4760016004612364565b9050610b36565b610a56612d13565b506040805160208101909152828152610a6d612d13565b50604080516020810190915266b1a2bc2ec500008152610a8d82826123ca565b15610aa657610a9d600580612364565b92505050610b36565b610aae612d13565b506040805160208101909152670c7d713b49da00008152610acf81846123d2565b15610ae957610adf600580612364565b9350505050610b36565b6005805490869055604080518281526020810188905281517f3b9670cf975d26958e754b57098eaa2ac914d8d2a31b83257997b9f346110fd9929181900390910190a160005b9450505050505b919050565b84600160a060020a031663f851a4406040518163ffffffff16600080516020612e1f83398151915202815260040160206040518083038186803b158015610b8157600080fd5b505afa158015610b95573d6000803e3d6000fd5b505050506040513d6020811015610bab57600080fd5b5051600160a060020a03163314610c0d576040517f08c379a0000000000000000000000000000000000000000000000000000000008152600401808060200182810382526027815260200180612df86027913960400191505060405180910390fd5b600085600160a060020a031663c1e803346040518163ffffffff16600080516020612e1f833981519152028152600401602060405180830381600087803b158015610c5757600080fd5b505af1158015610c6b573d6000803e3d6000fd5b505050506040513d6020811015610c8157600080fd5b505190508015610cf257604080517f08c379a000000000000000000000000000000000000000000000000000000000815260206004820152601560248201527f6368616e6765206e6f7420617574686f72697a65640000000000000000000000604482015290519081900360640190fd5b8115156110d5576000869050600081600160a060020a03166355ee1fe1886040518263ffffffff16600080516020612e1f8339815191520281526004018082600160a060020a0316600160a060020a03168152602001915050602060405180830381600087803b158015610d6557600080fd5b505af1158015610d79573d6000803e3d6000fd5b505050506040513d6020811015610d8f57600080fd5b505190508015610e0057604080517f08c379a000000000000000000000000000000000000000000000000000000000815260206004820152601660248201527f736574207072696365206f7261636c65206572726f7200000000000000000000604482015290519081900360640190fd5b81600160a060020a031663317b0b77876040518263ffffffff16600080516020612e1f83398151915202815260040180828152602001915050602060405180830381600087803b158015610e5357600080fd5b505af1158015610e67573d6000803e3d6000fd5b505050506040513d6020811015610e7d57600080fd5b505190508015610eee57604080517f08c379a000000000000000000000000000000000000000000000000000000000815260206004820152601660248201527f73657420636c6f736520666163746f72206572726f7200000000000000000000604482015290519081900360640190fd5b81600160a060020a031663d9226ced866040518263ffffffff16600080516020612e1f83398151915202815260040180828152602001915050602060405180830381600087803b158015610f4157600080fd5b505af1158015610f55573d6000803e3d6000fd5b505050506040513d6020811015610f6b57600080fd5b505190508015610fdc57604080517f08c379a000000000000000000000000000000000000000000000000000000000815260206004820152601560248201527f736574206d61782061737373657473206572726f720000000000000000000000604482015290519081900360640190fd5b81600160a060020a0316634fd42e17670de0b6b3a76400006040518263ffffffff16600080516020612e1f83398151915202815260040180828152602001915050602060405180830381600087803b15801561103757600080fd5b505af115801561104b573d6000803e3d6000fd5b505050506040513d602081101561106157600080fd5b5051905080156110d257604080517f08c379a000000000000000000000000000000000000000000000000000000000815260206004820152601f60248201527f736574206c69717569646174696f6e20696e63656e74697665206572726f7200604482015290519081900360640190fd5b50505b505050505050565b50505050565b6110d5565b60065481565b600160a060020a03831660009081526009602052604081205460ff16151561111a5760095b9050611120565b60005b90505b9392505050565b6000611131612319565b151561114357610a476001600b612364565b61114b612d13565b506040805160208101909152828152611162612d13565b506040805160208101909152670de0b6b3a7640000815261118382826123d2565b1561119457610a9d6007600c612364565b61119c612d13565b5060408051602081019091526714d1120d7b16000081526111bd81846123d2565b156111ce57610adf6007600c612364565b6006805490869055604080518281526020810188905281517faeba5a6c40a8ac138134bff1aaa65debf25971188a58804bad717f82f0ec1316929181900390910190a16000610b2f565b6000611222612319565b151561123457610a4760016010612364565b60048054600160a060020a0384811673ffffffffffffffffffffffffffffffffffffffff19831681179093556040805191909216808252602082019390935281517fd52b2b9b7e9ee655fcb95d2e5b9e0c9f69e7ef2b8e9d2d0ea78402d576d22e22929181900390910190a160009392505050565b505050565b6000806000806000806112c58760008060006123d9565b9250925092508260118111156112d757fe5b97919650945092505050565b600160a060020a03851660009081526009602052604081205460ff1615806113245750600160a060020a03851660009081526009602052604090205460ff16155b156113335760095b9050611470565b60008061133f8561282a565b9193509091506000905082601181111561135557fe5b1461136f5781601181111561136657fe5b92505050611470565b80151561137d576003611366565b600088600160a060020a03166395dd9193876040518263ffffffff16600080516020612e1f8339815191520281526004018082600160a060020a0316600160a060020a0316815260200191505060206040518083038186803b1580156113e257600080fd5b505afa1580156113f6573d6000803e3d6000fd5b505050506040513d602081101561140c57600080fd5b5051604080516020810190915260055481529091506000908190611430908461284a565b9092509050600082600381111561144357fe5b1461145757600b5b95505050505050611470565b8087111561146657601161144b565b6000955050505050505b95945050505050565b600454600160a060020a031681565b6009602052600090815260409020805460019091015460ff9091169082565b600160a060020a038082166000908152600960209081526040808320938616835260029093019052205460ff165b92915050565b60075481565b60008054600160a060020a0316331461150057610a4760016012612364565b600160a060020a03821660009081526009602052604090205460ff161561152d57610a47600a6011612364565b81600160a060020a031663fe9c44ae6040518163ffffffff16600080516020612e1f83398151915202815260040160206040518083038186803b15801561157357600080fd5b505afa158015611587573d6000803e3d6000fd5b505050506040513d602081101561159d57600080fd5b5050604080518082018252600180825260006020808401828152600160a060020a03881680845260098352928690209451855460ff1916901515178555519390920192909255825191825291517fcf583bb0c569eb967f806b11601c4cb93c10310485c67add5f8362c2f212321f929181900390910190a1600092915050565b6060806008600084600160a060020a0316600160a060020a0316815260200190815260200160002080548060200260200160405190810160405280929190818152602001828054801561169957602002820191906000526020600020905b8154600160a060020a0316815260019091019060200180831161167b575b5093979650505050505050565b600254600160a060020a031681565b6000610a1185858461289e565b60606000825190506060816040519080825280602002602001820160405280156116f6578160200160208202803883390190505b50905060005b8281101561186f576000858281518110151561171457fe5b6020908102909101810151600160a060020a03811660009081526009909252604090912080549192509060ff16151561176a5760095b848481518110151561175857fe5b60209081029091010152506118679050565b33600090815260028201602052604090205460ff1615156001141561179057600061174a565b60075433600090815260086020526040902054106117af57601061174a565b3360008181526002830160209081526040808320805460ff1916600190811790915560088352818420805491820181558452928290209092018054600160a060020a03871673ffffffffffffffffffffffffffffffffffffffff19909116811790915582519081529081019290925280517f3ab23ab0d51cccc0c3085aec51f99228625aa1a922b3a8ca89a26b0f2027a1a59281900390910190a16000848481518110151561185a57fe5b6020908102909101015250505b6001016116fc565b509392505050565b60048054604080517ffc57d4df000000000000000000000000000000000000000000000000000000008152600160a060020a038781169482019490945290516000938493849391169163fc57d4df91602480820192602092909190829003018186803b1580156118e657600080fd5b505afa1580156118fa573d6000803e3d6000fd5b505050506040513d602081101561191057600080fd5b505160048054604080517ffc57d4df000000000000000000000000000000000000000000000000000000008152600160a060020a038a8116948201949094529051939450600093929091169163fc57d4df91602480820192602092909190829003018186803b15801561198257600080fd5b505afa158015611996573d6000803e3d6000fd5b505050506040513d60208110156119ac57600080fd5b505190508115806119bb575080155b156119d057600d935060009250611b23915050565b600086600160a060020a031663182df0f56040518163ffffffff16600080516020612e1f83398151915202815260040160206040518083038186803b158015611a1857600080fd5b505afa158015611a2c573d6000803e3d6000fd5b505050506040513d6020811015611a4257600080fd5b505190506000611a50612d13565b611a58612d13565b611a60612d13565b6000611a6e60065489612911565b945090506000816003811115611a8057fe5b14611a9c57600b5b995060009850611b23975050505050505050565b611aa68787612911565b935090506000816003811115611ab857fe5b14611ac457600b611a88565b611ace8484612948565b925090506000816003811115611ae057fe5b14611aec57600b611a88565b611af6828c61284a565b955090506000816003811115611b0857fe5b14611b1457600b611a88565b60009950939750505050505050505b935093915050565b600160a060020a03851660009081526009602052604081205460ff161580611b6c5750600160a060020a03851660009081526009602052604090205460ff16155b15611b7857600961132c565b84600160a060020a0316635fe3b5676040518163ffffffff16600080516020612e1f83398151915202815260040160206040518083038186803b158015611bbe57600080fd5b505afa158015611bd2573d6000803e3d6000fd5b505050506040513d6020811015611be857600080fd5b5051604080517f5fe3b5670000000000000000000000000000000000000000000000000000000081529051600160a060020a0392831692891691635fe3b567916004808301926020929190829003018186803b158015611c4757600080fd5b505afa158015611c5b573d6000803e3d6000fd5b505050506040513d6020811015611c7157600080fd5b5051600160a060020a031614611c8857600261132c565b60009695505050505050565b6000611c9e612319565b1515611cb057610a476001600d612364565b6007805490839055604080518281526020810185905281517f7093cf1eb653f749c3ff531d6df7f92764536a7fa0d13530cd26e070780c32ea929181900390910190a16000611120565b600160a060020a03831660009081526009602052604081205460ff161515611d23576009611113565b600160a060020a038085166000908152600960209081526040808320938716835260029093019052205460ff161515611d5d576008611113565b60048054604080517ffc57d4df000000000000000000000000000000000000000000000000000000008152600160a060020a03888116948201949094529051929091169163fc57d4df91602480820192602092909190829003018186803b158015611dc757600080fd5b505afa158015611ddb573d6000803e3d6000fd5b505050506040513d6020811015611df157600080fd5b50511515611e0057600d611113565b600080611e1085876000876123d9565b91935090915060009050826011811115611e2657fe5b14611e4057816011811115611e3757fe5b92505050611120565b6000811115611c88576004611e37565b600860205281600052604060002081815481101515611e6b57fe5b600091825260209091200154600160a060020a03169150829050565b600354600160a060020a031681565b60008054600160a060020a03163314611ebc57611eb560016006612364565b90506114d5565b600160a060020a0383166000908152600960205260409020805460ff161515611ef357611eeb60096007612364565b9150506114d5565b611efb612d13565b506040805160208101909152838152611f12612d13565b506040805160208101909152670c7d713b49da00008152611f3381836123d2565b15611f4e57611f4460066008612364565b93505050506114d5565b6001830180549086905560408051600160a060020a03891681526020810183905280820188905290517f70483e6592cd5182d45ac970e05bc62cdcc90e9d8ef2c2dbe686cf383bcd7fc59181900360600190a16000979650505050505050565b60055481565b600061111d84848461289e565b600080829050600080600083600160a060020a031663c37f68e2336040518263ffffffff16600080516020612e1f8339815191520281526004018082600160a060020a0316600160a060020a0316815260200191505060806040518083038186803b15801561202f57600080fd5b505afa158015612043573d6000803e3d6000fd5b505050506040513d608081101561205957600080fd5b5080516020820151604090920151909450909250905082156120c6576040517f08c379a0000000000000000000000000000000000000000000000000000000008152600401808060200182810382526025815260200180612dd36025913960400191505060405180910390fd5b80156120e3576120d8600c6002612364565b945050505050610b36565b60006120f087338561289e565b9050801561211157612105600e600383612960565b95505050505050610b36565b600160a060020a0385166000908152600960209081526040808320338452600281019092529091205460ff1615156121525760009650505050505050610b36565b3360009081526002820160209081526040808320805460ff1916905560088252918290208054835181840281018401909452808452606093928301828280156121c457602002820191906000526020600020905b8154600160a060020a031681526001909101906020018083116121a6575b5050835193945083925060009150505b8281101561221d5789600160a060020a031684828151811015156121f457fe5b90602001906020020151600160a060020a031614156122155780915061221d565b6001016121d4565b5081811061222757fe5b33600090815260086020526040902080548190600019810190811061224857fe5b6000918252602090912001548154600160a060020a039091169082908490811061226e57fe5b6000918252602090912001805473ffffffffffffffffffffffffffffffffffffffff1916600160a060020a039290921691909117905580546122b4826000198301612d25565b5060408051600160a060020a038c16815233602082015281517fe699a64c18b07ac5b7301aa273f36a2287239eb9501d81950672794afba29a0d929181900390910190a160009c9b505050505050505050505050565b600054600160a060020a031681565b6002546000908190600160a060020a0316331480156123425750600054600160a060020a031632145b600054909150600160a060020a03163314808061235c5750815b925050505b90565b60007f45b96fe442630264581b197e84bbada861235052c5a1aadfff9ea4e40a969aa083601181111561239357fe5b83601381111561239f57fe5b604080519283526020830191909152600082820152519081900360600190a182601181111561112057fe5b519051111590565b5190511090565b60008060006123e6612d49565b600160a060020a03881660009081526008602090815260408083208054825181850281018501909352808352849360609392919083018282801561245357602002820191906000526020600020905b8154600160a060020a03168152600190910190602001808311612435575b50939450600093505050505b81518110156127db576000828281518110151561247857fe5b90602001906020020151905080600160a060020a031663c37f68e28e6040518263ffffffff16600080516020612e1f8339815191520281526004018082600160a060020a0316600160a060020a0316815260200191505060806040518083038186803b1580156124e757600080fd5b505afa1580156124fb573d6000803e3d6000fd5b505050506040513d608081101561251157600080fd5b508051602082015160408084015160609485015160808c0152938a019390935291880191909152945084156125575750600f975060009650869550612820945050505050565b6040805160208181018352600160a060020a0380851660008181526009845285902060010154845260c08b01939093528351808301855260808b0151815260e08b01526004805485517ffc57d4df00000000000000000000000000000000000000000000000000000000815291820194909452935192169263fc57d4df9260248083019392829003018186803b1580156125f057600080fd5b505afa158015612604573d6000803e3d6000fd5b505050506040513d602081101561261a57600080fd5b505160a0870181905215156126405750600d975060009650869550612820945050505050565b604080516020810190915260a08701518152610100870181905260c087015160e088015161266d926129c6565b6101208801529350600084600381111561268357fe5b1461269f5750600b975060009650869550612820945050505050565b6126b786610120015187604001518860000151612a1e565b8752935060008460038111156126c957fe5b146126e55750600b975060009650869550612820945050505050565b6126fd86610100015187606001518860200151612a1e565b60208801529350600084600381111561271257fe5b1461272e5750600b975060009650869550612820945050505050565b8b600160a060020a031681600160a060020a031614156127d25761275c8661012001518c8860200151612a1e565b60208801529350600084600381111561277157fe5b1461278d5750600b975060009650869550612820945050505050565b6127a18661010001518b8860200151612a1e565b6020880152935060008460038111156127b657fe5b146127d25750600b975060009650869550612820945050505050565b5060010161245f565b50602084015184511115612802575050506020810151905160009450039150829050612820565b50508151602090920151600095508594509190910391506128209050565b9450945094915050565b600080600061283d8460008060006123d9565b9250925092509193909250565b6000806000612857612d13565b6128618686612a6b565b9092509050600082600381111561287457fe5b146128855750915060009050612897565b600061289082612ad3565b9350935050505b9250929050565b600160a060020a03831660009081526009602052604081205460ff1615156128c7576009611113565b600160a060020a038085166000908152600960209081526040808320938716835260029093019052205460ff161515612901576000611113565b600080611e1085878660006123d9565b600061291b612d13565b6040805160208181018352868252825190810190925284825261293d91612ae2565b915091509250929050565b6000612952612d13565b8351835161293d9190612bcb565b60007f45b96fe442630264581b197e84bbada861235052c5a1aadfff9ea4e40a969aa084601181111561298f57fe5b84601381111561299b57fe5b604080519283526020830191909152818101859052519081900360600190a183601181111561111d57fe5b60006129d0612d13565b60006129da612d13565b6129e48787612ae2565b909250905060008260038111156129f757fe5b14612a06579092509050611b23565b612a108186612ae2565b935093505050935093915050565b6000806000612a2b612d13565b612a358787612a6b565b90925090506000826003811115612a4857fe5b14612a595750915060009050611b23565b612a10612a6582612ad3565b86612c7b565b6000612a75612d13565b600080612a86866000015186612ca1565b90925090506000826003811115612a9957fe5b14612ab857506040805160208101909152600081529092509050612897565b60408051602081019091529081526000969095509350505050565b51670de0b6b3a7640000900490565b6000612aec612d13565b600080612b0186600001518660000151612ca1565b90925090506000826003811115612b1457fe5b14612b3357506040805160208101909152600081529092509050612897565b600080612b486706f05b59d3b2000084612c7b565b90925090506000826003811115612b5b57fe5b14612b7d57506040805160208101909152600081529094509250612897915050565b600080612b9283670de0b6b3a7640000612ce4565b90925090506000826003811115612ba557fe5b14612bac57fe5b604080516020810190915290815260009a909950975050505050505050565b6000612bd5612d13565b600080612bea86670de0b6b3a7640000612ca1565b90925090506000826003811115612bfd57fe5b14612c1c57506040805160208101909152600081529092509050612897565b600080612c298388612ce4565b90925090506000826003811115612c3c57fe5b14612c5e57506040805160208101909152600081529094509250612897915050565b604080516020810190915290815260009890975095505050505050565b600080838301848110612c9357600092509050612897565b506002915060009050612897565b600080831515612cb657506000905080612897565b838302838582811515612cc557fe5b0414612cd957506002915060009050612897565b600092509050612897565b600080821515612cfa5750600190506000612897565b60008385811515612d0757fe5b04915091509250929050565b60408051602081019091526000815290565b8154818355818111156112a9576000838152602090206112a9918101908301612db4565b61014060405190810160405280600081526020016000815260200160008152602001600081526020016000815260200160008152602001612d88612d13565b8152602001612d95612d13565b8152602001612da2612d13565b8152602001612daf612d13565b905290565b61236191905b80821115612dce5760008155600101612dba565b509056fe657869744d61726b65743a206765744163636f756e74536e617073686f74206661696c65646f6e6c7920756e6974726f6c6c65722061646d696e2063616e206368616e676520627261696e730000000100000000000000000000000000000000000000000000000000000000a165627a7a723058209072f9e214b3bf94b0c24bb64aac69e629293a04e71c4bed16726949832f0e530029",
  "source": "pragma solidity ^0.5.4;\n\nimport \"./CToken.sol\";\nimport \"./ErrorReporter.sol\";\nimport \"./Exponential.sol\";\nimport \"./PriceOracle.sol\";\nimport \"./ComptrollerInterface.sol\";\nimport \"./ComptrollerStorage.sol\";\nimport \"./Unitroller.sol\";\n\n/**\n * @title Compound's Comptroller Contract\n * @author Compound\n */\ncontract Comptroller is ComptrollerV1Storage, ComptrollerInterface, ComptrollerErrorReporter, Exponential {\n    struct Market {\n        /**\n         * @notice Whether or not this market is listed\n         */\n        bool isListed;\n\n        /**\n         * @notice Multiplier representing the most one can borrow against their collateral in this market.\n         *  For instance, 0.9 to allow borrowing 90% of collateral value.\n         *  Must be between 0 and 1, and stored as a mantissa.\n         */\n        uint collateralFactorMantissa;\n\n        /**\n         * @notice Per-market mapping of \"accounts in this asset\"\n         */\n        mapping(address => bool) accountMembership;\n    }\n\n    /**\n     * @notice Official mapping of cTokens -> Market metadata\n     * @dev Used e.g. to determine if a market is supported\n     */\n    mapping(address => Market) public markets;\n\n    /**\n     * @notice Emitted when an admin supports a market\n     */\n    event MarketListed(CToken cToken);\n\n    /**\n     * @notice Emitted when an account enters a market\n     */\n    event MarketEntered(CToken cToken, address account);\n\n    /**\n     * @notice Emitted when an account exits a market\n     */\n    event MarketExited(CToken cToken, address account);\n\n    /**\n     * @notice Emitted when close factor is changed by admin\n     */\n    event NewCloseFactor(uint oldCloseFactorMantissa, uint newCloseFactorMantissa);\n\n    /**\n     * @notice Emitted when a collateral factor is changed by admin\n     */\n    event NewCollateralFactor(CToken cToken, uint oldCollateralFactorMantissa, uint newCollateralFactorMantissa);\n\n    /**\n     * @notice Emitted when liquidation incentive is changed by admin\n     */\n    event NewLiquidationIncentive(uint oldLiquidationIncentiveMantissa, uint newLiquidationIncentiveMantissa);\n\n    /**\n     * @notice Emitted when maxAssets is changed by admin\n     */\n    event NewMaxAssets(uint oldMaxAssets, uint newMaxAssets);\n\n    /**\n     * @notice Emitted when price oracle is changed\n     */\n    event NewPriceOracle(PriceOracle oldPriceOracle, PriceOracle newPriceOracle);\n\n    /**\n     * @notice Indicator that this is a Comptroller contract (for inspection)\n     */\n    bool public constant isComptroller = true;\n\n    // closeFactorMantissa must be strictly greater than this value\n    uint constant closeFactorMinMantissa = 5e16; // 0.05\n\n    // closeFactorMantissa must not exceed this value\n    uint constant closeFactorMaxMantissa = 9e17; // 0.9\n\n    // No collateralFactorMantissa may exceed this value\n    uint constant collateralFactorMaxMantissa = 9e17; // 0.9\n\n    // liquidationIncentiveMantissa must be no less than this value\n    uint constant liquidationIncentiveMinMantissa = mantissaOne;\n\n    // liquidationIncentiveMantissa must be no greater than this value\n    uint constant liquidationIncentiveMaxMantissa = 15e17; // 1.5\n\n    constructor() public {\n        admin = msg.sender;\n    }\n\n    /*** Assets You Are In ***/\n\n    /**\n     * @notice Returns the assets an account has entered\n     * @param account The address of the account to pull assets for\n     * @return A dynamic list with the assets the account has entered\n     */\n    function getAssetsIn(address account) external view returns (CToken[] memory) {\n        CToken[] memory assetsIn = accountAssets[account];\n\n        return assetsIn;\n    }\n\n    /**\n     * @notice Returns whether the given account is entered in the given asset\n     * @param account The address of the account to check\n     * @param cToken The cToken to check\n     * @return True if the account is in the asset, otherwise false.\n     */\n    function checkMembership(address account, CToken cToken) external view returns (bool) {\n        return markets[address(cToken)].accountMembership[account];\n    }\n\n    /**\n     * @notice Add assets to be included in account liquidity calculation\n     * @param cTokens The list of addresses of the cToken markets to be enabled\n     * @return Success indicator for whether each corresponding market was entered\n     */\n    function enterMarkets(address[] memory cTokens) public returns (uint[] memory) {\n        uint len = cTokens.length;\n\n        uint[] memory results = new uint[](len);\n        for (uint i = 0; i < len; i++) {\n            CToken cToken = CToken(cTokens[i]);\n            Market storage marketToJoin = markets[address(cToken)];\n\n            if (!marketToJoin.isListed) {\n                // if market is not listed, cannot join move along\n                results[i] = uint(Error.MARKET_NOT_LISTED);\n                continue;\n            }\n\n            if (marketToJoin.accountMembership[msg.sender] == true) {\n                // if already joined, move along\n                results[i] = uint(Error.NO_ERROR);\n                continue;\n            }\n\n            if (accountAssets[msg.sender].length >= maxAssets)  {\n                // if no space, cannot join, move along\n                results[i] = uint(Error.TOO_MANY_ASSETS);\n                continue;\n            }\n\n            // survived the gauntlet, add to list\n            // NOTE: we store these somewhat redundantly as a significant optimization\n            //  this avoids having to iterate through the list for the most common use cases\n            //  that is, only when we need to perform liquidity checks\n            //   and not whenever we want to check if an account is in a particular market\n            marketToJoin.accountMembership[msg.sender] = true;\n            accountAssets[msg.sender].push(cToken);\n\n            emit MarketEntered(cToken, msg.sender);\n\n            results[i] = uint(Error.NO_ERROR);\n        }\n\n        return results;\n    }\n\n    /**\n     * @notice Removes asset from sender's account liquidity calculation\n     * @dev Sender must not have an outstanding borrow balance in the asset,\n     *  or be providing neccessary collateral for an outstanding borrow.\n     * @param cTokenAddress The address of the asset to be removed\n     * @return Whether or not the account successfully exited the market\n     */\n    function exitMarket(address cTokenAddress) external returns (uint) {\n        CToken cToken = CToken(cTokenAddress);\n        /* Get sender tokensHeld and amountOwed underlying from the cToken */\n        (uint oErr, uint tokensHeld, uint amountOwed, ) = cToken.getAccountSnapshot(msg.sender);\n        require(oErr == 0, \"exitMarket: getAccountSnapshot failed\"); // semi-opaque error code\n\n        /* Fail if the sender has a borrow balance */\n        if (amountOwed != 0) {\n            return fail(Error.NONZERO_BORROW_BALANCE, FailureInfo.EXIT_MARKET_BALANCE_OWED);\n        }\n\n        /* Fail if the sender is not permitted to redeem all of their tokens */\n        uint allowed = redeemAllowedInternal(cTokenAddress, msg.sender, tokensHeld);\n        if (allowed != 0) {\n            return failOpaque(Error.REJECTION, FailureInfo.EXIT_MARKET_REJECTION, allowed);\n        }\n\n        Market storage marketToExit = markets[address(cToken)];\n\n        /* Return true if the sender is not already in the market */\n        if (!marketToExit.accountMembership[msg.sender]) {\n            return uint(Error.NO_ERROR);\n        }\n\n        /* Set cToken account membership to false */\n        delete marketToExit.accountMembership[msg.sender];\n\n        /* Delete cToken from the accounts list of assets */\n        // load into memory for faster iteration\n        CToken[] memory userAssetList = accountAssets[msg.sender];\n        uint len = userAssetList.length;\n        uint assetIndex = len;\n        for (uint i = 0; i < len; i++) {\n            if (userAssetList[i] == cToken) {\n                assetIndex = i;\n                break;\n            }\n        }\n\n        // We *must* have found the asset in the list or our redundant data structure is broken\n        assert(assetIndex < len);\n\n        // copy last item in list to location of item to be removed, reduce length by 1\n        CToken[] storage storedList = accountAssets[msg.sender];\n        storedList[assetIndex] = storedList[storedList.length - 1];\n        storedList.length--;\n\n        emit MarketExited(cToken, msg.sender);\n\n        return uint(Error.NO_ERROR);\n    }\n\n    /*** Policy Hooks ***/\n\n    /**\n     * @notice Checks if the account should be allowed to mint tokens in the given market\n     * @param cToken The market to verify the mint against\n     * @param minter The account which would get the minted tokens\n     * @param mintAmount The amount of underlying being supplied to the market in exchange for tokens\n     * @return 0 if the mint is allowed, otherwise a semi-opaque error code (See ErrorReporter.sol)\n     */\n    function mintAllowed(address cToken, address minter, uint mintAmount) external returns (uint) {\n        minter;       // currently unused\n        mintAmount;   // currently unused\n\n        if (!markets[cToken].isListed) {\n            return uint(Error.MARKET_NOT_LISTED);\n        }\n\n        // *may include Policy Hook-type checks\n\n        return uint(Error.NO_ERROR);\n    }\n\n    /**\n     * @notice Validates mint and reverts on rejection. May emit logs.\n     * @param cToken Asset being minted\n     * @param minter The address minting the tokens\n     * @param mintAmount The amount of the underlying asset being minted\n     * @param mintTokens The number of tokens being minted\n     */\n    function mintVerify(address cToken, address minter, uint mintAmount, uint mintTokens) external {\n        cToken;       // currently unused\n        minter;       // currently unused\n        mintAmount;   // currently unused\n        mintTokens;   // currently unused\n\n        if (false) {\n            maxAssets = maxAssets; // not pure\n        }\n    }\n\n    /**\n     * @notice Checks if the account should be allowed to redeem tokens in the given market\n     * @param cToken The market to verify the redeem against\n     * @param redeemer The account which would redeem the tokens\n     * @param redeemTokens The number of cTokens to exchange for the underlying asset in the market\n     * @return 0 if the redeem is allowed, otherwise a semi-opaque error code (See ErrorReporter.sol)\n     */\n    function redeemAllowed(address cToken, address redeemer, uint redeemTokens) external returns (uint) {\n        return redeemAllowedInternal(cToken, redeemer, redeemTokens);\n    }\n\n    function redeemAllowedInternal(address cToken, address redeemer, uint redeemTokens) internal view returns (uint) {\n        if (!markets[cToken].isListed) {\n            return uint(Error.MARKET_NOT_LISTED);\n        }\n\n        // *may include Policy Hook-type checks\n\n        /* If the redeemer is not 'in' the market, then we can bypass the liquidity check */\n        if (!markets[cToken].accountMembership[redeemer]) {\n            return uint(Error.NO_ERROR);\n        }\n\n        /* Otherwise, perform a hypothetical liquidity check to guard against shortfall */\n        (Error err, , uint shortfall) = getHypotheticalAccountLiquidityInternal(redeemer, CToken(cToken), redeemTokens, 0);\n        if (err != Error.NO_ERROR) {\n            return uint(err);\n        }\n        if (shortfall > 0) {\n            return uint(Error.INSUFFICIENT_LIQUIDITY);\n        }\n\n        return uint(Error.NO_ERROR);\n    }\n\n    /**\n     * @notice Validates redeem and reverts on rejection. May emit logs.\n     * @param cToken Asset being redeemed\n     * @param redeemer The address redeeming the tokens\n     * @param redeemAmount The amount of the underlying asset being redeemed\n     * @param redeemTokens The number of tokens being redeemed\n     */\n    function redeemVerify(address cToken, address redeemer, uint redeemAmount, uint redeemTokens) external {\n        cToken;         // currently unused\n        redeemer;       // currently unused\n        redeemAmount;   // currently unused\n        redeemTokens;   // currently unused\n\n        if (false) {\n            maxAssets = maxAssets; // not pure\n        }\n    }\n\n    /**\n     * @notice Checks if the account should be allowed to borrow the underlying asset of the given market\n     * @param cToken The market to verify the borrow against\n     * @param borrower The account which would borrow the asset\n     * @param borrowAmount The amount of underlying the account would borrow\n     * @return 0 if the borrow is allowed, otherwise a semi-opaque error code (See ErrorReporter.sol)\n     */\n    function borrowAllowed(address cToken, address borrower, uint borrowAmount) external returns (uint) {\n        if (!markets[cToken].isListed) {\n            return uint(Error.MARKET_NOT_LISTED);\n        }\n\n        // *may include Policy Hook-type checks\n\n        if (!markets[cToken].accountMembership[borrower]) {\n            return uint(Error.MARKET_NOT_ENTERED);\n        }\n\n        if (oracle.getUnderlyingPrice(CToken(cToken)) == 0) {\n            return uint(Error.PRICE_ERROR);\n        }\n\n        (Error err, , uint shortfall) = getHypotheticalAccountLiquidityInternal(borrower, CToken(cToken), 0, borrowAmount);\n        if (err != Error.NO_ERROR) {\n            return uint(err);\n        }\n        if (shortfall > 0) {\n            return uint(Error.INSUFFICIENT_LIQUIDITY);\n        }\n\n        return uint(Error.NO_ERROR);\n    }\n\n    /**\n     * @notice Validates borrow and reverts on rejection. May emit logs.\n     * @param cToken Asset whose underlying is being borrowed\n     * @param borrower The address borrowing the underlying\n     * @param borrowAmount The amount of the underlying asset requested to borrow\n     */\n    function borrowVerify(address cToken, address borrower, uint borrowAmount) external {\n        cToken;         // currently unused\n        borrower;       // currently unused\n        borrowAmount;   // currently unused\n\n        if (false) {\n            maxAssets = maxAssets; // not pure\n        }\n    }\n\n    /**\n     * @notice Checks if the account should be allowed to repay a borrow in the given market\n     * @param cToken The market to verify the repay against\n     * @param payer The account which would repay the asset\n     * @param borrower The account which would borrowed the asset\n     * @param repayAmount The amount of the underlying asset the account would repay\n     * @return 0 if the repay is allowed, otherwise a semi-opaque error code (See ErrorReporter.sol)\n     */\n    function repayBorrowAllowed(\n        address cToken,\n        address payer,\n        address borrower,\n        uint repayAmount) external returns (uint) {\n        payer;         // currently unused\n        borrower;      // currently unused\n        repayAmount;   // currently unused\n\n        if (!markets[cToken].isListed) {\n            return uint(Error.MARKET_NOT_LISTED);\n        }\n\n        // *may include Policy Hook-type checks\n\n        return uint(Error.NO_ERROR);\n    }\n\n    /**\n     * @notice Validates repayBorrow and reverts on rejection. May emit logs.\n     * @param cToken Asset being repaid\n     * @param payer The address repaying the borrow\n     * @param borrower The address of the borrower\n     * @param repayAmount The amount of underlying being repaid\n     */\n    function repayBorrowVerify(\n        address cToken,\n        address payer,\n        address borrower,\n        uint repayAmount,\n        uint borrowerIndex) external {\n        cToken;        // currently unused\n        payer;         // currently unused\n        borrower;      // currently unused\n        repayAmount;   // currently unused\n        borrowerIndex; // currently unused\n\n        if (false) {\n            maxAssets = maxAssets; // not pure\n        }\n    }\n\n    /**\n     * @notice Checks if the liquidation should be allowed to occur\n     * @param cTokenBorrowed Asset which was borrowed by the borrower\n     * @param cTokenCollateral Asset which was used as collateral and will be seized\n     * @param liquidator The address repaying the borrow and seizing the collateral\n     * @param borrower The address of the borrower\n     * @param repayAmount The amount of underlying being repaid\n     */\n    function liquidateBorrowAllowed(\n        address cTokenBorrowed,\n        address cTokenCollateral,\n        address liquidator,\n        address borrower,\n        uint repayAmount) external returns (uint) {\n        liquidator;   // currently unused\n        borrower;     // currently unused\n        repayAmount;  // currently unused\n\n        if (!markets[cTokenBorrowed].isListed || !markets[cTokenCollateral].isListed) {\n            return uint(Error.MARKET_NOT_LISTED);\n        }\n\n        // *may include Policy Hook-type checks\n\n        /* The borrower must have shortfall in order to be liquidatable */\n        (Error err, , uint shortfall) = getAccountLiquidityInternal(borrower);\n        if (err != Error.NO_ERROR) {\n            return uint(err);\n        }\n        if (shortfall == 0) {\n            return uint(Error.INSUFFICIENT_SHORTFALL);\n        }\n\n        /* The liquidator may not repay more than what is allowed by the closeFactor */\n        uint borrowBalance = CToken(cTokenBorrowed).borrowBalanceStored(borrower);\n        (MathError mathErr, uint maxClose) = mulScalarTruncate(Exp({mantissa: closeFactorMantissa}), borrowBalance);\n        if (mathErr != MathError.NO_ERROR) {\n            return uint(Error.MATH_ERROR);\n        }\n        if (repayAmount > maxClose) {\n            return uint(Error.TOO_MUCH_REPAY);\n        }\n\n        return uint(Error.NO_ERROR);\n    }\n\n    /**\n     * @notice Validates liquidateBorrow and reverts on rejection. May emit logs.\n     * @param cTokenBorrowed Asset which was borrowed by the borrower\n     * @param cTokenCollateral Asset which was used as collateral and will be seized\n     * @param liquidator The address repaying the borrow and seizing the collateral\n     * @param borrower The address of the borrower\n     * @param repayAmount The amount of underlying being repaid\n     */\n    function liquidateBorrowVerify(\n        address cTokenBorrowed,\n        address cTokenCollateral,\n        address liquidator,\n        address borrower,\n        uint repayAmount,\n        uint seizeTokens) external {\n        cTokenBorrowed;   // currently unused\n        cTokenCollateral; // currently unused\n        liquidator;       // currently unused\n        borrower;         // currently unused\n        repayAmount;      // currently unused\n        seizeTokens;      // currently unused\n\n        if (false) {\n            maxAssets = maxAssets; // not pure\n        }\n    }\n\n    /**\n     * @notice Checks if the seizing of assets should be allowed to occur\n     * @param cTokenCollateral Asset which was used as collateral and will be seized\n     * @param cTokenBorrowed Asset which was borrowed by the borrower\n     * @param liquidator The address repaying the borrow and seizing the collateral\n     * @param borrower The address of the borrower\n     * @param seizeTokens The number of collateral tokens to seize\n     */\n    function seizeAllowed(\n        address cTokenCollateral,\n        address cTokenBorrowed,\n        address liquidator,\n        address borrower,\n        uint seizeTokens) external returns (uint) {\n        liquidator;       // currently unused\n        borrower;         // currently unused\n        seizeTokens;      // currently unused\n\n        if (!markets[cTokenCollateral].isListed || !markets[cTokenBorrowed].isListed) {\n            return uint(Error.MARKET_NOT_LISTED);\n        }\n\n        if (CToken(cTokenCollateral).comptroller() != CToken(cTokenBorrowed).comptroller()) {\n            return uint(Error.COMPTROLLER_MISMATCH);\n        }\n\n        // *may include Policy Hook-type checks\n\n        return uint(Error.NO_ERROR);\n    }\n\n    /**\n     * @notice Validates seize and reverts on rejection. May emit logs.\n     * @param cTokenCollateral Asset which was used as collateral and will be seized\n     * @param cTokenBorrowed Asset which was borrowed by the borrower\n     * @param liquidator The address repaying the borrow and seizing the collateral\n     * @param borrower The address of the borrower\n     * @param seizeTokens The number of collateral tokens to seize\n     */\n    function seizeVerify(\n        address cTokenCollateral,\n        address cTokenBorrowed,\n        address liquidator,\n        address borrower,\n        uint seizeTokens) external {\n        cTokenCollateral; // currently unused\n        cTokenBorrowed;   // currently unused\n        liquidator;       // currently unused\n        borrower;         // currently unused\n        seizeTokens;      // currently unused\n\n        if (false) {\n            maxAssets = maxAssets; // not pure\n        }\n    }\n\n    /**\n     * @notice Checks if the account should be allowed to transfer tokens in the given market\n     * @param cToken The market to verify the transfer against\n     * @param src The account which sources the tokens\n     * @param dst The account which receives the tokens\n     * @param transferTokens The number of cTokens to transfer\n     * @return 0 if the transfer is allowed, otherwise a semi-opaque error code (See ErrorReporter.sol)\n     */\n    function transferAllowed(address cToken, address src, address dst, uint transferTokens) external returns (uint) {\n        cToken;         // currently unused\n        src;            // currently unused\n        dst;            // currently unused\n        transferTokens; // currently unused\n\n        // *may include Policy Hook-type checks\n\n        // Currently the only consideration is whether or not\n        //  the src is allowed to redeem this many tokens\n        return redeemAllowedInternal(cToken, src, transferTokens);\n    }\n\n    /**\n     * @notice Validates transfer and reverts on rejection. May emit logs.\n     * @param cToken Asset being transferred\n     * @param src The account which sources the tokens\n     * @param dst The account which receives the tokens\n     * @param transferTokens The number of cTokens to transfer\n     */\n    function transferVerify(address cToken, address src, address dst, uint transferTokens) external {\n        cToken;         // currently unused\n        src;            // currently unused\n        dst;            // currently unused\n        transferTokens; // currently unused\n\n        if (false) {\n            maxAssets = maxAssets; // not pure\n        }\n    }\n\n    /*** Liquidity/Liquidation Calculations ***/\n\n    /**\n     * @dev Local vars for avoiding stack-depth limits in calculating account liquidity.\n     *  Note that `cTokenBalance` is the number of cTokens the account owns in the market,\n     *  whereas `borrowBalance` is the amount of underlying that the account has borrowed.\n     */\n    struct AccountLiquidityLocalVars {\n        uint sumCollateral;\n        uint sumBorrowPlusEffects;\n        uint cTokenBalance;\n        uint borrowBalance;\n        uint exchangeRateMantissa;\n        uint oraclePriceMantissa;\n        Exp collateralFactor;\n        Exp exchangeRate;\n        Exp oraclePrice;\n        Exp tokensToEther;\n    }\n\n    /**\n     * @notice Determine the current account liquidity wrt collateral requirements\n     * @return (possible error code (semi-opaque),\n                account liquidity in excess of collateral requirements,\n     *          account shortfall below collateral requirements)\n     */\n    function getAccountLiquidity(address account) public view returns (uint, uint, uint) {\n        (Error err, uint liquidity, uint shortfall) = getHypotheticalAccountLiquidityInternal(account, CToken(0), 0, 0);\n\n        return (uint(err), liquidity, shortfall);\n    }\n\n    /**\n     * @notice Determine the current account liquidity wrt collateral requirements\n     * @return (possible error code,\n                account liquidity in excess of collateral requirements,\n     *          account shortfall below collateral requirements)\n     */\n    function getAccountLiquidityInternal(address account) internal view returns (Error, uint, uint) {\n        return getHypotheticalAccountLiquidityInternal(account, CToken(0), 0, 0);\n    }\n\n    /**\n     * @notice Determine what the account liquidity would be if the given amounts were redeemed/borrowed\n     * @param cTokenModify The market to hypothetically redeem/borrow in\n     * @param account The account to determine liquidity for\n     * @param redeemTokens The number of tokens to hypothetically redeem\n     * @param borrowAmount The amount of underlying to hypothetically borrow\n     * @dev Note that we calculate the exchangeRateStored for each collateral cToken using stored data,\n     *  without calculating accumulated interest.\n     * @return (possible error code,\n                hypothetical account liquidity in excess of collateral requirements,\n     *          hypothetical account shortfall below collateral requirements)\n     */\n    function getHypotheticalAccountLiquidityInternal(\n        address account,\n        CToken cTokenModify,\n        uint redeemTokens,\n        uint borrowAmount) internal view returns (Error, uint, uint) {\n\n        AccountLiquidityLocalVars memory vars; // Holds all our calculation results\n        uint oErr;\n        MathError mErr;\n\n        // For each asset the account is in\n        CToken[] memory assets = accountAssets[account];\n        for (uint i = 0; i < assets.length; i++) {\n            CToken asset = assets[i];\n\n            // Read the balances and exchange rate from the cToken\n            (oErr, vars.cTokenBalance, vars.borrowBalance, vars.exchangeRateMantissa) = asset.getAccountSnapshot(account);\n            if (oErr != 0) { // semi-opaque error code, we assume NO_ERROR == 0 is invariant between upgrades\n                return (Error.SNAPSHOT_ERROR, 0, 0);\n            }\n            vars.collateralFactor = Exp({mantissa: markets[address(asset)].collateralFactorMantissa});\n            vars.exchangeRate = Exp({mantissa: vars.exchangeRateMantissa});\n\n            // Get the normalized price of the asset\n            vars.oraclePriceMantissa = oracle.getUnderlyingPrice(asset);\n            if (vars.oraclePriceMantissa == 0) {\n                return (Error.PRICE_ERROR, 0, 0);\n            }\n            vars.oraclePrice = Exp({mantissa: vars.oraclePriceMantissa});\n\n            // Pre-compute a conversion factor from tokens -> ether (normalized price value)\n            (mErr, vars.tokensToEther) = mulExp3(vars.collateralFactor, vars.exchangeRate, vars.oraclePrice);\n            if (mErr != MathError.NO_ERROR) {\n                return (Error.MATH_ERROR, 0, 0);\n            }\n\n            // sumCollateral += tokensToEther * cTokenBalance\n            (mErr, vars.sumCollateral) = mulScalarTruncateAddUInt(vars.tokensToEther, vars.cTokenBalance, vars.sumCollateral);\n            if (mErr != MathError.NO_ERROR) {\n                return (Error.MATH_ERROR, 0, 0);\n            }\n\n            // sumBorrowPlusEffects += oraclePrice * borrowBalance\n            (mErr, vars.sumBorrowPlusEffects) = mulScalarTruncateAddUInt(vars.oraclePrice, vars.borrowBalance, vars.sumBorrowPlusEffects);\n            if (mErr != MathError.NO_ERROR) {\n                return (Error.MATH_ERROR, 0, 0);\n            }\n\n            // Calculate effects of interacting with cTokenModify\n            if (asset == cTokenModify) {\n                // redeem effect\n                // sumBorrowPlusEffects += tokensToEther * redeemTokens\n                (mErr, vars.sumBorrowPlusEffects) = mulScalarTruncateAddUInt(vars.tokensToEther, redeemTokens, vars.sumBorrowPlusEffects);\n                if (mErr != MathError.NO_ERROR) {\n                    return (Error.MATH_ERROR, 0, 0);\n                }\n\n                // borrow effect\n                // sumBorrowPlusEffects += oraclePrice * borrowAmount\n                (mErr, vars.sumBorrowPlusEffects) = mulScalarTruncateAddUInt(vars.oraclePrice, borrowAmount, vars.sumBorrowPlusEffects);\n                if (mErr != MathError.NO_ERROR) {\n                    return (Error.MATH_ERROR, 0, 0);\n                }\n            }\n        }\n\n        // These are safe, as the underflow condition is checked first\n        if (vars.sumCollateral > vars.sumBorrowPlusEffects) {\n            return (Error.NO_ERROR, vars.sumCollateral - vars.sumBorrowPlusEffects, 0);\n        } else {\n            return (Error.NO_ERROR, 0, vars.sumBorrowPlusEffects - vars.sumCollateral);\n        }\n    }\n\n    /**\n     * @notice Calculate number of tokens of collateral asset to seize given an underlying amount\n     * @dev Used in liquidation (called in cToken.liquidateBorrowFresh)\n     * @param cTokenBorrowed The address of the borrowed cToken\n     * @param cTokenCollateral The address of the collateral cToken\n     * @param repayAmount The amount of cTokenBorrowed underlying to convert into cTokenCollateral tokens\n     * @return (errorCode, number of cTokenCollateral tokens to be seized in a liquidation)\n     */\n    function liquidateCalculateSeizeTokens(address cTokenBorrowed, address cTokenCollateral, uint repayAmount) external view returns (uint, uint) {\n        /* Read oracle prices for borrowed and collateral markets */\n        uint priceBorrowedMantissa = oracle.getUnderlyingPrice(CToken(cTokenBorrowed));\n        uint priceCollateralMantissa = oracle.getUnderlyingPrice(CToken(cTokenCollateral));\n        if (priceBorrowedMantissa == 0 || priceCollateralMantissa == 0) {\n            return (uint(Error.PRICE_ERROR), 0);\n        }\n\n        /*\n         * Get the exchange rate and calculate the number of collateral tokens to seize:\n         *  seizeAmount = repayAmount * liquidationIncentive * priceBorrowed / priceCollateral\n         *  seizeTokens = seizeAmount / exchangeRate\n         *   = repayAmount * (liquidationIncentive * priceBorrowed) / (priceCollateral * exchangeRate)\n         */\n        uint exchangeRateMantissa = CToken(cTokenCollateral).exchangeRateStored(); // Note: reverts on error\n        uint seizeTokens;\n        Exp memory numerator;\n        Exp memory denominator;\n        Exp memory ratio;\n        MathError mathErr;\n\n        (mathErr, numerator) = mulExp(liquidationIncentiveMantissa, priceBorrowedMantissa);\n        if (mathErr != MathError.NO_ERROR) {\n            return (uint(Error.MATH_ERROR), 0);\n        }\n\n        (mathErr, denominator) = mulExp(priceCollateralMantissa, exchangeRateMantissa);\n        if (mathErr != MathError.NO_ERROR) {\n            return (uint(Error.MATH_ERROR), 0);\n        }\n\n        (mathErr, ratio) = divExp(numerator, denominator);\n        if (mathErr != MathError.NO_ERROR) {\n            return (uint(Error.MATH_ERROR), 0);\n        }\n\n        (mathErr, seizeTokens) = mulScalarTruncate(ratio, repayAmount);\n        if (mathErr != MathError.NO_ERROR) {\n            return (uint(Error.MATH_ERROR), 0);\n        }\n\n        return (uint(Error.NO_ERROR), seizeTokens);\n    }\n\n    /*** Admin Functions ***/\n\n    /**\n      * @notice Sets a new price oracle for the comptroller\n      * @dev Admin function to set a new price oracle\n      * @return uint 0=success, otherwise a failure (see ErrorReporter.sol for details)\n      */\n    function _setPriceOracle(PriceOracle newOracle) public returns (uint) {\n        // Check caller is admin OR currently initialzing as new unitroller implementation\n        if (!adminOrInitializing()) {\n            return fail(Error.UNAUTHORIZED, FailureInfo.SET_PRICE_ORACLE_OWNER_CHECK);\n        }\n\n        // Track the old oracle for the comptroller\n        PriceOracle oldOracle = oracle;\n\n        // Ensure invoke newOracle.isPriceOracle() returns true\n        // require(newOracle.isPriceOracle(), \"oracle method isPriceOracle returned false\");\n\n        // Set comptroller's oracle to newOracle\n        oracle = newOracle;\n\n        // Emit NewPriceOracle(oldOracle, newOracle)\n        emit NewPriceOracle(oldOracle, newOracle);\n\n        return uint(Error.NO_ERROR);\n    }\n\n    /**\n      * @notice Sets the closeFactor used when liquidating borrows\n      * @dev Admin function to set closeFactor\n      * @param newCloseFactorMantissa New close factor, scaled by 1e18\n      * @return uint 0=success, otherwise a failure. (See ErrorReporter for details)\n      */\n    function _setCloseFactor(uint newCloseFactorMantissa) external returns (uint256) {\n        // Check caller is admin OR currently initialzing as new unitroller implementation\n        if (!adminOrInitializing()) {\n            return fail(Error.UNAUTHORIZED, FailureInfo.SET_CLOSE_FACTOR_OWNER_CHECK);\n        }\n\n        Exp memory newCloseFactorExp = Exp({mantissa: newCloseFactorMantissa});\n        Exp memory lowLimit = Exp({mantissa: closeFactorMinMantissa});\n        if (lessThanOrEqualExp(newCloseFactorExp, lowLimit)) {\n            return fail(Error.INVALID_CLOSE_FACTOR, FailureInfo.SET_CLOSE_FACTOR_VALIDATION);\n        }\n\n        Exp memory highLimit = Exp({mantissa: closeFactorMaxMantissa});\n        if (lessThanExp(highLimit, newCloseFactorExp)) {\n            return fail(Error.INVALID_CLOSE_FACTOR, FailureInfo.SET_CLOSE_FACTOR_VALIDATION);\n        }\n\n        uint oldCloseFactorMantissa = closeFactorMantissa;\n        closeFactorMantissa = newCloseFactorMantissa;\n        emit NewCloseFactor(oldCloseFactorMantissa, closeFactorMantissa);\n\n        return uint(Error.NO_ERROR);\n    }\n\n    /**\n      * @notice Sets the collateralFactor for a market\n      * @dev Admin function to set per-market collateralFactor\n      * @param cToken The market to set the factor on\n      * @param newCollateralFactorMantissa The new collateral factor, scaled by 1e18\n      * @return uint 0=success, otherwise a failure. (See ErrorReporter for details)\n      */\n    function _setCollateralFactor(CToken cToken, uint newCollateralFactorMantissa) external returns (uint256) {\n        // Check caller is admin\n        if (msg.sender != admin) {\n            return fail(Error.UNAUTHORIZED, FailureInfo.SET_COLLATERAL_FACTOR_OWNER_CHECK);\n        }\n\n        // Verify market is listed\n        Market storage market = markets[address(cToken)];\n        if (!market.isListed) {\n            return fail(Error.MARKET_NOT_LISTED, FailureInfo.SET_COLLATERAL_FACTOR_NO_EXISTS);\n        }\n\n        Exp memory newCollateralFactorExp = Exp({mantissa: newCollateralFactorMantissa});\n\n        // Check collateral factor <= 0.9\n        Exp memory highLimit = Exp({mantissa: collateralFactorMaxMantissa});\n        if (lessThanExp(highLimit, newCollateralFactorExp)) {\n            return fail(Error.INVALID_COLLATERAL_FACTOR, FailureInfo.SET_COLLATERAL_FACTOR_VALIDATION);\n        }\n\n        // If collateral factor != 0, fail if price == 0\n        /* NOTE: For some reason we need to comment this to deploy on Ganache */\n        // if (newCollateralFactorMantissa != 0 && oracle.getUnderlyingPrice(cToken) == 0) {\n        //     return fail(Error.PRICE_ERROR, FailureInfo.SET_COLLATERAL_FACTOR_WITHOUT_PRICE);\n        // }\n\n        // Set market's collateral factor to new collateral factor, remember old value\n        uint oldCollateralFactorMantissa = market.collateralFactorMantissa;\n        market.collateralFactorMantissa = newCollateralFactorMantissa;\n\n        // Emit event with asset, old collateral factor, and new collateral factor\n        emit NewCollateralFactor(cToken, oldCollateralFactorMantissa, newCollateralFactorMantissa);\n\n        return uint(Error.NO_ERROR);\n    }\n\n    /**\n      * @notice Sets maxAssets which controls how many markets can be entered\n      * @dev Admin function to set maxAssets\n      * @param newMaxAssets New max assets\n      * @return uint 0=success, otherwise a failure. (See ErrorReporter for details)\n      */\n    function _setMaxAssets(uint newMaxAssets) external returns (uint) {\n        // Check caller is admin OR currently initialzing as new unitroller implementation\n        if (!adminOrInitializing()) {\n            return fail(Error.UNAUTHORIZED, FailureInfo.SET_MAX_ASSETS_OWNER_CHECK);\n        }\n\n        uint oldMaxAssets = maxAssets;\n        maxAssets = newMaxAssets;\n        emit NewMaxAssets(oldMaxAssets, newMaxAssets);\n\n        return uint(Error.NO_ERROR);\n    }\n\n    /**\n      * @notice Sets liquidationIncentive\n      * @dev Admin function to set liquidationIncentive\n      * @param newLiquidationIncentiveMantissa New liquidationIncentive scaled by 1e18\n      * @return uint 0=success, otherwise a failure. (See ErrorReporter for details)\n      */\n    function _setLiquidationIncentive(uint newLiquidationIncentiveMantissa) external returns (uint) {\n        // Check caller is admin OR currently initialzing as new unitroller implementation\n        if (!adminOrInitializing()) {\n            return fail(Error.UNAUTHORIZED, FailureInfo.SET_LIQUIDATION_INCENTIVE_OWNER_CHECK);\n        }\n\n        // Check de-scaled 1 <= newLiquidationDiscount <= 1.5\n        Exp memory newLiquidationIncentive = Exp({mantissa: newLiquidationIncentiveMantissa});\n        Exp memory minLiquidationIncentive = Exp({mantissa: liquidationIncentiveMinMantissa});\n        if (lessThanExp(newLiquidationIncentive, minLiquidationIncentive)) {\n            return fail(Error.INVALID_LIQUIDATION_INCENTIVE, FailureInfo.SET_LIQUIDATION_INCENTIVE_VALIDATION);\n        }\n\n        Exp memory maxLiquidationIncentive = Exp({mantissa: liquidationIncentiveMaxMantissa});\n        if (lessThanExp(maxLiquidationIncentive, newLiquidationIncentive)) {\n            return fail(Error.INVALID_LIQUIDATION_INCENTIVE, FailureInfo.SET_LIQUIDATION_INCENTIVE_VALIDATION);\n        }\n\n        // Save current value for use in log\n        uint oldLiquidationIncentiveMantissa = liquidationIncentiveMantissa;\n\n        // Set liquidation incentive to new incentive\n        liquidationIncentiveMantissa = newLiquidationIncentiveMantissa;\n\n        // Emit event with old incentive, new incentive\n        emit NewLiquidationIncentive(oldLiquidationIncentiveMantissa, newLiquidationIncentiveMantissa);\n\n        return uint(Error.NO_ERROR);\n    }\n\n    /**\n      * @notice Add the market to the markets mapping and set it as listed\n      * @dev Admin function to set isListed and add support for the market\n      * @param cToken The address of the market (token) to list\n      * @return uint 0=success, otherwise a failure. (See enum Error for details)\n      */\n    function _supportMarket(CToken cToken) external returns (uint) {\n        if (msg.sender != admin) {\n            return fail(Error.UNAUTHORIZED, FailureInfo.SUPPORT_MARKET_OWNER_CHECK);\n        }\n\n        if (markets[address(cToken)].isListed) {\n            return fail(Error.MARKET_ALREADY_LISTED, FailureInfo.SUPPORT_MARKET_EXISTS);\n        }\n\n        cToken.isCToken(); // Sanity check to make sure its really a CToken\n\n        markets[address(cToken)] = Market({isListed: true, collateralFactorMantissa: 0});\n        emit MarketListed(cToken);\n\n        return uint(Error.NO_ERROR);\n    }\n\n    function _become(Unitroller unitroller, PriceOracle _oracle, uint _closeFactorMantissa, uint _maxAssets, bool reinitializing) public {\n        require(msg.sender == unitroller.admin(), \"only unitroller admin can change brains\");\n        uint changeStatus = unitroller._acceptImplementation();\n\n        require(changeStatus == 0, \"change not authorized\");\n\n        if (!reinitializing) {\n            Comptroller freshBrainedComptroller = Comptroller(address(unitroller));\n\n            // Ensure invoke _setPriceOracle() = 0\n            uint err = freshBrainedComptroller._setPriceOracle(_oracle);\n            require (err == uint(Error.NO_ERROR), \"set price oracle error\");\n\n            // Ensure invoke _setCloseFactor() = 0\n            err = freshBrainedComptroller._setCloseFactor(_closeFactorMantissa);\n            require (err == uint(Error.NO_ERROR), \"set close factor error\");\n\n            // Ensure invoke _setMaxAssets() = 0\n            err = freshBrainedComptroller._setMaxAssets(_maxAssets);\n            require (err == uint(Error.NO_ERROR), \"set max asssets error\");\n\n            // Ensure invoke _setLiquidationIncentive(liquidationIncentiveMinMantissa) = 0\n            err = freshBrainedComptroller._setLiquidationIncentive(liquidationIncentiveMinMantissa);\n            require (err == uint(Error.NO_ERROR), \"set liquidation incentive error\");\n        }\n    }\n\n    /**\n     * @dev Check that caller is admin or this contract is initializing itself as\n     * the new implementation.\n     * There should be no way to satisfy msg.sender == comptrollerImplementaiton\n     * without tx.origin also being admin, but both are included for extra safety\n     */\n    function adminOrInitializing() internal view returns (bool) {\n        bool initializing = (\n                msg.sender == comptrollerImplementation\n                &&\n                //solium-disable-next-line security/no-tx-origin\n                tx.origin == admin\n        );\n        bool isAdmin = msg.sender == admin;\n        return isAdmin || initializing;\n    }\n}\n",
  "sourcePath": "/Users/name/dev/smartcontracts/contracts/test/compound/Comptroller.sol",
  "compiler": {
    "name": "solc",
    "version": "0.5.4+commit.9549d8ff.Emscripten.clang",
    "optimizer": true,
    "runs": 999
  },
  "schemaVersion": "2.3.1",
  "updatedAt": "2020-04-01T21:49:53.574Z"
}