{
  "contractName": "CompoundRegistry",
  "abi": [
    {
      "constant": true,
      "inputs": [],
      "name": "owner",
      "outputs": [
        {
          "name": "",
          "type": "address"
        }
      ],
      "payable": false,
      "stateMutability": "view",
      "type": "function"
    },
    {
      "constant": false,
      "inputs": [
        {
          "name": "_newOwner",
          "type": "address"
        }
      ],
      "name": "changeOwner",
      "outputs": [],
      "payable": false,
      "stateMutability": "nonpayable",
      "type": "function"
    },
    {
      "anonymous": false,
      "inputs": [
        {
          "indexed": true,
          "name": "_underlying",
          "type": "address"
        },
        {
          "indexed": true,
          "name": "_cToken",
          "type": "address"
        }
      ],
      "name": "CTokenAdded",
      "type": "event"
    },
    {
      "anonymous": false,
      "inputs": [
        {
          "indexed": true,
          "name": "_underlying",
          "type": "address"
        }
      ],
      "name": "CTokenRemoved",
      "type": "event"
    },
    {
      "anonymous": false,
      "inputs": [
        {
          "indexed": true,
          "name": "_newOwner",
          "type": "address"
        }
      ],
      "name": "OwnerChanged",
      "type": "event"
    },
    {
      "constant": false,
      "inputs": [
        {
          "name": "_underlying",
          "type": "address"
        },
        {
          "name": "_cToken",
          "type": "address"
        }
      ],
      "name": "addCToken",
      "outputs": [],
      "payable": false,
      "stateMutability": "nonpayable",
      "type": "function"
    },
    {
      "constant": false,
      "inputs": [
        {
          "name": "_underlying",
          "type": "address"
        }
      ],
      "name": "removeCToken",
      "outputs": [],
      "payable": false,
      "stateMutability": "nonpayable",
      "type": "function"
    },
    {
      "constant": true,
      "inputs": [
        {
          "name": "_underlying",
          "type": "address"
        }
      ],
      "name": "getCToken",
      "outputs": [
        {
          "name": "",
          "type": "address"
        }
      ],
      "payable": false,
      "stateMutability": "view",
      "type": "function"
    },
    {
      "constant": true,
      "inputs": [],
      "name": "listUnderlyings",
      "outputs": [
        {
          "name": "",
          "type": "address[]"
        }
      ],
      "payable": false,
      "stateMutability": "view",
      "type": "function"
    }
  ],
  "bytecode": "0x608060405260008054600160a060020a031916331790556109b8806100256000396000f3fe608060405234801561001057600080fd5b506004361061008f576000357c0100000000000000000000000000000000000000000000000000000000900480637e5a4eb91161006d5780637e5a4eb91461015c5780638da5cb5b146101b8578063a6f9dae1146101c05761008f565b80630f92095314610094578063146b9f70146100ec5780632a957f8c14610129575b600080fd5b61009c6101f3565b60408051602080825283518183015283519192839290830191858101910280838360005b838110156100d85781810151838201526020016100c0565b505050509050019250505060405180910390f35b6101276004803603604081101561010257600080fd5b5073ffffffffffffffffffffffffffffffffffffffff813581169160200135166102a9565b005b6101276004803603602081101561013f57600080fd5b503573ffffffffffffffffffffffffffffffffffffffff166104b0565b61018f6004803603602081101561017257600080fd5b503573ffffffffffffffffffffffffffffffffffffffff1661078f565b6040805173ffffffffffffffffffffffffffffffffffffffff9092168252519081900360200190f35b61018f6107bd565b610127600480360360208110156101d657600080fd5b503573ffffffffffffffffffffffffffffffffffffffff166107d9565b606080600180549050604051908082528060200260200182016040528015610225578160200160208202803883390190505b50905060005b6001548110156102a257600180548290811061024357fe5b600091825260209091200154825173ffffffffffffffffffffffffffffffffffffffff9091169083908390811061027657fe5b73ffffffffffffffffffffffffffffffffffffffff90921660209283029091019091015260010161022b565b5090505b90565b60005473ffffffffffffffffffffffffffffffffffffffff16331461032f57604080517f08c379a000000000000000000000000000000000000000000000000000000000815260206004820152600d60248201527f4d757374206265206f776e657200000000000000000000000000000000000000604482015290519081900360640190fd5b73ffffffffffffffffffffffffffffffffffffffff821660009081526002602052604090205460ff16156103c457604080517f08c379a000000000000000000000000000000000000000000000000000000000815260206004820152601860248201527f43523a2063546f6b656e20616c72656164792061646465640000000000000000604482015290519081900360640190fd5b73ffffffffffffffffffffffffffffffffffffffff828116600081815260026020526040808220805460ff191660019081178255805480820182557fb10e2d527612073b26eecdfd717e6a320cf44b4afac2b0732d9fcbe2b7fa0cf68101805473ffffffffffffffffffffffffffffffffffffffff19908116881790915583546fffffffffffffffffffffffffffffffff9092166101000270ffffffffffffffffffffffffffffffff0019909216919091178355910180549587169590911685179055517f7acf7482a03de3fea14ab9eb8fa6f7524bb1a61a24898d2337379a5cf7421d7e9190a35050565b60005473ffffffffffffffffffffffffffffffffffffffff16331461053657604080517f08c379a000000000000000000000000000000000000000000000000000000000815260206004820152600d60248201527f4d757374206265206f776e657200000000000000000000000000000000000000604482015290519081900360640190fd5b73ffffffffffffffffffffffffffffffffffffffff811660009081526002602052604090205460ff1615156105cc57604080517f08c379a000000000000000000000000000000000000000000000000000000000815260206004820152601960248201527f43523a2063546f6b656e20646f6573206e6f7420657869737400000000000000604482015290519081900360640190fd5b600180546000919060001981019081106105e257fe5b60009182526020909120015473ffffffffffffffffffffffffffffffffffffffff9081169150821681146106e85773ffffffffffffffffffffffffffffffffffffffff8216600090815260026020526040902054600180546101009092046fffffffffffffffffffffffffffffffff16918391908390811061066057fe5b60009182526020808320909101805473ffffffffffffffffffffffffffffffffffffffff94851673ffffffffffffffffffffffffffffffffffffffff19909116179055918416815260029091526040902080546fffffffffffffffffffffffffffffffff9092166101000270ffffffffffffffffffffffffffffffff00199092169190911790555b60018054906106fb906000198301610945565b5073ffffffffffffffffffffffffffffffffffffffff821660008181526002602052604080822080547fffffffffffffffffffffffffffffff0000000000000000000000000000000000168155600101805473ffffffffffffffffffffffffffffffffffffffff19169055517f0e590b32bfcb7478a456cb792c7357a4783933854095aa37c472ac78b6fb8f9d9190a25050565b73ffffffffffffffffffffffffffffffffffffffff9081166000908152600260205260409020600101541690565b60005473ffffffffffffffffffffffffffffffffffffffff1681565b60005473ffffffffffffffffffffffffffffffffffffffff16331461085f57604080517f08c379a000000000000000000000000000000000000000000000000000000000815260206004820152600d60248201527f4d757374206265206f776e657200000000000000000000000000000000000000604482015290519081900360640190fd5b73ffffffffffffffffffffffffffffffffffffffff811615156108e357604080517f08c379a000000000000000000000000000000000000000000000000000000000815260206004820152601860248201527f41646472657373206d757374206e6f74206265206e756c6c0000000000000000604482015290519081900360640190fd5b6000805473ffffffffffffffffffffffffffffffffffffffff191673ffffffffffffffffffffffffffffffffffffffff8316908117825560405190917fa2ea9883a321a3e97b8266c2b078bfeec6d50c711ed71f874a90d500ae2eaf3691a250565b8154818355818111156109695760008381526020902061096991810190830161096e565b505050565b6102a691905b808211156109885760008155600101610974565b509056fea165627a7a72305820acba730c083a3abf6bbd5be03b9167f768d31d5f77a57ed33571be8cbd25c6c00029",
  "source": "// Copyright (C) 2018  Argent Labs Ltd. <https://argent.xyz>\n\n// This program is free software: you can redistribute it and/or modify\n// it under the terms of the GNU General Public License as published by\n// the Free Software Foundation, either version 3 of the License, or\n// (at your option) any later version.\n\n// This program is distributed in the hope that it will be useful,\n// but WITHOUT ANY WARRANTY; without even the implied warranty of\n// MERCHANTABILITY or FITNESS FOR A PARTICULAR PURPOSE.  See the\n// GNU General Public License for more details.\n\n// You should have received a copy of the GNU General Public License\n// along with this program.  If not, see <http://www.gnu.org/licenses/>.\n\npragma solidity ^0.5.4;\nimport \"../../base/Owned.sol\";\n\n/**\n * @title CompoundRegistry\n * @dev Simple registry containing a mapping between underlying assets and their corresponding cToken.\n * @author Julien Niset - <julien@argent.xyz>\n */\ncontract CompoundRegistry is Owned {\n\n    address[] tokens;\n\n    mapping (address => CTokenInfo) internal cToken;\n\n    struct CTokenInfo {\n        bool exists;\n        uint128 index;\n        address market;\n    }\n\n    event CTokenAdded(address indexed _underlying, address indexed _cToken);\n    event CTokenRemoved(address indexed _underlying);\n\n    /**\n     * @dev Adds a new cToken to the registry.\n     * @param _underlying The underlying asset.\n     * @param _cToken The cToken.\n     */\n    function addCToken(address _underlying, address _cToken) external onlyOwner {\n        require(!cToken[_underlying].exists, \"CR: cToken already added\");\n        cToken[_underlying].exists = true;\n        cToken[_underlying].index = uint128(tokens.push(_underlying) - 1);\n        cToken[_underlying].market = _cToken;\n        emit CTokenAdded(_underlying, _cToken);\n    }\n\n    /**\n     * @dev Removes a cToken from the registry.\n     * @param _underlying The underlying asset.\n     */\n    function removeCToken(address _underlying) external onlyOwner {\n        require(cToken[_underlying].exists, \"CR: cToken does not exist\");\n        address last = tokens[tokens.length - 1];\n        if (_underlying != last) {\n            uint128 targetIndex = cToken[_underlying].index;\n            tokens[targetIndex] = last;\n            cToken[last].index = targetIndex;\n        }\n        tokens.length --;\n        delete cToken[_underlying];\n        emit CTokenRemoved(_underlying);\n    }\n\n    /**\n     * @dev Gets the cToken for a given underlying asset.\n     * @param _underlying The underlying asset.\n     */\n    function getCToken(address _underlying) external view returns (address) {\n        return cToken[_underlying].market;\n    }\n\n    /**\n    * @dev Gets the list of supported underlyings.\n    */\n    function listUnderlyings() external view returns (address[] memory) {\n        address[] memory underlyings = new address[](tokens.length);\n        for (uint256 i = 0; i < tokens.length; i++) {\n            underlyings[i] = tokens[i];\n        }\n        return underlyings;\n    }\n}",
  "sourcePath": "/Users/name/dev/argent-contracts-release-1.5.0/contracts/defi/utils/CompoundRegistry.sol",
  "compiler": {
    "name": "solc",
    "version": "0.5.4+commit.9549d8ff.Emscripten.clang",
    "optimizer": true,
    "runs": 999
  },
  "schemaVersion": "2.3.1",
  "updatedAt": "2020-04-01T15:58:47.146Z"
}