{
  "contractName": "CryptoKittyTest",
  "abi": [
    {
      "constant": true,
      "inputs": [],
      "name": "name",
      "outputs": [
        {
          "name": "",
          "type": "string"
        }
      ],
      "payable": false,
      "stateMutability": "view",
      "type": "function"
    },
    {
      "constant": true,
      "inputs": [
        {
          "name": "",
          "type": "uint256"
        }
      ],
      "name": "sireAllowedToAddress",
      "outputs": [
        {
          "name": "",
          "type": "address"
        }
      ],
      "payable": false,
      "stateMutability": "view",
      "type": "function"
    },
    {
      "constant": true,
      "inputs": [
        {
          "name": "",
          "type": "uint256"
        }
      ],
      "name": "kittyIndexToApproved",
      "outputs": [
        {
          "name": "",
          "type": "address"
        }
      ],
      "payable": false,
      "stateMutability": "view",
      "type": "function"
    },
    {
      "constant": true,
      "inputs": [],
      "name": "symbol",
      "outputs": [
        {
          "name": "",
          "type": "string"
        }
      ],
      "payable": false,
      "stateMutability": "view",
      "type": "function"
    },
    {
      "constant": true,
      "inputs": [
        {
          "name": "",
          "type": "uint256"
        }
      ],
      "name": "kittyIndexToOwner",
      "outputs": [
        {
          "name": "",
          "type": "address"
        }
      ],
      "payable": false,
      "stateMutability": "view",
      "type": "function"
    },
    {
      "anonymous": false,
      "inputs": [
        {
          "indexed": false,
          "name": "owner",
          "type": "address"
        },
        {
          "indexed": false,
          "name": "kittyId",
          "type": "uint256"
        },
        {
          "indexed": false,
          "name": "matronId",
          "type": "uint256"
        },
        {
          "indexed": false,
          "name": "sireId",
          "type": "uint256"
        },
        {
          "indexed": false,
          "name": "genes",
          "type": "uint256"
        }
      ],
      "name": "Birth",
      "type": "event"
    },
    {
      "anonymous": false,
      "inputs": [
        {
          "indexed": false,
          "name": "from",
          "type": "address"
        },
        {
          "indexed": false,
          "name": "to",
          "type": "address"
        },
        {
          "indexed": false,
          "name": "tokenId",
          "type": "uint256"
        }
      ],
      "name": "Transfer",
      "type": "event"
    },
    {
      "constant": true,
      "inputs": [
        {
          "name": "_owner",
          "type": "address"
        }
      ],
      "name": "balanceOf",
      "outputs": [
        {
          "name": "count",
          "type": "uint256"
        }
      ],
      "payable": false,
      "stateMutability": "view",
      "type": "function"
    },
    {
      "constant": false,
      "inputs": [
        {
          "name": "_to",
          "type": "address"
        },
        {
          "name": "_tokenId",
          "type": "uint256"
        }
      ],
      "name": "transfer",
      "outputs": [],
      "payable": false,
      "stateMutability": "nonpayable",
      "type": "function"
    },
    {
      "constant": false,
      "inputs": [
        {
          "name": "_owner",
          "type": "address"
        }
      ],
      "name": "createDumbKitty",
      "outputs": [
        {
          "name": "",
          "type": "uint256"
        }
      ],
      "payable": false,
      "stateMutability": "nonpayable",
      "type": "function"
    }
  ],
  "bytecode": "0x608060405234801561001057600080fd5b50610911806100206000396000f3fe608060405234801561001057600080fd5b50600436106100a5576000357c01000000000000000000000000000000000000000000000000000000009004806370a082311161007857806370a08231146101cf57806395d89b4114610202578063a45f4bfc1461020a578063a9059cbb14610227576100a5565b806306fdde03146100aa57806346116e6f14610127578063481af3d31461016d57806361b971d51461018a575b600080fd5b6100b2610262565b6040805160208082528351818301528351919283929083019185019080838360005b838110156100ec5781810151838201526020016100d4565b50505050905090810190601f1680156101195780820380516001836020036101000a031916815260200191505b509250505060405180910390f35b6101446004803603602081101561013d57600080fd5b5035610299565b6040805173ffffffffffffffffffffffffffffffffffffffff9092168252519081900360200190f35b6101446004803603602081101561018357600080fd5b50356102c1565b6101bd600480360360208110156101a057600080fd5b503573ffffffffffffffffffffffffffffffffffffffff166102e9565b60408051918252519081900360200190f35b6101bd600480360360208110156101e557600080fd5b503573ffffffffffffffffffffffffffffffffffffffff16610302565b6100b261032a565b6101446004803603602081101561022057600080fd5b5035610361565b6102606004803603604081101561023d57600080fd5b5073ffffffffffffffffffffffffffffffffffffffff8135169060200135610389565b005b60408051808201909152600d81527f43727970746f4b69747469657300000000000000000000000000000000000000602082015281565b60046020526000908152604090205473ffffffffffffffffffffffffffffffffffffffff1681565b60036020526000908152604090205473ffffffffffffffffffffffffffffffffffffffff1681565b60006102fc6001600260036004866103f2565b92915050565b73ffffffffffffffffffffffffffffffffffffffff1660009081526002602052604090205490565b60408051808201909152600281527f434b000000000000000000000000000000000000000000000000000000000000602082015281565b60016020526000908152604090205473ffffffffffffffffffffffffffffffffffffffff1681565b73ffffffffffffffffffffffffffffffffffffffff821615156103ab57600080fd5b73ffffffffffffffffffffffffffffffffffffffff82163014156103ce57600080fd5b6103d83382610750565b15156103e357600080fd5b6103ee33838361077d565b5050565b600063ffffffff8616861461040657600080fd5b63ffffffff8516851461041857600080fd5b61ffff8416841461042857600080fd5b60028404600d61ffff8216111561043d5750600d5b6104456108a1565b5060408051610100810182528581524267ffffffffffffffff90811660208301908152600093830184815263ffffffff8c8116606086019081528c82166080870190815260a0870188815261ffff8a811660c08a019081528f821660e08b019081528b54600181018d559b80528a517f290decd9548b62a8d60345a988386fc84ba6bc95484008f6362f93160ef3e56360028e029081019190915598517f290decd9548b62a8d60345a988386fc84ba6bc95484008f6362f93160ef3e564909901805498519651955194519251915167ffffffffffffffff19909916998b16999099176fffffffffffffffff000000000000000019166801000000000000000096909a1695909502989098177fffffffffffffffffffffffff00000000ffffffffffffffffffffffffffffffff1670010000000000000000000000000000000093861693909302929092177fffffffffffffffff00000000ffffffffffffffffffffffffffffffffffffffff167401000000000000000000000000000000000000000091851691909102177fffffffff00000000ffffffffffffffffffffffffffffffffffffffffffffffff16780100000000000000000000000000000000000000000000000096841696909602959095177fffff0000ffffffffffffffffffffffffffffffffffffffffffffffffffffffff167c010000000000000000000000000000000000000000000000000000000091861691909102177dffffffffffffffffffffffffffffffffffffffffffffffffffffffffffff167e010000000000000000000000000000000000000000000000000000000000009290941691909102929092179055909190811681146106bd57600080fd5b60608083015160808085015185516040805173ffffffffffffffffffffffffffffffffffffffff8c1681526020810188905263ffffffff95861681830152929094169482019490945290810192909252517f0a5311bd2a6608f08a180df2ee7c5946819a649b204b554bb8e39825b2c50ad59181900360a00190a16107446000868361077d565b98975050505050505050565b60009081526001602052604090205473ffffffffffffffffffffffffffffffffffffffff91821691161490565b73ffffffffffffffffffffffffffffffffffffffff8083166000818152600260209081526040808320805460019081019091558684529091529020805473ffffffffffffffffffffffffffffffffffffffff191690911790558316156108455773ffffffffffffffffffffffffffffffffffffffff83166000908152600260209081526040808320805460001901905583835260048252808320805473ffffffffffffffffffffffffffffffffffffffff199081169091556003909252909120805490911690555b6040805173ffffffffffffffffffffffffffffffffffffffff80861682528416602082015280820183905290517fddf252ad1be2c89b69c2b068fc378daa952ba7f163c4a11628f55a4df523b3ef9181900360600190a1505050565b6040805161010081018252600080825260208201819052918101829052606081018290526080810182905260a0810182905260c0810182905260e08101919091529056fea165627a7a7230582039e70facff06884466838927aacfb25d29ec681353d0f21664bc8f66bde4fb230029",
  "source": "pragma solidity ^0.5.4;\n\n\n/// @title Base contract for CryptoKitties. Holds all common structs, events and base variables.\n/// @author Axiom Zen (https://www.axiomzen.co)\n/// @dev See the KittyCore contract documentation to understand how the various contract facets are arranged.\ncontract KittyBase {\n    /*** EVENTS ***/\n\n    /// @dev The Birth event is fired whenever a new kitten comes into existence. This obviously\n    ///  includes any time a cat is created through the giveBirth method, but it is also called\n    ///  when a new gen0 cat is created.\n    event Birth(address owner, uint256 kittyId, uint256 matronId, uint256 sireId, uint256 genes);\n\n    /// @dev Transfer event as defined in current draft of ERC721. Emitted every time a kitten\n    ///  ownership is assigned, including births.\n    event Transfer(address from, address to, uint256 tokenId);\n\n    /*** DATA TYPES ***/\n\n    /// @dev The main Kitty struct. Every cat in CryptoKitties is represented by a copy\n    ///  of this structure, so great care was taken to ensure that it fits neatly into\n    ///  exactly two 256-bit words. Note that the order of the members in this structure\n    ///  is important because of the byte-packing rules used by Ethereum.\n    ///  Ref: http://solidity.readthedocs.io/en/develop/miscellaneous.html\n    struct Kitty {\n        // The Kitty's genetic code is packed into these 256-bits, the format is\n        // sooper-sekret! A cat's genes never change.\n        uint256 genes;\n\n        // The timestamp from the block when this cat came into existence.\n        uint64 birthTime;\n\n        // The minimum timestamp after which this cat can engage in breeding\n        // activities again. This same timestamp is used for the pregnancy\n        // timer (for matrons) as well as the siring cooldown.\n        uint64 cooldownEndBlock;\n\n        // The ID of the parents of this kitty, set to 0 for gen0 cats.\n        // Note that using 32-bit unsigned integers limits us to a \"mere\"\n        // 4 billion cats. This number might seem small until you realize\n        // that Ethereum currently has a limit of about 500 million\n        // transactions per year! So, this definitely won't be a problem\n        // for several years (even as Ethereum learns to scale).\n        uint32 matronId;\n        uint32 sireId;\n\n        // Set to the ID of the sire cat for matrons that are pregnant,\n        // zero otherwise. A non-zero value here is how we know a cat\n        // is pregnant. Used to retrieve the genetic material for the new\n        // kitten when the birth transpires.\n        uint32 siringWithId;\n\n        // Set to the index in the cooldown array (see below) that represents\n        // the current cooldown duration for this Kitty. This starts at zero\n        // for gen0 cats, and is initialized to floor(generation/2) for others.\n        // Incremented by one for each successful breeding action, regardless\n        // of whether this cat is acting as matron or sire.\n        uint16 cooldownIndex;\n\n        // The \"generation number\" of this cat. Cats minted by the CK contract\n        // for sale are called \"gen0\" and have a generation number of 0. The\n        // generation number of all other cats is the larger of the two generation\n        // numbers of their parents, plus one.\n        // (i.e. max(matron.generation, sire.generation) + 1)\n        uint16 generation;\n    }\n\n\n    /*** STORAGE ***/\n\n    /// @dev An array containing the Kitty struct for all Kitties in existence. The ID\n    ///  of each cat is actually an index into this array. Note that ID 0 is a negacat,\n    ///  the unKitty, the mythical beast that is the parent of all gen0 cats. A bizarre\n    ///  creature that is both matron and sire... to itself! Has an invalid genetic code.\n    ///  In other words, cat ID 0 is invalid... ;-)\n    Kitty[] kitties;\n\n    /// @dev A mapping from cat IDs to the address that owns them. All cats have\n    ///  some valid owner address, even gen0 cats are created with a non-zero owner.\n    mapping (uint256 => address) public kittyIndexToOwner;\n\n    // @dev A mapping from owner address to count of tokens that address owns.\n    //  Used internally inside balanceOf() to resolve ownership count.\n    mapping (address => uint256) ownershipTokenCount;\n\n    /// @dev A mapping from KittyIDs to an address that has been approved to call\n    ///  transferFrom(). Each Kitty can only have one approved address for transfer\n    ///  at any time. A zero value means no approval is outstanding.\n    mapping (uint256 => address) public kittyIndexToApproved;\n\n    /// @dev A mapping from KittyIDs to an address that has been approved to use\n    ///  this Kitty for siring via breedWith(). Each Kitty can only have one approved\n    ///  address for siring at any time. A zero value means no approval is outstanding.\n    mapping (uint256 => address) public sireAllowedToAddress;\n\n    /// @dev Assigns ownership of a specific Kitty to an address.\n    function _transfer(address _from, address _to, uint256 _tokenId) internal {\n        // Since the number of kittens is capped to 2^32 we can't overflow this\n        ownershipTokenCount[_to]++;\n        // transfer ownership\n        kittyIndexToOwner[_tokenId] = _to;\n        // When creating new kittens _from is 0x0, but we can't account that address.\n        if (_from != address(0)) {\n            ownershipTokenCount[_from]--;\n            // once the kitten is transferred also clear sire allowances\n            delete sireAllowedToAddress[_tokenId];\n            // clear any previously approved ownership exchange\n            delete kittyIndexToApproved[_tokenId];\n        }\n        // Emit the transfer event.\n        emit Transfer(_from, _to, _tokenId);\n    }\n\n    /// @dev An internal method that creates a new kitty and stores it. This\n    ///  method doesn't do any checking and should only be called when the\n    ///  input data is known to be valid. Will generate both a Birth event\n    ///  and a Transfer event.\n    /// @param _matronId The kitty ID of the matron of this cat (zero for gen0)\n    /// @param _sireId The kitty ID of the sire of this cat (zero for gen0)\n    /// @param _generation The generation number of this cat, must be computed by caller.\n    /// @param _genes The kitty's genetic code.\n    /// @param _owner The inital owner of this cat, must be non-zero (except for the unKitty, ID 0)\n    function _createKitty(\n        uint256 _matronId,\n        uint256 _sireId,\n        uint256 _generation,\n        uint256 _genes,\n        address _owner\n    )\n        internal\n        returns (uint)\n    {\n        // These requires are not strictly necessary, our calling code should make\n        // sure that these conditions are never broken. However! _createKitty() is already\n        // an expensive call (for storage), and it doesn't hurt to be especially careful\n        // to ensure our data structures are always valid.\n        require(_matronId == uint256(uint32(_matronId)));\n        require(_sireId == uint256(uint32(_sireId)));\n        require(_generation == uint256(uint16(_generation)));\n\n        // New kitty starts with the same cooldown as parent gen/2\n        uint16 cooldownIndex = uint16(_generation / 2);\n        if (cooldownIndex > 13) {\n            cooldownIndex = 13;\n        }\n\n        Kitty memory _kitty = Kitty({\n            genes: _genes,\n            birthTime: uint64(now),\n            cooldownEndBlock: 0,\n            matronId: uint32(_matronId),\n            sireId: uint32(_sireId),\n            siringWithId: 0,\n            cooldownIndex: cooldownIndex,\n            generation: uint16(_generation)\n        });\n        uint256 newKittenId = kitties.push(_kitty) - 1;\n\n        // It's probably never going to happen, 4 billion cats is A LOT, but\n        // let's just be 100% sure we never let this happen.\n        require(newKittenId == uint256(uint32(newKittenId)));\n\n        // emit the birth event\n        emit Birth(\n            _owner,\n            newKittenId,\n            uint256(_kitty.matronId),\n            uint256(_kitty.sireId),\n            _kitty.genes\n        );\n\n        // This will assign ownership, and also emit the Transfer event as\n        // per ERC721 draft\n        _transfer(address(0), _owner, newKittenId);\n\n        return newKittenId;\n    }\n\n\n}\n\n/// @title The facet of the CryptoKitties core contract that manages ownership, ERC-721 (draft) compliant.\n/// @author Axiom Zen (https://www.axiomzen.co)\n/// @dev Ref: https://github.com/ethereum/EIPs/issues/721\n///  See the KittyCore contract documentation to understand how the various contract facets are arranged.\ncontract CryptoKittyTest is KittyBase {\n\n    /// @notice Name and symbol of the non fungible token, as defined in ERC721.\n    string public constant name = \"CryptoKitties\";\n    string public constant symbol = \"CK\";\n\n\n    // Internal utility functions: These functions all assume that their input arguments\n    // are valid. We leave it to public methods to sanitize their inputs and follow\n    // the required logic.\n\n    /// @dev Checks if a given address is the current owner of a particular Kitty.\n    /// @param _claimant the address we are validating against.\n    /// @param _tokenId kitten id, only valid when > 0\n    function _owns(address _claimant, uint256 _tokenId) internal view returns (bool) {\n        return kittyIndexToOwner[_tokenId] == _claimant;\n    }\n\n  \n\n    /// @notice Returns the number of Kitties owned by a specific address.\n    /// @param _owner The owner address to check.\n    /// @dev Required for ERC-721 compliance\n    function balanceOf(address _owner) public view returns (uint256 count) {\n        return ownershipTokenCount[_owner];\n    }\n\n    /// @notice Transfers a Kitty to another address. If transferring to a smart\n    ///  contract be VERY CAREFUL to ensure that it is aware of ERC-721 (or\n    ///  CryptoKitties specifically) or your Kitty may be lost forever. Seriously.\n    /// @param _to The address of the recipient, can be a user or contract.\n    /// @param _tokenId The ID of the Kitty to transfer.\n    /// @dev Required for ERC-721 compliance.\n    function transfer(\n        address _to,\n        uint256 _tokenId\n    )\n        external\n    {\n        // Safety check to prevent against an unexpected 0x0 default.\n        require(_to != address(0));\n        // Disallow transfers to this contract to prevent accidental misuse.\n        // The contract should never own any kitties (except very briefly\n        // after a gen0 cat is created and before it goes on auction).\n        require(_to != address(this));\n        // Disallow transfers to the auction contracts to prevent accidental\n        // misuse. Auction contracts should only take ownership of kitties\n        // through the allow + transferFrom flow.\n        // require(_to != address(saleAuction));\n        // require(_to != address(siringAuction));\n\n        // You can only send your own cat.\n        require(_owns(msg.sender, _tokenId));\n\n        // Reassign ownership, clear pending approvals, emit Transfer event.\n        _transfer(msg.sender, _to, _tokenId);\n    }\n\n\n    function createDumbKitty(\n        address _owner\n    )\n        external\n        returns (uint)\n    {\n        return _createKitty(1,2,3,4,_owner);\n    }\n\n}\n\n\n\n\n\n\n\n",
  "sourcePath": "/Users/name/dev/smartcontracts/contracts/test/CryptoKitties.sol",
  "compiler": {
    "name": "solc",
    "version": "0.5.4+commit.9549d8ff.Emscripten.clang",
    "optimizer": true,
    "runs": 999
  },
  "schemaVersion": "2.3.1",
  "updatedAt": "2020-04-01T21:49:52.992Z"
}