{
  "contractName": "DappStorage",
  "abi": [
    {
      "constant": false,
      "inputs": [
        {
          "name": "_wallet",
          "type": "address"
        },
        {
          "name": "_dapp",
          "type": "address"
        },
        {
          "name": "_contract",
          "type": "address"
        },
        {
          "name": "_signatures",
          "type": "bytes4[]"
        },
        {
          "name": "_authorized",
          "type": "bool"
        }
      ],
      "name": "setMethodAuthorization",
      "outputs": [],
      "payable": false,
      "stateMutability": "nonpayable",
      "type": "function"
    },
    {
      "constant": true,
      "inputs": [
        {
          "name": "_wallet",
          "type": "address"
        },
        {
          "name": "_dapp",
          "type": "address"
        },
        {
          "name": "_contract",
          "type": "address"
        },
        {
          "name": "_signature",
          "type": "bytes4"
        }
      ],
      "name": "getMethodAuthorization",
      "outputs": [
        {
          "name": "",
          "type": "bool"
        }
      ],
      "payable": false,
      "stateMutability": "view",
      "type": "function"
    }
  ],
  "bytecode": "0x608060405234801561001057600080fd5b506103ec806100206000396000f3fe608060405234801561001057600080fd5b5060043610610052577c010000000000000000000000000000000000000000000000000000000060003504635fe91fe38114610057578063dad18ef9146100f9575b600080fd5b6100f7600480360360a081101561006d57600080fd5b73ffffffffffffffffffffffffffffffffffffffff823581169260208101358216926040820135909216918101906080810160608201356401000000008111156100b657600080fd5b8201836020820111156100c857600080fd5b803590602001918460208302840111640100000000831117156100ea57600080fd5b9193509150351515610179565b005b6101656004803603608081101561010f57600080fd5b50803573ffffffffffffffffffffffffffffffffffffffff90811691602081013582169160408201351690606001357fffffffff000000000000000000000000000000000000000000000000000000001661031c565b604080519115158252519081900360200190f35b604080517fd6eb1bbf0000000000000000000000000000000000000000000000000000000081523360048201529051879173ffffffffffffffffffffffffffffffffffffffff83169163d6eb1bbf91602480820192602092909190829003018186803b1580156101e857600080fd5b505afa1580156101fc573d6000803e3d6000fd5b505050506040513d602081101561021257600080fd5b5051151561026b576040517f08c379a000000000000000000000000000000000000000000000000000000000815260040180806020018281038252603481526020018061038d6034913960400191505060405180910390fd5b60005b838110156103125773ffffffffffffffffffffffffffffffffffffffff8089166000908152602081815260408083208b851684528252808320938a16835292905290812084918787858181106102c057fe5b602090810292909201357fffffffff0000000000000000000000000000000000000000000000000000000016835250810191909152604001600020805460ff191691151591909117905560010161026e565b5050505050505050565b73ffffffffffffffffffffffffffffffffffffffff8085166000908152602081815260408083208785168452825280832093861683529281528282207fffffffff00000000000000000000000000000000000000000000000000000000851683529052205460ff1694935050505056fe54533a206d75737420626520616e20617574686f72697a6564206d6f64756c6520746f2063616c6c2074686973206d6574686f64a165627a7a7230582099f5fac59919806c066f39772c509c155b8b399b6229f1fcfbca4572223e1f410029",
  "source": "// Copyright (C) 2018  Argent Labs Ltd. <https://argent.xyz>\n\n// This program is free software: you can redistribute it and/or modify\n// it under the terms of the GNU General Public License as published by\n// the Free Software Foundation, either version 3 of the License, or\n// (at your option) any later version.\n\n// This program is distributed in the hope that it will be useful,\n// but WITHOUT ANY WARRANTY; without even the implied warranty of\n// MERCHANTABILITY or FITNESS FOR A PARTICULAR PURPOSE.  See the\n// GNU General Public License for more details.\n\n// You should have received a copy of the GNU General Public License\n// along with this program.  If not, see <http://www.gnu.org/licenses/>.\n\npragma solidity ^0.5.4;\nimport \"../wallet/BaseWallet.sol\";\nimport \"./Storage.sol\";\n\n/**\n * @title DappStorage\n * @dev Contract storing the state of wallets related to authorised dapps.\n * The contract only defines basic setters and getters with no logic. Only modules authorised\n * for a wallet can modify its state.\n * @author Olivier Van Den Biggelaar - <olivier@argent.im>\n */\ncontract DappStorage is Storage {\n\n    // [wallet][dappkey][contract][signature][bool]\n    mapping (address => mapping (address => mapping (address => mapping (bytes4 => bool)))) internal whitelistedMethods;\n\n    // *************** External Functions ********************* //\n\n    /**\n     * @dev (De)authorizes an external contract's methods to be called by a dapp key of the wallet.\n     * @param _wallet The wallet.\n     * @param _dapp The address of the signing key.\n     * @param _contract The contract address.\n     * @param _signatures The methods' signatures.\n     * @param _authorized true to whitelist, false to blacklist.\n     */\n    function setMethodAuthorization(\n        BaseWallet _wallet,\n        address _dapp,\n        address _contract,\n        bytes4[] calldata _signatures,\n        bool _authorized\n    )\n        external\n        onlyModule(_wallet)\n    {\n        for (uint i = 0; i < _signatures.length; i++) {\n            whitelistedMethods[address(_wallet)][_dapp][_contract][_signatures[i]] = _authorized;\n        }\n    }\n\n    /**\n     * @dev Gets the authorization status for an external contract's method.\n     * @param _wallet The wallet.\n     * @param _dapp The address of the signing key.\n     * @param _contract The contract address.\n     * @param _signature The call signature.\n     * @return true if the method is whitelisted, false otherwise\n     */\n    function getMethodAuthorization(BaseWallet _wallet, address _dapp, address _contract, bytes4 _signature) external view returns (bool) {\n        return whitelistedMethods[address(_wallet)][_dapp][_contract][_signature];\n    }\n}",
  "sourcePath": "/Users/name/dev/argent-contracts-release-1.5.0/contracts/storage/DappStorage.sol",
  "compiler": {
    "name": "solc",
    "version": "0.5.4+commit.9549d8ff.Emscripten.clang",
    "optimizer": true,
    "runs": 999
  },
  "schemaVersion": "2.3.1",
  "updatedAt": "2020-04-01T15:58:47.232Z"
}