{
  "contractName": "DappRegistry",
  "abi": [
    {
      "constant": true,
      "inputs": [],
      "name": "owner",
      "outputs": [
        {
          "name": "",
          "type": "address"
        }
      ],
      "payable": false,
      "stateMutability": "view",
      "type": "function"
    },
    {
      "constant": false,
      "inputs": [
        {
          "name": "_newOwner",
          "type": "address"
        }
      ],
      "name": "changeOwner",
      "outputs": [],
      "payable": false,
      "stateMutability": "nonpayable",
      "type": "function"
    },
    {
      "anonymous": false,
      "inputs": [
        {
          "indexed": true,
          "name": "_contract",
          "type": "address"
        },
        {
          "indexed": false,
          "name": "_methods",
          "type": "bytes4[]"
        }
      ],
      "name": "Registered",
      "type": "event"
    },
    {
      "anonymous": false,
      "inputs": [
        {
          "indexed": true,
          "name": "_contract",
          "type": "address"
        },
        {
          "indexed": false,
          "name": "_methods",
          "type": "bytes4[]"
        }
      ],
      "name": "Deregistered",
      "type": "event"
    },
    {
      "anonymous": false,
      "inputs": [
        {
          "indexed": true,
          "name": "_newOwner",
          "type": "address"
        }
      ],
      "name": "OwnerChanged",
      "type": "event"
    },
    {
      "constant": false,
      "inputs": [
        {
          "name": "_contract",
          "type": "address"
        },
        {
          "name": "_methods",
          "type": "bytes4[]"
        }
      ],
      "name": "register",
      "outputs": [],
      "payable": false,
      "stateMutability": "nonpayable",
      "type": "function"
    },
    {
      "constant": false,
      "inputs": [
        {
          "name": "_contract",
          "type": "address"
        },
        {
          "name": "_methods",
          "type": "bytes4[]"
        }
      ],
      "name": "deregister",
      "outputs": [],
      "payable": false,
      "stateMutability": "nonpayable",
      "type": "function"
    },
    {
      "constant": true,
      "inputs": [
        {
          "name": "_contract",
          "type": "address"
        },
        {
          "name": "_methods",
          "type": "bytes4[]"
        }
      ],
      "name": "isRegistered",
      "outputs": [
        {
          "name": "",
          "type": "bool"
        }
      ],
      "payable": false,
      "stateMutability": "view",
      "type": "function"
    },
    {
      "constant": true,
      "inputs": [
        {
          "name": "_contract",
          "type": "address"
        },
        {
          "name": "_method",
          "type": "bytes4"
        }
      ],
      "name": "isRegistered",
      "outputs": [
        {
          "name": "",
          "type": "bool"
        }
      ],
      "payable": false,
      "stateMutability": "view",
      "type": "function"
    }
  ],
  "bytecode": "0x608060405260008054600160a060020a031916331790556108eb806100256000396000f3fe608060405234801561001057600080fd5b506004361061008f576000357c010000000000000000000000000000000000000000000000000000000090048063e559e4201161006d578063e559e4201461019b578063f6b4b2d514610228578063fe5ed89d146102805761008f565b80638da5cb5b14610094578063a6f9dae1146100c5578063c051518a146100fa575b600080fd5b61009c61030d565b6040805173ffffffffffffffffffffffffffffffffffffffff9092168252519081900360200190f35b6100f8600480360360208110156100db57600080fd5b503573ffffffffffffffffffffffffffffffffffffffff16610329565b005b6101876004803603604081101561011057600080fd5b73ffffffffffffffffffffffffffffffffffffffff823516919081019060408101602082013564010000000081111561014857600080fd5b82018360208201111561015a57600080fd5b8035906020019184602083028401116401000000008311171561017c57600080fd5b5090925090506104a0565b604080519115158252519081900360200190f35b6100f8600480360360408110156101b157600080fd5b73ffffffffffffffffffffffffffffffffffffffff82351691908101906040810160208201356401000000008111156101e957600080fd5b8201836020820111156101fb57600080fd5b8035906020019184602083028401116401000000008311171561021d57600080fd5b50909250905061053f565b6101876004803603604081101561023e57600080fd5b50803573ffffffffffffffffffffffffffffffffffffffff1690602001357bffffffffffffffffffffffffffffffffffffffffffffffffffffffff19166106d4565b6100f86004803603604081101561029657600080fd5b73ffffffffffffffffffffffffffffffffffffffff82351691908101906040810160208201356401000000008111156102ce57600080fd5b8201836020820111156102e057600080fd5b8035906020019184602083028401116401000000008311171561030257600080fd5b50909250905061072d565b60005473ffffffffffffffffffffffffffffffffffffffff1681565b60005473ffffffffffffffffffffffffffffffffffffffff1633146103af57604080517f08c379a000000000000000000000000000000000000000000000000000000000815260206004820152600d60248201527f4d757374206265206f776e657200000000000000000000000000000000000000604482015290519081900360640190fd5b73ffffffffffffffffffffffffffffffffffffffff8116151561043357604080517f08c379a000000000000000000000000000000000000000000000000000000000815260206004820152601860248201527f41646472657373206d757374206e6f74206265206e756c6c0000000000000000604482015290519081900360640190fd5b600080547fffffffffffffffffffffffff00000000000000000000000000000000000000001673ffffffffffffffffffffffffffffffffffffffff8316908117825560405190917fa2ea9883a321a3e97b8266c2b078bfeec6d50c711ed71f874a90d500ae2eaf3691a250565b6000805b828110156105325773ffffffffffffffffffffffffffffffffffffffff85166000908152600160205260408120908585848181106104de57fe5b602090810292909201357bffffffffffffffffffffffffffffffffffffffffffffffffffffffff19168352508101919091526040016000205460ff16151561052a576000915050610538565b6001016104a4565b50600190505b9392505050565b60005473ffffffffffffffffffffffffffffffffffffffff1633146105c557604080517f08c379a000000000000000000000000000000000000000000000000000000000815260206004820152600d60248201527f4d757374206265206f776e657200000000000000000000000000000000000000604482015290519081900360640190fd5b60005b818110156106545773ffffffffffffffffffffffffffffffffffffffff841660009081526001602081905260408220909185858581811061060557fe5b602090810292909201357bffffffffffffffffffffffffffffffffffffffffffffffffffffffff1916835250810191909152604001600020805460ff19169115159190911790556001016105c8565b508273ffffffffffffffffffffffffffffffffffffffff167f2cddded87168218f98f4cc4cf1735701c4a2e3e39ead3ca861c0b237e065d10e838360405180806020018281038252848482818152602001925060200280828437600083820152604051601f909101601f19169092018290039550909350505050a2505050565b73ffffffffffffffffffffffffffffffffffffffff821660009081526001602090815260408083207bffffffffffffffffffffffffffffffffffffffffffffffffffffffff198516845290915290205460ff1692915050565b60005473ffffffffffffffffffffffffffffffffffffffff1633146107b357604080517f08c379a000000000000000000000000000000000000000000000000000000000815260206004820152600d60248201527f4d757374206265206f776e657200000000000000000000000000000000000000604482015290519081900360640190fd5b60005b8181101561083f5773ffffffffffffffffffffffffffffffffffffffff84166000908152600160205260408120818585858181106107f057fe5b602090810292909201357bffffffffffffffffffffffffffffffffffffffffffffffffffffffff1916835250810191909152604001600020805460ff19169115159190911790556001016107b6565b508273ffffffffffffffffffffffffffffffffffffffff167fda90c268f3fcf82fa0268ff7f5f4be9db6648632381aad9edbdf03dc3cdd3f99838360405180806020018281038252848482818152602001925060200280828437600083820152604051601f909101601f19169092018290039550909350505050a250505056fea165627a7a72305820c5fbaa98e2c63daf1652c2f6b52d5f460837678f39b93464c3d80126c8128b030029",
  "source": "// Copyright (C) 2018  Argent Labs Ltd. <https://argent.xyz>\n\n// This program is free software: you can redistribute it and/or modify\n// it under the terms of the GNU General Public License as published by\n// the Free Software Foundation, either version 3 of the License, or\n// (at your option) any later version.\n\n// This program is distributed in the hope that it will be useful,\n// but WITHOUT ANY WARRANTY; without even the implied warranty of\n// MERCHANTABILITY or FITNESS FOR A PARTICULAR PURPOSE.  See the\n// GNU General Public License for more details.\n\n// You should have received a copy of the GNU General Public License\n// along with this program.  If not, see <http://www.gnu.org/licenses/>.\n\npragma solidity ^0.5.4;\nimport \"../base/Owned.sol\";\n\n/**\n * @title DappRegistry\n * @dev Registry of dapp contracts and methods that have been authorised by Argent.\n * Registered methods can be authorised immediately for a dapp key and a wallet while\n * the authoirsation of unregistered methods is delayed for 24 hours.\n * @author Julien Niset - <julien@argent.im>\n */\ncontract DappRegistry is Owned {\n\n    // [contract][signature][bool]\n    mapping (address => mapping (bytes4 => bool)) internal authorised;\n\n    event Registered(address indexed _contract, bytes4[] _methods);\n    event Deregistered(address indexed _contract, bytes4[] _methods);\n\n    /**\n     * @dev Registers a list of methods for a dapp contract.\n     * @param _contract The dapp contract.\n     * @param _methods The dapp methods.\n     */\n    function register(address _contract, bytes4[] calldata _methods) external onlyOwner {\n        for (uint i = 0; i < _methods.length; i++) {\n            authorised[_contract][_methods[i]] = true;\n        }\n        emit Registered(_contract, _methods);\n    }\n\n    /**\n     * @dev Deregisters a list of methods for a dapp contract.\n     * @param _contract The dapp contract.\n     * @param _methods The dapp methods.\n     */\n    function deregister(address _contract, bytes4[] calldata _methods) external onlyOwner {\n        for (uint i = 0; i < _methods.length; i++) {\n            authorised[_contract][_methods[i]] = false;\n        }\n        emit Deregistered(_contract, _methods);\n    }\n\n    /**\n     * @dev Checks if a method is registered for a dapp contract.\n     * @param _contract The dapp contract.\n     * @param _method The dapp method.\n     * @return true if the method is registered.\n     */\n    function isRegistered(address _contract, bytes4 _method) external view returns (bool) {\n        return authorised[_contract][_method];\n    }\n\n    /**\n     * @dev Checks if a list of methods are registered for a dapp contract.\n     * @param _contract The dapp contract.\n     * @param _methods The dapp methods.\n     * @return true if all the methods are registered.\n     */\n    function isRegistered(address _contract, bytes4[] calldata _methods) external view returns (bool) {\n        for (uint i = 0; i < _methods.length; i++) {\n            if (!authorised[_contract][_methods[i]]) {\n                return false;\n            }\n        }\n        return true;\n    }\n}\n",
  "sourcePath": "/Users/name/dev/smartcontracts/contracts/dapp/DappRegistry.sol",
  "compiler": {
    "name": "solc",
    "version": "0.5.4+commit.9549d8ff.Emscripten.clang",
    "optimizer": true,
    "runs": 999
  },
  "schemaVersion": "2.3.1",
  "updatedAt": "2020-04-01T21:49:52.933Z"
}