{
  "contractName": "DSStop",
  "abi": [
    {
      "constant": false,
      "inputs": [
        {
          "name": "owner_",
          "type": "address"
        }
      ],
      "name": "setOwner",
      "outputs": [],
      "payable": false,
      "stateMutability": "nonpayable",
      "type": "function"
    },
    {
      "constant": true,
      "inputs": [],
      "name": "stopped",
      "outputs": [
        {
          "name": "",
          "type": "bool"
        }
      ],
      "payable": false,
      "stateMutability": "view",
      "type": "function"
    },
    {
      "constant": false,
      "inputs": [
        {
          "name": "authority_",
          "type": "address"
        }
      ],
      "name": "setAuthority",
      "outputs": [],
      "payable": false,
      "stateMutability": "nonpayable",
      "type": "function"
    },
    {
      "constant": true,
      "inputs": [],
      "name": "owner",
      "outputs": [
        {
          "name": "",
          "type": "address"
        }
      ],
      "payable": false,
      "stateMutability": "view",
      "type": "function"
    },
    {
      "constant": true,
      "inputs": [],
      "name": "authority",
      "outputs": [
        {
          "name": "",
          "type": "address"
        }
      ],
      "payable": false,
      "stateMutability": "view",
      "type": "function"
    },
    {
      "anonymous": false,
      "inputs": [
        {
          "indexed": true,
          "name": "authority",
          "type": "address"
        }
      ],
      "name": "LogSetAuthority",
      "type": "event"
    },
    {
      "anonymous": false,
      "inputs": [
        {
          "indexed": true,
          "name": "owner",
          "type": "address"
        }
      ],
      "name": "LogSetOwner",
      "type": "event"
    },
    {
      "constant": false,
      "inputs": [],
      "name": "stop",
      "outputs": [],
      "payable": false,
      "stateMutability": "nonpayable",
      "type": "function"
    },
    {
      "constant": false,
      "inputs": [],
      "name": "start",
      "outputs": [],
      "payable": false,
      "stateMutability": "nonpayable",
      "type": "function"
    }
  ],
  "bytecode": "0x6080604081905260018054600160a060020a03191633908117909155907fce241d7ca1f669fee44b6fc00b8eba2df3bb514eed0f6f668f8f89096e81ed9490600090a26106c5806100516000396000f3fe608060405234801561001057600080fd5b506004361061009a576000357c0100000000000000000000000000000000000000000000000000000000900480637a9e5e4b116100785780637a9e5e4b146100f85780638da5cb5b1461012b578063be9a65551461015c578063bf7e214f146101645761009a565b806307da68f51461009f57806313af4035146100a957806375f12b21146100dc575b600080fd5b6100a761016c565b005b6100a7600480360360208110156100bf57600080fd5b503573ffffffffffffffffffffffffffffffffffffffff1661023b565b6100e461033d565b604080519115158252519081900360200190f35b6100a76004803603602081101561010e57600080fd5b503573ffffffffffffffffffffffffffffffffffffffff1661035e565b61013361045c565b6040805173ffffffffffffffffffffffffffffffffffffffff9092168252519081900360200190f35b6100a7610478565b610133610530565b610197336000357bffffffffffffffffffffffffffffffffffffffffffffffffffffffff191661054c565b151561020457604080517f08c379a000000000000000000000000000000000000000000000000000000000815260206004820152601460248201527f617574683a206e6f7420617574686f72697a6564000000000000000000000000604482015290519081900360640190fd5b6001805474ff0000000000000000000000000000000000000000191674010000000000000000000000000000000000000000179055565b610266336000357bffffffffffffffffffffffffffffffffffffffffffffffffffffffff191661054c565b15156102d357604080517f08c379a000000000000000000000000000000000000000000000000000000000815260206004820152601460248201527f617574683a206e6f7420617574686f72697a6564000000000000000000000000604482015290519081900360640190fd5b6001805473ffffffffffffffffffffffffffffffffffffffff191673ffffffffffffffffffffffffffffffffffffffff83811691909117918290556040519116907fce241d7ca1f669fee44b6fc00b8eba2df3bb514eed0f6f668f8f89096e81ed9490600090a250565b60015474010000000000000000000000000000000000000000900460ff1681565b610389336000357bffffffffffffffffffffffffffffffffffffffffffffffffffffffff191661054c565b15156103f657604080517f08c379a000000000000000000000000000000000000000000000000000000000815260206004820152601460248201527f617574683a206e6f7420617574686f72697a6564000000000000000000000000604482015290519081900360640190fd5b6000805473ffffffffffffffffffffffffffffffffffffffff191673ffffffffffffffffffffffffffffffffffffffff838116919091178083556040519116917f1abebea81bfa2637f28358c371278fb15ede7ea8dd28d2e03b112ff6d936ada491a250565b60015473ffffffffffffffffffffffffffffffffffffffff1681565b6104a3336000357bffffffffffffffffffffffffffffffffffffffffffffffffffffffff191661054c565b151561051057604080517f08c379a000000000000000000000000000000000000000000000000000000000815260206004820152601460248201527f617574683a206e6f7420617574686f72697a6564000000000000000000000000604482015290519081900360640190fd5b6001805474ff000000000000000000000000000000000000000019169055565b60005473ffffffffffffffffffffffffffffffffffffffff1681565b600073ffffffffffffffffffffffffffffffffffffffff831630141561057457506001610693565b60015473ffffffffffffffffffffffffffffffffffffffff8481169116141561059f57506001610693565b60005473ffffffffffffffffffffffffffffffffffffffff1615156105c657506000610693565b600054604080517fb700961300000000000000000000000000000000000000000000000000000000815273ffffffffffffffffffffffffffffffffffffffff86811660048301523060248301527bffffffffffffffffffffffffffffffffffffffffffffffffffffffff19861660448301529151919092169163b7009613916064808301926020929190829003018186803b15801561066457600080fd5b505afa158015610678573d6000803e3d6000fd5b505050506040513d602081101561068e57600080fd5b505190505b9291505056fea165627a7a72305820ca27cd0a8534962bf7de9a3278c162ce9d43ec73428ef842af914fbd66229d180029",
  "source": "/// stop.sol -- mixin for enable/disable functionality\n\n// Copyright (C) 2017  DappHub, LLC\n\n// This program is free software: you can redistribute it and/or modify\n// it under the terms of the GNU General Public License as published by\n// the Free Software Foundation, either version 3 of the License, or\n// (at your option) any later version.\n\n// This program is distributed in the hope that it will be useful,\n// but WITHOUT ANY WARRANTY; without even the implied warranty of\n// MERCHANTABILITY or FITNESS FOR A PARTICULAR PURPOSE.  See the\n// GNU General Public License for more details.\n\n// You should have received a copy of the GNU General Public License\n// along with this program.  If not, see <http://www.gnu.org/licenses/>.\n\npragma solidity ^0.5.4;\n\nimport \"./DSAuth.sol\";\n\ncontract DSStop is DSAuth {\n\n    bool public stopped;\n\n    modifier stoppable {\n        require(!stopped);\n        _;\n    }\n    function stop() public auth {\n        stopped = true;\n    }\n    function start() public auth {\n        stopped = false;\n    }\n\n}\n",
  "sourcePath": "/Users/name/dev/smartcontracts/contracts/test/maker/DS/DSStop.sol",
  "compiler": {
    "name": "solc",
    "version": "0.5.4+commit.9549d8ff.Emscripten.clang",
    "optimizer": true,
    "runs": 999
  },
  "schemaVersion": "2.3.1",
  "updatedAt": "2020-04-01T21:49:53.044Z"
}