{
  "contractName": "DSValue",
  "abi": [
    {
      "constant": false,
      "inputs": [
        {
          "name": "owner_",
          "type": "address"
        }
      ],
      "name": "setOwner",
      "outputs": [],
      "payable": false,
      "stateMutability": "nonpayable",
      "type": "function"
    },
    {
      "constant": false,
      "inputs": [
        {
          "name": "authority_",
          "type": "address"
        }
      ],
      "name": "setAuthority",
      "outputs": [],
      "payable": false,
      "stateMutability": "nonpayable",
      "type": "function"
    },
    {
      "constant": true,
      "inputs": [],
      "name": "owner",
      "outputs": [
        {
          "name": "",
          "type": "address"
        }
      ],
      "payable": false,
      "stateMutability": "view",
      "type": "function"
    },
    {
      "constant": true,
      "inputs": [],
      "name": "authority",
      "outputs": [
        {
          "name": "",
          "type": "address"
        }
      ],
      "payable": false,
      "stateMutability": "view",
      "type": "function"
    },
    {
      "anonymous": true,
      "inputs": [
        {
          "indexed": true,
          "name": "sig",
          "type": "bytes4"
        },
        {
          "indexed": true,
          "name": "guy",
          "type": "address"
        },
        {
          "indexed": true,
          "name": "foo",
          "type": "bytes32"
        },
        {
          "indexed": true,
          "name": "bar",
          "type": "bytes32"
        },
        {
          "indexed": false,
          "name": "wad",
          "type": "uint256"
        },
        {
          "indexed": false,
          "name": "fax",
          "type": "bytes"
        }
      ],
      "name": "LogNote",
      "type": "event"
    },
    {
      "anonymous": false,
      "inputs": [
        {
          "indexed": true,
          "name": "authority",
          "type": "address"
        }
      ],
      "name": "LogSetAuthority",
      "type": "event"
    },
    {
      "anonymous": false,
      "inputs": [
        {
          "indexed": true,
          "name": "owner",
          "type": "address"
        }
      ],
      "name": "LogSetOwner",
      "type": "event"
    },
    {
      "constant": true,
      "inputs": [],
      "name": "peek",
      "outputs": [
        {
          "name": "",
          "type": "bytes32"
        },
        {
          "name": "",
          "type": "bool"
        }
      ],
      "payable": false,
      "stateMutability": "view",
      "type": "function"
    },
    {
      "constant": true,
      "inputs": [],
      "name": "read",
      "outputs": [
        {
          "name": "",
          "type": "bytes32"
        }
      ],
      "payable": false,
      "stateMutability": "view",
      "type": "function"
    },
    {
      "constant": false,
      "inputs": [
        {
          "name": "wut",
          "type": "bytes32"
        }
      ],
      "name": "poke",
      "outputs": [],
      "payable": true,
      "stateMutability": "payable",
      "type": "function"
    },
    {
      "constant": false,
      "inputs": [],
      "name": "void",
      "outputs": [],
      "payable": true,
      "stateMutability": "payable",
      "type": "function"
    }
  ],
  "bytecode": "0x6080604081905260018054600160a060020a03191633908117909155907fce241d7ca1f669fee44b6fc00b8eba2df3bb514eed0f6f668f8f89096e81ed9490600090a261085d806100516000396000f3fe608060405260043610610098576000357c0100000000000000000000000000000000000000000000000000000000900480637a9e5e4b1161006b5780637a9e5e4b146101515780638da5cb5b14610191578063ac4c25b2146101cf578063bf7e214f146101d757610098565b806313af40351461009d5780631504460f146100df57806357de26a4146100fc57806359e02dd714610123575b600080fd5b3480156100a957600080fd5b506100dd600480360360208110156100c057600080fd5b503573ffffffffffffffffffffffffffffffffffffffff166101ec565b005b6100dd600480360360208110156100f557600080fd5b50356102ee565b34801561010857600080fd5b50610111610438565b60408051918252519081900360200190f35b34801561012f57600080fd5b50610138610458565b6040805192835290151560208301528051918290030190f35b34801561015d57600080fd5b506100dd6004803603602081101561017457600080fd5b503573ffffffffffffffffffffffffffffffffffffffff1661047e565b34801561019d57600080fd5b506101a661057c565b6040805173ffffffffffffffffffffffffffffffffffffffff9092168252519081900360200190f35b6100dd610598565b3480156101e357600080fd5b506101a66106c8565b610217336000357bffffffffffffffffffffffffffffffffffffffffffffffffffffffff19166106e4565b151561028457604080517f08c379a000000000000000000000000000000000000000000000000000000000815260206004820152601460248201527f617574683a206e6f7420617574686f72697a6564000000000000000000000000604482015290519081900360640190fd5b6001805473ffffffffffffffffffffffffffffffffffffffff191673ffffffffffffffffffffffffffffffffffffffff83811691909117918290556040519116907fce241d7ca1f669fee44b6fc00b8eba2df3bb514eed0f6f668f8f89096e81ed9490600090a250565b604080513480825260208201838152369383018490526004359360243593849386933393600080357bffffffffffffffffffffffffffffffffffffffffffffffffffffffff191694909260608201848480828437600083820152604051601f909101601f1916909201829003965090945050505050a461038f336000357bffffffffffffffffffffffffffffffffffffffffffffffffffffffff19166106e4565b15156103fc57604080517f08c379a000000000000000000000000000000000000000000000000000000000815260206004820152601460248201527f617574683a206e6f7420617574686f72697a6564000000000000000000000000604482015290519081900360640190fd5b50506002556001805474ff0000000000000000000000000000000000000000191674010000000000000000000000000000000000000000179055565b6000806000610445610458565b9150915080151561045257fe5b50905090565b60025460015460ff74010000000000000000000000000000000000000000909104169091565b6104a9336000357bffffffffffffffffffffffffffffffffffffffffffffffffffffffff19166106e4565b151561051657604080517f08c379a000000000000000000000000000000000000000000000000000000000815260206004820152601460248201527f617574683a206e6f7420617574686f72697a6564000000000000000000000000604482015290519081900360640190fd5b6000805473ffffffffffffffffffffffffffffffffffffffff191673ffffffffffffffffffffffffffffffffffffffff838116919091178083556040519116917f1abebea81bfa2637f28358c371278fb15ede7ea8dd28d2e03b112ff6d936ada491a250565b60015473ffffffffffffffffffffffffffffffffffffffff1681565b604080513480825260208201838152369383018490526004359360243593849386933393600080357bffffffffffffffffffffffffffffffffffffffffffffffffffffffff191694909260608201848480828437600083820152604051601f909101601f1916909201829003965090945050505050a4610639336000357bffffffffffffffffffffffffffffffffffffffffffffffffffffffff19166106e4565b15156106a657604080517f08c379a000000000000000000000000000000000000000000000000000000000815260206004820152601460248201527f617574683a206e6f7420617574686f72697a6564000000000000000000000000604482015290519081900360640190fd5b50506001805474ff000000000000000000000000000000000000000019169055565b60005473ffffffffffffffffffffffffffffffffffffffff1681565b600073ffffffffffffffffffffffffffffffffffffffff831630141561070c5750600161082b565b60015473ffffffffffffffffffffffffffffffffffffffff848116911614156107375750600161082b565b60005473ffffffffffffffffffffffffffffffffffffffff16151561075e5750600061082b565b600054604080517fb700961300000000000000000000000000000000000000000000000000000000815273ffffffffffffffffffffffffffffffffffffffff86811660048301523060248301527bffffffffffffffffffffffffffffffffffffffffffffffffffffffff19861660448301529151919092169163b7009613916064808301926020929190829003018186803b1580156107fc57600080fd5b505afa158015610810573d6000803e3d6000fd5b505050506040513d602081101561082657600080fd5b505190505b9291505056fea165627a7a7230582088253de26be3a514bde61d8a93dff5e0796e79e8aa90a2788a7dddf23dd904aa0029",
  "source": "/// value.sol - a value is a simple thing, it can be get and set\n\n// Copyright (C) 2017  DappHub, LLC\n\n// This program is free software: you can redistribute it and/or modify\n// it under the terms of the GNU General Public License as published by\n// the Free Software Foundation, either version 3 of the License, or\n// (at your option) any later version.\n\n// This program is distributed in the hope that it will be useful,\n// but WITHOUT ANY WARRANTY; without even the implied warranty of\n// MERCHANTABILITY or FITNESS FOR A PARTICULAR PURPOSE.  See the\n// GNU General Public License for more details.\n\n// You should have received a copy of the GNU General Public License\n// along with this program.  If not, see <http://www.gnu.org/licenses/>.\n\npragma solidity ^0.5.4;\n\nimport \"./DSThing.sol\";\n\ncontract DSValue is DSThing {\n    bool    has;\n    bytes32 val;\n    function peek() public view returns (bytes32, bool) {\n        return (val,has);\n    }\n    function read() public view returns (bytes32) {\n        (bytes32 wut, bool haz) = peek();\n        assert(haz);\n        return wut;\n    }\n    function poke(bytes32 wut) public payable note auth {\n        val = wut;\n        has = true;\n    }\n    function void() public payable note auth {  // unset the value\n        has = false;\n    }\n}\n",
  "sourcePath": "/Users/name/dev/smartcontracts/contracts/test/maker/DS/DSValue.sol",
  "compiler": {
    "name": "solc",
    "version": "0.5.4+commit.9549d8ff.Emscripten.clang",
    "optimizer": true,
    "runs": 999
  },
  "schemaVersion": "2.3.1",
  "updatedAt": "2020-04-01T21:49:53.052Z"
}