{
  "contractName": "ENSRegistryWithFallback",
  "abi": [
    {
      "constant": false,
      "inputs": [
        {
          "name": "node",
          "type": "bytes32"
        },
        {
          "name": "label",
          "type": "bytes32"
        },
        {
          "name": "owner",
          "type": "address"
        }
      ],
      "name": "setSubnodeOwner",
      "outputs": [
        {
          "name": "",
          "type": "bytes32"
        }
      ],
      "payable": false,
      "stateMutability": "nonpayable",
      "type": "function"
    },
    {
      "constant": false,
      "inputs": [
        {
          "name": "node",
          "type": "bytes32"
        },
        {
          "name": "ttl",
          "type": "uint64"
        }
      ],
      "name": "setTTL",
      "outputs": [],
      "payable": false,
      "stateMutability": "nonpayable",
      "type": "function"
    },
    {
      "constant": false,
      "inputs": [
        {
          "name": "node",
          "type": "bytes32"
        },
        {
          "name": "resolver",
          "type": "address"
        }
      ],
      "name": "setResolver",
      "outputs": [],
      "payable": false,
      "stateMutability": "nonpayable",
      "type": "function"
    },
    {
      "constant": false,
      "inputs": [
        {
          "name": "node",
          "type": "bytes32"
        },
        {
          "name": "owner",
          "type": "address"
        }
      ],
      "name": "setOwner",
      "outputs": [],
      "payable": false,
      "stateMutability": "nonpayable",
      "type": "function"
    },
    {
      "constant": false,
      "inputs": [
        {
          "name": "node",
          "type": "bytes32"
        },
        {
          "name": "label",
          "type": "bytes32"
        },
        {
          "name": "owner",
          "type": "address"
        },
        {
          "name": "resolver",
          "type": "address"
        },
        {
          "name": "ttl",
          "type": "uint64"
        }
      ],
      "name": "setSubnodeRecord",
      "outputs": [],
      "payable": false,
      "stateMutability": "nonpayable",
      "type": "function"
    },
    {
      "constant": false,
      "inputs": [
        {
          "name": "operator",
          "type": "address"
        },
        {
          "name": "approved",
          "type": "bool"
        }
      ],
      "name": "setApprovalForAll",
      "outputs": [],
      "payable": false,
      "stateMutability": "nonpayable",
      "type": "function"
    },
    {
      "constant": true,
      "inputs": [],
      "name": "old",
      "outputs": [
        {
          "name": "",
          "type": "address"
        }
      ],
      "payable": false,
      "stateMutability": "view",
      "type": "function"
    },
    {
      "constant": false,
      "inputs": [
        {
          "name": "node",
          "type": "bytes32"
        },
        {
          "name": "owner",
          "type": "address"
        },
        {
          "name": "resolver",
          "type": "address"
        },
        {
          "name": "ttl",
          "type": "uint64"
        }
      ],
      "name": "setRecord",
      "outputs": [],
      "payable": false,
      "stateMutability": "nonpayable",
      "type": "function"
    },
    {
      "constant": true,
      "inputs": [
        {
          "name": "owner",
          "type": "address"
        },
        {
          "name": "operator",
          "type": "address"
        }
      ],
      "name": "isApprovedForAll",
      "outputs": [
        {
          "name": "",
          "type": "bool"
        }
      ],
      "payable": false,
      "stateMutability": "view",
      "type": "function"
    },
    {
      "constant": true,
      "inputs": [
        {
          "name": "node",
          "type": "bytes32"
        }
      ],
      "name": "recordExists",
      "outputs": [
        {
          "name": "",
          "type": "bool"
        }
      ],
      "payable": false,
      "stateMutability": "view",
      "type": "function"
    },
    {
      "inputs": [
        {
          "name": "_old",
          "type": "address"
        }
      ],
      "payable": false,
      "stateMutability": "nonpayable",
      "type": "constructor"
    },
    {
      "anonymous": false,
      "inputs": [
        {
          "indexed": true,
          "name": "node",
          "type": "bytes32"
        },
        {
          "indexed": true,
          "name": "label",
          "type": "bytes32"
        },
        {
          "indexed": false,
          "name": "owner",
          "type": "address"
        }
      ],
      "name": "NewOwner",
      "type": "event"
    },
    {
      "anonymous": false,
      "inputs": [
        {
          "indexed": true,
          "name": "node",
          "type": "bytes32"
        },
        {
          "indexed": false,
          "name": "owner",
          "type": "address"
        }
      ],
      "name": "Transfer",
      "type": "event"
    },
    {
      "anonymous": false,
      "inputs": [
        {
          "indexed": true,
          "name": "node",
          "type": "bytes32"
        },
        {
          "indexed": false,
          "name": "resolver",
          "type": "address"
        }
      ],
      "name": "NewResolver",
      "type": "event"
    },
    {
      "anonymous": false,
      "inputs": [
        {
          "indexed": true,
          "name": "node",
          "type": "bytes32"
        },
        {
          "indexed": false,
          "name": "ttl",
          "type": "uint64"
        }
      ],
      "name": "NewTTL",
      "type": "event"
    },
    {
      "anonymous": false,
      "inputs": [
        {
          "indexed": true,
          "name": "owner",
          "type": "address"
        },
        {
          "indexed": true,
          "name": "operator",
          "type": "address"
        },
        {
          "indexed": false,
          "name": "approved",
          "type": "bool"
        }
      ],
      "name": "ApprovalForAll",
      "type": "event"
    },
    {
      "constant": true,
      "inputs": [
        {
          "name": "node",
          "type": "bytes32"
        }
      ],
      "name": "resolver",
      "outputs": [
        {
          "name": "",
          "type": "address"
        }
      ],
      "payable": false,
      "stateMutability": "view",
      "type": "function"
    },
    {
      "constant": true,
      "inputs": [
        {
          "name": "node",
          "type": "bytes32"
        }
      ],
      "name": "owner",
      "outputs": [
        {
          "name": "",
          "type": "address"
        }
      ],
      "payable": false,
      "stateMutability": "view",
      "type": "function"
    },
    {
      "constant": true,
      "inputs": [
        {
          "name": "node",
          "type": "bytes32"
        }
      ],
      "name": "ttl",
      "outputs": [
        {
          "name": "",
          "type": "uint64"
        }
      ],
      "payable": false,
      "stateMutability": "view",
      "type": "function"
    }
  ],
  "bytecode": "0x608060405234801561001057600080fd5b50604051602080610c7b8339810180604052602081101561003057600080fd5b505160008080526020527fad3228b676f7d3cd4284a5443f17f1962b36e491b30a40b2405849e597ba5fb58054600160a060020a0319908116331790915560028054600160a060020a0390931692909116919091179055610be5806100966000396000f3fe608060405234801561001057600080fd5b50600436106100ec576000357c0100000000000000000000000000000000000000000000000000000000900480635b0fc9c3116100a9578063b83f866311610083578063b83f8663146102c7578063cf408823146102cf578063e985e9c514610316578063f79fe53814610358576100ec565b80635b0fc9c3146102205780635ef2c7f01461024c578063a22cb46514610299576100ec565b80630178b8bf146100f157806302571be31461012a57806306ab59231461014757806314ab90381461018b57806316a25cbd146101ba5780631896f70a146101f4575b600080fd5b61010e6004803603602081101561010757600080fd5b5035610375565b60408051600160a060020a039092168252519081900360200190f35b61010e6004803603602081101561014057600080fd5b503561042f565b6101796004803603606081101561015d57600080fd5b5080359060208101359060400135600160a060020a03166104ae565b60408051918252519081900360200190f35b6101b8600480360360408110156101a157600080fd5b508035906020013567ffffffffffffffff16610580565b005b6101d7600480360360208110156101d057600080fd5b5035610678565b6040805167ffffffffffffffff9092168252519081900360200190f35b6101b86004803603604081101561020a57600080fd5b5080359060200135600160a060020a03166106f7565b6101b86004803603604081101561023657600080fd5b5080359060200135600160a060020a03166107cc565b6101b8600480360360a081101561026257600080fd5b508035906020810135906040810135600160a060020a03908116916060810135909116906080013567ffffffffffffffff16610871565b6101b8600480360360408110156102af57600080fd5b50600160a060020a0381351690602001351515610893565b61010e610901565b6101b8600480360360808110156102e557600080fd5b508035906020810135600160a060020a03908116916040810135909116906060013567ffffffffffffffff16610910565b6103446004803603604081101561032c57600080fd5b50600160a060020a038135811691602001351661092b565b604080519115158252519081900360200190f35b6103446004803603602081101561036e57600080fd5b5035610959565b600061038082610959565b151561041e57600254604080517f0178b8bf000000000000000000000000000000000000000000000000000000008152600481018590529051600160a060020a0390921691630178b8bf91602480820192602092909190829003018186803b1580156103eb57600080fd5b505afa1580156103ff573d6000803e3d6000fd5b505050506040513d602081101561041557600080fd5b5051905061042a565b61042782610976565b90505b919050565b600061043a82610959565b15156104a557600254604080517f02571be3000000000000000000000000000000000000000000000000000000008152600481018590529051600160a060020a03909216916302571be391602480820192602092909190829003018186803b1580156103eb57600080fd5b61042782610994565b6000838152602081905260408120548490600160a060020a0316338114806104f95750600160a060020a038116600090815260016020908152604080832033845290915290205460ff165b151561050457600080fd5b6040805160208082018990528183018890528251808303840181526060909201909252805191012061053681866109be565b60408051600160a060020a03871681529051879189917fce0457fe73731f824cc272376169235128c118b49d344817417c6d108d155e829181900360200190a39695505050505050565b6000828152602081905260409020548290600160a060020a0316338114806105cb5750600160a060020a038116600090815260016020908152604080832033845290915290205460ff165b15156105d657600080fd5b6040805167ffffffffffffffff85168152905185917f1d4f9bbfc9cab89d66e1a1562f2233ccbf1308cb4f63de2ead5787adddb8fa68919081900360200190a25050600091825260208290526040909120600101805467ffffffffffffffff90921674010000000000000000000000000000000000000000027bffffffffffffffff000000000000000000000000000000000000000019909216919091179055565b600061068382610959565b15156106ee57600254604080517f16a25cbd000000000000000000000000000000000000000000000000000000008152600481018590529051600160a060020a03909216916316a25cbd91602480820192602092909190829003018186803b1580156103eb57600080fd5b610427826109e1565b6000828152602081905260409020548290600160a060020a0316338114806107425750600160a060020a038116600090815260016020908152604080832033845290915290205460ff165b151561074d57600080fd5b60408051600160a060020a0385168152905185917f335721b01866dc23fbee8b6b2c7b1e14d6f05c28cd35a2c934239f94095602a0919081900360200190a25050600091825260208290526040909120600101805473ffffffffffffffffffffffffffffffffffffffff1916600160a060020a03909216919091179055565b6000828152602081905260409020548290600160a060020a0316338114806108175750600160a060020a038116600090815260016020908152604080832033845290915290205460ff165b151561082257600080fd5b61082c84846109be565b60408051600160a060020a0385168152905185917fd4735d920b0f87494915f556dd9b54c8f309026070caea5c737245152564d266919081900360200190a250505050565b600061087e8686866104ae565b905061088b818484610a18565b505050505050565b336000818152600160209081526040808320600160a060020a03871680855290835292819020805460ff1916861515908117909155815190815290519293927f17307eab39ab6107e8899845ad3d59bd9653f200f220920489ca2b5937696c31929181900390910190a35050565b600254600160a060020a031681565b61091a84846107cc565b610925848383610a18565b50505050565b600160a060020a03918216600090815260016020908152604080832093909416825291909152205460ff1690565b600090815260208190526040902054600160a060020a0316151590565b600090815260208190526040902060010154600160a060020a031690565b600081815260208190526040812054600160a060020a03163081141561042757600091505061042a565b80600160a060020a03811615156109d25750305b6109dc8382610b7e565b505050565b60009081526020819052604090206001015474010000000000000000000000000000000000000000900467ffffffffffffffff1690565b600083815260208190526040902060010154600160a060020a03838116911614610aab5760008381526020818152604091829020600101805473ffffffffffffffffffffffffffffffffffffffff1916600160a060020a0386169081179091558251908152915185927f335721b01866dc23fbee8b6b2c7b1e14d6f05c28cd35a2c934239f94095602a092908290030190a25b60008381526020819052604090206001015467ffffffffffffffff8281167401000000000000000000000000000000000000000090920416146109dc576000838152602081815260409182902060010180547bffffffffffffffff000000000000000000000000000000000000000019167401000000000000000000000000000000000000000067ffffffffffffffff8616908102919091179091558251908152915185927f1d4f9bbfc9cab89d66e1a1562f2233ccbf1308cb4f63de2ead5787adddb8fa6892908290030190a2505050565b600091825260208290526040909120805473ffffffffffffffffffffffffffffffffffffffff1916600160a060020a0390921691909117905556fea165627a7a723058205da9d5bb11506e838203f2941085ad9c3bc5f35a303418e410be0c208e869d0f0029",
  "source": "/**\n * ENS Registry with fallback interface.\n * Reference: https://github.com/ensdomains/ens/blob/master/contracts/ENSRegistryWithFallback.sol\n */\n \npragma solidity ^0.5.0;\n\nimport \"./ENS.sol\";\nimport \"./ENSRegistry.sol\";\n\ncontract ENSRegistryWithFallback is ENSRegistry {\n\n    ENS public old;\n\n    /**\n     * @dev Constructs a new ENS registrar.\n     */\n    constructor(ENS _old) public ENSRegistry() {\n        old = _old;\n    }\n\n    /**\n     * @dev Returns the address of the resolver for the specified node.\n     * @param node The specified node.\n     * @return address of the resolver.\n     */\n    function resolver(bytes32 node) public view returns (address) {\n        if (!recordExists(node)) {\n            return old.resolver(node);\n        }\n\n        return super.resolver(node);\n    }\n\n    /**\n     * @dev Returns the address that owns the specified node.\n     * @param node The specified node.\n     * @return address of the owner.\n     */\n    function owner(bytes32 node) public view returns (address) {\n        if (!recordExists(node)) {\n            return old.owner(node);\n        }\n\n        return super.owner(node);\n    }\n\n    /**\n     * @dev Returns the TTL of a node, and any records associated with it.\n     * @param node The specified node.\n     * @return ttl of the node.\n     */\n    function ttl(bytes32 node) public view returns (uint64) {\n        if (!recordExists(node)) {\n            return old.ttl(node);\n        }\n\n        return super.ttl(node);\n    }\n\n    function _setOwner(bytes32 node, address owner) internal {\n        address addr = owner;\n        if (addr == address(0x0)) {\n            addr = address(this);\n        }\n\n        super._setOwner(node, addr);\n    }\n}",
  "sourcePath": "/Users/name/dev/argent-contracts-release-1.5.0/lib/ens/ENSRegistryWithFallback.sol",
  "compiler": {
    "name": "solc",
    "version": "0.5.4+commit.9549d8ff.Emscripten.clang",
    "optimizer": true,
    "runs": 200
  },
  "schemaVersion": "2.3.1",
  "updatedAt": "2020-04-01T04:47:35.073Z"
}