{
  "contractName": "ERC721Mintable",
  "abi": [
    {
      "constant": true,
      "inputs": [
        {
          "name": "interfaceId",
          "type": "bytes4"
        }
      ],
      "name": "supportsInterface",
      "outputs": [
        {
          "name": "",
          "type": "bool"
        }
      ],
      "payable": false,
      "stateMutability": "view",
      "type": "function"
    },
    {
      "constant": true,
      "inputs": [
        {
          "name": "tokenId",
          "type": "uint256"
        }
      ],
      "name": "getApproved",
      "outputs": [
        {
          "name": "",
          "type": "address"
        }
      ],
      "payable": false,
      "stateMutability": "view",
      "type": "function"
    },
    {
      "constant": false,
      "inputs": [
        {
          "name": "to",
          "type": "address"
        },
        {
          "name": "tokenId",
          "type": "uint256"
        }
      ],
      "name": "approve",
      "outputs": [],
      "payable": false,
      "stateMutability": "nonpayable",
      "type": "function"
    },
    {
      "constant": false,
      "inputs": [
        {
          "name": "from",
          "type": "address"
        },
        {
          "name": "to",
          "type": "address"
        },
        {
          "name": "tokenId",
          "type": "uint256"
        }
      ],
      "name": "transferFrom",
      "outputs": [],
      "payable": false,
      "stateMutability": "nonpayable",
      "type": "function"
    },
    {
      "constant": false,
      "inputs": [
        {
          "name": "from",
          "type": "address"
        },
        {
          "name": "to",
          "type": "address"
        },
        {
          "name": "tokenId",
          "type": "uint256"
        }
      ],
      "name": "safeTransferFrom",
      "outputs": [],
      "payable": false,
      "stateMutability": "nonpayable",
      "type": "function"
    },
    {
      "constant": true,
      "inputs": [
        {
          "name": "tokenId",
          "type": "uint256"
        }
      ],
      "name": "ownerOf",
      "outputs": [
        {
          "name": "",
          "type": "address"
        }
      ],
      "payable": false,
      "stateMutability": "view",
      "type": "function"
    },
    {
      "constant": true,
      "inputs": [
        {
          "name": "owner",
          "type": "address"
        }
      ],
      "name": "balanceOf",
      "outputs": [
        {
          "name": "",
          "type": "uint256"
        }
      ],
      "payable": false,
      "stateMutability": "view",
      "type": "function"
    },
    {
      "constant": false,
      "inputs": [
        {
          "name": "account",
          "type": "address"
        }
      ],
      "name": "addMinter",
      "outputs": [],
      "payable": false,
      "stateMutability": "nonpayable",
      "type": "function"
    },
    {
      "constant": false,
      "inputs": [],
      "name": "renounceMinter",
      "outputs": [],
      "payable": false,
      "stateMutability": "nonpayable",
      "type": "function"
    },
    {
      "constant": false,
      "inputs": [
        {
          "name": "to",
          "type": "address"
        },
        {
          "name": "approved",
          "type": "bool"
        }
      ],
      "name": "setApprovalForAll",
      "outputs": [],
      "payable": false,
      "stateMutability": "nonpayable",
      "type": "function"
    },
    {
      "constant": true,
      "inputs": [
        {
          "name": "account",
          "type": "address"
        }
      ],
      "name": "isMinter",
      "outputs": [
        {
          "name": "",
          "type": "bool"
        }
      ],
      "payable": false,
      "stateMutability": "view",
      "type": "function"
    },
    {
      "constant": false,
      "inputs": [
        {
          "name": "from",
          "type": "address"
        },
        {
          "name": "to",
          "type": "address"
        },
        {
          "name": "tokenId",
          "type": "uint256"
        },
        {
          "name": "_data",
          "type": "bytes"
        }
      ],
      "name": "safeTransferFrom",
      "outputs": [],
      "payable": false,
      "stateMutability": "nonpayable",
      "type": "function"
    },
    {
      "constant": true,
      "inputs": [
        {
          "name": "owner",
          "type": "address"
        },
        {
          "name": "operator",
          "type": "address"
        }
      ],
      "name": "isApprovedForAll",
      "outputs": [
        {
          "name": "",
          "type": "bool"
        }
      ],
      "payable": false,
      "stateMutability": "view",
      "type": "function"
    },
    {
      "anonymous": false,
      "inputs": [
        {
          "indexed": true,
          "name": "account",
          "type": "address"
        }
      ],
      "name": "MinterAdded",
      "type": "event"
    },
    {
      "anonymous": false,
      "inputs": [
        {
          "indexed": true,
          "name": "account",
          "type": "address"
        }
      ],
      "name": "MinterRemoved",
      "type": "event"
    },
    {
      "anonymous": false,
      "inputs": [
        {
          "indexed": true,
          "name": "from",
          "type": "address"
        },
        {
          "indexed": true,
          "name": "to",
          "type": "address"
        },
        {
          "indexed": true,
          "name": "tokenId",
          "type": "uint256"
        }
      ],
      "name": "Transfer",
      "type": "event"
    },
    {
      "anonymous": false,
      "inputs": [
        {
          "indexed": true,
          "name": "owner",
          "type": "address"
        },
        {
          "indexed": true,
          "name": "approved",
          "type": "address"
        },
        {
          "indexed": true,
          "name": "tokenId",
          "type": "uint256"
        }
      ],
      "name": "Approval",
      "type": "event"
    },
    {
      "anonymous": false,
      "inputs": [
        {
          "indexed": true,
          "name": "owner",
          "type": "address"
        },
        {
          "indexed": true,
          "name": "operator",
          "type": "address"
        },
        {
          "indexed": false,
          "name": "approved",
          "type": "bool"
        }
      ],
      "name": "ApprovalForAll",
      "type": "event"
    },
    {
      "constant": false,
      "inputs": [
        {
          "name": "to",
          "type": "address"
        },
        {
          "name": "tokenId",
          "type": "uint256"
        }
      ],
      "name": "mint",
      "outputs": [
        {
          "name": "",
          "type": "bool"
        }
      ],
      "payable": false,
      "stateMutability": "nonpayable",
      "type": "function"
    }
  ],
  "bytecode": "0x6080604052620000387f01ffc9a70000000000000000000000000000000000000000000000000000000064010000000062000086810204565b6200006c7f80ac58cd0000000000000000000000000000000000000000000000000000000064010000000062000086810204565b620000803364010000000062000155810204565b620002d3565b7fffffffff0000000000000000000000000000000000000000000000000000000080821614156200011857604080517f08c379a000000000000000000000000000000000000000000000000000000000815260206004820152601c60248201527f4552433136353a20696e76616c696420696e7465726661636520696400000000604482015290519081900360640190fd5b7fffffffff00000000000000000000000000000000000000000000000000000000166000908152602081905260409020805460ff19166001179055565b6200017060058264010000000062000ff0620001a782021704565b604051600160a060020a038216907f6ae172837ea30b801fbfcdd4108aa1d5bf8ff775444fd70256b44e6bf3dfc3f690600090a250565b620001bc82826401000000006200024e810204565b156200022957604080517f08c379a000000000000000000000000000000000000000000000000000000000815260206004820152601f60248201527f526f6c65733a206163636f756e7420616c72656164792068617320726f6c6500604482015290519081900360640190fd5b600160a060020a0316600090815260209190915260409020805460ff19166001179055565b6000600160a060020a0382161515620002b3576040517f08c379a0000000000000000000000000000000000000000000000000000000008152600401808060200182810382526022815260200180620016ad6022913960400191505060405180910390fd5b50600160a060020a03166000908152602091909152604090205460ff1690565b6113ca80620002e36000396000f3fe608060405234801561001057600080fd5b5060043610610107576000357c01000000000000000000000000000000000000000000000000000000009004806370a08231116100a9578063a22cb46511610083578063a22cb465146102e1578063aa271e1a1461030f578063b88d4fde14610335578063e985e9c5146103fb57610107565b806370a082311461027b578063983b2d56146102b357806398650275146102d957610107565b806323b872dd116100e557806323b872dd146101c657806340c10f19146101fc57806342842e0e146102285780636352211e1461025e57610107565b806301ffc9a71461010c578063081812fc1461015f578063095ea7b314610198575b600080fd5b61014b6004803603602081101561012257600080fd5b50357fffffffff0000000000000000000000000000000000000000000000000000000016610429565b604080519115158252519081900360200190f35b61017c6004803603602081101561017557600080fd5b5035610460565b60408051600160a060020a039092168252519081900360200190f35b6101c4600480360360408110156101ae57600080fd5b50600160a060020a0381351690602001356104cc565b005b6101c4600480360360608110156101dc57600080fd5b50600160a060020a038135811691602081013590911690604001356105f6565b61014b6004803603604081101561021257600080fd5b50600160a060020a038135169060200135610655565b6101c46004803603606081101561023e57600080fd5b50600160a060020a038135811691602081013590911690604001356106b8565b61017c6004803603602081101561027457600080fd5b50356106d4565b6102a16004803603602081101561029157600080fd5b5035600160a060020a0316610738565b60408051918252519081900360200190f35b6101c4600480360360208110156102c957600080fd5b5035600160a060020a03166107aa565b6101c4610804565b6101c4600480360360408110156102f757600080fd5b50600160a060020a038135169060200135151561080f565b61014b6004803603602081101561032557600080fd5b5035600160a060020a03166108e3565b6101c46004803603608081101561034b57600080fd5b600160a060020a0382358116926020810135909116916040820135919081019060808101606082013564010000000081111561038657600080fd5b82018360208201111561039857600080fd5b803590602001918460018302840111640100000000831117156103ba57600080fd5b91908080601f0160208091040260200160405190810160405280939291908181526020018383808284376000920191909152509295506108f6945050505050565b61014b6004803603604081101561041157600080fd5b50600160a060020a0381358116916020013516610958565b7fffffffff000000000000000000000000000000000000000000000000000000001660009081526020819052604090205460ff1690565b600061046b82610986565b15156104b0576040516000805160206112b6833981519152815260040180806020018281038252602c8152602001806112d6602c913960400191505060405180910390fd5b50600090815260026020526040902054600160a060020a031690565b60006104d7826106d4565b9050600160a060020a03838116908216141561052c576040516000805160206112b6833981519152815260040180806020018281038252602181526020018061134d6021913960400191505060405180910390fd5b33600160a060020a038216148061054857506105488133610958565b151561058d576040516000805160206112b683398151915281526004018080602001828103825260388152602001806111da6038913960400191505060405180910390fd5b600082815260026020526040808220805473ffffffffffffffffffffffffffffffffffffffff1916600160a060020a0387811691821790925591518593918516917f8c5be1e5ebec7d5bd14f71427d1e84f3dd0314c0f7b2291e5b200ac8c7c3b92591a4505050565b61060033826109a3565b1515610645576040516000805160206112b6833981519152815260040180806020018281038252603181526020018061136e6031913960400191505060405180910390fd5b610650838383610a51565b505050565b6000610660336108e3565b15156106a5576040516000805160206112b683398151915281526004018080602001828103825260308152602001806112656030913960400191505060405180910390fd5b6106af8383610bb4565b50600192915050565b61065083838360206040519081016040528060008152506108f6565b600081815260016020526040812054600160a060020a0316801515610732576040516000805160206112b6833981519152815260040180806020018281038252602981526020018061123c6029913960400191505060405180910390fd5b92915050565b6000600160a060020a0382161515610789576040516000805160206112b6833981519152815260040180806020018281038252602a815260200180611212602a913960400191505060405180910390fd5b600160a060020a038216600090815260036020526040902061073290610d04565b6107b3336108e3565b15156107f8576040516000805160206112b683398151915281526004018080602001828103825260308152602001806112656030913960400191505060405180910390fd5b61080181610d08565b50565b61080d33610d50565b565b600160a060020a03821633141561087557604080516000805160206112b6833981519152815260206004820152601960248201527f4552433732313a20617070726f766520746f2063616c6c657200000000000000604482015290519081900360640190fd5b336000818152600460209081526040808320600160a060020a03871680855290835292819020805460ff1916861515908117909155815190815290519293927f17307eab39ab6107e8899845ad3d59bd9653f200f220920489ca2b5937696c31929181900390910190a35050565b600061073260058363ffffffff610d9816565b6109018484846105f6565b61090d84848484610e09565b1515610952576040516000805160206112b683398151915281526004018080602001828103825260328152602001806111586032913960400191505060405180910390fd5b50505050565b600160a060020a03918216600090815260046020908152604080832093909416825291909152205460ff1690565b600090815260016020526040902054600160a060020a0316151590565b60006109ae82610986565b15156109f3576040516000805160206112b6833981519152815260040180806020018281038252602c8152602001806111ae602c913960400191505060405180910390fd5b60006109fe836106d4565b905080600160a060020a031684600160a060020a03161480610a39575083600160a060020a0316610a2e84610460565b600160a060020a0316145b80610a495750610a498185610958565b949350505050565b82600160a060020a0316610a64826106d4565b600160a060020a031614610ab1576040516000805160206112b683398151915281526004018080602001828103825260298152602001806113246029913960400191505060405180910390fd5b600160a060020a0382161515610b00576040516000805160206112b6833981519152815260040180806020018281038252602481526020018061118a6024913960400191505060405180910390fd5b610b0981610f88565b600160a060020a0383166000908152600360205260409020610b2a90610fd0565b600160a060020a0382166000908152600360205260409020610b4b90610fe7565b600081815260016020526040808220805473ffffffffffffffffffffffffffffffffffffffff1916600160a060020a0386811691821790925591518493918716917fddf252ad1be2c89b69c2b068fc378daa952ba7f163c4a11628f55a4df523b3ef91a4505050565b600160a060020a0382161515610c1957604080516000805160206112b6833981519152815260206004820181905260248201527f4552433732313a206d696e7420746f20746865207a65726f2061646472657373604482015290519081900360640190fd5b610c2281610986565b15610c7c57604080516000805160206112b6833981519152815260206004820152601c60248201527f4552433732313a20746f6b656e20616c7265616479206d696e74656400000000604482015290519081900360640190fd5b6000818152600160209081526040808320805473ffffffffffffffffffffffffffffffffffffffff1916600160a060020a038716908117909155835260039091529020610cc890610fe7565b6040518190600160a060020a038416906000907fddf252ad1be2c89b69c2b068fc378daa952ba7f163c4a11628f55a4df523b3ef908290a45050565b5490565b610d1960058263ffffffff610ff016565b604051600160a060020a038216907f6ae172837ea30b801fbfcdd4108aa1d5bf8ff775444fd70256b44e6bf3dfc3f690600090a250565b610d6160058263ffffffff61107916565b604051600160a060020a038216907fe94479a9f7e1952cc78f2d6baab678adc1b772d936c6583def489e524cb6669290600090a250565b6000600160a060020a0382161515610de9576040516000805160206112b683398151915281526004018080602001828103825260228152602001806113026022913960400191505060405180910390fd5b50600160a060020a03166000908152602091909152604090205460ff1690565b6000610e1d84600160a060020a03166110ea565b1515610e2b57506001610a49565b6040517f150b7a020000000000000000000000000000000000000000000000000000000081523360048201818152600160a060020a03888116602485015260448401879052608060648501908152865160848601528651600095928a169463150b7a029490938c938b938b939260a4019060208501908083838e5b83811015610ebe578181015183820152602001610ea6565b50505050905090810190601f168015610eeb5780820380516001836020036101000a031916815260200191505b5095505050505050602060405180830381600087803b158015610f0d57600080fd5b505af1158015610f21573d6000803e3d6000fd5b505050506040513d6020811015610f3757600080fd5b50517fffffffff00000000000000000000000000000000000000000000000000000000167f150b7a020000000000000000000000000000000000000000000000000000000014915050949350505050565b600081815260026020526040902054600160a060020a031615610801576000908152600260205260409020805473ffffffffffffffffffffffffffffffffffffffff19169055565b8054610fe390600163ffffffff6110f216565b9055565b80546001019055565b610ffa8282610d98565b1561105457604080516000805160206112b6833981519152815260206004820152601f60248201527f526f6c65733a206163636f756e7420616c72656164792068617320726f6c6500604482015290519081900360640190fd5b600160a060020a0316600090815260209190915260409020805460ff19166001179055565b6110838282610d98565b15156110c8576040516000805160206112b683398151915281526004018080602001828103825260218152602001806112956021913960400191505060405180910390fd5b600160a060020a0316600090815260209190915260409020805460ff19169055565b6000903b1190565b60008282111561115157604080516000805160206112b6833981519152815260206004820152601e60248201527f536166654d6174683a207375627472616374696f6e206f766572666c6f770000604482015290519081900360640190fd5b5090039056fe4552433732313a207472616e7366657220746f206e6f6e20455243373231526563656976657220696d706c656d656e7465724552433732313a207472616e7366657220746f20746865207a65726f20616464726573734552433732313a206f70657261746f7220717565727920666f72206e6f6e6578697374656e7420746f6b656e4552433732313a20617070726f76652063616c6c6572206973206e6f74206f776e6572206e6f7220617070726f76656420666f7220616c6c4552433732313a2062616c616e636520717565727920666f7220746865207a65726f20616464726573734552433732313a206f776e657220717565727920666f72206e6f6e6578697374656e7420746f6b656e4d696e746572526f6c653a2063616c6c657220646f6573206e6f74206861766520746865204d696e74657220726f6c65526f6c65733a206163636f756e7420646f6573206e6f74206861766520726f6c6508c379a0000000000000000000000000000000000000000000000000000000004552433732313a20617070726f76656420717565727920666f72206e6f6e6578697374656e7420746f6b656e526f6c65733a206163636f756e7420697320746865207a65726f20616464726573734552433732313a207472616e73666572206f6620746f6b656e2074686174206973206e6f74206f776e4552433732313a20617070726f76616c20746f2063757272656e74206f776e65724552433732313a207472616e736665722063616c6c6572206973206e6f74206f776e6572206e6f7220617070726f766564a165627a7a72305820ebaab0aaef24bf0cd1b5b1a703d69c2f63580680a80e2a7475dcda814e8174770029526f6c65733a206163636f756e7420697320746865207a65726f2061646472657373",
  "source": "pragma solidity ^0.5.0;\n\nimport \"./ERC721.sol\";\nimport \"../../access/roles/MinterRole.sol\";\n\n/**\n * @title ERC721Mintable\n * @dev ERC721 minting logic.\n */\ncontract ERC721Mintable is ERC721, MinterRole {\n    /**\n     * @dev Function to mint tokens.\n     * @param to The address that will receive the minted tokens.\n     * @param tokenId The token id to mint.\n     * @return A boolean that indicates if the operation was successful.\n     */\n    function mint(address to, uint256 tokenId) public onlyMinter returns (bool) {\n        _mint(to, tokenId);\n        return true;\n    }\n}\n",
  "sourcePath": "openzeppelin-solidity/contracts/token/ERC721/ERC721Mintable.sol",
  "compiler": {
    "name": "solc",
    "version": "0.5.4+commit.9549d8ff.Emscripten.clang",
    "optimizer": true,
    "runs": 999
  },
  "schemaVersion": "2.3.1",
  "updatedAt": "2020-04-01T15:58:47.416Z"
}