{
  "contractName": "ERC721Full",
  "abi": [
    {
      "constant": true,
      "inputs": [
        {
          "name": "interfaceId",
          "type": "bytes4"
        }
      ],
      "name": "supportsInterface",
      "outputs": [
        {
          "name": "",
          "type": "bool"
        }
      ],
      "payable": false,
      "stateMutability": "view",
      "type": "function"
    },
    {
      "constant": true,
      "inputs": [],
      "name": "name",
      "outputs": [
        {
          "name": "",
          "type": "string"
        }
      ],
      "payable": false,
      "stateMutability": "view",
      "type": "function"
    },
    {
      "constant": true,
      "inputs": [
        {
          "name": "tokenId",
          "type": "uint256"
        }
      ],
      "name": "getApproved",
      "outputs": [
        {
          "name": "",
          "type": "address"
        }
      ],
      "payable": false,
      "stateMutability": "view",
      "type": "function"
    },
    {
      "constant": false,
      "inputs": [
        {
          "name": "to",
          "type": "address"
        },
        {
          "name": "tokenId",
          "type": "uint256"
        }
      ],
      "name": "approve",
      "outputs": [],
      "payable": false,
      "stateMutability": "nonpayable",
      "type": "function"
    },
    {
      "constant": true,
      "inputs": [],
      "name": "totalSupply",
      "outputs": [
        {
          "name": "",
          "type": "uint256"
        }
      ],
      "payable": false,
      "stateMutability": "view",
      "type": "function"
    },
    {
      "constant": false,
      "inputs": [
        {
          "name": "from",
          "type": "address"
        },
        {
          "name": "to",
          "type": "address"
        },
        {
          "name": "tokenId",
          "type": "uint256"
        }
      ],
      "name": "transferFrom",
      "outputs": [],
      "payable": false,
      "stateMutability": "nonpayable",
      "type": "function"
    },
    {
      "constant": true,
      "inputs": [
        {
          "name": "owner",
          "type": "address"
        },
        {
          "name": "index",
          "type": "uint256"
        }
      ],
      "name": "tokenOfOwnerByIndex",
      "outputs": [
        {
          "name": "",
          "type": "uint256"
        }
      ],
      "payable": false,
      "stateMutability": "view",
      "type": "function"
    },
    {
      "constant": false,
      "inputs": [
        {
          "name": "from",
          "type": "address"
        },
        {
          "name": "to",
          "type": "address"
        },
        {
          "name": "tokenId",
          "type": "uint256"
        }
      ],
      "name": "safeTransferFrom",
      "outputs": [],
      "payable": false,
      "stateMutability": "nonpayable",
      "type": "function"
    },
    {
      "constant": true,
      "inputs": [
        {
          "name": "index",
          "type": "uint256"
        }
      ],
      "name": "tokenByIndex",
      "outputs": [
        {
          "name": "",
          "type": "uint256"
        }
      ],
      "payable": false,
      "stateMutability": "view",
      "type": "function"
    },
    {
      "constant": true,
      "inputs": [
        {
          "name": "tokenId",
          "type": "uint256"
        }
      ],
      "name": "ownerOf",
      "outputs": [
        {
          "name": "",
          "type": "address"
        }
      ],
      "payable": false,
      "stateMutability": "view",
      "type": "function"
    },
    {
      "constant": true,
      "inputs": [
        {
          "name": "owner",
          "type": "address"
        }
      ],
      "name": "balanceOf",
      "outputs": [
        {
          "name": "",
          "type": "uint256"
        }
      ],
      "payable": false,
      "stateMutability": "view",
      "type": "function"
    },
    {
      "constant": true,
      "inputs": [],
      "name": "symbol",
      "outputs": [
        {
          "name": "",
          "type": "string"
        }
      ],
      "payable": false,
      "stateMutability": "view",
      "type": "function"
    },
    {
      "constant": false,
      "inputs": [
        {
          "name": "to",
          "type": "address"
        },
        {
          "name": "approved",
          "type": "bool"
        }
      ],
      "name": "setApprovalForAll",
      "outputs": [],
      "payable": false,
      "stateMutability": "nonpayable",
      "type": "function"
    },
    {
      "constant": false,
      "inputs": [
        {
          "name": "from",
          "type": "address"
        },
        {
          "name": "to",
          "type": "address"
        },
        {
          "name": "tokenId",
          "type": "uint256"
        },
        {
          "name": "_data",
          "type": "bytes"
        }
      ],
      "name": "safeTransferFrom",
      "outputs": [],
      "payable": false,
      "stateMutability": "nonpayable",
      "type": "function"
    },
    {
      "constant": true,
      "inputs": [
        {
          "name": "tokenId",
          "type": "uint256"
        }
      ],
      "name": "tokenURI",
      "outputs": [
        {
          "name": "",
          "type": "string"
        }
      ],
      "payable": false,
      "stateMutability": "view",
      "type": "function"
    },
    {
      "constant": true,
      "inputs": [
        {
          "name": "owner",
          "type": "address"
        },
        {
          "name": "operator",
          "type": "address"
        }
      ],
      "name": "isApprovedForAll",
      "outputs": [
        {
          "name": "",
          "type": "bool"
        }
      ],
      "payable": false,
      "stateMutability": "view",
      "type": "function"
    },
    {
      "inputs": [
        {
          "name": "name",
          "type": "string"
        },
        {
          "name": "symbol",
          "type": "string"
        }
      ],
      "payable": false,
      "stateMutability": "nonpayable",
      "type": "constructor"
    },
    {
      "anonymous": false,
      "inputs": [
        {
          "indexed": true,
          "name": "from",
          "type": "address"
        },
        {
          "indexed": true,
          "name": "to",
          "type": "address"
        },
        {
          "indexed": true,
          "name": "tokenId",
          "type": "uint256"
        }
      ],
      "name": "Transfer",
      "type": "event"
    },
    {
      "anonymous": false,
      "inputs": [
        {
          "indexed": true,
          "name": "owner",
          "type": "address"
        },
        {
          "indexed": true,
          "name": "approved",
          "type": "address"
        },
        {
          "indexed": true,
          "name": "tokenId",
          "type": "uint256"
        }
      ],
      "name": "Approval",
      "type": "event"
    },
    {
      "anonymous": false,
      "inputs": [
        {
          "indexed": true,
          "name": "owner",
          "type": "address"
        },
        {
          "indexed": true,
          "name": "operator",
          "type": "address"
        },
        {
          "indexed": false,
          "name": "approved",
          "type": "bool"
        }
      ],
      "name": "ApprovalForAll",
      "type": "event"
    }
  ],
  "bytecode": "0x60806040523480156200001157600080fd5b506040516200181738038062001817833981018060405260408110156200003757600080fd5b8101908080516401000000008111156200005057600080fd5b820160208101848111156200006457600080fd5b81516401000000008111828201871017156200007f57600080fd5b505092919060200180516401000000008111156200009c57600080fd5b82016020810184811115620000b057600080fd5b8151640100000000811182820187101715620000cb57600080fd5b509093508492508391506200010b90507f01ffc9a700000000000000000000000000000000000000000000000000000000640100000000620001dd810204565b6200013f7f80ac58cd00000000000000000000000000000000000000000000000000000000640100000000620001dd810204565b620001737f780e9d6300000000000000000000000000000000000000000000000000000000640100000000620001dd810204565b815162000188906009906020850190620002ac565b5080516200019e90600a906020840190620002ac565b50620001d37f5b5e139f00000000000000000000000000000000000000000000000000000000640100000000620001dd810204565b5050505062000351565b7fffffffff0000000000000000000000000000000000000000000000000000000080821614156200026f57604080517f08c379a000000000000000000000000000000000000000000000000000000000815260206004820152601c60248201527f4552433136353a20696e76616c696420696e7465726661636520696400000000604482015290519081900360640190fd5b7fffffffff00000000000000000000000000000000000000000000000000000000166000908152602081905260409020805460ff19166001179055565b828054600181600116156101000203166002900490600052602060002090601f016020900481019282601f10620002ef57805160ff19168380011785556200031f565b828001600101855582156200031f579182015b828111156200031f57825182559160200191906001019062000302565b506200032d92915062000331565b5090565b6200034e91905b808211156200032d576000815560010162000338565b90565b6114b680620003616000396000f3fe608060405234801561001057600080fd5b506004361061011d576000357c0100000000000000000000000000000000000000000000000000000000900480634f6ccce7116100b4578063a22cb46511610083578063a22cb46514610373578063b88d4fde146103a1578063c87b56dd14610467578063e985e9c5146104845761011d565b80634f6ccce71461030b5780636352211e1461032857806370a082311461034557806395d89b411461036b5761011d565b806318160ddd116100f057806318160ddd1461025957806323b872dd146102735780632f745c59146102a957806342842e0e146102d55761011d565b806301ffc9a71461012257806306fdde0314610175578063081812fc146101f2578063095ea7b31461022b575b600080fd5b6101616004803603602081101561013857600080fd5b50357fffffffff00000000000000000000000000000000000000000000000000000000166104b2565b604080519115158252519081900360200190f35b61017d6104e9565b6040805160208082528351818301528351919283929083019185019080838360005b838110156101b757818101518382015260200161019f565b50505050905090810190601f1680156101e45780820380516001836020036101000a031916815260200191505b509250505060405180910390f35b61020f6004803603602081101561020857600080fd5b5035610580565b60408051600160a060020a039092168252519081900360200190f35b6102576004803603604081101561024157600080fd5b50600160a060020a0381351690602001356105ec565b005b610261610716565b60408051918252519081900360200190f35b6102576004803603606081101561028957600080fd5b50600160a060020a0381358116916020810135909116906040013561071c565b610261600480360360408110156102bf57600080fd5b50600160a060020a03813516906020013561077b565b610257600480360360608110156102eb57600080fd5b50600160a060020a03813581169160208101359091169060400135610802565b6102616004803603602081101561032157600080fd5b503561081e565b61020f6004803603602081101561033e57600080fd5b503561088d565b6102616004803603602081101561035b57600080fd5b5035600160a060020a03166108f1565b61017d610963565b6102576004803603604081101561038957600080fd5b50600160a060020a03813516906020013515156109c4565b610257600480360360808110156103b757600080fd5b600160a060020a038235811692602081013590911691604082013591908101906080810160608201356401000000008111156103f257600080fd5b82018360208201111561040457600080fd5b8035906020019184600183028401116401000000008311171561042657600080fd5b91908080601f016020809104026020016040519081016040528093929190818152602001838380828437600092019190915250929550610a98945050505050565b61017d6004803603602081101561047d57600080fd5b5035610afa565b6101616004803603604081101561049a57600080fd5b50600160a060020a0381358116916020013516610be9565b7fffffffff000000000000000000000000000000000000000000000000000000001660009081526020819052604090205460ff1690565b60098054604080516020601f60026000196101006001881615020190951694909404938401819004810282018101909252828152606093909290918301828280156105755780601f1061054a57610100808354040283529160200191610575565b820191906000526020600020905b81548152906001019060200180831161055857829003601f168201915b505050505090505b90565b600061058b82610c17565b15156105d057604051600080516020611369833981519152815260040180806020018281038252602c815260200180611389602c913960400191505060405180910390fd5b50600090815260026020526040902054600160a060020a031690565b60006105f78261088d565b9050600160a060020a03838116908216141561064c57604051600080516020611369833981519152815260040180806020018281038252602181526020018061140d6021913960400191505060405180910390fd5b33600160a060020a038216148061066857506106688133610be9565b15156106ad5760405160008051602061136983398151915281526004018080602001828103825260388152602001806112de6038913960400191505060405180910390fd5b600082815260026020526040808220805473ffffffffffffffffffffffffffffffffffffffff1916600160a060020a0387811691821790925591518593918516917f8c5be1e5ebec7d5bd14f71427d1e84f3dd0314c0f7b2291e5b200ac8c7c3b92591a4505050565b60075490565b6107263382610c34565b151561076b57604051600080516020611369833981519152815260040180806020018281038252603181526020018061142e6031913960400191505060405180910390fd5b610776838383610ce2565b505050565b6000610786836108f1565b82106107cb57604051600080516020611369833981519152815260040180806020018281038252602b815260200180611231602b913960400191505060405180910390fd5b600160a060020a03831660009081526005602052604090208054839081106107ef57fe5b9060005260206000200154905092915050565b6107768383836020604051908101604052806000815250610a98565b6000610828610716565b821061086d57604051600080516020611369833981519152815260040180806020018281038252602c81526020018061145f602c913960400191505060405180910390fd5b600780548390811061087b57fe5b90600052602060002001549050919050565b600081815260016020526040812054600160a060020a03168015156108eb5760405160008051602061136983398151915281526004018080602001828103825260298152602001806113406029913960400191505060405180910390fd5b92915050565b6000600160a060020a038216151561094257604051600080516020611369833981519152815260040180806020018281038252602a815260200180611316602a913960400191505060405180910390fd5b600160a060020a03821660009081526003602052604090206108eb90610d01565b600a8054604080516020601f60026000196101006001881615020190951694909404938401819004810282018101909252828152606093909290918301828280156105755780601f1061054a57610100808354040283529160200191610575565b600160a060020a038216331415610a2a5760408051600080516020611369833981519152815260206004820152601960248201527f4552433732313a20617070726f766520746f2063616c6c657200000000000000604482015290519081900360640190fd5b336000818152600460209081526040808320600160a060020a03871680855290835292819020805460ff1916861515908117909155815190815290519293927f17307eab39ab6107e8899845ad3d59bd9653f200f220920489ca2b5937696c31929181900390910190a35050565b610aa384848461071c565b610aaf84848484610d05565b1515610af457604051600080516020611369833981519152815260040180806020018281038252603281526020018061125c6032913960400191505060405180910390fd5b50505050565b6060610b0582610c17565b1515610b4a57604051600080516020611369833981519152815260040180806020018281038252602f8152602001806113de602f913960400191505060405180910390fd5b6000828152600b602090815260409182902080548351601f600260001961010060018616150201909316929092049182018490048402810184019094528084529091830182828015610bdd5780601f10610bb257610100808354040283529160200191610bdd565b820191906000526020600020905b815481529060010190602001808311610bc057829003601f168201915b50505050509050919050565b600160a060020a03918216600090815260046020908152604080832093909416825291909152205460ff1690565b600090815260016020526040902054600160a060020a0316151590565b6000610c3f82610c17565b1515610c8457604051600080516020611369833981519152815260040180806020018281038252602c8152602001806112b2602c913960400191505060405180910390fd5b6000610c8f8361088d565b905080600160a060020a031684600160a060020a03161480610cca575083600160a060020a0316610cbf84610580565b600160a060020a0316145b80610cda5750610cda8185610be9565b949350505050565b610ced838383610e84565b610cf78382610fe7565b61077682826110de565b5490565b6000610d1984600160a060020a031661111c565b1515610d2757506001610cda565b6040517f150b7a020000000000000000000000000000000000000000000000000000000081523360048201818152600160a060020a03888116602485015260448401879052608060648501908152865160848601528651600095928a169463150b7a029490938c938b938b939260a4019060208501908083838e5b83811015610dba578181015183820152602001610da2565b50505050905090810190601f168015610de75780820380516001836020036101000a031916815260200191505b5095505050505050602060405180830381600087803b158015610e0957600080fd5b505af1158015610e1d573d6000803e3d6000fd5b505050506040513d6020811015610e3357600080fd5b50517fffffffff00000000000000000000000000000000000000000000000000000000167f150b7a020000000000000000000000000000000000000000000000000000000014915050949350505050565b82600160a060020a0316610e978261088d565b600160a060020a031614610ee45760405160008051602061136983398151915281526004018080602001828103825260298152602001806113b56029913960400191505060405180910390fd5b600160a060020a0382161515610f3357604051600080516020611369833981519152815260040180806020018281038252602481526020018061128e6024913960400191505060405180910390fd5b610f3c81611124565b600160a060020a0383166000908152600360205260409020610f5d9061116e565b600160a060020a0382166000908152600360205260409020610f7e90611185565b600081815260016020526040808220805473ffffffffffffffffffffffffffffffffffffffff1916600160a060020a0386811691821790925591518493918716917fddf252ad1be2c89b69c2b068fc378daa952ba7f163c4a11628f55a4df523b3ef91a4505050565b600160a060020a03821660009081526005602052604081205461101190600163ffffffff61118e16565b6000838152600660205260409020549091508082146110ae57600160a060020a038416600090815260056020526040812080548490811061104e57fe5b90600052602060002001549050806005600087600160a060020a0316600160a060020a031681526020019081526020016000208381548110151561108e57fe5b600091825260208083209091019290925591825260069052604090208190555b600160a060020a03841660009081526005602052604090208054906110d79060001983016111f3565b5050505050565b600160a060020a0390911660009081526005602081815260408084208054868652600684529185208290559282526001810183559183529091200155565b6000903b1190565b600081815260026020526040902054600160a060020a03161561116b576000818152600260205260409020805473ffffffffffffffffffffffffffffffffffffffff191690555b50565b805461118190600163ffffffff61118e16565b9055565b80546001019055565b6000828211156111ed5760408051600080516020611369833981519152815260206004820152601e60248201527f536166654d6174683a207375627472616374696f6e206f766572666c6f770000604482015290519081900360640190fd5b50900390565b8154818355818111156107765760008381526020902061077691810190830161057d91905b8082111561122c5760008155600101611218565b509056fe455243373231456e756d657261626c653a206f776e657220696e646578206f7574206f6620626f756e64734552433732313a207472616e7366657220746f206e6f6e20455243373231526563656976657220696d706c656d656e7465724552433732313a207472616e7366657220746f20746865207a65726f20616464726573734552433732313a206f70657261746f7220717565727920666f72206e6f6e6578697374656e7420746f6b656e4552433732313a20617070726f76652063616c6c6572206973206e6f74206f776e6572206e6f7220617070726f76656420666f7220616c6c4552433732313a2062616c616e636520717565727920666f7220746865207a65726f20616464726573734552433732313a206f776e657220717565727920666f72206e6f6e6578697374656e7420746f6b656e08c379a0000000000000000000000000000000000000000000000000000000004552433732313a20617070726f76656420717565727920666f72206e6f6e6578697374656e7420746f6b656e4552433732313a207472616e73666572206f6620746f6b656e2074686174206973206e6f74206f776e4552433732314d657461646174613a2055524920717565727920666f72206e6f6e6578697374656e7420746f6b656e4552433732313a20617070726f76616c20746f2063757272656e74206f776e65724552433732313a207472616e736665722063616c6c6572206973206e6f74206f776e6572206e6f7220617070726f766564455243373231456e756d657261626c653a20676c6f62616c20696e646578206f7574206f6620626f756e6473a165627a7a7230582044b2ecf3424bdbc481bd8c42a575bb1557676751038a8b54c783924355a2af120029",
  "source": "pragma solidity ^0.5.0;\n\nimport \"./ERC721.sol\";\nimport \"./ERC721Enumerable.sol\";\nimport \"./ERC721Metadata.sol\";\n\n/**\n * @title Full ERC721 Token\n * This implementation includes all the required and some optional functionality of the ERC721 standard\n * Moreover, it includes approve all functionality using operator terminology\n * @dev see https://eips.ethereum.org/EIPS/eip-721\n */\ncontract ERC721Full is ERC721, ERC721Enumerable, ERC721Metadata {\n    constructor (string memory name, string memory symbol) public ERC721Metadata(name, symbol) {\n        // solhint-disable-previous-line no-empty-blocks\n    }\n}\n",
  "sourcePath": "openzeppelin-solidity/contracts/token/ERC721/ERC721Full.sol",
  "compiler": {
    "name": "solc",
    "version": "0.5.4+commit.9549d8ff.Emscripten.clang",
    "optimizer": true,
    "runs": 999
  },
  "schemaVersion": "2.3.1",
  "updatedAt": "2020-04-01T21:49:53.074Z"
}