{
  "contractName": "GuardianManager",
  "abi": [
    {
      "constant": true,
      "inputs": [],
      "name": "securityWindow",
      "outputs": [
        {
          "name": "",
          "type": "uint256"
        }
      ],
      "payable": false,
      "stateMutability": "view",
      "type": "function"
    },
    {
      "constant": false,
      "inputs": [
        {
          "name": "_wallet",
          "type": "address"
        }
      ],
      "name": "init",
      "outputs": [],
      "payable": false,
      "stateMutability": "nonpayable",
      "type": "function"
    },
    {
      "constant": true,
      "inputs": [
        {
          "name": "_wallet",
          "type": "address"
        }
      ],
      "name": "getNonce",
      "outputs": [
        {
          "name": "nonce",
          "type": "uint256"
        }
      ],
      "payable": false,
      "stateMutability": "view",
      "type": "function"
    },
    {
      "constant": false,
      "inputs": [
        {
          "name": "_wallet",
          "type": "address"
        },
        {
          "name": "_module",
          "type": "address"
        }
      ],
      "name": "addModule",
      "outputs": [],
      "payable": false,
      "stateMutability": "nonpayable",
      "type": "function"
    },
    {
      "constant": true,
      "inputs": [],
      "name": "securityPeriod",
      "outputs": [
        {
          "name": "",
          "type": "uint256"
        }
      ],
      "payable": false,
      "stateMutability": "view",
      "type": "function"
    },
    {
      "constant": false,
      "inputs": [
        {
          "name": "_token",
          "type": "address"
        }
      ],
      "name": "recoverToken",
      "outputs": [],
      "payable": false,
      "stateMutability": "nonpayable",
      "type": "function"
    },
    {
      "constant": false,
      "inputs": [
        {
          "name": "_wallet",
          "type": "address"
        },
        {
          "name": "_data",
          "type": "bytes"
        },
        {
          "name": "_nonce",
          "type": "uint256"
        },
        {
          "name": "_signatures",
          "type": "bytes"
        },
        {
          "name": "_gasPrice",
          "type": "uint256"
        },
        {
          "name": "_gasLimit",
          "type": "uint256"
        }
      ],
      "name": "execute",
      "outputs": [
        {
          "name": "success",
          "type": "bool"
        }
      ],
      "payable": false,
      "stateMutability": "nonpayable",
      "type": "function"
    },
    {
      "constant": true,
      "inputs": [
        {
          "name": "",
          "type": "address"
        }
      ],
      "name": "relayer",
      "outputs": [
        {
          "name": "nonce",
          "type": "uint256"
        }
      ],
      "payable": false,
      "stateMutability": "view",
      "type": "function"
    },
    {
      "inputs": [
        {
          "name": "_registry",
          "type": "address"
        },
        {
          "name": "_guardianStorage",
          "type": "address"
        },
        {
          "name": "_securityPeriod",
          "type": "uint256"
        },
        {
          "name": "_securityWindow",
          "type": "uint256"
        }
      ],
      "payable": false,
      "stateMutability": "nonpayable",
      "type": "constructor"
    },
    {
      "anonymous": false,
      "inputs": [
        {
          "indexed": true,
          "name": "wallet",
          "type": "address"
        },
        {
          "indexed": true,
          "name": "guardian",
          "type": "address"
        },
        {
          "indexed": false,
          "name": "executeAfter",
          "type": "uint256"
        }
      ],
      "name": "GuardianAdditionRequested",
      "type": "event"
    },
    {
      "anonymous": false,
      "inputs": [
        {
          "indexed": true,
          "name": "wallet",
          "type": "address"
        },
        {
          "indexed": true,
          "name": "guardian",
          "type": "address"
        },
        {
          "indexed": false,
          "name": "executeAfter",
          "type": "uint256"
        }
      ],
      "name": "GuardianRevokationRequested",
      "type": "event"
    },
    {
      "anonymous": false,
      "inputs": [
        {
          "indexed": true,
          "name": "wallet",
          "type": "address"
        },
        {
          "indexed": true,
          "name": "guardian",
          "type": "address"
        }
      ],
      "name": "GuardianAdditionCancelled",
      "type": "event"
    },
    {
      "anonymous": false,
      "inputs": [
        {
          "indexed": true,
          "name": "wallet",
          "type": "address"
        },
        {
          "indexed": true,
          "name": "guardian",
          "type": "address"
        }
      ],
      "name": "GuardianRevokationCancelled",
      "type": "event"
    },
    {
      "anonymous": false,
      "inputs": [
        {
          "indexed": true,
          "name": "wallet",
          "type": "address"
        },
        {
          "indexed": true,
          "name": "guardian",
          "type": "address"
        }
      ],
      "name": "GuardianAdded",
      "type": "event"
    },
    {
      "anonymous": false,
      "inputs": [
        {
          "indexed": true,
          "name": "wallet",
          "type": "address"
        },
        {
          "indexed": true,
          "name": "guardian",
          "type": "address"
        }
      ],
      "name": "GuardianRevoked",
      "type": "event"
    },
    {
      "anonymous": false,
      "inputs": [
        {
          "indexed": true,
          "name": "wallet",
          "type": "address"
        },
        {
          "indexed": true,
          "name": "success",
          "type": "bool"
        },
        {
          "indexed": false,
          "name": "signedHash",
          "type": "bytes32"
        }
      ],
      "name": "TransactionExecuted",
      "type": "event"
    },
    {
      "anonymous": false,
      "inputs": [
        {
          "indexed": false,
          "name": "name",
          "type": "bytes32"
        }
      ],
      "name": "ModuleCreated",
      "type": "event"
    },
    {
      "anonymous": false,
      "inputs": [
        {
          "indexed": false,
          "name": "wallet",
          "type": "address"
        }
      ],
      "name": "ModuleInitialised",
      "type": "event"
    },
    {
      "constant": false,
      "inputs": [
        {
          "name": "_wallet",
          "type": "address"
        },
        {
          "name": "_guardian",
          "type": "address"
        }
      ],
      "name": "addGuardian",
      "outputs": [],
      "payable": false,
      "stateMutability": "nonpayable",
      "type": "function"
    },
    {
      "constant": false,
      "inputs": [
        {
          "name": "_wallet",
          "type": "address"
        },
        {
          "name": "_guardian",
          "type": "address"
        }
      ],
      "name": "confirmGuardianAddition",
      "outputs": [],
      "payable": false,
      "stateMutability": "nonpayable",
      "type": "function"
    },
    {
      "constant": false,
      "inputs": [
        {
          "name": "_wallet",
          "type": "address"
        },
        {
          "name": "_guardian",
          "type": "address"
        }
      ],
      "name": "cancelGuardianAddition",
      "outputs": [],
      "payable": false,
      "stateMutability": "nonpayable",
      "type": "function"
    },
    {
      "constant": false,
      "inputs": [
        {
          "name": "_wallet",
          "type": "address"
        },
        {
          "name": "_guardian",
          "type": "address"
        }
      ],
      "name": "revokeGuardian",
      "outputs": [],
      "payable": false,
      "stateMutability": "nonpayable",
      "type": "function"
    },
    {
      "constant": false,
      "inputs": [
        {
          "name": "_wallet",
          "type": "address"
        },
        {
          "name": "_guardian",
          "type": "address"
        }
      ],
      "name": "confirmGuardianRevokation",
      "outputs": [],
      "payable": false,
      "stateMutability": "nonpayable",
      "type": "function"
    },
    {
      "constant": false,
      "inputs": [
        {
          "name": "_wallet",
          "type": "address"
        },
        {
          "name": "_guardian",
          "type": "address"
        }
      ],
      "name": "cancelGuardianRevokation",
      "outputs": [],
      "payable": false,
      "stateMutability": "nonpayable",
      "type": "function"
    },
    {
      "constant": true,
      "inputs": [
        {
          "name": "_wallet",
          "type": "address"
        },
        {
          "name": "_guardian",
          "type": "address"
        }
      ],
      "name": "isGuardian",
      "outputs": [
        {
          "name": "_isGuardian",
          "type": "bool"
        }
      ],
      "payable": false,
      "stateMutability": "view",
      "type": "function"
    },
    {
      "constant": true,
      "inputs": [
        {
          "name": "_wallet",
          "type": "address"
        }
      ],
      "name": "guardianCount",
      "outputs": [
        {
          "name": "_count",
          "type": "uint256"
        }
      ],
      "payable": false,
      "stateMutability": "view",
      "type": "function"
    },
    {
      "constant": true,
      "inputs": [
        {
          "name": "_wallet",
          "type": "address"
        }
      ],
      "name": "getGuardians",
      "outputs": [
        {
          "name": "_guardians",
          "type": "address[]"
        }
      ],
      "payable": false,
      "stateMutability": "view",
      "type": "function"
    }
  ],
  "bytecode": "0x608060405234801561001057600080fd5b50604051608080612f578339810180604052608081101561003057600080fd5b50805160208083015160408085015160609095015160008054600160a060020a03808816600160a060020a031992831617909255600180549286169290911691909117905581517f477561726469616e4d616e616765720000000000000000000000000000000000808252925195969395939491938793879390927f3019c8fc80239e3dff8f781212ae2004839c2cb61d6c70acd279ac65392145df929081900390910190a15050506004919091556005555050612e64806100f36000396000f3fe608060405234801561001057600080fd5b5060043610610137576000357c01000000000000000000000000000000000000000000000000000000009004806370135f52116100cf578063aacaaf881161009e578063c9b5ef8e11610083578063c9b5ef8e1461042a578063d4ee973414610450578063f18858ab1461047e57610137565b8063aacaaf881461030c578063c6845210146103fc57610137565b806370135f52146102825780637cc0d906146102b05780639be65a60146102b8578063a6eb0690146102de57610137565b80632d0335ab1161010b5780632d0335ab146101da5780634b3ef054146102005780635040fb761461022e5780635a1db8c41461025457610137565b80626fda351461013c57806319ab453c146101565780631d97d8cc1461017e5780632960739b146101ac575b600080fd5b6101446104f4565b60408051918252519081900360200190f35b61017c6004803603602081101561016c57600080fd5b5035600160a060020a03166104fa565b005b61017c6004803603604081101561019457600080fd5b50600160a060020a03813581169160200135166105a0565b61017c600480360360408110156101c257600080fd5b50600160a060020a03813581169160200135166107af565b610144600480360360208110156101f057600080fd5b5035600160a060020a0316610a15565b61017c6004803603604081101561021657600080fd5b50600160a060020a0381358116916020013516610a30565b6101446004803603602081101561024457600080fd5b5035600160a060020a0316610c7d565b61017c6004803603604081101561026a57600080fd5b50600160a060020a0381358116916020013516610d19565b61017c6004803603604081101561029857600080fd5b50600160a060020a0381358116916020013516610ede565b61014461121b565b61017c600480360360208110156102ce57600080fd5b5035600160a060020a0316611221565b61017c600480360360408110156102f457600080fd5b50600160a060020a0381358116916020013516611354565b6103e8600480360360c081101561032257600080fd5b600160a060020a03823516919081019060408101602082013564010000000081111561034d57600080fd5b82018360208201111561035f57600080fd5b8035906020019184600183028401116401000000008311171561038157600080fd5b919390928235926040810190602001356401000000008111156103a357600080fd5b8201836020820111156103b557600080fd5b803590602001918460018302840111640100000000831117156103d757600080fd5b9193509150803590602001356115ba565b604080519115158252519081900360200190f35b61017c6004803603604081101561041257600080fd5b50600160a060020a03813581169160200135166118a2565b6101446004803603602081101561044057600080fd5b5035600160a060020a0316611e93565b6103e86004803603604081101561046657600080fd5b50600160a060020a0381358116916020013516611ea5565b6104a46004803603602081101561049457600080fd5b5035600160a060020a0316611fa9565b60408051602080825283518183015283519192839290830191858101910280838360005b838110156104e05781810151838201526020016104c8565b505050509050019250505060405180910390f35b60055481565b8033600160a060020a038216146105605760408051600080516020612d15833981519152815260206004820152601960248201527f424d3a2063616c6c6572206d7573742062652077616c6c657400000000000000604482015290519081900360640190fd5b60408051600160a060020a038416815290517f9fcca3f73f85397e2bf03647abf243c20b753bd54463ff3cae74de2971c112fa9181900360200190a15050565b81333014806105b457506105b481336120a4565b15156105f957604051600080516020612d158339815191528152600401808060200182810382526023815260200180612d8d6023913960400191505060405180910390fd5b6106038383611ea5565b151561065e5760408051600080516020612d15833981519152815260206004820181905260248201527f474d3a206d75737420626520616e206578697374696e6720677561726469616e604482015290519081900360640190fd5b60408051600160a060020a038581166c010000000000000000000000008181026020808601919091529287160260348401527f7265766f6b6174696f6e0000000000000000000000000000000000000000000060488401528351808403603201815260529093018452825192820192909220600092835260038252838320818452918290529290912054158061070557506005546000838152602083905260409020540142115b151561074a57604051600080516020612d158339815191528152600401808060200182810382526037815260200180612be26037913960400191505060405180910390fd5b6004805460008481526020848152604091829020429384019055925481519201825251600160a060020a0380881693908916927f9746f6868f544595794833da53250bd19e72334733336cfd5dd6fbc5f6a6ac42929081900390910190a35050505050565b81333014806107c357506107c381336120a4565b151561080857604051600080516020612d158339815191528152600401808060200182810382526023815260200180612d8d6023913960400191505060405180910390fd5b600154604080517f4a4fbeec000000000000000000000000000000000000000000000000000000008152600160a060020a038087166004830152915186939290921691634a4fbeec91602480820192602092909190829003018186803b15801561087157600080fd5b505afa158015610885573d6000803e3d6000fd5b505050506040513d602081101561089b57600080fd5b5051156108f75760408051600080516020612d15833981519152815260206004820152601b60248201527f424d3a2077616c6c6574206d75737420626520756e6c6f636b65640000000000604482015290519081900360640190fd5b604080516c01000000000000000000000000600160a060020a0380881682810260208086019190915291881690920260348401527f7265766f6b6174696f6e00000000000000000000000000000000000000000000604884015283516032818503018152605290930184528251928101929092206000918252600383528382208183529283905292812054116109c657604051600080516020612d15833981519152815260040180806020018281038252602d815260200180612b6b602d913960400191505060405180910390fd5b60008281526020829052604080822082905551600160a060020a0380881692908916917fc0b205956d5e27c296695de329b5a014584a4f51824b1725a0eefc1174d6dbd59190a3505050505050565b600160a060020a031660009081526002602052604090205490565b604080516c01000000000000000000000000600160a060020a0380861682810260208086019190915291861690920260348401527f7265766f6b6174696f6e0000000000000000000000000000000000000000000060488401528351603281850301815260529093018452825192810192909220600091825260038352838220818352928390529281205411610aff57604051600080516020612d15833981519152815260040180806020018281038252602d815260200180612b6b602d913960400191505060405180910390fd5b6000828152602082905260409020544211610b5357604051600080516020612d15833981519152815260040180806020018281038252602c815260200180612ce9602c913960400191505060405180910390fd5b600554600083815260208390526040902054014210610bab57604051600080516020612d15833981519152815260040180806020018281038252602b815260200180612e0e602b913960400191505060405180910390fd5b600154604080517f1d97d8cc000000000000000000000000000000000000000000000000000000008152600160a060020a038781166004830152868116602483015291519190921691631d97d8cc91604480830192600092919082900301818387803b158015610c1a57600080fd5b505af1158015610c2e573d6000803e3d6000fd5b50505060008381526020839052604080822082905551600160a060020a0380871693508716917f548f10dcba266544123ad8cf8284f25c4baa659cba25dbdf16a06ea11235de9b91a350505050565b600154604080517f5040fb76000000000000000000000000000000000000000000000000000000008152600160a060020a03848116600483015291516000939290921691635040fb7691602480820192602092909190829003018186803b158015610ce757600080fd5b505afa158015610cfb573d6000803e3d6000fd5b505050506040513d6020811015610d1157600080fd5b505192915050565b81610d2481336120a4565b1515610d6957604051600080516020612d15833981519152815260040180806020018281038252602e815260200180612c19602e913960400191505060405180910390fd5b600054604080517f0bcd4ebb000000000000000000000000000000000000000000000000000000008152600160a060020a03858116600483015291519190921691630bcd4ebb916024808301926020929190829003018186803b158015610dcf57600080fd5b505afa158015610de3573d6000803e3d6000fd5b505050506040513d6020811015610df957600080fd5b50511515610e565760408051600080516020612d15833981519152815260206004820152601c60248201527f424d3a206d6f64756c65206973206e6f74207265676973746572656400000000604482015290519081900360640190fd5b604080517f1f17732d000000000000000000000000000000000000000000000000000000008152600160a060020a03848116600483015260016024830152915191851691631f17732d9160448082019260009290919082900301818387803b158015610ec157600080fd5b505af1158015610ed5573d6000803e3d6000fd5b50505050505050565b600154604080517f4a4fbeec000000000000000000000000000000000000000000000000000000008152600160a060020a038086166004830152915185939290921691634a4fbeec91602480820192602092909190829003018186803b158015610f4757600080fd5b505afa158015610f5b573d6000803e3d6000fd5b505050506040513d6020811015610f7157600080fd5b505115610fcd5760408051600080516020612d15833981519152815260206004820152601b60248201527f424d3a2077616c6c6574206d75737420626520756e6c6f636b65640000000000604482015290519081900360640190fd5b604080516c01000000000000000000000000600160a060020a0380871682810260208086019190915291871690920260348401527f6164646974696f6e0000000000000000000000000000000000000000000000006048840152835160308185030181526050909301845282519281019290922060009182526003835283822081835292839052928120541161109c57604051600080516020612d15833981519152815260040180806020018281038252602e815260200180612d35602e913960400191505060405180910390fd5b60008281526020829052604090205442116110f057604051600080516020612d15833981519152815260040180806020018281038252602a815260200180612d63602a913960400191505060405180910390fd5b60055460008381526020839052604090205401421061114857604051600080516020612d158339815191528152600401808060200182810382526029815260200180612db06029913960400191505060405180910390fd5b600154604080517fc6845210000000000000000000000000000000000000000000000000000000008152600160a060020a03888116600483015287811660248301529151919092169163c684521091604480830192600092919082900301818387803b1580156111b757600080fd5b505af11580156111cb573d6000803e3d6000fd5b50505060008381526020839052604080822082905551600160a060020a0380881693508816917fbc3292102fa77e083913064b282926717cdfaede4d35f553d66366c0a3da755a91a35050505050565b60045481565b604080517f70a082310000000000000000000000000000000000000000000000000000000081523060048201529051600091600160a060020a038416916370a0823191602480820192602092909190829003018186803b15801561128457600080fd5b505afa158015611298573d6000803e3d6000fd5b505050506040513d60208110156112ae57600080fd5b505160008054604080517fa9059cbb000000000000000000000000000000000000000000000000000000008152600160a060020a0392831660048201526024810185905290519394509085169263a9059cbb92604480840193602093929083900390910190829087803b15801561132457600080fd5b505af1158015611338573d6000803e3d6000fd5b505050506040513d602081101561134e57600080fd5b50505050565b8133301480611368575061136881336120a4565b15156113ad57604051600080516020612d158339815191528152600401808060200182810382526023815260200180612d8d6023913960400191505060405180910390fd5b600154604080517f4a4fbeec000000000000000000000000000000000000000000000000000000008152600160a060020a038087166004830152915186939290921691634a4fbeec91602480820192602092909190829003018186803b15801561141657600080fd5b505afa15801561142a573d6000803e3d6000fd5b505050506040513d602081101561144057600080fd5b50511561149c5760408051600080516020612d15833981519152815260206004820152601b60248201527f424d3a2077616c6c6574206d75737420626520756e6c6f636b65640000000000604482015290519081900360640190fd5b604080516c01000000000000000000000000600160a060020a0380881682810260208086019190915291881690920260348401527f6164646974696f6e0000000000000000000000000000000000000000000000006048840152835160308185030181526050909301845282519281019290922060009182526003835283822081835292839052928120541161156b57604051600080516020612d15833981519152815260040180806020018281038252602e815260200180612d35602e913960400191505060405180910390fd5b60008281526020829052604080822082905551600160a060020a0380881692908916917faa13b27c23e9e3f3d5f3861a53b7a2931e019170a6a19ed64942e26a1dd5987a9190a3505050505050565b6000805a9050600061160a308c60008d8d8080601f0160208091040260200160405190810160405280939291908181526020018383808284376000920191909152508f92508c91508b9050612144565b90506116178b8983612287565b15156116725760408051600080516020612d15833981519152815260206004820152601560248201527f524d3a204475706c696361746520726571756573740000000000000000000000604482015290519081900360640190fd5b6116b28b8b8b8080601f01602080910402602001604051908101604052809392919081815260200183838082843760009201919091525061229b92505050565b15156116f757604051600080516020612d15833981519152815260040180806020018281038252604a815260200180612b98604a913960600191505060405180910390fd5b60006117398c8c8c8080601f01602080910402602001604051908101604052809392919081815260200183838082843760009201919091525061231492505050565b905060418102871415611851576117528c8688846123f3565b15611851578015806117d557506117d58c8c8c8080601f01602080910402602001604051908101604052809392919081815260200183838082843760009201919091525050604080516020601f8f018190048102820181019092528d815288935091508d908d90819084018382808284376000920191909152506124c592505050565b156118515730600160a060020a03168b8b604051808383808284376040519201945060009350909150508083038183865af19150503d8060008114611836576040519150601f19603f3d011682016040523d82523d6000602084013e61183b565b606091505b5050809450506118518c5a8503888885336124ea565b60408051838152905185151591600160a060020a038f16917f6bb0b384ce772133df63560651bc8c727c53306cec1d51e2cbf8ea35fb8f2ec19181900360200190a350505098975050505050505050565b81333014806118b657506118b681336120a4565b15156118fb57604051600080516020612d158339815191528152600401808060200182810382526023815260200180612d8d6023913960400191505060405180910390fd5b600154604080517f4a4fbeec000000000000000000000000000000000000000000000000000000008152600160a060020a038087166004830152915186939290921691634a4fbeec91602480820192602092909190829003018186803b15801561196457600080fd5b505afa158015611978573d6000803e3d6000fd5b505050506040513d602081101561198e57600080fd5b5051156119ea5760408051600080516020612d15833981519152815260206004820152601b60248201527f424d3a2077616c6c6574206d75737420626520756e6c6f636b65640000000000604482015290519081900360640190fd5b6119f484846120a4565b15611a3857604051600080516020612d158339815191528152600401808060200182810382526023815260200180612c476023913960400191505060405180910390fd5b611a428484611ea5565b15611a9c5760408051600080516020612d15833981519152815260206004820181905260248201527f474d3a2074617267657420697320616c7265616479206120677561726469616e604482015290519081900360640190fd5b60408051600481526024810182526020810180517bffffffffffffffffffffffffffffffffffffffffffffffffffffffff167f8da5cb5b0000000000000000000000000000000000000000000000000000000017815291518151600093600160a060020a03881693611388939092909182918083835b60208310611b315780518252601f199092019160209182019101611b12565b6001836020036101000a03801982511681845116808217855250505050505090500191505060006040518083038160008787f1925050503d8060008114611b94576040519150601f19603f3d011682016040523d82523d6000602084013e611b99565b606091505b50509050801515611be357604051600080516020612d15833981519152815260040180806020018281038252602d815260200180612c6a602d913960400191505060405180910390fd5b600154604080517f5040fb76000000000000000000000000000000000000000000000000000000008152600160a060020a03888116600483015291519190921691635040fb76916024808301926020929190829003018186803b158015611c4957600080fd5b505afa158015611c5d573d6000803e3d6000fd5b505050506040513d6020811015611c7357600080fd5b50511515611d3f57600154604080517fc6845210000000000000000000000000000000000000000000000000000000008152600160a060020a03888116600483015287811660248301529151919092169163c684521091604480830192600092919082900301818387803b158015611cea57600080fd5b505af1158015611cfe573d6000803e3d6000fd5b5050604051600160a060020a038088169350881691507fbc3292102fa77e083913064b282926717cdfaede4d35f553d66366c0a3da755a90600090a3611e8c565b60408051600160a060020a038781166c010000000000000000000000008181026020808601919091529289160260348401527f6164646974696f6e000000000000000000000000000000000000000000000000604884015283518084036030018152605090930184528251928201929092206000928352600382528383208184529182905292909120541580611de657506005546000838152602083905260409020540142115b1515611e2b57604051600080516020612d158339815191528152600401808060200182810382526035815260200180612dd96035913960400191505060405180910390fd5b6004805460008481526020848152604091829020429384019055925481519201825251600160a060020a03808a1693908b16927fe4166e4bc55a182bd13d933553241bb3441b91d15fbc74c5c752f96965563bde929081900390910190a350505b5050505050565b60026020526000908152604090205481565b600154604080517ff18858ab000000000000000000000000000000000000000000000000000000008152600160a060020a0385811660048301529151600093611fa193169163f18858ab9160248083019287929190829003018186803b158015611f0e57600080fd5b505afa158015611f22573d6000803e3d6000fd5b505050506040513d6000823e601f3d908101601f191682016040526020811015611f4b57600080fd5b810190808051640100000000811115611f6357600080fd5b82016020810184811115611f7657600080fd5b8151856020820283011164010000000082111715611f9357600080fd5b505092919050505083612548565b509392505050565b600154604080517ff18858ab000000000000000000000000000000000000000000000000000000008152600160a060020a0384811660048301529151606093929092169163f18858ab91602480820192600092909190829003018186803b15801561201357600080fd5b505afa158015612027573d6000803e3d6000fd5b505050506040513d6000823e601f3d908101601f19168201604052602081101561205057600080fd5b81019080805164010000000081111561206857600080fd5b8201602081018481111561207b57600080fd5b815185602082028301116401000000008211171561209857600080fd5b50909695505050505050565b600081600160a060020a031683600160a060020a0316638da5cb5b6040518163ffffffff167c010000000000000000000000000000000000000000000000000000000002815260040160206040518083038186803b15801561210557600080fd5b505afa158015612119573d6000803e3d6000fd5b505050506040513d602081101561212f57600080fd5b5051600160a060020a03161490505b92915050565b6040517f190000000000000000000000000000000000000000000000000000000000000060208083018281526000602185018190526c01000000000000000000000000600160a060020a03808e16820260228801528c16026036860152604a85018a90528851909485938d938d938d938d938d938d938d939192606a909201918701908083835b602083106121ea5780518252601f1990920191602091820191016121cb565b51815160209384036101000a600019018019909216911617905292019586525084810193909352506040808401919091528051808403820181526060840182528051908301207f19457468657265756d205369676e6564204d6573736167653a0a3332000000006080850152609c808501919091528151808503909101815260bc909301905281519101209e9d5050505050505050505050505050565b600061229384846126c5565b949350505050565b600060248251101515156122fe5760408051600080516020612d15833981519152815260206004820152601660248201527f524d3a20496e76616c6964206461746157616c6c657400000000000000000000604482015290519081900360640190fd5b5060240151600160a060020a0391821691161490565b6000806123208361274b565b90506040518080612cc160289139602801905060405180910390207bffffffffffffffffffffffffffffffffffffffffffffffffffffffff1916817bffffffffffffffffffffffffffffffffffffffffffffffffffffffff191614806123da575060405180602a612c978239602a01905060405180910390207bffffffffffffffffffffffffffffffffffffffffffffffffffffffff1916817bffffffffffffffffffffffffffffffffffffffffffffffffffffffff1916145b156123e957600091505061213e565b5060019392505050565b600080831180156124045750600182115b80156124ad575082840285600160a060020a03163110806124ad5750604080517fd6eb1bbf0000000000000000000000000000000000000000000000000000000081523060048201529051600160a060020a0387169163d6eb1bbf916024808301926020929190829003018186803b15801561247f57600080fd5b505afa158015612493573d6000803e3d6000fd5b505050506040513d60208110156124a957600080fd5b5051155b156124ba57506000612293565b506001949350505050565b6000806124d4848460006127b6565b90506124e086826120a4565b9695505050505050565b61726c85016000851180156124ff5750600183115b801561250b5750838111155b15610ed5573a85111561251f573a02612522565b84025b61253e8783836020604051908101604052806000815250612860565b5050505050505050565b600060608351600014806125635750600160a060020a038316155b15612573575060009050826126be565b6000809050606060018651036040519080825280602002602001820160405280156125a8578160200160208202803883390190505b5090506000805b87518110156126a45783151561264f5787818151811015156125cd57fe5b90602001906020020151600160a060020a031687600160a060020a031614156125f9576001935061269c565b612619888281518110151561260a57fe5b90602001906020020151612ae8565b80156126415750612641888281518110151561263157fe5b9060200190602002015188612af6565b1561264f576001935061269c565b825182101561269c57878181518110151561266657fe5b90602001906020020151838381518110151561267e57fe5b600160a060020a039092166020928302909101909101526001909101905b6001016125af565b50826126b2576000876126b6565b6001825b945094505050505b9250929050565b600160a060020a03821660009081526002602052604081205482116126ec5750600061213e565b7001000000000000000000000000000000006fffffffffffffffffffffffffffffffff19831604436127100181111561272957600091505061213e565b5050600160a060020a0391909116600090815260026020526040902055600190565b600060048251101515156127ae5760408051600080516020612d15833981519152815260206004820152601a60248201527f524d3a20496e76616c69642066756e6374696f6e507265666978000000000000604482015290519081900360640190fd5b506020015190565b6041808202830160208101516040820151919092015160009260ff9190911691601b8314806127e857508260ff16601c145b15156127f357600080fd5b604080516000815260208082018084528a905260ff8616828401526060820185905260808201849052915160019260a0808401939192601f1981019281900390910190855afa15801561284a573d6000803e3d6000fd5b5050604051601f19015198975050505050505050565b6060600085600160a060020a03168585856040516024018084600160a060020a0316600160a060020a0316815260200183815260200180602001828103825283818151815260200191508051906020019080838360005b838110156128cf5781810151838201526020016128b7565b50505050905090810190601f1680156128fc5780820380516001836020036101000a031916815260200191505b5060408051601f198184030181529181526020820180517bffffffffffffffffffffffffffffffffffffffffffffffffffffffff167f8f6f033200000000000000000000000000000000000000000000000000000000178152905182519297509550859450925090508083835b602083106129885780518252601f199092019160209182019101612969565b6001836020036101000a0380198251168184511680821785525050505050509050019150506000604051808303816000865af19150503d80600081146129ea576040519150601f19603f3d011682016040523d82523d6000602084013e6129ef565b606091505b5092509050808015612a02575060008251115b15612a6f57818060200190516020811015612a1c57600080fd5b810190808051640100000000811115612a3457600080fd5b82016020810184811115612a4757600080fd5b8151640100000000811182820187101715612a6157600080fd5b50909550612adf9350505050565b600082511115612a83573d6000803e3d6000fd5b801515612adf5760408051600080516020612d15833981519152815260206004820152601a60248201527f424d3a2077616c6c657420696e766f6b65207265766572746564000000000000604482015290519081900360640190fd5b50949350505050565b6000903b63ffffffff161190565b604080517f6f776e657228290000000000000000000000000000000000000000000000000081529051908190036007018120808252600091829190602081818189611388fa6001811415612b4957815193505b505083600160a060020a031682600160a060020a031614925050509291505056fe474d3a206e6f2070656e64696e6720677561726469616e207265766f6b6174696f6e20666f7220746172676574524d3a207468652077616c6c657420617574686f72697a656420697320646966666572656e74207468656e2074686520746172676574206f66207468652072656c617965642064617461474d3a207265766f6b6174696f6e206f662074617267657420617320677561726469616e20697320616c72656164792070656e64696e67424d3a206d73672e73656e646572206d75737420626520616e206f776e657220666f72207468652077616c6c6574474d3a2074617267657420677561726469616e2063616e6e6f74206265206f776e6572474d3a20677561726469616e206d75737420626520454f41206f7220696d706c656d656e74206f776e65722829636f6e6669726d477561726469616e5265766f6b6174696f6e28616464726573732c6164647265737329636f6e6669726d477561726469616e4164646974696f6e28616464726573732c6164647265737329474d3a20546f6f206561726c7920746f20636f6e6669726d20677561726469616e207265766f6b6174696f6e08c379a000000000000000000000000000000000000000000000000000000000474d3a206e6f2070656e64696e67206164646974696f6e20617320677561726469616e20666f7220746172676574474d3a20546f6f206561726c7920746f20636f6e6669726d20677561726469616e206164646974696f6e424d3a206d75737420626520616e206f776e657220666f72207468652077616c6c6574474d3a20546f6f206c61746520746f20636f6e6669726d20677561726469616e206164646974696f6e474d3a206164646974696f6e206f662074617267657420617320677561726469616e20697320616c72656164792070656e64696e67474d3a20546f6f206c61746520746f20636f6e6669726d20677561726469616e207265766f6b6174696f6ea165627a7a7230582064c74acfb50a6f8ae1699ffbb0e510c1de0a94433fc5ec93d289f7ef8f40033c0029",
  "source": "// Copyright (C) 2018  Argent Labs Ltd. <https://argent.xyz>\n\n// This program is free software: you can redistribute it and/or modify\n// it under the terms of the GNU General Public License as published by\n// the Free Software Foundation, either version 3 of the License, or\n// (at your option) any later version.\n\n// This program is distributed in the hope that it will be useful,\n// but WITHOUT ANY WARRANTY; without even the implied warranty of\n// MERCHANTABILITY or FITNESS FOR A PARTICULAR PURPOSE.  See the\n// GNU General Public License for more details.\n\n// You should have received a copy of the GNU General Public License\n// along with this program.  If not, see <http://www.gnu.org/licenses/>.\n\npragma solidity ^0.5.4;\nimport \"../wallet/BaseWallet.sol\";\nimport \"../utils/GuardianUtils.sol\";\nimport \"./common/BaseModule.sol\";\nimport \"./common/RelayerModule.sol\";\n\n/**\n * @title GuardianManager\n * @dev Module to manage the guardians of wallets.\n * Guardians are accounts (EOA or contracts) that are authorized to perform specific\n * security operations on wallets such as toggle a safety lock, start a recovery procedure,\n * or confirm transactions. Addition or revokation of guardians is initiated by the owner\n * of a wallet and must be confirmed after a security period (e.g. 24 hours).\n * The list of guardians for a wallet is stored on a saparate\n * contract to facilitate its use by other modules.\n * @author Julien Niset - <julien@argent.im>\n * @author Olivier Van Den Biggelaar - <olivier@argent.im>\n */\ncontract GuardianManager is BaseModule, RelayerModule {\n\n    bytes32 constant NAME = \"GuardianManager\";\n\n    bytes4 constant internal CONFIRM_ADDITION_PREFIX = bytes4(keccak256(\"confirmGuardianAddition(address,address)\"));\n    bytes4 constant internal CONFIRM_REVOKATION_PREFIX = bytes4(keccak256(\"confirmGuardianRevokation(address,address)\"));\n\n    struct GuardianManagerConfig {\n        // the time at which a guardian addition or revokation will be confirmable by the owner\n        mapping (bytes32 => uint256) pending;\n    }\n\n    // the wallet specific storage\n    mapping (address => GuardianManagerConfig) internal configs;\n    // the security period\n    uint256 public securityPeriod;\n    // the security window\n    uint256 public securityWindow;\n\n    // *************** Events *************************** //\n\n    event GuardianAdditionRequested(address indexed wallet, address indexed guardian, uint256 executeAfter);\n    event GuardianRevokationRequested(address indexed wallet, address indexed guardian, uint256 executeAfter);\n    event GuardianAdditionCancelled(address indexed wallet, address indexed guardian);\n    event GuardianRevokationCancelled(address indexed wallet, address indexed guardian);\n    event GuardianAdded(address indexed wallet, address indexed guardian);\n    event GuardianRevoked(address indexed wallet, address indexed guardian);\n\n    // *************** Modifiers ************************ //\n\n    /**\n     * @dev Throws if the wallet is not locked.\n     */\n    modifier onlyWhenLocked(BaseWallet _wallet) {\n        // solium-disable-next-line security/no-block-members\n        require(guardianStorage.isLocked(_wallet), \"GM: wallet must be locked\");\n        _;\n    }\n\n    // *************** Constructor ********************** //\n\n    constructor(\n        ModuleRegistry _registry,\n        GuardianStorage _guardianStorage,\n        uint256 _securityPeriod,\n        uint256 _securityWindow\n    )\n        BaseModule(_registry, _guardianStorage, NAME)\n        public\n    {\n        securityPeriod = _securityPeriod;\n        securityWindow = _securityWindow;\n    }\n\n    // *************** External Functions ********************* //\n\n    /**\n     * @dev Lets the owner add a guardian to its wallet.\n     * The first guardian is added immediately. All following additions must be confirmed\n     * by calling the confirmGuardianAddition() method.\n     * @param _wallet The target wallet.\n     * @param _guardian The guardian to add.\n     */\n    function addGuardian(BaseWallet _wallet, address _guardian) external onlyWalletOwner(_wallet) onlyWhenUnlocked(_wallet) {\n        require(!isOwner(_wallet, _guardian), \"GM: target guardian cannot be owner\");\n        require(!isGuardian(_wallet, _guardian), \"GM: target is already a guardian\");\n        // Guardians must either be an EOA or a contract with an owner()\n        // method that returns an address with a 5000 gas stipend.\n        // Note that this test is not meant to be strict and can be bypassed by custom malicious contracts.\n        // solium-disable-next-line security/no-low-level-calls\n        (bool success,) = _guardian.call.gas(5000)(abi.encodeWithSignature(\"owner()\"));\n        require(success, \"GM: guardian must be EOA or implement owner()\");\n        if (guardianStorage.guardianCount(_wallet) == 0) {\n            guardianStorage.addGuardian(_wallet, _guardian);\n            emit GuardianAdded(address(_wallet), _guardian);\n        } else {\n            bytes32 id = keccak256(abi.encodePacked(address(_wallet), _guardian, \"addition\"));\n            GuardianManagerConfig storage config = configs[address(_wallet)];\n            require(\n                config.pending[id] == 0 || now > config.pending[id] + securityWindow,\n                \"GM: addition of target as guardian is already pending\");\n            config.pending[id] = now + securityPeriod;\n            emit GuardianAdditionRequested(address(_wallet), _guardian, now + securityPeriod);\n        }\n    }\n\n    /**\n     * @dev Confirms the pending addition of a guardian to a wallet.\n     * The method must be called during the confirmation window and\n     * can be called by anyone to enable orchestration.\n     * @param _wallet The target wallet.\n     * @param _guardian The guardian.\n     */\n    function confirmGuardianAddition(BaseWallet _wallet, address _guardian) public onlyWhenUnlocked(_wallet) {\n        bytes32 id = keccak256(abi.encodePacked(address(_wallet), _guardian, \"addition\"));\n        GuardianManagerConfig storage config = configs[address(_wallet)];\n        require(config.pending[id] > 0, \"GM: no pending addition as guardian for target\");\n        require(config.pending[id] < now, \"GM: Too early to confirm guardian addition\");\n        require(now < config.pending[id] + securityWindow, \"GM: Too late to confirm guardian addition\");\n        guardianStorage.addGuardian(_wallet, _guardian);\n        delete config.pending[id];\n        emit GuardianAdded(address(_wallet), _guardian);\n    }\n\n    /**\n     * @dev Lets the owner cancel a pending guardian addition.\n     * @param _wallet The target wallet.\n     * @param _guardian The guardian.\n     */\n    function cancelGuardianAddition(BaseWallet _wallet, address _guardian) public onlyWalletOwner(_wallet) onlyWhenUnlocked(_wallet) {\n        bytes32 id = keccak256(abi.encodePacked(address(_wallet), _guardian, \"addition\"));\n        GuardianManagerConfig storage config = configs[address(_wallet)];\n        require(config.pending[id] > 0, \"GM: no pending addition as guardian for target\");\n        delete config.pending[id];\n        emit GuardianAdditionCancelled(address(_wallet), _guardian);\n    }\n\n    /**\n     * @dev Lets the owner revoke a guardian from its wallet.\n     * Revokation must be confirmed by calling the confirmGuardianRevokation() method.\n     * @param _wallet The target wallet.\n     * @param _guardian The guardian to revoke.\n     */\n    function revokeGuardian(BaseWallet _wallet, address _guardian) external onlyWalletOwner(_wallet) {\n        require(isGuardian(_wallet, _guardian), \"GM: must be an existing guardian\");\n        bytes32 id = keccak256(abi.encodePacked(address(_wallet), _guardian, \"revokation\"));\n        GuardianManagerConfig storage config = configs[address(_wallet)];\n        require(\n            config.pending[id] == 0 || now > config.pending[id] + securityWindow,\n            \"GM: revokation of target as guardian is already pending\"); // TODO need to allow if confirmation window passed\n        config.pending[id] = now + securityPeriod;\n        emit GuardianRevokationRequested(address(_wallet), _guardian, now + securityPeriod);\n    }\n\n    /**\n     * @dev Confirms the pending revokation of a guardian to a wallet.\n     * The method must be called during the confirmation window and\n     * can be called by anyone to enable orchestration.\n     * @param _wallet The target wallet.\n     * @param _guardian The guardian.\n     */\n    function confirmGuardianRevokation(BaseWallet _wallet, address _guardian) public {\n        bytes32 id = keccak256(abi.encodePacked(address(_wallet), _guardian, \"revokation\"));\n        GuardianManagerConfig storage config = configs[address(_wallet)];\n        require(config.pending[id] > 0, \"GM: no pending guardian revokation for target\");\n        require(config.pending[id] < now, \"GM: Too early to confirm guardian revokation\");\n        require(now < config.pending[id] + securityWindow, \"GM: Too late to confirm guardian revokation\");\n        guardianStorage.revokeGuardian(_wallet, _guardian);\n        delete config.pending[id];\n        emit GuardianRevoked(address(_wallet), _guardian);\n    }\n\n    /**\n     * @dev Lets the owner cancel a pending guardian revokation.\n     * @param _wallet The target wallet.\n     * @param _guardian The guardian.\n     */\n    function cancelGuardianRevokation(BaseWallet _wallet, address _guardian) public onlyWalletOwner(_wallet) onlyWhenUnlocked(_wallet) {\n        bytes32 id = keccak256(abi.encodePacked(address(_wallet), _guardian, \"revokation\"));\n        GuardianManagerConfig storage config = configs[address(_wallet)];\n        require(config.pending[id] > 0, \"GM: no pending guardian revokation for target\");\n        delete config.pending[id];\n        emit GuardianRevokationCancelled(address(_wallet), _guardian);\n    }\n\n    /**\n     * @dev Checks if an address is a guardian for a wallet.\n     * @param _wallet The target wallet.\n     * @param _guardian The address to check.\n     * @return true if the address if a guardian for the wallet.\n     */\n    function isGuardian(BaseWallet _wallet, address _guardian) public view returns (bool _isGuardian) {\n        (_isGuardian, ) = GuardianUtils.isGuardian(guardianStorage.getGuardians(_wallet), _guardian);\n    }\n\n    /**\n     * @dev Counts the number of active guardians for a wallet.\n     * @param _wallet The target wallet.\n     * @return the number of active guardians for a wallet.\n     */\n    function guardianCount(BaseWallet _wallet) external view returns (uint256 _count) {\n        return guardianStorage.guardianCount(_wallet);\n    }\n\n    /**\n     * @dev Get the active guardians for a wallet.\n     * @param _wallet The target wallet.\n     * @return the active guardians for a wallet.\n     */\n    function getGuardians(BaseWallet _wallet) external view returns (address[] memory _guardians) {\n        return guardianStorage.getGuardians(_wallet);\n    }\n\n    // *************** Implementation of RelayerModule methods ********************* //\n\n    // Overrides to use the incremental nonce and save some gas\n    function checkAndUpdateUniqueness(BaseWallet _wallet, uint256 _nonce, bytes32 /* _signHash */) internal returns (bool) {\n        return checkAndUpdateNonce(_wallet, _nonce);\n    }\n\n    function validateSignatures(\n        BaseWallet _wallet,\n        bytes memory /* _data */,\n        bytes32 _signHash,\n        bytes memory _signatures\n    )\n        internal\n        view\n        returns (bool)\n    {\n        address signer = recoverSigner(_signHash, _signatures, 0);\n        return isOwner(_wallet, signer); // \"GM: signer must be owner\"\n    }\n\n    function getRequiredSignatures(BaseWallet /* _wallet */, bytes memory _data) internal view returns (uint256) {\n        bytes4 methodId = functionPrefix(_data);\n        if (methodId == CONFIRM_ADDITION_PREFIX || methodId == CONFIRM_REVOKATION_PREFIX) {\n            return 0;\n        }\n        return 1;\n    }\n}",
  "sourcePath": "/Users/name/dev/smartcontracts/contracts/modules/GuardianManager.sol",
  "compiler": {
    "name": "solc",
    "version": "0.5.4+commit.9549d8ff.Emscripten.clang",
    "optimizer": true,
    "runs": 999
  },
  "schemaVersion": "2.3.1",
  "updatedAt": "2020-04-01T21:49:53.090Z"
}