{
  "contractName": "GuardianStorage",
  "abi": [
    {
      "constant": false,
      "inputs": [
        {
          "name": "_wallet",
          "type": "address"
        },
        {
          "name": "_guardian",
          "type": "address"
        }
      ],
      "name": "addGuardian",
      "outputs": [],
      "payable": false,
      "stateMutability": "nonpayable",
      "type": "function"
    },
    {
      "constant": false,
      "inputs": [
        {
          "name": "_wallet",
          "type": "address"
        },
        {
          "name": "_guardian",
          "type": "address"
        }
      ],
      "name": "revokeGuardian",
      "outputs": [],
      "payable": false,
      "stateMutability": "nonpayable",
      "type": "function"
    },
    {
      "constant": true,
      "inputs": [
        {
          "name": "_wallet",
          "type": "address"
        }
      ],
      "name": "guardianCount",
      "outputs": [
        {
          "name": "",
          "type": "uint256"
        }
      ],
      "payable": false,
      "stateMutability": "view",
      "type": "function"
    },
    {
      "constant": true,
      "inputs": [
        {
          "name": "_wallet",
          "type": "address"
        }
      ],
      "name": "getGuardians",
      "outputs": [
        {
          "name": "",
          "type": "address[]"
        }
      ],
      "payable": false,
      "stateMutability": "view",
      "type": "function"
    },
    {
      "constant": true,
      "inputs": [
        {
          "name": "_wallet",
          "type": "address"
        },
        {
          "name": "_guardian",
          "type": "address"
        }
      ],
      "name": "isGuardian",
      "outputs": [
        {
          "name": "",
          "type": "bool"
        }
      ],
      "payable": false,
      "stateMutability": "view",
      "type": "function"
    },
    {
      "constant": false,
      "inputs": [
        {
          "name": "_wallet",
          "type": "address"
        },
        {
          "name": "_releaseAfter",
          "type": "uint256"
        }
      ],
      "name": "setLock",
      "outputs": [],
      "payable": false,
      "stateMutability": "nonpayable",
      "type": "function"
    },
    {
      "constant": true,
      "inputs": [
        {
          "name": "_wallet",
          "type": "address"
        }
      ],
      "name": "isLocked",
      "outputs": [
        {
          "name": "",
          "type": "bool"
        }
      ],
      "payable": false,
      "stateMutability": "view",
      "type": "function"
    },
    {
      "constant": true,
      "inputs": [
        {
          "name": "_wallet",
          "type": "address"
        }
      ],
      "name": "getLock",
      "outputs": [
        {
          "name": "",
          "type": "uint256"
        }
      ],
      "payable": false,
      "stateMutability": "view",
      "type": "function"
    },
    {
      "constant": true,
      "inputs": [
        {
          "name": "_wallet",
          "type": "address"
        }
      ],
      "name": "getLocker",
      "outputs": [
        {
          "name": "",
          "type": "address"
        }
      ],
      "payable": false,
      "stateMutability": "view",
      "type": "function"
    }
  ],
  "bytecode": "0x608060405234801561001057600080fd5b50610b8f806100206000396000f3fe608060405234801561001057600080fd5b50600436106100c0576000357c010000000000000000000000000000000000000000000000000000000090048063919884bf11610093578063c684521011610078578063c684521014610256578063d4ee973414610291578063f18858ab146102cc576100c0565b8063919884bf146101c1578063b0fc29e61461021d576100c0565b80631d97d8cc146100c55780634a4fbeec146101025780635040fb76146101495780636b9db4e61461018e575b600080fd5b610100600480360360408110156100db57600080fd5b5073ffffffffffffffffffffffffffffffffffffffff8135811691602001351661034f565b005b6101356004803603602081101561011857600080fd5b503573ffffffffffffffffffffffffffffffffffffffff166105e9565b604080519115158252519081900360200190f35b61017c6004803603602081101561015f57600080fd5b503573ffffffffffffffffffffffffffffffffffffffff16610616565b60408051918252519081900360200190f35b61017c600480360360208110156101a457600080fd5b503573ffffffffffffffffffffffffffffffffffffffff1661063e565b6101f4600480360360208110156101d757600080fd5b503573ffffffffffffffffffffffffffffffffffffffff16610669565b6040805173ffffffffffffffffffffffffffffffffffffffff9092168252519081900360200190f35b6101006004803603604081101561023357600080fd5b5073ffffffffffffffffffffffffffffffffffffffff8135169060200135610697565b6101006004803603604081101561026c57600080fd5b5073ffffffffffffffffffffffffffffffffffffffff8135811691602001351661083d565b610135600480360360408110156102a757600080fd5b5073ffffffffffffffffffffffffffffffffffffffff813581169160200135166109d8565b6102ff600480360360208110156102e257600080fd5b503573ffffffffffffffffffffffffffffffffffffffff16610a15565b60408051602080825283518183015283519192839290830191858101910280838360005b8381101561033b578181015183820152602001610323565b505050509050019250505060405180910390f35b604080517fd6eb1bbf0000000000000000000000000000000000000000000000000000000081523360048201529051839173ffffffffffffffffffffffffffffffffffffffff83169163d6eb1bbf91602480820192602092909190829003018186803b1580156103be57600080fd5b505afa1580156103d2573d6000803e3d6000fd5b505050506040513d60208110156103e857600080fd5b50511515610441576040517f08c379a0000000000000000000000000000000000000000000000000000000008152600401808060200182810382526034815260200180610b306034913960400191505060405180910390fd5b73ffffffffffffffffffffffffffffffffffffffff8316600090815260208190526040812080549091908290600019810190811061047b57fe5b60009182526020909120015473ffffffffffffffffffffffffffffffffffffffff9081169150841681146105845773ffffffffffffffffffffffffffffffffffffffff8416600090815260018301602052604090205482546101009091046fffffffffffffffffffffffffffffffff169082908490839081106104fa57fe5b60009182526020808320909101805473ffffffffffffffffffffffffffffffffffffffff94851673ffffffffffffffffffffffffffffffffffffffff199091161790559184168152600185019091526040902080546fffffffffffffffffffffffffffffffff9092166101000270ffffffffffffffffffffffffffffffff00199092169190911790555b8154610594836000198301610aef565b505073ffffffffffffffffffffffffffffffffffffffff90921660009081526001909201602052506040902080547fffffffffffffffffffffffffffffff000000000000000000000000000000000016905550565b73ffffffffffffffffffffffffffffffffffffffff16600090815260208190526040902060020154421090565b73ffffffffffffffffffffffffffffffffffffffff1660009081526020819052604090205490565b73ffffffffffffffffffffffffffffffffffffffff1660009081526020819052604090206002015490565b73ffffffffffffffffffffffffffffffffffffffff9081166000908152602081905260409020600301541690565b604080517fd6eb1bbf0000000000000000000000000000000000000000000000000000000081523360048201529051839173ffffffffffffffffffffffffffffffffffffffff83169163d6eb1bbf91602480820192602092909190829003018186803b15801561070657600080fd5b505afa15801561071a573d6000803e3d6000fd5b505050506040513d602081101561073057600080fd5b50511515610789576040517f08c379a0000000000000000000000000000000000000000000000000000000008152600401808060200182810382526034815260200180610b306034913960400191505060405180910390fd5b73ffffffffffffffffffffffffffffffffffffffff8316600090815260208190526040902060020182905581158015906107ed575073ffffffffffffffffffffffffffffffffffffffff838116600090815260208190526040902060030154163314155b156108385773ffffffffffffffffffffffffffffffffffffffff83166000908152602081905260409020600301805473ffffffffffffffffffffffffffffffffffffffff1916331790555b505050565b604080517fd6eb1bbf0000000000000000000000000000000000000000000000000000000081523360048201529051839173ffffffffffffffffffffffffffffffffffffffff83169163d6eb1bbf91602480820192602092909190829003018186803b1580156108ac57600080fd5b505afa1580156108c0573d6000803e3d6000fd5b505050506040513d60208110156108d657600080fd5b5051151561092f576040517f08c379a0000000000000000000000000000000000000000000000000000000008152600401808060200182810382526034815260200180610b306034913960400191505060405180910390fd5b5073ffffffffffffffffffffffffffffffffffffffff9182166000908152602081815260408083209390941680835260018085018352948320805460ff191686178155845495860185559383529082208401805473ffffffffffffffffffffffffffffffffffffffff191682179055905280546fffffffffffffffffffffffffffffffff9092166101000270ffffffffffffffffffffffffffffffff0019909216919091179055565b73ffffffffffffffffffffffffffffffffffffffff9182166000908152602081815260408083209390941682526001909201909152205460ff1690565b73ffffffffffffffffffffffffffffffffffffffff811660009081526020818152604091829020805483518181528184028101909301909352606092909183918015610a6b578160200160208202803883390190505b50905060005b8254811015610ae7578254839082908110610a8857fe5b600091825260209091200154825173ffffffffffffffffffffffffffffffffffffffff90911690839083908110610abb57fe5b73ffffffffffffffffffffffffffffffffffffffff909216602092830290910190910152600101610a71565b509392505050565b81548183558181111561083857600083815260209020610838918101908301610b2c91905b80821115610b285760008155600101610b14565b5090565b9056fe54533a206d75737420626520616e20617574686f72697a6564206d6f64756c6520746f2063616c6c2074686973206d6574686f64a165627a7a723058202def0aca357f8f6b94c2044434898961de32a0637ffed7acd1653216afad600b0029",
  "source": "// Copyright (C) 2018  Argent Labs Ltd. <https://argent.xyz>\n\n// This program is free software: you can redistribute it and/or modify\n// it under the terms of the GNU General Public License as published by\n// the Free Software Foundation, either version 3 of the License, or\n// (at your option) any later version.\n\n// This program is distributed in the hope that it will be useful,\n// but WITHOUT ANY WARRANTY; without even the implied warranty of\n// MERCHANTABILITY or FITNESS FOR A PARTICULAR PURPOSE.  See the\n// GNU General Public License for more details.\n\n// You should have received a copy of the GNU General Public License\n// along with this program.  If not, see <http://www.gnu.org/licenses/>.\n\npragma solidity ^0.5.4;\nimport \"../wallet/BaseWallet.sol\";\nimport \"./Storage.sol\";\nimport \"./IGuardianStorage.sol\";\n\n/**\n * @title GuardianStorage\n * @dev Contract storing the state of wallets related to guardians and lock.\n * The contract only defines basic setters and getters with no logic. Only modules authorised\n * for a wallet can modify its state.\n * @author Julien Niset - <julien@argent.im>\n * @author Olivier Van Den Biggelaar - <olivier@argent.im>\n */\ncontract GuardianStorage is IGuardianStorage, Storage {\n\n    struct GuardianStorageConfig {\n        // the list of guardians\n        address[] guardians;\n        // the info about guardians\n        mapping (address => GuardianInfo) info;\n        // the lock's release timestamp\n        uint256 lock;\n        // the module that set the last lock\n        address locker;\n    }\n\n    struct GuardianInfo {\n        bool exists;\n        uint128 index;\n    }\n\n    // wallet specific storage\n    mapping (address => GuardianStorageConfig) internal configs;\n\n    // *************** External Functions ********************* //\n\n    /**\n     * @dev Lets an authorised module add a guardian to a wallet.\n     * @param _wallet The target wallet.\n     * @param _guardian The guardian to add.\n     */\n    function addGuardian(BaseWallet _wallet, address _guardian) external onlyModule(_wallet) {\n        GuardianStorageConfig storage config = configs[address(_wallet)];\n        config.info[_guardian].exists = true;\n        config.info[_guardian].index = uint128(config.guardians.push(_guardian) - 1);\n    }\n\n    /**\n     * @dev Lets an authorised module revoke a guardian from a wallet.\n     * @param _wallet The target wallet.\n     * @param _guardian The guardian to revoke.\n     */\n    function revokeGuardian(BaseWallet _wallet, address _guardian) external onlyModule(_wallet) {\n        GuardianStorageConfig storage config = configs[address(_wallet)];\n        address lastGuardian = config.guardians[config.guardians.length - 1];\n        if (_guardian != lastGuardian) {\n            uint128 targetIndex = config.info[_guardian].index;\n            config.guardians[targetIndex] = lastGuardian;\n            config.info[lastGuardian].index = targetIndex;\n        }\n        config.guardians.length--;\n        delete config.info[_guardian];\n    }\n\n    /**\n     * @dev Returns the number of guardians for a wallet.\n     * @param _wallet The target wallet.\n     * @return the number of guardians.\n     */\n    function guardianCount(BaseWallet _wallet) external view returns (uint256) {\n        return configs[address(_wallet)].guardians.length;\n    }\n\n    /**\n     * @dev Gets the list of guaridans for a wallet.\n     * @param _wallet The target wallet.\n     * @return the list of guardians.\n     */\n    function getGuardians(BaseWallet _wallet) external view returns (address[] memory) {\n        GuardianStorageConfig storage config = configs[address(_wallet)];\n        address[] memory guardians = new address[](config.guardians.length);\n        for (uint256 i = 0; i < config.guardians.length; i++) {\n            guardians[i] = config.guardians[i];\n        }\n        return guardians;\n    }\n\n    /**\n     * @dev Checks if an account is a guardian for a wallet.\n     * @param _wallet The target wallet.\n     * @param _guardian The account.\n     * @return true if the account is a guardian for a wallet.\n     */\n    function isGuardian(BaseWallet _wallet, address _guardian) external view returns (bool) {\n        return configs[address(_wallet)].info[_guardian].exists;\n    }\n\n    /**\n     * @dev Lets an authorised module set the lock for a wallet.\n     * @param _wallet The target wallet.\n     * @param _releaseAfter The epoch time at which the lock should automatically release.\n     */\n    function setLock(BaseWallet _wallet, uint256 _releaseAfter) external onlyModule(_wallet) {\n        configs[address(_wallet)].lock = _releaseAfter;\n        if (_releaseAfter != 0 && msg.sender != configs[address(_wallet)].locker) {\n            configs[address(_wallet)].locker = msg.sender;\n        }\n    }\n\n    /**\n     * @dev Checks if the lock is set for a wallet.\n     * @param _wallet The target wallet.\n     * @return true if the lock is set for the wallet.\n     */\n    function isLocked(BaseWallet _wallet) external view returns (bool) {\n        return configs[address(_wallet)].lock > now;\n    }\n\n    /**\n     * @dev Gets the time at which the lock of a wallet will release.\n     * @param _wallet The target wallet.\n     * @return the time at which the lock of a wallet will release, or zero if there is no lock set.\n     */\n    function getLock(BaseWallet _wallet) external view returns (uint256) {\n        return configs[address(_wallet)].lock;\n    }\n\n    /**\n     * @dev Gets the address of the last module that modified the lock for a wallet.\n     * @param _wallet The target wallet.\n     * @return the address of the last module that modified the lock for a wallet.\n     */\n    function getLocker(BaseWallet _wallet) external view returns (address) {\n        return configs[address(_wallet)].locker;\n    }\n}",
  "sourcePath": "/Users/name/dev/argent-contracts-release-1.5.0/contracts/storage/GuardianStorage.sol",
  "compiler": {
    "name": "solc",
    "version": "0.5.4+commit.9549d8ff.Emscripten.clang",
    "optimizer": true,
    "runs": 999
  },
  "schemaVersion": "2.3.1",
  "updatedAt": "2020-04-01T15:58:47.237Z"
}