{
  "contractName": "KyberNetworkTest",
  "abi": [
    {
      "constant": true,
      "inputs": [
        {
          "name": "",
          "type": "address"
        }
      ],
      "name": "tokens",
      "outputs": [
        {
          "name": "exists",
          "type": "bool"
        },
        {
          "name": "rate",
          "type": "uint256"
        },
        {
          "name": "decimals",
          "type": "uint256"
        }
      ],
      "payable": false,
      "stateMutability": "view",
      "type": "function"
    },
    {
      "inputs": [],
      "payable": false,
      "stateMutability": "nonpayable",
      "type": "constructor"
    },
    {
      "payable": true,
      "stateMutability": "payable",
      "type": "fallback"
    },
    {
      "constant": false,
      "inputs": [
        {
          "name": "_token",
          "type": "address"
        },
        {
          "name": "_rate",
          "type": "uint256"
        },
        {
          "name": "_decimals",
          "type": "uint256"
        }
      ],
      "name": "addToken",
      "outputs": [],
      "payable": false,
      "stateMutability": "nonpayable",
      "type": "function"
    },
    {
      "constant": true,
      "inputs": [
        {
          "name": "_src",
          "type": "address"
        },
        {
          "name": "_dest",
          "type": "address"
        },
        {
          "name": "",
          "type": "uint256"
        }
      ],
      "name": "getExpectedRate",
      "outputs": [
        {
          "name": "expectedRate",
          "type": "uint256"
        },
        {
          "name": "slippageRate",
          "type": "uint256"
        }
      ],
      "payable": false,
      "stateMutability": "view",
      "type": "function"
    },
    {
      "constant": false,
      "inputs": [
        {
          "name": "_src",
          "type": "address"
        },
        {
          "name": "_srcAmount",
          "type": "uint256"
        },
        {
          "name": "_dest",
          "type": "address"
        },
        {
          "name": "_destAddress",
          "type": "address"
        },
        {
          "name": "_maxDestAmount",
          "type": "uint256"
        },
        {
          "name": "",
          "type": "uint256"
        },
        {
          "name": "",
          "type": "address"
        }
      ],
      "name": "trade",
      "outputs": [
        {
          "name": "destAmount",
          "type": "uint256"
        }
      ],
      "payable": true,
      "stateMutability": "payable",
      "type": "function"
    }
  ],
  "bytecode": "0x608060405234801561001057600080fd5b5060018054600160a060020a03191633179055610a17806100326000396000f3fe60806040526004361061005b577c01000000000000000000000000000000000000000000000000000000006000350463809a9e55811461005d578063cb3c28c7146100c6578063dee1f2af14610137578063e486033914610183575b005b34801561006957600080fd5b506100ad6004803603606081101561008057600080fd5b5073ffffffffffffffffffffffffffffffffffffffff8135811691602081013590911690604001356101e3565b6040805192835260208301919091528051918290030190f35b610125600480360360e08110156100dc57600080fd5b5073ffffffffffffffffffffffffffffffffffffffff81358116916020810135916040820135811691606081013582169160808201359160a08101359160c09091013516610337565b60408051918252519081900360200190f35b34801561014357600080fd5b5061005b6004803603606081101561015a57600080fd5b5073ffffffffffffffffffffffffffffffffffffffff8135169060208101359060400135610885565b34801561018f57600080fd5b506101c3600480360360208110156101a657600080fd5b503573ffffffffffffffffffffffffffffffffffffffff1661096e565b604080519315158452602084019290925282820152519081900360600190f35b60008073ffffffffffffffffffffffffffffffffffffffff851673eeeeeeeeeeeeeeeeeeeeeeeeeeeeeeeeeeeeeeee14156102655773ffffffffffffffffffffffffffffffffffffffff84166000908152602081905260409020600101546ec097ce7bc90715b34b9f100000000081151561025a57fe5b04915081905061032f565b73ffffffffffffffffffffffffffffffffffffffff841673eeeeeeeeeeeeeeeeeeeeeeeeeeeeeeeeeeeeeeee14156102c857505073ffffffffffffffffffffffffffffffffffffffff83166000908152602081905260409020600101548061032f565b604080517f08c379a000000000000000000000000000000000000000000000000000000000815260206004820152601260248201527f556e6b6e6f776e20746f6b656e20706169720000000000000000000000000000604482015290519081900360640190fd5b935093915050565b6000808073ffffffffffffffffffffffffffffffffffffffff8a1673eeeeeeeeeeeeeeeeeeeeeeeeeeeeeeeeeeeeeeee14156106495773ffffffffffffffffffffffffffffffffffffffff88166000908152602081905260409020600101546ec097ce7bc90715b34b9f10000000008115156103af57fe5b73ffffffffffffffffffffffffffffffffffffffff8a16600090815260208190526040902060020154919004925061040390602403600a0a6103f7848c63ffffffff61099316565b9063ffffffff6109c716565b92508583111561045d5773ffffffffffffffffffffffffffffffffffffffff88166000908152602081905260409020600201548693506104569083906103f7908690602403600a0a63ffffffff61099316565b9050610460565b50875b348111156104cf57604080517f08c379a000000000000000000000000000000000000000000000000000000000815260206004820152601760248201527f6e6f7420656e6f756768204554482070726f7669646564000000000000000000604482015290519081900360640190fd5b803411156105085760405133903483900380156108fc02916000818181858888f19350505050158015610506573d6000803e3d6000fd5b505b8773ffffffffffffffffffffffffffffffffffffffff1663a9059cbb88856040518363ffffffff167c0100000000000000000000000000000000000000000000000000000000028152600401808373ffffffffffffffffffffffffffffffffffffffff1673ffffffffffffffffffffffffffffffffffffffff16815260200182815260200192505050602060405180830381600087803b1580156105ab57600080fd5b505af11580156105bf573d6000803e3d6000fd5b505050506040513d60208110156105d557600080fd5b5051151561064457604080517f08c379a000000000000000000000000000000000000000000000000000000000815260206004820152601560248201527f4552433230207472616e73666572206661696c65640000000000000000000000604482015290519081900360640190fd5b610878565b73ffffffffffffffffffffffffffffffffffffffff881673eeeeeeeeeeeeeeeeeeeeeeeeeeeeeeeeeeeeeeee14156102c85773ffffffffffffffffffffffffffffffffffffffff8a16600090815260208190526040902060018101546002909101549092506106c590600a0a6103f7848c63ffffffff61099316565b92508583111561071c5773ffffffffffffffffffffffffffffffffffffffff8a166000908152602081905260409020600201548693506107159083906103f7908690600a0a63ffffffff61099316565b905061071f565b50875b604080517f23b872dd00000000000000000000000000000000000000000000000000000000815233600482015230602482015260448101839052905173ffffffffffffffffffffffffffffffffffffffff8c16916323b872dd9160648083019260209291908290030181600087803b15801561079a57600080fd5b505af11580156107ae573d6000803e3d6000fd5b505050506040513d60208110156107c457600080fd5b5051151561083357604080517f08c379a000000000000000000000000000000000000000000000000000000000815260206004820152601960248201527f6e6f7420656e6f7567682045524332302070726f766964656400000000000000604482015290519081900360640190fd5b60405173ffffffffffffffffffffffffffffffffffffffff88169084156108fc029085906000818181858888f19350505050158015610876573d6000803e3d6000fd5b505b5050979650505050505050565b60015473ffffffffffffffffffffffffffffffffffffffff16331461090b57604080517f08c379a000000000000000000000000000000000000000000000000000000000815260206004820152600c60248201527f756e617574686f72697a65640000000000000000000000000000000000000000604482015290519081900360640190fd5b604080516060810182526001808252602080830195865282840194855273ffffffffffffffffffffffffffffffffffffffff96909616600090815295869052919094209351845460ff191690151517845591519183019190915551600290910155565b60006020819052908152604090208054600182015460029092015460ff909116919083565b60008215156109a4575060006109c1565b8282028284828115156109b357fe5b04146109be57600080fd5b90505b92915050565b60008082116109d557600080fd5b600082848115156109e257fe5b0494935050505056fea165627a7a723058207d185ead45f42cf9bb3923e7231ecc0cf03d337ac500092bd4c8b29289bb79cc0029",
  "source": "pragma solidity ^0.5.4;\nimport \"../exchange/ERC20.sol\";\nimport \"../exchange/KyberNetwork.sol\";\nimport \"../../lib/utils/SafeMath.sol\";\n\ncontract KyberNetworkTest is KyberNetwork {\n\n    using SafeMath for uint256;\n\n    // Mock token address for ETH\n    address constant internal ETH_TOKEN_ADDRESS = 0xEeeeeEeeeEeEeeEeEeEeeEEEeeeeEeeeeeeeEEeE;\n\n    struct Token {\n        bool exists;\n        uint256 rate; \n        uint256 decimals;\n    }\n\n    mapping (address => Token) public tokens;\n    address owner;\n\n    constructor() public {\n        owner = msg.sender;\n    }\n\n    function() external payable {}\n\n    /**\n    * @dev Adds a tradable token to the Kyber instance\n    * @param _token The token\n    * @param _rate The rate for the token as 1 TOKN = (rate/10**18) ETH\n    * @param _decimals The number of decimals for the token\n    */\n    function addToken(ERC20 _token, uint256 _rate, uint256 _decimals) public {\n        require(msg.sender == owner, \"unauthorized\");\n        tokens[address(_token)] = Token({exists: true, rate: _rate, decimals: _decimals});\n    }\n\n    function getExpectedRate(\n        ERC20 _src,\n        ERC20 _dest,\n        uint /* _srcQty */\n    )\n        public\n        view\n        returns (uint expectedRate, uint slippageRate)\n    {\n        if(address(_src) == ETH_TOKEN_ADDRESS) {\n            expectedRate = 10**36 / tokens[address(_dest)].rate;\n            slippageRate = expectedRate;\n        }\n        else if(address(_dest) == ETH_TOKEN_ADDRESS) {\n            expectedRate = tokens[address(_src)].rate;\n            slippageRate = expectedRate;\n        }\n        else {\n            revert(\"Unknown token pair\");\n        }\n    }\n\n    function trade(\n        ERC20 _src,\n        uint _srcAmount,\n        ERC20 _dest,\n        address payable _destAddress,\n        uint _maxDestAmount,\n        uint /* _minConversionRate */,\n        address /* _walletId */\n    )\n        public\n        payable\n        returns( uint destAmount) \n    {\n        uint expectedRate;\n        uint srcAmount;\n        if(address(_src) == ETH_TOKEN_ADDRESS) {\n            expectedRate = 10**36 / tokens[address(_dest)].rate;\n            destAmount = expectedRate.mul(_srcAmount).div(10**(36 - tokens[address(_dest)].decimals));\n            if(destAmount > _maxDestAmount) {\n                destAmount = _maxDestAmount;\n                srcAmount = _maxDestAmount.mul(10**(36 - tokens[address(_dest)].decimals)).div(expectedRate);\n            }\n            else {\n                srcAmount = _srcAmount;\n            }\n            require(msg.value >= srcAmount, \"not enough ETH provided\");\n            if(msg.value > srcAmount) {\n                // refund\n                msg.sender.transfer(msg.value - srcAmount);\n            }\n            require(ERC20(_dest).transfer(_destAddress, destAmount), \"ERC20 transfer failed\");\n        }\n        else if(address(_dest) == ETH_TOKEN_ADDRESS) {\n            expectedRate = tokens[address(_src)].rate;\n            destAmount = expectedRate.mul(_srcAmount).div(10**tokens[address(_src)].decimals);\n            if(destAmount > _maxDestAmount) {\n                destAmount = _maxDestAmount;\n                srcAmount = _maxDestAmount.mul(10**tokens[address(_src)].decimals).div(expectedRate);\n            }\n            else {\n                srcAmount = _srcAmount;\n            }\n            require(_src.transferFrom(msg.sender, address(this), srcAmount), \"not enough ERC20 provided\");\n            _destAddress.transfer(destAmount);\n        }\n        else {\n            revert(\"Unknown token pair\");\n        }\n    }\n}\n",
  "sourcePath": "/Users/name/dev/argent-contracts-release-1.5.0/contracts/test/KyberNetworkTest.sol",
  "compiler": {
    "name": "solc",
    "version": "0.5.4+commit.9549d8ff.Emscripten.clang",
    "optimizer": true,
    "runs": 999
  },
  "schemaVersion": "2.3.1",
  "updatedAt": "2020-04-01T15:58:47.303Z"
}