{
  "contractName": "LegacySimpleUpgrader",
  "abi": [
    {
      "inputs": [
        {
          "name": "_disable",
          "type": "address[]"
        },
        {
          "name": "_enable",
          "type": "address[]"
        }
      ],
      "payable": false,
      "stateMutability": "nonpayable",
      "type": "constructor"
    },
    {
      "constant": false,
      "inputs": [
        {
          "name": "_wallet",
          "type": "address"
        },
        {
          "name": "_toDisable",
          "type": "address[]"
        },
        {
          "name": "_toEnable",
          "type": "address[]"
        }
      ],
      "name": "upgrade",
      "outputs": [],
      "payable": false,
      "stateMutability": "nonpayable",
      "type": "function"
    },
    {
      "constant": true,
      "inputs": [],
      "name": "toDisable",
      "outputs": [
        {
          "name": "",
          "type": "address[]"
        }
      ],
      "payable": false,
      "stateMutability": "view",
      "type": "function"
    },
    {
      "constant": true,
      "inputs": [],
      "name": "toEnable",
      "outputs": [
        {
          "name": "",
          "type": "address[]"
        }
      ],
      "payable": false,
      "stateMutability": "view",
      "type": "function"
    }
  ],
  "bytecode": "0x608060405234801561001057600080fd5b5060405161061c38038061061c8339810180604052604081101561003357600080fd5b81019080805164010000000081111561004b57600080fd5b8201602081018481111561005e57600080fd5b815185602082028301116401000000008211171561007b57600080fd5b5050929190602001805164010000000081111561009757600080fd5b820160208101848111156100aa57600080fd5b81518560208202830111640100000000821117156100c757600080fd5b505084519093506100e192506000915060208501906100fd565b5080516100f59060019060208401906100fd565b505050610189565b828054828255906000526020600020908101928215610152579160200282015b828111156101525782518254600160a060020a031916600160a060020a0390911617825560209092019160019091019061011d565b5061015e929150610162565b5090565b61018691905b8082111561015e578054600160a060020a0319168155600101610168565b90565b610484806101986000396000f3fe608060405234801561001057600080fd5b506004361061005d577c010000000000000000000000000000000000000000000000000000000060003504634c3ea4fe8114610062578063aa4f95ea146100ba578063e79e08401461019b575b600080fd5b61006a6101a3565b60408051602080825283518183015283519192839290830191858101910280838360005b838110156100a657818101518382015260200161008e565b505050509050019250505060405180910390f35b610199600480360360608110156100d057600080fd5b73ffffffffffffffffffffffffffffffffffffffff823516919081019060408101602082013564010000000081111561010857600080fd5b82018360208201111561011a57600080fd5b8035906020019184602083028401116401000000008311171561013c57600080fd5b91939092909160208101903564010000000081111561015a57600080fd5b82018360208201111561016c57600080fd5b8035906020019184602083028401116401000000008311171561018e57600080fd5b509092509050610212565b005b61006a6103eb565b6060600180548060200260200160405190810160405280929190818152602001828054801561020857602002820191906000526020600020905b815473ffffffffffffffffffffffffffffffffffffffff1681526001909101906020018083116101dd575b5050505050905090565b60005b818110156102e35773ffffffffffffffffffffffffffffffffffffffff8616631f17732d84848481811061024557fe5b6040805163ffffffff86167c0100000000000000000000000000000000000000000000000000000000028152602092909202939093013573ffffffffffffffffffffffffffffffffffffffff1660048201526001602482015291516044808401936000935082900301818387803b1580156102bf57600080fd5b505af11580156102d3573d6000803e3d6000fd5b5050600190920191506102159050565b5060005b838110156103e35773ffffffffffffffffffffffffffffffffffffffff8616631f17732d86868481811061031757fe5b9050602002013573ffffffffffffffffffffffffffffffffffffffff1660006040518363ffffffff167c0100000000000000000000000000000000000000000000000000000000028152600401808373ffffffffffffffffffffffffffffffffffffffff1673ffffffffffffffffffffffffffffffffffffffff1681526020018215151515815260200192505050600060405180830381600087803b1580156103bf57600080fd5b505af11580156103d3573d6000803e3d6000fd5b5050600190920191506102e79050565b505050505050565b606060008054806020026020016040519081016040528092919081815260200182805480156102085760200282019190600052602060002090815473ffffffffffffffffffffffffffffffffffffffff1681526001909101906020018083116101dd57505050505090509056fea165627a7a72305820d09f5c24540997edf1bec155e8334cfefc538b683ccbb63b551fcb97358f58d50029",
  "source": "// Copyright (C) 2018  Argent Labs Ltd. <https://argent.xyz>\n\n// This program is free software: you can redistribute it and/or modify\n// it under the terms of the GNU General Public License as published by\n// the Free Software Foundation, either version 3 of the License, or\n// (at your option) any later version.\n\n// This program is distributed in the hope that it will be useful,\n// but WITHOUT ANY WARRANTY; without even the implied warranty of\n// MERCHANTABILITY or FITNESS FOR A PARTICULAR PURPOSE.  See the\n// GNU General Public License for more details.\n\n// You should have received a copy of the GNU General Public License\n// along with this program.  If not, see <http://www.gnu.org/licenses/>.\n\npragma solidity ^0.5.4;\n\nimport \"./LegacyUpgrader.sol\";\nimport \"../../wallet/BaseWallet.sol\";\n\n/**\n * @title LegacySimpleUpgrader\n * @dev Old implementation for the Upgrader interface that added/removed modules.\n * @author Julien Niset - <julien@argent.im>\n */\ncontract LegacySimpleUpgrader is LegacyUpgrader {\n\n    address[] private disable;\n    address[] private enable;\n\n    constructor(address[] memory _disable, address[] memory _enable) public {\n        disable = _disable;\n        enable = _enable;\n    }\n\n    function upgrade(address payable _wallet, address[] calldata _toDisable, address[] calldata _toEnable) external {\n        uint256 i = 0;\n        //add new modules\n        for (i = 0; i < _toEnable.length; i++) {\n            BaseWallet(_wallet).authoriseModule(_toEnable[i], true);\n        }\n        //remove old modules\n        for (i = 0; i < _toDisable.length; i++) {\n            BaseWallet(_wallet).authoriseModule(_toDisable[i], false);\n        }\n    }\n\n    function toDisable() external view returns (address[] memory) {\n        return disable;\n    }\n\n    function toEnable() external view returns (address[] memory) {\n        return enable;\n    }\n}",
  "sourcePath": "/Users/name/dev/argent-contracts-release-1.5.0/contracts/upgrade/Legacy/LegacySimpleUpgrader.sol",
  "compiler": {
    "name": "solc",
    "version": "0.5.4+commit.9549d8ff.Emscripten.clang",
    "optimizer": true,
    "runs": 999
  },
  "schemaVersion": "2.3.1",
  "updatedAt": "2020-04-01T15:58:47.368Z"
}