{
  "contractName": "LegacyTokenTransfer",
  "abi": [
    {
      "constant": true,
      "inputs": [],
      "name": "securityWindow",
      "outputs": [
        {
          "name": "",
          "type": "uint256"
        }
      ],
      "payable": false,
      "stateMutability": "view",
      "type": "function"
    },
    {
      "constant": false,
      "inputs": [
        {
          "name": "_wallet",
          "type": "address"
        }
      ],
      "name": "init",
      "outputs": [],
      "payable": false,
      "stateMutability": "nonpayable",
      "type": "function"
    },
    {
      "constant": true,
      "inputs": [
        {
          "name": "_wallet",
          "type": "address"
        }
      ],
      "name": "getNonce",
      "outputs": [
        {
          "name": "nonce",
          "type": "uint256"
        }
      ],
      "payable": false,
      "stateMutability": "view",
      "type": "function"
    },
    {
      "constant": true,
      "inputs": [
        {
          "name": "_wallet",
          "type": "address"
        }
      ],
      "name": "getCurrentLimit",
      "outputs": [
        {
          "name": "_currentLimit",
          "type": "uint256"
        }
      ],
      "payable": false,
      "stateMutability": "view",
      "type": "function"
    },
    {
      "constant": false,
      "inputs": [
        {
          "name": "_wallet",
          "type": "address"
        },
        {
          "name": "_module",
          "type": "address"
        }
      ],
      "name": "addModule",
      "outputs": [],
      "payable": false,
      "stateMutability": "nonpayable",
      "type": "function"
    },
    {
      "constant": true,
      "inputs": [
        {
          "name": "_wallet",
          "type": "address"
        }
      ],
      "name": "getDailyUnspent",
      "outputs": [
        {
          "name": "_unspent",
          "type": "uint256"
        },
        {
          "name": "_periodEnd",
          "type": "uint64"
        }
      ],
      "payable": false,
      "stateMutability": "view",
      "type": "function"
    },
    {
      "constant": true,
      "inputs": [],
      "name": "securityPeriod",
      "outputs": [
        {
          "name": "",
          "type": "uint256"
        }
      ],
      "payable": false,
      "stateMutability": "view",
      "type": "function"
    },
    {
      "constant": true,
      "inputs": [],
      "name": "transferStorage",
      "outputs": [
        {
          "name": "",
          "type": "address"
        }
      ],
      "payable": false,
      "stateMutability": "view",
      "type": "function"
    },
    {
      "constant": false,
      "inputs": [
        {
          "name": "_token",
          "type": "address"
        }
      ],
      "name": "recoverToken",
      "outputs": [],
      "payable": false,
      "stateMutability": "nonpayable",
      "type": "function"
    },
    {
      "constant": true,
      "inputs": [
        {
          "name": "_wallet",
          "type": "address"
        }
      ],
      "name": "getPendingLimit",
      "outputs": [
        {
          "name": "_pendingLimit",
          "type": "uint256"
        },
        {
          "name": "_changeAfter",
          "type": "uint64"
        }
      ],
      "payable": false,
      "stateMutability": "view",
      "type": "function"
    },
    {
      "constant": false,
      "inputs": [
        {
          "name": "_wallet",
          "type": "address"
        },
        {
          "name": "_data",
          "type": "bytes"
        },
        {
          "name": "_nonce",
          "type": "uint256"
        },
        {
          "name": "_signatures",
          "type": "bytes"
        },
        {
          "name": "_gasPrice",
          "type": "uint256"
        },
        {
          "name": "_gasLimit",
          "type": "uint256"
        }
      ],
      "name": "execute",
      "outputs": [
        {
          "name": "success",
          "type": "bool"
        }
      ],
      "payable": false,
      "stateMutability": "nonpayable",
      "type": "function"
    },
    {
      "constant": true,
      "inputs": [],
      "name": "priceProvider",
      "outputs": [
        {
          "name": "",
          "type": "address"
        }
      ],
      "payable": false,
      "stateMutability": "view",
      "type": "function"
    },
    {
      "constant": true,
      "inputs": [
        {
          "name": "",
          "type": "address"
        }
      ],
      "name": "relayer",
      "outputs": [
        {
          "name": "nonce",
          "type": "uint256"
        }
      ],
      "payable": false,
      "stateMutability": "view",
      "type": "function"
    },
    {
      "constant": true,
      "inputs": [],
      "name": "defaultLimit",
      "outputs": [
        {
          "name": "",
          "type": "uint256"
        }
      ],
      "payable": false,
      "stateMutability": "view",
      "type": "function"
    },
    {
      "constant": true,
      "inputs": [
        {
          "name": "_wallet",
          "type": "address"
        }
      ],
      "name": "isLimitDisabled",
      "outputs": [
        {
          "name": "_limitDisabled",
          "type": "bool"
        }
      ],
      "payable": false,
      "stateMutability": "view",
      "type": "function"
    },
    {
      "inputs": [
        {
          "name": "_registry",
          "type": "address"
        },
        {
          "name": "_transferStorage",
          "type": "address"
        },
        {
          "name": "_guardianStorage",
          "type": "address"
        },
        {
          "name": "_priceProvider",
          "type": "address"
        },
        {
          "name": "_securityPeriod",
          "type": "uint256"
        },
        {
          "name": "_securityWindow",
          "type": "uint256"
        },
        {
          "name": "_defaultLimit",
          "type": "uint256"
        }
      ],
      "payable": false,
      "stateMutability": "nonpayable",
      "type": "constructor"
    },
    {
      "anonymous": false,
      "inputs": [
        {
          "indexed": true,
          "name": "wallet",
          "type": "address"
        },
        {
          "indexed": true,
          "name": "token",
          "type": "address"
        },
        {
          "indexed": true,
          "name": "amount",
          "type": "uint256"
        },
        {
          "indexed": false,
          "name": "to",
          "type": "address"
        },
        {
          "indexed": false,
          "name": "data",
          "type": "bytes"
        }
      ],
      "name": "Transfer",
      "type": "event"
    },
    {
      "anonymous": false,
      "inputs": [
        {
          "indexed": true,
          "name": "wallet",
          "type": "address"
        },
        {
          "indexed": true,
          "name": "target",
          "type": "address"
        },
        {
          "indexed": false,
          "name": "whitelistAfter",
          "type": "uint64"
        }
      ],
      "name": "AddedToWhitelist",
      "type": "event"
    },
    {
      "anonymous": false,
      "inputs": [
        {
          "indexed": true,
          "name": "wallet",
          "type": "address"
        },
        {
          "indexed": true,
          "name": "target",
          "type": "address"
        }
      ],
      "name": "RemovedFromWhitelist",
      "type": "event"
    },
    {
      "anonymous": false,
      "inputs": [
        {
          "indexed": true,
          "name": "wallet",
          "type": "address"
        },
        {
          "indexed": true,
          "name": "id",
          "type": "bytes32"
        },
        {
          "indexed": true,
          "name": "executeAfter",
          "type": "uint256"
        },
        {
          "indexed": false,
          "name": "token",
          "type": "address"
        },
        {
          "indexed": false,
          "name": "to",
          "type": "address"
        },
        {
          "indexed": false,
          "name": "amount",
          "type": "uint256"
        },
        {
          "indexed": false,
          "name": "data",
          "type": "bytes"
        }
      ],
      "name": "PendingTransferCreated",
      "type": "event"
    },
    {
      "anonymous": false,
      "inputs": [
        {
          "indexed": true,
          "name": "wallet",
          "type": "address"
        },
        {
          "indexed": true,
          "name": "id",
          "type": "bytes32"
        }
      ],
      "name": "PendingTransferExecuted",
      "type": "event"
    },
    {
      "anonymous": false,
      "inputs": [
        {
          "indexed": true,
          "name": "wallet",
          "type": "address"
        },
        {
          "indexed": true,
          "name": "id",
          "type": "bytes32"
        }
      ],
      "name": "PendingTransferCanceled",
      "type": "event"
    },
    {
      "anonymous": false,
      "inputs": [
        {
          "indexed": true,
          "name": "wallet",
          "type": "address"
        },
        {
          "indexed": true,
          "name": "newLimit",
          "type": "uint256"
        },
        {
          "indexed": true,
          "name": "startAfter",
          "type": "uint64"
        }
      ],
      "name": "LimitChanged",
      "type": "event"
    },
    {
      "anonymous": false,
      "inputs": [
        {
          "indexed": true,
          "name": "wallet",
          "type": "address"
        },
        {
          "indexed": true,
          "name": "success",
          "type": "bool"
        },
        {
          "indexed": false,
          "name": "signedHash",
          "type": "bytes32"
        }
      ],
      "name": "TransactionExecuted",
      "type": "event"
    },
    {
      "anonymous": false,
      "inputs": [
        {
          "indexed": false,
          "name": "name",
          "type": "bytes32"
        }
      ],
      "name": "ModuleCreated",
      "type": "event"
    },
    {
      "anonymous": false,
      "inputs": [
        {
          "indexed": false,
          "name": "wallet",
          "type": "address"
        }
      ],
      "name": "ModuleInitialised",
      "type": "event"
    },
    {
      "constant": false,
      "inputs": [
        {
          "name": "_wallet",
          "type": "address"
        },
        {
          "name": "_token",
          "type": "address"
        },
        {
          "name": "_to",
          "type": "address"
        },
        {
          "name": "_amount",
          "type": "uint256"
        },
        {
          "name": "_data",
          "type": "bytes"
        }
      ],
      "name": "transferToken",
      "outputs": [],
      "payable": false,
      "stateMutability": "nonpayable",
      "type": "function"
    },
    {
      "constant": false,
      "inputs": [
        {
          "name": "_wallet",
          "type": "address"
        },
        {
          "name": "_target",
          "type": "address"
        }
      ],
      "name": "addToWhitelist",
      "outputs": [],
      "payable": false,
      "stateMutability": "nonpayable",
      "type": "function"
    },
    {
      "constant": false,
      "inputs": [
        {
          "name": "_wallet",
          "type": "address"
        },
        {
          "name": "_target",
          "type": "address"
        }
      ],
      "name": "removeFromWhitelist",
      "outputs": [],
      "payable": false,
      "stateMutability": "nonpayable",
      "type": "function"
    },
    {
      "constant": false,
      "inputs": [
        {
          "name": "_wallet",
          "type": "address"
        },
        {
          "name": "_token",
          "type": "address"
        },
        {
          "name": "_to",
          "type": "address"
        },
        {
          "name": "_amount",
          "type": "uint256"
        },
        {
          "name": "_data",
          "type": "bytes"
        },
        {
          "name": "_block",
          "type": "uint256"
        }
      ],
      "name": "executePendingTransfer",
      "outputs": [],
      "payable": false,
      "stateMutability": "nonpayable",
      "type": "function"
    },
    {
      "constant": false,
      "inputs": [
        {
          "name": "_wallet",
          "type": "address"
        },
        {
          "name": "_id",
          "type": "bytes32"
        }
      ],
      "name": "cancelPendingTransfer",
      "outputs": [],
      "payable": false,
      "stateMutability": "nonpayable",
      "type": "function"
    },
    {
      "constant": false,
      "inputs": [
        {
          "name": "_wallet",
          "type": "address"
        },
        {
          "name": "_newLimit",
          "type": "uint256"
        }
      ],
      "name": "changeLimit",
      "outputs": [],
      "payable": false,
      "stateMutability": "nonpayable",
      "type": "function"
    },
    {
      "constant": false,
      "inputs": [
        {
          "name": "_wallet",
          "type": "address"
        }
      ],
      "name": "disableLimit",
      "outputs": [],
      "payable": false,
      "stateMutability": "nonpayable",
      "type": "function"
    },
    {
      "constant": true,
      "inputs": [
        {
          "name": "_wallet",
          "type": "address"
        },
        {
          "name": "_target",
          "type": "address"
        }
      ],
      "name": "isWhitelisted",
      "outputs": [
        {
          "name": "_isWhitelisted",
          "type": "bool"
        }
      ],
      "payable": false,
      "stateMutability": "view",
      "type": "function"
    },
    {
      "constant": true,
      "inputs": [
        {
          "name": "_wallet",
          "type": "address"
        },
        {
          "name": "_id",
          "type": "bytes32"
        }
      ],
      "name": "getPendingTransfer",
      "outputs": [
        {
          "name": "_executeAfter",
          "type": "uint64"
        }
      ],
      "payable": false,
      "stateMutability": "view",
      "type": "function"
    }
  ],
  "bytecode": "0x608060405234801561001057600080fd5b5060405160e0806136b1833981018060405260e081101561003057600080fd5b5080516020808301516040808501516060860151608087015160a088015160c09098015160008054600160a060020a03808b16600160a060020a031992831617909255600180549287169290911691909117905584517f546f6b656e5472616e73666572000000000000000000000000000000000000008082529551989996989497939692959294919384938b938a9391927f3019c8fc80239e3dff8f781212ae2004839c2cb61d6c70acd279ac65392145df928290030190a15050506004555060088054600160a060020a03968716600160a060020a031991821617909155600980549490961693169290921790935560069290925550600755506135768061013b6000396000f3fe608060405234801561001057600080fd5b50600436106101b4576000357c010000000000000000000000000000000000000000000000000000000090048063a0aec10511610100578063b888879e116100a9578063e26b013b11610083578063e26b013b146106de578063f8d3277d146106e6578063f9f6499e14610714576101b4565b8063b888879e14610667578063c9b5ef8e1461066f578063e1ee38ec14610695576101b4565b8063b20f3f37116100da578063b20f3f37146105e1578063b377a9d51461060d578063b6b3527214610639576101b4565b8063a0aec105146104a5578063a3411c0a146104cb578063aacaaf88146104f1576101b4565b80635a1db8c4116101625780637cc0d9061161013c5780637cc0d90614610453578063961bfeee1461045b5780639be65a601461047f576101b4565b80635a1db8c41461030d5780635ed4bf811461033b5780637cb8f8ba1461040b576101b4565b80632df546f4116101935780632df546f41461022157806343cd5c7e146102b957806357518243146102df576101b4565b80626fda35146101b957806319ab453c146101d35780632d0335ab146101fb575b600080fd5b6101c161073a565b60408051918252519081900360200190f35b6101f9600480360360208110156101e957600080fd5b5035600160a060020a0316610740565b005b6101c16004803603602081101561021157600080fd5b5035600160a060020a0316610825565b6101f9600480360360a081101561023757600080fd5b600160a060020a03823581169260208101358216926040820135909216916060820135919081019060a08101608082013564010000000081111561027a57600080fd5b82018360208201111561028c57600080fd5b803590602001918460018302840111640100000000831117156102ae57600080fd5b509092509050610840565b6101c1600480360360208110156102cf57600080fd5b5035600160a060020a0316610c65565b6101f9600480360360408110156102f557600080fd5b50600160a060020a0381358116916020013516610cdc565b6101f96004803603604081101561032357600080fd5b50600160a060020a0381358116916020013516610f82565b6101f9600480360360c081101561035157600080fd5b600160a060020a03823581169260208101358216926040820135909216916060820135919081019060a08101608082013564010000000081111561039457600080fd5b8201836020820111156103a657600080fd5b803590602001918460018302840111640100000000831117156103c857600080fd5b91908080601f0160208091040260200160405190810160405280939291908181526020018383808284376000920191909152509295505091359250611147915050565b6104316004803603602081101561042157600080fd5b5035600160a060020a0316611445565b6040805192835267ffffffffffffffff90911660208301528051918290030190f35b6101c1611504565b61046361150a565b60408051600160a060020a039092168252519081900360200190f35b6101f96004803603602081101561049557600080fd5b5035600160a060020a0316611519565b610431600480360360208110156104bb57600080fd5b5035600160a060020a031661164c565b6101f9600480360360208110156104e157600080fd5b5035600160a060020a03166116c8565b6105cd600480360360c081101561050757600080fd5b600160a060020a03823516919081019060408101602082013564010000000081111561053257600080fd5b82018360208201111561054457600080fd5b8035906020019184600183028401116401000000008311171561056657600080fd5b9193909282359260408101906020013564010000000081111561058857600080fd5b82018360208201111561059a57600080fd5b803590602001918460018302840111640100000000831117156105bc57600080fd5b919350915080359060200135611831565b604080519115158252519081900360200190f35b6101f9600480360360408110156105f757600080fd5b50600160a060020a038135169060200135611b19565b6101f96004803603604081101561062357600080fd5b50600160a060020a038135169060200135611c6e565b6105cd6004803603604081101561064f57600080fd5b50600160a060020a0381358116916020013516611e7a565b610463611f31565b6101c16004803603602081101561068557600080fd5b5035600160a060020a0316611f40565b6106c1600480360360408110156106ab57600080fd5b50600160a060020a038135169060200135611f52565b6040805167ffffffffffffffff9092168252519081900360200190f35b6101c1611f79565b6101f9600480360360408110156106fc57600080fd5b50600160a060020a0381358116916020013516611f7f565b6105cd6004803603602081101561072a57600080fd5b5035600160a060020a03166121f6565b60075481565b8033600160a060020a038216146107a65760408051600080516020613508833981519152815260206004820152601960248201527f424d3a2063616c6c6572206d7573742062652077616c6c657400000000000000604482015290519081900360640190fd5b600160a060020a038216600090815260036020526040902080546fffffffffffffffffffffffffffffffff161580156107eb5750600181015467ffffffffffffffff16155b156108205760045481546fffffffffffffffffffffffffffffffff19166fffffffffffffffffffffffffffffffff9091161781555b505050565b600160a060020a031660009081526002602052604090205490565b85333014806108545750610854813361221b565b15156108995760405160008051602061350883398151915281526004018080602001828103825260238152602001806135286023913960400191505060405180910390fd5b600154604080517f4a4fbeec000000000000000000000000000000000000000000000000000000008152600160a060020a03808b16600483015291518a939290921691634a4fbeec91602480820192602092909190829003018186803b15801561090257600080fd5b505afa158015610916573d6000803e3d6000fd5b505050506040513d602081101561092c57600080fd5b5051156109885760408051600080516020613508833981519152815260206004820152601b60248201527f424d3a2077616c6c6574206d75737420626520756e6c6f636b65640000000000604482015290519081900360640190fd5b6109928887611e7a565b15610a4b57600160a060020a03871673eeeeeeeeeeeeeeeeeeeeeeeeeeeeeeeeeeeeeeee1415610a03576109fe88878787878080601f0160208091040260200160405190810160405280939291908181526020018383808284376000920191909152506122b992505050565b610a46565b610a468888888888888080601f01602080910402602001604051908101604052809392919081815260200183838082843760009201919091525061251c92505050565b610c5b565b600160a060020a03871673eeeeeeeeeeeeeeeeeeeeeeeeeeeeeeeeeeeeeeee1415610b1e57610a7a88866127c0565b15610ac1576109fe88878787878080601f0160208091040260200160405190810160405280939291908181526020018383808284376000920191909152506122b992505050565b610b188873eeeeeeeeeeeeeeeeeeeeeeeeeeeeeeeeeeeeeeee888888888080601f01602080910402602001604051908101604052809392919081815260200183838082843760009201919091525061287792505050565b50610c5b565b600954604080517fce55c85200000000000000000000000000000000000000000000000000000000815260048101889052600160a060020a038a811660248301529151600093929092169163ce55c85291604480820192602092909190829003018186803b158015610b8f57600080fd5b505afa158015610ba3573d6000803e3d6000fd5b505050506040513d6020811015610bb957600080fd5b50519050610bc789826127c0565b15610c1457610c0f8989898989898080601f01602080910402602001604051908101604052809392919081815260200183838082843760009201919091525061251c92505050565b610c59565b610c578989898989898080601f01602080910402602001604051908101604052809392919081815260200183838082843760009201919091525061287792505050565b505b505b5050505050505050565b600160a060020a038116600090815260036020526040812080546001820154610cc3916fffffffffffffffffffffffffffffffff80821692700100000000000000000000000000000000909204169067ffffffffffffffff16612a48565b6fffffffffffffffffffffffffffffffff169392505050565b8133301480610cf05750610cf0813361221b565b1515610d355760405160008051602061350883398151915281526004018080602001828103825260238152602001806135286023913960400191505060405180910390fd5b600154604080517f4a4fbeec000000000000000000000000000000000000000000000000000000008152600160a060020a038087166004830152915186939290921691634a4fbeec91602480820192602092909190829003018186803b158015610d9e57600080fd5b505afa158015610db2573d6000803e3d6000fd5b505050506040513d6020811015610dc857600080fd5b505115610e245760408051600080516020613508833981519152815260206004820152601b60248201527f424d3a2077616c6c6574206d75737420626520756e6c6f636b65640000000000604482015290519081900360640190fd5b610e2e8484611e7a565b15610e885760408051600080516020613508833981519152815260206004820152601e60248201527f54543a2074617267657420616c72656164792077686974656c69737465640000604482015290519081900360640190fd5b6000610e9f60065442612a8290919063ffffffff16565b600854604080517f80bfbe68000000000000000000000000000000000000000000000000000000008152600160a060020a03898116600483015288811660248301526044820185905291519394509116916380bfbe689160648082019260009290919082900301818387803b158015610f1757600080fd5b505af1158015610f2b573d6000803e3d6000fd5b50506040805167ffffffffffffffff851681529051600160a060020a038089169450891692507f1f57f9641d3e8733ed672fef5ac85464bd7215ef2f21e83428e8408248b13dcd9181900360200190a35050505050565b81610f8d813361221b565b1515610fd257604051600080516020613508833981519152815260040180806020018281038252602e815260200180613472602e913960400191505060405180910390fd5b600054604080517f0bcd4ebb000000000000000000000000000000000000000000000000000000008152600160a060020a03858116600483015291519190921691630bcd4ebb916024808301926020929190829003018186803b15801561103857600080fd5b505afa15801561104c573d6000803e3d6000fd5b505050506040513d602081101561106257600080fd5b505115156110bf5760408051600080516020613508833981519152815260206004820152601c60248201527f424d3a206d6f64756c65206973206e6f74207265676973746572656400000000604482015290519081900360640190fd5b604080517f1f17732d000000000000000000000000000000000000000000000000000000008152600160a060020a03848116600483015260016024830152915191851691631f17732d9160448082019260009290919082900301818387803b15801561112a57600080fd5b505af115801561113e573d6000803e3d6000fd5b50505050505050565b600154604080517f4a4fbeec000000000000000000000000000000000000000000000000000000008152600160a060020a03808a166004830152915189939290921691634a4fbeec91602480820192602092909190829003018186803b1580156111b057600080fd5b505afa1580156111c4573d6000803e3d6000fd5b505050506040513d60208110156111da57600080fd5b5051156112365760408051600080516020613508833981519152815260206004820152601b60248201527f424d3a2077616c6c6574206d75737420626520756e6c6f636b65640000000000604482015290519081900360640190fd5b600086868686866040516020018086600160a060020a0316600160a060020a03166c0100000000000000000000000002815260140185600160a060020a0316600160a060020a03166c0100000000000000000000000002815260140184815260200183805190602001908083835b602083106112c35780518252601f1990920191602091820191016112a4565b6001836020036101000a038019825116818451168082178552505050505050905001828152602001955050505050506040516020818303038152906040528051906020012090506000600560008a600160a060020a0316600160a060020a031681526020019081526020016000206000016000838152602001908152602001600020549050600061135f60075483612a8290919063ffffffff16565b90504282111580156113715750804211155b15156113b65760405160008051602061350883398151915281526004018080602001828103825260238152602001806134a06023913960400191505060405180910390fd5b6113c08a84612a94565b600160a060020a03891673eeeeeeeeeeeeeeeeeeeeeeeeeeeeeeeeeeeeeeee14156113f6576113f18a8989896122b9565b611403565b6114038a8a8a8a8a61251c565b6040518390600160a060020a038c16907f53d984c4cd3917405bdcc3baabad7c1269dd3baf7c2c53ca571d8d7de9629bc990600090a350505050505050505050565b600080600061145384610c65565b600160a060020a0385166000908152600360205260409020600201805491925090700100000000000000000000000000000000900467ffffffffffffffff164211156114a95781935042620151800192506114fd565b805467ffffffffffffffff70010000000000000000000000000000000082041693506fffffffffffffffffffffffffffffffff168211156114fd5780546fffffffffffffffffffffffffffffffff16820393505b5050915091565b60065481565b600854600160a060020a031681565b604080517f70a082310000000000000000000000000000000000000000000000000000000081523060048201529051600091600160a060020a038416916370a0823191602480820192602092909190829003018186803b15801561157c57600080fd5b505afa158015611590573d6000803e3d6000fd5b505050506040513d60208110156115a657600080fd5b505160008054604080517fa9059cbb000000000000000000000000000000000000000000000000000000008152600160a060020a0392831660048201526024810185905290519394509085169263a9059cbb92604480840193602093929083900390910190829087803b15801561161c57600080fd5b505af1158015611630573d6000803e3d6000fd5b505050506040513d602081101561164657600080fd5b50505050565b600160a060020a0381166000908152600360205260408120600181015482919067ffffffffffffffff164210611684576000806116be565b805460018201547001000000000000000000000000000000009091046fffffffffffffffffffffffffffffffff169067ffffffffffffffff165b9250925050915091565b80333014806116dc57506116dc813361221b565b15156117215760405160008051602061350883398151915281526004018080602001828103825260238152602001806135286023913960400191505060405180910390fd5b600154604080517f4a4fbeec000000000000000000000000000000000000000000000000000000008152600160a060020a038086166004830152915185939290921691634a4fbeec91602480820192602092909190829003018186803b15801561178a57600080fd5b505afa15801561179e573d6000803e3d6000fd5b505050506040513d60208110156117b457600080fd5b5051156118105760408051600080516020613508833981519152815260206004820152601b60248201527f424d3a2077616c6c6574206d75737420626520756e6c6f636b65640000000000604482015290519081900360640190fd5b610820836000196fffffffffffffffffffffffffffffffff16600654612abc565b6000805a90506000611881308c60008d8d8080601f0160208091040260200160405190810160405280939291908181526020018383808284376000920191909152508f92508c91508b9050612c1a565b905061188e8b8983612d5d565b15156118e95760408051600080516020613508833981519152815260206004820152601560248201527f524d3a204475706c696361746520726571756573740000000000000000000000604482015290519081900360640190fd5b6119298b8b8b8080601f016020809104026020016040519081016040528093929190818152602001838380828437600092019190915250612d7192505050565b151561196e57604051600080516020613508833981519152815260040180806020018281038252604a815260200180613428604a913960600191505060405180910390fd5b60006119b08c8c8c8080601f016020809104026020016040519081016040528093929190818152602001838380828437600092019190915250612dea92505050565b905060418102871415611ac8576119c98c868884612e6a565b15611ac857801580611a4c5750611a4c8c8c8c8080601f01602080910402602001604051908101604052809392919081815260200183838082843760009201919091525050604080516020601f8f018190048102820181019092528d815288935091508d908d9081908401838280828437600092019190915250612f5a92505050565b15611ac85730600160a060020a03168b8b604051808383808284376040519201945060009350909150508083038183865af19150503d8060008114611aad576040519150601f19603f3d011682016040523d82523d6000602084013e611ab2565b606091505b505080945050611ac88c5a850388888533612f7f565b60408051838152905185151591600160a060020a038f16917f6bb0b384ce772133df63560651bc8c727c53306cec1d51e2cbf8ea35fb8f2ec19181900360200190a350505098975050505050505050565b8133301480611b2d5750611b2d813361221b565b1515611b725760405160008051602061350883398151915281526004018080602001828103825260238152602001806135286023913960400191505060405180910390fd5b600154604080517f4a4fbeec000000000000000000000000000000000000000000000000000000008152600160a060020a038087166004830152915186939290921691634a4fbeec91602480820192602092909190829003018186803b158015611bdb57600080fd5b505afa158015611bef573d6000803e3d6000fd5b505050506040513d6020811015611c0557600080fd5b505115611c615760408051600080516020613508833981519152815260206004820152601b60248201527f424d3a2077616c6c6574206d75737420626520756e6c6f636b65640000000000604482015290519081900360640190fd5b6116468484600654612abc565b8133301480611c825750611c82813361221b565b1515611cc75760405160008051602061350883398151915281526004018080602001828103825260238152602001806135286023913960400191505060405180910390fd5b600154604080517f4a4fbeec000000000000000000000000000000000000000000000000000000008152600160a060020a038087166004830152915186939290921691634a4fbeec91602480820192602092909190829003018186803b158015611d3057600080fd5b505afa158015611d44573d6000803e3d6000fd5b505050506040513d6020811015611d5a57600080fd5b505115611db65760408051600080516020613508833981519152815260206004820152601b60248201527f424d3a2077616c6c6574206d75737420626520756e6c6f636b65640000000000604482015290519081900360640190fd5b600160a060020a038416600090815260056020908152604080832086845290915281205411611e345760408051600080516020613508833981519152815260206004820152601c60248201527f54543a20756e6b6e6f776e2070656e64696e67207472616e7366657200000000604482015290519081900360640190fd5b611e3e8484612a94565b6040518390600160a060020a038616907f2914460f2e2359d06bcda666d815164a8e77d104644dfbe6360885abfa2da59c90600090a350505050565b600854604080517f13f4a0ea000000000000000000000000000000000000000000000000000000008152600160a060020a03858116600483015284811660248301529151600093849316916313f4a0ea916044808301926020929190829003018186803b158015611eea57600080fd5b505afa158015611efe573d6000803e3d6000fd5b505050506040513d6020811015611f1457600080fd5b50519050600081118015611f2757504281105b9150505b92915050565b600954600160a060020a031681565b60026020526000908152604090205481565b600160a060020a039091166000908152600560209081526040808320938352929052205490565b60045481565b8133301480611f935750611f93813361221b565b1515611fd85760405160008051602061350883398151915281526004018080602001828103825260238152602001806135286023913960400191505060405180910390fd5b600154604080517f4a4fbeec000000000000000000000000000000000000000000000000000000008152600160a060020a038087166004830152915186939290921691634a4fbeec91602480820192602092909190829003018186803b15801561204157600080fd5b505afa158015612055573d6000803e3d6000fd5b505050506040513d602081101561206b57600080fd5b5051156120c75760408051600080516020613508833981519152815260206004820152601b60248201527f424d3a2077616c6c6574206d75737420626520756e6c6f636b65640000000000604482015290519081900360640190fd5b6120d18484611e7a565b151561212c5760408051600080516020613508833981519152815260206004820152601a60248201527f54543a20746172676574206e6f742077686974656c6973746564000000000000604482015290519081900360640190fd5b600854604080517f80bfbe68000000000000000000000000000000000000000000000000000000008152600160a060020a038781166004830152868116602483015260006044830181905292519316926380bfbe689260648084019391929182900301818387803b1580156121a057600080fd5b505af11580156121b4573d6000803e3d6000fd5b5050604051600160a060020a038087169350871691507fd288ab5da2e1f37cf384a1565a3f905ad289b092fbdd31950dbbfef148c04f8890600090a350505050565b60008061220283610c65565b6fffffffffffffffffffffffffffffffff149392505050565b600081600160a060020a031683600160a060020a0316638da5cb5b6040518163ffffffff167c010000000000000000000000000000000000000000000000000000000002815260040160206040518083038186803b15801561227c57600080fd5b505afa158015612290573d6000803e3d6000fd5b505050506040513d60208110156122a657600080fd5b5051600160a060020a0316149392505050565b83600160a060020a0316638f6f0332848460206040519081016040528060008152506040518463ffffffff167c01000000000000000000000000000000000000000000000000000000000281526004018084600160a060020a0316600160a060020a0316815260200183815260200180602001828103825283818151815260200191508051906020019080838360005b83811015612361578181015183820152602001612349565b50505050905090810190601f16801561238e5780820380516001836020036101000a031916815260200191505b50945050505050600060405180830381600087803b1580156123af57600080fd5b505af11580156123c3573d6000803e3d6000fd5b505050506040513d6000823e601f3d908101601f1916820160405260208110156123ec57600080fd5b81019080805164010000000081111561240457600080fd5b8201602081018481111561241757600080fd5b815164010000000081118282018710171561243157600080fd5b5050929190505050508173eeeeeeeeeeeeeeeeeeeeeeeeeeeeeeeeeeeeeeee600160a060020a031685600160a060020a03167fd5c97f2e041b2046be3b4337472f05720760a198f4d7d84980b7155eec7cca6f86856040518083600160a060020a0316600160a060020a0316815260200180602001828103825283818151815260200191508051906020019080838360005b838110156124db5781810151838201526020016124c3565b50505050905090810190601f1680156125085780820380516001836020036101000a031916815260200191505b50935050505060405180910390a450505050565b60408051600160a060020a038086166024808401919091526044808401879052845180850382018152606494850186526020810180517bffffffffffffffffffffffffffffffffffffffffffffffffffffffff167fa9059cbb0000000000000000000000000000000000000000000000000000000017815295517f8f6f03320000000000000000000000000000000000000000000000000000000081528a8516600482019081526000948201859052606093820193845282519682019690965281519196948c1695638f6f0332958c959489949293909260849091019190808383895b838110156126175781810151838201526020016125ff565b50505050905090810190601f1680156126445780820380516001836020036101000a031916815260200191505b50945050505050600060405180830381600087803b15801561266557600080fd5b505af1158015612679573d6000803e3d6000fd5b505050506040513d6000823e601f3d908101601f1916820160405260208110156126a257600080fd5b8101908080516401000000008111156126ba57600080fd5b820160208101848111156126cd57600080fd5b81516401000000008111828201871017156126e757600080fd5b5050929190505050508285600160a060020a031687600160a060020a03167fd5c97f2e041b2046be3b4337472f05720760a198f4d7d84980b7155eec7cca6f87866040518083600160a060020a0316600160a060020a0316815260200180602001828103825283818151815260200191508051906020019080838360005b8381101561277d578181015183820152602001612765565b50505050905090810190601f1680156127aa5780820380516001836020036101000a031916815260200191505b50935050505060405180910390a4505050505050565b60008115156127d157506001611f2b565b600160a060020a038316600090815260036020526040812080546001820154919291612832916fffffffffffffffffffffffffffffffff80821692700100000000000000000000000000000000909204169067ffffffffffffffff16612a48565b905061285185826fffffffffffffffffffffffffffffffff16866130d1565b1561286c57612861858286613183565b600192505050611f2b565b506000949350505050565b60008085858585436040516020018086600160a060020a0316600160a060020a03166c0100000000000000000000000002815260140185600160a060020a0316600160a060020a03166c0100000000000000000000000002815260140184815260200183805190602001908083835b602083106129055780518252601f1990920191602091820191016128e6565b51815160209384036101000a600019018019909216911617905292019384525060408051808503815293820190528251920191909120600654909650600095506129559450429350915050612a82565b600160a060020a03808a166000818152600560209081526040808320888452825280832086905580518d86168152948c168583015284018a90526080606085018181528a51918601919091528951959650869588957fc63146cfd39cd6097f6e314e8595c4554faf95175b45c6215517903c12e765d9948f948f948f948f9493919260a085019290860191908190849084905b83811015612a005781810151838201526020016129e8565b50505050905090810190601f168015612a2d5780820380516001836020036101000a031916815260200191505b509550505050505060405180910390a4505095945050505050565b6000808267ffffffffffffffff16118015612a6c5750428267ffffffffffffffff16105b15612a78575081612a7b565b50825b9392505050565b600082820183811015612a7b57600080fd5b600160a060020a03909116600090815260056020908152604080832093835292905290812055565b600160a060020a0383166000908152600360205260408120600181015490919067ffffffffffffffff1681108015612b03575060018201544267ffffffffffffffff909116105b612b205781546fffffffffffffffffffffffffffffffff16612b49565b815470010000000000000000000000000000000090046fffffffffffffffffffffffffffffffff165b82546fffffffffffffffffffffffffffffffff868116700100000000000000000000000000000000028184166fffffffffffffffffffffffffffffffff1990931692909217161783559050612ba4428463ffffffff612a8216565b60018301805467ffffffffffffffff191667ffffffffffffffff92909216919091179055612bd24284612a82565b67ffffffffffffffff168486600160a060020a03167f8a747eae44b6307d1b112c127968367d02d9f52ffef8533b3e899983ff2b1d4a60405160405180910390a45050505050565b6040517f190000000000000000000000000000000000000000000000000000000000000060208083018281526000602185018190526c01000000000000000000000000600160a060020a03808e16820260228801528c16026036860152604a85018a90528851909485938d938d938d938d938d938d938d939192606a909201918701908083835b60208310612cc05780518252601f199092019160209182019101612ca1565b51815160209384036101000a600019018019909216911617905292019586525084810193909352506040808401919091528051808403820181526060840182528051908301207f19457468657265756d205369676e6564204d6573736167653a0a3332000000006080850152609c808501919091528151808503909101815260bc909301905281519101209e9d5050505050505050505050505050565b6000612d69848461328c565b949350505050565b60006024825110151515612dd45760408051600080516020613508833981519152815260206004820152601660248201527f524d3a20496e76616c6964206461746157616c6c657400000000000000000000604482015290519081900360640190fd5b5060240151600160a060020a0391821691161490565b600080612df683613312565b905060405180806134c360459139604501905060405180910390207bffffffffffffffffffffffffffffffffffffffffffffffffffffffff1916817bffffffffffffffffffffffffffffffffffffffffffffffffffffffff19161415612e60576000915050611f2b565b5060019392505050565b60008083118015612e7b5750600082115b8015612f42575082840285600160a060020a0316311080612eae5750612eac85612ea487610c65565b8587026130d1565b155b80612f425750604080517fd6eb1bbf000000000000000000000000000000000000000000000000000000008152600160a060020a03871660048201819052915163d6eb1bbf91602480820192602092909190829003018186803b158015612f1457600080fd5b505afa158015612f28573d6000803e3d6000fd5b505050506040513d6020811015612f3e57600080fd5b5051155b15612f4f57506000612d69565b506001949350505050565b600080612f698484600061337d565b9050612f75868261221b565b9695505050505050565b618f088501600085118015612f945750600083115b8015612fa05750838111155b1561113e573a851115612fb4573a02612fb7565b84025b612fca87612fc489610c65565b83613183565b604080517f8f6f0332000000000000000000000000000000000000000000000000000000008152600160a060020a03848116600483015260248201849052606060448301526000606483018190529251908a1692638f6f03329260a4808201939182900301818387803b15801561304057600080fd5b505af1158015613054573d6000803e3d6000fd5b505050506040513d6000823e601f3d908101601f19168201604052602081101561307d57600080fd5b81019080805164010000000081111561309557600080fd5b820160208101848111156130a857600080fd5b81516401000000008111828201871017156130c257600080fd5b50505050505050505050505050565b60006fffffffffffffffffffffffffffffffff8314156130f357506001612a7b565b600160a060020a038416600090815260036020526040902060020180544270010000000000000000000000000000000090910467ffffffffffffffff16101561314157505081811115612a7b565b80546fffffffffffffffffffffffffffffffff168301841080159061317b575080546fffffffffffffffffffffffffffffffff1683810110155b915050612a7b565b6fffffffffffffffffffffffffffffffff8281161461082057600160a060020a038316600090815260036020526040902060020180544270010000000000000000000000000000000090910467ffffffffffffffff1610156132555780547fffffffffffffffff0000000000000000ffffffffffffffffffffffffffffffff1670010000000000000000000000000000000042620151800167ffffffffffffffff1602176fffffffffffffffffffffffffffffffff19166fffffffffffffffffffffffffffffffff8316178155611646565b80546fffffffffffffffffffffffffffffffff8082168401166fffffffffffffffffffffffffffffffff1990911617815550505050565b600160a060020a03821660009081526002602052604081205482116132b357506000611f2b565b7001000000000000000000000000000000006fffffffffffffffffffffffffffffffff1983160443612710018111156132f0576000915050611f2b565b5050600160a060020a0391909116600090815260026020526040902055600190565b600060048251101515156133755760408051600080516020613508833981519152815260206004820152601a60248201527f524d3a20496e76616c69642066756e6374696f6e507265666978000000000000604482015290519081900360640190fd5b506020015190565b6041808202830160208101516040820151919092015160009260ff9190911691601b8314806133af57508260ff16601c145b15156133ba57600080fd5b604080516000815260208082018084528a905260ff8616828401526060820185905260808201849052915160019260a0808401939192601f1981019281900390910190855afa158015613411573d6000803e3d6000fd5b5050604051601f1901519897505050505050505056fe524d3a207468652077616c6c657420617574686f72697a656420697320646966666572656e74207468656e2074686520746172676574206f66207468652072656c617965642064617461424d3a206d73672e73656e646572206d75737420626520616e206f776e657220666f72207468652077616c6c657454543a206f757473696465206f662074686520657865637574696f6e2077696e646f776578656375746550656e64696e675472616e7366657228616464726573732c616464726573732c616464726573732c75696e743235362c62797465732c75696e743235362908c379a000000000000000000000000000000000000000000000000000000000424d3a206d75737420626520616e206f776e657220666f72207468652077616c6c6574a165627a7a723058209d11c872031a59d4ffbc43577d8938fa3e0132601701827aec2cb57e48fa94500029",
  "source": "pragma solidity ^0.5.4;\nimport \"../../../wallet/BaseWallet.sol\";\nimport \"../../../modules/common/BaseModule.sol\";\nimport \"../../../modules/common/RelayerModule.sol\";\nimport \"../../../modules/common/LimitManager.sol\";\nimport \"../../../exchange/TokenPriceProvider.sol\";\nimport \"../../../storage/GuardianStorage.sol\";\nimport \"../../../storage/TransferStorage.sol\";\n\n/**\n * @title LegacyTokenTransfer\n * @dev Legacy Module to transfer tokens (ETH or ERC20) based on a security context (daily limit, whitelist, etc).\n * @author Julien Niset - <julien@argent.im>\n */\ncontract LegacyTokenTransfer is BaseModule, RelayerModule, LimitManager {\n\n    bytes32 constant NAME = \"TokenTransfer\";\n\n    bytes4 constant internal EXECUTE_PENDING_PREFIX = bytes4(keccak256(\"executePendingTransfer(address,address,address,uint256,bytes,uint256)\"));\n\n    bytes constant internal EMPTY_BYTES = \"\";\n\n    using SafeMath for uint256;\n\n    // Mock token address for ETH\n    address constant internal ETH_TOKEN = 0xEeeeeEeeeEeEeeEeEeEeeEEEeeeeEeeeeeeeEEeE;\n    // large limit when the limit can be considered disabled\n    uint128 constant internal LIMIT_DISABLED = uint128(-1); // 3.40282366920938463463374607431768211455e+38\n\n    struct TokenTransferConfig {\n        // Mapping between pending transfer hash and their timestamp\n        mapping (bytes32 => uint256) pendingTransfers;\n    }\n\n    // wallet specific storage\n    mapping (address => TokenTransferConfig) internal configs;\n\n    // The security period\n    uint256 public securityPeriod;\n    // The execution window\n    uint256 public securityWindow;\n    // The Token storage\n    TransferStorage public transferStorage;\n    // The Token price provider\n    TokenPriceProvider public priceProvider;\n\n    // *************** Events *************************** //\n\n    event Transfer(address indexed wallet, address indexed token, uint256 indexed amount, address to, bytes data);\n    event AddedToWhitelist(address indexed wallet, address indexed target, uint64 whitelistAfter);\n    event RemovedFromWhitelist(address indexed wallet, address indexed target);\n    event PendingTransferCreated(address indexed wallet, bytes32 indexed id, uint256 indexed executeAfter, address token, address to, uint256 amount, bytes data);\n    event PendingTransferExecuted(address indexed wallet, bytes32 indexed id);\n    event PendingTransferCanceled(address indexed wallet, bytes32 indexed id);\n\n    // *************** Constructor ********************** //\n\n    constructor(\n        ModuleRegistry _registry,\n        TransferStorage _transferStorage,\n        GuardianStorage _guardianStorage,\n        address _priceProvider,\n        uint256 _securityPeriod,\n        uint256 _securityWindow,\n        uint256 _defaultLimit\n    )\n        BaseModule(_registry, _guardianStorage, NAME)\n        LimitManager(_defaultLimit)\n        public\n    {\n        transferStorage = _transferStorage;\n        priceProvider = TokenPriceProvider(_priceProvider);\n        securityPeriod = _securityPeriod;\n        securityWindow = _securityWindow;\n    }\n\n    // *************** External/Public Functions ********************* //\n\n    /**\n    * @dev lets the owner transfer tokens (ETH or ERC20) from a wallet.\n    * @param _wallet The target wallet.\n    * @param _token The address of the token to transfer.\n    * @param _to The destination address\n    * @param _amount The amoutn of token to transfer\n    * @param _data The data for the transaction\n    */\n    function transferToken(\n        BaseWallet _wallet,\n        address _token,\n        address _to,\n        uint256 _amount,\n        bytes calldata _data\n    ) \n        external\n        onlyWalletOwner(_wallet)\n        onlyWhenUnlocked(_wallet)\n    {\n        if(isWhitelisted(_wallet, _to)) {\n            // eth transfer to whitelist\n            if(_token == ETH_TOKEN) {\n                transferETH(_wallet, _to, _amount, _data);\n            }\n            // erc20 transfer to whitelist\n            else {\n                transferERC20(_wallet, _token, _to, _amount, _data);\n            }\n        }\n        else {\n            if(_token == ETH_TOKEN) {\n                // eth transfer under the limit\n                if (checkAndUpdateDailySpent(_wallet, _amount)) {\n                    transferETH(_wallet, _to, _amount, _data);\n                }\n                // eth transfer above the limit\n                else {\n                    addPendingTransfer(_wallet, ETH_TOKEN, _to, _amount, _data);\n                }\n            }\n            else {\n                uint256 etherAmount = priceProvider.getEtherValue(_amount, _token);\n                // erc20 transfer under the limit\n                if (checkAndUpdateDailySpent(_wallet, etherAmount)) {\n                    transferERC20(_wallet, _token, _to, _amount, _data);\n                }\n                // erc20 transfer above the limit\n                else {\n                    addPendingTransfer(_wallet, _token, _to, _amount, _data); \n                }\n            }\n        }\n    }\n\n    /**\n     * @dev Adds an address to the whitelist of a wallet. \n     * @param _wallet The target wallet.\n     * @param _target The address to add.\n     */\n    function addToWhitelist(\n        BaseWallet _wallet,\n        address _target\n    )\n        external\n        onlyWalletOwner(_wallet)\n        onlyWhenUnlocked(_wallet)\n    {\n        require(!isWhitelisted(_wallet, _target), \"TT: target already whitelisted\");\n        // solium-disable-next-line security/no-block-members\n        uint256 whitelistAfter = now.add(securityPeriod);\n        transferStorage.setWhitelist(_wallet, _target, whitelistAfter);\n        emit AddedToWhitelist(address(_wallet), _target, uint64(whitelistAfter));\n    }\n\n    /**\n     * @dev Removes an address from the whitelist of a wallet.\n     * @param _wallet The target wallet.\n     * @param _target The address to remove.\n     */\n    function removeFromWhitelist(\n        BaseWallet _wallet,\n        address _target\n    )\n        external\n        onlyWalletOwner(_wallet)\n        onlyWhenUnlocked(_wallet)\n    {\n        require(isWhitelisted(_wallet, _target), \"TT: target not whitelisted\");\n        transferStorage.setWhitelist(_wallet, _target, 0);\n        emit RemovedFromWhitelist(address(_wallet), _target);\n    }\n\n    /**\n    * @dev Executes a pending transfer for a wallet.\n    * The destination address is automatically added to the whitelist.\n    * The method can be called by anyone to enable orchestration.\n    * @param _wallet The target wallet.\n    * @param _token The token of the pending transfer.\n    * @param _to The destination address of the pending transfer.\n    * @param _amount The amount of token to transfer of the pending transfer.\n    * @param _block The block at which the pending transfer was created.\n    */\n    function executePendingTransfer(\n        BaseWallet _wallet,\n        address _token,\n        address _to,\n        uint _amount,\n        bytes memory _data,\n        uint _block\n    )\n        public\n        onlyWhenUnlocked(_wallet)\n    {\n        bytes32 id = keccak256(abi.encodePacked(_token, _to, _amount, _data, _block));\n        uint executeAfter = configs[address(_wallet)].pendingTransfers[id];\n        uint executeBefore = executeAfter.add(securityWindow);\n        require(executeAfter <= now && now <= executeBefore, \"TT: outside of the execution window\");\n        removePendingTransfer(_wallet, id);\n        if(_token == ETH_TOKEN) {\n            transferETH(_wallet, _to, _amount, _data);\n        }\n        else {\n            transferERC20(_wallet, _token, _to, _amount, _data);\n        }\n        emit PendingTransferExecuted(address(_wallet), id);\n    }\n\n    /**\n    * @dev Cancels a pending transfer for a wallet.\n    * @param _wallet The target wallet.\n    * @param _id the pending transfer Id.\n    */\n    function cancelPendingTransfer(\n        BaseWallet _wallet,\n        bytes32 _id\n    )\n        public\n        onlyWalletOwner(_wallet)\n        onlyWhenUnlocked(_wallet)\n    {\n        require(configs[address(_wallet)].pendingTransfers[_id] > 0, \"TT: unknown pending transfer\");\n        removePendingTransfer(_wallet, _id);\n        emit PendingTransferCanceled(address(_wallet), _id);\n    }\n\n    /**\n     * @dev Lets the owner of a wallet change its global limit.\n     * The limit is expressed in ETH. Changes to the limit take 24 hours.\n     * @param _wallet The target wallet.\n     * @param _newLimit The new limit.\n     */\n    function changeLimit(BaseWallet _wallet, uint256 _newLimit) public onlyWalletOwner(_wallet) onlyWhenUnlocked(_wallet) {\n        changeLimit(_wallet, _newLimit, securityPeriod);\n    }\n\n    /**\n     * @dev Convenience method to disable the limit\n     * The limit is disabled by setting it to an arbitrary large value.\n     * @param _wallet The target wallet.\n     */\n    function disableLimit(BaseWallet _wallet) external onlyWalletOwner(_wallet) onlyWhenUnlocked(_wallet) {\n        changeLimit(_wallet, LIMIT_DISABLED, securityPeriod);\n    }\n\n    /**\n    * @dev Checks if an address is whitelisted for a wallet.\n    * @param _wallet The target wallet.\n    * @param _target The address.\n    * @return true if the address is whitelisted.\n    */\n    function isWhitelisted(BaseWallet _wallet, address _target) public view returns (bool _isWhitelisted) {\n        uint whitelistAfter = transferStorage.getWhitelist(_wallet, _target);\n        // solium-disable-next-line security/no-block-members\n        return whitelistAfter > 0 && whitelistAfter < now;\n    }\n\n    /**\n    * @dev Gets the info of a pending transfer for a wallet.\n    * @param _wallet The target wallet.\n    * @param _id The pending transfer Id.\n    * @return the epoch time at which the pending transfer can be executed.\n    */\n    function getPendingTransfer(BaseWallet _wallet, bytes32 _id) external view returns (uint64 _executeAfter) {\n        _executeAfter = uint64(configs[address(_wallet)].pendingTransfers[_id]);\n    }\n\n    // *************** Internal Functions ********************* //\n\n    /**\n    * @dev Helper method to transfer ETH for a wallet.\n    * @param _wallet The target wallet.\n    * @param _to The recipient.\n    * @param _value The amount of ETH to transfer\n    * @param _data The data to *log* with the transfer.\n    */\n    function transferETH(BaseWallet _wallet, address _to, uint256 _value, bytes memory _data) internal {\n        _wallet.invoke(_to, _value, EMPTY_BYTES);\n        emit Transfer(address(_wallet), ETH_TOKEN, _value, _to, _data);\n    }\n\n    /**\n    * @dev Helper method to transfer ERC20 for a wallet.\n    * @param _wallet The target wallet.\n    * @param _token The ERC20 address.\n    * @param _to The recipient.\n    * @param _value The amount of token to transfer\n    * @param _data The data to pass with the trnasfer.\n    */\n    function transferERC20(BaseWallet _wallet, address _token, address _to, uint256 _value, bytes memory _data) internal {\n        bytes memory methodData = abi.encodeWithSignature(\"transfer(address,uint256)\", _to, _value);\n        _wallet.invoke(_token, 0, methodData);\n        emit Transfer(address(_wallet), _token, _value, _to, _data);\n    }\n\n    /**\n     * @dev Creates a new pending transfer for a wallet.\n     * @param _wallet The target wallet.\n     * @param _token The token for the transfer.\n     * @param _to The recipient for the transfer.\n     * @param _amount The amount of token to transfer.\n     * @param _data The data associated to the transfer.\n     * @return the identifier for the new pending transfer.\n     */\n    function addPendingTransfer(BaseWallet _wallet, address _token, address _to, uint _amount, bytes memory _data) internal returns (bytes32) {\n        bytes32 id = keccak256(abi.encodePacked(_token, _to, _amount, _data, block.number));\n        uint executeAfter = now.add(securityPeriod);\n        configs[address(_wallet)].pendingTransfers[id] = executeAfter;\n        emit PendingTransferCreated(address(_wallet), id, executeAfter, _token, _to, _amount, _data);\n    }\n\n    /**\n    * @dev Removes an existing pending transfer.\n    * @param _wallet The target wallet\n    * @param _id The id of the transfer to remove.\n    */\n    function removePendingTransfer(BaseWallet _wallet, bytes32 _id) internal {\n        delete configs[address(_wallet)].pendingTransfers[_id];\n    }\n\n    // *************** Implementation of RelayerModule methods ********************* //\n\n    // Overrides refund to add the refund in the daily limit.\n    function refund(BaseWallet _wallet, uint _gasUsed, uint _gasPrice, uint _gasLimit, uint _signatures, address _relayer) internal {\n        // 21000 (transaction) + 7620 (execution of refund) + 7324 (execution of updateDailySpent) + 672 to log the event + _gasUsed\n        uint256 amount = 36616 + _gasUsed;\n        if(_gasPrice > 0 && _signatures > 0 && amount <= _gasLimit) {\n            if(_gasPrice > tx.gasprice) {\n                amount = amount * tx.gasprice;\n            }\n            else {\n                amount = amount * _gasPrice;\n            }\n            updateDailySpent(_wallet, uint128(getCurrentLimit(_wallet)), amount);\n            _wallet.invoke(_relayer, amount, \"\");\n        }\n    }\n\n    // Overrides verifyRefund to add the refund in the daily limit.\n    function verifyRefund(BaseWallet _wallet, uint _gasUsed, uint _gasPrice, uint _signatures) internal view returns (bool) {\n        if(_gasPrice > 0 && _signatures > 0 && (\n            address(_wallet).balance < _gasUsed * _gasPrice\n            || isWithinDailyLimit(_wallet, getCurrentLimit(_wallet), _gasUsed * _gasPrice) == false\n            || _wallet.authorised(address(_wallet)) == false\n        ))\n        {\n            return false;\n        }\n        return true;\n    }\n\n    // Overrides to use the incremental nonce and save some gas\n    function checkAndUpdateUniqueness(BaseWallet _wallet, uint256 _nonce, bytes32 /* _signHash */) internal returns (bool) {\n        return checkAndUpdateNonce(_wallet, _nonce);\n    }\n\n    function validateSignatures(\n        BaseWallet _wallet,\n        bytes memory /* _data */,\n        bytes32 _signHash,\n        bytes memory _signatures\n    )\n        internal\n        view\n        returns (bool)\n    {\n        address signer = recoverSigner(_signHash, _signatures, 0);\n        return isOwner(_wallet, signer); // \"TT: signer must be owner\"\n    }\n\n    function getRequiredSignatures(BaseWallet /* _wallet */, bytes memory _data) internal view returns (uint256) {\n        bytes4 methodId = functionPrefix(_data);\n        if (methodId == EXECUTE_PENDING_PREFIX) {\n            return 0;\n        }\n        return 1;\n    }\n}",
  "sourcePath": "/Users/name/dev/argent-contracts-release-1.5.0/contracts/test/argent/legacy/TokenTransfer.sol",
  "compiler": {
    "name": "solc",
    "version": "0.5.4+commit.9549d8ff.Emscripten.clang",
    "optimizer": true,
    "runs": 999
  },
  "schemaVersion": "2.3.1",
  "updatedAt": "2020-04-01T15:58:47.717Z"
}