{
  "contractName": "LockManager",
  "abi": [
    {
      "constant": false,
      "inputs": [
        {
          "name": "_wallet",
          "type": "address"
        }
      ],
      "name": "init",
      "outputs": [],
      "payable": false,
      "stateMutability": "nonpayable",
      "type": "function"
    },
    {
      "constant": true,
      "inputs": [
        {
          "name": "_wallet",
          "type": "address"
        }
      ],
      "name": "getNonce",
      "outputs": [
        {
          "name": "nonce",
          "type": "uint256"
        }
      ],
      "payable": false,
      "stateMutability": "view",
      "type": "function"
    },
    {
      "constant": true,
      "inputs": [],
      "name": "lockPeriod",
      "outputs": [
        {
          "name": "",
          "type": "uint256"
        }
      ],
      "payable": false,
      "stateMutability": "view",
      "type": "function"
    },
    {
      "constant": false,
      "inputs": [
        {
          "name": "_wallet",
          "type": "address"
        },
        {
          "name": "_module",
          "type": "address"
        }
      ],
      "name": "addModule",
      "outputs": [],
      "payable": false,
      "stateMutability": "nonpayable",
      "type": "function"
    },
    {
      "constant": false,
      "inputs": [
        {
          "name": "_token",
          "type": "address"
        }
      ],
      "name": "recoverToken",
      "outputs": [],
      "payable": false,
      "stateMutability": "nonpayable",
      "type": "function"
    },
    {
      "constant": false,
      "inputs": [
        {
          "name": "_wallet",
          "type": "address"
        },
        {
          "name": "_data",
          "type": "bytes"
        },
        {
          "name": "_nonce",
          "type": "uint256"
        },
        {
          "name": "_signatures",
          "type": "bytes"
        },
        {
          "name": "_gasPrice",
          "type": "uint256"
        },
        {
          "name": "_gasLimit",
          "type": "uint256"
        }
      ],
      "name": "execute",
      "outputs": [
        {
          "name": "success",
          "type": "bool"
        }
      ],
      "payable": false,
      "stateMutability": "nonpayable",
      "type": "function"
    },
    {
      "constant": true,
      "inputs": [
        {
          "name": "",
          "type": "address"
        }
      ],
      "name": "relayer",
      "outputs": [
        {
          "name": "nonce",
          "type": "uint256"
        }
      ],
      "payable": false,
      "stateMutability": "view",
      "type": "function"
    },
    {
      "inputs": [
        {
          "name": "_registry",
          "type": "address"
        },
        {
          "name": "_guardianStorage",
          "type": "address"
        },
        {
          "name": "_lockPeriod",
          "type": "uint256"
        }
      ],
      "payable": false,
      "stateMutability": "nonpayable",
      "type": "constructor"
    },
    {
      "anonymous": false,
      "inputs": [
        {
          "indexed": true,
          "name": "wallet",
          "type": "address"
        },
        {
          "indexed": false,
          "name": "releaseAfter",
          "type": "uint64"
        }
      ],
      "name": "Locked",
      "type": "event"
    },
    {
      "anonymous": false,
      "inputs": [
        {
          "indexed": true,
          "name": "wallet",
          "type": "address"
        }
      ],
      "name": "Unlocked",
      "type": "event"
    },
    {
      "anonymous": false,
      "inputs": [
        {
          "indexed": true,
          "name": "wallet",
          "type": "address"
        },
        {
          "indexed": true,
          "name": "success",
          "type": "bool"
        },
        {
          "indexed": false,
          "name": "signedHash",
          "type": "bytes32"
        }
      ],
      "name": "TransactionExecuted",
      "type": "event"
    },
    {
      "anonymous": false,
      "inputs": [
        {
          "indexed": false,
          "name": "name",
          "type": "bytes32"
        }
      ],
      "name": "ModuleCreated",
      "type": "event"
    },
    {
      "anonymous": false,
      "inputs": [
        {
          "indexed": false,
          "name": "wallet",
          "type": "address"
        }
      ],
      "name": "ModuleInitialised",
      "type": "event"
    },
    {
      "constant": false,
      "inputs": [
        {
          "name": "_wallet",
          "type": "address"
        }
      ],
      "name": "lock",
      "outputs": [],
      "payable": false,
      "stateMutability": "nonpayable",
      "type": "function"
    },
    {
      "constant": false,
      "inputs": [
        {
          "name": "_wallet",
          "type": "address"
        }
      ],
      "name": "unlock",
      "outputs": [],
      "payable": false,
      "stateMutability": "nonpayable",
      "type": "function"
    },
    {
      "constant": true,
      "inputs": [
        {
          "name": "_wallet",
          "type": "address"
        }
      ],
      "name": "getLock",
      "outputs": [
        {
          "name": "_releaseAfter",
          "type": "uint64"
        }
      ],
      "payable": false,
      "stateMutability": "view",
      "type": "function"
    },
    {
      "constant": true,
      "inputs": [
        {
          "name": "_wallet",
          "type": "address"
        }
      ],
      "name": "isLocked",
      "outputs": [
        {
          "name": "_isLocked",
          "type": "bool"
        }
      ],
      "payable": false,
      "stateMutability": "view",
      "type": "function"
    }
  ],
  "bytecode": "0x608060405234801561001057600080fd5b50604051606080611e758339810180604052606081101561003057600080fd5b50805160208083015160409384015160008054600160a060020a03808716600160a060020a031992831617909255600180549285169290911691909117905584517f4c6f636b4d616e6167657200000000000000000000000000000000000000000080825295519495929491938693869390927f3019c8fc80239e3dff8f781212ae2004839c2cb61d6c70acd279ac65392145df92908290030190a15050506003555050611d92806100e36000396000f3fe608060405234801561001057600080fd5b50600436106100e6576000357c0100000000000000000000000000000000000000000000000000000000900480635a1db8c41161009e578063aacaaf8811610078578063aacaaf881461024a578063c9b5ef8e14610326578063f435f5a71461034c576100e6565b80635a1db8c4146101b35780636b9db4e6146101e15780639be65a6014610224576100e6565b80632f6c493c116100cf5780632f6c493c1461014b5780633fd8b02f146101715780634a4fbeec14610179576100e6565b806319ab453c146100eb5780632d0335ab14610113575b600080fd5b6101116004803603602081101561010157600080fd5b5035600160a060020a0316610372565b005b6101396004803603602081101561012957600080fd5b5035600160a060020a0316610418565b60408051918252519081900360200190f35b6101116004803603602081101561016157600080fd5b5035600160a060020a0316610433565b610139610832565b61019f6004803603602081101561018f57600080fd5b5035600160a060020a0316610838565b604080519115158252519081900360200190f35b610111600480360360408110156101c957600080fd5b50600160a060020a03813581169160200135166108d4565b610207600480360360208110156101f757600080fd5b5035600160a060020a0316610a99565b6040805167ffffffffffffffff9092168252519081900360200190f35b6101116004803603602081101561023a57600080fd5b5035600160a060020a0316610b41565b61019f600480360360c081101561026057600080fd5b600160a060020a03823516919081019060408101602082013564010000000081111561028b57600080fd5b82018360208201111561029d57600080fd5b803590602001918460018302840111640100000000831117156102bf57600080fd5b919390928235926040810190602001356401000000008111156102e157600080fd5b8201836020820111156102f357600080fd5b8035906020019184600183028401116401000000008311171561031557600080fd5b919350915080359060200135610c74565b6101396004803603602081101561033c57600080fd5b5035600160a060020a0316610f5c565b6101116004803603602081101561036257600080fd5b5035600160a060020a0316610f6e565b8033600160a060020a038216146103d85760408051600080516020611d0b833981519152815260206004820152601960248201527f424d3a2063616c6c6572206d7573742062652077616c6c657400000000000000604482015290519081900360640190fd5b60408051600160a060020a038416815290517f9fcca3f73f85397e2bf03647abf243c20b753bd54463ff3cae74de2971c112fa9181900360200190a15050565b600160a060020a031660009081526002602052604090205490565b600154604080517ff18858ab000000000000000000000000000000000000000000000000000000008152600160a060020a038085166004830152915184936000936105339391169163f18858ab916024808201928792909190829003018186803b1580156104a057600080fd5b505afa1580156104b4573d6000803e3d6000fd5b505050506040513d6000823e601f3d908101601f1916820160405260208110156104dd57600080fd5b8101908080516401000000008111156104f557600080fd5b8201602081018481111561050857600080fd5b815185602082028301116401000000008211171561052557600080fd5b50509291905050503361121d565b509050333014806105415750805b151561059c5760408051600080516020611d0b833981519152815260206004820152601b60248201527f47443a2077616c6c6574206d75737420626520756e6c6f636b65640000000000604482015290519081900360640190fd5b600154604080517f4a4fbeec000000000000000000000000000000000000000000000000000000008152600160a060020a038087166004830152915186939290921691634a4fbeec91602480820192602092909190829003018186803b15801561060557600080fd5b505afa158015610619573d6000803e3d6000fd5b505050506040513d602081101561062f57600080fd5b5051151561068c5760408051600080516020611d0b833981519152815260206004820152601960248201527f47443a2077616c6c6574206d757374206265206c6f636b656400000000000000604482015290519081900360640190fd5b600154604080517f919884bf000000000000000000000000000000000000000000000000000000008152600160a060020a0387811660048301529151600093929092169163919884bf91602480820192602092909190829003018186803b1580156106f657600080fd5b505afa15801561070a573d6000803e3d6000fd5b505050506040513d602081101561072057600080fd5b50519050600160a060020a038116301461077357604051600080516020611d0b833981519152815260040180806020018281038252603c815260200180611d2b603c913960400191505060405180910390fd5b600154604080517fb0fc29e6000000000000000000000000000000000000000000000000000000008152600160a060020a038881166004830152600060248301819052925193169263b0fc29e69260448084019391929182900301818387803b1580156107df57600080fd5b505af11580156107f3573d6000803e3d6000fd5b5050604051600160a060020a03881692507f7e6adfec7e3f286831a0200a754127c171a2da564078722cb97704741bbdb0ea9150600090a25050505050565b60035481565b600154604080517f4a4fbeec000000000000000000000000000000000000000000000000000000008152600160a060020a03848116600483015291516000939290921691634a4fbeec91602480820192602092909190829003018186803b1580156108a257600080fd5b505afa1580156108b6573d6000803e3d6000fd5b505050506040513d60208110156108cc57600080fd5b505192915050565b816108df813361139a565b151561092457604051600080516020611d0b833981519152815260040180806020018281038252602e815260200180611cdd602e913960400191505060405180910390fd5b600054604080517f0bcd4ebb000000000000000000000000000000000000000000000000000000008152600160a060020a03858116600483015291519190921691630bcd4ebb916024808301926020929190829003018186803b15801561098a57600080fd5b505afa15801561099e573d6000803e3d6000fd5b505050506040513d60208110156109b457600080fd5b50511515610a115760408051600080516020611d0b833981519152815260206004820152601c60248201527f424d3a206d6f64756c65206973206e6f74207265676973746572656400000000604482015290519081900360640190fd5b604080517f1f17732d000000000000000000000000000000000000000000000000000000008152600160a060020a03848116600483015260016024830152915191851691631f17732d9160448082019260009290919082900301818387803b158015610a7c57600080fd5b505af1158015610a90573d6000803e3d6000fd5b50505050505050565b600154604080517f6b9db4e6000000000000000000000000000000000000000000000000000000008152600160a060020a038481166004830152915160009384931691636b9db4e6916024808301926020929190829003018186803b158015610b0157600080fd5b505afa158015610b15573d6000803e3d6000fd5b505050506040513d6020811015610b2b57600080fd5b5051905042811115610b3b578091505b50919050565b604080517f70a082310000000000000000000000000000000000000000000000000000000081523060048201529051600091600160a060020a038416916370a0823191602480820192602092909190829003018186803b158015610ba457600080fd5b505afa158015610bb8573d6000803e3d6000fd5b505050506040513d6020811015610bce57600080fd5b505160008054604080517fa9059cbb000000000000000000000000000000000000000000000000000000008152600160a060020a0392831660048201526024810185905290519394509085169263a9059cbb92604480840193602093929083900390910190829087803b158015610c4457600080fd5b505af1158015610c58573d6000803e3d6000fd5b505050506040513d6020811015610c6e57600080fd5b50505050565b6000805a90506000610cc4308c60008d8d8080601f0160208091040260200160405190810160405280939291908181526020018383808284376000920191909152508f92508c91508b905061143a565b9050610cd18b898361157d565b1515610d2c5760408051600080516020611d0b833981519152815260206004820152601560248201527f524d3a204475706c696361746520726571756573740000000000000000000000604482015290519081900360640190fd5b610d6c8b8b8b8080601f01602080910402602001604051908101604052809392919081815260200183838082843760009201919091525061159192505050565b1515610db157604051600080516020611d0b833981519152815260040180806020018281038252604a815260200180611c93604a913960600191505060405180910390fd5b6000610df38c8c8c8080601f01602080910402602001604051908101604052809392919081815260200183838082843760009201919091525061160a92505050565b905060418102871415610f0b57610e0c8c868884611612565b15610f0b57801580610e8f5750610e8f8c8c8c8080601f01602080910402602001604051908101604052809392919081815260200183838082843760009201919091525050604080516020601f8f018190048102820181019092528d815288935091508d908d90819084018382808284376000920191909152506116e492505050565b15610f0b5730600160a060020a03168b8b604051808383808284376040519201945060009350909150508083038183865af19150503d8060008114610ef0576040519150601f19603f3d011682016040523d82523d6000602084013e610ef5565b606091505b505080945050610f0b8c5a8503888885336117fa565b60408051838152905185151591600160a060020a038f16917f6bb0b384ce772133df63560651bc8c727c53306cec1d51e2cbf8ea35fb8f2ec19181900360200190a350505098975050505050505050565b60026020526000908152604090205481565b600154604080517ff18858ab000000000000000000000000000000000000000000000000000000008152600160a060020a03808516600483015291518493600093610fdb9391169163f18858ab916024808201928792909190829003018186803b1580156104a057600080fd5b50905033301480610fe95750805b15156110445760408051600080516020611d0b833981519152815260206004820152601b60248201527f47443a2077616c6c6574206d75737420626520756e6c6f636b65640000000000604482015290519081900360640190fd5b600154604080517f4a4fbeec000000000000000000000000000000000000000000000000000000008152600160a060020a038087166004830152915186939290921691634a4fbeec91602480820192602092909190829003018186803b1580156110ad57600080fd5b505afa1580156110c1573d6000803e3d6000fd5b505050506040513d60208110156110d757600080fd5b5051156111335760408051600080516020611d0b833981519152815260206004820152601b60248201527f424d3a2077616c6c6574206d75737420626520756e6c6f636b65640000000000604482015290519081900360640190fd5b600154600354604080517fb0fc29e6000000000000000000000000000000000000000000000000000000008152600160a060020a0388811660048301524290930160248201529051919092169163b0fc29e691604480830192600092919082900301818387803b1580156111a657600080fd5b505af11580156111ba573d6000803e3d6000fd5b5050505083600160a060020a03167f6395bace6e0acbe4f22761b149d3cc2e88c7dde6bf4d8481825eef404cf989a16003544201604051808267ffffffffffffffff1667ffffffffffffffff16815260200191505060405180910390a250505050565b600060608351600014806112385750600160a060020a038316155b1561124857506000905082611393565b60008090506060600186510360405190808252806020026020018201604052801561127d578160200160208202803883390190505b5090506000805b8751811015611379578315156113245787818151811015156112a257fe5b90602001906020020151600160a060020a031687600160a060020a031614156112ce5760019350611371565b6112ee88828151811015156112df57fe5b90602001906020020151611858565b80156113165750611316888281518110151561130657fe5b9060200190602002015188611866565b156113245760019350611371565b825182101561137157878181518110151561133b57fe5b90602001906020020151838381518110151561135357fe5b600160a060020a039092166020928302909101909101526001909101905b600101611284565b50826113875760008761138b565b6001825b945094505050505b9250929050565b600081600160a060020a031683600160a060020a0316638da5cb5b6040518163ffffffff167c010000000000000000000000000000000000000000000000000000000002815260040160206040518083038186803b1580156113fb57600080fd5b505afa15801561140f573d6000803e3d6000fd5b505050506040513d602081101561142557600080fd5b5051600160a060020a03161490505b92915050565b6040517f190000000000000000000000000000000000000000000000000000000000000060208083018281526000602185018190526c01000000000000000000000000600160a060020a03808e16820260228801528c16026036860152604a85018a90528851909485938d938d938d938d938d938d938d939192606a909201918701908083835b602083106114e05780518252601f1990920191602091820191016114c1565b51815160209384036101000a600019018019909216911617905292019586525084810193909352506040808401919091528051808403820181526060840182528051908301207f19457468657265756d205369676e6564204d6573736167653a0a3332000000006080850152609c808501919091528151808503909101815260bc909301905281519101209e9d5050505050505050505050505050565b600061158984846118da565b949350505050565b600060248251101515156115f45760408051600080516020611d0b833981519152815260206004820152601660248201527f524d3a20496e76616c6964206461746157616c6c657400000000000000000000604482015290519081900360640190fd5b5060240151600160a060020a0391821691161490565b600192915050565b600080831180156116235750600182115b80156116cc575082840285600160a060020a03163110806116cc5750604080517fd6eb1bbf0000000000000000000000000000000000000000000000000000000081523060048201529051600160a060020a0387169163d6eb1bbf916024808301926020929190829003018186803b15801561169e57600080fd5b505afa1580156116b2573d6000803e3d6000fd5b505050506040513d60208110156116c857600080fd5b5051155b156116d957506000611589565b506001949350505050565b600154604080517ff18858ab000000000000000000000000000000000000000000000000000000008152600160a060020a038781166004830152915160009384936117ef9391169163f18858ab916024808201928792909190829003018186803b15801561175157600080fd5b505afa158015611765573d6000803e3d6000fd5b505050506040513d6000823e601f3d908101601f19168201604052602081101561178e57600080fd5b8101908080516401000000008111156117a657600080fd5b820160208101848111156117b957600080fd5b81518560208202830111640100000000821117156117d657600080fd5b50509291905050506117ea86866000611960565b61121d565b509695505050505050565b61726c850160008511801561180f5750600183115b801561181b5750838111155b15610a90573a85111561182f573a02611832565b84025b61184e8783836020604051908101604052806000815250611a0a565b5050505050505050565b6000903b63ffffffff161190565b604080517f6f776e657228290000000000000000000000000000000000000000000000000081529051908190036007018120808252600091829190602081818189611388fa60018114156118b957815193505b505083600160a060020a031682600160a060020a0316149250505092915050565b600160a060020a038216600090815260026020526040812054821161190157506000611434565b7001000000000000000000000000000000006fffffffffffffffffffffffffffffffff19831604436127100181111561193e576000915050611434565b5050600160a060020a0391909116600090815260026020526040902055600190565b6041808202830160208101516040820151919092015160009260ff9190911691601b83148061199257508260ff16601c145b151561199d57600080fd5b604080516000815260208082018084528a905260ff8616828401526060820185905260808201849052915160019260a0808401939192601f1981019281900390910190855afa1580156119f4573d6000803e3d6000fd5b5050604051601f19015198975050505050505050565b6060600085600160a060020a03168585856040516024018084600160a060020a0316600160a060020a0316815260200183815260200180602001828103825283818151815260200191508051906020019080838360005b83811015611a79578181015183820152602001611a61565b50505050905090810190601f168015611aa65780820380516001836020036101000a031916815260200191505b5060408051601f198184030181529181526020820180517bffffffffffffffffffffffffffffffffffffffffffffffffffffffff167f8f6f033200000000000000000000000000000000000000000000000000000000178152905182519297509550859450925090508083835b60208310611b325780518252601f199092019160209182019101611b13565b6001836020036101000a0380198251168184511680821785525050505050509050019150506000604051808303816000865af19150503d8060008114611b94576040519150601f19603f3d011682016040523d82523d6000602084013e611b99565b606091505b5092509050808015611bac575060008251115b15611c1957818060200190516020811015611bc657600080fd5b810190808051640100000000811115611bde57600080fd5b82016020810184811115611bf157600080fd5b8151640100000000811182820187101715611c0b57600080fd5b50909550611c899350505050565b600082511115611c2d573d6000803e3d6000fd5b801515611c895760408051600080516020611d0b833981519152815260206004820152601a60248201527f424d3a2077616c6c657420696e766f6b65207265766572746564000000000000604482015290519081900360640190fd5b5094935050505056fe524d3a207468652077616c6c657420617574686f72697a656420697320646966666572656e74207468656e2074686520746172676574206f66207468652072656c617965642064617461424d3a206d73672e73656e646572206d75737420626520616e206f776e657220666f72207468652077616c6c657408c379a0000000000000000000000000000000000000000000000000000000004c4d3a2063616e6e6f7420756e6c6f636b20612077616c6c6574207468617420776173206c6f636b656420627920616e6f74686572206d6f64756c65a165627a7a723058201bdde57850bc04b7797dbd92c3878c7508e561c5b7c37a9cead6992fc7298e350029",
  "source": "// Copyright (C) 2018  Argent Labs Ltd. <https://argent.xyz>\n\n// This program is free software: you can redistribute it and/or modify\n// it under the terms of the GNU General Public License as published by\n// the Free Software Foundation, either version 3 of the License, or\n// (at your option) any later version.\n\n// This program is distributed in the hope that it will be useful,\n// but WITHOUT ANY WARRANTY; without even the implied warranty of\n// MERCHANTABILITY or FITNESS FOR A PARTICULAR PURPOSE.  See the\n// GNU General Public License for more details.\n\n// You should have received a copy of the GNU General Public License\n// along with this program.  If not, see <http://www.gnu.org/licenses/>.\n\npragma solidity ^0.5.4;\nimport \"../wallet/BaseWallet.sol\";\nimport \"./common/BaseModule.sol\";\nimport \"./common/RelayerModule.sol\";\nimport \"../utils/GuardianUtils.sol\";\n\n/**\n * @title LockManager\n * @dev Module to manage the state of a wallet's lock.\n * Other modules can use the state of the lock to determine if their operations\n * should be authorised or blocked. Only the guardians of a wallet can lock and unlock it.\n * The lock automatically unlocks after a given period. The lock state is stored on a saparate\n * contract to facilitate its use by other modules.\n * @author Julien Niset - <julien@argent.im>\n * @author Olivier Van Den Biggelaar - <olivier@argent.im>\n */\ncontract LockManager is BaseModule, RelayerModule {\n\n    bytes32 constant NAME = \"LockManager\";\n\n    // The lock period\n    uint256 public lockPeriod;\n\n    // *************** Events *************************** //\n\n    event Locked(address indexed wallet, uint64 releaseAfter);\n    event Unlocked(address indexed wallet);\n\n    // *************** Modifiers ************************ //\n\n    /**\n     * @dev Throws if the wallet is not locked.\n     */\n    modifier onlyWhenLocked(BaseWallet _wallet) {\n        // solium-disable-next-line security/no-block-members\n        require(guardianStorage.isLocked(_wallet), \"GD: wallet must be locked\");\n        _;\n    }\n\n    /**\n     * @dev Throws if the caller is not a guardian for the wallet.\n     */\n    modifier onlyGuardian(BaseWallet _wallet) {\n        (bool isGuardian, ) = GuardianUtils.isGuardian(guardianStorage.getGuardians(_wallet), msg.sender);\n        require(msg.sender == address(this) || isGuardian, \"GD: wallet must be unlocked\");\n        _;\n    }\n\n    // *************** Constructor ************************ //\n\n    constructor(\n        ModuleRegistry _registry,\n        GuardianStorage _guardianStorage,\n        uint256 _lockPeriod\n    )\n        BaseModule(_registry, _guardianStorage, NAME) public {\n        lockPeriod = _lockPeriod;\n    }\n\n    // *************** External functions ************************ //\n\n    /**\n     * @dev Lets a guardian lock a wallet.\n     * @param _wallet The target wallet.\n     */\n    function lock(BaseWallet _wallet) external onlyGuardian(_wallet) onlyWhenUnlocked(_wallet) {\n        guardianStorage.setLock(_wallet, now + lockPeriod);\n        emit Locked(address(_wallet), uint64(now + lockPeriod));\n    }\n\n    /**\n     * @dev Lets a guardian unlock a locked wallet.\n     * @param _wallet The target wallet.\n     */\n    function unlock(BaseWallet _wallet) external onlyGuardian(_wallet) onlyWhenLocked(_wallet) {\n        address locker = guardianStorage.getLocker(_wallet);\n        require(locker == address(this), \"LM: cannot unlock a wallet that was locked by another module\");\n        guardianStorage.setLock(_wallet, 0);\n        emit Unlocked(address(_wallet));\n    }\n\n    /**\n     * @dev Returns the release time of a wallet lock or 0 if the wallet is unlocked.\n     * @param _wallet The target wallet.\n     * @return The epoch time at which the lock will release (in seconds).\n     */\n    function getLock(BaseWallet _wallet) public view returns(uint64 _releaseAfter) {\n        uint256 lockEnd = guardianStorage.getLock(_wallet);\n        if (lockEnd > now) {\n            _releaseAfter = uint64(lockEnd);\n        }\n    }\n\n    /**\n     * @dev Checks if a wallet is locked.\n     * @param _wallet The target wallet.\n     * @return true if the wallet is locked.\n     */\n    function isLocked(BaseWallet _wallet) external view returns (bool _isLocked) {\n        return guardianStorage.isLocked(_wallet);\n    }\n\n    // *************** Implementation of RelayerModule methods ********************* //\n\n    // Overrides to use the incremental nonce and save some gas\n    function checkAndUpdateUniqueness(BaseWallet _wallet, uint256 _nonce, bytes32 /* _signHash */) internal returns (bool) {\n        return checkAndUpdateNonce(_wallet, _nonce);\n    }\n\n    function validateSignatures(\n        BaseWallet _wallet,\n        bytes memory /* _data */,\n        bytes32 _signHash,\n        bytes memory _signatures\n    )\n        internal\n        view\n        returns (bool)\n    {\n        (bool isGuardian, ) = GuardianUtils.isGuardian(guardianStorage.getGuardians(_wallet), recoverSigner(_signHash, _signatures, 0));\n        return isGuardian; // \"LM: must be a guardian to lock or unlock\"\n    }\n\n    function getRequiredSignatures(BaseWallet /* _wallet */, bytes memory /* _data */) internal view returns (uint256) {\n        return 1;\n    }\n}",
  "sourcePath": "/Users/name/dev/argent-contracts-release-1.5.0/contracts/modules/LockManager.sol",
  "compiler": {
    "name": "solc",
    "version": "0.5.4+commit.9549d8ff.Emscripten.clang",
    "optimizer": true,
    "runs": 999
  },
  "schemaVersion": "2.3.1",
  "updatedAt": "2020-04-01T15:58:47.194Z"
}