{
  "contractName": "MakerManager",
  "abi": [
    {
      "constant": false,
      "inputs": [
        {
          "name": "_wallet",
          "type": "address"
        }
      ],
      "name": "init",
      "outputs": [],
      "payable": false,
      "stateMutability": "nonpayable",
      "type": "function"
    },
    {
      "constant": true,
      "inputs": [
        {
          "name": "_wallet",
          "type": "address"
        }
      ],
      "name": "getNonce",
      "outputs": [
        {
          "name": "nonce",
          "type": "uint256"
        }
      ],
      "payable": false,
      "stateMutability": "view",
      "type": "function"
    },
    {
      "constant": false,
      "inputs": [
        {
          "name": "_wallet",
          "type": "address"
        },
        {
          "name": "_module",
          "type": "address"
        }
      ],
      "name": "addModule",
      "outputs": [],
      "payable": false,
      "stateMutability": "nonpayable",
      "type": "function"
    },
    {
      "constant": true,
      "inputs": [],
      "name": "uniswapFactory",
      "outputs": [
        {
          "name": "",
          "type": "address"
        }
      ],
      "payable": false,
      "stateMutability": "view",
      "type": "function"
    },
    {
      "constant": true,
      "inputs": [],
      "name": "makerCdp",
      "outputs": [
        {
          "name": "",
          "type": "address"
        }
      ],
      "payable": false,
      "stateMutability": "view",
      "type": "function"
    },
    {
      "constant": false,
      "inputs": [
        {
          "name": "_token",
          "type": "address"
        }
      ],
      "name": "recoverToken",
      "outputs": [],
      "payable": false,
      "stateMutability": "nonpayable",
      "type": "function"
    },
    {
      "constant": false,
      "inputs": [
        {
          "name": "_wallet",
          "type": "address"
        },
        {
          "name": "_data",
          "type": "bytes"
        },
        {
          "name": "_nonce",
          "type": "uint256"
        },
        {
          "name": "_signatures",
          "type": "bytes"
        },
        {
          "name": "_gasPrice",
          "type": "uint256"
        },
        {
          "name": "_gasLimit",
          "type": "uint256"
        }
      ],
      "name": "execute",
      "outputs": [
        {
          "name": "success",
          "type": "bool"
        }
      ],
      "payable": false,
      "stateMutability": "nonpayable",
      "type": "function"
    },
    {
      "constant": true,
      "inputs": [
        {
          "name": "",
          "type": "address"
        }
      ],
      "name": "relayer",
      "outputs": [
        {
          "name": "nonce",
          "type": "uint256"
        }
      ],
      "payable": false,
      "stateMutability": "view",
      "type": "function"
    },
    {
      "constant": true,
      "inputs": [],
      "name": "isOnlyOwnerModule",
      "outputs": [
        {
          "name": "",
          "type": "bytes4"
        }
      ],
      "payable": false,
      "stateMutability": "pure",
      "type": "function"
    },
    {
      "inputs": [
        {
          "name": "_registry",
          "type": "address"
        },
        {
          "name": "_guardianStorage",
          "type": "address"
        },
        {
          "name": "_makerCdp",
          "type": "address"
        },
        {
          "name": "_uniswapFactory",
          "type": "address"
        }
      ],
      "payable": false,
      "stateMutability": "nonpayable",
      "type": "constructor"
    },
    {
      "anonymous": false,
      "inputs": [
        {
          "indexed": true,
          "name": "wallet",
          "type": "address"
        },
        {
          "indexed": true,
          "name": "success",
          "type": "bool"
        },
        {
          "indexed": false,
          "name": "signedHash",
          "type": "bytes32"
        }
      ],
      "name": "TransactionExecuted",
      "type": "event"
    },
    {
      "anonymous": false,
      "inputs": [
        {
          "indexed": false,
          "name": "name",
          "type": "bytes32"
        }
      ],
      "name": "ModuleCreated",
      "type": "event"
    },
    {
      "anonymous": false,
      "inputs": [
        {
          "indexed": false,
          "name": "wallet",
          "type": "address"
        }
      ],
      "name": "ModuleInitialised",
      "type": "event"
    },
    {
      "anonymous": false,
      "inputs": [
        {
          "indexed": true,
          "name": "_wallet",
          "type": "address"
        },
        {
          "indexed": true,
          "name": "_loanId",
          "type": "bytes32"
        },
        {
          "indexed": false,
          "name": "_collateral",
          "type": "address"
        },
        {
          "indexed": false,
          "name": "_collateralAmount",
          "type": "uint256"
        },
        {
          "indexed": false,
          "name": "_debtToken",
          "type": "address"
        },
        {
          "indexed": false,
          "name": "_debtAmount",
          "type": "uint256"
        }
      ],
      "name": "LoanOpened",
      "type": "event"
    },
    {
      "anonymous": false,
      "inputs": [
        {
          "indexed": true,
          "name": "_wallet",
          "type": "address"
        },
        {
          "indexed": true,
          "name": "_loanId",
          "type": "bytes32"
        }
      ],
      "name": "LoanClosed",
      "type": "event"
    },
    {
      "anonymous": false,
      "inputs": [
        {
          "indexed": true,
          "name": "_wallet",
          "type": "address"
        },
        {
          "indexed": true,
          "name": "_loanId",
          "type": "bytes32"
        },
        {
          "indexed": false,
          "name": "_collateral",
          "type": "address"
        },
        {
          "indexed": false,
          "name": "_collateralAmount",
          "type": "uint256"
        }
      ],
      "name": "CollateralAdded",
      "type": "event"
    },
    {
      "anonymous": false,
      "inputs": [
        {
          "indexed": true,
          "name": "_wallet",
          "type": "address"
        },
        {
          "indexed": true,
          "name": "_loanId",
          "type": "bytes32"
        },
        {
          "indexed": false,
          "name": "_collateral",
          "type": "address"
        },
        {
          "indexed": false,
          "name": "_collateralAmount",
          "type": "uint256"
        }
      ],
      "name": "CollateralRemoved",
      "type": "event"
    },
    {
      "anonymous": false,
      "inputs": [
        {
          "indexed": true,
          "name": "_wallet",
          "type": "address"
        },
        {
          "indexed": true,
          "name": "_loanId",
          "type": "bytes32"
        },
        {
          "indexed": false,
          "name": "_debtToken",
          "type": "address"
        },
        {
          "indexed": false,
          "name": "_debtAmount",
          "type": "uint256"
        }
      ],
      "name": "DebtAdded",
      "type": "event"
    },
    {
      "anonymous": false,
      "inputs": [
        {
          "indexed": true,
          "name": "_wallet",
          "type": "address"
        },
        {
          "indexed": true,
          "name": "_loanId",
          "type": "bytes32"
        },
        {
          "indexed": false,
          "name": "_debtToken",
          "type": "address"
        },
        {
          "indexed": false,
          "name": "_debtAmount",
          "type": "uint256"
        }
      ],
      "name": "DebtRemoved",
      "type": "event"
    },
    {
      "constant": false,
      "inputs": [
        {
          "name": "_wallet",
          "type": "address"
        },
        {
          "name": "_collateral",
          "type": "address"
        },
        {
          "name": "_collateralAmount",
          "type": "uint256"
        },
        {
          "name": "_debtToken",
          "type": "address"
        },
        {
          "name": "_debtAmount",
          "type": "uint256"
        }
      ],
      "name": "openLoan",
      "outputs": [
        {
          "name": "_loanId",
          "type": "bytes32"
        }
      ],
      "payable": false,
      "stateMutability": "nonpayable",
      "type": "function"
    },
    {
      "constant": false,
      "inputs": [
        {
          "name": "_wallet",
          "type": "address"
        },
        {
          "name": "_loanId",
          "type": "bytes32"
        }
      ],
      "name": "closeLoan",
      "outputs": [],
      "payable": false,
      "stateMutability": "nonpayable",
      "type": "function"
    },
    {
      "constant": true,
      "inputs": [
        {
          "name": "",
          "type": "address"
        },
        {
          "name": "_loanId",
          "type": "bytes32"
        }
      ],
      "name": "getLoan",
      "outputs": [
        {
          "name": "_status",
          "type": "uint8"
        },
        {
          "name": "_ethValue",
          "type": "uint256"
        }
      ],
      "payable": false,
      "stateMutability": "view",
      "type": "function"
    },
    {
      "constant": false,
      "inputs": [
        {
          "name": "_wallet",
          "type": "address"
        },
        {
          "name": "_loanId",
          "type": "bytes32"
        },
        {
          "name": "_collateral",
          "type": "address"
        },
        {
          "name": "_collateralAmount",
          "type": "uint256"
        }
      ],
      "name": "addCollateral",
      "outputs": [],
      "payable": false,
      "stateMutability": "nonpayable",
      "type": "function"
    },
    {
      "constant": false,
      "inputs": [
        {
          "name": "_wallet",
          "type": "address"
        },
        {
          "name": "_loanId",
          "type": "bytes32"
        },
        {
          "name": "_collateral",
          "type": "address"
        },
        {
          "name": "_collateralAmount",
          "type": "uint256"
        }
      ],
      "name": "removeCollateral",
      "outputs": [],
      "payable": false,
      "stateMutability": "nonpayable",
      "type": "function"
    },
    {
      "constant": false,
      "inputs": [
        {
          "name": "_wallet",
          "type": "address"
        },
        {
          "name": "_loanId",
          "type": "bytes32"
        },
        {
          "name": "_debtToken",
          "type": "address"
        },
        {
          "name": "_debtAmount",
          "type": "uint256"
        }
      ],
      "name": "addDebt",
      "outputs": [],
      "payable": false,
      "stateMutability": "nonpayable",
      "type": "function"
    },
    {
      "constant": false,
      "inputs": [
        {
          "name": "_wallet",
          "type": "address"
        },
        {
          "name": "_loanId",
          "type": "bytes32"
        },
        {
          "name": "_debtToken",
          "type": "address"
        },
        {
          "name": "_debtAmount",
          "type": "uint256"
        }
      ],
      "name": "removeDebt",
      "outputs": [],
      "payable": false,
      "stateMutability": "nonpayable",
      "type": "function"
    },
    {
      "constant": true,
      "inputs": [
        {
          "name": "_cup",
          "type": "bytes32"
        },
        {
          "name": "_makerCdp",
          "type": "address"
        }
      ],
      "name": "pethCollateral",
      "outputs": [
        {
          "name": "",
          "type": "uint256"
        }
      ],
      "payable": false,
      "stateMutability": "view",
      "type": "function"
    },
    {
      "constant": false,
      "inputs": [
        {
          "name": "_cup",
          "type": "bytes32"
        },
        {
          "name": "_makerCdp",
          "type": "address"
        }
      ],
      "name": "daiDebt",
      "outputs": [
        {
          "name": "",
          "type": "uint256"
        }
      ],
      "payable": false,
      "stateMutability": "nonpayable",
      "type": "function"
    },
    {
      "constant": false,
      "inputs": [
        {
          "name": "_cup",
          "type": "bytes32"
        },
        {
          "name": "_makerCdp",
          "type": "address"
        }
      ],
      "name": "isSafe",
      "outputs": [
        {
          "name": "",
          "type": "bool"
        }
      ],
      "payable": false,
      "stateMutability": "nonpayable",
      "type": "function"
    },
    {
      "constant": true,
      "inputs": [
        {
          "name": "_cup",
          "type": "bytes32"
        },
        {
          "name": "_makerCdp",
          "type": "address"
        }
      ],
      "name": "exists",
      "outputs": [
        {
          "name": "",
          "type": "bool"
        }
      ],
      "payable": false,
      "stateMutability": "view",
      "type": "function"
    },
    {
      "constant": false,
      "inputs": [
        {
          "name": "_cup",
          "type": "bytes32"
        },
        {
          "name": "_makerCdp",
          "type": "address"
        }
      ],
      "name": "maxDaiDrawable",
      "outputs": [
        {
          "name": "",
          "type": "uint256"
        }
      ],
      "payable": false,
      "stateMutability": "nonpayable",
      "type": "function"
    },
    {
      "constant": false,
      "inputs": [
        {
          "name": "_cup",
          "type": "bytes32"
        },
        {
          "name": "_makerCdp",
          "type": "address"
        }
      ],
      "name": "minCollateralRequired",
      "outputs": [
        {
          "name": "",
          "type": "uint256"
        }
      ],
      "payable": false,
      "stateMutability": "nonpayable",
      "type": "function"
    },
    {
      "constant": false,
      "inputs": [
        {
          "name": "_cup",
          "type": "bytes32"
        },
        {
          "name": "_daiRefund",
          "type": "uint256"
        },
        {
          "name": "_makerCdp",
          "type": "address"
        }
      ],
      "name": "governanceFeeInMKR",
      "outputs": [
        {
          "name": "_fee",
          "type": "uint256"
        }
      ],
      "payable": false,
      "stateMutability": "nonpayable",
      "type": "function"
    },
    {
      "constant": false,
      "inputs": [
        {
          "name": "_cup",
          "type": "bytes32"
        },
        {
          "name": "_makerCdp",
          "type": "address"
        }
      ],
      "name": "totalGovernanceFeeInMKR",
      "outputs": [
        {
          "name": "_fee",
          "type": "uint256"
        }
      ],
      "payable": false,
      "stateMutability": "nonpayable",
      "type": "function"
    },
    {
      "constant": false,
      "inputs": [
        {
          "name": "_cup",
          "type": "bytes32"
        },
        {
          "name": "_makerCdp",
          "type": "address"
        }
      ],
      "name": "minRequiredCollateral",
      "outputs": [
        {
          "name": "_minCollateral",
          "type": "uint256"
        }
      ],
      "payable": false,
      "stateMutability": "nonpayable",
      "type": "function"
    }
  ],
  "bytecode": "0x608060405234801561001057600080fd5b50604051608080620046f58339810180604052608081101561003157600080fd5b50805160208083015160408085015160609095015160008054600160a060020a03808816600160a060020a031992831617909255600180549286169290911691909117905581517f4d616b65724d616e616765720000000000000000000000000000000000000000808252925195969395939491938793879390927f3019c8fc80239e3dff8f781212ae2004839c2cb61d6c70acd279ac65392145df929081900390910190a1505060038054600160a060020a03948516600160a060020a03199182161790915560048054939094169216919091179091555050506145d9806200011c6000396000f3fe608060405234801561001057600080fd5b50600436106101a65760003560e060020a900480638bdb2afa116100f2578063aacaaf881161009b578063b352d4af11610075578063b352d4af1461063a578063c9b5ef8e14610674578063d490da4d1461069a578063e8ca0ca3146106c5576101a6565b8063aacaaf88146104e0578063ac5f8d51146105bc578063b02c808d146105f6576101a6565b8063a4a2850c116100cc578063a4a2850c1461045c578063a8b3dad114610488578063a90cf0af146104b4576101a6565b80638bdb2afa1461040a578063953b4e851461042e5780639be65a6014610436576101a6565b80635a1db8c41161015457806381c44b5c1161012e57806381c44b5c1461035557806383c5b0251461039e57806385a13f38146103d0576101a6565b80635a1db8c4146102cf5780635dc0409a146102fd5780637cea5aff14610329576101a6565b806319ab453c1161018557806319ab453c146102555780632d0335ab1461027d5780632d4a7221146102a3576101a6565b8062895232146101ab5780630a40f3ef146101eb5780630f1d5c9814610229575b600080fd5b6101d7600480360360408110156101c157600080fd5b5080359060200135600160a060020a03166106ff565b604080519115158252519081900360200190f35b6102176004803603604081101561020157600080fd5b5080359060200135600160a060020a031661077f565b60408051918252519081900360200190f35b6102176004803603604081101561023f57600080fd5b5080359060200135600160a060020a03166107ca565b61027b6004803603602081101561026b57600080fd5b5035600160a060020a03166107e7565b005b6102176004803603602081101561029357600080fd5b5035600160a060020a031661088d565b610217600480360360408110156102b957600080fd5b5080359060200135600160a060020a03166108a8565b61027b600480360360408110156102e557600080fd5b50600160a060020a0381358116916020013516610bf2565b6102176004803603604081101561031357600080fd5b5080359060200135600160a060020a0316610dc0565b6102176004803603604081101561033f57600080fd5b5080359060200135600160a060020a0316610e1d565b6103816004803603604081101561036b57600080fd5b50600160a060020a038135169060200135611043565b6040805160ff909316835260208301919091528051918290030190f35b610217600480360360608110156103b457600080fd5b5080359060208101359060400135600160a060020a031661107e565b61027b600480360360808110156103e657600080fd5b50600160a060020a0381358116916020810135916040820135169060600135611261565b6104126114f9565b60408051600160a060020a039092168252519081900360200190f35b610412611508565b61027b6004803603602081101561044c57600080fd5b5035600160a060020a0316611517565b6101d76004803603604081101561047257600080fd5b5080359060200135600160a060020a031661164a565b6102176004803603604081101561049e57600080fd5b5080359060200135600160a060020a03166116db565b61027b600480360360408110156104ca57600080fd5b50600160a060020a0381351690602001356119bc565b6101d7600480360360c08110156104f657600080fd5b600160a060020a03823516919081019060408101602082013564010000000081111561052157600080fd5b82018360208201111561053357600080fd5b8035906020019184600183028401116401000000008311171561055557600080fd5b9193909282359260408101906020013564010000000081111561057757600080fd5b82018360208201111561058957600080fd5b803590602001918460018302840111640100000000831117156105ab57600080fd5b919350915080359060200135611b60565b61027b600480360360808110156105d257600080fd5b50600160a060020a0381358116916020810135916040820135169060600135611e48565b610217600480360360a081101561060c57600080fd5b50600160a060020a038135811691602081013582169160408201359160608101359091169060800135612075565b61027b6004803603608081101561065057600080fd5b50600160a060020a038135811691602081013591604082013516906060013561239d565b6102176004803603602081101561068a57600080fd5b5035600160a060020a03166125ca565b6106a26125dc565b6040805160008051602061452b8339815191529092168252519081900360200190f35b61027b600480360360808110156106db57600080fd5b50600160a060020a0381358116916020810135916040820135169060600135612600565b600081600160a060020a031663e95823ad846040518263ffffffff1660e060020a02815260040180828152602001915050602060405180830381600087803b15801561074a57600080fd5b505af115801561075e573d6000803e3d6000fd5b505050506040513d602081101561077457600080fd5b505190505b92915050565b600081600160a060020a031663f7c8d634846040518263ffffffff1660e060020a02815260040180828152602001915050602060405180830381600087803b15801561074a57600080fd5b60006107e0836107da858561077f565b8461107e565b9392505050565b8033600160a060020a0382161461084d576040805160008051602061454b833981519152815260206004820152601960248201527f424d3a2063616c6c6572206d7573742062652077616c6c657400000000000000604482015290519081900360640190fd5b60408051600160a060020a038416815290517f9fcca3f73f85397e2bf03647abf243c20b753bd54463ff3cae74de2971c112fa9181900360200190a15050565b600160a060020a031660009081526002602052604090205490565b600080610b6583600160a060020a03166351f910666040518163ffffffff1660e060020a02815260040160206040518083038186803b1580156108ea57600080fd5b505afa1580156108fe573d6000803e3d6000fd5b505050506040513d602081101561091457600080fd5b5051604080517f67550a350000000000000000000000000000000000000000000000000000000081529051610b5991600160a060020a038816916367550a3591600480820192602092909190829003018186803b15801561097457600080fd5b505afa158015610988573d6000803e3d6000fd5b505050506040513d602081101561099e57600080fd5b5051604080517f495d32cb0000000000000000000000000000000000000000000000000000000081529051600160a060020a039092169163495d32cb916004808201926020929091908290030181600087803b1580156109fd57600080fd5b505af1158015610a11573d6000803e3d6000fd5b505050506040513d6020811015610a2757600080fd5b5051604080517fab0783da0000000000000000000000000000000000000000000000000000000081529051610b4d91600160a060020a038a169163ab0783da91600480820192602092909190829003018186803b158015610a8757600080fd5b505afa158015610a9b573d6000803e3d6000fd5b505050506040513d6020811015610ab157600080fd5b5051604080517ff7c8d634000000000000000000000000000000000000000000000000000000008152600481018c90529051600160a060020a038b169163f7c8d6349160248083019260209291908290030181600087803b158015610b1557600080fd5b505af1158015610b29573d6000803e3d6000fd5b505050506040513d6020811015610b3f57600080fd5b50519063ffffffff61289f16565b9063ffffffff61289f16565b9063ffffffff6128e216565b9050610bea83600160a060020a0316631f3634ed866040518263ffffffff1660e060020a0281526004018082815260200191505060206040518083038186803b158015610bb157600080fd5b505afa158015610bc5573d6000803e3d6000fd5b505050506040513d6020811015610bdb57600080fd5b5051829063ffffffff61290616565b949350505050565b8133301480610c065750610c06813361291b565b1515610c4b5760405160008051602061454b833981519152815260040180806020018281038252602381526020018061456b6023913960400191505060405180910390fd5b600054604080517f0bcd4ebb000000000000000000000000000000000000000000000000000000008152600160a060020a03858116600483015291519190921691630bcd4ebb916024808301926020929190829003018186803b158015610cb157600080fd5b505afa158015610cc5573d6000803e3d6000fd5b505050506040513d6020811015610cdb57600080fd5b50511515610d38576040805160008051602061454b833981519152815260206004820152601c60248201527f424d3a206d6f64756c65206973206e6f74207265676973746572656400000000604482015290519081900360640190fd5b604080517f1f17732d000000000000000000000000000000000000000000000000000000008152600160a060020a03848116600483015260016024830152915191851691631f17732d9160448082019260009290919082900301818387803b158015610da357600080fd5b505af1158015610db7573d6000803e3d6000fd5b50505050505050565b600081600160a060020a0316631f3634ed846040518263ffffffff1660e060020a0281526004018082815260200191505060206040518083038186803b158015610e0957600080fd5b505afa15801561075e573d6000803e3d6000fd5b60006107e082600160a060020a03166351f910666040518163ffffffff1660e060020a02815260040160206040518083038186803b158015610e5e57600080fd5b505afa158015610e72573d6000803e3d6000fd5b505050506040513d6020811015610e8857600080fd5b5051604080517fab0783da0000000000000000000000000000000000000000000000000000000081529051610b59916b034373d1b5e481853200000091610b4d91600160a060020a0389169163ab0783da91600480820192602092909190829003018186803b158015610efa57600080fd5b505afa158015610f0e573d6000803e3d6000fd5b505050506040513d6020811015610f2457600080fd5b5051604080517f67550a350000000000000000000000000000000000000000000000000000000081529051610b4d91600160a060020a038b16916367550a3591600480820192602092909190829003018186803b158015610f8457600080fd5b505afa158015610f98573d6000803e3d6000fd5b505050506040513d6020811015610fae57600080fd5b5051604080517f495d32cb0000000000000000000000000000000000000000000000000000000081529051600160a060020a039092169163495d32cb916004808201926020929091908290030181600087803b15801561100d57600080fd5b505af1158015611021573d6000803e3d6000fd5b505050506040513d602081101561103757600080fd5b5051610b4d8b8b61077f565b600354600090819061105f908490600160a060020a031661164a565b156110705750600390506000611077565b5060009050805b9250929050565b60008061108b858461077f565b905080151561109e5760009150506107e0565b60006111356111288386600160a060020a0316636f78ee0d8a6040518263ffffffff1660e060020a02815260040180828152602001915050602060405180830381600087803b1580156110f057600080fd5b505af1158015611104573d6000803e3d6000fd5b505050506040513d602081101561111a57600080fd5b50519063ffffffff6128e216565b869063ffffffff61289f16565b905060008085600160a060020a031663ace237f56040518163ffffffff1660e060020a02815260040160206040518083038186803b15801561117657600080fd5b505afa15801561118a573d6000803e3d6000fd5b505050506040513d60208110156111a057600080fd5b5051604080517f59e02dd70000000000000000000000000000000000000000000000000000000081528151600160a060020a03909316926359e02dd792600480840193919291829003018186803b1580156111fa57600080fd5b505afa15801561120e573d6000803e3d6000fd5b505050506040513d604081101561122457600080fd5b508051602090910151909250905080801561123e57508115155b1561125657611253838363ffffffff6129a016565b94505b505050509392505050565b83333014806112755750611275813361291b565b15156112ba5760405160008051602061454b833981519152815260040180806020018281038252602381526020018061456b6023913960400191505060405180910390fd5b600154604080517f4a4fbeec000000000000000000000000000000000000000000000000000000008152600160a060020a038089166004830152915188939290921691634a4fbeec91602480820192602092909190829003018186803b15801561132357600080fd5b505afa158015611337573d6000803e3d6000fd5b505050506040513d602081101561134d57600080fd5b5051156113a9576040805160008051602061454b833981519152815260206004820152601b60248201527f424d3a2077616c6c6574206d75737420626520756e6c6f636b65640000000000604482015290519081900360640190fd5b600360009054906101000a9004600160a060020a0316600160a060020a0316639166cba46040518163ffffffff1660e060020a02815260040160206040518083038186803b1580156113fa57600080fd5b505afa15801561140e573d6000803e3d6000fd5b505050506040513d602081101561142457600080fd5b5051600160a060020a0385811691161461148d576040805160008051602061454b833981519152815260206004820152601d60248201527f4d616b65723a206465627420746f6b656e206d75737420626520444149000000604482015290519081900360640190fd5b6003546114a890879087908690600160a060020a03166129b8565b60408051600160a060020a0386811682526020820186905282518893918a16927ff6669d5e7ff92997c22e9fe3b54f53ed18448cf5fdccb3eb1dc5004798fbb41492908290030190a3505050505050565b600454600160a060020a031681565b600354600160a060020a031681565b604080517f70a082310000000000000000000000000000000000000000000000000000000081523060048201529051600091600160a060020a038416916370a0823191602480820192602092909190829003018186803b15801561157a57600080fd5b505afa15801561158e573d6000803e3d6000fd5b505050506040513d60208110156115a457600080fd5b505160008054604080517fa9059cbb000000000000000000000000000000000000000000000000000000008152600160a060020a0392831660048201526024810185905290519394509085169263a9059cbb92604480840193602093929083900390910190829087803b15801561161a57600080fd5b505af115801561162e573d6000803e3d6000fd5b505050506040513d602081101561164457600080fd5b50505050565b600080600160a060020a031682600160a060020a031663de5f5517856040518263ffffffff1660e060020a0281526004018082815260200191505060206040518083038186803b15801561169d57600080fd5b505afa1580156116b1573d6000803e3d6000fd5b505050506040513d60208110156116c757600080fd5b5051600160a060020a031614159392505050565b60008061195a83600160a060020a031663ab0783da6040518163ffffffff1660e060020a02815260040160206040518083038186803b15801561171d57600080fd5b505afa158015611731573d6000803e3d6000fd5b505050506040513d602081101561174757600080fd5b5051604080517f67550a350000000000000000000000000000000000000000000000000000000081529051610b5991600160a060020a038816916367550a3591600480820192602092909190829003018186803b1580156117a757600080fd5b505afa1580156117bb573d6000803e3d6000fd5b505050506040513d60208110156117d157600080fd5b5051604080517f495d32cb0000000000000000000000000000000000000000000000000000000081529051600160a060020a039092169163495d32cb916004808201926020929091908290030181600087803b15801561183057600080fd5b505af1158015611844573d6000803e3d6000fd5b505050506040513d602081101561185a57600080fd5b5051604080517f51f910660000000000000000000000000000000000000000000000000000000081529051610b5991600160a060020a038a16916351f9106691600480820192602092909190829003018186803b1580156118ba57600080fd5b505afa1580156118ce573d6000803e3d6000fd5b505050506040513d60208110156118e457600080fd5b5051604080517f1f3634ed000000000000000000000000000000000000000000000000000000008152600481018c90529051600160a060020a038b1691631f3634ed916024808301926020929190829003018186803b15801561194657600080fd5b505afa158015610b29573d6000803e3d6000fd5b9050610bea83600160a060020a031663f7c8d634866040518263ffffffff1660e060020a02815260040180828152602001915050602060405180830381600087803b1580156119a857600080fd5b505af1158015610bc5573d6000803e3d6000fd5b81333014806119d057506119d0813361291b565b1515611a155760405160008051602061454b833981519152815260040180806020018281038252602381526020018061456b6023913960400191505060405180910390fd5b600154604080517f4a4fbeec000000000000000000000000000000000000000000000000000000008152600160a060020a038087166004830152915186939290921691634a4fbeec91602480820192602092909190829003018186803b158015611a7e57600080fd5b505afa158015611a92573d6000803e3d6000fd5b505050506040513d6020811015611aa857600080fd5b505115611b04576040805160008051602061454b833981519152815260206004820152601b60248201527f424d3a2077616c6c6574206d75737420626520756e6c6f636b65640000000000604482015290519081900360640190fd5b600354600454611b249186918691600160a060020a039081169116612a51565b6040518390600160a060020a038616907f07e4a0c6f06275f83bcf78e5a10eb7f5515574d593bce993377961f4133b951c90600090a350505050565b6000805a90506000611bb0308c60008d8d8080601f0160208091040260200160405190810160405280939291908181526020018383808284376000920191909152508f92508c91508b9050612b23565b9050611bbd8b8983612c66565b1515611c18576040805160008051602061454b833981519152815260206004820152601560248201527f524d3a204475706c696361746520726571756573740000000000000000000000604482015290519081900360640190fd5b611c588b8b8b8080601f016020809104026020016040519081016040528093929190818152602001838380828437600092019190915250612c7292505050565b1515611c9d5760405160008051602061454b833981519152815260040180806020018281038252604a8152602001806144bc604a913960600191505060405180910390fd5b6000611cdf8c8c8c8080601f016020809104026020016040519081016040528093929190818152602001838380828437600092019190915250612ceb92505050565b905060418102871415611df757611cf88c868884612cf3565b15611df757801580611d7b5750611d7b8c8c8c8080601f01602080910402602001604051908101604052809392919081815260200183838082843760009201919091525050604080516020601f8f018190048102820181019092528d815288935091508d908d9081908401838280828437600092019190915250612dc592505050565b15611df75730600160a060020a03168b8b604051808383808284376040519201945060009350909150508083038183865af19150503d8060008114611ddc576040519150601f19603f3d011682016040523d82523d6000602084013e611de1565b606091505b505080945050611df78c5a850388888533612dea565b60408051838152905185151591600160a060020a038f16917f6bb0b384ce772133df63560651bc8c727c53306cec1d51e2cbf8ea35fb8f2ec19181900360200190a350505098975050505050505050565b8333301480611e5c5750611e5c813361291b565b1515611ea15760405160008051602061454b833981519152815260040180806020018281038252602381526020018061456b6023913960400191505060405180910390fd5b600154604080517f4a4fbeec000000000000000000000000000000000000000000000000000000008152600160a060020a038089166004830152915188939290921691634a4fbeec91602480820192602092909190829003018186803b158015611f0a57600080fd5b505afa158015611f1e573d6000803e3d6000fd5b505050506040513d6020811015611f3457600080fd5b505115611f90576040805160008051602061454b833981519152815260206004820152601b60248201527f424d3a2077616c6c6574206d75737420626520756e6c6f636b65640000000000604482015290519081900360640190fd5b600160a060020a03841673eeeeeeeeeeeeeeeeeeeeeeeeeeeeeeeeeeeeeeee14612009576040805160008051602061454b833981519152815260206004820152601d60248201527f4d616b65723a20636f6c6c61746572616c206d75737420626520455448000000604482015290519081900360640190fd5b60035461202490879087908690600160a060020a0316612e48565b60408051600160a060020a0386811682526020820186905282518893918a16927ff1dec7a92ef063b16d2098bb05803ed604936a7ff30f0d245fe881baf96e8e6b92908290030190a3505050505050565b6000853330148061208b575061208b813361291b565b15156120d05760405160008051602061454b833981519152815260040180806020018281038252602381526020018061456b6023913960400191505060405180910390fd5b600154604080517f4a4fbeec000000000000000000000000000000000000000000000000000000008152600160a060020a03808b16600483015291518a939290921691634a4fbeec91602480820192602092909190829003018186803b15801561213957600080fd5b505afa15801561214d573d6000803e3d6000fd5b505050506040513d602081101561216357600080fd5b5051156121bf576040805160008051602061454b833981519152815260206004820152601b60248201527f424d3a2077616c6c6574206d75737420626520756e6c6f636b65640000000000604482015290519081900360640190fd5b600160a060020a03871673eeeeeeeeeeeeeeeeeeeeeeeeeeeeeeeeeeeeeeee14612238576040805160008051602061454b833981519152815260206004820152601d60248201527f4d616b65723a20636f6c6c61746572616c206d75737420626520455448000000604482015290519081900360640190fd5b600360009054906101000a9004600160a060020a0316600160a060020a0316639166cba46040518163ffffffff1660e060020a02815260040160206040518083038186803b15801561228957600080fd5b505afa15801561229d573d6000803e3d6000fd5b505050506040513d60208110156122b357600080fd5b5051600160a060020a0386811691161461231c576040805160008051602061454b833981519152815260206004820152601d60248201527f4d616b65723a206465627420746f6b656e206d75737420626520444149000000604482015290519081900360640190fd5b60035461233790899088908790600160a060020a0316612e54565b60408051600160a060020a038a81168252602082018a9052888116828401526060820188905291519295508592918b16917ff9d7e11fb5d8d1e0a4be344a6a6adfb912161747edf926fb283150d07c39c1089181900360800190a3505095945050505050565b83333014806123b157506123b1813361291b565b15156123f65760405160008051602061454b833981519152815260040180806020018281038252602381526020018061456b6023913960400191505060405180910390fd5b600154604080517f4a4fbeec000000000000000000000000000000000000000000000000000000008152600160a060020a038089166004830152915188939290921691634a4fbeec91602480820192602092909190829003018186803b15801561245f57600080fd5b505afa158015612473573d6000803e3d6000fd5b505050506040513d602081101561248957600080fd5b5051156124e5576040805160008051602061454b833981519152815260206004820152601b60248201527f424d3a2077616c6c6574206d75737420626520756e6c6f636b65640000000000604482015290519081900360640190fd5b600160a060020a03841673eeeeeeeeeeeeeeeeeeeeeeeeeeeeeeeeeeeeeeee1461255e576040805160008051602061454b833981519152815260206004820152601d60248201527f4d616b65723a20636f6c6c61746572616c206d75737420626520455448000000604482015290519081900360640190fd5b60035461257990879087908690600160a060020a0316612ff6565b60408051600160a060020a0386811682526020820186905282518893918a16927fdd016248708c391ccb5c72f9258127c75b9b291ac1479513fe4f331c3489013792908290030190a3505050505050565b60026020526000908152604090205481565b7fd490da4d0000000000000000000000000000000000000000000000000000000090565b83333014806126145750612614813361291b565b15156126595760405160008051602061454b833981519152815260040180806020018281038252602381526020018061456b6023913960400191505060405180910390fd5b600154604080517f4a4fbeec000000000000000000000000000000000000000000000000000000008152600160a060020a038089166004830152915188939290921691634a4fbeec91602480820192602092909190829003018186803b1580156126c257600080fd5b505afa1580156126d6573d6000803e3d6000fd5b505050506040513d60208110156126ec57600080fd5b505115612748576040805160008051602061454b833981519152815260206004820152601b60248201527f424d3a2077616c6c6574206d75737420626520756e6c6f636b65640000000000604482015290519081900360640190fd5b600360009054906101000a9004600160a060020a0316600160a060020a0316639166cba46040518163ffffffff1660e060020a02815260040160206040518083038186803b15801561279957600080fd5b505afa1580156127ad573d6000803e3d6000fd5b505050506040513d60208110156127c357600080fd5b5051600160a060020a0385811691161461282c576040805160008051602061454b833981519152815260206004820152601d60248201527f4d616b65723a206465627420746f6b656e206d75737420626520444149000000604482015290519081900360640190fd5b60035460045461284e91889188918791600160a060020a0391821691166130dc565b60408051600160a060020a0386811682526020820186905282518893918a16927fbfa42ea7d37497e6a09441fadba47d64b610b6b1183d895dd0a42507973430bf92908290030190a3505050505050565b60006b033b2e3c9fd0803ce80000006128d16128bb85856138ec565b60026b033b2e3c9fd0803ce80000005b04613917565b8115156128da57fe5b049392505050565b6000816128d16128fe856b033b2e3c9fd0803ce80000006138ec565b6002856128cb565b60008282111561291557600080fd5b50900390565b600081600160a060020a031683600160a060020a0316638da5cb5b6040518163ffffffff1660e060020a02815260040160206040518083038186803b15801561296357600080fd5b505afa158015612977573d6000803e3d6000fd5b505050506040513d602081101561298d57600080fd5b5051600160a060020a0316149392505050565b6000816128d16128fe85670de0b6b3a76400006138ec565b604080517f6472617728627974657333322c75696e743235362900000000000000000000008152815190819003601501812060248201869052604480830186905283518084039091018152606490920190925260208101805160008051602061458e8339815191521660008051602061452b83398151915290931692909217909152612a4a9085908390600090613929565b5050505050565b6000612a5d848461077f565b90506000811115612a7557612a7585858386866130dc565b6000612a818585610dc0565b90506000811115612a9857612a9886868387612e48565b604080517f73687574286279746573333229000000000000000000000000000000000000008152815190819003600d018120602480830189905283518084039091018152604490920190925260208101805160008051602061458e8339815191521660008051602061452b83398151915290931692909217909152610db79087908690600090613929565b6040517f190000000000000000000000000000000000000000000000000000000000000060208083018281526000602185018190526c01000000000000000000000000600160a060020a03808e16820260228801528c16026036860152604a85018a90528851909485938d938d938d938d938d938d938d939192606a909201918701908083835b60208310612bc95780518252601f199092019160209182019101612baa565b51815160209384036101000a600019018019909216911617905292019586525084810193909352506040808401919091528051808403820181526060840182528051908301207f19457468657265756d205369676e6564204d6573736167653a0a3332000000006080850152609c808501919091528151808503909101815260bc909301905281519101209e9d5050505050505050505050505050565b6000610bea8484613b9a565b60006024825110151515612cd5576040805160008051602061454b833981519152815260206004820152601660248201527f524d3a20496e76616c6964206461746157616c6c657400000000000000000000604482015290519081900360640190fd5b5060240151600160a060020a0391821691161490565b600192915050565b60008083118015612d045750600182115b8015612dad575082840285600160a060020a0316311080612dad5750604080517fd6eb1bbf0000000000000000000000000000000000000000000000000000000081523060048201529051600160a060020a0387169163d6eb1bbf916024808301926020929190829003018186803b158015612d7f57600080fd5b505afa158015612d93573d6000803e3d6000fd5b505050506040513d6020811015612da957600080fd5b5051155b15612dba57506000610bea565b506001949350505050565b600080612dd484846000613c20565b9050612de0868261291b565b9695505050505050565b61726c8501600085118015612dff5750600183115b8015612e0b5750838111155b15610db7573a851115612e1f573a02612e22565b84025b612e3e8783836020604051908101604052806000815250613929565b5050505050505050565b61164484848484613cca565b600081600160a060020a031663fcfff16f6040518163ffffffff1660e060020a028152600401602060405180830381600087803b158015612e9457600080fd5b505af1158015612ea8573d6000803e3d6000fd5b505050506040513d6020811015612ebe57600080fd5b5051604080517fbaa8529c00000000000000000000000000000000000000000000000000000000815260048101839052600160a060020a03888116602483015291519293509084169163baa8529c9160448082019260009290919082900301818387803b158015612f2e57600080fd5b505af1158015612f42573d6000803e3d6000fd5b50505050612f528582868561407f565b6000831115610bea57604080517f6472617728627974657333322c75696e743235362900000000000000000000008152815190819003601501812060248201849052604480830187905283518084039091018152606490920190925260208101805160008051602061458e8339815191521660008051602061452b83398151915290931692909217909152612fed9086908490600090613929565b50949350505050565b80600160a060020a031663de5f5517846040518263ffffffff1660e060020a0281526004018082815260200191505060206040518083038186803b15801561303d57600080fd5b505afa158015613051573d6000803e3d6000fd5b505050506040513d602081101561306757600080fd5b5051600160a060020a038581169116146130d0576040805160008051602061454b833981519152815260206004820152601160248201527f434d3a206e6f7420434450206f776e6572000000000000000000000000000000604482015290519081900360640190fd5b6116448484848461407f565b81600160a060020a031663de5f5517856040518263ffffffff1660e060020a0281526004018082815260200191505060206040518083038186803b15801561312357600080fd5b505afa158015613137573d6000803e3d6000fd5b505050506040513d602081101561314d57600080fd5b5051600160a060020a038681169116146131b6576040805160008051602061454b833981519152815260206004820152601160248201527f434d3a206e6f7420434450206f776e6572000000000000000000000000000000604482015290519081900360640190fd5b60006131c385858561107e565b9050600083600160a060020a03166312d43a516040518163ffffffff1660e060020a02815260040160206040518083038186803b15801561320357600080fd5b505afa158015613217573d6000803e3d6000fd5b505050506040513d602081101561322d57600080fd5b5051604080517f70a08231000000000000000000000000000000000000000000000000000000008152600160a060020a038a811660048301529151929350600092918416916370a0823191602480820192602092909190829003018186803b15801561329857600080fd5b505afa1580156132ac573d6000803e3d6000fd5b505050506040513d60208110156132c257600080fd5b505190508281101561346a57600084600160a060020a03166306f2bf62846040518263ffffffff1660e060020a0281526004018082600160a060020a0316600160a060020a0316815260200191505060206040518083038186803b15801561332957600080fd5b505afa15801561333d573d6000803e3d6000fd5b505050506040513d602081101561335357600080fd5b5051604080517f59e9486200000000000000000000000000000000000000000000000000000000815284870360048201529051919250600091600160a060020a038416916359e94862916024808301926020929190829003018186803b1580156133bc57600080fd5b505afa1580156133d0573d6000803e3d6000fd5b505050506040513d60208110156133e657600080fd5b5051604051909150613466908b90849084908060256145068239604080519182900360250182208a8d0360248401524260448085019190915282518085039091018152606490930190915260208201805160008051602061458e8339815191521660008051602061452b8339815191529092169190911790529050613929565b5050505b600085600160a060020a0316639166cba46040518163ffffffff1660e060020a02815260040160206040518083038186803b1580156134a857600080fd5b505afa1580156134bc573d6000803e3d6000fd5b505050506040513d60208110156134d257600080fd5b5051604080517f70a08231000000000000000000000000000000000000000000000000000000008152600160a060020a038c811660048301529151929350600092918416916370a0823191602480820192602092909190829003018186803b15801561353d57600080fd5b505afa158015613551573d6000803e3d6000fd5b505050506040513d602081101561356757600080fd5b505190508781101561371757600086600160a060020a03166306f2bf62846040518263ffffffff1660e060020a0281526004018082600160a060020a0316600160a060020a0316815260200191505060206040518083038186803b1580156135ce57600080fd5b505afa1580156135e2573d6000803e3d6000fd5b505050506040513d60208110156135f857600080fd5b5051604080517f59e94862000000000000000000000000000000000000000000000000000000008152848c0360048201529051919250600091600160a060020a038416916359e94862916024808301926020929190829003018186803b15801561366157600080fd5b505afa158015613675573d6000803e3d6000fd5b505050506040513d602081101561368b57600080fd5b5051604051909150613713908d9084908490806025614506823960250190506040518091039020878f034260405160240180838152602001828152602001925050506040516020818303038152906040529060008051602061458e833981519152191660208201805160008051602061458e8339815191528381831617835250505050613929565b5050505b604080517f617070726f766528616464726573732c75696e7432353629000000000000000081528151908190036018018120600160a060020a038a16602483015260448083018c905283518084039091018152606490920190925260208101805160008051602061458e8339815191521660008051602061452b833981519152909316929092179091526137b1908b908490600090613929565b50604080517f617070726f766528616464726573732c75696e7432353629000000000000000081528151908190036018018120600160a060020a038a166024830152604480830189905283518084039091018152606490920190925260208101805160008051602061458e8339815191521660008051602061452b8339815191529093169290921790915261384c908b908690600090613929565b50604080517f7769706528627974657333322c75696e7432353629000000000000000000000081528151908190036015018120602482018c905260448083018c905283518084039091018152606490920190925260208101805160008051602061458e8339815191521660008051602061452b833981519152909316929092179091526138df908b908990600090613929565b5050505050505050505050565b60008215156138fd57506000610779565b82820282848281151561390c57fe5b04146107e057600080fd5b6000828201838110156107e057600080fd5b6060600085600160a060020a03168585856040516024018084600160a060020a0316600160a060020a0316815260200183815260200180602001828103825283818151815260200191508051906020019080838360005b83811015613998578181015183820152602001613980565b50505050905090810190601f1680156139c55780820380516001836020036101000a031916815260200191505b5060408051601f1981840301815291815260208201805160008051602061458e833981519152167f8f6f033200000000000000000000000000000000000000000000000000000000178152905182519297509550859450925090508083835b60208310613a435780518252601f199092019160209182019101613a24565b6001836020036101000a0380198251168184511680821785525050505050509050019150506000604051808303816000865af19150503d8060008114613aa5576040519150601f19603f3d011682016040523d82523d6000602084013e613aaa565b606091505b5092509050808015613abd575060008251115b15613b2a57818060200190516020811015613ad757600080fd5b810190808051640100000000811115613aef57600080fd5b82016020810184811115613b0257600080fd5b8151640100000000811182820187101715613b1c57600080fd5b50909550612fed9350505050565b600082511115613b3e573d6000803e3d6000fd5b801515612fed576040805160008051602061454b833981519152815260206004820152601a60248201527f424d3a2077616c6c657420696e766f6b65207265766572746564000000000000604482015290519081900360640190fd5b600160a060020a0382166000908152600260205260408120548211613bc157506000610779565b7001000000000000000000000000000000006fffffffffffffffffffffffffffffffff198316044361271001811115613bfe576000915050610779565b5050600160a060020a0391909116600090815260026020526040902055600190565b6041808202830160208101516040820151919092015160009260ff9190911691601b831480613c5257508260ff16601c145b1515613c5d57600080fd5b604080516000815260208082018084528a905260ff8616828401526060820185905260808201849052915160019260a0808401939192601f1981019281900390910190855afa158015613cb4573d6000803e3d6000fd5b5050604051601f19015198975050505050505050565b604080517f6672656528627974657333322c75696e743235362900000000000000000000008152815190819003601501812060248201869052604480830186905283518084039091018152606490920190925260208101805160008051602061458e8339815191521660008051602061452b83398151915290931692909217909152613d5c9085908390600090613929565b50600081600160a060020a0316637bd2bea76040518163ffffffff1660e060020a02815260040160206040518083038186803b158015613d9b57600080fd5b505afa158015613daf573d6000803e3d6000fd5b505050506040513d6020811015613dc557600080fd5b5051604080517f0f8a771e0000000000000000000000000000000000000000000000000000000081529051919250600091600160a060020a03851691630f8a771e916004808301926020929190829003018186803b158015613e2657600080fd5b505afa158015613e3a573d6000803e3d6000fd5b505050506040513d6020811015613e5057600080fd5b5051604080517f617070726f766528616464726573732c75696e7432353629000000000000000081528151908190036018018120600160a060020a0387166024830152604480830189905283518084039091018152606490920190925260208101805160008051602061458e8339815191521660008051602061452b83398151915290931692909217909152909150613eef9087908390600090613929565b50604080517f657869742875696e7432353629000000000000000000000000000000000000008152815190819003600d018120602480830188905283518084039091018152604490920190925260208101805160008051602061458e8339815191521660008051602061452b83398151915290931692909217909152613f7b9087908590600090613929565b50600083600160a060020a031663454a2ab3866040518263ffffffff1660e060020a0281526004018082815260200191505060206040518083038186803b158015613fc557600080fd5b505afa158015613fd9573d6000803e3d6000fd5b505050506040513d6020811015613fef57600080fd5b5051604080517f77697468647261772875696e743235362900000000000000000000000000000081528151908190036011018120602480830185905283518084039091018152604490920190925260208101805160008051602061458e8339815191521660008051602061452b83398151915290931692909217909152909150612e3e9088908590600090613929565b600081600160a060020a0316637bd2bea76040518163ffffffff1660e060020a02815260040160206040518083038186803b1580156140bd57600080fd5b505afa1580156140d1573d6000803e3d6000fd5b505050506040513d60208110156140e757600080fd5b5051604080517fe47e7e66000000000000000000000000000000000000000000000000000000008152600481018690529051919250600091600160a060020a0385169163e47e7e66916024808301926020929190829003018186803b15801561414f57600080fd5b505afa158015614163573d6000803e3d6000fd5b505050506040513d602081101561417957600080fd5b5051604080517f6465706f7369742829000000000000000000000000000000000000000000000081528151908190036009018120600482526024820190925260208101805160008051602061458e8339815191521660008051602061452b833981519152909316929092179091529091506141f990879084908490613929565b50604080517f617070726f766528616464726573732c75696e7432353629000000000000000081528151908190036018018120600160a060020a0386166024830152604480830185905283518084039091018152606490920190925260208101805160008051602061458e8339815191521660008051602061452b833981519152909316929092179091526142949087908490600090613929565b50604080517f6a6f696e2875696e7432353629000000000000000000000000000000000000008152815190819003600d018120602480830188905283518084039091018152604490920190925260208101805160008051602061458e8339815191521660008051602061452b833981519152909316929092179091526143209087908590600090613929565b50600083600160a060020a0316630f8a771e6040518163ffffffff1660e060020a02815260040160206040518083038186803b15801561435f57600080fd5b505afa158015614373573d6000803e3d6000fd5b505050506040513d602081101561438957600080fd5b5051604080517f617070726f766528616464726573732c75696e7432353629000000000000000081528151908190036018018120600160a060020a038816602483015260448083018a905283518084039091018152606490920190925260208101805160008051602061458e8339815191521660008051602061452b833981519152909316929092179091529091506144289088908390600090613929565b50604080517f6c6f636b28627974657333322c75696e743235362900000000000000000000008152815190819003601501812060248201899052604480830189905283518084039091018152606490920190925260208101805160008051602061458e8339815191521660008051602061452b83398151915290931692909217909152612e3e908890869060009061392956fe524d3a207468652077616c6c657420617574686f72697a656420697320646966666572656e74207468656e2074686520746172676574206f66207468652072656c617965642064617461657468546f546f6b656e537761704f75747075742875696e743235362c75696e7432353629ffffffff0000000000000000000000000000000000000000000000000000000008c379a000000000000000000000000000000000000000000000000000000000424d3a206d75737420626520616e206f776e657220666f72207468652077616c6c657400000000ffffffffffffffffffffffffffffffffffffffffffffffffffffffffa165627a7a72305820589b1ab447c7f033c0bb9d59edfc494a5ca4d2b31cdd67811f08fcdab3b78e920029",
  "source": "// Copyright (C) 2018  Argent Labs Ltd. <https://argent.xyz>\n\n// This program is free software: you can redistribute it and/or modify\n// it under the terms of the GNU General Public License as published by\n// the Free Software Foundation, either version 3 of the License, or\n// (at your option) any later version.\n\n// This program is distributed in the hope that it will be useful,\n// but WITHOUT ANY WARRANTY; without even the implied warranty of\n// MERCHANTABILITY or FITNESS FOR A PARTICULAR PURPOSE.  See the\n// GNU General Public License for more details.\n\n// You should have received a copy of the GNU General Public License\n// along with this program.  If not, see <http://www.gnu.org/licenses/>.\n\npragma solidity ^0.5.4;\n\nimport \"../../lib/utils/SafeMath.sol\";\nimport \"../wallet/BaseWallet.sol\";\nimport \"./common/BaseModule.sol\";\nimport \"./common/RelayerModule.sol\";\nimport \"./common/OnlyOwnerModule.sol\";\nimport \"../defi/Loan.sol\";\n\n// Interface to MakerDAO's Tub contract, used to manage CDPs\ncontract IMakerCdp {\n    IDSValue  public pep; // MKR price feed\n    IMakerVox public vox; // DAI price feed\n\n    function sai() external view returns (address);  // DAI\n    function skr() external view returns (address);  // PETH\n    function gem() external view returns (address);  // WETH\n    function gov() external view returns (address);  // MKR\n\n    function lad(bytes32 cup) external view returns (address);\n    function ink(bytes32 cup) external view returns (uint);\n    function tab(bytes32 cup) external returns (uint);\n    function rap(bytes32 cup) external returns (uint);\n\n    function tag() public view returns (uint wad);\n    function mat() public view returns (uint ray);\n    function per() public view returns (uint ray);\n    function safe(bytes32 cup) external returns (bool);\n    function ask(uint wad) public view returns (uint);\n    function bid(uint wad) public view returns (uint);\n\n    function open() external returns (bytes32 cup);\n    function join(uint wad) external; // Join PETH\n    function exit(uint wad) external; // Exit PETH\n    function give(bytes32 cup, address guy) external;\n    function lock(bytes32 cup, uint wad) external;\n    function free(bytes32 cup, uint wad) external;\n    function draw(bytes32 cup, uint wad) external;\n    function wipe(bytes32 cup, uint wad) external;\n    function shut(bytes32 cup) external;\n    function bite(bytes32 cup) external;\n}\n\ninterface IMakerVox {\n    function par() external returns (uint);\n}\n\ninterface IDSValue {\n    function peek() external view returns (bytes32, bool);\n    function read() external view returns (bytes32);\n    function poke(bytes32 wut) external;\n    function void() external;\n}\n\ninterface IUniswapFactory {\n    function getExchange(address _token) external view returns(address);\n}\n\ninterface IUniswapExchange {\n    function getEthToTokenOutputPrice(uint256 _tokens_bought) external view returns (uint256);\n    function getEthToTokenInputPrice(uint256 _eth_sold) external view returns (uint256);\n    function getTokenToEthOutputPrice(uint256 _eth_bought) external view returns (uint256);\n    function getTokenToEthInputPrice(uint256 _tokens_sold) external view returns (uint256);\n}\n\n\n/**\n * @title MakerManager\n * @dev Module to borrow tokens with MakerDAO\n * @author Olivier VDB - <olivier@argent.xyz>, Julien Niset - <julien@argent.xyz>\n */\ncontract MakerManager is Loan, BaseModule, RelayerModule, OnlyOwnerModule {\n\n    bytes32 constant NAME = \"MakerManager\";\n\n    // The Maker Tub contract\n    IMakerCdp public makerCdp;\n    // The Uniswap Factory contract\n    IUniswapFactory public uniswapFactory;\n\n    // Mock token address for ETH\n    address constant internal ETH_TOKEN_ADDRESS = 0xEeeeeEeeeEeEeeEeEeEeeEEEeeeeEeeeeeeeEEeE;\n\n    // Method signatures to reduce gas cost at depoyment\n    bytes4 constant internal CDP_DRAW = bytes4(keccak256(\"draw(bytes32,uint256)\"));\n    bytes4 constant internal CDP_WIPE = bytes4(keccak256(\"wipe(bytes32,uint256)\"));\n    bytes4 constant internal CDP_SHUT = bytes4(keccak256(\"shut(bytes32)\"));\n    bytes4 constant internal CDP_JOIN = bytes4(keccak256(\"join(uint256)\"));\n    bytes4 constant internal CDP_LOCK = bytes4(keccak256(\"lock(bytes32,uint256)\"));\n    bytes4 constant internal CDP_FREE = bytes4(keccak256(\"free(bytes32,uint256)\"));\n    bytes4 constant internal CDP_EXIT = bytes4(keccak256(\"exit(uint256)\"));\n    bytes4 constant internal WETH_DEPOSIT = bytes4(keccak256(\"deposit()\"));\n    bytes4 constant internal WETH_WITHDRAW = bytes4(keccak256(\"withdraw(uint256)\"));\n    bytes4 constant internal ERC20_APPROVE = bytes4(keccak256(\"approve(address,uint256)\"));\n    bytes4 constant internal ETH_TOKEN_SWAP_OUTPUT = bytes4(keccak256(\"ethToTokenSwapOutput(uint256,uint256)\"));\n    bytes4 constant internal ETH_TOKEN_SWAP_INPUT = bytes4(keccak256(\"ethToTokenSwapInput(uint256,uint256)\"));\n    bytes4 constant internal TOKEN_ETH_SWAP_INPUT = bytes4(keccak256(\"tokenToEthSwapInput(uint256,uint256,uint256)\"));\n\n    using SafeMath for uint256;\n\n    constructor(\n        ModuleRegistry _registry,\n        GuardianStorage _guardianStorage,\n        IMakerCdp _makerCdp,\n        IUniswapFactory _uniswapFactory\n    )\n        BaseModule(_registry, _guardianStorage, NAME)\n        public\n    {\n        makerCdp = _makerCdp;\n        uniswapFactory = _uniswapFactory;\n    }\n\n    /* ********************************** Implementation of Loan ************************************* */\n\n   /**\n     * @dev Opens a collateralized loan.\n     * @param _wallet The target wallet.\n     * @param _collateral The token used as a collateral (must be 0xEeeeeEeeeEeEeeEeEeEeeEEEeeeeEeeeeeeeEEeE).\n     * @param _collateralAmount The amount of collateral token provided.\n     * @param _debtToken The token borrowed (must be the address of the DAI contract).\n     * @param _debtAmount The amount of tokens borrowed.\n     * @return The ID of the created CDP.\n     */\n    function openLoan(\n        BaseWallet _wallet,\n        address _collateral,\n        uint256 _collateralAmount,\n        address _debtToken,\n        uint256 _debtAmount\n    )\n        external\n        onlyWalletOwner(_wallet)\n        onlyWhenUnlocked(_wallet)\n        returns (bytes32 _loanId)\n    {\n        require(_collateral == ETH_TOKEN_ADDRESS, \"Maker: collateral must be ETH\");\n        require(_debtToken == makerCdp.sai(), \"Maker: debt token must be DAI\");\n        _loanId = openCdp(_wallet, _collateralAmount, _debtAmount, makerCdp);\n        emit LoanOpened(address(_wallet), _loanId, _collateral, _collateralAmount, _debtToken, _debtAmount);\n    }\n\n    /**\n     * @dev Closes a collateralized loan by repaying all debts (plus interest) and redeeming all collateral (plus interest).\n     * @param _wallet The target wallet.\n     * @param _loanId The ID of the target CDP.\n     */\n    function closeLoan(\n        BaseWallet _wallet,\n        bytes32 _loanId\n    )\n        external\n        onlyWalletOwner(_wallet)\n        onlyWhenUnlocked(_wallet)\n    {\n        closeCdp(_wallet, _loanId, makerCdp, uniswapFactory);\n        emit LoanClosed(address(_wallet), _loanId);\n    }\n\n    /**\n     * @dev Adds collateral to a loan identified by its ID.\n     * @param _wallet The target wallet.\n     * @param _loanId The ID of the target CDP.\n     * @param _collateral The token used as a collateral (must be 0xEeeeeEeeeEeEeeEeEeEeeEEEeeeeEeeeeeeeEEeE).\n     * @param _collateralAmount The amount of collateral to add.\n     */\n    function addCollateral(\n        BaseWallet _wallet,\n        bytes32 _loanId,\n        address _collateral,\n        uint256 _collateralAmount\n    )\n        external\n        onlyWalletOwner(_wallet)\n        onlyWhenUnlocked(_wallet)\n    {\n        require(_collateral == ETH_TOKEN_ADDRESS, \"Maker: collateral must be ETH\");\n        addCollateral(_wallet, _loanId, _collateralAmount, makerCdp);\n        emit CollateralAdded(address(_wallet), _loanId, _collateral, _collateralAmount);\n    }\n\n    /**\n     * @dev Removes collateral from a loan identified by its ID.\n     * @param _wallet The target wallet.\n     * @param _loanId The ID of the target CDP.\n     * @param _collateral The token used as a collateral (must be 0xEeeeeEeeeEeEeeEeEeEeeEEEeeeeEeeeeeeeEEeE).\n     * @param _collateralAmount The amount of collateral to remove.\n     */\n    function removeCollateral(\n        BaseWallet _wallet,\n        bytes32 _loanId,\n        address _collateral,\n        uint256 _collateralAmount\n    )\n        external\n        onlyWalletOwner(_wallet)\n        onlyWhenUnlocked(_wallet)\n    {\n        require(_collateral == ETH_TOKEN_ADDRESS, \"Maker: collateral must be ETH\");\n        removeCollateral(_wallet, _loanId, _collateralAmount, makerCdp);\n        emit CollateralRemoved(address(_wallet), _loanId, _collateral, _collateralAmount);\n    }\n\n    /**\n     * @dev Increases the debt by borrowing more token from a loan identified by its ID.\n     * @param _wallet The target wallet.\n     * @param _loanId The ID of the target CDP.\n     * @param _debtToken The token borrowed (must be the address of the DAI contract).\n     * @param _debtAmount The amount of token to borrow.\n     */\n    function addDebt(\n        BaseWallet _wallet,\n        bytes32 _loanId,\n        address _debtToken,\n        uint256 _debtAmount\n    )\n        external\n        onlyWalletOwner(_wallet)\n        onlyWhenUnlocked(_wallet)\n    {\n        require(_debtToken == makerCdp.sai(), \"Maker: debt token must be DAI\");\n        addDebt(_wallet, _loanId, _debtAmount, makerCdp);\n        emit DebtAdded(address(_wallet), _loanId, _debtToken, _debtAmount);\n    }\n\n    /**\n     * @dev Decreases the debt by repaying some token from a loan identified by its ID.\n     * @param _wallet The target wallet.\n     * @param _loanId The ID of the target CDP.\n     * @param _debtToken The token to repay (must be the address of the DAI contract).\n     * @param _debtAmount The amount of token to repay.\n     */\n    function removeDebt(\n        BaseWallet _wallet,\n        bytes32 _loanId,\n        address _debtToken,\n        uint256 _debtAmount\n    )\n        external\n        onlyWalletOwner(_wallet)\n        onlyWhenUnlocked(_wallet)\n    {\n        require(_debtToken == makerCdp.sai(), \"Maker: debt token must be DAI\");\n        removeDebt(_wallet, _loanId, _debtAmount, makerCdp, uniswapFactory);\n        emit DebtRemoved(address(_wallet), _loanId, _debtToken, _debtAmount);\n    }\n\n    /**\n     * @dev Gets information about a loan identified by its ID.\n     * @param _loanId The ID of the target CDP.\n     * @return a status [0: no loan, 1: loan is safe, 2: loan is unsafe and can be liquidated, 3: loan exists but we are unable to provide info]\n     * and a value (in ETH) representing the value that could still be borrowed when status = 1; or the value of the collateral that should be added to\n     * avoid liquidation when status = 2.\n     */\n    function getLoan(\n        BaseWallet /* _wallet */,\n        bytes32 _loanId\n    )\n        external\n        view\n        returns (uint8 _status, uint256 _ethValue)\n    {\n        if (exists(_loanId, makerCdp)) {\n            return (3,0);\n        }\n        return (0,0);\n    }\n\n    /* *********************************** Maker wrappers ************************************* */\n\n    /* CDP actions */\n\n    /**\n     * @dev Lets the owner of a wallet open a new CDP. The owner must have enough ether\n     * in their wallet. The required amount of ether will be automatically converted to\n     * PETH and used as collateral in the CDP.\n     * @param _wallet The target wallet\n     * @param _pethCollateral The amount of PETH to lock as collateral in the CDP.\n     * @param _daiDebt The amount of DAI to draw from the CDP\n     * @param _makerCdp The Maker CDP contract\n     * @return The id of the created CDP.\n     */\n    function openCdp(\n        BaseWallet _wallet,\n        uint256 _pethCollateral,\n        uint256 _daiDebt,\n        IMakerCdp _makerCdp\n    )\n        internal\n        returns (bytes32 _cup)\n    {\n        // Open CDP (CDP owner will be module)\n        _cup = _makerCdp.open();\n        // Transfer CDP ownership to wallet\n        _makerCdp.give(_cup, address(_wallet));\n        // Convert ETH to PETH & lock PETH into CDP\n        lockETH(_wallet, _cup, _pethCollateral, _makerCdp);\n        // Draw DAI from CDP\n        if (_daiDebt > 0) {\n            invokeWallet(address(_wallet), address(_makerCdp), 0, abi.encodeWithSelector(CDP_DRAW, _cup, _daiDebt));\n        }\n    }\n\n    /**\n     * @dev Lets the owner of a CDP add more collateral to their CDP. The owner must have enough ether\n     * in their wallet. The required amount of ether will be automatically converted to\n     * PETH and locked in the CDP.\n     * @param _wallet The target wallet\n     * @param _cup The id of the CDP.\n     * @param _amount The amount of additional PETH to lock as collateral in the CDP.\n     * @param _makerCdp The Maker CDP contract\n     */\n    function addCollateral(\n        BaseWallet _wallet,\n        bytes32 _cup,\n        uint256 _amount,\n        IMakerCdp _makerCdp\n    )\n        internal\n    {\n        // _wallet must be owner of CDP\n        require(address(_wallet) == _makerCdp.lad(_cup), \"CM: not CDP owner\");\n        // convert ETH to PETH & lock PETH into CDP\n        lockETH(_wallet, _cup, _amount, _makerCdp);\n    }\n\n    /**\n     * @dev Lets the owner of a CDP remove some collateral from their CDP\n     * @param _wallet The target wallet\n     * @param _cup The id of the CDP.\n     * @param _amount The amount of PETH to remove from the CDP.\n     * @param _makerCdp The Maker CDP contract\n     */\n    function removeCollateral(\n        BaseWallet _wallet,\n        bytes32 _cup,\n        uint256 _amount,\n        IMakerCdp _makerCdp\n    )\n        internal\n    {\n        // unlock PETH from CDP & convert PETH to ETH\n        freeETH(_wallet, _cup, _amount, _makerCdp);\n    }\n\n    /**\n     * @dev Lets the owner of a CDP draw more DAI from their CDP.\n     * @param _wallet The target wallet\n     * @param _cup The id of the CDP.\n     * @param _amount The amount of additional DAI to draw from the CDP.\n     * @param _makerCdp The Maker CDP contract\n     */\n    function addDebt(\n        BaseWallet _wallet,\n        bytes32 _cup,\n        uint256 _amount,\n        IMakerCdp _makerCdp\n    )\n        internal\n    {\n        // draw DAI from CDP\n        invokeWallet(address(_wallet), address(_makerCdp), 0, abi.encodeWithSelector(CDP_DRAW, _cup, _amount));\n    }\n\n    /**\n     * @dev Lets the owner of a CDP partially repay their debt. The repayment is made up of\n     * the outstanding DAI debt (including the stability fee if non-zero) plus the MKR governance fee.\n     * The method will use the user's MKR tokens in priority and will, if needed, convert the required\n     * amount of ETH to cover for any missing MKR tokens.\n     * @param _wallet The target wallet\n     * @param _cup The id of the CDP.\n     * @param _amount The amount of DAI debt to repay.\n     * @param _makerCdp The Maker CDP contract\n     * @param _uniswapFactory The Uniswap Factory contract.\n     */\n    function removeDebt(\n        BaseWallet _wallet,\n        bytes32 _cup,\n        uint256 _amount,\n        IMakerCdp _makerCdp,\n        IUniswapFactory _uniswapFactory\n    )\n        internal\n    {\n        // _wallet must be owner of CDP\n        require(address(_wallet) == _makerCdp.lad(_cup), \"CM: not CDP owner\");\n        // get governance fee in MKR\n        uint256 mkrFee = governanceFeeInMKR(_cup, _amount, _makerCdp);\n        // get MKR balance\n        address mkrToken = _makerCdp.gov();\n        uint256 mkrBalance = ERC20(mkrToken).balanceOf(address(_wallet));\n        if (mkrBalance < mkrFee) {\n            // Not enough MKR => Convert some ETH into MKR with Uniswap\n            address mkrUniswap = _uniswapFactory.getExchange(mkrToken);\n            uint256 etherValueOfMKR = IUniswapExchange(mkrUniswap).getEthToTokenOutputPrice(mkrFee - mkrBalance);\n            invokeWallet(address(_wallet), mkrUniswap, etherValueOfMKR, abi.encodeWithSelector(ETH_TOKEN_SWAP_OUTPUT, mkrFee - mkrBalance, block.timestamp));\n        }\n\n        // get DAI balance\n        address daiToken = _makerCdp.sai();\n        uint256 daiBalance = ERC20(daiToken).balanceOf(address(_wallet));\n        if (daiBalance < _amount) {\n            // Not enough DAI => Convert some ETH into DAI with Uniswap\n            address daiUniswap = _uniswapFactory.getExchange(daiToken);\n            uint256 etherValueOfDAI = IUniswapExchange(daiUniswap).getEthToTokenOutputPrice(_amount - daiBalance);\n            invokeWallet(address(_wallet), daiUniswap, etherValueOfDAI, abi.encodeWithSelector(ETH_TOKEN_SWAP_OUTPUT, _amount - daiBalance, block.timestamp));\n        }\n\n        // Approve DAI to let wipe() repay the DAI debt\n        invokeWallet(address(_wallet), daiToken, 0, abi.encodeWithSelector(ERC20_APPROVE, address(_makerCdp), _amount));\n        // Approve MKR to let wipe() pay the MKR governance fee\n        invokeWallet(address(_wallet), mkrToken, 0, abi.encodeWithSelector(ERC20_APPROVE, address(_makerCdp), mkrFee));\n        // repay DAI debt and MKR governance fee\n        invokeWallet(address(_wallet), address(_makerCdp), 0, abi.encodeWithSelector(CDP_WIPE, _cup, _amount));\n    }\n\n    /**\n     * @dev Lets the owner of a CDP close their CDP. The method will 1) repay all debt\n     * and governance fee, 2) free all collateral, and 3) delete the CDP.\n     * @param _wallet The target wallet\n     * @param _cup The id of the CDP.\n     * @param _makerCdp The Maker CDP contract\n     * @param _uniswapFactory The Uniswap Factory contract.\n     */\n    function closeCdp(\n        BaseWallet _wallet,\n        bytes32 _cup,\n        IMakerCdp _makerCdp,\n        IUniswapFactory _uniswapFactory\n    )\n        internal\n    {\n        // repay all debt (in DAI) + stability fee (in DAI) + governance fee (in MKR)\n        uint debt = daiDebt(_cup, _makerCdp);\n        if (debt > 0)\n            removeDebt(_wallet, _cup, debt, _makerCdp, _uniswapFactory);\n        // free all ETH collateral\n        uint collateral = pethCollateral(_cup, _makerCdp);\n        if (collateral > 0)\n            removeCollateral(_wallet, _cup, collateral, _makerCdp);\n        // shut the CDP\n        invokeWallet(address(_wallet), address(_makerCdp), 0, abi.encodeWithSelector(CDP_SHUT, _cup));\n    }\n\n    /* Convenience methods */\n\n    /**\n     * @dev Returns the amount of PETH collateral locked in a CDP.\n     * @param _cup The id of the CDP.\n     * @param _makerCdp The Maker CDP contract\n     * @return the amount of PETH locked in the CDP.\n     */\n    function pethCollateral(bytes32 _cup, IMakerCdp _makerCdp) public view returns (uint256) {\n        return _makerCdp.ink(_cup);\n    }\n\n    /**\n     * @dev Returns the amount of DAI debt (including the stability fee if non-zero) drawn from a CDP.\n     * @param _cup The id of the CDP.\n     * @param _makerCdp The Maker CDP contract\n     * @return the amount of DAI drawn from the CDP.\n     */\n    function daiDebt(bytes32 _cup, IMakerCdp _makerCdp) public returns (uint256) {\n        return _makerCdp.tab(_cup);\n    }\n\n    /**\n     * @dev Indicates whether a CDP is above the liquidation ratio.\n     * @param _cup The id of the CDP.\n     * @param _makerCdp The Maker CDP contract\n     * @return false if the CDP is in danger of being liquidated.\n     */\n    function isSafe(bytes32 _cup, IMakerCdp _makerCdp) public returns (bool) {\n        return _makerCdp.safe(_cup);\n    }\n\n    /**\n     * @dev Checks if a CDP exists.\n     * @param _cup The id of the CDP.\n     * @param _makerCdp The Maker CDP contract\n     * @return true if the CDP exists, false otherwise.\n     */\n    function exists(bytes32 _cup, IMakerCdp _makerCdp) public view returns (bool) {\n        return _makerCdp.lad(_cup) != address(0);\n    }\n\n    /**\n     * @dev Max amount of DAI that can still be drawn from a CDP while keeping it above the liquidation ratio.\n     * @param _cup The id of the CDP.\n     * @param _makerCdp The Maker CDP contract\n     * @return the amount of DAI that can still be drawn from a CDP while keeping it above the liquidation ratio.\n     */\n    function maxDaiDrawable(bytes32 _cup, IMakerCdp _makerCdp) public returns (uint256) {\n        uint256 maxTab = _makerCdp.ink(_cup).rmul(_makerCdp.tag()).rdiv(_makerCdp.vox().par()).rdiv(_makerCdp.mat());\n        return maxTab.sub(_makerCdp.tab(_cup));\n    }\n\n    /**\n     * @dev Min amount of collateral that needs to be added to a CDP to bring it above the liquidation ratio.\n     * @param _cup The id of the CDP.\n     * @param _makerCdp The Maker CDP contract\n     * @return the amount of collateral that needs to be added to a CDP to bring it above the liquidation ratio.\n     */\n    function minCollateralRequired(bytes32 _cup, IMakerCdp _makerCdp) public returns (uint256) {\n        uint256 minInk = _makerCdp.tab(_cup).rmul(_makerCdp.mat()).rmul(_makerCdp.vox().par()).rdiv(_makerCdp.tag());\n        return minInk.sub(_makerCdp.ink(_cup));\n    }\n\n    /**\n     * @dev Returns the governance fee in MKR.\n     * @param _cup The id of the CDP.\n     * @param _daiRefund The amount of DAI debt being repaid.\n     * @param _makerCdp The Maker CDP contract\n     * @return the governance fee in MKR\n     */\n    function governanceFeeInMKR(bytes32 _cup, uint256 _daiRefund, IMakerCdp _makerCdp) public returns (uint256 _fee) {\n        uint debt = daiDebt(_cup, _makerCdp);\n        if (debt == 0)\n            return 0;\n        uint256 feeInDAI = _daiRefund.rmul(_makerCdp.rap(_cup).rdiv(debt));\n        (bytes32 daiPerMKR, bool ok) = _makerCdp.pep().peek();\n        if (ok && daiPerMKR != 0)\n            _fee = feeInDAI.wdiv(uint(daiPerMKR));\n    }\n\n    /**\n     * @dev Returns the total MKR governance fee to be paid before this CDP can be closed.\n     * @param _cup The id of the CDP.\n     * @param _makerCdp The Maker CDP contract\n     * @return the total governance fee in MKR\n     */\n    function totalGovernanceFeeInMKR(bytes32 _cup, IMakerCdp _makerCdp) external returns (uint256 _fee) {\n        return governanceFeeInMKR(_cup, daiDebt(_cup, _makerCdp), _makerCdp);\n    }\n\n    /**\n     * @dev Minimum amount of PETH that must be locked in a CDP for it to be deemed \"safe\"\n     * @param _cup The id of the CDP.\n     * @param _makerCdp The Maker CDP contract\n     * @return The minimum amount of PETH to lock in the CDP\n     */\n    function minRequiredCollateral(bytes32 _cup, IMakerCdp _makerCdp) public returns (uint256 _minCollateral) {\n        _minCollateral = daiDebt(_cup, _makerCdp)    // DAI debt\n            .rmul(_makerCdp.vox().par())         // x ~1 USD/DAI\n            .rmul(_makerCdp.mat())               // x 1.5\n            .rmul(1010000000000000000000000000) // x (1+1%) cushion\n            .rdiv(_makerCdp.tag());              //  ~170 USD/PETH\n    }\n\n    /* *********************************** Utilities ************************************* */\n\n    /**\n     * @dev Converts a user's ETH into PETH and locks the PETH in a CDP\n     * @param _wallet The target wallet\n     * @param _cup The id of the CDP.\n     * @param _pethAmount The amount of PETH to buy and lock\n     * @param _makerCdp The Maker CDP contract\n     */\n    function lockETH(\n        BaseWallet _wallet,\n        bytes32 _cup,\n        uint256 _pethAmount,\n        IMakerCdp _makerCdp\n    )\n        internal\n    {\n        // 1. Convert ETH to PETH\n        address wethToken = _makerCdp.gem();\n        // Get WETH/PETH rate\n        uint ethAmount = _makerCdp.ask(_pethAmount);\n        // ETH to WETH\n        invokeWallet(address(_wallet), wethToken, ethAmount, abi.encodeWithSelector(WETH_DEPOSIT));\n        // Approve WETH\n        invokeWallet(address(_wallet), wethToken, 0, abi.encodeWithSelector(ERC20_APPROVE, address(_makerCdp), ethAmount));\n        // WETH to PETH\n        invokeWallet(address(_wallet), address(_makerCdp), 0, abi.encodeWithSelector(CDP_JOIN, _pethAmount));\n\n        // 2. Lock PETH into CDP\n        address pethToken = _makerCdp.skr();\n        // Approve PETH\n        invokeWallet(address(_wallet), pethToken, 0, abi.encodeWithSelector(ERC20_APPROVE, address(_makerCdp), _pethAmount));\n        // lock PETH into CDP\n        invokeWallet(address(_wallet), address(_makerCdp), 0, abi.encodeWithSelector(CDP_LOCK, _cup, _pethAmount));\n    }\n\n    /**\n     * @dev Unlocks PETH from a user's CDP and converts it back to ETH\n     * @param _wallet The target wallet\n     * @param _cup The id of the CDP.\n     * @param _pethAmount The amount of PETH to unlock and sell\n     * @param _makerCdp The Maker CDP contract\n     */\n    function freeETH(\n        BaseWallet _wallet,\n        bytes32 _cup,\n        uint256 _pethAmount,\n        IMakerCdp _makerCdp\n    )\n        internal\n    {\n        // 1. Unlock PETH\n\n        // Unlock PETH from CDP\n        invokeWallet(address(_wallet), address(_makerCdp), 0, abi.encodeWithSelector(CDP_FREE, _cup, _pethAmount));\n\n        // 2. Convert PETH to ETH\n        address wethToken = _makerCdp.gem();\n        address pethToken = _makerCdp.skr();\n        // Approve PETH\n        invokeWallet(address(_wallet), pethToken, 0, abi.encodeWithSelector(ERC20_APPROVE, address(_makerCdp), _pethAmount));\n        // PETH to WETH\n        invokeWallet(address(_wallet), address(_makerCdp), 0, abi.encodeWithSelector(CDP_EXIT, _pethAmount));\n        // Get WETH/PETH rate\n        uint ethAmount = _makerCdp.bid(_pethAmount);\n        // WETH to ETH\n        invokeWallet(address(_wallet), wethToken, 0, abi.encodeWithSelector(WETH_WITHDRAW, ethAmount));\n    }\n\n    /**\n     * @dev Conversion rate between DAI and MKR\n     * @param _makerCdp The Maker CDP contract\n     * @return The amount of DAI per MKR\n     */\n    function daiPerMkr(IMakerCdp _makerCdp) internal view returns (uint256 _daiPerMKR) {\n        (bytes32 daiPerMKR_, bool ok) = _makerCdp.pep().peek();\n        require(ok && daiPerMKR_ != 0, \"LM: invalid DAI/MKR rate\");\n        _daiPerMKR = uint256(daiPerMKR_);\n    }\n}\n",
  "sourcePath": "/Users/name/dev/smartcontracts/contracts/modules/MakerManager.sol",
  "compiler": {
    "name": "solc",
    "version": "0.5.4+commit.9549d8ff.Emscripten.clang",
    "optimizer": true,
    "runs": 999
  },
  "schemaVersion": "2.3.1",
  "updatedAt": "2020-04-01T21:49:53.414Z"
}