{
  "contractName": "MakerV2Manager",
  "abi": [
    {
      "constant": false,
      "inputs": [
        {
          "name": "_wallet",
          "type": "address"
        }
      ],
      "name": "init",
      "outputs": [],
      "payable": false,
      "stateMutability": "nonpayable",
      "type": "function"
    },
    {
      "constant": true,
      "inputs": [
        {
          "name": "_wallet",
          "type": "address"
        }
      ],
      "name": "getNonce",
      "outputs": [
        {
          "name": "nonce",
          "type": "uint256"
        }
      ],
      "payable": false,
      "stateMutability": "view",
      "type": "function"
    },
    {
      "constant": true,
      "inputs": [],
      "name": "vat",
      "outputs": [
        {
          "name": "",
          "type": "address"
        }
      ],
      "payable": false,
      "stateMutability": "view",
      "type": "function"
    },
    {
      "constant": true,
      "inputs": [],
      "name": "pot",
      "outputs": [
        {
          "name": "",
          "type": "address"
        }
      ],
      "payable": false,
      "stateMutability": "view",
      "type": "function"
    },
    {
      "constant": false,
      "inputs": [
        {
          "name": "_wallet",
          "type": "address"
        },
        {
          "name": "_module",
          "type": "address"
        }
      ],
      "name": "addModule",
      "outputs": [],
      "payable": false,
      "stateMutability": "nonpayable",
      "type": "function"
    },
    {
      "constant": false,
      "inputs": [
        {
          "name": "_token",
          "type": "address"
        }
      ],
      "name": "recoverToken",
      "outputs": [],
      "payable": false,
      "stateMutability": "nonpayable",
      "type": "function"
    },
    {
      "constant": true,
      "inputs": [],
      "name": "saiToken",
      "outputs": [
        {
          "name": "",
          "type": "address"
        }
      ],
      "payable": false,
      "stateMutability": "view",
      "type": "function"
    },
    {
      "constant": false,
      "inputs": [
        {
          "name": "_wallet",
          "type": "address"
        },
        {
          "name": "_data",
          "type": "bytes"
        },
        {
          "name": "_nonce",
          "type": "uint256"
        },
        {
          "name": "_signatures",
          "type": "bytes"
        },
        {
          "name": "_gasPrice",
          "type": "uint256"
        },
        {
          "name": "_gasLimit",
          "type": "uint256"
        }
      ],
      "name": "execute",
      "outputs": [
        {
          "name": "success",
          "type": "bool"
        }
      ],
      "payable": false,
      "stateMutability": "nonpayable",
      "type": "function"
    },
    {
      "constant": true,
      "inputs": [],
      "name": "daiToken",
      "outputs": [
        {
          "name": "",
          "type": "address"
        }
      ],
      "payable": false,
      "stateMutability": "view",
      "type": "function"
    },
    {
      "constant": true,
      "inputs": [],
      "name": "daiJoin",
      "outputs": [
        {
          "name": "",
          "type": "address"
        }
      ],
      "payable": false,
      "stateMutability": "view",
      "type": "function"
    },
    {
      "constant": true,
      "inputs": [
        {
          "name": "",
          "type": "address"
        }
      ],
      "name": "relayer",
      "outputs": [
        {
          "name": "nonce",
          "type": "uint256"
        }
      ],
      "payable": false,
      "stateMutability": "view",
      "type": "function"
    },
    {
      "constant": true,
      "inputs": [],
      "name": "isOnlyOwnerModule",
      "outputs": [
        {
          "name": "",
          "type": "bytes4"
        }
      ],
      "payable": false,
      "stateMutability": "pure",
      "type": "function"
    },
    {
      "constant": true,
      "inputs": [],
      "name": "scdMcdMigration",
      "outputs": [
        {
          "name": "",
          "type": "address"
        }
      ],
      "payable": false,
      "stateMutability": "view",
      "type": "function"
    },
    {
      "inputs": [
        {
          "name": "_registry",
          "type": "address"
        },
        {
          "name": "_guardianStorage",
          "type": "address"
        },
        {
          "name": "_scdMcdMigration",
          "type": "address"
        },
        {
          "name": "_pot",
          "type": "address"
        }
      ],
      "payable": false,
      "stateMutability": "nonpayable",
      "type": "constructor"
    },
    {
      "anonymous": false,
      "inputs": [
        {
          "indexed": true,
          "name": "_wallet",
          "type": "address"
        },
        {
          "indexed": false,
          "name": "_srcToken",
          "type": "address"
        },
        {
          "indexed": false,
          "name": "_srcAmount",
          "type": "uint256"
        },
        {
          "indexed": false,
          "name": "_destToken",
          "type": "address"
        },
        {
          "indexed": false,
          "name": "_destAmount",
          "type": "uint256"
        }
      ],
      "name": "TokenConverted",
      "type": "event"
    },
    {
      "anonymous": false,
      "inputs": [
        {
          "indexed": true,
          "name": "wallet",
          "type": "address"
        },
        {
          "indexed": true,
          "name": "success",
          "type": "bool"
        },
        {
          "indexed": false,
          "name": "signedHash",
          "type": "bytes32"
        }
      ],
      "name": "TransactionExecuted",
      "type": "event"
    },
    {
      "anonymous": false,
      "inputs": [
        {
          "indexed": false,
          "name": "name",
          "type": "bytes32"
        }
      ],
      "name": "ModuleCreated",
      "type": "event"
    },
    {
      "anonymous": false,
      "inputs": [
        {
          "indexed": false,
          "name": "wallet",
          "type": "address"
        }
      ],
      "name": "ModuleInitialised",
      "type": "event"
    },
    {
      "anonymous": false,
      "inputs": [
        {
          "indexed": true,
          "name": "_wallet",
          "type": "address"
        },
        {
          "indexed": false,
          "name": "_token",
          "type": "address"
        },
        {
          "indexed": false,
          "name": "_invested",
          "type": "uint256"
        },
        {
          "indexed": false,
          "name": "_period",
          "type": "uint256"
        }
      ],
      "name": "InvestmentAdded",
      "type": "event"
    },
    {
      "anonymous": false,
      "inputs": [
        {
          "indexed": true,
          "name": "_wallet",
          "type": "address"
        },
        {
          "indexed": false,
          "name": "_token",
          "type": "address"
        },
        {
          "indexed": false,
          "name": "_fraction",
          "type": "uint256"
        }
      ],
      "name": "InvestmentRemoved",
      "type": "event"
    },
    {
      "constant": false,
      "inputs": [
        {
          "name": "_wallet",
          "type": "address"
        },
        {
          "name": "_token",
          "type": "address"
        },
        {
          "name": "_amount",
          "type": "uint256"
        },
        {
          "name": "_period",
          "type": "uint256"
        }
      ],
      "name": "addInvestment",
      "outputs": [
        {
          "name": "_invested",
          "type": "uint256"
        }
      ],
      "payable": false,
      "stateMutability": "nonpayable",
      "type": "function"
    },
    {
      "constant": false,
      "inputs": [
        {
          "name": "_wallet",
          "type": "address"
        },
        {
          "name": "_token",
          "type": "address"
        },
        {
          "name": "_fraction",
          "type": "uint256"
        }
      ],
      "name": "removeInvestment",
      "outputs": [],
      "payable": false,
      "stateMutability": "nonpayable",
      "type": "function"
    },
    {
      "constant": true,
      "inputs": [
        {
          "name": "_wallet",
          "type": "address"
        },
        {
          "name": "_token",
          "type": "address"
        }
      ],
      "name": "getInvestment",
      "outputs": [
        {
          "name": "_tokenValue",
          "type": "uint256"
        },
        {
          "name": "_periodEnd",
          "type": "uint256"
        }
      ],
      "payable": false,
      "stateMutability": "view",
      "type": "function"
    },
    {
      "constant": true,
      "inputs": [
        {
          "name": "_wallet",
          "type": "address"
        }
      ],
      "name": "dsrBalance",
      "outputs": [
        {
          "name": "",
          "type": "uint256"
        }
      ],
      "payable": false,
      "stateMutability": "view",
      "type": "function"
    },
    {
      "constant": false,
      "inputs": [
        {
          "name": "_wallet",
          "type": "address"
        },
        {
          "name": "_amount",
          "type": "uint256"
        }
      ],
      "name": "joinDsr",
      "outputs": [],
      "payable": false,
      "stateMutability": "nonpayable",
      "type": "function"
    },
    {
      "constant": false,
      "inputs": [
        {
          "name": "_wallet",
          "type": "address"
        },
        {
          "name": "_amount",
          "type": "uint256"
        }
      ],
      "name": "exitDsr",
      "outputs": [],
      "payable": false,
      "stateMutability": "nonpayable",
      "type": "function"
    },
    {
      "constant": false,
      "inputs": [
        {
          "name": "_wallet",
          "type": "address"
        }
      ],
      "name": "exitAllDsr",
      "outputs": [],
      "payable": false,
      "stateMutability": "nonpayable",
      "type": "function"
    },
    {
      "constant": false,
      "inputs": [
        {
          "name": "_wallet",
          "type": "address"
        },
        {
          "name": "_amount",
          "type": "uint256"
        }
      ],
      "name": "swapSaiToDai",
      "outputs": [],
      "payable": false,
      "stateMutability": "nonpayable",
      "type": "function"
    },
    {
      "constant": false,
      "inputs": [
        {
          "name": "_wallet",
          "type": "address"
        },
        {
          "name": "_amount",
          "type": "uint256"
        }
      ],
      "name": "swapDaiToSai",
      "outputs": [],
      "payable": false,
      "stateMutability": "nonpayable",
      "type": "function"
    }
  ],
  "bytecode": "0x60806040523480156200001157600080fd5b5060405160808062003704833981018060405260808110156200003357600080fd5b50805160208083015160408085015160609095015160008054600160a060020a03808816600160a060020a031992831617909255600180549286169290911691909117905581517f4d616b657256324d616e61676572000000000000000000000000000000000000808252925195969395939491938793879390927f3019c8fc80239e3dff8f781212ae2004839c2cb61d6c70acd279ac65392145df929081900390910190a1505060058054600160a060020a031916600160a060020a038516908117909155604080517f0b14408f0000000000000000000000000000000000000000000000000000000081529051919250630b14408f916004808301926020929190829003018186803b1580156200014b57600080fd5b505afa15801562000160573d6000803e3d6000fd5b505050506040513d60208110156200017757600080fd5b5051604080517f7bd2bea70000000000000000000000000000000000000000000000000000000081529051600160a060020a0390921691637bd2bea7916004808201926020929091908290030181600087803b158015620001d757600080fd5b505af1158015620001ec573d6000803e3d6000fd5b505050506040513d60208110156200020357600080fd5b505160038054600160a060020a031916600160a060020a03928316179055604080517fc11645bc00000000000000000000000000000000000000000000000000000000815290519184169163c11645bc91600480820192602092909190829003018186803b1580156200027557600080fd5b505afa1580156200028a573d6000803e3d6000fd5b505050506040513d6020811015620002a157600080fd5b505160078054600160a060020a031916600160a060020a039283161790819055604080517f36569e77000000000000000000000000000000000000000000000000000000008152905191909216916336569e77916004808301926020929190829003018186803b1580156200031557600080fd5b505afa1580156200032a573d6000803e3d6000fd5b505050506040513d60208110156200034157600080fd5b505160088054600160a060020a031916600160a060020a03928316179055600754604080517ff4b9fa750000000000000000000000000000000000000000000000000000000081529051919092169163f4b9fa759160048083019260209291908290030181600087803b158015620003b857600080fd5b505af1158015620003cd573d6000803e3d6000fd5b505050506040513d6020811015620003e457600080fd5b505160048054600160a060020a03928316600160a060020a031991821617909155600680549390921692169190911790555050506132dc80620004286000396000f3fe608060405234801561001057600080fd5b506004361061019f576000357c0100000000000000000000000000000000000000000000000000000000900480639be65a60116100f5578063c11645bc116100a9578063d490da4d11610083578063d490da4d1461052b578063d9b6ccbf14610556578063ec9e13aa1461055e5761019f565b8063c11645bc146104b6578063c9b5ef8e146104be578063cac7495c146104e45761019f565b8063aacaaf88116100da578063aacaaf8814610398578063ae8d246814610488578063be22f546146104ae5761019f565b80639be65a601461036a578063a30184de146103905761019f565b806336569e77116101575780638c544246116101315780638c544246146102dc5780638d3e0a691461030857806398d53428146103345761019f565b806336569e77146102825780634ba2363a146102a65780635a1db8c4146102ae5761019f565b8063288596a611610188578063288596a6146101f85780632c5ba768146102245780632d0335ab1461024a5761019f565b80630227efa2146101a457806319ab453c146101d2575b600080fd5b6101d0600480360360408110156101ba57600080fd5b50600160a060020a03813516906020013561059a565b005b6101d0600480360360208110156101e857600080fd5b5035600160a060020a0316610b84565b6101d06004803603604081101561020e57600080fd5b50600160a060020a038135169060200135610c2a565b6101d06004803603602081101561023a57600080fd5b5035600160a060020a0316610fff565b6102706004803603602081101561026057600080fd5b5035600160a060020a03166115a7565b60408051918252519081900360200190f35b61028a6115c2565b60408051600160a060020a039092168252519081900360200190f35b61028a6115d1565b6101d0600480360360408110156102c457600080fd5b50600160a060020a03813581169160200135166115e0565b6101d0600480360360408110156102f257600080fd5b50600160a060020a0381351690602001356117ae565b6101d06004803603604081101561031e57600080fd5b50600160a060020a038135169060200135611b81565b6101d06004803603606081101561034a57600080fd5b50600160a060020a03813581169160208101359091169060400135612258565b6101d06004803603602081101561038057600080fd5b5035600160a060020a031661239b565b61028a6124ce565b610474600480360360c08110156103ae57600080fd5b600160a060020a0382351691908101906040810160208201356401000000008111156103d957600080fd5b8201836020820111156103eb57600080fd5b8035906020019184600183028401116401000000008311171561040d57600080fd5b9193909282359260408101906020013564010000000081111561042f57600080fd5b82018360208201111561044157600080fd5b8035906020019184600183028401116401000000008311171561046357600080fd5b9193509150803590602001356124dd565b604080519115158252519081900360200190f35b6102706004803603602081101561049e57600080fd5b5035600160a060020a03166127c5565b61028a6128d9565b61028a6128e8565b610270600480360360208110156104d457600080fd5b5035600160a060020a03166128f7565b610512600480360360408110156104fa57600080fd5b50600160a060020a0381358116916020013516612909565b6040805192835260208301919091528051918290030190f35b61053361293e565b6040805160008051602061322e8339815191529092168252519081900360200190f35b61028a612962565b6102706004803603608081101561057457600080fd5b50600160a060020a03813581169160208101359091169060408101359060600135612971565b81333014806105ae57506105ae8133612a44565b15156105f35760405160008051602061324e833981519152815260040180806020018281038252602381526020018061326e6023913960400191505060405180910390fd5b600154604080517f4a4fbeec000000000000000000000000000000000000000000000000000000008152600160a060020a038087166004830152915186939290921691634a4fbeec91602480820192602092909190829003018186803b15801561065c57600080fd5b505afa158015610670573d6000803e3d6000fd5b505050506040513d602081101561068657600080fd5b5051156106e2576040805160008051602061324e833981519152815260206004820152601b60248201527f424d3a2077616c6c6574206d75737420626520756e6c6f636b65640000000000604482015290519081900360640190fd5b600660009054906101000a9004600160a060020a0316600160a060020a0316639f678cca6040518163ffffffff167c0100000000000000000000000000000000000000000000000000000000028152600401600060405180830381600087803b15801561074e57600080fd5b505af1158015610762573d6000803e3d6000fd5b505050506000600660009054906101000a9004600160a060020a0316600160a060020a031663c92aecc46040518163ffffffff167c010000000000000000000000000000000000000000000000000000000002815260040160206040518083038186803b1580156107d257600080fd5b505afa1580156107e6573d6000803e3d6000fd5b505050506040513d60208110156107fc57600080fd5b505161081a856b033b2e3c9fd0803ce800000063ffffffff612ae416565b81151561082357fe5b600654604080517f657869742875696e7432353629000000000000000000000000000000000000008152815190819003600d0181209490930460248085018290528251808603909101815260449094019091526020830180516000805160206132918339815191521660008051602061322e833981519152909516949094179093529192506108c2918791600160a060020a0390911690600090612b16565b50600854600754604080517f4538c4eb000000000000000000000000000000000000000000000000000000008152600160a060020a038981166004830152928316602482015290519190921691634538c4eb916044808301926020929190829003018186803b15801561093457600080fd5b505afa158015610948573d6000803e3d6000fd5b505050506040513d602081101561095e57600080fd5b50511515610a0457600854604080517f686f7065286164647265737329000000000000000000000000000000000000008152815190819003600d018120600754600160a060020a039081166024808501919091528451808503909101815260449093019093526020820180516000805160206132918339815191521660008051602061322e833981519152909216919091179052610a029288921690600090612b16565b505b600854604080517f6c25b346000000000000000000000000000000000000000000000000000000008152600160a060020a03888116600483015291516000939290921691636c25b34691602480820192602092909190829003018186803b158015610a6e57600080fd5b505afa158015610a82573d6000803e3d6000fd5b505050506040513d6020811015610a9857600080fd5b505190506000610aba866b033b2e3c9fd0803ce800000063ffffffff612ae416565b821015610ad5576b033b2e3c9fd0803ce80000008204610ad7565b855b600754604080517f6578697428616464726573732c75696e7432353629000000000000000000000081528151908190036015018120600160a060020a03808d16602484015260448084018790528451808503909101815260649093019093526020820180516000805160206132918339815191521660008051602061322e833981519152909216919091179052929350610b7a928a929190911690600090612b16565b5050505050505050565b8033600160a060020a03821614610bea576040805160008051602061324e833981519152815260206004820152601960248201527f424d3a2063616c6c6572206d7573742062652077616c6c657400000000000000604482015290519081900360640190fd5b60408051600160a060020a038416815290517f9fcca3f73f85397e2bf03647abf243c20b753bd54463ff3cae74de2971c112fa9181900360200190a15050565b8133301480610c3e5750610c3e8133612a44565b1515610c835760405160008051602061324e833981519152815260040180806020018281038252602381526020018061326e6023913960400191505060405180910390fd5b600154604080517f4a4fbeec000000000000000000000000000000000000000000000000000000008152600160a060020a038087166004830152915186939290921691634a4fbeec91602480820192602092909190829003018186803b158015610cec57600080fd5b505afa158015610d00573d6000803e3d6000fd5b505050506040513d6020811015610d1657600080fd5b505115610d72576040805160008051602061324e833981519152815260206004820152601b60248201527f424d3a2077616c6c6574206d75737420626520756e6c6f636b65640000000000604482015290519081900360640190fd5b60048054604080517f70a08231000000000000000000000000000000000000000000000000000000008152600160a060020a038881169482019490945290518693909216916370a0823191602480820192602092909190829003018186803b158015610ddd57600080fd5b505afa158015610df1573d6000803e3d6000fd5b505050506040513d6020811015610e0757600080fd5b50511015610e64576040805160008051602061324e833981519152815260206004820152601460248201527f444d3a20696e73756666696369656e7420444149000000000000000000000000604482015290519081900360640190fd5b600454604080517f617070726f766528616464726573732c75696e7432353629000000000000000081528151908190036018018120600554600160a060020a03908116602484015260448084018990528451808503909101815260649093019093526020820180516000805160206132918339815191521660008051602061322e833981519152909216919091179052610f049287921690600090612b16565b50600554604080517f73776170446169546f5361692875696e743235362900000000000000000000008152815190819003601501812060248083018890528351808403909101815260449092019092526020810180516000805160206132918339815191521660008051602061322e83398151915290931692909217909152610f9d918691600160a060020a0390911690600090612b16565b5060045460035460408051600160a060020a03938416815260208101879052918316828201526060820186905251918616917fe0aebc0b49a57880fff1a14cdb8f71331347f88fedf9f4a251ff97b31061d8289181900360800190a250505050565b803330148061101357506110138133612a44565b15156110585760405160008051602061324e833981519152815260040180806020018281038252602381526020018061326e6023913960400191505060405180910390fd5b600154604080517f4a4fbeec000000000000000000000000000000000000000000000000000000008152600160a060020a038086166004830152915185939290921691634a4fbeec91602480820192602092909190829003018186803b1580156110c157600080fd5b505afa1580156110d5573d6000803e3d6000fd5b505050506040513d60208110156110eb57600080fd5b505115611147576040805160008051602061324e833981519152815260206004820152601b60248201527f424d3a2077616c6c6574206d75737420626520756e6c6f636b65640000000000604482015290519081900360640190fd5b600660009054906101000a9004600160a060020a0316600160a060020a0316639f678cca6040518163ffffffff167c0100000000000000000000000000000000000000000000000000000000028152600401600060405180830381600087803b1580156111b357600080fd5b505af11580156111c7573d6000803e3d6000fd5b5050600654604080517f0bebac86000000000000000000000000000000000000000000000000000000008152600160a060020a038881166004830152915160009550919092169250630bebac8691602480820192602092909190829003018186803b15801561123557600080fd5b505afa158015611249573d6000803e3d6000fd5b505050506040513d602081101561125f57600080fd5b5051600654604080517f657869742875696e7432353629000000000000000000000000000000000000008152815190819003600d01812060248083018690528351808403909101815260449092019092526020810180516000805160206132918339815191521660008051602061322e833981519152909316929092179091529192506112fa918691600160a060020a031690600090612b16565b50600854600754604080517f4538c4eb000000000000000000000000000000000000000000000000000000008152600160a060020a038881166004830152928316602482015290519190921691634538c4eb916044808301926020929190829003018186803b15801561136c57600080fd5b505afa158015611380573d6000803e3d6000fd5b505050506040513d602081101561139657600080fd5b5051151561143c57600854604080517f686f7065286164647265737329000000000000000000000000000000000000008152815190819003600d018120600754600160a060020a039081166024808501919091528451808503909101815260449093019093526020820180516000805160206132918339815191521660008051602061322e83398151915290921691909117905261143a9287921690600090612b16565b505b60006b033b2e3c9fd0803ce80000006114f183600660009054906101000a9004600160a060020a0316600160a060020a031663c92aecc46040518163ffffffff167c010000000000000000000000000000000000000000000000000000000002815260040160206040518083038186803b1580156114b957600080fd5b505afa1580156114cd573d6000803e3d6000fd5b505050506040513d60208110156114e357600080fd5b50519063ffffffff612ae416565b8115156114fa57fe5b600754604080517f6578697428616464726573732c75696e7432353629000000000000000000000081528151908190036015018120600160a060020a03808c1660248401529590940460448083018290528351808403909101815260649092019092526020810180516000805160206132918339815191521660008051602061322e83398151915290951694909417909352935061159f928892911690600090612b16565b505050505050565b600160a060020a031660009081526002602052604090205490565b600854600160a060020a031681565b600654600160a060020a031681565b81333014806115f457506115f48133612a44565b15156116395760405160008051602061324e833981519152815260040180806020018281038252602381526020018061326e6023913960400191505060405180910390fd5b600054604080517f0bcd4ebb000000000000000000000000000000000000000000000000000000008152600160a060020a03858116600483015291519190921691630bcd4ebb916024808301926020929190829003018186803b15801561169f57600080fd5b505afa1580156116b3573d6000803e3d6000fd5b505050506040513d60208110156116c957600080fd5b50511515611726576040805160008051602061324e833981519152815260206004820152601c60248201527f424d3a206d6f64756c65206973206e6f74207265676973746572656400000000604482015290519081900360640190fd5b604080517f1f17732d000000000000000000000000000000000000000000000000000000008152600160a060020a03848116600483015260016024830152915191851691631f17732d9160448082019260009290919082900301818387803b15801561179157600080fd5b505af11580156117a5573d6000803e3d6000fd5b50505050505050565b81333014806117c257506117c28133612a44565b15156118075760405160008051602061324e833981519152815260040180806020018281038252602381526020018061326e6023913960400191505060405180910390fd5b600154604080517f4a4fbeec000000000000000000000000000000000000000000000000000000008152600160a060020a038087166004830152915186939290921691634a4fbeec91602480820192602092909190829003018186803b15801561187057600080fd5b505afa158015611884573d6000803e3d6000fd5b505050506040513d602081101561189a57600080fd5b5051156118f6576040805160008051602061324e833981519152815260206004820152601b60248201527f424d3a2077616c6c6574206d75737420626520756e6c6f636b65640000000000604482015290519081900360640190fd5b600354604080517f70a08231000000000000000000000000000000000000000000000000000000008152600160a060020a0387811660048301529151869392909216916370a0823191602480820192602092909190829003018186803b15801561195f57600080fd5b505afa158015611973573d6000803e3d6000fd5b505050506040513d602081101561198957600080fd5b505110156119e6576040805160008051602061324e833981519152815260206004820152601460248201527f444d3a20696e73756666696369656e7420534149000000000000000000000000604482015290519081900360640190fd5b600354604080517f617070726f766528616464726573732c75696e7432353629000000000000000081528151908190036018018120600554600160a060020a03908116602484015260448084018990528451808503909101815260649093019093526020820180516000805160206132918339815191521660008051602061322e833981519152909216919091179052611a869287921690600090612b16565b50600554604080517f73776170536169546f4461692875696e743235362900000000000000000000008152815190819003601501812060248083018890528351808403909101815260449092019092526020810180516000805160206132918339815191521660008051602061322e83398151915290931692909217909152611b1f918691600160a060020a0390911690600090612b16565b5060035460045460408051600160a060020a03938416815260208101879052918316828201526060820186905251918616917fe0aebc0b49a57880fff1a14cdb8f71331347f88fedf9f4a251ff97b31061d8289181900360800190a250505050565b8133301480611b955750611b958133612a44565b1515611bda5760405160008051602061324e833981519152815260040180806020018281038252602381526020018061326e6023913960400191505060405180910390fd5b600154604080517f4a4fbeec000000000000000000000000000000000000000000000000000000008152600160a060020a038087166004830152915186939290921691634a4fbeec91602480820192602092909190829003018186803b158015611c4357600080fd5b505afa158015611c57573d6000803e3d6000fd5b505050506040513d6020811015611c6d57600080fd5b505115611cc9576040805160008051602061324e833981519152815260206004820152601b60248201527f424d3a2077616c6c6574206d75737420626520756e6c6f636b65640000000000604482015290519081900360640190fd5b60048054604080517f70a08231000000000000000000000000000000000000000000000000000000008152600160a060020a038881169482019490945290518693909216916370a0823191602480820192602092909190829003018186803b158015611d3457600080fd5b505afa158015611d48573d6000803e3d6000fd5b505050506040513d6020811015611d5e57600080fd5b50511015611e055760048054604080517f70a08231000000000000000000000000000000000000000000000000000000008152600160a060020a03808916948201949094529051611e0593889316916370a08231916024808301926020929190829003018186803b158015611dd257600080fd5b505afa158015611de6573d6000803e3d6000fd5b505050506040513d6020811015611dfc57600080fd5b505185036117ae565b600660009054906101000a9004600160a060020a0316600160a060020a0316639f678cca6040518163ffffffff167c0100000000000000000000000000000000000000000000000000000000028152600401600060405180830381600087803b158015611e7157600080fd5b505af1158015611e85573d6000803e3d6000fd5b5050600454604080517f617070726f766528616464726573732c75696e7432353629000000000000000081528151908190036018018120600754600160a060020a03908116602484015260448084018b90528451808503909101815260649093019093526020820180516000805160206132918339815191521660008051602061322e833981519152909216919091179052611f2a9450889350911690600090612b16565b50600754604080517f6a6f696e28616464726573732c75696e7432353629000000000000000000000081528151908190036015018120600160a060020a03808916602484015260448084018990528451808503909101815260649093019093526020820180516000805160206132918339815191521660008051602061322e833981519152909216919091179052611fc89287921690600090612b16565b50600854600654604080517f4538c4eb000000000000000000000000000000000000000000000000000000008152600160a060020a038881166004830152928316602482015290519190921691634538c4eb916044808301926020929190829003018186803b15801561203a57600080fd5b505afa15801561204e573d6000803e3d6000fd5b505050506040513d602081101561206457600080fd5b5051151561210a57600854604080517f686f7065286164647265737329000000000000000000000000000000000000008152815190819003600d018120600654600160a060020a039081166024808501919091528451808503909101815260449093019093526020820180516000805160206132918339815191521660008051602061322e8339815191529092169190911790526121089287921690600090612b16565b505b600654604080517fc92aecc40000000000000000000000000000000000000000000000000000000081529051600092600160a060020a03169163c92aecc4916004808301926020929190829003018186803b15801561216857600080fd5b505afa15801561217c573d6000803e3d6000fd5b505050506040513d602081101561219257600080fd5b50516121b0856b033b2e3c9fd0803ce800000063ffffffff612ae416565b8115156121b957fe5b600654604080517f6a6f696e2875696e7432353629000000000000000000000000000000000000008152815190819003600d0181209490930460248085018290528251808603909101815260449094019091526020830180516000805160206132918339815191521660008051602061322e8339815191529095169490941790935291925061159f918791600160a060020a0390911690600090612b16565b600454600160a060020a038381169116146122c2576040805160008051602061324e833981519152815260206004820152601760248201527f444d3a20746f6b656e2073686f756c6420626520444149000000000000000000604482015290519081900360640190fd5b612710811115612321576040805160008051602061324e833981519152815260206004820152601a60248201527f444d3a20696e76616c6964206672616374696f6e2076616c7565000000000000604482015290519081900360640190fd5b6123508361271061234184612335886127c5565b9063ffffffff612ae416565b81151561234a57fe5b0461059a565b60408051600160a060020a038481168252602082018490528251908616927f9aa275f858ea6286ee2cacd32cd2ae55f918a310ee6d0320caad244ee9d6109e928290030190a2505050565b604080517f70a082310000000000000000000000000000000000000000000000000000000081523060048201529051600091600160a060020a038416916370a0823191602480820192602092909190829003018186803b1580156123fe57600080fd5b505afa158015612412573d6000803e3d6000fd5b505050506040513d602081101561242857600080fd5b505160008054604080517fa9059cbb000000000000000000000000000000000000000000000000000000008152600160a060020a0392831660048201526024810185905290519394509085169263a9059cbb92604480840193602093929083900390910190829087803b15801561249e57600080fd5b505af11580156124b2573d6000803e3d6000fd5b505050506040513d60208110156124c857600080fd5b50505050565b600354600160a060020a031681565b6000805a9050600061252d308c60008d8d8080601f0160208091040260200160405190810160405280939291908181526020018383808284376000920191909152508f92508c91508b9050612d90565b905061253a8b8983612ed3565b1515612595576040805160008051602061324e833981519152815260206004820152601560248201527f524d3a204475706c696361746520726571756573740000000000000000000000604482015290519081900360640190fd5b6125d58b8b8b8080601f016020809104026020016040519081016040528093929190818152602001838380828437600092019190915250612ee792505050565b151561261a5760405160008051602061324e833981519152815260040180806020018281038252604a8152602001806131e4604a913960600191505060405180910390fd5b600061265c8c8c8c8080601f016020809104026020016040519081016040528093929190818152602001838380828437600092019190915250612f6092505050565b905060418102871415612774576126758c868884612f68565b15612774578015806126f857506126f88c8c8c8080601f01602080910402602001604051908101604052809392919081815260200183838082843760009201919091525050604080516020601f8f018190048102820181019092528d815288935091508d908d908190840183828082843760009201919091525061303a92505050565b156127745730600160a060020a03168b8b604051808383808284376040519201945060009350909150508083038183865af19150503d8060008114612759576040519150601f19603f3d011682016040523d82523d6000602084013e61275e565b606091505b5050809450506127748c5a85038888853361305f565b60408051838152905185151591600160a060020a038f16917f6bb0b384ce772133df63560651bc8c727c53306cec1d51e2cbf8ea35fb8f2ec19181900360200190a350505098975050505050505050565b600654604080517f0bebac86000000000000000000000000000000000000000000000000000000008152600160a060020a03848116600483015291516000936b033b2e3c9fd0803ce8000000936128c993911691630bebac8691602480820192602092909190829003018186803b15801561283f57600080fd5b505afa158015612853573d6000803e3d6000fd5b505050506040513d602081101561286957600080fd5b5051600654604080517fc92aecc40000000000000000000000000000000000000000000000000000000081529051600160a060020a039092169163c92aecc491600480820192602092909190829003018186803b1580156114b957600080fd5b8115156128d257fe5b0492915050565b600454600160a060020a031681565b600754600160a060020a031681565b60026020526000908152604090205481565b6004546000908190600160a060020a0384811691161461292a576000612933565b612933846127c5565b946000945092505050565b7fd490da4d0000000000000000000000000000000000000000000000000000000090565b600554600160a060020a031681565b600454600090600160a060020a038581169116146129de576040805160008051602061324e833981519152815260206004820152601760248201527f444d3a20746f6b656e2073686f756c6420626520444149000000000000000000604482015290519081900360640190fd5b6129e88584611b81565b5060045460408051600160a060020a03928316815260208101859052808201849052905184928716917ff8eece150ed2126815122a6def9737751aecd814379d4ce8c9edd07133a49cdb919081900360600190a2949350505050565b600081600160a060020a031683600160a060020a0316638da5cb5b6040518163ffffffff167c010000000000000000000000000000000000000000000000000000000002815260040160206040518083038186803b158015612aa557600080fd5b505afa158015612ab9573d6000803e3d6000fd5b505050506040513d6020811015612acf57600080fd5b5051600160a060020a03161490505b92915050565b6000821515612af557506000612ade565b828202828482811515612b0457fe5b0414612b0f57600080fd5b9392505050565b6060600085600160a060020a03168585856040516024018084600160a060020a0316600160a060020a0316815260200183815260200180602001828103825283818151815260200191508051906020019080838360005b83811015612b85578181015183820152602001612b6d565b50505050905090810190601f168015612bb25780820380516001836020036101000a031916815260200191505b5060408051601f19818403018152918152602082018051600080516020613291833981519152167f8f6f033200000000000000000000000000000000000000000000000000000000178152905182519297509550859450925090508083835b60208310612c305780518252601f199092019160209182019101612c11565b6001836020036101000a0380198251168184511680821785525050505050509050019150506000604051808303816000865af19150503d8060008114612c92576040519150601f19603f3d011682016040523d82523d6000602084013e612c97565b606091505b5092509050808015612caa575060008251115b15612d1757818060200190516020811015612cc457600080fd5b810190808051640100000000811115612cdc57600080fd5b82016020810184811115612cef57600080fd5b8151640100000000811182820187101715612d0957600080fd5b50909550612d879350505050565b600082511115612d2b573d6000803e3d6000fd5b801515612d87576040805160008051602061324e833981519152815260206004820152601a60248201527f424d3a2077616c6c657420696e766f6b65207265766572746564000000000000604482015290519081900360640190fd5b50949350505050565b6040517f190000000000000000000000000000000000000000000000000000000000000060208083018281526000602185018190526c01000000000000000000000000600160a060020a03808e16820260228801528c16026036860152604a85018a90528851909485938d938d938d938d938d938d938d939192606a909201918701908083835b60208310612e365780518252601f199092019160209182019101612e17565b51815160209384036101000a600019018019909216911617905292019586525084810193909352506040808401919091528051808403820181526060840182528051908301207f19457468657265756d205369676e6564204d6573736167653a0a3332000000006080850152609c808501919091528151808503909101815260bc909301905281519101209e9d5050505050505050505050505050565b6000612edf84846130b3565b949350505050565b60006024825110151515612f4a576040805160008051602061324e833981519152815260206004820152601660248201527f524d3a20496e76616c6964206461746157616c6c657400000000000000000000604482015290519081900360640190fd5b5060240151600160a060020a0391821691161490565b600192915050565b60008083118015612f795750600182115b8015613022575082840285600160a060020a03163110806130225750604080517fd6eb1bbf0000000000000000000000000000000000000000000000000000000081523060048201529051600160a060020a0387169163d6eb1bbf916024808301926020929190829003018186803b158015612ff457600080fd5b505afa158015613008573d6000803e3d6000fd5b505050506040513d602081101561301e57600080fd5b5051155b1561302f57506000612edf565b506001949350505050565b60008061304984846000613139565b90506130558682612a44565b9695505050505050565b61726c85016000851180156130745750600183115b80156130805750838111155b156117a5573a851115613094573a02613097565b84025b610b7a8783836020604051908101604052806000815250612b16565b600160a060020a03821660009081526002602052604081205482116130da57506000612ade565b7001000000000000000000000000000000006fffffffffffffffffffffffffffffffff198316044361271001811115613117576000915050612ade565b5050600160a060020a0391909116600090815260026020526040902055600190565b6041808202830160208101516040820151919092015160009260ff9190911691601b83148061316b57508260ff16601c145b151561317657600080fd5b604080516000815260208082018084528a905260ff8616828401526060820185905260808201849052915160019260a0808401939192601f1981019281900390910190855afa1580156131cd573d6000803e3d6000fd5b5050604051601f1901519897505050505050505056fe524d3a207468652077616c6c657420617574686f72697a656420697320646966666572656e74207468656e2074686520746172676574206f66207468652072656c617965642064617461ffffffff0000000000000000000000000000000000000000000000000000000008c379a000000000000000000000000000000000000000000000000000000000424d3a206d75737420626520616e206f776e657220666f72207468652077616c6c657400000000ffffffffffffffffffffffffffffffffffffffffffffffffffffffffa165627a7a7230582021e2e813b8eceae0be7a71e30d968c4e4a88b982a43f261e6bc7b3d3c87b34040029",
  "source": "// Copyright (C) 2018  Argent Labs Ltd. <https://argent.xyz>\n\n// This program is free software: you can redistribute it and/or modify\n// it under the terms of the GNU General Public License as published by\n// the Free Software Foundation, either version 3 of the License, or\n// (at your option) any later version.\n\n// This program is distributed in the hope that it will be useful,\n// but WITHOUT ANY WARRANTY; without even the implied warranty of\n// MERCHANTABILITY or FITNESS FOR A PARTICULAR PURPOSE.  See the\n// GNU General Public License for more details.\n\n// You should have received a copy of the GNU General Public License\n// along with this program.  If not, see <http://www.gnu.org/licenses/>.\n\npragma solidity ^0.5.4;\n\nimport \"./common/BaseModule.sol\";\nimport \"./common/RelayerModule.sol\";\nimport \"./common/OnlyOwnerModule.sol\";\nimport \"../../lib/utils/SafeMath.sol\";\nimport \"../defi/Invest.sol\";\n\ncontract VatLike {\n    function can(address, address) public view returns (uint);\n    function dai(address) public view returns (uint);\n    function hope(address) public;\n}\n\ncontract JoinLike {\n    function gem() public returns (GemLike);\n    function dai() public returns (GemLike);\n    function join(address, uint) public;\n    function exit(address, uint) public;\n    VatLike public vat;\n}\n\ncontract PotLike {\n    function chi() public view returns (uint);\n    function pie(address) public view returns (uint);\n    function drip() public;\n}\n\ncontract ScdMcdMigration {\n    function swapSaiToDai(uint wad) external;\n    function swapDaiToSai(uint wad) external;\n    JoinLike public saiJoin;\n    JoinLike public wethJoin;\n    JoinLike public daiJoin;\n}\n\ncontract GemLike {\n    function balanceOf(address) public view returns (uint);\n    function transferFrom(address, address, uint) public returns (bool);\n}\n\n/**\n * @title MakerV2Manager\n * @dev Module to convert SAI <-> DAI and lock/unlock MCD DAI into/from Maker's Pot,\n * @author Olivier VDB - <olivier@argent.xyz>\n */\ncontract MakerV2Manager is Invest, BaseModule, RelayerModule, OnlyOwnerModule {\n\n    bytes32 constant NAME = \"MakerV2Manager\";\n\n    // The address of the SAI token\n    GemLike public saiToken;\n    // The address of the (MCD) DAI token\n    GemLike public daiToken;\n    // The address of the SAI <-> DAI migration contract\n    address public scdMcdMigration;\n    // The address of the Pot\n    PotLike public pot;\n    // The address of the Dai Adapter\n    JoinLike public daiJoin;\n    // The address of the Vat\n    VatLike public vat;\n\n    // Method signatures to reduce gas cost at depoyment\n    bytes4 constant internal ERC20_APPROVE = bytes4(keccak256(\"approve(address,uint256)\"));\n    bytes4 constant internal SWAP_SAI_DAI = bytes4(keccak256(\"swapSaiToDai(uint256)\"));\n    bytes4 constant internal SWAP_DAI_SAI = bytes4(keccak256(\"swapDaiToSai(uint256)\"));\n    bytes4 constant internal ADAPTER_JOIN = bytes4(keccak256(\"join(address,uint256)\"));\n    bytes4 constant internal ADAPTER_EXIT = bytes4(keccak256(\"exit(address,uint256)\"));\n    bytes4 constant internal VAT_HOPE = bytes4(keccak256(\"hope(address)\"));\n    bytes4 constant internal POT_JOIN = bytes4(keccak256(\"join(uint256)\"));\n    bytes4 constant internal POT_EXIT = bytes4(keccak256(\"exit(uint256)\"));\n\n    uint256 constant internal RAY = 10 ** 27;\n\n    using SafeMath for uint256;\n\n    // ****************** Events *************************** //\n\n    event TokenConverted(address indexed _wallet, address _srcToken, uint _srcAmount, address _destToken, uint _destAmount);\n\n    // *************** Constructor ********************** //\n\n    constructor(\n        ModuleRegistry _registry,\n        GuardianStorage _guardianStorage,\n        ScdMcdMigration _scdMcdMigration,\n        PotLike _pot\n    )\n        BaseModule(_registry, _guardianStorage, NAME)\n        public\n    {\n        scdMcdMigration = address(_scdMcdMigration);\n        saiToken = _scdMcdMigration.saiJoin().gem();\n        daiJoin = _scdMcdMigration.daiJoin();\n        vat = daiJoin.vat();\n        daiToken = daiJoin.dai();\n        pot = _pot;\n    }\n\n    // *************** External/Public Functions ********************* //\n\n    /* ********************************** Implementation of Invest ************************************* */\n\n    /**\n     * @dev Invest tokens for a given period.\n     * @param _wallet The target wallet.\n     * @param _token The token address.\n     * @param _amount The amount of tokens to invest.\n     * @param _period The period over which the tokens may be locked in the investment (optional).\n     * @return The exact amount of tokens that have been invested.\n     */\n    function addInvestment(\n        BaseWallet _wallet,\n        address _token,\n        uint256 _amount,\n        uint256 _period\n    )\n        external\n        returns (uint256 _invested)\n    {\n        require(_token == address(daiToken), \"DM: token should be DAI\");\n        joinDsr(_wallet, _amount);\n        _invested = _amount;\n        emit InvestmentAdded(address(_wallet), address(daiToken), _amount, _period);\n    }\n\n    /**\n     * @dev Exit invested postions.\n     * @param _wallet The target wallet.\n     * @param _token The token address.\n     * @param _fraction The fraction of invested tokens to exit in per 10000.\n     */\n    function removeInvestment(\n        BaseWallet _wallet,\n        address _token,\n        uint256 _fraction\n    )\n        external\n    {\n        require(_token == address(daiToken), \"DM: token should be DAI\");\n        require(_fraction <= 10000, \"DM: invalid fraction value\");\n        exitDsr(_wallet, dsrBalance(_wallet).mul(_fraction) / 10000);\n        emit InvestmentRemoved(address(_wallet), _token, _fraction);\n    }\n\n    /**\n     * @dev Get the amount of investment in a given token.\n     * @param _wallet The target wallet.\n     * @param _token The token address.\n     * @return The value in tokens of the investment (including interests) and the time at which the investment can be removed.\n     */\n    function getInvestment(\n        BaseWallet _wallet,\n        address _token\n    )\n        external\n        view\n        returns (uint256 _tokenValue, uint256 _periodEnd)\n    {\n        _tokenValue = _token == address(daiToken) ? dsrBalance(_wallet) : 0;\n        _periodEnd = 0;\n    }\n\n    /* ****************************************** DSR wrappers ******************************************* */\n\n    function dsrBalance(BaseWallet _wallet) public view returns (uint256) {\n        return pot.chi().mul(pot.pie(address(_wallet))) / RAY;\n    }\n\n    /**\n    * @dev lets the owner deposit MCD DAI into the DSR Pot.\n    * @param _wallet The target wallet.\n    * @param _amount The amount of DAI to deposit\n    */\n    function joinDsr(\n        BaseWallet _wallet,\n        uint256 _amount\n    )\n        public\n        onlyWalletOwner(_wallet)\n        onlyWhenUnlocked(_wallet)\n    {\n        if (daiToken.balanceOf(address(_wallet)) < _amount) {\n            swapSaiToDai(_wallet, _amount - daiToken.balanceOf(address(_wallet)));\n        }\n\n        // Execute drip to get the chi rate updated to rho == now, otherwise join will fail\n        pot.drip();\n        // Approve DAI adapter to take the DAI amount\n        invokeWallet(address(_wallet), address(daiToken), 0, abi.encodeWithSelector(ERC20_APPROVE, address(daiJoin), _amount));\n        // Join DAI into the vat (_amount of external DAI is burned and the vat transfers _amount of internal DAI from the adapter to the _wallet)\n        invokeWallet(address(_wallet), address(daiJoin), 0, abi.encodeWithSelector(ADAPTER_JOIN, address(_wallet), _amount));\n        // Approve the pot to take out (internal) DAI from the wallet's balance in the vat\n        if (vat.can(address(_wallet), address(pot)) == 0) {\n            invokeWallet(address(_wallet), address(vat), 0, abi.encodeWithSelector(VAT_HOPE, address(pot)));\n        }\n        // Compute the pie value in the pot\n        uint256 pie = _amount.mul(RAY) / pot.chi();\n        // Join the pie value to the pot\n        invokeWallet(address(_wallet), address(pot), 0, abi.encodeWithSelector(POT_JOIN, pie));\n    }\n\n    /**\n    * @dev lets the owner withdraw MCD DAI from the DSR Pot.\n    * @param _wallet The target wallet.\n    * @param _amount The amount of DAI to withdraw\n    */\n    function exitDsr(\n        BaseWallet _wallet,\n        uint256 _amount\n    )\n        public\n        onlyWalletOwner(_wallet)\n        onlyWhenUnlocked(_wallet)\n    {\n        // Execute drip to count the savings accumulated until this moment\n        pot.drip();\n        // Calculates the pie value in the pot equivalent to the DAI wad amount\n        uint256 pie = _amount.mul(RAY) / pot.chi();\n        // Exit DAI from the pot\n        invokeWallet(address(_wallet), address(pot), 0, abi.encodeWithSelector(POT_EXIT, pie));\n        // Allow adapter to access the _wallet's DAI balance in the vat\n        if (vat.can(address(_wallet), address(daiJoin)) == 0) {\n            invokeWallet(address(_wallet), address(vat), 0, abi.encodeWithSelector(VAT_HOPE, address(daiJoin)));\n        }\n        // Check the actual balance of DAI in the vat after the pot exit\n        uint bal = vat.dai(address(_wallet));\n        // It is necessary to check if due to rounding the exact _amount can be exited by the adapter.\n        // Otherwise it will do the maximum DAI balance in the vat\n        uint256 withdrawn = bal >= _amount.mul(RAY) ? _amount : bal / RAY;\n        invokeWallet(address(_wallet), address(daiJoin), 0, abi.encodeWithSelector(ADAPTER_EXIT, address(_wallet), withdrawn));\n    }\n\n    function exitAllDsr(\n        BaseWallet _wallet\n    )\n        external\n        onlyWalletOwner(_wallet)\n        onlyWhenUnlocked(_wallet)\n    {\n        // Execute drip to count the savings accumulated until this moment\n        pot.drip();\n        // Gets the total pie belonging to the _wallet\n        uint256 pie = pot.pie(address(_wallet));\n        // Exit DAI from the pot\n        invokeWallet(address(_wallet), address(pot), 0, abi.encodeWithSelector(POT_EXIT, pie));\n        // Allow adapter to access the _wallet's DAI balance in the vat\n        if (vat.can(address(_wallet), address(daiJoin)) == 0) {\n            invokeWallet(address(_wallet), address(vat), 0, abi.encodeWithSelector(VAT_HOPE, address(daiJoin)));\n        }\n        // Exits the DAI amount corresponding to the value of pie\n        uint256 withdrawn = pot.chi().mul(pie) / RAY;\n        invokeWallet(address(_wallet), address(daiJoin), 0, abi.encodeWithSelector(ADAPTER_EXIT, address(_wallet), withdrawn));\n    }\n\n    /**\n    * @dev lets the owner convert SCD SAI into MCD DAI.\n    * @param _wallet The target wallet.\n    * @param _amount The amount of SAI to convert\n    */\n    function swapSaiToDai(\n        BaseWallet _wallet,\n        uint256 _amount\n    )\n        public\n        onlyWalletOwner(_wallet)\n        onlyWhenUnlocked(_wallet)\n    {\n        require(saiToken.balanceOf(address(_wallet)) >= _amount, \"DM: insufficient SAI\");\n        invokeWallet(address(_wallet), address(saiToken), 0, abi.encodeWithSelector(ERC20_APPROVE, scdMcdMigration, _amount));\n        invokeWallet(address(_wallet), scdMcdMigration, 0, abi.encodeWithSelector(SWAP_SAI_DAI, _amount));\n        emit TokenConverted(address(_wallet), address(saiToken), _amount, address(daiToken), _amount);\n    }\n\n    /**\n    * @dev lets the owner convert MCD DAI into SCD SAI.\n    * @param _wallet The target wallet.\n    * @param _amount The amount of DAI to convert\n    */\n    function swapDaiToSai(\n        BaseWallet _wallet,\n        uint256 _amount\n    )\n        external\n        onlyWalletOwner(_wallet)\n        onlyWhenUnlocked(_wallet)\n    {\n        require(daiToken.balanceOf(address(_wallet)) >= _amount, \"DM: insufficient DAI\");\n        invokeWallet(address(_wallet), address(daiToken), 0, abi.encodeWithSelector(ERC20_APPROVE, scdMcdMigration, _amount));\n        invokeWallet(address(_wallet), scdMcdMigration, 0, abi.encodeWithSelector(SWAP_DAI_SAI, _amount));\n        emit TokenConverted(address(_wallet), address(daiToken), _amount, address(saiToken), _amount);\n    }\n}",
  "sourcePath": "/Users/name/dev/smartcontracts/contracts/modules/MakerV2Manager.sol",
  "compiler": {
    "name": "solc",
    "version": "0.5.4+commit.9549d8ff.Emscripten.clang",
    "optimizer": true,
    "runs": 999
  },
  "schemaVersion": "2.3.1",
  "updatedAt": "2020-04-01T21:49:53.233Z"
}