{
  "contractName": "Maximillion",
  "abi": [
    {
      "constant": true,
      "inputs": [],
      "name": "cEther",
      "outputs": [
        {
          "name": "",
          "type": "address"
        }
      ],
      "payable": false,
      "stateMutability": "view",
      "type": "function"
    },
    {
      "inputs": [
        {
          "name": "cEther_",
          "type": "address"
        }
      ],
      "payable": false,
      "stateMutability": "nonpayable",
      "type": "constructor"
    },
    {
      "constant": false,
      "inputs": [
        {
          "name": "borrower",
          "type": "address"
        }
      ],
      "name": "repayBehalf",
      "outputs": [],
      "payable": true,
      "stateMutability": "payable",
      "type": "function"
    },
    {
      "constant": false,
      "inputs": [
        {
          "name": "borrower",
          "type": "address"
        },
        {
          "name": "cEther_",
          "type": "address"
        }
      ],
      "name": "repayBehalfExplicit",
      "outputs": [],
      "payable": true,
      "stateMutability": "payable",
      "type": "function"
    }
  ],
  "bytecode": "0x608060405234801561001057600080fd5b506040516020806104508339810180604052602081101561003057600080fd5b505160008054600160a060020a03909216600160a060020a03199092169190911790556103ee806100626000396000f3fe608060405260043610610050577c0100000000000000000000000000000000000000000000000000000000600035046319b68c008114610055578063367b7f05146100935780639f35c3d5146100d0575b600080fd5b34801561006157600080fd5b5061006a610103565b6040805173ffffffffffffffffffffffffffffffffffffffff9092168252519081900360200190f35b6100ce600480360360408110156100a957600080fd5b5073ffffffffffffffffffffffffffffffffffffffff8135811691602001351661011f565b005b6100ce600480360360208110156100e657600080fd5b503573ffffffffffffffffffffffffffffffffffffffff1661039b565b60005473ffffffffffffffffffffffffffffffffffffffff1681565b600034905060008273ffffffffffffffffffffffffffffffffffffffff166317bfdfbc856040518263ffffffff167c0100000000000000000000000000000000000000000000000000000000028152600401808273ffffffffffffffffffffffffffffffffffffffff1673ffffffffffffffffffffffffffffffffffffffff168152602001915050602060405180830381600087803b1580156101c157600080fd5b505af11580156101d5573d6000803e3d6000fd5b505050506040513d60208110156101eb57600080fd5b50519050808211156102e0578273ffffffffffffffffffffffffffffffffffffffff1663e597461982866040518363ffffffff167c0100000000000000000000000000000000000000000000000000000000028152600401808273ffffffffffffffffffffffffffffffffffffffff1673ffffffffffffffffffffffffffffffffffffffff1681526020019150506000604051808303818588803b15801561029257600080fd5b505af11580156102a6573d6000803e3d6000fd5b505060405133935084860380156108fc02935091506000818181858888f193505050501580156102da573d6000803e3d6000fd5b50610395565b8273ffffffffffffffffffffffffffffffffffffffff1663e597461983866040518363ffffffff167c0100000000000000000000000000000000000000000000000000000000028152600401808273ffffffffffffffffffffffffffffffffffffffff1673ffffffffffffffffffffffffffffffffffffffff1681526020019150506000604051808303818588803b15801561037b57600080fd5b505af115801561038f573d6000803e3d6000fd5b50505050505b50505050565b6000546103bf90829073ffffffffffffffffffffffffffffffffffffffff1661011f565b5056fea165627a7a7230582067cbfa86259c9f7e3f94344913b0a66715b780345513ea58e018b970f03419350029",
  "source": "pragma solidity ^0.5.4;\n\nimport \"./CEther.sol\";\n\n/**\n * @title Compound's Maximillion Contract\n * @author Compound\n */\ncontract Maximillion {\n    /**\n     * @notice The default cEther market to repay in\n     */\n    CEther public cEther;\n\n    /**\n     * @notice Construct a Maximillion to repay max in a CEther market\n     */\n    constructor(CEther cEther_) public {\n        cEther = cEther_;\n    }\n\n    /**\n     * @notice msg.sender sends Ether to repay an account's borrow in the cEther market\n     * @dev The provided Ether is applied towards the borrow balance, any excess is refunded\n     * @param borrower The address of the borrower account to repay on behalf of\n     * @return The initial borrows before the repay\n     */\n    function repayBehalf(address borrower) public payable {\n        return repayBehalfExplicit(borrower, cEther);\n    }\n\n    /**\n     * @notice msg.sender sends Ether to repay an account's borrow in a cEther market\n     * @dev The provided Ether is applied towards the borrow balance, any excess is refunded\n     * @param borrower The address of the borrower account to repay on behalf of\n     * @param cEther_ The address of the cEther contract to repay in\n     * @return The initial borrows before the repay\n     */\n    function repayBehalfExplicit(address borrower, CEther cEther_) public payable {\n        uint received = msg.value;\n        uint borrows = cEther_.borrowBalanceCurrent(borrower);\n        if (received > borrows) {\n            cEther_.repayBorrowBehalf.value(borrows)(borrower);\n            msg.sender.transfer(received - borrows);\n        } else {\n            cEther_.repayBorrowBehalf.value(received)(borrower);\n        }\n    }\n}\n",
  "sourcePath": "/Users/name/dev/argent-contracts-release-1.5.0/contracts/test/compound/Maximillion.sol",
  "compiler": {
    "name": "solc",
    "version": "0.5.4+commit.9549d8ff.Emscripten.clang",
    "optimizer": true,
    "runs": 999
  },
  "schemaVersion": "2.3.1",
  "updatedAt": "2020-04-01T15:58:47.334Z"
}