{
  "contractName": "ModuleRegistry",
  "abi": [
    {
      "constant": true,
      "inputs": [],
      "name": "owner",
      "outputs": [
        {
          "name": "",
          "type": "address"
        }
      ],
      "payable": false,
      "stateMutability": "view",
      "type": "function"
    },
    {
      "constant": false,
      "inputs": [
        {
          "name": "_newOwner",
          "type": "address"
        }
      ],
      "name": "changeOwner",
      "outputs": [],
      "payable": false,
      "stateMutability": "nonpayable",
      "type": "function"
    },
    {
      "anonymous": false,
      "inputs": [
        {
          "indexed": true,
          "name": "module",
          "type": "address"
        },
        {
          "indexed": false,
          "name": "name",
          "type": "bytes32"
        }
      ],
      "name": "ModuleRegistered",
      "type": "event"
    },
    {
      "anonymous": false,
      "inputs": [
        {
          "indexed": false,
          "name": "module",
          "type": "address"
        }
      ],
      "name": "ModuleDeRegistered",
      "type": "event"
    },
    {
      "anonymous": false,
      "inputs": [
        {
          "indexed": true,
          "name": "upgrader",
          "type": "address"
        },
        {
          "indexed": false,
          "name": "name",
          "type": "bytes32"
        }
      ],
      "name": "UpgraderRegistered",
      "type": "event"
    },
    {
      "anonymous": false,
      "inputs": [
        {
          "indexed": false,
          "name": "upgrader",
          "type": "address"
        }
      ],
      "name": "UpgraderDeRegistered",
      "type": "event"
    },
    {
      "anonymous": false,
      "inputs": [
        {
          "indexed": true,
          "name": "_newOwner",
          "type": "address"
        }
      ],
      "name": "OwnerChanged",
      "type": "event"
    },
    {
      "constant": false,
      "inputs": [
        {
          "name": "_module",
          "type": "address"
        },
        {
          "name": "_name",
          "type": "bytes32"
        }
      ],
      "name": "registerModule",
      "outputs": [],
      "payable": false,
      "stateMutability": "nonpayable",
      "type": "function"
    },
    {
      "constant": false,
      "inputs": [
        {
          "name": "_module",
          "type": "address"
        }
      ],
      "name": "deregisterModule",
      "outputs": [],
      "payable": false,
      "stateMutability": "nonpayable",
      "type": "function"
    },
    {
      "constant": false,
      "inputs": [
        {
          "name": "_upgrader",
          "type": "address"
        },
        {
          "name": "_name",
          "type": "bytes32"
        }
      ],
      "name": "registerUpgrader",
      "outputs": [],
      "payable": false,
      "stateMutability": "nonpayable",
      "type": "function"
    },
    {
      "constant": false,
      "inputs": [
        {
          "name": "_upgrader",
          "type": "address"
        }
      ],
      "name": "deregisterUpgrader",
      "outputs": [],
      "payable": false,
      "stateMutability": "nonpayable",
      "type": "function"
    },
    {
      "constant": false,
      "inputs": [
        {
          "name": "_token",
          "type": "address"
        }
      ],
      "name": "recoverToken",
      "outputs": [],
      "payable": false,
      "stateMutability": "nonpayable",
      "type": "function"
    },
    {
      "constant": true,
      "inputs": [
        {
          "name": "_module",
          "type": "address"
        }
      ],
      "name": "moduleInfo",
      "outputs": [
        {
          "name": "",
          "type": "bytes32"
        }
      ],
      "payable": false,
      "stateMutability": "view",
      "type": "function"
    },
    {
      "constant": true,
      "inputs": [
        {
          "name": "_upgrader",
          "type": "address"
        }
      ],
      "name": "upgraderInfo",
      "outputs": [
        {
          "name": "",
          "type": "bytes32"
        }
      ],
      "payable": false,
      "stateMutability": "view",
      "type": "function"
    },
    {
      "constant": true,
      "inputs": [
        {
          "name": "_module",
          "type": "address"
        }
      ],
      "name": "isRegisteredModule",
      "outputs": [
        {
          "name": "",
          "type": "bool"
        }
      ],
      "payable": false,
      "stateMutability": "view",
      "type": "function"
    },
    {
      "constant": true,
      "inputs": [
        {
          "name": "_modules",
          "type": "address[]"
        }
      ],
      "name": "isRegisteredModule",
      "outputs": [
        {
          "name": "",
          "type": "bool"
        }
      ],
      "payable": false,
      "stateMutability": "view",
      "type": "function"
    },
    {
      "constant": true,
      "inputs": [
        {
          "name": "_upgrader",
          "type": "address"
        }
      ],
      "name": "isRegisteredUpgrader",
      "outputs": [
        {
          "name": "",
          "type": "bool"
        }
      ],
      "payable": false,
      "stateMutability": "view",
      "type": "function"
    }
  ],
  "bytecode": "0x608060405260008054600160a060020a03191633179055610c56806100256000396000f3fe608060405234801561001057600080fd5b50600436106100f1576000357c01000000000000000000000000000000000000000000000000000000009004806378b1fa741161009e5780639be65a60116100785780639be65a60146102c8578063a6f9dae1146102ee578063ce03c0a214610314576100f1565b806378b1fa74146102585780638b27f7f51461027e5780638da5cb5b146102a4576100f1565b806356b97ec1116100cf57806356b97ec11461018a57806363047bd8146101c25780636bb18a54146101e8576100f1565b80630bcd4ebb146100f65780630f0356d0146101305780633f4985cf1461015e575b600080fd5b61011c6004803603602081101561010c57600080fd5b5035600160a060020a031661033a565b604080519115158252519081900360200190f35b61015c6004803603604081101561014657600080fd5b50600160a060020a038135169060200135610358565b005b61015c6004803603604081101561017457600080fd5b50600160a060020a0381351690602001356104ae565b6101b0600480360360208110156101a057600080fd5b5035600160a060020a0316610605565b60408051918252519081900360200190f35b61011c600480360360208110156101d857600080fd5b5035600160a060020a0316610624565b61011c600480360360208110156101fe57600080fd5b81019060208101813564010000000081111561021957600080fd5b82018360208201111561022b57600080fd5b8035906020019184602083028401116401000000008311171561024d57600080fd5b509092509050610642565b61015c6004803603602081101561026e57600080fd5b5035600160a060020a03166106a8565b61015c6004803603602081101561029457600080fd5b5035600160a060020a03166107e3565b6102ac61091f565b60408051600160a060020a039092168252519081900360200190f35b61015c600480360360208110156102de57600080fd5b5035600160a060020a031661092e565b61015c6004803603602081101561030457600080fd5b5035600160a060020a0316610ac0565b6101b06004803603602081101561032a57600080fd5b5035600160a060020a0316610bec565b600160a060020a031660009081526001602052604090205460ff1690565b600054600160a060020a031633146103bf5760408051600080516020610c0b833981519152815260206004820152600d60248201527f4d757374206265206f776e657200000000000000000000000000000000000000604482015290519081900360640190fd5b600160a060020a03821660009081526001602052604090205460ff16156104355760408051600080516020610c0b833981519152815260206004820152601960248201527f4d523a206d6f64756c6520616c72656164792065786973747300000000000000604482015290519081900360640190fd5b60408051808201825260018082526020808301858152600160a060020a03871660008181528484528690209451855460ff1916901515178555905193909201929092558251848152925190927f395917e06309940ec7275c89424ecba05a0c7accd8bdd546e6558c6c86c2523992908290030190a25050565b600054600160a060020a031633146105155760408051600080516020610c0b833981519152815260206004820152600d60248201527f4d757374206265206f776e657200000000000000000000000000000000000000604482015290519081900360640190fd5b600160a060020a03821660009081526002602052604090205460ff161561058b5760408051600080516020610c0b833981519152815260206004820152601b60248201527f4d523a20757067726164657220616c7265616479206578697374730000000000604482015290519081900360640190fd5b60408051808201825260018082526020808301858152600160a060020a0387166000818152600284528690209451855460ff1916901515178555905193909201929092558251848152925190927fb72a133f42ef268c125f96c7c6e407143f1d2fc5e2854b5f99887ee5da14377592908290030190a25050565b600160a060020a03166000908152600160208190526040909120015490565b600160a060020a031660009081526002602052604090205460ff1690565b6000805b8281101561069c576001600085858481811061065e57fe5b60209081029290920135600160a060020a03168352508101919091526040016000205460ff1615156106945760009150506106a2565b600101610646565b50600190505b92915050565b600054600160a060020a0316331461070f5760408051600080516020610c0b833981519152815260206004820152600d60248201527f4d757374206265206f776e657200000000000000000000000000000000000000604482015290519081900360640190fd5b600160a060020a03811660009081526001602052604090205460ff1615156107865760408051600080516020610c0b833981519152815260206004820152601960248201527f4d523a206d6f64756c6520646f6573206e6f7420657869737400000000000000604482015290519081900360640190fd5b600160a060020a0381166000818152600160208181526040808420805460ff19168155909201929092558051928352517fb292997b2d53de11cc46b82b9a3b1a253cca7aa614fb9b5677cb67d08516f8639281900390910190a150565b600054600160a060020a0316331461084a5760408051600080516020610c0b833981519152815260206004820152600d60248201527f4d757374206265206f776e657200000000000000000000000000000000000000604482015290519081900360640190fd5b600160a060020a03811660009081526002602052604090205460ff1615156108c15760408051600080516020610c0b833981519152815260206004820152601b60248201527f4d523a20757067726164657220646f6573206e6f742065786973740000000000604482015290519081900360640190fd5b600160a060020a0381166000818152600260209081526040808320805460ff1916815560010192909255815192835290517f58d12929a3008fbe6cd82f81558a511b80afa47fc9fc81f366e094bb681af64d9281900390910190a150565b600054600160a060020a031681565b600054600160a060020a031633146109955760408051600080516020610c0b833981519152815260206004820152600d60248201527f4d757374206265206f776e657200000000000000000000000000000000000000604482015290519081900360640190fd5b604080517f70a082310000000000000000000000000000000000000000000000000000000081523060048201529051600091600160a060020a038416916370a0823191602480820192602092909190829003018186803b1580156109f857600080fd5b505afa158015610a0c573d6000803e3d6000fd5b505050506040513d6020811015610a2257600080fd5b5051604080517fa9059cbb000000000000000000000000000000000000000000000000000000008152336004820152602481018390529051919250600160a060020a0384169163a9059cbb916044808201926020929091908290030181600087803b158015610a9057600080fd5b505af1158015610aa4573d6000803e3d6000fd5b505050506040513d6020811015610aba57600080fd5b50505050565b600054600160a060020a03163314610b275760408051600080516020610c0b833981519152815260206004820152600d60248201527f4d757374206265206f776e657200000000000000000000000000000000000000604482015290519081900360640190fd5b600160a060020a0381161515610b8c5760408051600080516020610c0b833981519152815260206004820152601860248201527f41646472657373206d757374206e6f74206265206e756c6c0000000000000000604482015290519081900360640190fd5b600080547fffffffffffffffffffffffff000000000000000000000000000000000000000016600160a060020a038316908117825560405190917fa2ea9883a321a3e97b8266c2b078bfeec6d50c711ed71f874a90d500ae2eaf3691a250565b600160a060020a03166000908152600260205260409020600101549056fe08c379a000000000000000000000000000000000000000000000000000000000a165627a7a72305820668a185219771c6bcff5921ffe4ee20f7fe808ec54d09dbbd4c866f53d40d94c0029",
  "source": "// Copyright (C) 2018  Argent Labs Ltd. <https://argent.xyz>\n\n// This program is free software: you can redistribute it and/or modify\n// it under the terms of the GNU General Public License as published by\n// the Free Software Foundation, either version 3 of the License, or\n// (at your option) any later version.\n\n// This program is distributed in the hope that it will be useful,\n// but WITHOUT ANY WARRANTY; without even the implied warranty of\n// MERCHANTABILITY or FITNESS FOR A PARTICULAR PURPOSE.  See the\n// GNU General Public License for more details.\n\n// You should have received a copy of the GNU General Public License\n// along with this program.  If not, see <http://www.gnu.org/licenses/>.\n\npragma solidity ^0.5.4;\nimport \"../interfaces/Module.sol\";\nimport \"../base/Owned.sol\";\nimport \"../exchange/ERC20.sol\";\n\n/**\n * @title ModuleRegistry\n * @dev Registry of authorised modules.\n * Modules must be registered before they can be authorised on a wallet.\n * @author Julien Niset - <julien@argent.im>\n */\ncontract ModuleRegistry is Owned {\n\n    mapping (address => Info) internal modules;\n    mapping (address => Info) internal upgraders;\n\n    event ModuleRegistered(address indexed module, bytes32 name);\n    event ModuleDeRegistered(address module);\n    event UpgraderRegistered(address indexed upgrader, bytes32 name);\n    event UpgraderDeRegistered(address upgrader);\n\n    struct Info {\n        bool exists;\n        bytes32 name;\n    }\n\n    /**\n     * @dev Registers a module.\n     * @param _module The module.\n     * @param _name The unique name of the module.\n     */\n    function registerModule(address _module, bytes32 _name) external onlyOwner {\n        require(!modules[_module].exists, \"MR: module already exists\");\n        modules[_module] = Info({exists: true, name: _name});\n        emit ModuleRegistered(_module, _name);\n    }\n\n    /**\n     * @dev Deregisters a module.\n     * @param _module The module.\n     */\n    function deregisterModule(address _module) external onlyOwner {\n        require(modules[_module].exists, \"MR: module does not exist\");\n        delete modules[_module];\n        emit ModuleDeRegistered(_module);\n    }\n\n        /**\n     * @dev Registers an upgrader.\n     * @param _upgrader The upgrader.\n     * @param _name The unique name of the upgrader.\n     */\n    function registerUpgrader(address _upgrader, bytes32 _name) external onlyOwner {\n        require(!upgraders[_upgrader].exists, \"MR: upgrader already exists\");\n        upgraders[_upgrader] = Info({exists: true, name: _name});\n        emit UpgraderRegistered(_upgrader, _name);\n    }\n\n    /**\n     * @dev Deregisters an upgrader.\n     * @param _upgrader The _upgrader.\n     */\n    function deregisterUpgrader(address _upgrader) external onlyOwner {\n        require(upgraders[_upgrader].exists, \"MR: upgrader does not exist\");\n        delete upgraders[_upgrader];\n        emit UpgraderDeRegistered(_upgrader);\n    }\n\n    /**\n    * @dev Utility method enbaling the owner of the registry to claim any ERC20 token that was sent to the\n    * registry.\n    * @param _token The token to recover.\n    */\n    function recoverToken(address _token) external onlyOwner {\n        uint total = ERC20(_token).balanceOf(address(this));\n        ERC20(_token).transfer(msg.sender, total);\n    }\n\n    /**\n     * @dev Gets the name of a module from its address.\n     * @param _module The module address.\n     * @return the name.\n     */\n    function moduleInfo(address _module) external view returns (bytes32) {\n        return modules[_module].name;\n    }\n\n    /**\n     * @dev Gets the name of an upgrader from its address.\n     * @param _upgrader The upgrader address.\n     * @return the name.\n     */\n    function upgraderInfo(address _upgrader) external view returns (bytes32) {\n        return upgraders[_upgrader].name;\n    }\n\n    /**\n     * @dev Checks if a module is registered.\n     * @param _module The module address.\n     * @return true if the module is registered.\n     */\n    function isRegisteredModule(address _module) external view returns (bool) {\n        return modules[_module].exists;\n    }\n\n    /**\n     * @dev Checks if a list of modules are registered.\n     * @param _modules The list of modules address.\n     * @return true if all the modules are registered.\n     */\n    function isRegisteredModule(address[] calldata _modules) external view returns (bool) {\n        for (uint i = 0; i < _modules.length; i++) {\n            if (!modules[_modules[i]].exists) {\n                return false;\n            }\n        }\n        return true;\n    }\n\n    /**\n     * @dev Checks if an upgrader is registered.\n     * @param _upgrader The upgrader address.\n     * @return true if the upgrader is registered.\n     */\n    function isRegisteredUpgrader(address _upgrader) external view returns (bool) {\n        return upgraders[_upgrader].exists;\n    }\n}",
  "sourcePath": "/Users/name/dev/smartcontracts/contracts/upgrade/ModuleRegistry.sol",
  "compiler": {
    "name": "solc",
    "version": "0.5.4+commit.9549d8ff.Emscripten.clang",
    "optimizer": true,
    "runs": 999
  },
  "schemaVersion": "2.3.1",
  "updatedAt": "2020-04-01T21:49:53.062Z"
}