{
  "contractName": "MultiSigWallet",
  "abi": [
    {
      "constant": true,
      "inputs": [
        {
          "name": "",
          "type": "address"
        }
      ],
      "name": "isOwner",
      "outputs": [
        {
          "name": "",
          "type": "bool"
        }
      ],
      "payable": false,
      "stateMutability": "view",
      "type": "function"
    },
    {
      "constant": true,
      "inputs": [],
      "name": "threshold",
      "outputs": [
        {
          "name": "",
          "type": "uint256"
        }
      ],
      "payable": false,
      "stateMutability": "view",
      "type": "function"
    },
    {
      "constant": true,
      "inputs": [],
      "name": "nonce",
      "outputs": [
        {
          "name": "",
          "type": "uint256"
        }
      ],
      "payable": false,
      "stateMutability": "view",
      "type": "function"
    },
    {
      "constant": true,
      "inputs": [],
      "name": "ownersCount",
      "outputs": [
        {
          "name": "",
          "type": "uint256"
        }
      ],
      "payable": false,
      "stateMutability": "view",
      "type": "function"
    },
    {
      "constant": true,
      "inputs": [],
      "name": "MAX_OWNER_COUNT",
      "outputs": [
        {
          "name": "",
          "type": "uint256"
        }
      ],
      "payable": false,
      "stateMutability": "view",
      "type": "function"
    },
    {
      "inputs": [
        {
          "name": "_threshold",
          "type": "uint256"
        },
        {
          "name": "_owners",
          "type": "address[]"
        }
      ],
      "payable": false,
      "stateMutability": "nonpayable",
      "type": "constructor"
    },
    {
      "payable": true,
      "stateMutability": "payable",
      "type": "fallback"
    },
    {
      "anonymous": false,
      "inputs": [
        {
          "indexed": true,
          "name": "owner",
          "type": "address"
        }
      ],
      "name": "OwnerAdded",
      "type": "event"
    },
    {
      "anonymous": false,
      "inputs": [
        {
          "indexed": true,
          "name": "owner",
          "type": "address"
        }
      ],
      "name": "OwnerRemoved",
      "type": "event"
    },
    {
      "anonymous": false,
      "inputs": [
        {
          "indexed": true,
          "name": "newThreshold",
          "type": "uint256"
        }
      ],
      "name": "ThresholdChanged",
      "type": "event"
    },
    {
      "anonymous": false,
      "inputs": [
        {
          "indexed": true,
          "name": "destination",
          "type": "address"
        },
        {
          "indexed": true,
          "name": "value",
          "type": "uint256"
        },
        {
          "indexed": false,
          "name": "data",
          "type": "bytes"
        }
      ],
      "name": "Executed",
      "type": "event"
    },
    {
      "anonymous": false,
      "inputs": [
        {
          "indexed": true,
          "name": "value",
          "type": "uint256"
        },
        {
          "indexed": true,
          "name": "from",
          "type": "address"
        }
      ],
      "name": "Received",
      "type": "event"
    },
    {
      "constant": false,
      "inputs": [
        {
          "name": "_to",
          "type": "address"
        },
        {
          "name": "_value",
          "type": "uint256"
        },
        {
          "name": "_data",
          "type": "bytes"
        },
        {
          "name": "_signatures",
          "type": "bytes"
        }
      ],
      "name": "execute",
      "outputs": [],
      "payable": false,
      "stateMutability": "nonpayable",
      "type": "function"
    },
    {
      "constant": false,
      "inputs": [
        {
          "name": "_owner",
          "type": "address"
        }
      ],
      "name": "addOwner",
      "outputs": [],
      "payable": false,
      "stateMutability": "nonpayable",
      "type": "function"
    },
    {
      "constant": false,
      "inputs": [
        {
          "name": "_owner",
          "type": "address"
        }
      ],
      "name": "removeOwner",
      "outputs": [],
      "payable": false,
      "stateMutability": "nonpayable",
      "type": "function"
    },
    {
      "constant": false,
      "inputs": [
        {
          "name": "_newThreshold",
          "type": "uint256"
        }
      ],
      "name": "changeThreshold",
      "outputs": [],
      "payable": false,
      "stateMutability": "nonpayable",
      "type": "function"
    }
  ],
  "bytecode": "0x608060405234801561001057600080fd5b506040516111703803806111708339810180604052604081101561003357600080fd5b81516020830180519193928301929164010000000081111561005457600080fd5b8201602081018481111561006757600080fd5b815185602082028301116401000000008211171561008457600080fd5b50509291905050506000815111801561009f5750600a815111155b15156100f6576040517f08c379a000000000000000000000000000000000000000000000000000000000815260040180806020018281038252602281526020018061114e6022913960400191505060405180910390fd5b600082118015610107575080518211155b151561017457604080517f08c379a000000000000000000000000000000000000000000000000000000000815260206004820152601660248201527f4d53573a20496e76616c6964207468726573686f6c6400000000000000000000604482015290519081900360640190fd5b8051600255600182905560005b815181101561022557600160036000848481518110151561019e57fe5b602090810291909101810151600160a060020a03168252810191909152604001600020805460ff191691151591909117905581518290829081106101de57fe5b90602001906020020151600160a060020a03167f994a936646fe87ffe4f1e469d3d6aa417d6b855598397f323de5b449f765f0c360405160405180910390a2600101610181565b5060405182907f6c4ce60fd690e1216286a10b875c5662555f10774484e58142cedd7a90781baa90600090a25050610eec806102626000396000f3fe6080604052600436106100b3576000357c0100000000000000000000000000000000000000000000000000000000900480637065cb4811610086578063b94885461161006b578063b94885461461021e578063d74f8edd14610233578063da0980c714610248576100b3565b80637065cb48146101c9578063affed0e014610209576100b3565b8063173825d9146100e25780632f54bf6e1461012457806342cde4e814610178578063694e80c31461019f575b604051339034907f8863e458255c600ae3e61be347822f3ee57088c8538b68b5dd2357e682e59e1990600090a3005b3480156100ee57600080fd5b506101226004803603602081101561010557600080fd5b503573ffffffffffffffffffffffffffffffffffffffff166103a4565b005b34801561013057600080fd5b506101646004803603602081101561014757600080fd5b503573ffffffffffffffffffffffffffffffffffffffff16610531565b604080519115158252519081900360200190f35b34801561018457600080fd5b5061018d610546565b60408051918252519081900360200190f35b3480156101ab57600080fd5b50610122600480360360208110156101c257600080fd5b503561054c565b3480156101d557600080fd5b50610122600480360360208110156101ec57600080fd5b503573ffffffffffffffffffffffffffffffffffffffff16610632565b34801561021557600080fd5b5061018d6107c2565b34801561022a57600080fd5b5061018d6107c8565b34801561023f57600080fd5b5061018d6107ce565b34801561025457600080fd5b506101226004803603608081101561026b57600080fd5b73ffffffffffffffffffffffffffffffffffffffff823516916020810135918101906060810160408201356401000000008111156102a857600080fd5b8201836020820111156102ba57600080fd5b803590602001918460018302840111640100000000831117156102dc57600080fd5b91908080601f016020809104026020016040519081016040528093929190818152602001838380828437600092019190915250929594936020810193503591505064010000000081111561032f57600080fd5b82018360208201111561034157600080fd5b8035906020019184600183028401116401000000008311171561036357600080fd5b91908080601f0160208091040260200160405190810160405280939291908181526020018383808284376000920191909152509295506107d3945050505050565b3330146103ea57604051600080516020610ea18339815191528152600401808060200182810382526022815260200180610e7f6022913960400191505060405180910390fd5b6001546002541161044a5760408051600080516020610ea1833981519152815260206004820152601860248201527f4d53573a20546f6f20666577206f776e657273206c6566740000000000000000604482015290519081900360640190fd5b73ffffffffffffffffffffffffffffffffffffffff811660009081526003602052604090205460ff1615156001146104d15760408051600080516020610ea1833981519152815260206004820152601160248201527f4d53573a204e6f7420616e206f776e6572000000000000000000000000000000604482015290519081900360640190fd5b6002805460001901905573ffffffffffffffffffffffffffffffffffffffff8116600081815260036020526040808220805460ff19169055517f58619076adf5bb0943d100ef88d52d7c3fd691b19d3a9071b555b651fbf418da9190a250565b60036020526000908152604090205460ff1681565b60015481565b33301461059257604051600080516020610ea18339815191528152600401808060200182810382526022815260200180610e7f6022913960400191505060405180910390fd5b6000811180156105a457506002548111155b15156105ff5760408051600080516020610ea1833981519152815260206004820152601a60248201527f4d53573a20496e76616c6964206e6577207468726573686f6c64000000000000604482015290519081900360640190fd5b600181905560405181907f6c4ce60fd690e1216286a10b875c5662555f10774484e58142cedd7a90781baa90600090a250565b33301461067857604051600080516020610ea18339815191528152600401808060200182810382526022815260200180610e7f6022913960400191505060405180910390fd5b600254600a116106d75760408051600080516020610ea1833981519152815260206004820152601c60248201527f4d53573a204d41585f4f574e45525f434f554e54207265616368656400000000604482015290519081900360640190fd5b73ffffffffffffffffffffffffffffffffffffffff811660009081526003602052604090205460ff161561075a5760408051600080516020610ea1833981519152815260206004820152601260248201527f4d53573a20416c7265616479206f776e65720000000000000000000000000000604482015290519081900360640190fd5b60028054600190810190915573ffffffffffffffffffffffffffffffffffffffff8216600081815260036020526040808220805460ff1916909417909355915190917f994a936646fe87ffe4f1e469d3d6aa417d6b855598397f323de5b449f765f0c391a250565b60005481565b60025481565b600a81565b600080600080604185518115156107e657fe5b049050600154811015151561084a5760408051600080516020610ea1833981519152815260206004820152601a60248201527f4d53573a204e6f7420656e6f756768207369676e617475726573000000000000604482015290519081900360640190fd5b600060197f01000000000000000000000000000000000000000000000000000000000000000260007f010000000000000000000000000000000000000000000000000000000000000002308b8b8b60005460405160200180887effffffffffffffffffffffffffffffffffffffffffffffffffffffffffffff19167effffffffffffffffffffffffffffffffffffffffffffffffffffffffffffff19168152600101877effffffffffffffffffffffffffffffffffffffffffffffffffffffffffffff19167effffffffffffffffffffffffffffffffffffffffffffffffffffffffffffff191681526001018673ffffffffffffffffffffffffffffffffffffffff1673ffffffffffffffffffffffffffffffffffffffff166c010000000000000000000000000281526014018573ffffffffffffffffffffffffffffffffffffffff1673ffffffffffffffffffffffffffffffffffffffff166c0100000000000000000000000002815260140184815260200183805190602001908083835b602083106109e95780518252601f1990920191602091820191016109ca565b51815160209384036101000a6000190180199092169116179052920193845250604080518085038152938201905282519201919091206000805460010181559098509650869550859450505050505b84811015610d9357610a4a8982610def565b604080517f19457468657265756d205369676e6564204d6573736167653a0a333200000000602080830191909152603c8083018b905283518084039091018152605c8301808552815191830191909120600091829052607c84018086525260ff8716609c84015260bc830186905260dc83018590529251959d50939b509199509260019260fc808401939192601f1981019281900390910190855afa158015610af7573d6000803e3d6000fd5b5050604051601f19015191505073ffffffffffffffffffffffffffffffffffffffff80841690821611610b795760408051600080516020610ea1833981519152815260206004820152601d60248201527f4d53573a204261646c79206f726465726564207369676e617475726573000000604482015290519081900360640190fd5b73ffffffffffffffffffffffffffffffffffffffff8116600090815260036020526040902054909250829060ff1615610d8a57600180549401938410610d8a5760008d73ffffffffffffffffffffffffffffffffffffffff168d8d6040518082805190602001908083835b60208310610c035780518252601f199092019160209182019101610be4565b6001836020036101000a03801982511681845116808217855250505050505090500191505060006040518083038185875af1925050503d8060008114610c65576040519150601f19603f3d011682016040523d82523d6000602084013e610c6a565b606091505b50509050801515610cca5760408051600080516020610ea1833981519152815260206004820152601960248201527f4d53573a2045787465726e616c2063616c6c206661696c656400000000000000604482015290519081900360640190fd5b8c8e73ffffffffffffffffffffffffffffffffffffffff167fcaf938de11c367272220bfd1d2baa99ca46665e7bc4d85f00adb51b90fe1fa9f8e6040518080602001828103825283818151815260200191508051906020019080838360005b83811015610d41578181015183820152602001610d29565b50505050905090810190601f168015610d6e5780820380516001836020036101000a031916815260200191505b509250505060405180910390a350505050505050505050610de9565b50600101610a38565b5060408051600080516020610ea1833981519152815260206004820181905260248201527f4d53573a204e6f7420656e6f7567682076616c6964207369676e617475726573604482015290519081900360640190fd5b50505050565b6041808202830160208101516040820151919092015160ff169190601b831480610e1c57508260ff16601c145b1515610e775760408051600080516020610ea1833981519152815260206004820152600e60248201527f4d53573a20496e76616c69642076000000000000000000000000000000000000604482015290519081900360640190fd5b925092509256fe4d53573a2043616c6c696e67206163636f756e74206973206e6f742077616c6c657408c379a000000000000000000000000000000000000000000000000000000000a165627a7a723058204b36c0ad5a0670b17f8cea1a2a96f5ee3c421a16496cd46a2f49962cca6b88c400294d53573a204e6f7420656e6f756768206f7220746f6f206d616e79206f776e657273",
  "source": "\n\npragma solidity ^0.5.4;\n\n/**\n * @title MultiSig\n * @dev Simple MultiSig using off-chain signing.\n * @author Julien Niset - <julien@argent.xyz>\n */\ncontract MultiSigWallet {\n\n    uint constant public MAX_OWNER_COUNT = 10;\n\n    // Incrementing counter to prevent replay attacks\n    uint256 public nonce;\n    // The threshold\n    uint256 public threshold;\n    // The number of owners\n    uint256 public ownersCount;\n    // Mapping to check if an address is an owner\n    mapping (address => bool) public isOwner;\n\n    // Events\n    event OwnerAdded(address indexed owner);\n    event OwnerRemoved(address indexed owner);\n    event ThresholdChanged(uint256 indexed newThreshold);\n    event Executed(address indexed destination, uint256 indexed value, bytes data);\n    event Received(uint256 indexed value, address indexed from);\n\n    /**\n     * @dev Throws if the calling account is not the multisig.\n     * @dev Mainly used for enforcing the use of internal functions through the \"execute\" function\n     */\n    modifier onlyWallet() {\n        require(msg.sender == address(this), \"MSW: Calling account is not wallet\");\n        _;\n    }\n\n    /**\n     * @dev Constructor.\n     * @param _threshold The threshold of the multisig.\n     * @param _owners The initial set of owners of the multisig.\n     */\n    constructor(uint256 _threshold, address[] memory _owners) public {\n        require(_owners.length > 0 && _owners.length <= MAX_OWNER_COUNT, \"MSW: Not enough or too many owners\");\n        require(_threshold > 0 && _threshold <= _owners.length, \"MSW: Invalid threshold\");\n        ownersCount = _owners.length;\n        threshold = _threshold;\n        for (uint256 i = 0; i < _owners.length; i++) {\n            isOwner[_owners[i]] = true;\n            emit OwnerAdded(_owners[i]);\n        }\n        emit ThresholdChanged(_threshold);\n    }\n\n    /**\n     * @dev Only entry point of the multisig. The method will execute any transaction provided that it\n     * receieved enough signatures from the wallet owners.\n     * @param _to The destination address for the transaction to execute.\n     * @param _value The value parameter for the transaction to execute.\n     * @param _data The data parameter for the transaction to execute.\n     * @param _signatures Concatenated signatures ordered based on increasing signer's address.\n     */\n    function execute(address _to, uint _value, bytes memory _data, bytes memory _signatures) public {\n        uint8 v;\n        bytes32 r;\n        bytes32 s;\n        uint256 count = _signatures.length / 65;\n        require(count >= threshold, \"MSW: Not enough signatures\");\n        bytes32 txHash = keccak256(abi.encodePacked(byte(0x19), byte(0), address(this), _to, _value, _data, nonce));\n        nonce += 1;\n        uint256 valid = 0;\n        address lastSigner = address(0);\n        for (uint256 i = 0; i < count; i++) {\n            (v,r,s) = splitSignature(_signatures, i);\n            address recovered = ecrecover(keccak256(abi.encodePacked(\"\\x19Ethereum Signed Message:\\n32\",txHash)), v, r, s);\n            require(recovered > lastSigner, \"MSW: Badly ordered signatures\"); // make sure signers are different\n            lastSigner = recovered;\n            if (isOwner[recovered]) {\n                valid += 1;\n                if (valid >= threshold) {\n                    // solium-disable-next-line security/no-call-value\n                    (bool success,) = _to.call.value(_value)(_data);\n                    require(success, \"MSW: External call failed\");\n                    emit Executed(_to, _value, _data);\n                    return;\n                }\n            }\n        }\n        // If not enough signatures for threshold, then the transaction is not executed\n        revert(\"MSW: Not enough valid signatures\");\n    }\n\n    /**\n     * @dev Adds an owner to the multisig. This method can only be called by the multisig itself\n     * (i.e. it must go through the execute method and be confirmed by the owners).\n     * @param _owner The address of the new owner.\n     */\n    function addOwner(address _owner) public onlyWallet {\n        require(ownersCount < MAX_OWNER_COUNT, \"MSW: MAX_OWNER_COUNT reached\");\n        require(isOwner[_owner] == false, \"MSW: Already owner\");\n        ownersCount += 1;\n        isOwner[_owner] = true;\n        emit OwnerAdded(_owner);\n    }\n\n    /**\n     * @dev Removes an owner from the multisig. This method can only be called by the multisig itself\n     * (i.e. it must go through the execute method and be confirmed by the owners).\n     * @param _owner The address of the owner to be removed.\n     */\n    function removeOwner(address _owner) public onlyWallet {\n        require(ownersCount > threshold, \"MSW: Too few owners left\");\n        require(isOwner[_owner] == true, \"MSW: Not an owner\");\n        ownersCount -= 1;\n        delete isOwner[_owner];\n        emit OwnerRemoved(_owner);\n    }\n\n    /**\n     * @dev Changes the threshold of the multisig. This method can only be called by the multisig itself\n     * (i.e. it must go through the execute method and be confirmed by the owners).\n     * @param _newThreshold The new threshold.\n     */\n    function changeThreshold(uint256 _newThreshold) public onlyWallet {\n        require(_newThreshold > 0 && _newThreshold <= ownersCount, \"MSW: Invalid new threshold\");\n        threshold = _newThreshold;\n        emit ThresholdChanged(_newThreshold);\n    }\n\n    /**\n     * @dev Parses the signatures and extract (r, s, v) for a signature at a given index.\n     * A signature is {bytes32 r}{bytes32 s}{uint8 v} in compact form where the signatures are concatenated.\n     * @param _signatures concatenated signatures\n     * @param _index which signature to read (0, 1, 2, ...)\n     */\n    function splitSignature(bytes memory _signatures, uint256 _index) internal pure returns (uint8 v, bytes32 r, bytes32 s) {\n        // we jump 32 (0x20) as the first slot of bytes contains the length\n        // we jump 65 (0x41) per signature\n        // for v we load 32 bytes ending with v (the first 31 come from s) tehn apply a mask\n        // solium-disable-next-line security/no-inline-assembly\n        assembly {\n            r := mload(add(_signatures, add(0x20,mul(0x41,_index))))\n            s := mload(add(_signatures, add(0x40,mul(0x41,_index))))\n            v := and(mload(add(_signatures, add(0x41,mul(0x41,_index)))), 0xff)\n        }\n        require(v == 27 || v == 28, \"MSW: Invalid v\");\n    }\n\n    /**\n     * @dev Fallback function to allow the multisig to receive ETH, which will fail if not implemented\n     */\n    function () external payable {\n        emit Received(msg.value, msg.sender);\n    }\n\n}",
  "sourcePath": "/Users/name/dev/argent-contracts-release-1.5.0/contracts/MultiSigWallet.sol",
  "compiler": {
    "name": "solc",
    "version": "0.5.4+commit.9549d8ff.Emscripten.clang",
    "optimizer": true,
    "runs": 999
  },
  "schemaVersion": "2.3.1",
  "updatedAt": "2020-04-01T15:58:47.428Z"
}