{
  "contractName": "NewTestModule",
  "abi": [
    {
      "constant": false,
      "inputs": [
        {
          "name": "_wallet",
          "type": "address"
        }
      ],
      "name": "init",
      "outputs": [],
      "payable": false,
      "stateMutability": "nonpayable",
      "type": "function"
    },
    {
      "constant": true,
      "inputs": [
        {
          "name": "_wallet",
          "type": "address"
        }
      ],
      "name": "getNonce",
      "outputs": [
        {
          "name": "nonce",
          "type": "uint256"
        }
      ],
      "payable": false,
      "stateMutability": "view",
      "type": "function"
    },
    {
      "constant": false,
      "inputs": [
        {
          "name": "_wallet",
          "type": "address"
        },
        {
          "name": "_module",
          "type": "address"
        }
      ],
      "name": "addModule",
      "outputs": [],
      "payable": false,
      "stateMutability": "nonpayable",
      "type": "function"
    },
    {
      "constant": false,
      "inputs": [
        {
          "name": "_token",
          "type": "address"
        }
      ],
      "name": "recoverToken",
      "outputs": [],
      "payable": false,
      "stateMutability": "nonpayable",
      "type": "function"
    },
    {
      "constant": false,
      "inputs": [
        {
          "name": "_wallet",
          "type": "address"
        },
        {
          "name": "_data",
          "type": "bytes"
        },
        {
          "name": "_nonce",
          "type": "uint256"
        },
        {
          "name": "_signatures",
          "type": "bytes"
        },
        {
          "name": "_gasPrice",
          "type": "uint256"
        },
        {
          "name": "_gasLimit",
          "type": "uint256"
        }
      ],
      "name": "execute",
      "outputs": [
        {
          "name": "success",
          "type": "bool"
        }
      ],
      "payable": false,
      "stateMutability": "nonpayable",
      "type": "function"
    },
    {
      "constant": true,
      "inputs": [],
      "name": "dapp",
      "outputs": [
        {
          "name": "",
          "type": "address"
        }
      ],
      "payable": false,
      "stateMutability": "view",
      "type": "function"
    },
    {
      "constant": true,
      "inputs": [
        {
          "name": "",
          "type": "address"
        }
      ],
      "name": "relayer",
      "outputs": [
        {
          "name": "nonce",
          "type": "uint256"
        }
      ],
      "payable": false,
      "stateMutability": "view",
      "type": "function"
    },
    {
      "constant": true,
      "inputs": [],
      "name": "isOnlyOwnerModule",
      "outputs": [
        {
          "name": "",
          "type": "bytes4"
        }
      ],
      "payable": false,
      "stateMutability": "pure",
      "type": "function"
    },
    {
      "inputs": [
        {
          "name": "_registry",
          "type": "address"
        }
      ],
      "payable": false,
      "stateMutability": "nonpayable",
      "type": "constructor"
    },
    {
      "anonymous": false,
      "inputs": [
        {
          "indexed": true,
          "name": "wallet",
          "type": "address"
        },
        {
          "indexed": true,
          "name": "success",
          "type": "bool"
        },
        {
          "indexed": false,
          "name": "signedHash",
          "type": "bytes32"
        }
      ],
      "name": "TransactionExecuted",
      "type": "event"
    },
    {
      "anonymous": false,
      "inputs": [
        {
          "indexed": false,
          "name": "name",
          "type": "bytes32"
        }
      ],
      "name": "ModuleCreated",
      "type": "event"
    },
    {
      "anonymous": false,
      "inputs": [
        {
          "indexed": false,
          "name": "wallet",
          "type": "address"
        }
      ],
      "name": "ModuleInitialised",
      "type": "event"
    },
    {
      "constant": false,
      "inputs": [
        {
          "name": "_wallet",
          "type": "address"
        }
      ],
      "name": "callDapp",
      "outputs": [],
      "payable": false,
      "stateMutability": "nonpayable",
      "type": "function"
    },
    {
      "constant": false,
      "inputs": [
        {
          "name": "_wallet",
          "type": "address"
        },
        {
          "name": "_val",
          "type": "uint256"
        },
        {
          "name": "_isNewWallet",
          "type": "bool"
        }
      ],
      "name": "callDapp2",
      "outputs": [
        {
          "name": "_ret",
          "type": "uint256"
        }
      ],
      "payable": false,
      "stateMutability": "nonpayable",
      "type": "function"
    },
    {
      "constant": false,
      "inputs": [
        {
          "name": "_wallet",
          "type": "address"
        },
        {
          "name": "reason",
          "type": "string"
        }
      ],
      "name": "fail",
      "outputs": [],
      "payable": false,
      "stateMutability": "nonpayable",
      "type": "function"
    }
  ],
  "bytecode": "0x608060405234801561001057600080fd5b506040516020806119b28339810180604052602081101561003057600080fd5b505160008054600160a060020a038316600160a060020a0319918216178255600180549091169055604080517f4e6577546573744d6f64756c65000000000000000000000000000000000000008082529151849392917f3019c8fc80239e3dff8f781212ae2004839c2cb61d6c70acd279ac65392145df919081900360200190a15050506040516100c090610103565b604051809103906000f0801580156100dc573d6000803e3d6000fd5b5060038054600160a060020a031916600160a060020a039290921691909117905550610110565b6101c2806117f083390190565b6116d18061011f6000396000f3fe608060405234801561001057600080fd5b50600436106100e6576000357c0100000000000000000000000000000000000000000000000000000000900480639be65a601161009e578063b821e54011610078578063b821e5401461030d578063c9b5ef8e1461038d578063d490da4d146103b3576100e6565b80639be65a60146101d3578063aacaaf88146101f9578063b6de460a146102e9576100e6565b80635a1db8c4116100cf5780635a1db8c41461014b5780636024c34b1461017957806371ad07001461019f576100e6565b806319ab453c146100eb5780632d0335ab14610113575b600080fd5b6101116004803603602081101561010157600080fd5b5035600160a060020a03166103f0565b005b6101396004803603602081101561012957600080fd5b5035600160a060020a03166104a8565b60408051918252519081900360200190f35b6101116004803603604081101561016157600080fd5b50600160a060020a03813581169160200135166104c3565b6101116004803603602081101561018f57600080fd5b5035600160a060020a03166106b5565b610139600480360360608110156101b557600080fd5b50600160a060020a038135169060208101359060400135151561072d565b610111600480360360208110156101e957600080fd5b5035600160a060020a0316610903565b6102d5600480360360c081101561020f57600080fd5b600160a060020a03823516919081019060408101602082013564010000000081111561023a57600080fd5b82018360208201111561024c57600080fd5b8035906020019184600183028401116401000000008311171561026e57600080fd5b9193909282359260408101906020013564010000000081111561029057600080fd5b8201836020820111156102a257600080fd5b803590602001918460018302840111640100000000831117156102c457600080fd5b919350915080359060200135610a36565b604080519115158252519081900360200190f35b6102f1610d42565b60408051600160a060020a039092168252519081900360200190f35b6101116004803603604081101561032357600080fd5b600160a060020a03823516919081019060408101602082013564010000000081111561034e57600080fd5b82018360208201111561036057600080fd5b8035906020019184600183028401116401000000008311171561038257600080fd5b509092509050610d51565b610139600480360360208110156103a357600080fd5b5035600160a060020a0316610e01565b6103bb610e13565b604080517fffffffff000000000000000000000000000000000000000000000000000000009092168252519081900360200190f35b8033600160a060020a0382161461046857604080517f08c379a000000000000000000000000000000000000000000000000000000000815260206004820152601960248201527f424d3a2063616c6c6572206d7573742062652077616c6c657400000000000000604482015290519081900360640190fd5b60408051600160a060020a038416815290517f9fcca3f73f85397e2bf03647abf243c20b753bd54463ff3cae74de2971c112fa9181900360200190a15050565b600160a060020a031660009081526002602052604090205490565b81333014806104d757506104d78133610e37565b151561052e576040517f08c379a00000000000000000000000000000000000000000000000000000000081526004018080602001828103825260238152602001806116586023913960400191505060405180910390fd5b600054604080517f0bcd4ebb000000000000000000000000000000000000000000000000000000008152600160a060020a03858116600483015291519190921691630bcd4ebb916024808301926020929190829003018186803b15801561059457600080fd5b505afa1580156105a8573d6000803e3d6000fd5b505050506040513d60208110156105be57600080fd5b5051151561062d57604080517f08c379a000000000000000000000000000000000000000000000000000000000815260206004820152601c60248201527f424d3a206d6f64756c65206973206e6f74207265676973746572656400000000604482015290519081900360640190fd5b604080517f1f17732d000000000000000000000000000000000000000000000000000000008152600160a060020a03848116600483015260016024830152915191851691631f17732d9160448082019260009290919082900301818387803b15801561069857600080fd5b505af11580156106ac573d6000803e3d6000fd5b50505050505050565b6003546040805160048152602481019091526020810180517bffffffffffffffffffffffffffffffffffffffffffffffffffffffff167f3179425400000000000000000000000000000000000000000000000000000000179052610729918391600160a060020a0390911690600090610ed7565b5050565b6003546040805160248082018690528251808303909101815260449091019091526020810180517bffffffffffffffffffffffffffffffffffffffffffffffffffffffff167f5b72e8c3000000000000000000000000000000000000000000000000000000001790526000916060916107b5918791600160a060020a03909116908590610ed7565b905082156108a3578051600010610817576040517f08c379a000000000000000000000000000000000000000000000000000000000815260040180806020018281038252602b81526020018061167b602b913960400191505060405180910390fd5b80806020019051602081101561082c57600080fd5b5051915083821461089e57604080517f08c379a000000000000000000000000000000000000000000000000000000000815260206004820152601a60248201527f4e6577546573744d6f64756c653a20696e76616c69642076616c000000000000604482015290519081900360640190fd5b6108fb565b8051156108fb576040517f08c379a000000000000000000000000000000000000000000000000000000000815260040180806020018281038252602d81526020018061162b602d913960400191505060405180910390fd5b509392505050565b604080517f70a082310000000000000000000000000000000000000000000000000000000081523060048201529051600091600160a060020a038416916370a0823191602480820192602092909190829003018186803b15801561096657600080fd5b505afa15801561097a573d6000803e3d6000fd5b505050506040513d602081101561099057600080fd5b505160008054604080517fa9059cbb000000000000000000000000000000000000000000000000000000008152600160a060020a0392831660048201526024810185905290519394509085169263a9059cbb92604480840193602093929083900390910190829087803b158015610a0657600080fd5b505af1158015610a1a573d6000803e3d6000fd5b505050506040513d6020811015610a3057600080fd5b50505050565b6000805a90506000610a86308c60008d8d8080601f0160208091040260200160405190810160405280939291908181526020018383808284376000920191909152508f92508c91508b9050611171565b9050610a938b89836112b4565b1515610b0057604080517f08c379a000000000000000000000000000000000000000000000000000000000815260206004820152601560248201527f524d3a204475706c696361746520726571756573740000000000000000000000604482015290519081900360640190fd5b610b408b8b8b8080601f0160208091040260200160405190810160405280939291908181526020018383808284376000920191909152506112c892505050565b1515610b97576040517f08c379a000000000000000000000000000000000000000000000000000000000815260040180806020018281038252604a8152602001806115e1604a913960600191505060405180910390fd5b6000610bd98c8c8c8080601f01602080910402602001604051908101604052809392919081815260200183838082843760009201919091525061135392505050565b905060418102871415610cf157610bf28c86888461135b565b15610cf157801580610c755750610c758c8c8c8080601f01602080910402602001604051908101604052809392919081815260200183838082843760009201919091525050604080516020601f8f018190048102820181019092528d815288935091508d908d908190840183828082843760009201919091525061142d92505050565b15610cf15730600160a060020a03168b8b604051808383808284376040519201945060009350909150508083038183865af19150503d8060008114610cd6576040519150601f19603f3d011682016040523d82523d6000602084013e610cdb565b606091505b505080945050610cf18c5a850388888533611452565b60408051838152905185151591600160a060020a038f16917f6bb0b384ce772133df63560651bc8c727c53306cec1d51e2cbf8ea35fb8f2ec19181900360200190a350505098975050505050505050565b600354600160a060020a031681565b60035460405160206024820190815260448201849052610a30928692600160a060020a039091169160009187918791819060640184848082843760008184015260408051601f19601f9093018316909401848103909201845252506020810180517f3ed63217000000000000000000000000000000000000000000000000000000007bffffffffffffffffffffffffffffffffffffffffffffffffffffffff9091161790529350610ed792505050565b60026020526000908152604090205481565b7fd490da4d0000000000000000000000000000000000000000000000000000000090565b600081600160a060020a031683600160a060020a0316638da5cb5b6040518163ffffffff167c010000000000000000000000000000000000000000000000000000000002815260040160206040518083038186803b158015610e9857600080fd5b505afa158015610eac573d6000803e3d6000fd5b505050506040513d6020811015610ec257600080fd5b5051600160a060020a03161490505b92915050565b6060600085600160a060020a03168585856040516024018084600160a060020a0316600160a060020a0316815260200183815260200180602001828103825283818151815260200191508051906020019080838360005b83811015610f46578181015183820152602001610f2e565b50505050905090810190601f168015610f735780820380516001836020036101000a031916815260200191505b5060408051601f198184030181529181526020820180517bffffffffffffffffffffffffffffffffffffffffffffffffffffffff167f8f6f033200000000000000000000000000000000000000000000000000000000178152905182519297509550859450925090508083835b60208310610fff5780518252601f199092019160209182019101610fe0565b6001836020036101000a0380198251168184511680821785525050505050509050019150506000604051808303816000865af19150503d8060008114611061576040519150601f19603f3d011682016040523d82523d6000602084013e611066565b606091505b5092509050808015611079575060008251115b156110e65781806020019051602081101561109357600080fd5b8101908080516401000000008111156110ab57600080fd5b820160208101848111156110be57600080fd5b81516401000000008111828201871017156110d857600080fd5b509095506111689350505050565b6000825111156110fa573d6000803e3d6000fd5b80151561116857604080517f08c379a000000000000000000000000000000000000000000000000000000000815260206004820152601a60248201527f424d3a2077616c6c657420696e766f6b65207265766572746564000000000000604482015290519081900360640190fd5b50949350505050565b6040517f190000000000000000000000000000000000000000000000000000000000000060208083018281526000602185018190526c01000000000000000000000000600160a060020a03808e16820260228801528c16026036860152604a85018a90528851909485938d938d938d938d938d938d938d939192606a909201918701908083835b602083106112175780518252601f1990920191602091820191016111f8565b51815160209384036101000a600019018019909216911617905292019586525084810193909352506040808401919091528051808403820181526060840182528051908301207f19457468657265756d205369676e6564204d6573736167653a0a3332000000006080850152609c808501919091528151808503909101815260bc909301905281519101209e9d5050505050505050505050505050565b60006112c084846114b0565b949350505050565b6000602482511015151561133d57604080517f08c379a000000000000000000000000000000000000000000000000000000000815260206004820152601660248201527f524d3a20496e76616c6964206461746157616c6c657400000000000000000000604482015290519081900360640190fd5b5060240151600160a060020a0391821691161490565b600192915050565b6000808311801561136c5750600182115b8015611415575082840285600160a060020a03163110806114155750604080517fd6eb1bbf0000000000000000000000000000000000000000000000000000000081523060048201529051600160a060020a0387169163d6eb1bbf916024808301926020929190829003018186803b1580156113e757600080fd5b505afa1580156113fb573d6000803e3d6000fd5b505050506040513d602081101561141157600080fd5b5051155b15611422575060006112c0565b506001949350505050565b60008061143c84846000611536565b90506114488682610e37565b9695505050505050565b61726c85016000851180156114675750600183115b80156114735750838111155b156106ac573a851115611487573a0261148a565b84025b6114a68783836020604051908101604052806000815250610ed7565b5050505050505050565b600160a060020a03821660009081526002602052604081205482116114d757506000610ed1565b7001000000000000000000000000000000006fffffffffffffffffffffffffffffffff198316044361271001811115611514576000915050610ed1565b5050600160a060020a0391909116600090815260026020526040902055600190565b6041808202830160208101516040820151919092015160009260ff9190911691601b83148061156857508260ff16601c145b151561157357600080fd5b604080516000815260208082018084528a905260ff8616828401526060820185905260808201849052915160019260a0808401939192601f1981019281900390910190855afa1580156115ca573d6000803e3d6000fd5b5050604051601f1901519897505050505050505056fe524d3a207468652077616c6c657420617574686f72697a656420697320646966666572656e74207468656e2074686520746172676574206f66207468652072656c6179656420646174614e6577546573744d6f64756c653a2063616c6c44617070322072657475726e656420736f6d6520726573756c74424d3a206d75737420626520616e206f776e657220666f72207468652077616c6c65744e6577546573744d6f64756c653a2063616c6c44617070322072657475726e6564206e6f20726573756c74a165627a7a72305820b5860e7a62c068bd5c94eaa55388bec07dd47173c8f695674697d0a8079fdf590029608060405234801561001057600080fd5b506101a2806100206000396000f3fe608060405234801561001057600080fd5b506004361061005d577c010000000000000000000000000000000000000000000000000000000060003504633179425481146100625780633ed632171461006c5780635b72e8c3146100dc575b600080fd5b61006a61010b565b005b61006a6004803603602081101561008257600080fd5b81019060208101813564010000000081111561009d57600080fd5b8201836020820111156100af57600080fd5b803590602001918460018302840111640100000000831117156100d157600080fd5b50909250905061010d565b6100f9600480360360208110156100f257600080fd5b5035610173565b60408051918252519081900360200190f35b565b81816040517f08c379a000000000000000000000000000000000000000000000000000000000815260040180806020018281038252848482818152602001925080828437600083820152604051601f909101601f19169092018290039550909350505050fd5b9056fea165627a7a7230582081409e1f21299d3dd9db6bdabaa191ecd9a6f1a1988e580fb1eec2254337fd3e0029",
  "source": "pragma solidity ^0.5.4;\n\nimport \"../../../modules/common/BaseModule.sol\";\nimport \"../../../modules/common/RelayerModule.sol\";\nimport \"../../../modules/common/OnlyOwnerModule.sol\";\nimport \"./TestDapp.sol\";\n\n/**\n * @title NewTestModule\n * @dev Test Module\n * @author Olivier VDB - <olivier@argent.xyz>\n */\ncontract NewTestModule is BaseModule, RelayerModule, OnlyOwnerModule {\n\n    bytes32 constant NAME = \"NewTestModule\";\n\n    TestDapp public dapp;\n\n    // *************** Constructor ********************** //\n\n    constructor(\n        ModuleRegistry _registry\n    )\n        BaseModule(_registry, GuardianStorage(0), NAME)\n        public\n    {\n        dapp = new TestDapp();\n    }\n\n    // *************** External/Public Functions ********************* //\n\n    function callDapp(address _wallet)\n        external\n    {\n        invokeWallet(_wallet, address(dapp), 0, abi.encodeWithSignature(\"noReturn()\"));\n    }\n\n    function callDapp2(address _wallet, uint256 _val, bool _isNewWallet)\n        external returns (uint256 _ret)\n    {\n        bytes memory result = invokeWallet(_wallet, address(dapp), 0, abi.encodeWithSignature(\"uintReturn(uint256)\", _val));\n        if(_isNewWallet) {\n            require(result.length > 0, \"NewTestModule: callDapp2 returned no result\");\n            (_ret) = abi.decode(result, (uint256));\n            require(_ret == _val, \"NewTestModule: invalid val\");\n        } else {\n            require(result.length == 0, \"NewTestModule: callDapp2 returned some result\");\n        }\n    }\n\n    function fail(address _wallet, string calldata reason) external {\n        invokeWallet(_wallet, address(dapp), 0, abi.encodeWithSignature(\"doFail(string)\", reason));\n    }\n\n}",
  "sourcePath": "/Users/name/dev/argent-contracts-release-1.5.0/contracts/test/argent/utils/NewTestModule.sol",
  "compiler": {
    "name": "solc",
    "version": "0.5.4+commit.9549d8ff.Emscripten.clang",
    "optimizer": true,
    "runs": 999
  },
  "schemaVersion": "2.3.1",
  "updatedAt": "2020-04-01T15:58:47.310Z"
}