{
  "contractName": "NftTransfer",
  "abi": [
    {
      "constant": true,
      "inputs": [
        {
          "name": "_wallet",
          "type": "address"
        }
      ],
      "name": "getNonce",
      "outputs": [
        {
          "name": "nonce",
          "type": "uint256"
        }
      ],
      "payable": false,
      "stateMutability": "view",
      "type": "function"
    },
    {
      "constant": false,
      "inputs": [
        {
          "name": "_wallet",
          "type": "address"
        },
        {
          "name": "_module",
          "type": "address"
        }
      ],
      "name": "addModule",
      "outputs": [],
      "payable": false,
      "stateMutability": "nonpayable",
      "type": "function"
    },
    {
      "constant": false,
      "inputs": [
        {
          "name": "_token",
          "type": "address"
        }
      ],
      "name": "recoverToken",
      "outputs": [],
      "payable": false,
      "stateMutability": "nonpayable",
      "type": "function"
    },
    {
      "constant": false,
      "inputs": [
        {
          "name": "_wallet",
          "type": "address"
        },
        {
          "name": "_data",
          "type": "bytes"
        },
        {
          "name": "_nonce",
          "type": "uint256"
        },
        {
          "name": "_signatures",
          "type": "bytes"
        },
        {
          "name": "_gasPrice",
          "type": "uint256"
        },
        {
          "name": "_gasLimit",
          "type": "uint256"
        }
      ],
      "name": "execute",
      "outputs": [
        {
          "name": "success",
          "type": "bool"
        }
      ],
      "payable": false,
      "stateMutability": "nonpayable",
      "type": "function"
    },
    {
      "constant": true,
      "inputs": [
        {
          "name": "",
          "type": "address"
        }
      ],
      "name": "relayer",
      "outputs": [
        {
          "name": "nonce",
          "type": "uint256"
        }
      ],
      "payable": false,
      "stateMutability": "view",
      "type": "function"
    },
    {
      "constant": true,
      "inputs": [],
      "name": "ckAddress",
      "outputs": [
        {
          "name": "",
          "type": "address"
        }
      ],
      "payable": false,
      "stateMutability": "view",
      "type": "function"
    },
    {
      "constant": true,
      "inputs": [],
      "name": "isOnlyOwnerModule",
      "outputs": [
        {
          "name": "",
          "type": "bytes4"
        }
      ],
      "payable": false,
      "stateMutability": "pure",
      "type": "function"
    },
    {
      "inputs": [
        {
          "name": "_registry",
          "type": "address"
        },
        {
          "name": "_guardianStorage",
          "type": "address"
        },
        {
          "name": "_ckAddress",
          "type": "address"
        }
      ],
      "payable": false,
      "stateMutability": "nonpayable",
      "type": "constructor"
    },
    {
      "anonymous": false,
      "inputs": [
        {
          "indexed": true,
          "name": "wallet",
          "type": "address"
        },
        {
          "indexed": true,
          "name": "nftContract",
          "type": "address"
        },
        {
          "indexed": true,
          "name": "tokenId",
          "type": "uint256"
        },
        {
          "indexed": false,
          "name": "to",
          "type": "address"
        },
        {
          "indexed": false,
          "name": "data",
          "type": "bytes"
        }
      ],
      "name": "NonFungibleTransfer",
      "type": "event"
    },
    {
      "anonymous": false,
      "inputs": [
        {
          "indexed": true,
          "name": "wallet",
          "type": "address"
        },
        {
          "indexed": true,
          "name": "success",
          "type": "bool"
        },
        {
          "indexed": false,
          "name": "signedHash",
          "type": "bytes32"
        }
      ],
      "name": "TransactionExecuted",
      "type": "event"
    },
    {
      "anonymous": false,
      "inputs": [
        {
          "indexed": false,
          "name": "name",
          "type": "bytes32"
        }
      ],
      "name": "ModuleCreated",
      "type": "event"
    },
    {
      "anonymous": false,
      "inputs": [
        {
          "indexed": false,
          "name": "wallet",
          "type": "address"
        }
      ],
      "name": "ModuleInitialised",
      "type": "event"
    },
    {
      "constant": false,
      "inputs": [
        {
          "name": "_wallet",
          "type": "address"
        }
      ],
      "name": "init",
      "outputs": [],
      "payable": false,
      "stateMutability": "nonpayable",
      "type": "function"
    },
    {
      "constant": false,
      "inputs": [
        {
          "name": "",
          "type": "address"
        },
        {
          "name": "",
          "type": "address"
        },
        {
          "name": "",
          "type": "uint256"
        },
        {
          "name": "",
          "type": "bytes"
        }
      ],
      "name": "onERC721Received",
      "outputs": [
        {
          "name": "",
          "type": "bytes4"
        }
      ],
      "payable": false,
      "stateMutability": "nonpayable",
      "type": "function"
    },
    {
      "constant": false,
      "inputs": [
        {
          "name": "_wallet",
          "type": "address"
        },
        {
          "name": "_nftContract",
          "type": "address"
        },
        {
          "name": "_to",
          "type": "address"
        },
        {
          "name": "_tokenId",
          "type": "uint256"
        },
        {
          "name": "_safe",
          "type": "bool"
        },
        {
          "name": "_data",
          "type": "bytes"
        }
      ],
      "name": "transferNFT",
      "outputs": [],
      "payable": false,
      "stateMutability": "nonpayable",
      "type": "function"
    }
  ],
  "bytecode": "0x608060405234801561001057600080fd5b50604051606080611dec8339810180604052606081101561003057600080fd5b50805160208083015160409384015160008054600160a060020a03808716600160a060020a031992831617909255600180549285169290911691909117905584517f4e66745472616e7366657200000000000000000000000000000000000000000080825295519495929491938693869390927f3019c8fc80239e3dff8f781212ae2004839c2cb61d6c70acd279ac65392145df92908290030190a1505060038054600160a060020a03909316600160a060020a031990931692909217909155505050611cea806101026000396000f3fe608060405234801561001057600080fd5b50600436106100db576000357c0100000000000000000000000000000000000000000000000000000000900480639be65a6011610093578063c9b5ef8e11610078578063c9b5ef8e146103e8578063ca4a74ef1461040e578063d490da4d14610432576100db565b80639be65a60146102d2578063aacaaf88146102f8576100db565b80632d0335ab116100c45780632d0335ab146101cd5780634ce75559146102055780635a1db8c4146102a4576100db565b8063150b7a02146100e057806319ab453c146101a5575b600080fd5b610170600480360360808110156100f657600080fd5b600160a060020a0382358116926020810135909116916040820135919081019060808101606082013564010000000081111561013157600080fd5b82018360208201111561014357600080fd5b8035906020019184600183028401116401000000008311171561016557600080fd5b50909250905061043a565b604080517fffffffff000000000000000000000000000000000000000000000000000000009092168252519081900360200190f35b6101cb600480360360208110156101bb57600080fd5b5035600160a060020a0316610464565b005b6101f3600480360360208110156101e357600080fd5b5035600160a060020a031661057e565b60408051918252519081900360200190f35b6101cb600480360360c081101561021b57600080fd5b600160a060020a0382358116926020810135821692604082013590921691606082013591608081013515159181019060c0810160a082013564010000000081111561026557600080fd5b82018360208201111561027757600080fd5b8035906020019184600183028401116401000000008311171561029957600080fd5b509092509050610599565b6101cb600480360360408110156102ba57600080fd5b50600160a060020a0381358116916020013516610a12565b6101cb600480360360208110156102e857600080fd5b5035600160a060020a0316610c04565b6103d4600480360360c081101561030e57600080fd5b600160a060020a03823516919081019060408101602082013564010000000081111561033957600080fd5b82018360208201111561034b57600080fd5b8035906020019184600183028401116401000000008311171561036d57600080fd5b9193909282359260408101906020013564010000000081111561038f57600080fd5b8201836020820111156103a157600080fd5b803590602001918460018302840111640100000000831117156103c357600080fd5b919350915080359060200135610d37565b604080519115158252519081900360200190f35b6101f3600480360360208110156103fe57600080fd5b5035600160a060020a0316611043565b610416611055565b60408051600160a060020a039092168252519081900360200190f35b610170611064565b7f150b7a020000000000000000000000000000000000000000000000000000000095945050505050565b8033600160a060020a038216146104dc57604080517f08c379a000000000000000000000000000000000000000000000000000000000815260206004820152601960248201527f424d3a2063616c6c6572206d7573742062652077616c6c657400000000000000604482015290519081900360640190fd5b604080517f13da30b20000000000000000000000000000000000000000000000000000000081523060048201527f150b7a020000000000000000000000000000000000000000000000000000000060248201529051600160a060020a038416916313da30b291604480830192600092919082900301818387803b15801561056257600080fd5b505af1158015610576573d6000803e3d6000fd5b505050505050565b600160a060020a031660009081526002602052604090205490565b86333014806105ad57506105ad8133611088565b1515610604576040517f08c379a0000000000000000000000000000000000000000000000000000000008152600401808060200182810382526023815260200180611c9c6023913960400191505060405180910390fd5b600154604080517f4a4fbeec000000000000000000000000000000000000000000000000000000008152600160a060020a03808c16600483015291518b939290921691634a4fbeec91602480820192602092909190829003018186803b15801561066d57600080fd5b505afa158015610681573d6000803e3d6000fd5b505050506040513d602081101561069757600080fd5b50511561070557604080517f08c379a000000000000000000000000000000000000000000000000000000000815260206004820152601b60248201527f424d3a2077616c6c6574206d75737420626520756e6c6f636b65640000000000604482015290519081900360640190fd5b600354606090600160a060020a038a811691161415610799575060408051600160a060020a038916602482015260448082018990528251808303909101815260649091019091526020810180517bffffffffffffffffffffffffffffffffffffffffffffffffffffffff167fa9059cbb00000000000000000000000000000000000000000000000000000000179052610969565b85156108735789888887876040516024018086600160a060020a0316600160a060020a0316815260200185600160a060020a0316600160a060020a0316815260200184815260200180602001828103825284848281815260200192508082843760008184015260408051601f19601f9093018316909401848103909201845252506020810180517fb88d4fde000000000000000000000000000000000000000000000000000000007bffffffffffffffffffffffffffffffffffffffffffffffffffffffff90911617905297506109699650505050505050565b61087d8988611128565b15156108ea57604080517f08c379a000000000000000000000000000000000000000000000000000000000815260206004820152601e60248201527f4e543a204e6f6e2d636f6d706c69616e74204e465420636f6e74726163740000604482015290519081900360640190fd5b5060408051600160a060020a03808c1660248301528916604482015260648082018990528251808303909101815260849091019091526020810180517bffffffffffffffffffffffffffffffffffffffffffffffffffffffff167f23b872dd000000000000000000000000000000000000000000000000000000001790525b6109768a8a600084611548565b508689600160a060020a03168b600160a060020a03167ff4d4e61ce3cc437b23a31d83ee3cf289063bfa988705f5b9cfa8712e91be18ea8b89896040518084600160a060020a0316600160a060020a03168152602001806020018281038252848482818152602001925080828437600083820152604051601f909101601f1916909201829003965090945050505050a450505050505050505050565b8133301480610a265750610a268133611088565b1515610a7d576040517f08c379a0000000000000000000000000000000000000000000000000000000008152600401808060200182810382526023815260200180611c9c6023913960400191505060405180910390fd5b600054604080517f0bcd4ebb000000000000000000000000000000000000000000000000000000008152600160a060020a03858116600483015291519190921691630bcd4ebb916024808301926020929190829003018186803b158015610ae357600080fd5b505afa158015610af7573d6000803e3d6000fd5b505050506040513d6020811015610b0d57600080fd5b50511515610b7c57604080517f08c379a000000000000000000000000000000000000000000000000000000000815260206004820152601c60248201527f424d3a206d6f64756c65206973206e6f74207265676973746572656400000000604482015290519081900360640190fd5b604080517f1f17732d000000000000000000000000000000000000000000000000000000008152600160a060020a03848116600483015260016024830152915191851691631f17732d9160448082019260009290919082900301818387803b158015610be757600080fd5b505af1158015610bfb573d6000803e3d6000fd5b50505050505050565b604080517f70a082310000000000000000000000000000000000000000000000000000000081523060048201529051600091600160a060020a038416916370a0823191602480820192602092909190829003018186803b158015610c6757600080fd5b505afa158015610c7b573d6000803e3d6000fd5b505050506040513d6020811015610c9157600080fd5b505160008054604080517fa9059cbb000000000000000000000000000000000000000000000000000000008152600160a060020a0392831660048201526024810185905290519394509085169263a9059cbb92604480840193602093929083900390910190829087803b158015610d0757600080fd5b505af1158015610d1b573d6000803e3d6000fd5b505050506040513d6020811015610d3157600080fd5b50505050565b6000805a90506000610d87308c60008d8d8080601f0160208091040260200160405190810160405280939291908181526020018383808284376000920191909152508f92508c91508b90506117e2565b9050610d948b8983611925565b1515610e0157604080517f08c379a000000000000000000000000000000000000000000000000000000000815260206004820152601560248201527f524d3a204475706c696361746520726571756573740000000000000000000000604482015290519081900360640190fd5b610e418b8b8b8080601f01602080910402602001604051908101604052809392919081815260200183838082843760009201919091525061193992505050565b1515610e98576040517f08c379a000000000000000000000000000000000000000000000000000000000815260040180806020018281038252604a815260200180611c52604a913960600191505060405180910390fd5b6000610eda8c8c8c8080601f0160208091040260200160405190810160405280939291908181526020018383808284376000920191909152506119c492505050565b905060418102871415610ff257610ef38c8688846119cc565b15610ff257801580610f765750610f768c8c8c8080601f01602080910402602001604051908101604052809392919081815260200183838082843760009201919091525050604080516020601f8f018190048102820181019092528d815288935091508d908d9081908401838280828437600092019190915250611a9e92505050565b15610ff25730600160a060020a03168b8b604051808383808284376040519201945060009350909150508083038183865af19150503d8060008114610fd7576040519150601f19603f3d011682016040523d82523d6000602084013e610fdc565b606091505b505080945050610ff28c5a850388888533611ac3565b60408051838152905185151591600160a060020a038f16917f6bb0b384ce772133df63560651bc8c727c53306cec1d51e2cbf8ea35fb8f2ec19181900360200190a350505098975050505050505050565b60026020526000908152604090205481565b600354600160a060020a031681565b7fd490da4d0000000000000000000000000000000000000000000000000000000090565b600081600160a060020a031683600160a060020a0316638da5cb5b6040518163ffffffff167c010000000000000000000000000000000000000000000000000000000002815260040160206040518083038186803b1580156110e957600080fd5b505afa1580156110fd573d6000803e3d6000fd5b505050506040513d602081101561111357600080fd5b5051600160a060020a03161490505b92915050565b604080516380ac58cd60248083019190915282518083039091018152604490910182526020810180517bffffffffffffffffffffffffffffffffffffffffffffffffffffffff167f01ffc9a700000000000000000000000000000000000000000000000000000000178152915181516000938493606093600160a060020a03891693919290918291908083835b602083106111d45780518252601f1990920191602091820191016111b5565b6001836020036101000a0380198251168184511680821785525050505050509050019150506000604051808303816000865af19150503d8060008114611236576040519150601f19603f3d011682016040523d82523d6000602084013e61123b565b606091505b50915091508180156112a8575080600081518110151561125757fe5b6020910101517f010000000000000000000000000000000000000000000000000000000000000090819004027fff000000000000000000000000000000000000000000000000000000000000001615155b156112b857600192505050611122565b60408051636466353c60248083019190915282518083039091018152604490910182526020810180517bffffffffffffffffffffffffffffffffffffffffffffffffffffffff167f01ffc9a70000000000000000000000000000000000000000000000000000000017815291518151600160a060020a0389169382918083835b602083106113575780518252601f199092019160209182019101611338565b6001836020036101000a0380198251168184511680821785525050505050509050019150506000604051808303816000865af19150503d80600081146113b9576040519150601f19603f3d011682016040523d82523d6000602084013e6113be565b606091505b50909250905081801561142c57508060008151811015156113db57fe5b6020910101517f010000000000000000000000000000000000000000000000000000000000000090819004027fff000000000000000000000000000000000000000000000000000000000000001615155b1561143c57600192505050611122565b60408051602480820187905282518083039091018152604490910182526020810180517bffffffffffffffffffffffffffffffffffffffffffffffffffffffff167f6352211e0000000000000000000000000000000000000000000000000000000017815291518151600160a060020a0389169382918083835b602083106114d55780518252601f1990920191602091820191016114b6565b6001836020036101000a0380198251168184511680821785525050505050509050019150506000604051808303816000865af19150503d8060008114611537576040519150601f19603f3d011682016040523d82523d6000602084013e61153c565b606091505b50909695505050505050565b6060600085600160a060020a03168585856040516024018084600160a060020a0316600160a060020a0316815260200183815260200180602001828103825283818151815260200191508051906020019080838360005b838110156115b757818101518382015260200161159f565b50505050905090810190601f1680156115e45780820380516001836020036101000a031916815260200191505b5060408051601f198184030181529181526020820180517bffffffffffffffffffffffffffffffffffffffffffffffffffffffff167f8f6f033200000000000000000000000000000000000000000000000000000000178152905182519297509550859450925090508083835b602083106116705780518252601f199092019160209182019101611651565b6001836020036101000a0380198251168184511680821785525050505050509050019150506000604051808303816000865af19150503d80600081146116d2576040519150601f19603f3d011682016040523d82523d6000602084013e6116d7565b606091505b50925090508080156116ea575060008251115b156117575781806020019051602081101561170457600080fd5b81019080805164010000000081111561171c57600080fd5b8201602081018481111561172f57600080fd5b815164010000000081118282018710171561174957600080fd5b509095506117d99350505050565b60008251111561176b573d6000803e3d6000fd5b8015156117d957604080517f08c379a000000000000000000000000000000000000000000000000000000000815260206004820152601a60248201527f424d3a2077616c6c657420696e766f6b65207265766572746564000000000000604482015290519081900360640190fd5b50949350505050565b6040517f190000000000000000000000000000000000000000000000000000000000000060208083018281526000602185018190526c01000000000000000000000000600160a060020a03808e16820260228801528c16026036860152604a85018a90528851909485938d938d938d938d938d938d938d939192606a909201918701908083835b602083106118885780518252601f199092019160209182019101611869565b51815160209384036101000a600019018019909216911617905292019586525084810193909352506040808401919091528051808403820181526060840182528051908301207f19457468657265756d205369676e6564204d6573736167653a0a3332000000006080850152609c808501919091528151808503909101815260bc909301905281519101209e9d5050505050505050505050505050565b60006119318484611b21565b949350505050565b600060248251101515156119ae57604080517f08c379a000000000000000000000000000000000000000000000000000000000815260206004820152601660248201527f524d3a20496e76616c6964206461746157616c6c657400000000000000000000604482015290519081900360640190fd5b5060240151600160a060020a0391821691161490565b600192915050565b600080831180156119dd5750600182115b8015611a86575082840285600160a060020a0316311080611a865750604080517fd6eb1bbf0000000000000000000000000000000000000000000000000000000081523060048201529051600160a060020a0387169163d6eb1bbf916024808301926020929190829003018186803b158015611a5857600080fd5b505afa158015611a6c573d6000803e3d6000fd5b505050506040513d6020811015611a8257600080fd5b5051155b15611a9357506000611931565b506001949350505050565b600080611aad84846000611ba7565b9050611ab98682611088565b9695505050505050565b61726c8501600085118015611ad85750600183115b8015611ae45750838111155b15610bfb573a851115611af8573a02611afb565b84025b611b178783836020604051908101604052806000815250611548565b5050505050505050565b600160a060020a0382166000908152600260205260408120548211611b4857506000611122565b7001000000000000000000000000000000006fffffffffffffffffffffffffffffffff198316044361271001811115611b85576000915050611122565b5050600160a060020a0391909116600090815260026020526040902055600190565b6041808202830160208101516040820151919092015160009260ff9190911691601b831480611bd957508260ff16601c145b1515611be457600080fd5b604080516000815260208082018084528a905260ff8616828401526060820185905260808201849052915160019260a0808401939192601f1981019281900390910190855afa158015611c3b573d6000803e3d6000fd5b5050604051601f1901519897505050505050505056fe524d3a207468652077616c6c657420617574686f72697a656420697320646966666572656e74207468656e2074686520746172676574206f66207468652072656c617965642064617461424d3a206d75737420626520616e206f776e657220666f72207468652077616c6c6574a165627a7a72305820c61d33455bf33be15e792ff02c22b1f49709c9d3d31e7ec21ca0562eb9bd24c00029",
  "source": "// Copyright (C) 2018  Argent Labs Ltd. <https://argent.xyz>\n\n// This program is free software: you can redistribute it and/or modify\n// it under the terms of the GNU General Public License as published by\n// the Free Software Foundation, either version 3 of the License, or\n// (at your option) any later version.\n\n// This program is distributed in the hope that it will be useful,\n// but WITHOUT ANY WARRANTY; without even the implied warranty of\n// MERCHANTABILITY or FITNESS FOR A PARTICULAR PURPOSE.  See the\n// GNU General Public License for more details.\n\n// You should have received a copy of the GNU General Public License\n// along with this program.  If not, see <http://www.gnu.org/licenses/>.\n\npragma solidity ^0.5.4;\n\nimport \"./common/BaseModule.sol\";\nimport \"./common/RelayerModule.sol\";\nimport \"./common/OnlyOwnerModule.sol\";\n\n/**\n * @title NftTransfer\n * @dev Module to transfer NFTs (ERC721),\n * @author Olivier VDB - <olivier@argent.xyz>\n */\ncontract NftTransfer is BaseModule, RelayerModule, OnlyOwnerModule {\n\n    bytes32 constant NAME = \"NftTransfer\";\n\n    // Equals to `bytes4(keccak256(\"onERC721Received(address,address,uint256,bytes)\"))`\n    bytes4 private constant ERC721_RECEIVED = 0x150b7a02;\n\n    // The address of the CryptoKitties contract\n    address public ckAddress;\n\n    // *************** Events *************************** //\n\n    event NonFungibleTransfer(address indexed wallet, address indexed nftContract, uint256 indexed tokenId, address to, bytes data);\n\n    // *************** Constructor ********************** //\n\n    constructor(\n        ModuleRegistry _registry,\n        GuardianStorage _guardianStorage,\n        address _ckAddress\n    )\n        BaseModule(_registry, _guardianStorage, NAME)\n        public\n    {\n        ckAddress = _ckAddress;\n    }\n\n    // *************** External/Public Functions ********************* //\n\n    /**\n     * @dev Inits the module for a wallet by setting up the onERC721Received\n     * static call redirection from the wallet to the module.\n     * @param _wallet The target wallet.\n     */\n    function init(BaseWallet _wallet) public onlyWallet(_wallet) {\n        _wallet.enableStaticCall(address(this), ERC721_RECEIVED);\n    }\n\n    /**\n     * @notice Handle the receipt of an NFT\n     * @dev An ERC721 smart contract calls this function on the recipient contract\n     * after a `safeTransfer`. If the recipient is a BaseWallet, the call to onERC721Received\n     * will be forwarded to the method onERC721Received of the present module.\n     * @return bytes4 `bytes4(keccak256(\"onERC721Received(address,address,uint256,bytes)\"))`\n     */\n    function onERC721Received(\n        address /* operator */,\n        address /* from */,\n        uint256 /* tokenId */,\n        bytes calldata /* data*/\n    )\n        external\n        returns (bytes4)\n    {\n        return ERC721_RECEIVED;\n    }\n\n    /**\n    * @dev lets the owner transfer NFTs from a wallet.\n    * @param _wallet The target wallet.\n    * @param _nftContract The ERC721 address.\n    * @param _to The recipient.\n    * @param _tokenId The NFT id\n    * @param _safe Whether to execute a safe transfer or not\n    * @param _data The data to pass with the transfer.\n    */\n    function transferNFT(\n        BaseWallet _wallet,\n        address _nftContract,\n        address _to,\n        uint256 _tokenId,\n        bool _safe,\n        bytes calldata _data\n    )\n        external\n        onlyWalletOwner(_wallet)\n        onlyWhenUnlocked(_wallet)\n    {\n        bytes memory methodData;\n        if (_nftContract == ckAddress) {\n            methodData = abi.encodeWithSignature(\"transfer(address,uint256)\", _to, _tokenId);\n        } else {\n           if (_safe) {\n               methodData = abi.encodeWithSignature(\n                   \"safeTransferFrom(address,address,uint256,bytes)\", address(_wallet), _to, _tokenId, _data);\n           } else {\n               require(isERC721(_nftContract, _tokenId), \"NT: Non-compliant NFT contract\");\n               methodData = abi.encodeWithSignature(\n                   \"transferFrom(address,address,uint256)\", address(_wallet), _to, _tokenId);\n           }\n        }\n        invokeWallet(address(_wallet), _nftContract, 0, methodData);\n        emit NonFungibleTransfer(address(_wallet), _nftContract, _tokenId, _to, _data);\n    }\n\n    // *************** Internal Functions ********************* //\n\n    /**\n    * @dev Check whether a given contract complies with ERC721.\n    * @param _nftContract The contract to check.\n    * @param _tokenId The tokenId to use for the check.\n    * @return true if the contract is an ERC721, false otherwise.\n    */\n    function isERC721(address _nftContract, uint256 _tokenId) internal returns (bool) {\n        // solium-disable-next-line security/no-low-level-calls\n        (bool success, bytes memory result) = _nftContract.call(abi.encodeWithSignature(\"supportsInterface(bytes4)\", 0x80ac58cd));\n        if (success && result[0] != 0x0)\n            return true;\n\n        // solium-disable-next-line security/no-low-level-calls\n        (success, result) = _nftContract.call(abi.encodeWithSignature(\"supportsInterface(bytes4)\", 0x6466353c));\n        if (success && result[0] != 0x0)\n            return true;\n\n        // solium-disable-next-line security/no-low-level-calls\n        (success,) = _nftContract.call(abi.encodeWithSignature(\"ownerOf(uint256)\", _tokenId));\n        return success;\n    }\n\n}",
  "sourcePath": "/Users/name/dev/smartcontracts/contracts/modules/NftTransfer.sol",
  "compiler": {
    "name": "solc",
    "version": "0.5.4+commit.9549d8ff.Emscripten.clang",
    "optimizer": true,
    "runs": 999
  },
  "schemaVersion": "2.3.1",
  "updatedAt": "2020-04-01T21:49:52.964Z"
}