{
  "contractName": "OldTestModule",
  "abi": [
    {
      "constant": false,
      "inputs": [
        {
          "name": "_wallet",
          "type": "address"
        }
      ],
      "name": "init",
      "outputs": [],
      "payable": false,
      "stateMutability": "nonpayable",
      "type": "function"
    },
    {
      "constant": true,
      "inputs": [
        {
          "name": "_wallet",
          "type": "address"
        }
      ],
      "name": "getNonce",
      "outputs": [
        {
          "name": "nonce",
          "type": "uint256"
        }
      ],
      "payable": false,
      "stateMutability": "view",
      "type": "function"
    },
    {
      "constant": false,
      "inputs": [
        {
          "name": "_wallet",
          "type": "address"
        },
        {
          "name": "_module",
          "type": "address"
        }
      ],
      "name": "addModule",
      "outputs": [],
      "payable": false,
      "stateMutability": "nonpayable",
      "type": "function"
    },
    {
      "constant": false,
      "inputs": [
        {
          "name": "_token",
          "type": "address"
        }
      ],
      "name": "recoverToken",
      "outputs": [],
      "payable": false,
      "stateMutability": "nonpayable",
      "type": "function"
    },
    {
      "constant": false,
      "inputs": [
        {
          "name": "_wallet",
          "type": "address"
        },
        {
          "name": "_data",
          "type": "bytes"
        },
        {
          "name": "_nonce",
          "type": "uint256"
        },
        {
          "name": "_signatures",
          "type": "bytes"
        },
        {
          "name": "_gasPrice",
          "type": "uint256"
        },
        {
          "name": "_gasLimit",
          "type": "uint256"
        }
      ],
      "name": "execute",
      "outputs": [
        {
          "name": "success",
          "type": "bool"
        }
      ],
      "payable": false,
      "stateMutability": "nonpayable",
      "type": "function"
    },
    {
      "constant": true,
      "inputs": [],
      "name": "dapp",
      "outputs": [
        {
          "name": "",
          "type": "address"
        }
      ],
      "payable": false,
      "stateMutability": "view",
      "type": "function"
    },
    {
      "constant": true,
      "inputs": [
        {
          "name": "",
          "type": "address"
        }
      ],
      "name": "relayer",
      "outputs": [
        {
          "name": "nonce",
          "type": "uint256"
        }
      ],
      "payable": false,
      "stateMutability": "view",
      "type": "function"
    },
    {
      "constant": true,
      "inputs": [],
      "name": "isOnlyOwnerModule",
      "outputs": [
        {
          "name": "",
          "type": "bytes4"
        }
      ],
      "payable": false,
      "stateMutability": "pure",
      "type": "function"
    },
    {
      "inputs": [
        {
          "name": "_registry",
          "type": "address"
        }
      ],
      "payable": false,
      "stateMutability": "nonpayable",
      "type": "constructor"
    },
    {
      "anonymous": false,
      "inputs": [
        {
          "indexed": true,
          "name": "wallet",
          "type": "address"
        },
        {
          "indexed": true,
          "name": "success",
          "type": "bool"
        },
        {
          "indexed": false,
          "name": "signedHash",
          "type": "bytes32"
        }
      ],
      "name": "TransactionExecuted",
      "type": "event"
    },
    {
      "anonymous": false,
      "inputs": [
        {
          "indexed": false,
          "name": "name",
          "type": "bytes32"
        }
      ],
      "name": "ModuleCreated",
      "type": "event"
    },
    {
      "anonymous": false,
      "inputs": [
        {
          "indexed": false,
          "name": "wallet",
          "type": "address"
        }
      ],
      "name": "ModuleInitialised",
      "type": "event"
    },
    {
      "constant": false,
      "inputs": [
        {
          "name": "_wallet",
          "type": "address"
        }
      ],
      "name": "callDapp",
      "outputs": [],
      "payable": false,
      "stateMutability": "nonpayable",
      "type": "function"
    },
    {
      "constant": false,
      "inputs": [
        {
          "name": "_wallet",
          "type": "address"
        }
      ],
      "name": "callDapp2",
      "outputs": [],
      "payable": false,
      "stateMutability": "nonpayable",
      "type": "function"
    }
  ],
  "bytecode": "0x608060405234801561001057600080fd5b506040516020806118028339810180604052602081101561003057600080fd5b505160008054600160a060020a038316600160a060020a0319918216178255600180549091169055604080517f4f6c64546573744d6f64756c65000000000000000000000000000000000000008082529151849392917f3019c8fc80239e3dff8f781212ae2004839c2cb61d6c70acd279ac65392145df919081900360200190a15050506040516100c090610103565b604051809103906000f0801580156100dc573d6000803e3d6000fd5b5060038054600160a060020a031916600160a060020a039290921691909117905550610110565b6101c28061164083390190565b6115218061011f6000396000f3fe608060405234801561001057600080fd5b50600436106100db576000357c0100000000000000000000000000000000000000000000000000000000900480639be65a6011610093578063b6de460a11610078578063b6de460a146102d0578063c9b5ef8e146102f4578063d490da4d1461031a576100db565b80639be65a60146101ba578063aacaaf88146101e0576100db565b80635a1db8c4116100c45780635a1db8c4146101405780636024c34b1461016e57806364e269a914610194576100db565b806319ab453c146100e05780632d0335ab14610108575b600080fd5b610106600480360360208110156100f657600080fd5b5035600160a060020a0316610357565b005b61012e6004803603602081101561011e57600080fd5b5035600160a060020a031661040f565b60408051918252519081900360200190f35b6101066004803603604081101561015657600080fd5b50600160a060020a038135811691602001351661042a565b6101066004803603602081101561018457600080fd5b5035600160a060020a031661061c565b610106600480360360208110156101aa57600080fd5b5035600160a060020a031661076e565b610106600480360360208110156101d057600080fd5b5035600160a060020a031661085b565b6102bc600480360360c08110156101f657600080fd5b600160a060020a03823516919081019060408101602082013564010000000081111561022157600080fd5b82018360208201111561023357600080fd5b8035906020019184600183028401116401000000008311171561025557600080fd5b9193909282359260408101906020013564010000000081111561027757600080fd5b82018360208201111561028957600080fd5b803590602001918460018302840111640100000000831117156102ab57600080fd5b91935091508035906020013561098e565b604080519115158252519081900360200190f35b6102d8610c9a565b60408051600160a060020a039092168252519081900360200190f35b61012e6004803603602081101561030a57600080fd5b5035600160a060020a0316610ca9565b610322610cbb565b604080517fffffffff000000000000000000000000000000000000000000000000000000009092168252519081900360200190f35b8033600160a060020a038216146103cf57604080517f08c379a000000000000000000000000000000000000000000000000000000000815260206004820152601960248201527f424d3a2063616c6c6572206d7573742062652077616c6c657400000000000000604482015290519081900360640190fd5b60408051600160a060020a038416815290517f9fcca3f73f85397e2bf03647abf243c20b753bd54463ff3cae74de2971c112fa9181900360200190a15050565b600160a060020a031660009081526002602052604090205490565b813330148061043e575061043e8133610cdf565b1515610495576040517f08c379a00000000000000000000000000000000000000000000000000000000081526004018080602001828103825260238152602001806114d36023913960400191505060405180910390fd5b600054604080517f0bcd4ebb000000000000000000000000000000000000000000000000000000008152600160a060020a03858116600483015291519190921691630bcd4ebb916024808301926020929190829003018186803b1580156104fb57600080fd5b505afa15801561050f573d6000803e3d6000fd5b505050506040513d602081101561052557600080fd5b5051151561059457604080517f08c379a000000000000000000000000000000000000000000000000000000000815260206004820152601c60248201527f424d3a206d6f64756c65206973206e6f74207265676973746572656400000000604482015290519081900360640190fd5b604080517f1f17732d000000000000000000000000000000000000000000000000000000008152600160a060020a03848116600483015260016024830152915191851691631f17732d9160448082019260009290919082900301818387803b1580156105ff57600080fd5b505af1158015610613573d6000803e3d6000fd5b50505050505050565b6003546040805160006024808301829052835180840382018152604493840185526020810180517bffffffffffffffffffffffffffffffffffffffffffffffffffffffff167f317942540000000000000000000000000000000000000000000000000000000017815294517f8f6f0332000000000000000000000000000000000000000000000000000000008152600160a060020a0396871660048201818152938201859052606095820195865282516064830152825197891697638f6f0332979196939493926084019190808383895b838110156107055781810151838201526020016106ed565b50505050905090810190601f1680156107325780820380516001836020036101000a031916815260200191505b50945050505050600060405180830381600087803b15801561075357600080fd5b505af1158015610767573d6000803e3d6000fd5b5050505050565b600354604080516002602480830191909152825180830382018152604492830184526020810180517bffffffffffffffffffffffffffffffffffffffffffffffffffffffff167f5b72e8c30000000000000000000000000000000000000000000000000000000017815293517f8f6f0332000000000000000000000000000000000000000000000000000000008152600160a060020a03958616600482018181526000948301859052606095830195865283516064840152835197891697638f6f0332979296919391926084909201919080838389838110156107055781810151838201526020016106ed565b604080517f70a082310000000000000000000000000000000000000000000000000000000081523060048201529051600091600160a060020a038416916370a0823191602480820192602092909190829003018186803b1580156108be57600080fd5b505afa1580156108d2573d6000803e3d6000fd5b505050506040513d60208110156108e857600080fd5b505160008054604080517fa9059cbb000000000000000000000000000000000000000000000000000000008152600160a060020a0392831660048201526024810185905290519394509085169263a9059cbb92604480840193602093929083900390910190829087803b15801561095e57600080fd5b505af1158015610972573d6000803e3d6000fd5b505050506040513d602081101561098857600080fd5b50505050565b6000805a905060006109de308c60008d8d8080601f0160208091040260200160405190810160405280939291908181526020018383808284376000920191909152508f92508c91508b9050610d7f565b90506109eb8b8983610ec2565b1515610a5857604080517f08c379a000000000000000000000000000000000000000000000000000000000815260206004820152601560248201527f524d3a204475706c696361746520726571756573740000000000000000000000604482015290519081900360640190fd5b610a988b8b8b8080601f016020809104026020016040519081016040528093929190818152602001838380828437600092019190915250610ed692505050565b1515610aef576040517f08c379a000000000000000000000000000000000000000000000000000000000815260040180806020018281038252604a815260200180611489604a913960600191505060405180910390fd5b6000610b318c8c8c8080601f016020809104026020016040519081016040528093929190818152602001838380828437600092019190915250610f6192505050565b905060418102871415610c4957610b4a8c868884610f69565b15610c4957801580610bcd5750610bcd8c8c8c8080601f01602080910402602001604051908101604052809392919081815260200183838082843760009201919091525050604080516020601f8f018190048102820181019092528d815288935091508d908d908190840183828082843760009201919091525061103b92505050565b15610c495730600160a060020a03168b8b604051808383808284376040519201945060009350909150508083038183865af19150503d8060008114610c2e576040519150601f19603f3d011682016040523d82523d6000602084013e610c33565b606091505b505080945050610c498c5a850388888533611060565b60408051838152905185151591600160a060020a038f16917f6bb0b384ce772133df63560651bc8c727c53306cec1d51e2cbf8ea35fb8f2ec19181900360200190a350505098975050505050505050565b600354600160a060020a031681565b60026020526000908152604090205481565b7fd490da4d0000000000000000000000000000000000000000000000000000000090565b600081600160a060020a031683600160a060020a0316638da5cb5b6040518163ffffffff167c010000000000000000000000000000000000000000000000000000000002815260040160206040518083038186803b158015610d4057600080fd5b505afa158015610d54573d6000803e3d6000fd5b505050506040513d6020811015610d6a57600080fd5b5051600160a060020a03161490505b92915050565b6040517f190000000000000000000000000000000000000000000000000000000000000060208083018281526000602185018190526c01000000000000000000000000600160a060020a03808e16820260228801528c16026036860152604a85018a90528851909485938d938d938d938d938d938d938d939192606a909201918701908083835b60208310610e255780518252601f199092019160209182019101610e06565b51815160209384036101000a600019018019909216911617905292019586525084810193909352506040808401919091528051808403820181526060840182528051908301207f19457468657265756d205369676e6564204d6573736167653a0a3332000000006080850152609c808501919091528151808503909101815260bc909301905281519101209e9d5050505050505050505050505050565b6000610ece84846110be565b949350505050565b60006024825110151515610f4b57604080517f08c379a000000000000000000000000000000000000000000000000000000000815260206004820152601660248201527f524d3a20496e76616c6964206461746157616c6c657400000000000000000000604482015290519081900360640190fd5b5060240151600160a060020a0391821691161490565b600192915050565b60008083118015610f7a5750600182115b8015611023575082840285600160a060020a03163110806110235750604080517fd6eb1bbf0000000000000000000000000000000000000000000000000000000081523060048201529051600160a060020a0387169163d6eb1bbf916024808301926020929190829003018186803b158015610ff557600080fd5b505afa158015611009573d6000803e3d6000fd5b505050506040513d602081101561101f57600080fd5b5051155b1561103057506000610ece565b506001949350505050565b60008061104a84846000611144565b90506110568682610cdf565b9695505050505050565b61726c85016000851180156110755750600183115b80156110815750838111155b15610613573a851115611095573a02611098565b84025b6110b487838360206040519081016040528060008152506111ee565b5050505050505050565b600160a060020a03821660009081526002602052604081205482116110e557506000610d79565b7001000000000000000000000000000000006fffffffffffffffffffffffffffffffff198316044361271001811115611122576000915050610d79565b5050600160a060020a0391909116600090815260026020526040902055600190565b6041808202830160208101516040820151919092015160009260ff9190911691601b83148061117657508260ff16601c145b151561118157600080fd5b604080516000815260208082018084528a905260ff8616828401526060820185905260808201849052915160019260a0808401939192601f1981019281900390910190855afa1580156111d8573d6000803e3d6000fd5b5050604051601f19015198975050505050505050565b6060600085600160a060020a03168585856040516024018084600160a060020a0316600160a060020a0316815260200183815260200180602001828103825283818151815260200191508051906020019080838360005b8381101561125d578181015183820152602001611245565b50505050905090810190601f16801561128a5780820380516001836020036101000a031916815260200191505b5060408051601f198184030181529181526020820180517bffffffffffffffffffffffffffffffffffffffffffffffffffffffff167f8f6f033200000000000000000000000000000000000000000000000000000000178152905182519297509550859450925090508083835b602083106113165780518252601f1990920191602091820191016112f7565b6001836020036101000a0380198251168184511680821785525050505050509050019150506000604051808303816000865af19150503d8060008114611378576040519150601f19603f3d011682016040523d82523d6000602084013e61137d565b606091505b5092509050808015611390575060008251115b156113fd578180602001905160208110156113aa57600080fd5b8101908080516401000000008111156113c257600080fd5b820160208101848111156113d557600080fd5b81516401000000008111828201871017156113ef57600080fd5b5090955061147f9350505050565b600082511115611411573d6000803e3d6000fd5b80151561147f57604080517f08c379a000000000000000000000000000000000000000000000000000000000815260206004820152601a60248201527f424d3a2077616c6c657420696e766f6b65207265766572746564000000000000604482015290519081900360640190fd5b5094935050505056fe524d3a207468652077616c6c657420617574686f72697a656420697320646966666572656e74207468656e2074686520746172676574206f66207468652072656c617965642064617461424d3a206d75737420626520616e206f776e657220666f72207468652077616c6c6574a165627a7a7230582092670b12b7349c40500417fe9e4bf97835246642e12dbb765eccc81473204eea0029608060405234801561001057600080fd5b506101a2806100206000396000f3fe608060405234801561001057600080fd5b506004361061005d577c010000000000000000000000000000000000000000000000000000000060003504633179425481146100625780633ed632171461006c5780635b72e8c3146100dc575b600080fd5b61006a61010b565b005b61006a6004803603602081101561008257600080fd5b81019060208101813564010000000081111561009d57600080fd5b8201836020820111156100af57600080fd5b803590602001918460018302840111640100000000831117156100d157600080fd5b50909250905061010d565b6100f9600480360360208110156100f257600080fd5b5035610173565b60408051918252519081900360200190f35b565b81816040517f08c379a000000000000000000000000000000000000000000000000000000000815260040180806020018281038252848482818152602001925080828437600083820152604051601f909101601f19169092018290039550909350505050fd5b9056fea165627a7a723058201d913d544c5ccd7cb3cad366669e46693681971f2f8e02eea9264841ae4037d40029",
  "source": "pragma solidity ^0.5.4;\n\nimport \"../../../modules/common/BaseModule.sol\";\nimport \"../../../modules/common/RelayerModule.sol\";\nimport \"../../../modules/common/OnlyOwnerModule.sol\";\nimport \"./TestDapp.sol\";\nimport \"../legacy/LegacyBaseWallet.sol\";\n\n/**\n * @title OldTestModule\n * @dev Test Module\n * @author Olivier VDB - <olivier@argent.xyz>\n */\ncontract OldTestModule is BaseModule, RelayerModule, OnlyOwnerModule {\n\n    bytes32 constant NAME = \"OldTestModule\";\n\n    TestDapp public dapp;\n\n    // *************** Constructor ********************** //\n\n    constructor(\n        ModuleRegistry _registry\n    )\n        BaseModule(_registry, GuardianStorage(0), NAME)\n        public\n    {\n        dapp = new TestDapp();\n    }\n\n    // *************** External/Public Functions ********************* //\n\n    function callDapp(LegacyBaseWallet _wallet)\n        external\n    {\n        _wallet.invoke(address(dapp), 0, abi.encodeWithSignature(\"noReturn()\", 0));\n    }\n\n    function callDapp2(LegacyBaseWallet _wallet)\n        external\n    {\n        _wallet.invoke(address(dapp), 0, abi.encodeWithSignature(\"uintReturn(uint256)\", 2));\n    }\n\n}",
  "sourcePath": "/Users/name/dev/smartcontracts/contracts/test/argent/utils/OldTestModule.sol",
  "compiler": {
    "name": "solc",
    "version": "0.5.4+commit.9549d8ff.Emscripten.clang",
    "optimizer": true,
    "runs": 999
  },
  "schemaVersion": "2.3.1",
  "updatedAt": "2020-04-01T21:49:53.016Z"
}