{
  "contractName": "RecoveryManager",
  "abi": [
    {
      "constant": true,
      "inputs": [],
      "name": "securityWindow",
      "outputs": [
        {
          "name": "",
          "type": "uint256"
        }
      ],
      "payable": false,
      "stateMutability": "view",
      "type": "function"
    },
    {
      "constant": true,
      "inputs": [],
      "name": "recoveryPeriod",
      "outputs": [
        {
          "name": "",
          "type": "uint256"
        }
      ],
      "payable": false,
      "stateMutability": "view",
      "type": "function"
    },
    {
      "constant": false,
      "inputs": [
        {
          "name": "_wallet",
          "type": "address"
        }
      ],
      "name": "init",
      "outputs": [],
      "payable": false,
      "stateMutability": "nonpayable",
      "type": "function"
    },
    {
      "constant": true,
      "inputs": [
        {
          "name": "_wallet",
          "type": "address"
        }
      ],
      "name": "getNonce",
      "outputs": [
        {
          "name": "nonce",
          "type": "uint256"
        }
      ],
      "payable": false,
      "stateMutability": "view",
      "type": "function"
    },
    {
      "constant": true,
      "inputs": [],
      "name": "lockPeriod",
      "outputs": [
        {
          "name": "",
          "type": "uint256"
        }
      ],
      "payable": false,
      "stateMutability": "view",
      "type": "function"
    },
    {
      "constant": false,
      "inputs": [
        {
          "name": "_wallet",
          "type": "address"
        },
        {
          "name": "_module",
          "type": "address"
        }
      ],
      "name": "addModule",
      "outputs": [],
      "payable": false,
      "stateMutability": "nonpayable",
      "type": "function"
    },
    {
      "constant": true,
      "inputs": [],
      "name": "securityPeriod",
      "outputs": [
        {
          "name": "",
          "type": "uint256"
        }
      ],
      "payable": false,
      "stateMutability": "view",
      "type": "function"
    },
    {
      "constant": false,
      "inputs": [
        {
          "name": "_token",
          "type": "address"
        }
      ],
      "name": "recoverToken",
      "outputs": [],
      "payable": false,
      "stateMutability": "nonpayable",
      "type": "function"
    },
    {
      "constant": false,
      "inputs": [
        {
          "name": "_wallet",
          "type": "address"
        },
        {
          "name": "_data",
          "type": "bytes"
        },
        {
          "name": "_nonce",
          "type": "uint256"
        },
        {
          "name": "_signatures",
          "type": "bytes"
        },
        {
          "name": "_gasPrice",
          "type": "uint256"
        },
        {
          "name": "_gasLimit",
          "type": "uint256"
        }
      ],
      "name": "execute",
      "outputs": [
        {
          "name": "success",
          "type": "bool"
        }
      ],
      "payable": false,
      "stateMutability": "nonpayable",
      "type": "function"
    },
    {
      "constant": true,
      "inputs": [
        {
          "name": "",
          "type": "address"
        }
      ],
      "name": "relayer",
      "outputs": [
        {
          "name": "nonce",
          "type": "uint256"
        }
      ],
      "payable": false,
      "stateMutability": "view",
      "type": "function"
    },
    {
      "constant": true,
      "inputs": [],
      "name": "guardianStorage",
      "outputs": [
        {
          "name": "",
          "type": "address"
        }
      ],
      "payable": false,
      "stateMutability": "view",
      "type": "function"
    },
    {
      "inputs": [
        {
          "name": "_registry",
          "type": "address"
        },
        {
          "name": "_guardianStorage",
          "type": "address"
        },
        {
          "name": "_recoveryPeriod",
          "type": "uint256"
        },
        {
          "name": "_lockPeriod",
          "type": "uint256"
        },
        {
          "name": "_securityPeriod",
          "type": "uint256"
        },
        {
          "name": "_securityWindow",
          "type": "uint256"
        }
      ],
      "payable": false,
      "stateMutability": "nonpayable",
      "type": "constructor"
    },
    {
      "anonymous": false,
      "inputs": [
        {
          "indexed": true,
          "name": "_wallet",
          "type": "address"
        },
        {
          "indexed": true,
          "name": "_recovery",
          "type": "address"
        },
        {
          "indexed": false,
          "name": "executeAfter",
          "type": "uint64"
        }
      ],
      "name": "RecoveryExecuted",
      "type": "event"
    },
    {
      "anonymous": false,
      "inputs": [
        {
          "indexed": true,
          "name": "_wallet",
          "type": "address"
        },
        {
          "indexed": true,
          "name": "_recovery",
          "type": "address"
        }
      ],
      "name": "RecoveryFinalized",
      "type": "event"
    },
    {
      "anonymous": false,
      "inputs": [
        {
          "indexed": true,
          "name": "_wallet",
          "type": "address"
        },
        {
          "indexed": true,
          "name": "_recovery",
          "type": "address"
        }
      ],
      "name": "RecoveryCanceled",
      "type": "event"
    },
    {
      "anonymous": false,
      "inputs": [
        {
          "indexed": true,
          "name": "_wallet",
          "type": "address"
        },
        {
          "indexed": true,
          "name": "_newOwner",
          "type": "address"
        },
        {
          "indexed": false,
          "name": "executeAfter",
          "type": "uint64"
        }
      ],
      "name": "OwnershipTransferExecuted",
      "type": "event"
    },
    {
      "anonymous": false,
      "inputs": [
        {
          "indexed": true,
          "name": "_wallet",
          "type": "address"
        },
        {
          "indexed": true,
          "name": "_newOwner",
          "type": "address"
        }
      ],
      "name": "OwnershipTransferFinalized",
      "type": "event"
    },
    {
      "anonymous": false,
      "inputs": [
        {
          "indexed": true,
          "name": "_wallet",
          "type": "address"
        },
        {
          "indexed": true,
          "name": "_newOwner",
          "type": "address"
        }
      ],
      "name": "OwnershipTransferCanceled",
      "type": "event"
    },
    {
      "anonymous": false,
      "inputs": [
        {
          "indexed": true,
          "name": "wallet",
          "type": "address"
        },
        {
          "indexed": true,
          "name": "success",
          "type": "bool"
        },
        {
          "indexed": false,
          "name": "signedHash",
          "type": "bytes32"
        }
      ],
      "name": "TransactionExecuted",
      "type": "event"
    },
    {
      "anonymous": false,
      "inputs": [
        {
          "indexed": false,
          "name": "name",
          "type": "bytes32"
        }
      ],
      "name": "ModuleCreated",
      "type": "event"
    },
    {
      "anonymous": false,
      "inputs": [
        {
          "indexed": false,
          "name": "wallet",
          "type": "address"
        }
      ],
      "name": "ModuleInitialised",
      "type": "event"
    },
    {
      "constant": false,
      "inputs": [
        {
          "name": "_wallet",
          "type": "address"
        },
        {
          "name": "_recovery",
          "type": "address"
        }
      ],
      "name": "executeRecovery",
      "outputs": [],
      "payable": false,
      "stateMutability": "nonpayable",
      "type": "function"
    },
    {
      "constant": false,
      "inputs": [
        {
          "name": "_wallet",
          "type": "address"
        }
      ],
      "name": "finalizeRecovery",
      "outputs": [],
      "payable": false,
      "stateMutability": "nonpayable",
      "type": "function"
    },
    {
      "constant": false,
      "inputs": [
        {
          "name": "_wallet",
          "type": "address"
        }
      ],
      "name": "cancelRecovery",
      "outputs": [],
      "payable": false,
      "stateMutability": "nonpayable",
      "type": "function"
    },
    {
      "constant": true,
      "inputs": [
        {
          "name": "_wallet",
          "type": "address"
        }
      ],
      "name": "getRecovery",
      "outputs": [
        {
          "name": "_address",
          "type": "address"
        },
        {
          "name": "_executeAfter",
          "type": "uint64"
        },
        {
          "name": "_guardianCount",
          "type": "uint32"
        }
      ],
      "payable": false,
      "stateMutability": "view",
      "type": "function"
    },
    {
      "constant": false,
      "inputs": [
        {
          "name": "_wallet",
          "type": "address"
        },
        {
          "name": "_newOwner",
          "type": "address"
        }
      ],
      "name": "executeOwnershipTransfer",
      "outputs": [],
      "payable": false,
      "stateMutability": "nonpayable",
      "type": "function"
    },
    {
      "constant": false,
      "inputs": [
        {
          "name": "_wallet",
          "type": "address"
        }
      ],
      "name": "finalizeOwnershipTransfer",
      "outputs": [],
      "payable": false,
      "stateMutability": "nonpayable",
      "type": "function"
    },
    {
      "constant": false,
      "inputs": [
        {
          "name": "_wallet",
          "type": "address"
        }
      ],
      "name": "cancelOwnershipTransfer",
      "outputs": [],
      "payable": false,
      "stateMutability": "nonpayable",
      "type": "function"
    }
  ],
  "bytecode": "0x608060405234801561001057600080fd5b5060405160c08062002f79833981018060405260c081101561003157600080fd5b5080516020808301516040808501516060860151608087015160a09097015160008054600160a060020a03808a16600160a060020a031992831617909255600180549288169290911691909117905583517f5265636f766572794d616e6167657200000000000000000000000000000000008082529451979895979396929594919389938993927f3019c8fc80239e3dff8f781212ae2004839c2cb61d6c70acd279ac65392145df929081900390910190a15050508383101580156100f857508082018410155b151561016557604080517f08c379a000000000000000000000000000000000000000000000000000000000815260206004820152601d60248201527f524d3a20696e73656375726520736563757269747920706572696f6473000000604482015290519081900360640190fd5b60098054600160a060020a031916600160a060020a03969096169590951790945560059290925560065560075560085550612dd380620001a66000396000f3fe608060405234801561001057600080fd5b5060043610610152576000357c0100000000000000000000000000000000000000000000000000000000900480637b37e561116100cf578063aacaaf881161009e578063c90db44711610083578063c90db44714610446578063c9b5ef8e1461046c578063d89784fc1461049257610152565b8063aacaaf8814610328578063b0ba4da01461041857610152565b80637b37e561146102775780637cc0d9061461029d5780639769c3fe146102a55780639be65a601461030257610152565b80632d0335ab116101265780633fd8b02f1161010b5780633fd8b02f146102135780635151bc811461021b5780635a1db8c41461024957610152565b80632d0335ab146101c7578063315a7af3146101ed57610152565b80626fda351461015757806316c3e22f1461017157806319ab453c146101795780631e75512d146101a1575b600080fd5b61015f6104b6565b60408051918252519081900360200190f35b61015f6104bc565b61019f6004803603602081101561018f57600080fd5b5035600160a060020a03166104c2565b005b61019f600480360360208110156101b757600080fd5b5035600160a060020a0316610568565b61015f600480360360208110156101dd57600080fd5b5035600160a060020a03166108c0565b61019f6004803603602081101561020357600080fd5b5035600160a060020a03166108db565b61015f610b3e565b61019f6004803603604081101561023157600080fd5b50600160a060020a0381358116916020013516610b44565b61019f6004803603604081101561025f57600080fd5b50600160a060020a0381358116916020013516610e36565b61019f6004803603602081101561028d57600080fd5b5035600160a060020a0316610ffb565b61015f61124e565b6102cb600480360360208110156102bb57600080fd5b5035600160a060020a0316611254565b60408051600160a060020a03909416845267ffffffffffffffff909216602084015263ffffffff1682820152519081900360600190f35b61019f6004803603602081101561031857600080fd5b5035600160a060020a03166112be565b610404600480360360c081101561033e57600080fd5b600160a060020a03823516919081019060408101602082013564010000000081111561036957600080fd5b82018360208201111561037b57600080fd5b8035906020019184600183028401116401000000008311171561039d57600080fd5b919390928235926040810190602001356401000000008111156103bf57600080fd5b8201836020820111156103d157600080fd5b803590602001918460018302840111640100000000831117156103f357600080fd5b9193509150803590602001356113f1565b604080519115158252519081900360200190f35b61019f6004803603604081101561042e57600080fd5b50600160a060020a03813581169160200135166116d9565b61019f6004803603602081101561045c57600080fd5b5035600160a060020a0316611a5c565b61015f6004803603602081101561048257600080fd5b5035600160a060020a0316611bef565b61049a611c01565b60408051600160a060020a039092168252519081900360200190f35b60085481565b60055481565b8033600160a060020a038216146105285760408051600080516020612c73833981519152815260206004820152601960248201527f424d3a2063616c6c6572206d7573742062652077616c6c657400000000000000604482015290519081900360640190fd5b60408051600160a060020a038416815290517f9fcca3f73f85397e2bf03647abf243c20b753bd54463ff3cae74de2971c112fa9181900360200190a15050565b600154604080517f4a4fbeec000000000000000000000000000000000000000000000000000000008152600160a060020a038085166004830152915184939290921691634a4fbeec91602480820192602092909190829003018186803b1580156105d157600080fd5b505afa1580156105e5573d6000803e3d6000fd5b505050506040513d60208110156105fb57600080fd5b5051156106575760408051600080516020612c73833981519152815260206004820152601b60248201527f424d3a2077616c6c6574206d75737420626520756e6c6f636b65640000000000604482015290519081900360640190fd5b600160a060020a03821660009081526004602052604081205483917401000000000000000000000000000000000000000090910467ffffffffffffffff16116106d957604051600080516020612c73833981519152815260040180806020018281038252602f815260200180612d79602f913960400191505060405180910390fd5b600160a060020a03831660009081526004602052604090208054427401000000000000000000000000000000000000000090910467ffffffffffffffff161061075b57604051600080516020612c73833981519152815260040180806020018281038252602b815260200180612c93602b913960400191505060405180910390fd5b600854815474010000000000000000000000000000000000000000900467ffffffffffffffff160142106107c857604051600080516020612c73833981519152815260040180806020018281038252602a815260200180612d05602a913960400191505060405180910390fd5b8054604080517f13af4035000000000000000000000000000000000000000000000000000000008152600160a060020a0392831660048201529051918616916313af40359160248082019260009290919082900301818387803b15801561082e57600080fd5b505af1158015610842573d6000803e3d6000fd5b50508254604051600160a060020a03918216935090871691507f407822b4c883c6a9c5456acd2a25e25393aaff085c06852c9d874f11a3f21e2a90600090a3505050600160a060020a0316600090815260046020526040902080547bffffffffffffffffffffffffffffffffffffffffffffffffffffffff19169055565b600160a060020a031660009081526002602052604090205490565b600160a060020a03811660009081526003602052604081205482917401000000000000000000000000000000000000000090910467ffffffffffffffff161161095d57604051600080516020612c738339815191528152600401808060200182810382526025815260200180612bf46025913960400191505060405180910390fd5b600160a060020a0382166000908152600360205260409020805467ffffffffffffffff74010000000000000000000000000000000000000000909104811642909116116109e357604051600080516020612c738339815191528152600401808060200182810382526027815260200180612bcd6027913960400191505060405180910390fd5b8054604080517f13af4035000000000000000000000000000000000000000000000000000000008152600160a060020a0392831660048201529051918516916313af40359160248082019260009290919082900301818387803b158015610a4957600080fd5b505af1158015610a5d573d6000803e3d6000fd5b50508254604051600160a060020a03918216935090861691507fd8667de85dae2d56d76e700d16de53d21ac2ce4d5549cb0bf51c55fdc37f0bc190600090a3600954604080517fb0fc29e6000000000000000000000000000000000000000000000000000000008152600160a060020a038681166004830152600060248301819052925193169263b0fc29e69260448084019391929182900301818387803b158015610b0857600080fd5b505af1158015610b1c573d6000803e3d6000fd5b505050600160a060020a03909316600090815260036020526040812055505050565b60065481565b8133301480610b585750610b588133611c10565b1515610b9d57604051600080516020612c738339815191528152600401808060200182810382526023815260200180612ce26023913960400191505060405180910390fd5b600154604080517f4a4fbeec000000000000000000000000000000000000000000000000000000008152600160a060020a038087166004830152915186939290921691634a4fbeec91602480820192602092909190829003018186803b158015610c0657600080fd5b505afa158015610c1a573d6000803e3d6000fd5b505050506040513d6020811015610c3057600080fd5b505115610c8c5760408051600080516020612c73833981519152815260206004820152601b60248201527f424d3a2077616c6c6574206d75737420626520756e6c6f636b65640000000000604482015290519081900360640190fd5b600854600160a060020a03851660009081526004602052604090205485917401000000000000000000000000000000000000000090910467ffffffffffffffff16014211610d1357604051600080516020612c738339815191528152600401808060200182810382526031815260200180612c426031913960400191505060405180910390fd5b600160a060020a0384161515610d6257604051600080516020612c738339815191528152600401808060200182810382526024815260200180612cbe6024913960400191505060405180910390fd5b600160a060020a03858116600081815260046020908152604091829020805473ffffffffffffffffffffffffffffffffffffffff19169489169485178082556007547fffffffff0000000000000000ffffffffffffffffffffffffffffffffffffffff909116740100000000000000000000000000000000000000004290920167ffffffffffffffff90811683029190911780845585519290041681529251909493927f5362574b8a4824ed151c38984110312ec176595a8545a4ce184c83ac657c8e2192908290030190a3505050505050565b81610e418133611c10565b1515610e8657604051600080516020612c73833981519152815260040180806020018281038252602e815260200180612b9f602e913960400191505060405180910390fd5b600054604080517f0bcd4ebb000000000000000000000000000000000000000000000000000000008152600160a060020a03858116600483015291519190921691630bcd4ebb916024808301926020929190829003018186803b158015610eec57600080fd5b505afa158015610f00573d6000803e3d6000fd5b505050506040513d6020811015610f1657600080fd5b50511515610f735760408051600080516020612c73833981519152815260206004820152601c60248201527f424d3a206d6f64756c65206973206e6f74207265676973746572656400000000604482015290519081900360640190fd5b604080517f1f17732d000000000000000000000000000000000000000000000000000000008152600160a060020a03848116600483015260016024830152915191851691631f17732d9160448082019260009290919082900301818387803b158015610fde57600080fd5b505af1158015610ff2573d6000803e3d6000fd5b50505050505050565b803330148061100f575061100f8133611c10565b151561105457604051600080516020612c738339815191528152600401808060200182810382526023815260200180612ce26023913960400191505060405180910390fd5b600154604080517f4a4fbeec000000000000000000000000000000000000000000000000000000008152600160a060020a038086166004830152915185939290921691634a4fbeec91602480820192602092909190829003018186803b1580156110bd57600080fd5b505afa1580156110d1573d6000803e3d6000fd5b505050506040513d60208110156110e757600080fd5b5051156111435760408051600080516020612c73833981519152815260206004820152601b60248201527f424d3a2077616c6c6574206d75737420626520756e6c6f636b65640000000000604482015290519081900360640190fd5b600160a060020a03831660009081526004602052604081205484917401000000000000000000000000000000000000000090910467ffffffffffffffff16116111c557604051600080516020612c73833981519152815260040180806020018281038252602f815260200180612d79602f913960400191505060405180910390fd5b600160a060020a038085166000818152600460205260408082208054915190949190911692917fe83a760af9d3c86797ea13c8979010086f067cfe3c985b2d03d951248600c50f91a350505050600160a060020a0316600090815260046020526040902080547bffffffffffffffffffffffffffffffffffffffffffffffffffffffff19169055565b60075481565b600160a060020a039081166000908152600360205260409020549081169174010000000000000000000000000000000000000000820467ffffffffffffffff16917c0100000000000000000000000000000000000000000000000000000000900463ffffffff1690565b604080517f70a082310000000000000000000000000000000000000000000000000000000081523060048201529051600091600160a060020a038416916370a0823191602480820192602092909190829003018186803b15801561132157600080fd5b505afa158015611335573d6000803e3d6000fd5b505050506040513d602081101561134b57600080fd5b505160008054604080517fa9059cbb000000000000000000000000000000000000000000000000000000008152600160a060020a0392831660048201526024810185905290519394509085169263a9059cbb92604480840193602093929083900390910190829087803b1580156113c157600080fd5b505af11580156113d5573d6000803e3d6000fd5b505050506040513d60208110156113eb57600080fd5b50505050565b6000805a90506000611441308c60008d8d8080601f0160208091040260200160405190810160405280939291908181526020018383808284376000920191909152508f92508c91508b9050611cb0565b905061144e8b8983611df3565b15156114a95760408051600080516020612c73833981519152815260206004820152601560248201527f524d3a204475706c696361746520726571756573740000000000000000000000604482015290519081900360640190fd5b6114e98b8b8b8080601f016020809104026020016040519081016040528093929190818152602001838380828437600092019190915250611e6b92505050565b151561152e57604051600080516020612c73833981519152815260040180806020018281038252604a815260200180612b33604a913960600191505060405180910390fd5b60006115708c8c8c8080601f016020809104026020016040519081016040528093929190818152602001838380828437600092019190915250611ee492505050565b905060418102871415611688576115898c86888461228f565b156116885780158061160c575061160c8c8c8c8080601f01602080910402602001604051908101604052809392919081815260200183838082843760009201919091525050604080516020601f8f018190048102820181019092528d815288935091508d908d908190840183828082843760009201919091525061236292505050565b156116885730600160a060020a03168b8b604051808383808284376040519201945060009350909150508083038183865af19150503d806000811461166d576040519150601f19603f3d011682016040523d82523d6000602084013e611672565b606091505b5050809450506116888c5a850388888533612504565b60408051838152905185151591600160a060020a038f16917f6bb0b384ce772133df63560651bc8c727c53306cec1d51e2cbf8ea35fb8f2ec19181900360200190a350505098975050505050505050565b3330146117355760408051600080516020612c73833981519152815260206004820181905260248201527f524d3a206d7573742062652063616c6c65642076696120657865637574652829604482015290519081900360640190fd5b600160a060020a038216600090815260036020526040902054829074010000000000000000000000000000000000000000900467ffffffffffffffff16156117b657604051600080516020612c738339815191528152600401808060200182810382526027815260200180612d2f6027913960400191505060405180910390fd5b600160a060020a038216151561180557604051600080516020612c738339815191528152600401808060200182810382526023815260200180612d566023913960400191505060405180910390fd5b600160a060020a03808416600081815260036020908152604091829020805487861673ffffffffffffffffffffffffffffffffffffffff199091161780825560055467ffffffffffffffff429091011674010000000000000000000000000000000000000000027fffffffff0000000000000000ffffffffffffffffffffffffffffffffffffffff90911617815560095483517f5040fb760000000000000000000000000000000000000000000000000000000081526004810195909552925190949290921692635040fb769260248083019392829003018186803b1580156118ed57600080fd5b505afa158015611901573d6000803e3d6000fd5b505050506040513d602081101561191757600080fd5b5051815463ffffffff9091167c0100000000000000000000000000000000000000000000000000000000027bffffffffffffffffffffffffffffffffffffffffffffffffffffffff909116178155600954600654604080517fb0fc29e6000000000000000000000000000000000000000000000000000000008152600160a060020a0388811660048301524290930160248201529051919092169163b0fc29e691604480830192600092919082900301818387803b1580156119d857600080fd5b505af11580156119ec573d6000803e3d6000fd5b50508254604080517401000000000000000000000000000000000000000090920467ffffffffffffffff16825251600160a060020a038781169450881692507f5f59bfd9baba55ae30bb440923cbbe30987d50e12a4e9134ffac3fd9afc3526d916020908290030190a350505050565b333014611ab85760408051600080516020612c73833981519152815260206004820181905260248201527f524d3a206d7573742062652063616c6c65642076696120657865637574652829604482015290519081900360640190fd5b600160a060020a03811660009081526003602052604081205482917401000000000000000000000000000000000000000090910467ffffffffffffffff1611611b3a57604051600080516020612c738339815191528152600401808060200182810382526025815260200180612bf46025913960400191505060405180910390fd5b600160a060020a038083166000818152600360205260408082208054915190949190911692917fc45926607303da71dbeffd2ed5c6b00f581982586b697655d19ae4c4d558f25991a3600954604080517fb0fc29e6000000000000000000000000000000000000000000000000000000008152600160a060020a038681166004830152600060248301819052925193169263b0fc29e69260448084019391929182900301818387803b158015610b0857600080fd5b60026020526000908152604090205481565b600954600160a060020a031681565b600081600160a060020a031683600160a060020a0316638da5cb5b6040518163ffffffff167c010000000000000000000000000000000000000000000000000000000002815260040160206040518083038186803b158015611c7157600080fd5b505afa158015611c85573d6000803e3d6000fd5b505050506040513d6020811015611c9b57600080fd5b5051600160a060020a03161490505b92915050565b6040517f190000000000000000000000000000000000000000000000000000000000000060208083018281526000602185018190526c01000000000000000000000000600160a060020a03808e16820260228801528c16026036860152604a85018a90528851909485938d938d938d938d938d938d938d939192606a909201918701908083835b60208310611d565780518252601f199092019160209182019101611d37565b51815160209384036101000a600019018019909216911617905292019586525084810193909352506040808401919091528051808403820181526060840182528051908301207f19457468657265756d205369676e6564204d6573736167653a0a3332000000006080850152609c808501919091528151808503909101815260bc909301905281519101209e9d5050505050505050505050505050565b600160a060020a0383166000908152600260209081526040808320848452600190810190925282205460ff1615151415611e2f57506000611e64565b50600160a060020a03831660009081526002602090815260408083208484526001908101909252909120805460ff1916821790555b9392505050565b60006024825110151515611ece5760408051600080516020612c73833981519152815260206004820152601660248201527f524d3a20496e76616c6964206461746157616c6c657400000000000000000000604482015290519081900360640190fd5b5060240151600160a060020a0391821691161490565b600080611ef083612562565b604080517f657865637574655265636f7665727928616464726573732c6164647265737329815290519081900360200190209091507bffffffffffffffffffffffffffffffffffffffffffffffffffffffff1980831691161415611ff757600954604080517f5040fb76000000000000000000000000000000000000000000000000000000008152600160a060020a0387811660048301529151611fef939290921691635040fb7691602480820192602092909190829003018186803b158015611fb957600080fd5b505afa158015611fcd573d6000803e3d6000fd5b505050506040513d6020811015611fe357600080fd5b505160010160026125cd565b915050611caa565b604080517f66696e616c697a655265636f7665727928616464726573732900000000000000815290519081900360190190207bffffffffffffffffffffffffffffffffffffffffffffffffffffffff198281169116141561205c576000915050611caa565b604080517f63616e63656c5265636f76657279286164647265737329000000000000000000815290519081900360170190207bffffffffffffffffffffffffffffffffffffffffffffffffffffffff198281169116141561210757600160a060020a038416600090815260036020526040902054611fef90600163ffffffff7c01000000000000000000000000000000000000000000000000000000009092048216011660026125cd565b604051806029612c198239602901905060405180910390207bffffffffffffffffffffffffffffffffffffffffffffffffffffffff1916817bffffffffffffffffffffffffffffffffffffffffffffffffffffffff1916141561216e576001915050611caa565b604051806022612b7d8239602201905060405180910390207bffffffffffffffffffffffffffffffffffffffffffffffffffffffff1916817bffffffffffffffffffffffffffffffffffffffffffffffffffffffff191614156121d5576000915050611caa565b604080517f63616e63656c4f776e6572736869705472616e73666572286164647265737329815290519081900360200190207bffffffffffffffffffffffffffffffffffffffffffffffffffffffff198281169116141561223a576001915050611caa565b60408051600080516020612c73833981519152815260206004820152601360248201527f524d3a20756e6b6e6f776e20206d6574686f6400000000000000000000000000604482015290519081900360640190fd5b600080831180156122a05750600182115b8015612349575082840285600160a060020a03163110806123495750604080517fd6eb1bbf0000000000000000000000000000000000000000000000000000000081523060048201529051600160a060020a0387169163d6eb1bbf916024808301926020929190829003018186803b15801561231b57600080fd5b505afa15801561232f573d6000803e3d6000fd5b505050506040513d602081101561234557600080fd5b5051155b156123565750600061235a565b5060015b949350505050565b600954604080517ff18858ab000000000000000000000000000000000000000000000000000000008152600160a060020a0387811660048301529151600093849360609391169163f18858ab916024808201928792909190829003018186803b1580156123ce57600080fd5b505afa1580156123e2573d6000803e3d6000fd5b505050506040513d6000823e601f3d908101601f19168201604052602081101561240b57600080fd5b81019080805164010000000081111561242357600080fd5b8201602081018481111561243657600080fd5b815185602082028301116401000000008211171561245357600080fd5b509094506000935083925050505b8551604190048160ff1610156124f557600061248188888460ff16612601565b905060ff821615801561249957506124998a82611c10565b156124a457506124ed565b600160a060020a03808616908216116124c55760009550505050505061235a565b8094506124d284826126ab565b945092508215156124eb5760009550505050505061235a565b505b600101612461565b50600198975050505050505050565b61726c85016000851180156125195750600183115b80156125255750838111155b15610ff2573a851115612539573a0261253c565b84025b6125588783836020604051908101604052806000815250612828565b5050505050505050565b600060048251101515156125c55760408051600080516020612c73833981519152815260206004820152601a60248201527f524d3a20496e76616c69642066756e6374696f6e507265666978000000000000604482015290519081900360640190fd5b506020015190565b60008082848115156125db57fe5b04905082848115156125e957fe5b0615156125f7579050611caa565b6001019050611caa565b6041808202830160208101516040820151919092015160009260ff9190911691601b83148061263357508260ff16601c145b151561263e57600080fd5b604080516000815260208082018084528a905260ff8616828401526060820185905260808201849052915160019260a0808401939192601f1981019281900390910190855afa158015612695573d6000803e3d6000fd5b5050604051601f19015198975050505050505050565b600060608351600014806126c65750600160a060020a038316155b156126d657506000905082612821565b60008090506060600186510360405190808252806020026020018201604052801561270b578160200160208202803883390190505b5090506000805b8751811015612807578315156127b257878181518110151561273057fe5b90602001906020020151600160a060020a031687600160a060020a0316141561275c57600193506127ff565b61277c888281518110151561276d57fe5b90602001906020020151612ab0565b80156127a457506127a4888281518110151561279457fe5b9060200190602002015188612abe565b156127b257600193506127ff565b82518210156127ff5787818151811015156127c957fe5b9060200190602002015183838151811015156127e157fe5b600160a060020a039092166020928302909101909101526001909101905b600101612712565b508261281557600087612819565b6001825b945094505050505b9250929050565b6060600085600160a060020a03168585856040516024018084600160a060020a0316600160a060020a0316815260200183815260200180602001828103825283818151815260200191508051906020019080838360005b8381101561289757818101518382015260200161287f565b50505050905090810190601f1680156128c45780820380516001836020036101000a031916815260200191505b5060408051601f198184030181529181526020820180517bffffffffffffffffffffffffffffffffffffffffffffffffffffffff167f8f6f033200000000000000000000000000000000000000000000000000000000178152905182519297509550859450925090508083835b602083106129505780518252601f199092019160209182019101612931565b6001836020036101000a0380198251168184511680821785525050505050509050019150506000604051808303816000865af19150503d80600081146129b2576040519150601f19603f3d011682016040523d82523d6000602084013e6129b7565b606091505b50925090508080156129ca575060008251115b15612a37578180602001905160208110156129e457600080fd5b8101908080516401000000008111156129fc57600080fd5b82016020810184811115612a0f57600080fd5b8151640100000000811182820187101715612a2957600080fd5b50909550612aa79350505050565b600082511115612a4b573d6000803e3d6000fd5b801515612aa75760408051600080516020612c73833981519152815260206004820152601a60248201527f424d3a2077616c6c657420696e766f6b65207265766572746564000000000000604482015290519081900360640190fd5b50949350505050565b6000903b63ffffffff161190565b604080517f6f776e657228290000000000000000000000000000000000000000000000000081529051908190036007018120808252600091829190602081818189611388fa6001811415612b1157815193505b505083600160a060020a031682600160a060020a031614925050509291505056fe524d3a207468652077616c6c657420617574686f72697a656420697320646966666572656e74207468656e2074686520746172676574206f66207468652072656c61796564206461746166696e616c697a654f776e6572736869705472616e73666572286164647265737329424d3a206d73672e73656e646572206d75737420626520616e206f776e657220666f72207468652077616c6c6574524d3a20746865207265636f7665727920706572696f64206973206e6f74206f76657220796574524d3a207468657265206d75737420626520616e206f6e676f696e67207265636f76657279657865637574654f776e6572736869705472616e7366657228616464726573732c6164647265737329524d3a2074686572652063616e6e6f7420626520616e206f6e676f696e67206f776e657273686970207472616e7366657208c379a000000000000000000000000000000000000000000000000000000000524d3a20546f6f206561726c7920746f20636f6e6669726d206f776e657273686970207472616e73666572524d3a206e6577206f776e657220616464726573732063616e6e6f74206265206e756c6c424d3a206d75737420626520616e206f776e657220666f72207468652077616c6c6574524d3a20546f6f206c61746520746f20636f6e6669726d206f776e657273686970207472616e73666572524d3a2074686572652063616e6e6f7420626520616e206f6e676f696e67207265636f76657279524d3a207265636f7665727920616464726573732063616e6e6f74206265206e756c6c524d3a207468657265206d75737420626520616e206f6e676f696e67206f776e657273686970207472616e73666572a165627a7a72305820de5605f92f2ed89cce04d4037e5ca73baec24c953d6de8dce5eb6f58027096e60029",
  "source": "// Copyright (C) 2018  Argent Labs Ltd. <https://argent.xyz>\n\n// This program is free software: you can redistribute it and/or modify\n// it under the terms of the GNU General Public License as published by\n// the Free Software Foundation, either version 3 of the License, or\n// (at your option) any later version.\n\n// This program is distributed in the hope that it will be useful,\n// but WITHOUT ANY WARRANTY; without even the implied warranty of\n// MERCHANTABILITY or FITNESS FOR A PARTICULAR PURPOSE.  See the\n// GNU General Public License for more details.\n\n// You should have received a copy of the GNU General Public License\n// along with this program.  If not, see <http://www.gnu.org/licenses/>.\n\npragma solidity ^0.5.4;\nimport \"../wallet/BaseWallet.sol\";\nimport \"./common/BaseModule.sol\";\nimport \"./common/RelayerModule.sol\";\nimport \"../storage/GuardianStorage.sol\";\nimport \"../../lib/utils/SafeMath.sol\";\nimport \"../utils/GuardianUtils.sol\";\n\n/**\n * @title RecoveryManager\n * @dev Module to manage the recovery of a wallet owner.\n * Recovery is executed by a consensus of the wallet's guardians and takes\n * 24 hours before it can be finalized. Once finalised the ownership of the wallet\n * is transfered to a new address.\n * @author Julien Niset - <julien@argent.im>\n * @author Olivier Van Den Biggelaar - <olivier@argent.im>\n */\ncontract RecoveryManager is BaseModule, RelayerModule {\n\n    bytes32 constant NAME = \"RecoveryManager\";\n\n    bytes4 constant internal EXECUTE_RECOVERY_PREFIX = bytes4(keccak256(\"executeRecovery(address,address)\"));\n    bytes4 constant internal FINALIZE_RECOVERY_PREFIX = bytes4(keccak256(\"finalizeRecovery(address)\"));\n    bytes4 constant internal CANCEL_RECOVERY_PREFIX = bytes4(keccak256(\"cancelRecovery(address)\"));\n    bytes4 constant internal EXECUTE_OWNERSHIP_TRANSFER_PREFIX = bytes4(keccak256(\"executeOwnershipTransfer(address,address)\"));\n    bytes4 constant internal FINALIZE_OWNERSHIP_TRANSFER_PREFIX = bytes4(keccak256(\"finalizeOwnershipTransfer(address)\"));\n    bytes4 constant internal CANCEL_OWNERSHIP_TRANSFER_PREFIX = bytes4(keccak256(\"cancelOwnershipTransfer(address)\"));\n\n    struct RecoveryConfig {\n        address recovery;\n        uint64 executeAfter;\n        uint32 guardianCount;\n    }\n\n    struct OwnershipTransferConfig {\n        address newOwner;\n        uint64 executeAfter;\n    }\n\n    // the wallet specific storage\n    mapping (address => RecoveryConfig) internal recoveryConfigs;\n    mapping (address => OwnershipTransferConfig) internal ownershipTransferConfigs;\n\n    // Recovery period\n    uint256 public recoveryPeriod;\n    // Lock period\n    uint256 public lockPeriod;\n    // The security period used for (non-recovery) ownership transfer\n    uint256 public securityPeriod;\n    // the security window used for (non-recovery) ownership transfer\n    uint256 public securityWindow;\n    // location of the Guardian storage\n    GuardianStorage public guardianStorage;\n\n    // *************** Events *************************** //\n\n    event RecoveryExecuted(address indexed _wallet, address indexed _recovery, uint64 executeAfter);\n    event RecoveryFinalized(address indexed _wallet, address indexed _recovery);\n    event RecoveryCanceled(address indexed _wallet, address indexed _recovery);\n    event OwnershipTransferExecuted(address indexed _wallet, address indexed _newOwner, uint64 executeAfter);\n    event OwnershipTransferFinalized(address indexed _wallet, address indexed _newOwner);\n    event OwnershipTransferCanceled(address indexed _wallet, address indexed _newOwner);\n\n    // *************** Modifiers ************************ //\n\n    /**\n     * @dev Throws if there is no ongoing recovery procedure.\n     */\n    modifier onlyWhenRecovery(BaseWallet _wallet) {\n        require(recoveryConfigs[address(_wallet)].executeAfter > 0, \"RM: there must be an ongoing recovery\");\n        _;\n    }\n\n    /**\n     * @dev Throws if there is an ongoing recovery procedure.\n     */\n    modifier notWhenRecovery(BaseWallet _wallet) {\n        require(recoveryConfigs[address(_wallet)].executeAfter == 0, \"RM: there cannot be an ongoing recovery\");\n        _;\n    }\n\n        /**\n     * @dev Throws if there is no ongoing ownership transfer procedure.\n     */\n    modifier onlyWhenOwnershipTransfer(BaseWallet _wallet) {\n        require(ownershipTransferConfigs[address(_wallet)].executeAfter > 0, \"RM: there must be an ongoing ownership transfer\");\n        _;\n    }\n\n    /**\n     * @dev Throws if there is an ongoing ownership transfer procedure.\n     */\n    modifier notWhenOwnershipTransfer(BaseWallet _wallet) {\n        require(now > ownershipTransferConfigs[address(_wallet)].executeAfter + securityWindow,\n            \"RM: there cannot be an ongoing ownership transfer\");\n        _;\n    }\n\n    // *************** Constructor ************************ //\n\n    constructor(\n        ModuleRegistry _registry,\n        GuardianStorage _guardianStorage,\n        uint256 _recoveryPeriod,\n        uint256 _lockPeriod,\n        uint256 _securityPeriod,\n        uint256 _securityWindow\n    )\n        BaseModule(_registry, _guardianStorage, NAME)\n        public\n    {\n        require(_lockPeriod >= _recoveryPeriod && _recoveryPeriod >= _securityPeriod + _securityWindow,\n            \"RM: insecure security periods\");\n        guardianStorage = _guardianStorage;\n        recoveryPeriod = _recoveryPeriod;\n        lockPeriod = _lockPeriod;\n        securityPeriod = _securityPeriod;\n        securityWindow = _securityWindow;\n    }\n\n    // *************** External functions ************************ //\n\n    /**\n     * @dev Lets the guardians start the execution of the recovery procedure.\n     * Once triggered the recovery is pending for the security period before it can\n     * be finalised.\n     * Must be confirmed by N guardians, where N = ((Nb Guardian + 1) / 2).\n     * @param _wallet The target wallet.\n     * @param _recovery The address to which ownership should be transferred.\n     */\n    function executeRecovery(BaseWallet _wallet, address _recovery) external onlyExecute notWhenRecovery(_wallet) {\n        require(_recovery != address(0), \"RM: recovery address cannot be null\");\n        RecoveryConfig storage config = recoveryConfigs[address(_wallet)];\n        config.recovery = _recovery;\n        config.executeAfter = uint64(now + recoveryPeriod);\n        config.guardianCount = uint32(guardianStorage.guardianCount(_wallet));\n        guardianStorage.setLock(_wallet, now + lockPeriod);\n        emit RecoveryExecuted(address(_wallet), _recovery, config.executeAfter);\n    }\n\n    /**\n     * @dev Finalizes an ongoing recovery procedure if the security period is over.\n     * The method is public and callable by anyone to enable orchestration.\n     * @param _wallet The target wallet.\n     */\n    function finalizeRecovery(BaseWallet _wallet) external onlyWhenRecovery(_wallet) {\n        RecoveryConfig storage config = recoveryConfigs[address(_wallet)];\n        require(uint64(now) > config.executeAfter, \"RM: the recovery period is not over yet\");\n        _wallet.setOwner(config.recovery);\n        emit RecoveryFinalized(address(_wallet), config.recovery);\n        guardianStorage.setLock(_wallet, 0);\n        delete recoveryConfigs[address(_wallet)];\n    }\n\n    /**\n     * @dev Lets the owner cancel an ongoing recovery procedure.\n     * Must be confirmed by N guardians, where N = ((Nb Guardian + 1) / 2) - 1.\n     * @param _wallet The target wallet.\n     */\n    function cancelRecovery(BaseWallet _wallet) external onlyExecute onlyWhenRecovery(_wallet) {\n        RecoveryConfig storage config = recoveryConfigs[address(_wallet)];\n        emit  RecoveryCanceled(address(_wallet), config.recovery);\n        guardianStorage.setLock(_wallet, 0);\n        delete recoveryConfigs[address(_wallet)];\n    }\n\n    /**\n    * @dev Gets the details of the ongoing recovery procedure if any.\n    * @param _wallet The target wallet.\n    */\n    function getRecovery(BaseWallet _wallet) public view returns(address _address, uint64 _executeAfter, uint32 _guardianCount) {\n        RecoveryConfig storage config = recoveryConfigs[address(_wallet)];\n        return (config.recovery, config.executeAfter, config.guardianCount);\n    }\n\n    /**\n     * @dev Lets the owner start the execution of the ownership transfer procedure.\n     * Once triggered the ownership transfer is pending for the security period before it can\n     * be finalised.\n     * @param _wallet The target wallet.\n     * @param _newOwner The address to which ownership should be transferred.\n     */\n    function executeOwnershipTransfer(\n        BaseWallet _wallet,\n        address _newOwner\n    )\n        external\n        onlyWalletOwner(_wallet)\n        onlyWhenUnlocked(_wallet)\n        notWhenOwnershipTransfer(_wallet)\n    {\n        require(_newOwner != address(0), \"RM: new owner address cannot be null\");\n        OwnershipTransferConfig storage config = ownershipTransferConfigs[address(_wallet)];\n        config.newOwner = _newOwner;\n        config.executeAfter = uint64(now + securityPeriod);\n        emit OwnershipTransferExecuted(address(_wallet), _newOwner, config.executeAfter);\n    }\n\n    /**\n     * @dev Finalizes an ongoing ownership transfer procedure if the security period is over.\n     * The method must be called during the confirmation window and\n     * can be called by anyone to enable orchestration.\n     * @param _wallet The target wallet.\n     */\n    function finalizeOwnershipTransfer(\n        BaseWallet _wallet\n    ) external\n        onlyWhenUnlocked(_wallet)\n        onlyWhenOwnershipTransfer(_wallet)\n    {\n        OwnershipTransferConfig storage config = ownershipTransferConfigs[address(_wallet)];\n        require(config.executeAfter < now, \"RM: Too early to confirm ownership transfer\");\n        require(now < config.executeAfter + securityWindow, \"RM: Too late to confirm ownership transfer\");\n        _wallet.setOwner(config.newOwner);\n        emit OwnershipTransferFinalized(address(_wallet), config.newOwner);\n        delete ownershipTransferConfigs[address(_wallet)];\n    }\n\n    /**\n     * @dev Lets the owner cancel an ongoing ownership transfer procedure.\n     * @param _wallet The target wallet.\n     */\n    function cancelOwnershipTransfer(\n        BaseWallet _wallet\n    )\n        external\n        onlyWalletOwner(_wallet)\n        onlyWhenUnlocked(_wallet)\n        onlyWhenOwnershipTransfer(_wallet)\n    {\n        OwnershipTransferConfig storage config = ownershipTransferConfigs[address(_wallet)];\n        emit  OwnershipTransferCanceled(address(_wallet), config.newOwner);\n        delete ownershipTransferConfigs[address(_wallet)];\n    }\n\n    // *************** Implementation of RelayerModule methods ********************* //\n\n    function validateSignatures(\n        BaseWallet _wallet,\n        bytes memory _data,\n        bytes32 _signHash,\n        bytes memory _signatures\n    )\n        internal view returns (bool)\n    {\n        address lastSigner = address(0);\n        address[] memory guardians = guardianStorage.getGuardians(_wallet);\n        bool isGuardian = false;\n        for (uint8 i = 0; i < _signatures.length / 65; i++) {\n            address signer = recoverSigner(_signHash, _signatures, i);\n            if (i == 0 && isOwner(_wallet, signer)) {\n                // first signer can be owner\n                continue;\n            } else {\n                if (signer <= lastSigner) {\n                    return false;\n                } // \"RM: signers must be different\"\n                lastSigner = signer;\n                (isGuardian, guardians) = GuardianUtils.isGuardian(guardians, signer);\n                if (!isGuardian) {\n                    return false;\n                } // \"RM: signatures not valid\"\n            }\n        }\n        return true;\n    }\n\n    function getRequiredSignatures(BaseWallet _wallet, bytes memory _data) internal view returns (uint256) {\n        bytes4 methodId = functionPrefix(_data);\n        if (methodId == EXECUTE_RECOVERY_PREFIX) {\n            return SafeMath.ceil(guardianStorage.guardianCount(_wallet) + 1, 2);\n        }\n        if (methodId == FINALIZE_RECOVERY_PREFIX) {\n            return 0;\n        }\n        if (methodId == CANCEL_RECOVERY_PREFIX) {\n            return SafeMath.ceil(recoveryConfigs[address(_wallet)].guardianCount + 1, 2);\n        }\n        if (methodId == EXECUTE_OWNERSHIP_TRANSFER_PREFIX) {\n            return 1;\n        }\n        if (methodId == FINALIZE_OWNERSHIP_TRANSFER_PREFIX) {\n            return 0;\n        }\n        if (methodId == CANCEL_OWNERSHIP_TRANSFER_PREFIX) {\n            return 1;\n        }\n        revert(\"RM: unknown  method\");\n    }\n}",
  "sourcePath": "/Users/name/dev/smartcontracts/contracts/modules/RecoveryManager.sol",
  "compiler": {
    "name": "solc",
    "version": "0.5.4+commit.9549d8ff.Emscripten.clang",
    "optimizer": true,
    "runs": 999
  },
  "schemaVersion": "2.3.1",
  "updatedAt": "2020-04-01T21:49:53.106Z"
}