{
  "contractName": "ReverseRegistrar",
  "abi": [
    {
      "constant": true,
      "inputs": [],
      "name": "ens",
      "outputs": [
        {
          "name": "",
          "type": "address"
        }
      ],
      "payable": false,
      "stateMutability": "view",
      "type": "function"
    },
    {
      "constant": true,
      "inputs": [],
      "name": "ADDR_REVERSE_NODE",
      "outputs": [
        {
          "name": "",
          "type": "bytes32"
        }
      ],
      "payable": false,
      "stateMutability": "view",
      "type": "function"
    },
    {
      "constant": true,
      "inputs": [],
      "name": "defaultResolver",
      "outputs": [
        {
          "name": "",
          "type": "address"
        }
      ],
      "payable": false,
      "stateMutability": "view",
      "type": "function"
    },
    {
      "inputs": [
        {
          "name": "ensAddr",
          "type": "address"
        },
        {
          "name": "resolverAddr",
          "type": "address"
        }
      ],
      "payable": false,
      "stateMutability": "nonpayable",
      "type": "constructor"
    },
    {
      "constant": false,
      "inputs": [
        {
          "name": "owner",
          "type": "address"
        }
      ],
      "name": "claim",
      "outputs": [
        {
          "name": "",
          "type": "bytes32"
        }
      ],
      "payable": false,
      "stateMutability": "nonpayable",
      "type": "function"
    },
    {
      "constant": false,
      "inputs": [
        {
          "name": "owner",
          "type": "address"
        },
        {
          "name": "resolver",
          "type": "address"
        }
      ],
      "name": "claimWithResolver",
      "outputs": [
        {
          "name": "",
          "type": "bytes32"
        }
      ],
      "payable": false,
      "stateMutability": "nonpayable",
      "type": "function"
    },
    {
      "constant": false,
      "inputs": [
        {
          "name": "name",
          "type": "string"
        }
      ],
      "name": "setName",
      "outputs": [
        {
          "name": "",
          "type": "bytes32"
        }
      ],
      "payable": false,
      "stateMutability": "nonpayable",
      "type": "function"
    },
    {
      "constant": true,
      "inputs": [
        {
          "name": "addr",
          "type": "address"
        }
      ],
      "name": "node",
      "outputs": [
        {
          "name": "",
          "type": "bytes32"
        }
      ],
      "payable": false,
      "stateMutability": "pure",
      "type": "function"
    }
  ],
  "bytecode": "0x608060405234801561001057600080fd5b506040516040806109be8339810180604052604081101561003057600080fd5b50805160209182015160008054600160a060020a03808516600160a060020a03199283161780845560018054838716941693909317909255604080517f02571be30000000000000000000000000000000000000000000000000000000081527f91d1777781884d03a6757a803996e38de2a42967fb37eeaca72729271025a9e26004820152905195969495939492909116926302571be392602480840193919291829003018186803b1580156100e557600080fd5b505afa1580156100f9573d6000803e3d6000fd5b505050506040513d602081101561010f57600080fd5b50519050600160a060020a038116156101b057604080517f1e83409a0000000000000000000000000000000000000000000000000000000081523360048201529051600160a060020a03831691631e83409a9160248083019260209291908290030181600087803b15801561018357600080fd5b505af1158015610197573d6000803e3d6000fd5b505050506040513d60208110156101ad57600080fd5b50505b5050506107fc806101c26000396000f3fe608060405234801561001057600080fd5b506004361061009a576000357c0100000000000000000000000000000000000000000000000000000000900480637cf8a2eb116100785780637cf8a2eb14610129578063828eab0e14610131578063bffbe61c14610139578063c47f00271461015f5761009a565b80630f5a54661461009f5780631e83409a146100df5780633f15457f14610105575b600080fd5b6100cd600480360360408110156100b557600080fd5b50600160a060020a0381358116916020013516610205565b60408051918252519081900360200190f35b6100cd600480360360208110156100f557600080fd5b5035600160a060020a03166105ab565b61010d6105be565b60408051600160a060020a039092168252519081900360200190f35b6100cd6105cd565b61010d6105df565b6100cd6004803603602081101561014f57600080fd5b5035600160a060020a03166105ee565b6100cd6004803603602081101561017557600080fd5b81019060208101813564010000000081111561019057600080fd5b8201836020820111156101a257600080fd5b803590602001918460018302840111640100000000831117156101c457600080fd5b91908080601f01602080910402602001604051908101604052809392919081815260200183838082843760009201919091525092955061063c945050505050565b60008061021133610749565b604080516000805160206107b183398151915260208083019190915281830184905282518083038401815260608301808552815191830191909120600080547f02571be30000000000000000000000000000000000000000000000000000000090935260648501829052945195965094600160a060020a03909116926302571be3926084808301939192829003018186803b1580156102af57600080fd5b505afa1580156102c3573d6000803e3d6000fd5b505050506040513d60208110156102d957600080fd5b50519050600160a060020a038516158015906103915750600054604080517f0178b8bf000000000000000000000000000000000000000000000000000000008152600481018590529051600160a060020a0390921691630178b8bf91602480820192602092909190829003018186803b15801561035557600080fd5b505afa158015610369573d6000803e3d6000fd5b505050506040513d602081101561037f57600080fd5b5051600160a060020a03868116911614155b156104dc57600160a060020a03811630146104585760008054604080517f06ab59230000000000000000000000000000000000000000000000000000000081526000805160206107b18339815191526004820152602481018790523060448201529051600160a060020a03909216926306ab5923926064808401936020939083900390910190829087803b15801561042857600080fd5b505af115801561043c573d6000803e3d6000fd5b505050506040513d602081101561045257600080fd5b50309150505b60008054604080517f1896f70a00000000000000000000000000000000000000000000000000000000815260048101869052600160a060020a03898116602483015291519190921692631896f70a926044808201939182900301818387803b1580156104c357600080fd5b505af11580156104d7573d6000803e3d6000fd5b505050505b600160a060020a03818116908716146105a25760008054604080517f06ab59230000000000000000000000000000000000000000000000000000000081526000805160206107b1833981519152600482015260248101879052600160a060020a038a81166044830152915191909216926306ab592392606480820193602093909283900390910190829087803b15801561057557600080fd5b505af1158015610589573d6000803e3d6000fd5b505050506040513d602081101561059f57600080fd5b50505b50949350505050565b60006105b8826000610205565b92915050565b600054600160a060020a031681565b6000805160206107b183398151915281565b600154600160a060020a031681565b60006000805160206107b183398151915261060883610749565b6040516020018083815260200182815260200192505050604051602081830303815290604052805190602001209050919050565b6001546000908190610658903090600160a060020a0316610205565b600154604080517f773722130000000000000000000000000000000000000000000000000000000081526004810184815260248201928352875160448301528751949550600160a060020a0390931693637737221393869389939192909160640190602085019080838360005b838110156106dd5781810151838201526020016106c5565b50505050905090810190601f16801561070a5780820380516001836020036101000a031916815260200191505b509350505050600060405180830381600087803b15801561072a57600080fd5b505af115801561073e573d6000803e3d6000fd5b509295945050505050565b60007f303132333435363738396162636465660000000000000000000000000000000060285b60008111156107a35760001901600f841682901a815360109093049260001901600f841682901a815360108404935061076f565b505060286000209291505056fe91d1777781884d03a6757a803996e38de2a42967fb37eeaca72729271025a9e2a165627a7a72305820f4869086884cc380d7f0146510b7c04c5f729bf388878b3c82f18121a000f8b40029",
  "source": "/**\n * ENS ReverseRegistrar implementation.\n * Reference: https://github.com/ensdomains/ens/blob/master/contracts/ReverseRegistrar.sol\n */\n \npragma solidity ^0.5.0;\n\nimport \"./ENS.sol\";\n\ncontract Resolver {\n    function setName(bytes32 node, string memory name) public;\n}\n\ncontract ReverseRegistrar {\n    // namehash('addr.reverse')\n    bytes32 public constant ADDR_REVERSE_NODE = 0x91d1777781884d03a6757a803996e38de2a42967fb37eeaca72729271025a9e2;\n\n    ENS public ens;\n    Resolver public defaultResolver;\n\n    /**\n     * @dev Constructor\n     * @param ensAddr The address of the ENS registry.\n     * @param resolverAddr The address of the default reverse resolver.\n     */\n    constructor(ENS ensAddr, Resolver resolverAddr) public {\n        ens = ensAddr;\n        defaultResolver = resolverAddr;\n\n        // Assign ownership of the reverse record to our deployer\n        ReverseRegistrar oldRegistrar = ReverseRegistrar(ens.owner(ADDR_REVERSE_NODE));\n        if (address(oldRegistrar) != address(0x0)) {\n            oldRegistrar.claim(msg.sender);\n        }\n    }\n    \n    /**\n     * @dev Transfers ownership of the reverse ENS record associated with the\n     *      calling account.\n     * @param owner The address to set as the owner of the reverse record in ENS.\n     * @return The ENS node hash of the reverse record.\n     */\n    function claim(address owner) public returns (bytes32) {\n        return claimWithResolver(owner, address(0x0));\n    }\n\n    /**\n     * @dev Transfers ownership of the reverse ENS record associated with the\n     *      calling account.\n     * @param owner The address to set as the owner of the reverse record in ENS.\n     * @param resolver The address of the resolver to set; 0 to leave unchanged.\n     * @return The ENS node hash of the reverse record.\n     */\n    function claimWithResolver(address owner, address resolver) public returns (bytes32) {\n        bytes32 label = sha3HexAddress(msg.sender);\n        bytes32 node = keccak256(abi.encodePacked(ADDR_REVERSE_NODE, label));\n        address currentOwner = ens.owner(node);\n\n        // Update the resolver if required\n        if (resolver != address(0x0) && resolver != ens.resolver(node)) {\n            // Transfer the name to us first if it's not already\n            if (currentOwner != address(this)) {\n                ens.setSubnodeOwner(ADDR_REVERSE_NODE, label, address(this));\n                currentOwner = address(this);\n            }\n            ens.setResolver(node, resolver);\n        }\n\n        // Update the owner if required\n        if (currentOwner != owner) {\n            ens.setSubnodeOwner(ADDR_REVERSE_NODE, label, owner);\n        }\n\n        return node;\n    }\n\n    /**\n     * @dev Sets the `name()` record for the reverse ENS record associated with\n     * the calling account. First updates the resolver to the default reverse\n     * resolver if necessary.\n     * @param name The name to set for this address.\n     * @return The ENS node hash of the reverse record.\n     */\n    function setName(string memory name) public returns (bytes32) {\n        bytes32 node = claimWithResolver(address(this), address(defaultResolver));\n        defaultResolver.setName(node, name);\n        return node;\n    }\n\n    /**\n     * @dev Returns the node hash for a given account's reverse records.\n     * @param addr The address to hash\n     * @return The ENS node hash.\n     */\n    function node(address addr) public pure returns (bytes32) {\n        return keccak256(abi.encodePacked(ADDR_REVERSE_NODE, sha3HexAddress(addr)));\n    }\n\n    /**\n     * @dev An optimised function to compute the sha3 of the lower-case\n     *      hexadecimal representation of an Ethereum address.\n     * @param addr The address to hash\n     * @return The SHA3 hash of the lower-case hexadecimal encoding of the\n     *         input address.\n     */\n    function sha3HexAddress(address addr) private pure returns (bytes32 ret) {\n        addr;\n        ret; // Stop warning us about unused variables\n        assembly {\n            let lookup := 0x3031323334353637383961626364656600000000000000000000000000000000\n\n            for { let i := 40 } gt(i, 0) { } {\n                i := sub(i, 1)\n                mstore8(i, byte(and(addr, 0xf), lookup))\n                addr := div(addr, 0x10)\n                i := sub(i, 1)\n                mstore8(i, byte(and(addr, 0xf), lookup))\n                addr := div(addr, 0x10)\n            }\n\n            ret := keccak256(0, 40)\n        }\n    }\n}",
  "sourcePath": "/Users/name/dev/argent-contracts-release-1.5.0/lib/ens/ReverseRegistrar.sol",
  "compiler": {
    "name": "solc",
    "version": "0.5.4+commit.9549d8ff.Emscripten.clang",
    "optimizer": true,
    "runs": 200
  },
  "schemaVersion": "2.3.1",
  "updatedAt": "2020-04-01T04:47:35.075Z"
}