{
  "contractName": "SaiVox",
  "abi": [
    {
      "constant": false,
      "inputs": [
        {
          "name": "owner_",
          "type": "address"
        }
      ],
      "name": "setOwner",
      "outputs": [],
      "payable": false,
      "stateMutability": "nonpayable",
      "type": "function"
    },
    {
      "constant": true,
      "inputs": [],
      "name": "how",
      "outputs": [
        {
          "name": "",
          "type": "uint256"
        }
      ],
      "payable": false,
      "stateMutability": "view",
      "type": "function"
    },
    {
      "constant": false,
      "inputs": [
        {
          "name": "authority_",
          "type": "address"
        }
      ],
      "name": "setAuthority",
      "outputs": [],
      "payable": false,
      "stateMutability": "nonpayable",
      "type": "function"
    },
    {
      "constant": true,
      "inputs": [],
      "name": "owner",
      "outputs": [
        {
          "name": "",
          "type": "address"
        }
      ],
      "payable": false,
      "stateMutability": "view",
      "type": "function"
    },
    {
      "constant": true,
      "inputs": [],
      "name": "fix",
      "outputs": [
        {
          "name": "",
          "type": "uint256"
        }
      ],
      "payable": false,
      "stateMutability": "view",
      "type": "function"
    },
    {
      "constant": true,
      "inputs": [],
      "name": "authority",
      "outputs": [
        {
          "name": "",
          "type": "address"
        }
      ],
      "payable": false,
      "stateMutability": "view",
      "type": "function"
    },
    {
      "constant": true,
      "inputs": [],
      "name": "tau",
      "outputs": [
        {
          "name": "",
          "type": "uint256"
        }
      ],
      "payable": false,
      "stateMutability": "view",
      "type": "function"
    },
    {
      "inputs": [
        {
          "name": "par_",
          "type": "uint256"
        }
      ],
      "payable": false,
      "stateMutability": "nonpayable",
      "type": "constructor"
    },
    {
      "anonymous": false,
      "inputs": [
        {
          "indexed": true,
          "name": "authority",
          "type": "address"
        }
      ],
      "name": "LogSetAuthority",
      "type": "event"
    },
    {
      "anonymous": false,
      "inputs": [
        {
          "indexed": true,
          "name": "owner",
          "type": "address"
        }
      ],
      "name": "LogSetOwner",
      "type": "event"
    },
    {
      "constant": true,
      "inputs": [],
      "name": "era",
      "outputs": [
        {
          "name": "",
          "type": "uint256"
        }
      ],
      "payable": false,
      "stateMutability": "view",
      "type": "function"
    },
    {
      "constant": false,
      "inputs": [
        {
          "name": "param",
          "type": "bytes32"
        },
        {
          "name": "val",
          "type": "uint256"
        }
      ],
      "name": "mold",
      "outputs": [],
      "payable": false,
      "stateMutability": "nonpayable",
      "type": "function"
    },
    {
      "constant": false,
      "inputs": [],
      "name": "par",
      "outputs": [
        {
          "name": "",
          "type": "uint256"
        }
      ],
      "payable": false,
      "stateMutability": "nonpayable",
      "type": "function"
    },
    {
      "constant": false,
      "inputs": [],
      "name": "way",
      "outputs": [
        {
          "name": "",
          "type": "uint256"
        }
      ],
      "payable": false,
      "stateMutability": "nonpayable",
      "type": "function"
    },
    {
      "constant": false,
      "inputs": [
        {
          "name": "ray",
          "type": "uint256"
        }
      ],
      "name": "tell",
      "outputs": [],
      "payable": false,
      "stateMutability": "nonpayable",
      "type": "function"
    },
    {
      "constant": false,
      "inputs": [
        {
          "name": "ray",
          "type": "uint256"
        }
      ],
      "name": "tune",
      "outputs": [],
      "payable": false,
      "stateMutability": "nonpayable",
      "type": "function"
    },
    {
      "constant": false,
      "inputs": [],
      "name": "prod",
      "outputs": [],
      "payable": false,
      "stateMutability": "nonpayable",
      "type": "function"
    }
  ],
  "bytecode": "0x608060405234801561001057600080fd5b50604051602080610b308339810180604052602081101561003057600080fd5b505160018054600160a060020a031916339081179091556040517fce241d7ca1f669fee44b6fc00b8eba2df3bb514eed0f6f668f8f89096e81ed9490600090a2600481905560028190556b033b2e3c9fd0803ce800000060035561009b6401000000006100a4810204565b600655506100a8565b4290565b610a79806100b76000396000f3fe608060405234801561001057600080fd5b5060043610610107576000357c0100000000000000000000000000000000000000000000000000000000900480637a9e5e4b116100a9578063a551878e11610083578063a551878e1461021f578063becda0ea14610227578063bf7e214f14610244578063cfc4af551461024c57610107565b80637a9e5e4b146101985780638da5cb5b146101cb57806392b0d721146101fc57610107565b80633a4a4233116100e55780633a4a423314610163578063495d32cb1461016b57806355deb8fc146101735780635d6542af1461019057610107565b80630302c6881461010c57806313af403514610116578063143e55e014610149575b600080fd5b610114610254565b005b6101146004803603602081101561012c57600080fd5b503573ffffffffffffffffffffffffffffffffffffffff166102f6565b6101516103f8565b60408051918252519081900360200190f35b6101516103fc565b610151610402565b6101146004803603602081101561018957600080fd5b5035610413565b6101516104b0565b610114600480360360208110156101ae57600080fd5b503573ffffffffffffffffffffffffffffffffffffffff166104c1565b6101d36105bf565b6040805173ffffffffffffffffffffffffffffffffffffffff9092168252519081900360200190f35b6101146004803603604081101561021257600080fd5b50803590602001356105db565b6101516106a5565b6101146004803603602081101561023d57600080fd5b50356106ab565b6101d3610748565b610151610764565b60006006546102616103f8565b03905080151561027157506102f4565b6102796103f8565b6006556003546b033b2e3c9fd0803ce8000000146102ac576102a86002546102a36003548461076a565b6107cc565b6002555b60055415156102bb57506102f4565b6000816005540290506102ee600254600454106102db57816000036102dd565b815b6102e860035461080f565b01610861565b60035550505b565b610321336000357bffffffffffffffffffffffffffffffffffffffffffffffffffffffff19166108b2565b151561038e57604080517f08c379a000000000000000000000000000000000000000000000000000000000815260206004820152601460248201527f617574683a206e6f7420617574686f72697a6564000000000000000000000000604482015290519081900360640190fd5b6001805473ffffffffffffffffffffffffffffffffffffffff191673ffffffffffffffffffffffffffffffffffffffff83811691909117918290556040519116907fce241d7ca1f669fee44b6fc00b8eba2df3bb514eed0f6f668f8f89096e81ed9490600090a250565b4290565b60055481565b600061040c610254565b5060025490565b61043e336000357bffffffffffffffffffffffffffffffffffffffffffffffffffffffff19166108b2565b15156104ab57604080517f08c379a000000000000000000000000000000000000000000000000000000000815260206004820152601460248201527f617574683a206e6f7420617574686f72697a6564000000000000000000000000604482015290519081900360640190fd5b600455565b60006104ba610254565b5060035490565b6104ec336000357bffffffffffffffffffffffffffffffffffffffffffffffffffffffff19166108b2565b151561055957604080517f08c379a000000000000000000000000000000000000000000000000000000000815260206004820152601460248201527f617574683a206e6f7420617574686f72697a6564000000000000000000000000604482015290519081900360640190fd5b6000805473ffffffffffffffffffffffffffffffffffffffff191673ffffffffffffffffffffffffffffffffffffffff838116919091178083556040519116917f1abebea81bfa2637f28358c371278fb15ede7ea8dd28d2e03b112ff6d936ada491a250565b60015473ffffffffffffffffffffffffffffffffffffffff1681565b610606336000357bffffffffffffffffffffffffffffffffffffffffffffffffffffffff19166108b2565b151561067357604080517f08c379a000000000000000000000000000000000000000000000000000000000815260206004820152601460248201527f617574683a206e6f7420617574686f72697a6564000000000000000000000000604482015290519081900360640190fd5b817f776179000000000000000000000000000000000000000000000000000000000014156106a15760038190555b5050565b60045481565b6106d6336000357bffffffffffffffffffffffffffffffffffffffffffffffffffffffff19166108b2565b151561074357604080517f08c379a000000000000000000000000000000000000000000000000000000000815260206004820152601460248201527f617574683a206e6f7420617574686f72697a6564000000000000000000000000604482015290519081900360640190fd5b600555565b60005473ffffffffffffffffffffffffffffffffffffffff1681565b60065481565b6000600282061515610788576b033b2e3c9fd0803ce800000061078a565b825b90506002820491505b81156107c6576107a383846107cc565b925060028206156107bb576107b881846107cc565b90505b600282049150610793565b92915050565b60006b033b2e3c9fd0803ce80000006107fe6107e885856109fd565b60026b033b2e3c9fd0803ce80000005b04610a25565b81151561080757fe5b049392505050565b60006b033b2e3c9fd0803ce800000082101561084e5761083b6b033b2e3c9fd0803ce800000083610a29565b6b033b2e3c9fd0803ce8000000036107c6565b506b033b2e3c9fd0803ce7ffffff190190565b60008082600f0b121561089d576108986b033b2e3c9fd0803ce800000083600003600f0b6b033b2e3c9fd0803ce800000001610a29565b6107c6565b50600f0b6b033b2e3c9fd0803ce80000000190565b600073ffffffffffffffffffffffffffffffffffffffff83163014156108da575060016107c6565b60015473ffffffffffffffffffffffffffffffffffffffff84811691161415610905575060016107c6565b60005473ffffffffffffffffffffffffffffffffffffffff16151561092c575060006107c6565b600054604080517fb700961300000000000000000000000000000000000000000000000000000000815273ffffffffffffffffffffffffffffffffffffffff86811660048301523060248301527bffffffffffffffffffffffffffffffffffffffffffffffffffffffff19861660448301529151919092169163b7009613916064808301926020929190829003018186803b1580156109ca57600080fd5b505afa1580156109de573d6000803e3d6000fd5b505050506040513d60208110156109f457600080fd5b505190506107c6565b6000811580610a1a575050808202828282811515610a1757fe5b04145b15156107c657600080fd5b0190565b6000816107fe610a45856b033b2e3c9fd0803ce80000006109fd565b6002856107f856fea165627a7a72305820789f816c91c82afd6faa0000b600d01054e900793d1278632ded1fa606bbeaec0029",
  "source": "/// vox.sol -- target price feed\n\n// Copyright (C) 2016, 2017  Nikolai Mushegian <nikolai@dapphub.com>\n// Copyright (C) 2016, 2017  Daniel Brockman <daniel@dapphub.com>\n// Copyright (C) 2017        Rain Break <rainbreak@riseup.net>\n\n// This program is free software: you can redistribute it and/or modify\n// it under the terms of the GNU General Public License as published by\n// the Free Software Foundation, either version 3 of the License, or\n// (at your option) any later version.\n\n// This program is distributed in the hope that it will be useful,\n// but WITHOUT ANY WARRANTY; without even the implied warranty of\n// MERCHANTABILITY or FITNESS FOR A PARTICULAR PURPOSE.  See the\n// GNU General Public License for more details.\n\n// You should have received a copy of the GNU General Public License\n// along with this program.  If not, see <http://www.gnu.org/licenses/>.\n\npragma solidity ^0.5.4;\n\nimport \"./DS/DSMath.sol\";\nimport \"./DS/DSAuth.sol\";\n\ncontract SaiVox is DSAuth, DSMath {\n    uint256  _par;\n    uint256  _way;\n\n    uint256  public  fix;\n    uint256  public  how;\n    uint256  public  tau;\n\n    constructor(uint par_) public {\n        _par = fix = par_;\n        _way = RAY;\n        tau  = era();\n    }\n\n    function era() public view returns (uint) {\n        return block.timestamp;\n    }\n\n    function mold(bytes32 param, uint val) public auth {\n        if (param == 'way') _way = val;\n    }\n\n    // Dai Target Price (ref per dai)\n    function par() public returns (uint) {\n        prod();\n        return _par;\n    }\n    function way() public returns (uint) {\n        prod();\n        return _way;\n    }\n\n    function tell(uint256 ray) public auth {\n        fix = ray;\n    }\n    function tune(uint256 ray) public auth {\n        how = ray;\n    }\n\n    function prod() public {\n        uint age = era() - tau;\n        if (age == 0) return;  // optimised\n        tau = era();\n\n        if (_way != RAY) _par = rmul(_par, rpow(_way, age));  // optimised\n\n        if (how == 0) return;  // optimised\n        int128 wag = int128(how * age);\n        _way = inj(prj(_way) + (fix < _par ? wag : -wag));\n    }\n\n    function inj(int128 x) internal pure returns (uint256) {\n        return x >= 0 ? uint256(x) + RAY\n            : rdiv(RAY, RAY + uint256(-x));\n    }\n    function prj(uint256 x) internal pure returns (int128) {\n        return x >= RAY ? int128(x - RAY)\n            : int128(RAY) - int128(rdiv(RAY, x));\n    }\n}\n",
  "sourcePath": "/Users/name/dev/smartcontracts/contracts/test/maker/SaiVox.sol",
  "compiler": {
    "name": "solc",
    "version": "0.5.4+commit.9549d8ff.Emscripten.clang",
    "optimizer": true,
    "runs": 999
  },
  "schemaVersion": "2.3.1",
  "updatedAt": "2020-04-01T21:49:53.055Z"
}