{
  "contractName": "SimpleUpgrader",
  "abi": [
    {
      "constant": false,
      "inputs": [
        {
          "name": "_wallet",
          "type": "address"
        },
        {
          "name": "_module",
          "type": "address"
        }
      ],
      "name": "addModule",
      "outputs": [],
      "payable": false,
      "stateMutability": "nonpayable",
      "type": "function"
    },
    {
      "constant": false,
      "inputs": [
        {
          "name": "_token",
          "type": "address"
        }
      ],
      "name": "recoverToken",
      "outputs": [],
      "payable": false,
      "stateMutability": "nonpayable",
      "type": "function"
    },
    {
      "constant": true,
      "inputs": [
        {
          "name": "",
          "type": "uint256"
        }
      ],
      "name": "toDisable",
      "outputs": [
        {
          "name": "",
          "type": "address"
        }
      ],
      "payable": false,
      "stateMutability": "view",
      "type": "function"
    },
    {
      "constant": true,
      "inputs": [
        {
          "name": "",
          "type": "uint256"
        }
      ],
      "name": "toEnable",
      "outputs": [
        {
          "name": "",
          "type": "address"
        }
      ],
      "payable": false,
      "stateMutability": "view",
      "type": "function"
    },
    {
      "inputs": [
        {
          "name": "_registry",
          "type": "address"
        },
        {
          "name": "_toDisable",
          "type": "address[]"
        },
        {
          "name": "_toEnable",
          "type": "address[]"
        }
      ],
      "payable": false,
      "stateMutability": "nonpayable",
      "type": "constructor"
    },
    {
      "anonymous": false,
      "inputs": [
        {
          "indexed": false,
          "name": "name",
          "type": "bytes32"
        }
      ],
      "name": "ModuleCreated",
      "type": "event"
    },
    {
      "anonymous": false,
      "inputs": [
        {
          "indexed": false,
          "name": "wallet",
          "type": "address"
        }
      ],
      "name": "ModuleInitialised",
      "type": "event"
    },
    {
      "constant": false,
      "inputs": [
        {
          "name": "_wallet",
          "type": "address"
        }
      ],
      "name": "init",
      "outputs": [],
      "payable": false,
      "stateMutability": "nonpayable",
      "type": "function"
    }
  ],
  "bytecode": "0x608060405234801561001057600080fd5b50604051610b05380380610b058339810180604052606081101561003357600080fd5b81516020830180519193928301929164010000000081111561005457600080fd5b8201602081018481111561006757600080fd5b815185602082028301116401000000008211171561008457600080fd5b505092919060200180516401000000008111156100a057600080fd5b820160208101848111156100b357600080fd5b81518560208202830111640100000000821117156100d057600080fd5b505060008054600160a060020a038816600160a060020a0319918216178255600180549091169055604080517f53696d706c6555706772616465720000000000000000000000000000000000008082529151939650889550919350917f3019c8fc80239e3dff8f781212ae2004839c2cb61d6c70acd279ac65392145df9181900360200190a15050825161016c91506002906020850190610189565b508051610180906003906020840190610189565b50505050610215565b8280548282559060005260206000209081019282156101de579160200282015b828111156101de5782518254600160a060020a031916600160a060020a039091161782556020909201916001909101906101a9565b506101ea9291506101ee565b5090565b61021291905b808211156101ea578054600160a060020a03191681556001016101f4565b90565b6108e1806102246000396000f3fe608060405234801561001057600080fd5b5060043610610084576000357c0100000000000000000000000000000000000000000000000000000000900480639be65a601161006d5780639be65a60146100f9578063c412967b1461012c578063d0d603e11461017257610084565b806319ab453c146100895780635a1db8c4146100be575b600080fd5b6100bc6004803603602081101561009f57600080fd5b503573ffffffffffffffffffffffffffffffffffffffff1661018f565b005b6100bc600480360360408110156100d457600080fd5b5073ffffffffffffffffffffffffffffffffffffffff8135811691602001351661044c565b6100bc6004803603602081101561010f57600080fd5b503573ffffffffffffffffffffffffffffffffffffffff16610632565b6101496004803603602081101561014257600080fd5b503561077f565b6040805173ffffffffffffffffffffffffffffffffffffffff9092168252519081900360200190f35b6101496004803603602081101561018857600080fd5b50356107b4565b803373ffffffffffffffffffffffffffffffffffffffff82161461021457604080517f08c379a000000000000000000000000000000000000000000000000000000000815260206004820152601960248201527f424d3a2063616c6c6572206d7573742062652077616c6c657400000000000000604482015290519081900360640190fd5b60005b6003548110156102e8578273ffffffffffffffffffffffffffffffffffffffff16631f17732d60038381548110151561024c57fe5b6000918252602082200154604080517c010000000000000000000000000000000000000000000000000000000063ffffffff861602815273ffffffffffffffffffffffffffffffffffffffff909216600483015260016024830152516044808301939282900301818387803b1580156102c457600080fd5b505af11580156102d8573d6000803e3d6000fd5b5050600190920191506102179050565b5060005b6002548110156103bd578273ffffffffffffffffffffffffffffffffffffffff16631f17732d60028381548110151561032157fe5b6000918252602082200154604080517c010000000000000000000000000000000000000000000000000000000063ffffffff861602815273ffffffffffffffffffffffffffffffffffffffff909216600483015260248201839052516044808301939282900301818387803b15801561039957600080fd5b505af11580156103ad573d6000803e3d6000fd5b5050600190920191506102ec9050565b604080517f1f17732d000000000000000000000000000000000000000000000000000000008152306004820152600060248201819052915173ffffffffffffffffffffffffffffffffffffffff861692631f17732d926044808201939182900301818387803b15801561042f57600080fd5b505af1158015610443573d6000803e3d6000fd5b50505050505050565b8161045781336107c2565b15156104ae576040517f08c379a000000000000000000000000000000000000000000000000000000000815260040180806020018281038252602e815260200180610888602e913960400191505060405180910390fd5b600054604080517f0bcd4ebb00000000000000000000000000000000000000000000000000000000815273ffffffffffffffffffffffffffffffffffffffff858116600483015291519190921691630bcd4ebb916024808301926020929190829003018186803b15801561052157600080fd5b505afa158015610535573d6000803e3d6000fd5b505050506040513d602081101561054b57600080fd5b505115156105ba57604080517f08c379a000000000000000000000000000000000000000000000000000000000815260206004820152601c60248201527f424d3a206d6f64756c65206973206e6f74207265676973746572656400000000604482015290519081900360640190fd5b604080517f1f17732d00000000000000000000000000000000000000000000000000000000815273ffffffffffffffffffffffffffffffffffffffff848116600483015260016024830152915191851691631f17732d9160448082019260009290919082900301818387803b15801561042f57600080fd5b604080517f70a08231000000000000000000000000000000000000000000000000000000008152306004820152905160009173ffffffffffffffffffffffffffffffffffffffff8416916370a0823191602480820192602092909190829003018186803b1580156106a257600080fd5b505afa1580156106b6573d6000803e3d6000fd5b505050506040513d60208110156106cc57600080fd5b505160008054604080517fa9059cbb00000000000000000000000000000000000000000000000000000000815273ffffffffffffffffffffffffffffffffffffffff92831660048201526024810185905290519394509085169263a9059cbb92604480840193602093929083900390910190829087803b15801561074f57600080fd5b505af1158015610763573d6000803e3d6000fd5b505050506040513d602081101561077957600080fd5b50505050565b600280548290811061078d57fe5b60009182526020909120015473ffffffffffffffffffffffffffffffffffffffff16905081565b600380548290811061078d57fe5b60008173ffffffffffffffffffffffffffffffffffffffff168373ffffffffffffffffffffffffffffffffffffffff16638da5cb5b6040518163ffffffff167c010000000000000000000000000000000000000000000000000000000002815260040160206040518083038186803b15801561083d57600080fd5b505afa158015610851573d6000803e3d6000fd5b505050506040513d602081101561086757600080fd5b505173ffffffffffffffffffffffffffffffffffffffff1614939250505056fe424d3a206d73672e73656e646572206d75737420626520616e206f776e657220666f72207468652077616c6c6574a165627a7a723058201d583a7a0e744b05cde874ee014aed13099daaa41604911cc69b1ef4b42fc2c90029",
  "source": "// Copyright (C) 2018  Argent Labs Ltd. <https://argent.xyz>\n\n// This program is free software: you can redistribute it and/or modify\n// it under the terms of the GNU General Public License as published by\n// the Free Software Foundation, either version 3 of the License, or\n// (at your option) any later version.\n\n// This program is distributed in the hope that it will be useful,\n// but WITHOUT ANY WARRANTY; without even the implied warranty of\n// MERCHANTABILITY or FITNESS FOR A PARTICULAR PURPOSE.  See the\n// GNU General Public License for more details.\n\n// You should have received a copy of the GNU General Public License\n// along with this program.  If not, see <http://www.gnu.org/licenses/>.\n\npragma solidity ^0.5.4;\n\nimport \"../modules/common/BaseModule.sol\";\n\n/**\n * @title SimpleUpgrader\n * @dev Temporary module used to add/remove other modules.\n * @author Olivier VDB - <olivier@argent.xyz>, Julien Niset - <julien@argent.im>\n */\ncontract SimpleUpgrader is BaseModule {\n\n    bytes32 constant NAME = \"SimpleUpgrader\";\n    address[] public toDisable;\n    address[] public toEnable;\n\n    // *************** Constructor ********************** //\n\n    constructor(\n        ModuleRegistry _registry,\n        address[] memory _toDisable,\n        address[] memory _toEnable\n    )\n        BaseModule(_registry, GuardianStorage(0), NAME)\n        public\n    {\n        toDisable = _toDisable;\n        toEnable = _toEnable;\n    }\n\n    // *************** External/Public Functions ********************* //\n\n    /**\n     * @dev Perform the upgrade for a wallet. This method gets called\n     * when SimpleUpgrader is temporarily added as a module.\n     * @param _wallet The target wallet.\n     */\n    function init(BaseWallet _wallet) public onlyWallet(_wallet) {\n        uint256 i = 0;\n        //add new modules\n        for (; i < toEnable.length; i++) {\n            BaseWallet(_wallet).authoriseModule(toEnable[i], true);\n        }\n        //remove old modules\n        for (i = 0; i < toDisable.length; i++) {\n            BaseWallet(_wallet).authoriseModule(toDisable[i], false);\n        }\n        // SimpleUpgrader did its job, we no longer need it as a module\n        BaseWallet(_wallet).authoriseModule(address(this), false);\n    }\n}",
  "sourcePath": "/Users/name/dev/argent-contracts-release-1.5.0/contracts/upgrade/SimpleUpgrader.sol",
  "compiler": {
    "name": "solc",
    "version": "0.5.4+commit.9549d8ff.Emscripten.clang",
    "optimizer": true,
    "runs": 999
  },
  "schemaVersion": "2.3.1",
  "updatedAt": "2020-04-01T15:58:47.383Z"
}