{
  "contractName": "SimplePriceOracle",
  "abi": [
    {
      "constant": true,
      "inputs": [],
      "name": "isPriceOracle",
      "outputs": [
        {
          "name": "",
          "type": "bool"
        }
      ],
      "payable": false,
      "stateMutability": "view",
      "type": "function"
    },
    {
      "constant": true,
      "inputs": [
        {
          "name": "cToken",
          "type": "address"
        }
      ],
      "name": "getUnderlyingPrice",
      "outputs": [
        {
          "name": "",
          "type": "uint256"
        }
      ],
      "payable": false,
      "stateMutability": "view",
      "type": "function"
    },
    {
      "constant": false,
      "inputs": [
        {
          "name": "cToken",
          "type": "address"
        },
        {
          "name": "underlyingPriceMantissa",
          "type": "uint256"
        }
      ],
      "name": "setUnderlyingPrice",
      "outputs": [],
      "payable": false,
      "stateMutability": "nonpayable",
      "type": "function"
    },
    {
      "constant": true,
      "inputs": [
        {
          "name": "asset",
          "type": "address"
        }
      ],
      "name": "assetPrices",
      "outputs": [
        {
          "name": "",
          "type": "uint256"
        }
      ],
      "payable": false,
      "stateMutability": "view",
      "type": "function"
    }
  ],
  "bytecode": "0x608060405234801561001057600080fd5b50610312806100206000396000f3fe608060405234801561001057600080fd5b5060043610610068577c01000000000000000000000000000000000000000000000000000000006000350463127ffda0811461006d5780635e9a523c146100a857806366331bba146100ed578063fc57d4df14610109575b600080fd5b6100a66004803603604081101561008357600080fd5b5073ffffffffffffffffffffffffffffffffffffffff813516906020013561013c565b005b6100db600480360360208110156100be57600080fd5b503573ffffffffffffffffffffffffffffffffffffffff166101f9565b60408051918252519081900360200190f35b6100f5610221565b604080519115158252519081900360200190f35b6100db6004803603602081101561011f57600080fd5b503573ffffffffffffffffffffffffffffffffffffffff16610226565b806000808473ffffffffffffffffffffffffffffffffffffffff16636f307dc36040518163ffffffff167c010000000000000000000000000000000000000000000000000000000002815260040160206040518083038186803b1580156101a257600080fd5b505afa1580156101b6573d6000803e3d6000fd5b505050506040513d60208110156101cc57600080fd5b505173ffffffffffffffffffffffffffffffffffffffff1681526020810191909152604001600020555050565b73ffffffffffffffffffffffffffffffffffffffff1660009081526020819052604090205490565b600181565b60008060008373ffffffffffffffffffffffffffffffffffffffff16636f307dc36040518163ffffffff167c010000000000000000000000000000000000000000000000000000000002815260040160206040518083038186803b15801561028d57600080fd5b505afa1580156102a1573d6000803e3d6000fd5b505050506040513d60208110156102b757600080fd5b505173ffffffffffffffffffffffffffffffffffffffff1681526020810191909152604001600020549291505056fea165627a7a723058202f8ceddb8ae91e01b9a2b5041df62ec784787e083bd562fb17f8ebb97fd352930029",
  "source": "pragma solidity ^0.5.4;\n\nimport \"./PriceOracle.sol\";\nimport \"./CErc20.sol\";\n\ncontract SimplePriceOracle is PriceOracle {\n    mapping(address => uint) prices;\n    bool public constant isPriceOracle = true;\n\n    function getUnderlyingPrice(CToken cToken) public view returns (uint) {\n        return prices[address(CErc20(address(cToken)).underlying())];\n    }\n\n    function setUnderlyingPrice(CToken cToken, uint underlyingPriceMantissa) public {\n        prices[address(CErc20(address(cToken)).underlying())] = underlyingPriceMantissa;\n    }\n\n    // v1 price oracle interface for use as backing of proxy\n    function assetPrices(address asset) external view returns (uint) {\n        return prices[asset];\n    }\n}\n",
  "sourcePath": "/Users/name/dev/smartcontracts/contracts/test/compound/SimplePriceOracle.sol",
  "compiler": {
    "name": "solc",
    "version": "0.5.4+commit.9549d8ff.Emscripten.clang",
    "optimizer": true,
    "runs": 999
  },
  "schemaVersion": "2.3.1",
  "updatedAt": "2020-04-01T21:49:53.036Z"
}