{
  "contractName": "TestERC20",
  "abi": [
    {
      "constant": true,
      "inputs": [],
      "name": "name",
      "outputs": [
        {
          "name": "",
          "type": "string"
        }
      ],
      "payable": false,
      "stateMutability": "view",
      "type": "function"
    },
    {
      "constant": false,
      "inputs": [
        {
          "name": "spender",
          "type": "address"
        },
        {
          "name": "value",
          "type": "uint256"
        }
      ],
      "name": "approve",
      "outputs": [
        {
          "name": "",
          "type": "bool"
        }
      ],
      "payable": false,
      "stateMutability": "nonpayable",
      "type": "function"
    },
    {
      "constant": true,
      "inputs": [],
      "name": "totalSupply",
      "outputs": [
        {
          "name": "",
          "type": "uint256"
        }
      ],
      "payable": false,
      "stateMutability": "view",
      "type": "function"
    },
    {
      "constant": false,
      "inputs": [
        {
          "name": "sender",
          "type": "address"
        },
        {
          "name": "recipient",
          "type": "address"
        },
        {
          "name": "amount",
          "type": "uint256"
        }
      ],
      "name": "transferFrom",
      "outputs": [
        {
          "name": "",
          "type": "bool"
        }
      ],
      "payable": false,
      "stateMutability": "nonpayable",
      "type": "function"
    },
    {
      "constant": true,
      "inputs": [],
      "name": "decimals",
      "outputs": [
        {
          "name": "",
          "type": "uint8"
        }
      ],
      "payable": false,
      "stateMutability": "view",
      "type": "function"
    },
    {
      "constant": false,
      "inputs": [
        {
          "name": "spender",
          "type": "address"
        },
        {
          "name": "addedValue",
          "type": "uint256"
        }
      ],
      "name": "increaseAllowance",
      "outputs": [
        {
          "name": "",
          "type": "bool"
        }
      ],
      "payable": false,
      "stateMutability": "nonpayable",
      "type": "function"
    },
    {
      "constant": true,
      "inputs": [
        {
          "name": "account",
          "type": "address"
        }
      ],
      "name": "balanceOf",
      "outputs": [
        {
          "name": "",
          "type": "uint256"
        }
      ],
      "payable": false,
      "stateMutability": "view",
      "type": "function"
    },
    {
      "constant": true,
      "inputs": [],
      "name": "symbol",
      "outputs": [
        {
          "name": "",
          "type": "string"
        }
      ],
      "payable": false,
      "stateMutability": "view",
      "type": "function"
    },
    {
      "constant": false,
      "inputs": [
        {
          "name": "spender",
          "type": "address"
        },
        {
          "name": "subtractedValue",
          "type": "uint256"
        }
      ],
      "name": "decreaseAllowance",
      "outputs": [
        {
          "name": "",
          "type": "bool"
        }
      ],
      "payable": false,
      "stateMutability": "nonpayable",
      "type": "function"
    },
    {
      "constant": false,
      "inputs": [
        {
          "name": "recipient",
          "type": "address"
        },
        {
          "name": "amount",
          "type": "uint256"
        }
      ],
      "name": "transfer",
      "outputs": [
        {
          "name": "",
          "type": "bool"
        }
      ],
      "payable": false,
      "stateMutability": "nonpayable",
      "type": "function"
    },
    {
      "constant": true,
      "inputs": [
        {
          "name": "owner",
          "type": "address"
        },
        {
          "name": "spender",
          "type": "address"
        }
      ],
      "name": "allowance",
      "outputs": [
        {
          "name": "",
          "type": "uint256"
        }
      ],
      "payable": false,
      "stateMutability": "view",
      "type": "function"
    },
    {
      "inputs": [
        {
          "name": "_initialAccounts",
          "type": "address[]"
        },
        {
          "name": "_supply",
          "type": "uint256"
        },
        {
          "name": "_decimals",
          "type": "uint8"
        }
      ],
      "payable": false,
      "stateMutability": "nonpayable",
      "type": "constructor"
    },
    {
      "anonymous": false,
      "inputs": [
        {
          "indexed": true,
          "name": "from",
          "type": "address"
        },
        {
          "indexed": true,
          "name": "to",
          "type": "address"
        },
        {
          "indexed": false,
          "name": "value",
          "type": "uint256"
        }
      ],
      "name": "Transfer",
      "type": "event"
    },
    {
      "anonymous": false,
      "inputs": [
        {
          "indexed": true,
          "name": "owner",
          "type": "address"
        },
        {
          "indexed": true,
          "name": "spender",
          "type": "address"
        },
        {
          "indexed": false,
          "name": "value",
          "type": "uint256"
        }
      ],
      "name": "Approval",
      "type": "event"
    },
    {
      "constant": false,
      "inputs": [
        {
          "name": "account",
          "type": "address"
        },
        {
          "name": "amount",
          "type": "uint256"
        }
      ],
      "name": "mint",
      "outputs": [],
      "payable": false,
      "stateMutability": "nonpayable",
      "type": "function"
    },
    {
      "constant": false,
      "inputs": [
        {
          "name": "account",
          "type": "address"
        },
        {
          "name": "amount",
          "type": "uint256"
        }
      ],
      "name": "burn",
      "outputs": [],
      "payable": false,
      "stateMutability": "nonpayable",
      "type": "function"
    },
    {
      "constant": false,
      "inputs": [
        {
          "name": "account",
          "type": "address"
        },
        {
          "name": "amount",
          "type": "uint256"
        }
      ],
      "name": "burnFrom",
      "outputs": [],
      "payable": false,
      "stateMutability": "nonpayable",
      "type": "function"
    }
  ],
  "bytecode": "0x608060405234801561001057600080fd5b5060405162001044380380620010448339810180604052606081101561003557600080fd5b81019080805164010000000081111561004d57600080fd5b8201602081018481111561006057600080fd5b815185602082028301116401000000008211171561007d57600080fd5b505060208201516040909201516003805460ff191660ff831617905590935090915060005b83518110156100eb576100e384828151811015156100bc57fe5b906020019060200201518360ff16600a0a85026100f4640100000000026401000000009004565b6001016100a2565b50505050610289565b600160a060020a038216151561016b57604080517f08c379a000000000000000000000000000000000000000000000000000000000815260206004820152601f60248201527f45524332303a206d696e7420746f20746865207a65726f206164647265737300604482015290519081900360640190fd5b60025461018590826401000000006109b461020e82021704565b600255600160a060020a0382166000908152602081905260409020546101b890826401000000006109b461020e82021704565b600160a060020a0383166000818152602081815260408083209490945583518581529351929391927fddf252ad1be2c89b69c2b068fc378daa952ba7f163c4a11628f55a4df523b3ef9281900390910190a35050565b60008282018381101561028257604080517f08c379a000000000000000000000000000000000000000000000000000000000815260206004820152601b60248201527f536166654d6174683a206164646974696f6e206f766572666c6f770000000000604482015290519081900360640190fd5b9392505050565b610dab80620002996000396000f3fe608060405234801561001057600080fd5b5060043610610107576000357c01000000000000000000000000000000000000000000000000000000009004806370a08231116100a95780639dc29fac116100835780639dc29fac14610339578063a457c2d714610372578063a9059cbb146103ab578063dd62ed3e146103e457610107565b806370a08231146102c557806379cc6790146102f857806395d89b411461033157610107565b806323b872dd116100e557806323b872dd146101f0578063313ce56714610233578063395093511461025157806340c10f191461028a57610107565b806306fdde031461010c578063095ea7b31461018957806318160ddd146101d6575b600080fd5b61011461041f565b6040805160208082528351818301528351919283929083019185019080838360005b8381101561014e578181015183820152602001610136565b50505050905090810190601f16801561017b5780820380516001836020036101000a031916815260200191505b509250505060405180910390f35b6101c26004803603604081101561019f57600080fd5b5073ffffffffffffffffffffffffffffffffffffffff8135169060200135610456565b604080519115158252519081900360200190f35b6101de61046c565b60408051918252519081900360200190f35b6101c26004803603606081101561020657600080fd5b5073ffffffffffffffffffffffffffffffffffffffff813581169160208101359091169060400135610472565b61023b6104d6565b6040805160ff9092168252519081900360200190f35b6101c26004803603604081101561026757600080fd5b5073ffffffffffffffffffffffffffffffffffffffff81351690602001356104df565b6102c3600480360360408110156102a057600080fd5b5073ffffffffffffffffffffffffffffffffffffffff8135169060200135610528565b005b6101de600480360360208110156102db57600080fd5b503573ffffffffffffffffffffffffffffffffffffffff16610536565b6102c36004803603604081101561030e57600080fd5b5073ffffffffffffffffffffffffffffffffffffffff813516906020013561055e565b610114610568565b6102c36004803603604081101561034f57600080fd5b5073ffffffffffffffffffffffffffffffffffffffff813516906020013561059f565b6101c26004803603604081101561038857600080fd5b5073ffffffffffffffffffffffffffffffffffffffff81351690602001356105a9565b6101c2600480360360408110156103c157600080fd5b5073ffffffffffffffffffffffffffffffffffffffff81351690602001356105f2565b6101de600480360360408110156103fa57600080fd5b5073ffffffffffffffffffffffffffffffffffffffff813581169160200135166105ff565b60408051808201909152600b81527f417267656e74546f6b656e000000000000000000000000000000000000000000602082015281565b6000610463338484610637565b50600192915050565b60025490565b600061047f848484610782565b73ffffffffffffffffffffffffffffffffffffffff84166000908152600160209081526040808320338085529252909120546104cc9186916104c7908663ffffffff61093d16565b610637565b5060019392505050565b60035460ff1681565b33600081815260016020908152604080832073ffffffffffffffffffffffffffffffffffffffff8716845290915281205490916104639185906104c7908663ffffffff6109b416565b6105328282610a2f565b5050565b73ffffffffffffffffffffffffffffffffffffffff1660009081526020819052604090205490565b6105328282610b62565b60408051808201909152600381527f4147540000000000000000000000000000000000000000000000000000000000602082015281565b6105328282610bb4565b33600081815260016020908152604080832073ffffffffffffffffffffffffffffffffffffffff8716845290915281205490916104639185906104c7908663ffffffff61093d16565b6000610463338484610782565b73ffffffffffffffffffffffffffffffffffffffff918216600090815260016020908152604080832093909416825291909152205490565b73ffffffffffffffffffffffffffffffffffffffff831615156106a5576040517f08c379a0000000000000000000000000000000000000000000000000000000008152600401808060200182810382526024815260200180610d5c6024913960400191505060405180910390fd5b73ffffffffffffffffffffffffffffffffffffffff82161515610713576040517f08c379a0000000000000000000000000000000000000000000000000000000008152600401808060200182810382526022815260200180610cf46022913960400191505060405180910390fd5b73ffffffffffffffffffffffffffffffffffffffff808416600081815260016020908152604080832094871680845294825291829020859055815185815291517f8c5be1e5ebec7d5bd14f71427d1e84f3dd0314c0f7b2291e5b200ac8c7c3b9259281900390910190a3505050565b73ffffffffffffffffffffffffffffffffffffffff831615156107f0576040517f08c379a0000000000000000000000000000000000000000000000000000000008152600401808060200182810382526025815260200180610d376025913960400191505060405180910390fd5b73ffffffffffffffffffffffffffffffffffffffff8216151561085e576040517f08c379a0000000000000000000000000000000000000000000000000000000008152600401808060200182810382526023815260200180610cd16023913960400191505060405180910390fd5b73ffffffffffffffffffffffffffffffffffffffff8316600090815260208190526040902054610894908263ffffffff61093d16565b73ffffffffffffffffffffffffffffffffffffffff80851660009081526020819052604080822093909355908416815220546108d6908263ffffffff6109b416565b73ffffffffffffffffffffffffffffffffffffffff8084166000818152602081815260409182902094909455805185815290519193928716927fddf252ad1be2c89b69c2b068fc378daa952ba7f163c4a11628f55a4df523b3ef92918290030190a3505050565b6000828211156109ae57604080517f08c379a000000000000000000000000000000000000000000000000000000000815260206004820152601e60248201527f536166654d6174683a207375627472616374696f6e206f766572666c6f770000604482015290519081900360640190fd5b50900390565b600082820183811015610a2857604080517f08c379a000000000000000000000000000000000000000000000000000000000815260206004820152601b60248201527f536166654d6174683a206164646974696f6e206f766572666c6f770000000000604482015290519081900360640190fd5b9392505050565b73ffffffffffffffffffffffffffffffffffffffff82161515610ab357604080517f08c379a000000000000000000000000000000000000000000000000000000000815260206004820152601f60248201527f45524332303a206d696e7420746f20746865207a65726f206164647265737300604482015290519081900360640190fd5b600254610ac6908263ffffffff6109b416565b60025573ffffffffffffffffffffffffffffffffffffffff8216600090815260208190526040902054610aff908263ffffffff6109b416565b73ffffffffffffffffffffffffffffffffffffffff83166000818152602081815260408083209490945583518581529351929391927fddf252ad1be2c89b69c2b068fc378daa952ba7f163c4a11628f55a4df523b3ef9281900390910190a35050565b610b6c8282610bb4565b73ffffffffffffffffffffffffffffffffffffffff82166000908152600160209081526040808320338085529252909120546105329184916104c7908563ffffffff61093d16565b73ffffffffffffffffffffffffffffffffffffffff82161515610c22576040517f08c379a0000000000000000000000000000000000000000000000000000000008152600401808060200182810382526021815260200180610d166021913960400191505060405180910390fd5b600254610c35908263ffffffff61093d16565b60025573ffffffffffffffffffffffffffffffffffffffff8216600090815260208190526040902054610c6e908263ffffffff61093d16565b73ffffffffffffffffffffffffffffffffffffffff8316600081815260208181526040808320949094558351858152935191937fddf252ad1be2c89b69c2b068fc378daa952ba7f163c4a11628f55a4df523b3ef929081900390910190a3505056fe45524332303a207472616e7366657220746f20746865207a65726f206164647265737345524332303a20617070726f766520746f20746865207a65726f206164647265737345524332303a206275726e2066726f6d20746865207a65726f206164647265737345524332303a207472616e736665722066726f6d20746865207a65726f206164647265737345524332303a20617070726f76652066726f6d20746865207a65726f2061646472657373a165627a7a723058201ab6c302e4dbfb5715a5a2e46dcfb781695660d47308c31051fee4a15bb3d8fe0029",
  "source": "pragma solidity ^0.5.4;\n\nimport \"openzeppelin-solidity/contracts/token/ERC20/ERC20.sol\";\n\n/**\n * ERC20 test contract.\n */\ncontract TestERC20 is ERC20 {\n\n    string constant public symbol = \"AGT\";\n    string constant public name = \"ArgentToken\";\n    uint8 public decimals;\n\n    constructor (address[] memory _initialAccounts, uint _supply, uint8 _decimals) public {\n        decimals = _decimals;\n        for(uint i = 0; i < _initialAccounts.length; i++) {\n            _mint(_initialAccounts[i], _supply * 10**uint(_decimals));\n        }\n    }\n\n    function mint(address account, uint256 amount) public {\n        _mint(account, amount);\n    }\n\n    function burn(address account, uint256 amount) public {\n        _burn(account, amount);\n    }\n\n    function burnFrom(address account, uint256 amount) public {\n        _burnFrom(account, amount);\n    }\n}\n",
  "sourcePath": "/Users/name/dev/argent-contracts-release-1.5.0/contracts/test/TestERC20.sol",
  "compiler": {
    "name": "solc",
    "version": "0.5.4+commit.9549d8ff.Emscripten.clang",
    "optimizer": true,
    "runs": 999
  },
  "schemaVersion": "2.3.1",
  "updatedAt": "2020-04-01T15:58:47.291Z"
}