{
  "contractName": "TestModule",
  "abi": [
    {
      "constant": true,
      "inputs": [
        {
          "name": "_wallet",
          "type": "address"
        }
      ],
      "name": "getNonce",
      "outputs": [
        {
          "name": "nonce",
          "type": "uint256"
        }
      ],
      "payable": false,
      "stateMutability": "view",
      "type": "function"
    },
    {
      "constant": false,
      "inputs": [
        {
          "name": "_wallet",
          "type": "address"
        },
        {
          "name": "_module",
          "type": "address"
        }
      ],
      "name": "addModule",
      "outputs": [],
      "payable": false,
      "stateMutability": "nonpayable",
      "type": "function"
    },
    {
      "constant": false,
      "inputs": [
        {
          "name": "_token",
          "type": "address"
        }
      ],
      "name": "recoverToken",
      "outputs": [],
      "payable": false,
      "stateMutability": "nonpayable",
      "type": "function"
    },
    {
      "constant": false,
      "inputs": [
        {
          "name": "_wallet",
          "type": "address"
        },
        {
          "name": "_data",
          "type": "bytes"
        },
        {
          "name": "_nonce",
          "type": "uint256"
        },
        {
          "name": "_signatures",
          "type": "bytes"
        },
        {
          "name": "_gasPrice",
          "type": "uint256"
        },
        {
          "name": "_gasLimit",
          "type": "uint256"
        }
      ],
      "name": "execute",
      "outputs": [
        {
          "name": "success",
          "type": "bool"
        }
      ],
      "payable": false,
      "stateMutability": "nonpayable",
      "type": "function"
    },
    {
      "constant": true,
      "inputs": [
        {
          "name": "",
          "type": "address"
        }
      ],
      "name": "relayer",
      "outputs": [
        {
          "name": "nonce",
          "type": "uint256"
        }
      ],
      "payable": false,
      "stateMutability": "view",
      "type": "function"
    },
    {
      "inputs": [
        {
          "name": "_registry",
          "type": "address"
        },
        {
          "name": "_boolVal",
          "type": "bool"
        },
        {
          "name": "_uintVal",
          "type": "uint256"
        }
      ],
      "payable": false,
      "stateMutability": "nonpayable",
      "type": "constructor"
    },
    {
      "anonymous": false,
      "inputs": [
        {
          "indexed": true,
          "name": "wallet",
          "type": "address"
        },
        {
          "indexed": true,
          "name": "success",
          "type": "bool"
        },
        {
          "indexed": false,
          "name": "signedHash",
          "type": "bytes32"
        }
      ],
      "name": "TransactionExecuted",
      "type": "event"
    },
    {
      "anonymous": false,
      "inputs": [
        {
          "indexed": false,
          "name": "name",
          "type": "bytes32"
        }
      ],
      "name": "ModuleCreated",
      "type": "event"
    },
    {
      "anonymous": false,
      "inputs": [
        {
          "indexed": false,
          "name": "wallet",
          "type": "address"
        }
      ],
      "name": "ModuleInitialised",
      "type": "event"
    },
    {
      "constant": false,
      "inputs": [
        {
          "name": "_wallet",
          "type": "address"
        }
      ],
      "name": "init",
      "outputs": [],
      "payable": false,
      "stateMutability": "nonpayable",
      "type": "function"
    },
    {
      "constant": true,
      "inputs": [],
      "name": "getBoolean",
      "outputs": [
        {
          "name": "",
          "type": "bool"
        }
      ],
      "payable": false,
      "stateMutability": "view",
      "type": "function"
    },
    {
      "constant": true,
      "inputs": [],
      "name": "getUint",
      "outputs": [
        {
          "name": "",
          "type": "uint256"
        }
      ],
      "payable": false,
      "stateMutability": "view",
      "type": "function"
    },
    {
      "constant": true,
      "inputs": [
        {
          "name": "_addr",
          "type": "address"
        }
      ],
      "name": "getAddress",
      "outputs": [
        {
          "name": "",
          "type": "address"
        }
      ],
      "payable": false,
      "stateMutability": "view",
      "type": "function"
    }
  ],
  "bytecode": "0x608060405234801561001057600080fd5b506040516060806115618339810180604052606081101561003057600080fd5b50805160208083015160409384015160008054600160a060020a038616600160a060020a031991821617825560018054909116905585517f546573744d6f64756c65000000000000000000000000000000000000000000008082529651959693959294879492937f3019c8fc80239e3dff8f781212ae2004839c2cb61d6c70acd279ac65392145df9281900390910190a150506003805460ff191693151593909317909255600455506114779050806100ea6000396000f3fe608060405234801561001057600080fd5b50600436106100bf576000357c0100000000000000000000000000000000000000000000000000000000900480635a1db8c411610093578063aacaaf8811610078578063aacaaf881461019c578063ae22c57d14610278578063c9b5ef8e146102ba576100bf565b80635a1db8c4146101485780639be65a6014610176576100bf565b80620267a4146100c457806319ab453c146100de5780632d0335ab146101065780632d1be94d1461012c575b600080fd5b6100cc6102e0565b60408051918252519081900360200190f35b610104600480360360208110156100f457600080fd5b5035600160a060020a03166102e6565b005b6100cc6004803603602081101561011c57600080fd5b5035600160a060020a03166105c9565b6101346105e4565b604080519115158252519081900360200190f35b6101046004803603604081101561015e57600080fd5b50600160a060020a03813581169160200135166105ed565b6101046004803603602081101561018c57600080fd5b5035600160a060020a03166107d6565b610134600480360360c08110156101b257600080fd5b600160a060020a0382351691908101906040810160208201356401000000008111156101dd57600080fd5b8201836020820111156101ef57600080fd5b8035906020019184600183028401116401000000008311171561021157600080fd5b9193909282359260408101906020013564010000000081111561023357600080fd5b82018360208201111561024557600080fd5b8035906020019184600183028401116401000000008311171561026757600080fd5b919350915080359060200135610909565b61029e6004803603602081101561028e57600080fd5b5035600160a060020a0316610c15565b60408051600160a060020a039092168252519081900360200190f35b6100cc600480360360208110156102d057600080fd5b5035600160a060020a0316610c18565b60045490565b8033600160a060020a0382161461035e57604080517f08c379a000000000000000000000000000000000000000000000000000000000815260206004820152601960248201527f424d3a2063616c6c6572206d7573742062652077616c6c657400000000000000604482015290519081900360640190fd5b604080517f676574426f6f6c65616e282900000000000000000000000000000000000000008152815190819003600c0181207f13da30b20000000000000000000000000000000000000000000000000000000082523060048301527fffffffff000000000000000000000000000000000000000000000000000000001660248201529051600160a060020a038416916313da30b291604480830192600092919082900301818387803b15801561041357600080fd5b505af1158015610427573d6000803e3d6000fd5b5050604080517f67657455696e7428290000000000000000000000000000000000000000000000815281519081900360090181207f13da30b20000000000000000000000000000000000000000000000000000000082523060048301527fffffffff000000000000000000000000000000000000000000000000000000001660248201529051600160a060020a03861693506313da30b29250604480830192600092919082900301818387803b1580156104e057600080fd5b505af11580156104f4573d6000803e3d6000fd5b5050604080517f6765744164647265737328616464726573732900000000000000000000000000815281519081900360130181207f13da30b20000000000000000000000000000000000000000000000000000000082523060048301527fffffffff000000000000000000000000000000000000000000000000000000001660248201529051600160a060020a03861693506313da30b29250604480830192600092919082900301818387803b1580156105ad57600080fd5b505af11580156105c1573d6000803e3d6000fd5b505050505050565b600160a060020a031660009081526002602052604090205490565b60035460ff1690565b816105f88133610c2a565b151561064f576040517f08c379a000000000000000000000000000000000000000000000000000000000815260040180806020018281038252602e81526020018061141e602e913960400191505060405180910390fd5b600054604080517f0bcd4ebb000000000000000000000000000000000000000000000000000000008152600160a060020a03858116600483015291519190921691630bcd4ebb916024808301926020929190829003018186803b1580156106b557600080fd5b505afa1580156106c9573d6000803e3d6000fd5b505050506040513d60208110156106df57600080fd5b5051151561074e57604080517f08c379a000000000000000000000000000000000000000000000000000000000815260206004820152601c60248201527f424d3a206d6f64756c65206973206e6f74207265676973746572656400000000604482015290519081900360640190fd5b604080517f1f17732d000000000000000000000000000000000000000000000000000000008152600160a060020a03848116600483015260016024830152915191851691631f17732d9160448082019260009290919082900301818387803b1580156107b957600080fd5b505af11580156107cd573d6000803e3d6000fd5b50505050505050565b604080517f70a082310000000000000000000000000000000000000000000000000000000081523060048201529051600091600160a060020a038416916370a0823191602480820192602092909190829003018186803b15801561083957600080fd5b505afa15801561084d573d6000803e3d6000fd5b505050506040513d602081101561086357600080fd5b505160008054604080517fa9059cbb000000000000000000000000000000000000000000000000000000008152600160a060020a0392831660048201526024810185905290519394509085169263a9059cbb92604480840193602093929083900390910190829087803b1580156108d957600080fd5b505af11580156108ed573d6000803e3d6000fd5b505050506040513d602081101561090357600080fd5b50505050565b6000805a90506000610959308c60008d8d8080601f0160208091040260200160405190810160405280939291908181526020018383808284376000920191909152508f92508c91508b9050610cca565b90506109668b8983610e0d565b15156109d357604080517f08c379a000000000000000000000000000000000000000000000000000000000815260206004820152601560248201527f524d3a204475706c696361746520726571756573740000000000000000000000604482015290519081900360640190fd5b610a138b8b8b8080601f016020809104026020016040519081016040528093929190818152602001838380828437600092019190915250610e2192505050565b1515610a6a576040517f08c379a000000000000000000000000000000000000000000000000000000000815260040180806020018281038252604a8152602001806113d4604a913960600191505060405180910390fd5b6000610aac8c8c8c8080601f016020809104026020016040519081016040528093929190818152602001838380828437600092019190915250610eac92505050565b905060418102871415610bc457610ac58c868884610eb4565b15610bc457801580610b485750610b488c8c8c8080601f01602080910402602001604051908101604052809392919081815260200183838082843760009201919091525050604080516020601f8f018190048102820181019092528d815288935091508d908d9081908401838280828437600092019190915250610f8692505050565b15610bc45730600160a060020a03168b8b604051808383808284376040519201945060009350909150508083038183865af19150503d8060008114610ba9576040519150601f19603f3d011682016040523d82523d6000602084013e610bae565b606091505b505080945050610bc48c5a850388888533610fab565b60408051838152905185151591600160a060020a038f16917f6bb0b384ce772133df63560651bc8c727c53306cec1d51e2cbf8ea35fb8f2ec19181900360200190a350505098975050505050505050565b90565b60026020526000908152604090205481565b600081600160a060020a031683600160a060020a0316638da5cb5b6040518163ffffffff167c010000000000000000000000000000000000000000000000000000000002815260040160206040518083038186803b158015610c8b57600080fd5b505afa158015610c9f573d6000803e3d6000fd5b505050506040513d6020811015610cb557600080fd5b5051600160a060020a03161490505b92915050565b6040517f190000000000000000000000000000000000000000000000000000000000000060208083018281526000602185018190526c01000000000000000000000000600160a060020a03808e16820260228801528c16026036860152604a85018a90528851909485938d938d938d938d938d938d938d939192606a909201918701908083835b60208310610d705780518252601f199092019160209182019101610d51565b51815160209384036101000a600019018019909216911617905292019586525084810193909352506040808401919091528051808403820181526060840182528051908301207f19457468657265756d205369676e6564204d6573736167653a0a3332000000006080850152609c808501919091528151808503909101815260bc909301905281519101209e9d5050505050505050505050505050565b6000610e198484611009565b949350505050565b60006024825110151515610e9657604080517f08c379a000000000000000000000000000000000000000000000000000000000815260206004820152601660248201527f524d3a20496e76616c6964206461746157616c6c657400000000000000000000604482015290519081900360640190fd5b5060240151600160a060020a0391821691161490565b600192915050565b60008083118015610ec55750600182115b8015610f6e575082840285600160a060020a0316311080610f6e5750604080517fd6eb1bbf0000000000000000000000000000000000000000000000000000000081523060048201529051600160a060020a0387169163d6eb1bbf916024808301926020929190829003018186803b158015610f4057600080fd5b505afa158015610f54573d6000803e3d6000fd5b505050506040513d6020811015610f6a57600080fd5b5051155b15610f7b57506000610e19565b506001949350505050565b600080610f958484600061108f565b9050610fa18682610c2a565b9695505050505050565b61726c8501600085118015610fc05750600183115b8015610fcc5750838111155b156107cd573a851115610fe0573a02610fe3565b84025b610fff8783836020604051908101604052806000815250611139565b5050505050505050565b600160a060020a038216600090815260026020526040812054821161103057506000610cc4565b7001000000000000000000000000000000006fffffffffffffffffffffffffffffffff19831604436127100181111561106d576000915050610cc4565b5050600160a060020a0391909116600090815260026020526040902055600190565b6041808202830160208101516040820151919092015160009260ff9190911691601b8314806110c157508260ff16601c145b15156110cc57600080fd5b604080516000815260208082018084528a905260ff8616828401526060820185905260808201849052915160019260a0808401939192601f1981019281900390910190855afa158015611123573d6000803e3d6000fd5b5050604051601f19015198975050505050505050565b6060600085600160a060020a03168585856040516024018084600160a060020a0316600160a060020a0316815260200183815260200180602001828103825283818151815260200191508051906020019080838360005b838110156111a8578181015183820152602001611190565b50505050905090810190601f1680156111d55780820380516001836020036101000a031916815260200191505b5060408051601f198184030181529181526020820180517bffffffffffffffffffffffffffffffffffffffffffffffffffffffff167f8f6f033200000000000000000000000000000000000000000000000000000000178152905182519297509550859450925090508083835b602083106112615780518252601f199092019160209182019101611242565b6001836020036101000a0380198251168184511680821785525050505050509050019150506000604051808303816000865af19150503d80600081146112c3576040519150601f19603f3d011682016040523d82523d6000602084013e6112c8565b606091505b50925090508080156112db575060008251115b15611348578180602001905160208110156112f557600080fd5b81019080805164010000000081111561130d57600080fd5b8201602081018481111561132057600080fd5b815164010000000081118282018710171561133a57600080fd5b509095506113ca9350505050565b60008251111561135c573d6000803e3d6000fd5b8015156113ca57604080517f08c379a000000000000000000000000000000000000000000000000000000000815260206004820152601a60248201527f424d3a2077616c6c657420696e766f6b65207265766572746564000000000000604482015290519081900360640190fd5b5094935050505056fe524d3a207468652077616c6c657420617574686f72697a656420697320646966666572656e74207468656e2074686520746172676574206f66207468652072656c617965642064617461424d3a206d73672e73656e646572206d75737420626520616e206f776e657220666f72207468652077616c6c6574a165627a7a72305820bbd6c24557d9af6c7ed36d8788b4395879930ff931b203206984772d9f66a1b00029",
  "source": "pragma solidity ^0.5.4;\nimport \"../../../wallet/BaseWallet.sol\";\nimport \"../../../modules/common/BaseModule.sol\";\nimport \"../../../modules/common/RelayerModule.sol\";\n\n/**\n * @title TestModule\n * @dev Basic test module.\n * @author Julien Niset - <julien@argent.im>\n */\ncontract TestModule is BaseModule, RelayerModule {\n\n    bytes32 constant NAME = \"TestModule\";\n\n    bool boolVal;\n    uint uintVal;\n\n    constructor(ModuleRegistry _registry, bool _boolVal, uint _uintVal) BaseModule(_registry, GuardianStorage(0), NAME) public {\n        boolVal = _boolVal;\n        uintVal = _uintVal;\n    }\n\n    function init(BaseWallet _wallet) public onlyWallet(_wallet) {\n        _wallet.enableStaticCall(address(this), bytes4(keccak256(\"getBoolean()\")));\n        _wallet.enableStaticCall(address(this), bytes4(keccak256(\"getUint()\")));\n        _wallet.enableStaticCall(address(this), bytes4(keccak256(\"getAddress(address)\")));\n    }\n\n    function getBoolean() public view returns (bool) {\n        return boolVal;\n    }\n\n    function getUint() public view returns (uint) {\n        return uintVal;\n    }\n\n    function getAddress(address _addr) public view returns (address) {\n        return _addr;\n    }\n\n    // *************** Implementation of RelayerModule methods ********************* //\n\n    // Overrides to use the incremental nonce and save some gas\n    function checkAndUpdateUniqueness(BaseWallet _wallet, uint256 _nonce, bytes32 /* _signHash */) internal returns (bool) {\n        return checkAndUpdateNonce(_wallet, _nonce);\n    }\n\n    function validateSignatures(\n        BaseWallet _wallet,\n        bytes memory /* _data */,\n        bytes32 _signHash,\n        bytes memory _signatures\n    )\n        internal\n        view\n        returns (bool)\n    {\n        address signer = recoverSigner(_signHash, _signatures, 0);\n        return isOwner(_wallet, signer); // \"GM: signer must be owner\"\n    }\n\n    function getRequiredSignatures(BaseWallet /* _wallet */, bytes memory /*_data */) internal view returns (uint256) {\n        return 1;\n    }\n\n}",
  "sourcePath": "/Users/name/dev/argent-contracts-release-1.5.0/contracts/test/argent/utils/TestModule.sol",
  "compiler": {
    "name": "solc",
    "version": "0.5.4+commit.9549d8ff.Emscripten.clang",
    "optimizer": true,
    "runs": 999
  },
  "schemaVersion": "2.3.1",
  "updatedAt": "2020-04-01T15:58:47.333Z"
}