{
  "contractName": "TestDapp",
  "abi": [
    {
      "constant": false,
      "inputs": [],
      "name": "noReturn",
      "outputs": [],
      "payable": false,
      "stateMutability": "nonpayable",
      "type": "function"
    },
    {
      "constant": true,
      "inputs": [
        {
          "name": "_i",
          "type": "uint256"
        }
      ],
      "name": "uintReturn",
      "outputs": [
        {
          "name": "",
          "type": "uint256"
        }
      ],
      "payable": false,
      "stateMutability": "pure",
      "type": "function"
    },
    {
      "constant": true,
      "inputs": [
        {
          "name": "reason",
          "type": "string"
        }
      ],
      "name": "doFail",
      "outputs": [],
      "payable": false,
      "stateMutability": "pure",
      "type": "function"
    }
  ],
  "bytecode": "0x608060405234801561001057600080fd5b506101a2806100206000396000f3fe608060405234801561001057600080fd5b506004361061005d577c010000000000000000000000000000000000000000000000000000000060003504633179425481146100625780633ed632171461006c5780635b72e8c3146100dc575b600080fd5b61006a61010b565b005b61006a6004803603602081101561008257600080fd5b81019060208101813564010000000081111561009d57600080fd5b8201836020820111156100af57600080fd5b803590602001918460018302840111640100000000831117156100d157600080fd5b50909250905061010d565b6100f9600480360360208110156100f257600080fd5b5035610173565b60408051918252519081900360200190f35b565b81816040517f08c379a000000000000000000000000000000000000000000000000000000000815260040180806020018281038252848482818152602001925080828437600083820152604051601f909101601f19169092018290039550909350505050fd5b9056fea165627a7a7230582081409e1f21299d3dd9db6bdabaa191ecd9a6f1a1988e580fb1eec2254337fd3e0029",
  "source": "pragma solidity ^0.5.4;\n\ncontract TestDapp {\n    function noReturn() external {}\n    function uintReturn(uint256 _i) external pure returns (uint256) { return _i; }\n    function doFail(string calldata reason) external pure { revert(reason); }\n}",
  "sourcePath": "/Users/name/dev/argent-contracts-release-1.5.0/contracts/test/argent/utils/TestDapp.sol",
  "compiler": {
    "name": "solc",
    "version": "0.5.4+commit.9549d8ff.Emscripten.clang",
    "optimizer": true,
    "runs": 999
  },
  "schemaVersion": "2.3.1",
  "updatedAt": "2020-04-01T15:58:47.317Z"
}