{
  "contractName": "TestContract",
  "abi": [
    {
      "constant": true,
      "inputs": [],
      "name": "state",
      "outputs": [
        {
          "name": "",
          "type": "uint256"
        }
      ],
      "payable": false,
      "stateMutability": "view",
      "type": "function"
    },
    {
      "anonymous": false,
      "inputs": [
        {
          "indexed": true,
          "name": "_state",
          "type": "uint256"
        },
        {
          "indexed": true,
          "name": "_value",
          "type": "uint256"
        }
      ],
      "name": "StateSet",
      "type": "event"
    },
    {
      "constant": false,
      "inputs": [
        {
          "name": "_state",
          "type": "uint256"
        }
      ],
      "name": "setState",
      "outputs": [],
      "payable": true,
      "stateMutability": "payable",
      "type": "function"
    },
    {
      "constant": false,
      "inputs": [
        {
          "name": "_state",
          "type": "uint256"
        },
        {
          "name": "_erc20",
          "type": "address"
        },
        {
          "name": "_amount",
          "type": "uint256"
        }
      ],
      "name": "setStateAndPayToken",
      "outputs": [],
      "payable": false,
      "stateMutability": "nonpayable",
      "type": "function"
    }
  ],
  "bytecode": "0x608060405234801561001057600080fd5b50610228806100206000396000f3fe608060405260043610610050577c0100000000000000000000000000000000000000000000000000000000600035046316f3e9018114610055578063a9e966b7146100a3578063c19d93fb146100c0575b600080fd5b34801561006157600080fd5b506100a16004803603606081101561007857600080fd5b5080359073ffffffffffffffffffffffffffffffffffffffff60208201351690604001356100e7565b005b6100a1600480360360208110156100b957600080fd5b50356101c3565b3480156100cc57600080fd5b506100d56101f6565b60408051918252519081900360200190f35b604080517f23b872dd00000000000000000000000000000000000000000000000000000000815233600482015230602482015260448101839052905173ffffffffffffffffffffffffffffffffffffffff8416916323b872dd9160648083019260209291908290030181600087803b15801561016257600080fd5b505af1158015610176573d6000803e3d6000fd5b505050506040513d602081101561018c57600080fd5b50506000838155604051829185917f110bf4f070eb65f04035094f96fd5ac2398196dffe9a63f8e5497584b265954d9190a3505050565b6000818155604051349183917f110bf4f070eb65f04035094f96fd5ac2398196dffe9a63f8e5497584b265954d9190a350565b6000548156fea165627a7a72305820a4c87772ae04c8e3f6cb3b16ead2d85c9600eb0a24a22fbaea76936e7a9d7d9b0029",
  "source": "pragma solidity ^0.5.4;\n\nimport \"openzeppelin-solidity/contracts/token/ERC20/ERC20.sol\";\n\n/**\n * @title TestContract\n * @dev Represents an arbitrary contract. \n * @author Olivier Vdb - <olivier@argent.im>\n */\ncontract TestContract {\n\n   \tuint256 public state;\n\n    event StateSet(uint256 indexed _state, uint256 indexed _value);\n\n    function setState(uint256 _state) public payable {\n        state = _state;\n        emit StateSet(_state, msg.value);\n    }\n\n    function setStateAndPayToken(uint256 _state, address _erc20, uint256 _amount) public {\n        ERC20(_erc20).transferFrom(msg.sender, address(this), _amount);\n        state = _state;\n        emit StateSet(_state, _amount);\n    }\n}",
  "sourcePath": "/Users/name/dev/argent-contracts-release-1.5.0/contracts/test/TestContract.sol",
  "compiler": {
    "name": "solc",
    "version": "0.5.4+commit.9549d8ff.Emscripten.clang",
    "optimizer": true,
    "runs": 999
  },
  "schemaVersion": "2.3.1",
  "updatedAt": "2020-04-01T15:58:47.290Z"
}