{
  "contractName": "TestERC721",
  "abi": [
    {
      "constant": true,
      "inputs": [
        {
          "name": "interfaceId",
          "type": "bytes4"
        }
      ],
      "name": "supportsInterface",
      "outputs": [
        {
          "name": "",
          "type": "bool"
        }
      ],
      "payable": false,
      "stateMutability": "view",
      "type": "function"
    },
    {
      "constant": true,
      "inputs": [],
      "name": "name",
      "outputs": [
        {
          "name": "",
          "type": "string"
        }
      ],
      "payable": false,
      "stateMutability": "view",
      "type": "function"
    },
    {
      "constant": true,
      "inputs": [
        {
          "name": "tokenId",
          "type": "uint256"
        }
      ],
      "name": "getApproved",
      "outputs": [
        {
          "name": "",
          "type": "address"
        }
      ],
      "payable": false,
      "stateMutability": "view",
      "type": "function"
    },
    {
      "constant": false,
      "inputs": [
        {
          "name": "to",
          "type": "address"
        },
        {
          "name": "tokenId",
          "type": "uint256"
        }
      ],
      "name": "approve",
      "outputs": [],
      "payable": false,
      "stateMutability": "nonpayable",
      "type": "function"
    },
    {
      "constant": true,
      "inputs": [],
      "name": "totalSupply",
      "outputs": [
        {
          "name": "",
          "type": "uint256"
        }
      ],
      "payable": false,
      "stateMutability": "view",
      "type": "function"
    },
    {
      "constant": false,
      "inputs": [
        {
          "name": "from",
          "type": "address"
        },
        {
          "name": "to",
          "type": "address"
        },
        {
          "name": "tokenId",
          "type": "uint256"
        }
      ],
      "name": "transferFrom",
      "outputs": [],
      "payable": false,
      "stateMutability": "nonpayable",
      "type": "function"
    },
    {
      "constant": true,
      "inputs": [
        {
          "name": "owner",
          "type": "address"
        },
        {
          "name": "index",
          "type": "uint256"
        }
      ],
      "name": "tokenOfOwnerByIndex",
      "outputs": [
        {
          "name": "",
          "type": "uint256"
        }
      ],
      "payable": false,
      "stateMutability": "view",
      "type": "function"
    },
    {
      "constant": false,
      "inputs": [
        {
          "name": "to",
          "type": "address"
        },
        {
          "name": "tokenId",
          "type": "uint256"
        }
      ],
      "name": "mint",
      "outputs": [
        {
          "name": "",
          "type": "bool"
        }
      ],
      "payable": false,
      "stateMutability": "nonpayable",
      "type": "function"
    },
    {
      "constant": false,
      "inputs": [
        {
          "name": "from",
          "type": "address"
        },
        {
          "name": "to",
          "type": "address"
        },
        {
          "name": "tokenId",
          "type": "uint256"
        }
      ],
      "name": "safeTransferFrom",
      "outputs": [],
      "payable": false,
      "stateMutability": "nonpayable",
      "type": "function"
    },
    {
      "constant": true,
      "inputs": [
        {
          "name": "index",
          "type": "uint256"
        }
      ],
      "name": "tokenByIndex",
      "outputs": [
        {
          "name": "",
          "type": "uint256"
        }
      ],
      "payable": false,
      "stateMutability": "view",
      "type": "function"
    },
    {
      "constant": true,
      "inputs": [
        {
          "name": "tokenId",
          "type": "uint256"
        }
      ],
      "name": "ownerOf",
      "outputs": [
        {
          "name": "",
          "type": "address"
        }
      ],
      "payable": false,
      "stateMutability": "view",
      "type": "function"
    },
    {
      "constant": true,
      "inputs": [
        {
          "name": "owner",
          "type": "address"
        }
      ],
      "name": "balanceOf",
      "outputs": [
        {
          "name": "",
          "type": "uint256"
        }
      ],
      "payable": false,
      "stateMutability": "view",
      "type": "function"
    },
    {
      "constant": true,
      "inputs": [],
      "name": "symbol",
      "outputs": [
        {
          "name": "",
          "type": "string"
        }
      ],
      "payable": false,
      "stateMutability": "view",
      "type": "function"
    },
    {
      "constant": false,
      "inputs": [
        {
          "name": "account",
          "type": "address"
        }
      ],
      "name": "addMinter",
      "outputs": [],
      "payable": false,
      "stateMutability": "nonpayable",
      "type": "function"
    },
    {
      "constant": false,
      "inputs": [],
      "name": "renounceMinter",
      "outputs": [],
      "payable": false,
      "stateMutability": "nonpayable",
      "type": "function"
    },
    {
      "constant": false,
      "inputs": [
        {
          "name": "to",
          "type": "address"
        },
        {
          "name": "approved",
          "type": "bool"
        }
      ],
      "name": "setApprovalForAll",
      "outputs": [],
      "payable": false,
      "stateMutability": "nonpayable",
      "type": "function"
    },
    {
      "constant": true,
      "inputs": [
        {
          "name": "account",
          "type": "address"
        }
      ],
      "name": "isMinter",
      "outputs": [
        {
          "name": "",
          "type": "bool"
        }
      ],
      "payable": false,
      "stateMutability": "view",
      "type": "function"
    },
    {
      "constant": false,
      "inputs": [
        {
          "name": "from",
          "type": "address"
        },
        {
          "name": "to",
          "type": "address"
        },
        {
          "name": "tokenId",
          "type": "uint256"
        },
        {
          "name": "_data",
          "type": "bytes"
        }
      ],
      "name": "safeTransferFrom",
      "outputs": [],
      "payable": false,
      "stateMutability": "nonpayable",
      "type": "function"
    },
    {
      "constant": true,
      "inputs": [
        {
          "name": "tokenId",
          "type": "uint256"
        }
      ],
      "name": "tokenURI",
      "outputs": [
        {
          "name": "",
          "type": "string"
        }
      ],
      "payable": false,
      "stateMutability": "view",
      "type": "function"
    },
    {
      "constant": true,
      "inputs": [
        {
          "name": "owner",
          "type": "address"
        },
        {
          "name": "operator",
          "type": "address"
        }
      ],
      "name": "isApprovedForAll",
      "outputs": [
        {
          "name": "",
          "type": "bool"
        }
      ],
      "payable": false,
      "stateMutability": "view",
      "type": "function"
    },
    {
      "inputs": [],
      "payable": false,
      "stateMutability": "nonpayable",
      "type": "constructor"
    },
    {
      "anonymous": false,
      "inputs": [
        {
          "indexed": true,
          "name": "account",
          "type": "address"
        }
      ],
      "name": "MinterAdded",
      "type": "event"
    },
    {
      "anonymous": false,
      "inputs": [
        {
          "indexed": true,
          "name": "account",
          "type": "address"
        }
      ],
      "name": "MinterRemoved",
      "type": "event"
    },
    {
      "anonymous": false,
      "inputs": [
        {
          "indexed": true,
          "name": "from",
          "type": "address"
        },
        {
          "indexed": true,
          "name": "to",
          "type": "address"
        },
        {
          "indexed": true,
          "name": "tokenId",
          "type": "uint256"
        }
      ],
      "name": "Transfer",
      "type": "event"
    },
    {
      "anonymous": false,
      "inputs": [
        {
          "indexed": true,
          "name": "owner",
          "type": "address"
        },
        {
          "indexed": true,
          "name": "approved",
          "type": "address"
        },
        {
          "indexed": true,
          "name": "tokenId",
          "type": "uint256"
        }
      ],
      "name": "Approval",
      "type": "event"
    },
    {
      "anonymous": false,
      "inputs": [
        {
          "indexed": true,
          "name": "owner",
          "type": "address"
        },
        {
          "indexed": true,
          "name": "operator",
          "type": "address"
        },
        {
          "indexed": false,
          "name": "approved",
          "type": "bool"
        }
      ],
      "name": "ApprovalForAll",
      "type": "event"
    }
  ],
  "bytecode": "0x60806040523480156200001157600080fd5b50604080518082018252600e81527f417267656e74204b6974746965730000000000000000000000000000000000006020808301919091528251808401909352600483527f41474b540000000000000000000000000000000000000000000000000000000090830152908181620000b17f01ffc9a7000000000000000000000000000000000000000000000000000000006401000000006200019d810204565b620000e57f80ac58cd000000000000000000000000000000000000000000000000000000006401000000006200019d810204565b620001197f780e9d63000000000000000000000000000000000000000000000000000000006401000000006200019d810204565b81516200012e906009906020850190620003ea565b5080516200014490600a906020840190620003ea565b50620001797f5b5e139f000000000000000000000000000000000000000000000000000000006401000000006200019d810204565b5050505062000197336200026c640100000000026401000000009004565b6200048f565b7fffffffff0000000000000000000000000000000000000000000000000000000080821614156200022f57604080517f08c379a000000000000000000000000000000000000000000000000000000000815260206004820152601c60248201527f4552433136353a20696e76616c696420696e7465726661636520696400000000604482015290519081900360640190fd5b7fffffffff00000000000000000000000000000000000000000000000000000000166000908152602081905260409020805460ff19166001179055565b62000287600c8264010000000062001599620002be82021704565b604051600160a060020a038216907f6ae172837ea30b801fbfcdd4108aa1d5bf8ff775444fd70256b44e6bf3dfc3f690600090a250565b620002d3828264010000000062000365810204565b156200034057604080517f08c379a000000000000000000000000000000000000000000000000000000000815260206004820152601f60248201527f526f6c65733a206163636f756e7420616c72656164792068617320726f6c6500604482015290519081900360640190fd5b600160a060020a0316600090815260209190915260409020805460ff19166001179055565b6000600160a060020a0382161515620003ca576040517f08c379a000000000000000000000000000000000000000000000000000000000815260040180806020018281038252602281526020018062001f3d6022913960400191505060405180910390fd5b50600160a060020a03166000908152602091909152604090205460ff1690565b828054600181600116156101000203166002900490600052602060002090601f016020900481019282601f106200042d57805160ff19168380011785556200045d565b828001600101855582156200045d579182015b828111156200045d57825182559160200191906001019062000440565b506200046b9291506200046f565b5090565b6200048c91905b808211156200046b576000815560010162000476565b90565b611a9e806200049f6000396000f3fe608060405234801561001057600080fd5b5060043610610189576000357c0100000000000000000000000000000000000000000000000000000000900480636352211e116100ea578063a22cb4651161009e578063b88d4fde11610083578063b88d4fde1461048d578063c87b56dd14610553578063e985e9c51461057057610189565b8063a22cb46514610439578063aa271e1a1461046757610189565b806395d89b41116100cf57806395d89b4114610403578063983b2d561461040b578063986502751461043157610189565b80636352211e146103c057806370a08231146103dd57610189565b806323b872dd1161014157806340c10f191161012657806340c10f191461034157806342842e0e1461036d5780634f6ccce7146103a357610189565b806323b872dd146102df5780632f745c591461031557610189565b8063081812fc11610172578063081812fc1461025e578063095ea7b31461029757806318160ddd146102c557610189565b806301ffc9a71461018e57806306fdde03146101e1575b600080fd5b6101cd600480360360208110156101a457600080fd5b50357fffffffff000000000000000000000000000000000000000000000000000000001661059e565b604080519115158252519081900360200190f35b6101e96105d5565b6040805160208082528351818301528351919283929083019185019080838360005b8381101561022357818101518382015260200161020b565b50505050905090810190601f1680156102505780820380516001836020036101000a031916815260200191505b509250505060405180910390f35b61027b6004803603602081101561027457600080fd5b503561066c565b60408051600160a060020a039092168252519081900360200190f35b6102c3600480360360408110156102ad57600080fd5b50600160a060020a0381351690602001356106d8565b005b6102cd610802565b60408051918252519081900360200190f35b6102c3600480360360608110156102f557600080fd5b50600160a060020a03813581169160208101359091169060400135610808565b6102cd6004803603604081101561032b57600080fd5b50600160a060020a038135169060200135610867565b6101cd6004803603604081101561035757600080fd5b50600160a060020a0381351690602001356108ee565b6102c36004803603606081101561038357600080fd5b50600160a060020a03813581169160208101359091169060400135610951565b6102cd600480360360208110156103b957600080fd5b503561096d565b61027b600480360360208110156103d657600080fd5b50356109dc565b6102cd600480360360208110156103f357600080fd5b5035600160a060020a0316610a40565b6101e9610ab2565b6102c36004803603602081101561042157600080fd5b5035600160a060020a0316610b13565b6102c3610b6d565b6102c36004803603604081101561044f57600080fd5b50600160a060020a0381351690602001351515610b78565b6101cd6004803603602081101561047d57600080fd5b5035600160a060020a0316610c4c565b6102c3600480360360808110156104a357600080fd5b600160a060020a038235811692602081013590911691604082013591908101906080810160608201356401000000008111156104de57600080fd5b8201836020820111156104f057600080fd5b8035906020019184600183028401116401000000008311171561051257600080fd5b91908080601f016020809104026020016040519081016040528093929190818152602001838380828437600092019190915250929550610c5f945050505050565b6101e96004803603602081101561056957600080fd5b5035610cc1565b6101cd6004803603604081101561058657600080fd5b50600160a060020a0381358116916020013516610db0565b7fffffffff000000000000000000000000000000000000000000000000000000001660009081526020819052604090205460ff1690565b60098054604080516020601f60026000196101006001881615020190951694909404938401819004810282018101909252828152606093909290918301828280156106615780601f1061063657610100808354040283529160200191610661565b820191906000526020600020905b81548152906001019060200180831161064457829003601f168201915b505050505090505b90565b600061067782610dde565b15156106bc5760405160008051602061192f833981519152815260040180806020018281038252602c81526020018061194f602c913960400191505060405180910390fd5b50600090815260026020526040902054600160a060020a031690565b60006106e3826109dc565b9050600160a060020a0383811690821614156107385760405160008051602061192f83398151915281526004018080602001828103825260218152602001806119f56021913960400191505060405180910390fd5b33600160a060020a038216148061075457506107548133610db0565b15156107995760405160008051602061192f83398151915281526004018080602001828103825260388152602001806118536038913960400191505060405180910390fd5b600082815260026020526040808220805473ffffffffffffffffffffffffffffffffffffffff1916600160a060020a0387811691821790925591518593918516917f8c5be1e5ebec7d5bd14f71427d1e84f3dd0314c0f7b2291e5b200ac8c7c3b92591a4505050565b60075490565b6108123382610dfb565b15156108575760405160008051602061192f8339815191528152600401808060200182810382526031815260200180611a166031913960400191505060405180910390fd5b610862838383610ea9565b505050565b600061087283610a40565b82106108b75760405160008051602061192f833981519152815260040180806020018281038252602b8152602001806117a6602b913960400191505060405180910390fd5b600160a060020a03831660009081526005602052604090208054839081106108db57fe5b9060005260206000200154905092915050565b60006108f933610c4c565b151561093e5760405160008051602061192f83398151915281526004018080602001828103825260308152602001806118de6030913960400191505060405180910390fd5b6109488383610ec8565b50600192915050565b6108628383836020604051908101604052806000815250610c5f565b6000610977610802565b82106109bc5760405160008051602061192f833981519152815260040180806020018281038252602c815260200180611a47602c913960400191505060405180910390fd5b60078054839081106109ca57fe5b90600052602060002001549050919050565b600081815260016020526040812054600160a060020a0316801515610a3a5760405160008051602061192f83398151915281526004018080602001828103825260298152602001806118b56029913960400191505060405180910390fd5b92915050565b6000600160a060020a0382161515610a915760405160008051602061192f833981519152815260040180806020018281038252602a81526020018061188b602a913960400191505060405180910390fd5b600160a060020a0382166000908152600360205260409020610a3a90610ee9565b600a8054604080516020601f60026000196101006001881615020190951694909404938401819004810282018101909252828152606093909290918301828280156106615780601f1061063657610100808354040283529160200191610661565b610b1c33610c4c565b1515610b615760405160008051602061192f83398151915281526004018080602001828103825260308152602001806118de6030913960400191505060405180910390fd5b610b6a81610eed565b50565b610b7633610f35565b565b600160a060020a038216331415610bde576040805160008051602061192f833981519152815260206004820152601960248201527f4552433732313a20617070726f766520746f2063616c6c657200000000000000604482015290519081900360640190fd5b336000818152600460209081526040808320600160a060020a03871680855290835292819020805460ff1916861515908117909155815190815290519293927f17307eab39ab6107e8899845ad3d59bd9653f200f220920489ca2b5937696c31929181900390910190a35050565b6000610a3a600c8363ffffffff610f7d16565b610c6a848484610808565b610c7684848484610fee565b1515610cbb5760405160008051602061192f83398151915281526004018080602001828103825260328152602001806117d16032913960400191505060405180910390fd5b50505050565b6060610ccc82610dde565b1515610d115760405160008051602061192f833981519152815260040180806020018281038252602f8152602001806119c6602f913960400191505060405180910390fd5b6000828152600b602090815260409182902080548351601f600260001961010060018616150201909316929092049182018490048402810184019094528084529091830182828015610da45780601f10610d7957610100808354040283529160200191610da4565b820191906000526020600020905b815481529060010190602001808311610d8757829003601f168201915b50505050509050919050565b600160a060020a03918216600090815260046020908152604080832093909416825291909152205460ff1690565b600090815260016020526040902054600160a060020a0316151590565b6000610e0682610dde565b1515610e4b5760405160008051602061192f833981519152815260040180806020018281038252602c815260200180611827602c913960400191505060405180910390fd5b6000610e56836109dc565b905080600160a060020a031684600160a060020a03161480610e91575083600160a060020a0316610e868461066c565b600160a060020a0316145b80610ea15750610ea18185610db0565b949350505050565b610eb483838361116d565b610ebe83826112d0565b61086282826113c7565b610ed28282611405565b610edc82826113c7565b610ee581611555565b5050565b5490565b610efe600c8263ffffffff61159916565b604051600160a060020a038216907f6ae172837ea30b801fbfcdd4108aa1d5bf8ff775444fd70256b44e6bf3dfc3f690600090a250565b610f46600c8263ffffffff61162216565b604051600160a060020a038216907fe94479a9f7e1952cc78f2d6baab678adc1b772d936c6583def489e524cb6669290600090a250565b6000600160a060020a0382161515610fce5760405160008051602061192f833981519152815260040180806020018281038252602281526020018061197b6022913960400191505060405180910390fd5b50600160a060020a03166000908152602091909152604090205460ff1690565b600061100284600160a060020a0316611693565b151561101057506001610ea1565b6040517f150b7a020000000000000000000000000000000000000000000000000000000081523360048201818152600160a060020a03888116602485015260448401879052608060648501908152865160848601528651600095928a169463150b7a029490938c938b938b939260a4019060208501908083838e5b838110156110a357818101518382015260200161108b565b50505050905090810190601f1680156110d05780820380516001836020036101000a031916815260200191505b5095505050505050602060405180830381600087803b1580156110f257600080fd5b505af1158015611106573d6000803e3d6000fd5b505050506040513d602081101561111c57600080fd5b50517fffffffff00000000000000000000000000000000000000000000000000000000167f150b7a020000000000000000000000000000000000000000000000000000000014915050949350505050565b82600160a060020a0316611180826109dc565b600160a060020a0316146111cd5760405160008051602061192f833981519152815260040180806020018281038252602981526020018061199d6029913960400191505060405180910390fd5b600160a060020a038216151561121c5760405160008051602061192f83398151915281526004018080602001828103825260248152602001806118036024913960400191505060405180910390fd5b6112258161169b565b600160a060020a0383166000908152600360205260409020611246906116e3565b600160a060020a0382166000908152600360205260409020611267906116fa565b600081815260016020526040808220805473ffffffffffffffffffffffffffffffffffffffff1916600160a060020a0386811691821790925591518493918716917fddf252ad1be2c89b69c2b068fc378daa952ba7f163c4a11628f55a4df523b3ef91a4505050565b600160a060020a0382166000908152600560205260408120546112fa90600163ffffffff61170316565b60008381526006602052604090205490915080821461139757600160a060020a038416600090815260056020526040812080548490811061133757fe5b90600052602060002001549050806005600087600160a060020a0316600160a060020a031681526020019081526020016000208381548110151561137757fe5b600091825260208083209091019290925591825260069052604090208190555b600160a060020a03841660009081526005602052604090208054906113c0906000198301611768565b5050505050565b600160a060020a0390911660009081526005602081815260408084208054868652600684529185208290559282526001810183559183529091200155565b600160a060020a038216151561146a576040805160008051602061192f833981519152815260206004820181905260248201527f4552433732313a206d696e7420746f20746865207a65726f2061646472657373604482015290519081900360640190fd5b61147381610dde565b156114cd576040805160008051602061192f833981519152815260206004820152601c60248201527f4552433732313a20746f6b656e20616c7265616479206d696e74656400000000604482015290519081900360640190fd5b6000818152600160209081526040808320805473ffffffffffffffffffffffffffffffffffffffff1916600160a060020a038716908117909155835260039091529020611519906116fa565b6040518190600160a060020a038416906000907fddf252ad1be2c89b69c2b068fc378daa952ba7f163c4a11628f55a4df523b3ef908290a45050565b600780546000838152600860205260408120829055600182018355919091527fa66cc928b5edb82af9bd49922954155ab7b0942694bea4ce44661d9a8736c6880155565b6115a38282610f7d565b156115fd576040805160008051602061192f833981519152815260206004820152601f60248201527f526f6c65733a206163636f756e7420616c72656164792068617320726f6c6500604482015290519081900360640190fd5b600160a060020a0316600090815260209190915260409020805460ff19166001179055565b61162c8282610f7d565b15156116715760405160008051602061192f833981519152815260040180806020018281038252602181526020018061190e6021913960400191505060405180910390fd5b600160a060020a0316600090815260209190915260409020805460ff19169055565b6000903b1190565b600081815260026020526040902054600160a060020a031615610b6a576000908152600260205260409020805473ffffffffffffffffffffffffffffffffffffffff19169055565b80546116f690600163ffffffff61170316565b9055565b80546001019055565b600082821115611762576040805160008051602061192f833981519152815260206004820152601e60248201527f536166654d6174683a207375627472616374696f6e206f766572666c6f770000604482015290519081900360640190fd5b50900390565b8154818355818111156108625760008381526020902061086291810190830161066991905b808211156117a1576000815560010161178d565b509056fe455243373231456e756d657261626c653a206f776e657220696e646578206f7574206f6620626f756e64734552433732313a207472616e7366657220746f206e6f6e20455243373231526563656976657220696d706c656d656e7465724552433732313a207472616e7366657220746f20746865207a65726f20616464726573734552433732313a206f70657261746f7220717565727920666f72206e6f6e6578697374656e7420746f6b656e4552433732313a20617070726f76652063616c6c6572206973206e6f74206f776e6572206e6f7220617070726f76656420666f7220616c6c4552433732313a2062616c616e636520717565727920666f7220746865207a65726f20616464726573734552433732313a206f776e657220717565727920666f72206e6f6e6578697374656e7420746f6b656e4d696e746572526f6c653a2063616c6c657220646f6573206e6f74206861766520746865204d696e74657220726f6c65526f6c65733a206163636f756e7420646f6573206e6f74206861766520726f6c6508c379a0000000000000000000000000000000000000000000000000000000004552433732313a20617070726f76656420717565727920666f72206e6f6e6578697374656e7420746f6b656e526f6c65733a206163636f756e7420697320746865207a65726f20616464726573734552433732313a207472616e73666572206f6620746f6b656e2074686174206973206e6f74206f776e4552433732314d657461646174613a2055524920717565727920666f72206e6f6e6578697374656e7420746f6b656e4552433732313a20617070726f76616c20746f2063757272656e74206f776e65724552433732313a207472616e736665722063616c6c6572206973206e6f74206f776e6572206e6f7220617070726f766564455243373231456e756d657261626c653a20676c6f62616c20696e646578206f7574206f6620626f756e6473a165627a7a72305820cd7945596e6ec5b2594996f9f30bb9efd2a52e06f2357a3752a215eb5f39adc10029526f6c65733a206163636f756e7420697320746865207a65726f2061646472657373",
  "source": "pragma solidity ^0.5.4;\n\nimport \"openzeppelin-solidity/contracts/token/ERC721/ERC721Full.sol\";\nimport \"openzeppelin-solidity/contracts/token/ERC721/ERC721Mintable.sol\";\n\ncontract TestERC721 is ERC721Full, ERC721Mintable {\n    constructor() ERC721Full(\"Argent Kitties\", \"AGKT\") public {\n    }\n}\n",
  "sourcePath": "/Users/name/dev/smartcontracts/contracts/test/TestERC721.sol",
  "compiler": {
    "name": "solc",
    "version": "0.5.4+commit.9549d8ff.Emscripten.clang",
    "optimizer": true,
    "runs": 999
  },
  "schemaVersion": "2.3.1",
  "updatedAt": "2020-04-01T21:49:53.003Z"
}