{
  "contractName": "TestOnlyOwnerModule",
  "abi": [
    {
      "constant": false,
      "inputs": [
        {
          "name": "_wallet",
          "type": "address"
        }
      ],
      "name": "init",
      "outputs": [],
      "payable": false,
      "stateMutability": "nonpayable",
      "type": "function"
    },
    {
      "constant": true,
      "inputs": [
        {
          "name": "_wallet",
          "type": "address"
        }
      ],
      "name": "getNonce",
      "outputs": [
        {
          "name": "nonce",
          "type": "uint256"
        }
      ],
      "payable": false,
      "stateMutability": "view",
      "type": "function"
    },
    {
      "constant": false,
      "inputs": [
        {
          "name": "_wallet",
          "type": "address"
        },
        {
          "name": "_module",
          "type": "address"
        }
      ],
      "name": "addModule",
      "outputs": [],
      "payable": false,
      "stateMutability": "nonpayable",
      "type": "function"
    },
    {
      "constant": false,
      "inputs": [
        {
          "name": "_token",
          "type": "address"
        }
      ],
      "name": "recoverToken",
      "outputs": [],
      "payable": false,
      "stateMutability": "nonpayable",
      "type": "function"
    },
    {
      "constant": false,
      "inputs": [
        {
          "name": "_wallet",
          "type": "address"
        },
        {
          "name": "_data",
          "type": "bytes"
        },
        {
          "name": "_nonce",
          "type": "uint256"
        },
        {
          "name": "_signatures",
          "type": "bytes"
        },
        {
          "name": "_gasPrice",
          "type": "uint256"
        },
        {
          "name": "_gasLimit",
          "type": "uint256"
        }
      ],
      "name": "execute",
      "outputs": [
        {
          "name": "success",
          "type": "bool"
        }
      ],
      "payable": false,
      "stateMutability": "nonpayable",
      "type": "function"
    },
    {
      "constant": true,
      "inputs": [
        {
          "name": "",
          "type": "address"
        }
      ],
      "name": "relayer",
      "outputs": [
        {
          "name": "nonce",
          "type": "uint256"
        }
      ],
      "payable": false,
      "stateMutability": "view",
      "type": "function"
    },
    {
      "constant": true,
      "inputs": [],
      "name": "isOnlyOwnerModule",
      "outputs": [
        {
          "name": "",
          "type": "bytes4"
        }
      ],
      "payable": false,
      "stateMutability": "pure",
      "type": "function"
    },
    {
      "inputs": [
        {
          "name": "_registry",
          "type": "address"
        }
      ],
      "payable": false,
      "stateMutability": "nonpayable",
      "type": "constructor"
    },
    {
      "anonymous": false,
      "inputs": [
        {
          "indexed": true,
          "name": "wallet",
          "type": "address"
        },
        {
          "indexed": true,
          "name": "success",
          "type": "bool"
        },
        {
          "indexed": false,
          "name": "signedHash",
          "type": "bytes32"
        }
      ],
      "name": "TransactionExecuted",
      "type": "event"
    },
    {
      "anonymous": false,
      "inputs": [
        {
          "indexed": false,
          "name": "name",
          "type": "bytes32"
        }
      ],
      "name": "ModuleCreated",
      "type": "event"
    },
    {
      "anonymous": false,
      "inputs": [
        {
          "indexed": false,
          "name": "wallet",
          "type": "address"
        }
      ],
      "name": "ModuleInitialised",
      "type": "event"
    }
  ],
  "bytecode": "0x608060405234801561001057600080fd5b506040516020806114458339810180604052602081101561003057600080fd5b505160008054600160a060020a038316600160a060020a0319918216178255600180549091169055604080517f546573744f6e6c794f776e65724d6f64756c65000000000000000000000000008082529151849392917f3019c8fc80239e3dff8f781212ae2004839c2cb61d6c70acd279ac65392145df919081900360200190a150505050611381806100c46000396000f3fe608060405234801561001057600080fd5b506004361061009a576000357c0100000000000000000000000000000000000000000000000000000000900480639be65a60116100785780639be65a6014610154578063aacaaf8814610187578063c9b5ef8e14610284578063d490da4d146102b75761009a565b806319ab453c1461009f5780632d0335ab146100d45780635a1db8c414610119575b600080fd5b6100d2600480360360208110156100b557600080fd5b503573ffffffffffffffffffffffffffffffffffffffff166102f4565b005b610107600480360360208110156100ea57600080fd5b503573ffffffffffffffffffffffffffffffffffffffff166103c6565b60408051918252519081900360200190f35b6100d26004803603604081101561012f57600080fd5b5073ffffffffffffffffffffffffffffffffffffffff813581169160200135166103ee565b6100d26004803603602081101561016a57600080fd5b503573ffffffffffffffffffffffffffffffffffffffff166105fa565b610270600480360360c081101561019d57600080fd5b73ffffffffffffffffffffffffffffffffffffffff82351691908101906040810160208201356401000000008111156101d557600080fd5b8201836020820111156101e757600080fd5b8035906020019184600183028401116401000000008311171561020957600080fd5b9193909282359260408101906020013564010000000081111561022b57600080fd5b82018360208201111561023d57600080fd5b8035906020019184600183028401116401000000008311171561025f57600080fd5b919350915080359060200135610747565b604080519115158252519081900360200190f35b6101076004803603602081101561029a57600080fd5b503573ffffffffffffffffffffffffffffffffffffffff16610a6d565b6102bf610a7f565b604080517fffffffff000000000000000000000000000000000000000000000000000000009092168252519081900360200190f35b803373ffffffffffffffffffffffffffffffffffffffff82161461037957604080517f08c379a000000000000000000000000000000000000000000000000000000000815260206004820152601960248201527f424d3a2063616c6c6572206d7573742062652077616c6c657400000000000000604482015290519081900360640190fd5b6040805173ffffffffffffffffffffffffffffffffffffffff8416815290517f9fcca3f73f85397e2bf03647abf243c20b753bd54463ff3cae74de2971c112fa9181900360200190a15050565b73ffffffffffffffffffffffffffffffffffffffff1660009081526002602052604090205490565b813330148061040257506104028133610aa3565b1515610459576040517f08c379a00000000000000000000000000000000000000000000000000000000081526004018080602001828103825260238152602001806113336023913960400191505060405180910390fd5b600054604080517f0bcd4ebb00000000000000000000000000000000000000000000000000000000815273ffffffffffffffffffffffffffffffffffffffff858116600483015291519190921691630bcd4ebb916024808301926020929190829003018186803b1580156104cc57600080fd5b505afa1580156104e0573d6000803e3d6000fd5b505050506040513d60208110156104f657600080fd5b5051151561056557604080517f08c379a000000000000000000000000000000000000000000000000000000000815260206004820152601c60248201527f424d3a206d6f64756c65206973206e6f74207265676973746572656400000000604482015290519081900360640190fd5b604080517f1f17732d00000000000000000000000000000000000000000000000000000000815273ffffffffffffffffffffffffffffffffffffffff848116600483015260016024830152915191851691631f17732d9160448082019260009290919082900301818387803b1580156105dd57600080fd5b505af11580156105f1573d6000803e3d6000fd5b50505050505050565b604080517f70a08231000000000000000000000000000000000000000000000000000000008152306004820152905160009173ffffffffffffffffffffffffffffffffffffffff8416916370a0823191602480820192602092909190829003018186803b15801561066a57600080fd5b505afa15801561067e573d6000803e3d6000fd5b505050506040513d602081101561069457600080fd5b505160008054604080517fa9059cbb00000000000000000000000000000000000000000000000000000000815273ffffffffffffffffffffffffffffffffffffffff92831660048201526024810185905290519394509085169263a9059cbb92604480840193602093929083900390910190829087803b15801561071757600080fd5b505af115801561072b573d6000803e3d6000fd5b505050506040513d602081101561074157600080fd5b50505050565b6000805a90506000610797308c60008d8d8080601f0160208091040260200160405190810160405280939291908181526020018383808284376000920191909152508f92508c91508b9050610b6a565b90506107a48b8983610cba565b151561081157604080517f08c379a000000000000000000000000000000000000000000000000000000000815260206004820152601560248201527f524d3a204475706c696361746520726571756573740000000000000000000000604482015290519081900360640190fd5b6108518b8b8b8080601f016020809104026020016040519081016040528093929190818152602001838380828437600092019190915250610cce92505050565b15156108a8576040517f08c379a000000000000000000000000000000000000000000000000000000000815260040180806020018281038252604a8152602001806112e9604a913960600191505060405180910390fd5b60006108ea8c8c8c8080601f016020809104026020016040519081016040528093929190818152602001838380828437600092019190915250610d6692505050565b905060418102871415610a0f576109038c868884610d6e565b15610a0f5780158061098657506109868c8c8c8080601f01602080910402602001604051908101604052809392919081815260200183838082843760009201919091525050604080516020601f8f018190048102820181019092528d815288935091508d908d9081908401838280828437600092019190915250610e5a92505050565b15610a0f573073ffffffffffffffffffffffffffffffffffffffff168b8b604051808383808284376040519201945060009350909150508083038183865af19150503d80600081146109f4576040519150601f19603f3d011682016040523d82523d6000602084013e6109f9565b606091505b505080945050610a0f8c5a850388888533610e7f565b6040805183815290518515159173ffffffffffffffffffffffffffffffffffffffff8f16917f6bb0b384ce772133df63560651bc8c727c53306cec1d51e2cbf8ea35fb8f2ec19181900360200190a350505098975050505050505050565b60026020526000908152604090205481565b7fd490da4d0000000000000000000000000000000000000000000000000000000090565b60008173ffffffffffffffffffffffffffffffffffffffff168373ffffffffffffffffffffffffffffffffffffffff16638da5cb5b6040518163ffffffff167c010000000000000000000000000000000000000000000000000000000002815260040160206040518083038186803b158015610b1e57600080fd5b505afa158015610b32573d6000803e3d6000fd5b505050506040513d6020811015610b4857600080fd5b505173ffffffffffffffffffffffffffffffffffffffff161490505b92915050565b6040517f190000000000000000000000000000000000000000000000000000000000000060208083018281526000602185018190526c0100000000000000000000000073ffffffffffffffffffffffffffffffffffffffff808e16820260228801528c16026036860152604a85018a90528851909485938d938d938d938d938d938d938d939192606a909201918701908083835b60208310610c1d5780518252601f199092019160209182019101610bfe565b51815160209384036101000a600019018019909216911617905292019586525084810193909352506040808401919091528051808403820181526060840182528051908301207f19457468657265756d205369676e6564204d6573736167653a0a3332000000006080850152609c808501919091528151808503909101815260bc909301905281519101209e9d5050505050505050505050505050565b6000610cc68484610edd565b949350505050565b60006024825110151515610d4357604080517f08c379a000000000000000000000000000000000000000000000000000000000815260206004820152601660248201527f524d3a20496e76616c6964206461746157616c6c657400000000000000000000604482015290519081900360640190fd5b506024015173ffffffffffffffffffffffffffffffffffffffff91821691161490565b600192915050565b60008083118015610d7f5750600182115b8015610e4257508284028573ffffffffffffffffffffffffffffffffffffffff16311080610e425750604080517fd6eb1bbf000000000000000000000000000000000000000000000000000000008152306004820152905173ffffffffffffffffffffffffffffffffffffffff87169163d6eb1bbf916024808301926020929190829003018186803b158015610e1457600080fd5b505afa158015610e28573d6000803e3d6000fd5b505050506040513d6020811015610e3e57600080fd5b5051155b15610e4f57506000610cc6565b506001949350505050565b600080610e6984846000610f7d565b9050610e758682610aa3565b9695505050505050565b61726c8501600085118015610e945750600183115b8015610ea05750838111155b156105f1573a851115610eb4573a02610eb7565b84025b610ed38783836020604051908101604052806000815250611027565b5050505050505050565b73ffffffffffffffffffffffffffffffffffffffff82166000908152600260205260408120548211610f1157506000610b64565b7001000000000000000000000000000000006fffffffffffffffffffffffffffffffff198316044361271001811115610f4e576000915050610b64565b505073ffffffffffffffffffffffffffffffffffffffff91909116600090815260026020526040902055600190565b6041808202830160208101516040820151919092015160009260ff9190911691601b831480610faf57508260ff16601c145b1515610fba57600080fd5b604080516000815260208082018084528a905260ff8616828401526060820185905260808201849052915160019260a0808401939192601f1981019281900390910190855afa158015611011573d6000803e3d6000fd5b5050604051601f19015198975050505050505050565b606060008573ffffffffffffffffffffffffffffffffffffffff16858585604051602401808473ffffffffffffffffffffffffffffffffffffffff1673ffffffffffffffffffffffffffffffffffffffff16815260200183815260200180602001828103825283818151815260200191508051906020019080838360005b838110156110bd5781810151838201526020016110a5565b50505050905090810190601f1680156110ea5780820380516001836020036101000a031916815260200191505b5060408051601f198184030181529181526020820180517bffffffffffffffffffffffffffffffffffffffffffffffffffffffff167f8f6f033200000000000000000000000000000000000000000000000000000000178152905182519297509550859450925090508083835b602083106111765780518252601f199092019160209182019101611157565b6001836020036101000a0380198251168184511680821785525050505050509050019150506000604051808303816000865af19150503d80600081146111d8576040519150601f19603f3d011682016040523d82523d6000602084013e6111dd565b606091505b50925090508080156111f0575060008251115b1561125d5781806020019051602081101561120a57600080fd5b81019080805164010000000081111561122257600080fd5b8201602081018481111561123557600080fd5b815164010000000081118282018710171561124f57600080fd5b509095506112df9350505050565b600082511115611271573d6000803e3d6000fd5b8015156112df57604080517f08c379a000000000000000000000000000000000000000000000000000000000815260206004820152601a60248201527f424d3a2077616c6c657420696e766f6b65207265766572746564000000000000604482015290519081900360640190fd5b5094935050505056fe524d3a207468652077616c6c657420617574686f72697a656420697320646966666572656e74207468656e2074686520746172676574206f66207468652072656c617965642064617461424d3a206d75737420626520616e206f776e657220666f72207468652077616c6c6574a165627a7a7230582047a92ff5de4058dd9d3b7886f130383d93b9f2338c0dcc339bb006001af0c37f0029",
  "source": "pragma solidity ^0.5.4;\nimport \"../../../wallet/BaseWallet.sol\";\nimport \"../../../modules/common/OnlyOwnerModule.sol\";\n\n/**\n * @title TestModule\n * @dev Basic test module.\n * @author Julien Niset - <julien@argent.im>\n */\ncontract TestOnlyOwnerModule is OnlyOwnerModule {\n\n    bytes32 constant NAME = \"TestOnlyOwnerModule\";\n    constructor(ModuleRegistry _registry) BaseModule(_registry, GuardianStorage(0), NAME) public {}\n}",
  "sourcePath": "/Users/name/dev/argent-contracts-release-1.5.0/contracts/test/argent/utils/TestOnlyOwnerModule.sol",
  "compiler": {
    "name": "solc",
    "version": "0.5.4+commit.9549d8ff.Emscripten.clang",
    "optimizer": true,
    "runs": 999
  },
  "schemaVersion": "2.3.1",
  "updatedAt": "2020-04-01T15:58:47.319Z"
}