{
  "contractName": "TokenPriceProvider",
  "abi": [
    {
      "constant": false,
      "inputs": [
        {
          "name": "_manager",
          "type": "address"
        }
      ],
      "name": "addManager",
      "outputs": [],
      "payable": false,
      "stateMutability": "nonpayable",
      "type": "function"
    },
    {
      "constant": false,
      "inputs": [
        {
          "name": "_manager",
          "type": "address"
        }
      ],
      "name": "revokeManager",
      "outputs": [],
      "payable": false,
      "stateMutability": "nonpayable",
      "type": "function"
    },
    {
      "constant": true,
      "inputs": [
        {
          "name": "",
          "type": "address"
        }
      ],
      "name": "cachedPrices",
      "outputs": [
        {
          "name": "",
          "type": "uint256"
        }
      ],
      "payable": false,
      "stateMutability": "view",
      "type": "function"
    },
    {
      "constant": true,
      "inputs": [],
      "name": "owner",
      "outputs": [
        {
          "name": "",
          "type": "address"
        }
      ],
      "payable": false,
      "stateMutability": "view",
      "type": "function"
    },
    {
      "constant": false,
      "inputs": [
        {
          "name": "_newOwner",
          "type": "address"
        }
      ],
      "name": "changeOwner",
      "outputs": [],
      "payable": false,
      "stateMutability": "nonpayable",
      "type": "function"
    },
    {
      "constant": true,
      "inputs": [],
      "name": "kyberNetwork",
      "outputs": [
        {
          "name": "",
          "type": "address"
        }
      ],
      "payable": false,
      "stateMutability": "view",
      "type": "function"
    },
    {
      "constant": true,
      "inputs": [
        {
          "name": "",
          "type": "address"
        }
      ],
      "name": "managers",
      "outputs": [
        {
          "name": "",
          "type": "bool"
        }
      ],
      "payable": false,
      "stateMutability": "view",
      "type": "function"
    },
    {
      "inputs": [
        {
          "name": "_kyberNetwork",
          "type": "address"
        }
      ],
      "payable": false,
      "stateMutability": "nonpayable",
      "type": "constructor"
    },
    {
      "anonymous": false,
      "inputs": [
        {
          "indexed": true,
          "name": "_manager",
          "type": "address"
        }
      ],
      "name": "ManagerAdded",
      "type": "event"
    },
    {
      "anonymous": false,
      "inputs": [
        {
          "indexed": true,
          "name": "_manager",
          "type": "address"
        }
      ],
      "name": "ManagerRevoked",
      "type": "event"
    },
    {
      "anonymous": false,
      "inputs": [
        {
          "indexed": true,
          "name": "_newOwner",
          "type": "address"
        }
      ],
      "name": "OwnerChanged",
      "type": "event"
    },
    {
      "constant": false,
      "inputs": [
        {
          "name": "_token",
          "type": "address"
        },
        {
          "name": "_price",
          "type": "uint256"
        }
      ],
      "name": "setPrice",
      "outputs": [],
      "payable": false,
      "stateMutability": "nonpayable",
      "type": "function"
    },
    {
      "constant": false,
      "inputs": [
        {
          "name": "_tokens",
          "type": "address[]"
        },
        {
          "name": "_prices",
          "type": "uint256[]"
        }
      ],
      "name": "setPriceForTokenList",
      "outputs": [],
      "payable": false,
      "stateMutability": "nonpayable",
      "type": "function"
    },
    {
      "constant": true,
      "inputs": [
        {
          "name": "_amount",
          "type": "uint256"
        },
        {
          "name": "_token",
          "type": "address"
        }
      ],
      "name": "getEtherValue",
      "outputs": [
        {
          "name": "",
          "type": "uint256"
        }
      ],
      "payable": false,
      "stateMutability": "view",
      "type": "function"
    },
    {
      "constant": false,
      "inputs": [
        {
          "name": "_kyberNetwork",
          "type": "address"
        }
      ],
      "name": "setKyberNetwork",
      "outputs": [],
      "payable": false,
      "stateMutability": "nonpayable",
      "type": "function"
    },
    {
      "constant": false,
      "inputs": [
        {
          "name": "_token",
          "type": "address"
        }
      ],
      "name": "syncPrice",
      "outputs": [],
      "payable": false,
      "stateMutability": "nonpayable",
      "type": "function"
    },
    {
      "constant": false,
      "inputs": [
        {
          "name": "_tokens",
          "type": "address[]"
        }
      ],
      "name": "syncPriceForTokenList",
      "outputs": [],
      "payable": false,
      "stateMutability": "nonpayable",
      "type": "function"
    }
  ],
  "bytecode": "0x608060405234801561001057600080fd5b50604051602080610e758339810180604052602081101561003057600080fd5b505160008054600160a060020a0319908116331790915560038054600160a060020a0390931692909116919091179055610e068061006f6000396000f3fe608060405234801561001057600080fd5b50600436106100fb576000357c0100000000000000000000000000000000000000000000000000000000900480638da5cb5b116100a9578063ce55c85211610083578063ce55c852146102ec578063d740b9a314610318578063e3503ca214610388578063fdff9b4d146103ae576100fb565b80638da5cb5b1461029a578063a6f9dae1146102be578063b78b842d146102e4576100fb565b806354a325a6116100da57806354a325a61461017a57806374d66ecf146101a0578063837479c914610262576100fb565b8062e4768b146101005780632d06177a1461012e578063377e32e614610154575b600080fd5b61012c6004803603604081101561011657600080fd5b50600160a060020a0381351690602001356103e8565b005b61012c6004803603602081101561014457600080fd5b5035600160a060020a0316610476565b61012c6004803603602081101561016a57600080fd5b5035600160a060020a03166105b4565b61012c6004803603602081101561019057600080fd5b5035600160a060020a03166106c9565b61012c600480360360408110156101b657600080fd5b8101906020810181356401000000008111156101d157600080fd5b8201836020820111156101e357600080fd5b8035906020019184602083028401116401000000008311171561020557600080fd5b91939092909160208101903564010000000081111561022357600080fd5b82018360208201111561023557600080fd5b8035906020019184602083028401116401000000008311171561025757600080fd5b50909250905061076a565b6102886004803603602081101561027857600080fd5b5035600160a060020a031661083b565b60408051918252519081900360200190f35b6102a261084d565b60408051600160a060020a039092168252519081900360200190f35b61012c600480360360208110156102d457600080fd5b5035600160a060020a031661085c565b6102a261097d565b6102886004803603604081101561030257600080fd5b5080359060200135600160a060020a031661098c565b61012c6004803603602081101561032e57600080fd5b81019060208101813564010000000081111561034957600080fd5b82018360208201111561035b57600080fd5b8035906020019184602083028401116401000000008311171561037d57600080fd5b509092509050610a5b565b61012c6004803603602081101561039e57600080fd5b5035600160a060020a0316610bf0565b6103d4600480360360208110156103c457600080fd5b5035600160a060020a0316610d2a565b604080519115158252519081900360200190f35b3360009081526001602081905260409091205460ff1615151461045a5760408051600080516020610dbb833981519152815260206004820152601260248201527f4d3a204d757374206265206d616e616765720000000000000000000000000000604482015290519081900360640190fd5b600160a060020a03909116600090815260026020526040902055565b600054600160a060020a031633146104dd5760408051600080516020610dbb833981519152815260206004820152600d60248201527f4d757374206265206f776e657200000000000000000000000000000000000000604482015290519081900360640190fd5b600160a060020a03811615156105425760408051600080516020610dbb833981519152815260206004820152601b60248201527f4d3a2041646472657373206d757374206e6f74206265206e756c6c0000000000604482015290519081900360640190fd5b600160a060020a03811660009081526001602052604090205460ff1615156105b157600160a060020a0381166000818152600160208190526040808320805460ff1916909217909155517f3b4a40cccf2058c593542587329dd385be4f0b588db5471fbd9598e56dd7093a9190a25b50565b600054600160a060020a0316331461061b5760408051600080516020610dbb833981519152815260206004820152600d60248201527f4d757374206265206f776e657200000000000000000000000000000000000000604482015290519081900360640190fd5b600160a060020a03811660009081526001602081905260409091205460ff1615151461068057604051600080516020610dbb8339815191528152600401808060200182810382526025815260200180610d966025913960400191505060405180910390fd5b600160a060020a038116600081815260016020526040808220805460ff19169055517fe5def11e0516f317f9c37b8835aec29fc01db4d4b6d6fecaca339d3596a29bc19190a250565b3360009081526001602081905260409091205460ff1615151461073b5760408051600080516020610dbb833981519152815260206004820152601260248201527f4d3a204d757374206265206d616e616765720000000000000000000000000000604482015290519081900360640190fd5b6003805473ffffffffffffffffffffffffffffffffffffffff1916600160a060020a0392909216919091179055565b3360009081526001602081905260409091205460ff161515146107dc5760408051600080516020610dbb833981519152815260206004820152601260248201527f4d3a204d757374206265206d616e616765720000000000000000000000000000604482015290519081900360640190fd5b60005b61ffff81168411156108345761082c858561ffff84168181106107fe57fe5b90506020020135600160a060020a031684848461ffff16818110151561082057fe5b905060200201356103e8565b6001016107df565b5050505050565b60026020526000908152604090205481565b600054600160a060020a031681565b600054600160a060020a031633146108c35760408051600080516020610dbb833981519152815260206004820152600d60248201527f4d757374206265206f776e657200000000000000000000000000000000000000604482015290519081900360640190fd5b600160a060020a03811615156109285760408051600080516020610dbb833981519152815260206004820152601860248201527f41646472657373206d757374206e6f74206265206e756c6c0000000000000000604482015290519081900360640190fd5b6000805473ffffffffffffffffffffffffffffffffffffffff1916600160a060020a038316908117825560405190917fa2ea9883a321a3e97b8266c2b078bfeec6d50c711ed71f874a90d500ae2eaf3691a250565b600354600160a060020a031681565b60008082600160a060020a031663313ce5676040518163ffffffff167c010000000000000000000000000000000000000000000000000000000002815260040160206040518083038186803b1580156109e457600080fd5b505afa1580156109f8573d6000803e3d6000fd5b505050506040513d6020811015610a0e57600080fd5b5051600160a060020a038416600090815260026020526040902054909150610a50600a83900a610a44838863ffffffff610d3f16565b9063ffffffff610d7116565b925050505b92915050565b600354600160a060020a03161515610ac25760408051600080516020610dbb833981519152815260206004820152601660248201527f4b796265722073796e632069732064697361626c656400000000000000000000604482015290519081900360640190fd5b60005b61ffff8116821115610beb57600354600090600160a060020a031663809a9e55858561ffff8616818110610af557fe5b6040805163ffffffff86167c01000000000000000000000000000000000000000000000000000000000281526020929092029390930135600160a060020a0316600482015273eeeeeeeeeeeeeeeeeeeeeeeeeeeeeeeeeeeeeeee60248201526127106044820152825160648083019493509091829003018186803b158015610b7c57600080fd5b505afa158015610b90573d6000803e3d6000fd5b505050506040513d6040811015610ba657600080fd5b505190508060026000868661ffff8716818110610bbf57fe5b60209081029290920135600160a060020a03168352508101919091526040016000205550600101610ac5565b505050565b600354600160a060020a03161515610c575760408051600080516020610dbb833981519152815260206004820152601660248201527f4b796265722073796e632069732064697361626c656400000000000000000000604482015290519081900360640190fd5b600354604080517f809a9e55000000000000000000000000000000000000000000000000000000008152600160a060020a03848116600483015273eeeeeeeeeeeeeeeeeeeeeeeeeeeeeeeeeeeeeeee602483015261271060448301528251600094919091169263809a9e559260648082019391829003018186803b158015610cde57600080fd5b505afa158015610cf2573d6000803e3d6000fd5b505050506040513d6040811015610d0857600080fd5b5051600160a060020a0390921660009081526002602052604090209190915550565b60016020526000908152604090205460ff1681565b6000821515610d5057506000610a55565b828202828482811515610d5f57fe5b0414610d6a57600080fd5b9392505050565b6000808211610d7f57600080fd5b60008284811515610d8c57fe5b0494935050505056fe4d3a20546172676574206d75737420626520616e206578697374696e67206d616e6167657208c379a000000000000000000000000000000000000000000000000000000000a165627a7a72305820cf1f60c669a5f5f9325795f515f2b559a6cc2b4439825134097e747297f3f7010029",
  "source": "// Copyright (C) 2018  Argent Labs Ltd. <https://argent.xyz>\n\n// This program is free software: you can redistribute it and/or modify\n// it under the terms of the GNU General Public License as published by\n// the Free Software Foundation, either version 3 of the License, or\n// (at your option) any later version.\n\n// This program is distributed in the hope that it will be useful,\n// but WITHOUT ANY WARRANTY; without even the implied warranty of\n// MERCHANTABILITY or FITNESS FOR A PARTICULAR PURPOSE.  See the\n// GNU General Public License for more details.\n\n// You should have received a copy of the GNU General Public License\n// along with this program.  If not, see <http://www.gnu.org/licenses/>.\n\npragma solidity ^0.5.4;\nimport \"../../lib/utils/SafeMath.sol\";\nimport \"./ERC20.sol\";\nimport \"../base/Managed.sol\";\nimport \"./KyberNetwork.sol\";\n\ncontract TokenPriceProvider is Managed {\n\n    // Mock token address for ETH\n    address constant internal ETH_TOKEN_ADDRESS = 0xEeeeeEeeeEeEeeEeEeEeeEEEeeeeEeeeeeeeEEeE;\n\n    using SafeMath for uint256;\n\n    mapping(address => uint256) public cachedPrices;\n\n    // Address of the KyberNetwork contract\n    KyberNetwork public kyberNetwork;\n\n    constructor(KyberNetwork _kyberNetwork) public {\n        kyberNetwork = _kyberNetwork;\n    }\n\n    function setPrice(ERC20 _token, uint256 _price) public onlyManager {\n        cachedPrices[address(_token)] = _price;\n    }\n\n    function setPriceForTokenList(ERC20[] calldata _tokens, uint256[] calldata _prices) external onlyManager {\n        for (uint16 i = 0; i < _tokens.length; i++) {\n            setPrice(_tokens[i], _prices[i]);\n        }\n    }\n\n    /**\n     * @dev Converts the value of _amount tokens in ether.\n     * @param _amount the amount of tokens to convert (in 'token wei' twei)\n     * @param _token the ERC20 token contract\n     * @return the ether value (in wei) of _amount tokens with contract _token\n     */\n    function getEtherValue(uint256 _amount, address _token) external view returns (uint256) {\n        uint256 decimals = ERC20(_token).decimals();\n        uint256 price = cachedPrices[_token];\n        return price.mul(_amount).div(10**decimals);\n    }\n\n    //\n    // The following is added to be backward-compatible with Argent's old backend\n    //\n\n    function setKyberNetwork(KyberNetwork _kyberNetwork) external onlyManager {\n        kyberNetwork = _kyberNetwork;\n    }\n\n    function syncPrice(ERC20 _token) external {\n        require(address(kyberNetwork) != address(0), \"Kyber sync is disabled\");\n        (uint256 expectedRate,) = kyberNetwork.getExpectedRate(_token, ERC20(ETH_TOKEN_ADDRESS), 10000);\n        cachedPrices[address(_token)] = expectedRate;\n    }\n\n    function syncPriceForTokenList(ERC20[] calldata _tokens) external {\n        require(address(kyberNetwork) != address(0), \"Kyber sync is disabled\");\n        for (uint16 i = 0; i < _tokens.length; i++) {\n            (uint256 expectedRate,) = kyberNetwork.getExpectedRate(_tokens[i], ERC20(ETH_TOKEN_ADDRESS), 10000);\n            cachedPrices[address(_tokens[i])] = expectedRate;\n        }\n    }\n}",
  "sourcePath": "/Users/name/dev/smartcontracts/contracts/exchange/TokenPriceProvider.sol",
  "compiler": {
    "name": "solc",
    "version": "0.5.4+commit.9549d8ff.Emscripten.clang",
    "optimizer": true,
    "runs": 999
  },
  "schemaVersion": "2.3.1",
  "updatedAt": "2020-04-01T21:49:52.955Z"
}