{
  "contractName": "TokenExchanger",
  "abi": [
    {
      "constant": false,
      "inputs": [
        {
          "name": "_wallet",
          "type": "address"
        }
      ],
      "name": "init",
      "outputs": [],
      "payable": false,
      "stateMutability": "nonpayable",
      "type": "function"
    },
    {
      "constant": true,
      "inputs": [
        {
          "name": "_wallet",
          "type": "address"
        }
      ],
      "name": "getNonce",
      "outputs": [
        {
          "name": "nonce",
          "type": "uint256"
        }
      ],
      "payable": false,
      "stateMutability": "view",
      "type": "function"
    },
    {
      "constant": true,
      "inputs": [],
      "name": "feeRatio",
      "outputs": [
        {
          "name": "",
          "type": "uint256"
        }
      ],
      "payable": false,
      "stateMutability": "view",
      "type": "function"
    },
    {
      "constant": false,
      "inputs": [
        {
          "name": "_wallet",
          "type": "address"
        },
        {
          "name": "_module",
          "type": "address"
        }
      ],
      "name": "addModule",
      "outputs": [],
      "payable": false,
      "stateMutability": "nonpayable",
      "type": "function"
    },
    {
      "constant": false,
      "inputs": [
        {
          "name": "_token",
          "type": "address"
        }
      ],
      "name": "recoverToken",
      "outputs": [],
      "payable": false,
      "stateMutability": "nonpayable",
      "type": "function"
    },
    {
      "constant": true,
      "inputs": [],
      "name": "kyber",
      "outputs": [
        {
          "name": "",
          "type": "address"
        }
      ],
      "payable": false,
      "stateMutability": "view",
      "type": "function"
    },
    {
      "constant": false,
      "inputs": [
        {
          "name": "_wallet",
          "type": "address"
        },
        {
          "name": "_data",
          "type": "bytes"
        },
        {
          "name": "_nonce",
          "type": "uint256"
        },
        {
          "name": "_signatures",
          "type": "bytes"
        },
        {
          "name": "_gasPrice",
          "type": "uint256"
        },
        {
          "name": "_gasLimit",
          "type": "uint256"
        }
      ],
      "name": "execute",
      "outputs": [
        {
          "name": "success",
          "type": "bool"
        }
      ],
      "payable": false,
      "stateMutability": "nonpayable",
      "type": "function"
    },
    {
      "constant": true,
      "inputs": [],
      "name": "feeCollector",
      "outputs": [
        {
          "name": "",
          "type": "address"
        }
      ],
      "payable": false,
      "stateMutability": "view",
      "type": "function"
    },
    {
      "constant": true,
      "inputs": [
        {
          "name": "",
          "type": "address"
        }
      ],
      "name": "relayer",
      "outputs": [
        {
          "name": "nonce",
          "type": "uint256"
        }
      ],
      "payable": false,
      "stateMutability": "view",
      "type": "function"
    },
    {
      "constant": true,
      "inputs": [],
      "name": "isOnlyOwnerModule",
      "outputs": [
        {
          "name": "",
          "type": "bytes4"
        }
      ],
      "payable": false,
      "stateMutability": "pure",
      "type": "function"
    },
    {
      "inputs": [
        {
          "name": "_registry",
          "type": "address"
        },
        {
          "name": "_guardianStorage",
          "type": "address"
        },
        {
          "name": "_kyber",
          "type": "address"
        },
        {
          "name": "_feeCollector",
          "type": "address"
        },
        {
          "name": "_feeRatio",
          "type": "uint256"
        }
      ],
      "payable": false,
      "stateMutability": "nonpayable",
      "type": "constructor"
    },
    {
      "anonymous": false,
      "inputs": [
        {
          "indexed": true,
          "name": "wallet",
          "type": "address"
        },
        {
          "indexed": false,
          "name": "srcToken",
          "type": "address"
        },
        {
          "indexed": false,
          "name": "srcAmount",
          "type": "uint256"
        },
        {
          "indexed": false,
          "name": "destToken",
          "type": "address"
        },
        {
          "indexed": false,
          "name": "destAmount",
          "type": "uint256"
        }
      ],
      "name": "TokenExchanged",
      "type": "event"
    },
    {
      "anonymous": false,
      "inputs": [
        {
          "indexed": true,
          "name": "wallet",
          "type": "address"
        },
        {
          "indexed": true,
          "name": "success",
          "type": "bool"
        },
        {
          "indexed": false,
          "name": "signedHash",
          "type": "bytes32"
        }
      ],
      "name": "TransactionExecuted",
      "type": "event"
    },
    {
      "anonymous": false,
      "inputs": [
        {
          "indexed": false,
          "name": "name",
          "type": "bytes32"
        }
      ],
      "name": "ModuleCreated",
      "type": "event"
    },
    {
      "anonymous": false,
      "inputs": [
        {
          "indexed": false,
          "name": "wallet",
          "type": "address"
        }
      ],
      "name": "ModuleInitialised",
      "type": "event"
    },
    {
      "constant": false,
      "inputs": [
        {
          "name": "_wallet",
          "type": "address"
        },
        {
          "name": "_srcToken",
          "type": "address"
        },
        {
          "name": "_srcAmount",
          "type": "uint256"
        },
        {
          "name": "_destToken",
          "type": "address"
        },
        {
          "name": "_maxDestAmount",
          "type": "uint256"
        },
        {
          "name": "_minConversionRate",
          "type": "uint256"
        }
      ],
      "name": "trade",
      "outputs": [
        {
          "name": "",
          "type": "uint256"
        }
      ],
      "payable": false,
      "stateMutability": "nonpayable",
      "type": "function"
    },
    {
      "constant": true,
      "inputs": [
        {
          "name": "_srcToken",
          "type": "address"
        },
        {
          "name": "_destToken",
          "type": "address"
        },
        {
          "name": "_srcAmount",
          "type": "uint256"
        }
      ],
      "name": "getExpectedTrade",
      "outputs": [
        {
          "name": "_destAmount",
          "type": "uint256"
        },
        {
          "name": "_fee",
          "type": "uint256"
        },
        {
          "name": "_expectedRate",
          "type": "uint256"
        }
      ],
      "payable": false,
      "stateMutability": "view",
      "type": "function"
    }
  ],
  "bytecode": "0x608060405234801561001057600080fd5b5060405160a080611e66833981018060405260a081101561003057600080fd5b508051602080830151604080850151606086015160809096015160008054600160a060020a03808916600160a060020a031992831617909255600180549287169290911691909117905582517f546f6b656e45786368616e676572000000000000000000000000000000000000808252935196979496929591938893889391927f3019c8fc80239e3dff8f781212ae2004839c2cb61d6c70acd279ac65392145df92908290030190a1505060038054600160a060020a03958616600160a060020a0319918216179091556004805494909516931692909217909255506005555050611d46806101206000396000f3fe608060405234801561001057600080fd5b50600436106100f1576000357c0100000000000000000000000000000000000000000000000000000000900480639be65a601161009e578063c415b95c11610078578063c415b95c14610364578063c9b5ef8e1461036c578063d490da4d14610392576100f1565b80639be65a601461022a578063a2d10ba514610250578063aacaaf8814610274576100f1565b806341744dd4116100cf57806341744dd4146101a05780635a1db8c4146101a85780636b5ad723146101d6576100f1565b806319ab453c146100f65780632d0335ab1461011e5780632d8da11a14610156575b600080fd5b61011c6004803603602081101561010c57600080fd5b5035600160a060020a03166103cf565b005b6101446004803603602081101561013457600080fd5b5035600160a060020a0316610487565b60408051918252519081900360200190f35b610144600480360360c081101561016c57600080fd5b50600160a060020a038135811691602081013582169160408201359160608101359091169060808101359060a001356104a2565b610144610ad3565b61011c600480360360408110156101be57600080fd5b50600160a060020a0381358116916020013516610ad9565b61020c600480360360608110156101ec57600080fd5b50600160a060020a03813581169160208101359091169060400135610ccb565b60408051938452602084019290925282820152519081900360600190f35b61011c6004803603602081101561024057600080fd5b5035600160a060020a0316610fd5565b610258611108565b60408051600160a060020a039092168252519081900360200190f35b610350600480360360c081101561028a57600080fd5b600160a060020a0382351691908101906040810160208201356401000000008111156102b557600080fd5b8201836020820111156102c757600080fd5b803590602001918460018302840111640100000000831117156102e957600080fd5b9193909282359260408101906020013564010000000081111561030b57600080fd5b82018360208201111561031d57600080fd5b8035906020019184600183028401116401000000008311171561033f57600080fd5b919350915080359060200135611117565b604080519115158252519081900360200190f35b610258611423565b6101446004803603602081101561038257600080fd5b5035600160a060020a0316611432565b61039a611444565b604080517fffffffff000000000000000000000000000000000000000000000000000000009092168252519081900360200190f35b8033600160a060020a0382161461044757604080517f08c379a000000000000000000000000000000000000000000000000000000000815260206004820152601960248201527f424d3a2063616c6c6572206d7573742062652077616c6c657400000000000000604482015290519081900360640190fd5b60408051600160a060020a038416815290517f9fcca3f73f85397e2bf03647abf243c20b753bd54463ff3cae74de2971c112fa9181900360200190a15050565b600160a060020a031660009081526002602052604090205490565b600086333014806104b857506104b88133611468565b151561050f576040517f08c379a0000000000000000000000000000000000000000000000000000000008152600401808060200182810382526023815260200180611cf86023913960400191505060405180910390fd5b600154604080517f4a4fbeec000000000000000000000000000000000000000000000000000000008152600160a060020a03808c16600483015291518b939290921691634a4fbeec91602480820192602092909190829003018186803b15801561057857600080fd5b505afa15801561058c573d6000803e3d6000fd5b505050506040513d60208110156105a257600080fd5b50511561061057604080517f08c379a000000000000000000000000000000000000000000000000000000000815260206004820152601b60248201527f424d3a2077616c6c6574206d75737420626520756e6c6f636b65640000000000604482015290519081900360640190fd5b6060600160a060020a03891673eeeeeeeeeeeeeeeeeeeeeeeeeeeeeeeeeeeeeeee14806106595750600160a060020a03871673eeeeeeeeeeeeeeeeeeeeeeeeeeeeeeeeeeeeeeee145b15156106b0576040517f08c379a0000000000000000000000000000000000000000000000000000000008152600401808060200182810382526025815260200180611cd36025913960400191505060405180910390fd5b6000806106be8b8a8c610ccb565b5091509150878211156106f1576106eb826106df838b63ffffffff61150816565b9063ffffffff61153a16565b90508791505b600160a060020a038b1673eeeeeeeeeeeeeeeeeeeeeeeeeeeeeeeeeeeeeeee141561086f5760006107288b8363ffffffff61155e16565b90508b818b8f8c8c600460009054906101000a9004600160a060020a03166040516024018088600160a060020a0316600160a060020a0316815260200187815260200186600160a060020a0316600160a060020a0316815260200185600160a060020a0316600160a060020a0316815260200184815260200183815260200182600160a060020a0316600160a060020a031681526020019750505050505050506040516020818303038152906040527fcb3c28c7000000000000000000000000000000000000000000000000000000007bffffffffffffffffffffffffffffffffffffffffffffffffffffffff19166020820180517bffffffffffffffffffffffffffffffffffffffffffffffffffffffff838183161783525050505093506108688d600360009054906101000a9004600160a060020a03168387611573565b5050610a38565b60035460408051600160a060020a03909216602483015260448083018d905281518084039091018152606490920190526020810180517bffffffffffffffffffffffffffffffffffffffffffffffffffffffff167f095ea7b30000000000000000000000000000000000000000000000000000000017905292506108f68c8c600086611573565b508a8a8a8e8b8b600460009054906101000a9004600160a060020a03166040516024018088600160a060020a0316600160a060020a0316815260200187815260200186600160a060020a0316600160a060020a0316815260200185600160a060020a0316600160a060020a0316815260200184815260200183815260200182600160a060020a0316600160a060020a031681526020019750505050505050506040516020818303038152906040527fcb3c28c7000000000000000000000000000000000000000000000000000000007bffffffffffffffffffffffffffffffffffffffffffffffffffffffff19166020820180517bffffffffffffffffffffffffffffffffffffffffffffffffffffffff83818316178352505050509250610a368c600360009054906101000a9004600160a060020a0316600086611573565b505b6000811115610a6e57600454604080516020810190915260008152610a6c918e91600160a060020a03909116908490611573565b505b60408051600160a060020a038d81168252602082018d90528b811682840152606082018590529151918e16917fc8082d818d67bbb0b463bdaa897d7363157a1425f6b077691285ac6ca82b60b19181900360800190a2509a9950505050505050505050565b60055481565b8133301480610aed5750610aed8133611468565b1515610b44576040517f08c379a0000000000000000000000000000000000000000000000000000000008152600401808060200182810382526023815260200180611cf86023913960400191505060405180910390fd5b600054604080517f0bcd4ebb000000000000000000000000000000000000000000000000000000008152600160a060020a03858116600483015291519190921691630bcd4ebb916024808301926020929190829003018186803b158015610baa57600080fd5b505afa158015610bbe573d6000803e3d6000fd5b505050506040513d6020811015610bd457600080fd5b50511515610c4357604080517f08c379a000000000000000000000000000000000000000000000000000000000815260206004820152601c60248201527f424d3a206d6f64756c65206973206e6f74207265676973746572656400000000604482015290519081900360640190fd5b604080517f1f17732d000000000000000000000000000000000000000000000000000000008152600160a060020a03848116600483015260016024830152915191851691631f17732d9160448082019260009290919082900301818387803b158015610cae57600080fd5b505af1158015610cc2573d6000803e3d6000fd5b50505050505050565b60008080600160a060020a03861673eeeeeeeeeeeeeeeeeeeeeeeeeeeeeeeeeeeeeeee1415610e7657610cfd8461180d565b600354909250600160a060020a031663809a9e558787610d23888763ffffffff61155e16565b604080517c010000000000000000000000000000000000000000000000000000000063ffffffff8716028152600160a060020a0394851660048201529290931660248301526044820152815160648083019392829003018186803b158015610d8a57600080fd5b505afa158015610d9e573d6000803e3d6000fd5b505050506040513d6040811015610db457600080fd5b5051604080517f313ce5670000000000000000000000000000000000000000000000000000000081529051919250600091600160a060020a0388169163313ce567916004808301926020929190829003018186803b158015610e1557600080fd5b505afa158015610e29573d6000803e3d6000fd5b505050506040513d6020811015610e3f57600080fd5b50519050610e6e6024829003600a0a6106df610e61888763ffffffff61155e16565b859063ffffffff61150816565b935050610fcc565b600354604080517f809a9e55000000000000000000000000000000000000000000000000000000008152600160a060020a038981166004830152888116602483015260448201889052825193169263809a9e5592606480840193919291829003018186803b158015610ee757600080fd5b505afa158015610efb573d6000803e3d6000fd5b505050506040513d6040811015610f1157600080fd5b5051604080517f313ce5670000000000000000000000000000000000000000000000000000000081529051919250600091600160a060020a0389169163313ce567916004808301926020929190829003018186803b158015610f7257600080fd5b505afa158015610f86573d6000803e3d6000fd5b505050506040513d6020811015610f9c57600080fd5b50519050610fb8600a82900a6106df848863ffffffff61150816565b9350610fc38461180d565b92508284039350505b93509350939050565b604080517f70a082310000000000000000000000000000000000000000000000000000000081523060048201529051600091600160a060020a038416916370a0823191602480820192602092909190829003018186803b15801561103857600080fd5b505afa15801561104c573d6000803e3d6000fd5b505050506040513d602081101561106257600080fd5b505160008054604080517fa9059cbb000000000000000000000000000000000000000000000000000000008152600160a060020a0392831660048201526024810185905290519394509085169263a9059cbb92604480840193602093929083900390910190829087803b1580156110d857600080fd5b505af11580156110ec573d6000803e3d6000fd5b505050506040513d602081101561110257600080fd5b50505050565b600354600160a060020a031681565b6000805a90506000611167308c60008d8d8080601f0160208091040260200160405190810160405280939291908181526020018383808284376000920191909152508f92508c91508b9050611819565b90506111748b898361195c565b15156111e157604080517f08c379a000000000000000000000000000000000000000000000000000000000815260206004820152601560248201527f524d3a204475706c696361746520726571756573740000000000000000000000604482015290519081900360640190fd5b6112218b8b8b8080601f01602080910402602001604051908101604052809392919081815260200183838082843760009201919091525061197092505050565b1515611278576040517f08c379a000000000000000000000000000000000000000000000000000000000815260040180806020018281038252604a815260200180611c89604a913960600191505060405180910390fd5b60006112ba8c8c8c8080601f0160208091040260200160405190810160405280939291908181526020018383808284376000920191909152506119fb92505050565b9050604181028714156113d2576112d38c868884611a03565b156113d25780158061135657506113568c8c8c8080601f01602080910402602001604051908101604052809392919081815260200183838082843760009201919091525050604080516020601f8f018190048102820181019092528d815288935091508d908d9081908401838280828437600092019190915250611ad592505050565b156113d25730600160a060020a03168b8b604051808383808284376040519201945060009350909150508083038183865af19150503d80600081146113b7576040519150601f19603f3d011682016040523d82523d6000602084013e6113bc565b606091505b5050809450506113d28c5a850388888533611afa565b60408051838152905185151591600160a060020a038f16917f6bb0b384ce772133df63560651bc8c727c53306cec1d51e2cbf8ea35fb8f2ec19181900360200190a350505098975050505050505050565b600454600160a060020a031681565b60026020526000908152604090205481565b7fd490da4d0000000000000000000000000000000000000000000000000000000090565b600081600160a060020a031683600160a060020a0316638da5cb5b6040518163ffffffff167c010000000000000000000000000000000000000000000000000000000002815260040160206040518083038186803b1580156114c957600080fd5b505afa1580156114dd573d6000803e3d6000fd5b505050506040513d60208110156114f357600080fd5b5051600160a060020a03161490505b92915050565b600082151561151957506000611502565b82820282848281151561152857fe5b041461153357600080fd5b9392505050565b600080821161154857600080fd5b6000828481151561155557fe5b04949350505050565b60008282111561156d57600080fd5b50900390565b6060600085600160a060020a03168585856040516024018084600160a060020a0316600160a060020a0316815260200183815260200180602001828103825283818151815260200191508051906020019080838360005b838110156115e25781810151838201526020016115ca565b50505050905090810190601f16801561160f5780820380516001836020036101000a031916815260200191505b5060408051601f198184030181529181526020820180517bffffffffffffffffffffffffffffffffffffffffffffffffffffffff167f8f6f033200000000000000000000000000000000000000000000000000000000178152905182519297509550859450925090508083835b6020831061169b5780518252601f19909201916020918201910161167c565b6001836020036101000a0380198251168184511680821785525050505050509050019150506000604051808303816000865af19150503d80600081146116fd576040519150601f19603f3d011682016040523d82523d6000602084013e611702565b606091505b5092509050808015611715575060008251115b156117825781806020019051602081101561172f57600080fd5b81019080805164010000000081111561174757600080fd5b8201602081018481111561175a57600080fd5b815164010000000081118282018710171561177457600080fd5b509095506118049350505050565b600082511115611796573d6000803e3d6000fd5b80151561180457604080517f08c379a000000000000000000000000000000000000000000000000000000000815260206004820152601a60248201527f424d3a2077616c6c657420696e766f6b65207265766572746564000000000000604482015290519081900360640190fd5b50949350505050565b60055461271091020490565b6040517f190000000000000000000000000000000000000000000000000000000000000060208083018281526000602185018190526c01000000000000000000000000600160a060020a03808e16820260228801528c16026036860152604a85018a90528851909485938d938d938d938d938d938d938d939192606a909201918701908083835b602083106118bf5780518252601f1990920191602091820191016118a0565b51815160209384036101000a600019018019909216911617905292019586525084810193909352506040808401919091528051808403820181526060840182528051908301207f19457468657265756d205369676e6564204d6573736167653a0a3332000000006080850152609c808501919091528151808503909101815260bc909301905281519101209e9d5050505050505050505050505050565b60006119688484611b58565b949350505050565b600060248251101515156119e557604080517f08c379a000000000000000000000000000000000000000000000000000000000815260206004820152601660248201527f524d3a20496e76616c6964206461746157616c6c657400000000000000000000604482015290519081900360640190fd5b5060240151600160a060020a0391821691161490565b600192915050565b60008083118015611a145750600182115b8015611abd575082840285600160a060020a0316311080611abd5750604080517fd6eb1bbf0000000000000000000000000000000000000000000000000000000081523060048201529051600160a060020a0387169163d6eb1bbf916024808301926020929190829003018186803b158015611a8f57600080fd5b505afa158015611aa3573d6000803e3d6000fd5b505050506040513d6020811015611ab957600080fd5b5051155b15611aca57506000611968565b506001949350505050565b600080611ae484846000611bde565b9050611af08682611468565b9695505050505050565b61726c8501600085118015611b0f5750600183115b8015611b1b5750838111155b15610cc2573a851115611b2f573a02611b32565b84025b611b4e8783836020604051908101604052806000815250611573565b5050505050505050565b600160a060020a0382166000908152600260205260408120548211611b7f57506000611502565b7001000000000000000000000000000000006fffffffffffffffffffffffffffffffff198316044361271001811115611bbc576000915050611502565b5050600160a060020a0391909116600090815260026020526040902055600190565b6041808202830160208101516040820151919092015160009260ff9190911691601b831480611c1057508260ff16601c145b1515611c1b57600080fd5b604080516000815260208082018084528a905260ff8616828401526060820185905260808201849052915160019260a0808401939192601f1981019281900390910190855afa158015611c72573d6000803e3d6000fd5b5050604051601f1901519897505050505050505056fe524d3a207468652077616c6c657420617574686f72697a656420697320646966666572656e74207468656e2074686520746172676574206f66207468652072656c61796564206461746154453a20736f75726365206f722064657374696e6174696f6e206d75737420626520455448424d3a206d75737420626520616e206f776e657220666f72207468652077616c6c6574a165627a7a723058208886ca03c48d0ebee700c6ce36d0e03120ad7462ea0da1443983ba9b0064a3f40029",
  "source": "// Copyright (C) 2018  Argent Labs Ltd. <https://argent.xyz>\n\n// This program is free software: you can redistribute it and/or modify\n// it under the terms of the GNU General Public License as published by\n// the Free Software Foundation, either version 3 of the License, or\n// (at your option) any later version.\n\n// This program is distributed in the hope that it will be useful,\n// but WITHOUT ANY WARRANTY; without even the implied warranty of\n// MERCHANTABILITY or FITNESS FOR A PARTICULAR PURPOSE.  See the\n// GNU General Public License for more details.\n\n// You should have received a copy of the GNU General Public License\n// along with this program.  If not, see <http://www.gnu.org/licenses/>.\n\npragma solidity ^0.5.4;\nimport \"../wallet/BaseWallet.sol\";\nimport \"./common/BaseModule.sol\";\nimport \"./common/RelayerModule.sol\";\nimport \"./common/OnlyOwnerModule.sol\";\nimport \"../../lib/utils/SafeMath.sol\";\nimport \"../exchange/ERC20.sol\";\nimport \"../exchange/KyberNetwork.sol\";\n\n/**\n * @title TokenExchanger\n * @dev Module to trade tokens (ETH or ERC20) using KyberNetworks.\n * @author Julien Niset - <julien@argent.im>\n */\ncontract TokenExchanger is BaseModule, RelayerModule, OnlyOwnerModule {\n\n    bytes32 constant NAME = \"TokenExchanger\";\n\n    using SafeMath for uint256;\n\n    // Mock token address for ETH\n    address constant internal ETH_TOKEN_ADDRESS = 0xEeeeeEeeeEeEeeEeEeEeeEEEeeeeEeeeeeeeEEeE;\n\n    // The address of the KyberNetwork proxy contract\n    address public kyber;\n    // The address of the contract collecting fees for Argent.\n    address public feeCollector;\n    // The Argent fee in 1-per-10000.\n    uint256 public feeRatio;\n\n    event TokenExchanged(address indexed wallet, address srcToken, uint srcAmount, address destToken, uint destAmount);\n\n    constructor(\n        ModuleRegistry _registry,\n        GuardianStorage _guardianStorage,\n        address _kyber,\n        address _feeCollector,\n        uint _feeRatio\n    )\n        BaseModule(_registry, _guardianStorage, NAME)\n        public\n    {\n        kyber = _kyber;\n        feeCollector = _feeCollector;\n        feeRatio = _feeRatio;\n    }\n\n    /**\n     * @dev Lets the owner of the wallet execute a trade.\n     * @param _wallet The target wallet\n     * @param _srcToken The address of the source token.\n     * @param _srcAmount The amoutn of source token to trade.\n     * @param _destToken The address of the destination token.\n     * @param _maxDestAmount The maximum amount of destination token accepted for the trade.\n     * @param _minConversionRate The minimum accepted rate for the trade.\n     * @return The amount of destination tokens that have been received.\n     */\n    function trade(\n        BaseWallet _wallet,\n        address _srcToken,\n        uint256 _srcAmount,\n        address _destToken,\n        uint256 _maxDestAmount,\n        uint256 _minConversionRate\n    )\n        external\n        onlyWalletOwner(_wallet)\n        onlyWhenUnlocked(_wallet)\n        returns(uint256)\n    {\n        bytes memory methodData;\n        require(_srcToken == ETH_TOKEN_ADDRESS || _destToken == ETH_TOKEN_ADDRESS, \"TE: source or destination must be ETH\");\n        (uint256 destAmount, uint256 fee, ) = getExpectedTrade(_srcToken, _destToken, _srcAmount);\n        if (destAmount > _maxDestAmount) {\n            fee = fee.mul(_maxDestAmount).div(destAmount);\n            destAmount = _maxDestAmount;\n        }\n        if (_srcToken == ETH_TOKEN_ADDRESS) {\n            uint256 srcTradable = _srcAmount.sub(fee);\n            methodData = abi.encodeWithSignature(\n                \"trade(address,uint256,address,address,uint256,uint256,address)\",\n                _srcToken,\n                srcTradable,\n                _destToken,\n                address(_wallet),\n                _maxDestAmount,\n                _minConversionRate,\n                feeCollector\n                );\n            invokeWallet(address(_wallet), kyber, srcTradable, methodData);\n        } else {\n            // approve kyber on erc20\n            methodData = abi.encodeWithSignature(\"approve(address,uint256)\", kyber, _srcAmount);\n            invokeWallet(address(_wallet), _srcToken, 0, methodData);\n            // transfer erc20\n            methodData = abi.encodeWithSignature(\n                \"trade(address,uint256,address,address,uint256,uint256,address)\",\n                _srcToken,\n                _srcAmount,\n                _destToken,\n                address(_wallet),\n                _maxDestAmount,\n                _minConversionRate,\n                feeCollector\n                );\n            invokeWallet(address(_wallet), kyber, 0, methodData);\n        }\n\n        if (fee > 0) {\n            invokeWallet(address(_wallet), feeCollector, fee, \"\");\n        }\n        emit TokenExchanged(address(_wallet), _srcToken, _srcAmount, _destToken, destAmount);\n        return destAmount;\n    }\n\n    /**\n     * @dev Gets the expected terms of a trade.\n     * @param _srcToken The address of the source token.\n     * @param _destToken The address of the destination token.\n     * @param _srcAmount The amount of source token to trade.\n     * @return the amount of destination tokens to be received and the amount of ETH paid to Argent as fee.\n     */\n    function getExpectedTrade(\n        address _srcToken,\n        address _destToken,\n        uint256 _srcAmount\n    )\n        public\n        view\n        returns(uint256 _destAmount, uint256 _fee, uint256 _expectedRate)\n    {\n        if (_srcToken == ETH_TOKEN_ADDRESS) {\n            _fee = computeFee(_srcAmount);\n            (_expectedRate,) = KyberNetwork(kyber).getExpectedRate(ERC20(_srcToken), ERC20(_destToken), _srcAmount.sub(_fee));\n            uint256 destDecimals = ERC20(_destToken).decimals();\n            // destAmount = expectedRate * (_srcAmount - fee) / ETH_PRECISION * (DEST_PRECISION / SRC_PRECISION)\n            _destAmount = _expectedRate.mul(_srcAmount.sub(_fee)).div(10 ** (36-destDecimals));\n        } else {\n            (_expectedRate,) = KyberNetwork(kyber).getExpectedRate(ERC20(_srcToken), ERC20(_destToken), _srcAmount);\n            uint256 srcDecimals = ERC20(_srcToken).decimals();\n            // destAmount = expectedRate * _srcAmount / ETH_PRECISION * (DEST_PRECISION / SRC_PRECISION) - fee\n            _destAmount = _expectedRate.mul(_srcAmount).div(10 ** srcDecimals);\n            _fee = computeFee(_destAmount);\n            _destAmount -= _fee;\n        }\n    }\n\n    /**\n     * @dev Computes the Argent fee based on the amount of source tokens in ETH.\n     * @param _srcAmount The amount of source token to trade in ETH.\n     * @return the fee paid to Argent.\n     */\n    function computeFee(uint256 _srcAmount) internal view returns (uint256 fee) {\n        fee = (_srcAmount * feeRatio) / 10000;\n    }\n}",
  "sourcePath": "/Users/name/dev/argent-contracts-release-1.5.0/contracts/modules/TokenExchanger.sol",
  "compiler": {
    "name": "solc",
    "version": "0.5.4+commit.9549d8ff.Emscripten.clang",
    "optimizer": true,
    "runs": 999
  },
  "schemaVersion": "2.3.1",
  "updatedAt": "2020-04-01T15:58:47.486Z"
}