{
  "contractName": "TransferManager",
  "abi": [
    {
      "constant": true,
      "inputs": [],
      "name": "securityWindow",
      "outputs": [
        {
          "name": "",
          "type": "uint256"
        }
      ],
      "payable": false,
      "stateMutability": "view",
      "type": "function"
    },
    {
      "constant": true,
      "inputs": [
        {
          "name": "_wallet",
          "type": "address"
        }
      ],
      "name": "getNonce",
      "outputs": [
        {
          "name": "nonce",
          "type": "uint256"
        }
      ],
      "payable": false,
      "stateMutability": "view",
      "type": "function"
    },
    {
      "constant": true,
      "inputs": [
        {
          "name": "_wallet",
          "type": "address"
        }
      ],
      "name": "getCurrentLimit",
      "outputs": [
        {
          "name": "_currentLimit",
          "type": "uint256"
        }
      ],
      "payable": false,
      "stateMutability": "view",
      "type": "function"
    },
    {
      "constant": false,
      "inputs": [
        {
          "name": "_wallet",
          "type": "address"
        },
        {
          "name": "_module",
          "type": "address"
        }
      ],
      "name": "addModule",
      "outputs": [],
      "payable": false,
      "stateMutability": "nonpayable",
      "type": "function"
    },
    {
      "constant": true,
      "inputs": [
        {
          "name": "_wallet",
          "type": "address"
        }
      ],
      "name": "getDailyUnspent",
      "outputs": [
        {
          "name": "_unspent",
          "type": "uint256"
        },
        {
          "name": "_periodEnd",
          "type": "uint64"
        }
      ],
      "payable": false,
      "stateMutability": "view",
      "type": "function"
    },
    {
      "constant": true,
      "inputs": [],
      "name": "securityPeriod",
      "outputs": [
        {
          "name": "",
          "type": "uint256"
        }
      ],
      "payable": false,
      "stateMutability": "view",
      "type": "function"
    },
    {
      "constant": true,
      "inputs": [],
      "name": "oldLimitManager",
      "outputs": [
        {
          "name": "",
          "type": "address"
        }
      ],
      "payable": false,
      "stateMutability": "view",
      "type": "function"
    },
    {
      "constant": true,
      "inputs": [],
      "name": "transferStorage",
      "outputs": [
        {
          "name": "",
          "type": "address"
        }
      ],
      "payable": false,
      "stateMutability": "view",
      "type": "function"
    },
    {
      "constant": false,
      "inputs": [
        {
          "name": "_token",
          "type": "address"
        }
      ],
      "name": "recoverToken",
      "outputs": [],
      "payable": false,
      "stateMutability": "nonpayable",
      "type": "function"
    },
    {
      "constant": true,
      "inputs": [
        {
          "name": "_wallet",
          "type": "address"
        }
      ],
      "name": "getPendingLimit",
      "outputs": [
        {
          "name": "_pendingLimit",
          "type": "uint256"
        },
        {
          "name": "_changeAfter",
          "type": "uint64"
        }
      ],
      "payable": false,
      "stateMutability": "view",
      "type": "function"
    },
    {
      "constant": false,
      "inputs": [
        {
          "name": "_wallet",
          "type": "address"
        },
        {
          "name": "_data",
          "type": "bytes"
        },
        {
          "name": "_nonce",
          "type": "uint256"
        },
        {
          "name": "_signatures",
          "type": "bytes"
        },
        {
          "name": "_gasPrice",
          "type": "uint256"
        },
        {
          "name": "_gasLimit",
          "type": "uint256"
        }
      ],
      "name": "execute",
      "outputs": [
        {
          "name": "success",
          "type": "bool"
        }
      ],
      "payable": false,
      "stateMutability": "nonpayable",
      "type": "function"
    },
    {
      "constant": true,
      "inputs": [],
      "name": "priceProvider",
      "outputs": [
        {
          "name": "",
          "type": "address"
        }
      ],
      "payable": false,
      "stateMutability": "view",
      "type": "function"
    },
    {
      "constant": true,
      "inputs": [
        {
          "name": "",
          "type": "address"
        }
      ],
      "name": "relayer",
      "outputs": [
        {
          "name": "nonce",
          "type": "uint256"
        }
      ],
      "payable": false,
      "stateMutability": "view",
      "type": "function"
    },
    {
      "constant": true,
      "inputs": [],
      "name": "isOnlyOwnerModule",
      "outputs": [
        {
          "name": "",
          "type": "bytes4"
        }
      ],
      "payable": false,
      "stateMutability": "pure",
      "type": "function"
    },
    {
      "constant": true,
      "inputs": [],
      "name": "defaultLimit",
      "outputs": [
        {
          "name": "",
          "type": "uint256"
        }
      ],
      "payable": false,
      "stateMutability": "view",
      "type": "function"
    },
    {
      "constant": true,
      "inputs": [
        {
          "name": "_wallet",
          "type": "address"
        }
      ],
      "name": "isLimitDisabled",
      "outputs": [
        {
          "name": "_limitDisabled",
          "type": "bool"
        }
      ],
      "payable": false,
      "stateMutability": "view",
      "type": "function"
    },
    {
      "inputs": [
        {
          "name": "_registry",
          "type": "address"
        },
        {
          "name": "_transferStorage",
          "type": "address"
        },
        {
          "name": "_guardianStorage",
          "type": "address"
        },
        {
          "name": "_priceProvider",
          "type": "address"
        },
        {
          "name": "_securityPeriod",
          "type": "uint256"
        },
        {
          "name": "_securityWindow",
          "type": "uint256"
        },
        {
          "name": "_defaultLimit",
          "type": "uint256"
        },
        {
          "name": "_oldLimitManager",
          "type": "address"
        }
      ],
      "payable": false,
      "stateMutability": "nonpayable",
      "type": "constructor"
    },
    {
      "anonymous": false,
      "inputs": [
        {
          "indexed": true,
          "name": "wallet",
          "type": "address"
        },
        {
          "indexed": true,
          "name": "target",
          "type": "address"
        },
        {
          "indexed": false,
          "name": "whitelistAfter",
          "type": "uint64"
        }
      ],
      "name": "AddedToWhitelist",
      "type": "event"
    },
    {
      "anonymous": false,
      "inputs": [
        {
          "indexed": true,
          "name": "wallet",
          "type": "address"
        },
        {
          "indexed": true,
          "name": "target",
          "type": "address"
        }
      ],
      "name": "RemovedFromWhitelist",
      "type": "event"
    },
    {
      "anonymous": false,
      "inputs": [
        {
          "indexed": true,
          "name": "wallet",
          "type": "address"
        },
        {
          "indexed": true,
          "name": "id",
          "type": "bytes32"
        },
        {
          "indexed": true,
          "name": "executeAfter",
          "type": "uint256"
        },
        {
          "indexed": false,
          "name": "token",
          "type": "address"
        },
        {
          "indexed": false,
          "name": "to",
          "type": "address"
        },
        {
          "indexed": false,
          "name": "amount",
          "type": "uint256"
        },
        {
          "indexed": false,
          "name": "data",
          "type": "bytes"
        }
      ],
      "name": "PendingTransferCreated",
      "type": "event"
    },
    {
      "anonymous": false,
      "inputs": [
        {
          "indexed": true,
          "name": "wallet",
          "type": "address"
        },
        {
          "indexed": true,
          "name": "id",
          "type": "bytes32"
        }
      ],
      "name": "PendingTransferExecuted",
      "type": "event"
    },
    {
      "anonymous": false,
      "inputs": [
        {
          "indexed": true,
          "name": "wallet",
          "type": "address"
        },
        {
          "indexed": true,
          "name": "id",
          "type": "bytes32"
        }
      ],
      "name": "PendingTransferCanceled",
      "type": "event"
    },
    {
      "anonymous": false,
      "inputs": [
        {
          "indexed": true,
          "name": "wallet",
          "type": "address"
        },
        {
          "indexed": true,
          "name": "newLimit",
          "type": "uint256"
        },
        {
          "indexed": true,
          "name": "startAfter",
          "type": "uint64"
        }
      ],
      "name": "LimitChanged",
      "type": "event"
    },
    {
      "anonymous": false,
      "inputs": [
        {
          "indexed": true,
          "name": "wallet",
          "type": "address"
        },
        {
          "indexed": true,
          "name": "token",
          "type": "address"
        },
        {
          "indexed": true,
          "name": "amount",
          "type": "uint256"
        },
        {
          "indexed": false,
          "name": "to",
          "type": "address"
        },
        {
          "indexed": false,
          "name": "data",
          "type": "bytes"
        }
      ],
      "name": "Transfer",
      "type": "event"
    },
    {
      "anonymous": false,
      "inputs": [
        {
          "indexed": true,
          "name": "wallet",
          "type": "address"
        },
        {
          "indexed": true,
          "name": "token",
          "type": "address"
        },
        {
          "indexed": false,
          "name": "amount",
          "type": "uint256"
        },
        {
          "indexed": false,
          "name": "spender",
          "type": "address"
        }
      ],
      "name": "Approved",
      "type": "event"
    },
    {
      "anonymous": false,
      "inputs": [
        {
          "indexed": true,
          "name": "wallet",
          "type": "address"
        },
        {
          "indexed": true,
          "name": "to",
          "type": "address"
        },
        {
          "indexed": false,
          "name": "amount",
          "type": "uint256"
        },
        {
          "indexed": false,
          "name": "data",
          "type": "bytes"
        }
      ],
      "name": "CalledContract",
      "type": "event"
    },
    {
      "anonymous": false,
      "inputs": [
        {
          "indexed": true,
          "name": "wallet",
          "type": "address"
        },
        {
          "indexed": true,
          "name": "success",
          "type": "bool"
        },
        {
          "indexed": false,
          "name": "signedHash",
          "type": "bytes32"
        }
      ],
      "name": "TransactionExecuted",
      "type": "event"
    },
    {
      "anonymous": false,
      "inputs": [
        {
          "indexed": false,
          "name": "name",
          "type": "bytes32"
        }
      ],
      "name": "ModuleCreated",
      "type": "event"
    },
    {
      "anonymous": false,
      "inputs": [
        {
          "indexed": false,
          "name": "wallet",
          "type": "address"
        }
      ],
      "name": "ModuleInitialised",
      "type": "event"
    },
    {
      "constant": false,
      "inputs": [
        {
          "name": "_wallet",
          "type": "address"
        }
      ],
      "name": "init",
      "outputs": [],
      "payable": false,
      "stateMutability": "nonpayable",
      "type": "function"
    },
    {
      "constant": false,
      "inputs": [
        {
          "name": "_wallet",
          "type": "address"
        },
        {
          "name": "_token",
          "type": "address"
        },
        {
          "name": "_to",
          "type": "address"
        },
        {
          "name": "_amount",
          "type": "uint256"
        },
        {
          "name": "_data",
          "type": "bytes"
        }
      ],
      "name": "transferToken",
      "outputs": [],
      "payable": false,
      "stateMutability": "nonpayable",
      "type": "function"
    },
    {
      "constant": false,
      "inputs": [
        {
          "name": "_wallet",
          "type": "address"
        },
        {
          "name": "_token",
          "type": "address"
        },
        {
          "name": "_spender",
          "type": "address"
        },
        {
          "name": "_amount",
          "type": "uint256"
        }
      ],
      "name": "approveToken",
      "outputs": [],
      "payable": false,
      "stateMutability": "nonpayable",
      "type": "function"
    },
    {
      "constant": false,
      "inputs": [
        {
          "name": "_wallet",
          "type": "address"
        },
        {
          "name": "_contract",
          "type": "address"
        },
        {
          "name": "_value",
          "type": "uint256"
        },
        {
          "name": "_data",
          "type": "bytes"
        }
      ],
      "name": "callContract",
      "outputs": [],
      "payable": false,
      "stateMutability": "nonpayable",
      "type": "function"
    },
    {
      "constant": false,
      "inputs": [
        {
          "name": "_wallet",
          "type": "address"
        },
        {
          "name": "_token",
          "type": "address"
        },
        {
          "name": "_contract",
          "type": "address"
        },
        {
          "name": "_amount",
          "type": "uint256"
        },
        {
          "name": "_data",
          "type": "bytes"
        }
      ],
      "name": "approveTokenAndCallContract",
      "outputs": [],
      "payable": false,
      "stateMutability": "nonpayable",
      "type": "function"
    },
    {
      "constant": false,
      "inputs": [
        {
          "name": "_wallet",
          "type": "address"
        },
        {
          "name": "_target",
          "type": "address"
        }
      ],
      "name": "addToWhitelist",
      "outputs": [],
      "payable": false,
      "stateMutability": "nonpayable",
      "type": "function"
    },
    {
      "constant": false,
      "inputs": [
        {
          "name": "_wallet",
          "type": "address"
        },
        {
          "name": "_target",
          "type": "address"
        }
      ],
      "name": "removeFromWhitelist",
      "outputs": [],
      "payable": false,
      "stateMutability": "nonpayable",
      "type": "function"
    },
    {
      "constant": false,
      "inputs": [
        {
          "name": "_wallet",
          "type": "address"
        },
        {
          "name": "_token",
          "type": "address"
        },
        {
          "name": "_to",
          "type": "address"
        },
        {
          "name": "_amount",
          "type": "uint256"
        },
        {
          "name": "_data",
          "type": "bytes"
        },
        {
          "name": "_block",
          "type": "uint256"
        }
      ],
      "name": "executePendingTransfer",
      "outputs": [],
      "payable": false,
      "stateMutability": "nonpayable",
      "type": "function"
    },
    {
      "constant": false,
      "inputs": [
        {
          "name": "_wallet",
          "type": "address"
        },
        {
          "name": "_id",
          "type": "bytes32"
        }
      ],
      "name": "cancelPendingTransfer",
      "outputs": [],
      "payable": false,
      "stateMutability": "nonpayable",
      "type": "function"
    },
    {
      "constant": false,
      "inputs": [
        {
          "name": "_wallet",
          "type": "address"
        },
        {
          "name": "_newLimit",
          "type": "uint256"
        }
      ],
      "name": "changeLimit",
      "outputs": [],
      "payable": false,
      "stateMutability": "nonpayable",
      "type": "function"
    },
    {
      "constant": false,
      "inputs": [
        {
          "name": "_wallet",
          "type": "address"
        }
      ],
      "name": "disableLimit",
      "outputs": [],
      "payable": false,
      "stateMutability": "nonpayable",
      "type": "function"
    },
    {
      "constant": true,
      "inputs": [
        {
          "name": "_wallet",
          "type": "address"
        },
        {
          "name": "_target",
          "type": "address"
        }
      ],
      "name": "isWhitelisted",
      "outputs": [
        {
          "name": "_isWhitelisted",
          "type": "bool"
        }
      ],
      "payable": false,
      "stateMutability": "view",
      "type": "function"
    },
    {
      "constant": true,
      "inputs": [
        {
          "name": "_wallet",
          "type": "address"
        },
        {
          "name": "_id",
          "type": "bytes32"
        }
      ],
      "name": "getPendingTransfer",
      "outputs": [
        {
          "name": "_executeAfter",
          "type": "uint64"
        }
      ],
      "payable": false,
      "stateMutability": "view",
      "type": "function"
    },
    {
      "constant": true,
      "inputs": [
        {
          "name": "_msgHash",
          "type": "bytes32"
        },
        {
          "name": "_signature",
          "type": "bytes"
        }
      ],
      "name": "isValidSignature",
      "outputs": [
        {
          "name": "",
          "type": "bytes4"
        }
      ],
      "payable": false,
      "stateMutability": "view",
      "type": "function"
    },
    {
      "constant": true,
      "inputs": [
        {
          "name": "_data",
          "type": "bytes"
        },
        {
          "name": "_signature",
          "type": "bytes"
        }
      ],
      "name": "isValidSignature",
      "outputs": [
        {
          "name": "",
          "type": "bytes4"
        }
      ],
      "payable": false,
      "stateMutability": "view",
      "type": "function"
    }
  ],
  "bytecode": "0x608060405234801561001057600080fd5b506040516101008062004aea833981018060405261010081101561003357600080fd5b5080516020808301516040808501516060860151608087015160a088015160c089015160e09099015160008054600160a060020a03808c16600160a060020a031992831617909255600180549288169290911691909117905585517f5472616e736665724d616e6167657200000000000000000000000000000000008082529651999a979995989497939692959394919385938c938b9391927f3019c8fc80239e3dff8f781212ae2004839c2cb61d6c70acd279ac65392145df9281900390910190a150505060045560088054600160a060020a03988916600160a060020a031991821617909155600980549689169682169690961790955560069390935550600755600a805491909416911617909155505061499480620001566000396000f3fe608060405234801561001057600080fd5b5060043610610201576000357c010000000000000000000000000000000000000000000000000000000090048063961bfeee1161012c578063b888879e116100bf578063e26b013b1161008e578063e26b013b1461097b578063f8d3277d14610983578063f9f6499e146109b1578063fd6ac309146109d757610201565b8063b888879e146108fc578063c9b5ef8e14610904578063d490da4d1461092a578063e1ee38ec1461093257610201565b8063aacaaf88116100fb578063aacaaf8814610786578063b20f3f3714610876578063b377a9d5146108a2578063b6b35272146108ce57610201565b8063961bfeee1461070c5780639be65a6014610714578063a0aec1051461073a578063a3411c0a1461076057610201565b80632df546f4116101a45780635ed4bf81116101735780635ed4bf81146106005780637cb8f8ba146106985780637cc0d906146106e057806395813db4146106e857610201565b80632df546f4146104e657806343cd5c7e1461057e57806357518243146105a45780635a1db8c4146105d257610201565b80631626ba7e116101e05780631626ba7e146102f657806319ab453c146103d857806320c13b0b146103fe5780632d0335ab146104c057610201565b80626fda351461020657806309d22c8e1461022057806312ef080d146102ba575b600080fd5b61020e610a67565b60408051918252519081900360200190f35b6102b8600480360360a081101561023657600080fd5b600160a060020a03823581169260208101358216926040820135909216916060820135919081019060a08101608082013564010000000081111561027957600080fd5b82018360208201111561028b57600080fd5b803590602001918460018302840111640100000000831117156102ad57600080fd5b509092509050610a6d565b005b6102b8600480360360808110156102d057600080fd5b50600160a060020a03813581169160208101358216916040820135169060600135610e5f565b6103a36004803603604081101561030c57600080fd5b8135919081019060408101602082013564010000000081111561032e57600080fd5b82018360208201111561034057600080fd5b8035906020019184600183028401116401000000008311171561036257600080fd5b91908080601f016020809104026020016040519081016040528093929190818152602001838380828437600092019190915250929550611185945050505050565b604080517fffffffff000000000000000000000000000000000000000000000000000000009092168252519081900360200190f35b6102b8600480360360208110156103ee57600080fd5b5035600160a060020a031661128c565b6103a36004803603604081101561041457600080fd5b81019060208101813564010000000081111561042f57600080fd5b82018360208201111561044157600080fd5b8035906020019184600183028401116401000000008311171561046357600080fd5b91939092909160208101903564010000000081111561048157600080fd5b82018360208201111561049357600080fd5b803590602001918460018302840111640100000000831117156104b557600080fd5b509092509050611888565b61020e600480360360208110156104d657600080fd5b5035600160a060020a031661193c565b6102b8600480360360a08110156104fc57600080fd5b600160a060020a03823581169260208101358216926040820135909216916060820135919081019060a08101608082013564010000000081111561053f57600080fd5b82018360208201111561055157600080fd5b8035906020019184600183028401116401000000008311171561057357600080fd5b509092509050611957565b61020e6004803603602081101561059457600080fd5b5035600160a060020a0316611d02565b6102b8600480360360408110156105ba57600080fd5b50600160a060020a0381358116916020013516611d79565b6102b8600480360360408110156105e857600080fd5b50600160a060020a0381358116916020013516612010565b6102b8600480360360c081101561061657600080fd5b600160a060020a03823581169260208101358216926040820135909216916060820135919081019060a08101608082013564010000000081111561065957600080fd5b82018360208201111561066b57600080fd5b8035906020019184600183028401116401000000008311171561068d57600080fd5b9193509150356121cb565b6106be600480360360208110156106ae57600080fd5b5035600160a060020a0316612530565b6040805192835267ffffffffffffffff90911660208301528051918290030190f35b61020e6125ef565b6106f06125f5565b60408051600160a060020a039092168252519081900360200190f35b6106f0612604565b6102b86004803603602081101561072a57600080fd5b5035600160a060020a0316612613565b6106be6004803603602081101561075057600080fd5b5035600160a060020a0316612746565b6102b86004803603602081101561077657600080fd5b5035600160a060020a03166127c2565b610862600480360360c081101561079c57600080fd5b600160a060020a0382351691908101906040810160208201356401000000008111156107c757600080fd5b8201836020820111156107d957600080fd5b803590602001918460018302840111640100000000831117156107fb57600080fd5b9193909282359260408101906020013564010000000081111561081d57600080fd5b82018360208201111561082f57600080fd5b8035906020019184600183028401116401000000008311171561085157600080fd5b919350915080359060200135612911565b604080519115158252519081900360200190f35b6102b86004803603604081101561088c57600080fd5b50600160a060020a038135169060200135612bef565b6102b8600480360360408110156108b857600080fd5b50600160a060020a038135169060200135612d3a565b610862600480360360408110156108e457600080fd5b50600160a060020a0381358116916020013516612f45565b6106f0612ff7565b61020e6004803603602081101561091a57600080fd5b5035600160a060020a0316613006565b6103a3613018565b61095e6004803603604081101561094857600080fd5b50600160a060020a03813516906020013561303c565b6040805167ffffffffffffffff9092168252519081900360200190f35b61020e613063565b6102b86004803603604081101561099957600080fd5b50600160a060020a0381358116916020013516613069565b610862600480360360208110156109c757600080fd5b5035600160a060020a03166132d1565b6102b8600480360360808110156109ed57600080fd5b600160a060020a03823581169260208101359091169160408201359190810190608081016060820135640100000000811115610a2857600080fd5b820183602082011115610a3a57600080fd5b80359060200191846001830284011164010000000083111715610a5c57600080fd5b5090925090506132f6565b60075481565b8533301480610a815750610a81813361351b565b1515610ac15760405160e560020a62461bcd0281526004018080602001828103825260238152602001806149466023913960400191505060405180910390fd5b600154604080517f4a4fbeec000000000000000000000000000000000000000000000000000000008152600160a060020a03808b16600483015291518a939290921691634a4fbeec91602480820192602092909190829003018186803b158015610b2a57600080fd5b505afa158015610b3e573d6000803e3d6000fd5b505050506040513d6020811015610b5457600080fd5b505115610bab576040805160e560020a62461bcd02815260206004820152601b60248201527f424d3a2077616c6c6574206d75737420626520756e6c6f636b65640000000000604482015290519081900360640190fd5b610bb588876135b9565b610bbf8887612f45565b15610c1857610bd088888888613775565b610c138887600087878080601f01602080910402602001604051908101604052809392919081815260200183838082843760009201919091525061384992505050565b610e55565b604080517fdd62ed3e000000000000000000000000000000000000000000000000000000008152600160a060020a038a81166004830152888116602483015291516000928a169163dd62ed3e916044808301926020929190829003018186803b158015610c8457600080fd5b505afa158015610c98573d6000803e3d6000fd5b505050506040513d6020811015610cae57600080fd5b50519050808611610d0157610cfc8988600088888080601f01602080910402602001604051908101604052809392919081815260200183838082843760009201919091525061384992505050565b610e53565b600954604080517fce55c85200000000000000000000000000000000000000000000000000000000815283890360048201819052600160a060020a038c8116602484015292519093600093169163ce55c852916044808301926020929190829003018186803b158015610d7357600080fd5b505afa158015610d87573d6000803e3d6000fd5b505050506040513d6020811015610d9d57600080fd5b50519050610dab8b82613911565b1515610e01576040805160e560020a62461bcd02815260206004820152601d60248201527f544d3a20417070726f76652061626f7665206461696c79206c696d6974000000604482015290519081900360640190fd5b610e0d8b8b8b8b613775565b610e508b8a60008a8a8080601f01602080910402602001604051908101604052809392919081815260200183838082843760009201919091525061384992505050565b50505b505b5050505050505050565b8333301480610e735750610e73813361351b565b1515610eb35760405160e560020a62461bcd0281526004018080602001828103825260238152602001806149466023913960400191505060405180910390fd5b600154604080517f4a4fbeec000000000000000000000000000000000000000000000000000000008152600160a060020a038089166004830152915188939290921691634a4fbeec91602480820192602092909190829003018186803b158015610f1c57600080fd5b505afa158015610f30573d6000803e3d6000fd5b505050506040513d6020811015610f4657600080fd5b505115610f9d576040805160e560020a62461bcd02815260206004820152601b60248201527f424d3a2077616c6c6574206d75737420626520756e6c6f636b65640000000000604482015290519081900360640190fd5b610fa78685612f45565b15610fbd57610fb886868686613775565b61117d565b604080517fdd62ed3e000000000000000000000000000000000000000000000000000000008152600160a060020a0388811660048301528681166024830152915160009288169163dd62ed3e916044808301926020929190829003018186803b15801561102957600080fd5b505afa15801561103d573d6000803e3d6000fd5b505050506040513d602081101561105357600080fd5b5051905080841161106f5761106a87878787613775565b61117b565b600954604080517fce55c85200000000000000000000000000000000000000000000000000000000815283870360048201819052600160a060020a038a8116602484015292519093600093169163ce55c852916044808301926020929190829003018186803b1580156110e157600080fd5b505afa1580156110f5573d6000803e3d6000fd5b505050506040513d602081101561110b57600080fd5b505190506111198982613911565b151561116f576040805160e560020a62461bcd02815260206004820152601d60248201527f544d3a20417070726f76652061626f7665206461696c79206c696d6974000000604482015290519081900360640190fd5b610e5389898989613775565b505b505050505050565b80516000906041146111e1576040805160e560020a62461bcd02815260206004820152601c60248201527f544d3a20696e76616c6964207369676e6174757265206c656e67746800000000604482015290519081900360640190fd5b60006111ef848460006139c8565b90506111fb338261351b565b1515611251576040805160e560020a62461bcd02815260206004820152601260248201527f544d3a20496e76616c6964207369676e65720000000000000000000000000000604482015290519081900360640190fd5b5050604080517f697356616c69645369676e617475726528627974657333322c627974657329008152905190819003601f0190205b92915050565b8033600160a060020a038216146112ed576040805160e560020a62461bcd02815260206004820152601960248201527f424d3a2063616c6c6572206d7573742062652077616c6c657400000000000000604482015290519081900360640190fd5b604080517f697356616c69645369676e61747572652862797465732c6279746573290000008152815190819003601d0181207f13da30b20000000000000000000000000000000000000000000000000000000082523060048301527fffffffff000000000000000000000000000000000000000000000000000000001660248201529051600160a060020a038416916313da30b291604480830192600092919082900301818387803b1580156113a257600080fd5b505af11580156113b6573d6000803e3d6000fd5b5050604080517f697356616c69645369676e617475726528627974657333322c627974657329008152815190819003601f0181207f13da30b20000000000000000000000000000000000000000000000000000000082523060048301527fffffffff000000000000000000000000000000000000000000000000000000001660248201529051600160a060020a03861693506313da30b29250604480830192600092919082900301818387803b15801561146f57600080fd5b505af1158015611483573d6000803e3d6000fd5b5050600a54600160a060020a0316151591506114a99050576114a482613a73565b611884565b600a54604080517f43cd5c7e000000000000000000000000000000000000000000000000000000008152600160a060020a038581166004830152915160009392909216916343cd5c7e91602480820192602092909190829003018186803b15801561151357600080fd5b505afa158015611527573d6000803e3d6000fd5b505050506040513d602081101561153d57600080fd5b5051600a54604080517fa0aec105000000000000000000000000000000000000000000000000000000008152600160a060020a03878116600483015282519495506000948594919091169263a0aec1059260248082019391829003018186803b1580156115a957600080fd5b505afa1580156115bd573d6000803e3d6000fd5b505050506040513d60408110156115d357600080fd5b5080516020909101519092509050821580156115f7575067ffffffffffffffff8116155b1561160d5761160585613a73565b505050611884565b8183141561165d57600160a060020a038516600090815260036020526040902080546fffffffffffffffffffffffffffffffff19166fffffffffffffffffffffffffffffffff851617905561170d565b604080516060810182526fffffffffffffffffffffffffffffffff8086168252848116602080840191825267ffffffffffffffff808716858701908152600160a060020a038c1660009081526003909352959091209351845492518416700100000000000000000000000000000000029084166fffffffffffffffffffffffffffffffff19909316929092179092161782559151600190910180549190921667ffffffffffffffff199091161790555b600a54604080517f7cb8f8ba000000000000000000000000000000000000000000000000000000008152600160a060020a03888116600483015282516000948594921692637cb8f8ba926024808301939192829003018186803b15801561177357600080fd5b505afa158015611787573d6000803e3d6000fd5b505050506040513d604081101561179d57600080fd5b50805160209091015190925090504267ffffffffffffffff8216111561117b5760408051808201909152806117d8878563ffffffff613b5116565b6fffffffffffffffffffffffffffffffff908116825267ffffffffffffffff938416602092830152600160a060020a038a166000908152600383526040902083516002909101805494909301516fffffffffffffffffffffffffffffffff199094169116177fffffffffffffffff0000000000000000ffffffffffffffffffffffffffffffff167001000000000000000000000000000000009290931691909102919091179055505050505b5050565b60008085856040516020018083838082843780830192505050925050506040516020818303038152906040528051906020012090506118fd8185858080601f01602080910402602001604051908101604052809392919081815260200183838082843760009201919091525061118592505050565b5050604080517f697356616c69645369676e61747572652862797465732c6279746573290000008152905190819003601d01902090505b949350505050565b600160a060020a031660009081526002602052604090205490565b853330148061196b575061196b813361351b565b15156119ab5760405160e560020a62461bcd0281526004018080602001828103825260238152602001806149466023913960400191505060405180910390fd5b600154604080517f4a4fbeec000000000000000000000000000000000000000000000000000000008152600160a060020a03808b16600483015291518a939290921691634a4fbeec91602480820192602092909190829003018186803b158015611a1457600080fd5b505afa158015611a28573d6000803e3d6000fd5b505050506040513d6020811015611a3e57600080fd5b505115611a95576040805160e560020a62461bcd02815260206004820152601b60248201527f424d3a2077616c6c6574206d75737420626520756e6c6f636b65640000000000604482015290519081900360640190fd5b611a9f8887612f45565b15611ae757610c138888888888888080601f016020809104026020016040519081016040528093929190818152602001838380828437600092019190915250613b6692505050565b6000600160a060020a03881673eeeeeeeeeeeeeeeeeeeeeeeeeeeeeeeeeeeeeeee14611bab57600954604080517fce55c85200000000000000000000000000000000000000000000000000000000815260048101899052600160a060020a038b811660248301529151919092169163ce55c852916044808301926020929190829003018186803b158015611b7a57600080fd5b505afa158015611b8e573d6000803e3d6000fd5b505050506040513d6020811015611ba457600080fd5b5051611bad565b855b9050611bb98982613911565b15611c0157610cfc8989898989898080601f016020809104026020016040519081016040528093929190818152602001838380828437600092019190915250613b6692505050565b600080611c4960008c8c8c8c8c8c8080601f016020809104026020016040519081016040528093929190818152602001838380828437600092019190915250613d0192505050565b9150915080828c600160a060020a03167fc63146cfd39cd6097f6e314e8595c4554faf95175b45c6215517903c12e765d98d8d8d8d8d6040518086600160a060020a0316600160a060020a0316815260200185600160a060020a0316600160a060020a03168152602001848152602001806020018281038252848482818152602001925080828437600083820152604051601f909101601f19169092018290039850909650505050505050a45050505050505050505050565b600160a060020a038116600090815260036020526040812080546001820154611d60916fffffffffffffffffffffffffffffffff80821692700100000000000000000000000000000000909204169067ffffffffffffffff16613ee7565b6fffffffffffffffffffffffffffffffff169392505050565b8133301480611d8d5750611d8d813361351b565b1515611dcd5760405160e560020a62461bcd0281526004018080602001828103825260238152602001806149466023913960400191505060405180910390fd5b600154604080517f4a4fbeec000000000000000000000000000000000000000000000000000000008152600160a060020a038087166004830152915186939290921691634a4fbeec91602480820192602092909190829003018186803b158015611e3657600080fd5b505afa158015611e4a573d6000803e3d6000fd5b505050506040513d6020811015611e6057600080fd5b505115611eb7576040805160e560020a62461bcd02815260206004820152601b60248201527f424d3a2077616c6c6574206d75737420626520756e6c6f636b65640000000000604482015290519081900360640190fd5b611ec18484612f45565b15611f16576040805160e560020a62461bcd02815260206004820152601e60248201527f54543a2074617267657420616c72656164792077686974656c69737465640000604482015290519081900360640190fd5b6000611f2d60065442613f1f90919063ffffffff16565b600854604080517f80bfbe68000000000000000000000000000000000000000000000000000000008152600160a060020a03898116600483015288811660248301526044820185905291519394509116916380bfbe689160648082019260009290919082900301818387803b158015611fa557600080fd5b505af1158015611fb9573d6000803e3d6000fd5b50506040805167ffffffffffffffff851681529051600160a060020a038089169450891692507f1f57f9641d3e8733ed672fef5ac85464bd7215ef2f21e83428e8408248b13dcd9181900360200190a35050505050565b81333014806120245750612024813361351b565b15156120645760405160e560020a62461bcd0281526004018080602001828103825260238152602001806149466023913960400191505060405180910390fd5b600054604080517f0bcd4ebb000000000000000000000000000000000000000000000000000000008152600160a060020a03858116600483015291519190921691630bcd4ebb916024808301926020929190829003018186803b1580156120ca57600080fd5b505afa1580156120de573d6000803e3d6000fd5b505050506040513d60208110156120f457600080fd5b5051151561214c576040805160e560020a62461bcd02815260206004820152601c60248201527f424d3a206d6f64756c65206973206e6f74207265676973746572656400000000604482015290519081900360640190fd5b604080517f1f17732d000000000000000000000000000000000000000000000000000000008152600160a060020a03848116600483015260016024830152915191851691631f17732d9160448082019260009290919082900301818387803b1580156121b757600080fd5b505af115801561117b573d6000803e3d6000fd5b600154604080517f4a4fbeec000000000000000000000000000000000000000000000000000000008152600160a060020a03808b16600483015291518a939290921691634a4fbeec91602480820192602092909190829003018186803b15801561223457600080fd5b505afa158015612248573d6000803e3d6000fd5b505050506040513d602081101561225e57600080fd5b5051156122b5576040805160e560020a62461bcd02815260206004820152601b60248201527f424d3a2077616c6c6574206d75737420626520756e6c6f636b65640000000000604482015290519081900360640190fd5b600080888888888888604051602001808860008111156122d157fe5b60ff167f010000000000000000000000000000000000000000000000000000000000000002815260010187600160a060020a0316600160a060020a03166c0100000000000000000000000002815260140186600160a060020a0316600160a060020a03166c01000000000000000000000000028152601401858152602001848480828437808301925050508281526020019750505050505050506040516020818303038152906040528051906020012090506000600560008b600160a060020a0316600160a060020a03168152602001908152602001600020600001600083815260200190815260200160002054905060008111151561241b576040805160e560020a62461bcd02815260206004820152601c60248201527f54543a20756e6b6e6f776e2070656e64696e67207472616e7366657200000000604482015290519081900360640190fd5b600061243260075483613f1f90919063ffffffff16565b90504282111580156124445750804211155b15156124845760405160e560020a62461bcd02815260040180806020018281038252602c81526020018061491a602c913960400191505060405180910390fd5b600160a060020a038b1660009081526005602090815260408083208684528252808320929092558151601f89018290048202810182019092528782526124ed918d918d918d918d91908d908d9081908401838280828437600092019190915250613b6692505050565b6040518390600160a060020a038d16907f53d984c4cd3917405bdcc3baabad7c1269dd3baf7c2c53ca571d8d7de9629bc990600090a35050505050505050505050565b600080600061253e84611d02565b600160a060020a0385166000908152600360205260409020600201805491925090700100000000000000000000000000000000900467ffffffffffffffff164211156125945781935042620151800192506125e8565b805467ffffffffffffffff70010000000000000000000000000000000082041693506fffffffffffffffffffffffffffffffff168211156125e85780546fffffffffffffffffffffffffffffffff16820393505b5050915091565b60065481565b600a54600160a060020a031681565b600854600160a060020a031681565b604080517f70a082310000000000000000000000000000000000000000000000000000000081523060048201529051600091600160a060020a038416916370a0823191602480820192602092909190829003018186803b15801561267657600080fd5b505afa15801561268a573d6000803e3d6000fd5b505050506040513d60208110156126a057600080fd5b505160008054604080517fa9059cbb000000000000000000000000000000000000000000000000000000008152600160a060020a0392831660048201526024810185905290519394509085169263a9059cbb92604480840193602093929083900390910190829087803b15801561271657600080fd5b505af115801561272a573d6000803e3d6000fd5b505050506040513d602081101561274057600080fd5b50505050565b600160a060020a0381166000908152600360205260408120600181015482919067ffffffffffffffff16421061277e576000806127b8565b805460018201547001000000000000000000000000000000009091046fffffffffffffffffffffffffffffffff169067ffffffffffffffff165b9250925050915091565b80333014806127d657506127d6813361351b565b15156128165760405160e560020a62461bcd0281526004018080602001828103825260238152602001806149466023913960400191505060405180910390fd5b600154604080517f4a4fbeec000000000000000000000000000000000000000000000000000000008152600160a060020a038086166004830152915185939290921691634a4fbeec91602480820192602092909190829003018186803b15801561287f57600080fd5b505afa158015612893573d6000803e3d6000fd5b505050506040513d60208110156128a957600080fd5b505115612900576040805160e560020a62461bcd02815260206004820152601b60248201527f424d3a2077616c6c6574206d75737420626520756e6c6f636b65640000000000604482015290519081900360640190fd5b61290c83600654613f31565b505050565b6000805a90506000612961308c60008d8d8080601f0160208091040260200160405190810160405280939291908181526020018383808284376000920191909152508f92508c91508b9050613f4c565b905061296e8b898361408f565b15156129c4576040805160e560020a62461bcd02815260206004820152601560248201527f524d3a204475706c696361746520726571756573740000000000000000000000604482015290519081900360640190fd5b612a048b8b8b8080601f01602080910402602001604051908101604052809392919081815260200183838082843760009201919091525061409b92505050565b1515612a445760405160e560020a62461bcd02815260040180806020018281038252604a8152602001806148ad604a913960600191505060405180910390fd5b6000612a868c8c8c8080601f01602080910402602001604051908101604052809392919081815260200183838082843760009201919091525061410f92505050565b905060418102871415612b9e57612a9f8c868884614117565b15612b9e57801580612b225750612b228c8c8c8080601f01602080910402602001604051908101604052809392919081815260200183838082843760009201919091525050604080516020601f8f018190048102820181019092528d815288935091508d908d908190840183828082843760009201919091525061420692505050565b15612b9e5730600160a060020a03168b8b604051808383808284376040519201945060009350909150508083038183865af19150503d8060008114612b83576040519150601f19603f3d011682016040523d82523d6000602084013e612b88565b606091505b505080945050612b9e8c5a85038888853361422b565b60408051838152905185151591600160a060020a038f16917f6bb0b384ce772133df63560651bc8c727c53306cec1d51e2cbf8ea35fb8f2ec19181900360200190a350505098975050505050505050565b8133301480612c035750612c03813361351b565b1515612c435760405160e560020a62461bcd0281526004018080602001828103825260238152602001806149466023913960400191505060405180910390fd5b600154604080517f4a4fbeec000000000000000000000000000000000000000000000000000000008152600160a060020a038087166004830152915186939290921691634a4fbeec91602480820192602092909190829003018186803b158015612cac57600080fd5b505afa158015612cc0573d6000803e3d6000fd5b505050506040513d6020811015612cd657600080fd5b505115612d2d576040805160e560020a62461bcd02815260206004820152601b60248201527f424d3a2077616c6c6574206d75737420626520756e6c6f636b65640000000000604482015290519081900360640190fd5b612740848460065461428a565b8133301480612d4e5750612d4e813361351b565b1515612d8e5760405160e560020a62461bcd0281526004018080602001828103825260238152602001806149466023913960400191505060405180910390fd5b600154604080517f4a4fbeec000000000000000000000000000000000000000000000000000000008152600160a060020a038087166004830152915186939290921691634a4fbeec91602480820192602092909190829003018186803b158015612df757600080fd5b505afa158015612e0b573d6000803e3d6000fd5b505050506040513d6020811015612e2157600080fd5b505115612e78576040805160e560020a62461bcd02815260206004820152601b60248201527f424d3a2077616c6c6574206d75737420626520756e6c6f636b65640000000000604482015290519081900360640190fd5b600160a060020a038416600090815260056020908152604080832086845290915281205411612ef1576040805160e560020a62461bcd02815260206004820152601a60248201527f54543a20756e6b6e6f776e2070656e64696e6720616374696f6e000000000000604482015290519081900360640190fd5b600160a060020a0384166000818152600560209081526040808320878452909152808220829055518592917f2914460f2e2359d06bcda666d815164a8e77d104644dfbe6360885abfa2da59c91a350505050565b600854604080517f13f4a0ea000000000000000000000000000000000000000000000000000000008152600160a060020a03858116600483015284811660248301529151600093849316916313f4a0ea916044808301926020929190829003018186803b158015612fb557600080fd5b505afa158015612fc9573d6000803e3d6000fd5b505050506040513d6020811015612fdf57600080fd5b50519050600081118015611934575042119392505050565b600954600160a060020a031681565b60026020526000908152604090205481565b7fd490da4d0000000000000000000000000000000000000000000000000000000090565b600160a060020a039091166000908152600560209081526040808320938352929052205490565b60045481565b813330148061307d575061307d813361351b565b15156130bd5760405160e560020a62461bcd0281526004018080602001828103825260238152602001806149466023913960400191505060405180910390fd5b600154604080517f4a4fbeec000000000000000000000000000000000000000000000000000000008152600160a060020a038087166004830152915186939290921691634a4fbeec91602480820192602092909190829003018186803b15801561312657600080fd5b505afa15801561313a573d6000803e3d6000fd5b505050506040513d602081101561315057600080fd5b5051156131a7576040805160e560020a62461bcd02815260206004820152601b60248201527f424d3a2077616c6c6574206d75737420626520756e6c6f636b65640000000000604482015290519081900360640190fd5b6131b18484612f45565b1515613207576040805160e560020a62461bcd02815260206004820152601a60248201527f54543a20746172676574206e6f742077686974656c6973746564000000000000604482015290519081900360640190fd5b600854604080517f80bfbe68000000000000000000000000000000000000000000000000000000008152600160a060020a038781166004830152868116602483015260006044830181905292519316926380bfbe689260648084019391929182900301818387803b15801561327b57600080fd5b505af115801561328f573d6000803e3d6000fd5b5050604051600160a060020a038087169350871691507fd288ab5da2e1f37cf384a1565a3f905ad289b092fbdd31950dbbfef148c04f8890600090a350505050565b6000806132dd83611d02565b6fffffffffffffffffffffffffffffffff149392505050565b843330148061330a575061330a813361351b565b151561334a5760405160e560020a62461bcd0281526004018080602001828103825260238152602001806149466023913960400191505060405180910390fd5b600154604080517f4a4fbeec000000000000000000000000000000000000000000000000000000008152600160a060020a03808a166004830152915189939290921691634a4fbeec91602480820192602092909190829003018186803b1580156133b357600080fd5b505afa1580156133c7573d6000803e3d6000fd5b505050506040513d60208110156133dd57600080fd5b505115613434576040805160e560020a62461bcd02815260206004820152601b60248201527f424d3a2077616c6c6574206d75737420626520756e6c6f636b65640000000000604482015290519081900360640190fd5b61343e87876135b9565b6134488787612f45565b1561348f5761106a87878787878080601f01602080910402602001604051908101604052809392919081815260200183838082843760009201919091525061384992505050565b6134998786613911565b15156134d95760405160e560020a62461bcd0281526004018080602001828103825260238152602001806148f76023913960400191505060405180910390fd5b61117b87878787878080601f01602080910402602001604051908101604052809392919081815260200183838082843760009201919091525061384992505050565b600081600160a060020a031683600160a060020a0316638da5cb5b6040518163ffffffff167c010000000000000000000000000000000000000000000000000000000002815260040160206040518083038186803b15801561357c57600080fd5b505afa158015613590573d6000803e3d6000fd5b505050506040513d60208110156135a657600080fd5b5051600160a060020a0316149392505050565b81600160a060020a031681600160a060020a031614158015613676575081600160a060020a031663d6eb1bbf826040518263ffffffff167c01000000000000000000000000000000000000000000000000000000000281526004018082600160a060020a0316600160a060020a0316815260200191505060206040518083038186803b15801561364857600080fd5b505afa15801561365c573d6000803e3d6000fd5b505050506040513d602081101561367257600080fd5b5051155b801561371f5750600954604080517f837479c9000000000000000000000000000000000000000000000000000000008152600160a060020a0384811660048301529151919092169163837479c9916024808301926020929190829003018186803b1580156136e357600080fd5b505afa1580156136f7573d6000803e3d6000fd5b505050506040513d602081101561370d57600080fd5b5051158061371f575061371f826132d1565b1515611884576040805160e560020a62461bcd02815260206004820152601660248201527f544d3a20466f7262696464656e20636f6e747261637400000000000000000000604482015290519081900360640190fd5b60408051600160a060020a038416602482015260448082018490528251808303909101815260649091019091526020810180517bffffffffffffffffffffffffffffffffffffffffffffffffffffffff167f095ea7b3000000000000000000000000000000000000000000000000000000001790526137f785856000846143e8565b5060408051838152600160a060020a038581166020830152825181881693918916927fdc47705473b4a899de6e16a740ecc86f2a65dc7dbb9eadd0a06ce5421a44e23092908290030190a35050505050565b613855848484846143e8565b5082600160a060020a031684600160a060020a03167fbfbd7fb6c6d7dd1ef01d18a7e98333f084363d82d5ce600328e8b941a53d665484846040518083815260200180602001828103825283818151815260200191508051906020019080838360005b838110156138d05781810151838201526020016138b8565b50505050905090810190601f1680156138fd5780820380516001836020036101000a031916815260200191505b50935050505060405180910390a350505050565b600081151561392257506001611286565b600160a060020a038316600090815260036020526040812080546001820154919291613983916fffffffffffffffffffffffffffffffff80821692700100000000000000000000000000000000909204169067ffffffffffffffff16613ee7565b90506139a285826fffffffffffffffffffffffffffffffff168661466b565b156139bd576139b285828661471d565b600192505050611286565b506000949350505050565b6041808202830160208101516040820151919092015160009260ff9190911691601b8314806139fa57508260ff16601c145b1515613a0557600080fd5b604080516000815260208082018084528a905260ff8616828401526060820185905260808201849052915160019260a0808401939192601f1981019281900390910190855afa158015613a5c573d6000803e3d6000fd5b5050506020604051035193505050505b9392505050565b8033600160a060020a03821614613ad4576040805160e560020a62461bcd02815260206004820152601960248201527f424d3a2063616c6c6572206d7573742062652077616c6c657400000000000000604482015290519081900360640190fd5b600160a060020a038216600090815260036020526040902080546fffffffffffffffffffffffffffffffff16158015613b195750600181015467ffffffffffffffff16155b1561290c5760045481546fffffffffffffffffffffffffffffffff19166fffffffffffffffffffffffffffffffff9091161790555050565b600082821115613b6057600080fd5b50900390565b600160a060020a03841673eeeeeeeeeeeeeeeeeeeeeeeeeeeeeeeeeeeeeeee1415613bad57613ba785848460206040519081016040528060008152506143e8565b50613c32565b60408051600160a060020a038516602482015260448082018590528251808303909101815260649091019091526020810180517bffffffffffffffffffffffffffffffffffffffffffffffffffffffff167fa9059cbb00000000000000000000000000000000000000000000000000000000179052613c2f86866000846143e8565b50505b8184600160a060020a031686600160a060020a03167fd5c97f2e041b2046be3b4337472f05720760a198f4d7d84980b7155eec7cca6f86856040518083600160a060020a0316600160a060020a0316815260200180602001828103825283818151815260200191508051906020019080838360005b83811015613cbf578181015183820152602001613ca7565b50505050905090810190601f168015613cec5780820380516001836020036101000a031916815260200191505b50935050505060405180910390a45050505050565b60008087868686864360405160200180876000811115613d1d57fe5b60ff167f010000000000000000000000000000000000000000000000000000000000000002815260010186600160a060020a0316600160a060020a03166c0100000000000000000000000002815260140185600160a060020a0316600160a060020a03166c0100000000000000000000000002815260140184815260200183805190602001908083835b60208310613dc65780518252601f199092019160209182019101613da7565b6001836020036101000a03801982511681845116808217855250505050505090500182815260200196505050505050506040516020818303038152906040528051906020012091506005600088600160a060020a0316600160a060020a031681526020019081526020016000206000016000838152602001908152602001600020546000141515613ea1576040805160e560020a62461bcd02815260206004820152601c60248201527f544d3a206475706c69636174652070656e64696e6720616374696f6e00000000604482015290519081900360640190fd5b600654613eb590429063ffffffff613f1f16565b600160a060020a0390971660009081526005602090815260408083208584529091529020879055509694955050505050565b6000808267ffffffffffffffff16118015613f0b5750428267ffffffffffffffff16105b15613f17575081613a6c565b509192915050565b600082820183811015613a6c57600080fd5b611884826fffffffffffffffffffffffffffffffff8361428a565b6040517f190000000000000000000000000000000000000000000000000000000000000060208083018281526000602185018190526c01000000000000000000000000600160a060020a03808e16820260228801528c16026036860152604a85018a90528851909485938d938d938d938d938d938d938d939192606a909201918701908083835b60208310613ff25780518252601f199092019160209182019101613fd3565b51815160209384036101000a600019018019909216911617905292019586525084810193909352506040808401919091528051808403820181526060840182528051908301207f19457468657265756d205369676e6564204d6573736167653a0a3332000000006080850152609c808501919091528151808503909101815260bc909301905281519101209e9d5050505050505050505050505050565b60006119348484614826565b600060248251101515156140f9576040805160e560020a62461bcd02815260206004820152601660248201527f524d3a20496e76616c6964206461746157616c6c657400000000000000000000604482015290519081900360640190fd5b5060240151600160a060020a0391821691161490565b600192915050565b600080831180156141285750600082115b80156141ee575082840285600160a060020a031631108061415b57506141598561415187611d02565b85870261466b565b155b806141ee5750604080517fd6eb1bbf0000000000000000000000000000000000000000000000000000000081523060048201529051600160a060020a0387169163d6eb1bbf916024808301926020929190829003018186803b1580156141c057600080fd5b505afa1580156141d4573d6000803e3d6000fd5b505050506040513d60208110156141ea57600080fd5b5051155b156141fb57506000611934565b506001949350505050565b600080614215848460006139c8565b9050614221868261351b565b9695505050505050565b618f0885016000851180156142405750600083115b801561424c5750838111155b1561117b573a851115614260573a02614263565b84025b61426d8782613911565b50610e5587838360206040519081016040528060008152506143e8565b600160a060020a0383166000908152600360205260408120600181015490919067ffffffffffffffff16811080156142d1575060018201544267ffffffffffffffff909116105b6142ee5781546fffffffffffffffffffffffffffffffff16614317565b815470010000000000000000000000000000000090046fffffffffffffffffffffffffffffffff165b82546fffffffffffffffffffffffffffffffff868116700100000000000000000000000000000000028184166fffffffffffffffffffffffffffffffff1990931692909217161783559050614372428463ffffffff613f1f16565b60018301805467ffffffffffffffff191667ffffffffffffffff929092169190911790556143a04284613f1f565b67ffffffffffffffff168486600160a060020a03167f8a747eae44b6307d1b112c127968367d02d9f52ffef8533b3e899983ff2b1d4a60405160405180910390a45050505050565b6060600085600160a060020a03168585856040516024018084600160a060020a0316600160a060020a0316815260200183815260200180602001828103825283818151815260200191508051906020019080838360005b8381101561445757818101518382015260200161443f565b50505050905090810190601f1680156144845780820380516001836020036101000a031916815260200191505b5060408051601f198184030181529181526020820180517bffffffffffffffffffffffffffffffffffffffffffffffffffffffff167f8f6f033200000000000000000000000000000000000000000000000000000000178152905182519297509550859450925090508083835b602083106145105780518252601f1990920191602091820191016144f1565b6001836020036101000a0380198251168184511680821785525050505050509050019150506000604051808303816000865af19150503d8060008114614572576040519150601f19603f3d011682016040523d82523d6000602084013e614577565b606091505b509250905080801561458a575060008251115b156145f7578180602001905160208110156145a457600080fd5b8101908080516401000000008111156145bc57600080fd5b820160208101848111156145cf57600080fd5b81516401000000008111828201871017156145e957600080fd5b509095506146629350505050565b60008251111561460b573d6000803e3d6000fd5b801515614662576040805160e560020a62461bcd02815260206004820152601a60248201527f424d3a2077616c6c657420696e766f6b65207265766572746564000000000000604482015290519081900360640190fd5b50949350505050565b60006fffffffffffffffffffffffffffffffff83141561468d57506001613a6c565b600160a060020a038416600090815260036020526040902060020180544270010000000000000000000000000000000090910467ffffffffffffffff1610156146db57505081811115613a6c565b80546fffffffffffffffffffffffffffffffff1683018410801590614715575080546fffffffffffffffffffffffffffffffff1683810110155b915050613a6c565b6fffffffffffffffffffffffffffffffff8281161461290c57600160a060020a038316600090815260036020526040902060020180544270010000000000000000000000000000000090910467ffffffffffffffff1610156147ef5780547fffffffffffffffff0000000000000000ffffffffffffffffffffffffffffffff1670010000000000000000000000000000000042620151800167ffffffffffffffff1602176fffffffffffffffffffffffffffffffff19166fffffffffffffffffffffffffffffffff8316178155612740565b80546fffffffffffffffffffffffffffffffff8082168401166fffffffffffffffffffffffffffffffff1990911617815550505050565b600160a060020a038216600090815260026020526040812054821161484d57506000611286565b7001000000000000000000000000000000006fffffffffffffffffffffffffffffffff19831604436127100181111561488a576000915050611286565b5050600160a060020a039190911660009081526002602052604090205560019056fe524d3a207468652077616c6c657420617574686f72697a656420697320646966666572656e74207468656e2074686520746172676574206f66207468652072656c617965642064617461544d3a2043616c6c20636f6e74726163742061626f7665206461696c79206c696d697454543a207472616e73666572206f757473696465206f662074686520657865637574696f6e2077696e646f77424d3a206d75737420626520616e206f776e657220666f72207468652077616c6c6574a165627a7a7230582028e9dacc4e0055b872702af83328b4e8d1979e186b2a5bc2c9e9c971d98c258f0029",
  "source": "// Copyright (C) 2018  Argent Labs Ltd. <https://argent.xyz>\n\n// This program is free software: you can redistribute it and/or modify\n// it under the terms of the GNU General Public License as published by\n// the Free Software Foundation, either version 3 of the License, or\n// (at your option) any later version.\n\n// This program is distributed in the hope that it will be useful,\n// but WITHOUT ANY WARRANTY; without even the implied warranty of\n// MERCHANTABILITY or FITNESS FOR A PARTICULAR PURPOSE.  See the\n// GNU General Public License for more details.\n\n// You should have received a copy of the GNU General Public License\n// along with this program.  If not, see <http://www.gnu.org/licenses/>.\n\npragma solidity ^0.5.4;\nimport \"../wallet/BaseWallet.sol\";\nimport \"./common/BaseModule.sol\";\nimport \"./common/RelayerModule.sol\";\nimport \"./common/OnlyOwnerModule.sol\";\nimport \"./common/BaseTransfer.sol\";\nimport \"./common/LimitManager.sol\";\nimport \"../exchange/TokenPriceProvider.sol\";\nimport \"../storage/TransferStorage.sol\";\nimport \"../exchange/ERC20.sol\";\n\n/**\n * @title TransferManager\n * @dev Module to transfer and approve tokens (ETH or ERC20) or data (contract call) based on a security context (daily limit, whitelist, etc).\n * This module is the V2 of TokenTransfer.\n * @author Julien Niset - <julien@argent.xyz>\n */\ncontract TransferManager is BaseModule, RelayerModule, OnlyOwnerModule, BaseTransfer, LimitManager {\n\n    bytes32 constant NAME = \"TransferManager\";\n\n    bytes4 private constant ERC1271_ISVALIDSIGNATURE_BYTES = bytes4(keccak256(\"isValidSignature(bytes,bytes)\"));\n    bytes4 private constant ERC1271_ISVALIDSIGNATURE_BYTES32 = bytes4(keccak256(\"isValidSignature(bytes32,bytes)\"));\n\n    enum ActionType { Transfer }\n\n    using SafeMath for uint256;\n\n    struct TokenManagerConfig {\n        // Mapping between pending action hash and their timestamp\n        mapping (bytes32 => uint256) pendingActions;\n    }\n\n    // wallet specific storage\n    mapping (address => TokenManagerConfig) internal configs;\n\n    // The security period\n    uint256 public securityPeriod;\n    // The execution window\n    uint256 public securityWindow;\n    // The Token storage\n    TransferStorage public transferStorage;\n    // The Token price provider\n    TokenPriceProvider public priceProvider;\n    // The previous limit manager needed to migrate the limits\n    LimitManager public oldLimitManager;\n\n    // *************** Events *************************** //\n\n    event AddedToWhitelist(address indexed wallet, address indexed target, uint64 whitelistAfter);\n    event RemovedFromWhitelist(address indexed wallet, address indexed target);\n    event PendingTransferCreated(address indexed wallet, bytes32 indexed id, uint256 indexed executeAfter,\n    address token, address to, uint256 amount, bytes data);\n    event PendingTransferExecuted(address indexed wallet, bytes32 indexed id);\n    event PendingTransferCanceled(address indexed wallet, bytes32 indexed id);\n\n    // *************** Constructor ********************** //\n\n    constructor(\n        ModuleRegistry _registry,\n        TransferStorage _transferStorage,\n        GuardianStorage _guardianStorage,\n        address _priceProvider,\n        uint256 _securityPeriod,\n        uint256 _securityWindow,\n        uint256 _defaultLimit,\n        LimitManager _oldLimitManager\n    )\n        BaseModule(_registry, _guardianStorage, NAME)\n        LimitManager(_defaultLimit)\n        public\n    {\n        transferStorage = _transferStorage;\n        priceProvider = TokenPriceProvider(_priceProvider);\n        securityPeriod = _securityPeriod;\n        securityWindow = _securityWindow;\n        oldLimitManager = _oldLimitManager;\n    }\n\n    /**\n     * @dev Inits the module for a wallet by setting up the isValidSignature (EIP 1271)\n     * static call redirection from the wallet to the module and copying all the parameters\n     * of the daily limit from the previous implementation of the LimitManager module.\n     * @param _wallet The target wallet.\n     */\n    function init(BaseWallet _wallet) public onlyWallet(_wallet) {\n\n        // setup static calls\n        _wallet.enableStaticCall(address(this), ERC1271_ISVALIDSIGNATURE_BYTES);\n        _wallet.enableStaticCall(address(this), ERC1271_ISVALIDSIGNATURE_BYTES32);\n\n        // setup default limit for new deployment\n        if (address(oldLimitManager) == address(0)) {\n            super.init(_wallet);\n            return;\n        }\n        // get limit from previous LimitManager\n        uint256 current = oldLimitManager.getCurrentLimit(_wallet);\n        (uint256 pending, uint64 changeAfter) = oldLimitManager.getPendingLimit(_wallet);\n        // setup default limit for new wallets\n        if (current == 0 && changeAfter == 0) {\n            super.init(_wallet);\n            return;\n        }\n        // migrate existing limit for existing wallets\n        if (current == pending) {\n            limits[address(_wallet)].limit.current = uint128(current);\n        } else {\n            limits[address(_wallet)].limit = Limit(uint128(current), uint128(pending), changeAfter);\n        }\n        // migrate daily pending if we are within a rolling period\n        (uint256 unspent, uint64 periodEnd) = oldLimitManager.getDailyUnspent(_wallet);\n        // solium-disable-next-line security/no-block-members\n        if (periodEnd > now) {\n            limits[address(_wallet)].dailySpent = DailySpent(uint128(current.sub(unspent)), periodEnd);\n        }\n    }\n\n    // *************** External/Public Functions ********************* //\n\n    /**\n    * @dev lets the owner transfer tokens (ETH or ERC20) from a wallet.\n    * @param _wallet The target wallet.\n    * @param _token The address of the token to transfer.\n    * @param _to The destination address\n    * @param _amount The amoutn of token to transfer\n    * @param _data The data for the transaction\n    */\n    function transferToken(\n        BaseWallet _wallet,\n        address _token,\n        address _to,\n        uint256 _amount,\n        bytes calldata _data\n    )\n        external\n        onlyWalletOwner(_wallet)\n        onlyWhenUnlocked(_wallet)\n    {\n        if (isWhitelisted(_wallet, _to)) {\n            // transfer to whitelist\n            doTransfer(_wallet, _token, _to, _amount, _data);\n        } else {\n            uint256 etherAmount = (_token == ETH_TOKEN) ? _amount : priceProvider.getEtherValue(_amount, _token);\n            if (checkAndUpdateDailySpent(_wallet, etherAmount)) {\n                // transfer under the limit\n                doTransfer(_wallet, _token, _to, _amount, _data);\n            } else {\n                // transfer above the limit\n                (bytes32 id, uint256 executeAfter) = addPendingAction(ActionType.Transfer, _wallet, _token, _to, _amount, _data);\n                emit PendingTransferCreated(address(_wallet), id, executeAfter, _token, _to, _amount, _data);\n            }\n        }\n    }\n\n    /**\n    * @dev lets the owner approve an allowance of ERC20 tokens for a spender (dApp).\n    * @param _wallet The target wallet.\n    * @param _token The address of the token to transfer.\n    * @param _spender The address of the spender\n    * @param _amount The amount of tokens to approve\n    */\n    function approveToken(\n        BaseWallet _wallet,\n        address _token,\n        address _spender,\n        uint256 _amount\n    )\n        external\n        onlyWalletOwner(_wallet)\n        onlyWhenUnlocked(_wallet)\n    {\n        if (isWhitelisted(_wallet, _spender)) {\n            // approve to whitelist\n            doApproveToken(_wallet, _token, _spender, _amount);\n        } else {\n            // get current alowance\n            uint256 currentAllowance = ERC20(_token).allowance(address(_wallet), _spender);\n            if (_amount <= currentAllowance) {\n                // approve if we reduce the allowance\n                doApproveToken(_wallet, _token, _spender, _amount);\n            } else {\n                // check if delta is under the limit\n                uint delta = _amount - currentAllowance;\n                uint256 deltaInEth = priceProvider.getEtherValue(delta, _token);\n                require(checkAndUpdateDailySpent(_wallet, deltaInEth), \"TM: Approve above daily limit\");\n                // approve if under the limit\n                doApproveToken(_wallet, _token, _spender, _amount);\n            }\n        }\n    }\n\n    /**\n    * @dev lets the owner call a contract.\n    * @param _wallet The target wallet.\n    * @param _contract The address of the contract.\n    * @param _value The amount of ETH to transfer as part of call\n    * @param _data The encoded method data\n    */\n    function callContract(\n        BaseWallet _wallet,\n        address _contract,\n        uint256 _value,\n        bytes calldata _data\n    )\n        external\n        onlyWalletOwner(_wallet)\n        onlyWhenUnlocked(_wallet)\n    {\n        // Make sure we don't call a module, the wallet itself, or a supported ERC20\n        authoriseContractCall(_wallet, _contract);\n\n        if (isWhitelisted(_wallet, _contract)) {\n            // call to whitelist\n            doCallContract(_wallet, _contract, _value, _data);\n        } else {\n            require(checkAndUpdateDailySpent(_wallet, _value), \"TM: Call contract above daily limit\");\n            // call under the limit\n            doCallContract(_wallet, _contract, _value, _data);\n        }\n    }\n\n    /**\n    * @dev lets the owner do an ERC20 approve followed by a call to a contract.\n    * We assume that the contract will pull the tokens and does not require ETH.\n    * @param _wallet The target wallet.\n    * @param _token The token to approve.\n    * @param _contract The address of the contract.\n    * @param _amount The amount of ERC20 tokens to approve.\n    * @param _data The encoded method data\n    */\n    function approveTokenAndCallContract(\n        BaseWallet _wallet,\n        address _token,\n        address _contract,\n        uint256 _amount,\n        bytes calldata _data\n    )\n        external\n        onlyWalletOwner(_wallet)\n        onlyWhenUnlocked(_wallet)\n    {\n        // Make sure we don't call a module, the wallet itself, or a supported ERC20\n        authoriseContractCall(_wallet, _contract);\n\n        if (isWhitelisted(_wallet, _contract)) {\n            doApproveToken(_wallet, _token, _contract, _amount);\n            doCallContract(_wallet, _contract, 0, _data);\n        } else {\n            // get current alowance\n            uint256 currentAllowance = ERC20(_token).allowance(address(_wallet), _contract);\n            if (_amount <= currentAllowance) {\n                // no need to approve more\n                doCallContract(_wallet, _contract, 0, _data);\n            } else {\n                // check if delta is under the limit\n                uint delta = _amount - currentAllowance;\n                uint256 deltaInEth = priceProvider.getEtherValue(delta, _token);\n                require(checkAndUpdateDailySpent(_wallet, deltaInEth), \"TM: Approve above daily limit\");\n                // approve if under the limit\n                doApproveToken(_wallet, _token, _contract, _amount);\n                doCallContract(_wallet, _contract, 0, _data);\n            }\n        }\n    }\n\n    /**\n     * @dev Adds an address to the whitelist of a wallet.\n     * @param _wallet The target wallet.\n     * @param _target The address to add.\n     */\n    function addToWhitelist(\n        BaseWallet _wallet,\n        address _target\n    )\n        external\n        onlyWalletOwner(_wallet)\n        onlyWhenUnlocked(_wallet)\n    {\n        require(!isWhitelisted(_wallet, _target), \"TT: target already whitelisted\");\n        // solium-disable-next-line security/no-block-members\n        uint256 whitelistAfter = now.add(securityPeriod);\n        transferStorage.setWhitelist(_wallet, _target, whitelistAfter);\n        emit AddedToWhitelist(address(_wallet), _target, uint64(whitelistAfter));\n    }\n\n    /**\n     * @dev Removes an address from the whitelist of a wallet.\n     * @param _wallet The target wallet.\n     * @param _target The address to remove.\n     */\n    function removeFromWhitelist(\n        BaseWallet _wallet,\n        address _target\n    )\n        external\n        onlyWalletOwner(_wallet)\n        onlyWhenUnlocked(_wallet)\n    {\n        require(isWhitelisted(_wallet, _target), \"TT: target not whitelisted\");\n        transferStorage.setWhitelist(_wallet, _target, 0);\n        emit RemovedFromWhitelist(address(_wallet), _target);\n    }\n\n    /**\n    * @dev Executes a pending transfer for a wallet.\n    * The method can be called by anyone to enable orchestration.\n    * @param _wallet The target wallet.\n    * @param _token The token of the pending transfer.\n    * @param _to The destination address of the pending transfer.\n    * @param _amount The amount of token to transfer of the pending transfer.\n    * @param _data The data associated to the pending transfer.\n    * @param _block The block at which the pending transfer was created.\n    */\n    function executePendingTransfer(\n        BaseWallet _wallet,\n        address _token,\n        address _to,\n        uint _amount,\n        bytes calldata _data,\n        uint _block\n    )\n        external\n        onlyWhenUnlocked(_wallet)\n    {\n        bytes32 id = keccak256(abi.encodePacked(ActionType.Transfer, _token, _to, _amount, _data, _block));\n        uint executeAfter = configs[address(_wallet)].pendingActions[id];\n        require(executeAfter > 0, \"TT: unknown pending transfer\");\n        uint executeBefore = executeAfter.add(securityWindow);\n        // solium-disable-next-line security/no-block-members\n        require(executeAfter <= now && now <= executeBefore, \"TT: transfer outside of the execution window\");\n        delete configs[address(_wallet)].pendingActions[id];\n        doTransfer(_wallet, _token, _to, _amount, _data);\n        emit PendingTransferExecuted(address(_wallet), id);\n    }\n\n    function cancelPendingTransfer(\n        BaseWallet _wallet,\n        bytes32 _id\n    )\n        external\n        onlyWalletOwner(_wallet)\n        onlyWhenUnlocked(_wallet)\n    {\n        require(configs[address(_wallet)].pendingActions[_id] > 0, \"TT: unknown pending action\");\n        delete configs[address(_wallet)].pendingActions[_id];\n        emit PendingTransferCanceled(address(_wallet), _id);\n    }\n\n    /**\n     * @dev Lets the owner of a wallet change its daily limit.\n     * The limit is expressed in ETH. Changes to the limit take 24 hours.\n     * @param _wallet The target wallet.\n     * @param _newLimit The new limit.\n     */\n    function changeLimit(BaseWallet _wallet, uint256 _newLimit) external onlyWalletOwner(_wallet) onlyWhenUnlocked(_wallet) {\n        changeLimit(_wallet, _newLimit, securityPeriod);\n    }\n\n    /**\n     * @dev Convenience method to disable the limit\n     * The limit is disabled by setting it to an arbitrary large value.\n     * @param _wallet The target wallet.\n     */\n    function disableLimit(BaseWallet _wallet) external onlyWalletOwner(_wallet) onlyWhenUnlocked(_wallet) {\n        disableLimit(_wallet, securityPeriod);\n    }\n\n    /**\n    * @dev Checks if an address is whitelisted for a wallet.\n    * @param _wallet The target wallet.\n    * @param _target The address.\n    * @return true if the address is whitelisted.\n    */\n    function isWhitelisted(BaseWallet _wallet, address _target) public view returns (bool _isWhitelisted) {\n        uint whitelistAfter = transferStorage.getWhitelist(_wallet, _target);\n        // solium-disable-next-line security/no-block-members\n        return whitelistAfter > 0 && whitelistAfter < now;\n    }\n\n    /**\n    * @dev Gets the info of a pending transfer for a wallet.\n    * @param _wallet The target wallet.\n    * @param _id The pending transfer ID.\n    * @return the epoch time at which the pending transfer can be executed.\n    */\n    function getPendingTransfer(BaseWallet _wallet, bytes32 _id) external view returns (uint64 _executeAfter) {\n        _executeAfter = uint64(configs[address(_wallet)].pendingActions[_id]);\n    }\n\n    /**\n    * @dev Implementation of EIP 1271.\n    * Should return whether the signature provided is valid for the provided data.\n    * @param _data Arbitrary length data signed on the behalf of address(this)\n    * @param _signature Signature byte array associated with _data\n    */\n    function isValidSignature(bytes calldata _data, bytes calldata _signature) external view returns (bytes4) {\n        bytes32 msgHash = keccak256(abi.encodePacked(_data));\n        isValidSignature(msgHash, _signature);\n        return ERC1271_ISVALIDSIGNATURE_BYTES;\n    }\n\n    /**\n    * @dev Implementation of EIP 1271.\n    * Should return whether the signature provided is valid for the provided data.\n    * @param _msgHash Hash of a message signed on the behalf of address(this)\n    * @param _signature Signature byte array associated with _msgHash\n    */\n    function isValidSignature(bytes32 _msgHash, bytes memory _signature) public view returns (bytes4) {\n        require(_signature.length == 65, \"TM: invalid signature length\");\n        address signer = recoverSigner(_msgHash, _signature, 0);\n        require(isOwner(BaseWallet(msg.sender), signer), \"TM: Invalid signer\");\n        return ERC1271_ISVALIDSIGNATURE_BYTES32;\n    }\n\n    // *************** Internal Functions ********************* //\n\n    /**\n     * @dev Creates a new pending action for a wallet.\n     * @param _action The target action.\n     * @param _wallet The target wallet.\n     * @param _token The target token for the action.\n     * @param _to The recipient of the action.\n     * @param _amount The amount of token associated to the action.\n     * @param _data The data associated to the action.\n     * @return the identifier for the new pending action and the time when the action can be executed\n     */\n    function addPendingAction(\n        ActionType _action,\n        BaseWallet _wallet,\n        address _token,\n        address _to,\n        uint _amount,\n        bytes memory _data\n    )\n        internal\n        returns (bytes32 id, uint256 executeAfter)\n    {\n        id = keccak256(abi.encodePacked(_action, _token, _to, _amount, _data, block.number));\n        require(configs[address(_wallet)].pendingActions[id] == 0, \"TM: duplicate pending action\");\n        // solium-disable-next-line security/no-block-members\n        executeAfter = now.add(securityPeriod);\n        configs[address(_wallet)].pendingActions[id] = executeAfter;\n    }\n\n    /**\n    * @dev Make sure a contract call is not trying to call a module, the wallet itself, or a supported ERC20.\n    * @param _wallet The target wallet.\n    * @param _contract The address of the contract.\n     */\n    function authoriseContractCall(BaseWallet _wallet, address _contract) internal view {\n        require(\n            _contract != address(_wallet) && // not the wallet itself\n            !_wallet.authorised(_contract) && // not an authorised module\n            (priceProvider.cachedPrices(_contract) == 0 || isLimitDisabled(_wallet)), // not an ERC20 listed in the provider (or limit disabled)\n            \"TM: Forbidden contract\");\n    }\n\n    // *************** Implementation of RelayerModule methods ********************* //\n\n    // Overrides refund to add the refund in the daily limit.\n    function refund(BaseWallet _wallet, uint _gasUsed, uint _gasPrice, uint _gasLimit, uint _signatures, address _relayer) internal {\n        // 21000 (transaction) + 7620 (execution of refund) + 7324 (execution of updateDailySpent) + 672 to log the event + _gasUsed\n        uint256 amount = 36616 + _gasUsed;\n        if (_gasPrice > 0 && _signatures > 0 && amount <= _gasLimit) {\n            if (_gasPrice > tx.gasprice) {\n                amount = amount * tx.gasprice;\n            } else {\n                amount = amount * _gasPrice;\n            }\n            checkAndUpdateDailySpent(_wallet, amount);\n            invokeWallet(address(_wallet), _relayer, amount, EMPTY_BYTES);\n        }\n    }\n\n    // Overrides verifyRefund to add the refund in the daily limit.\n    function verifyRefund(BaseWallet _wallet, uint _gasUsed, uint _gasPrice, uint _signatures) internal view returns (bool) {\n        if (_gasPrice > 0 && _signatures > 0 && (\n            address(_wallet).balance < _gasUsed * _gasPrice ||\n            isWithinDailyLimit(_wallet, getCurrentLimit(_wallet), _gasUsed * _gasPrice) == false ||\n            _wallet.authorised(address(this)) == false\n        ))\n        {\n            return false;\n        }\n        return true;\n    }\n}\n",
  "sourcePath": "/Users/name/dev/argent-contracts-release-1.5.0/contracts/modules/TransferManager.sol",
  "compiler": {
    "name": "solc",
    "version": "0.5.4+commit.9549d8ff.Emscripten.clang",
    "optimizer": true,
    "runs": 999
  },
  "schemaVersion": "2.3.1",
  "updatedAt": "2020-04-01T15:58:47.877Z"
}