{
  "contractName": "UniswapManager",
  "abi": [
    {
      "constant": false,
      "inputs": [
        {
          "name": "_wallet",
          "type": "address"
        }
      ],
      "name": "init",
      "outputs": [],
      "payable": false,
      "stateMutability": "nonpayable",
      "type": "function"
    },
    {
      "constant": true,
      "inputs": [
        {
          "name": "_wallet",
          "type": "address"
        }
      ],
      "name": "getNonce",
      "outputs": [
        {
          "name": "nonce",
          "type": "uint256"
        }
      ],
      "payable": false,
      "stateMutability": "view",
      "type": "function"
    },
    {
      "constant": false,
      "inputs": [
        {
          "name": "_wallet",
          "type": "address"
        },
        {
          "name": "_module",
          "type": "address"
        }
      ],
      "name": "addModule",
      "outputs": [],
      "payable": false,
      "stateMutability": "nonpayable",
      "type": "function"
    },
    {
      "constant": true,
      "inputs": [],
      "name": "uniswapFactory",
      "outputs": [
        {
          "name": "",
          "type": "address"
        }
      ],
      "payable": false,
      "stateMutability": "view",
      "type": "function"
    },
    {
      "constant": false,
      "inputs": [
        {
          "name": "_token",
          "type": "address"
        }
      ],
      "name": "recoverToken",
      "outputs": [],
      "payable": false,
      "stateMutability": "nonpayable",
      "type": "function"
    },
    {
      "constant": false,
      "inputs": [
        {
          "name": "_wallet",
          "type": "address"
        },
        {
          "name": "_data",
          "type": "bytes"
        },
        {
          "name": "_nonce",
          "type": "uint256"
        },
        {
          "name": "_signatures",
          "type": "bytes"
        },
        {
          "name": "_gasPrice",
          "type": "uint256"
        },
        {
          "name": "_gasLimit",
          "type": "uint256"
        }
      ],
      "name": "execute",
      "outputs": [
        {
          "name": "success",
          "type": "bool"
        }
      ],
      "payable": false,
      "stateMutability": "nonpayable",
      "type": "function"
    },
    {
      "constant": true,
      "inputs": [
        {
          "name": "",
          "type": "address"
        }
      ],
      "name": "relayer",
      "outputs": [
        {
          "name": "nonce",
          "type": "uint256"
        }
      ],
      "payable": false,
      "stateMutability": "view",
      "type": "function"
    },
    {
      "constant": true,
      "inputs": [],
      "name": "isOnlyOwnerModule",
      "outputs": [
        {
          "name": "",
          "type": "bytes4"
        }
      ],
      "payable": false,
      "stateMutability": "pure",
      "type": "function"
    },
    {
      "inputs": [
        {
          "name": "_registry",
          "type": "address"
        },
        {
          "name": "_guardianStorage",
          "type": "address"
        },
        {
          "name": "_uniswapFactory",
          "type": "address"
        }
      ],
      "payable": false,
      "stateMutability": "nonpayable",
      "type": "constructor"
    },
    {
      "anonymous": false,
      "inputs": [
        {
          "indexed": true,
          "name": "wallet",
          "type": "address"
        },
        {
          "indexed": true,
          "name": "success",
          "type": "bool"
        },
        {
          "indexed": false,
          "name": "signedHash",
          "type": "bytes32"
        }
      ],
      "name": "TransactionExecuted",
      "type": "event"
    },
    {
      "anonymous": false,
      "inputs": [
        {
          "indexed": false,
          "name": "name",
          "type": "bytes32"
        }
      ],
      "name": "ModuleCreated",
      "type": "event"
    },
    {
      "anonymous": false,
      "inputs": [
        {
          "indexed": false,
          "name": "wallet",
          "type": "address"
        }
      ],
      "name": "ModuleInitialised",
      "type": "event"
    },
    {
      "anonymous": false,
      "inputs": [
        {
          "indexed": true,
          "name": "_wallet",
          "type": "address"
        },
        {
          "indexed": false,
          "name": "_token",
          "type": "address"
        },
        {
          "indexed": false,
          "name": "_invested",
          "type": "uint256"
        },
        {
          "indexed": false,
          "name": "_period",
          "type": "uint256"
        }
      ],
      "name": "InvestmentAdded",
      "type": "event"
    },
    {
      "anonymous": false,
      "inputs": [
        {
          "indexed": true,
          "name": "_wallet",
          "type": "address"
        },
        {
          "indexed": false,
          "name": "_token",
          "type": "address"
        },
        {
          "indexed": false,
          "name": "_fraction",
          "type": "uint256"
        }
      ],
      "name": "InvestmentRemoved",
      "type": "event"
    },
    {
      "constant": false,
      "inputs": [
        {
          "name": "_wallet",
          "type": "address"
        },
        {
          "name": "_token",
          "type": "address"
        },
        {
          "name": "_amount",
          "type": "uint256"
        },
        {
          "name": "_period",
          "type": "uint256"
        }
      ],
      "name": "addInvestment",
      "outputs": [
        {
          "name": "_invested",
          "type": "uint256"
        }
      ],
      "payable": false,
      "stateMutability": "nonpayable",
      "type": "function"
    },
    {
      "constant": false,
      "inputs": [
        {
          "name": "_wallet",
          "type": "address"
        },
        {
          "name": "_token",
          "type": "address"
        },
        {
          "name": "_fraction",
          "type": "uint256"
        }
      ],
      "name": "removeInvestment",
      "outputs": [],
      "payable": false,
      "stateMutability": "nonpayable",
      "type": "function"
    },
    {
      "constant": true,
      "inputs": [
        {
          "name": "_wallet",
          "type": "address"
        },
        {
          "name": "_token",
          "type": "address"
        }
      ],
      "name": "getInvestment",
      "outputs": [
        {
          "name": "_tokenValue",
          "type": "uint256"
        },
        {
          "name": "_periodEnd",
          "type": "uint256"
        }
      ],
      "payable": false,
      "stateMutability": "view",
      "type": "function"
    }
  ],
  "bytecode": "0x608060405234801561001057600080fd5b506040516060806123098339810180604052606081101561003057600080fd5b50805160208083015160409384015160008054600160a060020a03808716600160a060020a031992831617909255600180549285169290911691909117905584517f556e6973776170496e766573744d616e6167657200000000000000000000000080825295519495929491938693869390927f3019c8fc80239e3dff8f781212ae2004839c2cb61d6c70acd279ac65392145df92908290030190a1505060038054600160a060020a03909316600160a060020a031990931692909217909155505050612207806101026000396000f3fe608060405234801561001057600080fd5b50600436106100e6576000357c0100000000000000000000000000000000000000000000000000000000900480639be65a601161009e578063cac7495c11610078578063cac7495c1461030f578063d490da4d14610356578063ec9e13aa14610393576100e6565b80639be65a60146101d3578063aacaaf88146101f9578063c9b5ef8e146102e9576100e6565b80635a1db8c4116100cf5780635a1db8c41461014b5780638bdb2afa1461017957806398d534281461019d576100e6565b806319ab453c146100eb5780632d0335ab14610113575b600080fd5b6101116004803603602081101561010157600080fd5b5035600160a060020a03166103cf565b005b6101396004803603602081101561012957600080fd5b5035600160a060020a0316610475565b60408051918252519081900360200190f35b6101116004803603604081101561016157600080fd5b50600160a060020a0381358116916020013516610490565b61018161065e565b60408051600160a060020a039092168252519081900360200190f35b610111600480360360608110156101b357600080fd5b50600160a060020a0381358116916020810135909116906040013561066d565b610111600480360360208110156101e957600080fd5b5035600160a060020a0316610856565b6102d5600480360360c081101561020f57600080fd5b600160a060020a03823516919081019060408101602082013564010000000081111561023a57600080fd5b82018360208201111561024c57600080fd5b8035906020019184600183028401116401000000008311171561026e57600080fd5b9193909282359260408101906020013564010000000081111561029057600080fd5b8201836020820111156102a257600080fd5b803590602001918460018302840111640100000000831117156102c457600080fd5b919350915080359060200135610989565b604080519115158252519081900360200190f35b610139600480360360208110156102ff57600080fd5b5035600160a060020a0316610c71565b61033d6004803603604081101561032557600080fd5b50600160a060020a0381358116916020013516610c83565b6040805192835260208301919091528051918290030190f35b61035e610f12565b604080517fffffffff000000000000000000000000000000000000000000000000000000009092168252519081900360200190f35b610139600480360360808110156103a957600080fd5b50600160a060020a03813581169160208101359091169060408101359060600135610f36565b8033600160a060020a03821614610435576040805160008051602061216b833981519152815260206004820152601960248201527f424d3a2063616c6c6572206d7573742062652077616c6c657400000000000000604482015290519081900360640190fd5b60408051600160a060020a038416815290517f9fcca3f73f85397e2bf03647abf243c20b753bd54463ff3cae74de2971c112fa9181900360200190a15050565b600160a060020a031660009081526002602052604090205490565b81333014806104a457506104a481336110e6565b15156104e95760405160008051602061216b833981519152815260040180806020018281038252602381526020018061218b6023913960400191505060405180910390fd5b600054604080517f0bcd4ebb000000000000000000000000000000000000000000000000000000008152600160a060020a03858116600483015291519190921691630bcd4ebb916024808301926020929190829003018186803b15801561054f57600080fd5b505afa158015610563573d6000803e3d6000fd5b505050506040513d602081101561057957600080fd5b505115156105d6576040805160008051602061216b833981519152815260206004820152601c60248201527f424d3a206d6f64756c65206973206e6f74207265676973746572656400000000604482015290519081900360640190fd5b604080517f1f17732d000000000000000000000000000000000000000000000000000000008152600160a060020a03848116600483015260016024830152915191851691631f17732d9160448082019260009290919082900301818387803b15801561064157600080fd5b505af1158015610655573d6000803e3d6000fd5b50505050505050565b600354600160a060020a031681565b8233301480610681575061068181336110e6565b15156106c65760405160008051602061216b833981519152815260040180806020018281038252602381526020018061218b6023913960400191505060405180910390fd5b600154604080517f4a4fbeec000000000000000000000000000000000000000000000000000000008152600160a060020a038088166004830152915187939290921691634a4fbeec91602480820192602092909190829003018186803b15801561072f57600080fd5b505afa158015610743573d6000803e3d6000fd5b505050506040513d602081101561075957600080fd5b5051156107b5576040805160008051602061216b833981519152815260206004820152601b60248201527f424d3a2077616c6c6574206d75737420626520756e6c6f636b65640000000000604482015290519081900360640190fd5b6127108311156107fe5760405160008051602061216b83398151915281526004018080602001828103825260338152602001806121066033913960400191505060405180910390fd5b610809858585611186565b60408051600160a060020a038681168252602082018690528251908816927f9aa275f858ea6286ee2cacd32cd2ae55f918a310ee6d0320caad244ee9d6109e928290030190a25050505050565b604080517f70a082310000000000000000000000000000000000000000000000000000000081523060048201529051600091600160a060020a038416916370a0823191602480820192602092909190829003018186803b1580156108b957600080fd5b505afa1580156108cd573d6000803e3d6000fd5b505050506040513d60208110156108e357600080fd5b505160008054604080517fa9059cbb000000000000000000000000000000000000000000000000000000008152600160a060020a0392831660048201526024810185905290519394509085169263a9059cbb92604480840193602093929083900390910190829087803b15801561095957600080fd5b505af115801561096d573d6000803e3d6000fd5b505050506040513d602081101561098357600080fd5b50505050565b6000805a905060006109d9308c60008d8d8080601f0160208091040260200160405190810160405280939291908181526020018383808284376000920191909152508f92508c91508b90506113b9565b90506109e68b89836114fc565b1515610a41576040805160008051602061216b833981519152815260206004820152601560248201527f524d3a204475706c696361746520726571756573740000000000000000000000604482015290519081900360640190fd5b610a818b8b8b8080601f01602080910402602001604051908101604052809392919081815260200183838082843760009201919091525061151092505050565b1515610ac65760405160008051602061216b833981519152815260040180806020018281038252604a8152602001806120bc604a913960600191505060405180910390fd5b6000610b088c8c8c8080601f01602080910402602001604051908101604052809392919081815260200183838082843760009201919091525061158992505050565b905060418102871415610c2057610b218c868884611591565b15610c2057801580610ba45750610ba48c8c8c8080601f01602080910402602001604051908101604052809392919081815260200183838082843760009201919091525050604080516020601f8f018190048102820181019092528d815288935091508d908d908190840183828082843760009201919091525061166392505050565b15610c205730600160a060020a03168b8b604051808383808284376040519201945060009350909150508083038183865af19150503d8060008114610c05576040519150601f19603f3d011682016040523d82523d6000602084013e610c0a565b606091505b505080945050610c208c5a850388888533611688565b60408051838152905185151591600160a060020a038f16917f6bb0b384ce772133df63560651bc8c727c53306cec1d51e2cbf8ea35fb8f2ec19181900360200190a350505098975050505050505050565b60026020526000908152604090205481565b600354604080517f06f2bf62000000000000000000000000000000000000000000000000000000008152600160a060020a0384811660048301529151600093849384939116916306f2bf6291602480820192602092909190829003018186803b158015610cef57600080fd5b505afa158015610d03573d6000803e3d6000fd5b505050506040513d6020811015610d1957600080fd5b5051604080517f70a08231000000000000000000000000000000000000000000000000000000008152600160a060020a0380841660048301529151929350600092918716916370a0823191602480820192602092909190829003018186803b158015610d8457600080fd5b505afa158015610d98573d6000803e3d6000fd5b505050506040513d6020811015610dae57600080fd5b5051604080517f70a08231000000000000000000000000000000000000000000000000000000008152600160a060020a0389811660048301529151929350600092918516916370a0823191602480820192602092909190829003018186803b158015610e1957600080fd5b505afa158015610e2d573d6000803e3d6000fd5b505050506040513d6020811015610e4357600080fd5b5051604080517f18160ddd0000000000000000000000000000000000000000000000000000000081529051919250600091600160a060020a038616916318160ddd916004808301926020929190829003018186803b158015610ea457600080fd5b505afa158015610eb8573d6000803e3d6000fd5b505050506040513d6020811015610ece57600080fd5b50519050610f0381610ef76002610eeb868863ffffffff6116e616565b9063ffffffff6116e616565b9063ffffffff61171816565b98600098509650505050505050565b7fd490da4d0000000000000000000000000000000000000000000000000000000090565b60008433301480610f4c5750610f4c81336110e6565b1515610f915760405160008051602061216b833981519152815260040180806020018281038252602381526020018061218b6023913960400191505060405180910390fd5b600154604080517f4a4fbeec000000000000000000000000000000000000000000000000000000008152600160a060020a03808a166004830152915189939290921691634a4fbeec91602480820192602092909190829003018186803b158015610ffa57600080fd5b505afa15801561100e573d6000803e3d6000fd5b505050506040513d602081101561102457600080fd5b505115611080576040805160008051602061216b833981519152815260206004820152601b60248201527f424d3a2077616c6c6574206d75737420626520756e6c6f636b65640000000000604482015290519081900360640190fd5b61108b87878761173c565b60408051600160a060020a038981168252602082018990528183018890529151929550908916917ff8eece150ed2126815122a6def9737751aecd814379d4ce8c9edd07133a49cdb9181900360600190a25050949350505050565b600081600160a060020a031683600160a060020a0316638da5cb5b6040518163ffffffff167c010000000000000000000000000000000000000000000000000000000002815260040160206040518083038186803b15801561114757600080fd5b505afa15801561115b573d6000803e3d6000fd5b505050506040513d602081101561117157600080fd5b5051600160a060020a03161490505b92915050565b600354604080517f06f2bf62000000000000000000000000000000000000000000000000000000008152600160a060020a038581166004830152915160009392909216916306f2bf6291602480820192602092909190829003018186803b1580156111f057600080fd5b505afa158015611204573d6000803e3d6000fd5b505050506040513d602081101561121a57600080fd5b50519050600160a060020a038116151561126d5760405160008051602061216b83398151915281526004018080602001828103825260328152602001806121396032913960400191505060405180910390fd5b600081600160a060020a03166370a08231866040518263ffffffff167c01000000000000000000000000000000000000000000000000000000000281526004018082600160a060020a0316600160a060020a0316815260200191505060206040518083038186803b1580156112e157600080fd5b505afa1580156112f5573d6000803e3d6000fd5b505050506040513d602081101561130b57600080fd5b505190506113b18583600061132c612710610ef7878a63ffffffff6116e616565b6040805160248101929092526001604483018190526064830181905242016084808401919091528151808403909101815260a490920190526020810180517bffffffffffffffffffffffffffffffffffffffffffffffffffffffff167ff88bf15a00000000000000000000000000000000000000000000000000000000179052611d03565b505050505050565b6040517f190000000000000000000000000000000000000000000000000000000000000060208083018281526000602185018190526c01000000000000000000000000600160a060020a03808e16820260228801528c16026036860152604a85018a90528851909485938d938d938d938d938d938d938d939192606a909201918701908083835b6020831061145f5780518252601f199092019160209182019101611440565b51815160209384036101000a600019018019909216911617905292019586525084810193909352506040808401919091528051808403820181526060840182528051908301207f19457468657265756d205369676e6564204d6573736167653a0a3332000000006080850152609c808501919091528151808503909101815260bc909301905281519101209e9d5050505050505050505050505050565b60006115088484611f8b565b949350505050565b60006024825110151515611573576040805160008051602061216b833981519152815260206004820152601660248201527f524d3a20496e76616c6964206461746157616c6c657400000000000000000000604482015290519081900360640190fd5b5060240151600160a060020a0391821691161490565b600192915050565b600080831180156115a25750600182115b801561164b575082840285600160a060020a031631108061164b5750604080517fd6eb1bbf0000000000000000000000000000000000000000000000000000000081523060048201529051600160a060020a0387169163d6eb1bbf916024808301926020929190829003018186803b15801561161d57600080fd5b505afa158015611631573d6000803e3d6000fd5b505050506040513d602081101561164757600080fd5b5051155b1561165857506000611508565b506001949350505050565b60008061167284846000612011565b905061167e86826110e6565b9695505050505050565b61726c850160008511801561169d5750600183115b80156116a95750838111155b15610655573a8511156116bd573a026116c0565b84025b6116dc8783836020604051908101604052806000815250611d03565b5050505050505050565b60008215156116f757506000611180565b82820282848281151561170657fe5b041461171157600080fd5b9392505050565b600080821161172657600080fd5b6000828481151561173357fe5b04949350505050565b600080821161179a576040805160008051602061216b833981519152815260206004820152601e60248201527f556e69737761703a2063616e2774206164642030206c69717569646974790000604482015290519081900360640190fd5b600354604080517f06f2bf62000000000000000000000000000000000000000000000000000000008152600160a060020a038681166004830152915160009392909216916306f2bf6291602480820192602092909190829003018186803b15801561180457600080fd5b505afa158015611818573d6000803e3d6000fd5b505050506040513d602081101561182e57600080fd5b50519050600160a060020a03811615156118815760405160008051602061216b833981519152815260040180806020018281038252602e8152602001806121ae602e913960400191505060405180910390fd5b600084600160a060020a03166370a08231876040518263ffffffff167c01000000000000000000000000000000000000000000000000000000000281526004018082600160a060020a0316600160a060020a0316815260200191505060206040518083038186803b1580156118f557600080fd5b505afa158015611909573d6000803e3d6000fd5b505050506040513d602081101561191f57600080fd5b5051905080841115611aa657600082600160a060020a03166359e948628387036040518263ffffffff167c01000000000000000000000000000000000000000000000000000000000281526004018082815260200191505060206040518083038186803b15801561198f57600080fd5b505afa1580156119a3573d6000803e3d6000fd5b505050506040513d60208110156119b957600080fd5b50519050600160a060020a03871631811115611a24576040805160008051602061216b833981519152815260206004820152601f60248201527f556e69737761703a206e6f7420656e6f7567682045544820746f207377617000604482015290519081900360640190fd5b604080518387036024820152426044808301919091528251808303909101815260649091019091526020810180517bffffffffffffffffffffffffffffffffffffffffffffffffffffffff167f6b1d4db700000000000000000000000000000000000000000000000000000000179052611aa390889085908490611d03565b50505b600085600160a060020a03166370a08231846040518263ffffffff167c01000000000000000000000000000000000000000000000000000000000281526004018082600160a060020a0316600160a060020a0316815260200191505060206040518083038186803b158015611b1a57600080fd5b505afa158015611b2e573d6000803e3d6000fd5b505050506040513d6020811015611b4457600080fd5b50519050600160a060020a038316316000611b6d83610ef76000198a018563ffffffff6116e616565b9050600160a060020a03891631811115611bd6576040805160008051602061216b833981519152815260206004820152601f60248201527f556e69737761703a206e6f7420656e6f7567682045544820746f20706f6f6c00604482015290519081900360640190fd5b60408051600160a060020a038716602482015260448082018a90528251808303909101815260649091019091526020810180517bffffffffffffffffffffffffffffffffffffffffffffffffffffffff167f095ea7b300000000000000000000000000000000000000000000000000000000179052611c5b908a908a90600090611d03565b5060408051600160248201819052604482018a905242016064808301919091528251808303909101815260849091019091526020810180517bffffffffffffffffffffffffffffffffffffffffffffffffffffffff167f422f104300000000000000000000000000000000000000000000000000000000179052611ce4908a9087908490611d03565b50611cf687600263ffffffff6116e616565b9998505050505050505050565b6060600085600160a060020a03168585856040516024018084600160a060020a0316600160a060020a0316815260200183815260200180602001828103825283818151815260200191508051906020019080838360005b83811015611d72578181015183820152602001611d5a565b50505050905090810190601f168015611d9f5780820380516001836020036101000a031916815260200191505b5060408051601f198184030181529181526020820180517bffffffffffffffffffffffffffffffffffffffffffffffffffffffff167f8f6f033200000000000000000000000000000000000000000000000000000000178152905182519297509550859450925090508083835b60208310611e2b5780518252601f199092019160209182019101611e0c565b6001836020036101000a0380198251168184511680821785525050505050509050019150506000604051808303816000865af19150503d8060008114611e8d576040519150601f19603f3d011682016040523d82523d6000602084013e611e92565b606091505b5092509050808015611ea5575060008251115b15611f1257818060200190516020811015611ebf57600080fd5b810190808051640100000000811115611ed757600080fd5b82016020810184811115611eea57600080fd5b8151640100000000811182820187101715611f0457600080fd5b50909550611f829350505050565b600082511115611f26573d6000803e3d6000fd5b801515611f82576040805160008051602061216b833981519152815260206004820152601a60248201527f424d3a2077616c6c657420696e766f6b65207265766572746564000000000000604482015290519081900360640190fd5b50949350505050565b600160a060020a0382166000908152600260205260408120548211611fb257506000611180565b7001000000000000000000000000000000006fffffffffffffffffffffffffffffffff198316044361271001811115611fef576000915050611180565b5050600160a060020a0391909116600090815260026020526040902055600190565b6041808202830160208101516040820151919092015160009260ff9190911691601b83148061204357508260ff16601c145b151561204e57600080fd5b604080516000815260208082018084528a905260ff8616828401526060820185905260808201849052915160019260a0808401939192601f1981019281900390910190855afa1580156120a5573d6000803e3d6000fd5b5050604051601f1901519897505050505050505056fe524d3a207468652077616c6c657420617574686f72697a656420697320646966666572656e74207468656e2074686520746172676574206f66207468652072656c617965642064617461556e69737761703a205f6672616374696f6e206d7573742062652065787072657373656420696e203120706572203130303030556e69737761703a205468652074617267657420746f6b656e206973206e6f7420747261646564206f6e20556e697377617008c379a000000000000000000000000000000000000000000000000000000000424d3a206d75737420626520616e206f776e657220666f72207468652077616c6c6574556e69737761703a2074617267657420746f6b656e206973206e6f7420747261646564206f6e20556e6973776170a165627a7a72305820a69e088a40aead0f768abcb9b6f8610a086f8ddfb92cd25b10267c04e707909b0029",
  "source": "// Copyright (C) 2018  Argent Labs Ltd. <https://argent.xyz>\n\n// This program is free software: you can redistribute it and/or modify\n// it under the terms of the GNU General Public License as published by\n// the Free Software Foundation, either version 3 of the License, or\n// (at your option) any later version.\n\n// This program is distributed in the hope that it will be useful,\n// but WITHOUT ANY WARRANTY; without even the implied warranty of\n// MERCHANTABILITY or FITNESS FOR A PARTICULAR PURPOSE.  See the\n// GNU General Public License for more details.\n\n// You should have received a copy of the GNU General Public License\n// along with this program.  If not, see <http://www.gnu.org/licenses/>.\n\npragma solidity ^0.5.4;\n\nimport \"../../lib/utils/SafeMath.sol\";\nimport \"../wallet/BaseWallet.sol\";\nimport \"./common/BaseModule.sol\";\nimport \"./common/RelayerModule.sol\";\nimport \"./common/OnlyOwnerModule.sol\";\nimport \"../defi/Invest.sol\";\n\ninterface UniswapFactory {\n    function getExchange(address _token) external view returns(address);\n}\n\ninterface UniswapExchange {\n    function getEthToTokenOutputPrice(uint256 _tokens_bought) external view returns (uint256);\n    function getEthToTokenInputPrice(uint256 _eth_sold) external view returns (uint256);\n    function getTokenToEthOutputPrice(uint256 _eth_bought) external view returns (uint256);\n    function getTokenToEthInputPrice(uint256 _tokens_sold) external view returns (uint256);\n}\n\n/**\n * @title UniswapInvestManager\n * @dev Module to invest tokens with Uniswap in order to earn an interest\n * @author Julien Niset - <julien@argent.xyz>\n */\ncontract UniswapManager is Invest, BaseModule, RelayerModule, OnlyOwnerModule {\n\n    bytes32 constant NAME = \"UniswapInvestManager\";\n\n    // The Uniswap Factory contract\n    UniswapFactory public uniswapFactory;\n\n    // Mock token address for ETH\n    address constant internal ETH_TOKEN_ADDRESS = 0xEeeeeEeeeEeEeeEeEeEeeEEEeeeeEeeeeeeeEEeE;\n\n    using SafeMath for uint256;\n\n    constructor(\n        ModuleRegistry _registry,\n        GuardianStorage _guardianStorage,\n        UniswapFactory _uniswapFactory\n    )\n        BaseModule(_registry, _guardianStorage, NAME)\n        public\n    {\n        uniswapFactory = _uniswapFactory;\n    }\n\n    /* ********************************** Implementation of Invest ************************************* */\n\n    /**\n     * @dev Invest tokens for a given period.\n     * @param _wallet The target wallet.\n     * @param _token The token address.\n     * @param _amount The amount of tokens to invest.\n     * @param _period The period over which the tokens may be locked in the investment (optional).\n     * @return The amount of tokens that have been invested.\n     */\n    function addInvestment(\n        BaseWallet _wallet,\n        address _token,\n        uint256 _amount,\n        uint256 _period\n    )\n        external\n        onlyWalletOwner(_wallet)\n        onlyWhenUnlocked(_wallet)\n        returns (uint256 _invested)\n    {\n        _invested = addLiquidity(_wallet, _token, _amount);\n        emit InvestmentAdded(address(_wallet), _token, _amount, _period);\n    }\n\n    /**\n     * @dev Removes a fraction of the tokens from an investment.\n     * @param _wallet The target wallet.s\n     * @param _token The array of token address.\n     * @param _fraction The fraction of invested tokens to exit in per 10000.\n     */\n    function removeInvestment(\n        BaseWallet _wallet,\n        address _token,\n        uint256 _fraction\n    )\n        external\n        onlyWalletOwner(_wallet)\n        onlyWhenUnlocked(_wallet)\n    {\n        require(_fraction <= 10000, \"Uniswap: _fraction must be expressed in 1 per 10000\");\n        removeLiquidity(_wallet, _token, _fraction);\n        emit InvestmentRemoved(address(_wallet), _token, _fraction);\n    }\n\n    /**\n     * @dev Get the amount of investment in a given token.\n     * @param _wallet The target wallet.\n     * @param _token The token address.\n     * @return The value in tokens of the investment (including interests) and the time at which the investment can be removed.\n     */\n    function getInvestment(\n        BaseWallet _wallet,\n        address _token\n    )\n        external\n        view\n        returns (uint256 _tokenValue, uint256 _periodEnd)\n    {\n        address tokenPool = uniswapFactory.getExchange(_token);\n        uint256 tokenPoolSize = ERC20(_token).balanceOf(tokenPool);\n        uint shares = ERC20(tokenPool).balanceOf(address(_wallet));\n        uint totalSupply = ERC20(tokenPool).totalSupply();\n        _tokenValue = shares.mul(tokenPoolSize).mul(2).div(totalSupply);\n        _periodEnd = 0;\n    }\n\n    /* ****************************************** Uniswap utilities ******************************************* */\n\n    /**\n     * @dev Adds liquidity to a Uniswap ETH-ERC20 pair.\n     * @param _wallet The target wallet\n     * @param _token The address of the ERC20 token of the pair.\n     * @param _amount The amount of tokens to add to the pool.\n     */\n    function addLiquidity(\n        BaseWallet _wallet,\n        address _token,\n        uint256 _amount\n    )\n        internal\n        returns (uint256)\n    {\n        require(_amount > 0, \"Uniswap: can't add 0 liquidity\");\n        address tokenPool = uniswapFactory.getExchange(_token);\n        require(tokenPool != address(0), \"Uniswap: target token is not traded on Uniswap\");\n\n        uint256 tokenBalance = ERC20(_token).balanceOf(address(_wallet));\n        if (_amount > tokenBalance) {\n            uint256 ethToSwap = UniswapExchange(tokenPool).getEthToTokenOutputPrice(_amount - tokenBalance);\n            require(ethToSwap <= address(_wallet).balance, \"Uniswap: not enough ETH to swap\");\n            invokeWallet(address(_wallet), tokenPool, ethToSwap, abi.encodeWithSignature(\"ethToTokenSwapOutput(uint256,uint256)\", _amount - tokenBalance, block.timestamp));\n        }\n\n        uint256 tokenLiquidity = ERC20(_token).balanceOf(tokenPool);\n        uint256 ethLiquidity = tokenPool.balance;\n        uint256 ethToPool = (_amount - 1).mul(ethLiquidity).div(tokenLiquidity);\n        require(ethToPool <= address(_wallet).balance, \"Uniswap: not enough ETH to pool\");\n        invokeWallet(address(_wallet), _token, 0, abi.encodeWithSignature(\"approve(address,uint256)\", tokenPool, _amount));\n        invokeWallet(\n            address(_wallet),\n            tokenPool,\n            ethToPool,\n            abi.encodeWithSignature(\"addLiquidity(uint256,uint256,uint256)\",\n            1,\n            _amount,\n            block.timestamp + 1));\n        return _amount.mul(2);\n    }\n\n    /**\n     * @dev Removes liquidity from a Uniswap ETH-ERC20 pair.\n     * @param _wallet The target wallet\n     * @param _token The address of the ERC20 token of the pair.\n     * @param _fraction The fraction of pool shares to liquidate.\n     */\n    function removeLiquidity(\n        BaseWallet _wallet,\n        address _token,\n        uint256 _fraction\n    )\n        internal\n    {\n        address tokenPool = uniswapFactory.getExchange(_token);\n        require(tokenPool != address(0), \"Uniswap: The target token is not traded on Uniswap\");\n        uint256 shares = ERC20(tokenPool).balanceOf(address(_wallet));\n        invokeWallet(\n            address(_wallet),\n            tokenPool,\n            0,\n            abi.encodeWithSignature(\"removeLiquidity(uint256,uint256,uint256,uint256)\",\n            shares.mul(_fraction).div(10000),\n            1,\n            1,\n            block.timestamp + 1));\n    }\n}\n\n",
  "sourcePath": "/Users/name/dev/smartcontracts/contracts/modules/UniswapManager.sol",
  "compiler": {
    "name": "solc",
    "version": "0.5.4+commit.9549d8ff.Emscripten.clang",
    "optimizer": true,
    "runs": 999
  },
  "schemaVersion": "2.3.1",
  "updatedAt": "2020-04-01T21:49:53.112Z"
}