{
  "contractName": "WalletFactory",
  "abi": [
    {
      "constant": false,
      "inputs": [
        {
          "name": "_manager",
          "type": "address"
        }
      ],
      "name": "addManager",
      "outputs": [],
      "payable": false,
      "stateMutability": "nonpayable",
      "type": "function"
    },
    {
      "constant": false,
      "inputs": [
        {
          "name": "_manager",
          "type": "address"
        }
      ],
      "name": "revokeManager",
      "outputs": [],
      "payable": false,
      "stateMutability": "nonpayable",
      "type": "function"
    },
    {
      "constant": true,
      "inputs": [],
      "name": "ensManager",
      "outputs": [
        {
          "name": "",
          "type": "address"
        }
      ],
      "payable": false,
      "stateMutability": "view",
      "type": "function"
    },
    {
      "constant": true,
      "inputs": [],
      "name": "walletImplementation",
      "outputs": [
        {
          "name": "",
          "type": "address"
        }
      ],
      "payable": false,
      "stateMutability": "view",
      "type": "function"
    },
    {
      "constant": true,
      "inputs": [],
      "name": "owner",
      "outputs": [
        {
          "name": "",
          "type": "address"
        }
      ],
      "payable": false,
      "stateMutability": "view",
      "type": "function"
    },
    {
      "constant": false,
      "inputs": [
        {
          "name": "_newOwner",
          "type": "address"
        }
      ],
      "name": "changeOwner",
      "outputs": [],
      "payable": false,
      "stateMutability": "nonpayable",
      "type": "function"
    },
    {
      "constant": true,
      "inputs": [],
      "name": "moduleRegistry",
      "outputs": [
        {
          "name": "",
          "type": "address"
        }
      ],
      "payable": false,
      "stateMutability": "view",
      "type": "function"
    },
    {
      "constant": true,
      "inputs": [],
      "name": "guardianStorage",
      "outputs": [
        {
          "name": "",
          "type": "address"
        }
      ],
      "payable": false,
      "stateMutability": "view",
      "type": "function"
    },
    {
      "constant": true,
      "inputs": [
        {
          "name": "",
          "type": "address"
        }
      ],
      "name": "managers",
      "outputs": [
        {
          "name": "",
          "type": "bool"
        }
      ],
      "payable": false,
      "stateMutability": "view",
      "type": "function"
    },
    {
      "inputs": [
        {
          "name": "_moduleRegistry",
          "type": "address"
        },
        {
          "name": "_walletImplementation",
          "type": "address"
        },
        {
          "name": "_ensManager",
          "type": "address"
        }
      ],
      "payable": false,
      "stateMutability": "nonpayable",
      "type": "constructor"
    },
    {
      "anonymous": false,
      "inputs": [
        {
          "indexed": false,
          "name": "addr",
          "type": "address"
        }
      ],
      "name": "ModuleRegistryChanged",
      "type": "event"
    },
    {
      "anonymous": false,
      "inputs": [
        {
          "indexed": false,
          "name": "addr",
          "type": "address"
        }
      ],
      "name": "ENSManagerChanged",
      "type": "event"
    },
    {
      "anonymous": false,
      "inputs": [
        {
          "indexed": false,
          "name": "addr",
          "type": "address"
        }
      ],
      "name": "GuardianStorageChanged",
      "type": "event"
    },
    {
      "anonymous": false,
      "inputs": [
        {
          "indexed": true,
          "name": "wallet",
          "type": "address"
        },
        {
          "indexed": true,
          "name": "owner",
          "type": "address"
        },
        {
          "indexed": true,
          "name": "guardian",
          "type": "address"
        }
      ],
      "name": "WalletCreated",
      "type": "event"
    },
    {
      "anonymous": false,
      "inputs": [
        {
          "indexed": true,
          "name": "_manager",
          "type": "address"
        }
      ],
      "name": "ManagerAdded",
      "type": "event"
    },
    {
      "anonymous": false,
      "inputs": [
        {
          "indexed": true,
          "name": "_manager",
          "type": "address"
        }
      ],
      "name": "ManagerRevoked",
      "type": "event"
    },
    {
      "anonymous": false,
      "inputs": [
        {
          "indexed": true,
          "name": "_newOwner",
          "type": "address"
        }
      ],
      "name": "OwnerChanged",
      "type": "event"
    },
    {
      "constant": false,
      "inputs": [
        {
          "name": "_owner",
          "type": "address"
        },
        {
          "name": "_modules",
          "type": "address[]"
        },
        {
          "name": "_label",
          "type": "string"
        }
      ],
      "name": "createWallet",
      "outputs": [],
      "payable": false,
      "stateMutability": "nonpayable",
      "type": "function"
    },
    {
      "constant": false,
      "inputs": [
        {
          "name": "_owner",
          "type": "address"
        },
        {
          "name": "_modules",
          "type": "address[]"
        },
        {
          "name": "_label",
          "type": "string"
        },
        {
          "name": "_guardian",
          "type": "address"
        }
      ],
      "name": "createWalletWithGuardian",
      "outputs": [],
      "payable": false,
      "stateMutability": "nonpayable",
      "type": "function"
    },
    {
      "constant": false,
      "inputs": [
        {
          "name": "_owner",
          "type": "address"
        },
        {
          "name": "_modules",
          "type": "address[]"
        },
        {
          "name": "_label",
          "type": "string"
        },
        {
          "name": "_salt",
          "type": "bytes32"
        }
      ],
      "name": "createCounterfactualWallet",
      "outputs": [],
      "payable": false,
      "stateMutability": "nonpayable",
      "type": "function"
    },
    {
      "constant": false,
      "inputs": [
        {
          "name": "_owner",
          "type": "address"
        },
        {
          "name": "_modules",
          "type": "address[]"
        },
        {
          "name": "_label",
          "type": "string"
        },
        {
          "name": "_guardian",
          "type": "address"
        },
        {
          "name": "_salt",
          "type": "bytes32"
        }
      ],
      "name": "createCounterfactualWalletWithGuardian",
      "outputs": [],
      "payable": false,
      "stateMutability": "nonpayable",
      "type": "function"
    },
    {
      "constant": true,
      "inputs": [
        {
          "name": "_owner",
          "type": "address"
        },
        {
          "name": "_modules",
          "type": "address[]"
        },
        {
          "name": "_salt",
          "type": "bytes32"
        }
      ],
      "name": "getAddressForCounterfactualWallet",
      "outputs": [
        {
          "name": "_wallet",
          "type": "address"
        }
      ],
      "payable": false,
      "stateMutability": "view",
      "type": "function"
    },
    {
      "constant": true,
      "inputs": [
        {
          "name": "_owner",
          "type": "address"
        },
        {
          "name": "_modules",
          "type": "address[]"
        },
        {
          "name": "_guardian",
          "type": "address"
        },
        {
          "name": "_salt",
          "type": "bytes32"
        }
      ],
      "name": "getAddressForCounterfactualWalletWithGuardian",
      "outputs": [
        {
          "name": "_wallet",
          "type": "address"
        }
      ],
      "payable": false,
      "stateMutability": "view",
      "type": "function"
    },
    {
      "constant": false,
      "inputs": [
        {
          "name": "_moduleRegistry",
          "type": "address"
        }
      ],
      "name": "changeModuleRegistry",
      "outputs": [],
      "payable": false,
      "stateMutability": "nonpayable",
      "type": "function"
    },
    {
      "constant": false,
      "inputs": [
        {
          "name": "_ensManager",
          "type": "address"
        }
      ],
      "name": "changeENSManager",
      "outputs": [],
      "payable": false,
      "stateMutability": "nonpayable",
      "type": "function"
    },
    {
      "constant": false,
      "inputs": [
        {
          "name": "_guardianStorage",
          "type": "address"
        }
      ],
      "name": "changeGuardianStorage",
      "outputs": [],
      "payable": false,
      "stateMutability": "nonpayable",
      "type": "function"
    },
    {
      "constant": true,
      "inputs": [
        {
          "name": "_wallet",
          "type": "address"
        }
      ],
      "name": "init",
      "outputs": [],
      "payable": false,
      "stateMutability": "pure",
      "type": "function"
    }
  ],
  "bytecode": "0x608060405234801561001057600080fd5b5060405160608061244f8339810180604052606081101561003057600080fd5b508051602082015160409092015160008054600160a060020a0319908116331790915560028054600160a060020a0394851690831617905560038054948416948216949094179093556004805492909116919092161790556123b8806100976000396000f3fe608060405234801561001057600080fd5b506004361061016e576000357c0100000000000000000000000000000000000000000000000000000000900480639d1df5ee116100ea578063bb1cef721161009e578063c6e79bbe11610083578063c6e79bbe1461064f578063d89784fc1461072a578063fdff9b4d146107325761016e565b8063bb1cef72146104df578063c3606c881461056e5761016e565b8063aff18575116100cf578063aff1857514610385578063b95459e414610457578063b97ccf2f1461045f5761016e565b80639d1df5ee14610339578063a6f9dae11461035f5761016e565b8063377e32e6116101415780638117abc1116101265780638117abc1146103035780638da5cb5b1461030b57806390ed991c146103135761016e565b8063377e32e6146102b95780635a6971f9146102df5761016e565b806308d668bc1461017357806319ab453c1461019b5780632d06177a146101c1578063350aaa9a146101e7575b600080fd5b6101996004803603602081101561018957600080fd5b5035600160a060020a031661076c565b005b610199600480360360208110156101b157600080fd5b5035600160a060020a0316610899565b610199600480360360208110156101d757600080fd5b5035600160a060020a031661089c565b610199600480360360808110156101fd57600080fd5b600160a060020a03823516919081019060408101602082013564010000000081111561022857600080fd5b82018360208201111561023a57600080fd5b8035906020019184602083028401116401000000008311171561025c57600080fd5b91939092909160208101903564010000000081111561027a57600080fd5b82018360208201111561028c57600080fd5b803590602001918460018302840111640100000000831117156102ae57600080fd5b9193509150356109d9565b610199600480360360208110156102cf57600080fd5b5035600160a060020a0316610ac6565b6102e7610bdb565b60408051600160a060020a039092168252519081900360200190f35b6102e7610bea565b6102e7610bf9565b6101996004803603602081101561032957600080fd5b5035600160a060020a0316610c08565b6101996004803603602081101561034f57600080fd5b5035600160a060020a0316610d35565b6101996004803603602081101561037557600080fd5b5035600160a060020a0316610e62565b6101996004803603606081101561039b57600080fd5b600160a060020a0382351691908101906040810160208201356401000000008111156103c657600080fd5b8201836020820111156103d857600080fd5b803590602001918460208302840111640100000000831117156103fa57600080fd5b91939092909160208101903564010000000081111561041857600080fd5b82018360208201111561042a57600080fd5b8035906020019184600183028401116401000000008311171561044c57600080fd5b509092509050610f83565b6102e761106d565b6102e76004803603606081101561047557600080fd5b600160a060020a0382351691908101906040810160208201356401000000008111156104a057600080fd5b8201836020820111156104b257600080fd5b803590602001918460208302840111640100000000831117156104d457600080fd5b91935091503561107c565b6102e7600480360360808110156104f557600080fd5b600160a060020a03823516919081019060408101602082013564010000000081111561052057600080fd5b82018360208201111561053257600080fd5b8035906020019184602083028401116401000000008311171561055457600080fd5b9193509150600160a060020a0381351690602001356110c6565b610199600480360360a081101561058457600080fd5b600160a060020a0382351691908101906040810160208201356401000000008111156105af57600080fd5b8201836020820111156105c157600080fd5b803590602001918460208302840111640100000000831117156105e357600080fd5b91939092909160208101903564010000000081111561060157600080fd5b82018360208201111561061357600080fd5b8035906020019184600183028401116401000000008311171561063557600080fd5b9193509150600160a060020a038135169060200135611178565b6101996004803603608081101561066557600080fd5b600160a060020a03823516919081019060408101602082013564010000000081111561069057600080fd5b8201836020820111156106a257600080fd5b803590602001918460208302840111640100000000831117156106c457600080fd5b9193909290916020810190356401000000008111156106e257600080fd5b8201836020820111156106f457600080fd5b8035906020019184600183028401116401000000008311171561071657600080fd5b919350915035600160a060020a031661131e565b6102e76114b9565b6107586004803603602081101561074857600080fd5b5035600160a060020a03166114c8565b604080519115158252519081900360200190f35b600054600160a060020a031633146107d3576040805160008051602061234a833981519152815260206004820152600d60248201527f4d757374206265206f776e657200000000000000000000000000000000000000604482015290519081900360640190fd5b600160a060020a0381161515610838576040805160008051602061234a833981519152815260206004820152601a60248201527f57463a20616464726573732063616e6e6f74206265206e756c6c000000000000604482015290519081900360640190fd5b60028054600160a060020a03831673ffffffffffffffffffffffffffffffffffffffff19909116811790915560408051918252517f9bf4baeb20b6008af8dfd7fed5c50dce707a05623b022e5d61a00c7db7f90c729181900360200190a150565b50565b600054600160a060020a03163314610903576040805160008051602061234a833981519152815260206004820152600d60248201527f4d757374206265206f776e657200000000000000000000000000000000000000604482015290519081900360640190fd5b600160a060020a0381161515610968576040805160008051602061234a833981519152815260206004820152601b60248201527f4d3a2041646472657373206d757374206e6f74206265206e756c6c0000000000604482015290519081900360640190fd5b600160a060020a03811660009081526001602052604090205460ff16151561089957600160a060020a0381166000818152600160208190526040808320805460ff1916909217909155517f3b4a40cccf2058c593542587329dd385be4f0b588db5471fbd9598e56dd7093a9190a250565b3360009081526001602081905260409091205460ff16151514610a4b576040805160008051602061234a833981519152815260206004820152601260248201527f4d3a204d757374206265206d616e616765720000000000000000000000000000604482015290519081900360640190fd5b610abe8686868080602002602001604051908101604052809392919081815260200183836020028082843760009201919091525050604080516020601f8a018190048102820181019092528881529250889150879081908401838280828437600092018290525092508791506114dd9050565b505050505050565b600054600160a060020a03163314610b2d576040805160008051602061234a833981519152815260206004820152600d60248201527f4d757374206265206f776e657200000000000000000000000000000000000000604482015290519081900360640190fd5b600160a060020a03811660009081526001602081905260409091205460ff16151514610b925760405160008051602061234a83398151915281526004018080602001828103825260258152602001806122d26025913960400191505060405180910390fd5b600160a060020a038116600081815260016020526040808220805460ff19169055517fe5def11e0516f317f9c37b8835aec29fc01db4d4b6d6fecaca339d3596a29bc19190a250565b600454600160a060020a031681565b600354600160a060020a031681565b600054600160a060020a031681565b600054600160a060020a03163314610c6f576040805160008051602061234a833981519152815260206004820152600d60248201527f4d757374206265206f776e657200000000000000000000000000000000000000604482015290519081900360640190fd5b600160a060020a0381161515610cd4576040805160008051602061234a833981519152815260206004820152601a60248201527f57463a20616464726573732063616e6e6f74206265206e756c6c000000000000604482015290519081900360640190fd5b60048054600160a060020a03831673ffffffffffffffffffffffffffffffffffffffff19909116811790915560408051918252517f5b22021f5b1f5f8a744edb1f20f667875f22a1b29c4d9a46418ee25110c76cb89181900360200190a150565b600054600160a060020a03163314610d9c576040805160008051602061234a833981519152815260206004820152600d60248201527f4d757374206265206f776e657200000000000000000000000000000000000000604482015290519081900360640190fd5b600160a060020a0381161515610e01576040805160008051602061234a833981519152815260206004820152601a60248201527f57463a20616464726573732063616e6e6f74206265206e756c6c000000000000604482015290519081900360640190fd5b60058054600160a060020a03831673ffffffffffffffffffffffffffffffffffffffff19909116811790915560408051918252517fe897b5d59fcdf32efc14ac4f270d09939e2280487d6d5e156dcb41a29cb034399181900360200190a150565b600054600160a060020a03163314610ec9576040805160008051602061234a833981519152815260206004820152600d60248201527f4d757374206265206f776e657200000000000000000000000000000000000000604482015290519081900360640190fd5b600160a060020a0381161515610f2e576040805160008051602061234a833981519152815260206004820152601860248201527f41646472657373206d757374206e6f74206265206e756c6c0000000000000000604482015290519081900360640190fd5b6000805473ffffffffffffffffffffffffffffffffffffffff1916600160a060020a038316908117825560405190917fa2ea9883a321a3e97b8266c2b078bfeec6d50c711ed71f874a90d500ae2eaf3691a250565b3360009081526001602081905260409091205460ff16151514610ff5576040805160008051602061234a833981519152815260206004820152601260248201527f4d3a204d757374206265206d616e616765720000000000000000000000000000604482015290519081900360640190fd5b6110668585858080602002602001604051908101604052809392919081815260200183836020028082843760009201919091525050604080516020601f89018190048102820181019092528781529250879150869081908401838280828437600092018290525092506115c3915050565b5050505050565b600254600160a060020a031681565b60006110bd85858580806020026020016040519081016040528093929190818152602001838360200280828437600092018290525092508791506116289050565b95945050505050565b6000600160a060020a038316151561112d576040805160008051602061234a833981519152815260206004820152601b60248201527f57463a20677561726469616e2063616e6e6f74206265206e756c6c0000000000604482015290519081900360640190fd5b61116e868686808060200260200160405190810160405280939291908181526020018383602002808284376000920191909152508892508791506116289050565b9695505050505050565b3360009081526001602081905260409091205460ff161515146111ea576040805160008051602061234a833981519152815260206004820152601260248201527f4d3a204d757374206265206d616e616765720000000000000000000000000000604482015290519081900360640190fd5b600554600160a060020a0316151561123b5760405160008051602061234a833981519152815260040180806020018281038252602381526020018061236a6023913960400191505060405180910390fd5b600160a060020a03821615156112a0576040805160008051602061234a833981519152815260206004820152601b60248201527f57463a20677561726469616e2063616e6e6f74206265206e756c6c0000000000604482015290519081900360640190fd5b6113158787878080602002602001604051908101604052809392919081815260200183836020028082843760009201919091525050604080516020601f8b0181900481028201810190925289815292508991508890819084018382808284376000920191909152508892508791506114dd9050565b50505050505050565b3360009081526001602081905260409091205460ff16151514611390576040805160008051602061234a833981519152815260206004820152601260248201527f4d3a204d757374206265206d616e616765720000000000000000000000000000604482015290519081900360640190fd5b600554600160a060020a031615156113e15760405160008051602061234a833981519152815260040180806020018281038252602381526020018061236a6023913960400191505060405180910390fd5b600160a060020a0381161515611446576040805160008051602061234a833981519152815260206004820152601b60248201527f57463a20677561726469616e2063616e6e6f74206265206e756c6c0000000000604482015290519081900360640190fd5b610abe8686868080602002602001604051908101604052809392919081815260200183836020028082843760009201919091525050604080516020601f8a0181900481028201810190925288815292508891508790819084018382808284376000920191909152508792506115c3915050565b600554600160a060020a031681565b60016020526000908152604090205460ff1681565b6114e8858585611744565b60006114f682878786611964565b905060606040518060200161150a9061217d565b601f1982820381018352601f9091011660408190526003548251600160a060020a039091169160209081019182918501908083835b6020831061155e5780518252601f19909201916020918201910161153f565b51815160209384036101000a6000190180199092169116179052920193845250604080518085038152938201905282519294506000935085929150840183f59050803b15156115ac573d6000fd5b6115b98189898989611ab5565b5050505050505050565b6115ce848484611744565b600354604051600091600160a060020a0316906115ea9061217d565b600160a060020a03909116815260405190819003602001906000f080158015611617573d6000803e3d6000fd5b50905080610abe8187878787611ab5565b60008061163783878787611964565b905060606040518060200161164b9061217d565b601f1982820381018352601f9091011660408190526003548251600160a060020a039091169160209081019182918501908083835b6020831061169f5780518252601f199092019160209182019101611680565b51815160209384036101000a600019018019909216911617905292019384525060408051808503815284830182528051908301207fff0000000000000000000000000000000000000000000000000000000000000082860152306c010000000000000000000000000260418601526055850197909752607580850197909752805180850390970187526095909301909252508351930192909220979650505050505050565b600160a060020a03831615156117a9576040805160008051602061234a833981519152815260206004820152601860248201527f57463a206f776e65722063616e6e6f74206265206e756c6c0000000000000000604482015290519081900360640190fd5b81516000106117f15760405160008051602061234a83398151915281526004018080602001828103825260298152602001806123216029913960400191505060405180910390fd5b6002546040517f6bb18a54000000000000000000000000000000000000000000000000000000008152602060048201818152855160248401528551600160a060020a0390941693636bb18a549387938392604490920191818601910280838360005b8381101561186b578181015183820152602001611853565b505050509050019250505060206040518083038186803b15801561188e57600080fd5b505afa1580156118a2573d6000803e3d6000fd5b505050506040513d60208110156118b857600080fd5b505115156118ff5760405160008051602061234a833981519152815260040180806020018281038252602a8152602001806122f7602a913960400191505060405180910390fd5b80518190151561195e576040805160008051602061234a833981519152815260206004820152601d60248201527f57463a20454e53206c61626c65206d75737420626520646566696e6564000000604482015290519081900360640190fd5b50505050565b6000600160a060020a03821615156119ff578484846040516020018084815260200183600160a060020a0316600160a060020a03166c01000000000000000000000000028152601401828051906020019060200280838360005b838110156119d65781810151838201526020016119be565b505050509050019350505050604051602081830303815290604052805190602001209050611aad565b848484846040516020018085815260200184600160a060020a0316600160a060020a03166c01000000000000000000000000028152601401838051906020019060200280838360005b83811015611a60578181015183820152602001611a48565b5050505090500182600160a060020a0316600160a060020a03166c010000000000000000000000000281526014019450505050506040516020818303038152906040528051906020012090505b949350505050565b60608351600101604051908082528060200260200182016040528015611ae5578160200160208202803883390190505b50905030816000815181101515611af857fe5b600160a060020a0390921660209283029091019091015260005b8451811015611b63578481815181101515611b2957fe5b906020019060200201518282600101815181101515611b4457fe5b600160a060020a03909216602092830290910190910152600101611b12565b50604080517f3c5a3cea000000000000000000000000000000000000000000000000000000008152600160a060020a038781166004830190815260248301938452845160448401528451918a1693633c5a3cea938a9387939291606401906020808601910280838360005b83811015611be6578181015183820152602001611bce565b505050509050019350505050600060405180830381600087803b158015611c0c57600080fd5b505af1158015611c20573d6000803e3d6000fd5b50505050600160a060020a03821615611cbb57600554604080517fc6845210000000000000000000000000000000000000000000000000000000008152600160a060020a03898116600483015285811660248301529151919092169163c684521091604480830192600092919082900301818387803b158015611ca257600080fd5b505af1158015611cb6573d6000803e3d6000fd5b505050505b611cc58684611d94565b604080517f1f17732d0000000000000000000000000000000000000000000000000000000081523060048201526000602482018190529151600160a060020a03891692631f17732d926044808201939182900301818387803b158015611d2a57600080fd5b505af1158015611d3e573d6000803e3d6000fd5b5050505081600160a060020a031685600160a060020a031687600160a060020a03167fca0b7dde26052d34217ef1a0cee48085a07ca32da0a918609937a307d496bbf560405160405180910390a4505050505050565b6000600460009054906101000a9004600160a060020a0316600160a060020a031663adce1c5f6040518163ffffffff167c010000000000000000000000000000000000000000000000000000000002815260040160206040518083038186803b158015611e0057600080fd5b505afa158015611e14573d6000803e3d6000fd5b505050506040513d6020811015611e2a57600080fd5b50516004805460408051600160a060020a03928316602482018190529285166044808301919091528251808303909101815260649091018252602081810180517bffffffffffffffffffffffffffffffffffffffffffffffffffffffff167f0f5a54660000000000000000000000000000000000000000000000000000000017905282517f09d73442000000000000000000000000000000000000000000000000000000008152925195965090946000946309d734429380820193929190829003018186803b158015611efc57600080fd5b505afa158015611f10573d6000803e3d6000fd5b505050506040513d6020811015611f2657600080fd5b50516040517f8f6f0332000000000000000000000000000000000000000000000000000000008152600160a060020a0380831660048301908152600060248401819052606060448501908152875160648601528751959650928a1694638f6f03329487949293899390929091608401906020850190808383895b83811015611fb8578181015183820152602001611fa0565b50505050905090810190601f168015611fe55780820380516001836020036101000a031916815260200191505b50945050505050600060405180830381600087803b15801561200657600080fd5b505af115801561201a573d6000803e3d6000fd5b505050506040513d6000823e601f3d908101601f19168201604052602081101561204357600080fd5b81019080805164010000000081111561205b57600080fd5b8201602081018481111561206e57600080fd5b815164010000000081118282018710171561208857600080fd5b505060048054604080517f1e59c529000000000000000000000000000000000000000000000000000000008152600160a060020a038d811660248301529381019182528b5160448201528b51939092169650631e59c52995508a94508b935091829160640190602086019080838360005b838110156121115781810151838201526020016120f9565b50505050905090810190601f16801561213e5780820380516001836020036101000a031916815260200191505b509350505050600060405180830381600087803b15801561215e57600080fd5b505af1158015612172573d6000803e3d6000fd5b505050505050505050565b6101478061218b8339019056fe608060405234801561001057600080fd5b506040516020806101478339810180604052602081101561003057600080fd5b505160008054600160a060020a03909216600160a060020a031990921691909117905560e6806100616000396000f3fe60806040523615801560115750600034115b156092573373ffffffffffffffffffffffffffffffffffffffff16347f606834f57405380c4fb88d1f4850326ad3885f014bab3b568dfbf7a041eef73860003660405180806020018281038252848482818152602001925080828437600083820152604051601f909101601f19169092018290039550909350505050a360b8565b6000543660008037600080366000845af43d6000803e80801560b3573d6000f35b3d6000fd5b00fea165627a7a72305820c852d8e24e4135ddc987d08557ae7dcb6735c780b7e33b7388c064842fd6374800294d3a20546172676574206d75737420626520616e206578697374696e67206d616e6167657257463a206f6e65206f72206d6f7265206d6f64756c657320617265206e6f74207265676973746572656457463a2063616e6e6f742061737369676e2077697468206c657373207468616e2031206d6f64756c6508c379a000000000000000000000000000000000000000000000000000000000477561726469616e53746f726167652061646472657373206e6f7420646566696e6564a165627a7a723058203546086af51d5d3ff3e50650738fb8818c6d466f9dcee7d2313bff1372ff4aa50029",
  "source": "// Copyright (C) 2018  Argent Labs Ltd. <https://argent.xyz>\n\n// This program is free software: you can redistribute it and/or modify\n// it under the terms of the GNU General Public License as published by\n// the Free Software Foundation, either version 3 of the License, or\n// (at your option) any later version.\n\n// This program is distributed in the hope that it will be useful,\n// but WITHOUT ANY WARRANTY; without even the implied warranty of\n// MERCHANTABILITY or FITNESS FOR A PARTICULAR PURPOSE.  See the\n// GNU General Public License for more details.\n\n// You should have received a copy of the GNU General Public License\n// along with this program.  If not, see <http://www.gnu.org/licenses/>.\n\npragma solidity ^0.5.4;\nimport \"./Proxy.sol\";\nimport \"./BaseWallet.sol\";\nimport \"../base/Owned.sol\";\nimport \"../base/Managed.sol\";\nimport \"../ens/IENSManager.sol\";\nimport \"../upgrade/ModuleRegistry.sol\";\nimport \"../storage/IGuardianStorage.sol\";\n\n/**\n * @title WalletFactory\n * @dev The WalletFactory contract creates and assigns wallets to accounts.\n * @author Julien Niset - <julien@argent.xyz>\n */\ncontract WalletFactory is Owned, Managed {\n\n    // The address of the module dregistry\n    address public moduleRegistry;\n    // The address of the base wallet implementation\n    address public walletImplementation;\n    // The address of the ENS manager\n    address public ensManager;\n    // The address of the GuardianStorage\n    address public guardianStorage;\n\n    // *************** Events *************************** //\n\n    event ModuleRegistryChanged(address addr);\n    event ENSManagerChanged(address addr);\n    event GuardianStorageChanged(address addr);\n    event WalletCreated(address indexed wallet, address indexed owner, address indexed guardian);\n\n    // *************** Modifiers *************************** //\n\n    /**\n     * @dev Throws if the guardian storage address is not set.\n     */\n    modifier guardianStorageDefined {\n        require(guardianStorage != address(0), \"GuardianStorage address not defined\");\n        _;\n    }\n\n    // *************** Constructor ********************** //\n\n    /**\n     * @dev Default constructor.\n     */\n    constructor(address _moduleRegistry, address _walletImplementation, address _ensManager) public {\n        moduleRegistry = _moduleRegistry;\n        walletImplementation = _walletImplementation;\n        ensManager = _ensManager;\n    }\n\n    // *************** External Functions ********************* //\n\n    /**\n     * @dev Lets the manager create a wallet for an owner account.\n     * The wallet is initialised with a list of modules and an ENS..\n     * The wallet is created using the CREATE opcode.\n     * @param _owner The account address.\n     * @param _modules The list of modules.\n     * @param _label ENS label of the new wallet, e.g. franck.\n     */\n    function createWallet(\n        address _owner,\n        address[] calldata _modules,\n        string calldata _label\n    )\n        external\n        onlyManager\n    {\n        _createWallet(_owner, _modules, _label, address(0));\n    }\n\n    /**\n     * @dev Lets the manager create a wallet for an owner account.\n     * The wallet is initialised with a list of modules, a first guardian, and an ENS..\n     * The wallet is created using the CREATE opcode.\n     * @param _owner The account address.\n     * @param _modules The list of modules.\n     * @param _label ENS label of the new wallet, e.g. franck.\n     * @param _guardian The guardian address.\n     */\n    function createWalletWithGuardian(\n        address _owner,\n        address[] calldata _modules,\n        string calldata _label,\n        address _guardian\n    )\n        external\n        onlyManager\n        guardianStorageDefined\n    {\n        require(_guardian != (address(0)), \"WF: guardian cannot be null\");\n        _createWallet(_owner, _modules, _label, _guardian);\n    }\n\n    /**\n     * @dev Lets the manager create a wallet for an owner account at a specific address.\n     * The wallet is initialised with a list of modules and an ENS.\n     * The wallet is created using the CREATE2 opcode.\n     * @param _owner The account address.\n     * @param _modules The list of modules.\n     * @param _label ENS label of the new wallet, e.g. franck.\n     * @param _salt The salt.\n     */\n    function createCounterfactualWallet(\n        address _owner,\n        address[] calldata _modules,\n        string calldata _label,\n        bytes32 _salt\n    )\n        external\n        onlyManager\n    {\n        _createCounterfactualWallet(_owner, _modules, _label, address(0), _salt);\n    }\n\n    /**\n     * @dev Lets the manager create a wallet for an owner account at a specific address.\n     * The wallet is initialised with a list of modules, a first guardian, and an ENS.\n     * The wallet is created using the CREATE2 opcode.\n     * @param _owner The account address.\n     * @param _modules The list of modules.\n     * @param _label ENS label of the new wallet, e.g. franck.\n     * @param _guardian The guardian address.\n     * @param _salt The salt.\n     */\n    function createCounterfactualWalletWithGuardian(\n        address _owner,\n        address[] calldata _modules,\n        string calldata _label,\n        address _guardian,\n        bytes32 _salt\n    )\n        external\n        onlyManager\n        guardianStorageDefined\n    {\n        require(_guardian != (address(0)), \"WF: guardian cannot be null\");\n        _createCounterfactualWallet(_owner, _modules, _label, _guardian, _salt);\n    }\n\n    /**\n     * @dev Gets the address of a counterfactual wallet.\n     * @param _owner The account address.\n     * @param _modules The list of modules.\n     * @param _salt The salt.\n     * @return the address that the wallet will have when created using CREATE2 and the same input parameters.\n     */\n    function getAddressForCounterfactualWallet(\n        address _owner,\n        address[] calldata _modules,\n        bytes32 _salt\n    )\n        external\n        view\n        returns (address _wallet)\n    {\n        _wallet = _getAddressForCounterfactualWallet(_owner, _modules, address(0), _salt);\n    }\n\n    /**\n     * @dev Gets the address of a counterfactual wallet with a first default guardian.\n     * @param _owner The account address.\n     * @param _modules The list of modules.\n     * @param _guardian The guardian address.\n     * @param _salt The salt.\n     * @return the address that the wallet will have when created using CREATE2 and the same input parameters.\n     */\n    function getAddressForCounterfactualWalletWithGuardian(\n        address _owner,\n        address[] calldata _modules,\n        address _guardian,\n        bytes32 _salt\n    )\n        external\n        view\n        returns (address _wallet)\n    {\n        require(_guardian != (address(0)), \"WF: guardian cannot be null\");\n        _wallet = _getAddressForCounterfactualWallet(_owner, _modules, _guardian, _salt);\n    }\n\n    /**\n     * @dev Lets the owner change the address of the module registry contract.\n     * @param _moduleRegistry The address of the module registry contract.\n     */\n    function changeModuleRegistry(address _moduleRegistry) external onlyOwner {\n        require(_moduleRegistry != address(0), \"WF: address cannot be null\");\n        moduleRegistry = _moduleRegistry;\n        emit ModuleRegistryChanged(_moduleRegistry);\n    }\n\n    /**\n     * @dev Lets the owner change the address of the ENS manager contract.\n     * @param _ensManager The address of the ENS manager contract.\n     */\n    function changeENSManager(address _ensManager) external onlyOwner {\n        require(_ensManager != address(0), \"WF: address cannot be null\");\n        ensManager = _ensManager;\n        emit ENSManagerChanged(_ensManager);\n    }\n\n    /**\n     * @dev Lets the owner change the address of the GuardianStorage contract.\n     * @param _guardianStorage The address of the GuardianStorage contract.\n     */\n    function changeGuardianStorage(address _guardianStorage) external onlyOwner {\n        require(_guardianStorage != address(0), \"WF: address cannot be null\");\n        guardianStorage = _guardianStorage;\n        emit GuardianStorageChanged(_guardianStorage);\n    }\n\n    /**\n     * @dev Inits the module for a wallet by logging an event.\n     * The method can only be called by the wallet itself.\n     * @param _wallet The wallet.\n     */\n    function init(BaseWallet _wallet) external pure { // solium-disable-line no-empty-blocks\n        //do nothing\n    }\n\n    // *************** Internal Functions ********************* //\n\n    /**\n     * @dev Helper method to create a wallet for an owner account.\n     * The wallet is initialised with a list of modules, a first guardian, and an ENS.\n     * The wallet is created using the CREATE opcode.\n     * @param _owner The account address.\n     * @param _modules The list of modules.\n     * @param _label ENS label of the new wallet, e.g. franck.\n     * @param _guardian (Optional) The guardian address.\n     */\n    function _createWallet(address _owner, address[] memory _modules, string memory _label, address _guardian) internal {\n        _validateInputs(_owner, _modules, _label);\n        Proxy proxy = new Proxy(walletImplementation);\n        address payable wallet = address(proxy);\n        _configureWallet(BaseWallet(wallet), _owner, _modules, _label, _guardian);\n    }\n\n    /**\n     * @dev Helper method to create a wallet for an owner account at a specific address.\n     * The wallet is initialised with a list of modules, a first guardian, and an ENS.\n     * The wallet is created using the CREATE2 opcode.\n     * @param _owner The account address.\n     * @param _modules The list of modules.\n     * @param _label ENS label of the new wallet, e.g. franck.\n     * @param _guardian The guardian address.\n     * @param _salt The salt.\n     */\n    function _createCounterfactualWallet(\n        address _owner,\n        address[] memory _modules,\n        string memory _label,\n        address _guardian,\n        bytes32 _salt\n    )\n        internal\n    {\n        _validateInputs(_owner, _modules, _label);\n        bytes32 newsalt = _newSalt(_salt, _owner, _modules, _guardian);\n        bytes memory code = abi.encodePacked(type(Proxy).creationCode, uint256(walletImplementation));\n        address payable wallet;\n        // solium-disable-next-line security/no-inline-assembly\n        assembly {\n            wallet := create2(0, add(code, 0x20), mload(code), newsalt)\n            if iszero(extcodesize(wallet)) { revert(0, returndatasize) }\n        }\n        _configureWallet(BaseWallet(wallet), _owner, _modules, _label, _guardian);\n    }\n\n    /**\n     * @dev Helper method to configure a wallet for a set of input parameters.\n     * @param _wallet The target wallet\n     * @param _owner The account address.\n     * @param _modules The list of modules.\n     * @param _label ENS label of the new wallet, e.g. franck.\n     * @param _guardian (Optional) The guardian address.\n     */\n    function _configureWallet(\n        BaseWallet _wallet,\n        address _owner,\n        address[] memory _modules,\n        string memory _label,\n        address _guardian\n    )\n        internal\n    {\n        // add the factory to modules so it can claim the reverse ENS or add a guardian\n        address[] memory extendedModules = new address[](_modules.length + 1);\n        extendedModules[0] = address(this);\n        for (uint i = 0; i < _modules.length; i++) {\n            extendedModules[i + 1] = _modules[i];\n        }\n        // initialise the wallet with the owner and the extended modules\n        _wallet.init(_owner, extendedModules);\n        // add guardian if needed\n        if (_guardian != address(0)) {\n            IGuardianStorage(guardianStorage).addGuardian(_wallet, _guardian);\n        }\n        // register ENS\n        _registerWalletENS(address(_wallet), _label);\n        // remove the factory from the authorised modules\n        _wallet.authoriseModule(address(this), false);\n        // emit event\n        emit WalletCreated(address(_wallet), _owner, _guardian);\n    }\n\n    /**\n     * @dev Gets the address of a counterfactual wallet.\n     * @param _owner The account address.\n     * @param _modules The list of modules.\n     * @param _salt The salt.\n     * @param _guardian (Optional) The guardian address.\n     * @return the address that the wallet will have when created using CREATE2 and the same input parameters.\n     */\n    function _getAddressForCounterfactualWallet(\n        address _owner,\n        address[] memory _modules,\n        address _guardian,\n        bytes32 _salt\n    )\n        internal\n        view\n        returns (address _wallet)\n    {\n        bytes32 newsalt = _newSalt(_salt, _owner, _modules, _guardian);\n        bytes memory code = abi.encodePacked(type(Proxy).creationCode, uint256(walletImplementation));\n        bytes32 hash = keccak256(abi.encodePacked(bytes1(0xff), address(this), newsalt, keccak256(code)));\n        _wallet = address(uint160(uint256(hash)));\n    }\n\n    /**\n     * @dev Generates a new salt based on a provided salt, an owner, a list of modules and an optional guardian.\n     * @param _salt The slat provided.\n     * @param _owner The owner address.\n     * @param _modules The list of modules.\n     * @param _guardian The guardian address.\n     */\n    function _newSalt(bytes32 _salt, address _owner, address[] memory _modules, address _guardian) internal pure returns (bytes32) {\n        if (_guardian == address(0)) {\n            return keccak256(abi.encodePacked(_salt, _owner, _modules));\n        } else {\n            return keccak256(abi.encodePacked(_salt, _owner, _modules, _guardian));\n        }\n    }\n\n    /**\n     * @dev Throws if the owner and the modules are not valid.\n     * @param _owner The owner address.\n     * @param _modules The list of modules.\n     */\n    function _validateInputs(address _owner, address[] memory _modules, string memory _label) internal view {\n        require(_owner != address(0), \"WF: owner cannot be null\");\n        require(_modules.length > 0, \"WF: cannot assign with less than 1 module\");\n        require(ModuleRegistry(moduleRegistry).isRegisteredModule(_modules), \"WF: one or more modules are not registered\");\n        bytes memory labelBytes = bytes(_label);\n        require(labelBytes.length != 0, \"WF: ENS lable must be defined\");\n    }\n\n    /**\n     * @dev Register an ENS subname to a wallet.\n     * @param _wallet The wallet address.\n     * @param _label ENS label of the new wallet (e.g. franck).\n     */\n    function _registerWalletENS(address payable _wallet, string memory _label) internal {\n        // claim reverse\n        address ensResolver = IENSManager(ensManager).ensResolver();\n        bytes memory methodData = abi.encodeWithSignature(\"claimWithResolver(address,address)\", ensManager, ensResolver);\n        address ensReverseRegistrar = IENSManager(ensManager).getENSReverseRegistrar();\n        BaseWallet(_wallet).invoke(ensReverseRegistrar, 0, methodData);\n        // register with ENS manager\n        IENSManager(ensManager).register(_label, _wallet);\n    }\n}\n",
  "sourcePath": "/Users/name/dev/smartcontracts/contracts/wallet/WalletFactory.sol",
  "compiler": {
    "name": "solc",
    "version": "0.5.4+commit.9549d8ff.Emscripten.clang",
    "optimizer": true,
    "runs": 999
  },
  "schemaVersion": "2.3.1",
  "updatedAt": "2020-04-01T21:49:53.170Z"
}