{
  "contractName": "ArgentENSManager",
  "abi": [
    {
      "inputs": [
        {
          "internalType": "string",
          "name": "_rootName",
          "type": "string"
        },
        {
          "internalType": "bytes32",
          "name": "_rootNode",
          "type": "bytes32"
        },
        {
          "internalType": "address",
          "name": "_ensRegistry",
          "type": "address"
        },
        {
          "internalType": "address",
          "name": "_ensResolver",
          "type": "address"
        }
      ],
      "payable": false,
      "stateMutability": "nonpayable",
      "type": "constructor"
    },
    {
      "anonymous": false,
      "inputs": [
        {
          "indexed": false,
          "internalType": "address",
          "name": "addr",
          "type": "address"
        }
      ],
      "name": "ENSResolverChanged",
      "type": "event"
    },
    {
      "anonymous": false,
      "inputs": [
        {
          "indexed": true,
          "internalType": "address",
          "name": "_manager",
          "type": "address"
        }
      ],
      "name": "ManagerAdded",
      "type": "event"
    },
    {
      "anonymous": false,
      "inputs": [
        {
          "indexed": true,
          "internalType": "address",
          "name": "_manager",
          "type": "address"
        }
      ],
      "name": "ManagerRevoked",
      "type": "event"
    },
    {
      "anonymous": false,
      "inputs": [
        {
          "indexed": true,
          "internalType": "address",
          "name": "_newOwner",
          "type": "address"
        }
      ],
      "name": "OwnerChanged",
      "type": "event"
    },
    {
      "anonymous": false,
      "inputs": [
        {
          "indexed": true,
          "internalType": "address",
          "name": "_owner",
          "type": "address"
        },
        {
          "indexed": false,
          "internalType": "string",
          "name": "_ens",
          "type": "string"
        }
      ],
      "name": "Registered",
      "type": "event"
    },
    {
      "anonymous": false,
      "inputs": [
        {
          "indexed": true,
          "internalType": "bytes32",
          "name": "_rootnode",
          "type": "bytes32"
        },
        {
          "indexed": true,
          "internalType": "address",
          "name": "_newOwner",
          "type": "address"
        }
      ],
      "name": "RootnodeOwnerChange",
      "type": "event"
    },
    {
      "anonymous": false,
      "inputs": [
        {
          "indexed": false,
          "internalType": "string",
          "name": "_ens",
          "type": "string"
        }
      ],
      "name": "Unregistered",
      "type": "event"
    },
    {
      "constant": true,
      "inputs": [],
      "name": "ADDR_REVERSE_NODE",
      "outputs": [
        {
          "internalType": "bytes32",
          "name": "",
          "type": "bytes32"
        }
      ],
      "payable": false,
      "stateMutability": "view",
      "type": "function"
    },
    {
      "constant": false,
      "inputs": [
        {
          "internalType": "address",
          "name": "_manager",
          "type": "address"
        }
      ],
      "name": "addManager",
      "outputs": [],
      "payable": false,
      "stateMutability": "nonpayable",
      "type": "function"
    },
    {
      "constant": false,
      "inputs": [
        {
          "internalType": "address",
          "name": "_newOwner",
          "type": "address"
        }
      ],
      "name": "changeOwner",
      "outputs": [],
      "payable": false,
      "stateMutability": "nonpayable",
      "type": "function"
    },
    {
      "constant": true,
      "inputs": [],
      "name": "ensRegistry",
      "outputs": [
        {
          "internalType": "contract ENS",
          "name": "",
          "type": "address"
        }
      ],
      "payable": false,
      "stateMutability": "view",
      "type": "function"
    },
    {
      "constant": true,
      "inputs": [],
      "name": "ensResolver",
      "outputs": [
        {
          "internalType": "contract ENSResolver",
          "name": "",
          "type": "address"
        }
      ],
      "payable": false,
      "stateMutability": "view",
      "type": "function"
    },
    {
      "constant": true,
      "inputs": [
        {
          "internalType": "address",
          "name": "",
          "type": "address"
        }
      ],
      "name": "managers",
      "outputs": [
        {
          "internalType": "bool",
          "name": "",
          "type": "bool"
        }
      ],
      "payable": false,
      "stateMutability": "view",
      "type": "function"
    },
    {
      "constant": true,
      "inputs": [],
      "name": "owner",
      "outputs": [
        {
          "internalType": "address",
          "name": "",
          "type": "address"
        }
      ],
      "payable": false,
      "stateMutability": "view",
      "type": "function"
    },
    {
      "constant": false,
      "inputs": [
        {
          "internalType": "address",
          "name": "_manager",
          "type": "address"
        }
      ],
      "name": "revokeManager",
      "outputs": [],
      "payable": false,
      "stateMutability": "nonpayable",
      "type": "function"
    },
    {
      "constant": true,
      "inputs": [],
      "name": "rootName",
      "outputs": [
        {
          "internalType": "string",
          "name": "",
          "type": "string"
        }
      ],
      "payable": false,
      "stateMutability": "view",
      "type": "function"
    },
    {
      "constant": true,
      "inputs": [],
      "name": "rootNode",
      "outputs": [
        {
          "internalType": "bytes32",
          "name": "",
          "type": "bytes32"
        }
      ],
      "payable": false,
      "stateMutability": "view",
      "type": "function"
    },
    {
      "constant": false,
      "inputs": [
        {
          "internalType": "address",
          "name": "_newOwner",
          "type": "address"
        }
      ],
      "name": "changeRootnodeOwner",
      "outputs": [],
      "payable": false,
      "stateMutability": "nonpayable",
      "type": "function"
    },
    {
      "constant": false,
      "inputs": [
        {
          "internalType": "address",
          "name": "_ensResolver",
          "type": "address"
        }
      ],
      "name": "changeENSResolver",
      "outputs": [],
      "payable": false,
      "stateMutability": "nonpayable",
      "type": "function"
    },
    {
      "constant": false,
      "inputs": [
        {
          "internalType": "string",
          "name": "_label",
          "type": "string"
        },
        {
          "internalType": "address",
          "name": "_owner",
          "type": "address"
        }
      ],
      "name": "register",
      "outputs": [],
      "payable": false,
      "stateMutability": "nonpayable",
      "type": "function"
    },
    {
      "constant": true,
      "inputs": [],
      "name": "getENSReverseRegistrar",
      "outputs": [
        {
          "internalType": "address",
          "name": "",
          "type": "address"
        }
      ],
      "payable": false,
      "stateMutability": "view",
      "type": "function"
    },
    {
      "constant": true,
      "inputs": [
        {
          "internalType": "bytes32",
          "name": "_subnode",
          "type": "bytes32"
        }
      ],
      "name": "isAvailable",
      "outputs": [
        {
          "internalType": "bool",
          "name": "",
          "type": "bool"
        }
      ],
      "payable": false,
      "stateMutability": "view",
      "type": "function"
    }
  ],
  "bytecode": "0x60806040523480156200001157600080fd5b50604051620020d1380380620020d1833981810160405260808110156200003757600080fd5b81019080805160405193929190846401000000008211156200005857600080fd5b838201915060208201858111156200006f57600080fd5b82518660018202830111640100000000821117156200008d57600080fd5b8083526020830192505050908051906020019080838360005b83811015620000c3578082015181840152602081019050620000a6565b50505050905090810190601f168015620000f15780820380516001836020036101000a031916815260200191505b50604052602001805190602001909291908051906020019092919080519060200190929190505050336000806101000a81548173ffffffffffffffffffffffffffffffffffffffff021916908373ffffffffffffffffffffffffffffffffffffffff16021790555083600290805190602001906200017192919062000205565b508260038190555081600460006101000a81548173ffffffffffffffffffffffffffffffffffffffff021916908373ffffffffffffffffffffffffffffffffffffffff16021790555080600560006101000a81548173ffffffffffffffffffffffffffffffffffffffff021916908373ffffffffffffffffffffffffffffffffffffffff16021790555050505050620002b4565b828054600181600116156101000203166002900490600052602060002090601f016020900481019282601f106200024857805160ff191683800117855562000279565b8280016001018555821562000279579182015b82811115620002785782518255916020019190600101906200025b565b5b5090506200028891906200028c565b5090565b620002b191905b80821115620002ad57600081600090555060010162000293565b5090565b90565b611e0d80620002c46000396000f3fe608060405234801561001057600080fd5b50600436106100f55760003560e01c806389b6f02711610097578063f20387df11610066578063f20387df1461042f578063faff50a8146104b2578063fb419999146104d0578063fdff9b4d14610514576100f5565b806389b6f027146103115780638da5cb5b14610357578063a6f9dae1146103a1578063adce1c5f146103e5576100f5565b8063377e32e6116100d3578063377e32e6146102215780637cf8a2eb146102655780637d73b2311461028357806386605d96146102cd576100f5565b806309d73442146100fa5780631e59c529146101445780632d06177a146101dd575b600080fd5b610102610570565b604051808273ffffffffffffffffffffffffffffffffffffffff1673ffffffffffffffffffffffffffffffffffffffff16815260200191505060405180910390f35b6101db6004803603604081101561015a57600080fd5b810190808035906020019064010000000081111561017757600080fd5b82018360208201111561018957600080fd5b803590602001918460018302840111640100000000831117156101ab57600080fd5b9091929391929390803573ffffffffffffffffffffffffffffffffffffffff16906020019092919050505061057f565b005b61021f600480360360208110156101f357600080fd5b81019080803573ffffffffffffffffffffffffffffffffffffffff169060200190929190505050610e2c565b005b6102636004803603602081101561023757600080fd5b81019080803573ffffffffffffffffffffffffffffffffffffffff169060200190929190505050611088565b005b61026d611288565b6040518082815260200191505060405180910390f35b61028b6112af565b604051808273ffffffffffffffffffffffffffffffffffffffff1673ffffffffffffffffffffffffffffffffffffffff16815260200191505060405180910390f35b61030f600480360360208110156102e357600080fd5b81019080803573ffffffffffffffffffffffffffffffffffffffff1690602001909291905050506112d5565b005b61033d6004803603602081101561032757600080fd5b81019080803590602001909291905050506114a3565b604051808215151515815260200191505060405180910390f35b61035f6115d7565b604051808273ffffffffffffffffffffffffffffffffffffffff1673ffffffffffffffffffffffffffffffffffffffff16815260200191505060405180910390f35b6103e3600480360360208110156103b757600080fd5b81019080803573ffffffffffffffffffffffffffffffffffffffff1690602001909291905050506115fc565b005b6103ed6117e7565b604051808273ffffffffffffffffffffffffffffffffffffffff1673ffffffffffffffffffffffffffffffffffffffff16815260200191505060405180910390f35b61043761180d565b6040518080602001828103825283818151815260200191508051906020019080838360005b8381101561047757808201518184015260208101905061045c565b50505050905090810190601f1680156104a45780820380516001836020036101000a031916815260200191505b509250505060405180910390f35b6104ba6118ab565b6040518082815260200191505060405180910390f35b610512600480360360208110156104e657600080fd5b81019080803573ffffffffffffffffffffffffffffffffffffffff1690602001909291905050506118b1565b005b6105566004803603602081101561052a57600080fd5b81019080803573ffffffffffffffffffffffffffffffffffffffff169060200190929190505050611abd565b604051808215151515815260200191505060405180910390f35b600061057a611add565b905090565b60011515600160003373ffffffffffffffffffffffffffffffffffffffff1673ffffffffffffffffffffffffffffffffffffffff16815260200190815260200160002060009054906101000a900460ff16151514610645576040517f08c379a00000000000000000000000000000000000000000000000000000000081526004018080602001828103825260128152602001807f4d3a204d757374206265206d616e61676572000000000000000000000000000081525060200191505060405180910390fd5b6000838360405160200180838380828437808301925050509250505060405160208183030381529060405280519060200120905060006003548260405160200180838152602001828152602001925050506040516020818303038152906040528051906020012090506000600460009054906101000a900473ffffffffffffffffffffffffffffffffffffffff1673ffffffffffffffffffffffffffffffffffffffff166302571be3836040518263ffffffff1660e01b81526004018082815260200191505060206040518083038186803b15801561072357600080fd5b505afa158015610737573d6000803e3d6000fd5b505050506040513d602081101561074d57600080fd5b81019080805190602001909291905050509050600073ffffffffffffffffffffffffffffffffffffffff168173ffffffffffffffffffffffffffffffffffffffff1614610802576040517f08c379a000000000000000000000000000000000000000000000000000000000815260040180806020018281038252601d8152602001807f41454d3a205f6c6162656c20697320616c7265616c6479206f776e656400000081525060200191505060405180910390fd5b600460009054906101000a900473ffffffffffffffffffffffffffffffffffffffff1673ffffffffffffffffffffffffffffffffffffffff16635ef2c7f06003548587600560009054906101000a900473ffffffffffffffffffffffffffffffffffffffff1660006040518663ffffffff1660e01b8152600401808681526020018581526020018473ffffffffffffffffffffffffffffffffffffffff1673ffffffffffffffffffffffffffffffffffffffff1681526020018373ffffffffffffffffffffffffffffffffffffffff1673ffffffffffffffffffffffffffffffffffffffff1681526020018267ffffffffffffffff16815260200195505050505050600060405180830381600087803b15801561091e57600080fd5b505af1158015610932573d6000803e3d6000fd5b50505050600560009054906101000a900473ffffffffffffffffffffffffffffffffffffffff1673ffffffffffffffffffffffffffffffffffffffff1663d5fa2b0083866040518363ffffffff1660e01b8152600401808381526020018273ffffffffffffffffffffffffffffffffffffffff1673ffffffffffffffffffffffffffffffffffffffff16815260200192505050600060405180830381600087803b1580156109df57600080fd5b505af11580156109f3573d6000803e3d6000fd5b5050505060606002604051908082528060200260200182016040528015610a3457816020015b610a21611d7f565b815260200190600190039081610a195790505b509050610a8487878080601f016020809104026020016040519081016040528093929190818152602001838380828437600081840152601f19601f82011690508083019250505050505050611bb5565b81600081518110610a9157fe5b6020026020010181905250610b3f60028054600181600116156101000203166002900480601f016020809104026020016040519081016040528092919081815260200182805460018160011615610100020316600290048015610b355780601f10610b0a57610100808354040283529160200191610b35565b820191906000526020600020905b815481529060010190602001808311610b1857829003601f168201915b5050505050611bb5565b81600181518110610b4c57fe5b60200260200101819052506060610ba982610b9b6040518060400160405280600181526020017f2e00000000000000000000000000000000000000000000000000000000000000815250611bb5565b611be390919063ffffffff16565b90506000610bb5611add565b905060008173ffffffffffffffffffffffffffffffffffffffff1663bffbe61c896040518263ffffffff1660e01b8152600401808273ffffffffffffffffffffffffffffffffffffffff1673ffffffffffffffffffffffffffffffffffffffff16815260200191505060206040518083038186803b158015610c3657600080fd5b505afa158015610c4a573d6000803e3d6000fd5b505050506040513d6020811015610c6057600080fd5b81019080805190602001909291905050509050600560009054906101000a900473ffffffffffffffffffffffffffffffffffffffff1673ffffffffffffffffffffffffffffffffffffffff16637737221382856040518363ffffffff1660e01b81526004018083815260200180602001828103825283818151815260200191508051906020019080838360005b83811015610d08578082015181840152602081019050610ced565b50505050905090810190601f168015610d355780820380516001836020036101000a031916815260200191505b509350505050600060405180830381600087803b158015610d5557600080fd5b505af1158015610d69573d6000803e3d6000fd5b505050508773ffffffffffffffffffffffffffffffffffffffff167fb3eccf73f39b1c07947c780b2b39df2a1bb058b4037b0a42d0881ca1a028a132846040518080602001828103825283818151815260200191508051906020019080838360005b83811015610de6578082015181840152602081019050610dcb565b50505050905090810190601f168015610e135780820380516001836020036101000a031916815260200191505b509250505060405180910390a250505050505050505050565b6000809054906101000a900473ffffffffffffffffffffffffffffffffffffffff1673ffffffffffffffffffffffffffffffffffffffff163373ffffffffffffffffffffffffffffffffffffffff1614610eee576040517f08c379a000000000000000000000000000000000000000000000000000000000815260040180806020018281038252600d8152602001807f4d757374206265206f776e65720000000000000000000000000000000000000081525060200191505060405180910390fd5b600073ffffffffffffffffffffffffffffffffffffffff168173ffffffffffffffffffffffffffffffffffffffff161415610f91576040517f08c379a000000000000000000000000000000000000000000000000000000000815260040180806020018281038252601b8152602001807f4d3a2041646472657373206d757374206e6f74206265206e756c6c000000000081525060200191505060405180910390fd5b60001515600160008373ffffffffffffffffffffffffffffffffffffffff1673ffffffffffffffffffffffffffffffffffffffff16815260200190815260200160002060009054906101000a900460ff16151514156110855760018060008373ffffffffffffffffffffffffffffffffffffffff1673ffffffffffffffffffffffffffffffffffffffff16815260200190815260200160002060006101000a81548160ff0219169083151502179055508073ffffffffffffffffffffffffffffffffffffffff167f3b4a40cccf2058c593542587329dd385be4f0b588db5471fbd9598e56dd7093a60405160405180910390a25b50565b6000809054906101000a900473ffffffffffffffffffffffffffffffffffffffff1673ffffffffffffffffffffffffffffffffffffffff163373ffffffffffffffffffffffffffffffffffffffff161461114a576040517f08c379a000000000000000000000000000000000000000000000000000000000815260040180806020018281038252600d8152602001807f4d757374206265206f776e65720000000000000000000000000000000000000081525060200191505060405180910390fd5b60011515600160008373ffffffffffffffffffffffffffffffffffffffff1673ffffffffffffffffffffffffffffffffffffffff16815260200190815260200160002060009054906101000a900460ff161515146111f3576040517f08c379a0000000000000000000000000000000000000000000000000000000008152600401808060200182810382526025815260200180611db46025913960400191505060405180910390fd5b600160008273ffffffffffffffffffffffffffffffffffffffff1673ffffffffffffffffffffffffffffffffffffffff16815260200190815260200160002060006101000a81549060ff02191690558073ffffffffffffffffffffffffffffffffffffffff167fe5def11e0516f317f9c37b8835aec29fc01db4d4b6d6fecaca339d3596a29bc160405160405180910390a250565b7f91d1777781884d03a6757a803996e38de2a42967fb37eeaca72729271025a9e260001b81565b600460009054906101000a900473ffffffffffffffffffffffffffffffffffffffff1681565b6000809054906101000a900473ffffffffffffffffffffffffffffffffffffffff1673ffffffffffffffffffffffffffffffffffffffff163373ffffffffffffffffffffffffffffffffffffffff1614611397576040517f08c379a000000000000000000000000000000000000000000000000000000000815260040180806020018281038252600d8152602001807f4d757374206265206f776e65720000000000000000000000000000000000000081525060200191505060405180910390fd5b600460009054906101000a900473ffffffffffffffffffffffffffffffffffffffff1673ffffffffffffffffffffffffffffffffffffffff16635b0fc9c3600354836040518363ffffffff1660e01b8152600401808381526020018273ffffffffffffffffffffffffffffffffffffffff1673ffffffffffffffffffffffffffffffffffffffff16815260200192505050600060405180830381600087803b15801561144257600080fd5b505af1158015611456573d6000803e3d6000fd5b505050508073ffffffffffffffffffffffffffffffffffffffff166003547f1219ccb7de3c75be86cb7065f05d9d42fb6a5162e02537d1b0d95a890ff4fd9d60405160405180910390a350565b6000806003548360405160200180838152602001828152602001925050506040516020818303038152906040528051906020012090506000600460009054906101000a900473ffffffffffffffffffffffffffffffffffffffff1673ffffffffffffffffffffffffffffffffffffffff166302571be3836040518263ffffffff1660e01b81526004018082815260200191505060206040518083038186803b15801561154e57600080fd5b505afa158015611562573d6000803e3d6000fd5b505050506040513d602081101561157857600080fd5b81019080805190602001909291905050509050600073ffffffffffffffffffffffffffffffffffffffff168173ffffffffffffffffffffffffffffffffffffffff1614156115cb576001925050506115d2565b6000925050505b919050565b6000809054906101000a900473ffffffffffffffffffffffffffffffffffffffff1681565b6000809054906101000a900473ffffffffffffffffffffffffffffffffffffffff1673ffffffffffffffffffffffffffffffffffffffff163373ffffffffffffffffffffffffffffffffffffffff16146116be576040517f08c379a000000000000000000000000000000000000000000000000000000000815260040180806020018281038252600d8152602001807f4d757374206265206f776e65720000000000000000000000000000000000000081525060200191505060405180910390fd5b600073ffffffffffffffffffffffffffffffffffffffff168173ffffffffffffffffffffffffffffffffffffffff161415611761576040517f08c379a00000000000000000000000000000000000000000000000000000000081526004018080602001828103825260188152602001807f41646472657373206d757374206e6f74206265206e756c6c000000000000000081525060200191505060405180910390fd5b806000806101000a81548173ffffffffffffffffffffffffffffffffffffffff021916908373ffffffffffffffffffffffffffffffffffffffff1602179055508073ffffffffffffffffffffffffffffffffffffffff167fa2ea9883a321a3e97b8266c2b078bfeec6d50c711ed71f874a90d500ae2eaf3660405160405180910390a250565b600560009054906101000a900473ffffffffffffffffffffffffffffffffffffffff1681565b60028054600181600116156101000203166002900480601f0160208091040260200160405190810160405280929190818152602001828054600181600116156101000203166002900480156118a35780601f10611878576101008083540402835291602001916118a3565b820191906000526020600020905b81548152906001019060200180831161188657829003601f168201915b505050505081565b60035481565b6000809054906101000a900473ffffffffffffffffffffffffffffffffffffffff1673ffffffffffffffffffffffffffffffffffffffff163373ffffffffffffffffffffffffffffffffffffffff1614611973576040517f08c379a000000000000000000000000000000000000000000000000000000000815260040180806020018281038252600d8152602001807f4d757374206265206f776e65720000000000000000000000000000000000000081525060200191505060405180910390fd5b600073ffffffffffffffffffffffffffffffffffffffff168173ffffffffffffffffffffffffffffffffffffffff161415611a16576040517f08c379a000000000000000000000000000000000000000000000000000000000815260040180806020018281038252601a8152602001807f57463a20616464726573732063616e6e6f74206265206e756c6c00000000000081525060200191505060405180910390fd5b80600560006101000a81548173ffffffffffffffffffffffffffffffffffffffff021916908373ffffffffffffffffffffffffffffffffffffffff1602179055507f8bd878c65101d815c50829c7b19270ff5c19e91bd1ad6ebaa282c4a65a5baa5f81604051808273ffffffffffffffffffffffffffffffffffffffff1673ffffffffffffffffffffffffffffffffffffffff16815260200191505060405180910390a150565b60016020528060005260406000206000915054906101000a900460ff1681565b6000600460009054906101000a900473ffffffffffffffffffffffffffffffffffffffff1673ffffffffffffffffffffffffffffffffffffffff166302571be37f91d1777781884d03a6757a803996e38de2a42967fb37eeaca72729271025a9e260001b6040518263ffffffff1660e01b81526004018082815260200191505060206040518083038186803b158015611b7557600080fd5b505afa158015611b89573d6000803e3d6000fd5b505050506040513d6020811015611b9f57600080fd5b8101908080519060200190929190505050905090565b611bbd611d99565b600060208301905060405180604001604052808451815260200182815250915050919050565b6060600082511415611c0657604051806020016040528060008152509050611d30565b60006001835103846000015102905060008090505b8351811015611c4d57838181518110611c3057fe5b602002602001015160000151820191508080600101915050611c1b565b506060816040519080825280601f01601f191660200182016040528015611c835781602001600182028038833980820191505090505b509050600060208201905060008090505b8551811015611d2857611cd682878381518110611cad57fe5b602002602001015160200151888481518110611cc557fe5b602002602001015160000151611d36565b858181518110611ce257fe5b602002602001015160000151820191506001865103811015611d1b57611d118288602001518960000151611d36565b8660000151820191505b8080600101915050611c94565b508193505050505b92915050565b5b60208110611d5a5781518352602083019250602082019150602081039050611d37565b60006001826020036101000a0390508019835116818551168181178652505050505050565b604051806040016040528060008152602001600081525090565b60405180604001604052806000815260200160008152509056fe4d3a20546172676574206d75737420626520616e206578697374696e67206d616e61676572a265627a7a72315820842a2b5eebee300a32074b24d3af1749a4763b5c89d552b062bbd3c1b1afc06464736f6c63430005100032",
  "source": "// Copyright (C) 2018  Argent Labs Ltd. <https://argent.xyz>\n\n// This program is free software: you can redistribute it and/or modify\n// it under the terms of the GNU General Public License as published by\n// the Free Software Foundation, either version 3 of the License, or\n// (at your option) any later version.\n\n// This program is distributed in the hope that it will be useful,\n// but WITHOUT ANY WARRANTY; without even the implied warranty of\n// MERCHANTABILITY or FITNESS FOR A PARTICULAR PURPOSE.  See the\n// GNU General Public License for more details.\n\n// You should have received a copy of the GNU General Public License\n// along with this program.  If not, see <http://www.gnu.org/licenses/>.\n\npragma solidity ^0.5.4;\nimport \"../../lib/ens/ENS.sol\";\nimport \"../../lib/utils/strings.sol\";\nimport \"./IENSManager.sol\";\nimport \"./ENSResolver.sol\";\nimport \"./ENSReverseRegistrar.sol\";\nimport \"../base/Managed.sol\";\n\n/**\n * @title ArgentENSManager\n * @dev Implementation of an ENS manager that orchestrates the complete\n * registration of subdomains for a single root (e.g. argent.eth).\n * The contract defines a manager role who is the only role that can trigger the registration of\n * a new subdomain.\n * @author Julien Niset - <julien@argent.im>\n */\ncontract ArgentENSManager is IENSManager, Owned, Managed {\n\n    using strings for *;\n\n    // The managed root name\n    string public rootName;\n    // The managed root node\n    bytes32 public rootNode;\n\n    ENS public ensRegistry;\n    ENSResolver public ensResolver;\n\n    // namehash('addr.reverse')\n    bytes32 constant public ADDR_REVERSE_NODE = 0x91d1777781884d03a6757a803996e38de2a42967fb37eeaca72729271025a9e2;\n\n    // *************** Constructor ********************** //\n\n    /**\n     * @dev Constructor that sets the ENS root name and root node to manage.\n     * @param _rootName The root name (e.g. argentx.eth).\n     * @param _rootNode The node of the root name (e.g. namehash(argentx.eth)).\n     * @param _ensRegistry The address of the ENS registry\n     * @param _ensResolver The address of the ENS resolver\n     */\n    constructor(string memory _rootName, bytes32 _rootNode, address _ensRegistry, address _ensResolver) public {\n        rootName = _rootName;\n        rootNode = _rootNode;\n        ensRegistry = ENS(_ensRegistry);\n        ensResolver = ENSResolver(_ensResolver);\n    }\n\n    // *************** External Functions ********************* //\n\n    /**\n     * @dev This function must be called when the ENS Manager contract is replaced\n     * and the address of the new Manager should be provided.\n     * @param _newOwner The address of the new ENS manager that will manage the root node.\n     */\n    function changeRootnodeOwner(address _newOwner) external onlyOwner {\n        ensRegistry.setOwner(rootNode, _newOwner);\n        emit RootnodeOwnerChange(rootNode, _newOwner);\n    }\n\n    /**\n     * @dev Lets the owner change the address of the ENS resolver contract.\n     * @param _ensResolver The address of the ENS resolver contract.\n     */\n    function changeENSResolver(address _ensResolver) external onlyOwner {\n        require(_ensResolver != address(0), \"WF: address cannot be null\");\n        ensResolver = ENSResolver(_ensResolver);\n        emit ENSResolverChanged(_ensResolver);\n    }\n\n    /**\n    * @dev Lets the manager assign an ENS subdomain of the root node to a target address.\n    * Registers both the forward and reverse ENS.\n    * @param _label The subdomain label.\n    * @param _owner The owner of the subdomain.\n    */\n    function register(string calldata _label, address _owner) external onlyManager {\n        bytes32 labelNode = keccak256(abi.encodePacked(_label));\n        bytes32 node = keccak256(abi.encodePacked(rootNode, labelNode));\n        address currentOwner = ensRegistry.owner(node);\n        require(currentOwner == address(0), \"AEM: _label is alrealdy owned\");\n\n        // Forward ENS\n        ensRegistry.setSubnodeRecord(rootNode, labelNode, _owner, address(ensResolver), 0);\n        ensResolver.setAddr(node, _owner);\n\n        // Reverse ENS\n        strings.slice[] memory parts = new strings.slice[](2);\n        parts[0] = _label.toSlice();\n        parts[1] = rootName.toSlice();\n        string memory name = \".\".toSlice().join(parts);\n        ENSReverseRegistrar reverseRegistrar = ENSReverseRegistrar(_getENSReverseRegistrar());\n        bytes32 reverseNode = reverseRegistrar.node(_owner);\n        ensResolver.setName(reverseNode, name);\n\n        emit Registered(_owner, name);\n    }\n\n    /**\n    * @dev Gets the official ENS reverse registrar.\n    * @return Address of the ENS reverse registrar.\n    */\n    function getENSReverseRegistrar() external view returns (address) {\n        return _getENSReverseRegistrar();\n    }\n\n    // *************** Public Functions ********************* //\n\n    /**\n     * @dev Returns true is a given subnode is available.\n     * @param _subnode The target subnode.\n     * @return true if the subnode is available.\n     */\n    function isAvailable(bytes32 _subnode) public view returns (bool) {\n        bytes32 node = keccak256(abi.encodePacked(rootNode, _subnode));\n        address currentOwner = ensRegistry.owner(node);\n        if (currentOwner == address(0)) {\n            return true;\n        }\n        return false;\n    }\n\n    function _getENSReverseRegistrar() internal view returns (address) {\n        return ensRegistry.owner(ADDR_REVERSE_NODE);\n    }\n}\n",
  "sourcePath": "/Users/name/dev/argent-contracts-release-1.5.0/contracts/ens/ArgentENSManager.sol",
  "compiler": {
    "name": "solc",
    "version": "0.5.16+commit.9c3226ce.Emscripten.clang"
  },
  "schemaVersion": "3.0.23",
  "updatedAt": "2020-03-31T19:52:06.266Z",
  "devdoc": {
    "author": "Julien Niset - <julien@argent.im>",
    "details": "Implementation of an ENS manager that orchestrates the complete registration of subdomains for a single root (e.g. argent.eth). The contract defines a manager role who is the only role that can trigger the registration of a new subdomain.",
    "methods": {
      "addManager(address)": {
        "details": "Adds a manager.",
        "params": {
          "_manager": "The address of the manager."
        }
      },
      "changeENSResolver(address)": {
        "details": "Lets the owner change the address of the ENS resolver contract.",
        "params": {
          "_ensResolver": "The address of the ENS resolver contract."
        }
      },
      "changeOwner(address)": {
        "details": "Lets the owner transfer ownership of the contract to a new owner.",
        "params": {
          "_newOwner": "The new owner."
        }
      },
      "changeRootnodeOwner(address)": {
        "details": "This function must be called when the ENS Manager contract is replaced and the address of the new Manager should be provided.",
        "params": {
          "_newOwner": "The address of the new ENS manager that will manage the root node."
        }
      },
      "constructor": {
        "details": "Constructor that sets the ENS root name and root node to manage.",
        "params": {
          "_ensRegistry": "The address of the ENS registry",
          "_ensResolver": "The address of the ENS resolver",
          "_rootName": "The root name (e.g. argentx.eth).",
          "_rootNode": "The node of the root name (e.g. namehash(argentx.eth))."
        }
      },
      "getENSReverseRegistrar()": {
        "details": "Gets the official ENS reverse registrar.",
        "return": "Address of the ENS reverse registrar."
      },
      "isAvailable(bytes32)": {
        "details": "Returns true is a given subnode is available.",
        "params": {
          "_subnode": "The target subnode."
        },
        "return": "true if the subnode is available."
      },
      "register(string,address)": {
        "details": "Lets the manager assign an ENS subdomain of the root node to a target address. Registers both the forward and reverse ENS.",
        "params": {
          "_label": "The subdomain label.",
          "_owner": "The owner of the subdomain."
        }
      },
      "revokeManager(address)": {
        "details": "Revokes a manager.",
        "params": {
          "_manager": "The address of the manager."
        }
      }
    },
    "title": "ArgentENSManager"
  },
  "userdoc": {
    "methods": {}
  }
}