{
  "contractName": "BaseWallet",
  "abi": [
    {
      "anonymous": false,
      "inputs": [
        {
          "indexed": true,
          "internalType": "address",
          "name": "module",
          "type": "address"
        },
        {
          "indexed": false,
          "internalType": "bool",
          "name": "value",
          "type": "bool"
        }
      ],
      "name": "AuthorisedModule",
      "type": "event"
    },
    {
      "anonymous": false,
      "inputs": [
        {
          "indexed": true,
          "internalType": "address",
          "name": "module",
          "type": "address"
        },
        {
          "indexed": true,
          "internalType": "bytes4",
          "name": "method",
          "type": "bytes4"
        }
      ],
      "name": "EnabledStaticCall",
      "type": "event"
    },
    {
      "anonymous": false,
      "inputs": [
        {
          "indexed": true,
          "internalType": "address",
          "name": "module",
          "type": "address"
        },
        {
          "indexed": true,
          "internalType": "address",
          "name": "target",
          "type": "address"
        },
        {
          "indexed": true,
          "internalType": "uint256",
          "name": "value",
          "type": "uint256"
        },
        {
          "indexed": false,
          "internalType": "bytes",
          "name": "data",
          "type": "bytes"
        }
      ],
      "name": "Invoked",
      "type": "event"
    },
    {
      "anonymous": false,
      "inputs": [
        {
          "indexed": false,
          "internalType": "address",
          "name": "owner",
          "type": "address"
        }
      ],
      "name": "OwnerChanged",
      "type": "event"
    },
    {
      "anonymous": false,
      "inputs": [
        {
          "indexed": true,
          "internalType": "uint256",
          "name": "value",
          "type": "uint256"
        },
        {
          "indexed": true,
          "internalType": "address",
          "name": "sender",
          "type": "address"
        },
        {
          "indexed": false,
          "internalType": "bytes",
          "name": "data",
          "type": "bytes"
        }
      ],
      "name": "Received",
      "type": "event"
    },
    {
      "payable": true,
      "stateMutability": "payable",
      "type": "fallback"
    },
    {
      "constant": true,
      "inputs": [
        {
          "internalType": "address",
          "name": "",
          "type": "address"
        }
      ],
      "name": "authorised",
      "outputs": [
        {
          "internalType": "bool",
          "name": "",
          "type": "bool"
        }
      ],
      "payable": false,
      "stateMutability": "view",
      "type": "function"
    },
    {
      "constant": true,
      "inputs": [
        {
          "internalType": "bytes4",
          "name": "",
          "type": "bytes4"
        }
      ],
      "name": "enabled",
      "outputs": [
        {
          "internalType": "address",
          "name": "",
          "type": "address"
        }
      ],
      "payable": false,
      "stateMutability": "view",
      "type": "function"
    },
    {
      "constant": true,
      "inputs": [],
      "name": "implementation",
      "outputs": [
        {
          "internalType": "address",
          "name": "",
          "type": "address"
        }
      ],
      "payable": false,
      "stateMutability": "view",
      "type": "function"
    },
    {
      "constant": true,
      "inputs": [],
      "name": "modules",
      "outputs": [
        {
          "internalType": "uint256",
          "name": "",
          "type": "uint256"
        }
      ],
      "payable": false,
      "stateMutability": "view",
      "type": "function"
    },
    {
      "constant": true,
      "inputs": [],
      "name": "owner",
      "outputs": [
        {
          "internalType": "address",
          "name": "",
          "type": "address"
        }
      ],
      "payable": false,
      "stateMutability": "view",
      "type": "function"
    },
    {
      "constant": false,
      "inputs": [
        {
          "internalType": "address",
          "name": "_owner",
          "type": "address"
        },
        {
          "internalType": "address[]",
          "name": "_modules",
          "type": "address[]"
        }
      ],
      "name": "init",
      "outputs": [],
      "payable": false,
      "stateMutability": "nonpayable",
      "type": "function"
    },
    {
      "constant": false,
      "inputs": [
        {
          "internalType": "address",
          "name": "_module",
          "type": "address"
        },
        {
          "internalType": "bool",
          "name": "_value",
          "type": "bool"
        }
      ],
      "name": "authoriseModule",
      "outputs": [],
      "payable": false,
      "stateMutability": "nonpayable",
      "type": "function"
    },
    {
      "constant": false,
      "inputs": [
        {
          "internalType": "address",
          "name": "_module",
          "type": "address"
        },
        {
          "internalType": "bytes4",
          "name": "_method",
          "type": "bytes4"
        }
      ],
      "name": "enableStaticCall",
      "outputs": [],
      "payable": false,
      "stateMutability": "nonpayable",
      "type": "function"
    },
    {
      "constant": false,
      "inputs": [
        {
          "internalType": "address",
          "name": "_newOwner",
          "type": "address"
        }
      ],
      "name": "setOwner",
      "outputs": [],
      "payable": false,
      "stateMutability": "nonpayable",
      "type": "function"
    },
    {
      "constant": false,
      "inputs": [
        {
          "internalType": "address",
          "name": "_target",
          "type": "address"
        },
        {
          "internalType": "uint256",
          "name": "_value",
          "type": "uint256"
        },
        {
          "internalType": "bytes",
          "name": "_data",
          "type": "bytes"
        }
      ],
      "name": "invoke",
      "outputs": [
        {
          "internalType": "bytes",
          "name": "_result",
          "type": "bytes"
        }
      ],
      "payable": false,
      "stateMutability": "nonpayable",
      "type": "function"
    }
  ],
  "bytecode": "0x608060405234801561001057600080fd5b506116c8806100206000396000f3fe6080604052600436106100915760003560e01c80635f54892b116100595780635f54892b146104dd5780638da5cb5b146105775780638f6f0332146105ce578063d6eb1bbf146106f7578063f7e80e981461076057610091565b806313af4035146102b857806313da30b2146103095780631f17732d146103835780633c5a3cea146103e05780635c60da1b14610486575b60008036905011156102b65760006003600080357fffffffff00000000000000000000000000000000000000000000000000000000167bffffffffffffffffffffffffffffffffffffffffffffffffffffffff19167bffffffffffffffffffffffffffffffffffffffffffffffffffffffff1916815260200190815260200160002060009054906101000a900473ffffffffffffffffffffffffffffffffffffffff169050600073ffffffffffffffffffffffffffffffffffffffff168173ffffffffffffffffffffffffffffffffffffffff1614156101ec573373ffffffffffffffffffffffffffffffffffffffff16347f606834f57405380c4fb88d1f4850326ad3885f014bab3b568dfbf7a041eef73860003660405180806020018281038252848482818152602001925080828437600081840152601f19601f820116905080830192505050935050505060405180910390a36102b4565b600260008273ffffffffffffffffffffffffffffffffffffffff1673ffffffffffffffffffffffffffffffffffffffff16815260200190815260200160002060009054906101000a900460ff1661028e576040517f08c379a000000000000000000000000000000000000000000000000000000000815260040180806020018281038252603081526020018061163d6030913960400191505060405180910390fd5b3660008037600080366000845afa3d6000803e80600081146102af573d6000f35b3d6000fd5b505b005b3480156102c457600080fd5b50610307600480360360208110156102db57600080fd5b81019080803573ffffffffffffffffffffffffffffffffffffffff16906020019092919050505061078b565b005b34801561031557600080fd5b506103816004803603604081101561032c57600080fd5b81019080803573ffffffffffffffffffffffffffffffffffffffff16906020019092919080357bffffffffffffffffffffffffffffffffffffffffffffffffffffffff19169060200190929190505050610977565b005b34801561038f57600080fd5b506103de600480360360408110156103a657600080fd5b81019080803573ffffffffffffffffffffffffffffffffffffffff169060200190929190803515159060200190929190505050610bb2565b005b3480156103ec57600080fd5b506104846004803603604081101561040357600080fd5b81019080803573ffffffffffffffffffffffffffffffffffffffff1690602001909291908035906020019064010000000081111561044057600080fd5b82018360208201111561045257600080fd5b8035906020019184602083028401116401000000008311171561047457600080fd5b9091929391929390505050610ed0565b005b34801561049257600080fd5b5061049b61137b565b604051808273ffffffffffffffffffffffffffffffffffffffff1673ffffffffffffffffffffffffffffffffffffffff16815260200191505060405180910390f35b3480156104e957600080fd5b506105356004803603602081101561050057600080fd5b8101908080357bffffffffffffffffffffffffffffffffffffffffffffffffffffffff191690602001909291905050506113a0565b604051808273ffffffffffffffffffffffffffffffffffffffff1673ffffffffffffffffffffffffffffffffffffffff16815260200191505060405180910390f35b34801561058357600080fd5b5061058c6113d3565b604051808273ffffffffffffffffffffffffffffffffffffffff1673ffffffffffffffffffffffffffffffffffffffff16815260200191505060405180910390f35b3480156105da57600080fd5b5061067c600480360360608110156105f157600080fd5b81019080803573ffffffffffffffffffffffffffffffffffffffff169060200190929190803590602001909291908035906020019064010000000081111561063857600080fd5b82018360208201111561064a57600080fd5b8035906020019184600183028401116401000000008311171561066c57600080fd5b90919293919293905050506113f9565b6040518080602001828103825283818151815260200191508051906020019080838360005b838110156106bc5780820151818401526020810190506106a1565b50505050905090810190601f1680156106e95780820380516001836020036101000a031916815260200191505b509250505060405180910390f35b34801561070357600080fd5b506107466004803603602081101561071a57600080fd5b81019080803573ffffffffffffffffffffffffffffffffffffffff1690602001909291905050506115c3565b604051808215151515815260200191505060405180910390f35b34801561076c57600080fd5b506107756115e3565b6040518082815260200191505060405180910390f35b600260003373ffffffffffffffffffffffffffffffffffffffff1673ffffffffffffffffffffffffffffffffffffffff16815260200190815260200160002060009054906101000a900460ff1661082d576040517f08c379a000000000000000000000000000000000000000000000000000000000815260040180806020018281038252602781526020018061166d6027913960400191505060405180910390fd5b600073ffffffffffffffffffffffffffffffffffffffff168173ffffffffffffffffffffffffffffffffffffffff1614156108d0576040517f08c379a000000000000000000000000000000000000000000000000000000000815260040180806020018281038252601a8152602001807f42573a20616464726573732063616e6e6f74206265206e756c6c00000000000081525060200191505060405180910390fd5b80600160006101000a81548173ffffffffffffffffffffffffffffffffffffffff021916908373ffffffffffffffffffffffffffffffffffffffff1602179055507fa2ea9883a321a3e97b8266c2b078bfeec6d50c711ed71f874a90d500ae2eaf3681604051808273ffffffffffffffffffffffffffffffffffffffff1673ffffffffffffffffffffffffffffffffffffffff16815260200191505060405180910390a150565b600260003373ffffffffffffffffffffffffffffffffffffffff1673ffffffffffffffffffffffffffffffffffffffff16815260200190815260200160002060009054906101000a900460ff16610a19576040517f08c379a000000000000000000000000000000000000000000000000000000000815260040180806020018281038252602781526020018061166d6027913960400191505060405180910390fd5b600260008373ffffffffffffffffffffffffffffffffffffffff1673ffffffffffffffffffffffffffffffffffffffff16815260200190815260200160002060009054906101000a900460ff16610abb576040517f08c379a000000000000000000000000000000000000000000000000000000000815260040180806020018281038252603081526020018061163d6030913960400191505060405180910390fd5b8160036000837bffffffffffffffffffffffffffffffffffffffffffffffffffffffff19167bffffffffffffffffffffffffffffffffffffffffffffffffffffffff1916815260200190815260200160002060006101000a81548173ffffffffffffffffffffffffffffffffffffffff021916908373ffffffffffffffffffffffffffffffffffffffff160217905550807bffffffffffffffffffffffffffffffffffffffffffffffffffffffff19168273ffffffffffffffffffffffffffffffffffffffff167fd04b9de96b5ba21173fd97c509db394c9e07a59ffb10c26da7f6ce38a8102fcb60405160405180910390a35050565b600260003373ffffffffffffffffffffffffffffffffffffffff1673ffffffffffffffffffffffffffffffffffffffff16815260200190815260200160002060009054906101000a900460ff16610c54576040517f08c379a000000000000000000000000000000000000000000000000000000000815260040180806020018281038252602781526020018061166d6027913960400191505060405180910390fd5b801515600260008473ffffffffffffffffffffffffffffffffffffffff1673ffffffffffffffffffffffffffffffffffffffff16815260200190815260200160002060009054906101000a900460ff16151514610ecc578173ffffffffffffffffffffffffffffffffffffffff167f8da3ff870ae294081392139550e167f1f31f277f22015ee22fbffdbd7758f4e182604051808215151515815260200191505060405180910390a2600115158115151415610e0f5760016004600082825401925050819055506001600260008473ffffffffffffffffffffffffffffffffffffffff1673ffffffffffffffffffffffffffffffffffffffff16815260200190815260200160002060006101000a81548160ff0219169083151502179055508173ffffffffffffffffffffffffffffffffffffffff166319ab453c306040518263ffffffff1660e01b8152600401808273ffffffffffffffffffffffffffffffffffffffff1673ffffffffffffffffffffffffffffffffffffffff168152602001915050600060405180830381600087803b158015610df257600080fd5b505af1158015610e06573d6000803e3d6000fd5b50505050610ecb565b6001600460008282540392505081905550600060045411610e7b576040517f08c379a00000000000000000000000000000000000000000000000000000000081526004018080602001828103825260288152602001806115ea6028913960400191505060405180910390fd5b600260008373ffffffffffffffffffffffffffffffffffffffff1673ffffffffffffffffffffffffffffffffffffffff16815260200190815260200160002060006101000a81549060ff02191690555b5b5050565b600073ffffffffffffffffffffffffffffffffffffffff16600160009054906101000a900473ffffffffffffffffffffffffffffffffffffffff1673ffffffffffffffffffffffffffffffffffffffff16148015610f3057506000600454145b610fa2576040517f08c379a000000000000000000000000000000000000000000000000000000000815260040180806020018281038252601e8152602001807f42573a2077616c6c657420616c726561647920696e697469616c69736564000081525060200191505060405180910390fd5b60008282905011610ffe576040517f08c379a000000000000000000000000000000000000000000000000000000000815260040180806020018281038252602b815260200180611612602b913960400191505060405180910390fd5b82600160006101000a81548173ffffffffffffffffffffffffffffffffffffffff021916908373ffffffffffffffffffffffffffffffffffffffff1602179055508181905060048190555060008090505b8282905081101561130f57600015156002600085858581811061106e57fe5b9050602002013573ffffffffffffffffffffffffffffffffffffffff1673ffffffffffffffffffffffffffffffffffffffff1673ffffffffffffffffffffffffffffffffffffffff16815260200190815260200160002060009054906101000a900460ff16151514611148576040517f08c379a000000000000000000000000000000000000000000000000000000000815260040180806020018281038252601b8152602001807f42573a206d6f64756c6520697320616c7265616479206164646564000000000081525060200191505060405180910390fd5b60016002600085858581811061115a57fe5b9050602002013573ffffffffffffffffffffffffffffffffffffffff1673ffffffffffffffffffffffffffffffffffffffff1673ffffffffffffffffffffffffffffffffffffffff16815260200190815260200160002060006101000a81548160ff0219169083151502179055508282828181106111d457fe5b9050602002013573ffffffffffffffffffffffffffffffffffffffff1673ffffffffffffffffffffffffffffffffffffffff166319ab453c306040518263ffffffff1660e01b8152600401808273ffffffffffffffffffffffffffffffffffffffff1673ffffffffffffffffffffffffffffffffffffffff168152602001915050600060405180830381600087803b15801561126f57600080fd5b505af1158015611283573d6000803e3d6000fd5b5050505082828281811061129357fe5b9050602002013573ffffffffffffffffffffffffffffffffffffffff1673ffffffffffffffffffffffffffffffffffffffff167f8da3ff870ae294081392139550e167f1f31f277f22015ee22fbffdbd7758f4e16001604051808215151515815260200191505060405180910390a2808060010191505061104f565b50600047111561137657600073ffffffffffffffffffffffffffffffffffffffff16477f606834f57405380c4fb88d1f4850326ad3885f014bab3b568dfbf7a041eef738604051808060200182810382526000815260200160200191505060405180910390a35b505050565b6000809054906101000a900473ffffffffffffffffffffffffffffffffffffffff1681565b60036020528060005260406000206000915054906101000a900473ffffffffffffffffffffffffffffffffffffffff1681565b600160009054906101000a900473ffffffffffffffffffffffffffffffffffffffff1681565b6060600260003373ffffffffffffffffffffffffffffffffffffffff1673ffffffffffffffffffffffffffffffffffffffff16815260200190815260200160002060009054906101000a900460ff1661149d576040517f08c379a000000000000000000000000000000000000000000000000000000000815260040180806020018281038252602781526020018061166d6027913960400191505060405180910390fd5b60008573ffffffffffffffffffffffffffffffffffffffff1685858560405180838380828437808301925050509250505060006040518083038185875af1925050503d806000811461150b576040519150601f19603f3d011682016040523d82523d6000602084013e611510565b606091505b50809350819250505080611528573d6000803e3d6000fd5b848673ffffffffffffffffffffffffffffffffffffffff163373ffffffffffffffffffffffffffffffffffffffff167f7d2476ab50663f025cff0be85655bcf355f62768615c0c478f3cd5293f807365878760405180806020018281038252848482818152602001925080828437600081840152601f19601f820116905080830192505050935050505060405180910390a450949350505050565b60026020528060005260406000206000915054906101000a900460ff1681565b6004548156fe42573a2077616c6c6574206d7573742068617665206174206c65617374206f6e65206d6f64756c6542573a20636f6e737472756374696f6e207265717569726573206174206c656173742031206d6f64756c6542573a206d75737420626520616e20617574686f7269736564206d6f64756c6520666f72207374617469632063616c6c42573a206d73672e73656e646572206e6f7420616e20617574686f72697a6564206d6f64756c65a265627a7a72315820c9e005aecd95f804ecaa07aaf821a2dbbccfa6bcefdbacd61ffa7dad0d8d7fed64736f6c63430005100032",
  "source": "// Copyright (C) 2018  Argent Labs Ltd. <https://argent.xyz>\n\n// This program is free software: you can redistribute it and/or modify\n// it under the terms of the GNU General Public License as published by\n// the Free Software Foundation, either version 3 of the License, or\n// (at your option) any later version.\n\n// This program is distributed in the hope that it will be useful,\n// but WITHOUT ANY WARRANTY; without even the implied warranty of\n// MERCHANTABILITY or FITNESS FOR A PARTICULAR PURPOSE.  See the\n// GNU General Public License for more details.\n\n// You should have received a copy of the GNU General Public License\n// along with this program.  If not, see <http://www.gnu.org/licenses/>.\n\npragma solidity ^0.5.4;\nimport \"../interfaces/Module.sol\";\n\n/**\n * @title BaseWallet\n * @dev Simple modular wallet that authorises modules to call its invoke() method.\n * @author Julien Niset - <julien@argent.xyz>\n */\ncontract BaseWallet {\n\n    // The implementation of the proxy\n    address public implementation;\n    // The owner\n    address public owner;\n    // The authorised modules\n    mapping (address => bool) public authorised;\n    // The enabled static calls\n    mapping (bytes4 => address) public enabled;\n    // The number of modules\n    uint public modules;\n\n    event AuthorisedModule(address indexed module, bool value);\n    event EnabledStaticCall(address indexed module, bytes4 indexed method);\n    event Invoked(address indexed module, address indexed target, uint indexed value, bytes data);\n    event Received(uint indexed value, address indexed sender, bytes data);\n    event OwnerChanged(address owner);\n\n    /**\n     * @dev Throws if the sender is not an authorised module.\n     */\n    modifier moduleOnly {\n        require(authorised[msg.sender], \"BW: msg.sender not an authorized module\");\n        _;\n    }\n\n    /**\n     * @dev Inits the wallet by setting the owner and authorising a list of modules.\n     * @param _owner The owner.\n     * @param _modules The modules to authorise.\n     */\n    function init(address _owner, address[] calldata _modules) external {\n        require(owner == address(0) && modules == 0, \"BW: wallet already initialised\");\n        require(_modules.length > 0, \"BW: construction requires at least 1 module\");\n        owner = _owner;\n        modules = _modules.length;\n        for (uint256 i = 0; i < _modules.length; i++) {\n            require(authorised[_modules[i]] == false, \"BW: module is already added\");\n            authorised[_modules[i]] = true;\n            Module(_modules[i]).init(this);\n            emit AuthorisedModule(_modules[i], true);\n        }\n        if (address(this).balance > 0) {\n            emit Received(address(this).balance, address(0), \"\");\n        }\n    }\n\n    /**\n     * @dev Enables/Disables a module.\n     * @param _module The target module.\n     * @param _value Set to true to authorise the module.\n     */\n    function authoriseModule(address _module, bool _value) external moduleOnly {\n        if (authorised[_module] != _value) {\n            emit AuthorisedModule(_module, _value);\n            if (_value == true) {\n                modules += 1;\n                authorised[_module] = true;\n                Module(_module).init(this);\n            } else {\n                modules -= 1;\n                require(modules > 0, \"BW: wallet must have at least one module\");\n                delete authorised[_module];\n            }\n        }\n    }\n\n    /**\n    * @dev Enables a static method by specifying the target module to which the call\n    * must be delegated.\n    * @param _module The target module.\n    * @param _method The static method signature.\n    */\n    function enableStaticCall(address _module, bytes4 _method) external moduleOnly {\n        require(authorised[_module], \"BW: must be an authorised module for static call\");\n        enabled[_method] = _module;\n        emit EnabledStaticCall(_module, _method);\n    }\n\n    /**\n     * @dev Sets a new owner for the wallet.\n     * @param _newOwner The new owner.\n     */\n    function setOwner(address _newOwner) external moduleOnly {\n        require(_newOwner != address(0), \"BW: address cannot be null\");\n        owner = _newOwner;\n        emit OwnerChanged(_newOwner);\n    }\n\n    /**\n     * @dev Performs a generic transaction.\n     * @param _target The address for the transaction.\n     * @param _value The value of the transaction.\n     * @param _data The data of the transaction.\n     */\n    function invoke(address _target, uint _value, bytes calldata _data) external moduleOnly returns (bytes memory _result) {\n        bool success;\n        // solium-disable-next-line security/no-call-value\n        (success, _result) = _target.call.value(_value)(_data);\n        if (!success) {\n            // solium-disable-next-line security/no-inline-assembly\n            assembly {\n                returndatacopy(0, 0, returndatasize)\n                revert(0, returndatasize)\n            }\n        }\n        emit Invoked(msg.sender, _target, _value, _data);\n    }\n\n    /**\n     * @dev This method makes it possible for the wallet to comply to interfaces expecting the wallet to\n     * implement specific static methods. It delegates the static call to a target contract if the data corresponds\n     * to an enabled method, or logs the call otherwise.\n     */\n    function() external payable {\n        if (msg.data.length > 0) {\n            address module = enabled[msg.sig];\n            if (module == address(0)) {\n                emit Received(msg.value, msg.sender, msg.data);\n            } else {\n                require(authorised[module], \"BW: must be an authorised module for static call\");\n                // solium-disable-next-line security/no-inline-assembly\n                assembly {\n                    calldatacopy(0, 0, calldatasize())\n                    let result := staticcall(gas, module, 0, calldatasize(), 0, 0)\n                    returndatacopy(0, 0, returndatasize())\n                    switch result\n                    case 0 {revert(0, returndatasize())}\n                    default {return (0, returndatasize())}\n                }\n            }\n        }\n    }\n}",
  "sourcePath": "/Users/name/dev/argent-contracts-release-1.5.0/contracts/wallet/BaseWallet.sol",
  "compiler": {
    "name": "solc",
    "version": "0.5.16+commit.9c3226ce.Emscripten.clang"
  },
  "schemaVersion": "3.0.23",
  "updatedAt": "2020-03-31T19:52:06.980Z",
  "devdoc": {
    "author": "Julien Niset - <julien@argent.xyz>",
    "details": "Simple modular wallet that authorises modules to call its invoke() method.",
    "methods": {
      "authoriseModule(address,bool)": {
        "details": "Enables/Disables a module.",
        "params": {
          "_module": "The target module.",
          "_value": "Set to true to authorise the module."
        }
      },
      "enableStaticCall(address,bytes4)": {
        "details": "Enables a static method by specifying the target module to which the call must be delegated.",
        "params": {
          "_method": "The static method signature.",
          "_module": "The target module."
        }
      },
      "init(address,address[])": {
        "details": "Inits the wallet by setting the owner and authorising a list of modules.",
        "params": {
          "_modules": "The modules to authorise.",
          "_owner": "The owner."
        }
      },
      "invoke(address,uint256,bytes)": {
        "details": "Performs a generic transaction.",
        "params": {
          "_data": "The data of the transaction.",
          "_target": "The address for the transaction.",
          "_value": "The value of the transaction."
        }
      },
      "setOwner(address)": {
        "details": "Sets a new owner for the wallet.",
        "params": {
          "_newOwner": "The new owner."
        }
      }
    },
    "title": "BaseWallet"
  },
  "userdoc": {
    "methods": {}
  }
}