{
  "contractName": "BaseModule",
  "abi": [
    {
      "inputs": [
        {
          "internalType": "contract ModuleRegistry",
          "name": "_registry",
          "type": "address"
        },
        {
          "internalType": "contract GuardianStorage",
          "name": "_guardianStorage",
          "type": "address"
        },
        {
          "internalType": "bytes32",
          "name": "_name",
          "type": "bytes32"
        }
      ],
      "payable": false,
      "stateMutability": "nonpayable",
      "type": "constructor"
    },
    {
      "anonymous": false,
      "inputs": [
        {
          "indexed": false,
          "internalType": "bytes32",
          "name": "name",
          "type": "bytes32"
        }
      ],
      "name": "ModuleCreated",
      "type": "event"
    },
    {
      "anonymous": false,
      "inputs": [
        {
          "indexed": false,
          "internalType": "address",
          "name": "wallet",
          "type": "address"
        }
      ],
      "name": "ModuleInitialised",
      "type": "event"
    },
    {
      "constant": false,
      "inputs": [
        {
          "internalType": "contract BaseWallet",
          "name": "_wallet",
          "type": "address"
        }
      ],
      "name": "init",
      "outputs": [],
      "payable": false,
      "stateMutability": "nonpayable",
      "type": "function"
    },
    {
      "constant": false,
      "inputs": [
        {
          "internalType": "contract BaseWallet",
          "name": "_wallet",
          "type": "address"
        },
        {
          "internalType": "contract Module",
          "name": "_module",
          "type": "address"
        }
      ],
      "name": "addModule",
      "outputs": [],
      "payable": false,
      "stateMutability": "nonpayable",
      "type": "function"
    },
    {
      "constant": false,
      "inputs": [
        {
          "internalType": "address",
          "name": "_token",
          "type": "address"
        }
      ],
      "name": "recoverToken",
      "outputs": [],
      "payable": false,
      "stateMutability": "nonpayable",
      "type": "function"
    }
  ],
  "bytecode": "0x608060405234801561001057600080fd5b506040516108713803806108718339818101604052606081101561003357600080fd5b81019080805190602001909291908051906020019092919080519060200190929190505050826000806101000a81548173ffffffffffffffffffffffffffffffffffffffff021916908373ffffffffffffffffffffffffffffffffffffffff16021790555081600160006101000a81548173ffffffffffffffffffffffffffffffffffffffff021916908373ffffffffffffffffffffffffffffffffffffffff1602179055507f3019c8fc80239e3dff8f781212ae2004839c2cb61d6c70acd279ac65392145df816040518082815260200191505060405180910390a150505061074f806101226000396000f3fe608060405234801561001057600080fd5b50600436106100415760003560e01c806319ab453c146100465780635a1db8c41461008a5780639be65a60146100ee575b600080fd5b6100886004803603602081101561005c57600080fd5b81019080803573ffffffffffffffffffffffffffffffffffffffff169060200190929190505050610132565b005b6100ec600480360360408110156100a057600080fd5b81019080803573ffffffffffffffffffffffffffffffffffffffff169060200190929190803573ffffffffffffffffffffffffffffffffffffffff16906020019092919050505061023b565b005b6101306004803603602081101561010457600080fd5b81019080803573ffffffffffffffffffffffffffffffffffffffff16906020019092919050505061048f565b005b808073ffffffffffffffffffffffffffffffffffffffff163373ffffffffffffffffffffffffffffffffffffffff16146101d4576040517f08c379a00000000000000000000000000000000000000000000000000000000081526004018080602001828103825260198152602001807f424d3a2063616c6c6572206d7573742062652077616c6c65740000000000000081525060200191505060405180910390fd5b7f9fcca3f73f85397e2bf03647abf243c20b753bd54463ff3cae74de2971c112fa82604051808273ffffffffffffffffffffffffffffffffffffffff1673ffffffffffffffffffffffffffffffffffffffff16815260200191505060405180910390a15050565b816102468133610633565b61029b576040517f08c379a000000000000000000000000000000000000000000000000000000000815260040180806020018281038252602e8152602001806106ed602e913960400191505060405180910390fd5b6000809054906101000a900473ffffffffffffffffffffffffffffffffffffffff1673ffffffffffffffffffffffffffffffffffffffff16630bcd4ebb836040518263ffffffff1660e01b8152600401808273ffffffffffffffffffffffffffffffffffffffff1673ffffffffffffffffffffffffffffffffffffffff16815260200191505060206040518083038186803b15801561033957600080fd5b505afa15801561034d573d6000803e3d6000fd5b505050506040513d602081101561036357600080fd5b81019080805190602001909291905050506103e6576040517f08c379a000000000000000000000000000000000000000000000000000000000815260040180806020018281038252601c8152602001807f424d3a206d6f64756c65206973206e6f7420726567697374657265640000000081525060200191505060405180910390fd5b8273ffffffffffffffffffffffffffffffffffffffff16631f17732d8360016040518363ffffffff1660e01b8152600401808373ffffffffffffffffffffffffffffffffffffffff1673ffffffffffffffffffffffffffffffffffffffff1681526020018215151515815260200192505050600060405180830381600087803b15801561047257600080fd5b505af1158015610486573d6000803e3d6000fd5b50505050505050565b60008173ffffffffffffffffffffffffffffffffffffffff166370a08231306040518263ffffffff1660e01b8152600401808273ffffffffffffffffffffffffffffffffffffffff1673ffffffffffffffffffffffffffffffffffffffff16815260200191505060206040518083038186803b15801561050e57600080fd5b505afa158015610522573d6000803e3d6000fd5b505050506040513d602081101561053857600080fd5b810190808051906020019092919050505090508173ffffffffffffffffffffffffffffffffffffffff1663a9059cbb6000809054906101000a900473ffffffffffffffffffffffffffffffffffffffff16836040518363ffffffff1660e01b8152600401808373ffffffffffffffffffffffffffffffffffffffff1673ffffffffffffffffffffffffffffffffffffffff16815260200182815260200192505050602060405180830381600087803b1580156105f357600080fd5b505af1158015610607573d6000803e3d6000fd5b505050506040513d602081101561061d57600080fd5b8101908080519060200190929190505050505050565b60008173ffffffffffffffffffffffffffffffffffffffff168373ffffffffffffffffffffffffffffffffffffffff16638da5cb5b6040518163ffffffff1660e01b815260040160206040518083038186803b15801561069257600080fd5b505afa1580156106a6573d6000803e3d6000fd5b505050506040513d60208110156106bc57600080fd5b810190808051906020019092919050505073ffffffffffffffffffffffffffffffffffffffff161490509291505056fe424d3a206d73672e73656e646572206d75737420626520616e206f776e657220666f72207468652077616c6c6574a265627a7a723158202647578aaaf9836145fada90fb9853cc8c18cf19bde7713b97f8a0745c316e6964736f6c63430005100032",
  "source": "// Copyright (C) 2018  Argent Labs Ltd. <https://argent.xyz>\n\n// This program is free software: you can redistribute it and/or modify\n// it under the terms of the GNU General Public License as published by\n// the Free Software Foundation, either version 3 of the License, or\n// (at your option) any later version.\n\n// This program is distributed in the hope that it will be useful,\n// but WITHOUT ANY WARRANTY; without even the implied warranty of\n// MERCHANTABILITY or FITNESS FOR A PARTICULAR PURPOSE.  See the\n// GNU General Public License for more details.\n\n// You should have received a copy of the GNU General Public License\n// along with this program.  If not, see <http://www.gnu.org/licenses/>.\n\npragma solidity ^0.5.4;\nimport \"../../wallet/BaseWallet.sol\";\nimport \"../../upgrade/ModuleRegistry.sol\";\nimport \"../../storage/GuardianStorage.sol\";\nimport \"../../interfaces/Module.sol\";\nimport \"../../exchange/ERC20.sol\";\n\n/**\n * @title BaseModule\n * @dev Basic module that contains some methods common to all modules.\n * @author Julien Niset - <julien@argent.im>\n */\ncontract BaseModule is Module {\n\n    // Empty calldata\n    bytes constant internal EMPTY_BYTES = \"\";\n\n    // The adddress of the module registry.\n    ModuleRegistry internal registry;\n    // The address of the Guardian storage\n    GuardianStorage internal guardianStorage;\n\n    /**\n     * @dev Throws if the wallet is locked.\n     */\n    modifier onlyWhenUnlocked(BaseWallet _wallet) {\n        // solium-disable-next-line security/no-block-members\n        require(!guardianStorage.isLocked(_wallet), \"BM: wallet must be unlocked\");\n        _;\n    }\n\n    event ModuleCreated(bytes32 name);\n    event ModuleInitialised(address wallet);\n\n    constructor(ModuleRegistry _registry, GuardianStorage _guardianStorage, bytes32 _name) public {\n        registry = _registry;\n        guardianStorage = _guardianStorage;\n        emit ModuleCreated(_name);\n    }\n\n    /**\n     * @dev Throws if the sender is not the target wallet of the call.\n     */\n    modifier onlyWallet(BaseWallet _wallet) {\n        require(msg.sender == address(_wallet), \"BM: caller must be wallet\");\n        _;\n    }\n\n    /**\n     * @dev Throws if the sender is not the owner of the target wallet or the module itself.\n     */\n    modifier onlyWalletOwner(BaseWallet _wallet) {\n        require(msg.sender == address(this) || isOwner(_wallet, msg.sender), \"BM: must be an owner for the wallet\");\n        _;\n    }\n\n    /**\n     * @dev Throws if the sender is not the owner of the target wallet.\n     */\n    modifier strictOnlyWalletOwner(BaseWallet _wallet) {\n        require(isOwner(_wallet, msg.sender), \"BM: msg.sender must be an owner for the wallet\");\n        _;\n    }\n\n    /**\n     * @dev Inits the module for a wallet by logging an event.\n     * The method can only be called by the wallet itself.\n     * @param _wallet The wallet.\n     */\n    function init(BaseWallet _wallet) public onlyWallet(_wallet) {\n        emit ModuleInitialised(address(_wallet));\n    }\n\n    /**\n     * @dev Adds a module to a wallet. First checks that the module is registered.\n     * @param _wallet The target wallet.\n     * @param _module The modules to authorise.\n     */\n    function addModule(BaseWallet _wallet, Module _module) external strictOnlyWalletOwner(_wallet) {\n        require(registry.isRegisteredModule(address(_module)), \"BM: module is not registered\");\n        _wallet.authoriseModule(address(_module), true);\n    }\n\n    /**\n    * @dev Utility method enbaling anyone to recover ERC20 token sent to the\n    * module by mistake and transfer them to the Module Registry.\n    * @param _token The token to recover.\n    */\n    function recoverToken(address _token) external {\n        uint total = ERC20(_token).balanceOf(address(this));\n        ERC20(_token).transfer(address(registry), total);\n    }\n\n    /**\n     * @dev Helper method to check if an address is the owner of a target wallet.\n     * @param _wallet The target wallet.\n     * @param _addr The address.\n     */\n    function isOwner(BaseWallet _wallet, address _addr) internal view returns (bool) {\n        return _wallet.owner() == _addr;\n    }\n\n    /**\n     * @dev Helper method to invoke a wallet.\n     * @param _wallet The target wallet.\n     * @param _to The target address for the transaction.\n     * @param _value The value of the transaction.\n     * @param _data The data of the transaction.\n     */\n    function invokeWallet(address _wallet, address _to, uint256 _value, bytes memory _data) internal returns (bytes memory _res) {\n        bool success;\n        // solium-disable-next-line security/no-call-value\n        (success, _res) = _wallet.call(abi.encodeWithSignature(\"invoke(address,uint256,bytes)\", _to, _value, _data));\n        if (success && _res.length > 0) { //_res is empty if _wallet is an \"old\" BaseWallet that can't return output values\n            (_res) = abi.decode(_res, (bytes));\n        } else if (_res.length > 0) {\n            // solium-disable-next-line security/no-inline-assembly\n            assembly {\n                returndatacopy(0, 0, returndatasize)\n                revert(0, returndatasize)\n            }\n        } else if (!success) {\n            revert(\"BM: wallet invoke reverted\");\n        }\n    }\n}",
  "sourcePath": "/Users/name/dev/argent-contracts-release-1.5.0/contracts/modules/common/BaseModule.sol",
  "compiler": {
    "name": "solc",
    "version": "0.5.16+commit.9c3226ce.Emscripten.clang"
  },
  "schemaVersion": "3.0.23",
  "updatedAt": "2020-03-31T19:53:31.510Z",
  "devdoc": {
    "author": "Julien Niset - <julien@argent.im>",
    "details": "Basic module that contains some methods common to all modules.",
    "methods": {
      "addModule(address,address)": {
        "details": "Adds a module to a wallet. First checks that the module is registered.",
        "params": {
          "_module": "The modules to authorise.",
          "_wallet": "The target wallet."
        }
      },
      "init(address)": {
        "details": "Inits the module for a wallet by logging an event. The method can only be called by the wallet itself.",
        "params": {
          "_wallet": "The wallet."
        }
      },
      "recoverToken(address)": {
        "details": "Utility method enbaling anyone to recover ERC20 token sent to the module by mistake and transfer them to the Module Registry.",
        "params": {
          "_token": "The token to recover."
        }
      }
    },
    "title": "BaseModule"
  },
  "userdoc": {
    "methods": {}
  }
}