{
  "contractName": "CompoundManager",
  "abi": [
    {
      "inputs": [
        {
          "internalType": "contract ModuleRegistry",
          "name": "_registry",
          "type": "address"
        },
        {
          "internalType": "contract GuardianStorage",
          "name": "_guardianStorage",
          "type": "address"
        },
        {
          "internalType": "contract IComptroller",
          "name": "_comptroller",
          "type": "address"
        },
        {
          "internalType": "contract CompoundRegistry",
          "name": "_compoundRegistry",
          "type": "address"
        }
      ],
      "payable": false,
      "stateMutability": "nonpayable",
      "type": "constructor"
    },
    {
      "anonymous": false,
      "inputs": [
        {
          "indexed": true,
          "internalType": "address",
          "name": "_wallet",
          "type": "address"
        },
        {
          "indexed": true,
          "internalType": "bytes32",
          "name": "_loanId",
          "type": "bytes32"
        },
        {
          "indexed": false,
          "internalType": "address",
          "name": "_collateral",
          "type": "address"
        },
        {
          "indexed": false,
          "internalType": "uint256",
          "name": "_collateralAmount",
          "type": "uint256"
        }
      ],
      "name": "CollateralAdded",
      "type": "event"
    },
    {
      "anonymous": false,
      "inputs": [
        {
          "indexed": true,
          "internalType": "address",
          "name": "_wallet",
          "type": "address"
        },
        {
          "indexed": true,
          "internalType": "bytes32",
          "name": "_loanId",
          "type": "bytes32"
        },
        {
          "indexed": false,
          "internalType": "address",
          "name": "_collateral",
          "type": "address"
        },
        {
          "indexed": false,
          "internalType": "uint256",
          "name": "_collateralAmount",
          "type": "uint256"
        }
      ],
      "name": "CollateralRemoved",
      "type": "event"
    },
    {
      "anonymous": false,
      "inputs": [
        {
          "indexed": true,
          "internalType": "address",
          "name": "_wallet",
          "type": "address"
        },
        {
          "indexed": true,
          "internalType": "bytes32",
          "name": "_loanId",
          "type": "bytes32"
        },
        {
          "indexed": false,
          "internalType": "address",
          "name": "_debtToken",
          "type": "address"
        },
        {
          "indexed": false,
          "internalType": "uint256",
          "name": "_debtAmount",
          "type": "uint256"
        }
      ],
      "name": "DebtAdded",
      "type": "event"
    },
    {
      "anonymous": false,
      "inputs": [
        {
          "indexed": true,
          "internalType": "address",
          "name": "_wallet",
          "type": "address"
        },
        {
          "indexed": true,
          "internalType": "bytes32",
          "name": "_loanId",
          "type": "bytes32"
        },
        {
          "indexed": false,
          "internalType": "address",
          "name": "_debtToken",
          "type": "address"
        },
        {
          "indexed": false,
          "internalType": "uint256",
          "name": "_debtAmount",
          "type": "uint256"
        }
      ],
      "name": "DebtRemoved",
      "type": "event"
    },
    {
      "anonymous": false,
      "inputs": [
        {
          "indexed": true,
          "internalType": "address",
          "name": "_wallet",
          "type": "address"
        },
        {
          "indexed": false,
          "internalType": "address",
          "name": "_token",
          "type": "address"
        },
        {
          "indexed": false,
          "internalType": "uint256",
          "name": "_invested",
          "type": "uint256"
        },
        {
          "indexed": false,
          "internalType": "uint256",
          "name": "_period",
          "type": "uint256"
        }
      ],
      "name": "InvestmentAdded",
      "type": "event"
    },
    {
      "anonymous": false,
      "inputs": [
        {
          "indexed": true,
          "internalType": "address",
          "name": "_wallet",
          "type": "address"
        },
        {
          "indexed": false,
          "internalType": "address",
          "name": "_token",
          "type": "address"
        },
        {
          "indexed": false,
          "internalType": "uint256",
          "name": "_fraction",
          "type": "uint256"
        }
      ],
      "name": "InvestmentRemoved",
      "type": "event"
    },
    {
      "anonymous": false,
      "inputs": [
        {
          "indexed": true,
          "internalType": "address",
          "name": "_wallet",
          "type": "address"
        },
        {
          "indexed": true,
          "internalType": "bytes32",
          "name": "_loanId",
          "type": "bytes32"
        }
      ],
      "name": "LoanClosed",
      "type": "event"
    },
    {
      "anonymous": false,
      "inputs": [
        {
          "indexed": true,
          "internalType": "address",
          "name": "_wallet",
          "type": "address"
        },
        {
          "indexed": true,
          "internalType": "bytes32",
          "name": "_loanId",
          "type": "bytes32"
        },
        {
          "indexed": false,
          "internalType": "address",
          "name": "_collateral",
          "type": "address"
        },
        {
          "indexed": false,
          "internalType": "uint256",
          "name": "_collateralAmount",
          "type": "uint256"
        },
        {
          "indexed": false,
          "internalType": "address",
          "name": "_debtToken",
          "type": "address"
        },
        {
          "indexed": false,
          "internalType": "uint256",
          "name": "_debtAmount",
          "type": "uint256"
        }
      ],
      "name": "LoanOpened",
      "type": "event"
    },
    {
      "anonymous": false,
      "inputs": [
        {
          "indexed": false,
          "internalType": "bytes32",
          "name": "name",
          "type": "bytes32"
        }
      ],
      "name": "ModuleCreated",
      "type": "event"
    },
    {
      "anonymous": false,
      "inputs": [
        {
          "indexed": false,
          "internalType": "address",
          "name": "wallet",
          "type": "address"
        }
      ],
      "name": "ModuleInitialised",
      "type": "event"
    },
    {
      "anonymous": false,
      "inputs": [
        {
          "indexed": true,
          "internalType": "address",
          "name": "wallet",
          "type": "address"
        },
        {
          "indexed": true,
          "internalType": "bool",
          "name": "success",
          "type": "bool"
        },
        {
          "indexed": false,
          "internalType": "bytes32",
          "name": "signedHash",
          "type": "bytes32"
        }
      ],
      "name": "TransactionExecuted",
      "type": "event"
    },
    {
      "constant": false,
      "inputs": [
        {
          "internalType": "contract BaseWallet",
          "name": "_wallet",
          "type": "address"
        },
        {
          "internalType": "contract Module",
          "name": "_module",
          "type": "address"
        }
      ],
      "name": "addModule",
      "outputs": [],
      "payable": false,
      "stateMutability": "nonpayable",
      "type": "function"
    },
    {
      "constant": true,
      "inputs": [],
      "name": "compoundRegistry",
      "outputs": [
        {
          "internalType": "contract CompoundRegistry",
          "name": "",
          "type": "address"
        }
      ],
      "payable": false,
      "stateMutability": "view",
      "type": "function"
    },
    {
      "constant": true,
      "inputs": [],
      "name": "comptroller",
      "outputs": [
        {
          "internalType": "contract IComptroller",
          "name": "",
          "type": "address"
        }
      ],
      "payable": false,
      "stateMutability": "view",
      "type": "function"
    },
    {
      "constant": false,
      "inputs": [
        {
          "internalType": "contract BaseWallet",
          "name": "_wallet",
          "type": "address"
        },
        {
          "internalType": "bytes",
          "name": "_data",
          "type": "bytes"
        },
        {
          "internalType": "uint256",
          "name": "_nonce",
          "type": "uint256"
        },
        {
          "internalType": "bytes",
          "name": "_signatures",
          "type": "bytes"
        },
        {
          "internalType": "uint256",
          "name": "_gasPrice",
          "type": "uint256"
        },
        {
          "internalType": "uint256",
          "name": "_gasLimit",
          "type": "uint256"
        }
      ],
      "name": "execute",
      "outputs": [
        {
          "internalType": "bool",
          "name": "success",
          "type": "bool"
        }
      ],
      "payable": false,
      "stateMutability": "nonpayable",
      "type": "function"
    },
    {
      "constant": true,
      "inputs": [
        {
          "internalType": "contract BaseWallet",
          "name": "_wallet",
          "type": "address"
        }
      ],
      "name": "getNonce",
      "outputs": [
        {
          "internalType": "uint256",
          "name": "nonce",
          "type": "uint256"
        }
      ],
      "payable": false,
      "stateMutability": "view",
      "type": "function"
    },
    {
      "constant": false,
      "inputs": [
        {
          "internalType": "contract BaseWallet",
          "name": "_wallet",
          "type": "address"
        }
      ],
      "name": "init",
      "outputs": [],
      "payable": false,
      "stateMutability": "nonpayable",
      "type": "function"
    },
    {
      "constant": true,
      "inputs": [],
      "name": "isOnlyOwnerModule",
      "outputs": [
        {
          "internalType": "bytes4",
          "name": "",
          "type": "bytes4"
        }
      ],
      "payable": false,
      "stateMutability": "pure",
      "type": "function"
    },
    {
      "constant": false,
      "inputs": [
        {
          "internalType": "address",
          "name": "_token",
          "type": "address"
        }
      ],
      "name": "recoverToken",
      "outputs": [],
      "payable": false,
      "stateMutability": "nonpayable",
      "type": "function"
    },
    {
      "constant": true,
      "inputs": [
        {
          "internalType": "address",
          "name": "",
          "type": "address"
        }
      ],
      "name": "relayer",
      "outputs": [
        {
          "internalType": "uint256",
          "name": "nonce",
          "type": "uint256"
        }
      ],
      "payable": false,
      "stateMutability": "view",
      "type": "function"
    },
    {
      "constant": false,
      "inputs": [
        {
          "internalType": "contract BaseWallet",
          "name": "_wallet",
          "type": "address"
        },
        {
          "internalType": "address",
          "name": "_collateral",
          "type": "address"
        },
        {
          "internalType": "uint256",
          "name": "_collateralAmount",
          "type": "uint256"
        },
        {
          "internalType": "address",
          "name": "_debtToken",
          "type": "address"
        },
        {
          "internalType": "uint256",
          "name": "_debtAmount",
          "type": "uint256"
        }
      ],
      "name": "openLoan",
      "outputs": [
        {
          "internalType": "bytes32",
          "name": "_loanId",
          "type": "bytes32"
        }
      ],
      "payable": false,
      "stateMutability": "nonpayable",
      "type": "function"
    },
    {
      "constant": false,
      "inputs": [
        {
          "internalType": "contract BaseWallet",
          "name": "_wallet",
          "type": "address"
        },
        {
          "internalType": "bytes32",
          "name": "_loanId",
          "type": "bytes32"
        }
      ],
      "name": "closeLoan",
      "outputs": [],
      "payable": false,
      "stateMutability": "nonpayable",
      "type": "function"
    },
    {
      "constant": false,
      "inputs": [
        {
          "internalType": "contract BaseWallet",
          "name": "_wallet",
          "type": "address"
        },
        {
          "internalType": "bytes32",
          "name": "_loanId",
          "type": "bytes32"
        },
        {
          "internalType": "address",
          "name": "_collateral",
          "type": "address"
        },
        {
          "internalType": "uint256",
          "name": "_collateralAmount",
          "type": "uint256"
        }
      ],
      "name": "addCollateral",
      "outputs": [],
      "payable": false,
      "stateMutability": "nonpayable",
      "type": "function"
    },
    {
      "constant": false,
      "inputs": [
        {
          "internalType": "contract BaseWallet",
          "name": "_wallet",
          "type": "address"
        },
        {
          "internalType": "bytes32",
          "name": "_loanId",
          "type": "bytes32"
        },
        {
          "internalType": "address",
          "name": "_collateral",
          "type": "address"
        },
        {
          "internalType": "uint256",
          "name": "_collateralAmount",
          "type": "uint256"
        }
      ],
      "name": "removeCollateral",
      "outputs": [],
      "payable": false,
      "stateMutability": "nonpayable",
      "type": "function"
    },
    {
      "constant": false,
      "inputs": [
        {
          "internalType": "contract BaseWallet",
          "name": "_wallet",
          "type": "address"
        },
        {
          "internalType": "bytes32",
          "name": "_loanId",
          "type": "bytes32"
        },
        {
          "internalType": "address",
          "name": "_debtToken",
          "type": "address"
        },
        {
          "internalType": "uint256",
          "name": "_debtAmount",
          "type": "uint256"
        }
      ],
      "name": "addDebt",
      "outputs": [],
      "payable": false,
      "stateMutability": "nonpayable",
      "type": "function"
    },
    {
      "constant": false,
      "inputs": [
        {
          "internalType": "contract BaseWallet",
          "name": "_wallet",
          "type": "address"
        },
        {
          "internalType": "bytes32",
          "name": "_loanId",
          "type": "bytes32"
        },
        {
          "internalType": "address",
          "name": "_debtToken",
          "type": "address"
        },
        {
          "internalType": "uint256",
          "name": "_debtAmount",
          "type": "uint256"
        }
      ],
      "name": "removeDebt",
      "outputs": [],
      "payable": false,
      "stateMutability": "nonpayable",
      "type": "function"
    },
    {
      "constant": true,
      "inputs": [
        {
          "internalType": "contract BaseWallet",
          "name": "_wallet",
          "type": "address"
        },
        {
          "internalType": "bytes32",
          "name": "",
          "type": "bytes32"
        }
      ],
      "name": "getLoan",
      "outputs": [
        {
          "internalType": "uint8",
          "name": "_status",
          "type": "uint8"
        },
        {
          "internalType": "uint256",
          "name": "_ethValue",
          "type": "uint256"
        }
      ],
      "payable": false,
      "stateMutability": "view",
      "type": "function"
    },
    {
      "constant": false,
      "inputs": [
        {
          "internalType": "contract BaseWallet",
          "name": "_wallet",
          "type": "address"
        },
        {
          "internalType": "address",
          "name": "_token",
          "type": "address"
        },
        {
          "internalType": "uint256",
          "name": "_amount",
          "type": "uint256"
        },
        {
          "internalType": "uint256",
          "name": "_period",
          "type": "uint256"
        }
      ],
      "name": "addInvestment",
      "outputs": [
        {
          "internalType": "uint256",
          "name": "_invested",
          "type": "uint256"
        }
      ],
      "payable": false,
      "stateMutability": "nonpayable",
      "type": "function"
    },
    {
      "constant": false,
      "inputs": [
        {
          "internalType": "contract BaseWallet",
          "name": "_wallet",
          "type": "address"
        },
        {
          "internalType": "address",
          "name": "_token",
          "type": "address"
        },
        {
          "internalType": "uint256",
          "name": "_fraction",
          "type": "uint256"
        }
      ],
      "name": "removeInvestment",
      "outputs": [],
      "payable": false,
      "stateMutability": "nonpayable",
      "type": "function"
    },
    {
      "constant": true,
      "inputs": [
        {
          "internalType": "contract BaseWallet",
          "name": "_wallet",
          "type": "address"
        },
        {
          "internalType": "address",
          "name": "_token",
          "type": "address"
        }
      ],
      "name": "getInvestment",
      "outputs": [
        {
          "internalType": "uint256",
          "name": "_tokenValue",
          "type": "uint256"
        },
        {
          "internalType": "uint256",
          "name": "_periodEnd",
          "type": "uint256"
        }
      ],
      "payable": false,
      "stateMutability": "view",
      "type": "function"
    }
  ],
  "bytecode": "0x60806040523480156200001157600080fd5b50604051620059d5380380620059d5833981810160405260808110156200003757600080fd5b810190808051906020019092919080519060200190929190805190602001909291908051906020019092919050505083837f436f6d706f756e644d616e616765720000000000000000000000000000000000826000806101000a81548173ffffffffffffffffffffffffffffffffffffffff021916908373ffffffffffffffffffffffffffffffffffffffff16021790555081600160006101000a81548173ffffffffffffffffffffffffffffffffffffffff021916908373ffffffffffffffffffffffffffffffffffffffff1602179055507f3019c8fc80239e3dff8f781212ae2004839c2cb61d6c70acd279ac65392145df816040518082815260200191505060405180910390a150505081600360006101000a81548173ffffffffffffffffffffffffffffffffffffffff021916908373ffffffffffffffffffffffffffffffffffffffff16021790555080600460006101000a81548173ffffffffffffffffffffffffffffffffffffffff021916908373ffffffffffffffffffffffffffffffffffffffff160217905550505050506157fb80620001da6000396000f3fe608060405234801561001057600080fd5b50600436106101215760003560e01c8063a90cf0af116100ad578063c9b5ef8e11610071578063c9b5ef8e14610761578063cac7495c146107b9578063d490da4d14610838578063e8ca0ca314610894578063ec9e13aa1461090c57610121565b8063a90cf0af14610453578063aacaaf88146104a1578063ac5f8d51146105c5578063b02c808d1461063d578063b352d4af146106e957610121565b80635fe3b567116100f45780635fe3b5671461027057806381c44b5c146102ba57806385a13f381461032957806398d53428146103a15780639be65a601461040f57610121565b806319ab453c146101265780632d0335ab1461016a57806347eb8d43146101c25780635a1db8c41461020c575b600080fd5b6101686004803603602081101561013c57600080fd5b81019080803573ffffffffffffffffffffffffffffffffffffffff169060200190929190505050610998565b005b6101ac6004803603602081101561018057600080fd5b81019080803573ffffffffffffffffffffffffffffffffffffffff169060200190929190505050610aa1565b6040518082815260200191505060405180910390f35b6101ca610aed565b604051808273ffffffffffffffffffffffffffffffffffffffff1673ffffffffffffffffffffffffffffffffffffffff16815260200191505060405180910390f35b61026e6004803603604081101561022257600080fd5b81019080803573ffffffffffffffffffffffffffffffffffffffff169060200190929190803573ffffffffffffffffffffffffffffffffffffffff169060200190929190505050610b13565b005b610278610d9d565b604051808273ffffffffffffffffffffffffffffffffffffffff1673ffffffffffffffffffffffffffffffffffffffff16815260200191505060405180910390f35b610306600480360360408110156102d057600080fd5b81019080803573ffffffffffffffffffffffffffffffffffffffff16906020019092919080359060200190929190505050610dc3565b604051808360ff1660ff1681526020018281526020019250505060405180910390f35b61039f6004803603608081101561033f57600080fd5b81019080803573ffffffffffffffffffffffffffffffffffffffff16906020019092919080359060200190929190803573ffffffffffffffffffffffffffffffffffffffff16906020019092919080359060200190929190505050610f66565b005b61040d600480360360608110156103b757600080fd5b81019080803573ffffffffffffffffffffffffffffffffffffffff169060200190929190803573ffffffffffffffffffffffffffffffffffffffff169060200190929190803590602001909291905050506112ec565b005b6104516004803603602081101561042557600080fd5b81019080803573ffffffffffffffffffffffffffffffffffffffff169060200190929190505050611781565b005b61049f6004803603604081101561046957600080fd5b81019080803573ffffffffffffffffffffffffffffffffffffffff16906020019092919080359060200190929190505050611925565b005b6105ab600480360360c08110156104b757600080fd5b81019080803573ffffffffffffffffffffffffffffffffffffffff169060200190929190803590602001906401000000008111156104f457600080fd5b82018360208201111561050657600080fd5b8035906020019184600183028401116401000000008311171561052857600080fd5b9091929391929390803590602001909291908035906020019064010000000081111561055357600080fd5b82018360208201111561056557600080fd5b8035906020019184600183028401116401000000008311171561058757600080fd5b90919293919293908035906020019092919080359060200190929190505050611f86565b604051808215151515815260200191505060405180910390f35b61063b600480360360808110156105db57600080fd5b81019080803573ffffffffffffffffffffffffffffffffffffffff16906020019092919080359060200190929190803573ffffffffffffffffffffffffffffffffffffffff16906020019092919080359060200190929190505050612302565b005b6106d3600480360360a081101561065357600080fd5b81019080803573ffffffffffffffffffffffffffffffffffffffff169060200190929190803573ffffffffffffffffffffffffffffffffffffffff16906020019092919080359060200190929190803573ffffffffffffffffffffffffffffffffffffffff16906020019092919080359060200190929190505050612688565b6040518082815260200191505060405180910390f35b61075f600480360360808110156106ff57600080fd5b81019080803573ffffffffffffffffffffffffffffffffffffffff16906020019092919080359060200190929190803573ffffffffffffffffffffffffffffffffffffffff16906020019092919080359060200190929190505050612ced565b005b6107a36004803603602081101561077757600080fd5b81019080803573ffffffffffffffffffffffffffffffffffffffff169060200190929190505050613074565b6040518082815260200191505060405180910390f35b61081b600480360360408110156107cf57600080fd5b81019080803573ffffffffffffffffffffffffffffffffffffffff169060200190929190803573ffffffffffffffffffffffffffffffffffffffff169060200190929190505050613092565b604051808381526020018281526020019250505060405180910390f35b6108406132f1565b60405180827bffffffffffffffffffffffffffffffffffffffffffffffffffffffff19167bffffffffffffffffffffffffffffffffffffffffffffffffffffffff1916815260200191505060405180910390f35b61090a600480360360808110156108aa57600080fd5b81019080803573ffffffffffffffffffffffffffffffffffffffff16906020019092919080359060200190929190803573ffffffffffffffffffffffffffffffffffffffff16906020019092919080359060200190929190505050613300565b005b6109826004803603608081101561092257600080fd5b81019080803573ffffffffffffffffffffffffffffffffffffffff169060200190929190803573ffffffffffffffffffffffffffffffffffffffff1690602001909291908035906020019092919080359060200190929190505050613686565b6040518082815260200191505060405180910390f35b808073ffffffffffffffffffffffffffffffffffffffff163373ffffffffffffffffffffffffffffffffffffffff1614610a3a576040517f08c379a00000000000000000000000000000000000000000000000000000000081526004018080602001828103825260198152602001807f424d3a2063616c6c6572206d7573742062652077616c6c65740000000000000081525060200191505060405180910390fd5b7f9fcca3f73f85397e2bf03647abf243c20b753bd54463ff3cae74de2971c112fa82604051808273ffffffffffffffffffffffffffffffffffffffff1673ffffffffffffffffffffffffffffffffffffffff16815260200191505060405180910390a15050565b6000600260008373ffffffffffffffffffffffffffffffffffffffff1673ffffffffffffffffffffffffffffffffffffffff168152602001908152602001600020600001549050919050565b600460009054906101000a900473ffffffffffffffffffffffffffffffffffffffff1681565b813073ffffffffffffffffffffffffffffffffffffffff163373ffffffffffffffffffffffffffffffffffffffff161480610b545750610b5381336139ee565b5b610ba9576040517f08c379a00000000000000000000000000000000000000000000000000000000081526004018080602001828103825260238152602001806157576023913960400191505060405180910390fd5b6000809054906101000a900473ffffffffffffffffffffffffffffffffffffffff1673ffffffffffffffffffffffffffffffffffffffff16630bcd4ebb836040518263ffffffff1660e01b8152600401808273ffffffffffffffffffffffffffffffffffffffff1673ffffffffffffffffffffffffffffffffffffffff16815260200191505060206040518083038186803b158015610c4757600080fd5b505afa158015610c5b573d6000803e3d6000fd5b505050506040513d6020811015610c7157600080fd5b8101908080519060200190929190505050610cf4576040517f08c379a000000000000000000000000000000000000000000000000000000000815260040180806020018281038252601c8152602001807f424d3a206d6f64756c65206973206e6f7420726567697374657265640000000081525060200191505060405180910390fd5b8273ffffffffffffffffffffffffffffffffffffffff16631f17732d8360016040518363ffffffff1660e01b8152600401808373ffffffffffffffffffffffffffffffffffffffff1673ffffffffffffffffffffffffffffffffffffffff1681526020018215151515815260200192505050600060405180830381600087803b158015610d8057600080fd5b505af1158015610d94573d6000803e3d6000fd5b50505050505050565b600360009054906101000a900473ffffffffffffffffffffffffffffffffffffffff1681565b6000806000806000600360009054906101000a900473ffffffffffffffffffffffffffffffffffffffff1673ffffffffffffffffffffffffffffffffffffffff16635ec88c79886040518263ffffffff1660e01b8152600401808273ffffffffffffffffffffffffffffffffffffffff1673ffffffffffffffffffffffffffffffffffffffff16815260200191505060606040518083038186803b158015610e6a57600080fd5b505afa158015610e7e573d6000803e3d6000fd5b505050506040513d6060811015610e9457600080fd5b8101908080519060200190929190805190602001909291908051906020019092919050505092509250925060008314610f18576040517f08c379a000000000000000000000000000000000000000000000000000000000815260040180806020018281038252602981526020018061579e6029913960400191505060405180910390fd5b6000821115610f335760018281915094509450505050610f5f565b6000811115610f4e5760028181915094509450505050610f5f565b600080819150809050945094505050505b9250929050565b833073ffffffffffffffffffffffffffffffffffffffff163373ffffffffffffffffffffffffffffffffffffffff161480610fa75750610fa681336139ee565b5b610ffc576040517f08c379a00000000000000000000000000000000000000000000000000000000081526004018080602001828103825260238152602001806157576023913960400191505060405180910390fd5b84600160009054906101000a900473ffffffffffffffffffffffffffffffffffffffff1673ffffffffffffffffffffffffffffffffffffffff16634a4fbeec826040518263ffffffff1660e01b8152600401808273ffffffffffffffffffffffffffffffffffffffff1673ffffffffffffffffffffffffffffffffffffffff16815260200191505060206040518083038186803b15801561109c57600080fd5b505afa1580156110b0573d6000803e3d6000fd5b505050506040513d60208110156110c657600080fd5b81019080805190602001909291905050501561114a576040517f08c379a000000000000000000000000000000000000000000000000000000000815260040180806020018281038252601b8152602001807f424d3a2077616c6c6574206d75737420626520756e6c6f636b6564000000000081525060200191505060405180910390fd5b6000600460009054906101000a900473ffffffffffffffffffffffffffffffffffffffff1673ffffffffffffffffffffffffffffffffffffffff16637e5a4eb9866040518263ffffffff1660e01b8152600401808273ffffffffffffffffffffffffffffffffffffffff1673ffffffffffffffffffffffffffffffffffffffff16815260200191505060206040518083038186803b1580156111eb57600080fd5b505afa1580156111ff573d6000803e3d6000fd5b505050506040513d602081101561121557600080fd5b810190808051906020019092919050505090506112558782600360009054906101000a900473ffffffffffffffffffffffffffffffffffffffff16613aa7565b611260878286613cfd565b858773ffffffffffffffffffffffffffffffffffffffff167ff6669d5e7ff92997c22e9fe3b54f53ed18448cf5fdccb3eb1dc5004798fbb4148787604051808373ffffffffffffffffffffffffffffffffffffffff1673ffffffffffffffffffffffffffffffffffffffff1681526020018281526020019250505060405180910390a350505050505050565b823073ffffffffffffffffffffffffffffffffffffffff163373ffffffffffffffffffffffffffffffffffffffff16148061132d575061132c81336139ee565b5b611382576040517f08c379a00000000000000000000000000000000000000000000000000000000081526004018080602001828103825260238152602001806157576023913960400191505060405180910390fd5b83600160009054906101000a900473ffffffffffffffffffffffffffffffffffffffff1673ffffffffffffffffffffffffffffffffffffffff16634a4fbeec826040518263ffffffff1660e01b8152600401808273ffffffffffffffffffffffffffffffffffffffff1673ffffffffffffffffffffffffffffffffffffffff16815260200191505060206040518083038186803b15801561142257600080fd5b505afa158015611436573d6000803e3d6000fd5b505050506040513d602081101561144c57600080fd5b8101908080519060200190929190505050156114d0576040517f08c379a000000000000000000000000000000000000000000000000000000000815260040180806020018281038252601b8152602001807f424d3a2077616c6c6574206d75737420626520756e6c6f636b6564000000000081525060200191505060405180910390fd5b61271083111561152b576040517f08c379a00000000000000000000000000000000000000000000000000000000081526004018080602001828103825260228152602001806156eb6022913960400191505060405180910390fd5b6000600460009054906101000a900473ffffffffffffffffffffffffffffffffffffffff1673ffffffffffffffffffffffffffffffffffffffff16637e5a4eb9866040518263ffffffff1660e01b8152600401808273ffffffffffffffffffffffffffffffffffffffff1673ffffffffffffffffffffffffffffffffffffffff16815260200191505060206040518083038186803b1580156115cc57600080fd5b505afa1580156115e0573d6000803e3d6000fd5b505050506040513d60208110156115f657600080fd5b8101908080519060200190929190505050905060008173ffffffffffffffffffffffffffffffffffffffff166370a08231886040518263ffffffff1660e01b8152600401808273ffffffffffffffffffffffffffffffffffffffff1673ffffffffffffffffffffffffffffffffffffffff16815260200191505060206040518083038186803b15801561168857600080fd5b505afa15801561169c573d6000803e3d6000fd5b505050506040513d60208110156116b257600080fd5b810190808051906020019092919050505090506116f687836116f16127106116e38a87613e9990919063ffffffff16565b613ed390919063ffffffff16565b613ef9565b8673ffffffffffffffffffffffffffffffffffffffff167f9aa275f858ea6286ee2cacd32cd2ae55f918a310ee6d0320caad244ee9d6109e8787604051808373ffffffffffffffffffffffffffffffffffffffff1673ffffffffffffffffffffffffffffffffffffffff1681526020018281526020019250505060405180910390a250505050505050565b60008173ffffffffffffffffffffffffffffffffffffffff166370a08231306040518263ffffffff1660e01b8152600401808273ffffffffffffffffffffffffffffffffffffffff1673ffffffffffffffffffffffffffffffffffffffff16815260200191505060206040518083038186803b15801561180057600080fd5b505afa158015611814573d6000803e3d6000fd5b505050506040513d602081101561182a57600080fd5b810190808051906020019092919050505090508173ffffffffffffffffffffffffffffffffffffffff1663a9059cbb6000809054906101000a900473ffffffffffffffffffffffffffffffffffffffff16836040518363ffffffff1660e01b8152600401808373ffffffffffffffffffffffffffffffffffffffff1673ffffffffffffffffffffffffffffffffffffffff16815260200182815260200192505050602060405180830381600087803b1580156118e557600080fd5b505af11580156118f9573d6000803e3d6000fd5b505050506040513d602081101561190f57600080fd5b8101908080519060200190929190505050505050565b813073ffffffffffffffffffffffffffffffffffffffff163373ffffffffffffffffffffffffffffffffffffffff161480611966575061196581336139ee565b5b6119bb576040517f08c379a00000000000000000000000000000000000000000000000000000000081526004018080602001828103825260238152602001806157576023913960400191505060405180910390fd5b82600160009054906101000a900473ffffffffffffffffffffffffffffffffffffffff1673ffffffffffffffffffffffffffffffffffffffff16634a4fbeec826040518263ffffffff1660e01b8152600401808273ffffffffffffffffffffffffffffffffffffffff1673ffffffffffffffffffffffffffffffffffffffff16815260200191505060206040518083038186803b158015611a5b57600080fd5b505afa158015611a6f573d6000803e3d6000fd5b505050506040513d6020811015611a8557600080fd5b810190808051906020019092919050505015611b09576040517f08c379a000000000000000000000000000000000000000000000000000000000815260040180806020018281038252601b8152602001807f424d3a2077616c6c6574206d75737420626520756e6c6f636b6564000000000081525060200191505060405180910390fd5b6060600360009054906101000a900473ffffffffffffffffffffffffffffffffffffffff1673ffffffffffffffffffffffffffffffffffffffff1663abfceffc866040518263ffffffff1660e01b8152600401808273ffffffffffffffffffffffffffffffffffffffff1673ffffffffffffffffffffffffffffffffffffffff16815260200191505060006040518083038186803b158015611baa57600080fd5b505afa158015611bbe573d6000803e3d6000fd5b505050506040513d6000823e3d601f19601f820116820180604052506020811015611be857600080fd5b8101908080516040519392919084640100000000821115611c0857600080fd5b83820191506020820185811115611c1e57600080fd5b8251866020820283011164010000000082111715611c3b57600080fd5b8083526020830192505050908051906020019060200280838360005b83811015611c72578082015181840152602081019050611c57565b50505050905001604052505050905060008090505b8151811015611f3a576000828281518110611c9e57fe5b6020026020010151905060008173ffffffffffffffffffffffffffffffffffffffff166317bfdfbc896040518263ffffffff1660e01b8152600401808273ffffffffffffffffffffffffffffffffffffffff1673ffffffffffffffffffffffffffffffffffffffff168152602001915050602060405180830381600087803b158015611d2957600080fd5b505af1158015611d3d573d6000803e3d6000fd5b505050506040513d6020811015611d5357600080fd5b810190808051906020019092919050505090506000811115611f2b57611d7a888383614095565b60008273ffffffffffffffffffffffffffffffffffffffff166370a082318a6040518263ffffffff1660e01b8152600401808273ffffffffffffffffffffffffffffffffffffffff1673ffffffffffffffffffffffffffffffffffffffff16815260200191505060206040518083038186803b158015611df957600080fd5b505afa158015611e0d573d6000803e3d6000fd5b505050506040513d6020811015611e2357600080fd5b810190808051906020019092919050505090506000811415611f2957611f2789600360009054906101000a900473ffffffffffffffffffffffffffffffffffffffff16600086604051602401808273ffffffffffffffffffffffffffffffffffffffff1673ffffffffffffffffffffffffffffffffffffffff1681526020019150506040516020818303038152906040527fede4edd0000000000000000000000000000000000000000000000000000000007bffffffffffffffffffffffffffffffffffffffffffffffffffffffff19166020820180517bffffffffffffffffffffffffffffffffffffffffffffffffffffffff838183161783525050505061461e565b505b505b50508080600101915050611c87565b50838573ffffffffffffffffffffffffffffffffffffffff167f07e4a0c6f06275f83bcf78e5a10eb7f5515574d593bce993377961f4133b951c60405160405180910390a35050505050565b6000805a90506000611fe2308c60008d8d8080601f016020809104026020016040519081016040528093929190818152602001838380828437600081840152601f19601f820116905080830192505050505050508c8a8a614986565b9050611fef8b8983614b83565b612061576040517f08c379a00000000000000000000000000000000000000000000000000000000081526004018080602001828103825260158152602001807f524d3a204475706c69636174652072657175657374000000000000000000000081525060200191505060405180910390fd5b6120af8b8b8b8080601f016020809104026020016040519081016040528093929190818152602001838380828437600081840152601f19601f82011690508083019250505050505050614b98565b612104576040517f08c379a000000000000000000000000000000000000000000000000000000000815260040180806020018281038252604a81526020018061570d604a913960600191505060405180910390fd5b60006121548c8c8c8080601f016020809104026020016040519081016040528093929190818152602001838380828437600081840152601f19601f82011690508083019250505050505050614c53565b9050878790506041820214156122a2576121708c868884614c5f565b156122a157600081148061221457506122138c8c8c8080601f016020809104026020016040519081016040528093929190818152602001838380828437600081840152601f19601f82011690508083019250505050505050848b8b8080601f016020809104026020016040519081016040528093929190818152602001838380828437600081840152601f19601f82011690508083019250505050505050614d75565b5b156122a0573073ffffffffffffffffffffffffffffffffffffffff168b8b6040518083838082843780830192505050925050506000604051808303816000865af19150503d8060008114612284576040519150601f19603f3d011682016040523d82523d6000602084013e612289565b606091505b50508094505061229f8c5a850388888533614d9b565b5b5b5b8315158c73ffffffffffffffffffffffffffffffffffffffff167f6bb0b384ce772133df63560651bc8c727c53306cec1d51e2cbf8ea35fb8f2ec1846040518082815260200191505060405180910390a350505098975050505050505050565b833073ffffffffffffffffffffffffffffffffffffffff163373ffffffffffffffffffffffffffffffffffffffff161480612343575061234281336139ee565b5b612398576040517f08c379a00000000000000000000000000000000000000000000000000000000081526004018080602001828103825260238152602001806157576023913960400191505060405180910390fd5b84600160009054906101000a900473ffffffffffffffffffffffffffffffffffffffff1673ffffffffffffffffffffffffffffffffffffffff16634a4fbeec826040518263ffffffff1660e01b8152600401808273ffffffffffffffffffffffffffffffffffffffff1673ffffffffffffffffffffffffffffffffffffffff16815260200191505060206040518083038186803b15801561243857600080fd5b505afa15801561244c573d6000803e3d6000fd5b505050506040513d602081101561246257600080fd5b8101908080519060200190929190505050156124e6576040517f08c379a000000000000000000000000000000000000000000000000000000000815260040180806020018281038252601b8152602001807f424d3a2077616c6c6574206d75737420626520756e6c6f636b6564000000000081525060200191505060405180910390fd5b6000600460009054906101000a900473ffffffffffffffffffffffffffffffffffffffff1673ffffffffffffffffffffffffffffffffffffffff16637e5a4eb9866040518263ffffffff1660e01b8152600401808273ffffffffffffffffffffffffffffffffffffffff1673ffffffffffffffffffffffffffffffffffffffff16815260200191505060206040518083038186803b15801561258757600080fd5b505afa15801561259b573d6000803e3d6000fd5b505050506040513d60208110156125b157600080fd5b810190808051906020019092919050505090506125cf878286614e03565b6125fc8782600360009054906101000a900473ffffffffffffffffffffffffffffffffffffffff16614f9f565b858773ffffffffffffffffffffffffffffffffffffffff167ff1dec7a92ef063b16d2098bb05803ed604936a7ff30f0d245fe881baf96e8e6b8787604051808373ffffffffffffffffffffffffffffffffffffffff1673ffffffffffffffffffffffffffffffffffffffff1681526020018281526020019250505060405180910390a350505050505050565b6000853073ffffffffffffffffffffffffffffffffffffffff163373ffffffffffffffffffffffffffffffffffffffff1614806126cb57506126ca81336139ee565b5b612720576040517f08c379a00000000000000000000000000000000000000000000000000000000081526004018080602001828103825260238152602001806157576023913960400191505060405180910390fd5b86600160009054906101000a900473ffffffffffffffffffffffffffffffffffffffff1673ffffffffffffffffffffffffffffffffffffffff16634a4fbeec826040518263ffffffff1660e01b8152600401808273ffffffffffffffffffffffffffffffffffffffff1673ffffffffffffffffffffffffffffffffffffffff16815260200191505060206040518083038186803b1580156127c057600080fd5b505afa1580156127d4573d6000803e3d6000fd5b505050506040513d60208110156127ea57600080fd5b81019080805190602001909291905050501561286e576040517f08c379a000000000000000000000000000000000000000000000000000000000815260040180806020018281038252601b8152602001807f424d3a2077616c6c6574206d75737420626520756e6c6f636b6564000000000081525060200191505060405180910390fd5b606060026040519080825280602002602001820160405280156128a05781602001602082028038833980820191505090505b509050600460009054906101000a900473ffffffffffffffffffffffffffffffffffffffff1673ffffffffffffffffffffffffffffffffffffffff16637e5a4eb9896040518263ffffffff1660e01b8152600401808273ffffffffffffffffffffffffffffffffffffffff1673ffffffffffffffffffffffffffffffffffffffff16815260200191505060206040518083038186803b15801561294257600080fd5b505afa158015612956573d6000803e3d6000fd5b505050506040513d602081101561296c57600080fd5b81019080805190602001909291905050508160008151811061298a57fe5b602002602001019073ffffffffffffffffffffffffffffffffffffffff16908173ffffffffffffffffffffffffffffffffffffffff1681525050600460009054906101000a900473ffffffffffffffffffffffffffffffffffffffff1673ffffffffffffffffffffffffffffffffffffffff16637e5a4eb9876040518263ffffffff1660e01b8152600401808273ffffffffffffffffffffffffffffffffffffffff1673ffffffffffffffffffffffffffffffffffffffff16815260200191505060206040518083038186803b158015612a6357600080fd5b505afa158015612a77573d6000803e3d6000fd5b505050506040513d6020811015612a8d57600080fd5b810190808051906020019092919050505081600181518110612aab57fe5b602002602001019073ffffffffffffffffffffffffffffffffffffffff16908173ffffffffffffffffffffffffffffffffffffffff1681525050612be289600360009054906101000a900473ffffffffffffffffffffffffffffffffffffffff166000846040516024018080602001828103825283818151815260200191508051906020019060200280838360005b83811015612b55578082015181840152602081019050612b3a565b50505050905001925050506040516020818303038152906040527fc2998238000000000000000000000000000000000000000000000000000000007bffffffffffffffffffffffffffffffffffffffffffffffffffffffff19166020820180517bffffffffffffffffffffffffffffffffffffffffffffffffffffffff838183161783525050505061461e565b50612c038982600081518110612bf457fe5b60200260200101518a8a6151fb565b612c228982600181518110612c1457fe5b602002602001015187613cfd565b838973ffffffffffffffffffffffffffffffffffffffff167ff9d7e11fb5d8d1e0a4be344a6a6adfb912161747edf926fb283150d07c39c1088a8a8a8a604051808573ffffffffffffffffffffffffffffffffffffffff1673ffffffffffffffffffffffffffffffffffffffff1681526020018481526020018373ffffffffffffffffffffffffffffffffffffffff1673ffffffffffffffffffffffffffffffffffffffff16815260200182815260200194505050505060405180910390a350505095945050505050565b833073ffffffffffffffffffffffffffffffffffffffff163373ffffffffffffffffffffffffffffffffffffffff161480612d2e5750612d2d81336139ee565b5b612d83576040517f08c379a00000000000000000000000000000000000000000000000000000000081526004018080602001828103825260238152602001806157576023913960400191505060405180910390fd5b84600160009054906101000a900473ffffffffffffffffffffffffffffffffffffffff1673ffffffffffffffffffffffffffffffffffffffff16634a4fbeec826040518263ffffffff1660e01b8152600401808273ffffffffffffffffffffffffffffffffffffffff1673ffffffffffffffffffffffffffffffffffffffff16815260200191505060206040518083038186803b158015612e2357600080fd5b505afa158015612e37573d6000803e3d6000fd5b505050506040513d6020811015612e4d57600080fd5b810190808051906020019092919050505015612ed1576040517f08c379a000000000000000000000000000000000000000000000000000000000815260040180806020018281038252601b8152602001807f424d3a2077616c6c6574206d75737420626520756e6c6f636b6564000000000081525060200191505060405180910390fd5b6000600460009054906101000a900473ffffffffffffffffffffffffffffffffffffffff1673ffffffffffffffffffffffffffffffffffffffff16637e5a4eb9866040518263ffffffff1660e01b8152600401808273ffffffffffffffffffffffffffffffffffffffff1673ffffffffffffffffffffffffffffffffffffffff16815260200191505060206040518083038186803b158015612f7257600080fd5b505afa158015612f86573d6000803e3d6000fd5b505050506040513d6020811015612f9c57600080fd5b81019080805190602001909291905050509050612fdc8782600360009054906101000a900473ffffffffffffffffffffffffffffffffffffffff16613aa7565b612fe8878287876151fb565b858773ffffffffffffffffffffffffffffffffffffffff167fdd016248708c391ccb5c72f9258127c75b9b291ac1479513fe4f331c348901378787604051808373ffffffffffffffffffffffffffffffffffffffff1673ffffffffffffffffffffffffffffffffffffffff1681526020018281526020019250505060405180910390a350505050505050565b60026020528060005260406000206000915090508060000154905081565b6000806000600460009054906101000a900473ffffffffffffffffffffffffffffffffffffffff1673ffffffffffffffffffffffffffffffffffffffff16637e5a4eb9856040518263ffffffff1660e01b8152600401808273ffffffffffffffffffffffffffffffffffffffff1673ffffffffffffffffffffffffffffffffffffffff16815260200191505060206040518083038186803b15801561313657600080fd5b505afa15801561314a573d6000803e3d6000fd5b505050506040513d602081101561316057600080fd5b8101908080519060200190929190505050905060008173ffffffffffffffffffffffffffffffffffffffff166370a08231876040518263ffffffff1660e01b8152600401808273ffffffffffffffffffffffffffffffffffffffff1673ffffffffffffffffffffffffffffffffffffffff16815260200191505060206040518083038186803b1580156131f257600080fd5b505afa158015613206573d6000803e3d6000fd5b505050506040513d602081101561321c57600080fd5b8101908080519060200190929190505050905060008273ffffffffffffffffffffffffffffffffffffffff1663182df0f56040518163ffffffff1660e01b815260040160206040518083038186803b15801561327757600080fd5b505afa15801561328b573d6000803e3d6000fd5b505050506040513d60208110156132a157600080fd5b810190808051906020019092919050505090506132e1670de0b6b3a76400006132d38385613e9990919063ffffffff16565b613ed390919063ffffffff16565b9450600093505050509250929050565b600063d490da4d60e01b905090565b833073ffffffffffffffffffffffffffffffffffffffff163373ffffffffffffffffffffffffffffffffffffffff161480613341575061334081336139ee565b5b613396576040517f08c379a00000000000000000000000000000000000000000000000000000000081526004018080602001828103825260238152602001806157576023913960400191505060405180910390fd5b84600160009054906101000a900473ffffffffffffffffffffffffffffffffffffffff1673ffffffffffffffffffffffffffffffffffffffff16634a4fbeec826040518263ffffffff1660e01b8152600401808273ffffffffffffffffffffffffffffffffffffffff1673ffffffffffffffffffffffffffffffffffffffff16815260200191505060206040518083038186803b15801561343657600080fd5b505afa15801561344a573d6000803e3d6000fd5b505050506040513d602081101561346057600080fd5b8101908080519060200190929190505050156134e4576040517f08c379a000000000000000000000000000000000000000000000000000000000815260040180806020018281038252601b8152602001807f424d3a2077616c6c6574206d75737420626520756e6c6f636b6564000000000081525060200191505060405180910390fd5b6000600460009054906101000a900473ffffffffffffffffffffffffffffffffffffffff1673ffffffffffffffffffffffffffffffffffffffff16637e5a4eb9866040518263ffffffff1660e01b8152600401808273ffffffffffffffffffffffffffffffffffffffff1673ffffffffffffffffffffffffffffffffffffffff16815260200191505060206040518083038186803b15801561358557600080fd5b505afa158015613599573d6000803e3d6000fd5b505050506040513d60208110156135af57600080fd5b810190808051906020019092919050505090506135cd878286614095565b6135fa8782600360009054906101000a900473ffffffffffffffffffffffffffffffffffffffff16614f9f565b858773ffffffffffffffffffffffffffffffffffffffff167fbfa42ea7d37497e6a09441fadba47d64b610b6b1183d895dd0a42507973430bf8787604051808373ffffffffffffffffffffffffffffffffffffffff1673ffffffffffffffffffffffffffffffffffffffff1681526020018281526020019250505060405180910390a350505050505050565b6000843073ffffffffffffffffffffffffffffffffffffffff163373ffffffffffffffffffffffffffffffffffffffff1614806136c957506136c881336139ee565b5b61371e576040517f08c379a00000000000000000000000000000000000000000000000000000000081526004018080602001828103825260238152602001806157576023913960400191505060405180910390fd5b85600160009054906101000a900473ffffffffffffffffffffffffffffffffffffffff1673ffffffffffffffffffffffffffffffffffffffff16634a4fbeec826040518263ffffffff1660e01b8152600401808273ffffffffffffffffffffffffffffffffffffffff1673ffffffffffffffffffffffffffffffffffffffff16815260200191505060206040518083038186803b1580156137be57600080fd5b505afa1580156137d2573d6000803e3d6000fd5b505050506040513d60208110156137e857600080fd5b81019080805190602001909291905050501561386c576040517f08c379a000000000000000000000000000000000000000000000000000000000815260040180806020018281038252601b8152602001807f424d3a2077616c6c6574206d75737420626520756e6c6f636b6564000000000081525060200191505060405180910390fd5b6000600460009054906101000a900473ffffffffffffffffffffffffffffffffffffffff1673ffffffffffffffffffffffffffffffffffffffff16637e5a4eb9886040518263ffffffff1660e01b8152600401808273ffffffffffffffffffffffffffffffffffffffff1673ffffffffffffffffffffffffffffffffffffffff16815260200191505060206040518083038186803b15801561390d57600080fd5b505afa158015613921573d6000803e3d6000fd5b505050506040513d602081101561393757600080fd5b81019080805190602001909291905050509050613956888289896151fb565b8593508773ffffffffffffffffffffffffffffffffffffffff167ff8eece150ed2126815122a6def9737751aecd814379d4ce8c9edd07133a49cdb888888604051808473ffffffffffffffffffffffffffffffffffffffff1673ffffffffffffffffffffffffffffffffffffffff168152602001838152602001828152602001935050505060405180910390a2505050949350505050565b60008173ffffffffffffffffffffffffffffffffffffffff168373ffffffffffffffffffffffffffffffffffffffff16638da5cb5b6040518163ffffffff1660e01b815260040160206040518083038186803b158015613a4d57600080fd5b505afa158015613a61573d6000803e3d6000fd5b505050506040513d6020811015613a7757600080fd5b810190808051906020019092919050505073ffffffffffffffffffffffffffffffffffffffff1614905092915050565b60008173ffffffffffffffffffffffffffffffffffffffff1663929fe9a185856040518363ffffffff1660e01b8152600401808373ffffffffffffffffffffffffffffffffffffffff1673ffffffffffffffffffffffffffffffffffffffff1681526020018273ffffffffffffffffffffffffffffffffffffffff1673ffffffffffffffffffffffffffffffffffffffff1681526020019250505060206040518083038186803b158015613b5a57600080fd5b505afa158015613b6e573d6000803e3d6000fd5b505050506040513d6020811015613b8457600080fd5b8101908080519060200190929190505050905080613cf75760606001604051908082528060200260200182016040528015613bce5781602001602082028038833980820191505090505b5090508381600081518110613bdf57fe5b602002602001019073ffffffffffffffffffffffffffffffffffffffff16908173ffffffffffffffffffffffffffffffffffffffff1681525050613cf485846000846040516024018080602001828103825283818151815260200191508051906020019060200280838360005b83811015613c67578082015181840152602081019050613c4c565b50505050905001925050506040516020818303038152906040527fc2998238000000000000000000000000000000000000000000000000000000007bffffffffffffffffffffffffffffffffffffffffffffffffffffffff19166020820180517bffffffffffffffffffffffffffffffffffffffffffffffffffffffff838183161783525050505061461e565b50505b50505050565b600073ffffffffffffffffffffffffffffffffffffffff168273ffffffffffffffffffffffffffffffffffffffff161415613d83576040517f08c379a000000000000000000000000000000000000000000000000000000000815260040180806020018281038252602481526020018061577a6024913960400191505060405180910390fd5b60008111613df9576040517f08c379a000000000000000000000000000000000000000000000000000000000815260040180806020018281038252601c8152602001807f436f6d706f756e643a20616d6f756e742063616e6e6f7420626520300000000081525060200191505060405180910390fd5b613e938383600084604051602401808281526020019150506040516020818303038152906040527fc5ebeaec000000000000000000000000000000000000000000000000000000007bffffffffffffffffffffffffffffffffffffffffffffffffffffffff19166020820180517bffffffffffffffffffffffffffffffffffffffffffffffffffffffff838183161783525050505061461e565b50505050565b600080831415613eac5760009050613ecd565b6000828402905082848281613ebd57fe5b0414613ec857600080fd5b809150505b92915050565b6000808211613ee157600080fd5b6000828481613eec57fe5b0490508091505092915050565b600073ffffffffffffffffffffffffffffffffffffffff168273ffffffffffffffffffffffffffffffffffffffff161415613f7f576040517f08c379a000000000000000000000000000000000000000000000000000000000815260040180806020018281038252602481526020018061577a6024913960400191505060405180910390fd5b60008111613ff5576040517f08c379a000000000000000000000000000000000000000000000000000000000815260040180806020018281038252601c8152602001807f436f6d706f756e643a20616d6f756e742063616e6e6f7420626520300000000081525060200191505060405180910390fd5b61408f8383600084604051602401808281526020019150506040516020818303038152906040527fdb006a75000000000000000000000000000000000000000000000000000000007bffffffffffffffffffffffffffffffffffffffffffffffffffffffff19166020820180517bffffffffffffffffffffffffffffffffffffffffffffffffffffffff838183161783525050505061461e565b50505050565b600073ffffffffffffffffffffffffffffffffffffffff168273ffffffffffffffffffffffffffffffffffffffff16141561411b576040517f08c379a000000000000000000000000000000000000000000000000000000000815260040180806020018281038252602481526020018061577a6024913960400191505060405180910390fd5b60008111614191576040517f08c379a000000000000000000000000000000000000000000000000000000000815260040180806020018281038252601c8152602001807f436f6d706f756e643a20616d6f756e742063616e6e6f7420626520300000000081525060200191505060405180910390fd5b60608273ffffffffffffffffffffffffffffffffffffffff166395d89b416040518163ffffffff1660e01b815260040160006040518083038186803b1580156141d957600080fd5b505afa1580156141ed573d6000803e3d6000fd5b505050506040513d6000823e3d601f19601f82011682018060405250602081101561421757600080fd5b810190808051604051939291908464010000000082111561423757600080fd5b8382019150602082018581111561424d57600080fd5b825186600182028301116401000000008211171561426a57600080fd5b8083526020830192505050908051906020019080838360005b8381101561429e578082015181840152602081019050614283565b50505050905090810190601f1680156142cb5780820380516001836020036101000a031916815260200191505b50604052505050905060405160200180807f6345544800000000000000000000000000000000000000000000000000000000815250600401905060405160208183030381529060405280519060200120816040516020018082805190602001908083835b60208310614352578051825260208201915060208101905060208303925061432f565b6001836020036101000a038019825116818451168082178552505050505050905001915050604051602081830303815290604052805190602001201415614427576144218484846040516024016040516020818303038152906040527f4e4d9fea000000000000000000000000000000000000000000000000000000007bffffffffffffffffffffffffffffffffffffffffffffffffffffffff19166020820180517bffffffffffffffffffffffffffffffffffffffffffffffffffffffff838183161783525050505061461e565b50614618565b60008373ffffffffffffffffffffffffffffffffffffffff16636f307dc36040518163ffffffff1660e01b815260040160206040518083038186803b15801561446f57600080fd5b505afa158015614483573d6000803e3d6000fd5b505050506040513d602081101561449957600080fd5b8101908080519060200190929190505050905061457a858260008787604051602401808373ffffffffffffffffffffffffffffffffffffffff1673ffffffffffffffffffffffffffffffffffffffff168152602001828152602001925050506040516020818303038152906040527f095ea7b3000000000000000000000000000000000000000000000000000000007bffffffffffffffffffffffffffffffffffffffffffffffffffffffff19166020820180517bffffffffffffffffffffffffffffffffffffffffffffffffffffffff838183161783525050505061461e565b506146158585600086604051602401808281526020019150506040516020818303038152906040527f0e752702000000000000000000000000000000000000000000000000000000007bffffffffffffffffffffffffffffffffffffffffffffffffffffffff19166020820180517bffffffffffffffffffffffffffffffffffffffffffffffffffffffff838183161783525050505061461e565b50505b50505050565b606060008573ffffffffffffffffffffffffffffffffffffffff16858585604051602401808473ffffffffffffffffffffffffffffffffffffffff1673ffffffffffffffffffffffffffffffffffffffff16815260200183815260200180602001828103825283818151815260200191508051906020019080838360005b838110156146b757808201518184015260208101905061469c565b50505050905090810190601f1680156146e45780820380516001836020036101000a031916815260200191505b509450505050506040516020818303038152906040527f8f6f0332000000000000000000000000000000000000000000000000000000007bffffffffffffffffffffffffffffffffffffffffffffffffffffffff19166020820180517bffffffffffffffffffffffffffffffffffffffffffffffffffffffff83818316178352505050506040518082805190602001908083835b6020831061479b5780518252602082019150602081019050602083039250614778565b6001836020036101000a0380198251168184511680821785525050505050509050019150506000604051808303816000865af19150503d80600081146147fd576040519150601f19603f3d011682016040523d82523d6000602084013e614802565b606091505b508093508192505050808015614819575060008251115b156148f55781806020019051602081101561483357600080fd5b810190808051604051939291908464010000000082111561485357600080fd5b8382019150602082018581111561486957600080fd5b825186600182028301116401000000008211171561488657600080fd5b8083526020830192505050908051906020019080838360005b838110156148ba57808201518184015260208101905061489f565b50505050905090810190601f1680156148e75780820380516001836020036101000a031916815260200191505b50604052505050915061497d565b600082511115614909573d6000803e3d6000fd5b8061497c576040517f08c379a000000000000000000000000000000000000000000000000000000000815260040180806020018281038252601a8152602001807f424d3a2077616c6c657420696e766f6b6520726576657274656400000000000081525060200191505060405180910390fd5b5b50949350505050565b6000601960f81b600060f81b89898989898989604051602001808a7effffffffffffffffffffffffffffffffffffffffffffffffffffffffffffff19167effffffffffffffffffffffffffffffffffffffffffffffffffffffffffffff19168152600101897effffffffffffffffffffffffffffffffffffffffffffffffffffffffffffff19167effffffffffffffffffffffffffffffffffffffffffffffffffffffffffffff191681526001018873ffffffffffffffffffffffffffffffffffffffff1673ffffffffffffffffffffffffffffffffffffffff1660601b81526014018773ffffffffffffffffffffffffffffffffffffffff1673ffffffffffffffffffffffffffffffffffffffff1660601b815260140186815260200185805190602001908083835b60208310614ad35780518252602082019150602081019050602083039250614ab0565b6001836020036101000a03801982511681845116808217855250505050505090500184815260200183815260200182815260200199505050505050505050506040516020818303038152906040528051906020012060405160200180807f19457468657265756d205369676e6564204d6573736167653a0a333200000000815250601c01828152602001915050604051602081830303815290604052805190602001209050979650505050505050565b6000614b8f8484615544565b90509392505050565b6000602482511015614c12576040517f08c379a00000000000000000000000000000000000000000000000000000000081526004018080602001828103825260168152602001807f524d3a20496e76616c6964206461746157616c6c65740000000000000000000081525060200191505060405180910390fd5b6000602483015190508373ffffffffffffffffffffffffffffffffffffffff168173ffffffffffffffffffffffffffffffffffffffff161491505092915050565b60006001905092915050565b60008083118015614c705750600182115b8015614d5a57508284028573ffffffffffffffffffffffffffffffffffffffff16311080614d595750600015158573ffffffffffffffffffffffffffffffffffffffff1663d6eb1bbf306040518263ffffffff1660e01b8152600401808273ffffffffffffffffffffffffffffffffffffffff1673ffffffffffffffffffffffffffffffffffffffff16815260200191505060206040518083038186803b158015614d1a57600080fd5b505afa158015614d2e573d6000803e3d6000fd5b505050506040513d6020811015614d4457600080fd5b81019080805190602001909291905050501515145b5b15614d685760009050614d6d565b600190505b949350505050565b600080614d848484600061562c565b9050614d9086826139ee565b915050949350505050565b60008561726c019050600085118015614db45750600183115b8015614dc05750838111155b15614dfa573a851115614dd7573a81029050614ddd565b84810290505b614df88783836040518060200160405280600081525061461e565b505b50505050505050565b600073ffffffffffffffffffffffffffffffffffffffff168273ffffffffffffffffffffffffffffffffffffffff161415614e89576040517f08c379a000000000000000000000000000000000000000000000000000000000815260040180806020018281038252602481526020018061577a6024913960400191505060405180910390fd5b60008111614eff576040517f08c379a000000000000000000000000000000000000000000000000000000000815260040180806020018281038252601c8152602001807f436f6d706f756e643a20616d6f756e742063616e6e6f7420626520300000000081525060200191505060405180910390fd5b614f998383600084604051602401808281526020019150506040516020818303038152906040527f852a12e3000000000000000000000000000000000000000000000000000000007bffffffffffffffffffffffffffffffffffffffffffffffffffffffff19166020820180517bffffffffffffffffffffffffffffffffffffffffffffffffffffffff838183161783525050505061461e565b50505050565b60008273ffffffffffffffffffffffffffffffffffffffff166370a08231856040518263ffffffff1660e01b8152600401808273ffffffffffffffffffffffffffffffffffffffff1673ffffffffffffffffffffffffffffffffffffffff16815260200191505060206040518083038186803b15801561501e57600080fd5b505afa158015615032573d6000803e3d6000fd5b505050506040513d602081101561504857600080fd5b8101908080519060200190929190505050905060008373ffffffffffffffffffffffffffffffffffffffff166395dd9193866040518263ffffffff1660e01b8152600401808273ffffffffffffffffffffffffffffffffffffffff1673ffffffffffffffffffffffffffffffffffffffff16815260200191505060206040518083038186803b1580156150da57600080fd5b505afa1580156150ee573d6000803e3d6000fd5b505050506040513d602081101561510457600080fd5b810190808051906020019092919050505090506000821480156151275750600081145b156151f4576151f28584600087604051602401808273ffffffffffffffffffffffffffffffffffffffff1673ffffffffffffffffffffffffffffffffffffffff1681526020019150506040516020818303038152906040527fede4edd0000000000000000000000000000000000000000000000000000000007bffffffffffffffffffffffffffffffffffffffffffffffffffffffff19166020820180517bffffffffffffffffffffffffffffffffffffffffffffffffffffffff838183161783525050505061461e565b505b5050505050565b600073ffffffffffffffffffffffffffffffffffffffff168373ffffffffffffffffffffffffffffffffffffffff161415615281576040517f08c379a000000000000000000000000000000000000000000000000000000000815260040180806020018281038252602481526020018061577a6024913960400191505060405180910390fd5b600081116152f7576040517f08c379a000000000000000000000000000000000000000000000000000000000815260040180806020018281038252601c8152602001807f436f6d706f756e643a20616d6f756e742063616e6e6f7420626520300000000081525060200191505060405180910390fd5b73eeeeeeeeeeeeeeeeeeeeeeeeeeeeeeeeeeeeeeee73ffffffffffffffffffffffffffffffffffffffff168273ffffffffffffffffffffffffffffffffffffffff1614156153d3576153cd8484836040516024016040516020818303038152906040527f1249c58b000000000000000000000000000000000000000000000000000000007bffffffffffffffffffffffffffffffffffffffffffffffffffffffff19166020820180517bffffffffffffffffffffffffffffffffffffffffffffffffffffffff838183161783525050505061461e565b5061553e565b6154a1848360008685604051602401808373ffffffffffffffffffffffffffffffffffffffff1673ffffffffffffffffffffffffffffffffffffffff168152602001828152602001925050506040516020818303038152906040527f095ea7b3000000000000000000000000000000000000000000000000000000007bffffffffffffffffffffffffffffffffffffffffffffffffffffffff19166020820180517bffffffffffffffffffffffffffffffffffffffffffffffffffffffff838183161783525050505061461e565b5061553c8484600084604051602401808281526020019150506040516020818303038152906040527fa0712d68000000000000000000000000000000000000000000000000000000007bffffffffffffffffffffffffffffffffffffffffffffffffffffffff19166020820180517bffffffffffffffffffffffffffffffffffffffffffffffffffffffff838183161783525050505061461e565b505b50505050565b6000600260008473ffffffffffffffffffffffffffffffffffffffff1673ffffffffffffffffffffffffffffffffffffffff1681526020019081526020016000206000015482116155985760009050615626565b600060807fffffffffffffffffffffffffffffffff000000000000000000000000000000008416901c905061271043018111156155d9576000915050615626565b82600260008673ffffffffffffffffffffffffffffffffffffffff1673ffffffffffffffffffffffffffffffffffffffff1681526020019081526020016000206000018190555060019150505b92915050565b60008060008084604102602001860151915084604102604001860151905060ff85604102604101870151169250601b8360ff16148061566e5750601c8360ff16145b61567757600080fd5b60018784848460405160008152602001604052604051808581526020018460ff1660ff1681526020018381526020018281526020019450505050506020604051602081039080840390855afa1580156156d4573d6000803e3d6000fd5b505050602060405103519350505050939250505056fe436f6d706f756e6456323a20696e76616c6964206672616374696f6e2076616c7565524d3a207468652077616c6c657420617574686f72697a656420697320646966666572656e74207468656e2074686520746172676574206f66207468652072656c617965642064617461424d3a206d75737420626520616e206f776e657220666f72207468652077616c6c6574436f6d706f756e643a204e6f206d61726b657420666f722074617267657420746f6b656e436f6d706f756e643a206661696c656420746f20676574206163636f756e74206c6971756964697479a265627a7a723158207dfe9780d926189c4b5047aa19aeaa3a0414cfb4238afd717899a61afe88fa9264736f6c63430005100032",
  "source": "// Copyright (C) 2018  Argent Labs Ltd. <https://argent.xyz>\n\n// This program is free software: you can redistribute it and/or modify\n// it under the terms of the GNU General Public License as published by\n// the Free Software Foundation, either version 3 of the License, or\n// (at your option) any later version.\n\n// This program is distributed in the hope that it will be useful,\n// but WITHOUT ANY WARRANTY; without even the implied warranty of\n// MERCHANTABILITY or FITNESS FOR A PARTICULAR PURPOSE.  See the\n// GNU General Public License for more details.\n\n// You should have received a copy of the GNU General Public License\n// along with this program.  If not, see <http://www.gnu.org/licenses/>.\n\npragma solidity ^0.5.4;\n\nimport \"../../lib/utils/SafeMath.sol\";\nimport \"../wallet/BaseWallet.sol\";\nimport \"./common/BaseModule.sol\";\nimport \"./common/RelayerModule.sol\";\nimport \"./common/OnlyOwnerModule.sol\";\nimport \"../defi/Loan.sol\";\nimport \"../defi/Invest.sol\";\nimport \"../defi/utils/CompoundRegistry.sol\";\n\ninterface IComptroller {\n    function enterMarkets(address[] calldata _cTokens) external returns (uint[] memory);\n    function exitMarket(address _cToken) external returns (uint);\n    function getAssetsIn(address _account) external view returns (address[] memory);\n    function getAccountLiquidity(address _account) external view returns (uint, uint, uint);\n    function checkMembership(address account, ICToken cToken) external view returns (bool);\n}\n\ninterface ICToken {\n    function comptroller() external view returns (address);\n    function underlying() external view returns (address);\n    function symbol() external view returns (string memory);\n    function exchangeRateCurrent() external returns (uint256);\n    function exchangeRateStored() external view returns (uint256);\n    function balanceOf(address _account) external view returns (uint256);\n    function borrowBalanceCurrent(address _account) external returns (uint256);\n    function borrowBalanceStored(address _account) external view returns (uint256);\n}\n\n/**\n * @title CompoundManager\n * @dev Module to invest and borrow tokens with CompoundV2\n * @author Julien Niset - <julien@argent.xyz>\n */\ncontract CompoundManager is Loan, Invest, BaseModule, RelayerModule, OnlyOwnerModule {\n\n    bytes32 constant NAME = \"CompoundManager\";\n\n    // The Compound IComptroller contract\n    IComptroller public comptroller;\n    // The registry mapping underlying with cTokens\n    CompoundRegistry public compoundRegistry;\n\n    // Mock token address for ETH\n    address constant internal ETH_TOKEN_ADDRESS = 0xEeeeeEeeeEeEeeEeEeEeeEEEeeeeEeeeeeeeEEeE;\n\n    using SafeMath for uint256;\n\n    constructor(\n        ModuleRegistry _registry,\n        GuardianStorage _guardianStorage,\n        IComptroller _comptroller,\n        CompoundRegistry _compoundRegistry\n    )\n        BaseModule(_registry, _guardianStorage, NAME)\n        public\n    {\n        comptroller = _comptroller;\n        compoundRegistry = _compoundRegistry;\n    }\n\n    /* ********************************** Implementation of Loan ************************************* */\n\n    /**\n     * @dev Opens a collateralized loan.\n     * @param _wallet The target wallet.\n     * @param _collateral The token used as a collateral.\n     * @param _collateralAmount The amount of collateral token provided.\n     * @param _debtToken The token borrowed.\n     * @param _debtAmount The amount of tokens borrowed.\n     * @return bytes32(0) as Compound does not allow the creation of multiple loans.\n     */\n    function openLoan(\n        BaseWallet _wallet,\n        address _collateral,\n        uint256 _collateralAmount,\n        address _debtToken,\n        uint256 _debtAmount\n    )\n        external\n        onlyWalletOwner(_wallet)\n        onlyWhenUnlocked(_wallet)\n        returns (bytes32 _loanId)\n    {\n        address[] memory markets = new address[](2);\n        markets[0] = compoundRegistry.getCToken(_collateral);\n        markets[1] = compoundRegistry.getCToken(_debtToken);\n        invokeWallet(address(_wallet), address(comptroller), 0, abi.encodeWithSignature(\"enterMarkets(address[])\", markets));\n        mint(_wallet, markets[0], _collateral, _collateralAmount);\n        borrow(_wallet, markets[1], _debtAmount);\n        emit LoanOpened(address(_wallet), _loanId, _collateral, _collateralAmount, _debtToken, _debtAmount);\n    }\n\n    /**\n     * @dev Closes the collateralized loan in all markets by repaying all debts (plus interest). Note that it does not redeem the collateral.\n     * @param _wallet The target wallet.\n     * @param _loanId bytes32(0) as Compound does not allow the creation of multiple loans.\n     */\n    function closeLoan(\n        BaseWallet _wallet,\n        bytes32 _loanId\n    )\n        external\n        onlyWalletOwner(_wallet)\n        onlyWhenUnlocked(_wallet)\n    {\n        address[] memory markets = comptroller.getAssetsIn(address(_wallet));\n        for (uint i = 0; i < markets.length; i++) {\n            address cToken = markets[i];\n            uint debt = ICToken(cToken).borrowBalanceCurrent(address(_wallet));\n            if (debt > 0) {\n                repayBorrow(_wallet, cToken, debt);\n                uint collateral = ICToken(cToken).balanceOf(address(_wallet));\n                if (collateral == 0) {\n                    invokeWallet(address(_wallet), address(comptroller), 0, abi.encodeWithSignature(\"exitMarket(address)\", address(cToken)));\n                }\n            }\n        }\n        emit LoanClosed(address(_wallet), _loanId);\n    }\n\n    /**\n     * @dev Adds collateral to a loan identified by its ID.\n     * @param _wallet The target wallet.\n     * @param _loanId bytes32(0) as Compound does not allow the creation of multiple loans.\n     * @param _collateral The token used as a collateral.\n     * @param _collateralAmount The amount of collateral to add.\n     */\n    function addCollateral(\n        BaseWallet _wallet,\n        bytes32 _loanId,\n        address _collateral,\n        uint256 _collateralAmount\n    )\n        external\n        onlyWalletOwner(_wallet)\n        onlyWhenUnlocked(_wallet)\n    {\n        address cToken = compoundRegistry.getCToken(_collateral);\n        enterMarketIfNeeded(_wallet, cToken, address(comptroller));\n        mint(_wallet, cToken, _collateral, _collateralAmount);\n        emit CollateralAdded(address(_wallet), _loanId, _collateral, _collateralAmount);\n    }\n\n    /**\n     * @dev Removes collateral from a loan identified by its ID.\n     * @param _wallet The target wallet.\n     * @param _loanId bytes32(0) as Compound does not allow the creation of multiple loans.\n     * @param _collateral The token used as a collateral.\n     * @param _collateralAmount The amount of collateral to remove.\n     */\n    function removeCollateral(\n        BaseWallet _wallet,\n        bytes32 _loanId,\n        address _collateral,\n        uint256 _collateralAmount\n    )\n        external\n        onlyWalletOwner(_wallet)\n        onlyWhenUnlocked(_wallet)\n    {\n        address cToken = compoundRegistry.getCToken(_collateral);\n        redeemUnderlying(_wallet, cToken, _collateralAmount);\n        exitMarketIfNeeded(_wallet, cToken, address(comptroller));\n        emit CollateralRemoved(address(_wallet), _loanId, _collateral, _collateralAmount);\n    }\n\n    /**\n     * @dev Increases the debt by borrowing more token from a loan identified by its ID.\n     * @param _wallet The target wallet.\n     * @param _loanId bytes32(0) as Compound does not allow the creation of multiple loans.\n     * @param _debtToken The token borrowed.\n     * @param _debtAmount The amount of token to borrow.\n     */\n    function addDebt(\n        BaseWallet _wallet,\n        bytes32 _loanId,\n        address _debtToken,\n        uint256 _debtAmount\n    )\n        external\n        onlyWalletOwner(_wallet)\n        onlyWhenUnlocked(_wallet)\n    {\n        address dToken = compoundRegistry.getCToken(_debtToken);\n        enterMarketIfNeeded(_wallet, dToken, address(comptroller));\n        borrow(_wallet, dToken, _debtAmount);\n        emit DebtAdded(address(_wallet), _loanId, _debtToken, _debtAmount);\n    }\n\n    /**\n     * @dev Decreases the debt by repaying some token from a loan identified by its ID.\n     * @param _wallet The target wallet.\n     * @param _loanId bytes32(0) as Compound does not allow the creation of multiple loans.\n     * @param _debtToken The token to repay.\n     * @param _debtAmount The amount of token to repay.\n     */\n    function removeDebt(\n        BaseWallet _wallet,\n        bytes32 _loanId,\n        address _debtToken,\n        uint256 _debtAmount\n    )\n        external\n        onlyWalletOwner(_wallet)\n        onlyWhenUnlocked(_wallet)\n    {\n        address dToken = compoundRegistry.getCToken(_debtToken);\n        repayBorrow(_wallet, dToken, _debtAmount);\n        exitMarketIfNeeded(_wallet, dToken, address(comptroller));\n        emit DebtRemoved(address(_wallet), _loanId, _debtToken, _debtAmount);\n    }\n\n    /**\n     * @dev Gets information about the loan status on Compound.\n     * @param _wallet The target wallet.\n     * @return a status [0: no loan, 1: loan is safe, 2: loan is unsafe and can be liquidated]\n     * and a value (in ETH) representing the value that could still be borrowed when status = 1; or the value of the collateral\n     * that should be added to avoid liquidation when status = 2.\n     */\n    function getLoan(\n        BaseWallet _wallet,\n        bytes32 /* _loanId */\n    )\n        external\n        view\n        returns (uint8 _status, uint256 _ethValue)\n    {\n        (uint error, uint liquidity, uint shortfall) = comptroller.getAccountLiquidity(address(_wallet));\n        require(error == 0, \"Compound: failed to get account liquidity\");\n        if (liquidity > 0) {\n            return (1, liquidity);\n        }\n        if (shortfall > 0) {\n            return (2, shortfall);\n        }\n        return (0,0);\n    }\n\n    /* ********************************** Implementation of Invest ************************************* */\n\n    /**\n     * @dev Invest tokens for a given period.\n     * @param _wallet The target wallet.\n     * @param _token The token address.\n     * @param _amount The amount of tokens to invest.\n     * @param _period The period over which the tokens may be locked in the investment (optional).\n     * @return The exact amount of tokens that have been invested.\n     */\n    function addInvestment(\n        BaseWallet _wallet,\n        address _token,\n        uint256 _amount,\n        uint256 _period\n    )\n        external\n        onlyWalletOwner(_wallet)\n        onlyWhenUnlocked(_wallet)\n        returns (uint256 _invested)\n    {\n        address cToken = compoundRegistry.getCToken(_token);\n        mint(_wallet, cToken, _token, _amount);\n        _invested = _amount;\n        emit InvestmentAdded(address(_wallet), _token, _amount, _period);\n    }\n\n    /**\n     * @dev Exit invested postions.\n     * @param _wallet The target wallet.\n     * @param _token The token address.\n     * @param _fraction The fraction of invested tokens to exit in per 10000.\n     */\n    function removeInvestment(\n        BaseWallet _wallet,\n        address _token,\n        uint256 _fraction\n    )\n        external\n        onlyWalletOwner(_wallet)\n        onlyWhenUnlocked(_wallet)\n    {\n        require(_fraction <= 10000, \"CompoundV2: invalid fraction value\");\n        address cToken = compoundRegistry.getCToken(_token);\n        uint shares = ICToken(cToken).balanceOf(address(_wallet));\n        redeem(_wallet, cToken, shares.mul(_fraction).div(10000));\n        emit InvestmentRemoved(address(_wallet), _token, _fraction);\n    }\n\n    /**\n     * @dev Get the amount of investment in a given token.\n     * @param _wallet The target wallet.\n     * @param _token The token address.\n     * @return The value in tokens of the investment (including interests) and the time at which the investment can be removed.\n     */\n    function getInvestment(\n        BaseWallet _wallet,\n        address _token\n    )\n        external\n        view\n        returns (uint256 _tokenValue, uint256 _periodEnd)\n    {\n        address cToken = compoundRegistry.getCToken(_token);\n        uint amount = ICToken(cToken).balanceOf(address(_wallet));\n        uint exchangeRateMantissa = ICToken(cToken).exchangeRateStored();\n        _tokenValue = amount.mul(exchangeRateMantissa).div(10 ** 18);\n        _periodEnd = 0;\n    }\n\n    /* ****************************************** Compound wrappers ******************************************* */\n\n    /**\n     * @dev Adds underlying tokens to a cToken contract.\n     * @param _wallet The target wallet.\n     * @param _cToken The cToken contract.\n     * @param _token The underlying token.\n     * @param _amount The amount of underlying token to add.\n     */\n    function mint(BaseWallet _wallet, address _cToken, address _token, uint256 _amount) internal {\n        require(_cToken != address(0), \"Compound: No market for target token\");\n        require(_amount > 0, \"Compound: amount cannot be 0\");\n        if (_token == ETH_TOKEN_ADDRESS) {\n            invokeWallet(address(_wallet), _cToken, _amount, abi.encodeWithSignature(\"mint()\"));\n        } else {\n            invokeWallet(address(_wallet), _token, 0, abi.encodeWithSignature(\"approve(address,uint256)\", _cToken, _amount));\n            invokeWallet(address(_wallet), _cToken, 0, abi.encodeWithSignature(\"mint(uint256)\", _amount));\n        }\n    }\n\n    /**\n     * @dev Redeems underlying tokens from a cToken contract.\n     * @param _wallet The target wallet.\n     * @param _cToken The cToken contract.\n     * @param _amount The amount of cToken to redeem.\n     */\n    function redeem(BaseWallet _wallet, address _cToken, uint256 _amount) internal {\n        require(_cToken != address(0), \"Compound: No market for target token\");\n        require(_amount > 0, \"Compound: amount cannot be 0\");\n        invokeWallet(address(_wallet), _cToken, 0, abi.encodeWithSignature(\"redeem(uint256)\", _amount));\n    }\n\n    /**\n     * @dev Redeems underlying tokens from a cToken contract.\n     * @param _wallet The target wallet.\n     * @param _cToken The cToken contract.\n     * @param _amount The amount of underlying token to redeem.\n     */\n    function redeemUnderlying(BaseWallet _wallet, address _cToken, uint256 _amount) internal {\n        require(_cToken != address(0), \"Compound: No market for target token\");\n        require(_amount > 0, \"Compound: amount cannot be 0\");\n        invokeWallet(address(_wallet), _cToken, 0, abi.encodeWithSignature(\"redeemUnderlying(uint256)\", _amount));\n    }\n\n    /**\n     * @dev Borrows underlying tokens from a cToken contract.\n     * @param _wallet The target wallet.\n     * @param _cToken The cToken contract.\n     * @param _amount The amount of underlying tokens to borrow.\n     */\n    function borrow(BaseWallet _wallet, address _cToken, uint256 _amount) internal {\n        require(_cToken != address(0), \"Compound: No market for target token\");\n        require(_amount > 0, \"Compound: amount cannot be 0\");\n        invokeWallet(address(_wallet), _cToken, 0, abi.encodeWithSignature(\"borrow(uint256)\", _amount));\n    }\n\n    /**\n     * @dev Repays some borrowed underlying tokens to a cToken contract.\n     * @param _wallet The target wallet.\n     * @param _cToken The cToken contract.\n     * @param _amount The amount of underlying to repay.\n     */\n    function repayBorrow(BaseWallet _wallet, address _cToken, uint256 _amount) internal {\n        require(_cToken != address(0), \"Compound: No market for target token\");\n        require(_amount > 0, \"Compound: amount cannot be 0\");\n        string memory symbol = ICToken(_cToken).symbol();\n        if (keccak256(abi.encodePacked(symbol)) == keccak256(abi.encodePacked(\"cETH\"))) {\n            invokeWallet(address(_wallet), _cToken, _amount, abi.encodeWithSignature(\"repayBorrow()\"));\n        } else {\n            address token = ICToken(_cToken).underlying();\n            invokeWallet(address(_wallet), token, 0, abi.encodeWithSignature(\"approve(address,uint256)\", _cToken, _amount));\n            invokeWallet(address(_wallet), _cToken, 0, abi.encodeWithSignature(\"repayBorrow(uint256)\", _amount));\n        }\n    }\n\n    /**\n     * @dev Enters a cToken market if it was not entered before.\n     * @param _wallet The target wallet.\n     * @param _cToken The cToken contract.\n     * @param _comptroller The comptroller contract.\n     */\n    function enterMarketIfNeeded(BaseWallet _wallet, address _cToken, address _comptroller) internal {\n        bool isEntered = IComptroller(_comptroller).checkMembership(address(_wallet), ICToken(_cToken));\n        if (!isEntered) {\n            address[] memory market = new address[](1);\n            market[0] = _cToken;\n            invokeWallet(address(_wallet), _comptroller, 0, abi.encodeWithSignature(\"enterMarkets(address[])\", market));\n        }\n    }\n\n    /**\n     * @dev Exits a cToken market if there is no more collateral and debt.\n     * @param _wallet The target wallet.\n     * @param _cToken The cToken contract.\n     * @param _comptroller The comptroller contract.\n     */\n    function exitMarketIfNeeded(BaseWallet _wallet, address _cToken, address _comptroller) internal {\n        uint collateral = ICToken(_cToken).balanceOf(address(_wallet));\n        uint debt = ICToken(_cToken).borrowBalanceStored(address(_wallet));\n        if (collateral == 0 && debt == 0) {\n            invokeWallet(address(_wallet), _comptroller, 0, abi.encodeWithSignature(\"exitMarket(address)\", _cToken));\n        }\n    }\n}\n",
  "sourcePath": "/Users/name/dev/argent-contracts-release-1.5.0/contracts/modules/CompoundManager.sol",
  "compiler": {
    "name": "solc",
    "version": "0.5.16+commit.9c3226ce.Emscripten.clang"
  },
  "schemaVersion": "3.0.23",
  "updatedAt": "2020-03-31T19:53:31.039Z",
  "devdoc": {
    "author": "Julien Niset - <julien@argent.xyz>",
    "details": "Module to invest and borrow tokens with CompoundV2",
    "methods": {
      "addCollateral(address,bytes32,address,uint256)": {
        "details": "Adds collateral to a loan identified by its ID.",
        "params": {
          "_collateral": "The token used as a collateral.",
          "_collateralAmount": "The amount of collateral to add.",
          "_loanId": "bytes32(0) as Compound does not allow the creation of multiple loans.",
          "_wallet": "The target wallet."
        }
      },
      "addDebt(address,bytes32,address,uint256)": {
        "details": "Increases the debt by borrowing more token from a loan identified by its ID.",
        "params": {
          "_debtAmount": "The amount of token to borrow.",
          "_debtToken": "The token borrowed.",
          "_loanId": "bytes32(0) as Compound does not allow the creation of multiple loans.",
          "_wallet": "The target wallet."
        }
      },
      "addInvestment(address,address,uint256,uint256)": {
        "details": "Invest tokens for a given period.",
        "params": {
          "_amount": "The amount of tokens to invest.",
          "_period": "The period over which the tokens may be locked in the investment (optional).",
          "_token": "The token address.",
          "_wallet": "The target wallet."
        },
        "return": "The exact amount of tokens that have been invested."
      },
      "addModule(address,address)": {
        "details": "Adds a module to a wallet. First checks that the module is registered. Unlike its overrided parent, this method can be called via the RelayerModule's execute()",
        "params": {
          "_module": "The modules to authorise.",
          "_wallet": "The target wallet."
        }
      },
      "closeLoan(address,bytes32)": {
        "details": "Closes the collateralized loan in all markets by repaying all debts (plus interest). Note that it does not redeem the collateral.",
        "params": {
          "_loanId": "bytes32(0) as Compound does not allow the creation of multiple loans.",
          "_wallet": "The target wallet."
        }
      },
      "execute(address,bytes,uint256,bytes,uint256,uint256)": {
        "details": "Executes a relayed transaction.",
        "params": {
          "_data": "The data for the relayed transaction",
          "_gasLimit": "The gas limit to use for the gas refund.",
          "_gasPrice": "The gas price to use for the gas refund.",
          "_nonce": "The nonce used to prevent replay attacks.",
          "_signatures": "The signatures as a concatenated byte array.",
          "_wallet": "The target wallet."
        }
      },
      "getInvestment(address,address)": {
        "details": "Get the amount of investment in a given token.",
        "params": {
          "_token": "The token address.",
          "_wallet": "The target wallet."
        },
        "return": "The value in tokens of the investment (including interests) and the time at which the investment can be removed."
      },
      "getLoan(address,bytes32)": {
        "details": "Gets information about the loan status on Compound.",
        "params": {
          "_wallet": "The target wallet."
        },
        "return": "a status [0: no loan, 1: loan is safe, 2: loan is unsafe and can be liquidated] and a value (in ETH) representing the value that could still be borrowed when status = 1; or the value of the collateral that should be added to avoid liquidation when status = 2."
      },
      "getNonce(address)": {
        "details": "Gets the current nonce for a wallet.",
        "params": {
          "_wallet": "The target wallet."
        }
      },
      "init(address)": {
        "details": "Inits the module for a wallet by logging an event. The method can only be called by the wallet itself.",
        "params": {
          "_wallet": "The wallet."
        }
      },
      "isOnlyOwnerModule()": {
        "details": "Returns a constant that indicates that the module is an OnlyOwnerModule.",
        "return": "The constant bytes4(keccak256(\"isOnlyOwnerModule()\"))"
      },
      "openLoan(address,address,uint256,address,uint256)": {
        "details": "Opens a collateralized loan.",
        "params": {
          "_collateral": "The token used as a collateral.",
          "_collateralAmount": "The amount of collateral token provided.",
          "_debtAmount": "The amount of tokens borrowed.",
          "_debtToken": "The token borrowed.",
          "_wallet": "The target wallet."
        },
        "return": "bytes32(0) as Compound does not allow the creation of multiple loans."
      },
      "recoverToken(address)": {
        "details": "Utility method enbaling anyone to recover ERC20 token sent to the module by mistake and transfer them to the Module Registry.",
        "params": {
          "_token": "The token to recover."
        }
      },
      "removeCollateral(address,bytes32,address,uint256)": {
        "details": "Removes collateral from a loan identified by its ID.",
        "params": {
          "_collateral": "The token used as a collateral.",
          "_collateralAmount": "The amount of collateral to remove.",
          "_loanId": "bytes32(0) as Compound does not allow the creation of multiple loans.",
          "_wallet": "The target wallet."
        }
      },
      "removeDebt(address,bytes32,address,uint256)": {
        "details": "Decreases the debt by repaying some token from a loan identified by its ID.",
        "params": {
          "_debtAmount": "The amount of token to repay.",
          "_debtToken": "The token to repay.",
          "_loanId": "bytes32(0) as Compound does not allow the creation of multiple loans.",
          "_wallet": "The target wallet."
        }
      },
      "removeInvestment(address,address,uint256)": {
        "details": "Exit invested postions.",
        "params": {
          "_fraction": "The fraction of invested tokens to exit in per 10000.",
          "_token": "The token address.",
          "_wallet": "The target wallet."
        }
      }
    },
    "title": "CompoundManager"
  },
  "userdoc": {
    "methods": {}
  }
}