{
  "contractName": "Comptroller",
  "abi": [
    {
      "inputs": [],
      "payable": false,
      "stateMutability": "nonpayable",
      "type": "constructor"
    },
    {
      "anonymous": false,
      "inputs": [
        {
          "indexed": false,
          "internalType": "uint256",
          "name": "error",
          "type": "uint256"
        },
        {
          "indexed": false,
          "internalType": "uint256",
          "name": "info",
          "type": "uint256"
        },
        {
          "indexed": false,
          "internalType": "uint256",
          "name": "detail",
          "type": "uint256"
        }
      ],
      "name": "Failure",
      "type": "event"
    },
    {
      "anonymous": false,
      "inputs": [
        {
          "indexed": false,
          "internalType": "contract CToken",
          "name": "cToken",
          "type": "address"
        },
        {
          "indexed": false,
          "internalType": "address",
          "name": "account",
          "type": "address"
        }
      ],
      "name": "MarketEntered",
      "type": "event"
    },
    {
      "anonymous": false,
      "inputs": [
        {
          "indexed": false,
          "internalType": "contract CToken",
          "name": "cToken",
          "type": "address"
        },
        {
          "indexed": false,
          "internalType": "address",
          "name": "account",
          "type": "address"
        }
      ],
      "name": "MarketExited",
      "type": "event"
    },
    {
      "anonymous": false,
      "inputs": [
        {
          "indexed": false,
          "internalType": "contract CToken",
          "name": "cToken",
          "type": "address"
        }
      ],
      "name": "MarketListed",
      "type": "event"
    },
    {
      "anonymous": false,
      "inputs": [
        {
          "indexed": false,
          "internalType": "uint256",
          "name": "oldCloseFactorMantissa",
          "type": "uint256"
        },
        {
          "indexed": false,
          "internalType": "uint256",
          "name": "newCloseFactorMantissa",
          "type": "uint256"
        }
      ],
      "name": "NewCloseFactor",
      "type": "event"
    },
    {
      "anonymous": false,
      "inputs": [
        {
          "indexed": false,
          "internalType": "contract CToken",
          "name": "cToken",
          "type": "address"
        },
        {
          "indexed": false,
          "internalType": "uint256",
          "name": "oldCollateralFactorMantissa",
          "type": "uint256"
        },
        {
          "indexed": false,
          "internalType": "uint256",
          "name": "newCollateralFactorMantissa",
          "type": "uint256"
        }
      ],
      "name": "NewCollateralFactor",
      "type": "event"
    },
    {
      "anonymous": false,
      "inputs": [
        {
          "indexed": false,
          "internalType": "uint256",
          "name": "oldLiquidationIncentiveMantissa",
          "type": "uint256"
        },
        {
          "indexed": false,
          "internalType": "uint256",
          "name": "newLiquidationIncentiveMantissa",
          "type": "uint256"
        }
      ],
      "name": "NewLiquidationIncentive",
      "type": "event"
    },
    {
      "anonymous": false,
      "inputs": [
        {
          "indexed": false,
          "internalType": "uint256",
          "name": "oldMaxAssets",
          "type": "uint256"
        },
        {
          "indexed": false,
          "internalType": "uint256",
          "name": "newMaxAssets",
          "type": "uint256"
        }
      ],
      "name": "NewMaxAssets",
      "type": "event"
    },
    {
      "anonymous": false,
      "inputs": [
        {
          "indexed": false,
          "internalType": "contract PriceOracle",
          "name": "oldPriceOracle",
          "type": "address"
        },
        {
          "indexed": false,
          "internalType": "contract PriceOracle",
          "name": "newPriceOracle",
          "type": "address"
        }
      ],
      "name": "NewPriceOracle",
      "type": "event"
    },
    {
      "constant": true,
      "inputs": [
        {
          "internalType": "address",
          "name": "",
          "type": "address"
        },
        {
          "internalType": "uint256",
          "name": "",
          "type": "uint256"
        }
      ],
      "name": "accountAssets",
      "outputs": [
        {
          "internalType": "contract CToken",
          "name": "",
          "type": "address"
        }
      ],
      "payable": false,
      "stateMutability": "view",
      "type": "function"
    },
    {
      "constant": true,
      "inputs": [],
      "name": "admin",
      "outputs": [
        {
          "internalType": "address",
          "name": "",
          "type": "address"
        }
      ],
      "payable": false,
      "stateMutability": "view",
      "type": "function"
    },
    {
      "constant": true,
      "inputs": [],
      "name": "closeFactorMantissa",
      "outputs": [
        {
          "internalType": "uint256",
          "name": "",
          "type": "uint256"
        }
      ],
      "payable": false,
      "stateMutability": "view",
      "type": "function"
    },
    {
      "constant": true,
      "inputs": [],
      "name": "comptrollerImplementation",
      "outputs": [
        {
          "internalType": "address",
          "name": "",
          "type": "address"
        }
      ],
      "payable": false,
      "stateMutability": "view",
      "type": "function"
    },
    {
      "constant": true,
      "inputs": [],
      "name": "isComptroller",
      "outputs": [
        {
          "internalType": "bool",
          "name": "",
          "type": "bool"
        }
      ],
      "payable": false,
      "stateMutability": "view",
      "type": "function"
    },
    {
      "constant": true,
      "inputs": [],
      "name": "liquidationIncentiveMantissa",
      "outputs": [
        {
          "internalType": "uint256",
          "name": "",
          "type": "uint256"
        }
      ],
      "payable": false,
      "stateMutability": "view",
      "type": "function"
    },
    {
      "constant": true,
      "inputs": [
        {
          "internalType": "address",
          "name": "",
          "type": "address"
        }
      ],
      "name": "markets",
      "outputs": [
        {
          "internalType": "bool",
          "name": "isListed",
          "type": "bool"
        },
        {
          "internalType": "uint256",
          "name": "collateralFactorMantissa",
          "type": "uint256"
        }
      ],
      "payable": false,
      "stateMutability": "view",
      "type": "function"
    },
    {
      "constant": true,
      "inputs": [],
      "name": "maxAssets",
      "outputs": [
        {
          "internalType": "uint256",
          "name": "",
          "type": "uint256"
        }
      ],
      "payable": false,
      "stateMutability": "view",
      "type": "function"
    },
    {
      "constant": true,
      "inputs": [],
      "name": "oracle",
      "outputs": [
        {
          "internalType": "contract PriceOracle",
          "name": "",
          "type": "address"
        }
      ],
      "payable": false,
      "stateMutability": "view",
      "type": "function"
    },
    {
      "constant": true,
      "inputs": [],
      "name": "pendingAdmin",
      "outputs": [
        {
          "internalType": "address",
          "name": "",
          "type": "address"
        }
      ],
      "payable": false,
      "stateMutability": "view",
      "type": "function"
    },
    {
      "constant": true,
      "inputs": [],
      "name": "pendingComptrollerImplementation",
      "outputs": [
        {
          "internalType": "address",
          "name": "",
          "type": "address"
        }
      ],
      "payable": false,
      "stateMutability": "view",
      "type": "function"
    },
    {
      "constant": true,
      "inputs": [
        {
          "internalType": "address",
          "name": "account",
          "type": "address"
        }
      ],
      "name": "getAssetsIn",
      "outputs": [
        {
          "internalType": "contract CToken[]",
          "name": "",
          "type": "address[]"
        }
      ],
      "payable": false,
      "stateMutability": "view",
      "type": "function"
    },
    {
      "constant": true,
      "inputs": [
        {
          "internalType": "address",
          "name": "account",
          "type": "address"
        },
        {
          "internalType": "contract CToken",
          "name": "cToken",
          "type": "address"
        }
      ],
      "name": "checkMembership",
      "outputs": [
        {
          "internalType": "bool",
          "name": "",
          "type": "bool"
        }
      ],
      "payable": false,
      "stateMutability": "view",
      "type": "function"
    },
    {
      "constant": false,
      "inputs": [
        {
          "internalType": "address[]",
          "name": "cTokens",
          "type": "address[]"
        }
      ],
      "name": "enterMarkets",
      "outputs": [
        {
          "internalType": "uint256[]",
          "name": "",
          "type": "uint256[]"
        }
      ],
      "payable": false,
      "stateMutability": "nonpayable",
      "type": "function"
    },
    {
      "constant": false,
      "inputs": [
        {
          "internalType": "address",
          "name": "cTokenAddress",
          "type": "address"
        }
      ],
      "name": "exitMarket",
      "outputs": [
        {
          "internalType": "uint256",
          "name": "",
          "type": "uint256"
        }
      ],
      "payable": false,
      "stateMutability": "nonpayable",
      "type": "function"
    },
    {
      "constant": false,
      "inputs": [
        {
          "internalType": "address",
          "name": "cToken",
          "type": "address"
        },
        {
          "internalType": "address",
          "name": "minter",
          "type": "address"
        },
        {
          "internalType": "uint256",
          "name": "mintAmount",
          "type": "uint256"
        }
      ],
      "name": "mintAllowed",
      "outputs": [
        {
          "internalType": "uint256",
          "name": "",
          "type": "uint256"
        }
      ],
      "payable": false,
      "stateMutability": "nonpayable",
      "type": "function"
    },
    {
      "constant": false,
      "inputs": [
        {
          "internalType": "address",
          "name": "cToken",
          "type": "address"
        },
        {
          "internalType": "address",
          "name": "minter",
          "type": "address"
        },
        {
          "internalType": "uint256",
          "name": "mintAmount",
          "type": "uint256"
        },
        {
          "internalType": "uint256",
          "name": "mintTokens",
          "type": "uint256"
        }
      ],
      "name": "mintVerify",
      "outputs": [],
      "payable": false,
      "stateMutability": "nonpayable",
      "type": "function"
    },
    {
      "constant": false,
      "inputs": [
        {
          "internalType": "address",
          "name": "cToken",
          "type": "address"
        },
        {
          "internalType": "address",
          "name": "redeemer",
          "type": "address"
        },
        {
          "internalType": "uint256",
          "name": "redeemTokens",
          "type": "uint256"
        }
      ],
      "name": "redeemAllowed",
      "outputs": [
        {
          "internalType": "uint256",
          "name": "",
          "type": "uint256"
        }
      ],
      "payable": false,
      "stateMutability": "nonpayable",
      "type": "function"
    },
    {
      "constant": false,
      "inputs": [
        {
          "internalType": "address",
          "name": "cToken",
          "type": "address"
        },
        {
          "internalType": "address",
          "name": "redeemer",
          "type": "address"
        },
        {
          "internalType": "uint256",
          "name": "redeemAmount",
          "type": "uint256"
        },
        {
          "internalType": "uint256",
          "name": "redeemTokens",
          "type": "uint256"
        }
      ],
      "name": "redeemVerify",
      "outputs": [],
      "payable": false,
      "stateMutability": "nonpayable",
      "type": "function"
    },
    {
      "constant": false,
      "inputs": [
        {
          "internalType": "address",
          "name": "cToken",
          "type": "address"
        },
        {
          "internalType": "address",
          "name": "borrower",
          "type": "address"
        },
        {
          "internalType": "uint256",
          "name": "borrowAmount",
          "type": "uint256"
        }
      ],
      "name": "borrowAllowed",
      "outputs": [
        {
          "internalType": "uint256",
          "name": "",
          "type": "uint256"
        }
      ],
      "payable": false,
      "stateMutability": "nonpayable",
      "type": "function"
    },
    {
      "constant": false,
      "inputs": [
        {
          "internalType": "address",
          "name": "cToken",
          "type": "address"
        },
        {
          "internalType": "address",
          "name": "borrower",
          "type": "address"
        },
        {
          "internalType": "uint256",
          "name": "borrowAmount",
          "type": "uint256"
        }
      ],
      "name": "borrowVerify",
      "outputs": [],
      "payable": false,
      "stateMutability": "nonpayable",
      "type": "function"
    },
    {
      "constant": false,
      "inputs": [
        {
          "internalType": "address",
          "name": "cToken",
          "type": "address"
        },
        {
          "internalType": "address",
          "name": "payer",
          "type": "address"
        },
        {
          "internalType": "address",
          "name": "borrower",
          "type": "address"
        },
        {
          "internalType": "uint256",
          "name": "repayAmount",
          "type": "uint256"
        }
      ],
      "name": "repayBorrowAllowed",
      "outputs": [
        {
          "internalType": "uint256",
          "name": "",
          "type": "uint256"
        }
      ],
      "payable": false,
      "stateMutability": "nonpayable",
      "type": "function"
    },
    {
      "constant": false,
      "inputs": [
        {
          "internalType": "address",
          "name": "cToken",
          "type": "address"
        },
        {
          "internalType": "address",
          "name": "payer",
          "type": "address"
        },
        {
          "internalType": "address",
          "name": "borrower",
          "type": "address"
        },
        {
          "internalType": "uint256",
          "name": "repayAmount",
          "type": "uint256"
        },
        {
          "internalType": "uint256",
          "name": "borrowerIndex",
          "type": "uint256"
        }
      ],
      "name": "repayBorrowVerify",
      "outputs": [],
      "payable": false,
      "stateMutability": "nonpayable",
      "type": "function"
    },
    {
      "constant": false,
      "inputs": [
        {
          "internalType": "address",
          "name": "cTokenBorrowed",
          "type": "address"
        },
        {
          "internalType": "address",
          "name": "cTokenCollateral",
          "type": "address"
        },
        {
          "internalType": "address",
          "name": "liquidator",
          "type": "address"
        },
        {
          "internalType": "address",
          "name": "borrower",
          "type": "address"
        },
        {
          "internalType": "uint256",
          "name": "repayAmount",
          "type": "uint256"
        }
      ],
      "name": "liquidateBorrowAllowed",
      "outputs": [
        {
          "internalType": "uint256",
          "name": "",
          "type": "uint256"
        }
      ],
      "payable": false,
      "stateMutability": "nonpayable",
      "type": "function"
    },
    {
      "constant": false,
      "inputs": [
        {
          "internalType": "address",
          "name": "cTokenBorrowed",
          "type": "address"
        },
        {
          "internalType": "address",
          "name": "cTokenCollateral",
          "type": "address"
        },
        {
          "internalType": "address",
          "name": "liquidator",
          "type": "address"
        },
        {
          "internalType": "address",
          "name": "borrower",
          "type": "address"
        },
        {
          "internalType": "uint256",
          "name": "repayAmount",
          "type": "uint256"
        },
        {
          "internalType": "uint256",
          "name": "seizeTokens",
          "type": "uint256"
        }
      ],
      "name": "liquidateBorrowVerify",
      "outputs": [],
      "payable": false,
      "stateMutability": "nonpayable",
      "type": "function"
    },
    {
      "constant": false,
      "inputs": [
        {
          "internalType": "address",
          "name": "cTokenCollateral",
          "type": "address"
        },
        {
          "internalType": "address",
          "name": "cTokenBorrowed",
          "type": "address"
        },
        {
          "internalType": "address",
          "name": "liquidator",
          "type": "address"
        },
        {
          "internalType": "address",
          "name": "borrower",
          "type": "address"
        },
        {
          "internalType": "uint256",
          "name": "seizeTokens",
          "type": "uint256"
        }
      ],
      "name": "seizeAllowed",
      "outputs": [
        {
          "internalType": "uint256",
          "name": "",
          "type": "uint256"
        }
      ],
      "payable": false,
      "stateMutability": "nonpayable",
      "type": "function"
    },
    {
      "constant": false,
      "inputs": [
        {
          "internalType": "address",
          "name": "cTokenCollateral",
          "type": "address"
        },
        {
          "internalType": "address",
          "name": "cTokenBorrowed",
          "type": "address"
        },
        {
          "internalType": "address",
          "name": "liquidator",
          "type": "address"
        },
        {
          "internalType": "address",
          "name": "borrower",
          "type": "address"
        },
        {
          "internalType": "uint256",
          "name": "seizeTokens",
          "type": "uint256"
        }
      ],
      "name": "seizeVerify",
      "outputs": [],
      "payable": false,
      "stateMutability": "nonpayable",
      "type": "function"
    },
    {
      "constant": false,
      "inputs": [
        {
          "internalType": "address",
          "name": "cToken",
          "type": "address"
        },
        {
          "internalType": "address",
          "name": "src",
          "type": "address"
        },
        {
          "internalType": "address",
          "name": "dst",
          "type": "address"
        },
        {
          "internalType": "uint256",
          "name": "transferTokens",
          "type": "uint256"
        }
      ],
      "name": "transferAllowed",
      "outputs": [
        {
          "internalType": "uint256",
          "name": "",
          "type": "uint256"
        }
      ],
      "payable": false,
      "stateMutability": "nonpayable",
      "type": "function"
    },
    {
      "constant": false,
      "inputs": [
        {
          "internalType": "address",
          "name": "cToken",
          "type": "address"
        },
        {
          "internalType": "address",
          "name": "src",
          "type": "address"
        },
        {
          "internalType": "address",
          "name": "dst",
          "type": "address"
        },
        {
          "internalType": "uint256",
          "name": "transferTokens",
          "type": "uint256"
        }
      ],
      "name": "transferVerify",
      "outputs": [],
      "payable": false,
      "stateMutability": "nonpayable",
      "type": "function"
    },
    {
      "constant": true,
      "inputs": [
        {
          "internalType": "address",
          "name": "account",
          "type": "address"
        }
      ],
      "name": "getAccountLiquidity",
      "outputs": [
        {
          "internalType": "uint256",
          "name": "",
          "type": "uint256"
        },
        {
          "internalType": "uint256",
          "name": "",
          "type": "uint256"
        },
        {
          "internalType": "uint256",
          "name": "",
          "type": "uint256"
        }
      ],
      "payable": false,
      "stateMutability": "view",
      "type": "function"
    },
    {
      "constant": true,
      "inputs": [
        {
          "internalType": "address",
          "name": "cTokenBorrowed",
          "type": "address"
        },
        {
          "internalType": "address",
          "name": "cTokenCollateral",
          "type": "address"
        },
        {
          "internalType": "uint256",
          "name": "repayAmount",
          "type": "uint256"
        }
      ],
      "name": "liquidateCalculateSeizeTokens",
      "outputs": [
        {
          "internalType": "uint256",
          "name": "",
          "type": "uint256"
        },
        {
          "internalType": "uint256",
          "name": "",
          "type": "uint256"
        }
      ],
      "payable": false,
      "stateMutability": "view",
      "type": "function"
    },
    {
      "constant": false,
      "inputs": [
        {
          "internalType": "contract PriceOracle",
          "name": "newOracle",
          "type": "address"
        }
      ],
      "name": "_setPriceOracle",
      "outputs": [
        {
          "internalType": "uint256",
          "name": "",
          "type": "uint256"
        }
      ],
      "payable": false,
      "stateMutability": "nonpayable",
      "type": "function"
    },
    {
      "constant": false,
      "inputs": [
        {
          "internalType": "uint256",
          "name": "newCloseFactorMantissa",
          "type": "uint256"
        }
      ],
      "name": "_setCloseFactor",
      "outputs": [
        {
          "internalType": "uint256",
          "name": "",
          "type": "uint256"
        }
      ],
      "payable": false,
      "stateMutability": "nonpayable",
      "type": "function"
    },
    {
      "constant": false,
      "inputs": [
        {
          "internalType": "contract CToken",
          "name": "cToken",
          "type": "address"
        },
        {
          "internalType": "uint256",
          "name": "newCollateralFactorMantissa",
          "type": "uint256"
        }
      ],
      "name": "_setCollateralFactor",
      "outputs": [
        {
          "internalType": "uint256",
          "name": "",
          "type": "uint256"
        }
      ],
      "payable": false,
      "stateMutability": "nonpayable",
      "type": "function"
    },
    {
      "constant": false,
      "inputs": [
        {
          "internalType": "uint256",
          "name": "newMaxAssets",
          "type": "uint256"
        }
      ],
      "name": "_setMaxAssets",
      "outputs": [
        {
          "internalType": "uint256",
          "name": "",
          "type": "uint256"
        }
      ],
      "payable": false,
      "stateMutability": "nonpayable",
      "type": "function"
    },
    {
      "constant": false,
      "inputs": [
        {
          "internalType": "uint256",
          "name": "newLiquidationIncentiveMantissa",
          "type": "uint256"
        }
      ],
      "name": "_setLiquidationIncentive",
      "outputs": [
        {
          "internalType": "uint256",
          "name": "",
          "type": "uint256"
        }
      ],
      "payable": false,
      "stateMutability": "nonpayable",
      "type": "function"
    },
    {
      "constant": false,
      "inputs": [
        {
          "internalType": "contract CToken",
          "name": "cToken",
          "type": "address"
        }
      ],
      "name": "_supportMarket",
      "outputs": [
        {
          "internalType": "uint256",
          "name": "",
          "type": "uint256"
        }
      ],
      "payable": false,
      "stateMutability": "nonpayable",
      "type": "function"
    },
    {
      "constant": false,
      "inputs": [
        {
          "internalType": "contract Unitroller",
          "name": "unitroller",
          "type": "address"
        },
        {
          "internalType": "contract PriceOracle",
          "name": "_oracle",
          "type": "address"
        },
        {
          "internalType": "uint256",
          "name": "_closeFactorMantissa",
          "type": "uint256"
        },
        {
          "internalType": "uint256",
          "name": "_maxAssets",
          "type": "uint256"
        },
        {
          "internalType": "bool",
          "name": "reinitializing",
          "type": "bool"
        }
      ],
      "name": "_become",
      "outputs": [],
      "payable": false,
      "stateMutability": "nonpayable",
      "type": "function"
    }
  ],
  "bytecode": "0x608060405234801561001057600080fd5b50336000806101000a81548173ffffffffffffffffffffffffffffffffffffffff021916908373ffffffffffffffffffffffffffffffffffffffff160217905550614b2f806100606000396000f3fe608060405234801561001057600080fd5b50600436106102315760003560e01c80638e8f294b11610130578063d02f7351116100b8578063e4028eee1161007c578063e4028eee1461116e578063e8755446146111d0578063eabe7d91146111ee578063ede4edd014611270578063f851a440146112c857610231565b8063d02f735114610f10578063d9226ced14610fd2578063da3d454c14611014578063dce1544914611096578063dcfbc0c71461112457610231565b8063abfceffc116100ff578063abfceffc14610bf5578063bb82aa5e14610c8e578063bdcdc25814610cd8578063c299823814610d7a578063c488847b14610e8757610231565b80638e8f294b14610aa0578063929fe9a114610b0357806394b2294b14610b7f578063a76b3fda14610b9d57610231565b80634ef4c3e1116101be5780635ec88c79116101825780635ec88c79146107f25780635fc7e71e146108585780636a56947e1461091a5780636d35bf91146109a85780637dc0d1d014610a5657610231565b80634ef4c3e1146105f05780634fd42e171461067257806351dff989146106b457806355ee1fe11461072c5780635c7786051461078457610231565b8063317b0b7711610205578063317b0b77146103dc57806332000e001461041e57806341c728b9146104a257806347ef3b3b1461051a5780634ada90af146105d257610231565b80627e3dd2146102365780631ededc911461025857806324008a62146102f05780632678224714610392575b600080fd5b61023e611312565b604051808215151515815260200191505060405180910390f35b6102ee600480360360a081101561026e57600080fd5b81019080803573ffffffffffffffffffffffffffffffffffffffff169060200190929190803573ffffffffffffffffffffffffffffffffffffffff169060200190929190803573ffffffffffffffffffffffffffffffffffffffff1690602001909291908035906020019092919080359060200190929190505050611317565b005b61037c6004803603608081101561030657600080fd5b81019080803573ffffffffffffffffffffffffffffffffffffffff169060200190929190803573ffffffffffffffffffffffffffffffffffffffff169060200190929190803573ffffffffffffffffffffffffffffffffffffffff1690602001909291908035906020019092919050505061132f565b6040518082815260200191505060405180910390f35b61039a6113b1565b604051808273ffffffffffffffffffffffffffffffffffffffff1673ffffffffffffffffffffffffffffffffffffffff16815260200191505060405180910390f35b610408600480360360208110156103f257600080fd5b81019080803590602001909291905050506113d7565b6040518082815260200191505060405180910390f35b6104a0600480360360a081101561043457600080fd5b81019080803573ffffffffffffffffffffffffffffffffffffffff169060200190929190803573ffffffffffffffffffffffffffffffffffffffff1690602001909291908035906020019092919080359060200190929190803515159060200190929190505050611501565b005b610518600480360360808110156104b857600080fd5b81019080803573ffffffffffffffffffffffffffffffffffffffff169060200190929190803573ffffffffffffffffffffffffffffffffffffffff1690602001909291908035906020019092919080359060200190929190505050611b91565b005b6105d0600480360360c081101561053057600080fd5b81019080803573ffffffffffffffffffffffffffffffffffffffff169060200190929190803573ffffffffffffffffffffffffffffffffffffffff169060200190929190803573ffffffffffffffffffffffffffffffffffffffff169060200190929190803573ffffffffffffffffffffffffffffffffffffffff1690602001909291908035906020019092919080359060200190929190505050611ba8565b005b6105da611bc1565b6040518082815260200191505060405180910390f35b61065c6004803603606081101561060657600080fd5b81019080803573ffffffffffffffffffffffffffffffffffffffff169060200190929190803573ffffffffffffffffffffffffffffffffffffffff16906020019092919080359060200190929190505050611bc7565b6040518082815260200191505060405180910390f35b61069e6004803603602081101561068857600080fd5b8101908080359060200190929190505050611c48565b6040518082815260200191505060405180910390f35b61072a600480360360808110156106ca57600080fd5b81019080803573ffffffffffffffffffffffffffffffffffffffff169060200190929190803573ffffffffffffffffffffffffffffffffffffffff1690602001909291908035906020019092919080359060200190929190505050611d73565b005b61076e6004803603602081101561074257600080fd5b81019080803573ffffffffffffffffffffffffffffffffffffffff169060200190929190505050611d8a565b6040518082815260200191505060405180910390f35b6107f06004803603606081101561079a57600080fd5b81019080803573ffffffffffffffffffffffffffffffffffffffff169060200190929190803573ffffffffffffffffffffffffffffffffffffffff16906020019092919080359060200190929190505050611ec0565b005b6108346004803603602081101561080857600080fd5b81019080803573ffffffffffffffffffffffffffffffffffffffff169060200190929190505050611ed6565b60405180848152602001838152602001828152602001935050505060405180910390f35b610904600480360360a081101561086e57600080fd5b81019080803573ffffffffffffffffffffffffffffffffffffffff169060200190929190803573ffffffffffffffffffffffffffffffffffffffff169060200190929190803573ffffffffffffffffffffffffffffffffffffffff169060200190929190803573ffffffffffffffffffffffffffffffffffffffff16906020019092919080359060200190929190505050611f11565b6040518082815260200191505060405180910390f35b6109a66004803603608081101561093057600080fd5b81019080803573ffffffffffffffffffffffffffffffffffffffff169060200190929190803573ffffffffffffffffffffffffffffffffffffffff169060200190929190803573ffffffffffffffffffffffffffffffffffffffff1690602001909291908035906020019092919050505061218a565b005b610a54600480360360a08110156109be57600080fd5b81019080803573ffffffffffffffffffffffffffffffffffffffff169060200190929190803573ffffffffffffffffffffffffffffffffffffffff169060200190929190803573ffffffffffffffffffffffffffffffffffffffff169060200190929190803573ffffffffffffffffffffffffffffffffffffffff169060200190929190803590602001909291905050506121a1565b005b610a5e6121b9565b604051808273ffffffffffffffffffffffffffffffffffffffff1673ffffffffffffffffffffffffffffffffffffffff16815260200191505060405180910390f35b610ae260048036036020811015610ab657600080fd5b81019080803573ffffffffffffffffffffffffffffffffffffffff1690602001909291905050506121df565b60405180831515151581526020018281526020019250505060405180910390f35b610b6560048036036040811015610b1957600080fd5b81019080803573ffffffffffffffffffffffffffffffffffffffff169060200190929190803573ffffffffffffffffffffffffffffffffffffffff169060200190929190505050612210565b604051808215151515815260200191505060405180910390f35b610b876122a7565b6040518082815260200191505060405180910390f35b610bdf60048036036020811015610bb357600080fd5b81019080803573ffffffffffffffffffffffffffffffffffffffff1690602001909291905050506122ad565b6040518082815260200191505060405180910390f35b610c3760048036036020811015610c0b57600080fd5b81019080803573ffffffffffffffffffffffffffffffffffffffff1690602001909291905050506124fd565b6040518080602001828103825283818151815260200191508051906020019060200280838360005b83811015610c7a578082015181840152602081019050610c5f565b505050509050019250505060405180910390f35b610c966125cf565b604051808273ffffffffffffffffffffffffffffffffffffffff1673ffffffffffffffffffffffffffffffffffffffff16815260200191505060405180910390f35b610d6460048036036080811015610cee57600080fd5b81019080803573ffffffffffffffffffffffffffffffffffffffff169060200190929190803573ffffffffffffffffffffffffffffffffffffffff169060200190929190803573ffffffffffffffffffffffffffffffffffffffff169060200190929190803590602001909291905050506125f5565b6040518082815260200191505060405180910390f35b610e3060048036036020811015610d9057600080fd5b8101908080359060200190640100000000811115610dad57600080fd5b820183602082011115610dbf57600080fd5b80359060200191846020830284011164010000000083111715610de157600080fd5b919080806020026020016040519081016040528093929190818152602001838360200280828437600081840152601f19601f82011690508083019250505050505050919291929050505061260c565b6040518080602001828103825283818151815260200191508051906020019060200280838360005b83811015610e73578082015181840152602081019050610e58565b505050509050019250505060405180910390f35b610ef360048036036060811015610e9d57600080fd5b81019080803573ffffffffffffffffffffffffffffffffffffffff169060200190929190803573ffffffffffffffffffffffffffffffffffffffff169060200190929190803590602001909291905050506129c5565b604051808381526020018281526020019250505060405180910390f35b610fbc600480360360a0811015610f2657600080fd5b81019080803573ffffffffffffffffffffffffffffffffffffffff169060200190929190803573ffffffffffffffffffffffffffffffffffffffff169060200190929190803573ffffffffffffffffffffffffffffffffffffffff169060200190929190803573ffffffffffffffffffffffffffffffffffffffff16906020019092919080359060200190929190505050612dc7565b6040518082815260200191505060405180910390f35b610ffe60048036036020811015610fe857600080fd5b8101908080359060200190929190505050612feb565b6040518082815260200191505060405180910390f35b6110806004803603606081101561102a57600080fd5b81019080803573ffffffffffffffffffffffffffffffffffffffff169060200190929190803573ffffffffffffffffffffffffffffffffffffffff1690602001909291908035906020019092919050505061306f565b6040518082815260200191505060405180910390f35b6110e2600480360360408110156110ac57600080fd5b81019080803573ffffffffffffffffffffffffffffffffffffffff169060200190929190803590602001909291905050506132f4565b604051808273ffffffffffffffffffffffffffffffffffffffff1673ffffffffffffffffffffffffffffffffffffffff16815260200191505060405180910390f35b61112c61333f565b604051808273ffffffffffffffffffffffffffffffffffffffff1673ffffffffffffffffffffffffffffffffffffffff16815260200191505060405180910390f35b6111ba6004803603604081101561118457600080fd5b81019080803573ffffffffffffffffffffffffffffffffffffffff16906020019092919080359060200190929190505050613365565b6040518082815260200191505060405180910390f35b6111d8613539565b6040518082815260200191505060405180910390f35b61125a6004803603606081101561120457600080fd5b81019080803573ffffffffffffffffffffffffffffffffffffffff169060200190929190803573ffffffffffffffffffffffffffffffffffffffff1690602001909291908035906020019092919050505061353f565b6040518082815260200191505060405180910390f35b6112b26004803603602081101561128657600080fd5b81019080803573ffffffffffffffffffffffffffffffffffffffff169060200190929190505050613555565b6040518082815260200191505060405180910390f35b6112d0613acd565b604051808273ffffffffffffffffffffffffffffffffffffffff1673ffffffffffffffffffffffffffffffffffffffff16815260200191505060405180910390f35b600181565b600015611328576007546007819055505b5050505050565b6000600960008673ffffffffffffffffffffffffffffffffffffffff1673ffffffffffffffffffffffffffffffffffffffff16815260200190815260200160002060000160009054906101000a900460ff16611399576009601181111561139257fe5b90506113a9565b600060118111156113a657fe5b90505b949350505050565b600160009054906101000a900473ffffffffffffffffffffffffffffffffffffffff1681565b60006113e1613af2565b6113f8576113f160016004613c04565b90506114fc565b6114006149cc565b60405180602001604052808481525090506114196149cc565b604051806020016040528066b1a2bc2ec50000815250905061143b8282613c78565b156114545761144b600580613c04565b925050506114fc565b61145c6149cc565b6040518060200160405280670c7d713b49da0000815250905061147f8184613c8e565b156114995761148f600580613c04565b93505050506114fc565b60006005549050856005819055507f3b9670cf975d26958e754b57098eaa2ac914d8d2a31b83257997b9f346110fd981600554604051808381526020018281526020019250505060405180910390a1600060118111156114f557fe5b9450505050505b919050565b8473ffffffffffffffffffffffffffffffffffffffff1663f851a4406040518163ffffffff1660e01b815260040160206040518083038186803b15801561154757600080fd5b505afa15801561155b573d6000803e3d6000fd5b505050506040513d602081101561157157600080fd5b810190808051906020019092919050505073ffffffffffffffffffffffffffffffffffffffff163373ffffffffffffffffffffffffffffffffffffffff1614611605576040517f08c379a0000000000000000000000000000000000000000000000000000000008152600401808060200182810382526027815260200180614ad46027913960400191505060405180910390fd5b60008573ffffffffffffffffffffffffffffffffffffffff1663c1e803346040518163ffffffff1660e01b8152600401602060405180830381600087803b15801561164f57600080fd5b505af1158015611663573d6000803e3d6000fd5b505050506040513d602081101561167957600080fd5b8101908080519060200190929190505050905060008114611702576040517f08c379a00000000000000000000000000000000000000000000000000000000081526004018080602001828103825260158152602001807f6368616e6765206e6f7420617574686f72697a6564000000000000000000000081525060200191505060405180910390fd5b81611b8957600086905060008173ffffffffffffffffffffffffffffffffffffffff166355ee1fe1886040518263ffffffff1660e01b8152600401808273ffffffffffffffffffffffffffffffffffffffff1673ffffffffffffffffffffffffffffffffffffffff168152602001915050602060405180830381600087803b15801561178d57600080fd5b505af11580156117a1573d6000803e3d6000fd5b505050506040513d60208110156117b757600080fd5b81019080805190602001909291905050509050600060118111156117d757fe5b811461184b576040517f08c379a00000000000000000000000000000000000000000000000000000000081526004018080602001828103825260168152602001807f736574207072696365206f7261636c65206572726f720000000000000000000081525060200191505060405180910390fd5b8173ffffffffffffffffffffffffffffffffffffffff1663317b0b77876040518263ffffffff1660e01b815260040180828152602001915050602060405180830381600087803b15801561189e57600080fd5b505af11580156118b2573d6000803e3d6000fd5b505050506040513d60208110156118c857600080fd5b81019080805190602001909291905050509050600060118111156118e857fe5b811461195c576040517f08c379a00000000000000000000000000000000000000000000000000000000081526004018080602001828103825260168152602001807f73657420636c6f736520666163746f72206572726f720000000000000000000081525060200191505060405180910390fd5b8173ffffffffffffffffffffffffffffffffffffffff1663d9226ced866040518263ffffffff1660e01b815260040180828152602001915050602060405180830381600087803b1580156119af57600080fd5b505af11580156119c3573d6000803e3d6000fd5b505050506040513d60208110156119d957600080fd5b81019080805190602001909291905050509050600060118111156119f957fe5b8114611a6d576040517f08c379a00000000000000000000000000000000000000000000000000000000081526004018080602001828103825260158152602001807f736574206d61782061737373657473206572726f72000000000000000000000081525060200191505060405180910390fd5b8173ffffffffffffffffffffffffffffffffffffffff16634fd42e17670de0b6b3a76400006040518263ffffffff1660e01b815260040180828152602001915050602060405180830381600087803b158015611ac857600080fd5b505af1158015611adc573d6000803e3d6000fd5b505050506040513d6020811015611af257600080fd5b8101908080519060200190929190505050905060006011811115611b1257fe5b8114611b86576040517f08c379a000000000000000000000000000000000000000000000000000000000815260040180806020018281038252601f8152602001807f736574206c69717569646174696f6e20696e63656e74697665206572726f720081525060200191505060405180910390fd5b50505b505050505050565b600015611ba2576007546007819055505b50505050565b600015611bb9576007546007819055505b505050505050565b60065481565b6000600960008573ffffffffffffffffffffffffffffffffffffffff1673ffffffffffffffffffffffffffffffffffffffff16815260200190815260200160002060000160009054906101000a900460ff16611c315760096011811115611c2a57fe5b9050611c41565b60006011811115611c3e57fe5b90505b9392505050565b6000611c52613af2565b611c6957611c626001600b613c04565b9050611d6e565b611c716149cc565b6040518060200160405280848152509050611c8a6149cc565b6040518060200160405280670de0b6b3a76400008152509050611cad8282613c8e565b15611cc757611cbe6007600c613c04565b92505050611d6e565b611ccf6149cc565b60405180602001604052806714d1120d7b1600008152509050611cf28184613c8e565b15611d0d57611d036007600c613c04565b9350505050611d6e565b60006006549050856006819055507faeba5a6c40a8ac138134bff1aaa65debf25971188a58804bad717f82f0ec13168187604051808381526020018281526020019250505060405180910390a160006011811115611d6757fe5b9450505050505b919050565b600015611d84576007546007819055505b50505050565b6000611d94613af2565b611dab57611da460016010613c04565b9050611ebb565b6000600460009054906101000a900473ffffffffffffffffffffffffffffffffffffffff16905082600460006101000a81548173ffffffffffffffffffffffffffffffffffffffff021916908373ffffffffffffffffffffffffffffffffffffffff1602179055507fd52b2b9b7e9ee655fcb95d2e5b9e0c9f69e7ef2b8e9d2d0ea78402d576d22e228184604051808373ffffffffffffffffffffffffffffffffffffffff1673ffffffffffffffffffffffffffffffffffffffff1681526020018273ffffffffffffffffffffffffffffffffffffffff1673ffffffffffffffffffffffffffffffffffffffff1681526020019250505060405180910390a160006011811115611eb757fe5b9150505b919050565b600015611ed1576007546007819055505b505050565b600080600080600080611eed876000806000613ca3565b925092509250826011811115611eff57fe5b82829550955095505050509193909250565b6000600960008773ffffffffffffffffffffffffffffffffffffffff1673ffffffffffffffffffffffffffffffffffffffff16815260200190815260200160002060000160009054906101000a900460ff161580611fbc5750600960008673ffffffffffffffffffffffffffffffffffffffff1673ffffffffffffffffffffffffffffffffffffffff16815260200190815260200160002060000160009054906101000a900460ff16155b15611fd55760096011811115611fce57fe5b9050612181565b600080611fe1856142c8565b925050915060006011811115611ff357fe5b826011811115611fff57fe5b146120195781601181111561201057fe5b92505050612181565b6000811415612038576003601181111561202f57fe5b92505050612181565b60008873ffffffffffffffffffffffffffffffffffffffff166395dd9193876040518263ffffffff1660e01b8152600401808273ffffffffffffffffffffffffffffffffffffffff1673ffffffffffffffffffffffffffffffffffffffff16815260200191505060206040518083038186803b1580156120b757600080fd5b505afa1580156120cb573d6000803e3d6000fd5b505050506040513d60208110156120e157600080fd5b810190808051906020019092919050505090506000806121116040518060200160405280600554815250846142e8565b915091506000600381111561212257fe5b82600381111561212e57fe5b1461214c57600b601181111561214057fe5b95505050505050612181565b8087111561216c5760118081111561216057fe5b95505050505050612181565b6000601181111561217957fe5b955050505050505b95945050505050565b60001561219b576007546007819055505b50505050565b6000156121b2576007546007819055505b5050505050565b600460009054906101000a900473ffffffffffffffffffffffffffffffffffffffff1681565b60096020528060005260406000206000915090508060000160009054906101000a900460ff16908060010154905082565b6000600960008373ffffffffffffffffffffffffffffffffffffffff1673ffffffffffffffffffffffffffffffffffffffff16815260200190815260200160002060020160008473ffffffffffffffffffffffffffffffffffffffff1673ffffffffffffffffffffffffffffffffffffffff16815260200190815260200160002060009054906101000a900460ff16905092915050565b60075481565b60008060009054906101000a900473ffffffffffffffffffffffffffffffffffffffff1673ffffffffffffffffffffffffffffffffffffffff163373ffffffffffffffffffffffffffffffffffffffff16146123165761230f60016012613c04565b90506124f8565b600960008373ffffffffffffffffffffffffffffffffffffffff1673ffffffffffffffffffffffffffffffffffffffff16815260200190815260200160002060000160009054906101000a900460ff161561237e57612377600a6011613c04565b90506124f8565b8173ffffffffffffffffffffffffffffffffffffffff1663fe9c44ae6040518163ffffffff1660e01b815260040160206040518083038186803b1580156123c457600080fd5b505afa1580156123d8573d6000803e3d6000fd5b505050506040513d60208110156123ee57600080fd5b81019080805190602001909291905050505060405180604001604052806001151581526020016000815250600960008473ffffffffffffffffffffffffffffffffffffffff1673ffffffffffffffffffffffffffffffffffffffff16815260200190815260200160002060008201518160000160006101000a81548160ff021916908315150217905550602082015181600101559050507fcf583bb0c569eb967f806b11601c4cb93c10310485c67add5f8362c2f212321f82604051808273ffffffffffffffffffffffffffffffffffffffff1673ffffffffffffffffffffffffffffffffffffffff16815260200191505060405180910390a1600060118111156124f557fe5b90505b919050565b606080600860008473ffffffffffffffffffffffffffffffffffffffff1673ffffffffffffffffffffffffffffffffffffffff1681526020019081526020016000208054806020026020016040519081016040528092919081815260200182805480156125bf57602002820191906000526020600020905b8160009054906101000a900473ffffffffffffffffffffffffffffffffffffffff1673ffffffffffffffffffffffffffffffffffffffff1681526020019060010190808311612575575b5050505050905080915050919050565b600260009054906101000a900473ffffffffffffffffffffffffffffffffffffffff1681565b600061260285858461434b565b9050949350505050565b60606000825190506060816040519080825280602002602001820160405280156126455781602001602082028038833980820191505090505b50905060008090505b828110156129ba57600085828151811061266457fe5b602002602001015190506000600960008373ffffffffffffffffffffffffffffffffffffffff1673ffffffffffffffffffffffffffffffffffffffff16815260200190815260200160002090508060000160009054906101000a900460ff166126f357600960118111156126d457fe5b8484815181106126e057fe5b60200260200101818152505050506129ad565b600115158160020160003373ffffffffffffffffffffffffffffffffffffffff1673ffffffffffffffffffffffffffffffffffffffff16815260200190815260200160002060009054906101000a900460ff161515141561277a576000601181111561275b57fe5b84848151811061276757fe5b60200260200101818152505050506129ad565b600754600860003373ffffffffffffffffffffffffffffffffffffffff1673ffffffffffffffffffffffffffffffffffffffff16815260200190815260200160002080549050106127f157601060118111156127d257fe5b8484815181106127de57fe5b60200260200101818152505050506129ad565b60018160020160003373ffffffffffffffffffffffffffffffffffffffff1673ffffffffffffffffffffffffffffffffffffffff16815260200190815260200160002060006101000a81548160ff021916908315150217905550600860003373ffffffffffffffffffffffffffffffffffffffff1673ffffffffffffffffffffffffffffffffffffffff1681526020019081526020016000208290806001815401808255809150509060018203906000526020600020016000909192909190916101000a81548173ffffffffffffffffffffffffffffffffffffffff021916908373ffffffffffffffffffffffffffffffffffffffff160217905550507f3ab23ab0d51cccc0c3085aec51f99228625aa1a922b3a8ca89a26b0f2027a1a58233604051808373ffffffffffffffffffffffffffffffffffffffff1673ffffffffffffffffffffffffffffffffffffffff1681526020018273ffffffffffffffffffffffffffffffffffffffff1673ffffffffffffffffffffffffffffffffffffffff1681526020019250505060405180910390a16000601181111561299257fe5b84848151811061299e57fe5b60200260200101818152505050505b808060010191505061264e565b508092505050919050565b6000806000600460009054906101000a900473ffffffffffffffffffffffffffffffffffffffff1673ffffffffffffffffffffffffffffffffffffffff1663fc57d4df876040518263ffffffff1660e01b8152600401808273ffffffffffffffffffffffffffffffffffffffff1673ffffffffffffffffffffffffffffffffffffffff16815260200191505060206040518083038186803b158015612a6957600080fd5b505afa158015612a7d573d6000803e3d6000fd5b505050506040513d6020811015612a9357600080fd5b810190808051906020019092919050505090506000600460009054906101000a900473ffffffffffffffffffffffffffffffffffffffff1673ffffffffffffffffffffffffffffffffffffffff1663fc57d4df876040518263ffffffff1660e01b8152600401808273ffffffffffffffffffffffffffffffffffffffff1673ffffffffffffffffffffffffffffffffffffffff16815260200191505060206040518083038186803b158015612b4757600080fd5b505afa158015612b5b573d6000803e3d6000fd5b505050506040513d6020811015612b7157600080fd5b810190808051906020019092919050505090506000821480612b935750600081145b15612bb557600d6011811115612ba557fe5b6000809050935093505050612dbf565b60008673ffffffffffffffffffffffffffffffffffffffff1663182df0f56040518163ffffffff1660e01b815260040160206040518083038186803b158015612bfd57600080fd5b505afa158015612c11573d6000803e3d6000fd5b505050506040513d6020811015612c2757600080fd5b810190808051906020019092919050505090506000612c446149cc565b612c4c6149cc565b612c546149cc565b6000612c62600654896144da565b809550819250505060006003811115612c7757fe5b816003811115612c8357fe5b14612cab57600b6011811115612c9557fe5b6000809050995099505050505050505050612dbf565b612cb587876144da565b809450819250505060006003811115612cca57fe5b816003811115612cd657fe5b14612cfe57600b6011811115612ce857fe5b6000809050995099505050505050505050612dbf565b612d088484614515565b809350819250505060006003811115612d1d57fe5b816003811115612d2957fe5b14612d5157600b6011811115612d3b57fe5b6000809050995099505050505050505050612dbf565b612d5b828c6142e8565b809650819250505060006003811115612d7057fe5b816003811115612d7c57fe5b14612da457600b6011811115612d8e57fe5b6000809050995099505050505050505050612dbf565b60006011811115612db157fe5b859950995050505050505050505b935093915050565b6000600960008773ffffffffffffffffffffffffffffffffffffffff1673ffffffffffffffffffffffffffffffffffffffff16815260200190815260200160002060000160009054906101000a900460ff161580612e725750600960008673ffffffffffffffffffffffffffffffffffffffff1673ffffffffffffffffffffffffffffffffffffffff16815260200190815260200160002060000160009054906101000a900460ff16155b15612e8b5760096011811115612e8457fe5b9050612fe2565b8473ffffffffffffffffffffffffffffffffffffffff16635fe3b5676040518163ffffffff1660e01b815260040160206040518083038186803b158015612ed157600080fd5b505afa158015612ee5573d6000803e3d6000fd5b505050506040513d6020811015612efb57600080fd5b810190808051906020019092919050505073ffffffffffffffffffffffffffffffffffffffff168673ffffffffffffffffffffffffffffffffffffffff16635fe3b5676040518163ffffffff1660e01b815260040160206040518083038186803b158015612f6857600080fd5b505afa158015612f7c573d6000803e3d6000fd5b505050506040513d6020811015612f9257600080fd5b810190808051906020019092919050505073ffffffffffffffffffffffffffffffffffffffff1614612fd25760026011811115612fcb57fe5b9050612fe2565b60006011811115612fdf57fe5b90505b95945050505050565b6000612ff5613af2565b61300c576130056001600d613c04565b905061306a565b60006007549050826007819055507f7093cf1eb653f749c3ff531d6df7f92764536a7fa0d13530cd26e070780c32ea8184604051808381526020018281526020019250505060405180910390a16000601181111561306657fe5b9150505b919050565b6000600960008573ffffffffffffffffffffffffffffffffffffffff1673ffffffffffffffffffffffffffffffffffffffff16815260200190815260200160002060000160009054906101000a900460ff166130d957600960118111156130d257fe5b90506132ed565b600960008573ffffffffffffffffffffffffffffffffffffffff1673ffffffffffffffffffffffffffffffffffffffff16815260200190815260200160002060020160008473ffffffffffffffffffffffffffffffffffffffff1673ffffffffffffffffffffffffffffffffffffffff16815260200190815260200160002060009054906101000a900460ff1661317e576008601181111561317757fe5b90506132ed565b6000600460009054906101000a900473ffffffffffffffffffffffffffffffffffffffff1673ffffffffffffffffffffffffffffffffffffffff1663fc57d4df866040518263ffffffff1660e01b8152600401808273ffffffffffffffffffffffffffffffffffffffff1673ffffffffffffffffffffffffffffffffffffffff16815260200191505060206040518083038186803b15801561321f57600080fd5b505afa158015613233573d6000803e3d6000fd5b505050506040513d602081101561324957600080fd5b8101908080519060200190929190505050141561327457600d601181111561326d57fe5b90506132ed565b6000806132848587600087613ca3565b92505091506000601181111561329657fe5b8260118111156132a257fe5b146132bc578160118111156132b357fe5b925050506132ed565b60008111156132db57600460118111156132d257fe5b925050506132ed565b600060118111156132e857fe5b925050505b9392505050565b6008602052816000526040600020818154811061330d57fe5b906000526020600020016000915091509054906101000a900473ffffffffffffffffffffffffffffffffffffffff1681565b600360009054906101000a900473ffffffffffffffffffffffffffffffffffffffff1681565b60008060009054906101000a900473ffffffffffffffffffffffffffffffffffffffff1673ffffffffffffffffffffffffffffffffffffffff163373ffffffffffffffffffffffffffffffffffffffff16146133ce576133c760016006613c04565b9050613533565b6000600960008573ffffffffffffffffffffffffffffffffffffffff1673ffffffffffffffffffffffffffffffffffffffff16815260200190815260200160002090508060000160009054906101000a900460ff1661343b5761343360096007613c04565b915050613533565b6134436149cc565b604051806020016040528085815250905061345c6149cc565b6040518060200160405280670c7d713b49da0000815250905061347f8183613c8e565b1561349a5761349060066008613c04565b9350505050613533565b6000836001015490508584600101819055507f70483e6592cd5182d45ac970e05bc62cdcc90e9d8ef2c2dbe686cf383bcd7fc5878288604051808473ffffffffffffffffffffffffffffffffffffffff1673ffffffffffffffffffffffffffffffffffffffff168152602001838152602001828152602001935050505060405180910390a16000601181111561352c57fe5b9450505050505b92915050565b60055481565b600061354c84848461434b565b90509392505050565b60008082905060008060008373ffffffffffffffffffffffffffffffffffffffff1663c37f68e2336040518263ffffffff1660e01b8152600401808273ffffffffffffffffffffffffffffffffffffffff1673ffffffffffffffffffffffffffffffffffffffff16815260200191505060806040518083038186803b1580156135dd57600080fd5b505afa1580156135f1573d6000803e3d6000fd5b505050506040513d608081101561360757600080fd5b81019080805190602001909291908051906020019092919080519060200190929190805190602001909291905050505092509250925060008314613696576040517f08c379a0000000000000000000000000000000000000000000000000000000008152600401808060200182810382526025815260200180614aaf6025913960400191505060405180910390fd5b600081146136b5576136aa600c6002613c04565b945050505050613ac8565b60006136c287338561434b565b9050600081146136e5576136d9600e60038361453c565b95505050505050613ac8565b6000600960008773ffffffffffffffffffffffffffffffffffffffff1673ffffffffffffffffffffffffffffffffffffffff16815260200190815260200160002090508060020160003373ffffffffffffffffffffffffffffffffffffffff1673ffffffffffffffffffffffffffffffffffffffff16815260200190815260200160002060009054906101000a900460ff16613795576000601181111561378857fe5b9650505050505050613ac8565b8060020160003373ffffffffffffffffffffffffffffffffffffffff1673ffffffffffffffffffffffffffffffffffffffff16815260200190815260200160002060006101000a81549060ff02191690556060600860003373ffffffffffffffffffffffffffffffffffffffff1673ffffffffffffffffffffffffffffffffffffffff1681526020019081526020016000208054806020026020016040519081016040528092919081815260200182805480156138a757602002820191906000526020600020905b8160009054906101000a900473ffffffffffffffffffffffffffffffffffffffff1673ffffffffffffffffffffffffffffffffffffffff168152602001906001019080831161385d575b50505050509050600081519050600081905060008090505b82811015613923578973ffffffffffffffffffffffffffffffffffffffff168482815181106138ea57fe5b602002602001015173ffffffffffffffffffffffffffffffffffffffff16141561391657809150613923565b80806001019150506138bf565b5081811061392d57fe5b6000600860003373ffffffffffffffffffffffffffffffffffffffff1673ffffffffffffffffffffffffffffffffffffffff16815260200190815260200160002090508060018280549050038154811061398357fe5b9060005260206000200160009054906101000a900473ffffffffffffffffffffffffffffffffffffffff168183815481106139ba57fe5b9060005260206000200160006101000a81548173ffffffffffffffffffffffffffffffffffffffff021916908373ffffffffffffffffffffffffffffffffffffffff16021790555080805480919060019003613a1691906149df565b507fe699a64c18b07ac5b7301aa273f36a2287239eb9501d81950672794afba29a0d8a33604051808373ffffffffffffffffffffffffffffffffffffffff1673ffffffffffffffffffffffffffffffffffffffff1681526020018273ffffffffffffffffffffffffffffffffffffffff1673ffffffffffffffffffffffffffffffffffffffff1681526020019250505060405180910390a160006011811115613abb57fe5b9a50505050505050505050505b919050565b6000809054906101000a900473ffffffffffffffffffffffffffffffffffffffff1681565b600080600260009054906101000a900473ffffffffffffffffffffffffffffffffffffffff1673ffffffffffffffffffffffffffffffffffffffff163373ffffffffffffffffffffffffffffffffffffffff16148015613b9e57506000809054906101000a900473ffffffffffffffffffffffffffffffffffffffff1673ffffffffffffffffffffffffffffffffffffffff163273ffffffffffffffffffffffffffffffffffffffff16145b905060008060009054906101000a900473ffffffffffffffffffffffffffffffffffffffff1673ffffffffffffffffffffffffffffffffffffffff163373ffffffffffffffffffffffffffffffffffffffff161490508080613bfd5750815b9250505090565b60007f45b96fe442630264581b197e84bbada861235052c5a1aadfff9ea4e40a969aa0836011811115613c3357fe5b836013811115613c3f57fe5b600060405180848152602001838152602001828152602001935050505060405180910390a1826011811115613c7057fe5b905092915050565b6000816000015183600001511115905092915050565b60008160000151836000015110905092915050565b6000806000613cb0614a0b565b6000806060600860008c73ffffffffffffffffffffffffffffffffffffffff1673ffffffffffffffffffffffffffffffffffffffff168152602001908152602001600020805480602002602001604051908101604052809291908181526020018280548015613d7457602002820191906000526020600020905b8160009054906101000a900473ffffffffffffffffffffffffffffffffffffffff1673ffffffffffffffffffffffffffffffffffffffff1681526020019060010190808311613d2a575b5050505050905060008090505b8151811015614270576000828281518110613d9857fe5b602002602001015190508073ffffffffffffffffffffffffffffffffffffffff1663c37f68e28e6040518263ffffffff1660e01b8152600401808273ffffffffffffffffffffffffffffffffffffffff1673ffffffffffffffffffffffffffffffffffffffff16815260200191505060806040518083038186803b158015613e1f57600080fd5b505afa158015613e33573d6000803e3d6000fd5b505050506040513d6080811015613e4957600080fd5b8101908080519060200190929190805190602001909291908051906020019092919080519060200190929190505050896040018a6060018b6080018381525083815250838152508398505050505060008514613ebb57600f6000808191508090509850985098505050505050506142be565b6040518060200160405280600960008473ffffffffffffffffffffffffffffffffffffffff1673ffffffffffffffffffffffffffffffffffffffff168152602001908152602001600020600101548152508660c00181905250604051806020016040528087608001518152508660e00181905250600460009054906101000a900473ffffffffffffffffffffffffffffffffffffffff1673ffffffffffffffffffffffffffffffffffffffff1663fc57d4df826040518263ffffffff1660e01b8152600401808273ffffffffffffffffffffffffffffffffffffffff1673ffffffffffffffffffffffffffffffffffffffff16815260200191505060206040518083038186803b158015613fce57600080fd5b505afa158015613fe2573d6000803e3d6000fd5b505050506040513d6020811015613ff857600080fd5b81019080805190602001909291905050508660a001818152505060008660a00151141561403b57600d6000808191508090509850985098505050505050506142be565b60405180602001604052808760a0015181525086610100018190525061406f8660c001518760e001518861010001516145b0565b809050876101200181905281955050506000600381111561408c57fe5b84600381111561409857fe5b146140b957600b6000808191508090509850985098505050505050506142be565b6140d186610120015187604001518860000151614616565b87600001818152508195505050600060038111156140eb57fe5b8460038111156140f757fe5b1461411857600b6000808191508090509850985098505050505050506142be565b61413086610100015187606001518860200151614616565b876020018181525081955050506000600381111561414a57fe5b84600381111561415657fe5b1461417757600b6000808191508090509850985098505050505050506142be565b8b73ffffffffffffffffffffffffffffffffffffffff168173ffffffffffffffffffffffffffffffffffffffff161415614262576141bf8661012001518c8860200151614616565b87602001818152508195505050600060038111156141d957fe5b8460038111156141e557fe5b1461420657600b6000808191508090509850985098505050505050506142be565b61421a8661010001518b8860200151614616565b876020018181525081955050506000600381111561423457fe5b84600381111561424057fe5b1461426157600b6000808191508090509850985098505050505050506142be565b5b508080600101915050613d81565b508360200151846000015111156142a257600084602001518560000151036000809050965096509650505050506142be565b6000808560000151866020015103819150965096509650505050505b9450945094915050565b60008060006142db846000806000613ca3565b9250925092509193909250565b60008060006142f56149cc565b6142ff8686614681565b915091506000600381111561431057fe5b82600381111561431c57fe5b1461433257816000809050935093505050614344565b600061433d826146ff565b9350935050505b9250929050565b6000600960008573ffffffffffffffffffffffffffffffffffffffff1673ffffffffffffffffffffffffffffffffffffffff16815260200190815260200160002060000160009054906101000a900460ff166143b557600960118111156143ae57fe5b90506144d3565b600960008573ffffffffffffffffffffffffffffffffffffffff1673ffffffffffffffffffffffffffffffffffffffff16815260200190815260200160002060020160008473ffffffffffffffffffffffffffffffffffffffff1673ffffffffffffffffffffffffffffffffffffffff16815260200190815260200160002060009054906101000a900460ff1661445a576000601181111561445357fe5b90506144d3565b60008061446a8587866000613ca3565b92505091506000601181111561447c57fe5b82601181111561448857fe5b146144a25781601181111561449957fe5b925050506144d3565b60008111156144c157600460118111156144b857fe5b925050506144d3565b600060118111156144ce57fe5b925050505b9392505050565b60006144e46149cc565b61450a60405180602001604052808681525060405180602001604052808681525061471e565b915091509250929050565b600061451f6149cc565b6145318460000151846000015161483f565b915091509250929050565b60007f45b96fe442630264581b197e84bbada861235052c5a1aadfff9ea4e40a969aa084601181111561456b57fe5b84601381111561457757fe5b8460405180848152602001838152602001828152602001935050505060405180910390a18360118111156145a757fe5b90509392505050565b60006145ba6149cc565b60006145c46149cc565b6145ce878761471e565b91509150600060038111156145df57fe5b8260038111156145eb57fe5b146145fd57818193509350505061460e565b614607818661471e565b9350935050505b935093915050565b60008060006146236149cc565b61462d8787614681565b915091506000600381111561463e57fe5b82600381111561464a57fe5b1461466057816000809050935093505050614679565b61467261466c826146ff565b86614913565b9350935050505b935093915050565b600061468b6149cc565b60008061469c866000015186614945565b91509150600060038111156146ad57fe5b8260038111156146b957fe5b146146dd5781604051806020016040528060008152508090509350935050506146f8565b60006040518060200160405280838152508090509350935050505b9250929050565b6000670de0b6b3a764000082600001518161471657fe5b049050919050565b60006147286149cc565b60008061473d86600001518660000151614945565b915091506000600381111561474e57fe5b82600381111561475a57fe5b1461477e578160405180602001604052806000815250809050935093505050614838565b60008061479d6002670de0b6b3a76400008161479657fe5b0484614913565b91509150600060038111156147ae57fe5b8260038111156147ba57fe5b146147e05781604051806020016040528060008152508090509550955050505050614838565b6000806147f583670de0b6b3a7640000614998565b915091506000600381111561480657fe5b82600381111561481257fe5b1461481957fe5b6000604051806020016040528083815250809050975097505050505050505b9250929050565b60006148496149cc565b60008061485e86670de0b6b3a7640000614945565b915091506000600381111561486f57fe5b82600381111561487b57fe5b1461489f57816040518060200160405280600081525080905093509350505061490c565b6000806148ac8388614998565b91509150600060038111156148bd57fe5b8260038111156148c957fe5b146148ef578160405180602001604052806000815250809050955095505050505061490c565b600060405180602001604052808381525080905095509550505050505b9250929050565b6000806000838501905084811061493157600081925092505061493e565b6002600080905092509250505b9250929050565b60008060008414156149605760008080905091509150614991565b600083850290508385828161497157fe5b041461498857600260008090509250925050614991565b60008192509250505b9250929050565b60008060008314156149b45760016000809050915091506149c5565b60008385816149bf57fe5b04915091505b9250929050565b6040518060200160405280600081525090565b815481835581811115614a0657818360005260206000209182019101614a059190614a76565b5b505050565b604051806101400160405280600081526020016000815260200160008152602001600081526020016000815260200160008152602001614a49614a9b565b8152602001614a56614a9b565b8152602001614a63614a9b565b8152602001614a70614a9b565b81525090565b614a9891905b80821115614a94576000816000905550600101614a7c565b5090565b90565b604051806020016040528060008152509056fe657869744d61726b65743a206765744163636f756e74536e617073686f74206661696c65646f6e6c7920756e6974726f6c6c65722061646d696e2063616e206368616e676520627261696e73a265627a7a723158204c4791735c690f77a98aa9b37a7c574837c7b002cf7e7f368a23b1447283f72c64736f6c63430005100032",
  "source": "pragma solidity ^0.5.4;\n\nimport \"./CToken.sol\";\nimport \"./ErrorReporter.sol\";\nimport \"./Exponential.sol\";\nimport \"./PriceOracle.sol\";\nimport \"./ComptrollerInterface.sol\";\nimport \"./ComptrollerStorage.sol\";\nimport \"./Unitroller.sol\";\n\n/**\n * @title Compound's Comptroller Contract\n * @author Compound\n */\ncontract Comptroller is ComptrollerV1Storage, ComptrollerInterface, ComptrollerErrorReporter, Exponential {\n    struct Market {\n        /**\n         * @notice Whether or not this market is listed\n         */\n        bool isListed;\n\n        /**\n         * @notice Multiplier representing the most one can borrow against their collateral in this market.\n         *  For instance, 0.9 to allow borrowing 90% of collateral value.\n         *  Must be between 0 and 1, and stored as a mantissa.\n         */\n        uint collateralFactorMantissa;\n\n        /**\n         * @notice Per-market mapping of \"accounts in this asset\"\n         */\n        mapping(address => bool) accountMembership;\n    }\n\n    /**\n     * @notice Official mapping of cTokens -> Market metadata\n     * @dev Used e.g. to determine if a market is supported\n     */\n    mapping(address => Market) public markets;\n\n    /**\n     * @notice Emitted when an admin supports a market\n     */\n    event MarketListed(CToken cToken);\n\n    /**\n     * @notice Emitted when an account enters a market\n     */\n    event MarketEntered(CToken cToken, address account);\n\n    /**\n     * @notice Emitted when an account exits a market\n     */\n    event MarketExited(CToken cToken, address account);\n\n    /**\n     * @notice Emitted when close factor is changed by admin\n     */\n    event NewCloseFactor(uint oldCloseFactorMantissa, uint newCloseFactorMantissa);\n\n    /**\n     * @notice Emitted when a collateral factor is changed by admin\n     */\n    event NewCollateralFactor(CToken cToken, uint oldCollateralFactorMantissa, uint newCollateralFactorMantissa);\n\n    /**\n     * @notice Emitted when liquidation incentive is changed by admin\n     */\n    event NewLiquidationIncentive(uint oldLiquidationIncentiveMantissa, uint newLiquidationIncentiveMantissa);\n\n    /**\n     * @notice Emitted when maxAssets is changed by admin\n     */\n    event NewMaxAssets(uint oldMaxAssets, uint newMaxAssets);\n\n    /**\n     * @notice Emitted when price oracle is changed\n     */\n    event NewPriceOracle(PriceOracle oldPriceOracle, PriceOracle newPriceOracle);\n\n    /**\n     * @notice Indicator that this is a Comptroller contract (for inspection)\n     */\n    bool public constant isComptroller = true;\n\n    // closeFactorMantissa must be strictly greater than this value\n    uint constant closeFactorMinMantissa = 5e16; // 0.05\n\n    // closeFactorMantissa must not exceed this value\n    uint constant closeFactorMaxMantissa = 9e17; // 0.9\n\n    // No collateralFactorMantissa may exceed this value\n    uint constant collateralFactorMaxMantissa = 9e17; // 0.9\n\n    // liquidationIncentiveMantissa must be no less than this value\n    uint constant liquidationIncentiveMinMantissa = mantissaOne;\n\n    // liquidationIncentiveMantissa must be no greater than this value\n    uint constant liquidationIncentiveMaxMantissa = 15e17; // 1.5\n\n    constructor() public {\n        admin = msg.sender;\n    }\n\n    /*** Assets You Are In ***/\n\n    /**\n     * @notice Returns the assets an account has entered\n     * @param account The address of the account to pull assets for\n     * @return A dynamic list with the assets the account has entered\n     */\n    function getAssetsIn(address account) external view returns (CToken[] memory) {\n        CToken[] memory assetsIn = accountAssets[account];\n\n        return assetsIn;\n    }\n\n    /**\n     * @notice Returns whether the given account is entered in the given asset\n     * @param account The address of the account to check\n     * @param cToken The cToken to check\n     * @return True if the account is in the asset, otherwise false.\n     */\n    function checkMembership(address account, CToken cToken) external view returns (bool) {\n        return markets[address(cToken)].accountMembership[account];\n    }\n\n    /**\n     * @notice Add assets to be included in account liquidity calculation\n     * @param cTokens The list of addresses of the cToken markets to be enabled\n     * @return Success indicator for whether each corresponding market was entered\n     */\n    function enterMarkets(address[] memory cTokens) public returns (uint[] memory) {\n        uint len = cTokens.length;\n\n        uint[] memory results = new uint[](len);\n        for (uint i = 0; i < len; i++) {\n            CToken cToken = CToken(cTokens[i]);\n            Market storage marketToJoin = markets[address(cToken)];\n\n            if (!marketToJoin.isListed) {\n                // if market is not listed, cannot join move along\n                results[i] = uint(Error.MARKET_NOT_LISTED);\n                continue;\n            }\n\n            if (marketToJoin.accountMembership[msg.sender] == true) {\n                // if already joined, move along\n                results[i] = uint(Error.NO_ERROR);\n                continue;\n            }\n\n            if (accountAssets[msg.sender].length >= maxAssets)  {\n                // if no space, cannot join, move along\n                results[i] = uint(Error.TOO_MANY_ASSETS);\n                continue;\n            }\n\n            // survived the gauntlet, add to list\n            // NOTE: we store these somewhat redundantly as a significant optimization\n            //  this avoids having to iterate through the list for the most common use cases\n            //  that is, only when we need to perform liquidity checks\n            //   and not whenever we want to check if an account is in a particular market\n            marketToJoin.accountMembership[msg.sender] = true;\n            accountAssets[msg.sender].push(cToken);\n\n            emit MarketEntered(cToken, msg.sender);\n\n            results[i] = uint(Error.NO_ERROR);\n        }\n\n        return results;\n    }\n\n    /**\n     * @notice Removes asset from sender's account liquidity calculation\n     * @dev Sender must not have an outstanding borrow balance in the asset,\n     *  or be providing neccessary collateral for an outstanding borrow.\n     * @param cTokenAddress The address of the asset to be removed\n     * @return Whether or not the account successfully exited the market\n     */\n    function exitMarket(address cTokenAddress) external returns (uint) {\n        CToken cToken = CToken(cTokenAddress);\n        /* Get sender tokensHeld and amountOwed underlying from the cToken */\n        (uint oErr, uint tokensHeld, uint amountOwed, ) = cToken.getAccountSnapshot(msg.sender);\n        require(oErr == 0, \"exitMarket: getAccountSnapshot failed\"); // semi-opaque error code\n\n        /* Fail if the sender has a borrow balance */\n        if (amountOwed != 0) {\n            return fail(Error.NONZERO_BORROW_BALANCE, FailureInfo.EXIT_MARKET_BALANCE_OWED);\n        }\n\n        /* Fail if the sender is not permitted to redeem all of their tokens */\n        uint allowed = redeemAllowedInternal(cTokenAddress, msg.sender, tokensHeld);\n        if (allowed != 0) {\n            return failOpaque(Error.REJECTION, FailureInfo.EXIT_MARKET_REJECTION, allowed);\n        }\n\n        Market storage marketToExit = markets[address(cToken)];\n\n        /* Return true if the sender is not already in the market */\n        if (!marketToExit.accountMembership[msg.sender]) {\n            return uint(Error.NO_ERROR);\n        }\n\n        /* Set cToken account membership to false */\n        delete marketToExit.accountMembership[msg.sender];\n\n        /* Delete cToken from the accounts list of assets */\n        // load into memory for faster iteration\n        CToken[] memory userAssetList = accountAssets[msg.sender];\n        uint len = userAssetList.length;\n        uint assetIndex = len;\n        for (uint i = 0; i < len; i++) {\n            if (userAssetList[i] == cToken) {\n                assetIndex = i;\n                break;\n            }\n        }\n\n        // We *must* have found the asset in the list or our redundant data structure is broken\n        assert(assetIndex < len);\n\n        // copy last item in list to location of item to be removed, reduce length by 1\n        CToken[] storage storedList = accountAssets[msg.sender];\n        storedList[assetIndex] = storedList[storedList.length - 1];\n        storedList.length--;\n\n        emit MarketExited(cToken, msg.sender);\n\n        return uint(Error.NO_ERROR);\n    }\n\n    /*** Policy Hooks ***/\n\n    /**\n     * @notice Checks if the account should be allowed to mint tokens in the given market\n     * @param cToken The market to verify the mint against\n     * @param minter The account which would get the minted tokens\n     * @param mintAmount The amount of underlying being supplied to the market in exchange for tokens\n     * @return 0 if the mint is allowed, otherwise a semi-opaque error code (See ErrorReporter.sol)\n     */\n    function mintAllowed(address cToken, address minter, uint mintAmount) external returns (uint) {\n        minter;       // currently unused\n        mintAmount;   // currently unused\n\n        if (!markets[cToken].isListed) {\n            return uint(Error.MARKET_NOT_LISTED);\n        }\n\n        // *may include Policy Hook-type checks\n\n        return uint(Error.NO_ERROR);\n    }\n\n    /**\n     * @notice Validates mint and reverts on rejection. May emit logs.\n     * @param cToken Asset being minted\n     * @param minter The address minting the tokens\n     * @param mintAmount The amount of the underlying asset being minted\n     * @param mintTokens The number of tokens being minted\n     */\n    function mintVerify(address cToken, address minter, uint mintAmount, uint mintTokens) external {\n        cToken;       // currently unused\n        minter;       // currently unused\n        mintAmount;   // currently unused\n        mintTokens;   // currently unused\n\n        if (false) {\n            maxAssets = maxAssets; // not pure\n        }\n    }\n\n    /**\n     * @notice Checks if the account should be allowed to redeem tokens in the given market\n     * @param cToken The market to verify the redeem against\n     * @param redeemer The account which would redeem the tokens\n     * @param redeemTokens The number of cTokens to exchange for the underlying asset in the market\n     * @return 0 if the redeem is allowed, otherwise a semi-opaque error code (See ErrorReporter.sol)\n     */\n    function redeemAllowed(address cToken, address redeemer, uint redeemTokens) external returns (uint) {\n        return redeemAllowedInternal(cToken, redeemer, redeemTokens);\n    }\n\n    function redeemAllowedInternal(address cToken, address redeemer, uint redeemTokens) internal view returns (uint) {\n        if (!markets[cToken].isListed) {\n            return uint(Error.MARKET_NOT_LISTED);\n        }\n\n        // *may include Policy Hook-type checks\n\n        /* If the redeemer is not 'in' the market, then we can bypass the liquidity check */\n        if (!markets[cToken].accountMembership[redeemer]) {\n            return uint(Error.NO_ERROR);\n        }\n\n        /* Otherwise, perform a hypothetical liquidity check to guard against shortfall */\n        (Error err, , uint shortfall) = getHypotheticalAccountLiquidityInternal(redeemer, CToken(cToken), redeemTokens, 0);\n        if (err != Error.NO_ERROR) {\n            return uint(err);\n        }\n        if (shortfall > 0) {\n            return uint(Error.INSUFFICIENT_LIQUIDITY);\n        }\n\n        return uint(Error.NO_ERROR);\n    }\n\n    /**\n     * @notice Validates redeem and reverts on rejection. May emit logs.\n     * @param cToken Asset being redeemed\n     * @param redeemer The address redeeming the tokens\n     * @param redeemAmount The amount of the underlying asset being redeemed\n     * @param redeemTokens The number of tokens being redeemed\n     */\n    function redeemVerify(address cToken, address redeemer, uint redeemAmount, uint redeemTokens) external {\n        cToken;         // currently unused\n        redeemer;       // currently unused\n        redeemAmount;   // currently unused\n        redeemTokens;   // currently unused\n\n        if (false) {\n            maxAssets = maxAssets; // not pure\n        }\n    }\n\n    /**\n     * @notice Checks if the account should be allowed to borrow the underlying asset of the given market\n     * @param cToken The market to verify the borrow against\n     * @param borrower The account which would borrow the asset\n     * @param borrowAmount The amount of underlying the account would borrow\n     * @return 0 if the borrow is allowed, otherwise a semi-opaque error code (See ErrorReporter.sol)\n     */\n    function borrowAllowed(address cToken, address borrower, uint borrowAmount) external returns (uint) {\n        if (!markets[cToken].isListed) {\n            return uint(Error.MARKET_NOT_LISTED);\n        }\n\n        // *may include Policy Hook-type checks\n\n        if (!markets[cToken].accountMembership[borrower]) {\n            return uint(Error.MARKET_NOT_ENTERED);\n        }\n\n        if (oracle.getUnderlyingPrice(CToken(cToken)) == 0) {\n            return uint(Error.PRICE_ERROR);\n        }\n\n        (Error err, , uint shortfall) = getHypotheticalAccountLiquidityInternal(borrower, CToken(cToken), 0, borrowAmount);\n        if (err != Error.NO_ERROR) {\n            return uint(err);\n        }\n        if (shortfall > 0) {\n            return uint(Error.INSUFFICIENT_LIQUIDITY);\n        }\n\n        return uint(Error.NO_ERROR);\n    }\n\n    /**\n     * @notice Validates borrow and reverts on rejection. May emit logs.\n     * @param cToken Asset whose underlying is being borrowed\n     * @param borrower The address borrowing the underlying\n     * @param borrowAmount The amount of the underlying asset requested to borrow\n     */\n    function borrowVerify(address cToken, address borrower, uint borrowAmount) external {\n        cToken;         // currently unused\n        borrower;       // currently unused\n        borrowAmount;   // currently unused\n\n        if (false) {\n            maxAssets = maxAssets; // not pure\n        }\n    }\n\n    /**\n     * @notice Checks if the account should be allowed to repay a borrow in the given market\n     * @param cToken The market to verify the repay against\n     * @param payer The account which would repay the asset\n     * @param borrower The account which would borrowed the asset\n     * @param repayAmount The amount of the underlying asset the account would repay\n     * @return 0 if the repay is allowed, otherwise a semi-opaque error code (See ErrorReporter.sol)\n     */\n    function repayBorrowAllowed(\n        address cToken,\n        address payer,\n        address borrower,\n        uint repayAmount) external returns (uint) {\n        payer;         // currently unused\n        borrower;      // currently unused\n        repayAmount;   // currently unused\n\n        if (!markets[cToken].isListed) {\n            return uint(Error.MARKET_NOT_LISTED);\n        }\n\n        // *may include Policy Hook-type checks\n\n        return uint(Error.NO_ERROR);\n    }\n\n    /**\n     * @notice Validates repayBorrow and reverts on rejection. May emit logs.\n     * @param cToken Asset being repaid\n     * @param payer The address repaying the borrow\n     * @param borrower The address of the borrower\n     * @param repayAmount The amount of underlying being repaid\n     */\n    function repayBorrowVerify(\n        address cToken,\n        address payer,\n        address borrower,\n        uint repayAmount,\n        uint borrowerIndex) external {\n        cToken;        // currently unused\n        payer;         // currently unused\n        borrower;      // currently unused\n        repayAmount;   // currently unused\n        borrowerIndex; // currently unused\n\n        if (false) {\n            maxAssets = maxAssets; // not pure\n        }\n    }\n\n    /**\n     * @notice Checks if the liquidation should be allowed to occur\n     * @param cTokenBorrowed Asset which was borrowed by the borrower\n     * @param cTokenCollateral Asset which was used as collateral and will be seized\n     * @param liquidator The address repaying the borrow and seizing the collateral\n     * @param borrower The address of the borrower\n     * @param repayAmount The amount of underlying being repaid\n     */\n    function liquidateBorrowAllowed(\n        address cTokenBorrowed,\n        address cTokenCollateral,\n        address liquidator,\n        address borrower,\n        uint repayAmount) external returns (uint) {\n        liquidator;   // currently unused\n        borrower;     // currently unused\n        repayAmount;  // currently unused\n\n        if (!markets[cTokenBorrowed].isListed || !markets[cTokenCollateral].isListed) {\n            return uint(Error.MARKET_NOT_LISTED);\n        }\n\n        // *may include Policy Hook-type checks\n\n        /* The borrower must have shortfall in order to be liquidatable */\n        (Error err, , uint shortfall) = getAccountLiquidityInternal(borrower);\n        if (err != Error.NO_ERROR) {\n            return uint(err);\n        }\n        if (shortfall == 0) {\n            return uint(Error.INSUFFICIENT_SHORTFALL);\n        }\n\n        /* The liquidator may not repay more than what is allowed by the closeFactor */\n        uint borrowBalance = CToken(cTokenBorrowed).borrowBalanceStored(borrower);\n        (MathError mathErr, uint maxClose) = mulScalarTruncate(Exp({mantissa: closeFactorMantissa}), borrowBalance);\n        if (mathErr != MathError.NO_ERROR) {\n            return uint(Error.MATH_ERROR);\n        }\n        if (repayAmount > maxClose) {\n            return uint(Error.TOO_MUCH_REPAY);\n        }\n\n        return uint(Error.NO_ERROR);\n    }\n\n    /**\n     * @notice Validates liquidateBorrow and reverts on rejection. May emit logs.\n     * @param cTokenBorrowed Asset which was borrowed by the borrower\n     * @param cTokenCollateral Asset which was used as collateral and will be seized\n     * @param liquidator The address repaying the borrow and seizing the collateral\n     * @param borrower The address of the borrower\n     * @param repayAmount The amount of underlying being repaid\n     */\n    function liquidateBorrowVerify(\n        address cTokenBorrowed,\n        address cTokenCollateral,\n        address liquidator,\n        address borrower,\n        uint repayAmount,\n        uint seizeTokens) external {\n        cTokenBorrowed;   // currently unused\n        cTokenCollateral; // currently unused\n        liquidator;       // currently unused\n        borrower;         // currently unused\n        repayAmount;      // currently unused\n        seizeTokens;      // currently unused\n\n        if (false) {\n            maxAssets = maxAssets; // not pure\n        }\n    }\n\n    /**\n     * @notice Checks if the seizing of assets should be allowed to occur\n     * @param cTokenCollateral Asset which was used as collateral and will be seized\n     * @param cTokenBorrowed Asset which was borrowed by the borrower\n     * @param liquidator The address repaying the borrow and seizing the collateral\n     * @param borrower The address of the borrower\n     * @param seizeTokens The number of collateral tokens to seize\n     */\n    function seizeAllowed(\n        address cTokenCollateral,\n        address cTokenBorrowed,\n        address liquidator,\n        address borrower,\n        uint seizeTokens) external returns (uint) {\n        liquidator;       // currently unused\n        borrower;         // currently unused\n        seizeTokens;      // currently unused\n\n        if (!markets[cTokenCollateral].isListed || !markets[cTokenBorrowed].isListed) {\n            return uint(Error.MARKET_NOT_LISTED);\n        }\n\n        if (CToken(cTokenCollateral).comptroller() != CToken(cTokenBorrowed).comptroller()) {\n            return uint(Error.COMPTROLLER_MISMATCH);\n        }\n\n        // *may include Policy Hook-type checks\n\n        return uint(Error.NO_ERROR);\n    }\n\n    /**\n     * @notice Validates seize and reverts on rejection. May emit logs.\n     * @param cTokenCollateral Asset which was used as collateral and will be seized\n     * @param cTokenBorrowed Asset which was borrowed by the borrower\n     * @param liquidator The address repaying the borrow and seizing the collateral\n     * @param borrower The address of the borrower\n     * @param seizeTokens The number of collateral tokens to seize\n     */\n    function seizeVerify(\n        address cTokenCollateral,\n        address cTokenBorrowed,\n        address liquidator,\n        address borrower,\n        uint seizeTokens) external {\n        cTokenCollateral; // currently unused\n        cTokenBorrowed;   // currently unused\n        liquidator;       // currently unused\n        borrower;         // currently unused\n        seizeTokens;      // currently unused\n\n        if (false) {\n            maxAssets = maxAssets; // not pure\n        }\n    }\n\n    /**\n     * @notice Checks if the account should be allowed to transfer tokens in the given market\n     * @param cToken The market to verify the transfer against\n     * @param src The account which sources the tokens\n     * @param dst The account which receives the tokens\n     * @param transferTokens The number of cTokens to transfer\n     * @return 0 if the transfer is allowed, otherwise a semi-opaque error code (See ErrorReporter.sol)\n     */\n    function transferAllowed(address cToken, address src, address dst, uint transferTokens) external returns (uint) {\n        cToken;         // currently unused\n        src;            // currently unused\n        dst;            // currently unused\n        transferTokens; // currently unused\n\n        // *may include Policy Hook-type checks\n\n        // Currently the only consideration is whether or not\n        //  the src is allowed to redeem this many tokens\n        return redeemAllowedInternal(cToken, src, transferTokens);\n    }\n\n    /**\n     * @notice Validates transfer and reverts on rejection. May emit logs.\n     * @param cToken Asset being transferred\n     * @param src The account which sources the tokens\n     * @param dst The account which receives the tokens\n     * @param transferTokens The number of cTokens to transfer\n     */\n    function transferVerify(address cToken, address src, address dst, uint transferTokens) external {\n        cToken;         // currently unused\n        src;            // currently unused\n        dst;            // currently unused\n        transferTokens; // currently unused\n\n        if (false) {\n            maxAssets = maxAssets; // not pure\n        }\n    }\n\n    /*** Liquidity/Liquidation Calculations ***/\n\n    /**\n     * @dev Local vars for avoiding stack-depth limits in calculating account liquidity.\n     *  Note that `cTokenBalance` is the number of cTokens the account owns in the market,\n     *  whereas `borrowBalance` is the amount of underlying that the account has borrowed.\n     */\n    struct AccountLiquidityLocalVars {\n        uint sumCollateral;\n        uint sumBorrowPlusEffects;\n        uint cTokenBalance;\n        uint borrowBalance;\n        uint exchangeRateMantissa;\n        uint oraclePriceMantissa;\n        Exp collateralFactor;\n        Exp exchangeRate;\n        Exp oraclePrice;\n        Exp tokensToEther;\n    }\n\n    /**\n     * @notice Determine the current account liquidity wrt collateral requirements\n     * @return (possible error code (semi-opaque),\n                account liquidity in excess of collateral requirements,\n     *          account shortfall below collateral requirements)\n     */\n    function getAccountLiquidity(address account) public view returns (uint, uint, uint) {\n        (Error err, uint liquidity, uint shortfall) = getHypotheticalAccountLiquidityInternal(account, CToken(0), 0, 0);\n\n        return (uint(err), liquidity, shortfall);\n    }\n\n    /**\n     * @notice Determine the current account liquidity wrt collateral requirements\n     * @return (possible error code,\n                account liquidity in excess of collateral requirements,\n     *          account shortfall below collateral requirements)\n     */\n    function getAccountLiquidityInternal(address account) internal view returns (Error, uint, uint) {\n        return getHypotheticalAccountLiquidityInternal(account, CToken(0), 0, 0);\n    }\n\n    /**\n     * @notice Determine what the account liquidity would be if the given amounts were redeemed/borrowed\n     * @param cTokenModify The market to hypothetically redeem/borrow in\n     * @param account The account to determine liquidity for\n     * @param redeemTokens The number of tokens to hypothetically redeem\n     * @param borrowAmount The amount of underlying to hypothetically borrow\n     * @dev Note that we calculate the exchangeRateStored for each collateral cToken using stored data,\n     *  without calculating accumulated interest.\n     * @return (possible error code,\n                hypothetical account liquidity in excess of collateral requirements,\n     *          hypothetical account shortfall below collateral requirements)\n     */\n    function getHypotheticalAccountLiquidityInternal(\n        address account,\n        CToken cTokenModify,\n        uint redeemTokens,\n        uint borrowAmount) internal view returns (Error, uint, uint) {\n\n        AccountLiquidityLocalVars memory vars; // Holds all our calculation results\n        uint oErr;\n        MathError mErr;\n\n        // For each asset the account is in\n        CToken[] memory assets = accountAssets[account];\n        for (uint i = 0; i < assets.length; i++) {\n            CToken asset = assets[i];\n\n            // Read the balances and exchange rate from the cToken\n            (oErr, vars.cTokenBalance, vars.borrowBalance, vars.exchangeRateMantissa) = asset.getAccountSnapshot(account);\n            if (oErr != 0) { // semi-opaque error code, we assume NO_ERROR == 0 is invariant between upgrades\n                return (Error.SNAPSHOT_ERROR, 0, 0);\n            }\n            vars.collateralFactor = Exp({mantissa: markets[address(asset)].collateralFactorMantissa});\n            vars.exchangeRate = Exp({mantissa: vars.exchangeRateMantissa});\n\n            // Get the normalized price of the asset\n            vars.oraclePriceMantissa = oracle.getUnderlyingPrice(asset);\n            if (vars.oraclePriceMantissa == 0) {\n                return (Error.PRICE_ERROR, 0, 0);\n            }\n            vars.oraclePrice = Exp({mantissa: vars.oraclePriceMantissa});\n\n            // Pre-compute a conversion factor from tokens -> ether (normalized price value)\n            (mErr, vars.tokensToEther) = mulExp3(vars.collateralFactor, vars.exchangeRate, vars.oraclePrice);\n            if (mErr != MathError.NO_ERROR) {\n                return (Error.MATH_ERROR, 0, 0);\n            }\n\n            // sumCollateral += tokensToEther * cTokenBalance\n            (mErr, vars.sumCollateral) = mulScalarTruncateAddUInt(vars.tokensToEther, vars.cTokenBalance, vars.sumCollateral);\n            if (mErr != MathError.NO_ERROR) {\n                return (Error.MATH_ERROR, 0, 0);\n            }\n\n            // sumBorrowPlusEffects += oraclePrice * borrowBalance\n            (mErr, vars.sumBorrowPlusEffects) = mulScalarTruncateAddUInt(vars.oraclePrice, vars.borrowBalance, vars.sumBorrowPlusEffects);\n            if (mErr != MathError.NO_ERROR) {\n                return (Error.MATH_ERROR, 0, 0);\n            }\n\n            // Calculate effects of interacting with cTokenModify\n            if (asset == cTokenModify) {\n                // redeem effect\n                // sumBorrowPlusEffects += tokensToEther * redeemTokens\n                (mErr, vars.sumBorrowPlusEffects) = mulScalarTruncateAddUInt(vars.tokensToEther, redeemTokens, vars.sumBorrowPlusEffects);\n                if (mErr != MathError.NO_ERROR) {\n                    return (Error.MATH_ERROR, 0, 0);\n                }\n\n                // borrow effect\n                // sumBorrowPlusEffects += oraclePrice * borrowAmount\n                (mErr, vars.sumBorrowPlusEffects) = mulScalarTruncateAddUInt(vars.oraclePrice, borrowAmount, vars.sumBorrowPlusEffects);\n                if (mErr != MathError.NO_ERROR) {\n                    return (Error.MATH_ERROR, 0, 0);\n                }\n            }\n        }\n\n        // These are safe, as the underflow condition is checked first\n        if (vars.sumCollateral > vars.sumBorrowPlusEffects) {\n            return (Error.NO_ERROR, vars.sumCollateral - vars.sumBorrowPlusEffects, 0);\n        } else {\n            return (Error.NO_ERROR, 0, vars.sumBorrowPlusEffects - vars.sumCollateral);\n        }\n    }\n\n    /**\n     * @notice Calculate number of tokens of collateral asset to seize given an underlying amount\n     * @dev Used in liquidation (called in cToken.liquidateBorrowFresh)\n     * @param cTokenBorrowed The address of the borrowed cToken\n     * @param cTokenCollateral The address of the collateral cToken\n     * @param repayAmount The amount of cTokenBorrowed underlying to convert into cTokenCollateral tokens\n     * @return (errorCode, number of cTokenCollateral tokens to be seized in a liquidation)\n     */\n    function liquidateCalculateSeizeTokens(address cTokenBorrowed, address cTokenCollateral, uint repayAmount) external view returns (uint, uint) {\n        /* Read oracle prices for borrowed and collateral markets */\n        uint priceBorrowedMantissa = oracle.getUnderlyingPrice(CToken(cTokenBorrowed));\n        uint priceCollateralMantissa = oracle.getUnderlyingPrice(CToken(cTokenCollateral));\n        if (priceBorrowedMantissa == 0 || priceCollateralMantissa == 0) {\n            return (uint(Error.PRICE_ERROR), 0);\n        }\n\n        /*\n         * Get the exchange rate and calculate the number of collateral tokens to seize:\n         *  seizeAmount = repayAmount * liquidationIncentive * priceBorrowed / priceCollateral\n         *  seizeTokens = seizeAmount / exchangeRate\n         *   = repayAmount * (liquidationIncentive * priceBorrowed) / (priceCollateral * exchangeRate)\n         */\n        uint exchangeRateMantissa = CToken(cTokenCollateral).exchangeRateStored(); // Note: reverts on error\n        uint seizeTokens;\n        Exp memory numerator;\n        Exp memory denominator;\n        Exp memory ratio;\n        MathError mathErr;\n\n        (mathErr, numerator) = mulExp(liquidationIncentiveMantissa, priceBorrowedMantissa);\n        if (mathErr != MathError.NO_ERROR) {\n            return (uint(Error.MATH_ERROR), 0);\n        }\n\n        (mathErr, denominator) = mulExp(priceCollateralMantissa, exchangeRateMantissa);\n        if (mathErr != MathError.NO_ERROR) {\n            return (uint(Error.MATH_ERROR), 0);\n        }\n\n        (mathErr, ratio) = divExp(numerator, denominator);\n        if (mathErr != MathError.NO_ERROR) {\n            return (uint(Error.MATH_ERROR), 0);\n        }\n\n        (mathErr, seizeTokens) = mulScalarTruncate(ratio, repayAmount);\n        if (mathErr != MathError.NO_ERROR) {\n            return (uint(Error.MATH_ERROR), 0);\n        }\n\n        return (uint(Error.NO_ERROR), seizeTokens);\n    }\n\n    /*** Admin Functions ***/\n\n    /**\n      * @notice Sets a new price oracle for the comptroller\n      * @dev Admin function to set a new price oracle\n      * @return uint 0=success, otherwise a failure (see ErrorReporter.sol for details)\n      */\n    function _setPriceOracle(PriceOracle newOracle) public returns (uint) {\n        // Check caller is admin OR currently initialzing as new unitroller implementation\n        if (!adminOrInitializing()) {\n            return fail(Error.UNAUTHORIZED, FailureInfo.SET_PRICE_ORACLE_OWNER_CHECK);\n        }\n\n        // Track the old oracle for the comptroller\n        PriceOracle oldOracle = oracle;\n\n        // Ensure invoke newOracle.isPriceOracle() returns true\n        // require(newOracle.isPriceOracle(), \"oracle method isPriceOracle returned false\");\n\n        // Set comptroller's oracle to newOracle\n        oracle = newOracle;\n\n        // Emit NewPriceOracle(oldOracle, newOracle)\n        emit NewPriceOracle(oldOracle, newOracle);\n\n        return uint(Error.NO_ERROR);\n    }\n\n    /**\n      * @notice Sets the closeFactor used when liquidating borrows\n      * @dev Admin function to set closeFactor\n      * @param newCloseFactorMantissa New close factor, scaled by 1e18\n      * @return uint 0=success, otherwise a failure. (See ErrorReporter for details)\n      */\n    function _setCloseFactor(uint newCloseFactorMantissa) external returns (uint256) {\n        // Check caller is admin OR currently initialzing as new unitroller implementation\n        if (!adminOrInitializing()) {\n            return fail(Error.UNAUTHORIZED, FailureInfo.SET_CLOSE_FACTOR_OWNER_CHECK);\n        }\n\n        Exp memory newCloseFactorExp = Exp({mantissa: newCloseFactorMantissa});\n        Exp memory lowLimit = Exp({mantissa: closeFactorMinMantissa});\n        if (lessThanOrEqualExp(newCloseFactorExp, lowLimit)) {\n            return fail(Error.INVALID_CLOSE_FACTOR, FailureInfo.SET_CLOSE_FACTOR_VALIDATION);\n        }\n\n        Exp memory highLimit = Exp({mantissa: closeFactorMaxMantissa});\n        if (lessThanExp(highLimit, newCloseFactorExp)) {\n            return fail(Error.INVALID_CLOSE_FACTOR, FailureInfo.SET_CLOSE_FACTOR_VALIDATION);\n        }\n\n        uint oldCloseFactorMantissa = closeFactorMantissa;\n        closeFactorMantissa = newCloseFactorMantissa;\n        emit NewCloseFactor(oldCloseFactorMantissa, closeFactorMantissa);\n\n        return uint(Error.NO_ERROR);\n    }\n\n    /**\n      * @notice Sets the collateralFactor for a market\n      * @dev Admin function to set per-market collateralFactor\n      * @param cToken The market to set the factor on\n      * @param newCollateralFactorMantissa The new collateral factor, scaled by 1e18\n      * @return uint 0=success, otherwise a failure. (See ErrorReporter for details)\n      */\n    function _setCollateralFactor(CToken cToken, uint newCollateralFactorMantissa) external returns (uint256) {\n        // Check caller is admin\n        if (msg.sender != admin) {\n            return fail(Error.UNAUTHORIZED, FailureInfo.SET_COLLATERAL_FACTOR_OWNER_CHECK);\n        }\n\n        // Verify market is listed\n        Market storage market = markets[address(cToken)];\n        if (!market.isListed) {\n            return fail(Error.MARKET_NOT_LISTED, FailureInfo.SET_COLLATERAL_FACTOR_NO_EXISTS);\n        }\n\n        Exp memory newCollateralFactorExp = Exp({mantissa: newCollateralFactorMantissa});\n\n        // Check collateral factor <= 0.9\n        Exp memory highLimit = Exp({mantissa: collateralFactorMaxMantissa});\n        if (lessThanExp(highLimit, newCollateralFactorExp)) {\n            return fail(Error.INVALID_COLLATERAL_FACTOR, FailureInfo.SET_COLLATERAL_FACTOR_VALIDATION);\n        }\n\n        // If collateral factor != 0, fail if price == 0\n        /* NOTE: For some reason we need to comment this to deploy on Ganache */\n        // if (newCollateralFactorMantissa != 0 && oracle.getUnderlyingPrice(cToken) == 0) {\n        //     return fail(Error.PRICE_ERROR, FailureInfo.SET_COLLATERAL_FACTOR_WITHOUT_PRICE);\n        // }\n\n        // Set market's collateral factor to new collateral factor, remember old value\n        uint oldCollateralFactorMantissa = market.collateralFactorMantissa;\n        market.collateralFactorMantissa = newCollateralFactorMantissa;\n\n        // Emit event with asset, old collateral factor, and new collateral factor\n        emit NewCollateralFactor(cToken, oldCollateralFactorMantissa, newCollateralFactorMantissa);\n\n        return uint(Error.NO_ERROR);\n    }\n\n    /**\n      * @notice Sets maxAssets which controls how many markets can be entered\n      * @dev Admin function to set maxAssets\n      * @param newMaxAssets New max assets\n      * @return uint 0=success, otherwise a failure. (See ErrorReporter for details)\n      */\n    function _setMaxAssets(uint newMaxAssets) external returns (uint) {\n        // Check caller is admin OR currently initialzing as new unitroller implementation\n        if (!adminOrInitializing()) {\n            return fail(Error.UNAUTHORIZED, FailureInfo.SET_MAX_ASSETS_OWNER_CHECK);\n        }\n\n        uint oldMaxAssets = maxAssets;\n        maxAssets = newMaxAssets;\n        emit NewMaxAssets(oldMaxAssets, newMaxAssets);\n\n        return uint(Error.NO_ERROR);\n    }\n\n    /**\n      * @notice Sets liquidationIncentive\n      * @dev Admin function to set liquidationIncentive\n      * @param newLiquidationIncentiveMantissa New liquidationIncentive scaled by 1e18\n      * @return uint 0=success, otherwise a failure. (See ErrorReporter for details)\n      */\n    function _setLiquidationIncentive(uint newLiquidationIncentiveMantissa) external returns (uint) {\n        // Check caller is admin OR currently initialzing as new unitroller implementation\n        if (!adminOrInitializing()) {\n            return fail(Error.UNAUTHORIZED, FailureInfo.SET_LIQUIDATION_INCENTIVE_OWNER_CHECK);\n        }\n\n        // Check de-scaled 1 <= newLiquidationDiscount <= 1.5\n        Exp memory newLiquidationIncentive = Exp({mantissa: newLiquidationIncentiveMantissa});\n        Exp memory minLiquidationIncentive = Exp({mantissa: liquidationIncentiveMinMantissa});\n        if (lessThanExp(newLiquidationIncentive, minLiquidationIncentive)) {\n            return fail(Error.INVALID_LIQUIDATION_INCENTIVE, FailureInfo.SET_LIQUIDATION_INCENTIVE_VALIDATION);\n        }\n\n        Exp memory maxLiquidationIncentive = Exp({mantissa: liquidationIncentiveMaxMantissa});\n        if (lessThanExp(maxLiquidationIncentive, newLiquidationIncentive)) {\n            return fail(Error.INVALID_LIQUIDATION_INCENTIVE, FailureInfo.SET_LIQUIDATION_INCENTIVE_VALIDATION);\n        }\n\n        // Save current value for use in log\n        uint oldLiquidationIncentiveMantissa = liquidationIncentiveMantissa;\n\n        // Set liquidation incentive to new incentive\n        liquidationIncentiveMantissa = newLiquidationIncentiveMantissa;\n\n        // Emit event with old incentive, new incentive\n        emit NewLiquidationIncentive(oldLiquidationIncentiveMantissa, newLiquidationIncentiveMantissa);\n\n        return uint(Error.NO_ERROR);\n    }\n\n    /**\n      * @notice Add the market to the markets mapping and set it as listed\n      * @dev Admin function to set isListed and add support for the market\n      * @param cToken The address of the market (token) to list\n      * @return uint 0=success, otherwise a failure. (See enum Error for details)\n      */\n    function _supportMarket(CToken cToken) external returns (uint) {\n        if (msg.sender != admin) {\n            return fail(Error.UNAUTHORIZED, FailureInfo.SUPPORT_MARKET_OWNER_CHECK);\n        }\n\n        if (markets[address(cToken)].isListed) {\n            return fail(Error.MARKET_ALREADY_LISTED, FailureInfo.SUPPORT_MARKET_EXISTS);\n        }\n\n        cToken.isCToken(); // Sanity check to make sure its really a CToken\n\n        markets[address(cToken)] = Market({isListed: true, collateralFactorMantissa: 0});\n        emit MarketListed(cToken);\n\n        return uint(Error.NO_ERROR);\n    }\n\n    function _become(Unitroller unitroller, PriceOracle _oracle, uint _closeFactorMantissa, uint _maxAssets, bool reinitializing) public {\n        require(msg.sender == unitroller.admin(), \"only unitroller admin can change brains\");\n        uint changeStatus = unitroller._acceptImplementation();\n\n        require(changeStatus == 0, \"change not authorized\");\n\n        if (!reinitializing) {\n            Comptroller freshBrainedComptroller = Comptroller(address(unitroller));\n\n            // Ensure invoke _setPriceOracle() = 0\n            uint err = freshBrainedComptroller._setPriceOracle(_oracle);\n            require (err == uint(Error.NO_ERROR), \"set price oracle error\");\n\n            // Ensure invoke _setCloseFactor() = 0\n            err = freshBrainedComptroller._setCloseFactor(_closeFactorMantissa);\n            require (err == uint(Error.NO_ERROR), \"set close factor error\");\n\n            // Ensure invoke _setMaxAssets() = 0\n            err = freshBrainedComptroller._setMaxAssets(_maxAssets);\n            require (err == uint(Error.NO_ERROR), \"set max asssets error\");\n\n            // Ensure invoke _setLiquidationIncentive(liquidationIncentiveMinMantissa) = 0\n            err = freshBrainedComptroller._setLiquidationIncentive(liquidationIncentiveMinMantissa);\n            require (err == uint(Error.NO_ERROR), \"set liquidation incentive error\");\n        }\n    }\n\n    /**\n     * @dev Check that caller is admin or this contract is initializing itself as\n     * the new implementation.\n     * There should be no way to satisfy msg.sender == comptrollerImplementaiton\n     * without tx.origin also being admin, but both are included for extra safety\n     */\n    function adminOrInitializing() internal view returns (bool) {\n        bool initializing = (\n                msg.sender == comptrollerImplementation\n                &&\n                //solium-disable-next-line security/no-tx-origin\n                tx.origin == admin\n        );\n        bool isAdmin = msg.sender == admin;\n        return isAdmin || initializing;\n    }\n}\n",
  "sourcePath": "/Users/name/dev/argent-contracts-release-1.5.0/contracts/test/compound/Comptroller.sol",
  "compiler": {
    "name": "solc",
    "version": "0.5.16+commit.9c3226ce.Emscripten.clang"
  },
  "schemaVersion": "3.0.23",
  "updatedAt": "2020-03-31T19:52:06.763Z",
  "devdoc": {
    "author": "Compound",
    "methods": {
      "_setCloseFactor(uint256)": {
        "details": "Admin function to set closeFactor",
        "params": {
          "newCloseFactorMantissa": "New close factor, scaled by 1e18"
        },
        "return": "uint 0=success, otherwise a failure. (See ErrorReporter for details)"
      },
      "_setCollateralFactor(address,uint256)": {
        "details": "Admin function to set per-market collateralFactor",
        "params": {
          "cToken": "The market to set the factor on",
          "newCollateralFactorMantissa": "The new collateral factor, scaled by 1e18"
        },
        "return": "uint 0=success, otherwise a failure. (See ErrorReporter for details)"
      },
      "_setLiquidationIncentive(uint256)": {
        "details": "Admin function to set liquidationIncentive",
        "params": {
          "newLiquidationIncentiveMantissa": "New liquidationIncentive scaled by 1e18"
        },
        "return": "uint 0=success, otherwise a failure. (See ErrorReporter for details)"
      },
      "_setMaxAssets(uint256)": {
        "details": "Admin function to set maxAssets",
        "params": {
          "newMaxAssets": "New max assets"
        },
        "return": "uint 0=success, otherwise a failure. (See ErrorReporter for details)"
      },
      "_setPriceOracle(address)": {
        "details": "Admin function to set a new price oracle",
        "return": "uint 0=success, otherwise a failure (see ErrorReporter.sol for details)"
      },
      "_supportMarket(address)": {
        "details": "Admin function to set isListed and add support for the market",
        "params": {
          "cToken": "The address of the market (token) to list"
        },
        "return": "uint 0=success, otherwise a failure. (See enum Error for details)"
      },
      "borrowAllowed(address,address,uint256)": {
        "params": {
          "borrowAmount": "The amount of underlying the account would borrow",
          "borrower": "The account which would borrow the asset",
          "cToken": "The market to verify the borrow against"
        },
        "return": "0 if the borrow is allowed, otherwise a semi-opaque error code (See ErrorReporter.sol)"
      },
      "borrowVerify(address,address,uint256)": {
        "params": {
          "borrowAmount": "The amount of the underlying asset requested to borrow",
          "borrower": "The address borrowing the underlying",
          "cToken": "Asset whose underlying is being borrowed"
        }
      },
      "checkMembership(address,address)": {
        "params": {
          "account": "The address of the account to check",
          "cToken": "The cToken to check"
        },
        "return": "True if the account is in the asset, otherwise false."
      },
      "enterMarkets(address[])": {
        "params": {
          "cTokens": "The list of addresses of the cToken markets to be enabled"
        },
        "return": "Success indicator for whether each corresponding market was entered"
      },
      "exitMarket(address)": {
        "details": "Sender must not have an outstanding borrow balance in the asset, or be providing neccessary collateral for an outstanding borrow.",
        "params": {
          "cTokenAddress": "The address of the asset to be removed"
        },
        "return": "Whether or not the account successfully exited the market"
      },
      "getAccountLiquidity(address)": {
        "return": "(possible error code (semi-opaque), account liquidity in excess of collateral requirements,         account shortfall below collateral requirements)"
      },
      "getAssetsIn(address)": {
        "params": {
          "account": "The address of the account to pull assets for"
        },
        "return": "A dynamic list with the assets the account has entered"
      },
      "liquidateBorrowAllowed(address,address,address,address,uint256)": {
        "params": {
          "borrower": "The address of the borrower",
          "cTokenBorrowed": "Asset which was borrowed by the borrower",
          "cTokenCollateral": "Asset which was used as collateral and will be seized",
          "liquidator": "The address repaying the borrow and seizing the collateral",
          "repayAmount": "The amount of underlying being repaid"
        }
      },
      "liquidateBorrowVerify(address,address,address,address,uint256,uint256)": {
        "params": {
          "borrower": "The address of the borrower",
          "cTokenBorrowed": "Asset which was borrowed by the borrower",
          "cTokenCollateral": "Asset which was used as collateral and will be seized",
          "liquidator": "The address repaying the borrow and seizing the collateral",
          "repayAmount": "The amount of underlying being repaid"
        }
      },
      "liquidateCalculateSeizeTokens(address,address,uint256)": {
        "details": "Used in liquidation (called in cToken.liquidateBorrowFresh)",
        "params": {
          "cTokenBorrowed": "The address of the borrowed cToken",
          "cTokenCollateral": "The address of the collateral cToken",
          "repayAmount": "The amount of cTokenBorrowed underlying to convert into cTokenCollateral tokens"
        },
        "return": "(errorCode, number of cTokenCollateral tokens to be seized in a liquidation)"
      },
      "mintAllowed(address,address,uint256)": {
        "params": {
          "cToken": "The market to verify the mint against",
          "mintAmount": "The amount of underlying being supplied to the market in exchange for tokens",
          "minter": "The account which would get the minted tokens"
        },
        "return": "0 if the mint is allowed, otherwise a semi-opaque error code (See ErrorReporter.sol)"
      },
      "mintVerify(address,address,uint256,uint256)": {
        "params": {
          "cToken": "Asset being minted",
          "mintAmount": "The amount of the underlying asset being minted",
          "mintTokens": "The number of tokens being minted",
          "minter": "The address minting the tokens"
        }
      },
      "redeemAllowed(address,address,uint256)": {
        "params": {
          "cToken": "The market to verify the redeem against",
          "redeemTokens": "The number of cTokens to exchange for the underlying asset in the market",
          "redeemer": "The account which would redeem the tokens"
        },
        "return": "0 if the redeem is allowed, otherwise a semi-opaque error code (See ErrorReporter.sol)"
      },
      "redeemVerify(address,address,uint256,uint256)": {
        "params": {
          "cToken": "Asset being redeemed",
          "redeemAmount": "The amount of the underlying asset being redeemed",
          "redeemTokens": "The number of tokens being redeemed",
          "redeemer": "The address redeeming the tokens"
        }
      },
      "repayBorrowAllowed(address,address,address,uint256)": {
        "params": {
          "borrower": "The account which would borrowed the asset",
          "cToken": "The market to verify the repay against",
          "payer": "The account which would repay the asset",
          "repayAmount": "The amount of the underlying asset the account would repay"
        },
        "return": "0 if the repay is allowed, otherwise a semi-opaque error code (See ErrorReporter.sol)"
      },
      "repayBorrowVerify(address,address,address,uint256,uint256)": {
        "params": {
          "borrower": "The address of the borrower",
          "cToken": "Asset being repaid",
          "payer": "The address repaying the borrow",
          "repayAmount": "The amount of underlying being repaid"
        }
      },
      "seizeAllowed(address,address,address,address,uint256)": {
        "params": {
          "borrower": "The address of the borrower",
          "cTokenBorrowed": "Asset which was borrowed by the borrower",
          "cTokenCollateral": "Asset which was used as collateral and will be seized",
          "liquidator": "The address repaying the borrow and seizing the collateral",
          "seizeTokens": "The number of collateral tokens to seize"
        }
      },
      "seizeVerify(address,address,address,address,uint256)": {
        "params": {
          "borrower": "The address of the borrower",
          "cTokenBorrowed": "Asset which was borrowed by the borrower",
          "cTokenCollateral": "Asset which was used as collateral and will be seized",
          "liquidator": "The address repaying the borrow and seizing the collateral",
          "seizeTokens": "The number of collateral tokens to seize"
        }
      },
      "transferAllowed(address,address,address,uint256)": {
        "params": {
          "cToken": "The market to verify the transfer against",
          "dst": "The account which receives the tokens",
          "src": "The account which sources the tokens",
          "transferTokens": "The number of cTokens to transfer"
        },
        "return": "0 if the transfer is allowed, otherwise a semi-opaque error code (See ErrorReporter.sol)"
      },
      "transferVerify(address,address,address,uint256)": {
        "params": {
          "cToken": "Asset being transferred",
          "dst": "The account which receives the tokens",
          "src": "The account which sources the tokens",
          "transferTokens": "The number of cTokens to transfer"
        }
      }
    },
    "title": "Compound's Comptroller Contract"
  },
  "userdoc": {
    "methods": {
      "_setCloseFactor(uint256)": {
        "notice": "Sets the closeFactor used when liquidating borrows"
      },
      "_setCollateralFactor(address,uint256)": {
        "notice": "Sets the collateralFactor for a market"
      },
      "_setLiquidationIncentive(uint256)": {
        "notice": "Sets liquidationIncentive"
      },
      "_setMaxAssets(uint256)": {
        "notice": "Sets maxAssets which controls how many markets can be entered"
      },
      "_setPriceOracle(address)": {
        "notice": "Sets a new price oracle for the comptroller"
      },
      "_supportMarket(address)": {
        "notice": "Add the market to the markets mapping and set it as listed"
      },
      "borrowAllowed(address,address,uint256)": {
        "notice": "Checks if the account should be allowed to borrow the underlying asset of the given market"
      },
      "borrowVerify(address,address,uint256)": {
        "notice": "Validates borrow and reverts on rejection. May emit logs."
      },
      "checkMembership(address,address)": {
        "notice": "Returns whether the given account is entered in the given asset"
      },
      "enterMarkets(address[])": {
        "notice": "Add assets to be included in account liquidity calculation"
      },
      "exitMarket(address)": {
        "notice": "Removes asset from sender's account liquidity calculation"
      },
      "getAccountLiquidity(address)": {
        "notice": "Determine the current account liquidity wrt collateral requirements"
      },
      "getAssetsIn(address)": {
        "notice": "Returns the assets an account has entered"
      },
      "liquidateBorrowAllowed(address,address,address,address,uint256)": {
        "notice": "Checks if the liquidation should be allowed to occur"
      },
      "liquidateBorrowVerify(address,address,address,address,uint256,uint256)": {
        "notice": "Validates liquidateBorrow and reverts on rejection. May emit logs."
      },
      "liquidateCalculateSeizeTokens(address,address,uint256)": {
        "notice": "Calculate number of tokens of collateral asset to seize given an underlying amount"
      },
      "mintAllowed(address,address,uint256)": {
        "notice": "Checks if the account should be allowed to mint tokens in the given market"
      },
      "mintVerify(address,address,uint256,uint256)": {
        "notice": "Validates mint and reverts on rejection. May emit logs."
      },
      "redeemAllowed(address,address,uint256)": {
        "notice": "Checks if the account should be allowed to redeem tokens in the given market"
      },
      "redeemVerify(address,address,uint256,uint256)": {
        "notice": "Validates redeem and reverts on rejection. May emit logs."
      },
      "repayBorrowAllowed(address,address,address,uint256)": {
        "notice": "Checks if the account should be allowed to repay a borrow in the given market"
      },
      "repayBorrowVerify(address,address,address,uint256,uint256)": {
        "notice": "Validates repayBorrow and reverts on rejection. May emit logs."
      },
      "seizeAllowed(address,address,address,address,uint256)": {
        "notice": "Checks if the seizing of assets should be allowed to occur"
      },
      "seizeVerify(address,address,address,address,uint256)": {
        "notice": "Validates seize and reverts on rejection. May emit logs."
      },
      "transferAllowed(address,address,address,uint256)": {
        "notice": "Checks if the account should be allowed to transfer tokens in the given market"
      },
      "transferVerify(address,address,address,uint256)": {
        "notice": "Validates transfer and reverts on rejection. May emit logs."
      }
    }
  }
}