{
  "contractName": "DappRegistry",
  "abi": [
    {
      "anonymous": false,
      "inputs": [
        {
          "indexed": true,
          "internalType": "address",
          "name": "_contract",
          "type": "address"
        },
        {
          "indexed": false,
          "internalType": "bytes4[]",
          "name": "_methods",
          "type": "bytes4[]"
        }
      ],
      "name": "Deregistered",
      "type": "event"
    },
    {
      "anonymous": false,
      "inputs": [
        {
          "indexed": true,
          "internalType": "address",
          "name": "_newOwner",
          "type": "address"
        }
      ],
      "name": "OwnerChanged",
      "type": "event"
    },
    {
      "anonymous": false,
      "inputs": [
        {
          "indexed": true,
          "internalType": "address",
          "name": "_contract",
          "type": "address"
        },
        {
          "indexed": false,
          "internalType": "bytes4[]",
          "name": "_methods",
          "type": "bytes4[]"
        }
      ],
      "name": "Registered",
      "type": "event"
    },
    {
      "constant": false,
      "inputs": [
        {
          "internalType": "address",
          "name": "_newOwner",
          "type": "address"
        }
      ],
      "name": "changeOwner",
      "outputs": [],
      "payable": false,
      "stateMutability": "nonpayable",
      "type": "function"
    },
    {
      "constant": true,
      "inputs": [],
      "name": "owner",
      "outputs": [
        {
          "internalType": "address",
          "name": "",
          "type": "address"
        }
      ],
      "payable": false,
      "stateMutability": "view",
      "type": "function"
    },
    {
      "constant": false,
      "inputs": [
        {
          "internalType": "address",
          "name": "_contract",
          "type": "address"
        },
        {
          "internalType": "bytes4[]",
          "name": "_methods",
          "type": "bytes4[]"
        }
      ],
      "name": "register",
      "outputs": [],
      "payable": false,
      "stateMutability": "nonpayable",
      "type": "function"
    },
    {
      "constant": false,
      "inputs": [
        {
          "internalType": "address",
          "name": "_contract",
          "type": "address"
        },
        {
          "internalType": "bytes4[]",
          "name": "_methods",
          "type": "bytes4[]"
        }
      ],
      "name": "deregister",
      "outputs": [],
      "payable": false,
      "stateMutability": "nonpayable",
      "type": "function"
    },
    {
      "constant": true,
      "inputs": [
        {
          "internalType": "address",
          "name": "_contract",
          "type": "address"
        },
        {
          "internalType": "bytes4[]",
          "name": "_methods",
          "type": "bytes4[]"
        }
      ],
      "name": "isRegistered",
      "outputs": [
        {
          "internalType": "bool",
          "name": "",
          "type": "bool"
        }
      ],
      "payable": false,
      "stateMutability": "view",
      "type": "function"
    },
    {
      "constant": true,
      "inputs": [
        {
          "internalType": "address",
          "name": "_contract",
          "type": "address"
        },
        {
          "internalType": "bytes4",
          "name": "_method",
          "type": "bytes4"
        }
      ],
      "name": "isRegistered",
      "outputs": [
        {
          "internalType": "bool",
          "name": "",
          "type": "bool"
        }
      ],
      "payable": false,
      "stateMutability": "view",
      "type": "function"
    }
  ],
  "bytecode": "0x6080604052336000806101000a81548173ffffffffffffffffffffffffffffffffffffffff021916908373ffffffffffffffffffffffffffffffffffffffff160217905550610bc5806100536000396000f3fe608060405234801561001057600080fd5b50600436106100625760003560e01c80638da5cb5b14610067578063a6f9dae1146100b1578063c051518a146100f5578063e559e420146101a6578063f6b4b2d51461023f578063fe5ed89d146102c4575b600080fd5b61006f61035d565b604051808273ffffffffffffffffffffffffffffffffffffffff1673ffffffffffffffffffffffffffffffffffffffff16815260200191505060405180910390f35b6100f3600480360360208110156100c757600080fd5b81019080803573ffffffffffffffffffffffffffffffffffffffff169060200190929190505050610382565b005b61018c6004803603604081101561010b57600080fd5b81019080803573ffffffffffffffffffffffffffffffffffffffff1690602001909291908035906020019064010000000081111561014857600080fd5b82018360208201111561015a57600080fd5b8035906020019184602083028401116401000000008311171561017c57600080fd5b909192939192939050505061056d565b604051808215151515815260200191505060405180910390f35b61023d600480360360408110156101bc57600080fd5b81019080803573ffffffffffffffffffffffffffffffffffffffff169060200190929190803590602001906401000000008111156101f957600080fd5b82018360208201111561020b57600080fd5b8035906020019184602083028401116401000000008311171561022d57600080fd5b9091929391929390505050610675565b005b6102aa6004803603604081101561025557600080fd5b81019080803573ffffffffffffffffffffffffffffffffffffffff16906020019092919080357bffffffffffffffffffffffffffffffffffffffffffffffffffffffff191690602001909291905050506108af565b604051808215151515815260200191505060405180910390f35b61035b600480360360408110156102da57600080fd5b81019080803573ffffffffffffffffffffffffffffffffffffffff1690602001909291908035906020019064010000000081111561031757600080fd5b82018360208201111561032957600080fd5b8035906020019184602083028401116401000000008311171561034b57600080fd5b9091929391929390505050610955565b005b6000809054906101000a900473ffffffffffffffffffffffffffffffffffffffff1681565b6000809054906101000a900473ffffffffffffffffffffffffffffffffffffffff1673ffffffffffffffffffffffffffffffffffffffff163373ffffffffffffffffffffffffffffffffffffffff1614610444576040517f08c379a000000000000000000000000000000000000000000000000000000000815260040180806020018281038252600d8152602001807f4d757374206265206f776e65720000000000000000000000000000000000000081525060200191505060405180910390fd5b600073ffffffffffffffffffffffffffffffffffffffff168173ffffffffffffffffffffffffffffffffffffffff1614156104e7576040517f08c379a00000000000000000000000000000000000000000000000000000000081526004018080602001828103825260188152602001807f41646472657373206d757374206e6f74206265206e756c6c000000000000000081525060200191505060405180910390fd5b806000806101000a81548173ffffffffffffffffffffffffffffffffffffffff021916908373ffffffffffffffffffffffffffffffffffffffff1602179055508073ffffffffffffffffffffffffffffffffffffffff167fa2ea9883a321a3e97b8266c2b078bfeec6d50c711ed71f874a90d500ae2eaf3660405160405180910390a250565b600080600090505b8383905081101561066857600160008673ffffffffffffffffffffffffffffffffffffffff1673ffffffffffffffffffffffffffffffffffffffff16815260200190815260200160002060008585848181106105cd57fe5b905060200201357bffffffffffffffffffffffffffffffffffffffffffffffffffffffff19167bffffffffffffffffffffffffffffffffffffffffffffffffffffffff19167bffffffffffffffffffffffffffffffffffffffffffffffffffffffff1916815260200190815260200160002060009054906101000a900460ff1661065b57600091505061066e565b8080600101915050610575565b50600190505b9392505050565b6000809054906101000a900473ffffffffffffffffffffffffffffffffffffffff1673ffffffffffffffffffffffffffffffffffffffff163373ffffffffffffffffffffffffffffffffffffffff1614610737576040517f08c379a000000000000000000000000000000000000000000000000000000000815260040180806020018281038252600d8152602001807f4d757374206265206f776e65720000000000000000000000000000000000000081525060200191505060405180910390fd5b60008090505b8282905081101561082c5760018060008673ffffffffffffffffffffffffffffffffffffffff1673ffffffffffffffffffffffffffffffffffffffff168152602001908152602001600020600085858581811061079657fe5b905060200201357bffffffffffffffffffffffffffffffffffffffffffffffffffffffff19167bffffffffffffffffffffffffffffffffffffffffffffffffffffffff19167bffffffffffffffffffffffffffffffffffffffffffffffffffffffff1916815260200190815260200160002060006101000a81548160ff021916908315150217905550808060010191505061073d565b508273ffffffffffffffffffffffffffffffffffffffff167f2cddded87168218f98f4cc4cf1735701c4a2e3e39ead3ca861c0b237e065d10e838360405180806020018281038252848482818152602001925060200280828437600081840152601f19601f820116905080830192505050935050505060405180910390a2505050565b6000600160008473ffffffffffffffffffffffffffffffffffffffff1673ffffffffffffffffffffffffffffffffffffffff1681526020019081526020016000206000837bffffffffffffffffffffffffffffffffffffffffffffffffffffffff19167bffffffffffffffffffffffffffffffffffffffffffffffffffffffff1916815260200190815260200160002060009054906101000a900460ff16905092915050565b6000809054906101000a900473ffffffffffffffffffffffffffffffffffffffff1673ffffffffffffffffffffffffffffffffffffffff163373ffffffffffffffffffffffffffffffffffffffff1614610a17576040517f08c379a000000000000000000000000000000000000000000000000000000000815260040180806020018281038252600d8152602001807f4d757374206265206f776e65720000000000000000000000000000000000000081525060200191505060405180910390fd5b60008090505b82829050811015610b0d576000600160008673ffffffffffffffffffffffffffffffffffffffff1673ffffffffffffffffffffffffffffffffffffffff1681526020019081526020016000206000858585818110610a7757fe5b905060200201357bffffffffffffffffffffffffffffffffffffffffffffffffffffffff19167bffffffffffffffffffffffffffffffffffffffffffffffffffffffff19167bffffffffffffffffffffffffffffffffffffffffffffffffffffffff1916815260200190815260200160002060006101000a81548160ff0219169083151502179055508080600101915050610a1d565b508273ffffffffffffffffffffffffffffffffffffffff167fda90c268f3fcf82fa0268ff7f5f4be9db6648632381aad9edbdf03dc3cdd3f99838360405180806020018281038252848482818152602001925060200280828437600081840152601f19601f820116905080830192505050935050505060405180910390a250505056fea265627a7a723158207f3fd2c43195d10d48e969bad98934607e47a102409f31733393fa8226d620b364736f6c63430005100032",
  "source": "// Copyright (C) 2018  Argent Labs Ltd. <https://argent.xyz>\n\n// This program is free software: you can redistribute it and/or modify\n// it under the terms of the GNU General Public License as published by\n// the Free Software Foundation, either version 3 of the License, or\n// (at your option) any later version.\n\n// This program is distributed in the hope that it will be useful,\n// but WITHOUT ANY WARRANTY; without even the implied warranty of\n// MERCHANTABILITY or FITNESS FOR A PARTICULAR PURPOSE.  See the\n// GNU General Public License for more details.\n\n// You should have received a copy of the GNU General Public License\n// along with this program.  If not, see <http://www.gnu.org/licenses/>.\n\npragma solidity ^0.5.4;\nimport \"../base/Owned.sol\";\n\n/**\n * @title DappRegistry\n * @dev Registry of dapp contracts and methods that have been authorised by Argent.\n * Registered methods can be authorised immediately for a dapp key and a wallet while\n * the authoirsation of unregistered methods is delayed for 24 hours.\n * @author Julien Niset - <julien@argent.im>\n */\ncontract DappRegistry is Owned {\n\n    // [contract][signature][bool]\n    mapping (address => mapping (bytes4 => bool)) internal authorised;\n\n    event Registered(address indexed _contract, bytes4[] _methods);\n    event Deregistered(address indexed _contract, bytes4[] _methods);\n\n    /**\n     * @dev Registers a list of methods for a dapp contract.\n     * @param _contract The dapp contract.\n     * @param _methods The dapp methods.\n     */\n    function register(address _contract, bytes4[] calldata _methods) external onlyOwner {\n        for (uint i = 0; i < _methods.length; i++) {\n            authorised[_contract][_methods[i]] = true;\n        }\n        emit Registered(_contract, _methods);\n    }\n\n    /**\n     * @dev Deregisters a list of methods for a dapp contract.\n     * @param _contract The dapp contract.\n     * @param _methods The dapp methods.\n     */\n    function deregister(address _contract, bytes4[] calldata _methods) external onlyOwner {\n        for (uint i = 0; i < _methods.length; i++) {\n            authorised[_contract][_methods[i]] = false;\n        }\n        emit Deregistered(_contract, _methods);\n    }\n\n    /**\n     * @dev Checks if a method is registered for a dapp contract.\n     * @param _contract The dapp contract.\n     * @param _method The dapp method.\n     * @return true if the method is registered.\n     */\n    function isRegistered(address _contract, bytes4 _method) external view returns (bool) {\n        return authorised[_contract][_method];\n    }\n\n    /**\n     * @dev Checks if a list of methods are registered for a dapp contract.\n     * @param _contract The dapp contract.\n     * @param _methods The dapp methods.\n     * @return true if all the methods are registered.\n     */\n    function isRegistered(address _contract, bytes4[] calldata _methods) external view returns (bool) {\n        for (uint i = 0; i < _methods.length; i++) {\n            if (!authorised[_contract][_methods[i]]) {\n                return false;\n            }\n        }\n        return true;\n    }\n}\n",
  "sourcePath": "/Users/name/dev/argent-contracts-release-1.5.0/contracts/dapp/DappRegistry.sol",
  "compiler": {
    "name": "solc",
    "version": "0.5.16+commit.9c3226ce.Emscripten.clang"
  },
  "schemaVersion": "3.0.23",
  "updatedAt": "2020-03-31T19:52:06.257Z",
  "devdoc": {
    "author": "Julien Niset - <julien@argent.im>",
    "details": "Registry of dapp contracts and methods that have been authorised by Argent. Registered methods can be authorised immediately for a dapp key and a wallet while the authoirsation of unregistered methods is delayed for 24 hours.",
    "methods": {
      "changeOwner(address)": {
        "details": "Lets the owner transfer ownership of the contract to a new owner.",
        "params": {
          "_newOwner": "The new owner."
        }
      },
      "deregister(address,bytes4[])": {
        "details": "Deregisters a list of methods for a dapp contract.",
        "params": {
          "_contract": "The dapp contract.",
          "_methods": "The dapp methods."
        }
      },
      "isRegistered(address,bytes4)": {
        "details": "Checks if a method is registered for a dapp contract.",
        "params": {
          "_contract": "The dapp contract.",
          "_method": "The dapp method."
        },
        "return": "true if the method is registered."
      },
      "isRegistered(address,bytes4[])": {
        "details": "Checks if a list of methods are registered for a dapp contract.",
        "params": {
          "_contract": "The dapp contract.",
          "_methods": "The dapp methods."
        },
        "return": "true if all the methods are registered."
      },
      "register(address,bytes4[])": {
        "details": "Registers a list of methods for a dapp contract.",
        "params": {
          "_contract": "The dapp contract.",
          "_methods": "The dapp methods."
        }
      }
    },
    "title": "DappRegistry"
  },
  "userdoc": {
    "methods": {}
  }
}