{
  "contractName": "DappStorage",
  "abi": [
    {
      "constant": false,
      "inputs": [
        {
          "internalType": "contract BaseWallet",
          "name": "_wallet",
          "type": "address"
        },
        {
          "internalType": "address",
          "name": "_dapp",
          "type": "address"
        },
        {
          "internalType": "address",
          "name": "_contract",
          "type": "address"
        },
        {
          "internalType": "bytes4[]",
          "name": "_signatures",
          "type": "bytes4[]"
        },
        {
          "internalType": "bool",
          "name": "_authorized",
          "type": "bool"
        }
      ],
      "name": "setMethodAuthorization",
      "outputs": [],
      "payable": false,
      "stateMutability": "nonpayable",
      "type": "function"
    },
    {
      "constant": true,
      "inputs": [
        {
          "internalType": "contract BaseWallet",
          "name": "_wallet",
          "type": "address"
        },
        {
          "internalType": "address",
          "name": "_dapp",
          "type": "address"
        },
        {
          "internalType": "address",
          "name": "_contract",
          "type": "address"
        },
        {
          "internalType": "bytes4",
          "name": "_signature",
          "type": "bytes4"
        }
      ],
      "name": "getMethodAuthorization",
      "outputs": [
        {
          "internalType": "bool",
          "name": "",
          "type": "bool"
        }
      ],
      "payable": false,
      "stateMutability": "view",
      "type": "function"
    }
  ],
  "bytecode": "0x608060405234801561001057600080fd5b506105f5806100206000396000f3fe608060405234801561001057600080fd5b50600436106100365760003560e01c80635fe91fe31461003b578063dad18ef914610120575b600080fd5b61011e600480360360a081101561005157600080fd5b81019080803573ffffffffffffffffffffffffffffffffffffffff169060200190929190803573ffffffffffffffffffffffffffffffffffffffff169060200190929190803573ffffffffffffffffffffffffffffffffffffffff169060200190929190803590602001906401000000008111156100ce57600080fd5b8201836020820111156100e057600080fd5b8035906020019184602083028401116401000000008311171561010257600080fd5b90919293919293908035151590602001909291905050506101e5565b005b6101cb6004803603608081101561013657600080fd5b81019080803573ffffffffffffffffffffffffffffffffffffffff169060200190929190803573ffffffffffffffffffffffffffffffffffffffff169060200190929190803573ffffffffffffffffffffffffffffffffffffffff16906020019092919080357bffffffffffffffffffffffffffffffffffffffffffffffffffffffff1916906020019092919050505061046b565b604051808215151515815260200191505060405180910390f35b858073ffffffffffffffffffffffffffffffffffffffff1663d6eb1bbf336040518263ffffffff1660e01b8152600401808273ffffffffffffffffffffffffffffffffffffffff1673ffffffffffffffffffffffffffffffffffffffff16815260200191505060206040518083038186803b15801561026357600080fd5b505afa158015610277573d6000803e3d6000fd5b505050506040513d602081101561028d57600080fd5b81019080805190602001909291905050506102f3576040517f08c379a000000000000000000000000000000000000000000000000000000000815260040180806020018281038252603481526020018061058d6034913960400191505060405180910390fd5b60008090505b8484905081101561046157826000808a73ffffffffffffffffffffffffffffffffffffffff1673ffffffffffffffffffffffffffffffffffffffff16815260200190815260200160002060008973ffffffffffffffffffffffffffffffffffffffff1673ffffffffffffffffffffffffffffffffffffffff16815260200190815260200160002060008873ffffffffffffffffffffffffffffffffffffffff1673ffffffffffffffffffffffffffffffffffffffff16815260200190815260200160002060008787858181106103cb57fe5b905060200201357bffffffffffffffffffffffffffffffffffffffffffffffffffffffff19167bffffffffffffffffffffffffffffffffffffffffffffffffffffffff19167bffffffffffffffffffffffffffffffffffffffffffffffffffffffff1916815260200190815260200160002060006101000a81548160ff02191690831515021790555080806001019150506102f9565b5050505050505050565b60008060008673ffffffffffffffffffffffffffffffffffffffff1673ffffffffffffffffffffffffffffffffffffffff16815260200190815260200160002060008573ffffffffffffffffffffffffffffffffffffffff1673ffffffffffffffffffffffffffffffffffffffff16815260200190815260200160002060008473ffffffffffffffffffffffffffffffffffffffff1673ffffffffffffffffffffffffffffffffffffffff1681526020019081526020016000206000837bffffffffffffffffffffffffffffffffffffffffffffffffffffffff19167bffffffffffffffffffffffffffffffffffffffffffffffffffffffff1916815260200190815260200160002060009054906101000a900460ff16905094935050505056fe54533a206d75737420626520616e20617574686f72697a6564206d6f64756c6520746f2063616c6c2074686973206d6574686f64a265627a7a72315820c149c3983eac87798d4a39d867f2b262f9eae4b3ce27067cc7d4b43cca95718864736f6c63430005100032",
  "source": "// Copyright (C) 2018  Argent Labs Ltd. <https://argent.xyz>\n\n// This program is free software: you can redistribute it and/or modify\n// it under the terms of the GNU General Public License as published by\n// the Free Software Foundation, either version 3 of the License, or\n// (at your option) any later version.\n\n// This program is distributed in the hope that it will be useful,\n// but WITHOUT ANY WARRANTY; without even the implied warranty of\n// MERCHANTABILITY or FITNESS FOR A PARTICULAR PURPOSE.  See the\n// GNU General Public License for more details.\n\n// You should have received a copy of the GNU General Public License\n// along with this program.  If not, see <http://www.gnu.org/licenses/>.\n\npragma solidity ^0.5.4;\nimport \"../wallet/BaseWallet.sol\";\nimport \"./Storage.sol\";\n\n/**\n * @title DappStorage\n * @dev Contract storing the state of wallets related to authorised dapps.\n * The contract only defines basic setters and getters with no logic. Only modules authorised\n * for a wallet can modify its state.\n * @author Olivier Van Den Biggelaar - <olivier@argent.im>\n */\ncontract DappStorage is Storage {\n\n    // [wallet][dappkey][contract][signature][bool]\n    mapping (address => mapping (address => mapping (address => mapping (bytes4 => bool)))) internal whitelistedMethods;\n\n    // *************** External Functions ********************* //\n\n    /**\n     * @dev (De)authorizes an external contract's methods to be called by a dapp key of the wallet.\n     * @param _wallet The wallet.\n     * @param _dapp The address of the signing key.\n     * @param _contract The contract address.\n     * @param _signatures The methods' signatures.\n     * @param _authorized true to whitelist, false to blacklist.\n     */\n    function setMethodAuthorization(\n        BaseWallet _wallet,\n        address _dapp,\n        address _contract,\n        bytes4[] calldata _signatures,\n        bool _authorized\n    )\n        external\n        onlyModule(_wallet)\n    {\n        for (uint i = 0; i < _signatures.length; i++) {\n            whitelistedMethods[address(_wallet)][_dapp][_contract][_signatures[i]] = _authorized;\n        }\n    }\n\n    /**\n     * @dev Gets the authorization status for an external contract's method.\n     * @param _wallet The wallet.\n     * @param _dapp The address of the signing key.\n     * @param _contract The contract address.\n     * @param _signature The call signature.\n     * @return true if the method is whitelisted, false otherwise\n     */\n    function getMethodAuthorization(BaseWallet _wallet, address _dapp, address _contract, bytes4 _signature) external view returns (bool) {\n        return whitelistedMethods[address(_wallet)][_dapp][_contract][_signature];\n    }\n}",
  "sourcePath": "/Users/name/dev/argent-contracts-release-1.5.0/contracts/storage/DappStorage.sol",
  "compiler": {
    "name": "solc",
    "version": "0.5.16+commit.9c3226ce.Emscripten.clang"
  },
  "schemaVersion": "3.0.23",
  "updatedAt": "2020-03-31T19:52:06.588Z",
  "devdoc": {
    "author": "Olivier Van Den Biggelaar - <olivier@argent.im>",
    "details": "Contract storing the state of wallets related to authorised dapps. The contract only defines basic setters and getters with no logic. Only modules authorised for a wallet can modify its state.",
    "methods": {
      "getMethodAuthorization(address,address,address,bytes4)": {
        "details": "Gets the authorization status for an external contract's method.",
        "params": {
          "_contract": "The contract address.",
          "_dapp": "The address of the signing key.",
          "_signature": "The call signature.",
          "_wallet": "The wallet."
        },
        "return": "true if the method is whitelisted, false otherwise"
      },
      "setMethodAuthorization(address,address,address,bytes4[],bool)": {
        "details": "(De)authorizes an external contract's methods to be called by a dapp key of the wallet.",
        "params": {
          "_authorized": "true to whitelist, false to blacklist.",
          "_contract": "The contract address.",
          "_dapp": "The address of the signing key.",
          "_signatures": "The methods' signatures.",
          "_wallet": "The wallet."
        }
      }
    },
    "title": "DappStorage"
  },
  "userdoc": {
    "methods": {}
  }
}