{
  "contractName": "GuardianStorage",
  "abi": [
    {
      "constant": false,
      "inputs": [
        {
          "internalType": "contract BaseWallet",
          "name": "_wallet",
          "type": "address"
        },
        {
          "internalType": "address",
          "name": "_guardian",
          "type": "address"
        }
      ],
      "name": "addGuardian",
      "outputs": [],
      "payable": false,
      "stateMutability": "nonpayable",
      "type": "function"
    },
    {
      "constant": false,
      "inputs": [
        {
          "internalType": "contract BaseWallet",
          "name": "_wallet",
          "type": "address"
        },
        {
          "internalType": "address",
          "name": "_guardian",
          "type": "address"
        }
      ],
      "name": "revokeGuardian",
      "outputs": [],
      "payable": false,
      "stateMutability": "nonpayable",
      "type": "function"
    },
    {
      "constant": true,
      "inputs": [
        {
          "internalType": "contract BaseWallet",
          "name": "_wallet",
          "type": "address"
        }
      ],
      "name": "guardianCount",
      "outputs": [
        {
          "internalType": "uint256",
          "name": "",
          "type": "uint256"
        }
      ],
      "payable": false,
      "stateMutability": "view",
      "type": "function"
    },
    {
      "constant": true,
      "inputs": [
        {
          "internalType": "contract BaseWallet",
          "name": "_wallet",
          "type": "address"
        }
      ],
      "name": "getGuardians",
      "outputs": [
        {
          "internalType": "address[]",
          "name": "",
          "type": "address[]"
        }
      ],
      "payable": false,
      "stateMutability": "view",
      "type": "function"
    },
    {
      "constant": true,
      "inputs": [
        {
          "internalType": "contract BaseWallet",
          "name": "_wallet",
          "type": "address"
        },
        {
          "internalType": "address",
          "name": "_guardian",
          "type": "address"
        }
      ],
      "name": "isGuardian",
      "outputs": [
        {
          "internalType": "bool",
          "name": "",
          "type": "bool"
        }
      ],
      "payable": false,
      "stateMutability": "view",
      "type": "function"
    },
    {
      "constant": false,
      "inputs": [
        {
          "internalType": "contract BaseWallet",
          "name": "_wallet",
          "type": "address"
        },
        {
          "internalType": "uint256",
          "name": "_releaseAfter",
          "type": "uint256"
        }
      ],
      "name": "setLock",
      "outputs": [],
      "payable": false,
      "stateMutability": "nonpayable",
      "type": "function"
    },
    {
      "constant": true,
      "inputs": [
        {
          "internalType": "contract BaseWallet",
          "name": "_wallet",
          "type": "address"
        }
      ],
      "name": "isLocked",
      "outputs": [
        {
          "internalType": "bool",
          "name": "",
          "type": "bool"
        }
      ],
      "payable": false,
      "stateMutability": "view",
      "type": "function"
    },
    {
      "constant": true,
      "inputs": [
        {
          "internalType": "contract BaseWallet",
          "name": "_wallet",
          "type": "address"
        }
      ],
      "name": "getLock",
      "outputs": [
        {
          "internalType": "uint256",
          "name": "",
          "type": "uint256"
        }
      ],
      "payable": false,
      "stateMutability": "view",
      "type": "function"
    },
    {
      "constant": true,
      "inputs": [
        {
          "internalType": "contract BaseWallet",
          "name": "_wallet",
          "type": "address"
        }
      ],
      "name": "getLocker",
      "outputs": [
        {
          "internalType": "address",
          "name": "",
          "type": "address"
        }
      ],
      "payable": false,
      "stateMutability": "view",
      "type": "function"
    }
  ],
  "bytecode": "0x608060405234801561001057600080fd5b506110e8806100206000396000f3fe608060405234801561001057600080fd5b50600436106100935760003560e01c8063919884bf11610066578063919884bf14610208578063b0fc29e61461028c578063c6845210146102da578063d4ee97341461033e578063f18858ab146103ba57610093565b80631d97d8cc146100985780634a4fbeec146100fc5780635040fb76146101585780636b9db4e6146101b0575b600080fd5b6100fa600480360360408110156100ae57600080fd5b81019080803573ffffffffffffffffffffffffffffffffffffffff169060200190929190803573ffffffffffffffffffffffffffffffffffffffff169060200190929190505050610453565b005b61013e6004803603602081101561011257600080fd5b81019080803573ffffffffffffffffffffffffffffffffffffffff169060200190929190505050610804565b604051808215151515815260200191505060405180910390f35b61019a6004803603602081101561016e57600080fd5b81019080803573ffffffffffffffffffffffffffffffffffffffff169060200190929190505050610851565b6040518082815260200191505060405180910390f35b6101f2600480360360208110156101c657600080fd5b81019080803573ffffffffffffffffffffffffffffffffffffffff16906020019092919050505061089f565b6040518082815260200191505060405180910390f35b61024a6004803603602081101561021e57600080fd5b81019080803573ffffffffffffffffffffffffffffffffffffffff1690602001909291905050506108ea565b604051808273ffffffffffffffffffffffffffffffffffffffff1673ffffffffffffffffffffffffffffffffffffffff16815260200191505060405180910390f35b6102d8600480360360408110156102a257600080fd5b81019080803573ffffffffffffffffffffffffffffffffffffffff16906020019092919080359060200190929190505050610955565b005b61033c600480360360408110156102f057600080fd5b81019080803573ffffffffffffffffffffffffffffffffffffffff169060200190929190803573ffffffffffffffffffffffffffffffffffffffff169060200190929190505050610bd2565b005b6103a06004803603604081101561035457600080fd5b81019080803573ffffffffffffffffffffffffffffffffffffffff169060200190929190803573ffffffffffffffffffffffffffffffffffffffff169060200190929190505050610e69565b604051808215151515815260200191505060405180910390f35b6103fc600480360360208110156103d057600080fd5b81019080803573ffffffffffffffffffffffffffffffffffffffff169060200190929190505050610f02565b6040518080602001828103825283818151815260200191508051906020019060200280838360005b8381101561043f578082015181840152602081019050610424565b505050509050019250505060405180910390f35b818073ffffffffffffffffffffffffffffffffffffffff1663d6eb1bbf336040518263ffffffff1660e01b8152600401808273ffffffffffffffffffffffffffffffffffffffff1673ffffffffffffffffffffffffffffffffffffffff16815260200191505060206040518083038186803b1580156104d157600080fd5b505afa1580156104e5573d6000803e3d6000fd5b505050506040513d60208110156104fb57600080fd5b8101908080519060200190929190505050610561576040517f08c379a00000000000000000000000000000000000000000000000000000000081526004018080602001828103825260348152602001806110806034913960400191505060405180910390fd5b60008060008573ffffffffffffffffffffffffffffffffffffffff1673ffffffffffffffffffffffffffffffffffffffff16815260200190815260200160002090506000816000016001836000018054905003815481106105be57fe5b9060005260206000200160009054906101000a900473ffffffffffffffffffffffffffffffffffffffff1690508073ffffffffffffffffffffffffffffffffffffffff168473ffffffffffffffffffffffffffffffffffffffff161461076a5760008260010160008673ffffffffffffffffffffffffffffffffffffffff1673ffffffffffffffffffffffffffffffffffffffff16815260200190815260200160002060000160019054906101000a90046fffffffffffffffffffffffffffffffff1690508183600001826fffffffffffffffffffffffffffffffff16815481106106a557fe5b9060005260206000200160006101000a81548173ffffffffffffffffffffffffffffffffffffffff021916908373ffffffffffffffffffffffffffffffffffffffff160217905550808360010160008473ffffffffffffffffffffffffffffffffffffffff1673ffffffffffffffffffffffffffffffffffffffff16815260200190815260200160002060000160016101000a8154816fffffffffffffffffffffffffffffffff02191690836fffffffffffffffffffffffffffffffff160217905550505b81600001805480919060019003610781919061102e565b508160010160008573ffffffffffffffffffffffffffffffffffffffff1673ffffffffffffffffffffffffffffffffffffffff168152602001908152602001600020600080820160006101000a81549060ff02191690556000820160016101000a8154906fffffffffffffffffffffffffffffffff021916905550505050505050565b6000426000808473ffffffffffffffffffffffffffffffffffffffff1673ffffffffffffffffffffffffffffffffffffffff16815260200190815260200160002060020154119050919050565b60008060008373ffffffffffffffffffffffffffffffffffffffff1673ffffffffffffffffffffffffffffffffffffffff168152602001908152602001600020600001805490509050919050565b60008060008373ffffffffffffffffffffffffffffffffffffffff1673ffffffffffffffffffffffffffffffffffffffff168152602001908152602001600020600201549050919050565b60008060008373ffffffffffffffffffffffffffffffffffffffff1673ffffffffffffffffffffffffffffffffffffffff16815260200190815260200160002060030160009054906101000a900473ffffffffffffffffffffffffffffffffffffffff169050919050565b818073ffffffffffffffffffffffffffffffffffffffff1663d6eb1bbf336040518263ffffffff1660e01b8152600401808273ffffffffffffffffffffffffffffffffffffffff1673ffffffffffffffffffffffffffffffffffffffff16815260200191505060206040518083038186803b1580156109d357600080fd5b505afa1580156109e7573d6000803e3d6000fd5b505050506040513d60208110156109fd57600080fd5b8101908080519060200190929190505050610a63576040517f08c379a00000000000000000000000000000000000000000000000000000000081526004018080602001828103825260348152602001806110806034913960400191505060405180910390fd5b816000808573ffffffffffffffffffffffffffffffffffffffff1673ffffffffffffffffffffffffffffffffffffffff1681526020019081526020016000206002018190555060008214158015610b4757506000808473ffffffffffffffffffffffffffffffffffffffff1673ffffffffffffffffffffffffffffffffffffffff16815260200190815260200160002060030160009054906101000a900473ffffffffffffffffffffffffffffffffffffffff1673ffffffffffffffffffffffffffffffffffffffff163373ffffffffffffffffffffffffffffffffffffffff1614155b15610bcd57336000808573ffffffffffffffffffffffffffffffffffffffff1673ffffffffffffffffffffffffffffffffffffffff16815260200190815260200160002060030160006101000a81548173ffffffffffffffffffffffffffffffffffffffff021916908373ffffffffffffffffffffffffffffffffffffffff1602179055505b505050565b818073ffffffffffffffffffffffffffffffffffffffff1663d6eb1bbf336040518263ffffffff1660e01b8152600401808273ffffffffffffffffffffffffffffffffffffffff1673ffffffffffffffffffffffffffffffffffffffff16815260200191505060206040518083038186803b158015610c5057600080fd5b505afa158015610c64573d6000803e3d6000fd5b505050506040513d6020811015610c7a57600080fd5b8101908080519060200190929190505050610ce0576040517f08c379a00000000000000000000000000000000000000000000000000000000081526004018080602001828103825260348152602001806110806034913960400191505060405180910390fd5b60008060008573ffffffffffffffffffffffffffffffffffffffff1673ffffffffffffffffffffffffffffffffffffffff168152602001908152602001600020905060018160010160008573ffffffffffffffffffffffffffffffffffffffff1673ffffffffffffffffffffffffffffffffffffffff16815260200190815260200160002060000160006101000a81548160ff0219169083151502179055506001816000018490806001815401808255809150509060018203906000526020600020016000909192909190916101000a81548173ffffffffffffffffffffffffffffffffffffffff021916908373ffffffffffffffffffffffffffffffffffffffff160217905550038160010160008573ffffffffffffffffffffffffffffffffffffffff1673ffffffffffffffffffffffffffffffffffffffff16815260200190815260200160002060000160016101000a8154816fffffffffffffffffffffffffffffffff02191690836fffffffffffffffffffffffffffffffff16021790555050505050565b60008060008473ffffffffffffffffffffffffffffffffffffffff1673ffffffffffffffffffffffffffffffffffffffff16815260200190815260200160002060010160008373ffffffffffffffffffffffffffffffffffffffff1673ffffffffffffffffffffffffffffffffffffffff16815260200190815260200160002060000160009054906101000a900460ff16905092915050565b606060008060008473ffffffffffffffffffffffffffffffffffffffff1673ffffffffffffffffffffffffffffffffffffffff168152602001908152602001600020905060608160000180549050604051908082528060200260200182016040528015610f7e5781602001602082028038833980820191505090505b50905060008090505b826000018054905081101561102357826000018181548110610fa557fe5b9060005260206000200160009054906101000a900473ffffffffffffffffffffffffffffffffffffffff16828281518110610fdc57fe5b602002602001019073ffffffffffffffffffffffffffffffffffffffff16908173ffffffffffffffffffffffffffffffffffffffff16815250508080600101915050610f87565b508092505050919050565b81548183558181111561105557818360005260206000209182019101611054919061105a565b5b505050565b61107c91905b80821115611078576000816000905550600101611060565b5090565b9056fe54533a206d75737420626520616e20617574686f72697a6564206d6f64756c6520746f2063616c6c2074686973206d6574686f64a265627a7a7231582003d1a3bee8b7911a1b3b56b092b86faf378755a79809b7745b8e2c2de090abe664736f6c63430005100032",
  "source": "// Copyright (C) 2018  Argent Labs Ltd. <https://argent.xyz>\n\n// This program is free software: you can redistribute it and/or modify\n// it under the terms of the GNU General Public License as published by\n// the Free Software Foundation, either version 3 of the License, or\n// (at your option) any later version.\n\n// This program is distributed in the hope that it will be useful,\n// but WITHOUT ANY WARRANTY; without even the implied warranty of\n// MERCHANTABILITY or FITNESS FOR A PARTICULAR PURPOSE.  See the\n// GNU General Public License for more details.\n\n// You should have received a copy of the GNU General Public License\n// along with this program.  If not, see <http://www.gnu.org/licenses/>.\n\npragma solidity ^0.5.4;\nimport \"../wallet/BaseWallet.sol\";\nimport \"./Storage.sol\";\nimport \"./IGuardianStorage.sol\";\n\n/**\n * @title GuardianStorage\n * @dev Contract storing the state of wallets related to guardians and lock.\n * The contract only defines basic setters and getters with no logic. Only modules authorised\n * for a wallet can modify its state.\n * @author Julien Niset - <julien@argent.im>\n * @author Olivier Van Den Biggelaar - <olivier@argent.im>\n */\ncontract GuardianStorage is IGuardianStorage, Storage {\n\n    struct GuardianStorageConfig {\n        // the list of guardians\n        address[] guardians;\n        // the info about guardians\n        mapping (address => GuardianInfo) info;\n        // the lock's release timestamp\n        uint256 lock;\n        // the module that set the last lock\n        address locker;\n    }\n\n    struct GuardianInfo {\n        bool exists;\n        uint128 index;\n    }\n\n    // wallet specific storage\n    mapping (address => GuardianStorageConfig) internal configs;\n\n    // *************** External Functions ********************* //\n\n    /**\n     * @dev Lets an authorised module add a guardian to a wallet.\n     * @param _wallet The target wallet.\n     * @param _guardian The guardian to add.\n     */\n    function addGuardian(BaseWallet _wallet, address _guardian) external onlyModule(_wallet) {\n        GuardianStorageConfig storage config = configs[address(_wallet)];\n        config.info[_guardian].exists = true;\n        config.info[_guardian].index = uint128(config.guardians.push(_guardian) - 1);\n    }\n\n    /**\n     * @dev Lets an authorised module revoke a guardian from a wallet.\n     * @param _wallet The target wallet.\n     * @param _guardian The guardian to revoke.\n     */\n    function revokeGuardian(BaseWallet _wallet, address _guardian) external onlyModule(_wallet) {\n        GuardianStorageConfig storage config = configs[address(_wallet)];\n        address lastGuardian = config.guardians[config.guardians.length - 1];\n        if (_guardian != lastGuardian) {\n            uint128 targetIndex = config.info[_guardian].index;\n            config.guardians[targetIndex] = lastGuardian;\n            config.info[lastGuardian].index = targetIndex;\n        }\n        config.guardians.length--;\n        delete config.info[_guardian];\n    }\n\n    /**\n     * @dev Returns the number of guardians for a wallet.\n     * @param _wallet The target wallet.\n     * @return the number of guardians.\n     */\n    function guardianCount(BaseWallet _wallet) external view returns (uint256) {\n        return configs[address(_wallet)].guardians.length;\n    }\n\n    /**\n     * @dev Gets the list of guaridans for a wallet.\n     * @param _wallet The target wallet.\n     * @return the list of guardians.\n     */\n    function getGuardians(BaseWallet _wallet) external view returns (address[] memory) {\n        GuardianStorageConfig storage config = configs[address(_wallet)];\n        address[] memory guardians = new address[](config.guardians.length);\n        for (uint256 i = 0; i < config.guardians.length; i++) {\n            guardians[i] = config.guardians[i];\n        }\n        return guardians;\n    }\n\n    /**\n     * @dev Checks if an account is a guardian for a wallet.\n     * @param _wallet The target wallet.\n     * @param _guardian The account.\n     * @return true if the account is a guardian for a wallet.\n     */\n    function isGuardian(BaseWallet _wallet, address _guardian) external view returns (bool) {\n        return configs[address(_wallet)].info[_guardian].exists;\n    }\n\n    /**\n     * @dev Lets an authorised module set the lock for a wallet.\n     * @param _wallet The target wallet.\n     * @param _releaseAfter The epoch time at which the lock should automatically release.\n     */\n    function setLock(BaseWallet _wallet, uint256 _releaseAfter) external onlyModule(_wallet) {\n        configs[address(_wallet)].lock = _releaseAfter;\n        if (_releaseAfter != 0 && msg.sender != configs[address(_wallet)].locker) {\n            configs[address(_wallet)].locker = msg.sender;\n        }\n    }\n\n    /**\n     * @dev Checks if the lock is set for a wallet.\n     * @param _wallet The target wallet.\n     * @return true if the lock is set for the wallet.\n     */\n    function isLocked(BaseWallet _wallet) external view returns (bool) {\n        return configs[address(_wallet)].lock > now;\n    }\n\n    /**\n     * @dev Gets the time at which the lock of a wallet will release.\n     * @param _wallet The target wallet.\n     * @return the time at which the lock of a wallet will release, or zero if there is no lock set.\n     */\n    function getLock(BaseWallet _wallet) external view returns (uint256) {\n        return configs[address(_wallet)].lock;\n    }\n\n    /**\n     * @dev Gets the address of the last module that modified the lock for a wallet.\n     * @param _wallet The target wallet.\n     * @return the address of the last module that modified the lock for a wallet.\n     */\n    function getLocker(BaseWallet _wallet) external view returns (address) {\n        return configs[address(_wallet)].locker;\n    }\n}",
  "sourcePath": "/Users/name/dev/argent-contracts-release-1.5.0/contracts/storage/GuardianStorage.sol",
  "compiler": {
    "name": "solc",
    "version": "0.5.16+commit.9c3226ce.Emscripten.clang"
  },
  "schemaVersion": "3.0.23",
  "updatedAt": "2020-03-31T19:52:06.590Z",
  "devdoc": {
    "author": "Julien Niset - <julien@argent.im>Olivier Van Den Biggelaar - <olivier@argent.im>",
    "details": "Contract storing the state of wallets related to guardians and lock. The contract only defines basic setters and getters with no logic. Only modules authorised for a wallet can modify its state.",
    "methods": {
      "addGuardian(address,address)": {
        "details": "Lets an authorised module add a guardian to a wallet.",
        "params": {
          "_guardian": "The guardian to add.",
          "_wallet": "The target wallet."
        }
      },
      "getGuardians(address)": {
        "details": "Gets the list of guaridans for a wallet.",
        "params": {
          "_wallet": "The target wallet."
        },
        "return": "the list of guardians."
      },
      "getLock(address)": {
        "details": "Gets the time at which the lock of a wallet will release.",
        "params": {
          "_wallet": "The target wallet."
        },
        "return": "the time at which the lock of a wallet will release, or zero if there is no lock set."
      },
      "getLocker(address)": {
        "details": "Gets the address of the last module that modified the lock for a wallet.",
        "params": {
          "_wallet": "The target wallet."
        },
        "return": "the address of the last module that modified the lock for a wallet."
      },
      "guardianCount(address)": {
        "details": "Returns the number of guardians for a wallet.",
        "params": {
          "_wallet": "The target wallet."
        },
        "return": "the number of guardians."
      },
      "isGuardian(address,address)": {
        "details": "Checks if an account is a guardian for a wallet.",
        "params": {
          "_guardian": "The account.",
          "_wallet": "The target wallet."
        },
        "return": "true if the account is a guardian for a wallet."
      },
      "isLocked(address)": {
        "details": "Checks if the lock is set for a wallet.",
        "params": {
          "_wallet": "The target wallet."
        },
        "return": "true if the lock is set for the wallet."
      },
      "revokeGuardian(address,address)": {
        "details": "Lets an authorised module revoke a guardian from a wallet.",
        "params": {
          "_guardian": "The guardian to revoke.",
          "_wallet": "The target wallet."
        }
      },
      "setLock(address,uint256)": {
        "details": "Lets an authorised module set the lock for a wallet.",
        "params": {
          "_releaseAfter": "The epoch time at which the lock should automatically release.",
          "_wallet": "The target wallet."
        }
      }
    },
    "title": "GuardianStorage"
  },
  "userdoc": {
    "methods": {}
  }
}