{
  "contractName": "GuardianManager",
  "abi": [
    {
      "inputs": [
        {
          "internalType": "contract ModuleRegistry",
          "name": "_registry",
          "type": "address"
        },
        {
          "internalType": "contract GuardianStorage",
          "name": "_guardianStorage",
          "type": "address"
        },
        {
          "internalType": "uint256",
          "name": "_securityPeriod",
          "type": "uint256"
        },
        {
          "internalType": "uint256",
          "name": "_securityWindow",
          "type": "uint256"
        }
      ],
      "payable": false,
      "stateMutability": "nonpayable",
      "type": "constructor"
    },
    {
      "anonymous": false,
      "inputs": [
        {
          "indexed": true,
          "internalType": "address",
          "name": "wallet",
          "type": "address"
        },
        {
          "indexed": true,
          "internalType": "address",
          "name": "guardian",
          "type": "address"
        }
      ],
      "name": "GuardianAdded",
      "type": "event"
    },
    {
      "anonymous": false,
      "inputs": [
        {
          "indexed": true,
          "internalType": "address",
          "name": "wallet",
          "type": "address"
        },
        {
          "indexed": true,
          "internalType": "address",
          "name": "guardian",
          "type": "address"
        }
      ],
      "name": "GuardianAdditionCancelled",
      "type": "event"
    },
    {
      "anonymous": false,
      "inputs": [
        {
          "indexed": true,
          "internalType": "address",
          "name": "wallet",
          "type": "address"
        },
        {
          "indexed": true,
          "internalType": "address",
          "name": "guardian",
          "type": "address"
        },
        {
          "indexed": false,
          "internalType": "uint256",
          "name": "executeAfter",
          "type": "uint256"
        }
      ],
      "name": "GuardianAdditionRequested",
      "type": "event"
    },
    {
      "anonymous": false,
      "inputs": [
        {
          "indexed": true,
          "internalType": "address",
          "name": "wallet",
          "type": "address"
        },
        {
          "indexed": true,
          "internalType": "address",
          "name": "guardian",
          "type": "address"
        }
      ],
      "name": "GuardianRevokationCancelled",
      "type": "event"
    },
    {
      "anonymous": false,
      "inputs": [
        {
          "indexed": true,
          "internalType": "address",
          "name": "wallet",
          "type": "address"
        },
        {
          "indexed": true,
          "internalType": "address",
          "name": "guardian",
          "type": "address"
        },
        {
          "indexed": false,
          "internalType": "uint256",
          "name": "executeAfter",
          "type": "uint256"
        }
      ],
      "name": "GuardianRevokationRequested",
      "type": "event"
    },
    {
      "anonymous": false,
      "inputs": [
        {
          "indexed": true,
          "internalType": "address",
          "name": "wallet",
          "type": "address"
        },
        {
          "indexed": true,
          "internalType": "address",
          "name": "guardian",
          "type": "address"
        }
      ],
      "name": "GuardianRevoked",
      "type": "event"
    },
    {
      "anonymous": false,
      "inputs": [
        {
          "indexed": false,
          "internalType": "bytes32",
          "name": "name",
          "type": "bytes32"
        }
      ],
      "name": "ModuleCreated",
      "type": "event"
    },
    {
      "anonymous": false,
      "inputs": [
        {
          "indexed": false,
          "internalType": "address",
          "name": "wallet",
          "type": "address"
        }
      ],
      "name": "ModuleInitialised",
      "type": "event"
    },
    {
      "anonymous": false,
      "inputs": [
        {
          "indexed": true,
          "internalType": "address",
          "name": "wallet",
          "type": "address"
        },
        {
          "indexed": true,
          "internalType": "bool",
          "name": "success",
          "type": "bool"
        },
        {
          "indexed": false,
          "internalType": "bytes32",
          "name": "signedHash",
          "type": "bytes32"
        }
      ],
      "name": "TransactionExecuted",
      "type": "event"
    },
    {
      "constant": false,
      "inputs": [
        {
          "internalType": "contract BaseWallet",
          "name": "_wallet",
          "type": "address"
        },
        {
          "internalType": "contract Module",
          "name": "_module",
          "type": "address"
        }
      ],
      "name": "addModule",
      "outputs": [],
      "payable": false,
      "stateMutability": "nonpayable",
      "type": "function"
    },
    {
      "constant": false,
      "inputs": [
        {
          "internalType": "contract BaseWallet",
          "name": "_wallet",
          "type": "address"
        },
        {
          "internalType": "bytes",
          "name": "_data",
          "type": "bytes"
        },
        {
          "internalType": "uint256",
          "name": "_nonce",
          "type": "uint256"
        },
        {
          "internalType": "bytes",
          "name": "_signatures",
          "type": "bytes"
        },
        {
          "internalType": "uint256",
          "name": "_gasPrice",
          "type": "uint256"
        },
        {
          "internalType": "uint256",
          "name": "_gasLimit",
          "type": "uint256"
        }
      ],
      "name": "execute",
      "outputs": [
        {
          "internalType": "bool",
          "name": "success",
          "type": "bool"
        }
      ],
      "payable": false,
      "stateMutability": "nonpayable",
      "type": "function"
    },
    {
      "constant": true,
      "inputs": [
        {
          "internalType": "contract BaseWallet",
          "name": "_wallet",
          "type": "address"
        }
      ],
      "name": "getNonce",
      "outputs": [
        {
          "internalType": "uint256",
          "name": "nonce",
          "type": "uint256"
        }
      ],
      "payable": false,
      "stateMutability": "view",
      "type": "function"
    },
    {
      "constant": false,
      "inputs": [
        {
          "internalType": "contract BaseWallet",
          "name": "_wallet",
          "type": "address"
        }
      ],
      "name": "init",
      "outputs": [],
      "payable": false,
      "stateMutability": "nonpayable",
      "type": "function"
    },
    {
      "constant": false,
      "inputs": [
        {
          "internalType": "address",
          "name": "_token",
          "type": "address"
        }
      ],
      "name": "recoverToken",
      "outputs": [],
      "payable": false,
      "stateMutability": "nonpayable",
      "type": "function"
    },
    {
      "constant": true,
      "inputs": [
        {
          "internalType": "address",
          "name": "",
          "type": "address"
        }
      ],
      "name": "relayer",
      "outputs": [
        {
          "internalType": "uint256",
          "name": "nonce",
          "type": "uint256"
        }
      ],
      "payable": false,
      "stateMutability": "view",
      "type": "function"
    },
    {
      "constant": true,
      "inputs": [],
      "name": "securityPeriod",
      "outputs": [
        {
          "internalType": "uint256",
          "name": "",
          "type": "uint256"
        }
      ],
      "payable": false,
      "stateMutability": "view",
      "type": "function"
    },
    {
      "constant": true,
      "inputs": [],
      "name": "securityWindow",
      "outputs": [
        {
          "internalType": "uint256",
          "name": "",
          "type": "uint256"
        }
      ],
      "payable": false,
      "stateMutability": "view",
      "type": "function"
    },
    {
      "constant": false,
      "inputs": [
        {
          "internalType": "contract BaseWallet",
          "name": "_wallet",
          "type": "address"
        },
        {
          "internalType": "address",
          "name": "_guardian",
          "type": "address"
        }
      ],
      "name": "addGuardian",
      "outputs": [],
      "payable": false,
      "stateMutability": "nonpayable",
      "type": "function"
    },
    {
      "constant": false,
      "inputs": [
        {
          "internalType": "contract BaseWallet",
          "name": "_wallet",
          "type": "address"
        },
        {
          "internalType": "address",
          "name": "_guardian",
          "type": "address"
        }
      ],
      "name": "confirmGuardianAddition",
      "outputs": [],
      "payable": false,
      "stateMutability": "nonpayable",
      "type": "function"
    },
    {
      "constant": false,
      "inputs": [
        {
          "internalType": "contract BaseWallet",
          "name": "_wallet",
          "type": "address"
        },
        {
          "internalType": "address",
          "name": "_guardian",
          "type": "address"
        }
      ],
      "name": "cancelGuardianAddition",
      "outputs": [],
      "payable": false,
      "stateMutability": "nonpayable",
      "type": "function"
    },
    {
      "constant": false,
      "inputs": [
        {
          "internalType": "contract BaseWallet",
          "name": "_wallet",
          "type": "address"
        },
        {
          "internalType": "address",
          "name": "_guardian",
          "type": "address"
        }
      ],
      "name": "revokeGuardian",
      "outputs": [],
      "payable": false,
      "stateMutability": "nonpayable",
      "type": "function"
    },
    {
      "constant": false,
      "inputs": [
        {
          "internalType": "contract BaseWallet",
          "name": "_wallet",
          "type": "address"
        },
        {
          "internalType": "address",
          "name": "_guardian",
          "type": "address"
        }
      ],
      "name": "confirmGuardianRevokation",
      "outputs": [],
      "payable": false,
      "stateMutability": "nonpayable",
      "type": "function"
    },
    {
      "constant": false,
      "inputs": [
        {
          "internalType": "contract BaseWallet",
          "name": "_wallet",
          "type": "address"
        },
        {
          "internalType": "address",
          "name": "_guardian",
          "type": "address"
        }
      ],
      "name": "cancelGuardianRevokation",
      "outputs": [],
      "payable": false,
      "stateMutability": "nonpayable",
      "type": "function"
    },
    {
      "constant": true,
      "inputs": [
        {
          "internalType": "contract BaseWallet",
          "name": "_wallet",
          "type": "address"
        },
        {
          "internalType": "address",
          "name": "_guardian",
          "type": "address"
        }
      ],
      "name": "isGuardian",
      "outputs": [
        {
          "internalType": "bool",
          "name": "_isGuardian",
          "type": "bool"
        }
      ],
      "payable": false,
      "stateMutability": "view",
      "type": "function"
    },
    {
      "constant": true,
      "inputs": [
        {
          "internalType": "contract BaseWallet",
          "name": "_wallet",
          "type": "address"
        }
      ],
      "name": "guardianCount",
      "outputs": [
        {
          "internalType": "uint256",
          "name": "_count",
          "type": "uint256"
        }
      ],
      "payable": false,
      "stateMutability": "view",
      "type": "function"
    },
    {
      "constant": true,
      "inputs": [
        {
          "internalType": "contract BaseWallet",
          "name": "_wallet",
          "type": "address"
        }
      ],
      "name": "getGuardians",
      "outputs": [
        {
          "internalType": "address[]",
          "name": "_guardians",
          "type": "address[]"
        }
      ],
      "payable": false,
      "stateMutability": "view",
      "type": "function"
    }
  ],
  "bytecode": "0x608060405234801561001057600080fd5b506040516143323803806143328339818101604052608081101561003357600080fd5b810190808051906020019092919080519060200190929190805190602001909291908051906020019092919050505083837f477561726469616e4d616e616765720000000000000000000000000000000000826000806101000a81548173ffffffffffffffffffffffffffffffffffffffff021916908373ffffffffffffffffffffffffffffffffffffffff16021790555081600160006101000a81548173ffffffffffffffffffffffffffffffffffffffff021916908373ffffffffffffffffffffffffffffffffffffffff1602179055507f3019c8fc80239e3dff8f781212ae2004839c2cb61d6c70acd279ac65392145df816040518082815260200191505060405180910390a15050508160048190555080600581905550505050506141d1806101616000396000f3fe608060405234801561001057600080fd5b506004361061010a5760003560e01c806370135f52116100a2578063aacaaf8811610071578063aacaaf88146104db578063c6845210146105ff578063c9b5ef8e14610663578063d4ee9734146106bb578063f18858ab146107375761010a565b806370135f52146103b15780637cc0d906146104155780639be65a6014610433578063a6eb0690146104775761010a565b80632d0335ab116100de5780632d0335ab146102395780634b3ef054146102915780635040fb76146102f55780635a1db8c41461034d5761010a565b80626fda351461010f57806319ab453c1461012d5780631d97d8cc146101715780632960739b146101d5575b600080fd5b6101176107d0565b6040518082815260200191505060405180910390f35b61016f6004803603602081101561014357600080fd5b81019080803573ffffffffffffffffffffffffffffffffffffffff1690602001909291905050506107d6565b005b6101d36004803603604081101561018757600080fd5b81019080803573ffffffffffffffffffffffffffffffffffffffff169060200190929190803573ffffffffffffffffffffffffffffffffffffffff1690602001909291905050506108df565b005b610237600480360360408110156101eb57600080fd5b81019080803573ffffffffffffffffffffffffffffffffffffffff169060200190929190803573ffffffffffffffffffffffffffffffffffffffff169060200190929190505050610c0c565b005b61027b6004803603602081101561024f57600080fd5b81019080803573ffffffffffffffffffffffffffffffffffffffff169060200190929190505050610fd5565b6040518082815260200191505060405180910390f35b6102f3600480360360408110156102a757600080fd5b81019080803573ffffffffffffffffffffffffffffffffffffffff169060200190929190803573ffffffffffffffffffffffffffffffffffffffff169060200190929190505050611021565b005b6103376004803603602081101561030b57600080fd5b81019080803573ffffffffffffffffffffffffffffffffffffffff1690602001909291905050506113cf565b6040518082815260200191505060405180910390f35b6103af6004803603604081101561036357600080fd5b81019080803573ffffffffffffffffffffffffffffffffffffffff169060200190929190803573ffffffffffffffffffffffffffffffffffffffff1690602001909291905050506114b2565b005b610413600480360360408110156103c757600080fd5b81019080803573ffffffffffffffffffffffffffffffffffffffff169060200190929190803573ffffffffffffffffffffffffffffffffffffffff169060200190929190505050611706565b005b61041d611c03565b6040518082815260200191505060405180910390f35b6104756004803603602081101561044957600080fd5b81019080803573ffffffffffffffffffffffffffffffffffffffff169060200190929190505050611c09565b005b6104d96004803603604081101561048d57600080fd5b81019080803573ffffffffffffffffffffffffffffffffffffffff169060200190929190803573ffffffffffffffffffffffffffffffffffffffff169060200190929190505050611dad565b005b6105e5600480360360c08110156104f157600080fd5b81019080803573ffffffffffffffffffffffffffffffffffffffff1690602001909291908035906020019064010000000081111561052e57600080fd5b82018360208201111561054057600080fd5b8035906020019184600183028401116401000000008311171561056257600080fd5b9091929391929390803590602001909291908035906020019064010000000081111561058d57600080fd5b82018360208201111561059f57600080fd5b803590602001918460018302840111640100000000831117156105c157600080fd5b90919293919293908035906020019092919080359060200190929190505050612176565b604051808215151515815260200191505060405180910390f35b6106616004803603604081101561061557600080fd5b81019080803573ffffffffffffffffffffffffffffffffffffffff169060200190929190803573ffffffffffffffffffffffffffffffffffffffff1690602001909291905050506124f2565b005b6106a56004803603602081101561067957600080fd5b81019080803573ffffffffffffffffffffffffffffffffffffffff169060200190929190505050612d93565b6040518082815260200191505060405180910390f35b61071d600480360360408110156106d157600080fd5b81019080803573ffffffffffffffffffffffffffffffffffffffff169060200190929190803573ffffffffffffffffffffffffffffffffffffffff169060200190929190505050612db1565b604051808215151515815260200191505060405180910390f35b6107796004803603602081101561074d57600080fd5b81019080803573ffffffffffffffffffffffffffffffffffffffff169060200190929190505050612f3b565b6040518080602001828103825283818151815260200191508051906020019060200280838360005b838110156107bc5780820151818401526020810190506107a1565b505050509050019250505060405180910390f35b60055481565b808073ffffffffffffffffffffffffffffffffffffffff163373ffffffffffffffffffffffffffffffffffffffff1614610878576040517f08c379a00000000000000000000000000000000000000000000000000000000081526004018080602001828103825260198152602001807f424d3a2063616c6c6572206d7573742062652077616c6c65740000000000000081525060200191505060405180910390fd5b7f9fcca3f73f85397e2bf03647abf243c20b753bd54463ff3cae74de2971c112fa82604051808273ffffffffffffffffffffffffffffffffffffffff1673ffffffffffffffffffffffffffffffffffffffff16815260200191505060405180910390a15050565b813073ffffffffffffffffffffffffffffffffffffffff163373ffffffffffffffffffffffffffffffffffffffff161480610920575061091f81336130b8565b5b610975576040517f08c379a00000000000000000000000000000000000000000000000000000000081526004018080602001828103825260238152602001806140f16023913960400191505060405180910390fd5b61097f8383612db1565b6109f1576040517f08c379a00000000000000000000000000000000000000000000000000000000081526004018080602001828103825260208152602001807f474d3a206d75737420626520616e206578697374696e6720677561726469616e81525060200191505060405180910390fd5b60008383604051602001808373ffffffffffffffffffffffffffffffffffffffff1673ffffffffffffffffffffffffffffffffffffffff1660601b81526014018273ffffffffffffffffffffffffffffffffffffffff1673ffffffffffffffffffffffffffffffffffffffff1660601b8152601401807f7265766f6b6174696f6e00000000000000000000000000000000000000000000815250600a01925050506040516020818303038152906040528051906020012090506000600360008673ffffffffffffffffffffffffffffffffffffffff1673ffffffffffffffffffffffffffffffffffffffff16815260200190815260200160002090506000816000016000848152602001908152602001600020541480610b295750600554816000016000848152602001908152602001600020540142115b610b7e576040517f08c379a0000000000000000000000000000000000000000000000000000000008152600401808060200182810382526037815260200180613f666037913960400191505060405180910390fd5b6004544201816000016000848152602001908152602001600020819055508373ffffffffffffffffffffffffffffffffffffffff168573ffffffffffffffffffffffffffffffffffffffff167f9746f6868f544595794833da53250bd19e72334733336cfd5dd6fbc5f6a6ac4260045442016040518082815260200191505060405180910390a35050505050565b813073ffffffffffffffffffffffffffffffffffffffff163373ffffffffffffffffffffffffffffffffffffffff161480610c4d5750610c4c81336130b8565b5b610ca2576040517f08c379a00000000000000000000000000000000000000000000000000000000081526004018080602001828103825260238152602001806140f16023913960400191505060405180910390fd5b82600160009054906101000a900473ffffffffffffffffffffffffffffffffffffffff1673ffffffffffffffffffffffffffffffffffffffff16634a4fbeec826040518263ffffffff1660e01b8152600401808273ffffffffffffffffffffffffffffffffffffffff1673ffffffffffffffffffffffffffffffffffffffff16815260200191505060206040518083038186803b158015610d4257600080fd5b505afa158015610d56573d6000803e3d6000fd5b505050506040513d6020811015610d6c57600080fd5b810190808051906020019092919050505015610df0576040517f08c379a000000000000000000000000000000000000000000000000000000000815260040180806020018281038252601b8152602001807f424d3a2077616c6c6574206d75737420626520756e6c6f636b6564000000000081525060200191505060405180910390fd5b60008484604051602001808373ffffffffffffffffffffffffffffffffffffffff1673ffffffffffffffffffffffffffffffffffffffff1660601b81526014018273ffffffffffffffffffffffffffffffffffffffff1673ffffffffffffffffffffffffffffffffffffffff1660601b8152601401807f7265766f6b6174696f6e00000000000000000000000000000000000000000000815250600a01925050506040516020818303038152906040528051906020012090506000600360008773ffffffffffffffffffffffffffffffffffffffff1673ffffffffffffffffffffffffffffffffffffffff168152602001908152602001600020905060008160000160008481526020019081526020016000205411610f5a576040517f08c379a000000000000000000000000000000000000000000000000000000000815260040180806020018281038252602d815260200180613eef602d913960400191505060405180910390fd5b806000016000838152602001908152602001600020600090558473ffffffffffffffffffffffffffffffffffffffff168673ffffffffffffffffffffffffffffffffffffffff167fc0b205956d5e27c296695de329b5a014584a4f51824b1725a0eefc1174d6dbd560405160405180910390a3505050505050565b6000600260008373ffffffffffffffffffffffffffffffffffffffff1673ffffffffffffffffffffffffffffffffffffffff168152602001908152602001600020600001549050919050565b60008282604051602001808373ffffffffffffffffffffffffffffffffffffffff1673ffffffffffffffffffffffffffffffffffffffff1660601b81526014018273ffffffffffffffffffffffffffffffffffffffff1673ffffffffffffffffffffffffffffffffffffffff1660601b8152601401807f7265766f6b6174696f6e00000000000000000000000000000000000000000000815250600a01925050506040516020818303038152906040528051906020012090506000600360008573ffffffffffffffffffffffffffffffffffffffff1673ffffffffffffffffffffffffffffffffffffffff16815260200190815260200160002090506000816000016000848152602001908152602001600020541161118b576040517f08c379a000000000000000000000000000000000000000000000000000000000815260040180806020018281038252602d815260200180613eef602d913960400191505060405180910390fd5b4281600001600084815260200190815260200160002054106111f8576040517f08c379a000000000000000000000000000000000000000000000000000000000815260040180806020018281038252602c81526020018061406d602c913960400191505060405180910390fd5b60055481600001600084815260200190815260200160002054014210611269576040517f08c379a000000000000000000000000000000000000000000000000000000000815260040180806020018281038252602b815260200180614172602b913960400191505060405180910390fd5b600160009054906101000a900473ffffffffffffffffffffffffffffffffffffffff1673ffffffffffffffffffffffffffffffffffffffff16631d97d8cc85856040518363ffffffff1660e01b8152600401808373ffffffffffffffffffffffffffffffffffffffff1673ffffffffffffffffffffffffffffffffffffffff1681526020018273ffffffffffffffffffffffffffffffffffffffff1673ffffffffffffffffffffffffffffffffffffffff16815260200192505050600060405180830381600087803b15801561133e57600080fd5b505af1158015611352573d6000803e3d6000fd5b50505050806000016000838152602001908152602001600020600090558273ffffffffffffffffffffffffffffffffffffffff168473ffffffffffffffffffffffffffffffffffffffff167f548f10dcba266544123ad8cf8284f25c4baa659cba25dbdf16a06ea11235de9b60405160405180910390a350505050565b6000600160009054906101000a900473ffffffffffffffffffffffffffffffffffffffff1673ffffffffffffffffffffffffffffffffffffffff16635040fb76836040518263ffffffff1660e01b8152600401808273ffffffffffffffffffffffffffffffffffffffff1673ffffffffffffffffffffffffffffffffffffffff16815260200191505060206040518083038186803b15801561147057600080fd5b505afa158015611484573d6000803e3d6000fd5b505050506040513d602081101561149a57600080fd5b81019080805190602001909291905050509050919050565b816114bd81336130b8565b611512576040517f08c379a000000000000000000000000000000000000000000000000000000000815260040180806020018281038252602e815260200180613f9d602e913960400191505060405180910390fd5b6000809054906101000a900473ffffffffffffffffffffffffffffffffffffffff1673ffffffffffffffffffffffffffffffffffffffff16630bcd4ebb836040518263ffffffff1660e01b8152600401808273ffffffffffffffffffffffffffffffffffffffff1673ffffffffffffffffffffffffffffffffffffffff16815260200191505060206040518083038186803b1580156115b057600080fd5b505afa1580156115c4573d6000803e3d6000fd5b505050506040513d60208110156115da57600080fd5b810190808051906020019092919050505061165d576040517f08c379a000000000000000000000000000000000000000000000000000000000815260040180806020018281038252601c8152602001807f424d3a206d6f64756c65206973206e6f7420726567697374657265640000000081525060200191505060405180910390fd5b8273ffffffffffffffffffffffffffffffffffffffff16631f17732d8360016040518363ffffffff1660e01b8152600401808373ffffffffffffffffffffffffffffffffffffffff1673ffffffffffffffffffffffffffffffffffffffff1681526020018215151515815260200192505050600060405180830381600087803b1580156116e957600080fd5b505af11580156116fd573d6000803e3d6000fd5b50505050505050565b81600160009054906101000a900473ffffffffffffffffffffffffffffffffffffffff1673ffffffffffffffffffffffffffffffffffffffff16634a4fbeec826040518263ffffffff1660e01b8152600401808273ffffffffffffffffffffffffffffffffffffffff1673ffffffffffffffffffffffffffffffffffffffff16815260200191505060206040518083038186803b1580156117a657600080fd5b505afa1580156117ba573d6000803e3d6000fd5b505050506040513d60208110156117d057600080fd5b810190808051906020019092919050505015611854576040517f08c379a000000000000000000000000000000000000000000000000000000000815260040180806020018281038252601b8152602001807f424d3a2077616c6c6574206d75737420626520756e6c6f636b6564000000000081525060200191505060405180910390fd5b60008383604051602001808373ffffffffffffffffffffffffffffffffffffffff1673ffffffffffffffffffffffffffffffffffffffff1660601b81526014018273ffffffffffffffffffffffffffffffffffffffff1673ffffffffffffffffffffffffffffffffffffffff1660601b8152601401807f6164646974696f6e000000000000000000000000000000000000000000000000815250600801925050506040516020818303038152906040528051906020012090506000600360008673ffffffffffffffffffffffffffffffffffffffff1673ffffffffffffffffffffffffffffffffffffffff1681526020019081526020016000209050600081600001600084815260200190815260200160002054116119be576040517f08c379a000000000000000000000000000000000000000000000000000000000815260040180806020018281038252602e815260200180614099602e913960400191505060405180910390fd5b428160000160008481526020019081526020016000205410611a2b576040517f08c379a000000000000000000000000000000000000000000000000000000000815260040180806020018281038252602a8152602001806140c7602a913960400191505060405180910390fd5b60055481600001600084815260200190815260200160002054014210611a9c576040517f08c379a00000000000000000000000000000000000000000000000000000000081526004018080602001828103825260298152602001806141146029913960400191505060405180910390fd5b600160009054906101000a900473ffffffffffffffffffffffffffffffffffffffff1673ffffffffffffffffffffffffffffffffffffffff1663c684521086866040518363ffffffff1660e01b8152600401808373ffffffffffffffffffffffffffffffffffffffff1673ffffffffffffffffffffffffffffffffffffffff1681526020018273ffffffffffffffffffffffffffffffffffffffff1673ffffffffffffffffffffffffffffffffffffffff16815260200192505050600060405180830381600087803b158015611b7157600080fd5b505af1158015611b85573d6000803e3d6000fd5b50505050806000016000838152602001908152602001600020600090558373ffffffffffffffffffffffffffffffffffffffff168573ffffffffffffffffffffffffffffffffffffffff167fbc3292102fa77e083913064b282926717cdfaede4d35f553d66366c0a3da755a60405160405180910390a35050505050565b60045481565b60008173ffffffffffffffffffffffffffffffffffffffff166370a08231306040518263ffffffff1660e01b8152600401808273ffffffffffffffffffffffffffffffffffffffff1673ffffffffffffffffffffffffffffffffffffffff16815260200191505060206040518083038186803b158015611c8857600080fd5b505afa158015611c9c573d6000803e3d6000fd5b505050506040513d6020811015611cb257600080fd5b810190808051906020019092919050505090508173ffffffffffffffffffffffffffffffffffffffff1663a9059cbb6000809054906101000a900473ffffffffffffffffffffffffffffffffffffffff16836040518363ffffffff1660e01b8152600401808373ffffffffffffffffffffffffffffffffffffffff1673ffffffffffffffffffffffffffffffffffffffff16815260200182815260200192505050602060405180830381600087803b158015611d6d57600080fd5b505af1158015611d81573d6000803e3d6000fd5b505050506040513d6020811015611d9757600080fd5b8101908080519060200190929190505050505050565b813073ffffffffffffffffffffffffffffffffffffffff163373ffffffffffffffffffffffffffffffffffffffff161480611dee5750611ded81336130b8565b5b611e43576040517f08c379a00000000000000000000000000000000000000000000000000000000081526004018080602001828103825260238152602001806140f16023913960400191505060405180910390fd5b82600160009054906101000a900473ffffffffffffffffffffffffffffffffffffffff1673ffffffffffffffffffffffffffffffffffffffff16634a4fbeec826040518263ffffffff1660e01b8152600401808273ffffffffffffffffffffffffffffffffffffffff1673ffffffffffffffffffffffffffffffffffffffff16815260200191505060206040518083038186803b158015611ee357600080fd5b505afa158015611ef7573d6000803e3d6000fd5b505050506040513d6020811015611f0d57600080fd5b810190808051906020019092919050505015611f91576040517f08c379a000000000000000000000000000000000000000000000000000000000815260040180806020018281038252601b8152602001807f424d3a2077616c6c6574206d75737420626520756e6c6f636b6564000000000081525060200191505060405180910390fd5b60008484604051602001808373ffffffffffffffffffffffffffffffffffffffff1673ffffffffffffffffffffffffffffffffffffffff1660601b81526014018273ffffffffffffffffffffffffffffffffffffffff1673ffffffffffffffffffffffffffffffffffffffff1660601b8152601401807f6164646974696f6e000000000000000000000000000000000000000000000000815250600801925050506040516020818303038152906040528051906020012090506000600360008773ffffffffffffffffffffffffffffffffffffffff1673ffffffffffffffffffffffffffffffffffffffff1681526020019081526020016000209050600081600001600084815260200190815260200160002054116120fb576040517f08c379a000000000000000000000000000000000000000000000000000000000815260040180806020018281038252602e815260200180614099602e913960400191505060405180910390fd5b806000016000838152602001908152602001600020600090558473ffffffffffffffffffffffffffffffffffffffff168673ffffffffffffffffffffffffffffffffffffffff167faa13b27c23e9e3f3d5f3861a53b7a2931e019170a6a19ed64942e26a1dd5987a60405160405180910390a3505050505050565b6000805a905060006121d2308c60008d8d8080601f016020809104026020016040519081016040528093929190818152602001838380828437600081840152601f19601f820116905080830192505050505050508c8a8a613171565b90506121df8b898361336e565b612251576040517f08c379a00000000000000000000000000000000000000000000000000000000081526004018080602001828103825260158152602001807f524d3a204475706c69636174652072657175657374000000000000000000000081525060200191505060405180910390fd5b61229f8b8b8b8080601f016020809104026020016040519081016040528093929190818152602001838380828437600081840152601f19601f82011690508083019250505050505050613383565b6122f4576040517f08c379a000000000000000000000000000000000000000000000000000000000815260040180806020018281038252604a815260200180613f1c604a913960600191505060405180910390fd5b60006123448c8c8c8080601f016020809104026020016040519081016040528093929190818152602001838380828437600081840152601f19601f8201169050808301925050505050505061343e565b905087879050604182021415612492576123608c868884613520565b1561249157600081148061240457506124038c8c8c8080601f016020809104026020016040519081016040528093929190818152602001838380828437600081840152601f19601f82011690508083019250505050505050848b8b8080601f016020809104026020016040519081016040528093929190818152602001838380828437600081840152601f19601f82011690508083019250505050505050613636565b5b15612490573073ffffffffffffffffffffffffffffffffffffffff168b8b6040518083838082843780830192505050925050506000604051808303816000865af19150503d8060008114612474576040519150601f19603f3d011682016040523d82523d6000602084013e612479565b606091505b50508094505061248f8c5a85038888853361365c565b5b5b5b8315158c73ffffffffffffffffffffffffffffffffffffffff167f6bb0b384ce772133df63560651bc8c727c53306cec1d51e2cbf8ea35fb8f2ec1846040518082815260200191505060405180910390a350505098975050505050505050565b813073ffffffffffffffffffffffffffffffffffffffff163373ffffffffffffffffffffffffffffffffffffffff161480612533575061253281336130b8565b5b612588576040517f08c379a00000000000000000000000000000000000000000000000000000000081526004018080602001828103825260238152602001806140f16023913960400191505060405180910390fd5b82600160009054906101000a900473ffffffffffffffffffffffffffffffffffffffff1673ffffffffffffffffffffffffffffffffffffffff16634a4fbeec826040518263ffffffff1660e01b8152600401808273ffffffffffffffffffffffffffffffffffffffff1673ffffffffffffffffffffffffffffffffffffffff16815260200191505060206040518083038186803b15801561262857600080fd5b505afa15801561263c573d6000803e3d6000fd5b505050506040513d602081101561265257600080fd5b8101908080519060200190929190505050156126d6576040517f08c379a000000000000000000000000000000000000000000000000000000000815260040180806020018281038252601b8152602001807f424d3a2077616c6c6574206d75737420626520756e6c6f636b6564000000000081525060200191505060405180910390fd5b6126e084846130b8565b15612736576040517f08c379a0000000000000000000000000000000000000000000000000000000008152600401808060200182810382526023815260200180613fcb6023913960400191505060405180910390fd5b6127408484612db1565b156127b3576040517f08c379a00000000000000000000000000000000000000000000000000000000081526004018080602001828103825260208152602001807f474d3a2074617267657420697320616c7265616479206120677561726469616e81525060200191505060405180910390fd5b60008373ffffffffffffffffffffffffffffffffffffffff166113886040516024016040516020818303038152906040527f8da5cb5b000000000000000000000000000000000000000000000000000000007bffffffffffffffffffffffffffffffffffffffffffffffffffffffff19166020820180517bffffffffffffffffffffffffffffffffffffffffffffffffffffffff83818316178352505050506040518082805190602001908083835b602083106128855780518252602082019150602081019050602083039250612862565b6001836020036101000a03801982511681845116808217855250505050505090500191505060006040518083038160008787f1925050503d80600081146128e8576040519150601f19603f3d011682016040523d82523d6000602084013e6128ed565b606091505b5050905080612947576040517f08c379a000000000000000000000000000000000000000000000000000000000815260040180806020018281038252602d815260200180613fee602d913960400191505060405180910390fd5b6000600160009054906101000a900473ffffffffffffffffffffffffffffffffffffffff1673ffffffffffffffffffffffffffffffffffffffff16635040fb76876040518263ffffffff1660e01b8152600401808273ffffffffffffffffffffffffffffffffffffffff1673ffffffffffffffffffffffffffffffffffffffff16815260200191505060206040518083038186803b1580156129e857600080fd5b505afa1580156129fc573d6000803e3d6000fd5b505050506040513d6020811015612a1257600080fd5b81019080805190602001909291905050501415612b7557600160009054906101000a900473ffffffffffffffffffffffffffffffffffffffff1673ffffffffffffffffffffffffffffffffffffffff1663c684521086866040518363ffffffff1660e01b8152600401808373ffffffffffffffffffffffffffffffffffffffff1673ffffffffffffffffffffffffffffffffffffffff1681526020018273ffffffffffffffffffffffffffffffffffffffff1673ffffffffffffffffffffffffffffffffffffffff16815260200192505050600060405180830381600087803b158015612afe57600080fd5b505af1158015612b12573d6000803e3d6000fd5b505050508373ffffffffffffffffffffffffffffffffffffffff168573ffffffffffffffffffffffffffffffffffffffff167fbc3292102fa77e083913064b282926717cdfaede4d35f553d66366c0a3da755a60405160405180910390a3612d8c565b60008585604051602001808373ffffffffffffffffffffffffffffffffffffffff1673ffffffffffffffffffffffffffffffffffffffff1660601b81526014018273ffffffffffffffffffffffffffffffffffffffff1673ffffffffffffffffffffffffffffffffffffffff1660601b8152601401807f6164646974696f6e000000000000000000000000000000000000000000000000815250600801925050506040516020818303038152906040528051906020012090506000600360008873ffffffffffffffffffffffffffffffffffffffff1673ffffffffffffffffffffffffffffffffffffffff16815260200190815260200160002090506000816000016000848152602001908152602001600020541480612cad5750600554816000016000848152602001908152602001600020540142115b612d02576040517f08c379a000000000000000000000000000000000000000000000000000000000815260040180806020018281038252603581526020018061413d6035913960400191505060405180910390fd5b6004544201816000016000848152602001908152602001600020819055508573ffffffffffffffffffffffffffffffffffffffff168773ffffffffffffffffffffffffffffffffffffffff167fe4166e4bc55a182bd13d933553241bb3441b91d15fbc74c5c752f96965563bde60045442016040518082815260200191505060405180910390a350505b5050505050565b60026020528060005260406000206000915090508060000154905081565b6000612f30600160009054906101000a900473ffffffffffffffffffffffffffffffffffffffff1673ffffffffffffffffffffffffffffffffffffffff1663f18858ab856040518263ffffffff1660e01b8152600401808273ffffffffffffffffffffffffffffffffffffffff1673ffffffffffffffffffffffffffffffffffffffff16815260200191505060006040518083038186803b158015612e5557600080fd5b505afa158015612e69573d6000803e3d6000fd5b505050506040513d6000823e3d601f19601f820116820180604052506020811015612e9357600080fd5b8101908080516040519392919084640100000000821115612eb357600080fd5b83820191506020820185811115612ec957600080fd5b8251866020820283011164010000000082111715612ee657600080fd5b8083526020830192505050908051906020019060200280838360005b83811015612f1d578082015181840152602081019050612f02565b50505050905001604052505050836136c4565b508091505092915050565b6060600160009054906101000a900473ffffffffffffffffffffffffffffffffffffffff1673ffffffffffffffffffffffffffffffffffffffff1663f18858ab836040518263ffffffff1660e01b8152600401808273ffffffffffffffffffffffffffffffffffffffff1673ffffffffffffffffffffffffffffffffffffffff16815260200191505060006040518083038186803b158015612fdc57600080fd5b505afa158015612ff0573d6000803e3d6000fd5b505050506040513d6000823e3d601f19601f82011682018060405250602081101561301a57600080fd5b810190808051604051939291908464010000000082111561303a57600080fd5b8382019150602082018581111561305057600080fd5b825186602082028301116401000000008211171561306d57600080fd5b8083526020830192505050908051906020019060200280838360005b838110156130a4578082015181840152602081019050613089565b505050509050016040525050509050919050565b60008173ffffffffffffffffffffffffffffffffffffffff168373ffffffffffffffffffffffffffffffffffffffff16638da5cb5b6040518163ffffffff1660e01b815260040160206040518083038186803b15801561311757600080fd5b505afa15801561312b573d6000803e3d6000fd5b505050506040513d602081101561314157600080fd5b810190808051906020019092919050505073ffffffffffffffffffffffffffffffffffffffff1614905092915050565b6000601960f81b600060f81b89898989898989604051602001808a7effffffffffffffffffffffffffffffffffffffffffffffffffffffffffffff19167effffffffffffffffffffffffffffffffffffffffffffffffffffffffffffff19168152600101897effffffffffffffffffffffffffffffffffffffffffffffffffffffffffffff19167effffffffffffffffffffffffffffffffffffffffffffffffffffffffffffff191681526001018873ffffffffffffffffffffffffffffffffffffffff1673ffffffffffffffffffffffffffffffffffffffff1660601b81526014018773ffffffffffffffffffffffffffffffffffffffff1673ffffffffffffffffffffffffffffffffffffffff1660601b815260140186815260200185805190602001908083835b602083106132be578051825260208201915060208101905060208303925061329b565b6001836020036101000a03801982511681845116808217855250505050505090500184815260200183815260200182815260200199505050505050505050506040516020818303038152906040528051906020012060405160200180807f19457468657265756d205369676e6564204d6573736167653a0a333200000000815250601c01828152602001915050604051602081830303815290604052805190602001209050979650505050505050565b600061337a84846138a6565b90509392505050565b60006024825110156133fd576040517f08c379a00000000000000000000000000000000000000000000000000000000081526004018080602001828103825260168152602001807f524d3a20496e76616c6964206461746157616c6c65740000000000000000000081525060200191505060405180910390fd5b6000602483015190508373ffffffffffffffffffffffffffffffffffffffff168173ffffffffffffffffffffffffffffffffffffffff161491505092915050565b60008061344a8361398e565b9050604051808061404560289139602801905060405180910390207bffffffffffffffffffffffffffffffffffffffffffffffffffffffff1916817bffffffffffffffffffffffffffffffffffffffffffffffffffffffff191614806135055750604051808061401b602a9139602a01905060405180910390207bffffffffffffffffffffffffffffffffffffffffffffffffffffffff1916817bffffffffffffffffffffffffffffffffffffffffffffffffffffffff1916145b1561351457600091505061351a565b60019150505b92915050565b600080831180156135315750600182115b801561361b57508284028573ffffffffffffffffffffffffffffffffffffffff1631108061361a5750600015158573ffffffffffffffffffffffffffffffffffffffff1663d6eb1bbf306040518263ffffffff1660e01b8152600401808273ffffffffffffffffffffffffffffffffffffffff1673ffffffffffffffffffffffffffffffffffffffff16815260200191505060206040518083038186803b1580156135db57600080fd5b505afa1580156135ef573d6000803e3d6000fd5b505050506040513d602081101561360557600080fd5b81019080805190602001909291905050501515145b5b15613629576000905061362e565b600190505b949350505050565b60008061364584846000613a14565b905061365186826130b8565b915050949350505050565b60008561726c0190506000851180156136755750600183115b80156136815750838111155b156136bb573a851115613698573a8102905061369e565b84810290505b6136b987838360405180602001604052806000815250613ad2565b505b50505050505050565b600060606000845114806137045750600073ffffffffffffffffffffffffffffffffffffffff168373ffffffffffffffffffffffffffffffffffffffff16145b15613715576000849150915061389f565b60008090506060600186510360405190808252806020026020018201604052801561374f5781602001602082028038833980820191505090505b509050600080905060008090505b8751811015613885578361380b5787818151811061377757fe5b602002602001015173ffffffffffffffffffffffffffffffffffffffff168773ffffffffffffffffffffffffffffffffffffffff1614156137bb5760019350613878565b6137d78882815181106137ca57fe5b6020026020010151613e3a565b80156137fc57506137fb8882815181106137ed57fe5b602002602001015188613e53565b5b1561380a5760019350613878565b5b82518210156138775787818151811061382057fe5b602002602001015183838151811061383457fe5b602002602001019073ffffffffffffffffffffffffffffffffffffffff16908173ffffffffffffffffffffffffffffffffffffffff168152505081806001019250505b5b808060010191505061375d565b508261389357600087613897565b6001825b945094505050505b9250929050565b6000600260008473ffffffffffffffffffffffffffffffffffffffff1673ffffffffffffffffffffffffffffffffffffffff1681526020019081526020016000206000015482116138fa5760009050613988565b600060807fffffffffffffffffffffffffffffffff000000000000000000000000000000008416901c9050612710430181111561393b576000915050613988565b82600260008673ffffffffffffffffffffffffffffffffffffffff1673ffffffffffffffffffffffffffffffffffffffff1681526020019081526020016000206000018190555060019150505b92915050565b6000600482511015613a08576040517f08c379a000000000000000000000000000000000000000000000000000000000815260040180806020018281038252601a8152602001807f524d3a20496e76616c69642066756e6374696f6e50726566697800000000000081525060200191505060405180910390fd5b60208201519050919050565b60008060008084604102602001860151915084604102604001860151905060ff85604102604101870151169250601b8360ff161480613a565750601c8360ff16145b613a5f57600080fd5b60018784848460405160008152602001604052604051808581526020018460ff1660ff1681526020018381526020018281526020019450505050506020604051602081039080840390855afa158015613abc573d6000803e3d6000fd5b5050506020604051035193505050509392505050565b606060008573ffffffffffffffffffffffffffffffffffffffff16858585604051602401808473ffffffffffffffffffffffffffffffffffffffff1673ffffffffffffffffffffffffffffffffffffffff16815260200183815260200180602001828103825283818151815260200191508051906020019080838360005b83811015613b6b578082015181840152602081019050613b50565b50505050905090810190601f168015613b985780820380516001836020036101000a031916815260200191505b509450505050506040516020818303038152906040527f8f6f0332000000000000000000000000000000000000000000000000000000007bffffffffffffffffffffffffffffffffffffffffffffffffffffffff19166020820180517bffffffffffffffffffffffffffffffffffffffffffffffffffffffff83818316178352505050506040518082805190602001908083835b60208310613c4f5780518252602082019150602081019050602083039250613c2c565b6001836020036101000a0380198251168184511680821785525050505050509050019150506000604051808303816000865af19150503d8060008114613cb1576040519150601f19603f3d011682016040523d82523d6000602084013e613cb6565b606091505b508093508192505050808015613ccd575060008251115b15613da957818060200190516020811015613ce757600080fd5b8101908080516040519392919084640100000000821115613d0757600080fd5b83820191506020820185811115613d1d57600080fd5b8251866001820283011164010000000082111715613d3a57600080fd5b8083526020830192505050908051906020019080838360005b83811015613d6e578082015181840152602081019050613d53565b50505050905090810190601f168015613d9b5780820380516001836020036101000a031916815260200191505b506040525050509150613e31565b600082511115613dbd573d6000803e3d6000fd5b80613e30576040517f08c379a000000000000000000000000000000000000000000000000000000000815260040180806020018281038252601a8152602001807f424d3a2077616c6c657420696e766f6b6520726576657274656400000000000081525060200191505060405180910390fd5b5b50949350505050565b600080823b905060008163ffffffff1611915050919050565b60008060009050600060405180807f6f776e657228290000000000000000000000000000000000000000000000000081525060070190506040518091039020905060405181815260208160208389611388fa6001811415613eb357815193505b50508373ffffffffffffffffffffffffffffffffffffffff168273ffffffffffffffffffffffffffffffffffffffff1614925050509291505056fe474d3a206e6f2070656e64696e6720677561726469616e207265766f6b6174696f6e20666f7220746172676574524d3a207468652077616c6c657420617574686f72697a656420697320646966666572656e74207468656e2074686520746172676574206f66207468652072656c617965642064617461474d3a207265766f6b6174696f6e206f662074617267657420617320677561726469616e20697320616c72656164792070656e64696e67424d3a206d73672e73656e646572206d75737420626520616e206f776e657220666f72207468652077616c6c6574474d3a2074617267657420677561726469616e2063616e6e6f74206265206f776e6572474d3a20677561726469616e206d75737420626520454f41206f7220696d706c656d656e74206f776e65722829636f6e6669726d477561726469616e5265766f6b6174696f6e28616464726573732c6164647265737329636f6e6669726d477561726469616e4164646974696f6e28616464726573732c6164647265737329474d3a20546f6f206561726c7920746f20636f6e6669726d20677561726469616e207265766f6b6174696f6e474d3a206e6f2070656e64696e67206164646974696f6e20617320677561726469616e20666f7220746172676574474d3a20546f6f206561726c7920746f20636f6e6669726d20677561726469616e206164646974696f6e424d3a206d75737420626520616e206f776e657220666f72207468652077616c6c6574474d3a20546f6f206c61746520746f20636f6e6669726d20677561726469616e206164646974696f6e474d3a206164646974696f6e206f662074617267657420617320677561726469616e20697320616c72656164792070656e64696e67474d3a20546f6f206c61746520746f20636f6e6669726d20677561726469616e207265766f6b6174696f6ea265627a7a7231582024d41ac083d809fc4068c6efc96a66877a4635afafcdc07f7bd66aadf4f21c1064736f6c63430005100032",
  "source": "// Copyright (C) 2018  Argent Labs Ltd. <https://argent.xyz>\n\n// This program is free software: you can redistribute it and/or modify\n// it under the terms of the GNU General Public License as published by\n// the Free Software Foundation, either version 3 of the License, or\n// (at your option) any later version.\n\n// This program is distributed in the hope that it will be useful,\n// but WITHOUT ANY WARRANTY; without even the implied warranty of\n// MERCHANTABILITY or FITNESS FOR A PARTICULAR PURPOSE.  See the\n// GNU General Public License for more details.\n\n// You should have received a copy of the GNU General Public License\n// along with this program.  If not, see <http://www.gnu.org/licenses/>.\n\npragma solidity ^0.5.4;\nimport \"../wallet/BaseWallet.sol\";\nimport \"../utils/GuardianUtils.sol\";\nimport \"./common/BaseModule.sol\";\nimport \"./common/RelayerModule.sol\";\n\n/**\n * @title GuardianManager\n * @dev Module to manage the guardians of wallets.\n * Guardians are accounts (EOA or contracts) that are authorized to perform specific\n * security operations on wallets such as toggle a safety lock, start a recovery procedure,\n * or confirm transactions. Addition or revokation of guardians is initiated by the owner\n * of a wallet and must be confirmed after a security period (e.g. 24 hours).\n * The list of guardians for a wallet is stored on a saparate\n * contract to facilitate its use by other modules.\n * @author Julien Niset - <julien@argent.im>\n * @author Olivier Van Den Biggelaar - <olivier@argent.im>\n */\ncontract GuardianManager is BaseModule, RelayerModule {\n\n    bytes32 constant NAME = \"GuardianManager\";\n\n    bytes4 constant internal CONFIRM_ADDITION_PREFIX = bytes4(keccak256(\"confirmGuardianAddition(address,address)\"));\n    bytes4 constant internal CONFIRM_REVOKATION_PREFIX = bytes4(keccak256(\"confirmGuardianRevokation(address,address)\"));\n\n    struct GuardianManagerConfig {\n        // the time at which a guardian addition or revokation will be confirmable by the owner\n        mapping (bytes32 => uint256) pending;\n    }\n\n    // the wallet specific storage\n    mapping (address => GuardianManagerConfig) internal configs;\n    // the security period\n    uint256 public securityPeriod;\n    // the security window\n    uint256 public securityWindow;\n\n    // *************** Events *************************** //\n\n    event GuardianAdditionRequested(address indexed wallet, address indexed guardian, uint256 executeAfter);\n    event GuardianRevokationRequested(address indexed wallet, address indexed guardian, uint256 executeAfter);\n    event GuardianAdditionCancelled(address indexed wallet, address indexed guardian);\n    event GuardianRevokationCancelled(address indexed wallet, address indexed guardian);\n    event GuardianAdded(address indexed wallet, address indexed guardian);\n    event GuardianRevoked(address indexed wallet, address indexed guardian);\n\n    // *************** Modifiers ************************ //\n\n    /**\n     * @dev Throws if the wallet is not locked.\n     */\n    modifier onlyWhenLocked(BaseWallet _wallet) {\n        // solium-disable-next-line security/no-block-members\n        require(guardianStorage.isLocked(_wallet), \"GM: wallet must be locked\");\n        _;\n    }\n\n    // *************** Constructor ********************** //\n\n    constructor(\n        ModuleRegistry _registry,\n        GuardianStorage _guardianStorage,\n        uint256 _securityPeriod,\n        uint256 _securityWindow\n    )\n        BaseModule(_registry, _guardianStorage, NAME)\n        public\n    {\n        securityPeriod = _securityPeriod;\n        securityWindow = _securityWindow;\n    }\n\n    // *************** External Functions ********************* //\n\n    /**\n     * @dev Lets the owner add a guardian to its wallet.\n     * The first guardian is added immediately. All following additions must be confirmed\n     * by calling the confirmGuardianAddition() method.\n     * @param _wallet The target wallet.\n     * @param _guardian The guardian to add.\n     */\n    function addGuardian(BaseWallet _wallet, address _guardian) external onlyWalletOwner(_wallet) onlyWhenUnlocked(_wallet) {\n        require(!isOwner(_wallet, _guardian), \"GM: target guardian cannot be owner\");\n        require(!isGuardian(_wallet, _guardian), \"GM: target is already a guardian\");\n        // Guardians must either be an EOA or a contract with an owner()\n        // method that returns an address with a 5000 gas stipend.\n        // Note that this test is not meant to be strict and can be bypassed by custom malicious contracts.\n        // solium-disable-next-line security/no-low-level-calls\n        (bool success,) = _guardian.call.gas(5000)(abi.encodeWithSignature(\"owner()\"));\n        require(success, \"GM: guardian must be EOA or implement owner()\");\n        if (guardianStorage.guardianCount(_wallet) == 0) {\n            guardianStorage.addGuardian(_wallet, _guardian);\n            emit GuardianAdded(address(_wallet), _guardian);\n        } else {\n            bytes32 id = keccak256(abi.encodePacked(address(_wallet), _guardian, \"addition\"));\n            GuardianManagerConfig storage config = configs[address(_wallet)];\n            require(\n                config.pending[id] == 0 || now > config.pending[id] + securityWindow,\n                \"GM: addition of target as guardian is already pending\");\n            config.pending[id] = now + securityPeriod;\n            emit GuardianAdditionRequested(address(_wallet), _guardian, now + securityPeriod);\n        }\n    }\n\n    /**\n     * @dev Confirms the pending addition of a guardian to a wallet.\n     * The method must be called during the confirmation window and\n     * can be called by anyone to enable orchestration.\n     * @param _wallet The target wallet.\n     * @param _guardian The guardian.\n     */\n    function confirmGuardianAddition(BaseWallet _wallet, address _guardian) public onlyWhenUnlocked(_wallet) {\n        bytes32 id = keccak256(abi.encodePacked(address(_wallet), _guardian, \"addition\"));\n        GuardianManagerConfig storage config = configs[address(_wallet)];\n        require(config.pending[id] > 0, \"GM: no pending addition as guardian for target\");\n        require(config.pending[id] < now, \"GM: Too early to confirm guardian addition\");\n        require(now < config.pending[id] + securityWindow, \"GM: Too late to confirm guardian addition\");\n        guardianStorage.addGuardian(_wallet, _guardian);\n        delete config.pending[id];\n        emit GuardianAdded(address(_wallet), _guardian);\n    }\n\n    /**\n     * @dev Lets the owner cancel a pending guardian addition.\n     * @param _wallet The target wallet.\n     * @param _guardian The guardian.\n     */\n    function cancelGuardianAddition(BaseWallet _wallet, address _guardian) public onlyWalletOwner(_wallet) onlyWhenUnlocked(_wallet) {\n        bytes32 id = keccak256(abi.encodePacked(address(_wallet), _guardian, \"addition\"));\n        GuardianManagerConfig storage config = configs[address(_wallet)];\n        require(config.pending[id] > 0, \"GM: no pending addition as guardian for target\");\n        delete config.pending[id];\n        emit GuardianAdditionCancelled(address(_wallet), _guardian);\n    }\n\n    /**\n     * @dev Lets the owner revoke a guardian from its wallet.\n     * Revokation must be confirmed by calling the confirmGuardianRevokation() method.\n     * @param _wallet The target wallet.\n     * @param _guardian The guardian to revoke.\n     */\n    function revokeGuardian(BaseWallet _wallet, address _guardian) external onlyWalletOwner(_wallet) {\n        require(isGuardian(_wallet, _guardian), \"GM: must be an existing guardian\");\n        bytes32 id = keccak256(abi.encodePacked(address(_wallet), _guardian, \"revokation\"));\n        GuardianManagerConfig storage config = configs[address(_wallet)];\n        require(\n            config.pending[id] == 0 || now > config.pending[id] + securityWindow,\n            \"GM: revokation of target as guardian is already pending\"); // TODO need to allow if confirmation window passed\n        config.pending[id] = now + securityPeriod;\n        emit GuardianRevokationRequested(address(_wallet), _guardian, now + securityPeriod);\n    }\n\n    /**\n     * @dev Confirms the pending revokation of a guardian to a wallet.\n     * The method must be called during the confirmation window and\n     * can be called by anyone to enable orchestration.\n     * @param _wallet The target wallet.\n     * @param _guardian The guardian.\n     */\n    function confirmGuardianRevokation(BaseWallet _wallet, address _guardian) public {\n        bytes32 id = keccak256(abi.encodePacked(address(_wallet), _guardian, \"revokation\"));\n        GuardianManagerConfig storage config = configs[address(_wallet)];\n        require(config.pending[id] > 0, \"GM: no pending guardian revokation for target\");\n        require(config.pending[id] < now, \"GM: Too early to confirm guardian revokation\");\n        require(now < config.pending[id] + securityWindow, \"GM: Too late to confirm guardian revokation\");\n        guardianStorage.revokeGuardian(_wallet, _guardian);\n        delete config.pending[id];\n        emit GuardianRevoked(address(_wallet), _guardian);\n    }\n\n    /**\n     * @dev Lets the owner cancel a pending guardian revokation.\n     * @param _wallet The target wallet.\n     * @param _guardian The guardian.\n     */\n    function cancelGuardianRevokation(BaseWallet _wallet, address _guardian) public onlyWalletOwner(_wallet) onlyWhenUnlocked(_wallet) {\n        bytes32 id = keccak256(abi.encodePacked(address(_wallet), _guardian, \"revokation\"));\n        GuardianManagerConfig storage config = configs[address(_wallet)];\n        require(config.pending[id] > 0, \"GM: no pending guardian revokation for target\");\n        delete config.pending[id];\n        emit GuardianRevokationCancelled(address(_wallet), _guardian);\n    }\n\n    /**\n     * @dev Checks if an address is a guardian for a wallet.\n     * @param _wallet The target wallet.\n     * @param _guardian The address to check.\n     * @return true if the address if a guardian for the wallet.\n     */\n    function isGuardian(BaseWallet _wallet, address _guardian) public view returns (bool _isGuardian) {\n        (_isGuardian, ) = GuardianUtils.isGuardian(guardianStorage.getGuardians(_wallet), _guardian);\n    }\n\n    /**\n     * @dev Counts the number of active guardians for a wallet.\n     * @param _wallet The target wallet.\n     * @return the number of active guardians for a wallet.\n     */\n    function guardianCount(BaseWallet _wallet) external view returns (uint256 _count) {\n        return guardianStorage.guardianCount(_wallet);\n    }\n\n    /**\n     * @dev Get the active guardians for a wallet.\n     * @param _wallet The target wallet.\n     * @return the active guardians for a wallet.\n     */\n    function getGuardians(BaseWallet _wallet) external view returns (address[] memory _guardians) {\n        return guardianStorage.getGuardians(_wallet);\n    }\n\n    // *************** Implementation of RelayerModule methods ********************* //\n\n    // Overrides to use the incremental nonce and save some gas\n    function checkAndUpdateUniqueness(BaseWallet _wallet, uint256 _nonce, bytes32 /* _signHash */) internal returns (bool) {\n        return checkAndUpdateNonce(_wallet, _nonce);\n    }\n\n    function validateSignatures(\n        BaseWallet _wallet,\n        bytes memory /* _data */,\n        bytes32 _signHash,\n        bytes memory _signatures\n    )\n        internal\n        view\n        returns (bool)\n    {\n        address signer = recoverSigner(_signHash, _signatures, 0);\n        return isOwner(_wallet, signer); // \"GM: signer must be owner\"\n    }\n\n    function getRequiredSignatures(BaseWallet /* _wallet */, bytes memory _data) internal view returns (uint256) {\n        bytes4 methodId = functionPrefix(_data);\n        if (methodId == CONFIRM_ADDITION_PREFIX || methodId == CONFIRM_REVOKATION_PREFIX) {\n            return 0;\n        }\n        return 1;\n    }\n}",
  "sourcePath": "/Users/name/dev/argent-contracts-release-1.5.0/contracts/modules/GuardianManager.sol",
  "compiler": {
    "name": "solc",
    "version": "0.5.16+commit.9c3226ce.Emscripten.clang"
  },
  "schemaVersion": "3.0.23",
  "updatedAt": "2020-03-31T19:53:31.144Z",
  "devdoc": {
    "author": "Julien Niset - <julien@argent.im>Olivier Van Den Biggelaar - <olivier@argent.im>",
    "details": "Module to manage the guardians of wallets. Guardians are accounts (EOA or contracts) that are authorized to perform specific security operations on wallets such as toggle a safety lock, start a recovery procedure, or confirm transactions. Addition or revokation of guardians is initiated by the owner of a wallet and must be confirmed after a security period (e.g. 24 hours). The list of guardians for a wallet is stored on a saparate contract to facilitate its use by other modules.",
    "methods": {
      "addGuardian(address,address)": {
        "details": "Lets the owner add a guardian to its wallet. The first guardian is added immediately. All following additions must be confirmed by calling the confirmGuardianAddition() method.",
        "params": {
          "_guardian": "The guardian to add.",
          "_wallet": "The target wallet."
        }
      },
      "addModule(address,address)": {
        "details": "Adds a module to a wallet. First checks that the module is registered.",
        "params": {
          "_module": "The modules to authorise.",
          "_wallet": "The target wallet."
        }
      },
      "cancelGuardianAddition(address,address)": {
        "details": "Lets the owner cancel a pending guardian addition.",
        "params": {
          "_guardian": "The guardian.",
          "_wallet": "The target wallet."
        }
      },
      "cancelGuardianRevokation(address,address)": {
        "details": "Lets the owner cancel a pending guardian revokation.",
        "params": {
          "_guardian": "The guardian.",
          "_wallet": "The target wallet."
        }
      },
      "confirmGuardianAddition(address,address)": {
        "details": "Confirms the pending addition of a guardian to a wallet. The method must be called during the confirmation window and can be called by anyone to enable orchestration.",
        "params": {
          "_guardian": "The guardian.",
          "_wallet": "The target wallet."
        }
      },
      "confirmGuardianRevokation(address,address)": {
        "details": "Confirms the pending revokation of a guardian to a wallet. The method must be called during the confirmation window and can be called by anyone to enable orchestration.",
        "params": {
          "_guardian": "The guardian.",
          "_wallet": "The target wallet."
        }
      },
      "execute(address,bytes,uint256,bytes,uint256,uint256)": {
        "details": "Executes a relayed transaction.",
        "params": {
          "_data": "The data for the relayed transaction",
          "_gasLimit": "The gas limit to use for the gas refund.",
          "_gasPrice": "The gas price to use for the gas refund.",
          "_nonce": "The nonce used to prevent replay attacks.",
          "_signatures": "The signatures as a concatenated byte array.",
          "_wallet": "The target wallet."
        }
      },
      "getGuardians(address)": {
        "details": "Get the active guardians for a wallet.",
        "params": {
          "_wallet": "The target wallet."
        },
        "return": "the active guardians for a wallet."
      },
      "getNonce(address)": {
        "details": "Gets the current nonce for a wallet.",
        "params": {
          "_wallet": "The target wallet."
        }
      },
      "guardianCount(address)": {
        "details": "Counts the number of active guardians for a wallet.",
        "params": {
          "_wallet": "The target wallet."
        },
        "return": "the number of active guardians for a wallet."
      },
      "init(address)": {
        "details": "Inits the module for a wallet by logging an event. The method can only be called by the wallet itself.",
        "params": {
          "_wallet": "The wallet."
        }
      },
      "isGuardian(address,address)": {
        "details": "Checks if an address is a guardian for a wallet.",
        "params": {
          "_guardian": "The address to check.",
          "_wallet": "The target wallet."
        },
        "return": "true if the address if a guardian for the wallet."
      },
      "recoverToken(address)": {
        "details": "Utility method enbaling anyone to recover ERC20 token sent to the module by mistake and transfer them to the Module Registry.",
        "params": {
          "_token": "The token to recover."
        }
      },
      "revokeGuardian(address,address)": {
        "details": "Lets the owner revoke a guardian from its wallet. Revokation must be confirmed by calling the confirmGuardianRevokation() method.",
        "params": {
          "_guardian": "The guardian to revoke.",
          "_wallet": "The target wallet."
        }
      }
    },
    "title": "GuardianManager"
  },
  "userdoc": {
    "methods": {}
  }
}