{
  "contractName": "LegacySimpleUpgrader",
  "abi": [
    {
      "inputs": [
        {
          "internalType": "address[]",
          "name": "_disable",
          "type": "address[]"
        },
        {
          "internalType": "address[]",
          "name": "_enable",
          "type": "address[]"
        }
      ],
      "payable": false,
      "stateMutability": "nonpayable",
      "type": "constructor"
    },
    {
      "constant": false,
      "inputs": [
        {
          "internalType": "address payable",
          "name": "_wallet",
          "type": "address"
        },
        {
          "internalType": "address[]",
          "name": "_toDisable",
          "type": "address[]"
        },
        {
          "internalType": "address[]",
          "name": "_toEnable",
          "type": "address[]"
        }
      ],
      "name": "upgrade",
      "outputs": [],
      "payable": false,
      "stateMutability": "nonpayable",
      "type": "function"
    },
    {
      "constant": true,
      "inputs": [],
      "name": "toDisable",
      "outputs": [
        {
          "internalType": "address[]",
          "name": "",
          "type": "address[]"
        }
      ],
      "payable": false,
      "stateMutability": "view",
      "type": "function"
    },
    {
      "constant": true,
      "inputs": [],
      "name": "toEnable",
      "outputs": [
        {
          "internalType": "address[]",
          "name": "",
          "type": "address[]"
        }
      ],
      "payable": false,
      "stateMutability": "view",
      "type": "function"
    }
  ],
  "bytecode": "0x608060405234801561001057600080fd5b506040516107903803806107908339818101604052604081101561003357600080fd5b810190808051604051939291908464010000000082111561005357600080fd5b8382019150602082018581111561006957600080fd5b825186602082028301116401000000008211171561008657600080fd5b8083526020830192505050908051906020019060200280838360005b838110156100bd5780820151818401526020810190506100a2565b50505050905001604052602001805160405193929190846401000000008211156100e657600080fd5b838201915060208201858111156100fc57600080fd5b825186602082028301116401000000008211171561011957600080fd5b8083526020830192505050908051906020019060200280838360005b83811015610150578082015181840152602081019050610135565b505050509050016040525050508160009080519060200190610173929190610192565b50806001908051906020019061018a929190610192565b50505061025f565b82805482825590600052602060002090810192821561020b579160200282015b8281111561020a5782518260006101000a81548173ffffffffffffffffffffffffffffffffffffffff021916908373ffffffffffffffffffffffffffffffffffffffff160217905550916020019190600101906101b2565b5b509050610218919061021c565b5090565b61025c91905b8082111561025857600081816101000a81549073ffffffffffffffffffffffffffffffffffffffff021916905550600101610222565b5090565b90565b6105228061026e6000396000f3fe608060405234801561001057600080fd5b50600436106100415760003560e01c80634c3ea4fe14610046578063aa4f95ea146100a5578063e79e084014610193575b600080fd5b61004e6101f2565b6040518080602001828103825283818151815260200191508051906020019060200280838360005b83811015610091578082015181840152602081019050610076565b505050509050019250505060405180910390f35b610191600480360360608110156100bb57600080fd5b81019080803573ffffffffffffffffffffffffffffffffffffffff169060200190929190803590602001906401000000008111156100f857600080fd5b82018360208201111561010a57600080fd5b8035906020019184602083028401116401000000008311171561012c57600080fd5b90919293919293908035906020019064010000000081111561014d57600080fd5b82018360208201111561015f57600080fd5b8035906020019184602083028401116401000000008311171561018157600080fd5b9091929391929390505050610280565b005b61019b61045f565b6040518080602001828103825283818151815260200191508051906020019060200280838360005b838110156101de5780820151818401526020810190506101c3565b505050509050019250505060405180910390f35b6060600180548060200260200160405190810160405280929190818152602001828054801561027657602002820191906000526020600020905b8160009054906101000a900473ffffffffffffffffffffffffffffffffffffffff1673ffffffffffffffffffffffffffffffffffffffff168152602001906001019080831161022c575b5050505050905090565b6000809050600090505b8282905081101561036e578573ffffffffffffffffffffffffffffffffffffffff16631f17732d8484848181106102bd57fe5b9050602002013573ffffffffffffffffffffffffffffffffffffffff1660016040518363ffffffff1660e01b8152600401808373ffffffffffffffffffffffffffffffffffffffff1673ffffffffffffffffffffffffffffffffffffffff1681526020018215151515815260200192505050600060405180830381600087803b15801561034957600080fd5b505af115801561035d573d6000803e3d6000fd5b50505050808060010191505061028a565b600090505b84849050811015610457578573ffffffffffffffffffffffffffffffffffffffff16631f17732d8686848181106103a657fe5b9050602002013573ffffffffffffffffffffffffffffffffffffffff1660006040518363ffffffff1660e01b8152600401808373ffffffffffffffffffffffffffffffffffffffff1673ffffffffffffffffffffffffffffffffffffffff1681526020018215151515815260200192505050600060405180830381600087803b15801561043257600080fd5b505af1158015610446573d6000803e3d6000fd5b505050508080600101915050610373565b505050505050565b606060008054806020026020016040519081016040528092919081815260200182805480156104e357602002820191906000526020600020905b8160009054906101000a900473ffffffffffffffffffffffffffffffffffffffff1673ffffffffffffffffffffffffffffffffffffffff1681526020019060010190808311610499575b505050505090509056fea265627a7a72315820315440c93a30c9ee11da0786ba20b36f61ece14360e574db94d3afdaa846bba864736f6c63430005100032",
  "source": "// Copyright (C) 2018  Argent Labs Ltd. <https://argent.xyz>\n\n// This program is free software: you can redistribute it and/or modify\n// it under the terms of the GNU General Public License as published by\n// the Free Software Foundation, either version 3 of the License, or\n// (at your option) any later version.\n\n// This program is distributed in the hope that it will be useful,\n// but WITHOUT ANY WARRANTY; without even the implied warranty of\n// MERCHANTABILITY or FITNESS FOR A PARTICULAR PURPOSE.  See the\n// GNU General Public License for more details.\n\n// You should have received a copy of the GNU General Public License\n// along with this program.  If not, see <http://www.gnu.org/licenses/>.\n\npragma solidity ^0.5.4;\n\nimport \"./LegacyUpgrader.sol\";\nimport \"../../wallet/BaseWallet.sol\";\n\n/**\n * @title LegacySimpleUpgrader\n * @dev Old implementation for the Upgrader interface that added/removed modules.\n * @author Julien Niset - <julien@argent.im>\n */\ncontract LegacySimpleUpgrader is LegacyUpgrader {\n\n    address[] private disable;\n    address[] private enable;\n\n    constructor(address[] memory _disable, address[] memory _enable) public {\n        disable = _disable;\n        enable = _enable;\n    }\n\n    function upgrade(address payable _wallet, address[] calldata _toDisable, address[] calldata _toEnable) external {\n        uint256 i = 0;\n        //add new modules\n        for (i = 0; i < _toEnable.length; i++) {\n            BaseWallet(_wallet).authoriseModule(_toEnable[i], true);\n        }\n        //remove old modules\n        for (i = 0; i < _toDisable.length; i++) {\n            BaseWallet(_wallet).authoriseModule(_toDisable[i], false);\n        }\n    }\n\n    function toDisable() external view returns (address[] memory) {\n        return disable;\n    }\n\n    function toEnable() external view returns (address[] memory) {\n        return enable;\n    }\n}",
  "sourcePath": "/Users/name/dev/argent-contracts-release-1.5.0/contracts/upgrade/Legacy/LegacySimpleUpgrader.sol",
  "compiler": {
    "name": "solc",
    "version": "0.5.16+commit.9c3226ce.Emscripten.clang"
  },
  "schemaVersion": "3.0.23",
  "updatedAt": "2020-03-31T19:52:06.969Z",
  "devdoc": {
    "author": "Julien Niset - <julien@argent.im>",
    "details": "Old implementation for the Upgrader interface that added/removed modules.",
    "methods": {},
    "title": "LegacySimpleUpgrader"
  },
  "userdoc": {
    "methods": {}
  }
}