{
  "contractName": "LockManager",
  "abi": [
    {
      "inputs": [
        {
          "internalType": "contract ModuleRegistry",
          "name": "_registry",
          "type": "address"
        },
        {
          "internalType": "contract GuardianStorage",
          "name": "_guardianStorage",
          "type": "address"
        },
        {
          "internalType": "uint256",
          "name": "_lockPeriod",
          "type": "uint256"
        }
      ],
      "payable": false,
      "stateMutability": "nonpayable",
      "type": "constructor"
    },
    {
      "anonymous": false,
      "inputs": [
        {
          "indexed": true,
          "internalType": "address",
          "name": "wallet",
          "type": "address"
        },
        {
          "indexed": false,
          "internalType": "uint64",
          "name": "releaseAfter",
          "type": "uint64"
        }
      ],
      "name": "Locked",
      "type": "event"
    },
    {
      "anonymous": false,
      "inputs": [
        {
          "indexed": false,
          "internalType": "bytes32",
          "name": "name",
          "type": "bytes32"
        }
      ],
      "name": "ModuleCreated",
      "type": "event"
    },
    {
      "anonymous": false,
      "inputs": [
        {
          "indexed": false,
          "internalType": "address",
          "name": "wallet",
          "type": "address"
        }
      ],
      "name": "ModuleInitialised",
      "type": "event"
    },
    {
      "anonymous": false,
      "inputs": [
        {
          "indexed": true,
          "internalType": "address",
          "name": "wallet",
          "type": "address"
        },
        {
          "indexed": true,
          "internalType": "bool",
          "name": "success",
          "type": "bool"
        },
        {
          "indexed": false,
          "internalType": "bytes32",
          "name": "signedHash",
          "type": "bytes32"
        }
      ],
      "name": "TransactionExecuted",
      "type": "event"
    },
    {
      "anonymous": false,
      "inputs": [
        {
          "indexed": true,
          "internalType": "address",
          "name": "wallet",
          "type": "address"
        }
      ],
      "name": "Unlocked",
      "type": "event"
    },
    {
      "constant": false,
      "inputs": [
        {
          "internalType": "contract BaseWallet",
          "name": "_wallet",
          "type": "address"
        },
        {
          "internalType": "contract Module",
          "name": "_module",
          "type": "address"
        }
      ],
      "name": "addModule",
      "outputs": [],
      "payable": false,
      "stateMutability": "nonpayable",
      "type": "function"
    },
    {
      "constant": false,
      "inputs": [
        {
          "internalType": "contract BaseWallet",
          "name": "_wallet",
          "type": "address"
        },
        {
          "internalType": "bytes",
          "name": "_data",
          "type": "bytes"
        },
        {
          "internalType": "uint256",
          "name": "_nonce",
          "type": "uint256"
        },
        {
          "internalType": "bytes",
          "name": "_signatures",
          "type": "bytes"
        },
        {
          "internalType": "uint256",
          "name": "_gasPrice",
          "type": "uint256"
        },
        {
          "internalType": "uint256",
          "name": "_gasLimit",
          "type": "uint256"
        }
      ],
      "name": "execute",
      "outputs": [
        {
          "internalType": "bool",
          "name": "success",
          "type": "bool"
        }
      ],
      "payable": false,
      "stateMutability": "nonpayable",
      "type": "function"
    },
    {
      "constant": true,
      "inputs": [
        {
          "internalType": "contract BaseWallet",
          "name": "_wallet",
          "type": "address"
        }
      ],
      "name": "getNonce",
      "outputs": [
        {
          "internalType": "uint256",
          "name": "nonce",
          "type": "uint256"
        }
      ],
      "payable": false,
      "stateMutability": "view",
      "type": "function"
    },
    {
      "constant": false,
      "inputs": [
        {
          "internalType": "contract BaseWallet",
          "name": "_wallet",
          "type": "address"
        }
      ],
      "name": "init",
      "outputs": [],
      "payable": false,
      "stateMutability": "nonpayable",
      "type": "function"
    },
    {
      "constant": true,
      "inputs": [],
      "name": "lockPeriod",
      "outputs": [
        {
          "internalType": "uint256",
          "name": "",
          "type": "uint256"
        }
      ],
      "payable": false,
      "stateMutability": "view",
      "type": "function"
    },
    {
      "constant": false,
      "inputs": [
        {
          "internalType": "address",
          "name": "_token",
          "type": "address"
        }
      ],
      "name": "recoverToken",
      "outputs": [],
      "payable": false,
      "stateMutability": "nonpayable",
      "type": "function"
    },
    {
      "constant": true,
      "inputs": [
        {
          "internalType": "address",
          "name": "",
          "type": "address"
        }
      ],
      "name": "relayer",
      "outputs": [
        {
          "internalType": "uint256",
          "name": "nonce",
          "type": "uint256"
        }
      ],
      "payable": false,
      "stateMutability": "view",
      "type": "function"
    },
    {
      "constant": false,
      "inputs": [
        {
          "internalType": "contract BaseWallet",
          "name": "_wallet",
          "type": "address"
        }
      ],
      "name": "lock",
      "outputs": [],
      "payable": false,
      "stateMutability": "nonpayable",
      "type": "function"
    },
    {
      "constant": false,
      "inputs": [
        {
          "internalType": "contract BaseWallet",
          "name": "_wallet",
          "type": "address"
        }
      ],
      "name": "unlock",
      "outputs": [],
      "payable": false,
      "stateMutability": "nonpayable",
      "type": "function"
    },
    {
      "constant": true,
      "inputs": [
        {
          "internalType": "contract BaseWallet",
          "name": "_wallet",
          "type": "address"
        }
      ],
      "name": "getLock",
      "outputs": [
        {
          "internalType": "uint64",
          "name": "_releaseAfter",
          "type": "uint64"
        }
      ],
      "payable": false,
      "stateMutability": "view",
      "type": "function"
    },
    {
      "constant": true,
      "inputs": [
        {
          "internalType": "contract BaseWallet",
          "name": "_wallet",
          "type": "address"
        }
      ],
      "name": "isLocked",
      "outputs": [
        {
          "internalType": "bool",
          "name": "_isLocked",
          "type": "bool"
        }
      ],
      "payable": false,
      "stateMutability": "view",
      "type": "function"
    }
  ],
  "bytecode": "0x608060405234801561001057600080fd5b50604051612ab5380380612ab58339818101604052606081101561003357600080fd5b8101908080519060200190929190805190602001909291908051906020019092919050505082827f4c6f636b4d616e61676572000000000000000000000000000000000000000000826000806101000a81548173ffffffffffffffffffffffffffffffffffffffff021916908373ffffffffffffffffffffffffffffffffffffffff16021790555081600160006101000a81548173ffffffffffffffffffffffffffffffffffffffff021916908373ffffffffffffffffffffffffffffffffffffffff1602179055507f3019c8fc80239e3dff8f781212ae2004839c2cb61d6c70acd279ac65392145df816040518082815260200191505060405180910390a1505050806003819055505050506129668061014f6000396000f3fe608060405234801561001057600080fd5b50600436106100a95760003560e01c80635a1db8c4116100715780635a1db8c4146102085780636b9db4e61461026c5780639be65a60146102d8578063aacaaf881461031c578063c9b5ef8e14610440578063f435f5a714610498576100a9565b806319ab453c146100ae5780632d0335ab146100f25780632f6c493c1461014a5780633fd8b02f1461018e5780634a4fbeec146101ac575b600080fd5b6100f0600480360360208110156100c457600080fd5b81019080803573ffffffffffffffffffffffffffffffffffffffff1690602001909291905050506104dc565b005b6101346004803603602081101561010857600080fd5b81019080803573ffffffffffffffffffffffffffffffffffffffff1690602001909291905050506105e5565b6040518082815260200191505060405180910390f35b61018c6004803603602081101561016057600080fd5b81019080803573ffffffffffffffffffffffffffffffffffffffff169060200190929190505050610631565b005b610196610c18565b6040518082815260200191505060405180910390f35b6101ee600480360360208110156101c257600080fd5b81019080803573ffffffffffffffffffffffffffffffffffffffff169060200190929190505050610c1e565b604051808215151515815260200191505060405180910390f35b61026a6004803603604081101561021e57600080fd5b81019080803573ffffffffffffffffffffffffffffffffffffffff169060200190929190803573ffffffffffffffffffffffffffffffffffffffff169060200190929190505050610d01565b005b6102ae6004803603602081101561028257600080fd5b81019080803573ffffffffffffffffffffffffffffffffffffffff169060200190929190505050610f55565b604051808267ffffffffffffffff1667ffffffffffffffff16815260200191505060405180910390f35b61031a600480360360208110156102ee57600080fd5b81019080803573ffffffffffffffffffffffffffffffffffffffff169060200190929190505050611046565b005b610426600480360360c081101561033257600080fd5b81019080803573ffffffffffffffffffffffffffffffffffffffff1690602001909291908035906020019064010000000081111561036f57600080fd5b82018360208201111561038157600080fd5b803590602001918460018302840111640100000000831117156103a357600080fd5b909192939192939080359060200190929190803590602001906401000000008111156103ce57600080fd5b8201836020820111156103e057600080fd5b8035906020019184600183028401116401000000008311171561040257600080fd5b909192939192939080359060200190929190803590602001909291905050506111ea565b604051808215151515815260200191505060405180910390f35b6104826004803603602081101561045657600080fd5b81019080803573ffffffffffffffffffffffffffffffffffffffff169060200190929190505050611566565b6040518082815260200191505060405180910390f35b6104da600480360360208110156104ae57600080fd5b81019080803573ffffffffffffffffffffffffffffffffffffffff169060200190929190505050611584565b005b808073ffffffffffffffffffffffffffffffffffffffff163373ffffffffffffffffffffffffffffffffffffffff161461057e576040517f08c379a00000000000000000000000000000000000000000000000000000000081526004018080602001828103825260198152602001807f424d3a2063616c6c6572206d7573742062652077616c6c65740000000000000081525060200191505060405180910390fd5b7f9fcca3f73f85397e2bf03647abf243c20b753bd54463ff3cae74de2971c112fa82604051808273ffffffffffffffffffffffffffffffffffffffff1673ffffffffffffffffffffffffffffffffffffffff16815260200191505060405180910390a15050565b6000600260008373ffffffffffffffffffffffffffffffffffffffff1673ffffffffffffffffffffffffffffffffffffffff168152602001908152602001600020600001549050919050565b8060006107b1600160009054906101000a900473ffffffffffffffffffffffffffffffffffffffff1673ffffffffffffffffffffffffffffffffffffffff1663f18858ab846040518263ffffffff1660e01b8152600401808273ffffffffffffffffffffffffffffffffffffffff1673ffffffffffffffffffffffffffffffffffffffff16815260200191505060006040518083038186803b1580156106d657600080fd5b505afa1580156106ea573d6000803e3d6000fd5b505050506040513d6000823e3d601f19601f82011682018060405250602081101561071457600080fd5b810190808051604051939291908464010000000082111561073457600080fd5b8382019150602082018581111561074a57600080fd5b825186602082028301116401000000008211171561076757600080fd5b8083526020830192505050908051906020019060200280838360005b8381101561079e578082015181840152602081019050610783565b5050505090500160405250505033611a2f565b5090503073ffffffffffffffffffffffffffffffffffffffff163373ffffffffffffffffffffffffffffffffffffffff1614806107eb5750805b61085d576040517f08c379a000000000000000000000000000000000000000000000000000000000815260040180806020018281038252601b8152602001807f47443a2077616c6c6574206d75737420626520756e6c6f636b6564000000000081525060200191505060405180910390fd5b82600160009054906101000a900473ffffffffffffffffffffffffffffffffffffffff1673ffffffffffffffffffffffffffffffffffffffff16634a4fbeec826040518263ffffffff1660e01b8152600401808273ffffffffffffffffffffffffffffffffffffffff1673ffffffffffffffffffffffffffffffffffffffff16815260200191505060206040518083038186803b1580156108fd57600080fd5b505afa158015610911573d6000803e3d6000fd5b505050506040513d602081101561092757600080fd5b81019080805190602001909291905050506109aa576040517f08c379a00000000000000000000000000000000000000000000000000000000081526004018080602001828103825260198152602001807f47443a2077616c6c6574206d757374206265206c6f636b65640000000000000081525060200191505060405180910390fd5b6000600160009054906101000a900473ffffffffffffffffffffffffffffffffffffffff1673ffffffffffffffffffffffffffffffffffffffff1663919884bf866040518263ffffffff1660e01b8152600401808273ffffffffffffffffffffffffffffffffffffffff1673ffffffffffffffffffffffffffffffffffffffff16815260200191505060206040518083038186803b158015610a4b57600080fd5b505afa158015610a5f573d6000803e3d6000fd5b505050506040513d6020811015610a7557600080fd5b810190808051906020019092919050505090503073ffffffffffffffffffffffffffffffffffffffff168173ffffffffffffffffffffffffffffffffffffffff1614610b0c576040517f08c379a000000000000000000000000000000000000000000000000000000000815260040180806020018281038252603c8152602001806128f6603c913960400191505060405180910390fd5b600160009054906101000a900473ffffffffffffffffffffffffffffffffffffffff1673ffffffffffffffffffffffffffffffffffffffff1663b0fc29e68660006040518363ffffffff1660e01b8152600401808373ffffffffffffffffffffffffffffffffffffffff1673ffffffffffffffffffffffffffffffffffffffff16815260200182815260200192505050600060405180830381600087803b158015610bb657600080fd5b505af1158015610bca573d6000803e3d6000fd5b505050508473ffffffffffffffffffffffffffffffffffffffff167f7e6adfec7e3f286831a0200a754127c171a2da564078722cb97704741bbdb0ea60405160405180910390a25050505050565b60035481565b6000600160009054906101000a900473ffffffffffffffffffffffffffffffffffffffff1673ffffffffffffffffffffffffffffffffffffffff16634a4fbeec836040518263ffffffff1660e01b8152600401808273ffffffffffffffffffffffffffffffffffffffff1673ffffffffffffffffffffffffffffffffffffffff16815260200191505060206040518083038186803b158015610cbf57600080fd5b505afa158015610cd3573d6000803e3d6000fd5b505050506040513d6020811015610ce957600080fd5b81019080805190602001909291905050509050919050565b81610d0c8133611c11565b610d61576040517f08c379a000000000000000000000000000000000000000000000000000000000815260040180806020018281038252602e8152602001806128c8602e913960400191505060405180910390fd5b6000809054906101000a900473ffffffffffffffffffffffffffffffffffffffff1673ffffffffffffffffffffffffffffffffffffffff16630bcd4ebb836040518263ffffffff1660e01b8152600401808273ffffffffffffffffffffffffffffffffffffffff1673ffffffffffffffffffffffffffffffffffffffff16815260200191505060206040518083038186803b158015610dff57600080fd5b505afa158015610e13573d6000803e3d6000fd5b505050506040513d6020811015610e2957600080fd5b8101908080519060200190929190505050610eac576040517f08c379a000000000000000000000000000000000000000000000000000000000815260040180806020018281038252601c8152602001807f424d3a206d6f64756c65206973206e6f7420726567697374657265640000000081525060200191505060405180910390fd5b8273ffffffffffffffffffffffffffffffffffffffff16631f17732d8360016040518363ffffffff1660e01b8152600401808373ffffffffffffffffffffffffffffffffffffffff1673ffffffffffffffffffffffffffffffffffffffff1681526020018215151515815260200192505050600060405180830381600087803b158015610f3857600080fd5b505af1158015610f4c573d6000803e3d6000fd5b50505050505050565b600080600160009054906101000a900473ffffffffffffffffffffffffffffffffffffffff1673ffffffffffffffffffffffffffffffffffffffff16636b9db4e6846040518263ffffffff1660e01b8152600401808273ffffffffffffffffffffffffffffffffffffffff1673ffffffffffffffffffffffffffffffffffffffff16815260200191505060206040518083038186803b158015610ff757600080fd5b505afa15801561100b573d6000803e3d6000fd5b505050506040513d602081101561102157600080fd5b8101908080519060200190929190505050905042811115611040578091505b50919050565b60008173ffffffffffffffffffffffffffffffffffffffff166370a08231306040518263ffffffff1660e01b8152600401808273ffffffffffffffffffffffffffffffffffffffff1673ffffffffffffffffffffffffffffffffffffffff16815260200191505060206040518083038186803b1580156110c557600080fd5b505afa1580156110d9573d6000803e3d6000fd5b505050506040513d60208110156110ef57600080fd5b810190808051906020019092919050505090508173ffffffffffffffffffffffffffffffffffffffff1663a9059cbb6000809054906101000a900473ffffffffffffffffffffffffffffffffffffffff16836040518363ffffffff1660e01b8152600401808373ffffffffffffffffffffffffffffffffffffffff1673ffffffffffffffffffffffffffffffffffffffff16815260200182815260200192505050602060405180830381600087803b1580156111aa57600080fd5b505af11580156111be573d6000803e3d6000fd5b505050506040513d60208110156111d457600080fd5b8101908080519060200190929190505050505050565b6000805a90506000611246308c60008d8d8080601f016020809104026020016040519081016040528093929190818152602001838380828437600081840152601f19601f820116905080830192505050505050508c8a8a611cca565b90506112538b8983611ec7565b6112c5576040517f08c379a00000000000000000000000000000000000000000000000000000000081526004018080602001828103825260158152602001807f524d3a204475706c69636174652072657175657374000000000000000000000081525060200191505060405180910390fd5b6113138b8b8b8080601f016020809104026020016040519081016040528093929190818152602001838380828437600081840152601f19601f82011690508083019250505050505050611edc565b611368576040517f08c379a000000000000000000000000000000000000000000000000000000000815260040180806020018281038252604a81526020018061287e604a913960600191505060405180910390fd5b60006113b88c8c8c8080601f016020809104026020016040519081016040528093929190818152602001838380828437600081840152601f19601f82011690508083019250505050505050611f97565b905087879050604182021415611506576113d48c868884611fa3565b1561150557600081148061147857506114778c8c8c8080601f016020809104026020016040519081016040528093929190818152602001838380828437600081840152601f19601f82011690508083019250505050505050848b8b8080601f016020809104026020016040519081016040528093929190818152602001838380828437600081840152601f19601f820116905080830192505050505050506120b9565b5b15611504573073ffffffffffffffffffffffffffffffffffffffff168b8b6040518083838082843780830192505050925050506000604051808303816000865af19150503d80600081146114e8576040519150601f19603f3d011682016040523d82523d6000602084013e6114ed565b606091505b5050809450506115038c5a850388888533612253565b5b5b5b8315158c73ffffffffffffffffffffffffffffffffffffffff167f6bb0b384ce772133df63560651bc8c727c53306cec1d51e2cbf8ea35fb8f2ec1846040518082815260200191505060405180910390a350505098975050505050505050565b60026020528060005260406000206000915090508060000154905081565b806000611704600160009054906101000a900473ffffffffffffffffffffffffffffffffffffffff1673ffffffffffffffffffffffffffffffffffffffff1663f18858ab846040518263ffffffff1660e01b8152600401808273ffffffffffffffffffffffffffffffffffffffff1673ffffffffffffffffffffffffffffffffffffffff16815260200191505060006040518083038186803b15801561162957600080fd5b505afa15801561163d573d6000803e3d6000fd5b505050506040513d6000823e3d601f19601f82011682018060405250602081101561166757600080fd5b810190808051604051939291908464010000000082111561168757600080fd5b8382019150602082018581111561169d57600080fd5b82518660208202830111640100000000821117156116ba57600080fd5b8083526020830192505050908051906020019060200280838360005b838110156116f15780820151818401526020810190506116d6565b5050505090500160405250505033611a2f565b5090503073ffffffffffffffffffffffffffffffffffffffff163373ffffffffffffffffffffffffffffffffffffffff16148061173e5750805b6117b0576040517f08c379a000000000000000000000000000000000000000000000000000000000815260040180806020018281038252601b8152602001807f47443a2077616c6c6574206d75737420626520756e6c6f636b6564000000000081525060200191505060405180910390fd5b82600160009054906101000a900473ffffffffffffffffffffffffffffffffffffffff1673ffffffffffffffffffffffffffffffffffffffff16634a4fbeec826040518263ffffffff1660e01b8152600401808273ffffffffffffffffffffffffffffffffffffffff1673ffffffffffffffffffffffffffffffffffffffff16815260200191505060206040518083038186803b15801561185057600080fd5b505afa158015611864573d6000803e3d6000fd5b505050506040513d602081101561187a57600080fd5b8101908080519060200190929190505050156118fe576040517f08c379a000000000000000000000000000000000000000000000000000000000815260040180806020018281038252601b8152602001807f424d3a2077616c6c6574206d75737420626520756e6c6f636b6564000000000081525060200191505060405180910390fd5b600160009054906101000a900473ffffffffffffffffffffffffffffffffffffffff1673ffffffffffffffffffffffffffffffffffffffff1663b0fc29e68560035442016040518363ffffffff1660e01b8152600401808373ffffffffffffffffffffffffffffffffffffffff1673ffffffffffffffffffffffffffffffffffffffff16815260200182815260200192505050600060405180830381600087803b1580156119ab57600080fd5b505af11580156119bf573d6000803e3d6000fd5b505050508373ffffffffffffffffffffffffffffffffffffffff167f6395bace6e0acbe4f22761b149d3cc2e88c7dde6bf4d8481825eef404cf989a16003544201604051808267ffffffffffffffff1667ffffffffffffffff16815260200191505060405180910390a250505050565b60006060600084511480611a6f5750600073ffffffffffffffffffffffffffffffffffffffff168373ffffffffffffffffffffffffffffffffffffffff16145b15611a805760008491509150611c0a565b600080905060606001865103604051908082528060200260200182016040528015611aba5781602001602082028038833980820191505090505b509050600080905060008090505b8751811015611bf05783611b7657878181518110611ae257fe5b602002602001015173ffffffffffffffffffffffffffffffffffffffff168773ffffffffffffffffffffffffffffffffffffffff161415611b265760019350611be3565b611b42888281518110611b3557fe5b60200260200101516122bb565b8015611b675750611b66888281518110611b5857fe5b6020026020010151886122d4565b5b15611b755760019350611be3565b5b8251821015611be257878181518110611b8b57fe5b6020026020010151838381518110611b9f57fe5b602002602001019073ffffffffffffffffffffffffffffffffffffffff16908173ffffffffffffffffffffffffffffffffffffffff168152505081806001019250505b5b8080600101915050611ac8565b5082611bfe57600087611c02565b6001825b945094505050505b9250929050565b60008173ffffffffffffffffffffffffffffffffffffffff168373ffffffffffffffffffffffffffffffffffffffff16638da5cb5b6040518163ffffffff1660e01b815260040160206040518083038186803b158015611c7057600080fd5b505afa158015611c84573d6000803e3d6000fd5b505050506040513d6020811015611c9a57600080fd5b810190808051906020019092919050505073ffffffffffffffffffffffffffffffffffffffff1614905092915050565b6000601960f81b600060f81b89898989898989604051602001808a7effffffffffffffffffffffffffffffffffffffffffffffffffffffffffffff19167effffffffffffffffffffffffffffffffffffffffffffffffffffffffffffff19168152600101897effffffffffffffffffffffffffffffffffffffffffffffffffffffffffffff19167effffffffffffffffffffffffffffffffffffffffffffffffffffffffffffff191681526001018873ffffffffffffffffffffffffffffffffffffffff1673ffffffffffffffffffffffffffffffffffffffff1660601b81526014018773ffffffffffffffffffffffffffffffffffffffff1673ffffffffffffffffffffffffffffffffffffffff1660601b815260140186815260200185805190602001908083835b60208310611e175780518252602082019150602081019050602083039250611df4565b6001836020036101000a03801982511681845116808217855250505050505090500184815260200183815260200182815260200199505050505050505050506040516020818303038152906040528051906020012060405160200180807f19457468657265756d205369676e6564204d6573736167653a0a333200000000815250601c01828152602001915050604051602081830303815290604052805190602001209050979650505050505050565b6000611ed3848461236f565b90509392505050565b6000602482511015611f56576040517f08c379a00000000000000000000000000000000000000000000000000000000081526004018080602001828103825260168152602001807f524d3a20496e76616c6964206461746157616c6c65740000000000000000000081525060200191505060405180910390fd5b6000602483015190508373ffffffffffffffffffffffffffffffffffffffff168173ffffffffffffffffffffffffffffffffffffffff161491505092915050565b60006001905092915050565b60008083118015611fb45750600182115b801561209e57508284028573ffffffffffffffffffffffffffffffffffffffff1631108061209d5750600015158573ffffffffffffffffffffffffffffffffffffffff1663d6eb1bbf306040518263ffffffff1660e01b8152600401808273ffffffffffffffffffffffffffffffffffffffff1673ffffffffffffffffffffffffffffffffffffffff16815260200191505060206040518083038186803b15801561205e57600080fd5b505afa158015612072573d6000803e3d6000fd5b505050506040513d602081101561208857600080fd5b81019080805190602001909291905050501515145b5b156120ac57600090506120b1565b600190505b949350505050565b600080612244600160009054906101000a900473ffffffffffffffffffffffffffffffffffffffff1673ffffffffffffffffffffffffffffffffffffffff1663f18858ab886040518263ffffffff1660e01b8152600401808273ffffffffffffffffffffffffffffffffffffffff1673ffffffffffffffffffffffffffffffffffffffff16815260200191505060006040518083038186803b15801561215e57600080fd5b505afa158015612172573d6000803e3d6000fd5b505050506040513d6000823e3d601f19601f82011682018060405250602081101561219c57600080fd5b81019080805160405193929190846401000000008211156121bc57600080fd5b838201915060208201858111156121d257600080fd5b82518660208202830111640100000000821117156121ef57600080fd5b8083526020830192505050908051906020019060200280838360005b8381101561222657808201518184015260208101905061220b565b5050505090500160405250505061223f86866000612457565b611a2f565b50905080915050949350505050565b60008561726c01905060008511801561226c5750600183115b80156122785750838111155b156122b2573a85111561228f573a81029050612295565b84810290505b6122b087838360405180602001604052806000815250612515565b505b50505050505050565b600080823b905060008163ffffffff1611915050919050565b60008060009050600060405180807f6f776e657228290000000000000000000000000000000000000000000000000081525060070190506040518091039020905060405181815260208160208389611388fa600181141561233457815193505b50508373ffffffffffffffffffffffffffffffffffffffff168273ffffffffffffffffffffffffffffffffffffffff16149250505092915050565b6000600260008473ffffffffffffffffffffffffffffffffffffffff1673ffffffffffffffffffffffffffffffffffffffff1681526020019081526020016000206000015482116123c35760009050612451565b600060807fffffffffffffffffffffffffffffffff000000000000000000000000000000008416901c90506127104301811115612404576000915050612451565b82600260008673ffffffffffffffffffffffffffffffffffffffff1673ffffffffffffffffffffffffffffffffffffffff1681526020019081526020016000206000018190555060019150505b92915050565b60008060008084604102602001860151915084604102604001860151905060ff85604102604101870151169250601b8360ff1614806124995750601c8360ff16145b6124a257600080fd5b60018784848460405160008152602001604052604051808581526020018460ff1660ff1681526020018381526020018281526020019450505050506020604051602081039080840390855afa1580156124ff573d6000803e3d6000fd5b5050506020604051035193505050509392505050565b606060008573ffffffffffffffffffffffffffffffffffffffff16858585604051602401808473ffffffffffffffffffffffffffffffffffffffff1673ffffffffffffffffffffffffffffffffffffffff16815260200183815260200180602001828103825283818151815260200191508051906020019080838360005b838110156125ae578082015181840152602081019050612593565b50505050905090810190601f1680156125db5780820380516001836020036101000a031916815260200191505b509450505050506040516020818303038152906040527f8f6f0332000000000000000000000000000000000000000000000000000000007bffffffffffffffffffffffffffffffffffffffffffffffffffffffff19166020820180517bffffffffffffffffffffffffffffffffffffffffffffffffffffffff83818316178352505050506040518082805190602001908083835b60208310612692578051825260208201915060208101905060208303925061266f565b6001836020036101000a0380198251168184511680821785525050505050509050019150506000604051808303816000865af19150503d80600081146126f4576040519150601f19603f3d011682016040523d82523d6000602084013e6126f9565b606091505b508093508192505050808015612710575060008251115b156127ec5781806020019051602081101561272a57600080fd5b810190808051604051939291908464010000000082111561274a57600080fd5b8382019150602082018581111561276057600080fd5b825186600182028301116401000000008211171561277d57600080fd5b8083526020830192505050908051906020019080838360005b838110156127b1578082015181840152602081019050612796565b50505050905090810190601f1680156127de5780820380516001836020036101000a031916815260200191505b506040525050509150612874565b600082511115612800573d6000803e3d6000fd5b80612873576040517f08c379a000000000000000000000000000000000000000000000000000000000815260040180806020018281038252601a8152602001807f424d3a2077616c6c657420696e766f6b6520726576657274656400000000000081525060200191505060405180910390fd5b5b5094935050505056fe524d3a207468652077616c6c657420617574686f72697a656420697320646966666572656e74207468656e2074686520746172676574206f66207468652072656c617965642064617461424d3a206d73672e73656e646572206d75737420626520616e206f776e657220666f72207468652077616c6c65744c4d3a2063616e6e6f7420756e6c6f636b20612077616c6c6574207468617420776173206c6f636b656420627920616e6f74686572206d6f64756c65a265627a7a72315820769f9c6386807d358d5bd7bca979313e0c49cdc583e59d72b76c2d21310cf4a064736f6c63430005100032",
  "source": "// Copyright (C) 2018  Argent Labs Ltd. <https://argent.xyz>\n\n// This program is free software: you can redistribute it and/or modify\n// it under the terms of the GNU General Public License as published by\n// the Free Software Foundation, either version 3 of the License, or\n// (at your option) any later version.\n\n// This program is distributed in the hope that it will be useful,\n// but WITHOUT ANY WARRANTY; without even the implied warranty of\n// MERCHANTABILITY or FITNESS FOR A PARTICULAR PURPOSE.  See the\n// GNU General Public License for more details.\n\n// You should have received a copy of the GNU General Public License\n// along with this program.  If not, see <http://www.gnu.org/licenses/>.\n\npragma solidity ^0.5.4;\nimport \"../wallet/BaseWallet.sol\";\nimport \"./common/BaseModule.sol\";\nimport \"./common/RelayerModule.sol\";\nimport \"../utils/GuardianUtils.sol\";\n\n/**\n * @title LockManager\n * @dev Module to manage the state of a wallet's lock.\n * Other modules can use the state of the lock to determine if their operations\n * should be authorised or blocked. Only the guardians of a wallet can lock and unlock it.\n * The lock automatically unlocks after a given period. The lock state is stored on a saparate\n * contract to facilitate its use by other modules.\n * @author Julien Niset - <julien@argent.im>\n * @author Olivier Van Den Biggelaar - <olivier@argent.im>\n */\ncontract LockManager is BaseModule, RelayerModule {\n\n    bytes32 constant NAME = \"LockManager\";\n\n    // The lock period\n    uint256 public lockPeriod;\n\n    // *************** Events *************************** //\n\n    event Locked(address indexed wallet, uint64 releaseAfter);\n    event Unlocked(address indexed wallet);\n\n    // *************** Modifiers ************************ //\n\n    /**\n     * @dev Throws if the wallet is not locked.\n     */\n    modifier onlyWhenLocked(BaseWallet _wallet) {\n        // solium-disable-next-line security/no-block-members\n        require(guardianStorage.isLocked(_wallet), \"GD: wallet must be locked\");\n        _;\n    }\n\n    /**\n     * @dev Throws if the caller is not a guardian for the wallet.\n     */\n    modifier onlyGuardian(BaseWallet _wallet) {\n        (bool isGuardian, ) = GuardianUtils.isGuardian(guardianStorage.getGuardians(_wallet), msg.sender);\n        require(msg.sender == address(this) || isGuardian, \"GD: wallet must be unlocked\");\n        _;\n    }\n\n    // *************** Constructor ************************ //\n\n    constructor(\n        ModuleRegistry _registry,\n        GuardianStorage _guardianStorage,\n        uint256 _lockPeriod\n    )\n        BaseModule(_registry, _guardianStorage, NAME) public {\n        lockPeriod = _lockPeriod;\n    }\n\n    // *************** External functions ************************ //\n\n    /**\n     * @dev Lets a guardian lock a wallet.\n     * @param _wallet The target wallet.\n     */\n    function lock(BaseWallet _wallet) external onlyGuardian(_wallet) onlyWhenUnlocked(_wallet) {\n        guardianStorage.setLock(_wallet, now + lockPeriod);\n        emit Locked(address(_wallet), uint64(now + lockPeriod));\n    }\n\n    /**\n     * @dev Lets a guardian unlock a locked wallet.\n     * @param _wallet The target wallet.\n     */\n    function unlock(BaseWallet _wallet) external onlyGuardian(_wallet) onlyWhenLocked(_wallet) {\n        address locker = guardianStorage.getLocker(_wallet);\n        require(locker == address(this), \"LM: cannot unlock a wallet that was locked by another module\");\n        guardianStorage.setLock(_wallet, 0);\n        emit Unlocked(address(_wallet));\n    }\n\n    /**\n     * @dev Returns the release time of a wallet lock or 0 if the wallet is unlocked.\n     * @param _wallet The target wallet.\n     * @return The epoch time at which the lock will release (in seconds).\n     */\n    function getLock(BaseWallet _wallet) public view returns(uint64 _releaseAfter) {\n        uint256 lockEnd = guardianStorage.getLock(_wallet);\n        if (lockEnd > now) {\n            _releaseAfter = uint64(lockEnd);\n        }\n    }\n\n    /**\n     * @dev Checks if a wallet is locked.\n     * @param _wallet The target wallet.\n     * @return true if the wallet is locked.\n     */\n    function isLocked(BaseWallet _wallet) external view returns (bool _isLocked) {\n        return guardianStorage.isLocked(_wallet);\n    }\n\n    // *************** Implementation of RelayerModule methods ********************* //\n\n    // Overrides to use the incremental nonce and save some gas\n    function checkAndUpdateUniqueness(BaseWallet _wallet, uint256 _nonce, bytes32 /* _signHash */) internal returns (bool) {\n        return checkAndUpdateNonce(_wallet, _nonce);\n    }\n\n    function validateSignatures(\n        BaseWallet _wallet,\n        bytes memory /* _data */,\n        bytes32 _signHash,\n        bytes memory _signatures\n    )\n        internal\n        view\n        returns (bool)\n    {\n        (bool isGuardian, ) = GuardianUtils.isGuardian(guardianStorage.getGuardians(_wallet), recoverSigner(_signHash, _signatures, 0));\n        return isGuardian; // \"LM: must be a guardian to lock or unlock\"\n    }\n\n    function getRequiredSignatures(BaseWallet /* _wallet */, bytes memory /* _data */) internal view returns (uint256) {\n        return 1;\n    }\n}",
  "sourcePath": "/Users/name/dev/argent-contracts-release-1.5.0/contracts/modules/LockManager.sol",
  "compiler": {
    "name": "solc",
    "version": "0.5.16+commit.9c3226ce.Emscripten.clang"
  },
  "schemaVersion": "3.0.23",
  "updatedAt": "2020-03-31T19:53:31.155Z",
  "devdoc": {
    "author": "Julien Niset - <julien@argent.im>Olivier Van Den Biggelaar - <olivier@argent.im>",
    "details": "Module to manage the state of a wallet's lock. Other modules can use the state of the lock to determine if their operations should be authorised or blocked. Only the guardians of a wallet can lock and unlock it. The lock automatically unlocks after a given period. The lock state is stored on a saparate contract to facilitate its use by other modules.",
    "methods": {
      "addModule(address,address)": {
        "details": "Adds a module to a wallet. First checks that the module is registered.",
        "params": {
          "_module": "The modules to authorise.",
          "_wallet": "The target wallet."
        }
      },
      "execute(address,bytes,uint256,bytes,uint256,uint256)": {
        "details": "Executes a relayed transaction.",
        "params": {
          "_data": "The data for the relayed transaction",
          "_gasLimit": "The gas limit to use for the gas refund.",
          "_gasPrice": "The gas price to use for the gas refund.",
          "_nonce": "The nonce used to prevent replay attacks.",
          "_signatures": "The signatures as a concatenated byte array.",
          "_wallet": "The target wallet."
        }
      },
      "getLock(address)": {
        "details": "Returns the release time of a wallet lock or 0 if the wallet is unlocked.",
        "params": {
          "_wallet": "The target wallet."
        },
        "return": "The epoch time at which the lock will release (in seconds)."
      },
      "getNonce(address)": {
        "details": "Gets the current nonce for a wallet.",
        "params": {
          "_wallet": "The target wallet."
        }
      },
      "init(address)": {
        "details": "Inits the module for a wallet by logging an event. The method can only be called by the wallet itself.",
        "params": {
          "_wallet": "The wallet."
        }
      },
      "isLocked(address)": {
        "details": "Checks if a wallet is locked.",
        "params": {
          "_wallet": "The target wallet."
        },
        "return": "true if the wallet is locked."
      },
      "lock(address)": {
        "details": "Lets a guardian lock a wallet.",
        "params": {
          "_wallet": "The target wallet."
        }
      },
      "recoverToken(address)": {
        "details": "Utility method enbaling anyone to recover ERC20 token sent to the module by mistake and transfer them to the Module Registry.",
        "params": {
          "_token": "The token to recover."
        }
      },
      "unlock(address)": {
        "details": "Lets a guardian unlock a locked wallet.",
        "params": {
          "_wallet": "The target wallet."
        }
      }
    },
    "title": "LockManager"
  },
  "userdoc": {
    "methods": {}
  }
}