{
  "contractName": "MakerManager",
  "abi": [
    {
      "inputs": [
        {
          "internalType": "contract ModuleRegistry",
          "name": "_registry",
          "type": "address"
        },
        {
          "internalType": "contract GuardianStorage",
          "name": "_guardianStorage",
          "type": "address"
        },
        {
          "internalType": "contract IMakerCdp",
          "name": "_makerCdp",
          "type": "address"
        },
        {
          "internalType": "contract IUniswapFactory",
          "name": "_uniswapFactory",
          "type": "address"
        }
      ],
      "payable": false,
      "stateMutability": "nonpayable",
      "type": "constructor"
    },
    {
      "anonymous": false,
      "inputs": [
        {
          "indexed": true,
          "internalType": "address",
          "name": "_wallet",
          "type": "address"
        },
        {
          "indexed": true,
          "internalType": "bytes32",
          "name": "_loanId",
          "type": "bytes32"
        },
        {
          "indexed": false,
          "internalType": "address",
          "name": "_collateral",
          "type": "address"
        },
        {
          "indexed": false,
          "internalType": "uint256",
          "name": "_collateralAmount",
          "type": "uint256"
        }
      ],
      "name": "CollateralAdded",
      "type": "event"
    },
    {
      "anonymous": false,
      "inputs": [
        {
          "indexed": true,
          "internalType": "address",
          "name": "_wallet",
          "type": "address"
        },
        {
          "indexed": true,
          "internalType": "bytes32",
          "name": "_loanId",
          "type": "bytes32"
        },
        {
          "indexed": false,
          "internalType": "address",
          "name": "_collateral",
          "type": "address"
        },
        {
          "indexed": false,
          "internalType": "uint256",
          "name": "_collateralAmount",
          "type": "uint256"
        }
      ],
      "name": "CollateralRemoved",
      "type": "event"
    },
    {
      "anonymous": false,
      "inputs": [
        {
          "indexed": true,
          "internalType": "address",
          "name": "_wallet",
          "type": "address"
        },
        {
          "indexed": true,
          "internalType": "bytes32",
          "name": "_loanId",
          "type": "bytes32"
        },
        {
          "indexed": false,
          "internalType": "address",
          "name": "_debtToken",
          "type": "address"
        },
        {
          "indexed": false,
          "internalType": "uint256",
          "name": "_debtAmount",
          "type": "uint256"
        }
      ],
      "name": "DebtAdded",
      "type": "event"
    },
    {
      "anonymous": false,
      "inputs": [
        {
          "indexed": true,
          "internalType": "address",
          "name": "_wallet",
          "type": "address"
        },
        {
          "indexed": true,
          "internalType": "bytes32",
          "name": "_loanId",
          "type": "bytes32"
        },
        {
          "indexed": false,
          "internalType": "address",
          "name": "_debtToken",
          "type": "address"
        },
        {
          "indexed": false,
          "internalType": "uint256",
          "name": "_debtAmount",
          "type": "uint256"
        }
      ],
      "name": "DebtRemoved",
      "type": "event"
    },
    {
      "anonymous": false,
      "inputs": [
        {
          "indexed": true,
          "internalType": "address",
          "name": "_wallet",
          "type": "address"
        },
        {
          "indexed": true,
          "internalType": "bytes32",
          "name": "_loanId",
          "type": "bytes32"
        }
      ],
      "name": "LoanClosed",
      "type": "event"
    },
    {
      "anonymous": false,
      "inputs": [
        {
          "indexed": true,
          "internalType": "address",
          "name": "_wallet",
          "type": "address"
        },
        {
          "indexed": true,
          "internalType": "bytes32",
          "name": "_loanId",
          "type": "bytes32"
        },
        {
          "indexed": false,
          "internalType": "address",
          "name": "_collateral",
          "type": "address"
        },
        {
          "indexed": false,
          "internalType": "uint256",
          "name": "_collateralAmount",
          "type": "uint256"
        },
        {
          "indexed": false,
          "internalType": "address",
          "name": "_debtToken",
          "type": "address"
        },
        {
          "indexed": false,
          "internalType": "uint256",
          "name": "_debtAmount",
          "type": "uint256"
        }
      ],
      "name": "LoanOpened",
      "type": "event"
    },
    {
      "anonymous": false,
      "inputs": [
        {
          "indexed": false,
          "internalType": "bytes32",
          "name": "name",
          "type": "bytes32"
        }
      ],
      "name": "ModuleCreated",
      "type": "event"
    },
    {
      "anonymous": false,
      "inputs": [
        {
          "indexed": false,
          "internalType": "address",
          "name": "wallet",
          "type": "address"
        }
      ],
      "name": "ModuleInitialised",
      "type": "event"
    },
    {
      "anonymous": false,
      "inputs": [
        {
          "indexed": true,
          "internalType": "address",
          "name": "wallet",
          "type": "address"
        },
        {
          "indexed": true,
          "internalType": "bool",
          "name": "success",
          "type": "bool"
        },
        {
          "indexed": false,
          "internalType": "bytes32",
          "name": "signedHash",
          "type": "bytes32"
        }
      ],
      "name": "TransactionExecuted",
      "type": "event"
    },
    {
      "constant": false,
      "inputs": [
        {
          "internalType": "contract BaseWallet",
          "name": "_wallet",
          "type": "address"
        },
        {
          "internalType": "contract Module",
          "name": "_module",
          "type": "address"
        }
      ],
      "name": "addModule",
      "outputs": [],
      "payable": false,
      "stateMutability": "nonpayable",
      "type": "function"
    },
    {
      "constant": false,
      "inputs": [
        {
          "internalType": "contract BaseWallet",
          "name": "_wallet",
          "type": "address"
        },
        {
          "internalType": "bytes",
          "name": "_data",
          "type": "bytes"
        },
        {
          "internalType": "uint256",
          "name": "_nonce",
          "type": "uint256"
        },
        {
          "internalType": "bytes",
          "name": "_signatures",
          "type": "bytes"
        },
        {
          "internalType": "uint256",
          "name": "_gasPrice",
          "type": "uint256"
        },
        {
          "internalType": "uint256",
          "name": "_gasLimit",
          "type": "uint256"
        }
      ],
      "name": "execute",
      "outputs": [
        {
          "internalType": "bool",
          "name": "success",
          "type": "bool"
        }
      ],
      "payable": false,
      "stateMutability": "nonpayable",
      "type": "function"
    },
    {
      "constant": true,
      "inputs": [
        {
          "internalType": "contract BaseWallet",
          "name": "_wallet",
          "type": "address"
        }
      ],
      "name": "getNonce",
      "outputs": [
        {
          "internalType": "uint256",
          "name": "nonce",
          "type": "uint256"
        }
      ],
      "payable": false,
      "stateMutability": "view",
      "type": "function"
    },
    {
      "constant": false,
      "inputs": [
        {
          "internalType": "contract BaseWallet",
          "name": "_wallet",
          "type": "address"
        }
      ],
      "name": "init",
      "outputs": [],
      "payable": false,
      "stateMutability": "nonpayable",
      "type": "function"
    },
    {
      "constant": true,
      "inputs": [],
      "name": "isOnlyOwnerModule",
      "outputs": [
        {
          "internalType": "bytes4",
          "name": "",
          "type": "bytes4"
        }
      ],
      "payable": false,
      "stateMutability": "pure",
      "type": "function"
    },
    {
      "constant": true,
      "inputs": [],
      "name": "makerCdp",
      "outputs": [
        {
          "internalType": "contract IMakerCdp",
          "name": "",
          "type": "address"
        }
      ],
      "payable": false,
      "stateMutability": "view",
      "type": "function"
    },
    {
      "constant": false,
      "inputs": [
        {
          "internalType": "address",
          "name": "_token",
          "type": "address"
        }
      ],
      "name": "recoverToken",
      "outputs": [],
      "payable": false,
      "stateMutability": "nonpayable",
      "type": "function"
    },
    {
      "constant": true,
      "inputs": [
        {
          "internalType": "address",
          "name": "",
          "type": "address"
        }
      ],
      "name": "relayer",
      "outputs": [
        {
          "internalType": "uint256",
          "name": "nonce",
          "type": "uint256"
        }
      ],
      "payable": false,
      "stateMutability": "view",
      "type": "function"
    },
    {
      "constant": true,
      "inputs": [],
      "name": "uniswapFactory",
      "outputs": [
        {
          "internalType": "contract IUniswapFactory",
          "name": "",
          "type": "address"
        }
      ],
      "payable": false,
      "stateMutability": "view",
      "type": "function"
    },
    {
      "constant": false,
      "inputs": [
        {
          "internalType": "contract BaseWallet",
          "name": "_wallet",
          "type": "address"
        },
        {
          "internalType": "address",
          "name": "_collateral",
          "type": "address"
        },
        {
          "internalType": "uint256",
          "name": "_collateralAmount",
          "type": "uint256"
        },
        {
          "internalType": "address",
          "name": "_debtToken",
          "type": "address"
        },
        {
          "internalType": "uint256",
          "name": "_debtAmount",
          "type": "uint256"
        }
      ],
      "name": "openLoan",
      "outputs": [
        {
          "internalType": "bytes32",
          "name": "_loanId",
          "type": "bytes32"
        }
      ],
      "payable": false,
      "stateMutability": "nonpayable",
      "type": "function"
    },
    {
      "constant": false,
      "inputs": [
        {
          "internalType": "contract BaseWallet",
          "name": "_wallet",
          "type": "address"
        },
        {
          "internalType": "bytes32",
          "name": "_loanId",
          "type": "bytes32"
        }
      ],
      "name": "closeLoan",
      "outputs": [],
      "payable": false,
      "stateMutability": "nonpayable",
      "type": "function"
    },
    {
      "constant": true,
      "inputs": [
        {
          "internalType": "contract BaseWallet",
          "name": "",
          "type": "address"
        },
        {
          "internalType": "bytes32",
          "name": "_loanId",
          "type": "bytes32"
        }
      ],
      "name": "getLoan",
      "outputs": [
        {
          "internalType": "uint8",
          "name": "_status",
          "type": "uint8"
        },
        {
          "internalType": "uint256",
          "name": "_ethValue",
          "type": "uint256"
        }
      ],
      "payable": false,
      "stateMutability": "view",
      "type": "function"
    },
    {
      "constant": false,
      "inputs": [
        {
          "internalType": "contract BaseWallet",
          "name": "_wallet",
          "type": "address"
        },
        {
          "internalType": "bytes32",
          "name": "_loanId",
          "type": "bytes32"
        },
        {
          "internalType": "address",
          "name": "_collateral",
          "type": "address"
        },
        {
          "internalType": "uint256",
          "name": "_collateralAmount",
          "type": "uint256"
        }
      ],
      "name": "addCollateral",
      "outputs": [],
      "payable": false,
      "stateMutability": "nonpayable",
      "type": "function"
    },
    {
      "constant": false,
      "inputs": [
        {
          "internalType": "contract BaseWallet",
          "name": "_wallet",
          "type": "address"
        },
        {
          "internalType": "bytes32",
          "name": "_loanId",
          "type": "bytes32"
        },
        {
          "internalType": "address",
          "name": "_collateral",
          "type": "address"
        },
        {
          "internalType": "uint256",
          "name": "_collateralAmount",
          "type": "uint256"
        }
      ],
      "name": "removeCollateral",
      "outputs": [],
      "payable": false,
      "stateMutability": "nonpayable",
      "type": "function"
    },
    {
      "constant": false,
      "inputs": [
        {
          "internalType": "contract BaseWallet",
          "name": "_wallet",
          "type": "address"
        },
        {
          "internalType": "bytes32",
          "name": "_loanId",
          "type": "bytes32"
        },
        {
          "internalType": "address",
          "name": "_debtToken",
          "type": "address"
        },
        {
          "internalType": "uint256",
          "name": "_debtAmount",
          "type": "uint256"
        }
      ],
      "name": "addDebt",
      "outputs": [],
      "payable": false,
      "stateMutability": "nonpayable",
      "type": "function"
    },
    {
      "constant": false,
      "inputs": [
        {
          "internalType": "contract BaseWallet",
          "name": "_wallet",
          "type": "address"
        },
        {
          "internalType": "bytes32",
          "name": "_loanId",
          "type": "bytes32"
        },
        {
          "internalType": "address",
          "name": "_debtToken",
          "type": "address"
        },
        {
          "internalType": "uint256",
          "name": "_debtAmount",
          "type": "uint256"
        }
      ],
      "name": "removeDebt",
      "outputs": [],
      "payable": false,
      "stateMutability": "nonpayable",
      "type": "function"
    },
    {
      "constant": true,
      "inputs": [
        {
          "internalType": "bytes32",
          "name": "_cup",
          "type": "bytes32"
        },
        {
          "internalType": "contract IMakerCdp",
          "name": "_makerCdp",
          "type": "address"
        }
      ],
      "name": "pethCollateral",
      "outputs": [
        {
          "internalType": "uint256",
          "name": "",
          "type": "uint256"
        }
      ],
      "payable": false,
      "stateMutability": "view",
      "type": "function"
    },
    {
      "constant": false,
      "inputs": [
        {
          "internalType": "bytes32",
          "name": "_cup",
          "type": "bytes32"
        },
        {
          "internalType": "contract IMakerCdp",
          "name": "_makerCdp",
          "type": "address"
        }
      ],
      "name": "daiDebt",
      "outputs": [
        {
          "internalType": "uint256",
          "name": "",
          "type": "uint256"
        }
      ],
      "payable": false,
      "stateMutability": "nonpayable",
      "type": "function"
    },
    {
      "constant": false,
      "inputs": [
        {
          "internalType": "bytes32",
          "name": "_cup",
          "type": "bytes32"
        },
        {
          "internalType": "contract IMakerCdp",
          "name": "_makerCdp",
          "type": "address"
        }
      ],
      "name": "isSafe",
      "outputs": [
        {
          "internalType": "bool",
          "name": "",
          "type": "bool"
        }
      ],
      "payable": false,
      "stateMutability": "nonpayable",
      "type": "function"
    },
    {
      "constant": true,
      "inputs": [
        {
          "internalType": "bytes32",
          "name": "_cup",
          "type": "bytes32"
        },
        {
          "internalType": "contract IMakerCdp",
          "name": "_makerCdp",
          "type": "address"
        }
      ],
      "name": "exists",
      "outputs": [
        {
          "internalType": "bool",
          "name": "",
          "type": "bool"
        }
      ],
      "payable": false,
      "stateMutability": "view",
      "type": "function"
    },
    {
      "constant": false,
      "inputs": [
        {
          "internalType": "bytes32",
          "name": "_cup",
          "type": "bytes32"
        },
        {
          "internalType": "contract IMakerCdp",
          "name": "_makerCdp",
          "type": "address"
        }
      ],
      "name": "maxDaiDrawable",
      "outputs": [
        {
          "internalType": "uint256",
          "name": "",
          "type": "uint256"
        }
      ],
      "payable": false,
      "stateMutability": "nonpayable",
      "type": "function"
    },
    {
      "constant": false,
      "inputs": [
        {
          "internalType": "bytes32",
          "name": "_cup",
          "type": "bytes32"
        },
        {
          "internalType": "contract IMakerCdp",
          "name": "_makerCdp",
          "type": "address"
        }
      ],
      "name": "minCollateralRequired",
      "outputs": [
        {
          "internalType": "uint256",
          "name": "",
          "type": "uint256"
        }
      ],
      "payable": false,
      "stateMutability": "nonpayable",
      "type": "function"
    },
    {
      "constant": false,
      "inputs": [
        {
          "internalType": "bytes32",
          "name": "_cup",
          "type": "bytes32"
        },
        {
          "internalType": "uint256",
          "name": "_daiRefund",
          "type": "uint256"
        },
        {
          "internalType": "contract IMakerCdp",
          "name": "_makerCdp",
          "type": "address"
        }
      ],
      "name": "governanceFeeInMKR",
      "outputs": [
        {
          "internalType": "uint256",
          "name": "_fee",
          "type": "uint256"
        }
      ],
      "payable": false,
      "stateMutability": "nonpayable",
      "type": "function"
    },
    {
      "constant": false,
      "inputs": [
        {
          "internalType": "bytes32",
          "name": "_cup",
          "type": "bytes32"
        },
        {
          "internalType": "contract IMakerCdp",
          "name": "_makerCdp",
          "type": "address"
        }
      ],
      "name": "totalGovernanceFeeInMKR",
      "outputs": [
        {
          "internalType": "uint256",
          "name": "_fee",
          "type": "uint256"
        }
      ],
      "payable": false,
      "stateMutability": "nonpayable",
      "type": "function"
    },
    {
      "constant": false,
      "inputs": [
        {
          "internalType": "bytes32",
          "name": "_cup",
          "type": "bytes32"
        },
        {
          "internalType": "contract IMakerCdp",
          "name": "_makerCdp",
          "type": "address"
        }
      ],
      "name": "minRequiredCollateral",
      "outputs": [
        {
          "internalType": "uint256",
          "name": "_minCollateral",
          "type": "uint256"
        }
      ],
      "payable": false,
      "stateMutability": "nonpayable",
      "type": "function"
    }
  ],
  "bytecode": "0x60806040523480156200001157600080fd5b506040516200613e3803806200613e833981810160405260808110156200003757600080fd5b810190808051906020019092919080519060200190929190805190602001909291908051906020019092919050505083837f4d616b65724d616e616765720000000000000000000000000000000000000000826000806101000a81548173ffffffffffffffffffffffffffffffffffffffff021916908373ffffffffffffffffffffffffffffffffffffffff16021790555081600160006101000a81548173ffffffffffffffffffffffffffffffffffffffff021916908373ffffffffffffffffffffffffffffffffffffffff1602179055507f3019c8fc80239e3dff8f781212ae2004839c2cb61d6c70acd279ac65392145df816040518082815260200191505060405180910390a150505081600360006101000a81548173ffffffffffffffffffffffffffffffffffffffff021916908373ffffffffffffffffffffffffffffffffffffffff16021790555080600460006101000a81548173ffffffffffffffffffffffffffffffffffffffff021916908373ffffffffffffffffffffffffffffffffffffffff16021790555050505050615f6480620001da6000396000f3fe608060405234801561001057600080fd5b50600436106101725760003560e01c80638bdb2afa116100de578063aacaaf8811610097578063b352d4af11610071578063b352d4af14610a50578063c9b5ef8e14610ac8578063d490da4d14610b20578063e8ca0ca314610b7c57610172565b8063aacaaf8814610808578063ac5f8d511461092c578063b02c808d146109a457610172565b80638bdb2afa1461061a578063953b4e85146106645780639be65a60146106ae578063a4a2850c146106f2578063a8b3dad114610758578063a90cf0af146107ba57610172565b80635a1db8c4116101305780635a1db8c41461039f5780635dc0409a146104035780637cea5aff1461046557806381c44b5c146104c757806383c5b0251461053657806385a13f38146105a257610172565b8062895232146101775780630a40f3ef146101dd5780630f1d5c981461023f57806319ab453c146102a15780632d0335ab146102e55780632d4a72211461033d575b600080fd5b6101c36004803603604081101561018d57600080fd5b8101908080359060200190929190803573ffffffffffffffffffffffffffffffffffffffff169060200190929190505050610bf4565b604051808215151515815260200191505060405180910390f35b610229600480360360408110156101f357600080fd5b8101908080359060200190929190803573ffffffffffffffffffffffffffffffffffffffff169060200190929190505050610c8c565b6040518082815260200191505060405180910390f35b61028b6004803603604081101561025557600080fd5b8101908080359060200190929190803573ffffffffffffffffffffffffffffffffffffffff169060200190929190505050610d24565b6040518082815260200191505060405180910390f35b6102e3600480360360208110156102b757600080fd5b81019080803573ffffffffffffffffffffffffffffffffffffffff169060200190929190505050610d42565b005b610327600480360360208110156102fb57600080fd5b81019080803573ffffffffffffffffffffffffffffffffffffffff169060200190929190505050610e4b565b6040518082815260200191505060405180910390f35b6103896004803603604081101561035357600080fd5b8101908080359060200190929190803573ffffffffffffffffffffffffffffffffffffffff169060200190929190505050610e97565b6040518082815260200191505060405180910390f35b610401600480360360408110156103b557600080fd5b81019080803573ffffffffffffffffffffffffffffffffffffffff169060200190929190803573ffffffffffffffffffffffffffffffffffffffff169060200190929190505050611209565b005b61044f6004803603604081101561041957600080fd5b8101908080359060200190929190803573ffffffffffffffffffffffffffffffffffffffff169060200190929190505050611493565b6040518082815260200191505060405180910390f35b6104b16004803603604081101561047b57600080fd5b8101908080359060200190929190803573ffffffffffffffffffffffffffffffffffffffff169060200190929190505050611529565b6040518082815260200191505060405180910390f35b610513600480360360408110156104dd57600080fd5b81019080803573ffffffffffffffffffffffffffffffffffffffff16906020019092919080359060200190929190505050611793565b604051808360ff1660ff1681526020018281526020019250505060405180910390f35b61058c6004803603606081101561054c57600080fd5b810190808035906020019092919080359060200190929190803573ffffffffffffffffffffffffffffffffffffffff1690602001909291905050506117ef565b6040518082815260200191505060405180910390f35b610618600480360360808110156105b857600080fd5b81019080803573ffffffffffffffffffffffffffffffffffffffff16906020019092919080359060200190929190803573ffffffffffffffffffffffffffffffffffffffff16906020019092919080359060200190929190505050611a12565b005b610622611df2565b604051808273ffffffffffffffffffffffffffffffffffffffff1673ffffffffffffffffffffffffffffffffffffffff16815260200191505060405180910390f35b61066c611e18565b604051808273ffffffffffffffffffffffffffffffffffffffff1673ffffffffffffffffffffffffffffffffffffffff16815260200191505060405180910390f35b6106f0600480360360208110156106c457600080fd5b81019080803573ffffffffffffffffffffffffffffffffffffffff169060200190929190505050611e3e565b005b61073e6004803603604081101561070857600080fd5b8101908080359060200190929190803573ffffffffffffffffffffffffffffffffffffffff169060200190929190505050611fe2565b604051808215151515815260200191505060405180910390f35b6107a46004803603604081101561076e57600080fd5b8101908080359060200190929190803573ffffffffffffffffffffffffffffffffffffffff1690602001909291905050506120a7565b6040518082815260200191505060405180910390f35b610806600480360360408110156107d057600080fd5b81019080803573ffffffffffffffffffffffffffffffffffffffff16906020019092919080359060200190929190505050612419565b005b610912600480360360c081101561081e57600080fd5b81019080803573ffffffffffffffffffffffffffffffffffffffff1690602001909291908035906020019064010000000081111561085b57600080fd5b82018360208201111561086d57600080fd5b8035906020019184600183028401116401000000008311171561088f57600080fd5b909192939192939080359060200190929190803590602001906401000000008111156108ba57600080fd5b8201836020820111156108cc57600080fd5b803590602001918460018302840111640100000000831117156108ee57600080fd5b90919293919293908035906020019092919080359060200190929190505050612697565b604051808215151515815260200191505060405180910390f35b6109a26004803603608081101561094257600080fd5b81019080803573ffffffffffffffffffffffffffffffffffffffff16906020019092919080359060200190929190803573ffffffffffffffffffffffffffffffffffffffff16906020019092919080359060200190929190505050612a13565b005b610a3a600480360360a08110156109ba57600080fd5b81019080803573ffffffffffffffffffffffffffffffffffffffff169060200190929190803573ffffffffffffffffffffffffffffffffffffffff16906020019092919080359060200190929190803573ffffffffffffffffffffffffffffffffffffffff16906020019092919080359060200190929190505050612d65565b6040518082815260200191505060405180910390f35b610ac660048036036080811015610a6657600080fd5b81019080803573ffffffffffffffffffffffffffffffffffffffff16906020019092919080359060200190929190803573ffffffffffffffffffffffffffffffffffffffff1690602001909291908035906020019092919050505061323d565b005b610b0a60048036036020811015610ade57600080fd5b81019080803573ffffffffffffffffffffffffffffffffffffffff16906020019092919050505061358f565b6040518082815260200191505060405180910390f35b610b286135ad565b60405180827bffffffffffffffffffffffffffffffffffffffffffffffffffffffff19167bffffffffffffffffffffffffffffffffffffffffffffffffffffffff1916815260200191505060405180910390f35b610bf260048036036080811015610b9257600080fd5b81019080803573ffffffffffffffffffffffffffffffffffffffff16906020019092919080359060200190929190803573ffffffffffffffffffffffffffffffffffffffff169060200190929190803590602001909291905050506135bc565b005b60008173ffffffffffffffffffffffffffffffffffffffff1663e95823ad846040518263ffffffff1660e01b815260040180828152602001915050602060405180830381600087803b158015610c4957600080fd5b505af1158015610c5d573d6000803e3d6000fd5b505050506040513d6020811015610c7357600080fd5b8101908080519060200190929190505050905092915050565b60008173ffffffffffffffffffffffffffffffffffffffff1663f7c8d634846040518263ffffffff1660e01b815260040180828152602001915050602060405180830381600087803b158015610ce157600080fd5b505af1158015610cf5573d6000803e3d6000fd5b505050506040513d6020811015610d0b57600080fd5b8101908080519060200190929190505050905092915050565b6000610d3a83610d348585610c8c565b846117ef565b905092915050565b808073ffffffffffffffffffffffffffffffffffffffff163373ffffffffffffffffffffffffffffffffffffffff1614610de4576040517f08c379a00000000000000000000000000000000000000000000000000000000081526004018080602001828103825260198152602001807f424d3a2063616c6c6572206d7573742062652077616c6c65740000000000000081525060200191505060405180910390fd5b7f9fcca3f73f85397e2bf03647abf243c20b753bd54463ff3cae74de2971c112fa82604051808273ffffffffffffffffffffffffffffffffffffffff1673ffffffffffffffffffffffffffffffffffffffff16815260200191505060405180910390a15050565b6000600260008373ffffffffffffffffffffffffffffffffffffffff1673ffffffffffffffffffffffffffffffffffffffff168152602001908152602001600020600001549050919050565b6000806111608373ffffffffffffffffffffffffffffffffffffffff166351f910666040518163ffffffff1660e01b815260040160206040518083038186803b158015610ee357600080fd5b505afa158015610ef7573d6000803e3d6000fd5b505050506040513d6020811015610f0d57600080fd5b81019080805190602001909291905050506111528573ffffffffffffffffffffffffffffffffffffffff166367550a356040518163ffffffff1660e01b815260040160206040518083038186803b158015610f6757600080fd5b505afa158015610f7b573d6000803e3d6000fd5b505050506040513d6020811015610f9157600080fd5b810190808051906020019092919050505073ffffffffffffffffffffffffffffffffffffffff1663495d32cb6040518163ffffffff1660e01b8152600401602060405180830381600087803b158015610fe957600080fd5b505af1158015610ffd573d6000803e3d6000fd5b505050506040513d602081101561101357600080fd5b81019080805190602001909291905050506111448773ffffffffffffffffffffffffffffffffffffffff1663ab0783da6040518163ffffffff1660e01b815260040160206040518083038186803b15801561106d57600080fd5b505afa158015611081573d6000803e3d6000fd5b505050506040513d602081101561109757600080fd5b81019080805190602001909291905050508873ffffffffffffffffffffffffffffffffffffffff1663f7c8d6348b6040518263ffffffff1660e01b815260040180828152602001915050602060405180830381600087803b1580156110fb57600080fd5b505af115801561110f573d6000803e3d6000fd5b505050506040513d602081101561112557600080fd5b81019080805190602001909291905050506139bf90919063ffffffff16565b6139bf90919063ffffffff16565b613a0790919063ffffffff16565b90506112008373ffffffffffffffffffffffffffffffffffffffff16631f3634ed866040518263ffffffff1660e01b81526004018082815260200191505060206040518083038186803b1580156111b657600080fd5b505afa1580156111ca573d6000803e3d6000fd5b505050506040513d60208110156111e057600080fd5b810190808051906020019092919050505082613a4390919063ffffffff16565b91505092915050565b813073ffffffffffffffffffffffffffffffffffffffff163373ffffffffffffffffffffffffffffffffffffffff16148061124a57506112498133613a63565b5b61129f576040517f08c379a0000000000000000000000000000000000000000000000000000000008152600401808060200182810382526023815260200180615f0d6023913960400191505060405180910390fd5b6000809054906101000a900473ffffffffffffffffffffffffffffffffffffffff1673ffffffffffffffffffffffffffffffffffffffff16630bcd4ebb836040518263ffffffff1660e01b8152600401808273ffffffffffffffffffffffffffffffffffffffff1673ffffffffffffffffffffffffffffffffffffffff16815260200191505060206040518083038186803b15801561133d57600080fd5b505afa158015611351573d6000803e3d6000fd5b505050506040513d602081101561136757600080fd5b81019080805190602001909291905050506113ea576040517f08c379a000000000000000000000000000000000000000000000000000000000815260040180806020018281038252601c8152602001807f424d3a206d6f64756c65206973206e6f7420726567697374657265640000000081525060200191505060405180910390fd5b8273ffffffffffffffffffffffffffffffffffffffff16631f17732d8360016040518363ffffffff1660e01b8152600401808373ffffffffffffffffffffffffffffffffffffffff1673ffffffffffffffffffffffffffffffffffffffff1681526020018215151515815260200192505050600060405180830381600087803b15801561147657600080fd5b505af115801561148a573d6000803e3d6000fd5b50505050505050565b60008173ffffffffffffffffffffffffffffffffffffffff16631f3634ed846040518263ffffffff1660e01b81526004018082815260200191505060206040518083038186803b1580156114e657600080fd5b505afa1580156114fa573d6000803e3d6000fd5b505050506040513d602081101561151057600080fd5b8101908080519060200190929190505050905092915050565b600061178b8273ffffffffffffffffffffffffffffffffffffffff166351f910666040518163ffffffff1660e01b815260040160206040518083038186803b15801561157457600080fd5b505afa158015611588573d6000803e3d6000fd5b505050506040513d602081101561159e57600080fd5b810190808051906020019092919050505061177d6b034373d1b5e481853200000061176f8673ffffffffffffffffffffffffffffffffffffffff1663ab0783da6040518163ffffffff1660e01b815260040160206040518083038186803b15801561160857600080fd5b505afa15801561161c573d6000803e3d6000fd5b505050506040513d602081101561163257600080fd5b81019080805190602001909291905050506117618873ffffffffffffffffffffffffffffffffffffffff166367550a356040518163ffffffff1660e01b815260040160206040518083038186803b15801561168c57600080fd5b505afa1580156116a0573d6000803e3d6000fd5b505050506040513d60208110156116b657600080fd5b810190808051906020019092919050505073ffffffffffffffffffffffffffffffffffffffff1663495d32cb6040518163ffffffff1660e01b8152600401602060405180830381600087803b15801561170e57600080fd5b505af1158015611722573d6000803e3d6000fd5b505050506040513d602081101561173857600080fd5b81019080805190602001909291905050506117538b8b610c8c565b6139bf90919063ffffffff16565b6139bf90919063ffffffff16565b6139bf90919063ffffffff16565b613a0790919063ffffffff16565b905092915050565b6000806117c283600360009054906101000a900473ffffffffffffffffffffffffffffffffffffffff16611fe2565b156117da5760036000819150809050915091506117e8565b600080819150809050915091505b9250929050565b6000806117fc8584610c8c565b90506000811415611811576000915050611a0b565b60006118c56118b6838673ffffffffffffffffffffffffffffffffffffffff16636f78ee0d8a6040518263ffffffff1660e01b815260040180828152602001915050602060405180830381600087803b15801561186d57600080fd5b505af1158015611881573d6000803e3d6000fd5b505050506040513d602081101561189757600080fd5b8101908080519060200190929190505050613a0790919063ffffffff16565b866139bf90919063ffffffff16565b90506000808573ffffffffffffffffffffffffffffffffffffffff1663ace237f56040518163ffffffff1660e01b815260040160206040518083038186803b15801561191057600080fd5b505afa158015611924573d6000803e3d6000fd5b505050506040513d602081101561193a57600080fd5b810190808051906020019092919050505073ffffffffffffffffffffffffffffffffffffffff166359e02dd76040518163ffffffff1660e01b8152600401604080518083038186803b15801561198f57600080fd5b505afa1580156119a3573d6000803e3d6000fd5b505050506040513d60408110156119b957600080fd5b810190808051906020019092919080519060200190929190505050915091508080156119e857506000801b8214155b15611a0657611a038260001c84613b1c90919063ffffffff16565b94505b505050505b9392505050565b833073ffffffffffffffffffffffffffffffffffffffff163373ffffffffffffffffffffffffffffffffffffffff161480611a535750611a528133613a63565b5b611aa8576040517f08c379a0000000000000000000000000000000000000000000000000000000008152600401808060200182810382526023815260200180615f0d6023913960400191505060405180910390fd5b84600160009054906101000a900473ffffffffffffffffffffffffffffffffffffffff1673ffffffffffffffffffffffffffffffffffffffff16634a4fbeec826040518263ffffffff1660e01b8152600401808273ffffffffffffffffffffffffffffffffffffffff1673ffffffffffffffffffffffffffffffffffffffff16815260200191505060206040518083038186803b158015611b4857600080fd5b505afa158015611b5c573d6000803e3d6000fd5b505050506040513d6020811015611b7257600080fd5b810190808051906020019092919050505015611bf6576040517f08c379a000000000000000000000000000000000000000000000000000000000815260040180806020018281038252601b8152602001807f424d3a2077616c6c6574206d75737420626520756e6c6f636b6564000000000081525060200191505060405180910390fd5b600360009054906101000a900473ffffffffffffffffffffffffffffffffffffffff1673ffffffffffffffffffffffffffffffffffffffff16639166cba46040518163ffffffff1660e01b815260040160206040518083038186803b158015611c5e57600080fd5b505afa158015611c72573d6000803e3d6000fd5b505050506040513d6020811015611c8857600080fd5b810190808051906020019092919050505073ffffffffffffffffffffffffffffffffffffffff168473ffffffffffffffffffffffffffffffffffffffff1614611d39576040517f08c379a000000000000000000000000000000000000000000000000000000000815260040180806020018281038252601d8152602001807f4d616b65723a206465627420746f6b656e206d7573742062652044414900000081525060200191505060405180910390fd5b611d67868685600360009054906101000a900473ffffffffffffffffffffffffffffffffffffffff16613b54565b848673ffffffffffffffffffffffffffffffffffffffff167ff6669d5e7ff92997c22e9fe3b54f53ed18448cf5fdccb3eb1dc5004798fbb4148686604051808373ffffffffffffffffffffffffffffffffffffffff1673ffffffffffffffffffffffffffffffffffffffff1681526020018281526020019250505060405180910390a3505050505050565b600460009054906101000a900473ffffffffffffffffffffffffffffffffffffffff1681565b600360009054906101000a900473ffffffffffffffffffffffffffffffffffffffff1681565b60008173ffffffffffffffffffffffffffffffffffffffff166370a08231306040518263ffffffff1660e01b8152600401808273ffffffffffffffffffffffffffffffffffffffff1673ffffffffffffffffffffffffffffffffffffffff16815260200191505060206040518083038186803b158015611ebd57600080fd5b505afa158015611ed1573d6000803e3d6000fd5b505050506040513d6020811015611ee757600080fd5b810190808051906020019092919050505090508173ffffffffffffffffffffffffffffffffffffffff1663a9059cbb6000809054906101000a900473ffffffffffffffffffffffffffffffffffffffff16836040518363ffffffff1660e01b8152600401808373ffffffffffffffffffffffffffffffffffffffff1673ffffffffffffffffffffffffffffffffffffffff16815260200182815260200192505050602060405180830381600087803b158015611fa257600080fd5b505af1158015611fb6573d6000803e3d6000fd5b505050506040513d6020811015611fcc57600080fd5b8101908080519060200190929190505050505050565b60008073ffffffffffffffffffffffffffffffffffffffff168273ffffffffffffffffffffffffffffffffffffffff1663de5f5517856040518263ffffffff1660e01b81526004018082815260200191505060206040518083038186803b15801561204c57600080fd5b505afa158015612060573d6000803e3d6000fd5b505050506040513d602081101561207657600080fd5b810190808051906020019092919050505073ffffffffffffffffffffffffffffffffffffffff161415905092915050565b60008061236e8373ffffffffffffffffffffffffffffffffffffffff1663ab0783da6040518163ffffffff1660e01b815260040160206040518083038186803b1580156120f357600080fd5b505afa158015612107573d6000803e3d6000fd5b505050506040513d602081101561211d57600080fd5b81019080805190602001909291905050506123608573ffffffffffffffffffffffffffffffffffffffff166367550a356040518163ffffffff1660e01b815260040160206040518083038186803b15801561217757600080fd5b505afa15801561218b573d6000803e3d6000fd5b505050506040513d60208110156121a157600080fd5b810190808051906020019092919050505073ffffffffffffffffffffffffffffffffffffffff1663495d32cb6040518163ffffffff1660e01b8152600401602060405180830381600087803b1580156121f957600080fd5b505af115801561220d573d6000803e3d6000fd5b505050506040513d602081101561222357600080fd5b81019080805190602001909291905050506123528773ffffffffffffffffffffffffffffffffffffffff166351f910666040518163ffffffff1660e01b815260040160206040518083038186803b15801561227d57600080fd5b505afa158015612291573d6000803e3d6000fd5b505050506040513d60208110156122a757600080fd5b81019080805190602001909291905050508873ffffffffffffffffffffffffffffffffffffffff16631f3634ed8b6040518263ffffffff1660e01b81526004018082815260200191505060206040518083038186803b15801561230957600080fd5b505afa15801561231d573d6000803e3d6000fd5b505050506040513d602081101561233357600080fd5b81019080805190602001909291905050506139bf90919063ffffffff16565b613a0790919063ffffffff16565b613a0790919063ffffffff16565b90506124108373ffffffffffffffffffffffffffffffffffffffff1663f7c8d634866040518263ffffffff1660e01b815260040180828152602001915050602060405180830381600087803b1580156123c657600080fd5b505af11580156123da573d6000803e3d6000fd5b505050506040513d60208110156123f057600080fd5b810190808051906020019092919050505082613a4390919063ffffffff16565b91505092915050565b813073ffffffffffffffffffffffffffffffffffffffff163373ffffffffffffffffffffffffffffffffffffffff16148061245a57506124598133613a63565b5b6124af576040517f08c379a0000000000000000000000000000000000000000000000000000000008152600401808060200182810382526023815260200180615f0d6023913960400191505060405180910390fd5b82600160009054906101000a900473ffffffffffffffffffffffffffffffffffffffff1673ffffffffffffffffffffffffffffffffffffffff16634a4fbeec826040518263ffffffff1660e01b8152600401808273ffffffffffffffffffffffffffffffffffffffff1673ffffffffffffffffffffffffffffffffffffffff16815260200191505060206040518083038186803b15801561254f57600080fd5b505afa158015612563573d6000803e3d6000fd5b505050506040513d602081101561257957600080fd5b8101908080519060200190929190505050156125fd576040517f08c379a000000000000000000000000000000000000000000000000000000000815260040180806020018281038252601b8152602001807f424d3a2077616c6c6574206d75737420626520756e6c6f636b6564000000000081525060200191505060405180910390fd5b61264d8484600360009054906101000a900473ffffffffffffffffffffffffffffffffffffffff16600460009054906101000a900473ffffffffffffffffffffffffffffffffffffffff16613c13565b828473ffffffffffffffffffffffffffffffffffffffff167f07e4a0c6f06275f83bcf78e5a10eb7f5515574d593bce993377961f4133b951c60405160405180910390a350505050565b6000805a905060006126f3308c60008d8d8080601f016020809104026020016040519081016040528093929190818152602001838380828437600081840152601f19601f820116905080830192505050505050508c8a8a613d15565b90506127008b8983613f12565b612772576040517f08c379a00000000000000000000000000000000000000000000000000000000081526004018080602001828103825260158152602001807f524d3a204475706c69636174652072657175657374000000000000000000000081525060200191505060405180910390fd5b6127c08b8b8b8080601f016020809104026020016040519081016040528093929190818152602001838380828437600081840152601f19601f82011690508083019250505050505050613f27565b612815576040517f08c379a000000000000000000000000000000000000000000000000000000000815260040180806020018281038252604a815260200180615e9e604a913960600191505060405180910390fd5b60006128658c8c8c8080601f016020809104026020016040519081016040528093929190818152602001838380828437600081840152601f19601f82011690508083019250505050505050613fe2565b9050878790506041820214156129b3576128818c868884613fee565b156129b257600081148061292557506129248c8c8c8080601f016020809104026020016040519081016040528093929190818152602001838380828437600081840152601f19601f82011690508083019250505050505050848b8b8080601f016020809104026020016040519081016040528093929190818152602001838380828437600081840152601f19601f82011690508083019250505050505050614104565b5b156129b1573073ffffffffffffffffffffffffffffffffffffffff168b8b6040518083838082843780830192505050925050506000604051808303816000865af19150503d8060008114612995576040519150601f19603f3d011682016040523d82523d6000602084013e61299a565b606091505b5050809450506129b08c5a85038888853361412a565b5b5b5b8315158c73ffffffffffffffffffffffffffffffffffffffff167f6bb0b384ce772133df63560651bc8c727c53306cec1d51e2cbf8ea35fb8f2ec1846040518082815260200191505060405180910390a350505098975050505050505050565b833073ffffffffffffffffffffffffffffffffffffffff163373ffffffffffffffffffffffffffffffffffffffff161480612a545750612a538133613a63565b5b612aa9576040517f08c379a0000000000000000000000000000000000000000000000000000000008152600401808060200182810382526023815260200180615f0d6023913960400191505060405180910390fd5b84600160009054906101000a900473ffffffffffffffffffffffffffffffffffffffff1673ffffffffffffffffffffffffffffffffffffffff16634a4fbeec826040518263ffffffff1660e01b8152600401808273ffffffffffffffffffffffffffffffffffffffff1673ffffffffffffffffffffffffffffffffffffffff16815260200191505060206040518083038186803b158015612b4957600080fd5b505afa158015612b5d573d6000803e3d6000fd5b505050506040513d6020811015612b7357600080fd5b810190808051906020019092919050505015612bf7576040517f08c379a000000000000000000000000000000000000000000000000000000000815260040180806020018281038252601b8152602001807f424d3a2077616c6c6574206d75737420626520756e6c6f636b6564000000000081525060200191505060405180910390fd5b73eeeeeeeeeeeeeeeeeeeeeeeeeeeeeeeeeeeeeeee73ffffffffffffffffffffffffffffffffffffffff168473ffffffffffffffffffffffffffffffffffffffff1614612cac576040517f08c379a000000000000000000000000000000000000000000000000000000000815260040180806020018281038252601d8152602001807f4d616b65723a20636f6c6c61746572616c206d7573742062652045544800000081525060200191505060405180910390fd5b612cda868685600360009054906101000a900473ffffffffffffffffffffffffffffffffffffffff16614192565b848673ffffffffffffffffffffffffffffffffffffffff167ff1dec7a92ef063b16d2098bb05803ed604936a7ff30f0d245fe881baf96e8e6b8686604051808373ffffffffffffffffffffffffffffffffffffffff1673ffffffffffffffffffffffffffffffffffffffff1681526020018281526020019250505060405180910390a3505050505050565b6000853073ffffffffffffffffffffffffffffffffffffffff163373ffffffffffffffffffffffffffffffffffffffff161480612da85750612da78133613a63565b5b612dfd576040517f08c379a0000000000000000000000000000000000000000000000000000000008152600401808060200182810382526023815260200180615f0d6023913960400191505060405180910390fd5b86600160009054906101000a900473ffffffffffffffffffffffffffffffffffffffff1673ffffffffffffffffffffffffffffffffffffffff16634a4fbeec826040518263ffffffff1660e01b8152600401808273ffffffffffffffffffffffffffffffffffffffff1673ffffffffffffffffffffffffffffffffffffffff16815260200191505060206040518083038186803b158015612e9d57600080fd5b505afa158015612eb1573d6000803e3d6000fd5b505050506040513d6020811015612ec757600080fd5b810190808051906020019092919050505015612f4b576040517f08c379a000000000000000000000000000000000000000000000000000000000815260040180806020018281038252601b8152602001807f424d3a2077616c6c6574206d75737420626520756e6c6f636b6564000000000081525060200191505060405180910390fd5b73eeeeeeeeeeeeeeeeeeeeeeeeeeeeeeeeeeeeeeee73ffffffffffffffffffffffffffffffffffffffff168773ffffffffffffffffffffffffffffffffffffffff1614613000576040517f08c379a000000000000000000000000000000000000000000000000000000000815260040180806020018281038252601d8152602001807f4d616b65723a20636f6c6c61746572616c206d7573742062652045544800000081525060200191505060405180910390fd5b600360009054906101000a900473ffffffffffffffffffffffffffffffffffffffff1673ffffffffffffffffffffffffffffffffffffffff16639166cba46040518163ffffffff1660e01b815260040160206040518083038186803b15801561306857600080fd5b505afa15801561307c573d6000803e3d6000fd5b505050506040513d602081101561309257600080fd5b810190808051906020019092919050505073ffffffffffffffffffffffffffffffffffffffff168573ffffffffffffffffffffffffffffffffffffffff1614613143576040517f08c379a000000000000000000000000000000000000000000000000000000000815260040180806020018281038252601d8152602001807f4d616b65723a206465627420746f6b656e206d7573742062652044414900000081525060200191505060405180910390fd5b613171888786600360009054906101000a900473ffffffffffffffffffffffffffffffffffffffff166141a4565b9250828873ffffffffffffffffffffffffffffffffffffffff167ff9d7e11fb5d8d1e0a4be344a6a6adfb912161747edf926fb283150d07c39c10889898989604051808573ffffffffffffffffffffffffffffffffffffffff1673ffffffffffffffffffffffffffffffffffffffff1681526020018481526020018373ffffffffffffffffffffffffffffffffffffffff1673ffffffffffffffffffffffffffffffffffffffff16815260200182815260200194505050505060405180910390a3505095945050505050565b833073ffffffffffffffffffffffffffffffffffffffff163373ffffffffffffffffffffffffffffffffffffffff16148061327e575061327d8133613a63565b5b6132d3576040517f08c379a0000000000000000000000000000000000000000000000000000000008152600401808060200182810382526023815260200180615f0d6023913960400191505060405180910390fd5b84600160009054906101000a900473ffffffffffffffffffffffffffffffffffffffff1673ffffffffffffffffffffffffffffffffffffffff16634a4fbeec826040518263ffffffff1660e01b8152600401808273ffffffffffffffffffffffffffffffffffffffff1673ffffffffffffffffffffffffffffffffffffffff16815260200191505060206040518083038186803b15801561337357600080fd5b505afa158015613387573d6000803e3d6000fd5b505050506040513d602081101561339d57600080fd5b810190808051906020019092919050505015613421576040517f08c379a000000000000000000000000000000000000000000000000000000000815260040180806020018281038252601b8152602001807f424d3a2077616c6c6574206d75737420626520756e6c6f636b6564000000000081525060200191505060405180910390fd5b73eeeeeeeeeeeeeeeeeeeeeeeeeeeeeeeeeeeeeeee73ffffffffffffffffffffffffffffffffffffffff168473ffffffffffffffffffffffffffffffffffffffff16146134d6576040517f08c379a000000000000000000000000000000000000000000000000000000000815260040180806020018281038252601d8152602001807f4d616b65723a20636f6c6c61746572616c206d7573742062652045544800000081525060200191505060405180910390fd5b613504868685600360009054906101000a900473ffffffffffffffffffffffffffffffffffffffff166143a1565b848673ffffffffffffffffffffffffffffffffffffffff167fdd016248708c391ccb5c72f9258127c75b9b291ac1479513fe4f331c348901378686604051808373ffffffffffffffffffffffffffffffffffffffff1673ffffffffffffffffffffffffffffffffffffffff1681526020018281526020019250505060405180910390a3505050505050565b60026020528060005260406000206000915090508060000154905081565b600063d490da4d60e01b905090565b833073ffffffffffffffffffffffffffffffffffffffff163373ffffffffffffffffffffffffffffffffffffffff1614806135fd57506135fc8133613a63565b5b613652576040517f08c379a0000000000000000000000000000000000000000000000000000000008152600401808060200182810382526023815260200180615f0d6023913960400191505060405180910390fd5b84600160009054906101000a900473ffffffffffffffffffffffffffffffffffffffff1673ffffffffffffffffffffffffffffffffffffffff16634a4fbeec826040518263ffffffff1660e01b8152600401808273ffffffffffffffffffffffffffffffffffffffff1673ffffffffffffffffffffffffffffffffffffffff16815260200191505060206040518083038186803b1580156136f257600080fd5b505afa158015613706573d6000803e3d6000fd5b505050506040513d602081101561371c57600080fd5b8101908080519060200190929190505050156137a0576040517f08c379a000000000000000000000000000000000000000000000000000000000815260040180806020018281038252601b8152602001807f424d3a2077616c6c6574206d75737420626520756e6c6f636b6564000000000081525060200191505060405180910390fd5b600360009054906101000a900473ffffffffffffffffffffffffffffffffffffffff1673ffffffffffffffffffffffffffffffffffffffff16639166cba46040518163ffffffff1660e01b815260040160206040518083038186803b15801561380857600080fd5b505afa15801561381c573d6000803e3d6000fd5b505050506040513d602081101561383257600080fd5b810190808051906020019092919050505073ffffffffffffffffffffffffffffffffffffffff168473ffffffffffffffffffffffffffffffffffffffff16146138e3576040517f08c379a000000000000000000000000000000000000000000000000000000000815260040180806020018281038252601d8152602001807f4d616b65723a206465627420746f6b656e206d7573742062652044414900000081525060200191505060405180910390fd5b613934868685600360009054906101000a900473ffffffffffffffffffffffffffffffffffffffff16600460009054906101000a900473ffffffffffffffffffffffffffffffffffffffff166144df565b848673ffffffffffffffffffffffffffffffffffffffff167fbfa42ea7d37497e6a09441fadba47d64b610b6b1183d895dd0a42507973430bf8686604051808373ffffffffffffffffffffffffffffffffffffffff1673ffffffffffffffffffffffffffffffffffffffff1681526020018281526020019250505060405180910390a3505050505050565b60006b033b2e3c9fd0803ce80000006139f76139db8585614f17565b60026b033b2e3c9fd0803ce8000000816139f157fe5b04614f51565b816139fe57fe5b04905092915050565b600081613a33613a23856b033b2e3c9fd0803ce8000000614f17565b60028581613a2d57fe5b04614f51565b81613a3a57fe5b04905092915050565b600082821115613a5257600080fd5b600082840390508091505092915050565b60008173ffffffffffffffffffffffffffffffffffffffff168373ffffffffffffffffffffffffffffffffffffffff16638da5cb5b6040518163ffffffff1660e01b815260040160206040518083038186803b158015613ac257600080fd5b505afa158015613ad6573d6000803e3d6000fd5b505050506040513d6020811015613aec57600080fd5b810190808051906020019092919050505073ffffffffffffffffffffffffffffffffffffffff1614905092915050565b600081613b44613b3485670de0b6b3a7640000614f17565b60028581613b3e57fe5b04614f51565b81613b4b57fe5b04905092915050565b613c0c8482600060405180807f6472617728627974657333322c75696e743235362900000000000000000000008152506015019050604051809103902087876040516024018083815260200182815260200192505050604051602081830303815290604052907bffffffffffffffffffffffffffffffffffffffffffffffffffffffff19166020820180517bffffffffffffffffffffffffffffffffffffffffffffffffffffffff8381831617835250505050614f70565b5050505050565b6000613c1f8484610c8c565b90506000811115613c3857613c3785858386866144df565b5b6000613c448585611493565b90506000811115613c5c57613c5b86868387614192565b5b613d0c8685600060405180807f7368757428627974657333322900000000000000000000000000000000000000815250600d01905060405180910390208960405160240180828152602001915050604051602081830303815290604052907bffffffffffffffffffffffffffffffffffffffffffffffffffffffff19166020820180517bffffffffffffffffffffffffffffffffffffffffffffffffffffffff8381831617835250505050614f70565b50505050505050565b6000601960f81b600060f81b89898989898989604051602001808a7effffffffffffffffffffffffffffffffffffffffffffffffffffffffffffff19167effffffffffffffffffffffffffffffffffffffffffffffffffffffffffffff19168152600101897effffffffffffffffffffffffffffffffffffffffffffffffffffffffffffff19167effffffffffffffffffffffffffffffffffffffffffffffffffffffffffffff191681526001018873ffffffffffffffffffffffffffffffffffffffff1673ffffffffffffffffffffffffffffffffffffffff1660601b81526014018773ffffffffffffffffffffffffffffffffffffffff1673ffffffffffffffffffffffffffffffffffffffff1660601b815260140186815260200185805190602001908083835b60208310613e625780518252602082019150602081019050602083039250613e3f565b6001836020036101000a03801982511681845116808217855250505050505090500184815260200183815260200182815260200199505050505050505050506040516020818303038152906040528051906020012060405160200180807f19457468657265756d205369676e6564204d6573736167653a0a333200000000815250601c01828152602001915050604051602081830303815290604052805190602001209050979650505050505050565b6000613f1e84846152d8565b90509392505050565b6000602482511015613fa1576040517f08c379a00000000000000000000000000000000000000000000000000000000081526004018080602001828103825260168152602001807f524d3a20496e76616c6964206461746157616c6c65740000000000000000000081525060200191505060405180910390fd5b6000602483015190508373ffffffffffffffffffffffffffffffffffffffff168173ffffffffffffffffffffffffffffffffffffffff161491505092915050565b60006001905092915050565b60008083118015613fff5750600182115b80156140e957508284028573ffffffffffffffffffffffffffffffffffffffff163110806140e85750600015158573ffffffffffffffffffffffffffffffffffffffff1663d6eb1bbf306040518263ffffffff1660e01b8152600401808273ffffffffffffffffffffffffffffffffffffffff1673ffffffffffffffffffffffffffffffffffffffff16815260200191505060206040518083038186803b1580156140a957600080fd5b505afa1580156140bd573d6000803e3d6000fd5b505050506040513d60208110156140d357600080fd5b81019080805190602001909291905050501515145b5b156140f757600090506140fc565b600190505b949350505050565b600080614113848460006153c0565b905061411f8682613a63565b915050949350505050565b60008561726c0190506000851180156141435750600183115b801561414f5750838111155b15614189573a851115614166573a8102905061416c565b84810290505b61418787838360405180602001604052806000815250614f70565b505b50505050505050565b61419e8484848461547e565b50505050565b60008173ffffffffffffffffffffffffffffffffffffffff1663fcfff16f6040518163ffffffff1660e01b8152600401602060405180830381600087803b1580156141ee57600080fd5b505af1158015614202573d6000803e3d6000fd5b505050506040513d602081101561421857600080fd5b810190808051906020019092919050505090508173ffffffffffffffffffffffffffffffffffffffff1663baa8529c82876040518363ffffffff1660e01b8152600401808381526020018273ffffffffffffffffffffffffffffffffffffffff1673ffffffffffffffffffffffffffffffffffffffff16815260200192505050600060405180830381600087803b1580156142b257600080fd5b505af11580156142c6573d6000803e3d6000fd5b505050506142d685828685615921565b6000831115614399576143978583600060405180807f6472617728627974657333322c75696e743235362900000000000000000000008152506015019050604051809103902085886040516024018083815260200182815260200192505050604051602081830303815290604052907bffffffffffffffffffffffffffffffffffffffffffffffffffffffff19166020820180517bffffffffffffffffffffffffffffffffffffffffffffffffffffffff8381831617835250505050614f70565b505b949350505050565b8073ffffffffffffffffffffffffffffffffffffffff1663de5f5517846040518263ffffffff1660e01b81526004018082815260200191505060206040518083038186803b1580156143f257600080fd5b505afa158015614406573d6000803e3d6000fd5b505050506040513d602081101561441c57600080fd5b810190808051906020019092919050505073ffffffffffffffffffffffffffffffffffffffff168473ffffffffffffffffffffffffffffffffffffffff16146144cd576040517f08c379a00000000000000000000000000000000000000000000000000000000081526004018080602001828103825260118152602001807f434d3a206e6f7420434450206f776e657200000000000000000000000000000081525060200191505060405180910390fd5b6144d984848484615921565b50505050565b8173ffffffffffffffffffffffffffffffffffffffff1663de5f5517856040518263ffffffff1660e01b81526004018082815260200191505060206040518083038186803b15801561453057600080fd5b505afa158015614544573d6000803e3d6000fd5b505050506040513d602081101561455a57600080fd5b810190808051906020019092919050505073ffffffffffffffffffffffffffffffffffffffff168573ffffffffffffffffffffffffffffffffffffffff161461460b576040517f08c379a00000000000000000000000000000000000000000000000000000000081526004018080602001828103825260118152602001807f434d3a206e6f7420434450206f776e657200000000000000000000000000000081525060200191505060405180910390fd5b60006146188585856117ef565b905060008373ffffffffffffffffffffffffffffffffffffffff166312d43a516040518163ffffffff1660e01b815260040160206040518083038186803b15801561466257600080fd5b505afa158015614676573d6000803e3d6000fd5b505050506040513d602081101561468c57600080fd5b8101908080519060200190929190505050905060008173ffffffffffffffffffffffffffffffffffffffff166370a08231896040518263ffffffff1660e01b8152600401808273ffffffffffffffffffffffffffffffffffffffff1673ffffffffffffffffffffffffffffffffffffffff16815260200191505060206040518083038186803b15801561471e57600080fd5b505afa158015614732573d6000803e3d6000fd5b505050506040513d602081101561474857600080fd5b81019080805190602001909291905050509050828110156149515760008473ffffffffffffffffffffffffffffffffffffffff166306f2bf62846040518263ffffffff1660e01b8152600401808273ffffffffffffffffffffffffffffffffffffffff1673ffffffffffffffffffffffffffffffffffffffff16815260200191505060206040518083038186803b1580156147e257600080fd5b505afa1580156147f6573d6000803e3d6000fd5b505050506040513d602081101561480c57600080fd5b8101908080519060200190929190505050905060008173ffffffffffffffffffffffffffffffffffffffff166359e948628487036040518263ffffffff1660e01b81526004018082815260200191505060206040518083038186803b15801561487457600080fd5b505afa158015614888573d6000803e3d6000fd5b505050506040513d602081101561489e57600080fd5b8101908080519060200190929190505050905061494d8a83836040518080615ee86025913960250190506040518091039020878a03426040516024018083815260200182815260200192505050604051602081830303815290604052907bffffffffffffffffffffffffffffffffffffffffffffffffffffffff19166020820180517bffffffffffffffffffffffffffffffffffffffffffffffffffffffff8381831617835250505050614f70565b5050505b60008573ffffffffffffffffffffffffffffffffffffffff16639166cba46040518163ffffffff1660e01b815260040160206040518083038186803b15801561499957600080fd5b505afa1580156149ad573d6000803e3d6000fd5b505050506040513d60208110156149c357600080fd5b8101908080519060200190929190505050905060008173ffffffffffffffffffffffffffffffffffffffff166370a082318b6040518263ffffffff1660e01b8152600401808273ffffffffffffffffffffffffffffffffffffffff1673ffffffffffffffffffffffffffffffffffffffff16815260200191505060206040518083038186803b158015614a5557600080fd5b505afa158015614a69573d6000803e3d6000fd5b505050506040513d6020811015614a7f57600080fd5b8101908080519060200190929190505050905087811015614c885760008673ffffffffffffffffffffffffffffffffffffffff166306f2bf62846040518263ffffffff1660e01b8152600401808273ffffffffffffffffffffffffffffffffffffffff1673ffffffffffffffffffffffffffffffffffffffff16815260200191505060206040518083038186803b158015614b1957600080fd5b505afa158015614b2d573d6000803e3d6000fd5b505050506040513d6020811015614b4357600080fd5b8101908080519060200190929190505050905060008173ffffffffffffffffffffffffffffffffffffffff166359e94862848c036040518263ffffffff1660e01b81526004018082815260200191505060206040518083038186803b158015614bab57600080fd5b505afa158015614bbf573d6000803e3d6000fd5b505050506040513d6020811015614bd557600080fd5b81019080805190602001909291905050509050614c848c83836040518080615ee86025913960250190506040518091039020878f03426040516024018083815260200182815260200192505050604051602081830303815290604052907bffffffffffffffffffffffffffffffffffffffffffffffffffffffff19166020820180517bffffffffffffffffffffffffffffffffffffffffffffffffffffffff8381831617835250505050614f70565b5050505b614d6c8a83600060405180807f617070726f766528616464726573732c75696e74323536290000000000000000815250601801905060405180910390208b8d604051602401808373ffffffffffffffffffffffffffffffffffffffff1673ffffffffffffffffffffffffffffffffffffffff16815260200182815260200192505050604051602081830303815290604052907bffffffffffffffffffffffffffffffffffffffffffffffffffffffff19166020820180517bffffffffffffffffffffffffffffffffffffffffffffffffffffffff8381831617835250505050614f70565b50614e518a85600060405180807f617070726f766528616464726573732c75696e74323536290000000000000000815250601801905060405180910390208b8a604051602401808373ffffffffffffffffffffffffffffffffffffffff1673ffffffffffffffffffffffffffffffffffffffff16815260200182815260200192505050604051602081830303815290604052907bffffffffffffffffffffffffffffffffffffffffffffffffffffffff19166020820180517bffffffffffffffffffffffffffffffffffffffffffffffffffffffff8381831617835250505050614f70565b50614f0a8a88600060405180807f7769706528627974657333322c75696e74323536290000000000000000000000815250601501905060405180910390208d8d6040516024018083815260200182815260200192505050604051602081830303815290604052907bffffffffffffffffffffffffffffffffffffffffffffffffffffffff19166020820180517bffffffffffffffffffffffffffffffffffffffffffffffffffffffff8381831617835250505050614f70565b5050505050505050505050565b600080831415614f2a5760009050614f4b565b6000828402905082848281614f3b57fe5b0414614f4657600080fd5b809150505b92915050565b600080828401905083811015614f6657600080fd5b8091505092915050565b606060008573ffffffffffffffffffffffffffffffffffffffff16858585604051602401808473ffffffffffffffffffffffffffffffffffffffff1673ffffffffffffffffffffffffffffffffffffffff16815260200183815260200180602001828103825283818151815260200191508051906020019080838360005b83811015615009578082015181840152602081019050614fee565b50505050905090810190601f1680156150365780820380516001836020036101000a031916815260200191505b509450505050506040516020818303038152906040527f8f6f0332000000000000000000000000000000000000000000000000000000007bffffffffffffffffffffffffffffffffffffffffffffffffffffffff19166020820180517bffffffffffffffffffffffffffffffffffffffffffffffffffffffff83818316178352505050506040518082805190602001908083835b602083106150ed57805182526020820191506020810190506020830392506150ca565b6001836020036101000a0380198251168184511680821785525050505050509050019150506000604051808303816000865af19150503d806000811461514f576040519150601f19603f3d011682016040523d82523d6000602084013e615154565b606091505b50809350819250505080801561516b575060008251115b156152475781806020019051602081101561518557600080fd5b81019080805160405193929190846401000000008211156151a557600080fd5b838201915060208201858111156151bb57600080fd5b82518660018202830111640100000000821117156151d857600080fd5b8083526020830192505050908051906020019080838360005b8381101561520c5780820151818401526020810190506151f1565b50505050905090810190601f1680156152395780820380516001836020036101000a031916815260200191505b5060405250505091506152cf565b60008251111561525b573d6000803e3d6000fd5b806152ce576040517f08c379a000000000000000000000000000000000000000000000000000000000815260040180806020018281038252601a8152602001807f424d3a2077616c6c657420696e766f6b6520726576657274656400000000000081525060200191505060405180910390fd5b5b50949350505050565b6000600260008473ffffffffffffffffffffffffffffffffffffffff1673ffffffffffffffffffffffffffffffffffffffff16815260200190815260200160002060000154821161532c57600090506153ba565b600060807fffffffffffffffffffffffffffffffff000000000000000000000000000000008416901c9050612710430181111561536d5760009150506153ba565b82600260008673ffffffffffffffffffffffffffffffffffffffff1673ffffffffffffffffffffffffffffffffffffffff1681526020019081526020016000206000018190555060019150505b92915050565b60008060008084604102602001860151915084604102604001860151905060ff85604102604101870151169250601b8360ff1614806154025750601c8360ff16145b61540b57600080fd5b60018784848460405160008152602001604052604051808581526020018460ff1660ff1681526020018381526020018281526020019450505050506020604051602081039080840390855afa158015615468573d6000803e3d6000fd5b5050506020604051035193505050509392505050565b6155368482600060405180807f6672656528627974657333322c75696e743235362900000000000000000000008152506015019050604051809103902087876040516024018083815260200182815260200192505050604051602081830303815290604052907bffffffffffffffffffffffffffffffffffffffffffffffffffffffff19166020820180517bffffffffffffffffffffffffffffffffffffffffffffffffffffffff8381831617835250505050614f70565b5060008173ffffffffffffffffffffffffffffffffffffffff16637bd2bea76040518163ffffffff1660e01b815260040160206040518083038186803b15801561557f57600080fd5b505afa158015615593573d6000803e3d6000fd5b505050506040513d60208110156155a957600080fd5b8101908080519060200190929190505050905060008273ffffffffffffffffffffffffffffffffffffffff16630f8a771e6040518163ffffffff1660e01b815260040160206040518083038186803b15801561560457600080fd5b505afa158015615618573d6000803e3d6000fd5b505050506040513d602081101561562e57600080fd5b810190808051906020019092919050505090506157258682600060405180807f617070726f766528616464726573732c75696e74323536290000000000000000815250601801905060405180910390208789604051602401808373ffffffffffffffffffffffffffffffffffffffff1673ffffffffffffffffffffffffffffffffffffffff16815260200182815260200192505050604051602081830303815290604052907bffffffffffffffffffffffffffffffffffffffffffffffffffffffff19166020820180517bffffffffffffffffffffffffffffffffffffffffffffffffffffffff8381831617835250505050614f70565b506157d68684600060405180807f657869742875696e743235362900000000000000000000000000000000000000815250600d01905060405180910390208860405160240180828152602001915050604051602081830303815290604052907bffffffffffffffffffffffffffffffffffffffffffffffffffffffff19166020820180517bffffffffffffffffffffffffffffffffffffffffffffffffffffffff8381831617835250505050614f70565b5060008373ffffffffffffffffffffffffffffffffffffffff1663454a2ab3866040518263ffffffff1660e01b81526004018082815260200191505060206040518083038186803b15801561582a57600080fd5b505afa15801561583e573d6000803e3d6000fd5b505050506040513d602081101561585457600080fd5b810190808051906020019092919050505090506159178784600060405180807f77697468647261772875696e7432353629000000000000000000000000000000815250601101905060405180910390208560405160240180828152602001915050604051602081830303815290604052907bffffffffffffffffffffffffffffffffffffffffffffffffffffffff19166020820180517bffffffffffffffffffffffffffffffffffffffffffffffffffffffff8381831617835250505050614f70565b5050505050505050565b60008173ffffffffffffffffffffffffffffffffffffffff16637bd2bea76040518163ffffffff1660e01b815260040160206040518083038186803b15801561596957600080fd5b505afa15801561597d573d6000803e3d6000fd5b505050506040513d602081101561599357600080fd5b8101908080519060200190929190505050905060008273ffffffffffffffffffffffffffffffffffffffff1663e47e7e66856040518263ffffffff1660e01b81526004018082815260200191505060206040518083038186803b1580156159f957600080fd5b505afa158015615a0d573d6000803e3d6000fd5b505050506040513d6020811015615a2357600080fd5b81019080805190602001909291905050509050615ada86838360405180807f6465706f7369742829000000000000000000000000000000000000000000000081525060090190506040518091039020604051602401604051602081830303815290604052907bffffffffffffffffffffffffffffffffffffffffffffffffffffffff19166020820180517bffffffffffffffffffffffffffffffffffffffffffffffffffffffff8381831617835250505050614f70565b50615bbf8683600060405180807f617070726f766528616464726573732c75696e74323536290000000000000000815250601801905060405180910390208786604051602401808373ffffffffffffffffffffffffffffffffffffffff1673ffffffffffffffffffffffffffffffffffffffff16815260200182815260200192505050604051602081830303815290604052907bffffffffffffffffffffffffffffffffffffffffffffffffffffffff19166020820180517bffffffffffffffffffffffffffffffffffffffffffffffffffffffff8381831617835250505050614f70565b50615c708684600060405180807f6a6f696e2875696e743235362900000000000000000000000000000000000000815250600d01905060405180910390208860405160240180828152602001915050604051602081830303815290604052907bffffffffffffffffffffffffffffffffffffffffffffffffffffffff19166020820180517bffffffffffffffffffffffffffffffffffffffffffffffffffffffff8381831617835250505050614f70565b5060008373ffffffffffffffffffffffffffffffffffffffff16630f8a771e6040518163ffffffff1660e01b815260040160206040518083038186803b158015615cb957600080fd5b505afa158015615ccd573d6000803e3d6000fd5b505050506040513d6020811015615ce357600080fd5b81019080805190602001909291905050509050615dda8782600060405180807f617070726f766528616464726573732c75696e7432353629000000000000000081525060180190506040518091039020888a604051602401808373ffffffffffffffffffffffffffffffffffffffff1673ffffffffffffffffffffffffffffffffffffffff16815260200182815260200192505050604051602081830303815290604052907bffffffffffffffffffffffffffffffffffffffffffffffffffffffff19166020820180517bffffffffffffffffffffffffffffffffffffffffffffffffffffffff8381831617835250505050614f70565b50615e938785600060405180807f6c6f636b28627974657333322c75696e74323536290000000000000000000000815250601501905060405180910390208a8a6040516024018083815260200182815260200192505050604051602081830303815290604052907bffffffffffffffffffffffffffffffffffffffffffffffffffffffff19166020820180517bffffffffffffffffffffffffffffffffffffffffffffffffffffffff8381831617835250505050614f70565b505050505050505056fe524d3a207468652077616c6c657420617574686f72697a656420697320646966666572656e74207468656e2074686520746172676574206f66207468652072656c617965642064617461657468546f546f6b656e537761704f75747075742875696e743235362c75696e7432353629424d3a206d75737420626520616e206f776e657220666f72207468652077616c6c6574a265627a7a723158205087a2b5420f8f6c5764afdb0aba7c1d14664464870eb21d844069dac960f5b664736f6c63430005100032",
  "source": "// Copyright (C) 2018  Argent Labs Ltd. <https://argent.xyz>\n\n// This program is free software: you can redistribute it and/or modify\n// it under the terms of the GNU General Public License as published by\n// the Free Software Foundation, either version 3 of the License, or\n// (at your option) any later version.\n\n// This program is distributed in the hope that it will be useful,\n// but WITHOUT ANY WARRANTY; without even the implied warranty of\n// MERCHANTABILITY or FITNESS FOR A PARTICULAR PURPOSE.  See the\n// GNU General Public License for more details.\n\n// You should have received a copy of the GNU General Public License\n// along with this program.  If not, see <http://www.gnu.org/licenses/>.\n\npragma solidity ^0.5.4;\n\nimport \"../../lib/utils/SafeMath.sol\";\nimport \"../wallet/BaseWallet.sol\";\nimport \"./common/BaseModule.sol\";\nimport \"./common/RelayerModule.sol\";\nimport \"./common/OnlyOwnerModule.sol\";\nimport \"../defi/Loan.sol\";\n\n// Interface to MakerDAO's Tub contract, used to manage CDPs\ncontract IMakerCdp {\n    IDSValue  public pep; // MKR price feed\n    IMakerVox public vox; // DAI price feed\n\n    function sai() external view returns (address);  // DAI\n    function skr() external view returns (address);  // PETH\n    function gem() external view returns (address);  // WETH\n    function gov() external view returns (address);  // MKR\n\n    function lad(bytes32 cup) external view returns (address);\n    function ink(bytes32 cup) external view returns (uint);\n    function tab(bytes32 cup) external returns (uint);\n    function rap(bytes32 cup) external returns (uint);\n\n    function tag() public view returns (uint wad);\n    function mat() public view returns (uint ray);\n    function per() public view returns (uint ray);\n    function safe(bytes32 cup) external returns (bool);\n    function ask(uint wad) public view returns (uint);\n    function bid(uint wad) public view returns (uint);\n\n    function open() external returns (bytes32 cup);\n    function join(uint wad) external; // Join PETH\n    function exit(uint wad) external; // Exit PETH\n    function give(bytes32 cup, address guy) external;\n    function lock(bytes32 cup, uint wad) external;\n    function free(bytes32 cup, uint wad) external;\n    function draw(bytes32 cup, uint wad) external;\n    function wipe(bytes32 cup, uint wad) external;\n    function shut(bytes32 cup) external;\n    function bite(bytes32 cup) external;\n}\n\ninterface IMakerVox {\n    function par() external returns (uint);\n}\n\ninterface IDSValue {\n    function peek() external view returns (bytes32, bool);\n    function read() external view returns (bytes32);\n    function poke(bytes32 wut) external;\n    function void() external;\n}\n\ninterface IUniswapFactory {\n    function getExchange(address _token) external view returns(address);\n}\n\ninterface IUniswapExchange {\n    function getEthToTokenOutputPrice(uint256 _tokens_bought) external view returns (uint256);\n    function getEthToTokenInputPrice(uint256 _eth_sold) external view returns (uint256);\n    function getTokenToEthOutputPrice(uint256 _eth_bought) external view returns (uint256);\n    function getTokenToEthInputPrice(uint256 _tokens_sold) external view returns (uint256);\n}\n\n\n/**\n * @title MakerManager\n * @dev Module to borrow tokens with MakerDAO\n * @author Olivier VDB - <olivier@argent.xyz>, Julien Niset - <julien@argent.xyz>\n */\ncontract MakerManager is Loan, BaseModule, RelayerModule, OnlyOwnerModule {\n\n    bytes32 constant NAME = \"MakerManager\";\n\n    // The Maker Tub contract\n    IMakerCdp public makerCdp;\n    // The Uniswap Factory contract\n    IUniswapFactory public uniswapFactory;\n\n    // Mock token address for ETH\n    address constant internal ETH_TOKEN_ADDRESS = 0xEeeeeEeeeEeEeeEeEeEeeEEEeeeeEeeeeeeeEEeE;\n\n    // Method signatures to reduce gas cost at depoyment\n    bytes4 constant internal CDP_DRAW = bytes4(keccak256(\"draw(bytes32,uint256)\"));\n    bytes4 constant internal CDP_WIPE = bytes4(keccak256(\"wipe(bytes32,uint256)\"));\n    bytes4 constant internal CDP_SHUT = bytes4(keccak256(\"shut(bytes32)\"));\n    bytes4 constant internal CDP_JOIN = bytes4(keccak256(\"join(uint256)\"));\n    bytes4 constant internal CDP_LOCK = bytes4(keccak256(\"lock(bytes32,uint256)\"));\n    bytes4 constant internal CDP_FREE = bytes4(keccak256(\"free(bytes32,uint256)\"));\n    bytes4 constant internal CDP_EXIT = bytes4(keccak256(\"exit(uint256)\"));\n    bytes4 constant internal WETH_DEPOSIT = bytes4(keccak256(\"deposit()\"));\n    bytes4 constant internal WETH_WITHDRAW = bytes4(keccak256(\"withdraw(uint256)\"));\n    bytes4 constant internal ERC20_APPROVE = bytes4(keccak256(\"approve(address,uint256)\"));\n    bytes4 constant internal ETH_TOKEN_SWAP_OUTPUT = bytes4(keccak256(\"ethToTokenSwapOutput(uint256,uint256)\"));\n    bytes4 constant internal ETH_TOKEN_SWAP_INPUT = bytes4(keccak256(\"ethToTokenSwapInput(uint256,uint256)\"));\n    bytes4 constant internal TOKEN_ETH_SWAP_INPUT = bytes4(keccak256(\"tokenToEthSwapInput(uint256,uint256,uint256)\"));\n\n    using SafeMath for uint256;\n\n    constructor(\n        ModuleRegistry _registry,\n        GuardianStorage _guardianStorage,\n        IMakerCdp _makerCdp,\n        IUniswapFactory _uniswapFactory\n    )\n        BaseModule(_registry, _guardianStorage, NAME)\n        public\n    {\n        makerCdp = _makerCdp;\n        uniswapFactory = _uniswapFactory;\n    }\n\n    /* ********************************** Implementation of Loan ************************************* */\n\n   /**\n     * @dev Opens a collateralized loan.\n     * @param _wallet The target wallet.\n     * @param _collateral The token used as a collateral (must be 0xEeeeeEeeeEeEeeEeEeEeeEEEeeeeEeeeeeeeEEeE).\n     * @param _collateralAmount The amount of collateral token provided.\n     * @param _debtToken The token borrowed (must be the address of the DAI contract).\n     * @param _debtAmount The amount of tokens borrowed.\n     * @return The ID of the created CDP.\n     */\n    function openLoan(\n        BaseWallet _wallet,\n        address _collateral,\n        uint256 _collateralAmount,\n        address _debtToken,\n        uint256 _debtAmount\n    )\n        external\n        onlyWalletOwner(_wallet)\n        onlyWhenUnlocked(_wallet)\n        returns (bytes32 _loanId)\n    {\n        require(_collateral == ETH_TOKEN_ADDRESS, \"Maker: collateral must be ETH\");\n        require(_debtToken == makerCdp.sai(), \"Maker: debt token must be DAI\");\n        _loanId = openCdp(_wallet, _collateralAmount, _debtAmount, makerCdp);\n        emit LoanOpened(address(_wallet), _loanId, _collateral, _collateralAmount, _debtToken, _debtAmount);\n    }\n\n    /**\n     * @dev Closes a collateralized loan by repaying all debts (plus interest) and redeeming all collateral (plus interest).\n     * @param _wallet The target wallet.\n     * @param _loanId The ID of the target CDP.\n     */\n    function closeLoan(\n        BaseWallet _wallet,\n        bytes32 _loanId\n    )\n        external\n        onlyWalletOwner(_wallet)\n        onlyWhenUnlocked(_wallet)\n    {\n        closeCdp(_wallet, _loanId, makerCdp, uniswapFactory);\n        emit LoanClosed(address(_wallet), _loanId);\n    }\n\n    /**\n     * @dev Adds collateral to a loan identified by its ID.\n     * @param _wallet The target wallet.\n     * @param _loanId The ID of the target CDP.\n     * @param _collateral The token used as a collateral (must be 0xEeeeeEeeeEeEeeEeEeEeeEEEeeeeEeeeeeeeEEeE).\n     * @param _collateralAmount The amount of collateral to add.\n     */\n    function addCollateral(\n        BaseWallet _wallet,\n        bytes32 _loanId,\n        address _collateral,\n        uint256 _collateralAmount\n    )\n        external\n        onlyWalletOwner(_wallet)\n        onlyWhenUnlocked(_wallet)\n    {\n        require(_collateral == ETH_TOKEN_ADDRESS, \"Maker: collateral must be ETH\");\n        addCollateral(_wallet, _loanId, _collateralAmount, makerCdp);\n        emit CollateralAdded(address(_wallet), _loanId, _collateral, _collateralAmount);\n    }\n\n    /**\n     * @dev Removes collateral from a loan identified by its ID.\n     * @param _wallet The target wallet.\n     * @param _loanId The ID of the target CDP.\n     * @param _collateral The token used as a collateral (must be 0xEeeeeEeeeEeEeeEeEeEeeEEEeeeeEeeeeeeeEEeE).\n     * @param _collateralAmount The amount of collateral to remove.\n     */\n    function removeCollateral(\n        BaseWallet _wallet,\n        bytes32 _loanId,\n        address _collateral,\n        uint256 _collateralAmount\n    )\n        external\n        onlyWalletOwner(_wallet)\n        onlyWhenUnlocked(_wallet)\n    {\n        require(_collateral == ETH_TOKEN_ADDRESS, \"Maker: collateral must be ETH\");\n        removeCollateral(_wallet, _loanId, _collateralAmount, makerCdp);\n        emit CollateralRemoved(address(_wallet), _loanId, _collateral, _collateralAmount);\n    }\n\n    /**\n     * @dev Increases the debt by borrowing more token from a loan identified by its ID.\n     * @param _wallet The target wallet.\n     * @param _loanId The ID of the target CDP.\n     * @param _debtToken The token borrowed (must be the address of the DAI contract).\n     * @param _debtAmount The amount of token to borrow.\n     */\n    function addDebt(\n        BaseWallet _wallet,\n        bytes32 _loanId,\n        address _debtToken,\n        uint256 _debtAmount\n    )\n        external\n        onlyWalletOwner(_wallet)\n        onlyWhenUnlocked(_wallet)\n    {\n        require(_debtToken == makerCdp.sai(), \"Maker: debt token must be DAI\");\n        addDebt(_wallet, _loanId, _debtAmount, makerCdp);\n        emit DebtAdded(address(_wallet), _loanId, _debtToken, _debtAmount);\n    }\n\n    /**\n     * @dev Decreases the debt by repaying some token from a loan identified by its ID.\n     * @param _wallet The target wallet.\n     * @param _loanId The ID of the target CDP.\n     * @param _debtToken The token to repay (must be the address of the DAI contract).\n     * @param _debtAmount The amount of token to repay.\n     */\n    function removeDebt(\n        BaseWallet _wallet,\n        bytes32 _loanId,\n        address _debtToken,\n        uint256 _debtAmount\n    )\n        external\n        onlyWalletOwner(_wallet)\n        onlyWhenUnlocked(_wallet)\n    {\n        require(_debtToken == makerCdp.sai(), \"Maker: debt token must be DAI\");\n        removeDebt(_wallet, _loanId, _debtAmount, makerCdp, uniswapFactory);\n        emit DebtRemoved(address(_wallet), _loanId, _debtToken, _debtAmount);\n    }\n\n    /**\n     * @dev Gets information about a loan identified by its ID.\n     * @param _loanId The ID of the target CDP.\n     * @return a status [0: no loan, 1: loan is safe, 2: loan is unsafe and can be liquidated, 3: loan exists but we are unable to provide info]\n     * and a value (in ETH) representing the value that could still be borrowed when status = 1; or the value of the collateral that should be added to\n     * avoid liquidation when status = 2.\n     */\n    function getLoan(\n        BaseWallet /* _wallet */,\n        bytes32 _loanId\n    )\n        external\n        view\n        returns (uint8 _status, uint256 _ethValue)\n    {\n        if (exists(_loanId, makerCdp)) {\n            return (3,0);\n        }\n        return (0,0);\n    }\n\n    /* *********************************** Maker wrappers ************************************* */\n\n    /* CDP actions */\n\n    /**\n     * @dev Lets the owner of a wallet open a new CDP. The owner must have enough ether\n     * in their wallet. The required amount of ether will be automatically converted to\n     * PETH and used as collateral in the CDP.\n     * @param _wallet The target wallet\n     * @param _pethCollateral The amount of PETH to lock as collateral in the CDP.\n     * @param _daiDebt The amount of DAI to draw from the CDP\n     * @param _makerCdp The Maker CDP contract\n     * @return The id of the created CDP.\n     */\n    function openCdp(\n        BaseWallet _wallet,\n        uint256 _pethCollateral,\n        uint256 _daiDebt,\n        IMakerCdp _makerCdp\n    )\n        internal\n        returns (bytes32 _cup)\n    {\n        // Open CDP (CDP owner will be module)\n        _cup = _makerCdp.open();\n        // Transfer CDP ownership to wallet\n        _makerCdp.give(_cup, address(_wallet));\n        // Convert ETH to PETH & lock PETH into CDP\n        lockETH(_wallet, _cup, _pethCollateral, _makerCdp);\n        // Draw DAI from CDP\n        if (_daiDebt > 0) {\n            invokeWallet(address(_wallet), address(_makerCdp), 0, abi.encodeWithSelector(CDP_DRAW, _cup, _daiDebt));\n        }\n    }\n\n    /**\n     * @dev Lets the owner of a CDP add more collateral to their CDP. The owner must have enough ether\n     * in their wallet. The required amount of ether will be automatically converted to\n     * PETH and locked in the CDP.\n     * @param _wallet The target wallet\n     * @param _cup The id of the CDP.\n     * @param _amount The amount of additional PETH to lock as collateral in the CDP.\n     * @param _makerCdp The Maker CDP contract\n     */\n    function addCollateral(\n        BaseWallet _wallet,\n        bytes32 _cup,\n        uint256 _amount,\n        IMakerCdp _makerCdp\n    )\n        internal\n    {\n        // _wallet must be owner of CDP\n        require(address(_wallet) == _makerCdp.lad(_cup), \"CM: not CDP owner\");\n        // convert ETH to PETH & lock PETH into CDP\n        lockETH(_wallet, _cup, _amount, _makerCdp);\n    }\n\n    /**\n     * @dev Lets the owner of a CDP remove some collateral from their CDP\n     * @param _wallet The target wallet\n     * @param _cup The id of the CDP.\n     * @param _amount The amount of PETH to remove from the CDP.\n     * @param _makerCdp The Maker CDP contract\n     */\n    function removeCollateral(\n        BaseWallet _wallet,\n        bytes32 _cup,\n        uint256 _amount,\n        IMakerCdp _makerCdp\n    )\n        internal\n    {\n        // unlock PETH from CDP & convert PETH to ETH\n        freeETH(_wallet, _cup, _amount, _makerCdp);\n    }\n\n    /**\n     * @dev Lets the owner of a CDP draw more DAI from their CDP.\n     * @param _wallet The target wallet\n     * @param _cup The id of the CDP.\n     * @param _amount The amount of additional DAI to draw from the CDP.\n     * @param _makerCdp The Maker CDP contract\n     */\n    function addDebt(\n        BaseWallet _wallet,\n        bytes32 _cup,\n        uint256 _amount,\n        IMakerCdp _makerCdp\n    )\n        internal\n    {\n        // draw DAI from CDP\n        invokeWallet(address(_wallet), address(_makerCdp), 0, abi.encodeWithSelector(CDP_DRAW, _cup, _amount));\n    }\n\n    /**\n     * @dev Lets the owner of a CDP partially repay their debt. The repayment is made up of\n     * the outstanding DAI debt (including the stability fee if non-zero) plus the MKR governance fee.\n     * The method will use the user's MKR tokens in priority and will, if needed, convert the required\n     * amount of ETH to cover for any missing MKR tokens.\n     * @param _wallet The target wallet\n     * @param _cup The id of the CDP.\n     * @param _amount The amount of DAI debt to repay.\n     * @param _makerCdp The Maker CDP contract\n     * @param _uniswapFactory The Uniswap Factory contract.\n     */\n    function removeDebt(\n        BaseWallet _wallet,\n        bytes32 _cup,\n        uint256 _amount,\n        IMakerCdp _makerCdp,\n        IUniswapFactory _uniswapFactory\n    )\n        internal\n    {\n        // _wallet must be owner of CDP\n        require(address(_wallet) == _makerCdp.lad(_cup), \"CM: not CDP owner\");\n        // get governance fee in MKR\n        uint256 mkrFee = governanceFeeInMKR(_cup, _amount, _makerCdp);\n        // get MKR balance\n        address mkrToken = _makerCdp.gov();\n        uint256 mkrBalance = ERC20(mkrToken).balanceOf(address(_wallet));\n        if (mkrBalance < mkrFee) {\n            // Not enough MKR => Convert some ETH into MKR with Uniswap\n            address mkrUniswap = _uniswapFactory.getExchange(mkrToken);\n            uint256 etherValueOfMKR = IUniswapExchange(mkrUniswap).getEthToTokenOutputPrice(mkrFee - mkrBalance);\n            invokeWallet(address(_wallet), mkrUniswap, etherValueOfMKR, abi.encodeWithSelector(ETH_TOKEN_SWAP_OUTPUT, mkrFee - mkrBalance, block.timestamp));\n        }\n\n        // get DAI balance\n        address daiToken = _makerCdp.sai();\n        uint256 daiBalance = ERC20(daiToken).balanceOf(address(_wallet));\n        if (daiBalance < _amount) {\n            // Not enough DAI => Convert some ETH into DAI with Uniswap\n            address daiUniswap = _uniswapFactory.getExchange(daiToken);\n            uint256 etherValueOfDAI = IUniswapExchange(daiUniswap).getEthToTokenOutputPrice(_amount - daiBalance);\n            invokeWallet(address(_wallet), daiUniswap, etherValueOfDAI, abi.encodeWithSelector(ETH_TOKEN_SWAP_OUTPUT, _amount - daiBalance, block.timestamp));\n        }\n\n        // Approve DAI to let wipe() repay the DAI debt\n        invokeWallet(address(_wallet), daiToken, 0, abi.encodeWithSelector(ERC20_APPROVE, address(_makerCdp), _amount));\n        // Approve MKR to let wipe() pay the MKR governance fee\n        invokeWallet(address(_wallet), mkrToken, 0, abi.encodeWithSelector(ERC20_APPROVE, address(_makerCdp), mkrFee));\n        // repay DAI debt and MKR governance fee\n        invokeWallet(address(_wallet), address(_makerCdp), 0, abi.encodeWithSelector(CDP_WIPE, _cup, _amount));\n    }\n\n    /**\n     * @dev Lets the owner of a CDP close their CDP. The method will 1) repay all debt\n     * and governance fee, 2) free all collateral, and 3) delete the CDP.\n     * @param _wallet The target wallet\n     * @param _cup The id of the CDP.\n     * @param _makerCdp The Maker CDP contract\n     * @param _uniswapFactory The Uniswap Factory contract.\n     */\n    function closeCdp(\n        BaseWallet _wallet,\n        bytes32 _cup,\n        IMakerCdp _makerCdp,\n        IUniswapFactory _uniswapFactory\n    )\n        internal\n    {\n        // repay all debt (in DAI) + stability fee (in DAI) + governance fee (in MKR)\n        uint debt = daiDebt(_cup, _makerCdp);\n        if (debt > 0)\n            removeDebt(_wallet, _cup, debt, _makerCdp, _uniswapFactory);\n        // free all ETH collateral\n        uint collateral = pethCollateral(_cup, _makerCdp);\n        if (collateral > 0)\n            removeCollateral(_wallet, _cup, collateral, _makerCdp);\n        // shut the CDP\n        invokeWallet(address(_wallet), address(_makerCdp), 0, abi.encodeWithSelector(CDP_SHUT, _cup));\n    }\n\n    /* Convenience methods */\n\n    /**\n     * @dev Returns the amount of PETH collateral locked in a CDP.\n     * @param _cup The id of the CDP.\n     * @param _makerCdp The Maker CDP contract\n     * @return the amount of PETH locked in the CDP.\n     */\n    function pethCollateral(bytes32 _cup, IMakerCdp _makerCdp) public view returns (uint256) {\n        return _makerCdp.ink(_cup);\n    }\n\n    /**\n     * @dev Returns the amount of DAI debt (including the stability fee if non-zero) drawn from a CDP.\n     * @param _cup The id of the CDP.\n     * @param _makerCdp The Maker CDP contract\n     * @return the amount of DAI drawn from the CDP.\n     */\n    function daiDebt(bytes32 _cup, IMakerCdp _makerCdp) public returns (uint256) {\n        return _makerCdp.tab(_cup);\n    }\n\n    /**\n     * @dev Indicates whether a CDP is above the liquidation ratio.\n     * @param _cup The id of the CDP.\n     * @param _makerCdp The Maker CDP contract\n     * @return false if the CDP is in danger of being liquidated.\n     */\n    function isSafe(bytes32 _cup, IMakerCdp _makerCdp) public returns (bool) {\n        return _makerCdp.safe(_cup);\n    }\n\n    /**\n     * @dev Checks if a CDP exists.\n     * @param _cup The id of the CDP.\n     * @param _makerCdp The Maker CDP contract\n     * @return true if the CDP exists, false otherwise.\n     */\n    function exists(bytes32 _cup, IMakerCdp _makerCdp) public view returns (bool) {\n        return _makerCdp.lad(_cup) != address(0);\n    }\n\n    /**\n     * @dev Max amount of DAI that can still be drawn from a CDP while keeping it above the liquidation ratio.\n     * @param _cup The id of the CDP.\n     * @param _makerCdp The Maker CDP contract\n     * @return the amount of DAI that can still be drawn from a CDP while keeping it above the liquidation ratio.\n     */\n    function maxDaiDrawable(bytes32 _cup, IMakerCdp _makerCdp) public returns (uint256) {\n        uint256 maxTab = _makerCdp.ink(_cup).rmul(_makerCdp.tag()).rdiv(_makerCdp.vox().par()).rdiv(_makerCdp.mat());\n        return maxTab.sub(_makerCdp.tab(_cup));\n    }\n\n    /**\n     * @dev Min amount of collateral that needs to be added to a CDP to bring it above the liquidation ratio.\n     * @param _cup The id of the CDP.\n     * @param _makerCdp The Maker CDP contract\n     * @return the amount of collateral that needs to be added to a CDP to bring it above the liquidation ratio.\n     */\n    function minCollateralRequired(bytes32 _cup, IMakerCdp _makerCdp) public returns (uint256) {\n        uint256 minInk = _makerCdp.tab(_cup).rmul(_makerCdp.mat()).rmul(_makerCdp.vox().par()).rdiv(_makerCdp.tag());\n        return minInk.sub(_makerCdp.ink(_cup));\n    }\n\n    /**\n     * @dev Returns the governance fee in MKR.\n     * @param _cup The id of the CDP.\n     * @param _daiRefund The amount of DAI debt being repaid.\n     * @param _makerCdp The Maker CDP contract\n     * @return the governance fee in MKR\n     */\n    function governanceFeeInMKR(bytes32 _cup, uint256 _daiRefund, IMakerCdp _makerCdp) public returns (uint256 _fee) {\n        uint debt = daiDebt(_cup, _makerCdp);\n        if (debt == 0)\n            return 0;\n        uint256 feeInDAI = _daiRefund.rmul(_makerCdp.rap(_cup).rdiv(debt));\n        (bytes32 daiPerMKR, bool ok) = _makerCdp.pep().peek();\n        if (ok && daiPerMKR != 0)\n            _fee = feeInDAI.wdiv(uint(daiPerMKR));\n    }\n\n    /**\n     * @dev Returns the total MKR governance fee to be paid before this CDP can be closed.\n     * @param _cup The id of the CDP.\n     * @param _makerCdp The Maker CDP contract\n     * @return the total governance fee in MKR\n     */\n    function totalGovernanceFeeInMKR(bytes32 _cup, IMakerCdp _makerCdp) external returns (uint256 _fee) {\n        return governanceFeeInMKR(_cup, daiDebt(_cup, _makerCdp), _makerCdp);\n    }\n\n    /**\n     * @dev Minimum amount of PETH that must be locked in a CDP for it to be deemed \"safe\"\n     * @param _cup The id of the CDP.\n     * @param _makerCdp The Maker CDP contract\n     * @return The minimum amount of PETH to lock in the CDP\n     */\n    function minRequiredCollateral(bytes32 _cup, IMakerCdp _makerCdp) public returns (uint256 _minCollateral) {\n        _minCollateral = daiDebt(_cup, _makerCdp)    // DAI debt\n            .rmul(_makerCdp.vox().par())         // x ~1 USD/DAI\n            .rmul(_makerCdp.mat())               // x 1.5\n            .rmul(1010000000000000000000000000) // x (1+1%) cushion\n            .rdiv(_makerCdp.tag());              //  ~170 USD/PETH\n    }\n\n    /* *********************************** Utilities ************************************* */\n\n    /**\n     * @dev Converts a user's ETH into PETH and locks the PETH in a CDP\n     * @param _wallet The target wallet\n     * @param _cup The id of the CDP.\n     * @param _pethAmount The amount of PETH to buy and lock\n     * @param _makerCdp The Maker CDP contract\n     */\n    function lockETH(\n        BaseWallet _wallet,\n        bytes32 _cup,\n        uint256 _pethAmount,\n        IMakerCdp _makerCdp\n    )\n        internal\n    {\n        // 1. Convert ETH to PETH\n        address wethToken = _makerCdp.gem();\n        // Get WETH/PETH rate\n        uint ethAmount = _makerCdp.ask(_pethAmount);\n        // ETH to WETH\n        invokeWallet(address(_wallet), wethToken, ethAmount, abi.encodeWithSelector(WETH_DEPOSIT));\n        // Approve WETH\n        invokeWallet(address(_wallet), wethToken, 0, abi.encodeWithSelector(ERC20_APPROVE, address(_makerCdp), ethAmount));\n        // WETH to PETH\n        invokeWallet(address(_wallet), address(_makerCdp), 0, abi.encodeWithSelector(CDP_JOIN, _pethAmount));\n\n        // 2. Lock PETH into CDP\n        address pethToken = _makerCdp.skr();\n        // Approve PETH\n        invokeWallet(address(_wallet), pethToken, 0, abi.encodeWithSelector(ERC20_APPROVE, address(_makerCdp), _pethAmount));\n        // lock PETH into CDP\n        invokeWallet(address(_wallet), address(_makerCdp), 0, abi.encodeWithSelector(CDP_LOCK, _cup, _pethAmount));\n    }\n\n    /**\n     * @dev Unlocks PETH from a user's CDP and converts it back to ETH\n     * @param _wallet The target wallet\n     * @param _cup The id of the CDP.\n     * @param _pethAmount The amount of PETH to unlock and sell\n     * @param _makerCdp The Maker CDP contract\n     */\n    function freeETH(\n        BaseWallet _wallet,\n        bytes32 _cup,\n        uint256 _pethAmount,\n        IMakerCdp _makerCdp\n    )\n        internal\n    {\n        // 1. Unlock PETH\n\n        // Unlock PETH from CDP\n        invokeWallet(address(_wallet), address(_makerCdp), 0, abi.encodeWithSelector(CDP_FREE, _cup, _pethAmount));\n\n        // 2. Convert PETH to ETH\n        address wethToken = _makerCdp.gem();\n        address pethToken = _makerCdp.skr();\n        // Approve PETH\n        invokeWallet(address(_wallet), pethToken, 0, abi.encodeWithSelector(ERC20_APPROVE, address(_makerCdp), _pethAmount));\n        // PETH to WETH\n        invokeWallet(address(_wallet), address(_makerCdp), 0, abi.encodeWithSelector(CDP_EXIT, _pethAmount));\n        // Get WETH/PETH rate\n        uint ethAmount = _makerCdp.bid(_pethAmount);\n        // WETH to ETH\n        invokeWallet(address(_wallet), wethToken, 0, abi.encodeWithSelector(WETH_WITHDRAW, ethAmount));\n    }\n\n    /**\n     * @dev Conversion rate between DAI and MKR\n     * @param _makerCdp The Maker CDP contract\n     * @return The amount of DAI per MKR\n     */\n    function daiPerMkr(IMakerCdp _makerCdp) internal view returns (uint256 _daiPerMKR) {\n        (bytes32 daiPerMKR_, bool ok) = _makerCdp.pep().peek();\n        require(ok && daiPerMKR_ != 0, \"LM: invalid DAI/MKR rate\");\n        _daiPerMKR = uint256(daiPerMKR_);\n    }\n}\n",
  "sourcePath": "/Users/name/dev/argent-contracts-release-1.5.0/contracts/modules/MakerManager.sol",
  "compiler": {
    "name": "solc",
    "version": "0.5.16+commit.9c3226ce.Emscripten.clang"
  },
  "schemaVersion": "3.0.23",
  "updatedAt": "2020-03-31T19:53:31.327Z",
  "devdoc": {
    "author": "Olivier VDB - <olivier@argent.xyz>, Julien Niset - <julien@argent.xyz>",
    "details": "Module to borrow tokens with MakerDAO",
    "methods": {
      "addCollateral(address,bytes32,address,uint256)": {
        "details": "Adds collateral to a loan identified by its ID.",
        "params": {
          "_collateral": "The token used as a collateral (must be 0xEeeeeEeeeEeEeeEeEeEeeEEEeeeeEeeeeeeeEEeE).",
          "_collateralAmount": "The amount of collateral to add.",
          "_loanId": "The ID of the target CDP.",
          "_wallet": "The target wallet."
        }
      },
      "addDebt(address,bytes32,address,uint256)": {
        "details": "Increases the debt by borrowing more token from a loan identified by its ID.",
        "params": {
          "_debtAmount": "The amount of token to borrow.",
          "_debtToken": "The token borrowed (must be the address of the DAI contract).",
          "_loanId": "The ID of the target CDP.",
          "_wallet": "The target wallet."
        }
      },
      "addModule(address,address)": {
        "details": "Adds a module to a wallet. First checks that the module is registered. Unlike its overrided parent, this method can be called via the RelayerModule's execute()",
        "params": {
          "_module": "The modules to authorise.",
          "_wallet": "The target wallet."
        }
      },
      "closeLoan(address,bytes32)": {
        "details": "Closes a collateralized loan by repaying all debts (plus interest) and redeeming all collateral (plus interest).",
        "params": {
          "_loanId": "The ID of the target CDP.",
          "_wallet": "The target wallet."
        }
      },
      "daiDebt(bytes32,address)": {
        "details": "Returns the amount of DAI debt (including the stability fee if non-zero) drawn from a CDP.",
        "params": {
          "_cup": "The id of the CDP.",
          "_makerCdp": "The Maker CDP contract"
        },
        "return": "the amount of DAI drawn from the CDP."
      },
      "execute(address,bytes,uint256,bytes,uint256,uint256)": {
        "details": "Executes a relayed transaction.",
        "params": {
          "_data": "The data for the relayed transaction",
          "_gasLimit": "The gas limit to use for the gas refund.",
          "_gasPrice": "The gas price to use for the gas refund.",
          "_nonce": "The nonce used to prevent replay attacks.",
          "_signatures": "The signatures as a concatenated byte array.",
          "_wallet": "The target wallet."
        }
      },
      "exists(bytes32,address)": {
        "details": "Checks if a CDP exists.",
        "params": {
          "_cup": "The id of the CDP.",
          "_makerCdp": "The Maker CDP contract"
        },
        "return": "true if the CDP exists, false otherwise."
      },
      "getLoan(address,bytes32)": {
        "details": "Gets information about a loan identified by its ID.",
        "params": {
          "_loanId": "The ID of the target CDP."
        },
        "return": "a status [0: no loan, 1: loan is safe, 2: loan is unsafe and can be liquidated, 3: loan exists but we are unable to provide info] and a value (in ETH) representing the value that could still be borrowed when status = 1; or the value of the collateral that should be added to avoid liquidation when status = 2."
      },
      "getNonce(address)": {
        "details": "Gets the current nonce for a wallet.",
        "params": {
          "_wallet": "The target wallet."
        }
      },
      "governanceFeeInMKR(bytes32,uint256,address)": {
        "details": "Returns the governance fee in MKR.",
        "params": {
          "_cup": "The id of the CDP.",
          "_daiRefund": "The amount of DAI debt being repaid.",
          "_makerCdp": "The Maker CDP contract"
        },
        "return": "the governance fee in MKR"
      },
      "init(address)": {
        "details": "Inits the module for a wallet by logging an event. The method can only be called by the wallet itself.",
        "params": {
          "_wallet": "The wallet."
        }
      },
      "isOnlyOwnerModule()": {
        "details": "Returns a constant that indicates that the module is an OnlyOwnerModule.",
        "return": "The constant bytes4(keccak256(\"isOnlyOwnerModule()\"))"
      },
      "isSafe(bytes32,address)": {
        "details": "Indicates whether a CDP is above the liquidation ratio.",
        "params": {
          "_cup": "The id of the CDP.",
          "_makerCdp": "The Maker CDP contract"
        },
        "return": "false if the CDP is in danger of being liquidated."
      },
      "maxDaiDrawable(bytes32,address)": {
        "details": "Max amount of DAI that can still be drawn from a CDP while keeping it above the liquidation ratio.",
        "params": {
          "_cup": "The id of the CDP.",
          "_makerCdp": "The Maker CDP contract"
        },
        "return": "the amount of DAI that can still be drawn from a CDP while keeping it above the liquidation ratio."
      },
      "minCollateralRequired(bytes32,address)": {
        "details": "Min amount of collateral that needs to be added to a CDP to bring it above the liquidation ratio.",
        "params": {
          "_cup": "The id of the CDP.",
          "_makerCdp": "The Maker CDP contract"
        },
        "return": "the amount of collateral that needs to be added to a CDP to bring it above the liquidation ratio."
      },
      "minRequiredCollateral(bytes32,address)": {
        "details": "Minimum amount of PETH that must be locked in a CDP for it to be deemed \"safe\"",
        "params": {
          "_cup": "The id of the CDP.",
          "_makerCdp": "The Maker CDP contract"
        },
        "return": "The minimum amount of PETH to lock in the CDP"
      },
      "openLoan(address,address,uint256,address,uint256)": {
        "details": "Opens a collateralized loan.",
        "params": {
          "_collateral": "The token used as a collateral (must be 0xEeeeeEeeeEeEeeEeEeEeeEEEeeeeEeeeeeeeEEeE).",
          "_collateralAmount": "The amount of collateral token provided.",
          "_debtAmount": "The amount of tokens borrowed.",
          "_debtToken": "The token borrowed (must be the address of the DAI contract).",
          "_wallet": "The target wallet."
        },
        "return": "The ID of the created CDP."
      },
      "pethCollateral(bytes32,address)": {
        "details": "Returns the amount of PETH collateral locked in a CDP.",
        "params": {
          "_cup": "The id of the CDP.",
          "_makerCdp": "The Maker CDP contract"
        },
        "return": "the amount of PETH locked in the CDP."
      },
      "recoverToken(address)": {
        "details": "Utility method enbaling anyone to recover ERC20 token sent to the module by mistake and transfer them to the Module Registry.",
        "params": {
          "_token": "The token to recover."
        }
      },
      "removeCollateral(address,bytes32,address,uint256)": {
        "details": "Removes collateral from a loan identified by its ID.",
        "params": {
          "_collateral": "The token used as a collateral (must be 0xEeeeeEeeeEeEeeEeEeEeeEEEeeeeEeeeeeeeEEeE).",
          "_collateralAmount": "The amount of collateral to remove.",
          "_loanId": "The ID of the target CDP.",
          "_wallet": "The target wallet."
        }
      },
      "removeDebt(address,bytes32,address,uint256)": {
        "details": "Decreases the debt by repaying some token from a loan identified by its ID.",
        "params": {
          "_debtAmount": "The amount of token to repay.",
          "_debtToken": "The token to repay (must be the address of the DAI contract).",
          "_loanId": "The ID of the target CDP.",
          "_wallet": "The target wallet."
        }
      },
      "totalGovernanceFeeInMKR(bytes32,address)": {
        "details": "Returns the total MKR governance fee to be paid before this CDP can be closed.",
        "params": {
          "_cup": "The id of the CDP.",
          "_makerCdp": "The Maker CDP contract"
        },
        "return": "the total governance fee in MKR"
      }
    },
    "title": "MakerManager"
  },
  "userdoc": {
    "methods": {}
  }
}