{
  "contractName": "MakerV2Manager",
  "abi": [
    {
      "inputs": [
        {
          "internalType": "contract ModuleRegistry",
          "name": "_registry",
          "type": "address"
        },
        {
          "internalType": "contract GuardianStorage",
          "name": "_guardianStorage",
          "type": "address"
        },
        {
          "internalType": "contract ScdMcdMigration",
          "name": "_scdMcdMigration",
          "type": "address"
        },
        {
          "internalType": "contract PotLike",
          "name": "_pot",
          "type": "address"
        }
      ],
      "payable": false,
      "stateMutability": "nonpayable",
      "type": "constructor"
    },
    {
      "anonymous": false,
      "inputs": [
        {
          "indexed": true,
          "internalType": "address",
          "name": "_wallet",
          "type": "address"
        },
        {
          "indexed": false,
          "internalType": "address",
          "name": "_token",
          "type": "address"
        },
        {
          "indexed": false,
          "internalType": "uint256",
          "name": "_invested",
          "type": "uint256"
        },
        {
          "indexed": false,
          "internalType": "uint256",
          "name": "_period",
          "type": "uint256"
        }
      ],
      "name": "InvestmentAdded",
      "type": "event"
    },
    {
      "anonymous": false,
      "inputs": [
        {
          "indexed": true,
          "internalType": "address",
          "name": "_wallet",
          "type": "address"
        },
        {
          "indexed": false,
          "internalType": "address",
          "name": "_token",
          "type": "address"
        },
        {
          "indexed": false,
          "internalType": "uint256",
          "name": "_fraction",
          "type": "uint256"
        }
      ],
      "name": "InvestmentRemoved",
      "type": "event"
    },
    {
      "anonymous": false,
      "inputs": [
        {
          "indexed": false,
          "internalType": "bytes32",
          "name": "name",
          "type": "bytes32"
        }
      ],
      "name": "ModuleCreated",
      "type": "event"
    },
    {
      "anonymous": false,
      "inputs": [
        {
          "indexed": false,
          "internalType": "address",
          "name": "wallet",
          "type": "address"
        }
      ],
      "name": "ModuleInitialised",
      "type": "event"
    },
    {
      "anonymous": false,
      "inputs": [
        {
          "indexed": true,
          "internalType": "address",
          "name": "_wallet",
          "type": "address"
        },
        {
          "indexed": false,
          "internalType": "address",
          "name": "_srcToken",
          "type": "address"
        },
        {
          "indexed": false,
          "internalType": "uint256",
          "name": "_srcAmount",
          "type": "uint256"
        },
        {
          "indexed": false,
          "internalType": "address",
          "name": "_destToken",
          "type": "address"
        },
        {
          "indexed": false,
          "internalType": "uint256",
          "name": "_destAmount",
          "type": "uint256"
        }
      ],
      "name": "TokenConverted",
      "type": "event"
    },
    {
      "anonymous": false,
      "inputs": [
        {
          "indexed": true,
          "internalType": "address",
          "name": "wallet",
          "type": "address"
        },
        {
          "indexed": true,
          "internalType": "bool",
          "name": "success",
          "type": "bool"
        },
        {
          "indexed": false,
          "internalType": "bytes32",
          "name": "signedHash",
          "type": "bytes32"
        }
      ],
      "name": "TransactionExecuted",
      "type": "event"
    },
    {
      "constant": false,
      "inputs": [
        {
          "internalType": "contract BaseWallet",
          "name": "_wallet",
          "type": "address"
        },
        {
          "internalType": "contract Module",
          "name": "_module",
          "type": "address"
        }
      ],
      "name": "addModule",
      "outputs": [],
      "payable": false,
      "stateMutability": "nonpayable",
      "type": "function"
    },
    {
      "constant": true,
      "inputs": [],
      "name": "daiJoin",
      "outputs": [
        {
          "internalType": "contract JoinLike",
          "name": "",
          "type": "address"
        }
      ],
      "payable": false,
      "stateMutability": "view",
      "type": "function"
    },
    {
      "constant": true,
      "inputs": [],
      "name": "daiToken",
      "outputs": [
        {
          "internalType": "contract GemLike",
          "name": "",
          "type": "address"
        }
      ],
      "payable": false,
      "stateMutability": "view",
      "type": "function"
    },
    {
      "constant": false,
      "inputs": [
        {
          "internalType": "contract BaseWallet",
          "name": "_wallet",
          "type": "address"
        },
        {
          "internalType": "bytes",
          "name": "_data",
          "type": "bytes"
        },
        {
          "internalType": "uint256",
          "name": "_nonce",
          "type": "uint256"
        },
        {
          "internalType": "bytes",
          "name": "_signatures",
          "type": "bytes"
        },
        {
          "internalType": "uint256",
          "name": "_gasPrice",
          "type": "uint256"
        },
        {
          "internalType": "uint256",
          "name": "_gasLimit",
          "type": "uint256"
        }
      ],
      "name": "execute",
      "outputs": [
        {
          "internalType": "bool",
          "name": "success",
          "type": "bool"
        }
      ],
      "payable": false,
      "stateMutability": "nonpayable",
      "type": "function"
    },
    {
      "constant": true,
      "inputs": [
        {
          "internalType": "contract BaseWallet",
          "name": "_wallet",
          "type": "address"
        }
      ],
      "name": "getNonce",
      "outputs": [
        {
          "internalType": "uint256",
          "name": "nonce",
          "type": "uint256"
        }
      ],
      "payable": false,
      "stateMutability": "view",
      "type": "function"
    },
    {
      "constant": false,
      "inputs": [
        {
          "internalType": "contract BaseWallet",
          "name": "_wallet",
          "type": "address"
        }
      ],
      "name": "init",
      "outputs": [],
      "payable": false,
      "stateMutability": "nonpayable",
      "type": "function"
    },
    {
      "constant": true,
      "inputs": [],
      "name": "isOnlyOwnerModule",
      "outputs": [
        {
          "internalType": "bytes4",
          "name": "",
          "type": "bytes4"
        }
      ],
      "payable": false,
      "stateMutability": "pure",
      "type": "function"
    },
    {
      "constant": true,
      "inputs": [],
      "name": "pot",
      "outputs": [
        {
          "internalType": "contract PotLike",
          "name": "",
          "type": "address"
        }
      ],
      "payable": false,
      "stateMutability": "view",
      "type": "function"
    },
    {
      "constant": false,
      "inputs": [
        {
          "internalType": "address",
          "name": "_token",
          "type": "address"
        }
      ],
      "name": "recoverToken",
      "outputs": [],
      "payable": false,
      "stateMutability": "nonpayable",
      "type": "function"
    },
    {
      "constant": true,
      "inputs": [
        {
          "internalType": "address",
          "name": "",
          "type": "address"
        }
      ],
      "name": "relayer",
      "outputs": [
        {
          "internalType": "uint256",
          "name": "nonce",
          "type": "uint256"
        }
      ],
      "payable": false,
      "stateMutability": "view",
      "type": "function"
    },
    {
      "constant": true,
      "inputs": [],
      "name": "saiToken",
      "outputs": [
        {
          "internalType": "contract GemLike",
          "name": "",
          "type": "address"
        }
      ],
      "payable": false,
      "stateMutability": "view",
      "type": "function"
    },
    {
      "constant": true,
      "inputs": [],
      "name": "scdMcdMigration",
      "outputs": [
        {
          "internalType": "address",
          "name": "",
          "type": "address"
        }
      ],
      "payable": false,
      "stateMutability": "view",
      "type": "function"
    },
    {
      "constant": true,
      "inputs": [],
      "name": "vat",
      "outputs": [
        {
          "internalType": "contract VatLike",
          "name": "",
          "type": "address"
        }
      ],
      "payable": false,
      "stateMutability": "view",
      "type": "function"
    },
    {
      "constant": false,
      "inputs": [
        {
          "internalType": "contract BaseWallet",
          "name": "_wallet",
          "type": "address"
        },
        {
          "internalType": "address",
          "name": "_token",
          "type": "address"
        },
        {
          "internalType": "uint256",
          "name": "_amount",
          "type": "uint256"
        },
        {
          "internalType": "uint256",
          "name": "_period",
          "type": "uint256"
        }
      ],
      "name": "addInvestment",
      "outputs": [
        {
          "internalType": "uint256",
          "name": "_invested",
          "type": "uint256"
        }
      ],
      "payable": false,
      "stateMutability": "nonpayable",
      "type": "function"
    },
    {
      "constant": false,
      "inputs": [
        {
          "internalType": "contract BaseWallet",
          "name": "_wallet",
          "type": "address"
        },
        {
          "internalType": "address",
          "name": "_token",
          "type": "address"
        },
        {
          "internalType": "uint256",
          "name": "_fraction",
          "type": "uint256"
        }
      ],
      "name": "removeInvestment",
      "outputs": [],
      "payable": false,
      "stateMutability": "nonpayable",
      "type": "function"
    },
    {
      "constant": true,
      "inputs": [
        {
          "internalType": "contract BaseWallet",
          "name": "_wallet",
          "type": "address"
        },
        {
          "internalType": "address",
          "name": "_token",
          "type": "address"
        }
      ],
      "name": "getInvestment",
      "outputs": [
        {
          "internalType": "uint256",
          "name": "_tokenValue",
          "type": "uint256"
        },
        {
          "internalType": "uint256",
          "name": "_periodEnd",
          "type": "uint256"
        }
      ],
      "payable": false,
      "stateMutability": "view",
      "type": "function"
    },
    {
      "constant": true,
      "inputs": [
        {
          "internalType": "contract BaseWallet",
          "name": "_wallet",
          "type": "address"
        }
      ],
      "name": "dsrBalance",
      "outputs": [
        {
          "internalType": "uint256",
          "name": "",
          "type": "uint256"
        }
      ],
      "payable": false,
      "stateMutability": "view",
      "type": "function"
    },
    {
      "constant": false,
      "inputs": [
        {
          "internalType": "contract BaseWallet",
          "name": "_wallet",
          "type": "address"
        },
        {
          "internalType": "uint256",
          "name": "_amount",
          "type": "uint256"
        }
      ],
      "name": "joinDsr",
      "outputs": [],
      "payable": false,
      "stateMutability": "nonpayable",
      "type": "function"
    },
    {
      "constant": false,
      "inputs": [
        {
          "internalType": "contract BaseWallet",
          "name": "_wallet",
          "type": "address"
        },
        {
          "internalType": "uint256",
          "name": "_amount",
          "type": "uint256"
        }
      ],
      "name": "exitDsr",
      "outputs": [],
      "payable": false,
      "stateMutability": "nonpayable",
      "type": "function"
    },
    {
      "constant": false,
      "inputs": [
        {
          "internalType": "contract BaseWallet",
          "name": "_wallet",
          "type": "address"
        }
      ],
      "name": "exitAllDsr",
      "outputs": [],
      "payable": false,
      "stateMutability": "nonpayable",
      "type": "function"
    },
    {
      "constant": false,
      "inputs": [
        {
          "internalType": "contract BaseWallet",
          "name": "_wallet",
          "type": "address"
        },
        {
          "internalType": "uint256",
          "name": "_amount",
          "type": "uint256"
        }
      ],
      "name": "swapSaiToDai",
      "outputs": [],
      "payable": false,
      "stateMutability": "nonpayable",
      "type": "function"
    },
    {
      "constant": false,
      "inputs": [
        {
          "internalType": "contract BaseWallet",
          "name": "_wallet",
          "type": "address"
        },
        {
          "internalType": "uint256",
          "name": "_amount",
          "type": "uint256"
        }
      ],
      "name": "swapDaiToSai",
      "outputs": [],
      "payable": false,
      "stateMutability": "nonpayable",
      "type": "function"
    }
  ],
  "bytecode": "0x60806040523480156200001157600080fd5b506040516200519a3803806200519a833981810160405260808110156200003757600080fd5b810190808051906020019092919080519060200190929190805190602001909291908051906020019092919050505083837f4d616b657256324d616e61676572000000000000000000000000000000000000826000806101000a81548173ffffffffffffffffffffffffffffffffffffffff021916908373ffffffffffffffffffffffffffffffffffffffff16021790555081600160006101000a81548173ffffffffffffffffffffffffffffffffffffffff021916908373ffffffffffffffffffffffffffffffffffffffff1602179055507f3019c8fc80239e3dff8f781212ae2004839c2cb61d6c70acd279ac65392145df816040518082815260200191505060405180910390a150505081600560006101000a81548173ffffffffffffffffffffffffffffffffffffffff021916908373ffffffffffffffffffffffffffffffffffffffff1602179055508173ffffffffffffffffffffffffffffffffffffffff16630b14408f6040518163ffffffff1660e01b815260040160206040518083038186803b158015620001cc57600080fd5b505afa158015620001e1573d6000803e3d6000fd5b505050506040513d6020811015620001f857600080fd5b810190808051906020019092919050505073ffffffffffffffffffffffffffffffffffffffff16637bd2bea76040518163ffffffff1660e01b8152600401602060405180830381600087803b1580156200025157600080fd5b505af115801562000266573d6000803e3d6000fd5b505050506040513d60208110156200027d57600080fd5b8101908080519060200190929190505050600360006101000a81548173ffffffffffffffffffffffffffffffffffffffff021916908373ffffffffffffffffffffffffffffffffffffffff1602179055508173ffffffffffffffffffffffffffffffffffffffff1663c11645bc6040518163ffffffff1660e01b815260040160206040518083038186803b1580156200031557600080fd5b505afa1580156200032a573d6000803e3d6000fd5b505050506040513d60208110156200034157600080fd5b8101908080519060200190929190505050600760006101000a81548173ffffffffffffffffffffffffffffffffffffffff021916908373ffffffffffffffffffffffffffffffffffffffff160217905550600760009054906101000a900473ffffffffffffffffffffffffffffffffffffffff1673ffffffffffffffffffffffffffffffffffffffff166336569e776040518163ffffffff1660e01b815260040160206040518083038186803b158015620003fb57600080fd5b505afa15801562000410573d6000803e3d6000fd5b505050506040513d60208110156200042757600080fd5b8101908080519060200190929190505050600860006101000a81548173ffffffffffffffffffffffffffffffffffffffff021916908373ffffffffffffffffffffffffffffffffffffffff160217905550600760009054906101000a900473ffffffffffffffffffffffffffffffffffffffff1673ffffffffffffffffffffffffffffffffffffffff1663f4b9fa756040518163ffffffff1660e01b8152600401602060405180830381600087803b158015620004e357600080fd5b505af1158015620004f8573d6000803e3d6000fd5b505050506040513d60208110156200050f57600080fd5b8101908080519060200190929190505050600460006101000a81548173ffffffffffffffffffffffffffffffffffffffff021916908373ffffffffffffffffffffffffffffffffffffffff16021790555080600660006101000a81548173ffffffffffffffffffffffffffffffffffffffff021916908373ffffffffffffffffffffffffffffffffffffffff16021790555050505050614be580620005b56000396000f3fe608060405234801561001057600080fd5b50600436106101425760003560e01c80639be65a60116100b8578063c11645bc1161007c578063c11645bc14610719578063c9b5ef8e14610763578063cac7495c146107bb578063d490da4d1461083a578063d9b6ccbf14610896578063ec9e13aa146108e057610142565b80639be65a60146104c5578063a30184de14610509578063aacaaf8814610553578063ae8d246814610677578063be22f546146106cf57610142565b806336569e771161010a57806336569e77146102c35780634ba2363a1461030d5780635a1db8c4146103575780638c544246146103bb5780638d3e0a691461040957806398d534281461045757610142565b80630227efa21461014757806319ab453c14610195578063288596a6146101d95780632c5ba768146102275780632d0335ab1461026b575b600080fd5b6101936004803603604081101561015d57600080fd5b81019080803573ffffffffffffffffffffffffffffffffffffffff1690602001909291908035906020019092919050505061096c565b005b6101d7600480360360208110156101ab57600080fd5b81019080803573ffffffffffffffffffffffffffffffffffffffff169060200190929190505050611202565b005b610225600480360360408110156101ef57600080fd5b81019080803573ffffffffffffffffffffffffffffffffffffffff1690602001909291908035906020019092919050505061130b565b005b6102696004803603602081101561023d57600080fd5b81019080803573ffffffffffffffffffffffffffffffffffffffff169060200190929190505050611942565b005b6102ad6004803603602081101561028157600080fd5b81019080803573ffffffffffffffffffffffffffffffffffffffff16906020019092919050505061218f565b6040518082815260200191505060405180910390f35b6102cb6121db565b604051808273ffffffffffffffffffffffffffffffffffffffff1673ffffffffffffffffffffffffffffffffffffffff16815260200191505060405180910390f35b610315612201565b604051808273ffffffffffffffffffffffffffffffffffffffff1673ffffffffffffffffffffffffffffffffffffffff16815260200191505060405180910390f35b6103b96004803603604081101561036d57600080fd5b81019080803573ffffffffffffffffffffffffffffffffffffffff169060200190929190803573ffffffffffffffffffffffffffffffffffffffff169060200190929190505050612227565b005b610407600480360360408110156103d157600080fd5b81019080803573ffffffffffffffffffffffffffffffffffffffff169060200190929190803590602001909291905050506124b1565b005b6104556004803603604081101561041f57600080fd5b81019080803573ffffffffffffffffffffffffffffffffffffffff16906020019092919080359060200190929190505050612ae8565b005b6104c36004803603606081101561046d57600080fd5b81019080803573ffffffffffffffffffffffffffffffffffffffff169060200190929190803573ffffffffffffffffffffffffffffffffffffffff16906020019092919080359060200190929190505050613547565b005b610507600480360360208110156104db57600080fd5b81019080803573ffffffffffffffffffffffffffffffffffffffff169060200190929190505050613738565b005b6105116138dc565b604051808273ffffffffffffffffffffffffffffffffffffffff1673ffffffffffffffffffffffffffffffffffffffff16815260200191505060405180910390f35b61065d600480360360c081101561056957600080fd5b81019080803573ffffffffffffffffffffffffffffffffffffffff169060200190929190803590602001906401000000008111156105a657600080fd5b8201836020820111156105b857600080fd5b803590602001918460018302840111640100000000831117156105da57600080fd5b9091929391929390803590602001909291908035906020019064010000000081111561060557600080fd5b82018360208201111561061757600080fd5b8035906020019184600183028401116401000000008311171561063957600080fd5b90919293919293908035906020019092919080359060200190929190505050613902565b604051808215151515815260200191505060405180910390f35b6106b96004803603602081101561068d57600080fd5b81019080803573ffffffffffffffffffffffffffffffffffffffff169060200190929190505050613c7e565b6040518082815260200191505060405180910390f35b6106d7613e2a565b604051808273ffffffffffffffffffffffffffffffffffffffff1673ffffffffffffffffffffffffffffffffffffffff16815260200191505060405180910390f35b610721613e50565b604051808273ffffffffffffffffffffffffffffffffffffffff1673ffffffffffffffffffffffffffffffffffffffff16815260200191505060405180910390f35b6107a56004803603602081101561077957600080fd5b81019080803573ffffffffffffffffffffffffffffffffffffffff169060200190929190505050613e76565b6040518082815260200191505060405180910390f35b61081d600480360360408110156107d157600080fd5b81019080803573ffffffffffffffffffffffffffffffffffffffff169060200190929190803573ffffffffffffffffffffffffffffffffffffffff169060200190929190505050613e94565b604051808381526020018281526020019250505060405180910390f35b610842613f0a565b60405180827bffffffffffffffffffffffffffffffffffffffffffffffffffffffff19167bffffffffffffffffffffffffffffffffffffffffffffffffffffffff1916815260200191505060405180910390f35b61089e613f19565b604051808273ffffffffffffffffffffffffffffffffffffffff1673ffffffffffffffffffffffffffffffffffffffff16815260200191505060405180910390f35b610956600480360360808110156108f657600080fd5b81019080803573ffffffffffffffffffffffffffffffffffffffff169060200190929190803573ffffffffffffffffffffffffffffffffffffffff1690602001909291908035906020019092919080359060200190929190505050613f3f565b6040518082815260200191505060405180910390f35b813073ffffffffffffffffffffffffffffffffffffffff163373ffffffffffffffffffffffffffffffffffffffff1614806109ad57506109ac81336140c5565b5b610a02576040517f08c379a0000000000000000000000000000000000000000000000000000000008152600401808060200182810382526023815260200180614b8e6023913960400191505060405180910390fd5b82600160009054906101000a900473ffffffffffffffffffffffffffffffffffffffff1673ffffffffffffffffffffffffffffffffffffffff16634a4fbeec826040518263ffffffff1660e01b8152600401808273ffffffffffffffffffffffffffffffffffffffff1673ffffffffffffffffffffffffffffffffffffffff16815260200191505060206040518083038186803b158015610aa257600080fd5b505afa158015610ab6573d6000803e3d6000fd5b505050506040513d6020811015610acc57600080fd5b810190808051906020019092919050505015610b50576040517f08c379a000000000000000000000000000000000000000000000000000000000815260040180806020018281038252601b8152602001807f424d3a2077616c6c6574206d75737420626520756e6c6f636b6564000000000081525060200191505060405180910390fd5b600660009054906101000a900473ffffffffffffffffffffffffffffffffffffffff1673ffffffffffffffffffffffffffffffffffffffff16639f678cca6040518163ffffffff1660e01b8152600401600060405180830381600087803b158015610bba57600080fd5b505af1158015610bce573d6000803e3d6000fd5b505050506000600660009054906101000a900473ffffffffffffffffffffffffffffffffffffffff1673ffffffffffffffffffffffffffffffffffffffff1663c92aecc46040518163ffffffff1660e01b815260040160206040518083038186803b158015610c3c57600080fd5b505afa158015610c50573d6000803e3d6000fd5b505050506040513d6020811015610c6657600080fd5b8101908080519060200190929190505050610c966b033b2e3c9fd0803ce80000008661417e90919063ffffffff16565b81610c9d57fe5b049050610d7285600660009054906101000a900473ffffffffffffffffffffffffffffffffffffffff16600060405180807f657869742875696e743235362900000000000000000000000000000000000000815250600d01905060405180910390208560405160240180828152602001915050604051602081830303815290604052907bffffffffffffffffffffffffffffffffffffffffffffffffffffffff19166020820180517bffffffffffffffffffffffffffffffffffffffffffffffffffffffff83818316178352505050506141b8565b506000600860009054906101000a900473ffffffffffffffffffffffffffffffffffffffff1673ffffffffffffffffffffffffffffffffffffffff16634538c4eb87600760009054906101000a900473ffffffffffffffffffffffffffffffffffffffff166040518363ffffffff1660e01b8152600401808373ffffffffffffffffffffffffffffffffffffffff1673ffffffffffffffffffffffffffffffffffffffff1681526020018273ffffffffffffffffffffffffffffffffffffffff1673ffffffffffffffffffffffffffffffffffffffff1681526020019250505060206040518083038186803b158015610e6a57600080fd5b505afa158015610e7e573d6000803e3d6000fd5b505050506040513d6020811015610e9457600080fd5b81019080805190602001909291905050501415610fcd57610fcb85600860009054906101000a900473ffffffffffffffffffffffffffffffffffffffff16600060405180807f686f706528616464726573732900000000000000000000000000000000000000815250600d0190506040518091039020600760009054906101000a900473ffffffffffffffffffffffffffffffffffffffff16604051602401808273ffffffffffffffffffffffffffffffffffffffff1673ffffffffffffffffffffffffffffffffffffffff168152602001915050604051602081830303815290604052907bffffffffffffffffffffffffffffffffffffffffffffffffffffffff19166020820180517bffffffffffffffffffffffffffffffffffffffffffffffffffffffff83818316178352505050506141b8565b505b6000600860009054906101000a900473ffffffffffffffffffffffffffffffffffffffff1673ffffffffffffffffffffffffffffffffffffffff16636c25b346876040518263ffffffff1660e01b8152600401808273ffffffffffffffffffffffffffffffffffffffff1673ffffffffffffffffffffffffffffffffffffffff16815260200191505060206040518083038186803b15801561106e57600080fd5b505afa158015611082573d6000803e3d6000fd5b505050506040513d602081101561109857600080fd5b8101908080519060200190929190505050905060006110cc6b033b2e3c9fd0803ce80000008761417e90919063ffffffff16565b8210156110ee576b033b2e3c9fd0803ce800000082816110e857fe5b046110f0565b855b90506111f887600760009054906101000a900473ffffffffffffffffffffffffffffffffffffffff16600060405180807f6578697428616464726573732c75696e74323536290000000000000000000000815250601501905060405180910390208b86604051602401808373ffffffffffffffffffffffffffffffffffffffff1673ffffffffffffffffffffffffffffffffffffffff16815260200182815260200192505050604051602081830303815290604052907bffffffffffffffffffffffffffffffffffffffffffffffffffffffff19166020820180517bffffffffffffffffffffffffffffffffffffffffffffffffffffffff83818316178352505050506141b8565b5050505050505050565b808073ffffffffffffffffffffffffffffffffffffffff163373ffffffffffffffffffffffffffffffffffffffff16146112a4576040517f08c379a00000000000000000000000000000000000000000000000000000000081526004018080602001828103825260198152602001807f424d3a2063616c6c6572206d7573742062652077616c6c65740000000000000081525060200191505060405180910390fd5b7f9fcca3f73f85397e2bf03647abf243c20b753bd54463ff3cae74de2971c112fa82604051808273ffffffffffffffffffffffffffffffffffffffff1673ffffffffffffffffffffffffffffffffffffffff16815260200191505060405180910390a15050565b813073ffffffffffffffffffffffffffffffffffffffff163373ffffffffffffffffffffffffffffffffffffffff16148061134c575061134b81336140c5565b5b6113a1576040517f08c379a0000000000000000000000000000000000000000000000000000000008152600401808060200182810382526023815260200180614b8e6023913960400191505060405180910390fd5b82600160009054906101000a900473ffffffffffffffffffffffffffffffffffffffff1673ffffffffffffffffffffffffffffffffffffffff16634a4fbeec826040518263ffffffff1660e01b8152600401808273ffffffffffffffffffffffffffffffffffffffff1673ffffffffffffffffffffffffffffffffffffffff16815260200191505060206040518083038186803b15801561144157600080fd5b505afa158015611455573d6000803e3d6000fd5b505050506040513d602081101561146b57600080fd5b8101908080519060200190929190505050156114ef576040517f08c379a000000000000000000000000000000000000000000000000000000000815260040180806020018281038252601b8152602001807f424d3a2077616c6c6574206d75737420626520756e6c6f636b6564000000000081525060200191505060405180910390fd5b82600460009054906101000a900473ffffffffffffffffffffffffffffffffffffffff1673ffffffffffffffffffffffffffffffffffffffff166370a08231866040518263ffffffff1660e01b8152600401808273ffffffffffffffffffffffffffffffffffffffff1673ffffffffffffffffffffffffffffffffffffffff16815260200191505060206040518083038186803b15801561158f57600080fd5b505afa1580156115a3573d6000803e3d6000fd5b505050506040513d60208110156115b957600080fd5b8101908080519060200190929190505050101561163e576040517f08c379a00000000000000000000000000000000000000000000000000000000081526004018080602001828103825260148152602001807f444d3a20696e73756666696369656e742044414900000000000000000000000081525060200191505060405180910390fd5b61176684600460009054906101000a900473ffffffffffffffffffffffffffffffffffffffff16600060405180807f617070726f766528616464726573732c75696e7432353629000000000000000081525060180190506040518091039020600560009054906101000a900473ffffffffffffffffffffffffffffffffffffffff1688604051602401808373ffffffffffffffffffffffffffffffffffffffff1673ffffffffffffffffffffffffffffffffffffffff16815260200182815260200192505050604051602081830303815290604052907bffffffffffffffffffffffffffffffffffffffffffffffffffffffff19166020820180517bffffffffffffffffffffffffffffffffffffffffffffffffffffffff83818316178352505050506141b8565b5061183984600560009054906101000a900473ffffffffffffffffffffffffffffffffffffffff16600060405180807f73776170446169546f5361692875696e74323536290000000000000000000000815250601501905060405180910390208760405160240180828152602001915050604051602081830303815290604052907bffffffffffffffffffffffffffffffffffffffffffffffffffffffff19166020820180517bffffffffffffffffffffffffffffffffffffffffffffffffffffffff83818316178352505050506141b8565b508373ffffffffffffffffffffffffffffffffffffffff167fe0aebc0b49a57880fff1a14cdb8f71331347f88fedf9f4a251ff97b31061d828600460009054906101000a900473ffffffffffffffffffffffffffffffffffffffff1685600360009054906101000a900473ffffffffffffffffffffffffffffffffffffffff1687604051808573ffffffffffffffffffffffffffffffffffffffff1673ffffffffffffffffffffffffffffffffffffffff1681526020018481526020018373ffffffffffffffffffffffffffffffffffffffff1673ffffffffffffffffffffffffffffffffffffffff16815260200182815260200194505050505060405180910390a250505050565b803073ffffffffffffffffffffffffffffffffffffffff163373ffffffffffffffffffffffffffffffffffffffff161480611983575061198281336140c5565b5b6119d8576040517f08c379a0000000000000000000000000000000000000000000000000000000008152600401808060200182810382526023815260200180614b8e6023913960400191505060405180910390fd5b81600160009054906101000a900473ffffffffffffffffffffffffffffffffffffffff1673ffffffffffffffffffffffffffffffffffffffff16634a4fbeec826040518263ffffffff1660e01b8152600401808273ffffffffffffffffffffffffffffffffffffffff1673ffffffffffffffffffffffffffffffffffffffff16815260200191505060206040518083038186803b158015611a7857600080fd5b505afa158015611a8c573d6000803e3d6000fd5b505050506040513d6020811015611aa257600080fd5b810190808051906020019092919050505015611b26576040517f08c379a000000000000000000000000000000000000000000000000000000000815260040180806020018281038252601b8152602001807f424d3a2077616c6c6574206d75737420626520756e6c6f636b6564000000000081525060200191505060405180910390fd5b600660009054906101000a900473ffffffffffffffffffffffffffffffffffffffff1673ffffffffffffffffffffffffffffffffffffffff16639f678cca6040518163ffffffff1660e01b8152600401600060405180830381600087803b158015611b9057600080fd5b505af1158015611ba4573d6000803e3d6000fd5b505050506000600660009054906101000a900473ffffffffffffffffffffffffffffffffffffffff1673ffffffffffffffffffffffffffffffffffffffff16630bebac86856040518263ffffffff1660e01b8152600401808273ffffffffffffffffffffffffffffffffffffffff1673ffffffffffffffffffffffffffffffffffffffff16815260200191505060206040518083038186803b158015611c4957600080fd5b505afa158015611c5d573d6000803e3d6000fd5b505050506040513d6020811015611c7357600080fd5b81019080805190602001909291905050509050611d5884600660009054906101000a900473ffffffffffffffffffffffffffffffffffffffff16600060405180807f657869742875696e743235362900000000000000000000000000000000000000815250600d01905060405180910390208560405160240180828152602001915050604051602081830303815290604052907bffffffffffffffffffffffffffffffffffffffffffffffffffffffff19166020820180517bffffffffffffffffffffffffffffffffffffffffffffffffffffffff83818316178352505050506141b8565b506000600860009054906101000a900473ffffffffffffffffffffffffffffffffffffffff1673ffffffffffffffffffffffffffffffffffffffff16634538c4eb86600760009054906101000a900473ffffffffffffffffffffffffffffffffffffffff166040518363ffffffff1660e01b8152600401808373ffffffffffffffffffffffffffffffffffffffff1673ffffffffffffffffffffffffffffffffffffffff1681526020018273ffffffffffffffffffffffffffffffffffffffff1673ffffffffffffffffffffffffffffffffffffffff1681526020019250505060206040518083038186803b158015611e5057600080fd5b505afa158015611e64573d6000803e3d6000fd5b505050506040513d6020811015611e7a57600080fd5b81019080805190602001909291905050501415611fb357611fb184600860009054906101000a900473ffffffffffffffffffffffffffffffffffffffff16600060405180807f686f706528616464726573732900000000000000000000000000000000000000815250600d0190506040518091039020600760009054906101000a900473ffffffffffffffffffffffffffffffffffffffff16604051602401808273ffffffffffffffffffffffffffffffffffffffff1673ffffffffffffffffffffffffffffffffffffffff168152602001915050604051602081830303815290604052907bffffffffffffffffffffffffffffffffffffffffffffffffffffffff19166020820180517bffffffffffffffffffffffffffffffffffffffffffffffffffffffff83818316178352505050506141b8565b505b60006b033b2e3c9fd0803ce800000061207783600660009054906101000a900473ffffffffffffffffffffffffffffffffffffffff1673ffffffffffffffffffffffffffffffffffffffff1663c92aecc46040518163ffffffff1660e01b815260040160206040518083038186803b15801561202e57600080fd5b505afa158015612042573d6000803e3d6000fd5b505050506040513d602081101561205857600080fd5b810190808051906020019092919050505061417e90919063ffffffff16565b8161207e57fe5b04905061218785600760009054906101000a900473ffffffffffffffffffffffffffffffffffffffff16600060405180807f6578697428616464726573732c75696e74323536290000000000000000000000815250601501905060405180910390208986604051602401808373ffffffffffffffffffffffffffffffffffffffff1673ffffffffffffffffffffffffffffffffffffffff16815260200182815260200192505050604051602081830303815290604052907bffffffffffffffffffffffffffffffffffffffffffffffffffffffff19166020820180517bffffffffffffffffffffffffffffffffffffffffffffffffffffffff83818316178352505050506141b8565b505050505050565b6000600260008373ffffffffffffffffffffffffffffffffffffffff1673ffffffffffffffffffffffffffffffffffffffff168152602001908152602001600020600001549050919050565b600860009054906101000a900473ffffffffffffffffffffffffffffffffffffffff1681565b600660009054906101000a900473ffffffffffffffffffffffffffffffffffffffff1681565b813073ffffffffffffffffffffffffffffffffffffffff163373ffffffffffffffffffffffffffffffffffffffff161480612268575061226781336140c5565b5b6122bd576040517f08c379a0000000000000000000000000000000000000000000000000000000008152600401808060200182810382526023815260200180614b8e6023913960400191505060405180910390fd5b6000809054906101000a900473ffffffffffffffffffffffffffffffffffffffff1673ffffffffffffffffffffffffffffffffffffffff16630bcd4ebb836040518263ffffffff1660e01b8152600401808273ffffffffffffffffffffffffffffffffffffffff1673ffffffffffffffffffffffffffffffffffffffff16815260200191505060206040518083038186803b15801561235b57600080fd5b505afa15801561236f573d6000803e3d6000fd5b505050506040513d602081101561238557600080fd5b8101908080519060200190929190505050612408576040517f08c379a000000000000000000000000000000000000000000000000000000000815260040180806020018281038252601c8152602001807f424d3a206d6f64756c65206973206e6f7420726567697374657265640000000081525060200191505060405180910390fd5b8273ffffffffffffffffffffffffffffffffffffffff16631f17732d8360016040518363ffffffff1660e01b8152600401808373ffffffffffffffffffffffffffffffffffffffff1673ffffffffffffffffffffffffffffffffffffffff1681526020018215151515815260200192505050600060405180830381600087803b15801561249457600080fd5b505af11580156124a8573d6000803e3d6000fd5b50505050505050565b813073ffffffffffffffffffffffffffffffffffffffff163373ffffffffffffffffffffffffffffffffffffffff1614806124f257506124f181336140c5565b5b612547576040517f08c379a0000000000000000000000000000000000000000000000000000000008152600401808060200182810382526023815260200180614b8e6023913960400191505060405180910390fd5b82600160009054906101000a900473ffffffffffffffffffffffffffffffffffffffff1673ffffffffffffffffffffffffffffffffffffffff16634a4fbeec826040518263ffffffff1660e01b8152600401808273ffffffffffffffffffffffffffffffffffffffff1673ffffffffffffffffffffffffffffffffffffffff16815260200191505060206040518083038186803b1580156125e757600080fd5b505afa1580156125fb573d6000803e3d6000fd5b505050506040513d602081101561261157600080fd5b810190808051906020019092919050505015612695576040517f08c379a000000000000000000000000000000000000000000000000000000000815260040180806020018281038252601b8152602001807f424d3a2077616c6c6574206d75737420626520756e6c6f636b6564000000000081525060200191505060405180910390fd5b82600360009054906101000a900473ffffffffffffffffffffffffffffffffffffffff1673ffffffffffffffffffffffffffffffffffffffff166370a08231866040518263ffffffff1660e01b8152600401808273ffffffffffffffffffffffffffffffffffffffff1673ffffffffffffffffffffffffffffffffffffffff16815260200191505060206040518083038186803b15801561273557600080fd5b505afa158015612749573d6000803e3d6000fd5b505050506040513d602081101561275f57600080fd5b810190808051906020019092919050505010156127e4576040517f08c379a00000000000000000000000000000000000000000000000000000000081526004018080602001828103825260148152602001807f444d3a20696e73756666696369656e742053414900000000000000000000000081525060200191505060405180910390fd5b61290c84600360009054906101000a900473ffffffffffffffffffffffffffffffffffffffff16600060405180807f617070726f766528616464726573732c75696e7432353629000000000000000081525060180190506040518091039020600560009054906101000a900473ffffffffffffffffffffffffffffffffffffffff1688604051602401808373ffffffffffffffffffffffffffffffffffffffff1673ffffffffffffffffffffffffffffffffffffffff16815260200182815260200192505050604051602081830303815290604052907bffffffffffffffffffffffffffffffffffffffffffffffffffffffff19166020820180517bffffffffffffffffffffffffffffffffffffffffffffffffffffffff83818316178352505050506141b8565b506129df84600560009054906101000a900473ffffffffffffffffffffffffffffffffffffffff16600060405180807f73776170536169546f4461692875696e74323536290000000000000000000000815250601501905060405180910390208760405160240180828152602001915050604051602081830303815290604052907bffffffffffffffffffffffffffffffffffffffffffffffffffffffff19166020820180517bffffffffffffffffffffffffffffffffffffffffffffffffffffffff83818316178352505050506141b8565b508373ffffffffffffffffffffffffffffffffffffffff167fe0aebc0b49a57880fff1a14cdb8f71331347f88fedf9f4a251ff97b31061d828600360009054906101000a900473ffffffffffffffffffffffffffffffffffffffff1685600460009054906101000a900473ffffffffffffffffffffffffffffffffffffffff1687604051808573ffffffffffffffffffffffffffffffffffffffff1673ffffffffffffffffffffffffffffffffffffffff1681526020018481526020018373ffffffffffffffffffffffffffffffffffffffff1673ffffffffffffffffffffffffffffffffffffffff16815260200182815260200194505050505060405180910390a250505050565b813073ffffffffffffffffffffffffffffffffffffffff163373ffffffffffffffffffffffffffffffffffffffff161480612b295750612b2881336140c5565b5b612b7e576040517f08c379a0000000000000000000000000000000000000000000000000000000008152600401808060200182810382526023815260200180614b8e6023913960400191505060405180910390fd5b82600160009054906101000a900473ffffffffffffffffffffffffffffffffffffffff1673ffffffffffffffffffffffffffffffffffffffff16634a4fbeec826040518263ffffffff1660e01b8152600401808273ffffffffffffffffffffffffffffffffffffffff1673ffffffffffffffffffffffffffffffffffffffff16815260200191505060206040518083038186803b158015612c1e57600080fd5b505afa158015612c32573d6000803e3d6000fd5b505050506040513d6020811015612c4857600080fd5b810190808051906020019092919050505015612ccc576040517f08c379a000000000000000000000000000000000000000000000000000000000815260040180806020018281038252601b8152602001807f424d3a2077616c6c6574206d75737420626520756e6c6f636b6564000000000081525060200191505060405180910390fd5b82600460009054906101000a900473ffffffffffffffffffffffffffffffffffffffff1673ffffffffffffffffffffffffffffffffffffffff166370a08231866040518263ffffffff1660e01b8152600401808273ffffffffffffffffffffffffffffffffffffffff1673ffffffffffffffffffffffffffffffffffffffff16815260200191505060206040518083038186803b158015612d6c57600080fd5b505afa158015612d80573d6000803e3d6000fd5b505050506040513d6020811015612d9657600080fd5b81019080805190602001909291905050501015612e9357612e9284600460009054906101000a900473ffffffffffffffffffffffffffffffffffffffff1673ffffffffffffffffffffffffffffffffffffffff166370a08231876040518263ffffffff1660e01b8152600401808273ffffffffffffffffffffffffffffffffffffffff1673ffffffffffffffffffffffffffffffffffffffff16815260200191505060206040518083038186803b158015612e5057600080fd5b505afa158015612e64573d6000803e3d6000fd5b505050506040513d6020811015612e7a57600080fd5b810190808051906020019092919050505085036124b1565b5b600660009054906101000a900473ffffffffffffffffffffffffffffffffffffffff1673ffffffffffffffffffffffffffffffffffffffff16639f678cca6040518163ffffffff1660e01b8152600401600060405180830381600087803b158015612efd57600080fd5b505af1158015612f11573d6000803e3d6000fd5b5050505061303d84600460009054906101000a900473ffffffffffffffffffffffffffffffffffffffff16600060405180807f617070726f766528616464726573732c75696e7432353629000000000000000081525060180190506040518091039020600760009054906101000a900473ffffffffffffffffffffffffffffffffffffffff1688604051602401808373ffffffffffffffffffffffffffffffffffffffff1673ffffffffffffffffffffffffffffffffffffffff16815260200182815260200192505050604051602081830303815290604052907bffffffffffffffffffffffffffffffffffffffffffffffffffffffff19166020820180517bffffffffffffffffffffffffffffffffffffffffffffffffffffffff83818316178352505050506141b8565b5061314484600760009054906101000a900473ffffffffffffffffffffffffffffffffffffffff16600060405180807f6a6f696e28616464726573732c75696e74323536290000000000000000000000815250601501905060405180910390208888604051602401808373ffffffffffffffffffffffffffffffffffffffff1673ffffffffffffffffffffffffffffffffffffffff16815260200182815260200192505050604051602081830303815290604052907bffffffffffffffffffffffffffffffffffffffffffffffffffffffff19166020820180517bffffffffffffffffffffffffffffffffffffffffffffffffffffffff83818316178352505050506141b8565b506000600860009054906101000a900473ffffffffffffffffffffffffffffffffffffffff1673ffffffffffffffffffffffffffffffffffffffff16634538c4eb86600660009054906101000a900473ffffffffffffffffffffffffffffffffffffffff166040518363ffffffff1660e01b8152600401808373ffffffffffffffffffffffffffffffffffffffff1673ffffffffffffffffffffffffffffffffffffffff1681526020018273ffffffffffffffffffffffffffffffffffffffff1673ffffffffffffffffffffffffffffffffffffffff1681526020019250505060206040518083038186803b15801561323c57600080fd5b505afa158015613250573d6000803e3d6000fd5b505050506040513d602081101561326657600080fd5b8101908080519060200190929190505050141561339f5761339d84600860009054906101000a900473ffffffffffffffffffffffffffffffffffffffff16600060405180807f686f706528616464726573732900000000000000000000000000000000000000815250600d0190506040518091039020600660009054906101000a900473ffffffffffffffffffffffffffffffffffffffff16604051602401808273ffffffffffffffffffffffffffffffffffffffff1673ffffffffffffffffffffffffffffffffffffffff168152602001915050604051602081830303815290604052907bffffffffffffffffffffffffffffffffffffffffffffffffffffffff19166020820180517bffffffffffffffffffffffffffffffffffffffffffffffffffffffff83818316178352505050506141b8565b505b6000600660009054906101000a900473ffffffffffffffffffffffffffffffffffffffff1673ffffffffffffffffffffffffffffffffffffffff1663c92aecc46040518163ffffffff1660e01b815260040160206040518083038186803b15801561340957600080fd5b505afa15801561341d573d6000803e3d6000fd5b505050506040513d602081101561343357600080fd5b81019080805190602001909291905050506134636b033b2e3c9fd0803ce80000008661417e90919063ffffffff16565b8161346a57fe5b04905061353f85600660009054906101000a900473ffffffffffffffffffffffffffffffffffffffff16600060405180807f6a6f696e2875696e743235362900000000000000000000000000000000000000815250600d01905060405180910390208560405160240180828152602001915050604051602081830303815290604052907bffffffffffffffffffffffffffffffffffffffffffffffffffffffff19166020820180517bffffffffffffffffffffffffffffffffffffffffffffffffffffffff83818316178352505050506141b8565b505050505050565b600460009054906101000a900473ffffffffffffffffffffffffffffffffffffffff1673ffffffffffffffffffffffffffffffffffffffff168273ffffffffffffffffffffffffffffffffffffffff161461360a576040517f08c379a00000000000000000000000000000000000000000000000000000000081526004018080602001828103825260178152602001807f444d3a20746f6b656e2073686f756c642062652044414900000000000000000081525060200191505060405180910390fd5b612710811115613682576040517f08c379a000000000000000000000000000000000000000000000000000000000815260040180806020018281038252601a8152602001807f444d3a20696e76616c6964206672616374696f6e2076616c756500000000000081525060200191505060405180910390fd5b6136b1836127106136a48461369688613c7e565b61417e90919063ffffffff16565b816136ab57fe5b0461096c565b8273ffffffffffffffffffffffffffffffffffffffff167f9aa275f858ea6286ee2cacd32cd2ae55f918a310ee6d0320caad244ee9d6109e8383604051808373ffffffffffffffffffffffffffffffffffffffff1673ffffffffffffffffffffffffffffffffffffffff1681526020018281526020019250505060405180910390a2505050565b60008173ffffffffffffffffffffffffffffffffffffffff166370a08231306040518263ffffffff1660e01b8152600401808273ffffffffffffffffffffffffffffffffffffffff1673ffffffffffffffffffffffffffffffffffffffff16815260200191505060206040518083038186803b1580156137b757600080fd5b505afa1580156137cb573d6000803e3d6000fd5b505050506040513d60208110156137e157600080fd5b810190808051906020019092919050505090508173ffffffffffffffffffffffffffffffffffffffff1663a9059cbb6000809054906101000a900473ffffffffffffffffffffffffffffffffffffffff16836040518363ffffffff1660e01b8152600401808373ffffffffffffffffffffffffffffffffffffffff1673ffffffffffffffffffffffffffffffffffffffff16815260200182815260200192505050602060405180830381600087803b15801561389c57600080fd5b505af11580156138b0573d6000803e3d6000fd5b505050506040513d60208110156138c657600080fd5b8101908080519060200190929190505050505050565b600360009054906101000a900473ffffffffffffffffffffffffffffffffffffffff1681565b6000805a9050600061395e308c60008d8d8080601f016020809104026020016040519081016040528093929190818152602001838380828437600081840152601f19601f820116905080830192505050505050508c8a8a614520565b905061396b8b898361471d565b6139dd576040517f08c379a00000000000000000000000000000000000000000000000000000000081526004018080602001828103825260158152602001807f524d3a204475706c69636174652072657175657374000000000000000000000081525060200191505060405180910390fd5b613a2b8b8b8b8080601f016020809104026020016040519081016040528093929190818152602001838380828437600081840152601f19601f82011690508083019250505050505050614732565b613a80576040517f08c379a000000000000000000000000000000000000000000000000000000000815260040180806020018281038252604a815260200180614b44604a913960600191505060405180910390fd5b6000613ad08c8c8c8080601f016020809104026020016040519081016040528093929190818152602001838380828437600081840152601f19601f820116905080830192505050505050506147ed565b905087879050604182021415613c1e57613aec8c8688846147f9565b15613c1d576000811480613b905750613b8f8c8c8c8080601f016020809104026020016040519081016040528093929190818152602001838380828437600081840152601f19601f82011690508083019250505050505050848b8b8080601f016020809104026020016040519081016040528093929190818152602001838380828437600081840152601f19601f8201169050808301925050505050505061490f565b5b15613c1c573073ffffffffffffffffffffffffffffffffffffffff168b8b6040518083838082843780830192505050925050506000604051808303816000865af19150503d8060008114613c00576040519150601f19603f3d011682016040523d82523d6000602084013e613c05565b606091505b505080945050613c1b8c5a850388888533614935565b5b5b5b8315158c73ffffffffffffffffffffffffffffffffffffffff167f6bb0b384ce772133df63560651bc8c727c53306cec1d51e2cbf8ea35fb8f2ec1846040518082815260200191505060405180910390a350505098975050505050505050565b60006b033b2e3c9fd0803ce8000000613e1b600660009054906101000a900473ffffffffffffffffffffffffffffffffffffffff1673ffffffffffffffffffffffffffffffffffffffff16630bebac86856040518263ffffffff1660e01b8152600401808273ffffffffffffffffffffffffffffffffffffffff1673ffffffffffffffffffffffffffffffffffffffff16815260200191505060206040518083038186803b158015613d2f57600080fd5b505afa158015613d43573d6000803e3d6000fd5b505050506040513d6020811015613d5957600080fd5b8101908080519060200190929190505050600660009054906101000a900473ffffffffffffffffffffffffffffffffffffffff1673ffffffffffffffffffffffffffffffffffffffff1663c92aecc46040518163ffffffff1660e01b815260040160206040518083038186803b158015613dd257600080fd5b505afa158015613de6573d6000803e3d6000fd5b505050506040513d6020811015613dfc57600080fd5b810190808051906020019092919050505061417e90919063ffffffff16565b81613e2257fe5b049050919050565b600460009054906101000a900473ffffffffffffffffffffffffffffffffffffffff1681565b600760009054906101000a900473ffffffffffffffffffffffffffffffffffffffff1681565b60026020528060005260406000206000915090508060000154905081565b600080600460009054906101000a900473ffffffffffffffffffffffffffffffffffffffff1673ffffffffffffffffffffffffffffffffffffffff168373ffffffffffffffffffffffffffffffffffffffff1614613ef3576000613efd565b613efc84613c7e565b5b9150600090509250929050565b600063d490da4d60e01b905090565b600560009054906101000a900473ffffffffffffffffffffffffffffffffffffffff1681565b6000600460009054906101000a900473ffffffffffffffffffffffffffffffffffffffff1673ffffffffffffffffffffffffffffffffffffffff168473ffffffffffffffffffffffffffffffffffffffff1614614004576040517f08c379a00000000000000000000000000000000000000000000000000000000081526004018080602001828103825260178152602001807f444d3a20746f6b656e2073686f756c642062652044414900000000000000000081525060200191505060405180910390fd5b61400e8584612ae8565b8290508473ffffffffffffffffffffffffffffffffffffffff167ff8eece150ed2126815122a6def9737751aecd814379d4ce8c9edd07133a49cdb600460009054906101000a900473ffffffffffffffffffffffffffffffffffffffff168585604051808473ffffffffffffffffffffffffffffffffffffffff1673ffffffffffffffffffffffffffffffffffffffff168152602001838152602001828152602001935050505060405180910390a2949350505050565b60008173ffffffffffffffffffffffffffffffffffffffff168373ffffffffffffffffffffffffffffffffffffffff16638da5cb5b6040518163ffffffff1660e01b815260040160206040518083038186803b15801561412457600080fd5b505afa158015614138573d6000803e3d6000fd5b505050506040513d602081101561414e57600080fd5b810190808051906020019092919050505073ffffffffffffffffffffffffffffffffffffffff1614905092915050565b60008083141561419157600090506141b2565b60008284029050828482816141a257fe5b04146141ad57600080fd5b809150505b92915050565b606060008573ffffffffffffffffffffffffffffffffffffffff16858585604051602401808473ffffffffffffffffffffffffffffffffffffffff1673ffffffffffffffffffffffffffffffffffffffff16815260200183815260200180602001828103825283818151815260200191508051906020019080838360005b83811015614251578082015181840152602081019050614236565b50505050905090810190601f16801561427e5780820380516001836020036101000a031916815260200191505b509450505050506040516020818303038152906040527f8f6f0332000000000000000000000000000000000000000000000000000000007bffffffffffffffffffffffffffffffffffffffffffffffffffffffff19166020820180517bffffffffffffffffffffffffffffffffffffffffffffffffffffffff83818316178352505050506040518082805190602001908083835b602083106143355780518252602082019150602081019050602083039250614312565b6001836020036101000a0380198251168184511680821785525050505050509050019150506000604051808303816000865af19150503d8060008114614397576040519150601f19603f3d011682016040523d82523d6000602084013e61439c565b606091505b5080935081925050508080156143b3575060008251115b1561448f578180602001905160208110156143cd57600080fd5b81019080805160405193929190846401000000008211156143ed57600080fd5b8382019150602082018581111561440357600080fd5b825186600182028301116401000000008211171561442057600080fd5b8083526020830192505050908051906020019080838360005b83811015614454578082015181840152602081019050614439565b50505050905090810190601f1680156144815780820380516001836020036101000a031916815260200191505b506040525050509150614517565b6000825111156144a3573d6000803e3d6000fd5b80614516576040517f08c379a000000000000000000000000000000000000000000000000000000000815260040180806020018281038252601a8152602001807f424d3a2077616c6c657420696e766f6b6520726576657274656400000000000081525060200191505060405180910390fd5b5b50949350505050565b6000601960f81b600060f81b89898989898989604051602001808a7effffffffffffffffffffffffffffffffffffffffffffffffffffffffffffff19167effffffffffffffffffffffffffffffffffffffffffffffffffffffffffffff19168152600101897effffffffffffffffffffffffffffffffffffffffffffffffffffffffffffff19167effffffffffffffffffffffffffffffffffffffffffffffffffffffffffffff191681526001018873ffffffffffffffffffffffffffffffffffffffff1673ffffffffffffffffffffffffffffffffffffffff1660601b81526014018773ffffffffffffffffffffffffffffffffffffffff1673ffffffffffffffffffffffffffffffffffffffff1660601b815260140186815260200185805190602001908083835b6020831061466d578051825260208201915060208101905060208303925061464a565b6001836020036101000a03801982511681845116808217855250505050505090500184815260200183815260200182815260200199505050505050505050506040516020818303038152906040528051906020012060405160200180807f19457468657265756d205369676e6564204d6573736167653a0a333200000000815250601c01828152602001915050604051602081830303815290604052805190602001209050979650505050505050565b6000614729848461499d565b90509392505050565b60006024825110156147ac576040517f08c379a00000000000000000000000000000000000000000000000000000000081526004018080602001828103825260168152602001807f524d3a20496e76616c6964206461746157616c6c65740000000000000000000081525060200191505060405180910390fd5b6000602483015190508373ffffffffffffffffffffffffffffffffffffffff168173ffffffffffffffffffffffffffffffffffffffff161491505092915050565b60006001905092915050565b6000808311801561480a5750600182115b80156148f457508284028573ffffffffffffffffffffffffffffffffffffffff163110806148f35750600015158573ffffffffffffffffffffffffffffffffffffffff1663d6eb1bbf306040518263ffffffff1660e01b8152600401808273ffffffffffffffffffffffffffffffffffffffff1673ffffffffffffffffffffffffffffffffffffffff16815260200191505060206040518083038186803b1580156148b457600080fd5b505afa1580156148c8573d6000803e3d6000fd5b505050506040513d60208110156148de57600080fd5b81019080805190602001909291905050501515145b5b156149025760009050614907565b600190505b949350505050565b60008061491e84846000614a85565b905061492a86826140c5565b915050949350505050565b60008561726c01905060008511801561494e5750600183115b801561495a5750838111155b15614994573a851115614971573a81029050614977565b84810290505b614992878383604051806020016040528060008152506141b8565b505b50505050505050565b6000600260008473ffffffffffffffffffffffffffffffffffffffff1673ffffffffffffffffffffffffffffffffffffffff1681526020019081526020016000206000015482116149f15760009050614a7f565b600060807fffffffffffffffffffffffffffffffff000000000000000000000000000000008416901c90506127104301811115614a32576000915050614a7f565b82600260008673ffffffffffffffffffffffffffffffffffffffff1673ffffffffffffffffffffffffffffffffffffffff1681526020019081526020016000206000018190555060019150505b92915050565b60008060008084604102602001860151915084604102604001860151905060ff85604102604101870151169250601b8360ff161480614ac75750601c8360ff16145b614ad057600080fd5b60018784848460405160008152602001604052604051808581526020018460ff1660ff1681526020018381526020018281526020019450505050506020604051602081039080840390855afa158015614b2d573d6000803e3d6000fd5b505050602060405103519350505050939250505056fe524d3a207468652077616c6c657420617574686f72697a656420697320646966666572656e74207468656e2074686520746172676574206f66207468652072656c617965642064617461424d3a206d75737420626520616e206f776e657220666f72207468652077616c6c6574a265627a7a723158203011d1e45711e8e021b62d03ad4324479af356c800d05e5f199292b5148068d064736f6c63430005100032",
  "source": "// Copyright (C) 2018  Argent Labs Ltd. <https://argent.xyz>\n\n// This program is free software: you can redistribute it and/or modify\n// it under the terms of the GNU General Public License as published by\n// the Free Software Foundation, either version 3 of the License, or\n// (at your option) any later version.\n\n// This program is distributed in the hope that it will be useful,\n// but WITHOUT ANY WARRANTY; without even the implied warranty of\n// MERCHANTABILITY or FITNESS FOR A PARTICULAR PURPOSE.  See the\n// GNU General Public License for more details.\n\n// You should have received a copy of the GNU General Public License\n// along with this program.  If not, see <http://www.gnu.org/licenses/>.\n\npragma solidity ^0.5.4;\n\nimport \"./common/BaseModule.sol\";\nimport \"./common/RelayerModule.sol\";\nimport \"./common/OnlyOwnerModule.sol\";\nimport \"../../lib/utils/SafeMath.sol\";\nimport \"../defi/Invest.sol\";\n\ncontract VatLike {\n    function can(address, address) public view returns (uint);\n    function dai(address) public view returns (uint);\n    function hope(address) public;\n}\n\ncontract JoinLike {\n    function gem() public returns (GemLike);\n    function dai() public returns (GemLike);\n    function join(address, uint) public;\n    function exit(address, uint) public;\n    VatLike public vat;\n}\n\ncontract PotLike {\n    function chi() public view returns (uint);\n    function pie(address) public view returns (uint);\n    function drip() public;\n}\n\ncontract ScdMcdMigration {\n    function swapSaiToDai(uint wad) external;\n    function swapDaiToSai(uint wad) external;\n    JoinLike public saiJoin;\n    JoinLike public wethJoin;\n    JoinLike public daiJoin;\n}\n\ncontract GemLike {\n    function balanceOf(address) public view returns (uint);\n    function transferFrom(address, address, uint) public returns (bool);\n}\n\n/**\n * @title MakerV2Manager\n * @dev Module to convert SAI <-> DAI and lock/unlock MCD DAI into/from Maker's Pot,\n * @author Olivier VDB - <olivier@argent.xyz>\n */\ncontract MakerV2Manager is Invest, BaseModule, RelayerModule, OnlyOwnerModule {\n\n    bytes32 constant NAME = \"MakerV2Manager\";\n\n    // The address of the SAI token\n    GemLike public saiToken;\n    // The address of the (MCD) DAI token\n    GemLike public daiToken;\n    // The address of the SAI <-> DAI migration contract\n    address public scdMcdMigration;\n    // The address of the Pot\n    PotLike public pot;\n    // The address of the Dai Adapter\n    JoinLike public daiJoin;\n    // The address of the Vat\n    VatLike public vat;\n\n    // Method signatures to reduce gas cost at depoyment\n    bytes4 constant internal ERC20_APPROVE = bytes4(keccak256(\"approve(address,uint256)\"));\n    bytes4 constant internal SWAP_SAI_DAI = bytes4(keccak256(\"swapSaiToDai(uint256)\"));\n    bytes4 constant internal SWAP_DAI_SAI = bytes4(keccak256(\"swapDaiToSai(uint256)\"));\n    bytes4 constant internal ADAPTER_JOIN = bytes4(keccak256(\"join(address,uint256)\"));\n    bytes4 constant internal ADAPTER_EXIT = bytes4(keccak256(\"exit(address,uint256)\"));\n    bytes4 constant internal VAT_HOPE = bytes4(keccak256(\"hope(address)\"));\n    bytes4 constant internal POT_JOIN = bytes4(keccak256(\"join(uint256)\"));\n    bytes4 constant internal POT_EXIT = bytes4(keccak256(\"exit(uint256)\"));\n\n    uint256 constant internal RAY = 10 ** 27;\n\n    using SafeMath for uint256;\n\n    // ****************** Events *************************** //\n\n    event TokenConverted(address indexed _wallet, address _srcToken, uint _srcAmount, address _destToken, uint _destAmount);\n\n    // *************** Constructor ********************** //\n\n    constructor(\n        ModuleRegistry _registry,\n        GuardianStorage _guardianStorage,\n        ScdMcdMigration _scdMcdMigration,\n        PotLike _pot\n    )\n        BaseModule(_registry, _guardianStorage, NAME)\n        public\n    {\n        scdMcdMigration = address(_scdMcdMigration);\n        saiToken = _scdMcdMigration.saiJoin().gem();\n        daiJoin = _scdMcdMigration.daiJoin();\n        vat = daiJoin.vat();\n        daiToken = daiJoin.dai();\n        pot = _pot;\n    }\n\n    // *************** External/Public Functions ********************* //\n\n    /* ********************************** Implementation of Invest ************************************* */\n\n    /**\n     * @dev Invest tokens for a given period.\n     * @param _wallet The target wallet.\n     * @param _token The token address.\n     * @param _amount The amount of tokens to invest.\n     * @param _period The period over which the tokens may be locked in the investment (optional).\n     * @return The exact amount of tokens that have been invested.\n     */\n    function addInvestment(\n        BaseWallet _wallet,\n        address _token,\n        uint256 _amount,\n        uint256 _period\n    )\n        external\n        returns (uint256 _invested)\n    {\n        require(_token == address(daiToken), \"DM: token should be DAI\");\n        joinDsr(_wallet, _amount);\n        _invested = _amount;\n        emit InvestmentAdded(address(_wallet), address(daiToken), _amount, _period);\n    }\n\n    /**\n     * @dev Exit invested postions.\n     * @param _wallet The target wallet.\n     * @param _token The token address.\n     * @param _fraction The fraction of invested tokens to exit in per 10000.\n     */\n    function removeInvestment(\n        BaseWallet _wallet,\n        address _token,\n        uint256 _fraction\n    )\n        external\n    {\n        require(_token == address(daiToken), \"DM: token should be DAI\");\n        require(_fraction <= 10000, \"DM: invalid fraction value\");\n        exitDsr(_wallet, dsrBalance(_wallet).mul(_fraction) / 10000);\n        emit InvestmentRemoved(address(_wallet), _token, _fraction);\n    }\n\n    /**\n     * @dev Get the amount of investment in a given token.\n     * @param _wallet The target wallet.\n     * @param _token The token address.\n     * @return The value in tokens of the investment (including interests) and the time at which the investment can be removed.\n     */\n    function getInvestment(\n        BaseWallet _wallet,\n        address _token\n    )\n        external\n        view\n        returns (uint256 _tokenValue, uint256 _periodEnd)\n    {\n        _tokenValue = _token == address(daiToken) ? dsrBalance(_wallet) : 0;\n        _periodEnd = 0;\n    }\n\n    /* ****************************************** DSR wrappers ******************************************* */\n\n    function dsrBalance(BaseWallet _wallet) public view returns (uint256) {\n        return pot.chi().mul(pot.pie(address(_wallet))) / RAY;\n    }\n\n    /**\n    * @dev lets the owner deposit MCD DAI into the DSR Pot.\n    * @param _wallet The target wallet.\n    * @param _amount The amount of DAI to deposit\n    */\n    function joinDsr(\n        BaseWallet _wallet,\n        uint256 _amount\n    )\n        public\n        onlyWalletOwner(_wallet)\n        onlyWhenUnlocked(_wallet)\n    {\n        if (daiToken.balanceOf(address(_wallet)) < _amount) {\n            swapSaiToDai(_wallet, _amount - daiToken.balanceOf(address(_wallet)));\n        }\n\n        // Execute drip to get the chi rate updated to rho == now, otherwise join will fail\n        pot.drip();\n        // Approve DAI adapter to take the DAI amount\n        invokeWallet(address(_wallet), address(daiToken), 0, abi.encodeWithSelector(ERC20_APPROVE, address(daiJoin), _amount));\n        // Join DAI into the vat (_amount of external DAI is burned and the vat transfers _amount of internal DAI from the adapter to the _wallet)\n        invokeWallet(address(_wallet), address(daiJoin), 0, abi.encodeWithSelector(ADAPTER_JOIN, address(_wallet), _amount));\n        // Approve the pot to take out (internal) DAI from the wallet's balance in the vat\n        if (vat.can(address(_wallet), address(pot)) == 0) {\n            invokeWallet(address(_wallet), address(vat), 0, abi.encodeWithSelector(VAT_HOPE, address(pot)));\n        }\n        // Compute the pie value in the pot\n        uint256 pie = _amount.mul(RAY) / pot.chi();\n        // Join the pie value to the pot\n        invokeWallet(address(_wallet), address(pot), 0, abi.encodeWithSelector(POT_JOIN, pie));\n    }\n\n    /**\n    * @dev lets the owner withdraw MCD DAI from the DSR Pot.\n    * @param _wallet The target wallet.\n    * @param _amount The amount of DAI to withdraw\n    */\n    function exitDsr(\n        BaseWallet _wallet,\n        uint256 _amount\n    )\n        public\n        onlyWalletOwner(_wallet)\n        onlyWhenUnlocked(_wallet)\n    {\n        // Execute drip to count the savings accumulated until this moment\n        pot.drip();\n        // Calculates the pie value in the pot equivalent to the DAI wad amount\n        uint256 pie = _amount.mul(RAY) / pot.chi();\n        // Exit DAI from the pot\n        invokeWallet(address(_wallet), address(pot), 0, abi.encodeWithSelector(POT_EXIT, pie));\n        // Allow adapter to access the _wallet's DAI balance in the vat\n        if (vat.can(address(_wallet), address(daiJoin)) == 0) {\n            invokeWallet(address(_wallet), address(vat), 0, abi.encodeWithSelector(VAT_HOPE, address(daiJoin)));\n        }\n        // Check the actual balance of DAI in the vat after the pot exit\n        uint bal = vat.dai(address(_wallet));\n        // It is necessary to check if due to rounding the exact _amount can be exited by the adapter.\n        // Otherwise it will do the maximum DAI balance in the vat\n        uint256 withdrawn = bal >= _amount.mul(RAY) ? _amount : bal / RAY;\n        invokeWallet(address(_wallet), address(daiJoin), 0, abi.encodeWithSelector(ADAPTER_EXIT, address(_wallet), withdrawn));\n    }\n\n    function exitAllDsr(\n        BaseWallet _wallet\n    )\n        external\n        onlyWalletOwner(_wallet)\n        onlyWhenUnlocked(_wallet)\n    {\n        // Execute drip to count the savings accumulated until this moment\n        pot.drip();\n        // Gets the total pie belonging to the _wallet\n        uint256 pie = pot.pie(address(_wallet));\n        // Exit DAI from the pot\n        invokeWallet(address(_wallet), address(pot), 0, abi.encodeWithSelector(POT_EXIT, pie));\n        // Allow adapter to access the _wallet's DAI balance in the vat\n        if (vat.can(address(_wallet), address(daiJoin)) == 0) {\n            invokeWallet(address(_wallet), address(vat), 0, abi.encodeWithSelector(VAT_HOPE, address(daiJoin)));\n        }\n        // Exits the DAI amount corresponding to the value of pie\n        uint256 withdrawn = pot.chi().mul(pie) / RAY;\n        invokeWallet(address(_wallet), address(daiJoin), 0, abi.encodeWithSelector(ADAPTER_EXIT, address(_wallet), withdrawn));\n    }\n\n    /**\n    * @dev lets the owner convert SCD SAI into MCD DAI.\n    * @param _wallet The target wallet.\n    * @param _amount The amount of SAI to convert\n    */\n    function swapSaiToDai(\n        BaseWallet _wallet,\n        uint256 _amount\n    )\n        public\n        onlyWalletOwner(_wallet)\n        onlyWhenUnlocked(_wallet)\n    {\n        require(saiToken.balanceOf(address(_wallet)) >= _amount, \"DM: insufficient SAI\");\n        invokeWallet(address(_wallet), address(saiToken), 0, abi.encodeWithSelector(ERC20_APPROVE, scdMcdMigration, _amount));\n        invokeWallet(address(_wallet), scdMcdMigration, 0, abi.encodeWithSelector(SWAP_SAI_DAI, _amount));\n        emit TokenConverted(address(_wallet), address(saiToken), _amount, address(daiToken), _amount);\n    }\n\n    /**\n    * @dev lets the owner convert MCD DAI into SCD SAI.\n    * @param _wallet The target wallet.\n    * @param _amount The amount of DAI to convert\n    */\n    function swapDaiToSai(\n        BaseWallet _wallet,\n        uint256 _amount\n    )\n        external\n        onlyWalletOwner(_wallet)\n        onlyWhenUnlocked(_wallet)\n    {\n        require(daiToken.balanceOf(address(_wallet)) >= _amount, \"DM: insufficient DAI\");\n        invokeWallet(address(_wallet), address(daiToken), 0, abi.encodeWithSelector(ERC20_APPROVE, scdMcdMigration, _amount));\n        invokeWallet(address(_wallet), scdMcdMigration, 0, abi.encodeWithSelector(SWAP_DAI_SAI, _amount));\n        emit TokenConverted(address(_wallet), address(daiToken), _amount, address(saiToken), _amount);\n    }\n}",
  "sourcePath": "/Users/name/dev/argent-contracts-release-1.5.0/contracts/modules/MakerV2Manager.sol",
  "compiler": {
    "name": "solc",
    "version": "0.5.16+commit.9c3226ce.Emscripten.clang"
  },
  "schemaVersion": "3.0.23",
  "updatedAt": "2020-03-31T19:53:31.375Z",
  "devdoc": {
    "author": "Olivier VDB - <olivier@argent.xyz>",
    "details": "Module to convert SAI <-> DAI and lock/unlock MCD DAI into/from Maker's Pot,",
    "methods": {
      "addInvestment(address,address,uint256,uint256)": {
        "details": "Invest tokens for a given period.",
        "params": {
          "_amount": "The amount of tokens to invest.",
          "_period": "The period over which the tokens may be locked in the investment (optional).",
          "_token": "The token address.",
          "_wallet": "The target wallet."
        },
        "return": "The exact amount of tokens that have been invested."
      },
      "addModule(address,address)": {
        "details": "Adds a module to a wallet. First checks that the module is registered. Unlike its overrided parent, this method can be called via the RelayerModule's execute()",
        "params": {
          "_module": "The modules to authorise.",
          "_wallet": "The target wallet."
        }
      },
      "execute(address,bytes,uint256,bytes,uint256,uint256)": {
        "details": "Executes a relayed transaction.",
        "params": {
          "_data": "The data for the relayed transaction",
          "_gasLimit": "The gas limit to use for the gas refund.",
          "_gasPrice": "The gas price to use for the gas refund.",
          "_nonce": "The nonce used to prevent replay attacks.",
          "_signatures": "The signatures as a concatenated byte array.",
          "_wallet": "The target wallet."
        }
      },
      "exitDsr(address,uint256)": {
        "details": "lets the owner withdraw MCD DAI from the DSR Pot.",
        "params": {
          "_amount": "The amount of DAI to withdraw",
          "_wallet": "The target wallet."
        }
      },
      "getInvestment(address,address)": {
        "details": "Get the amount of investment in a given token.",
        "params": {
          "_token": "The token address.",
          "_wallet": "The target wallet."
        },
        "return": "The value in tokens of the investment (including interests) and the time at which the investment can be removed."
      },
      "getNonce(address)": {
        "details": "Gets the current nonce for a wallet.",
        "params": {
          "_wallet": "The target wallet."
        }
      },
      "init(address)": {
        "details": "Inits the module for a wallet by logging an event. The method can only be called by the wallet itself.",
        "params": {
          "_wallet": "The wallet."
        }
      },
      "isOnlyOwnerModule()": {
        "details": "Returns a constant that indicates that the module is an OnlyOwnerModule.",
        "return": "The constant bytes4(keccak256(\"isOnlyOwnerModule()\"))"
      },
      "joinDsr(address,uint256)": {
        "details": "lets the owner deposit MCD DAI into the DSR Pot.",
        "params": {
          "_amount": "The amount of DAI to deposit",
          "_wallet": "The target wallet."
        }
      },
      "recoverToken(address)": {
        "details": "Utility method enbaling anyone to recover ERC20 token sent to the module by mistake and transfer them to the Module Registry.",
        "params": {
          "_token": "The token to recover."
        }
      },
      "removeInvestment(address,address,uint256)": {
        "details": "Exit invested postions.",
        "params": {
          "_fraction": "The fraction of invested tokens to exit in per 10000.",
          "_token": "The token address.",
          "_wallet": "The target wallet."
        }
      },
      "swapDaiToSai(address,uint256)": {
        "details": "lets the owner convert MCD DAI into SCD SAI.",
        "params": {
          "_amount": "The amount of DAI to convert",
          "_wallet": "The target wallet."
        }
      },
      "swapSaiToDai(address,uint256)": {
        "details": "lets the owner convert SCD SAI into MCD DAI.",
        "params": {
          "_amount": "The amount of SAI to convert",
          "_wallet": "The target wallet."
        }
      }
    },
    "title": "MakerV2Manager"
  },
  "userdoc": {
    "methods": {}
  }
}