{
  "contractName": "MockScdMcdMigration",
  "abi": [
    {
      "inputs": [],
      "payable": false,
      "stateMutability": "nonpayable",
      "type": "constructor"
    },
    {
      "constant": true,
      "inputs": [],
      "name": "daiJoin",
      "outputs": [
        {
          "internalType": "contract JoinLike",
          "name": "",
          "type": "address"
        }
      ],
      "payable": false,
      "stateMutability": "view",
      "type": "function"
    },
    {
      "constant": true,
      "inputs": [],
      "name": "saiJoin",
      "outputs": [
        {
          "internalType": "contract JoinLike",
          "name": "",
          "type": "address"
        }
      ],
      "payable": false,
      "stateMutability": "view",
      "type": "function"
    }
  ],
  "bytecode": "0x608060405234801561001057600080fd5b5060405161001d906100e7565b604051809103906000f080158015610039573d6000803e3d6000fd5b506000806101000a81548173ffffffffffffffffffffffffffffffffffffffff021916908373ffffffffffffffffffffffffffffffffffffffff160217905550604051610085906100e7565b604051809103906000f0801580156100a1573d6000803e3d6000fd5b50600160006101000a81548173ffffffffffffffffffffffffffffffffffffffff021916908373ffffffffffffffffffffffffffffffffffffffff1602179055506100f4565b6101ae8061025283390190565b61014f806101036000396000f3fe608060405234801561001057600080fd5b50600436106100365760003560e01c80630b14408f1461003b578063c11645bc14610085575b600080fd5b6100436100cf565b604051808273ffffffffffffffffffffffffffffffffffffffff1673ffffffffffffffffffffffffffffffffffffffff16815260200191505060405180910390f35b61008d6100f4565b604051808273ffffffffffffffffffffffffffffffffffffffff1673ffffffffffffffffffffffffffffffffffffffff16815260200191505060405180910390f35b6000809054906101000a900473ffffffffffffffffffffffffffffffffffffffff1681565b600160009054906101000a900473ffffffffffffffffffffffffffffffffffffffff168156fea265627a7a723158209aa65e059c4caad182acd4efeb179804274b349ed74b6c453464a04f484aa36b64736f6c63430005100032608060405234801561001057600080fd5b5061018e806100206000396000f3fe608060405234801561001057600080fd5b50600436106100415760003560e01c806336569e77146100465780637bd2bea714610090578063f4b9fa75146100da575b600080fd5b61004e610124565b604051808273ffffffffffffffffffffffffffffffffffffffff1673ffffffffffffffffffffffffffffffffffffffff16815260200191505060405180910390f35b610098610149565b604051808273ffffffffffffffffffffffffffffffffffffffff1673ffffffffffffffffffffffffffffffffffffffff16815260200191505060405180910390f35b6100e2610151565b604051808273ffffffffffffffffffffffffffffffffffffffff1673ffffffffffffffffffffffffffffffffffffffff16815260200191505060405180910390f35b6000809054906101000a900473ffffffffffffffffffffffffffffffffffffffff1681565b600080905090565b60008090509056fea265627a7a7231582096bc5fd59297d019b6951dc76dd3443d3725fe2691b5f7eda32d159f4e16191464736f6c63430005100032",
  "source": "pragma solidity ^0.5.4;\n\ncontract JoinLike {\n    function gem() public returns (GemLike) {\n        return GemLike(address(0));\n    }\n    function dai() public returns (GemLike) {\n        return GemLike(address(0));\n    }\n    VatLike public vat;\n}\n\ncontract VatLike {\n\n}\n\ncontract GemLike {\n\n}\n\n/**\n * @title MockScdMcdMigration\n * @dev Mock contract needed to deploy the MakerV2Manager contract\n */\ncontract MockScdMcdMigration {\n\n    JoinLike public saiJoin;\n    JoinLike public daiJoin;\n\n    constructor () public {\n        saiJoin = new JoinLike();\n        daiJoin = new JoinLike();\n    }\n}",
  "sourcePath": "/Users/name/dev/argent-contracts-release-1.5.0/contracts/test/maker/MockScdMcdMigration.sol",
  "compiler": {
    "name": "solc",
    "version": "0.5.16+commit.9c3226ce.Emscripten.clang"
  },
  "schemaVersion": "3.0.23",
  "updatedAt": "2020-03-31T19:52:06.909Z",
  "devdoc": {
    "details": "Mock contract needed to deploy the MakerV2Manager contract",
    "methods": {},
    "title": "MockScdMcdMigration"
  },
  "userdoc": {
    "methods": {}
  }
}