{
  "contractName": "ModuleRegistry",
  "abi": [
    {
      "anonymous": false,
      "inputs": [
        {
          "indexed": false,
          "internalType": "address",
          "name": "module",
          "type": "address"
        }
      ],
      "name": "ModuleDeRegistered",
      "type": "event"
    },
    {
      "anonymous": false,
      "inputs": [
        {
          "indexed": true,
          "internalType": "address",
          "name": "module",
          "type": "address"
        },
        {
          "indexed": false,
          "internalType": "bytes32",
          "name": "name",
          "type": "bytes32"
        }
      ],
      "name": "ModuleRegistered",
      "type": "event"
    },
    {
      "anonymous": false,
      "inputs": [
        {
          "indexed": true,
          "internalType": "address",
          "name": "_newOwner",
          "type": "address"
        }
      ],
      "name": "OwnerChanged",
      "type": "event"
    },
    {
      "anonymous": false,
      "inputs": [
        {
          "indexed": false,
          "internalType": "address",
          "name": "upgrader",
          "type": "address"
        }
      ],
      "name": "UpgraderDeRegistered",
      "type": "event"
    },
    {
      "anonymous": false,
      "inputs": [
        {
          "indexed": true,
          "internalType": "address",
          "name": "upgrader",
          "type": "address"
        },
        {
          "indexed": false,
          "internalType": "bytes32",
          "name": "name",
          "type": "bytes32"
        }
      ],
      "name": "UpgraderRegistered",
      "type": "event"
    },
    {
      "constant": false,
      "inputs": [
        {
          "internalType": "address",
          "name": "_newOwner",
          "type": "address"
        }
      ],
      "name": "changeOwner",
      "outputs": [],
      "payable": false,
      "stateMutability": "nonpayable",
      "type": "function"
    },
    {
      "constant": true,
      "inputs": [],
      "name": "owner",
      "outputs": [
        {
          "internalType": "address",
          "name": "",
          "type": "address"
        }
      ],
      "payable": false,
      "stateMutability": "view",
      "type": "function"
    },
    {
      "constant": false,
      "inputs": [
        {
          "internalType": "address",
          "name": "_module",
          "type": "address"
        },
        {
          "internalType": "bytes32",
          "name": "_name",
          "type": "bytes32"
        }
      ],
      "name": "registerModule",
      "outputs": [],
      "payable": false,
      "stateMutability": "nonpayable",
      "type": "function"
    },
    {
      "constant": false,
      "inputs": [
        {
          "internalType": "address",
          "name": "_module",
          "type": "address"
        }
      ],
      "name": "deregisterModule",
      "outputs": [],
      "payable": false,
      "stateMutability": "nonpayable",
      "type": "function"
    },
    {
      "constant": false,
      "inputs": [
        {
          "internalType": "address",
          "name": "_upgrader",
          "type": "address"
        },
        {
          "internalType": "bytes32",
          "name": "_name",
          "type": "bytes32"
        }
      ],
      "name": "registerUpgrader",
      "outputs": [],
      "payable": false,
      "stateMutability": "nonpayable",
      "type": "function"
    },
    {
      "constant": false,
      "inputs": [
        {
          "internalType": "address",
          "name": "_upgrader",
          "type": "address"
        }
      ],
      "name": "deregisterUpgrader",
      "outputs": [],
      "payable": false,
      "stateMutability": "nonpayable",
      "type": "function"
    },
    {
      "constant": false,
      "inputs": [
        {
          "internalType": "address",
          "name": "_token",
          "type": "address"
        }
      ],
      "name": "recoverToken",
      "outputs": [],
      "payable": false,
      "stateMutability": "nonpayable",
      "type": "function"
    },
    {
      "constant": true,
      "inputs": [
        {
          "internalType": "address",
          "name": "_module",
          "type": "address"
        }
      ],
      "name": "moduleInfo",
      "outputs": [
        {
          "internalType": "bytes32",
          "name": "",
          "type": "bytes32"
        }
      ],
      "payable": false,
      "stateMutability": "view",
      "type": "function"
    },
    {
      "constant": true,
      "inputs": [
        {
          "internalType": "address",
          "name": "_upgrader",
          "type": "address"
        }
      ],
      "name": "upgraderInfo",
      "outputs": [
        {
          "internalType": "bytes32",
          "name": "",
          "type": "bytes32"
        }
      ],
      "payable": false,
      "stateMutability": "view",
      "type": "function"
    },
    {
      "constant": true,
      "inputs": [
        {
          "internalType": "address",
          "name": "_module",
          "type": "address"
        }
      ],
      "name": "isRegisteredModule",
      "outputs": [
        {
          "internalType": "bool",
          "name": "",
          "type": "bool"
        }
      ],
      "payable": false,
      "stateMutability": "view",
      "type": "function"
    },
    {
      "constant": true,
      "inputs": [
        {
          "internalType": "address[]",
          "name": "_modules",
          "type": "address[]"
        }
      ],
      "name": "isRegisteredModule",
      "outputs": [
        {
          "internalType": "bool",
          "name": "",
          "type": "bool"
        }
      ],
      "payable": false,
      "stateMutability": "view",
      "type": "function"
    },
    {
      "constant": true,
      "inputs": [
        {
          "internalType": "address",
          "name": "_upgrader",
          "type": "address"
        }
      ],
      "name": "isRegisteredUpgrader",
      "outputs": [
        {
          "internalType": "bool",
          "name": "",
          "type": "bool"
        }
      ],
      "payable": false,
      "stateMutability": "view",
      "type": "function"
    }
  ],
  "bytecode": "0x6080604052336000806101000a81548173ffffffffffffffffffffffffffffffffffffffff021916908373ffffffffffffffffffffffffffffffffffffffff160217905550611474806100536000396000f3fe608060405234801561001057600080fd5b50600436106100b45760003560e01c806378b1fa741161007157806378b1fa74146102f65780638b27f7f51461033a5780638da5cb5b1461037e5780639be65a60146103c8578063a6f9dae11461040c578063ce03c0a214610450576100b4565b80630bcd4ebb146100b95780630f0356d0146101155780633f4985cf1461016357806356b97ec1146101b157806363047bd8146102095780636bb18a5414610265575b600080fd5b6100fb600480360360208110156100cf57600080fd5b81019080803573ffffffffffffffffffffffffffffffffffffffff1690602001909291905050506104a8565b604051808215151515815260200191505060405180910390f35b6101616004803603604081101561012b57600080fd5b81019080803573ffffffffffffffffffffffffffffffffffffffff16906020019092919080359060200190929190505050610501565b005b6101af6004803603604081101561017957600080fd5b81019080803573ffffffffffffffffffffffffffffffffffffffff1690602001909291908035906020019092919050505061075c565b005b6101f3600480360360208110156101c757600080fd5b81019080803573ffffffffffffffffffffffffffffffffffffffff1690602001909291905050506109b7565b6040518082815260200191505060405180910390f35b61024b6004803603602081101561021f57600080fd5b81019080803573ffffffffffffffffffffffffffffffffffffffff169060200190929190505050610a03565b604051808215151515815260200191505060405180910390f35b6102dc6004803603602081101561027b57600080fd5b810190808035906020019064010000000081111561029857600080fd5b8201836020820111156102aa57600080fd5b803590602001918460208302840111640100000000831117156102cc57600080fd5b9091929391929390505050610a5c565b604051808215151515815260200191505060405180910390f35b6103386004803603602081101561030c57600080fd5b81019080803573ffffffffffffffffffffffffffffffffffffffff169060200190929190505050610b0e565b005b61037c6004803603602081101561035057600080fd5b81019080803573ffffffffffffffffffffffffffffffffffffffff169060200190929190505050610d56565b005b610386610f9e565b604051808273ffffffffffffffffffffffffffffffffffffffff1673ffffffffffffffffffffffffffffffffffffffff16815260200191505060405180910390f35b61040a600480360360208110156103de57600080fd5b81019080803573ffffffffffffffffffffffffffffffffffffffff169060200190929190505050610fc3565b005b61044e6004803603602081101561042257600080fd5b81019080803573ffffffffffffffffffffffffffffffffffffffff169060200190929190505050611208565b005b6104926004803603602081101561046657600080fd5b81019080803573ffffffffffffffffffffffffffffffffffffffff1690602001909291905050506113f3565b6040518082815260200191505060405180910390f35b6000600160008373ffffffffffffffffffffffffffffffffffffffff1673ffffffffffffffffffffffffffffffffffffffff16815260200190815260200160002060000160009054906101000a900460ff169050919050565b6000809054906101000a900473ffffffffffffffffffffffffffffffffffffffff1673ffffffffffffffffffffffffffffffffffffffff163373ffffffffffffffffffffffffffffffffffffffff16146105c3576040517f08c379a000000000000000000000000000000000000000000000000000000000815260040180806020018281038252600d8152602001807f4d757374206265206f776e65720000000000000000000000000000000000000081525060200191505060405180910390fd5b600160008373ffffffffffffffffffffffffffffffffffffffff1673ffffffffffffffffffffffffffffffffffffffff16815260200190815260200160002060000160009054906101000a900460ff1615610686576040517f08c379a00000000000000000000000000000000000000000000000000000000081526004018080602001828103825260198152602001807f4d523a206d6f64756c6520616c7265616479206578697374730000000000000081525060200191505060405180910390fd5b604051806040016040528060011515815260200182815250600160008473ffffffffffffffffffffffffffffffffffffffff1673ffffffffffffffffffffffffffffffffffffffff16815260200190815260200160002060008201518160000160006101000a81548160ff021916908315150217905550602082015181600101559050508173ffffffffffffffffffffffffffffffffffffffff167f395917e06309940ec7275c89424ecba05a0c7accd8bdd546e6558c6c86c25239826040518082815260200191505060405180910390a25050565b6000809054906101000a900473ffffffffffffffffffffffffffffffffffffffff1673ffffffffffffffffffffffffffffffffffffffff163373ffffffffffffffffffffffffffffffffffffffff161461081e576040517f08c379a000000000000000000000000000000000000000000000000000000000815260040180806020018281038252600d8152602001807f4d757374206265206f776e65720000000000000000000000000000000000000081525060200191505060405180910390fd5b600260008373ffffffffffffffffffffffffffffffffffffffff1673ffffffffffffffffffffffffffffffffffffffff16815260200190815260200160002060000160009054906101000a900460ff16156108e1576040517f08c379a000000000000000000000000000000000000000000000000000000000815260040180806020018281038252601b8152602001807f4d523a20757067726164657220616c726561647920657869737473000000000081525060200191505060405180910390fd5b604051806040016040528060011515815260200182815250600260008473ffffffffffffffffffffffffffffffffffffffff1673ffffffffffffffffffffffffffffffffffffffff16815260200190815260200160002060008201518160000160006101000a81548160ff021916908315150217905550602082015181600101559050508173ffffffffffffffffffffffffffffffffffffffff167fb72a133f42ef268c125f96c7c6e407143f1d2fc5e2854b5f99887ee5da143775826040518082815260200191505060405180910390a25050565b6000600160008373ffffffffffffffffffffffffffffffffffffffff1673ffffffffffffffffffffffffffffffffffffffff168152602001908152602001600020600101549050919050565b6000600260008373ffffffffffffffffffffffffffffffffffffffff1673ffffffffffffffffffffffffffffffffffffffff16815260200190815260200160002060000160009054906101000a900460ff169050919050565b600080600090505b83839050811015610b025760016000858584818110610a7f57fe5b9050602002013573ffffffffffffffffffffffffffffffffffffffff1673ffffffffffffffffffffffffffffffffffffffff1673ffffffffffffffffffffffffffffffffffffffff16815260200190815260200160002060000160009054906101000a900460ff16610af5576000915050610b08565b8080600101915050610a64565b50600190505b92915050565b6000809054906101000a900473ffffffffffffffffffffffffffffffffffffffff1673ffffffffffffffffffffffffffffffffffffffff163373ffffffffffffffffffffffffffffffffffffffff1614610bd0576040517f08c379a000000000000000000000000000000000000000000000000000000000815260040180806020018281038252600d8152602001807f4d757374206265206f776e65720000000000000000000000000000000000000081525060200191505060405180910390fd5b600160008273ffffffffffffffffffffffffffffffffffffffff1673ffffffffffffffffffffffffffffffffffffffff16815260200190815260200160002060000160009054906101000a900460ff16610c92576040517f08c379a00000000000000000000000000000000000000000000000000000000081526004018080602001828103825260198152602001807f4d523a206d6f64756c6520646f6573206e6f742065786973740000000000000081525060200191505060405180910390fd5b600160008273ffffffffffffffffffffffffffffffffffffffff1673ffffffffffffffffffffffffffffffffffffffff168152602001908152602001600020600080820160006101000a81549060ff0219169055600182016000905550507fb292997b2d53de11cc46b82b9a3b1a253cca7aa614fb9b5677cb67d08516f86381604051808273ffffffffffffffffffffffffffffffffffffffff1673ffffffffffffffffffffffffffffffffffffffff16815260200191505060405180910390a150565b6000809054906101000a900473ffffffffffffffffffffffffffffffffffffffff1673ffffffffffffffffffffffffffffffffffffffff163373ffffffffffffffffffffffffffffffffffffffff1614610e18576040517f08c379a000000000000000000000000000000000000000000000000000000000815260040180806020018281038252600d8152602001807f4d757374206265206f776e65720000000000000000000000000000000000000081525060200191505060405180910390fd5b600260008273ffffffffffffffffffffffffffffffffffffffff1673ffffffffffffffffffffffffffffffffffffffff16815260200190815260200160002060000160009054906101000a900460ff16610eda576040517f08c379a000000000000000000000000000000000000000000000000000000000815260040180806020018281038252601b8152602001807f4d523a20757067726164657220646f6573206e6f74206578697374000000000081525060200191505060405180910390fd5b600260008273ffffffffffffffffffffffffffffffffffffffff1673ffffffffffffffffffffffffffffffffffffffff168152602001908152602001600020600080820160006101000a81549060ff0219169055600182016000905550507f58d12929a3008fbe6cd82f81558a511b80afa47fc9fc81f366e094bb681af64d81604051808273ffffffffffffffffffffffffffffffffffffffff1673ffffffffffffffffffffffffffffffffffffffff16815260200191505060405180910390a150565b6000809054906101000a900473ffffffffffffffffffffffffffffffffffffffff1681565b6000809054906101000a900473ffffffffffffffffffffffffffffffffffffffff1673ffffffffffffffffffffffffffffffffffffffff163373ffffffffffffffffffffffffffffffffffffffff1614611085576040517f08c379a000000000000000000000000000000000000000000000000000000000815260040180806020018281038252600d8152602001807f4d757374206265206f776e65720000000000000000000000000000000000000081525060200191505060405180910390fd5b60008173ffffffffffffffffffffffffffffffffffffffff166370a08231306040518263ffffffff1660e01b8152600401808273ffffffffffffffffffffffffffffffffffffffff1673ffffffffffffffffffffffffffffffffffffffff16815260200191505060206040518083038186803b15801561110457600080fd5b505afa158015611118573d6000803e3d6000fd5b505050506040513d602081101561112e57600080fd5b810190808051906020019092919050505090508173ffffffffffffffffffffffffffffffffffffffff1663a9059cbb33836040518363ffffffff1660e01b8152600401808373ffffffffffffffffffffffffffffffffffffffff1673ffffffffffffffffffffffffffffffffffffffff16815260200182815260200192505050602060405180830381600087803b1580156111c857600080fd5b505af11580156111dc573d6000803e3d6000fd5b505050506040513d60208110156111f257600080fd5b8101908080519060200190929190505050505050565b6000809054906101000a900473ffffffffffffffffffffffffffffffffffffffff1673ffffffffffffffffffffffffffffffffffffffff163373ffffffffffffffffffffffffffffffffffffffff16146112ca576040517f08c379a000000000000000000000000000000000000000000000000000000000815260040180806020018281038252600d8152602001807f4d757374206265206f776e65720000000000000000000000000000000000000081525060200191505060405180910390fd5b600073ffffffffffffffffffffffffffffffffffffffff168173ffffffffffffffffffffffffffffffffffffffff16141561136d576040517f08c379a00000000000000000000000000000000000000000000000000000000081526004018080602001828103825260188152602001807f41646472657373206d757374206e6f74206265206e756c6c000000000000000081525060200191505060405180910390fd5b806000806101000a81548173ffffffffffffffffffffffffffffffffffffffff021916908373ffffffffffffffffffffffffffffffffffffffff1602179055508073ffffffffffffffffffffffffffffffffffffffff167fa2ea9883a321a3e97b8266c2b078bfeec6d50c711ed71f874a90d500ae2eaf3660405160405180910390a250565b6000600260008373ffffffffffffffffffffffffffffffffffffffff1673ffffffffffffffffffffffffffffffffffffffff16815260200190815260200160002060010154905091905056fea265627a7a723158202ea7dc4b24dbad5f9fe2b8ecb9db4e39af11d13765993dd8f3d2611ce68b528764736f6c63430005100032",
  "source": "// Copyright (C) 2018  Argent Labs Ltd. <https://argent.xyz>\n\n// This program is free software: you can redistribute it and/or modify\n// it under the terms of the GNU General Public License as published by\n// the Free Software Foundation, either version 3 of the License, or\n// (at your option) any later version.\n\n// This program is distributed in the hope that it will be useful,\n// but WITHOUT ANY WARRANTY; without even the implied warranty of\n// MERCHANTABILITY or FITNESS FOR A PARTICULAR PURPOSE.  See the\n// GNU General Public License for more details.\n\n// You should have received a copy of the GNU General Public License\n// along with this program.  If not, see <http://www.gnu.org/licenses/>.\n\npragma solidity ^0.5.4;\nimport \"../interfaces/Module.sol\";\nimport \"../base/Owned.sol\";\nimport \"../exchange/ERC20.sol\";\n\n/**\n * @title ModuleRegistry\n * @dev Registry of authorised modules.\n * Modules must be registered before they can be authorised on a wallet.\n * @author Julien Niset - <julien@argent.im>\n */\ncontract ModuleRegistry is Owned {\n\n    mapping (address => Info) internal modules;\n    mapping (address => Info) internal upgraders;\n\n    event ModuleRegistered(address indexed module, bytes32 name);\n    event ModuleDeRegistered(address module);\n    event UpgraderRegistered(address indexed upgrader, bytes32 name);\n    event UpgraderDeRegistered(address upgrader);\n\n    struct Info {\n        bool exists;\n        bytes32 name;\n    }\n\n    /**\n     * @dev Registers a module.\n     * @param _module The module.\n     * @param _name The unique name of the module.\n     */\n    function registerModule(address _module, bytes32 _name) external onlyOwner {\n        require(!modules[_module].exists, \"MR: module already exists\");\n        modules[_module] = Info({exists: true, name: _name});\n        emit ModuleRegistered(_module, _name);\n    }\n\n    /**\n     * @dev Deregisters a module.\n     * @param _module The module.\n     */\n    function deregisterModule(address _module) external onlyOwner {\n        require(modules[_module].exists, \"MR: module does not exist\");\n        delete modules[_module];\n        emit ModuleDeRegistered(_module);\n    }\n\n        /**\n     * @dev Registers an upgrader.\n     * @param _upgrader The upgrader.\n     * @param _name The unique name of the upgrader.\n     */\n    function registerUpgrader(address _upgrader, bytes32 _name) external onlyOwner {\n        require(!upgraders[_upgrader].exists, \"MR: upgrader already exists\");\n        upgraders[_upgrader] = Info({exists: true, name: _name});\n        emit UpgraderRegistered(_upgrader, _name);\n    }\n\n    /**\n     * @dev Deregisters an upgrader.\n     * @param _upgrader The _upgrader.\n     */\n    function deregisterUpgrader(address _upgrader) external onlyOwner {\n        require(upgraders[_upgrader].exists, \"MR: upgrader does not exist\");\n        delete upgraders[_upgrader];\n        emit UpgraderDeRegistered(_upgrader);\n    }\n\n    /**\n    * @dev Utility method enbaling the owner of the registry to claim any ERC20 token that was sent to the\n    * registry.\n    * @param _token The token to recover.\n    */\n    function recoverToken(address _token) external onlyOwner {\n        uint total = ERC20(_token).balanceOf(address(this));\n        ERC20(_token).transfer(msg.sender, total);\n    }\n\n    /**\n     * @dev Gets the name of a module from its address.\n     * @param _module The module address.\n     * @return the name.\n     */\n    function moduleInfo(address _module) external view returns (bytes32) {\n        return modules[_module].name;\n    }\n\n    /**\n     * @dev Gets the name of an upgrader from its address.\n     * @param _upgrader The upgrader address.\n     * @return the name.\n     */\n    function upgraderInfo(address _upgrader) external view returns (bytes32) {\n        return upgraders[_upgrader].name;\n    }\n\n    /**\n     * @dev Checks if a module is registered.\n     * @param _module The module address.\n     * @return true if the module is registered.\n     */\n    function isRegisteredModule(address _module) external view returns (bool) {\n        return modules[_module].exists;\n    }\n\n    /**\n     * @dev Checks if a list of modules are registered.\n     * @param _modules The list of modules address.\n     * @return true if all the modules are registered.\n     */\n    function isRegisteredModule(address[] calldata _modules) external view returns (bool) {\n        for (uint i = 0; i < _modules.length; i++) {\n            if (!modules[_modules[i]].exists) {\n                return false;\n            }\n        }\n        return true;\n    }\n\n    /**\n     * @dev Checks if an upgrader is registered.\n     * @param _upgrader The upgrader address.\n     * @return true if the upgrader is registered.\n     */\n    function isRegisteredUpgrader(address _upgrader) external view returns (bool) {\n        return upgraders[_upgrader].exists;\n    }\n}",
  "sourcePath": "/Users/name/dev/argent-contracts-release-1.5.0/contracts/upgrade/ModuleRegistry.sol",
  "compiler": {
    "name": "solc",
    "version": "0.5.16+commit.9c3226ce.Emscripten.clang"
  },
  "schemaVersion": "3.0.23",
  "updatedAt": "2020-03-31T19:53:31.666Z",
  "devdoc": {
    "author": "Julien Niset - <julien@argent.im>",
    "details": "Registry of authorised modules. Modules must be registered before they can be authorised on a wallet.",
    "methods": {
      "changeOwner(address)": {
        "details": "Lets the owner transfer ownership of the contract to a new owner.",
        "params": {
          "_newOwner": "The new owner."
        }
      },
      "deregisterModule(address)": {
        "details": "Deregisters a module.",
        "params": {
          "_module": "The module."
        }
      },
      "deregisterUpgrader(address)": {
        "details": "Deregisters an upgrader.",
        "params": {
          "_upgrader": "The _upgrader."
        }
      },
      "isRegisteredModule(address)": {
        "details": "Checks if a module is registered.",
        "params": {
          "_module": "The module address."
        },
        "return": "true if the module is registered."
      },
      "isRegisteredModule(address[])": {
        "details": "Checks if a list of modules are registered.",
        "params": {
          "_modules": "The list of modules address."
        },
        "return": "true if all the modules are registered."
      },
      "isRegisteredUpgrader(address)": {
        "details": "Checks if an upgrader is registered.",
        "params": {
          "_upgrader": "The upgrader address."
        },
        "return": "true if the upgrader is registered."
      },
      "moduleInfo(address)": {
        "details": "Gets the name of a module from its address.",
        "params": {
          "_module": "The module address."
        },
        "return": "the name."
      },
      "recoverToken(address)": {
        "details": "Utility method enbaling the owner of the registry to claim any ERC20 token that was sent to the registry.",
        "params": {
          "_token": "The token to recover."
        }
      },
      "registerModule(address,bytes32)": {
        "details": "Registers a module.",
        "params": {
          "_module": "The module.",
          "_name": "The unique name of the module."
        }
      },
      "registerUpgrader(address,bytes32)": {
        "details": "Registers an upgrader.",
        "params": {
          "_name": "The unique name of the upgrader.",
          "_upgrader": "The upgrader."
        }
      },
      "upgraderInfo(address)": {
        "details": "Gets the name of an upgrader from its address.",
        "params": {
          "_upgrader": "The upgrader address."
        },
        "return": "the name."
      }
    },
    "title": "ModuleRegistry"
  },
  "userdoc": {
    "methods": {}
  }
}