{
  "contractName": "MultiSigWallet",
  "abi": [
    {
      "inputs": [
        {
          "internalType": "uint256",
          "name": "_threshold",
          "type": "uint256"
        },
        {
          "internalType": "address[]",
          "name": "_owners",
          "type": "address[]"
        }
      ],
      "payable": false,
      "stateMutability": "nonpayable",
      "type": "constructor"
    },
    {
      "anonymous": false,
      "inputs": [
        {
          "indexed": true,
          "internalType": "address",
          "name": "destination",
          "type": "address"
        },
        {
          "indexed": true,
          "internalType": "uint256",
          "name": "value",
          "type": "uint256"
        },
        {
          "indexed": false,
          "internalType": "bytes",
          "name": "data",
          "type": "bytes"
        }
      ],
      "name": "Executed",
      "type": "event"
    },
    {
      "anonymous": false,
      "inputs": [
        {
          "indexed": true,
          "internalType": "address",
          "name": "owner",
          "type": "address"
        }
      ],
      "name": "OwnerAdded",
      "type": "event"
    },
    {
      "anonymous": false,
      "inputs": [
        {
          "indexed": true,
          "internalType": "address",
          "name": "owner",
          "type": "address"
        }
      ],
      "name": "OwnerRemoved",
      "type": "event"
    },
    {
      "anonymous": false,
      "inputs": [
        {
          "indexed": true,
          "internalType": "uint256",
          "name": "value",
          "type": "uint256"
        },
        {
          "indexed": true,
          "internalType": "address",
          "name": "from",
          "type": "address"
        }
      ],
      "name": "Received",
      "type": "event"
    },
    {
      "anonymous": false,
      "inputs": [
        {
          "indexed": true,
          "internalType": "uint256",
          "name": "newThreshold",
          "type": "uint256"
        }
      ],
      "name": "ThresholdChanged",
      "type": "event"
    },
    {
      "payable": true,
      "stateMutability": "payable",
      "type": "fallback"
    },
    {
      "constant": true,
      "inputs": [],
      "name": "MAX_OWNER_COUNT",
      "outputs": [
        {
          "internalType": "uint256",
          "name": "",
          "type": "uint256"
        }
      ],
      "payable": false,
      "stateMutability": "view",
      "type": "function"
    },
    {
      "constant": true,
      "inputs": [
        {
          "internalType": "address",
          "name": "",
          "type": "address"
        }
      ],
      "name": "isOwner",
      "outputs": [
        {
          "internalType": "bool",
          "name": "",
          "type": "bool"
        }
      ],
      "payable": false,
      "stateMutability": "view",
      "type": "function"
    },
    {
      "constant": true,
      "inputs": [],
      "name": "nonce",
      "outputs": [
        {
          "internalType": "uint256",
          "name": "",
          "type": "uint256"
        }
      ],
      "payable": false,
      "stateMutability": "view",
      "type": "function"
    },
    {
      "constant": true,
      "inputs": [],
      "name": "ownersCount",
      "outputs": [
        {
          "internalType": "uint256",
          "name": "",
          "type": "uint256"
        }
      ],
      "payable": false,
      "stateMutability": "view",
      "type": "function"
    },
    {
      "constant": true,
      "inputs": [],
      "name": "threshold",
      "outputs": [
        {
          "internalType": "uint256",
          "name": "",
          "type": "uint256"
        }
      ],
      "payable": false,
      "stateMutability": "view",
      "type": "function"
    },
    {
      "constant": false,
      "inputs": [
        {
          "internalType": "address",
          "name": "_to",
          "type": "address"
        },
        {
          "internalType": "uint256",
          "name": "_value",
          "type": "uint256"
        },
        {
          "internalType": "bytes",
          "name": "_data",
          "type": "bytes"
        },
        {
          "internalType": "bytes",
          "name": "_signatures",
          "type": "bytes"
        }
      ],
      "name": "execute",
      "outputs": [],
      "payable": false,
      "stateMutability": "nonpayable",
      "type": "function"
    },
    {
      "constant": false,
      "inputs": [
        {
          "internalType": "address",
          "name": "_owner",
          "type": "address"
        }
      ],
      "name": "addOwner",
      "outputs": [],
      "payable": false,
      "stateMutability": "nonpayable",
      "type": "function"
    },
    {
      "constant": false,
      "inputs": [
        {
          "internalType": "address",
          "name": "_owner",
          "type": "address"
        }
      ],
      "name": "removeOwner",
      "outputs": [],
      "payable": false,
      "stateMutability": "nonpayable",
      "type": "function"
    },
    {
      "constant": false,
      "inputs": [
        {
          "internalType": "uint256",
          "name": "_newThreshold",
          "type": "uint256"
        }
      ],
      "name": "changeThreshold",
      "outputs": [],
      "payable": false,
      "stateMutability": "nonpayable",
      "type": "function"
    }
  ],
  "bytecode": "0x60806040523480156200001157600080fd5b506040516200155838038062001558833981810160405260408110156200003757600080fd5b8101908080519060200190929190805160405193929190846401000000008211156200006257600080fd5b838201915060208201858111156200007957600080fd5b82518660208202830111640100000000821117156200009757600080fd5b8083526020830192505050908051906020019060200280838360005b83811015620000d0578082015181840152602081019050620000b3565b5050505090500160405250505060008151118015620000f15750600a815111155b62000148576040517f08c379a0000000000000000000000000000000000000000000000000000000008152600401808060200182810382526022815260200180620015366022913960400191505060405180910390fd5b6000821180156200015a575080518211155b620001cd576040517f08c379a00000000000000000000000000000000000000000000000000000000081526004018080602001828103825260168152602001807f4d53573a20496e76616c6964207468726573686f6c640000000000000000000081525060200191505060405180910390fd5b80516002819055508160018190555060008090505b8151811015620002bd57600160036000848481518110620001ff57fe5b602002602001015173ffffffffffffffffffffffffffffffffffffffff1673ffffffffffffffffffffffffffffffffffffffff16815260200190815260200160002060006101000a81548160ff0219169083151502179055508181815181106200026557fe5b602002602001015173ffffffffffffffffffffffffffffffffffffffff167f994a936646fe87ffe4f1e469d3d6aa417d6b855598397f323de5b449f765f0c360405160405180910390a28080600101915050620001e2565b50817f6c4ce60fd690e1216286a10b875c5662555f10774484e58142cedd7a90781baa60405160405180910390a2505061123980620002fd6000396000f3fe6080604052600436106100865760003560e01c80637065cb48116100595780637065cb48146101ec578063affed0e01461023d578063b948854614610268578063d74f8edd14610293578063da0980c7146102be57610086565b8063173825d9146100cc5780632f54bf6e1461011d57806342cde4e814610186578063694e80c3146101b1575b3373ffffffffffffffffffffffffffffffffffffffff16347f8863e458255c600ae3e61be347822f3ee57088c8538b68b5dd2357e682e59e1960405160405180910390a3005b3480156100d857600080fd5b5061011b600480360360208110156100ef57600080fd5b81019080803573ffffffffffffffffffffffffffffffffffffffff169060200190929190505050610447565b005b34801561012957600080fd5b5061016c6004803603602081101561014057600080fd5b81019080803573ffffffffffffffffffffffffffffffffffffffff1690602001909291905050506106b0565b604051808215151515815260200191505060405180910390f35b34801561019257600080fd5b5061019b6106d0565b6040518082815260200191505060405180910390f35b3480156101bd57600080fd5b506101ea600480360360208110156101d457600080fd5b81019080803590602001909291905050506106d6565b005b3480156101f857600080fd5b5061023b6004803603602081101561020f57600080fd5b81019080803573ffffffffffffffffffffffffffffffffffffffff169060200190929190505050610815565b005b34801561024957600080fd5b50610252610a86565b6040518082815260200191505060405180910390f35b34801561027457600080fd5b5061027d610a8c565b6040518082815260200191505060405180910390f35b34801561029f57600080fd5b506102a8610a92565b6040518082815260200191505060405180910390f35b3480156102ca57600080fd5b50610445600480360360808110156102e157600080fd5b81019080803573ffffffffffffffffffffffffffffffffffffffff169060200190929190803590602001909291908035906020019064010000000081111561032857600080fd5b82018360208201111561033a57600080fd5b8035906020019184600183028401116401000000008311171561035c57600080fd5b91908080601f016020809104026020016040519081016040528093929190818152602001838380828437600081840152601f19601f820116905080830192505050505050509192919290803590602001906401000000008111156103bf57600080fd5b8201836020820111156103d157600080fd5b803590602001918460018302840111640100000000831117156103f357600080fd5b91908080601f016020809104026020016040519081016040528093929190818152602001838380828437600081840152601f19601f820116905080830192505050505050509192919290505050610a97565b005b3073ffffffffffffffffffffffffffffffffffffffff163373ffffffffffffffffffffffffffffffffffffffff16146104cb576040517f08c379a00000000000000000000000000000000000000000000000000000000081526004018080602001828103825260228152602001806111e36022913960400191505060405180910390fd5b60015460025411610544576040517f08c379a00000000000000000000000000000000000000000000000000000000081526004018080602001828103825260188152602001807f4d53573a20546f6f20666577206f776e657273206c656674000000000000000081525060200191505060405180910390fd5b60011515600360008373ffffffffffffffffffffffffffffffffffffffff1673ffffffffffffffffffffffffffffffffffffffff16815260200190815260200160002060009054906101000a900460ff1615151461060a576040517f08c379a00000000000000000000000000000000000000000000000000000000081526004018080602001828103825260118152602001807f4d53573a204e6f7420616e206f776e657200000000000000000000000000000081525060200191505060405180910390fd5b6001600260008282540392505081905550600360008273ffffffffffffffffffffffffffffffffffffffff1673ffffffffffffffffffffffffffffffffffffffff16815260200190815260200160002060006101000a81549060ff02191690558073ffffffffffffffffffffffffffffffffffffffff167f58619076adf5bb0943d100ef88d52d7c3fd691b19d3a9071b555b651fbf418da60405160405180910390a250565b60036020528060005260406000206000915054906101000a900460ff1681565b60015481565b3073ffffffffffffffffffffffffffffffffffffffff163373ffffffffffffffffffffffffffffffffffffffff161461075a576040517f08c379a00000000000000000000000000000000000000000000000000000000081526004018080602001828103825260228152602001806111e36022913960400191505060405180910390fd5b60008111801561076c57506002548111155b6107de576040517f08c379a000000000000000000000000000000000000000000000000000000000815260040180806020018281038252601a8152602001807f4d53573a20496e76616c6964206e6577207468726573686f6c6400000000000081525060200191505060405180910390fd5b80600181905550807f6c4ce60fd690e1216286a10b875c5662555f10774484e58142cedd7a90781baa60405160405180910390a250565b3073ffffffffffffffffffffffffffffffffffffffff163373ffffffffffffffffffffffffffffffffffffffff1614610899576040517f08c379a00000000000000000000000000000000000000000000000000000000081526004018080602001828103825260228152602001806111e36022913960400191505060405180910390fd5b600a60025410610911576040517f08c379a000000000000000000000000000000000000000000000000000000000815260040180806020018281038252601c8152602001807f4d53573a204d41585f4f574e45525f434f554e5420726561636865640000000081525060200191505060405180910390fd5b60001515600360008373ffffffffffffffffffffffffffffffffffffffff1673ffffffffffffffffffffffffffffffffffffffff16815260200190815260200160002060009054906101000a900460ff161515146109d7576040517f08c379a00000000000000000000000000000000000000000000000000000000081526004018080602001828103825260128152602001807f4d53573a20416c7265616479206f776e6572000000000000000000000000000081525060200191505060405180910390fd5b60016002600082825401925050819055506001600360008373ffffffffffffffffffffffffffffffffffffffff1673ffffffffffffffffffffffffffffffffffffffff16815260200190815260200160002060006101000a81548160ff0219169083151502179055508073ffffffffffffffffffffffffffffffffffffffff167f994a936646fe87ffe4f1e469d3d6aa417d6b855598397f323de5b449f765f0c360405160405180910390a250565b60005481565b60025481565b600a81565b6000806000806041855181610aa857fe5b049050600154811015610b23576040517f08c379a000000000000000000000000000000000000000000000000000000000815260040180806020018281038252601a8152602001807f4d53573a204e6f7420656e6f756768207369676e61747572657300000000000081525060200191505060405180910390fd5b6000601960f81b600060f81b308b8b8b60005460405160200180887effffffffffffffffffffffffffffffffffffffffffffffffffffffffffffff19167effffffffffffffffffffffffffffffffffffffffffffffffffffffffffffff19168152600101877effffffffffffffffffffffffffffffffffffffffffffffffffffffffffffff19167effffffffffffffffffffffffffffffffffffffffffffffffffffffffffffff191681526001018673ffffffffffffffffffffffffffffffffffffffff1673ffffffffffffffffffffffffffffffffffffffff1660601b81526014018573ffffffffffffffffffffffffffffffffffffffff1673ffffffffffffffffffffffffffffffffffffffff1660601b815260140184815260200183805190602001908083835b60208310610c705780518252602082019150602081019050602083039250610c4d565b6001836020036101000a038019825116818451168082178552505050505050905001828152602001975050505050505050604051602081830303815290604052805190602001209050600160008082825401925050819055506000809050600080905060008090505b848110156110b357610ceb8982611128565b809850819950829a50505050600060018560405160200180807f19457468657265756d205369676e6564204d6573736167653a0a333200000000815250601c01828152602001915050604051602081830303815290604052805190602001208a8a8a60405160008152602001604052604051808581526020018460ff1660ff1681526020018381526020018281526020019450505050506020604051602081039080840390855afa158015610da4573d6000803e3d6000fd5b5050506020604051035190508273ffffffffffffffffffffffffffffffffffffffff168173ffffffffffffffffffffffffffffffffffffffff1611610e51576040517f08c379a000000000000000000000000000000000000000000000000000000000815260040180806020018281038252601d8152602001807f4d53573a204261646c79206f726465726564207369676e61747572657300000081525060200191505060405180910390fd5b809250600360008273ffffffffffffffffffffffffffffffffffffffff1673ffffffffffffffffffffffffffffffffffffffff16815260200190815260200160002060009054906101000a900460ff16156110a55760018401935060015484106110a45760008d73ffffffffffffffffffffffffffffffffffffffff168d8d6040518082805190602001908083835b60208310610f035780518252602082019150602081019050602083039250610ee0565b6001836020036101000a03801982511681845116808217855250505050505090500191505060006040518083038185875af1925050503d8060008114610f65576040519150601f19603f3d011682016040523d82523d6000602084013e610f6a565b606091505b5050905080610fe1576040517f08c379a00000000000000000000000000000000000000000000000000000000081526004018080602001828103825260198152602001807f4d53573a2045787465726e616c2063616c6c206661696c65640000000000000081525060200191505060405180910390fd5b8c8e73ffffffffffffffffffffffffffffffffffffffff167fcaf938de11c367272220bfd1d2baa99ca46665e7bc4d85f00adb51b90fe1fa9f8e6040518080602001828103825283818151815260200191508051906020019080838360005b8381101561105b578082015181840152602081019050611040565b50505050905090810190601f1680156110885780820380516001836020036101000a031916815260200191505b509250505060405180910390a350505050505050505050611122565b5b508080600101915050610cd9565b506040517f08c379a00000000000000000000000000000000000000000000000000000000081526004018080602001828103825260208152602001807f4d53573a204e6f7420656e6f7567682076616c6964207369676e61747572657381525060200191505060405180910390fd5b50505050565b600080600083604102602001850151915083604102604001850151905060ff84604102604101860151169250601b8360ff1614806111695750601c8360ff16145b6111db576040517f08c379a000000000000000000000000000000000000000000000000000000000815260040180806020018281038252600e8152602001807f4d53573a20496e76616c6964207600000000000000000000000000000000000081525060200191505060405180910390fd5b925092509256fe4d53573a2043616c6c696e67206163636f756e74206973206e6f742077616c6c6574a265627a7a723158209fc66324808c68661c1257b03cf9b17f4d1f280719458cae094ce9c1dfab797a64736f6c634300051000324d53573a204e6f7420656e6f756768206f7220746f6f206d616e79206f776e657273",
  "source": "\n\npragma solidity ^0.5.4;\n\n/**\n * @title MultiSig\n * @dev Simple MultiSig using off-chain signing.\n * @author Julien Niset - <julien@argent.xyz>\n */\ncontract MultiSigWallet {\n\n    uint constant public MAX_OWNER_COUNT = 10;\n\n    // Incrementing counter to prevent replay attacks\n    uint256 public nonce;\n    // The threshold\n    uint256 public threshold;\n    // The number of owners\n    uint256 public ownersCount;\n    // Mapping to check if an address is an owner\n    mapping (address => bool) public isOwner;\n\n    // Events\n    event OwnerAdded(address indexed owner);\n    event OwnerRemoved(address indexed owner);\n    event ThresholdChanged(uint256 indexed newThreshold);\n    event Executed(address indexed destination, uint256 indexed value, bytes data);\n    event Received(uint256 indexed value, address indexed from);\n\n    /**\n     * @dev Throws if the calling account is not the multisig.\n     * @dev Mainly used for enforcing the use of internal functions through the \"execute\" function\n     */\n    modifier onlyWallet() {\n        require(msg.sender == address(this), \"MSW: Calling account is not wallet\");\n        _;\n    }\n\n    /**\n     * @dev Constructor.\n     * @param _threshold The threshold of the multisig.\n     * @param _owners The initial set of owners of the multisig.\n     */\n    constructor(uint256 _threshold, address[] memory _owners) public {\n        require(_owners.length > 0 && _owners.length <= MAX_OWNER_COUNT, \"MSW: Not enough or too many owners\");\n        require(_threshold > 0 && _threshold <= _owners.length, \"MSW: Invalid threshold\");\n        ownersCount = _owners.length;\n        threshold = _threshold;\n        for (uint256 i = 0; i < _owners.length; i++) {\n            isOwner[_owners[i]] = true;\n            emit OwnerAdded(_owners[i]);\n        }\n        emit ThresholdChanged(_threshold);\n    }\n\n    /**\n     * @dev Only entry point of the multisig. The method will execute any transaction provided that it\n     * receieved enough signatures from the wallet owners.\n     * @param _to The destination address for the transaction to execute.\n     * @param _value The value parameter for the transaction to execute.\n     * @param _data The data parameter for the transaction to execute.\n     * @param _signatures Concatenated signatures ordered based on increasing signer's address.\n     */\n    function execute(address _to, uint _value, bytes memory _data, bytes memory _signatures) public {\n        uint8 v;\n        bytes32 r;\n        bytes32 s;\n        uint256 count = _signatures.length / 65;\n        require(count >= threshold, \"MSW: Not enough signatures\");\n        bytes32 txHash = keccak256(abi.encodePacked(byte(0x19), byte(0), address(this), _to, _value, _data, nonce));\n        nonce += 1;\n        uint256 valid = 0;\n        address lastSigner = address(0);\n        for (uint256 i = 0; i < count; i++) {\n            (v,r,s) = splitSignature(_signatures, i);\n            address recovered = ecrecover(keccak256(abi.encodePacked(\"\\x19Ethereum Signed Message:\\n32\",txHash)), v, r, s);\n            require(recovered > lastSigner, \"MSW: Badly ordered signatures\"); // make sure signers are different\n            lastSigner = recovered;\n            if (isOwner[recovered]) {\n                valid += 1;\n                if (valid >= threshold) {\n                    // solium-disable-next-line security/no-call-value\n                    (bool success,) = _to.call.value(_value)(_data);\n                    require(success, \"MSW: External call failed\");\n                    emit Executed(_to, _value, _data);\n                    return;\n                }\n            }\n        }\n        // If not enough signatures for threshold, then the transaction is not executed\n        revert(\"MSW: Not enough valid signatures\");\n    }\n\n    /**\n     * @dev Adds an owner to the multisig. This method can only be called by the multisig itself\n     * (i.e. it must go through the execute method and be confirmed by the owners).\n     * @param _owner The address of the new owner.\n     */\n    function addOwner(address _owner) public onlyWallet {\n        require(ownersCount < MAX_OWNER_COUNT, \"MSW: MAX_OWNER_COUNT reached\");\n        require(isOwner[_owner] == false, \"MSW: Already owner\");\n        ownersCount += 1;\n        isOwner[_owner] = true;\n        emit OwnerAdded(_owner);\n    }\n\n    /**\n     * @dev Removes an owner from the multisig. This method can only be called by the multisig itself\n     * (i.e. it must go through the execute method and be confirmed by the owners).\n     * @param _owner The address of the owner to be removed.\n     */\n    function removeOwner(address _owner) public onlyWallet {\n        require(ownersCount > threshold, \"MSW: Too few owners left\");\n        require(isOwner[_owner] == true, \"MSW: Not an owner\");\n        ownersCount -= 1;\n        delete isOwner[_owner];\n        emit OwnerRemoved(_owner);\n    }\n\n    /**\n     * @dev Changes the threshold of the multisig. This method can only be called by the multisig itself\n     * (i.e. it must go through the execute method and be confirmed by the owners).\n     * @param _newThreshold The new threshold.\n     */\n    function changeThreshold(uint256 _newThreshold) public onlyWallet {\n        require(_newThreshold > 0 && _newThreshold <= ownersCount, \"MSW: Invalid new threshold\");\n        threshold = _newThreshold;\n        emit ThresholdChanged(_newThreshold);\n    }\n\n    /**\n     * @dev Parses the signatures and extract (r, s, v) for a signature at a given index.\n     * A signature is {bytes32 r}{bytes32 s}{uint8 v} in compact form where the signatures are concatenated.\n     * @param _signatures concatenated signatures\n     * @param _index which signature to read (0, 1, 2, ...)\n     */\n    function splitSignature(bytes memory _signatures, uint256 _index) internal pure returns (uint8 v, bytes32 r, bytes32 s) {\n        // we jump 32 (0x20) as the first slot of bytes contains the length\n        // we jump 65 (0x41) per signature\n        // for v we load 32 bytes ending with v (the first 31 come from s) tehn apply a mask\n        // solium-disable-next-line security/no-inline-assembly\n        assembly {\n            r := mload(add(_signatures, add(0x20,mul(0x41,_index))))\n            s := mload(add(_signatures, add(0x40,mul(0x41,_index))))\n            v := and(mload(add(_signatures, add(0x41,mul(0x41,_index)))), 0xff)\n        }\n        require(v == 27 || v == 28, \"MSW: Invalid v\");\n    }\n\n    /**\n     * @dev Fallback function to allow the multisig to receive ETH, which will fail if not implemented\n     */\n    function () external payable {\n        emit Received(msg.value, msg.sender);\n    }\n\n}",
  "sourcePath": "/Users/name/dev/argent-contracts-release-1.5.0/contracts/MultiSigWallet.sol",
  "compiler": {
    "name": "solc",
    "version": "0.5.16+commit.9c3226ce.Emscripten.clang"
  },
  "schemaVersion": "3.0.23",
  "updatedAt": "2020-03-31T19:52:06.246Z",
  "devdoc": {
    "author": "Julien Niset - <julien@argent.xyz>",
    "details": "Simple MultiSig using off-chain signing.",
    "methods": {
      "addOwner(address)": {
        "details": "Adds an owner to the multisig. This method can only be called by the multisig itself (i.e. it must go through the execute method and be confirmed by the owners).",
        "params": {
          "_owner": "The address of the new owner."
        }
      },
      "changeThreshold(uint256)": {
        "details": "Changes the threshold of the multisig. This method can only be called by the multisig itself (i.e. it must go through the execute method and be confirmed by the owners).",
        "params": {
          "_newThreshold": "The new threshold."
        }
      },
      "constructor": {
        "details": "Constructor.",
        "params": {
          "_owners": "The initial set of owners of the multisig.",
          "_threshold": "The threshold of the multisig."
        }
      },
      "execute(address,uint256,bytes,bytes)": {
        "details": "Only entry point of the multisig. The method will execute any transaction provided that it receieved enough signatures from the wallet owners.",
        "params": {
          "_data": "The data parameter for the transaction to execute.",
          "_signatures": "Concatenated signatures ordered based on increasing signer's address.",
          "_to": "The destination address for the transaction to execute.",
          "_value": "The value parameter for the transaction to execute."
        }
      },
      "removeOwner(address)": {
        "details": "Removes an owner from the multisig. This method can only be called by the multisig itself (i.e. it must go through the execute method and be confirmed by the owners).",
        "params": {
          "_owner": "The address of the owner to be removed."
        }
      }
    },
    "title": "MultiSig"
  },
  "userdoc": {
    "methods": {}
  }
}