{
  "contractName": "PriceOracleProxy",
  "abi": [
    {
      "inputs": [
        {
          "internalType": "address",
          "name": "comptroller_",
          "type": "address"
        },
        {
          "internalType": "address",
          "name": "v1PriceOracle_",
          "type": "address"
        },
        {
          "internalType": "address",
          "name": "cEtherAddress_",
          "type": "address"
        }
      ],
      "payable": false,
      "stateMutability": "nonpayable",
      "type": "constructor"
    },
    {
      "constant": true,
      "inputs": [],
      "name": "cEtherAddress",
      "outputs": [
        {
          "internalType": "address",
          "name": "",
          "type": "address"
        }
      ],
      "payable": false,
      "stateMutability": "view",
      "type": "function"
    },
    {
      "constant": true,
      "inputs": [],
      "name": "comptroller",
      "outputs": [
        {
          "internalType": "contract Comptroller",
          "name": "",
          "type": "address"
        }
      ],
      "payable": false,
      "stateMutability": "view",
      "type": "function"
    },
    {
      "constant": true,
      "inputs": [],
      "name": "isPriceOracle",
      "outputs": [
        {
          "internalType": "bool",
          "name": "",
          "type": "bool"
        }
      ],
      "payable": false,
      "stateMutability": "view",
      "type": "function"
    },
    {
      "constant": true,
      "inputs": [],
      "name": "v1PriceOracle",
      "outputs": [
        {
          "internalType": "contract V1PriceOracleInterface",
          "name": "",
          "type": "address"
        }
      ],
      "payable": false,
      "stateMutability": "view",
      "type": "function"
    },
    {
      "constant": true,
      "inputs": [
        {
          "internalType": "contract CToken",
          "name": "cToken",
          "type": "address"
        }
      ],
      "name": "getUnderlyingPrice",
      "outputs": [
        {
          "internalType": "uint256",
          "name": "",
          "type": "uint256"
        }
      ],
      "payable": false,
      "stateMutability": "view",
      "type": "function"
    }
  ],
  "bytecode": "0x608060405234801561001057600080fd5b5060405161065a38038061065a8339818101604052606081101561003357600080fd5b8101908080519060200190929190805190602001909291908051906020019092919050505082600160006101000a81548173ffffffffffffffffffffffffffffffffffffffff021916908373ffffffffffffffffffffffffffffffffffffffff160217905550816000806101000a81548173ffffffffffffffffffffffffffffffffffffffff021916908373ffffffffffffffffffffffffffffffffffffffff16021790555080600260006101000a81548173ffffffffffffffffffffffffffffffffffffffff021916908373ffffffffffffffffffffffffffffffffffffffff16021790555050505061052e8061012c6000396000f3fe608060405234801561001057600080fd5b50600436106100575760003560e01c80635fe3b5671461005c57806366331bba146100a6578063de836acf146100c8578063fc57d4df14610112578063fe10c98d1461016a575b600080fd5b6100646101b4565b604051808273ffffffffffffffffffffffffffffffffffffffff1673ffffffffffffffffffffffffffffffffffffffff16815260200191505060405180910390f35b6100ae6101da565b604051808215151515815260200191505060405180910390f35b6100d06101df565b604051808273ffffffffffffffffffffffffffffffffffffffff1673ffffffffffffffffffffffffffffffffffffffff16815260200191505060405180910390f35b6101546004803603602081101561012857600080fd5b81019080803573ffffffffffffffffffffffffffffffffffffffff169060200190929190505050610205565b6040518082815260200191505060405180910390f35b6101726104d4565b604051808273ffffffffffffffffffffffffffffffffffffffff1673ffffffffffffffffffffffffffffffffffffffff16815260200191505060405180910390f35b600160009054906101000a900473ffffffffffffffffffffffffffffffffffffffff1681565b600181565b600260009054906101000a900473ffffffffffffffffffffffffffffffffffffffff1681565b6000808290506000600160009054906101000a900473ffffffffffffffffffffffffffffffffffffffff1673ffffffffffffffffffffffffffffffffffffffff16638e8f294b836040518263ffffffff1660e01b8152600401808273ffffffffffffffffffffffffffffffffffffffff1673ffffffffffffffffffffffffffffffffffffffff168152602001915050604080518083038186803b1580156102ab57600080fd5b505afa1580156102bf573d6000803e3d6000fd5b505050506040513d60408110156102d557600080fd5b81019080805190602001909291908051906020019092919050505050905080610303576000925050506104cf565b600260009054906101000a900473ffffffffffffffffffffffffffffffffffffffff1673ffffffffffffffffffffffffffffffffffffffff168273ffffffffffffffffffffffffffffffffffffffff16141561036b57670de0b6b3a7640000925050506104cf565b60008273ffffffffffffffffffffffffffffffffffffffff16636f307dc36040518163ffffffff1660e01b815260040160206040518083038186803b1580156103b357600080fd5b505afa1580156103c7573d6000803e3d6000fd5b505050506040513d60208110156103dd57600080fd5b810190808051906020019092919050505090506000809054906101000a900473ffffffffffffffffffffffffffffffffffffffff1673ffffffffffffffffffffffffffffffffffffffff16635e9a523c826040518263ffffffff1660e01b8152600401808273ffffffffffffffffffffffffffffffffffffffff1673ffffffffffffffffffffffffffffffffffffffff16815260200191505060206040518083038186803b15801561048e57600080fd5b505afa1580156104a2573d6000803e3d6000fd5b505050506040513d60208110156104b857600080fd5b810190808051906020019092919050505093505050505b919050565b6000809054906101000a900473ffffffffffffffffffffffffffffffffffffffff168156fea265627a7a7231582031620f55bcaec55eb1901c705a5913f4e17cc240f43e0257454e6970e7f6e89c64736f6c63430005100032",
  "source": "pragma solidity ^0.5.4;\n\nimport \"./CErc20.sol\";\nimport \"./CToken.sol\";\nimport \"./PriceOracle.sol\";\nimport \"./Comptroller.sol\";\n\ninterface V1PriceOracleInterface {\n    function assetPrices(address asset) external view returns (uint);\n}\n\ncontract PriceOracleProxy is PriceOracle {\n    /**\n     * @notice The v1 price oracle, which will continue to serve prices\n     * prices for v1 assets\n     */\n    V1PriceOracleInterface public v1PriceOracle;\n\n    /**\n     * @notice The active comptroller, which will be checked for listing status\n     * to short circuit and return 0 for unlisted assets.\n     *\n     * @dev Listed markets are not part of the comptroller interface used by\n     * cTokens, so we assumena an instance of v1 comptroller.sol instead\n     */\n    Comptroller public comptroller;\n\n    /**\n     * @notice address of the cEther contract, which has a constant price\n     */\n    address public cEtherAddress;\n\n    /**\n     * @notice Indicator that this is a PriceOracle contract (for inspection)\n     */\n    bool public constant isPriceOracle = true;\n\n    /**\n     * @param comptroller_ The address of the active comptroller, which will\n     * be consulted for market listing status.\n     * @param v1PriceOracle_ The address of the v1 price oracle, which will\n     * continue to operate and hold prices for collateral assets.\n     * @param cEtherAddress_ The address of the cEther contract, which will\n     * return a constant 1e18, since all prices relative to ether\n     */\n    constructor(address comptroller_, address v1PriceOracle_, address cEtherAddress_) public {\n        comptroller = Comptroller(comptroller_);\n        v1PriceOracle = V1PriceOracleInterface(v1PriceOracle_);\n        cEtherAddress = cEtherAddress_;\n    }\n\n    /**\n     * @notice Get the underlying price of a listed cToken asset\n     * @param cToken The cToken to get the underlying price of\n     * @return The underlying asset price mantissa (scaled by 1e18).\n     *  Zero means the price is unavailable.\n     */\n    function getUnderlyingPrice(CToken cToken) public view returns (uint) {\n        address cTokenAddress = address(cToken);\n        (bool isListed, ) = comptroller.markets(cTokenAddress);\n\n        if (!isListed) {\n            // not listed, worthless\n            return 0;\n        } else if (cTokenAddress == cEtherAddress) {\n            // ether always worth 1\n            return 1e18;\n        } else {\n            // read from v1 oracle\n            address underlying = CErc20(cTokenAddress).underlying();\n            return v1PriceOracle.assetPrices(underlying);\n        }\n    }\n}\n",
  "sourcePath": "/Users/name/dev/argent-contracts-release-1.5.0/contracts/test/compound/PriceOracleProxy.sol",
  "compiler": {
    "name": "solc",
    "version": "0.5.16+commit.9c3226ce.Emscripten.clang"
  },
  "schemaVersion": "3.0.23",
  "updatedAt": "2020-03-31T19:52:06.835Z",
  "devdoc": {
    "methods": {
      "constructor": {
        "params": {
          "cEtherAddress_": "The address of the cEther contract, which will return a constant 1e18, since all prices relative to ether",
          "comptroller_": "The address of the active comptroller, which will be consulted for market listing status.",
          "v1PriceOracle_": "The address of the v1 price oracle, which will continue to operate and hold prices for collateral assets."
        }
      },
      "getUnderlyingPrice(address)": {
        "params": {
          "cToken": "The cToken to get the underlying price of"
        },
        "return": "The underlying asset price mantissa (scaled by 1e18). Zero means the price is unavailable."
      }
    }
  },
  "userdoc": {
    "methods": {
      "getUnderlyingPrice(address)": {
        "notice": "Get the underlying price of a listed cToken asset"
      }
    }
  }
}