{
  "contractName": "RecoveryManager",
  "abi": [
    {
      "inputs": [
        {
          "internalType": "contract ModuleRegistry",
          "name": "_registry",
          "type": "address"
        },
        {
          "internalType": "contract GuardianStorage",
          "name": "_guardianStorage",
          "type": "address"
        },
        {
          "internalType": "uint256",
          "name": "_recoveryPeriod",
          "type": "uint256"
        },
        {
          "internalType": "uint256",
          "name": "_lockPeriod",
          "type": "uint256"
        },
        {
          "internalType": "uint256",
          "name": "_securityPeriod",
          "type": "uint256"
        },
        {
          "internalType": "uint256",
          "name": "_securityWindow",
          "type": "uint256"
        }
      ],
      "payable": false,
      "stateMutability": "nonpayable",
      "type": "constructor"
    },
    {
      "anonymous": false,
      "inputs": [
        {
          "indexed": false,
          "internalType": "bytes32",
          "name": "name",
          "type": "bytes32"
        }
      ],
      "name": "ModuleCreated",
      "type": "event"
    },
    {
      "anonymous": false,
      "inputs": [
        {
          "indexed": false,
          "internalType": "address",
          "name": "wallet",
          "type": "address"
        }
      ],
      "name": "ModuleInitialised",
      "type": "event"
    },
    {
      "anonymous": false,
      "inputs": [
        {
          "indexed": true,
          "internalType": "address",
          "name": "_wallet",
          "type": "address"
        },
        {
          "indexed": true,
          "internalType": "address",
          "name": "_newOwner",
          "type": "address"
        }
      ],
      "name": "OwnershipTransferCanceled",
      "type": "event"
    },
    {
      "anonymous": false,
      "inputs": [
        {
          "indexed": true,
          "internalType": "address",
          "name": "_wallet",
          "type": "address"
        },
        {
          "indexed": true,
          "internalType": "address",
          "name": "_newOwner",
          "type": "address"
        },
        {
          "indexed": false,
          "internalType": "uint64",
          "name": "executeAfter",
          "type": "uint64"
        }
      ],
      "name": "OwnershipTransferExecuted",
      "type": "event"
    },
    {
      "anonymous": false,
      "inputs": [
        {
          "indexed": true,
          "internalType": "address",
          "name": "_wallet",
          "type": "address"
        },
        {
          "indexed": true,
          "internalType": "address",
          "name": "_newOwner",
          "type": "address"
        }
      ],
      "name": "OwnershipTransferFinalized",
      "type": "event"
    },
    {
      "anonymous": false,
      "inputs": [
        {
          "indexed": true,
          "internalType": "address",
          "name": "_wallet",
          "type": "address"
        },
        {
          "indexed": true,
          "internalType": "address",
          "name": "_recovery",
          "type": "address"
        }
      ],
      "name": "RecoveryCanceled",
      "type": "event"
    },
    {
      "anonymous": false,
      "inputs": [
        {
          "indexed": true,
          "internalType": "address",
          "name": "_wallet",
          "type": "address"
        },
        {
          "indexed": true,
          "internalType": "address",
          "name": "_recovery",
          "type": "address"
        },
        {
          "indexed": false,
          "internalType": "uint64",
          "name": "executeAfter",
          "type": "uint64"
        }
      ],
      "name": "RecoveryExecuted",
      "type": "event"
    },
    {
      "anonymous": false,
      "inputs": [
        {
          "indexed": true,
          "internalType": "address",
          "name": "_wallet",
          "type": "address"
        },
        {
          "indexed": true,
          "internalType": "address",
          "name": "_recovery",
          "type": "address"
        }
      ],
      "name": "RecoveryFinalized",
      "type": "event"
    },
    {
      "anonymous": false,
      "inputs": [
        {
          "indexed": true,
          "internalType": "address",
          "name": "wallet",
          "type": "address"
        },
        {
          "indexed": true,
          "internalType": "bool",
          "name": "success",
          "type": "bool"
        },
        {
          "indexed": false,
          "internalType": "bytes32",
          "name": "signedHash",
          "type": "bytes32"
        }
      ],
      "name": "TransactionExecuted",
      "type": "event"
    },
    {
      "constant": false,
      "inputs": [
        {
          "internalType": "contract BaseWallet",
          "name": "_wallet",
          "type": "address"
        },
        {
          "internalType": "contract Module",
          "name": "_module",
          "type": "address"
        }
      ],
      "name": "addModule",
      "outputs": [],
      "payable": false,
      "stateMutability": "nonpayable",
      "type": "function"
    },
    {
      "constant": false,
      "inputs": [
        {
          "internalType": "contract BaseWallet",
          "name": "_wallet",
          "type": "address"
        },
        {
          "internalType": "bytes",
          "name": "_data",
          "type": "bytes"
        },
        {
          "internalType": "uint256",
          "name": "_nonce",
          "type": "uint256"
        },
        {
          "internalType": "bytes",
          "name": "_signatures",
          "type": "bytes"
        },
        {
          "internalType": "uint256",
          "name": "_gasPrice",
          "type": "uint256"
        },
        {
          "internalType": "uint256",
          "name": "_gasLimit",
          "type": "uint256"
        }
      ],
      "name": "execute",
      "outputs": [
        {
          "internalType": "bool",
          "name": "success",
          "type": "bool"
        }
      ],
      "payable": false,
      "stateMutability": "nonpayable",
      "type": "function"
    },
    {
      "constant": true,
      "inputs": [
        {
          "internalType": "contract BaseWallet",
          "name": "_wallet",
          "type": "address"
        }
      ],
      "name": "getNonce",
      "outputs": [
        {
          "internalType": "uint256",
          "name": "nonce",
          "type": "uint256"
        }
      ],
      "payable": false,
      "stateMutability": "view",
      "type": "function"
    },
    {
      "constant": true,
      "inputs": [],
      "name": "guardianStorage",
      "outputs": [
        {
          "internalType": "contract GuardianStorage",
          "name": "",
          "type": "address"
        }
      ],
      "payable": false,
      "stateMutability": "view",
      "type": "function"
    },
    {
      "constant": false,
      "inputs": [
        {
          "internalType": "contract BaseWallet",
          "name": "_wallet",
          "type": "address"
        }
      ],
      "name": "init",
      "outputs": [],
      "payable": false,
      "stateMutability": "nonpayable",
      "type": "function"
    },
    {
      "constant": true,
      "inputs": [],
      "name": "lockPeriod",
      "outputs": [
        {
          "internalType": "uint256",
          "name": "",
          "type": "uint256"
        }
      ],
      "payable": false,
      "stateMutability": "view",
      "type": "function"
    },
    {
      "constant": false,
      "inputs": [
        {
          "internalType": "address",
          "name": "_token",
          "type": "address"
        }
      ],
      "name": "recoverToken",
      "outputs": [],
      "payable": false,
      "stateMutability": "nonpayable",
      "type": "function"
    },
    {
      "constant": true,
      "inputs": [],
      "name": "recoveryPeriod",
      "outputs": [
        {
          "internalType": "uint256",
          "name": "",
          "type": "uint256"
        }
      ],
      "payable": false,
      "stateMutability": "view",
      "type": "function"
    },
    {
      "constant": true,
      "inputs": [
        {
          "internalType": "address",
          "name": "",
          "type": "address"
        }
      ],
      "name": "relayer",
      "outputs": [
        {
          "internalType": "uint256",
          "name": "nonce",
          "type": "uint256"
        }
      ],
      "payable": false,
      "stateMutability": "view",
      "type": "function"
    },
    {
      "constant": true,
      "inputs": [],
      "name": "securityPeriod",
      "outputs": [
        {
          "internalType": "uint256",
          "name": "",
          "type": "uint256"
        }
      ],
      "payable": false,
      "stateMutability": "view",
      "type": "function"
    },
    {
      "constant": true,
      "inputs": [],
      "name": "securityWindow",
      "outputs": [
        {
          "internalType": "uint256",
          "name": "",
          "type": "uint256"
        }
      ],
      "payable": false,
      "stateMutability": "view",
      "type": "function"
    },
    {
      "constant": false,
      "inputs": [
        {
          "internalType": "contract BaseWallet",
          "name": "_wallet",
          "type": "address"
        },
        {
          "internalType": "address",
          "name": "_recovery",
          "type": "address"
        }
      ],
      "name": "executeRecovery",
      "outputs": [],
      "payable": false,
      "stateMutability": "nonpayable",
      "type": "function"
    },
    {
      "constant": false,
      "inputs": [
        {
          "internalType": "contract BaseWallet",
          "name": "_wallet",
          "type": "address"
        }
      ],
      "name": "finalizeRecovery",
      "outputs": [],
      "payable": false,
      "stateMutability": "nonpayable",
      "type": "function"
    },
    {
      "constant": false,
      "inputs": [
        {
          "internalType": "contract BaseWallet",
          "name": "_wallet",
          "type": "address"
        }
      ],
      "name": "cancelRecovery",
      "outputs": [],
      "payable": false,
      "stateMutability": "nonpayable",
      "type": "function"
    },
    {
      "constant": true,
      "inputs": [
        {
          "internalType": "contract BaseWallet",
          "name": "_wallet",
          "type": "address"
        }
      ],
      "name": "getRecovery",
      "outputs": [
        {
          "internalType": "address",
          "name": "_address",
          "type": "address"
        },
        {
          "internalType": "uint64",
          "name": "_executeAfter",
          "type": "uint64"
        },
        {
          "internalType": "uint32",
          "name": "_guardianCount",
          "type": "uint32"
        }
      ],
      "payable": false,
      "stateMutability": "view",
      "type": "function"
    },
    {
      "constant": false,
      "inputs": [
        {
          "internalType": "contract BaseWallet",
          "name": "_wallet",
          "type": "address"
        },
        {
          "internalType": "address",
          "name": "_newOwner",
          "type": "address"
        }
      ],
      "name": "executeOwnershipTransfer",
      "outputs": [],
      "payable": false,
      "stateMutability": "nonpayable",
      "type": "function"
    },
    {
      "constant": false,
      "inputs": [
        {
          "internalType": "contract BaseWallet",
          "name": "_wallet",
          "type": "address"
        }
      ],
      "name": "finalizeOwnershipTransfer",
      "outputs": [],
      "payable": false,
      "stateMutability": "nonpayable",
      "type": "function"
    },
    {
      "constant": false,
      "inputs": [
        {
          "internalType": "contract BaseWallet",
          "name": "_wallet",
          "type": "address"
        }
      ],
      "name": "cancelOwnershipTransfer",
      "outputs": [],
      "payable": false,
      "stateMutability": "nonpayable",
      "type": "function"
    }
  ],
  "bytecode": "0x60806040523480156200001157600080fd5b506040516200442238038062004422833981810160405260c08110156200003757600080fd5b8101908080519060200190929190805190602001909291908051906020019092919080519060200190929190805190602001909291908051906020019092919050505085857f5265636f766572794d616e616765720000000000000000000000000000000000826000806101000a81548173ffffffffffffffffffffffffffffffffffffffff021916908373ffffffffffffffffffffffffffffffffffffffff16021790555081600160006101000a81548173ffffffffffffffffffffffffffffffffffffffff021916908373ffffffffffffffffffffffffffffffffffffffff1602179055507f3019c8fc80239e3dff8f781212ae2004839c2cb61d6c70acd279ac65392145df816040518082815260200191505060405180910390a15050508383101580156200016b57508082018410155b620001de576040517f08c379a000000000000000000000000000000000000000000000000000000000815260040180806020018281038252601d8152602001807f524d3a20696e73656375726520736563757269747920706572696f647300000081525060200191505060405180910390fd5b84600960006101000a81548173ffffffffffffffffffffffffffffffffffffffff021916908373ffffffffffffffffffffffffffffffffffffffff160217905550836005819055508260068190555081600781905550806008819055505050505050506141d180620002516000396000f3fe608060405234801561001057600080fd5b50600436106101155760003560e01c80637b37e561116100a2578063aacaaf8811610071578063aacaaf88146104b8578063b0ba4da0146105dc578063c90db44714610640578063c9b5ef8e14610684578063d89784fc146106dc57610115565b80637b37e561146103605780637cc0d906146103a45780639769c3fe146103c25780639be65a601461047457610115565b80632d0335ab116100e95780632d0335ab146101de578063315a7af3146102365780633fd8b02f1461027a5780635151bc81146102985780635a1db8c4146102fc57610115565b80626fda351461011a57806316c3e22f1461013857806319ab453c146101565780631e75512d1461019a575b600080fd5b610122610726565b6040518082815260200191505060405180910390f35b61014061072c565b6040518082815260200191505060405180910390f35b6101986004803603602081101561016c57600080fd5b81019080803573ffffffffffffffffffffffffffffffffffffffff169060200190929190505050610732565b005b6101dc600480360360208110156101b057600080fd5b81019080803573ffffffffffffffffffffffffffffffffffffffff16906020019092919050505061083b565b005b610220600480360360208110156101f457600080fd5b81019080803573ffffffffffffffffffffffffffffffffffffffff169060200190929190505050610d41565b6040518082815260200191505060405180910390f35b6102786004803603602081101561024c57600080fd5b81019080803573ffffffffffffffffffffffffffffffffffffffff169060200190929190505050610d8d565b005b6102826111a9565b6040518082815260200191505060405180910390f35b6102fa600480360360408110156102ae57600080fd5b81019080803573ffffffffffffffffffffffffffffffffffffffff169060200190929190803573ffffffffffffffffffffffffffffffffffffffff1690602001909291905050506111af565b005b61035e6004803603604081101561031257600080fd5b81019080803573ffffffffffffffffffffffffffffffffffffffff169060200190929190803573ffffffffffffffffffffffffffffffffffffffff169060200190929190505050611624565b005b6103a26004803603602081101561037657600080fd5b81019080803573ffffffffffffffffffffffffffffffffffffffff169060200190929190505050611878565b005b6103ac611c62565b6040518082815260200191505060405180910390f35b610404600480360360208110156103d857600080fd5b81019080803573ffffffffffffffffffffffffffffffffffffffff169060200190929190505050611c68565b604051808473ffffffffffffffffffffffffffffffffffffffff1673ffffffffffffffffffffffffffffffffffffffff1681526020018367ffffffffffffffff1667ffffffffffffffff1681526020018263ffffffff1663ffffffff168152602001935050505060405180910390f35b6104b66004803603602081101561048a57600080fd5b81019080803573ffffffffffffffffffffffffffffffffffffffff169060200190929190505050611d10565b005b6105c2600480360360c08110156104ce57600080fd5b81019080803573ffffffffffffffffffffffffffffffffffffffff1690602001909291908035906020019064010000000081111561050b57600080fd5b82018360208201111561051d57600080fd5b8035906020019184600183028401116401000000008311171561053f57600080fd5b9091929391929390803590602001909291908035906020019064010000000081111561056a57600080fd5b82018360208201111561057c57600080fd5b8035906020019184600183028401116401000000008311171561059e57600080fd5b90919293919293908035906020019092919080359060200190929190505050611eb4565b604051808215151515815260200191505060405180910390f35b61063e600480360360408110156105f257600080fd5b81019080803573ffffffffffffffffffffffffffffffffffffffff169060200190929190803573ffffffffffffffffffffffffffffffffffffffff169060200190929190505050612230565b005b6106826004803603602081101561065657600080fd5b81019080803573ffffffffffffffffffffffffffffffffffffffff16906020019092919050505061271e565b005b6106c66004803603602081101561069a57600080fd5b81019080803573ffffffffffffffffffffffffffffffffffffffff169060200190929190505050612a9c565b6040518082815260200191505060405180910390f35b6106e4612aba565b604051808273ffffffffffffffffffffffffffffffffffffffff1673ffffffffffffffffffffffffffffffffffffffff16815260200191505060405180910390f35b60085481565b60055481565b808073ffffffffffffffffffffffffffffffffffffffff163373ffffffffffffffffffffffffffffffffffffffff16146107d4576040517f08c379a00000000000000000000000000000000000000000000000000000000081526004018080602001828103825260198152602001807f424d3a2063616c6c6572206d7573742062652077616c6c65740000000000000081525060200191505060405180910390fd5b7f9fcca3f73f85397e2bf03647abf243c20b753bd54463ff3cae74de2971c112fa82604051808273ffffffffffffffffffffffffffffffffffffffff1673ffffffffffffffffffffffffffffffffffffffff16815260200191505060405180910390a15050565b80600160009054906101000a900473ffffffffffffffffffffffffffffffffffffffff1673ffffffffffffffffffffffffffffffffffffffff16634a4fbeec826040518263ffffffff1660e01b8152600401808273ffffffffffffffffffffffffffffffffffffffff1673ffffffffffffffffffffffffffffffffffffffff16815260200191505060206040518083038186803b1580156108db57600080fd5b505afa1580156108ef573d6000803e3d6000fd5b505050506040513d602081101561090557600080fd5b810190808051906020019092919050505015610989576040517f08c379a000000000000000000000000000000000000000000000000000000000815260040180806020018281038252601b8152602001807f424d3a2077616c6c6574206d75737420626520756e6c6f636b6564000000000081525060200191505060405180910390fd5b816000600460008373ffffffffffffffffffffffffffffffffffffffff1673ffffffffffffffffffffffffffffffffffffffff16815260200190815260200160002060000160149054906101000a900467ffffffffffffffff1667ffffffffffffffff1611610a43576040517f08c379a000000000000000000000000000000000000000000000000000000000815260040180806020018281038252602f81526020018061416e602f913960400191505060405180910390fd5b6000600460008573ffffffffffffffffffffffffffffffffffffffff1673ffffffffffffffffffffffffffffffffffffffff1681526020019081526020016000209050428160000160149054906101000a900467ffffffffffffffff1667ffffffffffffffff1610610b00576040517f08c379a000000000000000000000000000000000000000000000000000000000815260040180806020018281038252602b815260200180614088602b913960400191505060405180910390fd5b6008548160000160149054906101000a900467ffffffffffffffff1667ffffffffffffffff16014210610b7e576040517f08c379a000000000000000000000000000000000000000000000000000000000815260040180806020018281038252602a8152602001806140fa602a913960400191505060405180910390fd5b8373ffffffffffffffffffffffffffffffffffffffff166313af40358260000160009054906101000a900473ffffffffffffffffffffffffffffffffffffffff166040518263ffffffff1660e01b8152600401808273ffffffffffffffffffffffffffffffffffffffff1673ffffffffffffffffffffffffffffffffffffffff168152602001915050600060405180830381600087803b158015610c2157600080fd5b505af1158015610c35573d6000803e3d6000fd5b505050508060000160009054906101000a900473ffffffffffffffffffffffffffffffffffffffff1673ffffffffffffffffffffffffffffffffffffffff168473ffffffffffffffffffffffffffffffffffffffff167f407822b4c883c6a9c5456acd2a25e25393aaff085c06852c9d874f11a3f21e2a60405160405180910390a3600460008573ffffffffffffffffffffffffffffffffffffffff1673ffffffffffffffffffffffffffffffffffffffff168152602001908152602001600020600080820160006101000a81549073ffffffffffffffffffffffffffffffffffffffff02191690556000820160146101000a81549067ffffffffffffffff0219169055505050505050565b6000600260008373ffffffffffffffffffffffffffffffffffffffff1673ffffffffffffffffffffffffffffffffffffffff168152602001908152602001600020600001549050919050565b806000600360008373ffffffffffffffffffffffffffffffffffffffff1673ffffffffffffffffffffffffffffffffffffffff16815260200190815260200160002060000160149054906101000a900467ffffffffffffffff1667ffffffffffffffff1611610e47576040517f08c379a00000000000000000000000000000000000000000000000000000000081526004018080602001828103825260258152602001806140096025913960400191505060405180910390fd5b6000600360008473ffffffffffffffffffffffffffffffffffffffff1673ffffffffffffffffffffffffffffffffffffffff16815260200190815260200160002090508060000160149054906101000a900467ffffffffffffffff1667ffffffffffffffff164267ffffffffffffffff1611610f0e576040517f08c379a0000000000000000000000000000000000000000000000000000000008152600401808060200182810382526027815260200180613fe26027913960400191505060405180910390fd5b8273ffffffffffffffffffffffffffffffffffffffff166313af40358260000160009054906101000a900473ffffffffffffffffffffffffffffffffffffffff166040518263ffffffff1660e01b8152600401808273ffffffffffffffffffffffffffffffffffffffff1673ffffffffffffffffffffffffffffffffffffffff168152602001915050600060405180830381600087803b158015610fb157600080fd5b505af1158015610fc5573d6000803e3d6000fd5b505050508060000160009054906101000a900473ffffffffffffffffffffffffffffffffffffffff1673ffffffffffffffffffffffffffffffffffffffff168373ffffffffffffffffffffffffffffffffffffffff167fd8667de85dae2d56d76e700d16de53d21ac2ce4d5549cb0bf51c55fdc37f0bc160405160405180910390a3600960009054906101000a900473ffffffffffffffffffffffffffffffffffffffff1673ffffffffffffffffffffffffffffffffffffffff1663b0fc29e68460006040518363ffffffff1660e01b8152600401808373ffffffffffffffffffffffffffffffffffffffff1673ffffffffffffffffffffffffffffffffffffffff16815260200182815260200192505050600060405180830381600087803b1580156110f157600080fd5b505af1158015611105573d6000803e3d6000fd5b50505050600360008473ffffffffffffffffffffffffffffffffffffffff1673ffffffffffffffffffffffffffffffffffffffff168152602001908152602001600020600080820160006101000a81549073ffffffffffffffffffffffffffffffffffffffff02191690556000820160146101000a81549067ffffffffffffffff021916905560008201601c6101000a81549063ffffffff02191690555050505050565b60065481565b813073ffffffffffffffffffffffffffffffffffffffff163373ffffffffffffffffffffffffffffffffffffffff1614806111f057506111ef8133612ae0565b5b611245576040517f08c379a00000000000000000000000000000000000000000000000000000000081526004018080602001828103825260238152602001806140d76023913960400191505060405180910390fd5b82600160009054906101000a900473ffffffffffffffffffffffffffffffffffffffff1673ffffffffffffffffffffffffffffffffffffffff16634a4fbeec826040518263ffffffff1660e01b8152600401808273ffffffffffffffffffffffffffffffffffffffff1673ffffffffffffffffffffffffffffffffffffffff16815260200191505060206040518083038186803b1580156112e557600080fd5b505afa1580156112f9573d6000803e3d6000fd5b505050506040513d602081101561130f57600080fd5b810190808051906020019092919050505015611393576040517f08c379a000000000000000000000000000000000000000000000000000000000815260040180806020018281038252601b8152602001807f424d3a2077616c6c6574206d75737420626520756e6c6f636b6564000000000081525060200191505060405180910390fd5b83600854600460008373ffffffffffffffffffffffffffffffffffffffff1673ffffffffffffffffffffffffffffffffffffffff16815260200190815260200160002060000160149054906101000a900467ffffffffffffffff1667ffffffffffffffff16014211611450576040517f08c379a00000000000000000000000000000000000000000000000000000000081526004018080602001828103825260318152602001806140576031913960400191505060405180910390fd5b600073ffffffffffffffffffffffffffffffffffffffff168473ffffffffffffffffffffffffffffffffffffffff1614156114d6576040517f08c379a00000000000000000000000000000000000000000000000000000000081526004018080602001828103825260248152602001806140b36024913960400191505060405180910390fd5b6000600460008773ffffffffffffffffffffffffffffffffffffffff1673ffffffffffffffffffffffffffffffffffffffff1681526020019081526020016000209050848160000160006101000a81548173ffffffffffffffffffffffffffffffffffffffff021916908373ffffffffffffffffffffffffffffffffffffffff16021790555060075442018160000160146101000a81548167ffffffffffffffff021916908367ffffffffffffffff1602179055508473ffffffffffffffffffffffffffffffffffffffff168673ffffffffffffffffffffffffffffffffffffffff167f5362574b8a4824ed151c38984110312ec176595a8545a4ce184c83ac657c8e218360000160149054906101000a900467ffffffffffffffff16604051808267ffffffffffffffff1667ffffffffffffffff16815260200191505060405180910390a3505050505050565b8161162f8133612ae0565b611684576040517f08c379a000000000000000000000000000000000000000000000000000000000815260040180806020018281038252602e815260200180613fb4602e913960400191505060405180910390fd5b6000809054906101000a900473ffffffffffffffffffffffffffffffffffffffff1673ffffffffffffffffffffffffffffffffffffffff16630bcd4ebb836040518263ffffffff1660e01b8152600401808273ffffffffffffffffffffffffffffffffffffffff1673ffffffffffffffffffffffffffffffffffffffff16815260200191505060206040518083038186803b15801561172257600080fd5b505afa158015611736573d6000803e3d6000fd5b505050506040513d602081101561174c57600080fd5b81019080805190602001909291905050506117cf576040517f08c379a000000000000000000000000000000000000000000000000000000000815260040180806020018281038252601c8152602001807f424d3a206d6f64756c65206973206e6f7420726567697374657265640000000081525060200191505060405180910390fd5b8273ffffffffffffffffffffffffffffffffffffffff16631f17732d8360016040518363ffffffff1660e01b8152600401808373ffffffffffffffffffffffffffffffffffffffff1673ffffffffffffffffffffffffffffffffffffffff1681526020018215151515815260200192505050600060405180830381600087803b15801561185b57600080fd5b505af115801561186f573d6000803e3d6000fd5b50505050505050565b803073ffffffffffffffffffffffffffffffffffffffff163373ffffffffffffffffffffffffffffffffffffffff1614806118b957506118b88133612ae0565b5b61190e576040517f08c379a00000000000000000000000000000000000000000000000000000000081526004018080602001828103825260238152602001806140d76023913960400191505060405180910390fd5b81600160009054906101000a900473ffffffffffffffffffffffffffffffffffffffff1673ffffffffffffffffffffffffffffffffffffffff16634a4fbeec826040518263ffffffff1660e01b8152600401808273ffffffffffffffffffffffffffffffffffffffff1673ffffffffffffffffffffffffffffffffffffffff16815260200191505060206040518083038186803b1580156119ae57600080fd5b505afa1580156119c2573d6000803e3d6000fd5b505050506040513d60208110156119d857600080fd5b810190808051906020019092919050505015611a5c576040517f08c379a000000000000000000000000000000000000000000000000000000000815260040180806020018281038252601b8152602001807f424d3a2077616c6c6574206d75737420626520756e6c6f636b6564000000000081525060200191505060405180910390fd5b826000600460008373ffffffffffffffffffffffffffffffffffffffff1673ffffffffffffffffffffffffffffffffffffffff16815260200190815260200160002060000160149054906101000a900467ffffffffffffffff1667ffffffffffffffff1611611b16576040517f08c379a000000000000000000000000000000000000000000000000000000000815260040180806020018281038252602f81526020018061416e602f913960400191505060405180910390fd5b6000600460008673ffffffffffffffffffffffffffffffffffffffff1673ffffffffffffffffffffffffffffffffffffffff16815260200190815260200160002090508060000160009054906101000a900473ffffffffffffffffffffffffffffffffffffffff1673ffffffffffffffffffffffffffffffffffffffff168573ffffffffffffffffffffffffffffffffffffffff167fe83a760af9d3c86797ea13c8979010086f067cfe3c985b2d03d951248600c50f60405160405180910390a3600460008673ffffffffffffffffffffffffffffffffffffffff1673ffffffffffffffffffffffffffffffffffffffff168152602001908152602001600020600080820160006101000a81549073ffffffffffffffffffffffffffffffffffffffff02191690556000820160146101000a81549067ffffffffffffffff021916905550505050505050565b60075481565b600080600080600360008673ffffffffffffffffffffffffffffffffffffffff1673ffffffffffffffffffffffffffffffffffffffff16815260200190815260200160002090508060000160009054906101000a900473ffffffffffffffffffffffffffffffffffffffff168160000160149054906101000a900467ffffffffffffffff1682600001601c9054906101000a900463ffffffff16935093509350509193909250565b60008173ffffffffffffffffffffffffffffffffffffffff166370a08231306040518263ffffffff1660e01b8152600401808273ffffffffffffffffffffffffffffffffffffffff1673ffffffffffffffffffffffffffffffffffffffff16815260200191505060206040518083038186803b158015611d8f57600080fd5b505afa158015611da3573d6000803e3d6000fd5b505050506040513d6020811015611db957600080fd5b810190808051906020019092919050505090508173ffffffffffffffffffffffffffffffffffffffff1663a9059cbb6000809054906101000a900473ffffffffffffffffffffffffffffffffffffffff16836040518363ffffffff1660e01b8152600401808373ffffffffffffffffffffffffffffffffffffffff1673ffffffffffffffffffffffffffffffffffffffff16815260200182815260200192505050602060405180830381600087803b158015611e7457600080fd5b505af1158015611e88573d6000803e3d6000fd5b505050506040513d6020811015611e9e57600080fd5b8101908080519060200190929190505050505050565b6000805a90506000611f10308c60008d8d8080601f016020809104026020016040519081016040528093929190818152602001838380828437600081840152601f19601f820116905080830192505050505050508c8a8a612b99565b9050611f1d8b8983612d96565b611f8f576040517f08c379a00000000000000000000000000000000000000000000000000000000081526004018080602001828103825260158152602001807f524d3a204475706c69636174652072657175657374000000000000000000000081525060200191505060405180910390fd5b611fdd8b8b8b8080601f016020809104026020016040519081016040528093929190818152602001838380828437600081840152601f19601f82011690508083019250505050505050612e86565b612032576040517f08c379a000000000000000000000000000000000000000000000000000000000815260040180806020018281038252604a815260200180613f48604a913960600191505060405180910390fd5b60006120828c8c8c8080601f016020809104026020016040519081016040528093929190818152602001838380828437600081840152601f19601f82011690508083019250505050505050612f41565b9050878790506041820214156121d05761209e8c8688846133f0565b156121cf57600081148061214257506121418c8c8c8080601f016020809104026020016040519081016040528093929190818152602001838380828437600081840152601f19601f82011690508083019250505050505050848b8b8080601f016020809104026020016040519081016040528093929190818152602001838380828437600081840152601f19601f82011690508083019250505050505050613506565b5b156121ce573073ffffffffffffffffffffffffffffffffffffffff168b8b6040518083838082843780830192505050925050506000604051808303816000865af19150503d80600081146121b2576040519150601f19603f3d011682016040523d82523d6000602084013e6121b7565b606091505b5050809450506121cd8c5a850388888533613765565b5b5b5b8315158c73ffffffffffffffffffffffffffffffffffffffff167f6bb0b384ce772133df63560651bc8c727c53306cec1d51e2cbf8ea35fb8f2ec1846040518082815260200191505060405180910390a350505098975050505050505050565b3073ffffffffffffffffffffffffffffffffffffffff163373ffffffffffffffffffffffffffffffffffffffff16146122d1576040517f08c379a00000000000000000000000000000000000000000000000000000000081526004018080602001828103825260208152602001807f524d3a206d7573742062652063616c6c6564207669612065786563757465282981525060200191505060405180910390fd5b816000600360008373ffffffffffffffffffffffffffffffffffffffff1673ffffffffffffffffffffffffffffffffffffffff16815260200190815260200160002060000160149054906101000a900467ffffffffffffffff1667ffffffffffffffff161461238b576040517f08c379a00000000000000000000000000000000000000000000000000000000081526004018080602001828103825260278152602001806141246027913960400191505060405180910390fd5b600073ffffffffffffffffffffffffffffffffffffffff168273ffffffffffffffffffffffffffffffffffffffff161415612411576040517f08c379a000000000000000000000000000000000000000000000000000000000815260040180806020018281038252602381526020018061414b6023913960400191505060405180910390fd5b6000600360008573ffffffffffffffffffffffffffffffffffffffff1673ffffffffffffffffffffffffffffffffffffffff1681526020019081526020016000209050828160000160006101000a81548173ffffffffffffffffffffffffffffffffffffffff021916908373ffffffffffffffffffffffffffffffffffffffff16021790555060055442018160000160146101000a81548167ffffffffffffffff021916908367ffffffffffffffff160217905550600960009054906101000a900473ffffffffffffffffffffffffffffffffffffffff1673ffffffffffffffffffffffffffffffffffffffff16635040fb76856040518263ffffffff1660e01b8152600401808273ffffffffffffffffffffffffffffffffffffffff1673ffffffffffffffffffffffffffffffffffffffff16815260200191505060206040518083038186803b15801561256557600080fd5b505afa158015612579573d6000803e3d6000fd5b505050506040513d602081101561258f57600080fd5b810190808051906020019092919050505081600001601c6101000a81548163ffffffff021916908363ffffffff160217905550600960009054906101000a900473ffffffffffffffffffffffffffffffffffffffff1673ffffffffffffffffffffffffffffffffffffffff1663b0fc29e68560065442016040518363ffffffff1660e01b8152600401808373ffffffffffffffffffffffffffffffffffffffff1673ffffffffffffffffffffffffffffffffffffffff16815260200182815260200192505050600060405180830381600087803b15801561266f57600080fd5b505af1158015612683573d6000803e3d6000fd5b505050508273ffffffffffffffffffffffffffffffffffffffff168473ffffffffffffffffffffffffffffffffffffffff167f5f59bfd9baba55ae30bb440923cbbe30987d50e12a4e9134ffac3fd9afc3526d8360000160149054906101000a900467ffffffffffffffff16604051808267ffffffffffffffff1667ffffffffffffffff16815260200191505060405180910390a350505050565b3073ffffffffffffffffffffffffffffffffffffffff163373ffffffffffffffffffffffffffffffffffffffff16146127bf576040517f08c379a00000000000000000000000000000000000000000000000000000000081526004018080602001828103825260208152602001807f524d3a206d7573742062652063616c6c6564207669612065786563757465282981525060200191505060405180910390fd5b806000600360008373ffffffffffffffffffffffffffffffffffffffff1673ffffffffffffffffffffffffffffffffffffffff16815260200190815260200160002060000160149054906101000a900467ffffffffffffffff1667ffffffffffffffff1611612879576040517f08c379a00000000000000000000000000000000000000000000000000000000081526004018080602001828103825260258152602001806140096025913960400191505060405180910390fd5b6000600360008473ffffffffffffffffffffffffffffffffffffffff1673ffffffffffffffffffffffffffffffffffffffff16815260200190815260200160002090508060000160009054906101000a900473ffffffffffffffffffffffffffffffffffffffff1673ffffffffffffffffffffffffffffffffffffffff168373ffffffffffffffffffffffffffffffffffffffff167fc45926607303da71dbeffd2ed5c6b00f581982586b697655d19ae4c4d558f25960405160405180910390a3600960009054906101000a900473ffffffffffffffffffffffffffffffffffffffff1673ffffffffffffffffffffffffffffffffffffffff1663b0fc29e68460006040518363ffffffff1660e01b8152600401808373ffffffffffffffffffffffffffffffffffffffff1673ffffffffffffffffffffffffffffffffffffffff16815260200182815260200192505050600060405180830381600087803b1580156129e457600080fd5b505af11580156129f8573d6000803e3d6000fd5b50505050600360008473ffffffffffffffffffffffffffffffffffffffff1673ffffffffffffffffffffffffffffffffffffffff168152602001908152602001600020600080820160006101000a81549073ffffffffffffffffffffffffffffffffffffffff02191690556000820160146101000a81549067ffffffffffffffff021916905560008201601c6101000a81549063ffffffff02191690555050505050565b60026020528060005260406000206000915090508060000154905081565b600960009054906101000a900473ffffffffffffffffffffffffffffffffffffffff1681565b60008173ffffffffffffffffffffffffffffffffffffffff168373ffffffffffffffffffffffffffffffffffffffff16638da5cb5b6040518163ffffffff1660e01b815260040160206040518083038186803b158015612b3f57600080fd5b505afa158015612b53573d6000803e3d6000fd5b505050506040513d6020811015612b6957600080fd5b810190808051906020019092919050505073ffffffffffffffffffffffffffffffffffffffff1614905092915050565b6000601960f81b600060f81b89898989898989604051602001808a7effffffffffffffffffffffffffffffffffffffffffffffffffffffffffffff19167effffffffffffffffffffffffffffffffffffffffffffffffffffffffffffff19168152600101897effffffffffffffffffffffffffffffffffffffffffffffffffffffffffffff19167effffffffffffffffffffffffffffffffffffffffffffffffffffffffffffff191681526001018873ffffffffffffffffffffffffffffffffffffffff1673ffffffffffffffffffffffffffffffffffffffff1660601b81526014018773ffffffffffffffffffffffffffffffffffffffff1673ffffffffffffffffffffffffffffffffffffffff1660601b815260140186815260200185805190602001908083835b60208310612ce65780518252602082019150602081019050602083039250612cc3565b6001836020036101000a03801982511681845116808217855250505050505090500184815260200183815260200182815260200199505050505050505050506040516020818303038152906040528051906020012060405160200180807f19457468657265756d205369676e6564204d6573736167653a0a333200000000815250601c01828152602001915050604051602081830303815290604052805190602001209050979650505050505050565b600060011515600260008673ffffffffffffffffffffffffffffffffffffffff1673ffffffffffffffffffffffffffffffffffffffff168152602001908152602001600020600101600084815260200190815260200160002060009054906101000a900460ff1615151415612e0e5760009050612e7f565b6001600260008673ffffffffffffffffffffffffffffffffffffffff1673ffffffffffffffffffffffffffffffffffffffff168152602001908152602001600020600101600084815260200190815260200160002060006101000a81548160ff021916908315150217905550600190505b9392505050565b6000602482511015612f00576040517f08c379a00000000000000000000000000000000000000000000000000000000081526004018080602001828103825260168152602001807f524d3a20496e76616c6964206461746157616c6c65740000000000000000000081525060200191505060405180910390fd5b6000602483015190508373ffffffffffffffffffffffffffffffffffffffff168173ffffffffffffffffffffffffffffffffffffffff161491505092915050565b600080612f4d836137cd565b905060405180807f657865637574655265636f7665727928616464726573732c6164647265737329815250602001905060405180910390207bffffffffffffffffffffffffffffffffffffffffffffffffffffffff1916817bffffffffffffffffffffffffffffffffffffffffffffffffffffffff191614156130b9576130b16001600960009054906101000a900473ffffffffffffffffffffffffffffffffffffffff1673ffffffffffffffffffffffffffffffffffffffff16635040fb76876040518263ffffffff1660e01b8152600401808273ffffffffffffffffffffffffffffffffffffffff1673ffffffffffffffffffffffffffffffffffffffff16815260200191505060206040518083038186803b15801561306e57600080fd5b505afa158015613082573d6000803e3d6000fd5b505050506040513d602081101561309857600080fd5b8101908080519060200190929190505050016002613853565b9150506133ea565b60405180807f66696e616c697a655265636f7665727928616464726573732900000000000000815250601901905060405180910390207bffffffffffffffffffffffffffffffffffffffffffffffffffffffff1916817bffffffffffffffffffffffffffffffffffffffffffffffffffffffff1916141561313e5760009150506133ea565b60405180807f63616e63656c5265636f76657279286164647265737329000000000000000000815250601701905060405180910390207bffffffffffffffffffffffffffffffffffffffffffffffffffffffff1916817bffffffffffffffffffffffffffffffffffffffffffffffffffffffff191614156132275761321f6001600360008773ffffffffffffffffffffffffffffffffffffffff1673ffffffffffffffffffffffffffffffffffffffff168152602001908152602001600020600001601c9054906101000a900463ffffffff160163ffffffff166002613853565b9150506133ea565b604051808061402e60299139602901905060405180910390207bffffffffffffffffffffffffffffffffffffffffffffffffffffffff1916817bffffffffffffffffffffffffffffffffffffffffffffffffffffffff1916141561328f5760019150506133ea565b6040518080613f9260229139602201905060405180910390207bffffffffffffffffffffffffffffffffffffffffffffffffffffffff1916817bffffffffffffffffffffffffffffffffffffffffffffffffffffffff191614156132f75760009150506133ea565b60405180807f63616e63656c4f776e6572736869705472616e73666572286164647265737329815250602001905060405180910390207bffffffffffffffffffffffffffffffffffffffffffffffffffffffff1916817bffffffffffffffffffffffffffffffffffffffffffffffffffffffff1916141561337c5760019150506133ea565b6040517f08c379a00000000000000000000000000000000000000000000000000000000081526004018080602001828103825260138152602001807f524d3a20756e6b6e6f776e20206d6574686f640000000000000000000000000081525060200191505060405180910390fd5b92915050565b600080831180156134015750600182115b80156134eb57508284028573ffffffffffffffffffffffffffffffffffffffff163110806134ea5750600015158573ffffffffffffffffffffffffffffffffffffffff1663d6eb1bbf306040518263ffffffff1660e01b8152600401808273ffffffffffffffffffffffffffffffffffffffff1673ffffffffffffffffffffffffffffffffffffffff16815260200191505060206040518083038186803b1580156134ab57600080fd5b505afa1580156134bf573d6000803e3d6000fd5b505050506040513d60208110156134d557600080fd5b81019080805190602001909291905050501515145b5b156134f957600090506134fe565b600190505b949350505050565b600080600090506060600960009054906101000a900473ffffffffffffffffffffffffffffffffffffffff1673ffffffffffffffffffffffffffffffffffffffff1663f18858ab886040518263ffffffff1660e01b8152600401808273ffffffffffffffffffffffffffffffffffffffff1673ffffffffffffffffffffffffffffffffffffffff16815260200191505060006040518083038186803b1580156135ae57600080fd5b505afa1580156135c2573d6000803e3d6000fd5b505050506040513d6000823e3d601f19601f8201168201806040525060208110156135ec57600080fd5b810190808051604051939291908464010000000082111561360c57600080fd5b8382019150602082018581111561362257600080fd5b825186602082028301116401000000008211171561363f57600080fd5b8083526020830192505050908051906020019060200280838360005b8381101561367657808201518184015260208101905061365b565b505050509050016040525050509050600080905060008090505b604186518161369b57fe5b048160ff1610156137545760006136b688888460ff1661388b565b905060008260ff161480156136d157506136d08a82612ae0565b5b156136dc5750613747565b8473ffffffffffffffffffffffffffffffffffffffff168173ffffffffffffffffffffffffffffffffffffffff161161371d5760009550505050505061375d565b80945061372a8482613949565b8095508194505050826137455760009550505050505061375d565b505b8080600101915050613690565b50600193505050505b949350505050565b60008561726c01905060008511801561377e5750600183115b801561378a5750838111155b156137c4573a8511156137a1573a810290506137a7565b84810290505b6137c287838360405180602001604052806000815250613b2b565b505b50505050505050565b6000600482511015613847576040517f08c379a000000000000000000000000000000000000000000000000000000000815260040180806020018281038252601a8152602001807f524d3a20496e76616c69642066756e6374696f6e50726566697800000000000081525060200191505060405180910390fd5b60208201519050919050565b60008082848161385f57fe5b049050600083858161386d57fe5b06141561387d5780915050613885565b600181019150505b92915050565b60008060008084604102602001860151915084604102604001860151905060ff85604102604101870151169250601b8360ff1614806138cd5750601c8360ff16145b6138d657600080fd5b60018784848460405160008152602001604052604051808581526020018460ff1660ff1681526020018381526020018281526020019450505050506020604051602081039080840390855afa158015613933573d6000803e3d6000fd5b5050506020604051035193505050509392505050565b600060606000845114806139895750600073ffffffffffffffffffffffffffffffffffffffff168373ffffffffffffffffffffffffffffffffffffffff16145b1561399a5760008491509150613b24565b6000809050606060018651036040519080825280602002602001820160405280156139d45781602001602082028038833980820191505090505b509050600080905060008090505b8751811015613b0a5783613a90578781815181106139fc57fe5b602002602001015173ffffffffffffffffffffffffffffffffffffffff168773ffffffffffffffffffffffffffffffffffffffff161415613a405760019350613afd565b613a5c888281518110613a4f57fe5b6020026020010151613e93565b8015613a815750613a80888281518110613a7257fe5b602002602001015188613eac565b5b15613a8f5760019350613afd565b5b8251821015613afc57878181518110613aa557fe5b6020026020010151838381518110613ab957fe5b602002602001019073ffffffffffffffffffffffffffffffffffffffff16908173ffffffffffffffffffffffffffffffffffffffff168152505081806001019250505b5b80806001019150506139e2565b5082613b1857600087613b1c565b6001825b945094505050505b9250929050565b606060008573ffffffffffffffffffffffffffffffffffffffff16858585604051602401808473ffffffffffffffffffffffffffffffffffffffff1673ffffffffffffffffffffffffffffffffffffffff16815260200183815260200180602001828103825283818151815260200191508051906020019080838360005b83811015613bc4578082015181840152602081019050613ba9565b50505050905090810190601f168015613bf15780820380516001836020036101000a031916815260200191505b509450505050506040516020818303038152906040527f8f6f0332000000000000000000000000000000000000000000000000000000007bffffffffffffffffffffffffffffffffffffffffffffffffffffffff19166020820180517bffffffffffffffffffffffffffffffffffffffffffffffffffffffff83818316178352505050506040518082805190602001908083835b60208310613ca85780518252602082019150602081019050602083039250613c85565b6001836020036101000a0380198251168184511680821785525050505050509050019150506000604051808303816000865af19150503d8060008114613d0a576040519150601f19603f3d011682016040523d82523d6000602084013e613d0f565b606091505b508093508192505050808015613d26575060008251115b15613e0257818060200190516020811015613d4057600080fd5b8101908080516040519392919084640100000000821115613d6057600080fd5b83820191506020820185811115613d7657600080fd5b8251866001820283011164010000000082111715613d9357600080fd5b8083526020830192505050908051906020019080838360005b83811015613dc7578082015181840152602081019050613dac565b50505050905090810190601f168015613df45780820380516001836020036101000a031916815260200191505b506040525050509150613e8a565b600082511115613e16573d6000803e3d6000fd5b80613e89576040517f08c379a000000000000000000000000000000000000000000000000000000000815260040180806020018281038252601a8152602001807f424d3a2077616c6c657420696e766f6b6520726576657274656400000000000081525060200191505060405180910390fd5b5b50949350505050565b600080823b905060008163ffffffff1611915050919050565b60008060009050600060405180807f6f776e657228290000000000000000000000000000000000000000000000000081525060070190506040518091039020905060405181815260208160208389611388fa6001811415613f0c57815193505b50508373ffffffffffffffffffffffffffffffffffffffff168273ffffffffffffffffffffffffffffffffffffffff1614925050509291505056fe524d3a207468652077616c6c657420617574686f72697a656420697320646966666572656e74207468656e2074686520746172676574206f66207468652072656c61796564206461746166696e616c697a654f776e6572736869705472616e73666572286164647265737329424d3a206d73672e73656e646572206d75737420626520616e206f776e657220666f72207468652077616c6c6574524d3a20746865207265636f7665727920706572696f64206973206e6f74206f76657220796574524d3a207468657265206d75737420626520616e206f6e676f696e67207265636f76657279657865637574654f776e6572736869705472616e7366657228616464726573732c6164647265737329524d3a2074686572652063616e6e6f7420626520616e206f6e676f696e67206f776e657273686970207472616e73666572524d3a20546f6f206561726c7920746f20636f6e6669726d206f776e657273686970207472616e73666572524d3a206e6577206f776e657220616464726573732063616e6e6f74206265206e756c6c424d3a206d75737420626520616e206f776e657220666f72207468652077616c6c6574524d3a20546f6f206c61746520746f20636f6e6669726d206f776e657273686970207472616e73666572524d3a2074686572652063616e6e6f7420626520616e206f6e676f696e67207265636f76657279524d3a207265636f7665727920616464726573732063616e6e6f74206265206e756c6c524d3a207468657265206d75737420626520616e206f6e676f696e67206f776e657273686970207472616e73666572a265627a7a723158201bc3a95e9bf367012b1a20835327e57a3f5580ea02e624a4b876b90b0b12e29a64736f6c63430005100032",
  "source": "// Copyright (C) 2018  Argent Labs Ltd. <https://argent.xyz>\n\n// This program is free software: you can redistribute it and/or modify\n// it under the terms of the GNU General Public License as published by\n// the Free Software Foundation, either version 3 of the License, or\n// (at your option) any later version.\n\n// This program is distributed in the hope that it will be useful,\n// but WITHOUT ANY WARRANTY; without even the implied warranty of\n// MERCHANTABILITY or FITNESS FOR A PARTICULAR PURPOSE.  See the\n// GNU General Public License for more details.\n\n// You should have received a copy of the GNU General Public License\n// along with this program.  If not, see <http://www.gnu.org/licenses/>.\n\npragma solidity ^0.5.4;\nimport \"../wallet/BaseWallet.sol\";\nimport \"./common/BaseModule.sol\";\nimport \"./common/RelayerModule.sol\";\nimport \"../storage/GuardianStorage.sol\";\nimport \"../../lib/utils/SafeMath.sol\";\nimport \"../utils/GuardianUtils.sol\";\n\n/**\n * @title RecoveryManager\n * @dev Module to manage the recovery of a wallet owner.\n * Recovery is executed by a consensus of the wallet's guardians and takes\n * 24 hours before it can be finalized. Once finalised the ownership of the wallet\n * is transfered to a new address.\n * @author Julien Niset - <julien@argent.im>\n * @author Olivier Van Den Biggelaar - <olivier@argent.im>\n */\ncontract RecoveryManager is BaseModule, RelayerModule {\n\n    bytes32 constant NAME = \"RecoveryManager\";\n\n    bytes4 constant internal EXECUTE_RECOVERY_PREFIX = bytes4(keccak256(\"executeRecovery(address,address)\"));\n    bytes4 constant internal FINALIZE_RECOVERY_PREFIX = bytes4(keccak256(\"finalizeRecovery(address)\"));\n    bytes4 constant internal CANCEL_RECOVERY_PREFIX = bytes4(keccak256(\"cancelRecovery(address)\"));\n    bytes4 constant internal EXECUTE_OWNERSHIP_TRANSFER_PREFIX = bytes4(keccak256(\"executeOwnershipTransfer(address,address)\"));\n    bytes4 constant internal FINALIZE_OWNERSHIP_TRANSFER_PREFIX = bytes4(keccak256(\"finalizeOwnershipTransfer(address)\"));\n    bytes4 constant internal CANCEL_OWNERSHIP_TRANSFER_PREFIX = bytes4(keccak256(\"cancelOwnershipTransfer(address)\"));\n\n    struct RecoveryConfig {\n        address recovery;\n        uint64 executeAfter;\n        uint32 guardianCount;\n    }\n\n    struct OwnershipTransferConfig {\n        address newOwner;\n        uint64 executeAfter;\n    }\n\n    // the wallet specific storage\n    mapping (address => RecoveryConfig) internal recoveryConfigs;\n    mapping (address => OwnershipTransferConfig) internal ownershipTransferConfigs;\n\n    // Recovery period\n    uint256 public recoveryPeriod;\n    // Lock period\n    uint256 public lockPeriod;\n    // The security period used for (non-recovery) ownership transfer\n    uint256 public securityPeriod;\n    // the security window used for (non-recovery) ownership transfer\n    uint256 public securityWindow;\n    // location of the Guardian storage\n    GuardianStorage public guardianStorage;\n\n    // *************** Events *************************** //\n\n    event RecoveryExecuted(address indexed _wallet, address indexed _recovery, uint64 executeAfter);\n    event RecoveryFinalized(address indexed _wallet, address indexed _recovery);\n    event RecoveryCanceled(address indexed _wallet, address indexed _recovery);\n    event OwnershipTransferExecuted(address indexed _wallet, address indexed _newOwner, uint64 executeAfter);\n    event OwnershipTransferFinalized(address indexed _wallet, address indexed _newOwner);\n    event OwnershipTransferCanceled(address indexed _wallet, address indexed _newOwner);\n\n    // *************** Modifiers ************************ //\n\n    /**\n     * @dev Throws if there is no ongoing recovery procedure.\n     */\n    modifier onlyWhenRecovery(BaseWallet _wallet) {\n        require(recoveryConfigs[address(_wallet)].executeAfter > 0, \"RM: there must be an ongoing recovery\");\n        _;\n    }\n\n    /**\n     * @dev Throws if there is an ongoing recovery procedure.\n     */\n    modifier notWhenRecovery(BaseWallet _wallet) {\n        require(recoveryConfigs[address(_wallet)].executeAfter == 0, \"RM: there cannot be an ongoing recovery\");\n        _;\n    }\n\n        /**\n     * @dev Throws if there is no ongoing ownership transfer procedure.\n     */\n    modifier onlyWhenOwnershipTransfer(BaseWallet _wallet) {\n        require(ownershipTransferConfigs[address(_wallet)].executeAfter > 0, \"RM: there must be an ongoing ownership transfer\");\n        _;\n    }\n\n    /**\n     * @dev Throws if there is an ongoing ownership transfer procedure.\n     */\n    modifier notWhenOwnershipTransfer(BaseWallet _wallet) {\n        require(now > ownershipTransferConfigs[address(_wallet)].executeAfter + securityWindow,\n            \"RM: there cannot be an ongoing ownership transfer\");\n        _;\n    }\n\n    // *************** Constructor ************************ //\n\n    constructor(\n        ModuleRegistry _registry,\n        GuardianStorage _guardianStorage,\n        uint256 _recoveryPeriod,\n        uint256 _lockPeriod,\n        uint256 _securityPeriod,\n        uint256 _securityWindow\n    )\n        BaseModule(_registry, _guardianStorage, NAME)\n        public\n    {\n        require(_lockPeriod >= _recoveryPeriod && _recoveryPeriod >= _securityPeriod + _securityWindow,\n            \"RM: insecure security periods\");\n        guardianStorage = _guardianStorage;\n        recoveryPeriod = _recoveryPeriod;\n        lockPeriod = _lockPeriod;\n        securityPeriod = _securityPeriod;\n        securityWindow = _securityWindow;\n    }\n\n    // *************** External functions ************************ //\n\n    /**\n     * @dev Lets the guardians start the execution of the recovery procedure.\n     * Once triggered the recovery is pending for the security period before it can\n     * be finalised.\n     * Must be confirmed by N guardians, where N = ((Nb Guardian + 1) / 2).\n     * @param _wallet The target wallet.\n     * @param _recovery The address to which ownership should be transferred.\n     */\n    function executeRecovery(BaseWallet _wallet, address _recovery) external onlyExecute notWhenRecovery(_wallet) {\n        require(_recovery != address(0), \"RM: recovery address cannot be null\");\n        RecoveryConfig storage config = recoveryConfigs[address(_wallet)];\n        config.recovery = _recovery;\n        config.executeAfter = uint64(now + recoveryPeriod);\n        config.guardianCount = uint32(guardianStorage.guardianCount(_wallet));\n        guardianStorage.setLock(_wallet, now + lockPeriod);\n        emit RecoveryExecuted(address(_wallet), _recovery, config.executeAfter);\n    }\n\n    /**\n     * @dev Finalizes an ongoing recovery procedure if the security period is over.\n     * The method is public and callable by anyone to enable orchestration.\n     * @param _wallet The target wallet.\n     */\n    function finalizeRecovery(BaseWallet _wallet) external onlyWhenRecovery(_wallet) {\n        RecoveryConfig storage config = recoveryConfigs[address(_wallet)];\n        require(uint64(now) > config.executeAfter, \"RM: the recovery period is not over yet\");\n        _wallet.setOwner(config.recovery);\n        emit RecoveryFinalized(address(_wallet), config.recovery);\n        guardianStorage.setLock(_wallet, 0);\n        delete recoveryConfigs[address(_wallet)];\n    }\n\n    /**\n     * @dev Lets the owner cancel an ongoing recovery procedure.\n     * Must be confirmed by N guardians, where N = ((Nb Guardian + 1) / 2) - 1.\n     * @param _wallet The target wallet.\n     */\n    function cancelRecovery(BaseWallet _wallet) external onlyExecute onlyWhenRecovery(_wallet) {\n        RecoveryConfig storage config = recoveryConfigs[address(_wallet)];\n        emit  RecoveryCanceled(address(_wallet), config.recovery);\n        guardianStorage.setLock(_wallet, 0);\n        delete recoveryConfigs[address(_wallet)];\n    }\n\n    /**\n    * @dev Gets the details of the ongoing recovery procedure if any.\n    * @param _wallet The target wallet.\n    */\n    function getRecovery(BaseWallet _wallet) public view returns(address _address, uint64 _executeAfter, uint32 _guardianCount) {\n        RecoveryConfig storage config = recoveryConfigs[address(_wallet)];\n        return (config.recovery, config.executeAfter, config.guardianCount);\n    }\n\n    /**\n     * @dev Lets the owner start the execution of the ownership transfer procedure.\n     * Once triggered the ownership transfer is pending for the security period before it can\n     * be finalised.\n     * @param _wallet The target wallet.\n     * @param _newOwner The address to which ownership should be transferred.\n     */\n    function executeOwnershipTransfer(\n        BaseWallet _wallet,\n        address _newOwner\n    )\n        external\n        onlyWalletOwner(_wallet)\n        onlyWhenUnlocked(_wallet)\n        notWhenOwnershipTransfer(_wallet)\n    {\n        require(_newOwner != address(0), \"RM: new owner address cannot be null\");\n        OwnershipTransferConfig storage config = ownershipTransferConfigs[address(_wallet)];\n        config.newOwner = _newOwner;\n        config.executeAfter = uint64(now + securityPeriod);\n        emit OwnershipTransferExecuted(address(_wallet), _newOwner, config.executeAfter);\n    }\n\n    /**\n     * @dev Finalizes an ongoing ownership transfer procedure if the security period is over.\n     * The method must be called during the confirmation window and\n     * can be called by anyone to enable orchestration.\n     * @param _wallet The target wallet.\n     */\n    function finalizeOwnershipTransfer(\n        BaseWallet _wallet\n    ) external\n        onlyWhenUnlocked(_wallet)\n        onlyWhenOwnershipTransfer(_wallet)\n    {\n        OwnershipTransferConfig storage config = ownershipTransferConfigs[address(_wallet)];\n        require(config.executeAfter < now, \"RM: Too early to confirm ownership transfer\");\n        require(now < config.executeAfter + securityWindow, \"RM: Too late to confirm ownership transfer\");\n        _wallet.setOwner(config.newOwner);\n        emit OwnershipTransferFinalized(address(_wallet), config.newOwner);\n        delete ownershipTransferConfigs[address(_wallet)];\n    }\n\n    /**\n     * @dev Lets the owner cancel an ongoing ownership transfer procedure.\n     * @param _wallet The target wallet.\n     */\n    function cancelOwnershipTransfer(\n        BaseWallet _wallet\n    )\n        external\n        onlyWalletOwner(_wallet)\n        onlyWhenUnlocked(_wallet)\n        onlyWhenOwnershipTransfer(_wallet)\n    {\n        OwnershipTransferConfig storage config = ownershipTransferConfigs[address(_wallet)];\n        emit  OwnershipTransferCanceled(address(_wallet), config.newOwner);\n        delete ownershipTransferConfigs[address(_wallet)];\n    }\n\n    // *************** Implementation of RelayerModule methods ********************* //\n\n    function validateSignatures(\n        BaseWallet _wallet,\n        bytes memory _data,\n        bytes32 _signHash,\n        bytes memory _signatures\n    )\n        internal view returns (bool)\n    {\n        address lastSigner = address(0);\n        address[] memory guardians = guardianStorage.getGuardians(_wallet);\n        bool isGuardian = false;\n        for (uint8 i = 0; i < _signatures.length / 65; i++) {\n            address signer = recoverSigner(_signHash, _signatures, i);\n            if (i == 0 && isOwner(_wallet, signer)) {\n                // first signer can be owner\n                continue;\n            } else {\n                if (signer <= lastSigner) {\n                    return false;\n                } // \"RM: signers must be different\"\n                lastSigner = signer;\n                (isGuardian, guardians) = GuardianUtils.isGuardian(guardians, signer);\n                if (!isGuardian) {\n                    return false;\n                } // \"RM: signatures not valid\"\n            }\n        }\n        return true;\n    }\n\n    function getRequiredSignatures(BaseWallet _wallet, bytes memory _data) internal view returns (uint256) {\n        bytes4 methodId = functionPrefix(_data);\n        if (methodId == EXECUTE_RECOVERY_PREFIX) {\n            return SafeMath.ceil(guardianStorage.guardianCount(_wallet) + 1, 2);\n        }\n        if (methodId == FINALIZE_RECOVERY_PREFIX) {\n            return 0;\n        }\n        if (methodId == CANCEL_RECOVERY_PREFIX) {\n            return SafeMath.ceil(recoveryConfigs[address(_wallet)].guardianCount + 1, 2);\n        }\n        if (methodId == EXECUTE_OWNERSHIP_TRANSFER_PREFIX) {\n            return 1;\n        }\n        if (methodId == FINALIZE_OWNERSHIP_TRANSFER_PREFIX) {\n            return 0;\n        }\n        if (methodId == CANCEL_OWNERSHIP_TRANSFER_PREFIX) {\n            return 1;\n        }\n        revert(\"RM: unknown  method\");\n    }\n}",
  "sourcePath": "/Users/name/dev/argent-contracts-release-1.5.0/contracts/modules/RecoveryManager.sol",
  "compiler": {
    "name": "solc",
    "version": "0.5.16+commit.9c3226ce.Emscripten.clang"
  },
  "schemaVersion": "3.0.23",
  "updatedAt": "2020-03-31T19:53:31.437Z",
  "devdoc": {
    "author": "Julien Niset - <julien@argent.im>Olivier Van Den Biggelaar - <olivier@argent.im>",
    "details": "Module to manage the recovery of a wallet owner. Recovery is executed by a consensus of the wallet's guardians and takes 24 hours before it can be finalized. Once finalised the ownership of the wallet is transfered to a new address.",
    "methods": {
      "addModule(address,address)": {
        "details": "Adds a module to a wallet. First checks that the module is registered.",
        "params": {
          "_module": "The modules to authorise.",
          "_wallet": "The target wallet."
        }
      },
      "cancelOwnershipTransfer(address)": {
        "details": "Lets the owner cancel an ongoing ownership transfer procedure.",
        "params": {
          "_wallet": "The target wallet."
        }
      },
      "cancelRecovery(address)": {
        "details": "Lets the owner cancel an ongoing recovery procedure. Must be confirmed by N guardians, where N = ((Nb Guardian + 1) / 2) - 1.",
        "params": {
          "_wallet": "The target wallet."
        }
      },
      "execute(address,bytes,uint256,bytes,uint256,uint256)": {
        "details": "Executes a relayed transaction.",
        "params": {
          "_data": "The data for the relayed transaction",
          "_gasLimit": "The gas limit to use for the gas refund.",
          "_gasPrice": "The gas price to use for the gas refund.",
          "_nonce": "The nonce used to prevent replay attacks.",
          "_signatures": "The signatures as a concatenated byte array.",
          "_wallet": "The target wallet."
        }
      },
      "executeOwnershipTransfer(address,address)": {
        "details": "Lets the owner start the execution of the ownership transfer procedure. Once triggered the ownership transfer is pending for the security period before it can be finalised.",
        "params": {
          "_newOwner": "The address to which ownership should be transferred.",
          "_wallet": "The target wallet."
        }
      },
      "executeRecovery(address,address)": {
        "details": "Lets the guardians start the execution of the recovery procedure. Once triggered the recovery is pending for the security period before it can be finalised. Must be confirmed by N guardians, where N = ((Nb Guardian + 1) / 2).",
        "params": {
          "_recovery": "The address to which ownership should be transferred.",
          "_wallet": "The target wallet."
        }
      },
      "finalizeOwnershipTransfer(address)": {
        "details": "Finalizes an ongoing ownership transfer procedure if the security period is over. The method must be called during the confirmation window and can be called by anyone to enable orchestration.",
        "params": {
          "_wallet": "The target wallet."
        }
      },
      "finalizeRecovery(address)": {
        "details": "Finalizes an ongoing recovery procedure if the security period is over. The method is public and callable by anyone to enable orchestration.",
        "params": {
          "_wallet": "The target wallet."
        }
      },
      "getNonce(address)": {
        "details": "Gets the current nonce for a wallet.",
        "params": {
          "_wallet": "The target wallet."
        }
      },
      "getRecovery(address)": {
        "details": "Gets the details of the ongoing recovery procedure if any.",
        "params": {
          "_wallet": "The target wallet."
        }
      },
      "init(address)": {
        "details": "Inits the module for a wallet by logging an event. The method can only be called by the wallet itself.",
        "params": {
          "_wallet": "The wallet."
        }
      },
      "recoverToken(address)": {
        "details": "Utility method enbaling anyone to recover ERC20 token sent to the module by mistake and transfer them to the Module Registry.",
        "params": {
          "_token": "The token to recover."
        }
      }
    },
    "title": "RecoveryManager"
  },
  "userdoc": {
    "methods": {}
  }
}