{
  "contractName": "SaiTub",
  "abi": [
    {
      "inputs": [
        {
          "internalType": "contract DSToken",
          "name": "sai_",
          "type": "address"
        },
        {
          "internalType": "contract DSToken",
          "name": "sin_",
          "type": "address"
        },
        {
          "internalType": "contract DSToken",
          "name": "skr_",
          "type": "address"
        },
        {
          "internalType": "contract ERC20",
          "name": "gem_",
          "type": "address"
        },
        {
          "internalType": "contract DSToken",
          "name": "gov_",
          "type": "address"
        },
        {
          "internalType": "contract DSValue",
          "name": "pip_",
          "type": "address"
        },
        {
          "internalType": "contract DSValue",
          "name": "pep_",
          "type": "address"
        },
        {
          "internalType": "contract SaiVox",
          "name": "vox_",
          "type": "address"
        },
        {
          "internalType": "address",
          "name": "pit_",
          "type": "address"
        }
      ],
      "payable": false,
      "stateMutability": "nonpayable",
      "type": "constructor"
    },
    {
      "anonymous": false,
      "inputs": [
        {
          "indexed": true,
          "internalType": "address",
          "name": "lad",
          "type": "address"
        },
        {
          "indexed": false,
          "internalType": "bytes32",
          "name": "cup",
          "type": "bytes32"
        }
      ],
      "name": "LogNewCup",
      "type": "event"
    },
    {
      "anonymous": true,
      "inputs": [
        {
          "indexed": true,
          "internalType": "bytes4",
          "name": "sig",
          "type": "bytes4"
        },
        {
          "indexed": true,
          "internalType": "address",
          "name": "guy",
          "type": "address"
        },
        {
          "indexed": true,
          "internalType": "bytes32",
          "name": "foo",
          "type": "bytes32"
        },
        {
          "indexed": true,
          "internalType": "bytes32",
          "name": "bar",
          "type": "bytes32"
        },
        {
          "indexed": false,
          "internalType": "uint256",
          "name": "wad",
          "type": "uint256"
        },
        {
          "indexed": false,
          "internalType": "bytes",
          "name": "fax",
          "type": "bytes"
        }
      ],
      "name": "LogNote",
      "type": "event"
    },
    {
      "anonymous": false,
      "inputs": [
        {
          "indexed": true,
          "internalType": "address",
          "name": "authority",
          "type": "address"
        }
      ],
      "name": "LogSetAuthority",
      "type": "event"
    },
    {
      "anonymous": false,
      "inputs": [
        {
          "indexed": true,
          "internalType": "address",
          "name": "owner",
          "type": "address"
        }
      ],
      "name": "LogSetOwner",
      "type": "event"
    },
    {
      "constant": true,
      "inputs": [],
      "name": "authority",
      "outputs": [
        {
          "internalType": "contract DSAuthority",
          "name": "",
          "type": "address"
        }
      ],
      "payable": false,
      "stateMutability": "view",
      "type": "function"
    },
    {
      "constant": true,
      "inputs": [],
      "name": "axe",
      "outputs": [
        {
          "internalType": "uint256",
          "name": "",
          "type": "uint256"
        }
      ],
      "payable": false,
      "stateMutability": "view",
      "type": "function"
    },
    {
      "constant": true,
      "inputs": [],
      "name": "cap",
      "outputs": [
        {
          "internalType": "uint256",
          "name": "",
          "type": "uint256"
        }
      ],
      "payable": false,
      "stateMutability": "view",
      "type": "function"
    },
    {
      "constant": true,
      "inputs": [],
      "name": "cupi",
      "outputs": [
        {
          "internalType": "uint256",
          "name": "",
          "type": "uint256"
        }
      ],
      "payable": false,
      "stateMutability": "view",
      "type": "function"
    },
    {
      "constant": true,
      "inputs": [
        {
          "internalType": "bytes32",
          "name": "",
          "type": "bytes32"
        }
      ],
      "name": "cups",
      "outputs": [
        {
          "internalType": "address",
          "name": "lad",
          "type": "address"
        },
        {
          "internalType": "uint256",
          "name": "ink",
          "type": "uint256"
        },
        {
          "internalType": "uint256",
          "name": "art",
          "type": "uint256"
        },
        {
          "internalType": "uint256",
          "name": "ire",
          "type": "uint256"
        }
      ],
      "payable": false,
      "stateMutability": "view",
      "type": "function"
    },
    {
      "constant": true,
      "inputs": [],
      "name": "fee",
      "outputs": [
        {
          "internalType": "uint256",
          "name": "",
          "type": "uint256"
        }
      ],
      "payable": false,
      "stateMutability": "view",
      "type": "function"
    },
    {
      "constant": true,
      "inputs": [],
      "name": "fit",
      "outputs": [
        {
          "internalType": "uint256",
          "name": "",
          "type": "uint256"
        }
      ],
      "payable": false,
      "stateMutability": "view",
      "type": "function"
    },
    {
      "constant": true,
      "inputs": [],
      "name": "gap",
      "outputs": [
        {
          "internalType": "uint256",
          "name": "",
          "type": "uint256"
        }
      ],
      "payable": false,
      "stateMutability": "view",
      "type": "function"
    },
    {
      "constant": true,
      "inputs": [],
      "name": "gem",
      "outputs": [
        {
          "internalType": "contract ERC20",
          "name": "",
          "type": "address"
        }
      ],
      "payable": false,
      "stateMutability": "view",
      "type": "function"
    },
    {
      "constant": true,
      "inputs": [],
      "name": "gov",
      "outputs": [
        {
          "internalType": "contract DSToken",
          "name": "",
          "type": "address"
        }
      ],
      "payable": false,
      "stateMutability": "view",
      "type": "function"
    },
    {
      "constant": true,
      "inputs": [],
      "name": "mat",
      "outputs": [
        {
          "internalType": "uint256",
          "name": "",
          "type": "uint256"
        }
      ],
      "payable": false,
      "stateMutability": "view",
      "type": "function"
    },
    {
      "constant": true,
      "inputs": [],
      "name": "off",
      "outputs": [
        {
          "internalType": "bool",
          "name": "",
          "type": "bool"
        }
      ],
      "payable": false,
      "stateMutability": "view",
      "type": "function"
    },
    {
      "constant": true,
      "inputs": [],
      "name": "out",
      "outputs": [
        {
          "internalType": "bool",
          "name": "",
          "type": "bool"
        }
      ],
      "payable": false,
      "stateMutability": "view",
      "type": "function"
    },
    {
      "constant": true,
      "inputs": [],
      "name": "owner",
      "outputs": [
        {
          "internalType": "address",
          "name": "",
          "type": "address"
        }
      ],
      "payable": false,
      "stateMutability": "view",
      "type": "function"
    },
    {
      "constant": true,
      "inputs": [],
      "name": "pep",
      "outputs": [
        {
          "internalType": "contract DSValue",
          "name": "",
          "type": "address"
        }
      ],
      "payable": false,
      "stateMutability": "view",
      "type": "function"
    },
    {
      "constant": true,
      "inputs": [],
      "name": "pip",
      "outputs": [
        {
          "internalType": "contract DSValue",
          "name": "",
          "type": "address"
        }
      ],
      "payable": false,
      "stateMutability": "view",
      "type": "function"
    },
    {
      "constant": true,
      "inputs": [],
      "name": "pit",
      "outputs": [
        {
          "internalType": "address",
          "name": "",
          "type": "address"
        }
      ],
      "payable": false,
      "stateMutability": "view",
      "type": "function"
    },
    {
      "constant": true,
      "inputs": [],
      "name": "rho",
      "outputs": [
        {
          "internalType": "uint256",
          "name": "",
          "type": "uint256"
        }
      ],
      "payable": false,
      "stateMutability": "view",
      "type": "function"
    },
    {
      "constant": true,
      "inputs": [],
      "name": "rum",
      "outputs": [
        {
          "internalType": "uint256",
          "name": "",
          "type": "uint256"
        }
      ],
      "payable": false,
      "stateMutability": "view",
      "type": "function"
    },
    {
      "constant": true,
      "inputs": [],
      "name": "sai",
      "outputs": [
        {
          "internalType": "contract DSToken",
          "name": "",
          "type": "address"
        }
      ],
      "payable": false,
      "stateMutability": "view",
      "type": "function"
    },
    {
      "constant": false,
      "inputs": [
        {
          "internalType": "contract DSAuthority",
          "name": "authority_",
          "type": "address"
        }
      ],
      "name": "setAuthority",
      "outputs": [],
      "payable": false,
      "stateMutability": "nonpayable",
      "type": "function"
    },
    {
      "constant": false,
      "inputs": [
        {
          "internalType": "address",
          "name": "owner_",
          "type": "address"
        }
      ],
      "name": "setOwner",
      "outputs": [],
      "payable": false,
      "stateMutability": "nonpayable",
      "type": "function"
    },
    {
      "constant": true,
      "inputs": [],
      "name": "sin",
      "outputs": [
        {
          "internalType": "contract DSToken",
          "name": "",
          "type": "address"
        }
      ],
      "payable": false,
      "stateMutability": "view",
      "type": "function"
    },
    {
      "constant": true,
      "inputs": [],
      "name": "skr",
      "outputs": [
        {
          "internalType": "contract DSToken",
          "name": "",
          "type": "address"
        }
      ],
      "payable": false,
      "stateMutability": "view",
      "type": "function"
    },
    {
      "constant": true,
      "inputs": [],
      "name": "tap",
      "outputs": [
        {
          "internalType": "address",
          "name": "",
          "type": "address"
        }
      ],
      "payable": false,
      "stateMutability": "view",
      "type": "function"
    },
    {
      "constant": true,
      "inputs": [],
      "name": "tax",
      "outputs": [
        {
          "internalType": "uint256",
          "name": "",
          "type": "uint256"
        }
      ],
      "payable": false,
      "stateMutability": "view",
      "type": "function"
    },
    {
      "constant": true,
      "inputs": [],
      "name": "vox",
      "outputs": [
        {
          "internalType": "contract SaiVox",
          "name": "",
          "type": "address"
        }
      ],
      "payable": false,
      "stateMutability": "view",
      "type": "function"
    },
    {
      "constant": true,
      "inputs": [
        {
          "internalType": "bytes32",
          "name": "cup",
          "type": "bytes32"
        }
      ],
      "name": "lad",
      "outputs": [
        {
          "internalType": "address",
          "name": "",
          "type": "address"
        }
      ],
      "payable": false,
      "stateMutability": "view",
      "type": "function"
    },
    {
      "constant": true,
      "inputs": [
        {
          "internalType": "bytes32",
          "name": "cup",
          "type": "bytes32"
        }
      ],
      "name": "ink",
      "outputs": [
        {
          "internalType": "uint256",
          "name": "",
          "type": "uint256"
        }
      ],
      "payable": false,
      "stateMutability": "view",
      "type": "function"
    },
    {
      "constant": false,
      "inputs": [
        {
          "internalType": "bytes32",
          "name": "cup",
          "type": "bytes32"
        }
      ],
      "name": "tab",
      "outputs": [
        {
          "internalType": "uint256",
          "name": "",
          "type": "uint256"
        }
      ],
      "payable": false,
      "stateMutability": "nonpayable",
      "type": "function"
    },
    {
      "constant": false,
      "inputs": [
        {
          "internalType": "bytes32",
          "name": "cup",
          "type": "bytes32"
        }
      ],
      "name": "rap",
      "outputs": [
        {
          "internalType": "uint256",
          "name": "",
          "type": "uint256"
        }
      ],
      "payable": false,
      "stateMutability": "nonpayable",
      "type": "function"
    },
    {
      "constant": false,
      "inputs": [],
      "name": "din",
      "outputs": [
        {
          "internalType": "uint256",
          "name": "",
          "type": "uint256"
        }
      ],
      "payable": false,
      "stateMutability": "nonpayable",
      "type": "function"
    },
    {
      "constant": true,
      "inputs": [],
      "name": "air",
      "outputs": [
        {
          "internalType": "uint256",
          "name": "",
          "type": "uint256"
        }
      ],
      "payable": false,
      "stateMutability": "view",
      "type": "function"
    },
    {
      "constant": true,
      "inputs": [],
      "name": "pie",
      "outputs": [
        {
          "internalType": "uint256",
          "name": "",
          "type": "uint256"
        }
      ],
      "payable": false,
      "stateMutability": "view",
      "type": "function"
    },
    {
      "constant": true,
      "inputs": [],
      "name": "era",
      "outputs": [
        {
          "internalType": "uint256",
          "name": "",
          "type": "uint256"
        }
      ],
      "payable": false,
      "stateMutability": "view",
      "type": "function"
    },
    {
      "constant": false,
      "inputs": [
        {
          "internalType": "bytes32",
          "name": "param",
          "type": "bytes32"
        },
        {
          "internalType": "uint256",
          "name": "val",
          "type": "uint256"
        }
      ],
      "name": "mold",
      "outputs": [],
      "payable": true,
      "stateMutability": "payable",
      "type": "function"
    },
    {
      "constant": false,
      "inputs": [
        {
          "internalType": "contract DSValue",
          "name": "pip_",
          "type": "address"
        }
      ],
      "name": "setPip",
      "outputs": [],
      "payable": true,
      "stateMutability": "payable",
      "type": "function"
    },
    {
      "constant": false,
      "inputs": [
        {
          "internalType": "contract DSValue",
          "name": "pep_",
          "type": "address"
        }
      ],
      "name": "setPep",
      "outputs": [],
      "payable": true,
      "stateMutability": "payable",
      "type": "function"
    },
    {
      "constant": false,
      "inputs": [
        {
          "internalType": "contract SaiVox",
          "name": "vox_",
          "type": "address"
        }
      ],
      "name": "setVox",
      "outputs": [],
      "payable": true,
      "stateMutability": "payable",
      "type": "function"
    },
    {
      "constant": false,
      "inputs": [
        {
          "internalType": "address",
          "name": "tap_",
          "type": "address"
        }
      ],
      "name": "turn",
      "outputs": [],
      "payable": true,
      "stateMutability": "payable",
      "type": "function"
    },
    {
      "constant": true,
      "inputs": [],
      "name": "per",
      "outputs": [
        {
          "internalType": "uint256",
          "name": "ray",
          "type": "uint256"
        }
      ],
      "payable": false,
      "stateMutability": "view",
      "type": "function"
    },
    {
      "constant": true,
      "inputs": [
        {
          "internalType": "uint256",
          "name": "wad",
          "type": "uint256"
        }
      ],
      "name": "ask",
      "outputs": [
        {
          "internalType": "uint256",
          "name": "",
          "type": "uint256"
        }
      ],
      "payable": false,
      "stateMutability": "view",
      "type": "function"
    },
    {
      "constant": true,
      "inputs": [
        {
          "internalType": "uint256",
          "name": "wad",
          "type": "uint256"
        }
      ],
      "name": "bid",
      "outputs": [
        {
          "internalType": "uint256",
          "name": "",
          "type": "uint256"
        }
      ],
      "payable": false,
      "stateMutability": "view",
      "type": "function"
    },
    {
      "constant": false,
      "inputs": [
        {
          "internalType": "uint256",
          "name": "wad",
          "type": "uint256"
        }
      ],
      "name": "join",
      "outputs": [],
      "payable": true,
      "stateMutability": "payable",
      "type": "function"
    },
    {
      "constant": false,
      "inputs": [
        {
          "internalType": "uint256",
          "name": "wad",
          "type": "uint256"
        }
      ],
      "name": "exit",
      "outputs": [],
      "payable": true,
      "stateMutability": "payable",
      "type": "function"
    },
    {
      "constant": false,
      "inputs": [],
      "name": "chi",
      "outputs": [
        {
          "internalType": "uint256",
          "name": "",
          "type": "uint256"
        }
      ],
      "payable": false,
      "stateMutability": "nonpayable",
      "type": "function"
    },
    {
      "constant": false,
      "inputs": [],
      "name": "rhi",
      "outputs": [
        {
          "internalType": "uint256",
          "name": "",
          "type": "uint256"
        }
      ],
      "payable": false,
      "stateMutability": "nonpayable",
      "type": "function"
    },
    {
      "constant": false,
      "inputs": [],
      "name": "drip",
      "outputs": [],
      "payable": true,
      "stateMutability": "payable",
      "type": "function"
    },
    {
      "constant": true,
      "inputs": [],
      "name": "tag",
      "outputs": [
        {
          "internalType": "uint256",
          "name": "wad",
          "type": "uint256"
        }
      ],
      "payable": false,
      "stateMutability": "view",
      "type": "function"
    },
    {
      "constant": false,
      "inputs": [
        {
          "internalType": "bytes32",
          "name": "cup",
          "type": "bytes32"
        }
      ],
      "name": "safe",
      "outputs": [
        {
          "internalType": "bool",
          "name": "",
          "type": "bool"
        }
      ],
      "payable": false,
      "stateMutability": "nonpayable",
      "type": "function"
    },
    {
      "constant": false,
      "inputs": [],
      "name": "open",
      "outputs": [
        {
          "internalType": "bytes32",
          "name": "cup",
          "type": "bytes32"
        }
      ],
      "payable": true,
      "stateMutability": "payable",
      "type": "function"
    },
    {
      "constant": false,
      "inputs": [
        {
          "internalType": "bytes32",
          "name": "cup",
          "type": "bytes32"
        },
        {
          "internalType": "address",
          "name": "guy",
          "type": "address"
        }
      ],
      "name": "give",
      "outputs": [],
      "payable": true,
      "stateMutability": "payable",
      "type": "function"
    },
    {
      "constant": false,
      "inputs": [
        {
          "internalType": "bytes32",
          "name": "cup",
          "type": "bytes32"
        },
        {
          "internalType": "uint256",
          "name": "wad",
          "type": "uint256"
        }
      ],
      "name": "lock",
      "outputs": [],
      "payable": true,
      "stateMutability": "payable",
      "type": "function"
    },
    {
      "constant": false,
      "inputs": [
        {
          "internalType": "bytes32",
          "name": "cup",
          "type": "bytes32"
        },
        {
          "internalType": "uint256",
          "name": "wad",
          "type": "uint256"
        }
      ],
      "name": "free",
      "outputs": [],
      "payable": true,
      "stateMutability": "payable",
      "type": "function"
    },
    {
      "constant": false,
      "inputs": [
        {
          "internalType": "bytes32",
          "name": "cup",
          "type": "bytes32"
        },
        {
          "internalType": "uint256",
          "name": "wad",
          "type": "uint256"
        }
      ],
      "name": "draw",
      "outputs": [],
      "payable": true,
      "stateMutability": "payable",
      "type": "function"
    },
    {
      "constant": false,
      "inputs": [
        {
          "internalType": "bytes32",
          "name": "cup",
          "type": "bytes32"
        },
        {
          "internalType": "uint256",
          "name": "wad",
          "type": "uint256"
        }
      ],
      "name": "wipe",
      "outputs": [],
      "payable": true,
      "stateMutability": "payable",
      "type": "function"
    },
    {
      "constant": false,
      "inputs": [
        {
          "internalType": "bytes32",
          "name": "cup",
          "type": "bytes32"
        }
      ],
      "name": "shut",
      "outputs": [],
      "payable": true,
      "stateMutability": "payable",
      "type": "function"
    },
    {
      "constant": false,
      "inputs": [
        {
          "internalType": "bytes32",
          "name": "cup",
          "type": "bytes32"
        }
      ],
      "name": "bite",
      "outputs": [],
      "payable": true,
      "stateMutability": "payable",
      "type": "function"
    },
    {
      "constant": false,
      "inputs": [
        {
          "internalType": "uint256",
          "name": "fit_",
          "type": "uint256"
        },
        {
          "internalType": "uint256",
          "name": "jam",
          "type": "uint256"
        }
      ],
      "name": "cage",
      "outputs": [],
      "payable": true,
      "stateMutability": "payable",
      "type": "function"
    },
    {
      "constant": false,
      "inputs": [],
      "name": "flow",
      "outputs": [],
      "payable": true,
      "stateMutability": "payable",
      "type": "function"
    }
  ],
  "bytecode": "0x60806040523480156200001157600080fd5b50604051620052953803806200529583398181016040526101208110156200003857600080fd5b8101908080519060200190929190805190602001909291908051906020019092919080519060200190929190805190602001909291908051906020019092919080519060200190929190805190602001909291908051906020019092919050505033600160006101000a81548173ffffffffffffffffffffffffffffffffffffffff021916908373ffffffffffffffffffffffffffffffffffffffff1602179055503373ffffffffffffffffffffffffffffffffffffffff167fce241d7ca1f669fee44b6fc00b8eba2df3bb514eed0f6f668f8f89096e81ed9460405160405180910390a285600560006101000a81548173ffffffffffffffffffffffffffffffffffffffff021916908373ffffffffffffffffffffffffffffffffffffffff16021790555086600460006101000a81548173ffffffffffffffffffffffffffffffffffffffff021916908373ffffffffffffffffffffffffffffffffffffffff16021790555088600260006101000a81548173ffffffffffffffffffffffffffffffffffffffff021916908373ffffffffffffffffffffffffffffffffffffffff16021790555087600360006101000a81548173ffffffffffffffffffffffffffffffffffffffff021916908373ffffffffffffffffffffffffffffffffffffffff16021790555084600660006101000a81548173ffffffffffffffffffffffffffffffffffffffff021916908373ffffffffffffffffffffffffffffffffffffffff16021790555080600b60006101000a81548173ffffffffffffffffffffffffffffffffffffffff021916908373ffffffffffffffffffffffffffffffffffffffff16021790555083600860006101000a81548173ffffffffffffffffffffffffffffffffffffffff021916908373ffffffffffffffffffffffffffffffffffffffff16021790555082600960006101000a81548173ffffffffffffffffffffffffffffffffffffffff021916908373ffffffffffffffffffffffffffffffffffffffff16021790555081600760006101000a81548173ffffffffffffffffffffffffffffffffffffffff021916908373ffffffffffffffffffffffffffffffffffffffff1602179055506b033b2e3c9fd0803ce8000000600c819055506b033b2e3c9fd0803ce8000000600e819055506b033b2e3c9fd0803ce8000000600f819055506b033b2e3c9fd0803ce8000000601081905550670de0b6b3a76400006011819055506b033b2e3c9fd0803ce80000006015819055506b033b2e3c9fd0803ce8000000601681905550620003f76200040c60201b60201c565b60148190555050505050505050505062000414565b600042905090565b614e7180620004246000396000f3fe6080604052600436106103975760003560e01c80638ceedb47116101dc578063c8e13bb411610102578063e0ae96e9116100a0578063f7c8d6341161006f578063f7c8d634146110e3578063fcfff16f14611132578063fd22103114611150578063fdac0025146111a757610397565b8063e0ae96e914610fbf578063e47e7e6614610fea578063e95823ad14611039578063f03c7c6e1461108c57610397565b8063d741e2f9116100dc578063d741e2f914610e7e578063d9c27cc614610ed5578063ddca3f4314610f19578063de5f551714610f4457610397565b8063c8e13bb414610de4578063c92aecc414610e0f578063cf48d1a614610e3a57610397565b8063a5cd184e1161017a578063b3b77a5111610149578063b3b77a5114610cd9578063b84d210614610d11578063baa8529c14610d3f578063bf7e214f14610d8d57610397565b8063a5cd184e14610bf0578063ab0783da14610c28578063ace237f514610c53578063b2a1449b14610caa57610397565b80639166cba4116101b65780639166cba414610b2c57806392b0d72114610b8357806399c8d55614610bbb5780639f678cca14610be657610397565b80638ceedb4714610a725780638cf0c19114610aaa5780638da5cb5b14610ad557610397565b806349955431116102c157806373b381011161025f5780637ec9c3b81161022e5780637ec9c3b8146109aa5780637f8661a1146109d557806382bf9a7514610a035780638a95a74614610a4757610397565b806373b38101146108865780637a9e5e4b146108be5780637bd2bea71461090f5780637e74325f1461096657610397565b80636626b26d1161029b5780636626b26d1461078657806367550a35146107b55780636c32c0a61461080c5780636f78ee0d1461083757610397565b80634995543114610705578063509bf2bf1461073057806351f910661461075b57610397565b806320aba08b11610339578063355274ea11610308578063355274ea1461062557806340cc885414610650578063440f19ba1461067e578063454a2ab3146106b657610397565b806320aba08b1461059a57806327e7e21e146105c5578063338a0261146105f0578063343aad821461061b57610397565b806312d43a511161037557806312d43a511461047857806313af4035146104cf578063143e55e0146105205780631f3634ed1461054b57610397565b8063049878f31461039c578063071bafb5146103ca5780630f8a771e14610421575b600080fd5b6103c8600480360360208110156103b257600080fd5b8101908080359060200190929190505050611237565b005b3480156103d657600080fd5b506103df61150a565b604051808273ffffffffffffffffffffffffffffffffffffffff1673ffffffffffffffffffffffffffffffffffffffff16815260200191505060405180910390f35b34801561042d57600080fd5b50610436611530565b604051808273ffffffffffffffffffffffffffffffffffffffff1673ffffffffffffffffffffffffffffffffffffffff16815260200191505060405180910390f35b34801561048457600080fd5b5061048d611556565b604051808273ffffffffffffffffffffffffffffffffffffffff1673ffffffffffffffffffffffffffffffffffffffff16815260200191505060405180910390f35b3480156104db57600080fd5b5061051e600480360360208110156104f257600080fd5b81019080803573ffffffffffffffffffffffffffffffffffffffff16906020019092919050505061157c565b005b34801561052c57600080fd5b506105356116c5565b6040518082815260200191505060405180910390f35b34801561055757600080fd5b506105846004803603602081101561056e57600080fd5b81019080803590602001909291905050506116cd565b6040518082815260200191505060405180910390f35b3480156105a657600080fd5b506105af6116ed565b6040518082815260200191505060405180910390f35b3480156105d157600080fd5b506105da6116f3565b6040518082815260200191505060405180910390f35b3480156105fc57600080fd5b506106056117d4565b6040518082815260200191505060405180910390f35b6106236117e6565b005b34801561063157600080fd5b5061063a611973565b6040518082815260200191505060405180910390f35b61067c6004803603602081101561066657600080fd5b8101908080359060200190929190505050611979565b005b6106b46004803603604081101561069457600080fd5b810190808035906020019092919080359060200190929190505050611dd1565b005b3480156106c257600080fd5b506106ef600480360360208110156106d957600080fd5b81019080803590602001909291905050506121a1565b6040518082815260200191505060405180910390f35b34801561071157600080fd5b5061071a6121da565b6040518082815260200191505060405180910390f35b34801561073c57600080fd5b506107456121e0565b6040518082815260200191505060405180910390f35b34801561076757600080fd5b506107706121e6565b6040518082815260200191505060405180910390f35b34801561079257600080fd5b5061079b6122c0565b604051808215151515815260200191505060405180910390f35b3480156107c157600080fd5b506107ca6122d3565b604051808273ffffffffffffffffffffffffffffffffffffffff1673ffffffffffffffffffffffffffffffffffffffff16815260200191505060405180910390f35b34801561081857600080fd5b506108216122f9565b6040518082815260200191505060405180910390f35b34801561084357600080fd5b506108706004803603602081101561085a57600080fd5b81019080803590602001909291905050506122ff565b6040518082815260200191505060405180910390f35b6108bc6004803603604081101561089c57600080fd5b810190808035906020019092919080359060200190929190505050612340565b005b3480156108ca57600080fd5b5061090d600480360360208110156108e157600080fd5b81019080803573ffffffffffffffffffffffffffffffffffffffff1690602001909291905050506127ab565b005b34801561091b57600080fd5b506109246128f2565b604051808273ffffffffffffffffffffffffffffffffffffffff1673ffffffffffffffffffffffffffffffffffffffff16815260200191505060405180910390f35b6109a86004803603602081101561097c57600080fd5b81019080803573ffffffffffffffffffffffffffffffffffffffff169060200190929190505050612918565b005b3480156109b657600080fd5b506109bf612aa8565b6040518082815260200191505060405180910390f35b610a01600480360360208110156109eb57600080fd5b8101908080359060200190929190505050612c1e565b005b610a4560048036036020811015610a1957600080fd5b81019080803573ffffffffffffffffffffffffffffffffffffffff169060200190929190505050612ebf565b005b348015610a5357600080fd5b50610a5c61305a565b6040518082815260200191505060405180910390f35b610aa860048036036040811015610a8857600080fd5b81019080803590602001909291908035906020019092919050505061313b565b005b348015610ab657600080fd5b50610abf613410565b6040518082815260200191505060405180910390f35b348015610ae157600080fd5b50610aea613416565b604051808273ffffffffffffffffffffffffffffffffffffffff1673ffffffffffffffffffffffffffffffffffffffff16815260200191505060405180910390f35b348015610b3857600080fd5b50610b4161343c565b604051808273ffffffffffffffffffffffffffffffffffffffff1673ffffffffffffffffffffffffffffffffffffffff16815260200191505060405180910390f35b610bb960048036036040811015610b9957600080fd5b810190808035906020019092919080359060200190929190505050613462565b005b348015610bc757600080fd5b50610bd0613789565b6040518082815260200191505060405180910390f35b610bee61378f565b005b610c2660048036036040811015610c0657600080fd5b810190808035906020019092919080359060200190929190505050613a2d565b005b348015610c3457600080fd5b50610c3d613cad565b6040518082815260200191505060405180910390f35b348015610c5f57600080fd5b50610c68613cb3565b604051808273ffffffffffffffffffffffffffffffffffffffff1673ffffffffffffffffffffffffffffffffffffffff16815260200191505060405180910390f35b348015610cb657600080fd5b50610cbf613cd9565b604051808215151515815260200191505060405180910390f35b610d0f60048036036040811015610cef57600080fd5b810190808035906020019092919080359060200190929190505050613cec565b005b610d3d60048036036020811015610d2757600080fd5b8101908080359060200190929190505050613f06565b005b610d8b60048036036040811015610d5557600080fd5b8101908080359060200190929190803573ffffffffffffffffffffffffffffffffffffffff1690602001909291905050506140e3565b005b348015610d9957600080fd5b50610da261429b565b604051808273ffffffffffffffffffffffffffffffffffffffff1673ffffffffffffffffffffffffffffffffffffffff16815260200191505060405180910390f35b348015610df057600080fd5b50610df96142c0565b6040518082815260200191505060405180910390f35b348015610e1b57600080fd5b50610e246142c6565b6040518082815260200191505060405180910390f35b610e7c60048036036020811015610e5057600080fd5b81019080803573ffffffffffffffffffffffffffffffffffffffff1690602001909291905050506142d8565b005b348015610e8a57600080fd5b50610e93614473565b604051808273ffffffffffffffffffffffffffffffffffffffff1673ffffffffffffffffffffffffffffffffffffffff16815260200191505060405180910390f35b610f1760048036036020811015610eeb57600080fd5b81019080803573ffffffffffffffffffffffffffffffffffffffff169060200190929190505050614499565b005b348015610f2557600080fd5b50610f2e614634565b6040518082815260200191505060405180910390f35b348015610f5057600080fd5b50610f7d60048036036020811015610f6757600080fd5b810190808035906020019092919050505061463a565b604051808273ffffffffffffffffffffffffffffffffffffffff1673ffffffffffffffffffffffffffffffffffffffff16815260200191505060405180910390f35b348015610fcb57600080fd5b50610fd461467a565b6040518082815260200191505060405180910390f35b348015610ff657600080fd5b506110236004803603602081101561100d57600080fd5b8101908080359060200190929190505050614694565b6040518082815260200191505060405180910390f35b34801561104557600080fd5b506110726004803603602081101561105c57600080fd5b81019080803590602001909291905050506146b9565b604051808215151515815260200191505060405180910390f35b34801561109857600080fd5b506110a16147af565b604051808273ffffffffffffffffffffffffffffffffffffffff1673ffffffffffffffffffffffffffffffffffffffff16815260200191505060405180910390f35b3480156110ef57600080fd5b5061111c6004803603602081101561110657600080fd5b81019080803590602001909291905050506147d5565b6040518082815260200191505060405180910390f35b61113a614805565b6040518082815260200191505060405180910390f35b34801561115c57600080fd5b50611165614999565b604051808273ffffffffffffffffffffffffffffffffffffffff1673ffffffffffffffffffffffffffffffffffffffff16815260200191505060405180910390f35b3480156111b357600080fd5b506111e0600480360360208110156111ca57600080fd5b81019080803590602001909291905050506149bf565b604051808573ffffffffffffffffffffffffffffffffffffffff1673ffffffffffffffffffffffffffffffffffffffff16815260200184815260200183815260200182815260200194505050505060405180910390f35b6000806004359150602435905080823373ffffffffffffffffffffffffffffffffffffffff166000357fffffffff00000000000000000000000000000000000000000000000000000000167bffffffffffffffffffffffffffffffffffffffffffffffffffffffff19163460003660405180848152602001806020018281038252848482818152602001925080828437600081840152601f19601f82011690508083019250505094505050505060405180910390a4601260009054906101000a900460ff161561130657600080fd5b600061131184614694565b1161131b57600080fd5b600560009054906101000a900473ffffffffffffffffffffffffffffffffffffffff1673ffffffffffffffffffffffffffffffffffffffff166323b872dd333061136487614694565b6040518463ffffffff1660e01b8152600401808473ffffffffffffffffffffffffffffffffffffffff1673ffffffffffffffffffffffffffffffffffffffff1681526020018373ffffffffffffffffffffffffffffffffffffffff1673ffffffffffffffffffffffffffffffffffffffff1681526020018281526020019350505050602060405180830381600087803b15801561140057600080fd5b505af1158015611414573d6000803e3d6000fd5b505050506040513d602081101561142a57600080fd5b810190808051906020019092919050505061144457600080fd5b600460009054906101000a900473ffffffffffffffffffffffffffffffffffffffff1673ffffffffffffffffffffffffffffffffffffffff166340c10f1933856040518363ffffffff1660e01b8152600401808373ffffffffffffffffffffffffffffffffffffffff1673ffffffffffffffffffffffffffffffffffffffff16815260200182815260200192505050600060405180830381600087803b1580156114ed57600080fd5b505af1158015611501573d6000803e3d6000fd5b50505050505050565b600360009054906101000a900473ffffffffffffffffffffffffffffffffffffffff1681565b600460009054906101000a900473ffffffffffffffffffffffffffffffffffffffff1681565b600660009054906101000a900473ffffffffffffffffffffffffffffffffffffffff1681565b6115aa336000357fffffffff0000000000000000000000000000000000000000000000000000000016614a0f565b61161c576040517f08c379a00000000000000000000000000000000000000000000000000000000081526004018080602001828103825260148152602001807f617574683a206e6f7420617574686f72697a656400000000000000000000000081525060200191505060405180910390fd5b80600160006101000a81548173ffffffffffffffffffffffffffffffffffffffff021916908373ffffffffffffffffffffffffffffffffffffffff160217905550600160009054906101000a900473ffffffffffffffffffffffffffffffffffffffff1673ffffffffffffffffffffffffffffffffffffffff167fce241d7ca1f669fee44b6fc00b8eba2df3bb514eed0f6f668f8f89096e81ed9460405160405180910390a250565b600042905090565b600060196000838152602001908152602001600020600101549050919050565b60145481565b6000600460009054906101000a900473ffffffffffffffffffffffffffffffffffffffff1673ffffffffffffffffffffffffffffffffffffffff166370a08231306040518263ffffffff1660e01b8152600401808273ffffffffffffffffffffffffffffffffffffffff1673ffffffffffffffffffffffffffffffffffffffff16815260200191505060206040518083038186803b15801561179457600080fd5b505afa1580156117a8573d6000803e3d6000fd5b505050506040513d60208110156117be57600080fd5b8101908080519060200190929190505050905090565b60006117de61378f565b601654905090565b6000806004359150602435905080823373ffffffffffffffffffffffffffffffffffffffff166000357fffffffff00000000000000000000000000000000000000000000000000000000167bffffffffffffffffffffffffffffffffffffffffffffffffffffffff19163460003660405180848152602001806020018281038252848482818152602001925080828437600081840152601f19601f82011690508083019250505094505050505060405180910390a46118c9336000357fffffffff0000000000000000000000000000000000000000000000000000000016614a0f565b61193b576040517f08c379a00000000000000000000000000000000000000000000000000000000081526004018080602001828103825260148152602001807f617574683a206e6f7420617574686f72697a656400000000000000000000000081525060200191505060405180910390fd5b601260009054906101000a900460ff1661195457600080fd5b6001601260016101000a81548160ff0219169083151502179055505050565b600d5481565b6000806004359150602435905080823373ffffffffffffffffffffffffffffffffffffffff166000357fffffffff00000000000000000000000000000000000000000000000000000000167bffffffffffffffffffffffffffffffffffffffffffffffffffffffff19163460003660405180848152602001806020018281038252848482818152602001925080828437600081840152601f19601f82011690508083019250505094505050505060405180910390a4611a37836146b9565b1580611a4f5750601260009054906101000a900460ff165b611a5857600080fd5b6000611a63846147d5565b9050600360009054906101000a900473ffffffffffffffffffffffffffffffffffffffff1673ffffffffffffffffffffffffffffffffffffffff166340c10f19600a60009054906101000a900473ffffffffffffffffffffffffffffffffffffffff16836040518363ffffffff1660e01b8152600401808373ffffffffffffffffffffffffffffffffffffffff1673ffffffffffffffffffffffffffffffffffffffff16815260200182815260200192505050600060405180830381600087803b158015611b3057600080fd5b505af1158015611b44573d6000803e3d6000fd5b50505050611b6a6017546019600087815260200190815260200160002060020154614c68565b60178190555060006019600086815260200190815260200160002060020181905550600060196000868152602001908152602001600020600301819055506000611c73611c66611bbc84600c54614c82565b600760009054906101000a900473ffffffffffffffffffffffffffffffffffffffff1673ffffffffffffffffffffffffffffffffffffffff1663495d32cb6040518163ffffffff1660e01b8152600401602060405180830381600087803b158015611c2657600080fd5b505af1158015611c3a573d6000803e3d6000fd5b505050506040513d6020811015611c5057600080fd5b8101908080519060200190929190505050614c82565b611c6e6121e6565b614cca565b90506019600086815260200190815260200160002060010154811115611cad57601960008681526020019081526020016000206001015490505b600460009054906101000a900473ffffffffffffffffffffffffffffffffffffffff1673ffffffffffffffffffffffffffffffffffffffff1663b753a98c600a60009054906101000a900473ffffffffffffffffffffffffffffffffffffffff16836040518363ffffffff1660e01b8152600401808373ffffffffffffffffffffffffffffffffffffffff1673ffffffffffffffffffffffffffffffffffffffff16815260200182815260200192505050600060405180830381600087803b158015611d7857600080fd5b505af1158015611d8c573d6000803e3d6000fd5b50505050611db0601960008781526020019081526020016000206001015482614c68565b60196000878152602001908152602001600020600101819055505050505050565b6000806004359150602435905080823373ffffffffffffffffffffffffffffffffffffffff166000357fffffffff00000000000000000000000000000000000000000000000000000000167bffffffffffffffffffffffffffffffffffffffffffffffffffffffff19163460003660405180848152602001806020018281038252848482818152602001925080828437600081840152601f19601f82011690508083019250505094505050505060405180910390a4601260009054906101000a900460ff1615611ea057600080fd5b6019600085815260200190815260200160002060000160009054906101000a900473ffffffffffffffffffffffffffffffffffffffff1673ffffffffffffffffffffffffffffffffffffffff163373ffffffffffffffffffffffffffffffffffffffff1614611f0e57600080fd5b6000611f2184611f1c6142c6565b614cca565b11611f2b57600080fd5b611f5b6019600086815260200190815260200160002060020154611f5685611f516142c6565b614cca565b614d06565b6019600086815260200190815260200160002060020181905550611f91601754611f8c85611f876142c6565b614cca565b614d06565b601781905550611fc76019600086815260200190815260200160002060030154611fc285611fbd6117d4565b614cca565b614d06565b6019600086815260200190815260200160002060030181905550600260009054906101000a900473ffffffffffffffffffffffffffffffffffffffff1673ffffffffffffffffffffffffffffffffffffffff166340c10f196019600087815260200190815260200160002060000160009054906101000a900473ffffffffffffffffffffffffffffffffffffffff16856040518363ffffffff1660e01b8152600401808373ffffffffffffffffffffffffffffffffffffffff1673ffffffffffffffffffffffffffffffffffffffff16815260200182815260200192505050600060405180830381600087803b1580156120c057600080fd5b505af11580156120d4573d6000803e3d6000fd5b505050506120e1846146b9565b6120ea57600080fd5b600d54600260009054906101000a900473ffffffffffffffffffffffffffffffffffffffff1673ffffffffffffffffffffffffffffffffffffffff166318160ddd6040518163ffffffff1660e01b815260040160206040518083038186803b15801561215557600080fd5b505afa158015612169573d6000803e3d6000fd5b505050506040513d602081101561217f57600080fd5b8101908080519060200190929190505050111561219b57600080fd5b50505050565b60006121d3826121ce6121b2612aa8565b6121c9670de0b6b3a7640000600202601154614c68565b614d15565b614c82565b9050919050565b60185481565b600c5481565b6000601260009054906101000a900460ff166122b7576122b2612207612aa8565b600860009054906101000a900473ffffffffffffffffffffffffffffffffffffffff1673ffffffffffffffffffffffffffffffffffffffff166357de26a46040518163ffffffff1660e01b815260040160206040518083038186803b15801561226f57600080fd5b505afa158015612283573d6000803e3d6000fd5b505050506040513d602081101561229957600080fd5b810190808051906020019092919050505060001c614d15565b6122bb565b6013545b905090565b601260009054906101000a900460ff1681565b600760009054906101000a900473ffffffffffffffffffffffffffffffffffffffff1681565b60115481565b600061233961232b60196000858152602001908152602001600020600301546123266117d4565b614c82565b612334846147d5565b614c68565b9050919050565b6000806004359150602435905080823373ffffffffffffffffffffffffffffffffffffffff166000357fffffffff00000000000000000000000000000000000000000000000000000000167bffffffffffffffffffffffffffffffffffffffffffffffffffffffff19163460003660405180848152602001806020018281038252848482818152602001925080828437600081840152601f19601f82011690508083019250505094505050505060405180910390a4601260009054906101000a900460ff161561240f57600080fd5b60006124348461242f612421886122ff565b61242a896147d5565b614cca565b614c82565b905061246660196000878152602001908152602001600020600201546124618661245c6142c6565b614cca565b614c68565b601960008781526020019081526020016000206002018190555061249c601754612497866124926142c6565b614cca565b614c68565b6017819055506124db60196000878152602001908152602001600020600301546124d66124c98785614d06565b6124d16117d4565b614cca565b614c68565b6019600087815260200190815260200160002060030181905550600260009054906101000a900473ffffffffffffffffffffffffffffffffffffffff1673ffffffffffffffffffffffffffffffffffffffff16639dc29fac33866040518363ffffffff1660e01b8152600401808373ffffffffffffffffffffffffffffffffffffffff1673ffffffffffffffffffffffffffffffffffffffff16815260200182815260200192505050600060405180830381600087803b15801561259e57600080fd5b505af11580156125b2573d6000803e3d6000fd5b50505050600080600960009054906101000a900473ffffffffffffffffffffffffffffffffffffffff1673ffffffffffffffffffffffffffffffffffffffff166359e02dd76040518163ffffffff1660e01b8152600401604080518083038186803b15801561262057600080fd5b505afa158015612634573d6000803e3d6000fd5b505050506040513d604081101561264a57600080fd5b8101908080519060200190929190805190602001909291905050509150915080801561267957506000801b8214155b156127a257600660009054906101000a900473ffffffffffffffffffffffffffffffffffffffff1673ffffffffffffffffffffffffffffffffffffffff1663bb35783b33600b60009054906101000a900473ffffffffffffffffffffffffffffffffffffffff166126ed878760001c614d55565b6040518463ffffffff1660e01b8152600401808473ffffffffffffffffffffffffffffffffffffffff1673ffffffffffffffffffffffffffffffffffffffff1681526020018373ffffffffffffffffffffffffffffffffffffffff1673ffffffffffffffffffffffffffffffffffffffff1681526020018281526020019350505050600060405180830381600087803b15801561278957600080fd5b505af115801561279d573d6000803e3d6000fd5b505050505b50505050505050565b6127d9336000357fffffffff0000000000000000000000000000000000000000000000000000000016614a0f565b61284b576040517f08c379a00000000000000000000000000000000000000000000000000000000081526004018080602001828103825260148152602001807f617574683a206e6f7420617574686f72697a656400000000000000000000000081525060200191505060405180910390fd5b806000806101000a81548173ffffffffffffffffffffffffffffffffffffffff021916908373ffffffffffffffffffffffffffffffffffffffff1602179055506000809054906101000a900473ffffffffffffffffffffffffffffffffffffffff1673ffffffffffffffffffffffffffffffffffffffff167f1abebea81bfa2637f28358c371278fb15ede7ea8dd28d2e03b112ff6d936ada460405160405180910390a250565b600560009054906101000a900473ffffffffffffffffffffffffffffffffffffffff1681565b6000806004359150602435905080823373ffffffffffffffffffffffffffffffffffffffff166000357fffffffff00000000000000000000000000000000000000000000000000000000167bffffffffffffffffffffffffffffffffffffffffffffffffffffffff19163460003660405180848152602001806020018281038252848482818152602001925080828437600081840152601f19601f82011690508083019250505094505050505060405180910390a4600073ffffffffffffffffffffffffffffffffffffffff16600a60009054906101000a900473ffffffffffffffffffffffffffffffffffffffff1673ffffffffffffffffffffffffffffffffffffffff1614612a2857600080fd5b600073ffffffffffffffffffffffffffffffffffffffff168373ffffffffffffffffffffffffffffffffffffffff161415612a6257600080fd5b82600a60006101000a81548173ffffffffffffffffffffffffffffffffffffffff021916908373ffffffffffffffffffffffffffffffffffffffff160217905550505050565b600080600460009054906101000a900473ffffffffffffffffffffffffffffffffffffffff1673ffffffffffffffffffffffffffffffffffffffff166318160ddd6040518163ffffffff1660e01b815260040160206040518083038186803b158015612b1357600080fd5b505afa158015612b27573d6000803e3d6000fd5b505050506040513d6020811015612b3d57600080fd5b810190808051906020019092919050505014612c0b57612c06612b5e61305a565b600460009054906101000a900473ffffffffffffffffffffffffffffffffffffffff1673ffffffffffffffffffffffffffffffffffffffff166318160ddd6040518163ffffffff1660e01b815260040160206040518083038186803b158015612bc657600080fd5b505afa158015612bda573d6000803e3d6000fd5b505050506040513d6020811015612bf057600080fd5b8101908080519060200190929190505050614cca565b612c19565b6b033b2e3c9fd0803ce80000005b905090565b6000806004359150602435905080823373ffffffffffffffffffffffffffffffffffffffff166000357fffffffff00000000000000000000000000000000000000000000000000000000167bffffffffffffffffffffffffffffffffffffffffffffffffffffffff19163460003660405180848152602001806020018281038252848482818152602001925080828437600081840152601f19601f82011690508083019250505094505050505060405180910390a4601260009054906101000a900460ff161580612cfb5750601260019054906101000a900460ff165b612d0457600080fd5b600560009054906101000a900473ffffffffffffffffffffffffffffffffffffffff1673ffffffffffffffffffffffffffffffffffffffff1663a9059cbb33612d4c866121a1565b6040518363ffffffff1660e01b8152600401808373ffffffffffffffffffffffffffffffffffffffff1673ffffffffffffffffffffffffffffffffffffffff16815260200182815260200192505050602060405180830381600087803b158015612db557600080fd5b505af1158015612dc9573d6000803e3d6000fd5b505050506040513d6020811015612ddf57600080fd5b8101908080519060200190929190505050612df957600080fd5b600460009054906101000a900473ffffffffffffffffffffffffffffffffffffffff1673ffffffffffffffffffffffffffffffffffffffff16639dc29fac33856040518363ffffffff1660e01b8152600401808373ffffffffffffffffffffffffffffffffffffffff1673ffffffffffffffffffffffffffffffffffffffff16815260200182815260200192505050600060405180830381600087803b158015612ea257600080fd5b505af1158015612eb6573d6000803e3d6000fd5b50505050505050565b6000806004359150602435905080823373ffffffffffffffffffffffffffffffffffffffff166000357fffffffff00000000000000000000000000000000000000000000000000000000167bffffffffffffffffffffffffffffffffffffffffffffffffffffffff19163460003660405180848152602001806020018281038252848482818152602001925080828437600081840152601f19601f82011690508083019250505094505050505060405180910390a4612fa2336000357fffffffff0000000000000000000000000000000000000000000000000000000016614a0f565b613014576040517f08c379a00000000000000000000000000000000000000000000000000000000081526004018080602001828103825260148152602001807f617574683a206e6f7420617574686f72697a656400000000000000000000000081525060200191505060405180910390fd5b82600860006101000a81548173ffffffffffffffffffffffffffffffffffffffff021916908373ffffffffffffffffffffffffffffffffffffffff160217905550505050565b6000600560009054906101000a900473ffffffffffffffffffffffffffffffffffffffff1673ffffffffffffffffffffffffffffffffffffffff166370a08231306040518263ffffffff1660e01b8152600401808273ffffffffffffffffffffffffffffffffffffffff1673ffffffffffffffffffffffffffffffffffffffff16815260200191505060206040518083038186803b1580156130fb57600080fd5b505afa15801561310f573d6000803e3d6000fd5b505050506040513d602081101561312557600080fd5b8101908080519060200190929190505050905090565b6000806004359150602435905080823373ffffffffffffffffffffffffffffffffffffffff166000357fffffffff00000000000000000000000000000000000000000000000000000000167bffffffffffffffffffffffffffffffffffffffffffffffffffffffff19163460003660405180848152602001806020018281038252848482818152602001925080828437600081840152601f19601f82011690508083019250505094505050505060405180910390a461321e336000357fffffffff0000000000000000000000000000000000000000000000000000000016614a0f565b613290576040517f08c379a00000000000000000000000000000000000000000000000000000000081526004018080602001828103825260148152602001807f617574683a206e6f7420617574686f72697a656400000000000000000000000081525060200191505060405180910390fd5b601260009054906101000a900460ff161580156132ae575060008414155b6132b757600080fd5b6001601260006101000a81548160ff0219169083151502179055506b033b2e3c9fd0803ce8000000600c81905550670de0b6b3a764000060118190555083601381905550600560009054906101000a900473ffffffffffffffffffffffffffffffffffffffff1673ffffffffffffffffffffffffffffffffffffffff1663a9059cbb600a60009054906101000a900473ffffffffffffffffffffffffffffffffffffffff16856040518363ffffffff1660e01b8152600401808373ffffffffffffffffffffffffffffffffffffffff1673ffffffffffffffffffffffffffffffffffffffff16815260200182815260200192505050602060405180830381600087803b1580156133c657600080fd5b505af11580156133da573d6000803e3d6000fd5b505050506040513d60208110156133f057600080fd5b810190808051906020019092919050505061340a57600080fd5b50505050565b60175481565b600160009054906101000a900473ffffffffffffffffffffffffffffffffffffffff1681565b600260009054906101000a900473ffffffffffffffffffffffffffffffffffffffff1681565b6000806004359150602435905080823373ffffffffffffffffffffffffffffffffffffffff166000357fffffffff00000000000000000000000000000000000000000000000000000000167bffffffffffffffffffffffffffffffffffffffffffffffffffffffff19163460003660405180848152602001806020018281038252848482818152602001925080828437600081840152601f19601f82011690508083019250505094505050505060405180910390a4613545336000357fffffffff0000000000000000000000000000000000000000000000000000000016614a0f565b6135b7576040517f08c379a00000000000000000000000000000000000000000000000000000000081526004018080602001828103825260148152602001807f617574683a206e6f7420617574686f72697a656400000000000000000000000081525060200191505060405180910390fd5b7f63617000000000000000000000000000000000000000000000000000000000008414156135eb5782600d81905550613782565b7f6d61740000000000000000000000000000000000000000000000000000000000841415613638576b033b2e3c9fd0803ce800000083101561362c57600080fd5b82600e81905550613781565b7f746178000000000000000000000000000000000000000000000000000000000084141561368d576b033b2e3c9fd0803ce800000083101561367957600080fd5b61368161378f565b82600f81905550613780565b7f66656500000000000000000000000000000000000000000000000000000000008414156136e2576b033b2e3c9fd0803ce80000008310156136ce57600080fd5b6136d661378f565b8260108190555061377f565b7f617865000000000000000000000000000000000000000000000000000000000084141561372f576b033b2e3c9fd0803ce800000083101561372357600080fd5b82600c8190555061377e565b7f676170000000000000000000000000000000000000000000000000000000000084141561377857670de0b6b3a764000083101561376c57600080fd5b8260118190555061377d565b613783565b5b5b5b5b5b5b50505050565b600f5481565b6000806004359150602435905080823373ffffffffffffffffffffffffffffffffffffffff166000357fffffffff00000000000000000000000000000000000000000000000000000000167bffffffffffffffffffffffffffffffffffffffffffffffffffffffff19163460003660405180848152602001806020018281038252848482818152602001925080828437600081840152601f19601f82011690508083019250505094505050505060405180910390a4601260009054906101000a900460ff161561385e57613a29565b60006138686116c5565b90506000601454820390506000811415613883575050613a29565b8160148190555060006b033b2e3c9fd0803ce800000090506b033b2e3c9fd0803ce8000000600f54146139d257600060155490506138c3600f5484614d8d565b91506138d160155483614c82565b601581905550600260009054906101000a900473ffffffffffffffffffffffffffffffffffffffff1673ffffffffffffffffffffffffffffffffffffffff166340c10f19600a60009054906101000a900473ffffffffffffffffffffffffffffffffffffffff1661394f61394760155486614c68565b601754614c82565b6040518363ffffffff1660e01b8152600401808373ffffffffffffffffffffffffffffffffffffffff1673ffffffffffffffffffffffffffffffffffffffff16815260200182815260200192505050600060405180830381600087803b1580156139b857600080fd5b505af11580156139cc573d6000803e3d6000fd5b50505050505b6b033b2e3c9fd0803ce8000000601054146139ff576139fc816139f760105485614d8d565b614c82565b90505b6b033b2e3c9fd0803ce80000008114613a2557613a1e60165482614c82565b6016819055505b5050505b5050565b6000806004359150602435905080823373ffffffffffffffffffffffffffffffffffffffff166000357fffffffff00000000000000000000000000000000000000000000000000000000167bffffffffffffffffffffffffffffffffffffffffffffffffffffffff19163460003660405180848152602001806020018281038252848482818152602001925080828437600081840152601f19601f82011690508083019250505094505050505060405180910390a46019600085815260200190815260200160002060000160009054906101000a900473ffffffffffffffffffffffffffffffffffffffff1673ffffffffffffffffffffffffffffffffffffffff163373ffffffffffffffffffffffffffffffffffffffff1614613b5057600080fd5b613b70601960008681526020019081526020016000206001015484614c68565b6019600086815260200190815260200160002060010181905550600460009054906101000a900473ffffffffffffffffffffffffffffffffffffffff1673ffffffffffffffffffffffffffffffffffffffff1663b753a98c33856040518363ffffffff1660e01b8152600401808373ffffffffffffffffffffffffffffffffffffffff1673ffffffffffffffffffffffffffffffffffffffff16815260200182815260200192505050600060405180830381600087803b158015613c3357600080fd5b505af1158015613c47573d6000803e3d6000fd5b50505050613c54846146b9565b613c5d57600080fd5b600060196000868152602001908152602001600020600101541480613c9e57506611c37937e080006019600086815260200190815260200160002060010154115b613ca757600080fd5b50505050565b600e5481565b600960009054906101000a900473ffffffffffffffffffffffffffffffffffffffff1681565b601260019054906101000a900460ff1681565b6000806004359150602435905080823373ffffffffffffffffffffffffffffffffffffffff166000357fffffffff00000000000000000000000000000000000000000000000000000000167bffffffffffffffffffffffffffffffffffffffffffffffffffffffff19163460003660405180848152602001806020018281038252848482818152602001925080828437600081840152601f19601f82011690508083019250505094505050505060405180910390a4601260009054906101000a900460ff1615613dbb57600080fd5b613ddb601960008681526020019081526020016000206001015484614d06565b6019600086815260200190815260200160002060010181905550600460009054906101000a900473ffffffffffffffffffffffffffffffffffffffff1673ffffffffffffffffffffffffffffffffffffffff1663f2d5d56b33856040518363ffffffff1660e01b8152600401808373ffffffffffffffffffffffffffffffffffffffff1673ffffffffffffffffffffffffffffffffffffffff16815260200182815260200192505050600060405180830381600087803b158015613e9e57600080fd5b505af1158015613eb2573d6000803e3d6000fd5b50505050600060196000868152602001908152602001600020600101541480613ef757506611c37937e080006019600086815260200190815260200160002060010154115b613f0057600080fd5b50505050565b6000806004359150602435905080823373ffffffffffffffffffffffffffffffffffffffff166000357fffffffff00000000000000000000000000000000000000000000000000000000167bffffffffffffffffffffffffffffffffffffffffffffffffffffffff19163460003660405180848152602001806020018281038252848482818152602001925080828437600081840152601f19601f82011690508083019250505094505050505060405180910390a4601260009054906101000a900460ff1615613fd557600080fd5b6019600084815260200190815260200160002060000160009054906101000a900473ffffffffffffffffffffffffffffffffffffffff1673ffffffffffffffffffffffffffffffffffffffff163373ffffffffffffffffffffffffffffffffffffffff161461404357600080fd5b600061404e846147d5565b146140665761406583614060856147d5565b612340565b5b6000614071846116cd565b146140895761408883614083856116cd565b613a2d565b5b60196000848152602001908152602001600020600080820160006101000a81549073ffffffffffffffffffffffffffffffffffffffff02191690556001820160009055600282016000905560038201600090555050505050565b6000806004359150602435905080823373ffffffffffffffffffffffffffffffffffffffff166000357fffffffff00000000000000000000000000000000000000000000000000000000167bffffffffffffffffffffffffffffffffffffffffffffffffffffffff19163460003660405180848152602001806020018281038252848482818152602001925080828437600081840152601f19601f82011690508083019250505094505050505060405180910390a46019600085815260200190815260200160002060000160009054906101000a900473ffffffffffffffffffffffffffffffffffffffff1673ffffffffffffffffffffffffffffffffffffffff163373ffffffffffffffffffffffffffffffffffffffff161461420657600080fd5b600073ffffffffffffffffffffffffffffffffffffffff168373ffffffffffffffffffffffffffffffffffffffff16141561424057600080fd5b826019600086815260200190815260200160002060000160006101000a81548173ffffffffffffffffffffffffffffffffffffffff021916908373ffffffffffffffffffffffffffffffffffffffff16021790555050505050565b6000809054906101000a900473ffffffffffffffffffffffffffffffffffffffff1681565b60135481565b60006142d061378f565b601554905090565b6000806004359150602435905080823373ffffffffffffffffffffffffffffffffffffffff166000357fffffffff00000000000000000000000000000000000000000000000000000000167bffffffffffffffffffffffffffffffffffffffffffffffffffffffff19163460003660405180848152602001806020018281038252848482818152602001925080828437600081840152601f19601f82011690508083019250505094505050505060405180910390a46143bb336000357fffffffff0000000000000000000000000000000000000000000000000000000016614a0f565b61442d576040517f08c379a00000000000000000000000000000000000000000000000000000000081526004018080602001828103825260148152602001807f617574683a206e6f7420617574686f72697a656400000000000000000000000081525060200191505060405180910390fd5b82600760006101000a81548173ffffffffffffffffffffffffffffffffffffffff021916908373ffffffffffffffffffffffffffffffffffffffff160217905550505050565b600860009054906101000a900473ffffffffffffffffffffffffffffffffffffffff1681565b6000806004359150602435905080823373ffffffffffffffffffffffffffffffffffffffff166000357fffffffff00000000000000000000000000000000000000000000000000000000167bffffffffffffffffffffffffffffffffffffffffffffffffffffffff19163460003660405180848152602001806020018281038252848482818152602001925080828437600081840152601f19601f82011690508083019250505094505050505060405180910390a461457c336000357fffffffff0000000000000000000000000000000000000000000000000000000016614a0f565b6145ee576040517f08c379a00000000000000000000000000000000000000000000000000000000081526004018080602001828103825260148152602001807f617574683a206e6f7420617574686f72697a656400000000000000000000000081525060200191505060405180910390fd5b82600960006101000a81548173ffffffffffffffffffffffffffffffffffffffff021916908373ffffffffffffffffffffffffffffffffffffffff160217905550505050565b60105481565b60006019600083815260200190815260200160002060000160009054906101000a900473ffffffffffffffffffffffffffffffffffffffff169050919050565b600061468f60175461468a6142c6565b614c82565b905090565b60006146b2826146ad6146a5612aa8565b601154614d15565b614c82565b9050919050565b6000806146d56146c76121e6565b6146d0856116cd565b614c82565b9050600061478f600760009054906101000a900473ffffffffffffffffffffffffffffffffffffffff1673ffffffffffffffffffffffffffffffffffffffff1663495d32cb6040518163ffffffff1660e01b8152600401602060405180830381600087803b15801561474657600080fd5b505af115801561475a573d6000803e3d6000fd5b505050506040513d602081101561477057600080fd5b810190808051906020019092919050505061478a866147d5565b614c82565b9050600061479f82600e54614c82565b9050808310159350505050919050565b600b60009054906101000a900473ffffffffffffffffffffffffffffffffffffffff1681565b60006147fe60196000848152602001908152602001600020600201546147f96142c6565b614c82565b9050919050565b60008060006004359150602435905080823373ffffffffffffffffffffffffffffffffffffffff166000357fffffffff00000000000000000000000000000000000000000000000000000000167bffffffffffffffffffffffffffffffffffffffffffffffffffffffff19163460003660405180848152602001806020018281038252848482818152602001925080828437600081840152601f19601f82011690508083019250505094505050505060405180910390a4601260009054906101000a900460ff16156148d657600080fd5b6148e36018546001614d06565b60188190555060185460001b9250336019600085815260200190815260200160002060000160006101000a81548173ffffffffffffffffffffffffffffffffffffffff021916908373ffffffffffffffffffffffffffffffffffffffff1602179055503373ffffffffffffffffffffffffffffffffffffffff167f89b8893b806db50897c8e2362c71571cfaeb9761ee40727f683f1793cda9df16846040518082815260200191505060405180910390a2505090565b600a60009054906101000a900473ffffffffffffffffffffffffffffffffffffffff1681565b60196020528060005260406000206000915090508060000160009054906101000a900473ffffffffffffffffffffffffffffffffffffffff16908060010154908060020154908060030154905084565b60003073ffffffffffffffffffffffffffffffffffffffff168373ffffffffffffffffffffffffffffffffffffffff161415614a4e5760019050614c62565b600160009054906101000a900473ffffffffffffffffffffffffffffffffffffffff1673ffffffffffffffffffffffffffffffffffffffff168373ffffffffffffffffffffffffffffffffffffffff161415614aad5760019050614c62565b600073ffffffffffffffffffffffffffffffffffffffff166000809054906101000a900473ffffffffffffffffffffffffffffffffffffffff1673ffffffffffffffffffffffffffffffffffffffff161415614b0c5760009050614c62565b6000809054906101000a900473ffffffffffffffffffffffffffffffffffffffff1673ffffffffffffffffffffffffffffffffffffffff1663b70096138430856040518463ffffffff1660e01b8152600401808473ffffffffffffffffffffffffffffffffffffffff1673ffffffffffffffffffffffffffffffffffffffff1681526020018373ffffffffffffffffffffffffffffffffffffffff1673ffffffffffffffffffffffffffffffffffffffff168152602001827bffffffffffffffffffffffffffffffffffffffffffffffffffffffff19167bffffffffffffffffffffffffffffffffffffffffffffffffffffffff19168152602001935050505060206040518083038186803b158015614c2457600080fd5b505afa158015614c38573d6000803e3d6000fd5b505050506040513d6020811015614c4e57600080fd5b810190808051906020019092919050505090505b92915050565b6000828284039150811115614c7c57600080fd5b92915050565b60006b033b2e3c9fd0803ce8000000614cba614c9e8585614e10565b60026b033b2e3c9fd0803ce800000081614cb457fe5b04614d06565b81614cc157fe5b04905092915050565b600081614cf6614ce6856b033b2e3c9fd0803ce8000000614e10565b60028581614cf057fe5b04614d06565b81614cfd57fe5b04905092915050565b60008282840191505092915050565b6000670de0b6b3a7640000614d45614d2d8585614e10565b6002670de0b6b3a764000081614d3f57fe5b04614d06565b81614d4c57fe5b04905092915050565b600081614d7d614d6d85670de0b6b3a7640000614e10565b60028581614d7757fe5b04614d06565b81614d8457fe5b04905092915050565b60008060028381614d9a57fe5b061415614db3576b033b2e3c9fd0803ce8000000614db5565b825b905060028281614dc157fe5b0491505b60008214614e0a57614dd78384614c82565b9250600060028381614de557fe5b0614614df857614df58184614c82565b90505b60028281614e0257fe5b049150614dc5565b92915050565b600080821480614e2d5750828283850292508281614e2a57fe5b04145b614e3657600080fd5b9291505056fea265627a7a72315820ddb124d33279a2d4a183109e273cc0474a9c0a1489730b3b3d6983e124b7591a64736f6c63430005100032",
  "source": "/// tub.sol -- simplified CDP engine (baby brother of `vat')\n\n// Copyright (C) 2017  Nikolai Mushegian <nikolai@dapphub.com>\n// Copyright (C) 2017  Daniel Brockman <daniel@dapphub.com>\n// Copyright (C) 2017  Rain Break <rainbreak@riseup.net>\n\n// This program is free software: you can redistribute it and/or modify\n// it under the terms of the GNU General Public License as published by\n// the Free Software Foundation, either version 3 of the License, or\n// (at your option) any later version.\n\n// This program is distributed in the hope that it will be useful,\n// but WITHOUT ANY WARRANTY; without even the implied warranty of\n// MERCHANTABILITY or FITNESS FOR A PARTICULAR PURPOSE.  See the\n// GNU General Public License for more details.\n\n// You should have received a copy of the GNU General Public License\n// along with this program.  If not, see <http://www.gnu.org/licenses/>.\n\npragma solidity ^0.5.4;\n\nimport \"./DS/DSThing.sol\";\nimport \"./DS/DSToken.sol\";\nimport \"./DS/DSValue.sol\";\nimport \"../../exchange/ERC20.sol\";\n\nimport \"./SaiVox.sol\";\n\ncontract SaiTubEvents {\n    event LogNewCup(address indexed lad, bytes32 cup);\n}\n\ncontract SaiTub is DSThing, SaiTubEvents {\n    DSToken  public  sai;  // Stablecoin\n    DSToken  public  sin;  // Debt (negative sai)\n\n    DSToken  public  skr;  // Abstracted collateral\n    ERC20    public  gem;  // Underlying collateral\n\n    DSToken  public  gov;  // Governance token\n\n    SaiVox   public  vox;  // Target price feed\n    DSValue  public  pip;  // Reference price feed\n    DSValue  public  pep;  // Governance price feed\n\n    address  public  tap;  // Liquidator\n    address  public  pit;  // Governance Vault\n\n    uint256  public  axe;  // Liquidation penalty\n    uint256  public  cap;  // Debt ceiling\n    uint256  public  mat;  // Liquidation ratio\n    uint256  public  tax;  // Stability fee\n    uint256  public  fee;  // Governance fee\n    uint256  public  gap;  // Join-Exit Spread\n\n    bool     public  off;  // Cage flag\n    bool     public  out;  // Post cage exit\n\n    uint256  public  fit;  // REF per SKR (just before settlement)\n\n    uint256  public  rho;  // Time of last drip\n    uint256         _chi;  // Accumulated Tax Rates\n    uint256         _rhi;  // Accumulated Tax + Fee Rates\n    uint256  public  rum;  // Total normalised debt\n\n    uint256                   public  cupi;\n    mapping (bytes32 => Cup)  public  cups;\n\n    struct Cup {\n        address  lad;      // CDP owner\n        uint256  ink;      // Locked collateral (in SKR)\n        uint256  art;      // Outstanding normalised debt (tax only)\n        uint256  ire;      // Outstanding normalised debt\n    }\n\n    function lad(bytes32 cup) public view returns (address) {\n        return cups[cup].lad;\n    }\n    function ink(bytes32 cup) public view returns (uint) {\n        return cups[cup].ink;\n    }\n    function tab(bytes32 cup) public returns (uint) {\n        return rmul(cups[cup].art, chi());\n    }\n    function rap(bytes32 cup) public returns (uint) {\n        return sub(rmul(cups[cup].ire, rhi()), tab(cup));\n    }\n\n    // Total CDP Debt\n    function din() public returns (uint) {\n        return rmul(rum, chi());\n    }\n    // Backing collateral\n    function air() public view returns (uint) {\n        return skr.balanceOf(address(this));\n    }\n    // Raw collateral\n    function pie() public view returns (uint) {\n        return gem.balanceOf(address(this));\n    }\n\n    //------------------------------------------------------------------\n\n    constructor(\n        DSToken  sai_,\n        DSToken  sin_,\n        DSToken  skr_,\n        ERC20    gem_,\n        DSToken  gov_,\n        DSValue  pip_,\n        DSValue  pep_,\n        SaiVox   vox_,\n        address  pit_\n    ) public {\n        gem = gem_;\n        skr = skr_;\n\n        sai = sai_;\n        sin = sin_;\n\n        gov = gov_;\n        pit = pit_;\n\n        pip = pip_;\n        pep = pep_;\n        vox = vox_;\n\n        axe = RAY;\n        mat = RAY;\n        tax = RAY;\n        fee = RAY;\n        gap = WAD;\n\n        _chi = RAY;\n        _rhi = RAY;\n\n        rho = era();\n    }\n\n    function era() public view returns (uint) {\n        return block.timestamp;\n    }\n\n    //--Risk-parameter-config-------------------------------------------\n\n    function mold(bytes32 param, uint val) public payable note auth {\n        if      (param == 'cap') cap = val;\n        else if (param == 'mat') { require(val >= RAY); mat = val; }\n        else if (param == 'tax') { require(val >= RAY); drip(); tax = val; }\n        else if (param == 'fee') { require(val >= RAY); drip(); fee = val; }\n        else if (param == 'axe') { require(val >= RAY); axe = val; }\n        else if (param == 'gap') { require(val >= WAD); gap = val; }\n        else return;\n    }\n\n    //--Price-feed-setters----------------------------------------------\n\n    function setPip(DSValue pip_) public payable note auth {\n        pip = pip_;\n    }\n    function setPep(DSValue pep_) public payable note auth {\n        pep = pep_;\n    }\n    function setVox(SaiVox vox_) public payable note auth {\n        vox = vox_;\n    }\n\n    //--Tap-setter------------------------------------------------------\n    function turn(address tap_) public payable note {\n        require(tap  == address(0));\n        require(tap_ != address(0));\n        tap = tap_;\n    }\n\n    //--Collateral-wrapper----------------------------------------------\n\n    // Wrapper ratio (gem per skr)\n    function per() public view returns (uint ray) {\n        return skr.totalSupply() == 0 ? RAY : rdiv(pie(), skr.totalSupply());\n    }\n    // Join price (gem per skr)\n    function ask(uint wad) public view returns (uint) {\n        return rmul(wad, wmul(per(), gap));\n    }\n    // Exit price (gem per skr)\n    function bid(uint wad) public view returns (uint) {\n        return rmul(wad, wmul(per(), sub(2 * WAD, gap)));\n    }\n    function join(uint wad) public payable note {\n        require(!off);\n        require(ask(wad) > 0);\n        require(gem.transferFrom(msg.sender, address(this), ask(wad)));\n        skr.mint(msg.sender, wad);\n    }\n    function exit(uint wad) public payable note {\n        require(!off || out);\n        require(gem.transfer(msg.sender, bid(wad)));\n        skr.burn(msg.sender, wad);\n    }\n\n    //--Stability-fee-accumulation--------------------------------------\n\n    // Accumulated Rates\n    function chi() public returns (uint) {\n        drip();\n        return _chi;\n    }\n    function rhi() public returns (uint) {\n        drip();\n        return _rhi;\n    }\n    function drip() public payable note {\n        if (off) return;\n\n        uint256 rho_ = era();\n        uint256 age = rho_ - rho;\n        if (age == 0) return;    // optimised\n        rho = rho_;\n\n        uint256 inc = RAY;\n\n        if (tax != RAY) {  // optimised\n            uint256 _chi_ = _chi;\n            inc = rpow(tax, age);\n            _chi = rmul(_chi, inc);\n            sai.mint(tap, rmul(sub(_chi, _chi_), rum));\n        }\n\n        // optimised\n        if (fee != RAY) inc = rmul(inc, rpow(fee, age));\n        if (inc != RAY) _rhi = rmul(_rhi, inc);\n    }\n\n\n    //--CDP-risk-indicator----------------------------------------------\n\n    // Abstracted collateral price (ref per skr)\n    function tag() public view returns (uint wad) {\n        return off ? fit : wmul(per(), uint(pip.read())); // (ETH/PETH) * (USD/ETH) = USD/PETH\n    }\n    // Returns true if cup is well-collateralized\n    function safe(bytes32 cup) public returns (bool) {\n        uint256 pro = rmul(tag(), ink(cup));\n        uint256 con = rmul(vox.par(), tab(cup));\n        uint256 min = rmul(con, mat);\n        return pro >= min;\n    }\n\n\n    //--CDP-operations--------------------------------------------------\n\n    function open() public payable note returns (bytes32 cup) {\n        require(!off);\n        cupi = add(cupi, 1);\n        cup = bytes32(cupi);\n        cups[cup].lad = msg.sender;\n        emit LogNewCup(msg.sender, cup);\n    }\n    function give(bytes32 cup, address guy) public payable note {\n        require(msg.sender == cups[cup].lad);\n        require(guy != address(0));\n        cups[cup].lad = guy;\n    }\n\n    function lock(bytes32 cup, uint wad) public payable note {\n        require(!off);\n        cups[cup].ink = add(cups[cup].ink, wad);\n        skr.pull(msg.sender, wad);\n        require(cups[cup].ink == 0 || cups[cup].ink > 0.005 ether);\n    }\n    function free(bytes32 cup, uint wad) public payable note {\n        require(msg.sender == cups[cup].lad);\n        cups[cup].ink = sub(cups[cup].ink, wad);\n        skr.push(msg.sender, wad);\n        require(safe(cup));\n        require(cups[cup].ink == 0 || cups[cup].ink > 0.005 ether);\n    }\n\n    function draw(bytes32 cup, uint wad) public payable note {\n        require(!off);\n        require(msg.sender == cups[cup].lad);\n        require(rdiv(wad, chi()) > 0);\n        cups[cup].art = add(cups[cup].art, rdiv(wad, chi()));\n        rum = add(rum, rdiv(wad, chi()));\n\n        cups[cup].ire = add(cups[cup].ire, rdiv(wad, rhi()));\n        sai.mint(cups[cup].lad, wad);\n\n        require(safe(cup));\n        require(sai.totalSupply() <= cap);\n    }\n    function wipe(bytes32 cup, uint wad) public payable note {\n        require(!off);\n\n        uint256 owe = rmul(wad, rdiv(rap(cup), tab(cup)));\n        \n        cups[cup].art = sub(cups[cup].art, rdiv(wad, chi()));\n        rum = sub(rum, rdiv(wad, chi()));\n\n        cups[cup].ire = sub(cups[cup].ire, rdiv(add(wad, owe), rhi()));\n        sai.burn(msg.sender, wad);\n\n        (bytes32 val, bool ok) = pep.peek();\n        if (ok && val != 0) gov.move(msg.sender, pit, wdiv(owe, uint(val)));\n    }\n\n    function shut(bytes32 cup) public payable note {\n        require(!off);\n        require(msg.sender == cups[cup].lad);\n        if (tab(cup) != 0) wipe(cup, tab(cup));\n        if (ink(cup) != 0) free(cup, ink(cup));\n        delete cups[cup];\n    }\n\n    function bite(bytes32 cup) public payable note {\n        require(!safe(cup) || off);\n\n        // Take on all of the debt, except unpaid fees\n        uint256 rue = tab(cup);\n        sin.mint(tap, rue);\n        rum = sub(rum, cups[cup].art);\n        cups[cup].art = 0;\n        cups[cup].ire = 0;\n\n        // Amount owed in SKR, including liquidation penalty\n        uint256 owe = rdiv(rmul(rmul(rue, axe), vox.par()), tag());\n\n        if (owe > cups[cup].ink) {\n            owe = cups[cup].ink;\n        }\n\n        skr.push(tap, owe);\n        cups[cup].ink = sub(cups[cup].ink, owe);\n    }\n\n    //------------------------------------------------------------------\n\n    function cage(uint fit_, uint jam) public payable note auth {\n        require(!off && fit_ != 0);\n        off = true;\n        axe = RAY;\n        gap = WAD;\n        fit = fit_;         // ref per skr\n        require(gem.transfer(tap, jam));\n    }\n    function flow() public payable note auth {\n        require(off);\n        out = true;\n    }\n}\n",
  "sourcePath": "/Users/name/dev/argent-contracts-release-1.5.0/contracts/test/maker/SaiTub.sol",
  "compiler": {
    "name": "solc",
    "version": "0.5.16+commit.9c3226ce.Emscripten.clang"
  },
  "schemaVersion": "3.0.23",
  "updatedAt": "2020-03-31T19:53:31.604Z",
  "devdoc": {
    "methods": {}
  },
  "userdoc": {
    "methods": {}
  }
}