{
  "contractName": "SaiVox",
  "abi": [
    {
      "inputs": [
        {
          "internalType": "uint256",
          "name": "par_",
          "type": "uint256"
        }
      ],
      "payable": false,
      "stateMutability": "nonpayable",
      "type": "constructor"
    },
    {
      "anonymous": false,
      "inputs": [
        {
          "indexed": true,
          "internalType": "address",
          "name": "authority",
          "type": "address"
        }
      ],
      "name": "LogSetAuthority",
      "type": "event"
    },
    {
      "anonymous": false,
      "inputs": [
        {
          "indexed": true,
          "internalType": "address",
          "name": "owner",
          "type": "address"
        }
      ],
      "name": "LogSetOwner",
      "type": "event"
    },
    {
      "constant": true,
      "inputs": [],
      "name": "authority",
      "outputs": [
        {
          "internalType": "contract DSAuthority",
          "name": "",
          "type": "address"
        }
      ],
      "payable": false,
      "stateMutability": "view",
      "type": "function"
    },
    {
      "constant": true,
      "inputs": [],
      "name": "fix",
      "outputs": [
        {
          "internalType": "uint256",
          "name": "",
          "type": "uint256"
        }
      ],
      "payable": false,
      "stateMutability": "view",
      "type": "function"
    },
    {
      "constant": true,
      "inputs": [],
      "name": "how",
      "outputs": [
        {
          "internalType": "uint256",
          "name": "",
          "type": "uint256"
        }
      ],
      "payable": false,
      "stateMutability": "view",
      "type": "function"
    },
    {
      "constant": true,
      "inputs": [],
      "name": "owner",
      "outputs": [
        {
          "internalType": "address",
          "name": "",
          "type": "address"
        }
      ],
      "payable": false,
      "stateMutability": "view",
      "type": "function"
    },
    {
      "constant": false,
      "inputs": [
        {
          "internalType": "contract DSAuthority",
          "name": "authority_",
          "type": "address"
        }
      ],
      "name": "setAuthority",
      "outputs": [],
      "payable": false,
      "stateMutability": "nonpayable",
      "type": "function"
    },
    {
      "constant": false,
      "inputs": [
        {
          "internalType": "address",
          "name": "owner_",
          "type": "address"
        }
      ],
      "name": "setOwner",
      "outputs": [],
      "payable": false,
      "stateMutability": "nonpayable",
      "type": "function"
    },
    {
      "constant": true,
      "inputs": [],
      "name": "tau",
      "outputs": [
        {
          "internalType": "uint256",
          "name": "",
          "type": "uint256"
        }
      ],
      "payable": false,
      "stateMutability": "view",
      "type": "function"
    },
    {
      "constant": true,
      "inputs": [],
      "name": "era",
      "outputs": [
        {
          "internalType": "uint256",
          "name": "",
          "type": "uint256"
        }
      ],
      "payable": false,
      "stateMutability": "view",
      "type": "function"
    },
    {
      "constant": false,
      "inputs": [
        {
          "internalType": "bytes32",
          "name": "param",
          "type": "bytes32"
        },
        {
          "internalType": "uint256",
          "name": "val",
          "type": "uint256"
        }
      ],
      "name": "mold",
      "outputs": [],
      "payable": false,
      "stateMutability": "nonpayable",
      "type": "function"
    },
    {
      "constant": false,
      "inputs": [],
      "name": "par",
      "outputs": [
        {
          "internalType": "uint256",
          "name": "",
          "type": "uint256"
        }
      ],
      "payable": false,
      "stateMutability": "nonpayable",
      "type": "function"
    },
    {
      "constant": false,
      "inputs": [],
      "name": "way",
      "outputs": [
        {
          "internalType": "uint256",
          "name": "",
          "type": "uint256"
        }
      ],
      "payable": false,
      "stateMutability": "nonpayable",
      "type": "function"
    },
    {
      "constant": false,
      "inputs": [
        {
          "internalType": "uint256",
          "name": "ray",
          "type": "uint256"
        }
      ],
      "name": "tell",
      "outputs": [],
      "payable": false,
      "stateMutability": "nonpayable",
      "type": "function"
    },
    {
      "constant": false,
      "inputs": [
        {
          "internalType": "uint256",
          "name": "ray",
          "type": "uint256"
        }
      ],
      "name": "tune",
      "outputs": [],
      "payable": false,
      "stateMutability": "nonpayable",
      "type": "function"
    },
    {
      "constant": false,
      "inputs": [],
      "name": "prod",
      "outputs": [],
      "payable": false,
      "stateMutability": "nonpayable",
      "type": "function"
    }
  ],
  "bytecode": "0x608060405234801561001057600080fd5b50604051610ee1380380610ee18339818101604052602081101561003357600080fd5b810190808051906020019092919050505033600160006101000a81548173ffffffffffffffffffffffffffffffffffffffff021916908373ffffffffffffffffffffffffffffffffffffffff1602179055503373ffffffffffffffffffffffffffffffffffffffff167fce241d7ca1f669fee44b6fc00b8eba2df3bb514eed0f6f668f8f89096e81ed9460405160405180910390a28060048190556002819055506b033b2e3c9fd0803ce80000006003819055506100f561010160201b60201c565b60068190555050610109565b600042905090565b610dc9806101186000396000f3fe608060405234801561001057600080fd5b50600436106100ea5760003560e01c80637a9e5e4b1161008c578063a551878e11610066578063a551878e146102a9578063becda0ea146102c7578063bf7e214f146102f5578063cfc4af551461033f576100ea565b80637a9e5e4b146101e35780638da5cb5b1461022757806392b0d72114610271576100ea565b80633a4a4233116100c85780633a4a42331461015b578063495d32cb1461017957806355deb8fc146101975780635d6542af146101c5576100ea565b80630302c688146100ef57806313af4035146100f9578063143e55e01461013d575b600080fd5b6100f761035d565b005b61013b6004803603602081101561010f57600080fd5b81019080803573ffffffffffffffffffffffffffffffffffffffff16906020019092919050505061040c565b005b610145610555565b6040518082815260200191505060405180910390f35b61016361055d565b6040518082815260200191505060405180910390f35b610181610563565b6040518082815260200191505060405180910390f35b6101c3600480360360208110156101ad57600080fd5b8101908080359060200190929190505050610575565b005b6101cd61061f565b6040518082815260200191505060405180910390f35b610225600480360360208110156101f957600080fd5b81019080803573ffffffffffffffffffffffffffffffffffffffff169060200190929190505050610631565b005b61022f610778565b604051808273ffffffffffffffffffffffffffffffffffffffff1673ffffffffffffffffffffffffffffffffffffffff16815260200191505060405180910390f35b6102a76004803603604081101561028757600080fd5b81019080803590602001909291908035906020019092919050505061079e565b005b6102b1610872565b6040518082815260200191505060405180910390f35b6102f3600480360360208110156102dd57600080fd5b8101908080359060200190929190505050610878565b005b6102fd610922565b604051808273ffffffffffffffffffffffffffffffffffffffff1673ffffffffffffffffffffffffffffffffffffffff16815260200191505060405180910390f35b610347610947565b6040518082815260200191505060405180910390f35b600060065461036a610555565b039050600081141561037c575061040a565b610384610555565b6006819055506b033b2e3c9fd0803ce8000000600354146103bd576103b66002546103b16003548461094d565b6109d0565b6002819055505b600060055414156103ce575061040a565b600081600554029050610401600254600454106103ee57816000036103f0565b815b6103fb600354610a18565b01610a6e565b60038190555050505b565b61043a336000357fffffffff0000000000000000000000000000000000000000000000000000000016610ac4565b6104ac576040517f08c379a00000000000000000000000000000000000000000000000000000000081526004018080602001828103825260148152602001807f617574683a206e6f7420617574686f72697a656400000000000000000000000081525060200191505060405180910390fd5b80600160006101000a81548173ffffffffffffffffffffffffffffffffffffffff021916908373ffffffffffffffffffffffffffffffffffffffff160217905550600160009054906101000a900473ffffffffffffffffffffffffffffffffffffffff1673ffffffffffffffffffffffffffffffffffffffff167fce241d7ca1f669fee44b6fc00b8eba2df3bb514eed0f6f668f8f89096e81ed9460405160405180910390a250565b600042905090565b60055481565b600061056d61035d565b600254905090565b6105a3336000357fffffffff0000000000000000000000000000000000000000000000000000000016610ac4565b610615576040517f08c379a00000000000000000000000000000000000000000000000000000000081526004018080602001828103825260148152602001807f617574683a206e6f7420617574686f72697a656400000000000000000000000081525060200191505060405180910390fd5b8060048190555050565b600061062961035d565b600354905090565b61065f336000357fffffffff0000000000000000000000000000000000000000000000000000000016610ac4565b6106d1576040517f08c379a00000000000000000000000000000000000000000000000000000000081526004018080602001828103825260148152602001807f617574683a206e6f7420617574686f72697a656400000000000000000000000081525060200191505060405180910390fd5b806000806101000a81548173ffffffffffffffffffffffffffffffffffffffff021916908373ffffffffffffffffffffffffffffffffffffffff1602179055506000809054906101000a900473ffffffffffffffffffffffffffffffffffffffff1673ffffffffffffffffffffffffffffffffffffffff167f1abebea81bfa2637f28358c371278fb15ede7ea8dd28d2e03b112ff6d936ada460405160405180910390a250565b600160009054906101000a900473ffffffffffffffffffffffffffffffffffffffff1681565b6107cc336000357fffffffff0000000000000000000000000000000000000000000000000000000016610ac4565b61083e576040517f08c379a00000000000000000000000000000000000000000000000000000000081526004018080602001828103825260148152602001807f617574683a206e6f7420617574686f72697a656400000000000000000000000081525060200191505060405180910390fd5b7f776179000000000000000000000000000000000000000000000000000000000082141561086e57806003819055505b5050565b60045481565b6108a6336000357fffffffff0000000000000000000000000000000000000000000000000000000016610ac4565b610918576040517f08c379a00000000000000000000000000000000000000000000000000000000081526004018080602001828103825260148152602001807f617574683a206e6f7420617574686f72697a656400000000000000000000000081525060200191505060405180910390fd5b8060058190555050565b6000809054906101000a900473ffffffffffffffffffffffffffffffffffffffff1681565b60065481565b6000806002838161095a57fe5b061415610973576b033b2e3c9fd0803ce8000000610975565b825b90506002828161098157fe5b0491505b600082146109ca5761099783846109d0565b92506000600283816109a557fe5b06146109b8576109b581846109d0565b90505b600282816109c257fe5b049150610985565b92915050565b60006b033b2e3c9fd0803ce8000000610a086109ec8585610d1d565b60026b033b2e3c9fd0803ce800000081610a0257fe5b04610d49565b81610a0f57fe5b04905092915050565b60006b033b2e3c9fd0803ce8000000821015610a5757610a446b033b2e3c9fd0803ce800000083610d58565b6b033b2e3c9fd0803ce800000003610a67565b6b033b2e3c9fd0803ce800000082035b9050919050565b60008082600f0b1215610aaa57610aa56b033b2e3c9fd0803ce800000083600003600f0b6b033b2e3c9fd0803ce800000001610d58565b610abd565b6b033b2e3c9fd0803ce800000082600f0b015b9050919050565b60003073ffffffffffffffffffffffffffffffffffffffff168373ffffffffffffffffffffffffffffffffffffffff161415610b035760019050610d17565b600160009054906101000a900473ffffffffffffffffffffffffffffffffffffffff1673ffffffffffffffffffffffffffffffffffffffff168373ffffffffffffffffffffffffffffffffffffffff161415610b625760019050610d17565b600073ffffffffffffffffffffffffffffffffffffffff166000809054906101000a900473ffffffffffffffffffffffffffffffffffffffff1673ffffffffffffffffffffffffffffffffffffffff161415610bc15760009050610d17565b6000809054906101000a900473ffffffffffffffffffffffffffffffffffffffff1673ffffffffffffffffffffffffffffffffffffffff1663b70096138430856040518463ffffffff1660e01b8152600401808473ffffffffffffffffffffffffffffffffffffffff1673ffffffffffffffffffffffffffffffffffffffff1681526020018373ffffffffffffffffffffffffffffffffffffffff1673ffffffffffffffffffffffffffffffffffffffff168152602001827bffffffffffffffffffffffffffffffffffffffffffffffffffffffff19167bffffffffffffffffffffffffffffffffffffffffffffffffffffffff19168152602001935050505060206040518083038186803b158015610cd957600080fd5b505afa158015610ced573d6000803e3d6000fd5b505050506040513d6020811015610d0357600080fd5b810190808051906020019092919050505090505b92915050565b600080821480610d3a5750828283850292508281610d3757fe5b04145b610d4357600080fd5b92915050565b60008282840191505092915050565b600081610d84610d74856b033b2e3c9fd0803ce8000000610d1d565b60028581610d7e57fe5b04610d49565b81610d8b57fe5b0490509291505056fea265627a7a72315820098e0f174e9c060c7dfe1f8d6058b071c355ebdba414a8035df87d745109b73a64736f6c63430005100032",
  "source": "/// vox.sol -- target price feed\n\n// Copyright (C) 2016, 2017  Nikolai Mushegian <nikolai@dapphub.com>\n// Copyright (C) 2016, 2017  Daniel Brockman <daniel@dapphub.com>\n// Copyright (C) 2017        Rain Break <rainbreak@riseup.net>\n\n// This program is free software: you can redistribute it and/or modify\n// it under the terms of the GNU General Public License as published by\n// the Free Software Foundation, either version 3 of the License, or\n// (at your option) any later version.\n\n// This program is distributed in the hope that it will be useful,\n// but WITHOUT ANY WARRANTY; without even the implied warranty of\n// MERCHANTABILITY or FITNESS FOR A PARTICULAR PURPOSE.  See the\n// GNU General Public License for more details.\n\n// You should have received a copy of the GNU General Public License\n// along with this program.  If not, see <http://www.gnu.org/licenses/>.\n\npragma solidity ^0.5.4;\n\nimport \"./DS/DSMath.sol\";\nimport \"./DS/DSAuth.sol\";\n\ncontract SaiVox is DSAuth, DSMath {\n    uint256  _par;\n    uint256  _way;\n\n    uint256  public  fix;\n    uint256  public  how;\n    uint256  public  tau;\n\n    constructor(uint par_) public {\n        _par = fix = par_;\n        _way = RAY;\n        tau  = era();\n    }\n\n    function era() public view returns (uint) {\n        return block.timestamp;\n    }\n\n    function mold(bytes32 param, uint val) public auth {\n        if (param == 'way') _way = val;\n    }\n\n    // Dai Target Price (ref per dai)\n    function par() public returns (uint) {\n        prod();\n        return _par;\n    }\n    function way() public returns (uint) {\n        prod();\n        return _way;\n    }\n\n    function tell(uint256 ray) public auth {\n        fix = ray;\n    }\n    function tune(uint256 ray) public auth {\n        how = ray;\n    }\n\n    function prod() public {\n        uint age = era() - tau;\n        if (age == 0) return;  // optimised\n        tau = era();\n\n        if (_way != RAY) _par = rmul(_par, rpow(_way, age));  // optimised\n\n        if (how == 0) return;  // optimised\n        int128 wag = int128(how * age);\n        _way = inj(prj(_way) + (fix < _par ? wag : -wag));\n    }\n\n    function inj(int128 x) internal pure returns (uint256) {\n        return x >= 0 ? uint256(x) + RAY\n            : rdiv(RAY, RAY + uint256(-x));\n    }\n    function prj(uint256 x) internal pure returns (int128) {\n        return x >= RAY ? int128(x - RAY)\n            : int128(RAY) - int128(rdiv(RAY, x));\n    }\n}\n",
  "sourcePath": "/Users/name/dev/argent-contracts-release-1.5.0/contracts/test/maker/SaiVox.sol",
  "compiler": {
    "name": "solc",
    "version": "0.5.16+commit.9c3226ce.Emscripten.clang"
  },
  "schemaVersion": "3.0.23",
  "updatedAt": "2020-03-31T19:52:06.962Z",
  "devdoc": {
    "methods": {}
  },
  "userdoc": {
    "methods": {}
  }
}