{
  "contractName": "TestDapp",
  "abi": [
    {
      "constant": false,
      "inputs": [],
      "name": "noReturn",
      "outputs": [],
      "payable": false,
      "stateMutability": "nonpayable",
      "type": "function"
    },
    {
      "constant": true,
      "inputs": [
        {
          "internalType": "uint256",
          "name": "_i",
          "type": "uint256"
        }
      ],
      "name": "uintReturn",
      "outputs": [
        {
          "internalType": "uint256",
          "name": "",
          "type": "uint256"
        }
      ],
      "payable": false,
      "stateMutability": "pure",
      "type": "function"
    },
    {
      "constant": true,
      "inputs": [
        {
          "internalType": "string",
          "name": "reason",
          "type": "string"
        }
      ],
      "name": "doFail",
      "outputs": [],
      "payable": false,
      "stateMutability": "pure",
      "type": "function"
    }
  ],
  "bytecode": "0x608060405234801561001057600080fd5b506101b5806100206000396000f3fe608060405234801561001057600080fd5b50600436106100415760003560e01c806331794254146100465780633ed63217146100505780635b72e8c3146100c9575b600080fd5b61004e61010b565b005b6100c76004803603602081101561006657600080fd5b810190808035906020019064010000000081111561008357600080fd5b82018360208201111561009557600080fd5b803590602001918460018302840111640100000000831117156100b757600080fd5b909192939192939050505061010d565b005b6100f5600480360360208110156100df57600080fd5b8101908080359060200190929190505050610176565b6040518082815260200191505060405180910390f35b565b81816040517f08c379a000000000000000000000000000000000000000000000000000000000815260040180806020018281038252848482818152602001925080828437600081840152601f19601f820116905080830192505050935050505060405180910390fd5b600081905091905056fea265627a7a723158201602fb8b0bef348047f70f36c330af0adf31de463701d450db9004cdd8838e4664736f6c63430005100032",
  "source": "pragma solidity ^0.5.4;\n\ncontract TestDapp {\n    function noReturn() external {}\n    function uintReturn(uint256 _i) external pure returns (uint256) { return _i; }\n    function doFail(string calldata reason) external pure { revert(reason); }\n}",
  "sourcePath": "/Users/name/dev/argent-contracts-release-1.5.0/contracts/test/argent/utils/TestDapp.sol",
  "compiler": {
    "name": "solc",
    "version": "0.5.16+commit.9c3226ce.Emscripten.clang"
  },
  "schemaVersion": "3.0.23",
  "updatedAt": "2020-03-31T19:52:06.646Z",
  "devdoc": {
    "methods": {}
  },
  "userdoc": {
    "methods": {}
  }
}