{
  "contractName": "TestContract",
  "abi": [
    {
      "anonymous": false,
      "inputs": [
        {
          "indexed": true,
          "internalType": "uint256",
          "name": "_state",
          "type": "uint256"
        },
        {
          "indexed": true,
          "internalType": "uint256",
          "name": "_value",
          "type": "uint256"
        }
      ],
      "name": "StateSet",
      "type": "event"
    },
    {
      "constant": true,
      "inputs": [],
      "name": "state",
      "outputs": [
        {
          "internalType": "uint256",
          "name": "",
          "type": "uint256"
        }
      ],
      "payable": false,
      "stateMutability": "view",
      "type": "function"
    },
    {
      "constant": false,
      "inputs": [
        {
          "internalType": "uint256",
          "name": "_state",
          "type": "uint256"
        }
      ],
      "name": "setState",
      "outputs": [],
      "payable": true,
      "stateMutability": "payable",
      "type": "function"
    },
    {
      "constant": false,
      "inputs": [
        {
          "internalType": "uint256",
          "name": "_state",
          "type": "uint256"
        },
        {
          "internalType": "address",
          "name": "_erc20",
          "type": "address"
        },
        {
          "internalType": "uint256",
          "name": "_amount",
          "type": "uint256"
        }
      ],
      "name": "setStateAndPayToken",
      "outputs": [],
      "payable": false,
      "stateMutability": "nonpayable",
      "type": "function"
    }
  ],
  "bytecode": "0x608060405234801561001057600080fd5b5061029b806100206000396000f3fe6080604052600436106100345760003560e01c806316f3e90114610039578063a9e966b71461009e578063c19d93fb146100cc575b600080fd5b34801561004557600080fd5b5061009c6004803603606081101561005c57600080fd5b8101908080359060200190929190803573ffffffffffffffffffffffffffffffffffffffff169060200190929190803590602001909291905050506100f7565b005b6100ca600480360360208110156100b457600080fd5b8101908080359060200190929190505050610228565b005b3480156100d857600080fd5b506100e1610260565b6040518082815260200191505060405180910390f35b8173ffffffffffffffffffffffffffffffffffffffff166323b872dd3330846040518463ffffffff1660e01b8152600401808473ffffffffffffffffffffffffffffffffffffffff1673ffffffffffffffffffffffffffffffffffffffff1681526020018373ffffffffffffffffffffffffffffffffffffffff1673ffffffffffffffffffffffffffffffffffffffff1681526020018281526020019350505050602060405180830381600087803b1580156101b257600080fd5b505af11580156101c6573d6000803e3d6000fd5b505050506040513d60208110156101dc57600080fd5b8101908080519060200190929190505050508260008190555080837f110bf4f070eb65f04035094f96fd5ac2398196dffe9a63f8e5497584b265954d60405160405180910390a3505050565b8060008190555034817f110bf4f070eb65f04035094f96fd5ac2398196dffe9a63f8e5497584b265954d60405160405180910390a350565b6000548156fea265627a7a72315820568a2d216d79290548dc92d15515e271e351a57974afc43b14b2de2b16828eef64736f6c63430005100032",
  "source": "pragma solidity ^0.5.4;\n\nimport \"openzeppelin-solidity/contracts/token/ERC20/ERC20.sol\";\n\n/**\n * @title TestContract\n * @dev Represents an arbitrary contract. \n * @author Olivier Vdb - <olivier@argent.im>\n */\ncontract TestContract {\n\n   \tuint256 public state;\n\n    event StateSet(uint256 indexed _state, uint256 indexed _value);\n\n    function setState(uint256 _state) public payable {\n        state = _state;\n        emit StateSet(_state, msg.value);\n    }\n\n    function setStateAndPayToken(uint256 _state, address _erc20, uint256 _amount) public {\n        ERC20(_erc20).transferFrom(msg.sender, address(this), _amount);\n        state = _state;\n        emit StateSet(_state, _amount);\n    }\n}",
  "sourcePath": "/Users/name/dev/argent-contracts-release-1.5.0/contracts/test/TestContract.sol",
  "compiler": {
    "name": "solc",
    "version": "0.5.16+commit.9c3226ce.Emscripten.clang"
  },
  "schemaVersion": "3.0.23",
  "updatedAt": "2020-03-31T19:52:06.610Z",
  "devdoc": {
    "author": "Olivier Vdb - <olivier@argent.im>",
    "details": "Represents an arbitrary contract. ",
    "methods": {},
    "title": "TestContract"
  },
  "userdoc": {
    "methods": {}
  }
}