{
  "contractName": "TokenExchanger",
  "abi": [
    {
      "inputs": [
        {
          "internalType": "contract ModuleRegistry",
          "name": "_registry",
          "type": "address"
        },
        {
          "internalType": "contract GuardianStorage",
          "name": "_guardianStorage",
          "type": "address"
        },
        {
          "internalType": "address",
          "name": "_kyber",
          "type": "address"
        },
        {
          "internalType": "address",
          "name": "_feeCollector",
          "type": "address"
        },
        {
          "internalType": "uint256",
          "name": "_feeRatio",
          "type": "uint256"
        }
      ],
      "payable": false,
      "stateMutability": "nonpayable",
      "type": "constructor"
    },
    {
      "anonymous": false,
      "inputs": [
        {
          "indexed": false,
          "internalType": "bytes32",
          "name": "name",
          "type": "bytes32"
        }
      ],
      "name": "ModuleCreated",
      "type": "event"
    },
    {
      "anonymous": false,
      "inputs": [
        {
          "indexed": false,
          "internalType": "address",
          "name": "wallet",
          "type": "address"
        }
      ],
      "name": "ModuleInitialised",
      "type": "event"
    },
    {
      "anonymous": false,
      "inputs": [
        {
          "indexed": true,
          "internalType": "address",
          "name": "wallet",
          "type": "address"
        },
        {
          "indexed": false,
          "internalType": "address",
          "name": "srcToken",
          "type": "address"
        },
        {
          "indexed": false,
          "internalType": "uint256",
          "name": "srcAmount",
          "type": "uint256"
        },
        {
          "indexed": false,
          "internalType": "address",
          "name": "destToken",
          "type": "address"
        },
        {
          "indexed": false,
          "internalType": "uint256",
          "name": "destAmount",
          "type": "uint256"
        }
      ],
      "name": "TokenExchanged",
      "type": "event"
    },
    {
      "anonymous": false,
      "inputs": [
        {
          "indexed": true,
          "internalType": "address",
          "name": "wallet",
          "type": "address"
        },
        {
          "indexed": true,
          "internalType": "bool",
          "name": "success",
          "type": "bool"
        },
        {
          "indexed": false,
          "internalType": "bytes32",
          "name": "signedHash",
          "type": "bytes32"
        }
      ],
      "name": "TransactionExecuted",
      "type": "event"
    },
    {
      "constant": false,
      "inputs": [
        {
          "internalType": "contract BaseWallet",
          "name": "_wallet",
          "type": "address"
        },
        {
          "internalType": "contract Module",
          "name": "_module",
          "type": "address"
        }
      ],
      "name": "addModule",
      "outputs": [],
      "payable": false,
      "stateMutability": "nonpayable",
      "type": "function"
    },
    {
      "constant": false,
      "inputs": [
        {
          "internalType": "contract BaseWallet",
          "name": "_wallet",
          "type": "address"
        },
        {
          "internalType": "bytes",
          "name": "_data",
          "type": "bytes"
        },
        {
          "internalType": "uint256",
          "name": "_nonce",
          "type": "uint256"
        },
        {
          "internalType": "bytes",
          "name": "_signatures",
          "type": "bytes"
        },
        {
          "internalType": "uint256",
          "name": "_gasPrice",
          "type": "uint256"
        },
        {
          "internalType": "uint256",
          "name": "_gasLimit",
          "type": "uint256"
        }
      ],
      "name": "execute",
      "outputs": [
        {
          "internalType": "bool",
          "name": "success",
          "type": "bool"
        }
      ],
      "payable": false,
      "stateMutability": "nonpayable",
      "type": "function"
    },
    {
      "constant": true,
      "inputs": [],
      "name": "feeCollector",
      "outputs": [
        {
          "internalType": "address",
          "name": "",
          "type": "address"
        }
      ],
      "payable": false,
      "stateMutability": "view",
      "type": "function"
    },
    {
      "constant": true,
      "inputs": [],
      "name": "feeRatio",
      "outputs": [
        {
          "internalType": "uint256",
          "name": "",
          "type": "uint256"
        }
      ],
      "payable": false,
      "stateMutability": "view",
      "type": "function"
    },
    {
      "constant": true,
      "inputs": [
        {
          "internalType": "contract BaseWallet",
          "name": "_wallet",
          "type": "address"
        }
      ],
      "name": "getNonce",
      "outputs": [
        {
          "internalType": "uint256",
          "name": "nonce",
          "type": "uint256"
        }
      ],
      "payable": false,
      "stateMutability": "view",
      "type": "function"
    },
    {
      "constant": false,
      "inputs": [
        {
          "internalType": "contract BaseWallet",
          "name": "_wallet",
          "type": "address"
        }
      ],
      "name": "init",
      "outputs": [],
      "payable": false,
      "stateMutability": "nonpayable",
      "type": "function"
    },
    {
      "constant": true,
      "inputs": [],
      "name": "isOnlyOwnerModule",
      "outputs": [
        {
          "internalType": "bytes4",
          "name": "",
          "type": "bytes4"
        }
      ],
      "payable": false,
      "stateMutability": "pure",
      "type": "function"
    },
    {
      "constant": true,
      "inputs": [],
      "name": "kyber",
      "outputs": [
        {
          "internalType": "address",
          "name": "",
          "type": "address"
        }
      ],
      "payable": false,
      "stateMutability": "view",
      "type": "function"
    },
    {
      "constant": false,
      "inputs": [
        {
          "internalType": "address",
          "name": "_token",
          "type": "address"
        }
      ],
      "name": "recoverToken",
      "outputs": [],
      "payable": false,
      "stateMutability": "nonpayable",
      "type": "function"
    },
    {
      "constant": true,
      "inputs": [
        {
          "internalType": "address",
          "name": "",
          "type": "address"
        }
      ],
      "name": "relayer",
      "outputs": [
        {
          "internalType": "uint256",
          "name": "nonce",
          "type": "uint256"
        }
      ],
      "payable": false,
      "stateMutability": "view",
      "type": "function"
    },
    {
      "constant": false,
      "inputs": [
        {
          "internalType": "contract BaseWallet",
          "name": "_wallet",
          "type": "address"
        },
        {
          "internalType": "address",
          "name": "_srcToken",
          "type": "address"
        },
        {
          "internalType": "uint256",
          "name": "_srcAmount",
          "type": "uint256"
        },
        {
          "internalType": "address",
          "name": "_destToken",
          "type": "address"
        },
        {
          "internalType": "uint256",
          "name": "_maxDestAmount",
          "type": "uint256"
        },
        {
          "internalType": "uint256",
          "name": "_minConversionRate",
          "type": "uint256"
        }
      ],
      "name": "trade",
      "outputs": [
        {
          "internalType": "uint256",
          "name": "",
          "type": "uint256"
        }
      ],
      "payable": false,
      "stateMutability": "nonpayable",
      "type": "function"
    },
    {
      "constant": true,
      "inputs": [
        {
          "internalType": "address",
          "name": "_srcToken",
          "type": "address"
        },
        {
          "internalType": "address",
          "name": "_destToken",
          "type": "address"
        },
        {
          "internalType": "uint256",
          "name": "_srcAmount",
          "type": "uint256"
        }
      ],
      "name": "getExpectedTrade",
      "outputs": [
        {
          "internalType": "uint256",
          "name": "_destAmount",
          "type": "uint256"
        },
        {
          "internalType": "uint256",
          "name": "_fee",
          "type": "uint256"
        },
        {
          "internalType": "uint256",
          "name": "_expectedRate",
          "type": "uint256"
        }
      ],
      "payable": false,
      "stateMutability": "view",
      "type": "function"
    }
  ],
  "bytecode": "0x608060405234801561001057600080fd5b50604051612a21380380612a21833981810160405260a081101561003357600080fd5b81019080805190602001909291908051906020019092919080519060200190929190805190602001909291908051906020019092919050505084847f546f6b656e45786368616e676572000000000000000000000000000000000000826000806101000a81548173ffffffffffffffffffffffffffffffffffffffff021916908373ffffffffffffffffffffffffffffffffffffffff16021790555081600160006101000a81548173ffffffffffffffffffffffffffffffffffffffff021916908373ffffffffffffffffffffffffffffffffffffffff1602179055507f3019c8fc80239e3dff8f781212ae2004839c2cb61d6c70acd279ac65392145df816040518082815260200191505060405180910390a150505082600360006101000a81548173ffffffffffffffffffffffffffffffffffffffff021916908373ffffffffffffffffffffffffffffffffffffffff16021790555081600460006101000a81548173ffffffffffffffffffffffffffffffffffffffff021916908373ffffffffffffffffffffffffffffffffffffffff16021790555080600581905550505050505061283a806101e76000396000f3fe608060405234801561001057600080fd5b50600436106100b45760003560e01c80639be65a60116100715780639be65a601461031d578063a2d10ba514610361578063aacaaf88146103ab578063c415b95c146104cf578063c9b5ef8e14610519578063d490da4d14610571576100b4565b806319ab453c146100b95780632d0335ab146100fd5780632d8da11a1461015557806341744dd41461020b5780635a1db8c4146102295780636b5ad7231461028d575b600080fd5b6100fb600480360360208110156100cf57600080fd5b81019080803573ffffffffffffffffffffffffffffffffffffffff1690602001909291905050506105cd565b005b61013f6004803603602081101561011357600080fd5b81019080803573ffffffffffffffffffffffffffffffffffffffff1690602001909291905050506106d6565b6040518082815260200191505060405180910390f35b6101f5600480360360c081101561016b57600080fd5b81019080803573ffffffffffffffffffffffffffffffffffffffff169060200190929190803573ffffffffffffffffffffffffffffffffffffffff16906020019092919080359060200190929190803573ffffffffffffffffffffffffffffffffffffffff1690602001909291908035906020019092919080359060200190929190505050610722565b6040518082815260200191505060405180910390f35b610213611027565b6040518082815260200191505060405180910390f35b61028b6004803603604081101561023f57600080fd5b81019080803573ffffffffffffffffffffffffffffffffffffffff169060200190929190803573ffffffffffffffffffffffffffffffffffffffff16906020019092919050505061102d565b005b6102f9600480360360608110156102a357600080fd5b81019080803573ffffffffffffffffffffffffffffffffffffffff169060200190929190803573ffffffffffffffffffffffffffffffffffffffff169060200190929190803590602001909291905050506112b7565b60405180848152602001838152602001828152602001935050505060405180910390f35b61035f6004803603602081101561033357600080fd5b81019080803573ffffffffffffffffffffffffffffffffffffffff1690602001909291905050506116fd565b005b6103696118a1565b604051808273ffffffffffffffffffffffffffffffffffffffff1673ffffffffffffffffffffffffffffffffffffffff16815260200191505060405180910390f35b6104b5600480360360c08110156103c157600080fd5b81019080803573ffffffffffffffffffffffffffffffffffffffff169060200190929190803590602001906401000000008111156103fe57600080fd5b82018360208201111561041057600080fd5b8035906020019184600183028401116401000000008311171561043257600080fd5b9091929391929390803590602001909291908035906020019064010000000081111561045d57600080fd5b82018360208201111561046f57600080fd5b8035906020019184600183028401116401000000008311171561049157600080fd5b909192939192939080359060200190929190803590602001909291905050506118c7565b604051808215151515815260200191505060405180910390f35b6104d7611c43565b604051808273ffffffffffffffffffffffffffffffffffffffff1673ffffffffffffffffffffffffffffffffffffffff16815260200191505060405180910390f35b61055b6004803603602081101561052f57600080fd5b81019080803573ffffffffffffffffffffffffffffffffffffffff169060200190929190505050611c69565b6040518082815260200191505060405180910390f35b610579611c87565b60405180827bffffffffffffffffffffffffffffffffffffffffffffffffffffffff19167bffffffffffffffffffffffffffffffffffffffffffffffffffffffff1916815260200191505060405180910390f35b808073ffffffffffffffffffffffffffffffffffffffff163373ffffffffffffffffffffffffffffffffffffffff161461066f576040517f08c379a00000000000000000000000000000000000000000000000000000000081526004018080602001828103825260198152602001807f424d3a2063616c6c6572206d7573742062652077616c6c65740000000000000081525060200191505060405180910390fd5b7f9fcca3f73f85397e2bf03647abf243c20b753bd54463ff3cae74de2971c112fa82604051808273ffffffffffffffffffffffffffffffffffffffff1673ffffffffffffffffffffffffffffffffffffffff16815260200191505060405180910390a15050565b6000600260008373ffffffffffffffffffffffffffffffffffffffff1673ffffffffffffffffffffffffffffffffffffffff168152602001908152602001600020600001549050919050565b6000863073ffffffffffffffffffffffffffffffffffffffff163373ffffffffffffffffffffffffffffffffffffffff16148061076557506107648133611c96565b5b6107ba576040517f08c379a00000000000000000000000000000000000000000000000000000000081526004018080602001828103825260238152602001806127e36023913960400191505060405180910390fd5b87600160009054906101000a900473ffffffffffffffffffffffffffffffffffffffff1673ffffffffffffffffffffffffffffffffffffffff16634a4fbeec826040518263ffffffff1660e01b8152600401808273ffffffffffffffffffffffffffffffffffffffff1673ffffffffffffffffffffffffffffffffffffffff16815260200191505060206040518083038186803b15801561085a57600080fd5b505afa15801561086e573d6000803e3d6000fd5b505050506040513d602081101561088457600080fd5b810190808051906020019092919050505015610908576040517f08c379a000000000000000000000000000000000000000000000000000000000815260040180806020018281038252601b8152602001807f424d3a2077616c6c6574206d75737420626520756e6c6f636b6564000000000081525060200191505060405180910390fd5b606073eeeeeeeeeeeeeeeeeeeeeeeeeeeeeeeeeeeeeeee73ffffffffffffffffffffffffffffffffffffffff168973ffffffffffffffffffffffffffffffffffffffff161480610997575073eeeeeeeeeeeeeeeeeeeeeeeeeeeeeeeeeeeeeeee73ffffffffffffffffffffffffffffffffffffffff168773ffffffffffffffffffffffffffffffffffffffff16145b6109ec576040517f08c379a00000000000000000000000000000000000000000000000000000000081526004018080602001828103825260258152602001806127be6025913960400191505060405180910390fd5b6000806109fa8b8a8c6112b7565b509150915087821115610a3257610a2c82610a1e8a84611d4f90919063ffffffff16565b611d8990919063ffffffff16565b90508791505b73eeeeeeeeeeeeeeeeeeeeeeeeeeeeeeeeeeeeeeee73ffffffffffffffffffffffffffffffffffffffff168b73ffffffffffffffffffffffffffffffffffffffff161415610c58576000610a8f828c611daf90919063ffffffff16565b90508b818b8f8c8c600460009054906101000a900473ffffffffffffffffffffffffffffffffffffffff16604051602401808873ffffffffffffffffffffffffffffffffffffffff1673ffffffffffffffffffffffffffffffffffffffff1681526020018781526020018673ffffffffffffffffffffffffffffffffffffffff1673ffffffffffffffffffffffffffffffffffffffff1681526020018573ffffffffffffffffffffffffffffffffffffffff1673ffffffffffffffffffffffffffffffffffffffff1681526020018481526020018381526020018273ffffffffffffffffffffffffffffffffffffffff1673ffffffffffffffffffffffffffffffffffffffff1681526020019750505050505050506040516020818303038152906040527fcb3c28c7000000000000000000000000000000000000000000000000000000007bffffffffffffffffffffffffffffffffffffffffffffffffffffffff19166020820180517bffffffffffffffffffffffffffffffffffffffffffffffffffffffff83818316178352505050509350610c518d600360009054906101000a900473ffffffffffffffffffffffffffffffffffffffff168387611dcf565b5050610f0f565b600360009054906101000a900473ffffffffffffffffffffffffffffffffffffffff168a604051602401808373ffffffffffffffffffffffffffffffffffffffff1673ffffffffffffffffffffffffffffffffffffffff168152602001828152602001925050506040516020818303038152906040527f095ea7b3000000000000000000000000000000000000000000000000000000007bffffffffffffffffffffffffffffffffffffffffffffffffffffffff19166020820180517bffffffffffffffffffffffffffffffffffffffffffffffffffffffff83818316178352505050509250610d4b8c8c600086611dcf565b508a8a8a8e8b8b600460009054906101000a900473ffffffffffffffffffffffffffffffffffffffff16604051602401808873ffffffffffffffffffffffffffffffffffffffff1673ffffffffffffffffffffffffffffffffffffffff1681526020018781526020018673ffffffffffffffffffffffffffffffffffffffff1673ffffffffffffffffffffffffffffffffffffffff1681526020018573ffffffffffffffffffffffffffffffffffffffff1673ffffffffffffffffffffffffffffffffffffffff1681526020018481526020018381526020018273ffffffffffffffffffffffffffffffffffffffff1673ffffffffffffffffffffffffffffffffffffffff1681526020019750505050505050506040516020818303038152906040527fcb3c28c7000000000000000000000000000000000000000000000000000000007bffffffffffffffffffffffffffffffffffffffffffffffffffffffff19166020820180517bffffffffffffffffffffffffffffffffffffffffffffffffffffffff83818316178352505050509250610f0d8c600360009054906101000a900473ffffffffffffffffffffffffffffffffffffffff16600086611dcf565b505b6000811115610f5757610f558c600460009054906101000a900473ffffffffffffffffffffffffffffffffffffffff168360405180602001604052806000815250611dcf565b505b8b73ffffffffffffffffffffffffffffffffffffffff167fc8082d818d67bbb0b463bdaa897d7363157a1425f6b077691285ac6ca82b60b18c8c8c86604051808573ffffffffffffffffffffffffffffffffffffffff1673ffffffffffffffffffffffffffffffffffffffff1681526020018481526020018373ffffffffffffffffffffffffffffffffffffffff1673ffffffffffffffffffffffffffffffffffffffff16815260200182815260200194505050505060405180910390a281955050505050509695505050505050565b60055481565b813073ffffffffffffffffffffffffffffffffffffffff163373ffffffffffffffffffffffffffffffffffffffff16148061106e575061106d8133611c96565b5b6110c3576040517f08c379a00000000000000000000000000000000000000000000000000000000081526004018080602001828103825260238152602001806127e36023913960400191505060405180910390fd5b6000809054906101000a900473ffffffffffffffffffffffffffffffffffffffff1673ffffffffffffffffffffffffffffffffffffffff16630bcd4ebb836040518263ffffffff1660e01b8152600401808273ffffffffffffffffffffffffffffffffffffffff1673ffffffffffffffffffffffffffffffffffffffff16815260200191505060206040518083038186803b15801561116157600080fd5b505afa158015611175573d6000803e3d6000fd5b505050506040513d602081101561118b57600080fd5b810190808051906020019092919050505061120e576040517f08c379a000000000000000000000000000000000000000000000000000000000815260040180806020018281038252601c8152602001807f424d3a206d6f64756c65206973206e6f7420726567697374657265640000000081525060200191505060405180910390fd5b8273ffffffffffffffffffffffffffffffffffffffff16631f17732d8360016040518363ffffffff1660e01b8152600401808373ffffffffffffffffffffffffffffffffffffffff1673ffffffffffffffffffffffffffffffffffffffff1681526020018215151515815260200192505050600060405180830381600087803b15801561129a57600080fd5b505af11580156112ae573d6000803e3d6000fd5b50505050505050565b600080600073eeeeeeeeeeeeeeeeeeeeeeeeeeeeeeeeeeeeeeee73ffffffffffffffffffffffffffffffffffffffff168673ffffffffffffffffffffffffffffffffffffffff16141561150f5761130d84612137565b9150600360009054906101000a900473ffffffffffffffffffffffffffffffffffffffff1673ffffffffffffffffffffffffffffffffffffffff1663809a9e5587876113628689611daf90919063ffffffff16565b6040518463ffffffff1660e01b8152600401808473ffffffffffffffffffffffffffffffffffffffff1673ffffffffffffffffffffffffffffffffffffffff1681526020018373ffffffffffffffffffffffffffffffffffffffff1673ffffffffffffffffffffffffffffffffffffffff1681526020018281526020019350505050604080518083038186803b1580156113fb57600080fd5b505afa15801561140f573d6000803e3d6000fd5b505050506040513d604081101561142557600080fd5b810190808051906020019092919080519060200190929190505050508091505060008573ffffffffffffffffffffffffffffffffffffffff1663313ce5676040518163ffffffff1660e01b815260040160206040518083038186803b15801561148d57600080fd5b505afa1580156114a1573d6000803e3d6000fd5b505050506040513d60208110156114b757600080fd5b8101908080519060200190929190505050905061150781602403600a0a6114f96114ea8689611daf90919063ffffffff16565b85611d4f90919063ffffffff16565b611d8990919063ffffffff16565b9350506116f4565b600360009054906101000a900473ffffffffffffffffffffffffffffffffffffffff1673ffffffffffffffffffffffffffffffffffffffff1663809a9e558787876040518463ffffffff1660e01b8152600401808473ffffffffffffffffffffffffffffffffffffffff1673ffffffffffffffffffffffffffffffffffffffff1681526020018373ffffffffffffffffffffffffffffffffffffffff1673ffffffffffffffffffffffffffffffffffffffff1681526020018281526020019350505050604080518083038186803b1580156115e957600080fd5b505afa1580156115fd573d6000803e3d6000fd5b505050506040513d604081101561161357600080fd5b810190808051906020019092919080519060200190929190505050508091505060008673ffffffffffffffffffffffffffffffffffffffff1663313ce5676040518163ffffffff1660e01b815260040160206040518083038186803b15801561167b57600080fd5b505afa15801561168f573d6000803e3d6000fd5b505050506040513d60208110156116a557600080fd5b810190808051906020019092919050505090506116e081600a0a6116d28785611d4f90919063ffffffff16565b611d8990919063ffffffff16565b93506116eb84612137565b92508284039350505b93509350939050565b60008173ffffffffffffffffffffffffffffffffffffffff166370a08231306040518263ffffffff1660e01b8152600401808273ffffffffffffffffffffffffffffffffffffffff1673ffffffffffffffffffffffffffffffffffffffff16815260200191505060206040518083038186803b15801561177c57600080fd5b505afa158015611790573d6000803e3d6000fd5b505050506040513d60208110156117a657600080fd5b810190808051906020019092919050505090508173ffffffffffffffffffffffffffffffffffffffff1663a9059cbb6000809054906101000a900473ffffffffffffffffffffffffffffffffffffffff16836040518363ffffffff1660e01b8152600401808373ffffffffffffffffffffffffffffffffffffffff1673ffffffffffffffffffffffffffffffffffffffff16815260200182815260200192505050602060405180830381600087803b15801561186157600080fd5b505af1158015611875573d6000803e3d6000fd5b505050506040513d602081101561188b57600080fd5b8101908080519060200190929190505050505050565b600360009054906101000a900473ffffffffffffffffffffffffffffffffffffffff1681565b6000805a90506000611923308c60008d8d8080601f016020809104026020016040519081016040528093929190818152602001838380828437600081840152601f19601f820116905080830192505050505050508c8a8a612150565b90506119308b898361234d565b6119a2576040517f08c379a00000000000000000000000000000000000000000000000000000000081526004018080602001828103825260158152602001807f524d3a204475706c69636174652072657175657374000000000000000000000081525060200191505060405180910390fd5b6119f08b8b8b8080601f016020809104026020016040519081016040528093929190818152602001838380828437600081840152601f19601f82011690508083019250505050505050612362565b611a45576040517f08c379a000000000000000000000000000000000000000000000000000000000815260040180806020018281038252604a815260200180612774604a913960600191505060405180910390fd5b6000611a958c8c8c8080601f016020809104026020016040519081016040528093929190818152602001838380828437600081840152601f19601f8201169050808301925050505050505061241d565b905087879050604182021415611be357611ab18c868884612429565b15611be2576000811480611b555750611b548c8c8c8080601f016020809104026020016040519081016040528093929190818152602001838380828437600081840152601f19601f82011690508083019250505050505050848b8b8080601f016020809104026020016040519081016040528093929190818152602001838380828437600081840152601f19601f8201169050808301925050505050505061253f565b5b15611be1573073ffffffffffffffffffffffffffffffffffffffff168b8b6040518083838082843780830192505050925050506000604051808303816000865af19150503d8060008114611bc5576040519150601f19603f3d011682016040523d82523d6000602084013e611bca565b606091505b505080945050611be08c5a850388888533612565565b5b5b5b8315158c73ffffffffffffffffffffffffffffffffffffffff167f6bb0b384ce772133df63560651bc8c727c53306cec1d51e2cbf8ea35fb8f2ec1846040518082815260200191505060405180910390a350505098975050505050505050565b600460009054906101000a900473ffffffffffffffffffffffffffffffffffffffff1681565b60026020528060005260406000206000915090508060000154905081565b600063d490da4d60e01b905090565b60008173ffffffffffffffffffffffffffffffffffffffff168373ffffffffffffffffffffffffffffffffffffffff16638da5cb5b6040518163ffffffff1660e01b815260040160206040518083038186803b158015611cf557600080fd5b505afa158015611d09573d6000803e3d6000fd5b505050506040513d6020811015611d1f57600080fd5b810190808051906020019092919050505073ffffffffffffffffffffffffffffffffffffffff1614905092915050565b600080831415611d625760009050611d83565b6000828402905082848281611d7357fe5b0414611d7e57600080fd5b809150505b92915050565b6000808211611d9757600080fd5b6000828481611da257fe5b0490508091505092915050565b600082821115611dbe57600080fd5b600082840390508091505092915050565b606060008573ffffffffffffffffffffffffffffffffffffffff16858585604051602401808473ffffffffffffffffffffffffffffffffffffffff1673ffffffffffffffffffffffffffffffffffffffff16815260200183815260200180602001828103825283818151815260200191508051906020019080838360005b83811015611e68578082015181840152602081019050611e4d565b50505050905090810190601f168015611e955780820380516001836020036101000a031916815260200191505b509450505050506040516020818303038152906040527f8f6f0332000000000000000000000000000000000000000000000000000000007bffffffffffffffffffffffffffffffffffffffffffffffffffffffff19166020820180517bffffffffffffffffffffffffffffffffffffffffffffffffffffffff83818316178352505050506040518082805190602001908083835b60208310611f4c5780518252602082019150602081019050602083039250611f29565b6001836020036101000a0380198251168184511680821785525050505050509050019150506000604051808303816000865af19150503d8060008114611fae576040519150601f19603f3d011682016040523d82523d6000602084013e611fb3565b606091505b508093508192505050808015611fca575060008251115b156120a657818060200190516020811015611fe457600080fd5b810190808051604051939291908464010000000082111561200457600080fd5b8382019150602082018581111561201a57600080fd5b825186600182028301116401000000008211171561203757600080fd5b8083526020830192505050908051906020019080838360005b8381101561206b578082015181840152602081019050612050565b50505050905090810190601f1680156120985780820380516001836020036101000a031916815260200191505b50604052505050915061212e565b6000825111156120ba573d6000803e3d6000fd5b8061212d576040517f08c379a000000000000000000000000000000000000000000000000000000000815260040180806020018281038252601a8152602001807f424d3a2077616c6c657420696e766f6b6520726576657274656400000000000081525060200191505060405180910390fd5b5b50949350505050565b600061271060055483028161214857fe5b049050919050565b6000601960f81b600060f81b89898989898989604051602001808a7effffffffffffffffffffffffffffffffffffffffffffffffffffffffffffff19167effffffffffffffffffffffffffffffffffffffffffffffffffffffffffffff19168152600101897effffffffffffffffffffffffffffffffffffffffffffffffffffffffffffff19167effffffffffffffffffffffffffffffffffffffffffffffffffffffffffffff191681526001018873ffffffffffffffffffffffffffffffffffffffff1673ffffffffffffffffffffffffffffffffffffffff1660601b81526014018773ffffffffffffffffffffffffffffffffffffffff1673ffffffffffffffffffffffffffffffffffffffff1660601b815260140186815260200185805190602001908083835b6020831061229d578051825260208201915060208101905060208303925061227a565b6001836020036101000a03801982511681845116808217855250505050505090500184815260200183815260200182815260200199505050505050505050506040516020818303038152906040528051906020012060405160200180807f19457468657265756d205369676e6564204d6573736167653a0a333200000000815250601c01828152602001915050604051602081830303815290604052805190602001209050979650505050505050565b600061235984846125cd565b90509392505050565b60006024825110156123dc576040517f08c379a00000000000000000000000000000000000000000000000000000000081526004018080602001828103825260168152602001807f524d3a20496e76616c6964206461746157616c6c65740000000000000000000081525060200191505060405180910390fd5b6000602483015190508373ffffffffffffffffffffffffffffffffffffffff168173ffffffffffffffffffffffffffffffffffffffff161491505092915050565b60006001905092915050565b6000808311801561243a5750600182115b801561252457508284028573ffffffffffffffffffffffffffffffffffffffff163110806125235750600015158573ffffffffffffffffffffffffffffffffffffffff1663d6eb1bbf306040518263ffffffff1660e01b8152600401808273ffffffffffffffffffffffffffffffffffffffff1673ffffffffffffffffffffffffffffffffffffffff16815260200191505060206040518083038186803b1580156124e457600080fd5b505afa1580156124f8573d6000803e3d6000fd5b505050506040513d602081101561250e57600080fd5b81019080805190602001909291905050501515145b5b156125325760009050612537565b600190505b949350505050565b60008061254e848460006126b5565b905061255a8682611c96565b915050949350505050565b60008561726c01905060008511801561257e5750600183115b801561258a5750838111155b156125c4573a8511156125a1573a810290506125a7565b84810290505b6125c287838360405180602001604052806000815250611dcf565b505b50505050505050565b6000600260008473ffffffffffffffffffffffffffffffffffffffff1673ffffffffffffffffffffffffffffffffffffffff16815260200190815260200160002060000154821161262157600090506126af565b600060807fffffffffffffffffffffffffffffffff000000000000000000000000000000008416901c905061271043018111156126625760009150506126af565b82600260008673ffffffffffffffffffffffffffffffffffffffff1673ffffffffffffffffffffffffffffffffffffffff1681526020019081526020016000206000018190555060019150505b92915050565b60008060008084604102602001860151915084604102604001860151905060ff85604102604101870151169250601b8360ff1614806126f75750601c8360ff16145b61270057600080fd5b60018784848460405160008152602001604052604051808581526020018460ff1660ff1681526020018381526020018281526020019450505050506020604051602081039080840390855afa15801561275d573d6000803e3d6000fd5b505050602060405103519350505050939250505056fe524d3a207468652077616c6c657420617574686f72697a656420697320646966666572656e74207468656e2074686520746172676574206f66207468652072656c61796564206461746154453a20736f75726365206f722064657374696e6174696f6e206d75737420626520455448424d3a206d75737420626520616e206f776e657220666f72207468652077616c6c6574a265627a7a7231582098246bf4c263a2c02be168af37abb4c06051d8eb7ddd52c08fe7e7bf7ec7b81864736f6c63430005100032",
  "source": "// Copyright (C) 2018  Argent Labs Ltd. <https://argent.xyz>\n\n// This program is free software: you can redistribute it and/or modify\n// it under the terms of the GNU General Public License as published by\n// the Free Software Foundation, either version 3 of the License, or\n// (at your option) any later version.\n\n// This program is distributed in the hope that it will be useful,\n// but WITHOUT ANY WARRANTY; without even the implied warranty of\n// MERCHANTABILITY or FITNESS FOR A PARTICULAR PURPOSE.  See the\n// GNU General Public License for more details.\n\n// You should have received a copy of the GNU General Public License\n// along with this program.  If not, see <http://www.gnu.org/licenses/>.\n\npragma solidity ^0.5.4;\nimport \"../wallet/BaseWallet.sol\";\nimport \"./common/BaseModule.sol\";\nimport \"./common/RelayerModule.sol\";\nimport \"./common/OnlyOwnerModule.sol\";\nimport \"../../lib/utils/SafeMath.sol\";\nimport \"../exchange/ERC20.sol\";\nimport \"../exchange/KyberNetwork.sol\";\n\n/**\n * @title TokenExchanger\n * @dev Module to trade tokens (ETH or ERC20) using KyberNetworks.\n * @author Julien Niset - <julien@argent.im>\n */\ncontract TokenExchanger is BaseModule, RelayerModule, OnlyOwnerModule {\n\n    bytes32 constant NAME = \"TokenExchanger\";\n\n    using SafeMath for uint256;\n\n    // Mock token address for ETH\n    address constant internal ETH_TOKEN_ADDRESS = 0xEeeeeEeeeEeEeeEeEeEeeEEEeeeeEeeeeeeeEEeE;\n\n    // The address of the KyberNetwork proxy contract\n    address public kyber;\n    // The address of the contract collecting fees for Argent.\n    address public feeCollector;\n    // The Argent fee in 1-per-10000.\n    uint256 public feeRatio;\n\n    event TokenExchanged(address indexed wallet, address srcToken, uint srcAmount, address destToken, uint destAmount);\n\n    constructor(\n        ModuleRegistry _registry,\n        GuardianStorage _guardianStorage,\n        address _kyber,\n        address _feeCollector,\n        uint _feeRatio\n    )\n        BaseModule(_registry, _guardianStorage, NAME)\n        public\n    {\n        kyber = _kyber;\n        feeCollector = _feeCollector;\n        feeRatio = _feeRatio;\n    }\n\n    /**\n     * @dev Lets the owner of the wallet execute a trade.\n     * @param _wallet The target wallet\n     * @param _srcToken The address of the source token.\n     * @param _srcAmount The amoutn of source token to trade.\n     * @param _destToken The address of the destination token.\n     * @param _maxDestAmount The maximum amount of destination token accepted for the trade.\n     * @param _minConversionRate The minimum accepted rate for the trade.\n     * @return The amount of destination tokens that have been received.\n     */\n    function trade(\n        BaseWallet _wallet,\n        address _srcToken,\n        uint256 _srcAmount,\n        address _destToken,\n        uint256 _maxDestAmount,\n        uint256 _minConversionRate\n    )\n        external\n        onlyWalletOwner(_wallet)\n        onlyWhenUnlocked(_wallet)\n        returns(uint256)\n    {\n        bytes memory methodData;\n        require(_srcToken == ETH_TOKEN_ADDRESS || _destToken == ETH_TOKEN_ADDRESS, \"TE: source or destination must be ETH\");\n        (uint256 destAmount, uint256 fee, ) = getExpectedTrade(_srcToken, _destToken, _srcAmount);\n        if (destAmount > _maxDestAmount) {\n            fee = fee.mul(_maxDestAmount).div(destAmount);\n            destAmount = _maxDestAmount;\n        }\n        if (_srcToken == ETH_TOKEN_ADDRESS) {\n            uint256 srcTradable = _srcAmount.sub(fee);\n            methodData = abi.encodeWithSignature(\n                \"trade(address,uint256,address,address,uint256,uint256,address)\",\n                _srcToken,\n                srcTradable,\n                _destToken,\n                address(_wallet),\n                _maxDestAmount,\n                _minConversionRate,\n                feeCollector\n                );\n            invokeWallet(address(_wallet), kyber, srcTradable, methodData);\n        } else {\n            // approve kyber on erc20\n            methodData = abi.encodeWithSignature(\"approve(address,uint256)\", kyber, _srcAmount);\n            invokeWallet(address(_wallet), _srcToken, 0, methodData);\n            // transfer erc20\n            methodData = abi.encodeWithSignature(\n                \"trade(address,uint256,address,address,uint256,uint256,address)\",\n                _srcToken,\n                _srcAmount,\n                _destToken,\n                address(_wallet),\n                _maxDestAmount,\n                _minConversionRate,\n                feeCollector\n                );\n            invokeWallet(address(_wallet), kyber, 0, methodData);\n        }\n\n        if (fee > 0) {\n            invokeWallet(address(_wallet), feeCollector, fee, \"\");\n        }\n        emit TokenExchanged(address(_wallet), _srcToken, _srcAmount, _destToken, destAmount);\n        return destAmount;\n    }\n\n    /**\n     * @dev Gets the expected terms of a trade.\n     * @param _srcToken The address of the source token.\n     * @param _destToken The address of the destination token.\n     * @param _srcAmount The amount of source token to trade.\n     * @return the amount of destination tokens to be received and the amount of ETH paid to Argent as fee.\n     */\n    function getExpectedTrade(\n        address _srcToken,\n        address _destToken,\n        uint256 _srcAmount\n    )\n        public\n        view\n        returns(uint256 _destAmount, uint256 _fee, uint256 _expectedRate)\n    {\n        if (_srcToken == ETH_TOKEN_ADDRESS) {\n            _fee = computeFee(_srcAmount);\n            (_expectedRate,) = KyberNetwork(kyber).getExpectedRate(ERC20(_srcToken), ERC20(_destToken), _srcAmount.sub(_fee));\n            uint256 destDecimals = ERC20(_destToken).decimals();\n            // destAmount = expectedRate * (_srcAmount - fee) / ETH_PRECISION * (DEST_PRECISION / SRC_PRECISION)\n            _destAmount = _expectedRate.mul(_srcAmount.sub(_fee)).div(10 ** (36-destDecimals));\n        } else {\n            (_expectedRate,) = KyberNetwork(kyber).getExpectedRate(ERC20(_srcToken), ERC20(_destToken), _srcAmount);\n            uint256 srcDecimals = ERC20(_srcToken).decimals();\n            // destAmount = expectedRate * _srcAmount / ETH_PRECISION * (DEST_PRECISION / SRC_PRECISION) - fee\n            _destAmount = _expectedRate.mul(_srcAmount).div(10 ** srcDecimals);\n            _fee = computeFee(_destAmount);\n            _destAmount -= _fee;\n        }\n    }\n\n    /**\n     * @dev Computes the Argent fee based on the amount of source tokens in ETH.\n     * @param _srcAmount The amount of source token to trade in ETH.\n     * @return the fee paid to Argent.\n     */\n    function computeFee(uint256 _srcAmount) internal view returns (uint256 fee) {\n        fee = (_srcAmount * feeRatio) / 10000;\n    }\n}",
  "sourcePath": "/Users/name/dev/argent-contracts-release-1.5.0/contracts/modules/TokenExchanger.sol",
  "compiler": {
    "name": "solc",
    "version": "0.5.16+commit.9c3226ce.Emscripten.clang"
  },
  "schemaVersion": "3.0.23",
  "updatedAt": "2020-03-31T19:53:31.449Z",
  "devdoc": {
    "author": "Julien Niset - <julien@argent.im>",
    "details": "Module to trade tokens (ETH or ERC20) using KyberNetworks.",
    "methods": {
      "addModule(address,address)": {
        "details": "Adds a module to a wallet. First checks that the module is registered. Unlike its overrided parent, this method can be called via the RelayerModule's execute()",
        "params": {
          "_module": "The modules to authorise.",
          "_wallet": "The target wallet."
        }
      },
      "execute(address,bytes,uint256,bytes,uint256,uint256)": {
        "details": "Executes a relayed transaction.",
        "params": {
          "_data": "The data for the relayed transaction",
          "_gasLimit": "The gas limit to use for the gas refund.",
          "_gasPrice": "The gas price to use for the gas refund.",
          "_nonce": "The nonce used to prevent replay attacks.",
          "_signatures": "The signatures as a concatenated byte array.",
          "_wallet": "The target wallet."
        }
      },
      "getExpectedTrade(address,address,uint256)": {
        "details": "Gets the expected terms of a trade.",
        "params": {
          "_destToken": "The address of the destination token.",
          "_srcAmount": "The amount of source token to trade.",
          "_srcToken": "The address of the source token."
        },
        "return": "the amount of destination tokens to be received and the amount of ETH paid to Argent as fee."
      },
      "getNonce(address)": {
        "details": "Gets the current nonce for a wallet.",
        "params": {
          "_wallet": "The target wallet."
        }
      },
      "init(address)": {
        "details": "Inits the module for a wallet by logging an event. The method can only be called by the wallet itself.",
        "params": {
          "_wallet": "The wallet."
        }
      },
      "isOnlyOwnerModule()": {
        "details": "Returns a constant that indicates that the module is an OnlyOwnerModule.",
        "return": "The constant bytes4(keccak256(\"isOnlyOwnerModule()\"))"
      },
      "recoverToken(address)": {
        "details": "Utility method enbaling anyone to recover ERC20 token sent to the module by mistake and transfer them to the Module Registry.",
        "params": {
          "_token": "The token to recover."
        }
      },
      "trade(address,address,uint256,address,uint256,uint256)": {
        "details": "Lets the owner of the wallet execute a trade.",
        "params": {
          "_destToken": "The address of the destination token.",
          "_maxDestAmount": "The maximum amount of destination token accepted for the trade.",
          "_minConversionRate": "The minimum accepted rate for the trade.",
          "_srcAmount": "The amoutn of source token to trade.",
          "_srcToken": "The address of the source token.",
          "_wallet": "The target wallet"
        },
        "return": "The amount of destination tokens that have been received."
      }
    },
    "title": "TokenExchanger"
  },
  "userdoc": {
    "methods": {}
  }
}