{
  "contractName": "TransferManager",
  "abi": [
    {
      "inputs": [
        {
          "internalType": "contract ModuleRegistry",
          "name": "_registry",
          "type": "address"
        },
        {
          "internalType": "contract TransferStorage",
          "name": "_transferStorage",
          "type": "address"
        },
        {
          "internalType": "contract GuardianStorage",
          "name": "_guardianStorage",
          "type": "address"
        },
        {
          "internalType": "address",
          "name": "_priceProvider",
          "type": "address"
        },
        {
          "internalType": "uint256",
          "name": "_securityPeriod",
          "type": "uint256"
        },
        {
          "internalType": "uint256",
          "name": "_securityWindow",
          "type": "uint256"
        },
        {
          "internalType": "uint256",
          "name": "_defaultLimit",
          "type": "uint256"
        },
        {
          "internalType": "contract LimitManager",
          "name": "_oldLimitManager",
          "type": "address"
        }
      ],
      "payable": false,
      "stateMutability": "nonpayable",
      "type": "constructor"
    },
    {
      "anonymous": false,
      "inputs": [
        {
          "indexed": true,
          "internalType": "address",
          "name": "wallet",
          "type": "address"
        },
        {
          "indexed": true,
          "internalType": "address",
          "name": "target",
          "type": "address"
        },
        {
          "indexed": false,
          "internalType": "uint64",
          "name": "whitelistAfter",
          "type": "uint64"
        }
      ],
      "name": "AddedToWhitelist",
      "type": "event"
    },
    {
      "anonymous": false,
      "inputs": [
        {
          "indexed": true,
          "internalType": "address",
          "name": "wallet",
          "type": "address"
        },
        {
          "indexed": true,
          "internalType": "address",
          "name": "token",
          "type": "address"
        },
        {
          "indexed": false,
          "internalType": "uint256",
          "name": "amount",
          "type": "uint256"
        },
        {
          "indexed": false,
          "internalType": "address",
          "name": "spender",
          "type": "address"
        }
      ],
      "name": "Approved",
      "type": "event"
    },
    {
      "anonymous": false,
      "inputs": [
        {
          "indexed": true,
          "internalType": "address",
          "name": "wallet",
          "type": "address"
        },
        {
          "indexed": true,
          "internalType": "address",
          "name": "to",
          "type": "address"
        },
        {
          "indexed": false,
          "internalType": "uint256",
          "name": "amount",
          "type": "uint256"
        },
        {
          "indexed": false,
          "internalType": "bytes",
          "name": "data",
          "type": "bytes"
        }
      ],
      "name": "CalledContract",
      "type": "event"
    },
    {
      "anonymous": false,
      "inputs": [
        {
          "indexed": true,
          "internalType": "address",
          "name": "wallet",
          "type": "address"
        },
        {
          "indexed": true,
          "internalType": "uint256",
          "name": "newLimit",
          "type": "uint256"
        },
        {
          "indexed": true,
          "internalType": "uint64",
          "name": "startAfter",
          "type": "uint64"
        }
      ],
      "name": "LimitChanged",
      "type": "event"
    },
    {
      "anonymous": false,
      "inputs": [
        {
          "indexed": false,
          "internalType": "bytes32",
          "name": "name",
          "type": "bytes32"
        }
      ],
      "name": "ModuleCreated",
      "type": "event"
    },
    {
      "anonymous": false,
      "inputs": [
        {
          "indexed": false,
          "internalType": "address",
          "name": "wallet",
          "type": "address"
        }
      ],
      "name": "ModuleInitialised",
      "type": "event"
    },
    {
      "anonymous": false,
      "inputs": [
        {
          "indexed": true,
          "internalType": "address",
          "name": "wallet",
          "type": "address"
        },
        {
          "indexed": true,
          "internalType": "bytes32",
          "name": "id",
          "type": "bytes32"
        }
      ],
      "name": "PendingTransferCanceled",
      "type": "event"
    },
    {
      "anonymous": false,
      "inputs": [
        {
          "indexed": true,
          "internalType": "address",
          "name": "wallet",
          "type": "address"
        },
        {
          "indexed": true,
          "internalType": "bytes32",
          "name": "id",
          "type": "bytes32"
        },
        {
          "indexed": true,
          "internalType": "uint256",
          "name": "executeAfter",
          "type": "uint256"
        },
        {
          "indexed": false,
          "internalType": "address",
          "name": "token",
          "type": "address"
        },
        {
          "indexed": false,
          "internalType": "address",
          "name": "to",
          "type": "address"
        },
        {
          "indexed": false,
          "internalType": "uint256",
          "name": "amount",
          "type": "uint256"
        },
        {
          "indexed": false,
          "internalType": "bytes",
          "name": "data",
          "type": "bytes"
        }
      ],
      "name": "PendingTransferCreated",
      "type": "event"
    },
    {
      "anonymous": false,
      "inputs": [
        {
          "indexed": true,
          "internalType": "address",
          "name": "wallet",
          "type": "address"
        },
        {
          "indexed": true,
          "internalType": "bytes32",
          "name": "id",
          "type": "bytes32"
        }
      ],
      "name": "PendingTransferExecuted",
      "type": "event"
    },
    {
      "anonymous": false,
      "inputs": [
        {
          "indexed": true,
          "internalType": "address",
          "name": "wallet",
          "type": "address"
        },
        {
          "indexed": true,
          "internalType": "address",
          "name": "target",
          "type": "address"
        }
      ],
      "name": "RemovedFromWhitelist",
      "type": "event"
    },
    {
      "anonymous": false,
      "inputs": [
        {
          "indexed": true,
          "internalType": "address",
          "name": "wallet",
          "type": "address"
        },
        {
          "indexed": true,
          "internalType": "bool",
          "name": "success",
          "type": "bool"
        },
        {
          "indexed": false,
          "internalType": "bytes32",
          "name": "signedHash",
          "type": "bytes32"
        }
      ],
      "name": "TransactionExecuted",
      "type": "event"
    },
    {
      "anonymous": false,
      "inputs": [
        {
          "indexed": true,
          "internalType": "address",
          "name": "wallet",
          "type": "address"
        },
        {
          "indexed": true,
          "internalType": "address",
          "name": "token",
          "type": "address"
        },
        {
          "indexed": true,
          "internalType": "uint256",
          "name": "amount",
          "type": "uint256"
        },
        {
          "indexed": false,
          "internalType": "address",
          "name": "to",
          "type": "address"
        },
        {
          "indexed": false,
          "internalType": "bytes",
          "name": "data",
          "type": "bytes"
        }
      ],
      "name": "Transfer",
      "type": "event"
    },
    {
      "constant": false,
      "inputs": [
        {
          "internalType": "contract BaseWallet",
          "name": "_wallet",
          "type": "address"
        },
        {
          "internalType": "contract Module",
          "name": "_module",
          "type": "address"
        }
      ],
      "name": "addModule",
      "outputs": [],
      "payable": false,
      "stateMutability": "nonpayable",
      "type": "function"
    },
    {
      "constant": true,
      "inputs": [],
      "name": "defaultLimit",
      "outputs": [
        {
          "internalType": "uint256",
          "name": "",
          "type": "uint256"
        }
      ],
      "payable": false,
      "stateMutability": "view",
      "type": "function"
    },
    {
      "constant": false,
      "inputs": [
        {
          "internalType": "contract BaseWallet",
          "name": "_wallet",
          "type": "address"
        },
        {
          "internalType": "bytes",
          "name": "_data",
          "type": "bytes"
        },
        {
          "internalType": "uint256",
          "name": "_nonce",
          "type": "uint256"
        },
        {
          "internalType": "bytes",
          "name": "_signatures",
          "type": "bytes"
        },
        {
          "internalType": "uint256",
          "name": "_gasPrice",
          "type": "uint256"
        },
        {
          "internalType": "uint256",
          "name": "_gasLimit",
          "type": "uint256"
        }
      ],
      "name": "execute",
      "outputs": [
        {
          "internalType": "bool",
          "name": "success",
          "type": "bool"
        }
      ],
      "payable": false,
      "stateMutability": "nonpayable",
      "type": "function"
    },
    {
      "constant": true,
      "inputs": [
        {
          "internalType": "contract BaseWallet",
          "name": "_wallet",
          "type": "address"
        }
      ],
      "name": "getCurrentLimit",
      "outputs": [
        {
          "internalType": "uint256",
          "name": "_currentLimit",
          "type": "uint256"
        }
      ],
      "payable": false,
      "stateMutability": "view",
      "type": "function"
    },
    {
      "constant": true,
      "inputs": [
        {
          "internalType": "contract BaseWallet",
          "name": "_wallet",
          "type": "address"
        }
      ],
      "name": "getDailyUnspent",
      "outputs": [
        {
          "internalType": "uint256",
          "name": "_unspent",
          "type": "uint256"
        },
        {
          "internalType": "uint64",
          "name": "_periodEnd",
          "type": "uint64"
        }
      ],
      "payable": false,
      "stateMutability": "view",
      "type": "function"
    },
    {
      "constant": true,
      "inputs": [
        {
          "internalType": "contract BaseWallet",
          "name": "_wallet",
          "type": "address"
        }
      ],
      "name": "getNonce",
      "outputs": [
        {
          "internalType": "uint256",
          "name": "nonce",
          "type": "uint256"
        }
      ],
      "payable": false,
      "stateMutability": "view",
      "type": "function"
    },
    {
      "constant": true,
      "inputs": [
        {
          "internalType": "contract BaseWallet",
          "name": "_wallet",
          "type": "address"
        }
      ],
      "name": "getPendingLimit",
      "outputs": [
        {
          "internalType": "uint256",
          "name": "_pendingLimit",
          "type": "uint256"
        },
        {
          "internalType": "uint64",
          "name": "_changeAfter",
          "type": "uint64"
        }
      ],
      "payable": false,
      "stateMutability": "view",
      "type": "function"
    },
    {
      "constant": true,
      "inputs": [
        {
          "internalType": "contract BaseWallet",
          "name": "_wallet",
          "type": "address"
        }
      ],
      "name": "isLimitDisabled",
      "outputs": [
        {
          "internalType": "bool",
          "name": "_limitDisabled",
          "type": "bool"
        }
      ],
      "payable": false,
      "stateMutability": "view",
      "type": "function"
    },
    {
      "constant": true,
      "inputs": [],
      "name": "isOnlyOwnerModule",
      "outputs": [
        {
          "internalType": "bytes4",
          "name": "",
          "type": "bytes4"
        }
      ],
      "payable": false,
      "stateMutability": "pure",
      "type": "function"
    },
    {
      "constant": true,
      "inputs": [],
      "name": "oldLimitManager",
      "outputs": [
        {
          "internalType": "contract LimitManager",
          "name": "",
          "type": "address"
        }
      ],
      "payable": false,
      "stateMutability": "view",
      "type": "function"
    },
    {
      "constant": true,
      "inputs": [],
      "name": "priceProvider",
      "outputs": [
        {
          "internalType": "contract TokenPriceProvider",
          "name": "",
          "type": "address"
        }
      ],
      "payable": false,
      "stateMutability": "view",
      "type": "function"
    },
    {
      "constant": false,
      "inputs": [
        {
          "internalType": "address",
          "name": "_token",
          "type": "address"
        }
      ],
      "name": "recoverToken",
      "outputs": [],
      "payable": false,
      "stateMutability": "nonpayable",
      "type": "function"
    },
    {
      "constant": true,
      "inputs": [
        {
          "internalType": "address",
          "name": "",
          "type": "address"
        }
      ],
      "name": "relayer",
      "outputs": [
        {
          "internalType": "uint256",
          "name": "nonce",
          "type": "uint256"
        }
      ],
      "payable": false,
      "stateMutability": "view",
      "type": "function"
    },
    {
      "constant": true,
      "inputs": [],
      "name": "securityPeriod",
      "outputs": [
        {
          "internalType": "uint256",
          "name": "",
          "type": "uint256"
        }
      ],
      "payable": false,
      "stateMutability": "view",
      "type": "function"
    },
    {
      "constant": true,
      "inputs": [],
      "name": "securityWindow",
      "outputs": [
        {
          "internalType": "uint256",
          "name": "",
          "type": "uint256"
        }
      ],
      "payable": false,
      "stateMutability": "view",
      "type": "function"
    },
    {
      "constant": true,
      "inputs": [],
      "name": "transferStorage",
      "outputs": [
        {
          "internalType": "contract TransferStorage",
          "name": "",
          "type": "address"
        }
      ],
      "payable": false,
      "stateMutability": "view",
      "type": "function"
    },
    {
      "constant": false,
      "inputs": [
        {
          "internalType": "contract BaseWallet",
          "name": "_wallet",
          "type": "address"
        }
      ],
      "name": "init",
      "outputs": [],
      "payable": false,
      "stateMutability": "nonpayable",
      "type": "function"
    },
    {
      "constant": false,
      "inputs": [
        {
          "internalType": "contract BaseWallet",
          "name": "_wallet",
          "type": "address"
        },
        {
          "internalType": "address",
          "name": "_token",
          "type": "address"
        },
        {
          "internalType": "address",
          "name": "_to",
          "type": "address"
        },
        {
          "internalType": "uint256",
          "name": "_amount",
          "type": "uint256"
        },
        {
          "internalType": "bytes",
          "name": "_data",
          "type": "bytes"
        }
      ],
      "name": "transferToken",
      "outputs": [],
      "payable": false,
      "stateMutability": "nonpayable",
      "type": "function"
    },
    {
      "constant": false,
      "inputs": [
        {
          "internalType": "contract BaseWallet",
          "name": "_wallet",
          "type": "address"
        },
        {
          "internalType": "address",
          "name": "_token",
          "type": "address"
        },
        {
          "internalType": "address",
          "name": "_spender",
          "type": "address"
        },
        {
          "internalType": "uint256",
          "name": "_amount",
          "type": "uint256"
        }
      ],
      "name": "approveToken",
      "outputs": [],
      "payable": false,
      "stateMutability": "nonpayable",
      "type": "function"
    },
    {
      "constant": false,
      "inputs": [
        {
          "internalType": "contract BaseWallet",
          "name": "_wallet",
          "type": "address"
        },
        {
          "internalType": "address",
          "name": "_contract",
          "type": "address"
        },
        {
          "internalType": "uint256",
          "name": "_value",
          "type": "uint256"
        },
        {
          "internalType": "bytes",
          "name": "_data",
          "type": "bytes"
        }
      ],
      "name": "callContract",
      "outputs": [],
      "payable": false,
      "stateMutability": "nonpayable",
      "type": "function"
    },
    {
      "constant": false,
      "inputs": [
        {
          "internalType": "contract BaseWallet",
          "name": "_wallet",
          "type": "address"
        },
        {
          "internalType": "address",
          "name": "_token",
          "type": "address"
        },
        {
          "internalType": "address",
          "name": "_contract",
          "type": "address"
        },
        {
          "internalType": "uint256",
          "name": "_amount",
          "type": "uint256"
        },
        {
          "internalType": "bytes",
          "name": "_data",
          "type": "bytes"
        }
      ],
      "name": "approveTokenAndCallContract",
      "outputs": [],
      "payable": false,
      "stateMutability": "nonpayable",
      "type": "function"
    },
    {
      "constant": false,
      "inputs": [
        {
          "internalType": "contract BaseWallet",
          "name": "_wallet",
          "type": "address"
        },
        {
          "internalType": "address",
          "name": "_target",
          "type": "address"
        }
      ],
      "name": "addToWhitelist",
      "outputs": [],
      "payable": false,
      "stateMutability": "nonpayable",
      "type": "function"
    },
    {
      "constant": false,
      "inputs": [
        {
          "internalType": "contract BaseWallet",
          "name": "_wallet",
          "type": "address"
        },
        {
          "internalType": "address",
          "name": "_target",
          "type": "address"
        }
      ],
      "name": "removeFromWhitelist",
      "outputs": [],
      "payable": false,
      "stateMutability": "nonpayable",
      "type": "function"
    },
    {
      "constant": false,
      "inputs": [
        {
          "internalType": "contract BaseWallet",
          "name": "_wallet",
          "type": "address"
        },
        {
          "internalType": "address",
          "name": "_token",
          "type": "address"
        },
        {
          "internalType": "address",
          "name": "_to",
          "type": "address"
        },
        {
          "internalType": "uint256",
          "name": "_amount",
          "type": "uint256"
        },
        {
          "internalType": "bytes",
          "name": "_data",
          "type": "bytes"
        },
        {
          "internalType": "uint256",
          "name": "_block",
          "type": "uint256"
        }
      ],
      "name": "executePendingTransfer",
      "outputs": [],
      "payable": false,
      "stateMutability": "nonpayable",
      "type": "function"
    },
    {
      "constant": false,
      "inputs": [
        {
          "internalType": "contract BaseWallet",
          "name": "_wallet",
          "type": "address"
        },
        {
          "internalType": "bytes32",
          "name": "_id",
          "type": "bytes32"
        }
      ],
      "name": "cancelPendingTransfer",
      "outputs": [],
      "payable": false,
      "stateMutability": "nonpayable",
      "type": "function"
    },
    {
      "constant": false,
      "inputs": [
        {
          "internalType": "contract BaseWallet",
          "name": "_wallet",
          "type": "address"
        },
        {
          "internalType": "uint256",
          "name": "_newLimit",
          "type": "uint256"
        }
      ],
      "name": "changeLimit",
      "outputs": [],
      "payable": false,
      "stateMutability": "nonpayable",
      "type": "function"
    },
    {
      "constant": false,
      "inputs": [
        {
          "internalType": "contract BaseWallet",
          "name": "_wallet",
          "type": "address"
        }
      ],
      "name": "disableLimit",
      "outputs": [],
      "payable": false,
      "stateMutability": "nonpayable",
      "type": "function"
    },
    {
      "constant": true,
      "inputs": [
        {
          "internalType": "contract BaseWallet",
          "name": "_wallet",
          "type": "address"
        },
        {
          "internalType": "address",
          "name": "_target",
          "type": "address"
        }
      ],
      "name": "isWhitelisted",
      "outputs": [
        {
          "internalType": "bool",
          "name": "_isWhitelisted",
          "type": "bool"
        }
      ],
      "payable": false,
      "stateMutability": "view",
      "type": "function"
    },
    {
      "constant": true,
      "inputs": [
        {
          "internalType": "contract BaseWallet",
          "name": "_wallet",
          "type": "address"
        },
        {
          "internalType": "bytes32",
          "name": "_id",
          "type": "bytes32"
        }
      ],
      "name": "getPendingTransfer",
      "outputs": [
        {
          "internalType": "uint64",
          "name": "_executeAfter",
          "type": "uint64"
        }
      ],
      "payable": false,
      "stateMutability": "view",
      "type": "function"
    },
    {
      "constant": true,
      "inputs": [
        {
          "internalType": "bytes32",
          "name": "_msgHash",
          "type": "bytes32"
        },
        {
          "internalType": "bytes",
          "name": "_signature",
          "type": "bytes"
        }
      ],
      "name": "isValidSignature",
      "outputs": [
        {
          "internalType": "bytes4",
          "name": "",
          "type": "bytes4"
        }
      ],
      "payable": false,
      "stateMutability": "view",
      "type": "function"
    },
    {
      "constant": true,
      "inputs": [
        {
          "internalType": "bytes",
          "name": "_data",
          "type": "bytes"
        },
        {
          "internalType": "bytes",
          "name": "_signature",
          "type": "bytes"
        }
      ],
      "name": "isValidSignature",
      "outputs": [
        {
          "internalType": "bytes4",
          "name": "",
          "type": "bytes4"
        }
      ],
      "payable": false,
      "stateMutability": "view",
      "type": "function"
    }
  ],
  "bytecode": "0x60806040523480156200001157600080fd5b5060405162006dcd38038062006dcd83398181016040526101008110156200003857600080fd5b8101908080519060200190929190805190602001909291908051906020019092919080519060200190929190805190602001909291908051906020019092919080519060200190929190805190602001909291905050508188877f5472616e736665724d616e616765720000000000000000000000000000000000826000806101000a81548173ffffffffffffffffffffffffffffffffffffffff021916908373ffffffffffffffffffffffffffffffffffffffff16021790555081600160006101000a81548173ffffffffffffffffffffffffffffffffffffffff021916908373ffffffffffffffffffffffffffffffffffffffff1602179055507f3019c8fc80239e3dff8f781212ae2004839c2cb61d6c70acd279ac65392145df816040518082815260200191505060405180910390a1505050806004819055505086600860006101000a81548173ffffffffffffffffffffffffffffffffffffffff021916908373ffffffffffffffffffffffffffffffffffffffff16021790555084600960006101000a81548173ffffffffffffffffffffffffffffffffffffffff021916908373ffffffffffffffffffffffffffffffffffffffff160217905550836006819055508260078190555080600a60006101000a81548173ffffffffffffffffffffffffffffffffffffffff021916908373ffffffffffffffffffffffffffffffffffffffff1602179055505050505050505050616b6e806200025f6000396000f3fe608060405234801561001057600080fd5b50600436106101e45760003560e01c8063961bfeee1161010f578063b888879e116100a2578063e26b013b11610071578063e26b013b14610f0b578063f8d3277d14610f29578063f9f6499e14610f8d578063fd6ac30914610fe9576101e4565b8063b888879e14610d97578063c9b5ef8e14610de1578063d490da4d14610e39578063e1ee38ec14610e95576101e4565b8063aacaaf88116100de578063aacaaf8814610b5b578063b20f3f3714610c7f578063b377a9d514610ccd578063b6b3527214610d1b576101e4565b8063961bfeee14610a165780639be65a6014610a60578063a0aec10514610aa4578063a3411c0a14610b17576101e4565b80632df546f4116101875780635ed4bf81116101565780635ed4bf811461084e5780637cb8f8ba1461093b5780637cc0d906146109ae57806395813db4146109cc576101e4565b80632df546f41461064b57806343cd5c7e1461072e57806357518243146107865780635a1db8c4146107ea576101e4565b80631626ba7e116101c35780631626ba7e1461037857806319ab453c1461048f57806320c13b0b146104d35780632d0335ab146105f3576101e4565b80626fda35146101e957806309d22c8e1461020757806312ef080d146102ea575b600080fd5b6101f16110ac565b6040518082815260200191505060405180910390f35b6102e8600480360360a081101561021d57600080fd5b81019080803573ffffffffffffffffffffffffffffffffffffffff169060200190929190803573ffffffffffffffffffffffffffffffffffffffff169060200190929190803573ffffffffffffffffffffffffffffffffffffffff16906020019092919080359060200190929190803590602001906401000000008111156102a457600080fd5b8201836020820111156102b657600080fd5b803590602001918460018302840111640100000000831117156102d857600080fd5b90919293919293905050506110b2565b005b6103766004803603608081101561030057600080fd5b81019080803573ffffffffffffffffffffffffffffffffffffffff169060200190929190803573ffffffffffffffffffffffffffffffffffffffff169060200190929190803573ffffffffffffffffffffffffffffffffffffffff16906020019092919080359060200190929190505050611633565b005b61043b6004803603604081101561038e57600080fd5b8101908080359060200190929190803590602001906401000000008111156103b557600080fd5b8201836020820111156103c757600080fd5b803590602001918460018302840111640100000000831117156103e957600080fd5b91908080601f016020809104026020016040519081016040528093929190818152602001838380828437600081840152601f19601f820116905080830192505050505050509192919290505050611ac1565b60405180827bffffffffffffffffffffffffffffffffffffffffffffffffffffffff19167bffffffffffffffffffffffffffffffffffffffffffffffffffffffff1916815260200191505060405180910390f35b6104d1600480360360208110156104a557600080fd5b81019080803573ffffffffffffffffffffffffffffffffffffffff169060200190929190505050611c05565b005b61059f600480360360408110156104e957600080fd5b810190808035906020019064010000000081111561050657600080fd5b82018360208201111561051857600080fd5b8035906020019184600183028401116401000000008311171561053a57600080fd5b90919293919293908035906020019064010000000081111561055b57600080fd5b82018360208201111561056d57600080fd5b8035906020019184600183028401116401000000008311171561058f57600080fd5b90919293919293905050506124ea565b60405180827bffffffffffffffffffffffffffffffffffffffffffffffffffffffff19167bffffffffffffffffffffffffffffffffffffffffffffffffffffffff1916815260200191505060405180910390f35b6106356004803603602081101561060957600080fd5b81019080803573ffffffffffffffffffffffffffffffffffffffff1690602001909291905050506125af565b6040518082815260200191505060405180910390f35b61072c600480360360a081101561066157600080fd5b81019080803573ffffffffffffffffffffffffffffffffffffffff169060200190929190803573ffffffffffffffffffffffffffffffffffffffff169060200190929190803573ffffffffffffffffffffffffffffffffffffffff16906020019092919080359060200190929190803590602001906401000000008111156106e857600080fd5b8201836020820111156106fa57600080fd5b8035906020019184600183028401116401000000008311171561071c57600080fd5b90919293919293905050506125fb565b005b6107706004803603602081101561074457600080fd5b81019080803573ffffffffffffffffffffffffffffffffffffffff169060200190929190505050612b32565b6040518082815260200191505060405180910390f35b6107e86004803603604081101561079c57600080fd5b81019080803573ffffffffffffffffffffffffffffffffffffffff169060200190929190803573ffffffffffffffffffffffffffffffffffffffff169060200190929190505050612bf6565b005b61084c6004803603604081101561080057600080fd5b81019080803573ffffffffffffffffffffffffffffffffffffffff169060200190929190803573ffffffffffffffffffffffffffffffffffffffff169060200190929190505050612fe5565b005b610939600480360360c081101561086457600080fd5b81019080803573ffffffffffffffffffffffffffffffffffffffff169060200190929190803573ffffffffffffffffffffffffffffffffffffffff169060200190929190803573ffffffffffffffffffffffffffffffffffffffff16906020019092919080359060200190929190803590602001906401000000008111156108eb57600080fd5b8201836020820111156108fd57600080fd5b8035906020019184600183028401116401000000008311171561091f57600080fd5b90919293919293908035906020019092919050505061326f565b005b61097d6004803603602081101561095157600080fd5b81019080803573ffffffffffffffffffffffffffffffffffffffff1690602001909291905050506136cd565b604051808381526020018267ffffffffffffffff1667ffffffffffffffff1681526020019250505060405180910390f35b6109b66137f2565b6040518082815260200191505060405180910390f35b6109d46137f8565b604051808273ffffffffffffffffffffffffffffffffffffffff1673ffffffffffffffffffffffffffffffffffffffff16815260200191505060405180910390f35b610a1e61381e565b604051808273ffffffffffffffffffffffffffffffffffffffff1673ffffffffffffffffffffffffffffffffffffffff16815260200191505060405180910390f35b610aa260048036036020811015610a7657600080fd5b81019080803573ffffffffffffffffffffffffffffffffffffffff169060200190929190505050613844565b005b610ae660048036036020811015610aba57600080fd5b81019080803573ffffffffffffffffffffffffffffffffffffffff1690602001909291905050506139e8565b604051808381526020018267ffffffffffffffff1667ffffffffffffffff1681526020019250505060405180910390f35b610b5960048036036020811015610b2d57600080fd5b81019080803573ffffffffffffffffffffffffffffffffffffffff169060200190929190505050613abf565b005b610c65600480360360c0811015610b7157600080fd5b81019080803573ffffffffffffffffffffffffffffffffffffffff16906020019092919080359060200190640100000000811115610bae57600080fd5b820183602082011115610bc057600080fd5b80359060200191846001830284011164010000000083111715610be257600080fd5b90919293919293908035906020019092919080359060200190640100000000811115610c0d57600080fd5b820183602082011115610c1f57600080fd5b80359060200191846001830284011164010000000083111715610c4157600080fd5b90919293919293908035906020019092919080359060200190929190505050613cb4565b604051808215151515815260200191505060405180910390f35b610ccb60048036036040811015610c9557600080fd5b81019080803573ffffffffffffffffffffffffffffffffffffffff16906020019092919080359060200190929190505050614030565b005b610d1960048036036040811015610ce357600080fd5b81019080803573ffffffffffffffffffffffffffffffffffffffff16906020019092919080359060200190929190505050614227565b005b610d7d60048036036040811015610d3157600080fd5b81019080803573ffffffffffffffffffffffffffffffffffffffff169060200190929190803573ffffffffffffffffffffffffffffffffffffffff169060200190929190505050614575565b604051808215151515815260200191505060405180910390f35b610d9f6146a0565b604051808273ffffffffffffffffffffffffffffffffffffffff1673ffffffffffffffffffffffffffffffffffffffff16815260200191505060405180910390f35b610e2360048036036020811015610df757600080fd5b81019080803573ffffffffffffffffffffffffffffffffffffffff1690602001909291905050506146c6565b6040518082815260200191505060405180910390f35b610e416146e4565b60405180827bffffffffffffffffffffffffffffffffffffffffffffffffffffffff19167bffffffffffffffffffffffffffffffffffffffffffffffffffffffff1916815260200191505060405180910390f35b610ee160048036036040811015610eab57600080fd5b81019080803573ffffffffffffffffffffffffffffffffffffffff169060200190929190803590602001909291905050506146f3565b604051808267ffffffffffffffff1667ffffffffffffffff16815260200191505060405180910390f35b610f13614751565b6040518082815260200191505060405180910390f35b610f8b60048036036040811015610f3f57600080fd5b81019080803573ffffffffffffffffffffffffffffffffffffffff169060200190929190803573ffffffffffffffffffffffffffffffffffffffff169060200190929190505050614757565b005b610fcf60048036036020811015610fa357600080fd5b81019080803573ffffffffffffffffffffffffffffffffffffffff169060200190929190505050614b0d565b604051808215151515815260200191505060405180910390f35b6110aa60048036036080811015610fff57600080fd5b81019080803573ffffffffffffffffffffffffffffffffffffffff169060200190929190803573ffffffffffffffffffffffffffffffffffffffff169060200190929190803590602001909291908035906020019064010000000081111561106657600080fd5b82018360208201111561107857600080fd5b8035906020019184600183028401116401000000008311171561109a57600080fd5b9091929391929390505050614b58565b005b60075481565b853073ffffffffffffffffffffffffffffffffffffffff163373ffffffffffffffffffffffffffffffffffffffff1614806110f357506110f28133614e63565b5b611148576040517f08c379a0000000000000000000000000000000000000000000000000000000008152600401808060200182810382526023815260200180616b176023913960400191505060405180910390fd5b86600160009054906101000a900473ffffffffffffffffffffffffffffffffffffffff1673ffffffffffffffffffffffffffffffffffffffff16634a4fbeec826040518263ffffffff1660e01b8152600401808273ffffffffffffffffffffffffffffffffffffffff1673ffffffffffffffffffffffffffffffffffffffff16815260200191505060206040518083038186803b1580156111e857600080fd5b505afa1580156111fc573d6000803e3d6000fd5b505050506040513d602081101561121257600080fd5b810190808051906020019092919050505015611296576040517f08c379a000000000000000000000000000000000000000000000000000000000815260040180806020018281038252601b8152602001807f424d3a2077616c6c6574206d75737420626520756e6c6f636b6564000000000081525060200191505060405180910390fd5b6112a08887614f1c565b6112aa8887614575565b15611311576112bb88888888615178565b61130c8887600087878080601f016020809104026020016040519081016040528093929190818152602001838380828437600081840152601f19601f820116905080830192505050505050506152ec565b611629565b60008773ffffffffffffffffffffffffffffffffffffffff1663dd62ed3e8a896040518363ffffffff1660e01b8152600401808373ffffffffffffffffffffffffffffffffffffffff1673ffffffffffffffffffffffffffffffffffffffff1681526020018273ffffffffffffffffffffffffffffffffffffffff1673ffffffffffffffffffffffffffffffffffffffff1681526020019250505060206040518083038186803b1580156113c457600080fd5b505afa1580156113d8573d6000803e3d6000fd5b505050506040513d60208110156113ee57600080fd5b8101908080519060200190929190505050905080861161145e576114598988600088888080601f016020809104026020016040519081016040528093929190818152602001838380828437600081840152601f19601f820116905080830192505050505050506152ec565b611627565b600081870390506000600960009054906101000a900473ffffffffffffffffffffffffffffffffffffffff1673ffffffffffffffffffffffffffffffffffffffff1663ce55c852838c6040518363ffffffff1660e01b8152600401808381526020018273ffffffffffffffffffffffffffffffffffffffff1673ffffffffffffffffffffffffffffffffffffffff1681526020019250505060206040518083038186803b15801561150e57600080fd5b505afa158015611522573d6000803e3d6000fd5b505050506040513d602081101561153857600080fd5b810190808051906020019092919050505090506115558b826153d1565b6115c7576040517f08c379a000000000000000000000000000000000000000000000000000000000815260040180806020018281038252601d8152602001807f544d3a20417070726f76652061626f7665206461696c79206c696d697400000081525060200191505060405180910390fd5b6115d38b8b8b8b615178565b6116248b8a60008a8a8080601f016020809104026020016040519081016040528093929190818152602001838380828437600081840152601f19601f820116905080830192505050505050506152ec565b50505b505b5050505050505050565b833073ffffffffffffffffffffffffffffffffffffffff163373ffffffffffffffffffffffffffffffffffffffff16148061167457506116738133614e63565b5b6116c9576040517f08c379a0000000000000000000000000000000000000000000000000000000008152600401808060200182810382526023815260200180616b176023913960400191505060405180910390fd5b84600160009054906101000a900473ffffffffffffffffffffffffffffffffffffffff1673ffffffffffffffffffffffffffffffffffffffff16634a4fbeec826040518263ffffffff1660e01b8152600401808273ffffffffffffffffffffffffffffffffffffffff1673ffffffffffffffffffffffffffffffffffffffff16815260200191505060206040518083038186803b15801561176957600080fd5b505afa15801561177d573d6000803e3d6000fd5b505050506040513d602081101561179357600080fd5b810190808051906020019092919050505015611817576040517f08c379a000000000000000000000000000000000000000000000000000000000815260040180806020018281038252601b8152602001807f424d3a2077616c6c6574206d75737420626520756e6c6f636b6564000000000081525060200191505060405180910390fd5b6118218685614575565b156118375761183286868686615178565b611ab9565b60008573ffffffffffffffffffffffffffffffffffffffff1663dd62ed3e88876040518363ffffffff1660e01b8152600401808373ffffffffffffffffffffffffffffffffffffffff1673ffffffffffffffffffffffffffffffffffffffff1681526020018273ffffffffffffffffffffffffffffffffffffffff1673ffffffffffffffffffffffffffffffffffffffff1681526020019250505060206040518083038186803b1580156118ea57600080fd5b505afa1580156118fe573d6000803e3d6000fd5b505050506040513d602081101561191457600080fd5b8101908080519060200190929190505050905080841161193f5761193a87878787615178565b611ab7565b600081850390506000600960009054906101000a900473ffffffffffffffffffffffffffffffffffffffff1673ffffffffffffffffffffffffffffffffffffffff1663ce55c852838a6040518363ffffffff1660e01b8152600401808381526020018273ffffffffffffffffffffffffffffffffffffffff1673ffffffffffffffffffffffffffffffffffffffff1681526020019250505060206040518083038186803b1580156119ef57600080fd5b505afa158015611a03573d6000803e3d6000fd5b505050506040513d6020811015611a1957600080fd5b81019080805190602001909291905050509050611a3689826153d1565b611aa8576040517f08c379a000000000000000000000000000000000000000000000000000000000815260040180806020018281038252601d8152602001807f544d3a20417070726f76652061626f7665206461696c79206c696d697400000081525060200191505060405180910390fd5b611ab489898989615178565b50505b505b505050505050565b60006041825114611b3a576040517f08c379a000000000000000000000000000000000000000000000000000000000815260040180806020018281038252601c8152602001807f544d3a20696e76616c6964207369676e6174757265206c656e6774680000000081525060200191505060405180910390fd5b6000611b48848460006154d6565b9050611b543382614e63565b611bc6576040517f08c379a00000000000000000000000000000000000000000000000000000000081526004018080602001828103825260128152602001807f544d3a20496e76616c6964207369676e6572000000000000000000000000000081525060200191505060405180910390fd5b60405180807f697356616c69645369676e617475726528627974657333322c62797465732900815250601f019050604051809103902091505092915050565b808073ffffffffffffffffffffffffffffffffffffffff163373ffffffffffffffffffffffffffffffffffffffff1614611ca7576040517f08c379a00000000000000000000000000000000000000000000000000000000081526004018080602001828103825260198152602001807f424d3a2063616c6c6572206d7573742062652077616c6c65740000000000000081525060200191505060405180910390fd5b8173ffffffffffffffffffffffffffffffffffffffff166313da30b23060405180807f697356616c69645369676e61747572652862797465732c627974657329000000815250601d01905060405180910390206040518363ffffffff1660e01b8152600401808373ffffffffffffffffffffffffffffffffffffffff1673ffffffffffffffffffffffffffffffffffffffff168152602001827bffffffffffffffffffffffffffffffffffffffffffffffffffffffff19167bffffffffffffffffffffffffffffffffffffffffffffffffffffffff1916815260200192505050600060405180830381600087803b158015611da157600080fd5b505af1158015611db5573d6000803e3d6000fd5b505050508173ffffffffffffffffffffffffffffffffffffffff166313da30b23060405180807f697356616c69645369676e617475726528627974657333322c62797465732900815250601f01905060405180910390206040518363ffffffff1660e01b8152600401808373ffffffffffffffffffffffffffffffffffffffff1673ffffffffffffffffffffffffffffffffffffffff168152602001827bffffffffffffffffffffffffffffffffffffffffffffffffffffffff19167bffffffffffffffffffffffffffffffffffffffffffffffffffffffff1916815260200192505050600060405180830381600087803b158015611eb357600080fd5b505af1158015611ec7573d6000803e3d6000fd5b50505050600073ffffffffffffffffffffffffffffffffffffffff16600a60009054906101000a900473ffffffffffffffffffffffffffffffffffffffff1673ffffffffffffffffffffffffffffffffffffffff161415611f3057611f2b82615594565b6124e6565b6000600a60009054906101000a900473ffffffffffffffffffffffffffffffffffffffff1673ffffffffffffffffffffffffffffffffffffffff166343cd5c7e846040518263ffffffff1660e01b8152600401808273ffffffffffffffffffffffffffffffffffffffff1673ffffffffffffffffffffffffffffffffffffffff16815260200191505060206040518083038186803b158015611fd157600080fd5b505afa158015611fe5573d6000803e3d6000fd5b505050506040513d6020811015611ffb57600080fd5b81019080805190602001909291905050509050600080600a60009054906101000a900473ffffffffffffffffffffffffffffffffffffffff1673ffffffffffffffffffffffffffffffffffffffff1663a0aec105866040518263ffffffff1660e01b8152600401808273ffffffffffffffffffffffffffffffffffffffff1673ffffffffffffffffffffffffffffffffffffffff168152602001915050604080518083038186803b1580156120af57600080fd5b505afa1580156120c3573d6000803e3d6000fd5b505050506040513d60408110156120d957600080fd5b81019080805190602001909291908051906020019092919050505091509150600083148015612112575060008167ffffffffffffffff16145b156121285761212085615594565b5050506124e6565b818314156121b15782600360008773ffffffffffffffffffffffffffffffffffffffff1673ffffffffffffffffffffffffffffffffffffffff16815260200190815260200160002060000160000160006101000a8154816fffffffffffffffffffffffffffffffff02191690836fffffffffffffffffffffffffffffffff1602179055506122ed565b6040518060600160405280846fffffffffffffffffffffffffffffffff168152602001836fffffffffffffffffffffffffffffffff1681526020018267ffffffffffffffff16815250600360008773ffffffffffffffffffffffffffffffffffffffff1673ffffffffffffffffffffffffffffffffffffffff16815260200190815260200160002060000160008201518160000160006101000a8154816fffffffffffffffffffffffffffffffff02191690836fffffffffffffffffffffffffffffffff16021790555060208201518160000160106101000a8154816fffffffffffffffffffffffffffffffff02191690836fffffffffffffffffffffffffffffffff16021790555060408201518160010160006101000a81548167ffffffffffffffff021916908367ffffffffffffffff1602179055509050505b600080600a60009054906101000a900473ffffffffffffffffffffffffffffffffffffffff1673ffffffffffffffffffffffffffffffffffffffff16637cb8f8ba886040518263ffffffff1660e01b8152600401808273ffffffffffffffffffffffffffffffffffffffff1673ffffffffffffffffffffffffffffffffffffffff168152602001915050604080518083038186803b15801561238e57600080fd5b505afa1580156123a2573d6000803e3d6000fd5b505050506040513d60408110156123b857600080fd5b81019080805190602001909291908051906020019092919050505091509150428167ffffffffffffffff1611156124e0576040518060400160405280612407848861572890919063ffffffff16565b6fffffffffffffffffffffffffffffffff1681526020018267ffffffffffffffff16815250600360008973ffffffffffffffffffffffffffffffffffffffff1673ffffffffffffffffffffffffffffffffffffffff16815260200190815260200160002060020160008201518160000160006101000a8154816fffffffffffffffffffffffffffffffff02191690836fffffffffffffffffffffffffffffffff16021790555060208201518160000160106101000a81548167ffffffffffffffff021916908367ffffffffffffffff1602179055509050505b50505050505b5050565b600080858560405160200180838380828437808301925050509250505060405160208183030381529060405280519060200120905061256d8185858080601f016020809104026020016040519081016040528093929190818152602001838380828437600081840152601f19601f82011690508083019250505050505050611ac1565b5060405180807f697356616c69645369676e61747572652862797465732c627974657329000000815250601d0190506040518091039020915050949350505050565b6000600260008373ffffffffffffffffffffffffffffffffffffffff1673ffffffffffffffffffffffffffffffffffffffff168152602001908152602001600020600001549050919050565b853073ffffffffffffffffffffffffffffffffffffffff163373ffffffffffffffffffffffffffffffffffffffff16148061263c575061263b8133614e63565b5b612691576040517f08c379a0000000000000000000000000000000000000000000000000000000008152600401808060200182810382526023815260200180616b176023913960400191505060405180910390fd5b86600160009054906101000a900473ffffffffffffffffffffffffffffffffffffffff1673ffffffffffffffffffffffffffffffffffffffff16634a4fbeec826040518263ffffffff1660e01b8152600401808273ffffffffffffffffffffffffffffffffffffffff1673ffffffffffffffffffffffffffffffffffffffff16815260200191505060206040518083038186803b15801561273157600080fd5b505afa158015612745573d6000803e3d6000fd5b505050506040513d602081101561275b57600080fd5b8101908080519060200190929190505050156127df576040517f08c379a000000000000000000000000000000000000000000000000000000000815260040180806020018281038252601b8152602001807f424d3a2077616c6c6574206d75737420626520756e6c6f636b6564000000000081525060200191505060405180910390fd5b6127e98887614575565b156128445761283f8888888888888080601f016020809104026020016040519081016040528093929190818152602001838380828437600081840152601f19601f82011690508083019250505050505050615748565b612b28565b600073eeeeeeeeeeeeeeeeeeeeeeeeeeeeeeeeeeeeeeee73ffffffffffffffffffffffffffffffffffffffff168873ffffffffffffffffffffffffffffffffffffffff161461297457600960009054906101000a900473ffffffffffffffffffffffffffffffffffffffff1673ffffffffffffffffffffffffffffffffffffffff1663ce55c852878a6040518363ffffffff1660e01b8152600401808381526020018273ffffffffffffffffffffffffffffffffffffffff1673ffffffffffffffffffffffffffffffffffffffff1681526020019250505060206040518083038186803b15801561293457600080fd5b505afa158015612948573d6000803e3d6000fd5b505050506040513d602081101561295e57600080fd5b8101908080519060200190929190505050612976565b855b905061298289826153d1565b156129dd576129d88989898989898080601f016020809104026020016040519081016040528093929190818152602001838380828437600081840152601f19601f82011690508083019250505050505050615748565b612b26565b600080612a3360008c8c8c8c8c8c8080601f016020809104026020016040519081016040528093929190818152602001838380828437600081840152601f19601f8201169050808301925050505050505061598d565b9150915080828c73ffffffffffffffffffffffffffffffffffffffff167fc63146cfd39cd6097f6e314e8595c4554faf95175b45c6215517903c12e765d98d8d8d8d8d604051808673ffffffffffffffffffffffffffffffffffffffff1673ffffffffffffffffffffffffffffffffffffffff1681526020018573ffffffffffffffffffffffffffffffffffffffff1673ffffffffffffffffffffffffffffffffffffffff168152602001848152602001806020018281038252848482818152602001925080828437600081840152601f19601f820116905080830192505050965050505050505060405180910390a450505b505b5050505050505050565b600080600360008473ffffffffffffffffffffffffffffffffffffffff1673ffffffffffffffffffffffffffffffffffffffff1681526020019081526020016000206000019050612bdc8160000160009054906101000a90046fffffffffffffffffffffffffffffffff168260000160109054906101000a90046fffffffffffffffffffffffffffffffff168360010160009054906101000a900467ffffffffffffffff16615bde565b6fffffffffffffffffffffffffffffffff16915050919050565b813073ffffffffffffffffffffffffffffffffffffffff163373ffffffffffffffffffffffffffffffffffffffff161480612c375750612c368133614e63565b5b612c8c576040517f08c379a0000000000000000000000000000000000000000000000000000000008152600401808060200182810382526023815260200180616b176023913960400191505060405180910390fd5b82600160009054906101000a900473ffffffffffffffffffffffffffffffffffffffff1673ffffffffffffffffffffffffffffffffffffffff16634a4fbeec826040518263ffffffff1660e01b8152600401808273ffffffffffffffffffffffffffffffffffffffff1673ffffffffffffffffffffffffffffffffffffffff16815260200191505060206040518083038186803b158015612d2c57600080fd5b505afa158015612d40573d6000803e3d6000fd5b505050506040513d6020811015612d5657600080fd5b810190808051906020019092919050505015612dda576040517f08c379a000000000000000000000000000000000000000000000000000000000815260040180806020018281038252601b8152602001807f424d3a2077616c6c6574206d75737420626520756e6c6f636b6564000000000081525060200191505060405180910390fd5b612de48484614575565b15612e57576040517f08c379a000000000000000000000000000000000000000000000000000000000815260040180806020018281038252601e8152602001807f54543a2074617267657420616c72656164792077686974656c6973746564000081525060200191505060405180910390fd5b6000612e6e60065442615c1a90919063ffffffff16565b9050600860009054906101000a900473ffffffffffffffffffffffffffffffffffffffff1673ffffffffffffffffffffffffffffffffffffffff166380bfbe688686846040518463ffffffff1660e01b8152600401808473ffffffffffffffffffffffffffffffffffffffff1673ffffffffffffffffffffffffffffffffffffffff1681526020018373ffffffffffffffffffffffffffffffffffffffff1673ffffffffffffffffffffffffffffffffffffffff1681526020018281526020019350505050600060405180830381600087803b158015612f4d57600080fd5b505af1158015612f61573d6000803e3d6000fd5b505050508373ffffffffffffffffffffffffffffffffffffffff168573ffffffffffffffffffffffffffffffffffffffff167f1f57f9641d3e8733ed672fef5ac85464bd7215ef2f21e83428e8408248b13dcd83604051808267ffffffffffffffff1667ffffffffffffffff16815260200191505060405180910390a35050505050565b813073ffffffffffffffffffffffffffffffffffffffff163373ffffffffffffffffffffffffffffffffffffffff16148061302657506130258133614e63565b5b61307b576040517f08c379a0000000000000000000000000000000000000000000000000000000008152600401808060200182810382526023815260200180616b176023913960400191505060405180910390fd5b6000809054906101000a900473ffffffffffffffffffffffffffffffffffffffff1673ffffffffffffffffffffffffffffffffffffffff16630bcd4ebb836040518263ffffffff1660e01b8152600401808273ffffffffffffffffffffffffffffffffffffffff1673ffffffffffffffffffffffffffffffffffffffff16815260200191505060206040518083038186803b15801561311957600080fd5b505afa15801561312d573d6000803e3d6000fd5b505050506040513d602081101561314357600080fd5b81019080805190602001909291905050506131c6576040517f08c379a000000000000000000000000000000000000000000000000000000000815260040180806020018281038252601c8152602001807f424d3a206d6f64756c65206973206e6f7420726567697374657265640000000081525060200191505060405180910390fd5b8273ffffffffffffffffffffffffffffffffffffffff16631f17732d8360016040518363ffffffff1660e01b8152600401808373ffffffffffffffffffffffffffffffffffffffff1673ffffffffffffffffffffffffffffffffffffffff1681526020018215151515815260200192505050600060405180830381600087803b15801561325257600080fd5b505af1158015613266573d6000803e3d6000fd5b50505050505050565b86600160009054906101000a900473ffffffffffffffffffffffffffffffffffffffff1673ffffffffffffffffffffffffffffffffffffffff16634a4fbeec826040518263ffffffff1660e01b8152600401808273ffffffffffffffffffffffffffffffffffffffff1673ffffffffffffffffffffffffffffffffffffffff16815260200191505060206040518083038186803b15801561330f57600080fd5b505afa158015613323573d6000803e3d6000fd5b505050506040513d602081101561333957600080fd5b8101908080519060200190929190505050156133bd576040517f08c379a000000000000000000000000000000000000000000000000000000000815260040180806020018281038252601b8152602001807f424d3a2077616c6c6574206d75737420626520756e6c6f636b6564000000000081525060200191505060405180910390fd5b600080888888888888604051602001808860008111156133d957fe5b60ff1660f81b81526001018773ffffffffffffffffffffffffffffffffffffffff1673ffffffffffffffffffffffffffffffffffffffff1660601b81526014018673ffffffffffffffffffffffffffffffffffffffff1673ffffffffffffffffffffffffffffffffffffffff1660601b8152601401858152602001848480828437808301925050508281526020019750505050505050506040516020818303038152906040528051906020012090506000600560008b73ffffffffffffffffffffffffffffffffffffffff1673ffffffffffffffffffffffffffffffffffffffff168152602001908152602001600020600001600083815260200190815260200160002054905060008111613556576040517f08c379a000000000000000000000000000000000000000000000000000000000815260040180806020018281038252601c8152602001807f54543a20756e6b6e6f776e2070656e64696e67207472616e736665720000000081525060200191505060405180910390fd5b600061356d60075483615c1a90919063ffffffff16565b905042821115801561357f5750804211155b6135d4576040517f08c379a000000000000000000000000000000000000000000000000000000000815260040180806020018281038252602c815260200180616aeb602c913960400191505060405180910390fd5b600560008c73ffffffffffffffffffffffffffffffffffffffff1673ffffffffffffffffffffffffffffffffffffffff16815260200190815260200160002060000160008481526020019081526020016000206000905561367c8b8b8b8b8b8b8080601f016020809104026020016040519081016040528093929190818152602001838380828437600081840152601f19601f82011690508083019250505050505050615748565b828b73ffffffffffffffffffffffffffffffffffffffff167f53d984c4cd3917405bdcc3baabad7c1269dd3baf7c2c53ca571d8d7de9629bc960405160405180910390a35050505050505050505050565b60008060006136db84612b32565b90506000600360008673ffffffffffffffffffffffffffffffffffffffff1673ffffffffffffffffffffffffffffffffffffffff16815260200190815260200160002060020190508060000160109054906101000a900467ffffffffffffffff1667ffffffffffffffff1642111561375d5781935062015180420192506137eb565b8060000160109054906101000a900467ffffffffffffffff169250818160000160009054906101000a90046fffffffffffffffffffffffffffffffff166fffffffffffffffffffffffffffffffff1610156137ea578060000160009054906101000a90046fffffffffffffffffffffffffffffffff166fffffffffffffffffffffffffffffffff16820393505b5b5050915091565b60065481565b600a60009054906101000a900473ffffffffffffffffffffffffffffffffffffffff1681565b600860009054906101000a900473ffffffffffffffffffffffffffffffffffffffff1681565b60008173ffffffffffffffffffffffffffffffffffffffff166370a08231306040518263ffffffff1660e01b8152600401808273ffffffffffffffffffffffffffffffffffffffff1673ffffffffffffffffffffffffffffffffffffffff16815260200191505060206040518083038186803b1580156138c357600080fd5b505afa1580156138d7573d6000803e3d6000fd5b505050506040513d60208110156138ed57600080fd5b810190808051906020019092919050505090508173ffffffffffffffffffffffffffffffffffffffff1663a9059cbb6000809054906101000a900473ffffffffffffffffffffffffffffffffffffffff16836040518363ffffffff1660e01b8152600401808373ffffffffffffffffffffffffffffffffffffffff1673ffffffffffffffffffffffffffffffffffffffff16815260200182815260200192505050602060405180830381600087803b1580156139a857600080fd5b505af11580156139bc573d6000803e3d6000fd5b505050506040513d60208110156139d257600080fd5b8101908080519060200190929190505050505050565b6000806000600360008573ffffffffffffffffffffffffffffffffffffffff1673ffffffffffffffffffffffffffffffffffffffff16815260200190815260200160002060000190508060010160009054906101000a900467ffffffffffffffff1667ffffffffffffffff164210613a6857600080819150809050613ab5565b8060000160109054906101000a90046fffffffffffffffffffffffffffffffff166fffffffffffffffffffffffffffffffff168160010160009054906101000a900467ffffffffffffffff165b9250925050915091565b803073ffffffffffffffffffffffffffffffffffffffff163373ffffffffffffffffffffffffffffffffffffffff161480613b005750613aff8133614e63565b5b613b55576040517f08c379a0000000000000000000000000000000000000000000000000000000008152600401808060200182810382526023815260200180616b176023913960400191505060405180910390fd5b81600160009054906101000a900473ffffffffffffffffffffffffffffffffffffffff1673ffffffffffffffffffffffffffffffffffffffff16634a4fbeec826040518263ffffffff1660e01b8152600401808273ffffffffffffffffffffffffffffffffffffffff1673ffffffffffffffffffffffffffffffffffffffff16815260200191505060206040518083038186803b158015613bf557600080fd5b505afa158015613c09573d6000803e3d6000fd5b505050506040513d6020811015613c1f57600080fd5b810190808051906020019092919050505015613ca3576040517f08c379a000000000000000000000000000000000000000000000000000000000815260040180806020018281038252601b8152602001807f424d3a2077616c6c6574206d75737420626520756e6c6f636b6564000000000081525060200191505060405180910390fd5b613caf83600654615c39565b505050565b6000805a90506000613d10308c60008d8d8080601f016020809104026020016040519081016040528093929190818152602001838380828437600081840152601f19601f820116905080830192505050505050508c8a8a615c7a565b9050613d1d8b8983615e77565b613d8f576040517f08c379a00000000000000000000000000000000000000000000000000000000081526004018080602001828103825260158152602001807f524d3a204475706c69636174652072657175657374000000000000000000000081525060200191505060405180910390fd5b613ddd8b8b8b8080601f016020809104026020016040519081016040528093929190818152602001838380828437600081840152601f19601f82011690508083019250505050505050615e8c565b613e32576040517f08c379a000000000000000000000000000000000000000000000000000000000815260040180806020018281038252604a815260200180616a7e604a913960600191505060405180910390fd5b6000613e828c8c8c8080601f016020809104026020016040519081016040528093929190818152602001838380828437600081840152601f19601f82011690508083019250505050505050615f47565b905087879050604182021415613fd057613e9e8c868884615f53565b15613fcf576000811480613f425750613f418c8c8c8080601f016020809104026020016040519081016040528093929190818152602001838380828437600081840152601f19601f82011690508083019250505050505050848b8b8080601f016020809104026020016040519081016040528093929190818152602001838380828437600081840152601f19601f8201169050808301925050505050505061608c565b5b15613fce573073ffffffffffffffffffffffffffffffffffffffff168b8b6040518083838082843780830192505050925050506000604051808303816000865af19150503d8060008114613fb2576040519150601f19603f3d011682016040523d82523d6000602084013e613fb7565b606091505b505080945050613fcd8c5a8503888885336160b2565b5b5b5b8315158c73ffffffffffffffffffffffffffffffffffffffff167f6bb0b384ce772133df63560651bc8c727c53306cec1d51e2cbf8ea35fb8f2ec1846040518082815260200191505060405180910390a350505098975050505050505050565b813073ffffffffffffffffffffffffffffffffffffffff163373ffffffffffffffffffffffffffffffffffffffff16148061407157506140708133614e63565b5b6140c6576040517f08c379a0000000000000000000000000000000000000000000000000000000008152600401808060200182810382526023815260200180616b176023913960400191505060405180910390fd5b82600160009054906101000a900473ffffffffffffffffffffffffffffffffffffffff1673ffffffffffffffffffffffffffffffffffffffff16634a4fbeec826040518263ffffffff1660e01b8152600401808273ffffffffffffffffffffffffffffffffffffffff1673ffffffffffffffffffffffffffffffffffffffff16815260200191505060206040518083038186803b15801561416657600080fd5b505afa15801561417a573d6000803e3d6000fd5b505050506040513d602081101561419057600080fd5b810190808051906020019092919050505015614214576040517f08c379a000000000000000000000000000000000000000000000000000000000815260040180806020018281038252601b8152602001807f424d3a2077616c6c6574206d75737420626520756e6c6f636b6564000000000081525060200191505060405180910390fd5b6142218484600654616125565b50505050565b813073ffffffffffffffffffffffffffffffffffffffff163373ffffffffffffffffffffffffffffffffffffffff16148061426857506142678133614e63565b5b6142bd576040517f08c379a0000000000000000000000000000000000000000000000000000000008152600401808060200182810382526023815260200180616b176023913960400191505060405180910390fd5b82600160009054906101000a900473ffffffffffffffffffffffffffffffffffffffff1673ffffffffffffffffffffffffffffffffffffffff16634a4fbeec826040518263ffffffff1660e01b8152600401808273ffffffffffffffffffffffffffffffffffffffff1673ffffffffffffffffffffffffffffffffffffffff16815260200191505060206040518083038186803b15801561435d57600080fd5b505afa158015614371573d6000803e3d6000fd5b505050506040513d602081101561438757600080fd5b81019080805190602001909291905050501561440b576040517f08c379a000000000000000000000000000000000000000000000000000000000815260040180806020018281038252601b8152602001807f424d3a2077616c6c6574206d75737420626520756e6c6f636b6564000000000081525060200191505060405180910390fd5b6000600560008673ffffffffffffffffffffffffffffffffffffffff1673ffffffffffffffffffffffffffffffffffffffff168152602001908152602001600020600001600085815260200190815260200160002054116144d4576040517f08c379a000000000000000000000000000000000000000000000000000000000815260040180806020018281038252601a8152602001807f54543a20756e6b6e6f776e2070656e64696e6720616374696f6e00000000000081525060200191505060405180910390fd5b600560008573ffffffffffffffffffffffffffffffffffffffff1673ffffffffffffffffffffffffffffffffffffffff168152602001908152602001600020600001600084815260200190815260200160002060009055828473ffffffffffffffffffffffffffffffffffffffff167f2914460f2e2359d06bcda666d815164a8e77d104644dfbe6360885abfa2da59c60405160405180910390a350505050565b600080600860009054906101000a900473ffffffffffffffffffffffffffffffffffffffff1673ffffffffffffffffffffffffffffffffffffffff166313f4a0ea85856040518363ffffffff1660e01b8152600401808373ffffffffffffffffffffffffffffffffffffffff1673ffffffffffffffffffffffffffffffffffffffff1681526020018273ffffffffffffffffffffffffffffffffffffffff1673ffffffffffffffffffffffffffffffffffffffff1681526020019250505060206040518083038186803b15801561464b57600080fd5b505afa15801561465f573d6000803e3d6000fd5b505050506040513d602081101561467557600080fd5b8101908080519060200190929190505050905060008111801561469757504281105b91505092915050565b600960009054906101000a900473ffffffffffffffffffffffffffffffffffffffff1681565b60026020528060005260406000206000915090508060000154905081565b600063d490da4d60e01b905090565b6000600560008473ffffffffffffffffffffffffffffffffffffffff1673ffffffffffffffffffffffffffffffffffffffff168152602001908152602001600020600001600083815260200190815260200160002054905092915050565b60045481565b813073ffffffffffffffffffffffffffffffffffffffff163373ffffffffffffffffffffffffffffffffffffffff16148061479857506147978133614e63565b5b6147ed576040517f08c379a0000000000000000000000000000000000000000000000000000000008152600401808060200182810382526023815260200180616b176023913960400191505060405180910390fd5b82600160009054906101000a900473ffffffffffffffffffffffffffffffffffffffff1673ffffffffffffffffffffffffffffffffffffffff16634a4fbeec826040518263ffffffff1660e01b8152600401808273ffffffffffffffffffffffffffffffffffffffff1673ffffffffffffffffffffffffffffffffffffffff16815260200191505060206040518083038186803b15801561488d57600080fd5b505afa1580156148a1573d6000803e3d6000fd5b505050506040513d60208110156148b757600080fd5b81019080805190602001909291905050501561493b576040517f08c379a000000000000000000000000000000000000000000000000000000000815260040180806020018281038252601b8152602001807f424d3a2077616c6c6574206d75737420626520756e6c6f636b6564000000000081525060200191505060405180910390fd5b6149458484614575565b6149b7576040517f08c379a000000000000000000000000000000000000000000000000000000000815260040180806020018281038252601a8152602001807f54543a20746172676574206e6f742077686974656c697374656400000000000081525060200191505060405180910390fd5b600860009054906101000a900473ffffffffffffffffffffffffffffffffffffffff1673ffffffffffffffffffffffffffffffffffffffff166380bfbe68858560006040518463ffffffff1660e01b8152600401808473ffffffffffffffffffffffffffffffffffffffff1673ffffffffffffffffffffffffffffffffffffffff1681526020018373ffffffffffffffffffffffffffffffffffffffff1673ffffffffffffffffffffffffffffffffffffffff1681526020018281526020019350505050600060405180830381600087803b158015614a9557600080fd5b505af1158015614aa9573d6000803e3d6000fd5b505050508273ffffffffffffffffffffffffffffffffffffffff168473ffffffffffffffffffffffffffffffffffffffff167fd288ab5da2e1f37cf384a1565a3f905ad289b092fbdd31950dbbfef148c04f8860405160405180910390a350505050565b600080614b1983612b32565b90507fffffffffffffffffffffffffffffffffffffffffffffffffffffffffffffffff6fffffffffffffffffffffffffffffffff168114915050919050565b843073ffffffffffffffffffffffffffffffffffffffff163373ffffffffffffffffffffffffffffffffffffffff161480614b995750614b988133614e63565b5b614bee576040517f08c379a0000000000000000000000000000000000000000000000000000000008152600401808060200182810382526023815260200180616b176023913960400191505060405180910390fd5b85600160009054906101000a900473ffffffffffffffffffffffffffffffffffffffff1673ffffffffffffffffffffffffffffffffffffffff16634a4fbeec826040518263ffffffff1660e01b8152600401808273ffffffffffffffffffffffffffffffffffffffff1673ffffffffffffffffffffffffffffffffffffffff16815260200191505060206040518083038186803b158015614c8e57600080fd5b505afa158015614ca2573d6000803e3d6000fd5b505050506040513d6020811015614cb857600080fd5b810190808051906020019092919050505015614d3c576040517f08c379a000000000000000000000000000000000000000000000000000000000815260040180806020018281038252601b8152602001807f424d3a2077616c6c6574206d75737420626520756e6c6f636b6564000000000081525060200191505060405180910390fd5b614d468787614f1c565b614d508787614575565b15614daa57614da587878787878080601f016020809104026020016040519081016040528093929190818152602001838380828437600081840152601f19601f820116905080830192505050505050506152ec565b614e5a565b614db487866153d1565b614e09576040517f08c379a0000000000000000000000000000000000000000000000000000000008152600401808060200182810382526023815260200180616ac86023913960400191505060405180910390fd5b614e5987878787878080601f016020809104026020016040519081016040528093929190818152602001838380828437600081840152601f19601f820116905080830192505050505050506152ec565b5b50505050505050565b60008173ffffffffffffffffffffffffffffffffffffffff168373ffffffffffffffffffffffffffffffffffffffff16638da5cb5b6040518163ffffffff1660e01b815260040160206040518083038186803b158015614ec257600080fd5b505afa158015614ed6573d6000803e3d6000fd5b505050506040513d6020811015614eec57600080fd5b810190808051906020019092919050505073ffffffffffffffffffffffffffffffffffffffff1614905092915050565b8173ffffffffffffffffffffffffffffffffffffffff168173ffffffffffffffffffffffffffffffffffffffff161415801561500d57508173ffffffffffffffffffffffffffffffffffffffff1663d6eb1bbf826040518263ffffffff1660e01b8152600401808273ffffffffffffffffffffffffffffffffffffffff1673ffffffffffffffffffffffffffffffffffffffff16815260200191505060206040518083038186803b158015614fd057600080fd5b505afa158015614fe4573d6000803e3d6000fd5b505050506040513d6020811015614ffa57600080fd5b8101908080519060200190929190505050155b801561510257506000600960009054906101000a900473ffffffffffffffffffffffffffffffffffffffff1673ffffffffffffffffffffffffffffffffffffffff1663837479c9836040518263ffffffff1660e01b8152600401808273ffffffffffffffffffffffffffffffffffffffff1673ffffffffffffffffffffffffffffffffffffffff16815260200191505060206040518083038186803b1580156150b557600080fd5b505afa1580156150c9573d6000803e3d6000fd5b505050506040513d60208110156150df57600080fd5b81019080805190602001909291905050501480615101575061510082614b0d565b5b5b615174576040517f08c379a00000000000000000000000000000000000000000000000000000000081526004018080602001828103825260168152602001807f544d3a20466f7262696464656e20636f6e74726163740000000000000000000081525060200191505060405180910390fd5b5050565b60608282604051602401808373ffffffffffffffffffffffffffffffffffffffff1673ffffffffffffffffffffffffffffffffffffffff168152602001828152602001925050506040516020818303038152906040527f095ea7b3000000000000000000000000000000000000000000000000000000007bffffffffffffffffffffffffffffffffffffffffffffffffffffffff19166020820180517bffffffffffffffffffffffffffffffffffffffffffffffffffffffff8381831617835250505050905061524b8585600084616328565b508373ffffffffffffffffffffffffffffffffffffffff168573ffffffffffffffffffffffffffffffffffffffff167fdc47705473b4a899de6e16a740ecc86f2a65dc7dbb9eadd0a06ce5421a44e2308486604051808381526020018273ffffffffffffffffffffffffffffffffffffffff1673ffffffffffffffffffffffffffffffffffffffff1681526020019250505060405180910390a35050505050565b6152f884848484616328565b508273ffffffffffffffffffffffffffffffffffffffff168473ffffffffffffffffffffffffffffffffffffffff167fbfbd7fb6c6d7dd1ef01d18a7e98333f084363d82d5ce600328e8b941a53d665484846040518083815260200180602001828103825283818151815260200191508051906020019080838360005b83811015615390578082015181840152602081019050615375565b50505050905090810190601f1680156153bd5780820380516001836020036101000a031916815260200191505b50935050505060405180910390a350505050565b6000808214156153e457600190506154d0565b6000600360008573ffffffffffffffffffffffffffffffffffffffff1673ffffffffffffffffffffffffffffffffffffffff1681526020019081526020016000206000019050600061548f8260000160009054906101000a90046fffffffffffffffffffffffffffffffff168360000160109054906101000a90046fffffffffffffffffffffffffffffffff168460010160009054906101000a900467ffffffffffffffff16615bde565b90506154ae85826fffffffffffffffffffffffffffffffff1686616690565b156154c9576154be858286616806565b6001925050506154d0565b6000925050505b92915050565b60008060008084604102602001860151915084604102604001860151905060ff85604102604101870151169250601b8360ff1614806155185750601c8360ff16145b61552157600080fd5b60018784848460405160008152602001604052604051808581526020018460ff1660ff1681526020018381526020018281526020019450505050506020604051602081039080840390855afa15801561557e573d6000803e3d6000fd5b5050506020604051035193505050509392505050565b808073ffffffffffffffffffffffffffffffffffffffff163373ffffffffffffffffffffffffffffffffffffffff1614615636576040517f08c379a00000000000000000000000000000000000000000000000000000000081526004018080602001828103825260198152602001807f424d3a2063616c6c6572206d7573742062652077616c6c65740000000000000081525060200191505060405180910390fd5b6000600360008473ffffffffffffffffffffffffffffffffffffffff1673ffffffffffffffffffffffffffffffffffffffff168152602001908152602001600020600001905060008160000160009054906101000a90046fffffffffffffffffffffffffffffffff166fffffffffffffffffffffffffffffffff161480156156e0575060008160010160009054906101000a900467ffffffffffffffff1667ffffffffffffffff16145b15615723576004548160000160006101000a8154816fffffffffffffffffffffffffffffffff02191690836fffffffffffffffffffffffffffffffff1602179055505b505050565b60008282111561573757600080fd5b600082840390508091505092915050565b73eeeeeeeeeeeeeeeeeeeeeeeeeeeeeeeeeeeeeeee73ffffffffffffffffffffffffffffffffffffffff168473ffffffffffffffffffffffffffffffffffffffff1614156157b1576157ab85848460405180602001604052806000815250616328565b50615887565b60608383604051602401808373ffffffffffffffffffffffffffffffffffffffff1673ffffffffffffffffffffffffffffffffffffffff168152602001828152602001925050506040516020818303038152906040527fa9059cbb000000000000000000000000000000000000000000000000000000007bffffffffffffffffffffffffffffffffffffffffffffffffffffffff19166020820180517bffffffffffffffffffffffffffffffffffffffffffffffffffffffff838183161783525050505090506158848686600084616328565b50505b818473ffffffffffffffffffffffffffffffffffffffff168673ffffffffffffffffffffffffffffffffffffffff167fd5c97f2e041b2046be3b4337472f05720760a198f4d7d84980b7155eec7cca6f8685604051808373ffffffffffffffffffffffffffffffffffffffff1673ffffffffffffffffffffffffffffffffffffffff16815260200180602001828103825283818151815260200191508051906020019080838360005b8381101561594b578082015181840152602081019050615930565b50505050905090810190601f1680156159785780820380516001836020036101000a031916815260200191505b50935050505060405180910390a45050505050565b600080878686868643604051602001808760008111156159a957fe5b60ff1660f81b81526001018673ffffffffffffffffffffffffffffffffffffffff1673ffffffffffffffffffffffffffffffffffffffff1660601b81526014018573ffffffffffffffffffffffffffffffffffffffff1673ffffffffffffffffffffffffffffffffffffffff1660601b815260140184815260200183805190602001908083835b60208310615a535780518252602082019150602081019050602083039250615a30565b6001836020036101000a03801982511681845116808217855250505050505090500182815260200196505050505050506040516020818303038152906040528051906020012091506000600560008973ffffffffffffffffffffffffffffffffffffffff1673ffffffffffffffffffffffffffffffffffffffff16815260200190815260200160002060000160008481526020019081526020016000205414615b64576040517f08c379a000000000000000000000000000000000000000000000000000000000815260040180806020018281038252601c8152602001807f544d3a206475706c69636174652070656e64696e6720616374696f6e0000000081525060200191505060405180910390fd5b615b7960065442615c1a90919063ffffffff16565b905080600560008973ffffffffffffffffffffffffffffffffffffffff1673ffffffffffffffffffffffffffffffffffffffff168152602001908152602001600020600001600084815260200190815260200160002081905550965096945050505050565b6000808267ffffffffffffffff16118015615c025750428267ffffffffffffffff16105b15615c0f57829050615c13565b8390505b9392505050565b600080828401905083811015615c2f57600080fd5b8091505092915050565b615c76827fffffffffffffffffffffffffffffffffffffffffffffffffffffffffffffffff6fffffffffffffffffffffffffffffffff1683616125565b5050565b6000601960f81b600060f81b89898989898989604051602001808a7effffffffffffffffffffffffffffffffffffffffffffffffffffffffffffff19167effffffffffffffffffffffffffffffffffffffffffffffffffffffffffffff19168152600101897effffffffffffffffffffffffffffffffffffffffffffffffffffffffffffff19167effffffffffffffffffffffffffffffffffffffffffffffffffffffffffffff191681526001018873ffffffffffffffffffffffffffffffffffffffff1673ffffffffffffffffffffffffffffffffffffffff1660601b81526014018773ffffffffffffffffffffffffffffffffffffffff1673ffffffffffffffffffffffffffffffffffffffff1660601b815260140186815260200185805190602001908083835b60208310615dc75780518252602082019150602081019050602083039250615da4565b6001836020036101000a03801982511681845116808217855250505050505090500184815260200183815260200182815260200199505050505050505050506040516020818303038152906040528051906020012060405160200180807f19457468657265756d205369676e6564204d6573736167653a0a333200000000815250601c01828152602001915050604051602081830303815290604052805190602001209050979650505050505050565b6000615e838484616995565b90509392505050565b6000602482511015615f06576040517f08c379a00000000000000000000000000000000000000000000000000000000081526004018080602001828103825260168152602001807f524d3a20496e76616c6964206461746157616c6c65740000000000000000000081525060200191505060405180910390fd5b6000602483015190508373ffffffffffffffffffffffffffffffffffffffff168173ffffffffffffffffffffffffffffffffffffffff161491505092915050565b60006001905092915050565b60008083118015615f645750600082115b801561607157508284028573ffffffffffffffffffffffffffffffffffffffff16311080615faa575060001515615fa686615f9e88612b32565b868802616690565b1515145b806160705750600015158573ffffffffffffffffffffffffffffffffffffffff1663d6eb1bbf306040518263ffffffff1660e01b8152600401808273ffffffffffffffffffffffffffffffffffffffff1673ffffffffffffffffffffffffffffffffffffffff16815260200191505060206040518083038186803b15801561603157600080fd5b505afa158015616045573d6000803e3d6000fd5b505050506040513d602081101561605b57600080fd5b81019080805190602001909291905050501515145b5b1561607f5760009050616084565b600190505b949350505050565b60008061609b848460006154d6565b90506160a78682614e63565b915050949350505050565b600085618f080190506000851180156160cb5750600083115b80156160d75750838111155b1561611c573a8511156160ee573a810290506160f4565b84810290505b6160fe87826153d1565b5061611a87838360405180602001604052806000815250616328565b505b50505050505050565b6000600360008573ffffffffffffffffffffffffffffffffffffffff1673ffffffffffffffffffffffffffffffffffffffff16815260200190815260200160002060000190506000808260010160009054906101000a900467ffffffffffffffff1667ffffffffffffffff161180156161bf5750428260010160009054906101000a900467ffffffffffffffff1667ffffffffffffffff16105b6161e9578160000160009054906101000a90046fffffffffffffffffffffffffffffffff1661620b565b8160000160109054906101000a90046fffffffffffffffffffffffffffffffff165b9050808260000160006101000a8154816fffffffffffffffffffffffffffffffff02191690836fffffffffffffffffffffffffffffffff160217905550838260000160106101000a8154816fffffffffffffffffffffffffffffffff02191690836fffffffffffffffffffffffffffffffff1602179055506162968342615c1a90919063ffffffff16565b8260010160006101000a81548167ffffffffffffffff021916908367ffffffffffffffff1602179055506162d38342615c1a90919063ffffffff16565b67ffffffffffffffff16848673ffffffffffffffffffffffffffffffffffffffff167f8a747eae44b6307d1b112c127968367d02d9f52ffef8533b3e899983ff2b1d4a60405160405180910390a45050505050565b606060008573ffffffffffffffffffffffffffffffffffffffff16858585604051602401808473ffffffffffffffffffffffffffffffffffffffff1673ffffffffffffffffffffffffffffffffffffffff16815260200183815260200180602001828103825283818151815260200191508051906020019080838360005b838110156163c15780820151818401526020810190506163a6565b50505050905090810190601f1680156163ee5780820380516001836020036101000a031916815260200191505b509450505050506040516020818303038152906040527f8f6f0332000000000000000000000000000000000000000000000000000000007bffffffffffffffffffffffffffffffffffffffffffffffffffffffff19166020820180517bffffffffffffffffffffffffffffffffffffffffffffffffffffffff83818316178352505050506040518082805190602001908083835b602083106164a55780518252602082019150602081019050602083039250616482565b6001836020036101000a0380198251168184511680821785525050505050509050019150506000604051808303816000865af19150503d8060008114616507576040519150601f19603f3d011682016040523d82523d6000602084013e61650c565b606091505b508093508192505050808015616523575060008251115b156165ff5781806020019051602081101561653d57600080fd5b810190808051604051939291908464010000000082111561655d57600080fd5b8382019150602082018581111561657357600080fd5b825186600182028301116401000000008211171561659057600080fd5b8083526020830192505050908051906020019080838360005b838110156165c45780820151818401526020810190506165a9565b50505050905090810190601f1680156165f15780820380516001836020036101000a031916815260200191505b506040525050509150616687565b600082511115616613573d6000803e3d6000fd5b80616686576040517f08c379a000000000000000000000000000000000000000000000000000000000815260040180806020018281038252601a8152602001807f424d3a2077616c6c657420696e766f6b6520726576657274656400000000000081525060200191505060405180910390fd5b5b50949350505050565b60007fffffffffffffffffffffffffffffffffffffffffffffffffffffffffffffffff6fffffffffffffffffffffffffffffffff168314156166d557600190506167ff565b6000600360008673ffffffffffffffffffffffffffffffffffffffff1673ffffffffffffffffffffffffffffffffffffffff1681526020019081526020016000206002019050428160000160109054906101000a900467ffffffffffffffff1667ffffffffffffffff16101561675157838311159150506167ff565b83838260000160009054906101000a90046fffffffffffffffffffffffffffffffff166fffffffffffffffffffffffffffffffff1601111580156167fb57508060000160009054906101000a90046fffffffffffffffffffffffffffffffff166fffffffffffffffffffffffffffffffff16838260000160009054906101000a90046fffffffffffffffffffffffffffffffff166fffffffffffffffffffffffffffffffff160110155b9150505b9392505050565b7fffffffffffffffffffffffffffffffffffffffffffffffffffffffffffffffff6fffffffffffffffffffffffffffffffff16826fffffffffffffffffffffffffffffffff1614616990576000600360008573ffffffffffffffffffffffffffffffffffffffff1673ffffffffffffffffffffffffffffffffffffffff1681526020019081526020016000206002019050428160000160109054906101000a900467ffffffffffffffff1667ffffffffffffffff161015616931576201518042018160000160106101000a81548167ffffffffffffffff021916908367ffffffffffffffff160217905550818160000160006101000a8154816fffffffffffffffffffffffffffffffff02191690836fffffffffffffffffffffffffffffffff16021790555061698e565b818160000160008282829054906101000a90046fffffffffffffffffffffffffffffffff160192506101000a8154816fffffffffffffffffffffffffffffffff02191690836fffffffffffffffffffffffffffffffff1602179055505b505b505050565b6000600260008473ffffffffffffffffffffffffffffffffffffffff1673ffffffffffffffffffffffffffffffffffffffff1681526020019081526020016000206000015482116169e95760009050616a77565b600060807fffffffffffffffffffffffffffffffff000000000000000000000000000000008416901c90506127104301811115616a2a576000915050616a77565b82600260008673ffffffffffffffffffffffffffffffffffffffff1673ffffffffffffffffffffffffffffffffffffffff1681526020019081526020016000206000018190555060019150505b9291505056fe524d3a207468652077616c6c657420617574686f72697a656420697320646966666572656e74207468656e2074686520746172676574206f66207468652072656c617965642064617461544d3a2043616c6c20636f6e74726163742061626f7665206461696c79206c696d697454543a207472616e73666572206f757473696465206f662074686520657865637574696f6e2077696e646f77424d3a206d75737420626520616e206f776e657220666f72207468652077616c6c6574a265627a7a72315820da1c6967bc1fca851da8a0a843432fff32423b329204baf999b96feb9c5f547564736f6c63430005100032",
  "source": "// Copyright (C) 2018  Argent Labs Ltd. <https://argent.xyz>\n\n// This program is free software: you can redistribute it and/or modify\n// it under the terms of the GNU General Public License as published by\n// the Free Software Foundation, either version 3 of the License, or\n// (at your option) any later version.\n\n// This program is distributed in the hope that it will be useful,\n// but WITHOUT ANY WARRANTY; without even the implied warranty of\n// MERCHANTABILITY or FITNESS FOR A PARTICULAR PURPOSE.  See the\n// GNU General Public License for more details.\n\n// You should have received a copy of the GNU General Public License\n// along with this program.  If not, see <http://www.gnu.org/licenses/>.\n\npragma solidity ^0.5.4;\nimport \"../wallet/BaseWallet.sol\";\nimport \"./common/BaseModule.sol\";\nimport \"./common/RelayerModule.sol\";\nimport \"./common/OnlyOwnerModule.sol\";\nimport \"./common/BaseTransfer.sol\";\nimport \"./common/LimitManager.sol\";\nimport \"../exchange/TokenPriceProvider.sol\";\nimport \"../storage/TransferStorage.sol\";\nimport \"../exchange/ERC20.sol\";\n\n/**\n * @title TransferManager\n * @dev Module to transfer and approve tokens (ETH or ERC20) or data (contract call) based on a security context (daily limit, whitelist, etc).\n * This module is the V2 of TokenTransfer.\n * @author Julien Niset - <julien@argent.xyz>\n */\ncontract TransferManager is BaseModule, RelayerModule, OnlyOwnerModule, BaseTransfer, LimitManager {\n\n    bytes32 constant NAME = \"TransferManager\";\n\n    bytes4 private constant ERC1271_ISVALIDSIGNATURE_BYTES = bytes4(keccak256(\"isValidSignature(bytes,bytes)\"));\n    bytes4 private constant ERC1271_ISVALIDSIGNATURE_BYTES32 = bytes4(keccak256(\"isValidSignature(bytes32,bytes)\"));\n\n    enum ActionType { Transfer }\n\n    using SafeMath for uint256;\n\n    struct TokenManagerConfig {\n        // Mapping between pending action hash and their timestamp\n        mapping (bytes32 => uint256) pendingActions;\n    }\n\n    // wallet specific storage\n    mapping (address => TokenManagerConfig) internal configs;\n\n    // The security period\n    uint256 public securityPeriod;\n    // The execution window\n    uint256 public securityWindow;\n    // The Token storage\n    TransferStorage public transferStorage;\n    // The Token price provider\n    TokenPriceProvider public priceProvider;\n    // The previous limit manager needed to migrate the limits\n    LimitManager public oldLimitManager;\n\n    // *************** Events *************************** //\n\n    event AddedToWhitelist(address indexed wallet, address indexed target, uint64 whitelistAfter);\n    event RemovedFromWhitelist(address indexed wallet, address indexed target);\n    event PendingTransferCreated(address indexed wallet, bytes32 indexed id, uint256 indexed executeAfter,\n    address token, address to, uint256 amount, bytes data);\n    event PendingTransferExecuted(address indexed wallet, bytes32 indexed id);\n    event PendingTransferCanceled(address indexed wallet, bytes32 indexed id);\n\n    // *************** Constructor ********************** //\n\n    constructor(\n        ModuleRegistry _registry,\n        TransferStorage _transferStorage,\n        GuardianStorage _guardianStorage,\n        address _priceProvider,\n        uint256 _securityPeriod,\n        uint256 _securityWindow,\n        uint256 _defaultLimit,\n        LimitManager _oldLimitManager\n    )\n        BaseModule(_registry, _guardianStorage, NAME)\n        LimitManager(_defaultLimit)\n        public\n    {\n        transferStorage = _transferStorage;\n        priceProvider = TokenPriceProvider(_priceProvider);\n        securityPeriod = _securityPeriod;\n        securityWindow = _securityWindow;\n        oldLimitManager = _oldLimitManager;\n    }\n\n    /**\n     * @dev Inits the module for a wallet by setting up the isValidSignature (EIP 1271)\n     * static call redirection from the wallet to the module and copying all the parameters\n     * of the daily limit from the previous implementation of the LimitManager module.\n     * @param _wallet The target wallet.\n     */\n    function init(BaseWallet _wallet) public onlyWallet(_wallet) {\n\n        // setup static calls\n        _wallet.enableStaticCall(address(this), ERC1271_ISVALIDSIGNATURE_BYTES);\n        _wallet.enableStaticCall(address(this), ERC1271_ISVALIDSIGNATURE_BYTES32);\n\n        // setup default limit for new deployment\n        if (address(oldLimitManager) == address(0)) {\n            super.init(_wallet);\n            return;\n        }\n        // get limit from previous LimitManager\n        uint256 current = oldLimitManager.getCurrentLimit(_wallet);\n        (uint256 pending, uint64 changeAfter) = oldLimitManager.getPendingLimit(_wallet);\n        // setup default limit for new wallets\n        if (current == 0 && changeAfter == 0) {\n            super.init(_wallet);\n            return;\n        }\n        // migrate existing limit for existing wallets\n        if (current == pending) {\n            limits[address(_wallet)].limit.current = uint128(current);\n        } else {\n            limits[address(_wallet)].limit = Limit(uint128(current), uint128(pending), changeAfter);\n        }\n        // migrate daily pending if we are within a rolling period\n        (uint256 unspent, uint64 periodEnd) = oldLimitManager.getDailyUnspent(_wallet);\n        // solium-disable-next-line security/no-block-members\n        if (periodEnd > now) {\n            limits[address(_wallet)].dailySpent = DailySpent(uint128(current.sub(unspent)), periodEnd);\n        }\n    }\n\n    // *************** External/Public Functions ********************* //\n\n    /**\n    * @dev lets the owner transfer tokens (ETH or ERC20) from a wallet.\n    * @param _wallet The target wallet.\n    * @param _token The address of the token to transfer.\n    * @param _to The destination address\n    * @param _amount The amoutn of token to transfer\n    * @param _data The data for the transaction\n    */\n    function transferToken(\n        BaseWallet _wallet,\n        address _token,\n        address _to,\n        uint256 _amount,\n        bytes calldata _data\n    )\n        external\n        onlyWalletOwner(_wallet)\n        onlyWhenUnlocked(_wallet)\n    {\n        if (isWhitelisted(_wallet, _to)) {\n            // transfer to whitelist\n            doTransfer(_wallet, _token, _to, _amount, _data);\n        } else {\n            uint256 etherAmount = (_token == ETH_TOKEN) ? _amount : priceProvider.getEtherValue(_amount, _token);\n            if (checkAndUpdateDailySpent(_wallet, etherAmount)) {\n                // transfer under the limit\n                doTransfer(_wallet, _token, _to, _amount, _data);\n            } else {\n                // transfer above the limit\n                (bytes32 id, uint256 executeAfter) = addPendingAction(ActionType.Transfer, _wallet, _token, _to, _amount, _data);\n                emit PendingTransferCreated(address(_wallet), id, executeAfter, _token, _to, _amount, _data);\n            }\n        }\n    }\n\n    /**\n    * @dev lets the owner approve an allowance of ERC20 tokens for a spender (dApp).\n    * @param _wallet The target wallet.\n    * @param _token The address of the token to transfer.\n    * @param _spender The address of the spender\n    * @param _amount The amount of tokens to approve\n    */\n    function approveToken(\n        BaseWallet _wallet,\n        address _token,\n        address _spender,\n        uint256 _amount\n    )\n        external\n        onlyWalletOwner(_wallet)\n        onlyWhenUnlocked(_wallet)\n    {\n        if (isWhitelisted(_wallet, _spender)) {\n            // approve to whitelist\n            doApproveToken(_wallet, _token, _spender, _amount);\n        } else {\n            // get current alowance\n            uint256 currentAllowance = ERC20(_token).allowance(address(_wallet), _spender);\n            if (_amount <= currentAllowance) {\n                // approve if we reduce the allowance\n                doApproveToken(_wallet, _token, _spender, _amount);\n            } else {\n                // check if delta is under the limit\n                uint delta = _amount - currentAllowance;\n                uint256 deltaInEth = priceProvider.getEtherValue(delta, _token);\n                require(checkAndUpdateDailySpent(_wallet, deltaInEth), \"TM: Approve above daily limit\");\n                // approve if under the limit\n                doApproveToken(_wallet, _token, _spender, _amount);\n            }\n        }\n    }\n\n    /**\n    * @dev lets the owner call a contract.\n    * @param _wallet The target wallet.\n    * @param _contract The address of the contract.\n    * @param _value The amount of ETH to transfer as part of call\n    * @param _data The encoded method data\n    */\n    function callContract(\n        BaseWallet _wallet,\n        address _contract,\n        uint256 _value,\n        bytes calldata _data\n    )\n        external\n        onlyWalletOwner(_wallet)\n        onlyWhenUnlocked(_wallet)\n    {\n        // Make sure we don't call a module, the wallet itself, or a supported ERC20\n        authoriseContractCall(_wallet, _contract);\n\n        if (isWhitelisted(_wallet, _contract)) {\n            // call to whitelist\n            doCallContract(_wallet, _contract, _value, _data);\n        } else {\n            require(checkAndUpdateDailySpent(_wallet, _value), \"TM: Call contract above daily limit\");\n            // call under the limit\n            doCallContract(_wallet, _contract, _value, _data);\n        }\n    }\n\n    /**\n    * @dev lets the owner do an ERC20 approve followed by a call to a contract.\n    * We assume that the contract will pull the tokens and does not require ETH.\n    * @param _wallet The target wallet.\n    * @param _token The token to approve.\n    * @param _contract The address of the contract.\n    * @param _amount The amount of ERC20 tokens to approve.\n    * @param _data The encoded method data\n    */\n    function approveTokenAndCallContract(\n        BaseWallet _wallet,\n        address _token,\n        address _contract,\n        uint256 _amount,\n        bytes calldata _data\n    )\n        external\n        onlyWalletOwner(_wallet)\n        onlyWhenUnlocked(_wallet)\n    {\n        // Make sure we don't call a module, the wallet itself, or a supported ERC20\n        authoriseContractCall(_wallet, _contract);\n\n        if (isWhitelisted(_wallet, _contract)) {\n            doApproveToken(_wallet, _token, _contract, _amount);\n            doCallContract(_wallet, _contract, 0, _data);\n        } else {\n            // get current alowance\n            uint256 currentAllowance = ERC20(_token).allowance(address(_wallet), _contract);\n            if (_amount <= currentAllowance) {\n                // no need to approve more\n                doCallContract(_wallet, _contract, 0, _data);\n            } else {\n                // check if delta is under the limit\n                uint delta = _amount - currentAllowance;\n                uint256 deltaInEth = priceProvider.getEtherValue(delta, _token);\n                require(checkAndUpdateDailySpent(_wallet, deltaInEth), \"TM: Approve above daily limit\");\n                // approve if under the limit\n                doApproveToken(_wallet, _token, _contract, _amount);\n                doCallContract(_wallet, _contract, 0, _data);\n            }\n        }\n    }\n\n    /**\n     * @dev Adds an address to the whitelist of a wallet.\n     * @param _wallet The target wallet.\n     * @param _target The address to add.\n     */\n    function addToWhitelist(\n        BaseWallet _wallet,\n        address _target\n    )\n        external\n        onlyWalletOwner(_wallet)\n        onlyWhenUnlocked(_wallet)\n    {\n        require(!isWhitelisted(_wallet, _target), \"TT: target already whitelisted\");\n        // solium-disable-next-line security/no-block-members\n        uint256 whitelistAfter = now.add(securityPeriod);\n        transferStorage.setWhitelist(_wallet, _target, whitelistAfter);\n        emit AddedToWhitelist(address(_wallet), _target, uint64(whitelistAfter));\n    }\n\n    /**\n     * @dev Removes an address from the whitelist of a wallet.\n     * @param _wallet The target wallet.\n     * @param _target The address to remove.\n     */\n    function removeFromWhitelist(\n        BaseWallet _wallet,\n        address _target\n    )\n        external\n        onlyWalletOwner(_wallet)\n        onlyWhenUnlocked(_wallet)\n    {\n        require(isWhitelisted(_wallet, _target), \"TT: target not whitelisted\");\n        transferStorage.setWhitelist(_wallet, _target, 0);\n        emit RemovedFromWhitelist(address(_wallet), _target);\n    }\n\n    /**\n    * @dev Executes a pending transfer for a wallet.\n    * The method can be called by anyone to enable orchestration.\n    * @param _wallet The target wallet.\n    * @param _token The token of the pending transfer.\n    * @param _to The destination address of the pending transfer.\n    * @param _amount The amount of token to transfer of the pending transfer.\n    * @param _data The data associated to the pending transfer.\n    * @param _block The block at which the pending transfer was created.\n    */\n    function executePendingTransfer(\n        BaseWallet _wallet,\n        address _token,\n        address _to,\n        uint _amount,\n        bytes calldata _data,\n        uint _block\n    )\n        external\n        onlyWhenUnlocked(_wallet)\n    {\n        bytes32 id = keccak256(abi.encodePacked(ActionType.Transfer, _token, _to, _amount, _data, _block));\n        uint executeAfter = configs[address(_wallet)].pendingActions[id];\n        require(executeAfter > 0, \"TT: unknown pending transfer\");\n        uint executeBefore = executeAfter.add(securityWindow);\n        // solium-disable-next-line security/no-block-members\n        require(executeAfter <= now && now <= executeBefore, \"TT: transfer outside of the execution window\");\n        delete configs[address(_wallet)].pendingActions[id];\n        doTransfer(_wallet, _token, _to, _amount, _data);\n        emit PendingTransferExecuted(address(_wallet), id);\n    }\n\n    function cancelPendingTransfer(\n        BaseWallet _wallet,\n        bytes32 _id\n    )\n        external\n        onlyWalletOwner(_wallet)\n        onlyWhenUnlocked(_wallet)\n    {\n        require(configs[address(_wallet)].pendingActions[_id] > 0, \"TT: unknown pending action\");\n        delete configs[address(_wallet)].pendingActions[_id];\n        emit PendingTransferCanceled(address(_wallet), _id);\n    }\n\n    /**\n     * @dev Lets the owner of a wallet change its daily limit.\n     * The limit is expressed in ETH. Changes to the limit take 24 hours.\n     * @param _wallet The target wallet.\n     * @param _newLimit The new limit.\n     */\n    function changeLimit(BaseWallet _wallet, uint256 _newLimit) external onlyWalletOwner(_wallet) onlyWhenUnlocked(_wallet) {\n        changeLimit(_wallet, _newLimit, securityPeriod);\n    }\n\n    /**\n     * @dev Convenience method to disable the limit\n     * The limit is disabled by setting it to an arbitrary large value.\n     * @param _wallet The target wallet.\n     */\n    function disableLimit(BaseWallet _wallet) external onlyWalletOwner(_wallet) onlyWhenUnlocked(_wallet) {\n        disableLimit(_wallet, securityPeriod);\n    }\n\n    /**\n    * @dev Checks if an address is whitelisted for a wallet.\n    * @param _wallet The target wallet.\n    * @param _target The address.\n    * @return true if the address is whitelisted.\n    */\n    function isWhitelisted(BaseWallet _wallet, address _target) public view returns (bool _isWhitelisted) {\n        uint whitelistAfter = transferStorage.getWhitelist(_wallet, _target);\n        // solium-disable-next-line security/no-block-members\n        return whitelistAfter > 0 && whitelistAfter < now;\n    }\n\n    /**\n    * @dev Gets the info of a pending transfer for a wallet.\n    * @param _wallet The target wallet.\n    * @param _id The pending transfer ID.\n    * @return the epoch time at which the pending transfer can be executed.\n    */\n    function getPendingTransfer(BaseWallet _wallet, bytes32 _id) external view returns (uint64 _executeAfter) {\n        _executeAfter = uint64(configs[address(_wallet)].pendingActions[_id]);\n    }\n\n    /**\n    * @dev Implementation of EIP 1271.\n    * Should return whether the signature provided is valid for the provided data.\n    * @param _data Arbitrary length data signed on the behalf of address(this)\n    * @param _signature Signature byte array associated with _data\n    */\n    function isValidSignature(bytes calldata _data, bytes calldata _signature) external view returns (bytes4) {\n        bytes32 msgHash = keccak256(abi.encodePacked(_data));\n        isValidSignature(msgHash, _signature);\n        return ERC1271_ISVALIDSIGNATURE_BYTES;\n    }\n\n    /**\n    * @dev Implementation of EIP 1271.\n    * Should return whether the signature provided is valid for the provided data.\n    * @param _msgHash Hash of a message signed on the behalf of address(this)\n    * @param _signature Signature byte array associated with _msgHash\n    */\n    function isValidSignature(bytes32 _msgHash, bytes memory _signature) public view returns (bytes4) {\n        require(_signature.length == 65, \"TM: invalid signature length\");\n        address signer = recoverSigner(_msgHash, _signature, 0);\n        require(isOwner(BaseWallet(msg.sender), signer), \"TM: Invalid signer\");\n        return ERC1271_ISVALIDSIGNATURE_BYTES32;\n    }\n\n    // *************** Internal Functions ********************* //\n\n    /**\n     * @dev Creates a new pending action for a wallet.\n     * @param _action The target action.\n     * @param _wallet The target wallet.\n     * @param _token The target token for the action.\n     * @param _to The recipient of the action.\n     * @param _amount The amount of token associated to the action.\n     * @param _data The data associated to the action.\n     * @return the identifier for the new pending action and the time when the action can be executed\n     */\n    function addPendingAction(\n        ActionType _action,\n        BaseWallet _wallet,\n        address _token,\n        address _to,\n        uint _amount,\n        bytes memory _data\n    )\n        internal\n        returns (bytes32 id, uint256 executeAfter)\n    {\n        id = keccak256(abi.encodePacked(_action, _token, _to, _amount, _data, block.number));\n        require(configs[address(_wallet)].pendingActions[id] == 0, \"TM: duplicate pending action\");\n        // solium-disable-next-line security/no-block-members\n        executeAfter = now.add(securityPeriod);\n        configs[address(_wallet)].pendingActions[id] = executeAfter;\n    }\n\n    /**\n    * @dev Make sure a contract call is not trying to call a module, the wallet itself, or a supported ERC20.\n    * @param _wallet The target wallet.\n    * @param _contract The address of the contract.\n     */\n    function authoriseContractCall(BaseWallet _wallet, address _contract) internal view {\n        require(\n            _contract != address(_wallet) && // not the wallet itself\n            !_wallet.authorised(_contract) && // not an authorised module\n            (priceProvider.cachedPrices(_contract) == 0 || isLimitDisabled(_wallet)), // not an ERC20 listed in the provider (or limit disabled)\n            \"TM: Forbidden contract\");\n    }\n\n    // *************** Implementation of RelayerModule methods ********************* //\n\n    // Overrides refund to add the refund in the daily limit.\n    function refund(BaseWallet _wallet, uint _gasUsed, uint _gasPrice, uint _gasLimit, uint _signatures, address _relayer) internal {\n        // 21000 (transaction) + 7620 (execution of refund) + 7324 (execution of updateDailySpent) + 672 to log the event + _gasUsed\n        uint256 amount = 36616 + _gasUsed;\n        if (_gasPrice > 0 && _signatures > 0 && amount <= _gasLimit) {\n            if (_gasPrice > tx.gasprice) {\n                amount = amount * tx.gasprice;\n            } else {\n                amount = amount * _gasPrice;\n            }\n            checkAndUpdateDailySpent(_wallet, amount);\n            invokeWallet(address(_wallet), _relayer, amount, EMPTY_BYTES);\n        }\n    }\n\n    // Overrides verifyRefund to add the refund in the daily limit.\n    function verifyRefund(BaseWallet _wallet, uint _gasUsed, uint _gasPrice, uint _signatures) internal view returns (bool) {\n        if (_gasPrice > 0 && _signatures > 0 && (\n            address(_wallet).balance < _gasUsed * _gasPrice ||\n            isWithinDailyLimit(_wallet, getCurrentLimit(_wallet), _gasUsed * _gasPrice) == false ||\n            _wallet.authorised(address(this)) == false\n        ))\n        {\n            return false;\n        }\n        return true;\n    }\n}\n",
  "sourcePath": "/Users/name/dev/argent-contracts-release-1.5.0/contracts/modules/TransferManager.sol",
  "compiler": {
    "name": "solc",
    "version": "0.5.16+commit.9c3226ce.Emscripten.clang"
  },
  "schemaVersion": "3.0.23",
  "updatedAt": "2020-03-31T19:53:31.461Z",
  "devdoc": {
    "author": "Julien Niset - <julien@argent.xyz>",
    "details": "Module to transfer and approve tokens (ETH or ERC20) or data (contract call) based on a security context (daily limit, whitelist, etc). This module is the V2 of TokenTransfer.",
    "methods": {
      "addModule(address,address)": {
        "details": "Adds a module to a wallet. First checks that the module is registered. Unlike its overrided parent, this method can be called via the RelayerModule's execute()",
        "params": {
          "_module": "The modules to authorise.",
          "_wallet": "The target wallet."
        }
      },
      "addToWhitelist(address,address)": {
        "details": "Adds an address to the whitelist of a wallet.",
        "params": {
          "_target": "The address to add.",
          "_wallet": "The target wallet."
        }
      },
      "approveToken(address,address,address,uint256)": {
        "details": "lets the owner approve an allowance of ERC20 tokens for a spender (dApp).",
        "params": {
          "_amount": "The amount of tokens to approve",
          "_spender": "The address of the spender",
          "_token": "The address of the token to transfer.",
          "_wallet": "The target wallet."
        }
      },
      "approveTokenAndCallContract(address,address,address,uint256,bytes)": {
        "details": "lets the owner do an ERC20 approve followed by a call to a contract. We assume that the contract will pull the tokens and does not require ETH.",
        "params": {
          "_amount": "The amount of ERC20 tokens to approve.",
          "_contract": "The address of the contract.",
          "_data": "The encoded method data",
          "_token": "The token to approve.",
          "_wallet": "The target wallet."
        }
      },
      "callContract(address,address,uint256,bytes)": {
        "details": "lets the owner call a contract.",
        "params": {
          "_contract": "The address of the contract.",
          "_data": "The encoded method data",
          "_value": "The amount of ETH to transfer as part of call",
          "_wallet": "The target wallet."
        }
      },
      "changeLimit(address,uint256)": {
        "details": "Lets the owner of a wallet change its daily limit. The limit is expressed in ETH. Changes to the limit take 24 hours.",
        "params": {
          "_newLimit": "The new limit.",
          "_wallet": "The target wallet."
        }
      },
      "disableLimit(address)": {
        "details": "Convenience method to disable the limit The limit is disabled by setting it to an arbitrary large value.",
        "params": {
          "_wallet": "The target wallet."
        }
      },
      "execute(address,bytes,uint256,bytes,uint256,uint256)": {
        "details": "Executes a relayed transaction.",
        "params": {
          "_data": "The data for the relayed transaction",
          "_gasLimit": "The gas limit to use for the gas refund.",
          "_gasPrice": "The gas price to use for the gas refund.",
          "_nonce": "The nonce used to prevent replay attacks.",
          "_signatures": "The signatures as a concatenated byte array.",
          "_wallet": "The target wallet."
        }
      },
      "executePendingTransfer(address,address,address,uint256,bytes,uint256)": {
        "details": "Executes a pending transfer for a wallet. The method can be called by anyone to enable orchestration.",
        "params": {
          "_amount": "The amount of token to transfer of the pending transfer.",
          "_block": "The block at which the pending transfer was created.",
          "_data": "The data associated to the pending transfer.",
          "_to": "The destination address of the pending transfer.",
          "_token": "The token of the pending transfer.",
          "_wallet": "The target wallet."
        }
      },
      "getCurrentLimit(address)": {
        "details": "Gets the current daily limit for a wallet.",
        "params": {
          "_wallet": "The target wallet."
        },
        "return": "the current limit expressed in ETH."
      },
      "getDailyUnspent(address)": {
        "details": "Gets the amount of tokens that has not yet been spent during the current period.",
        "params": {
          "_wallet": "The target wallet."
        },
        "return": "the amount of tokens (in ETH) that has not been spent yet and the end of the period."
      },
      "getNonce(address)": {
        "details": "Gets the current nonce for a wallet.",
        "params": {
          "_wallet": "The target wallet."
        }
      },
      "getPendingLimit(address)": {
        "details": "Gets a pending limit for a wallet if any.",
        "params": {
          "_wallet": "The target wallet."
        },
        "return": "the pending limit (in ETH) and the time at chich it will become effective."
      },
      "getPendingTransfer(address,bytes32)": {
        "details": "Gets the info of a pending transfer for a wallet.",
        "params": {
          "_id": "The pending transfer ID.",
          "_wallet": "The target wallet."
        },
        "return": "the epoch time at which the pending transfer can be executed."
      },
      "init(address)": {
        "details": "Inits the module for a wallet by setting up the isValidSignature (EIP 1271) static call redirection from the wallet to the module and copying all the parameters of the daily limit from the previous implementation of the LimitManager module.",
        "params": {
          "_wallet": "The target wallet."
        }
      },
      "isLimitDisabled(address)": {
        "details": "Returns whether the daily limit is disabled for a wallet.",
        "params": {
          "_wallet": "The target wallet."
        },
        "return": "true if the daily limit is disabled, false otherwise."
      },
      "isOnlyOwnerModule()": {
        "details": "Returns a constant that indicates that the module is an OnlyOwnerModule.",
        "return": "The constant bytes4(keccak256(\"isOnlyOwnerModule()\"))"
      },
      "isValidSignature(bytes,bytes)": {
        "details": "Implementation of EIP 1271. Should return whether the signature provided is valid for the provided data.",
        "params": {
          "_data": "Arbitrary length data signed on the behalf of address(this)",
          "_signature": "Signature byte array associated with _data"
        }
      },
      "isValidSignature(bytes32,bytes)": {
        "details": "Implementation of EIP 1271. Should return whether the signature provided is valid for the provided data.",
        "params": {
          "_msgHash": "Hash of a message signed on the behalf of address(this)",
          "_signature": "Signature byte array associated with _msgHash"
        }
      },
      "isWhitelisted(address,address)": {
        "details": "Checks if an address is whitelisted for a wallet.",
        "params": {
          "_target": "The address.",
          "_wallet": "The target wallet."
        },
        "return": "true if the address is whitelisted."
      },
      "recoverToken(address)": {
        "details": "Utility method enbaling anyone to recover ERC20 token sent to the module by mistake and transfer them to the Module Registry.",
        "params": {
          "_token": "The token to recover."
        }
      },
      "removeFromWhitelist(address,address)": {
        "details": "Removes an address from the whitelist of a wallet.",
        "params": {
          "_target": "The address to remove.",
          "_wallet": "The target wallet."
        }
      },
      "transferToken(address,address,address,uint256,bytes)": {
        "details": "lets the owner transfer tokens (ETH or ERC20) from a wallet.",
        "params": {
          "_amount": "The amoutn of token to transfer",
          "_data": "The data for the transaction",
          "_to": "The destination address",
          "_token": "The address of the token to transfer.",
          "_wallet": "The target wallet."
        }
      }
    },
    "title": "TransferManager"
  },
  "userdoc": {
    "methods": {}
  }
}