{
  "contractName": "TransferStorage",
  "abi": [
    {
      "constant": false,
      "inputs": [
        {
          "internalType": "contract BaseWallet",
          "name": "_wallet",
          "type": "address"
        },
        {
          "internalType": "address",
          "name": "_target",
          "type": "address"
        },
        {
          "internalType": "uint256",
          "name": "_value",
          "type": "uint256"
        }
      ],
      "name": "setWhitelist",
      "outputs": [],
      "payable": false,
      "stateMutability": "nonpayable",
      "type": "function"
    },
    {
      "constant": true,
      "inputs": [
        {
          "internalType": "contract BaseWallet",
          "name": "_wallet",
          "type": "address"
        },
        {
          "internalType": "address",
          "name": "_target",
          "type": "address"
        }
      ],
      "name": "getWhitelist",
      "outputs": [
        {
          "internalType": "uint256",
          "name": "",
          "type": "uint256"
        }
      ],
      "payable": false,
      "stateMutability": "view",
      "type": "function"
    }
  ],
  "bytecode": "0x608060405234801561001057600080fd5b506103a4806100206000396000f3fe608060405234801561001057600080fd5b50600436106100365760003560e01c806313f4a0ea1461003b57806380bfbe68146100b3575b600080fd5b61009d6004803603604081101561005157600080fd5b81019080803573ffffffffffffffffffffffffffffffffffffffff169060200190929190803573ffffffffffffffffffffffffffffffffffffffff169060200190929190505050610121565b6040518082815260200191505060405180910390f35b61011f600480360360608110156100c957600080fd5b81019080803573ffffffffffffffffffffffffffffffffffffffff169060200190929190803573ffffffffffffffffffffffffffffffffffffffff169060200190929190803590602001909291905050506101a7565b005b60008060008473ffffffffffffffffffffffffffffffffffffffff1673ffffffffffffffffffffffffffffffffffffffff16815260200190815260200160002060008373ffffffffffffffffffffffffffffffffffffffff1673ffffffffffffffffffffffffffffffffffffffff16815260200190815260200160002054905092915050565b828073ffffffffffffffffffffffffffffffffffffffff1663d6eb1bbf336040518263ffffffff1660e01b8152600401808273ffffffffffffffffffffffffffffffffffffffff1673ffffffffffffffffffffffffffffffffffffffff16815260200191505060206040518083038186803b15801561022557600080fd5b505afa158015610239573d6000803e3d6000fd5b505050506040513d602081101561024f57600080fd5b81019080805190602001909291905050506102b5576040517f08c379a000000000000000000000000000000000000000000000000000000000815260040180806020018281038252603481526020018061033c6034913960400191505060405180910390fd5b816000808673ffffffffffffffffffffffffffffffffffffffff1673ffffffffffffffffffffffffffffffffffffffff16815260200190815260200160002060008573ffffffffffffffffffffffffffffffffffffffff1673ffffffffffffffffffffffffffffffffffffffff168152602001908152602001600020819055505050505056fe54533a206d75737420626520616e20617574686f72697a6564206d6f64756c6520746f2063616c6c2074686973206d6574686f64a265627a7a723158200709e7dbbf6a601e8759090e0c465abb87c794385d44edcad3e0b0a8097b3d6364736f6c63430005100032",
  "source": "// Copyright (C) 2018  Argent Labs Ltd. <https://argent.xyz>\n\n// This program is free software: you can redistribute it and/or modify\n// it under the terms of the GNU General Public License as published by\n// the Free Software Foundation, either version 3 of the License, or\n// (at your option) any later version.\n\n// This program is distributed in the hope that it will be useful,\n// but WITHOUT ANY WARRANTY; without even the implied warranty of\n// MERCHANTABILITY or FITNESS FOR A PARTICULAR PURPOSE.  See the\n// GNU General Public License for more details.\n\n// You should have received a copy of the GNU General Public License\n// along with this program.  If not, see <http://www.gnu.org/licenses/>.\n\npragma solidity ^0.5.4;\nimport \"../wallet/BaseWallet.sol\";\nimport \"./Storage.sol\";\n\n/**\n * @title TransferStorage\n * @dev Contract storing the state of wallets related to transfers (limit and whitelist).\n * The contract only defines basic setters and getters with no logic. Only modules authorised\n * for a wallet can modify its state.\n * @author Julien Niset - <julien@argent.im>\n */\ncontract TransferStorage is Storage {\n\n    // wallet specific storage\n    mapping (address => mapping (address => uint256)) internal whitelist;\n\n    // *************** External Functions ********************* //\n\n    /**\n     * @dev Lets an authorised module add or remove an account from the whitelist of a wallet.\n     * @param _wallet The target wallet.\n     * @param _target The account to add/remove.\n     * @param _value True for addition, false for revokation.\n     */\n    function setWhitelist(BaseWallet _wallet, address _target, uint256 _value) external onlyModule(_wallet) {\n        whitelist[address(_wallet)][_target] = _value;\n    }\n\n    /**\n     * @dev Gets the whitelist state of an account for a wallet.\n     * @param _wallet The target wallet.\n     * @param _target The account.\n     * @return the epoch time at which an account strats to be whitelisted, or zero if the account is not whitelisted.\n     */\n    function getWhitelist(BaseWallet _wallet, address _target) external view returns (uint256) {\n        return whitelist[address(_wallet)][_target];\n    }\n}",
  "sourcePath": "/Users/name/dev/argent-contracts-release-1.5.0/contracts/storage/TransferStorage.sol",
  "compiler": {
    "name": "solc",
    "version": "0.5.16+commit.9c3226ce.Emscripten.clang"
  },
  "schemaVersion": "3.0.23",
  "updatedAt": "2020-03-31T19:52:06.594Z",
  "devdoc": {
    "author": "Julien Niset - <julien@argent.im>",
    "details": "Contract storing the state of wallets related to transfers (limit and whitelist). The contract only defines basic setters and getters with no logic. Only modules authorised for a wallet can modify its state.",
    "methods": {
      "getWhitelist(address,address)": {
        "details": "Gets the whitelist state of an account for a wallet.",
        "params": {
          "_target": "The account.",
          "_wallet": "The target wallet."
        },
        "return": "the epoch time at which an account strats to be whitelisted, or zero if the account is not whitelisted."
      },
      "setWhitelist(address,address,uint256)": {
        "details": "Lets an authorised module add or remove an account from the whitelist of a wallet.",
        "params": {
          "_target": "The account to add/remove.",
          "_value": "True for addition, false for revokation.",
          "_wallet": "The target wallet."
        }
      }
    },
    "title": "TransferStorage"
  },
  "userdoc": {
    "methods": {}
  }
}