{
  "contractName": "UniswapManager",
  "abi": [
    {
      "inputs": [
        {
          "internalType": "contract ModuleRegistry",
          "name": "_registry",
          "type": "address"
        },
        {
          "internalType": "contract GuardianStorage",
          "name": "_guardianStorage",
          "type": "address"
        },
        {
          "internalType": "contract UniswapFactory",
          "name": "_uniswapFactory",
          "type": "address"
        }
      ],
      "payable": false,
      "stateMutability": "nonpayable",
      "type": "constructor"
    },
    {
      "anonymous": false,
      "inputs": [
        {
          "indexed": true,
          "internalType": "address",
          "name": "_wallet",
          "type": "address"
        },
        {
          "indexed": false,
          "internalType": "address",
          "name": "_token",
          "type": "address"
        },
        {
          "indexed": false,
          "internalType": "uint256",
          "name": "_invested",
          "type": "uint256"
        },
        {
          "indexed": false,
          "internalType": "uint256",
          "name": "_period",
          "type": "uint256"
        }
      ],
      "name": "InvestmentAdded",
      "type": "event"
    },
    {
      "anonymous": false,
      "inputs": [
        {
          "indexed": true,
          "internalType": "address",
          "name": "_wallet",
          "type": "address"
        },
        {
          "indexed": false,
          "internalType": "address",
          "name": "_token",
          "type": "address"
        },
        {
          "indexed": false,
          "internalType": "uint256",
          "name": "_fraction",
          "type": "uint256"
        }
      ],
      "name": "InvestmentRemoved",
      "type": "event"
    },
    {
      "anonymous": false,
      "inputs": [
        {
          "indexed": false,
          "internalType": "bytes32",
          "name": "name",
          "type": "bytes32"
        }
      ],
      "name": "ModuleCreated",
      "type": "event"
    },
    {
      "anonymous": false,
      "inputs": [
        {
          "indexed": false,
          "internalType": "address",
          "name": "wallet",
          "type": "address"
        }
      ],
      "name": "ModuleInitialised",
      "type": "event"
    },
    {
      "anonymous": false,
      "inputs": [
        {
          "indexed": true,
          "internalType": "address",
          "name": "wallet",
          "type": "address"
        },
        {
          "indexed": true,
          "internalType": "bool",
          "name": "success",
          "type": "bool"
        },
        {
          "indexed": false,
          "internalType": "bytes32",
          "name": "signedHash",
          "type": "bytes32"
        }
      ],
      "name": "TransactionExecuted",
      "type": "event"
    },
    {
      "constant": false,
      "inputs": [
        {
          "internalType": "contract BaseWallet",
          "name": "_wallet",
          "type": "address"
        },
        {
          "internalType": "contract Module",
          "name": "_module",
          "type": "address"
        }
      ],
      "name": "addModule",
      "outputs": [],
      "payable": false,
      "stateMutability": "nonpayable",
      "type": "function"
    },
    {
      "constant": false,
      "inputs": [
        {
          "internalType": "contract BaseWallet",
          "name": "_wallet",
          "type": "address"
        },
        {
          "internalType": "bytes",
          "name": "_data",
          "type": "bytes"
        },
        {
          "internalType": "uint256",
          "name": "_nonce",
          "type": "uint256"
        },
        {
          "internalType": "bytes",
          "name": "_signatures",
          "type": "bytes"
        },
        {
          "internalType": "uint256",
          "name": "_gasPrice",
          "type": "uint256"
        },
        {
          "internalType": "uint256",
          "name": "_gasLimit",
          "type": "uint256"
        }
      ],
      "name": "execute",
      "outputs": [
        {
          "internalType": "bool",
          "name": "success",
          "type": "bool"
        }
      ],
      "payable": false,
      "stateMutability": "nonpayable",
      "type": "function"
    },
    {
      "constant": true,
      "inputs": [
        {
          "internalType": "contract BaseWallet",
          "name": "_wallet",
          "type": "address"
        }
      ],
      "name": "getNonce",
      "outputs": [
        {
          "internalType": "uint256",
          "name": "nonce",
          "type": "uint256"
        }
      ],
      "payable": false,
      "stateMutability": "view",
      "type": "function"
    },
    {
      "constant": false,
      "inputs": [
        {
          "internalType": "contract BaseWallet",
          "name": "_wallet",
          "type": "address"
        }
      ],
      "name": "init",
      "outputs": [],
      "payable": false,
      "stateMutability": "nonpayable",
      "type": "function"
    },
    {
      "constant": true,
      "inputs": [],
      "name": "isOnlyOwnerModule",
      "outputs": [
        {
          "internalType": "bytes4",
          "name": "",
          "type": "bytes4"
        }
      ],
      "payable": false,
      "stateMutability": "pure",
      "type": "function"
    },
    {
      "constant": false,
      "inputs": [
        {
          "internalType": "address",
          "name": "_token",
          "type": "address"
        }
      ],
      "name": "recoverToken",
      "outputs": [],
      "payable": false,
      "stateMutability": "nonpayable",
      "type": "function"
    },
    {
      "constant": true,
      "inputs": [
        {
          "internalType": "address",
          "name": "",
          "type": "address"
        }
      ],
      "name": "relayer",
      "outputs": [
        {
          "internalType": "uint256",
          "name": "nonce",
          "type": "uint256"
        }
      ],
      "payable": false,
      "stateMutability": "view",
      "type": "function"
    },
    {
      "constant": true,
      "inputs": [],
      "name": "uniswapFactory",
      "outputs": [
        {
          "internalType": "contract UniswapFactory",
          "name": "",
          "type": "address"
        }
      ],
      "payable": false,
      "stateMutability": "view",
      "type": "function"
    },
    {
      "constant": false,
      "inputs": [
        {
          "internalType": "contract BaseWallet",
          "name": "_wallet",
          "type": "address"
        },
        {
          "internalType": "address",
          "name": "_token",
          "type": "address"
        },
        {
          "internalType": "uint256",
          "name": "_amount",
          "type": "uint256"
        },
        {
          "internalType": "uint256",
          "name": "_period",
          "type": "uint256"
        }
      ],
      "name": "addInvestment",
      "outputs": [
        {
          "internalType": "uint256",
          "name": "_invested",
          "type": "uint256"
        }
      ],
      "payable": false,
      "stateMutability": "nonpayable",
      "type": "function"
    },
    {
      "constant": false,
      "inputs": [
        {
          "internalType": "contract BaseWallet",
          "name": "_wallet",
          "type": "address"
        },
        {
          "internalType": "address",
          "name": "_token",
          "type": "address"
        },
        {
          "internalType": "uint256",
          "name": "_fraction",
          "type": "uint256"
        }
      ],
      "name": "removeInvestment",
      "outputs": [],
      "payable": false,
      "stateMutability": "nonpayable",
      "type": "function"
    },
    {
      "constant": true,
      "inputs": [
        {
          "internalType": "contract BaseWallet",
          "name": "_wallet",
          "type": "address"
        },
        {
          "internalType": "address",
          "name": "_token",
          "type": "address"
        }
      ],
      "name": "getInvestment",
      "outputs": [
        {
          "internalType": "uint256",
          "name": "_tokenValue",
          "type": "uint256"
        },
        {
          "internalType": "uint256",
          "name": "_periodEnd",
          "type": "uint256"
        }
      ],
      "payable": false,
      "stateMutability": "view",
      "type": "function"
    }
  ],
  "bytecode": "0x608060405234801561001057600080fd5b50604051612f63380380612f638339818101604052606081101561003357600080fd5b8101908080519060200190929190805190602001909291908051906020019092919050505082827f556e6973776170496e766573744d616e61676572000000000000000000000000826000806101000a81548173ffffffffffffffffffffffffffffffffffffffff021916908373ffffffffffffffffffffffffffffffffffffffff16021790555081600160006101000a81548173ffffffffffffffffffffffffffffffffffffffff021916908373ffffffffffffffffffffffffffffffffffffffff1602179055507f3019c8fc80239e3dff8f781212ae2004839c2cb61d6c70acd279ac65392145df816040518082815260200191505060405180910390a150505080600360006101000a81548173ffffffffffffffffffffffffffffffffffffffff021916908373ffffffffffffffffffffffffffffffffffffffff160217905550505050612dda806101896000396000f3fe608060405234801561001057600080fd5b50600436106100a95760003560e01c80639be65a60116100715780639be65a6014610266578063aacaaf88146102aa578063c9b5ef8e146103ce578063cac7495c14610426578063d490da4d146104a5578063ec9e13aa14610501576100a9565b806319ab453c146100ae5780632d0335ab146100f25780635a1db8c41461014a5780638bdb2afa146101ae57806398d53428146101f8575b600080fd5b6100f0600480360360208110156100c457600080fd5b81019080803573ffffffffffffffffffffffffffffffffffffffff16906020019092919050505061058d565b005b6101346004803603602081101561010857600080fd5b81019080803573ffffffffffffffffffffffffffffffffffffffff169060200190929190505050610696565b6040518082815260200191505060405180910390f35b6101ac6004803603604081101561016057600080fd5b81019080803573ffffffffffffffffffffffffffffffffffffffff169060200190929190803573ffffffffffffffffffffffffffffffffffffffff1690602001909291905050506106e2565b005b6101b661096c565b604051808273ffffffffffffffffffffffffffffffffffffffff1673ffffffffffffffffffffffffffffffffffffffff16815260200191505060405180910390f35b6102646004803603606081101561020e57600080fd5b81019080803573ffffffffffffffffffffffffffffffffffffffff169060200190929190803573ffffffffffffffffffffffffffffffffffffffff16906020019092919080359060200190929190505050610992565b005b6102a86004803603602081101561027c57600080fd5b81019080803573ffffffffffffffffffffffffffffffffffffffff169060200190929190505050610c65565b005b6103b4600480360360c08110156102c057600080fd5b81019080803573ffffffffffffffffffffffffffffffffffffffff169060200190929190803590602001906401000000008111156102fd57600080fd5b82018360208201111561030f57600080fd5b8035906020019184600183028401116401000000008311171561033157600080fd5b9091929391929390803590602001909291908035906020019064010000000081111561035c57600080fd5b82018360208201111561036e57600080fd5b8035906020019184600183028401116401000000008311171561039057600080fd5b90919293919293908035906020019092919080359060200190929190505050610e09565b604051808215151515815260200191505060405180910390f35b610410600480360360208110156103e457600080fd5b81019080803573ffffffffffffffffffffffffffffffffffffffff169060200190929190505050611185565b6040518082815260200191505060405180910390f35b6104886004803603604081101561043c57600080fd5b81019080803573ffffffffffffffffffffffffffffffffffffffff169060200190929190803573ffffffffffffffffffffffffffffffffffffffff1690602001909291905050506111a3565b604051808381526020018281526020019250505060405180910390f35b6104ad6114ca565b60405180827bffffffffffffffffffffffffffffffffffffffffffffffffffffffff19167bffffffffffffffffffffffffffffffffffffffffffffffffffffffff1916815260200191505060405180910390f35b6105776004803603608081101561051757600080fd5b81019080803573ffffffffffffffffffffffffffffffffffffffff169060200190929190803573ffffffffffffffffffffffffffffffffffffffff16906020019092919080359060200190929190803590602001909291905050506114d9565b6040518082815260200191505060405180910390f35b808073ffffffffffffffffffffffffffffffffffffffff163373ffffffffffffffffffffffffffffffffffffffff161461062f576040517f08c379a00000000000000000000000000000000000000000000000000000000081526004018080602001828103825260198152602001807f424d3a2063616c6c6572206d7573742062652077616c6c65740000000000000081525060200191505060405180910390fd5b7f9fcca3f73f85397e2bf03647abf243c20b753bd54463ff3cae74de2971c112fa82604051808273ffffffffffffffffffffffffffffffffffffffff1673ffffffffffffffffffffffffffffffffffffffff16815260200191505060405180910390a15050565b6000600260008373ffffffffffffffffffffffffffffffffffffffff1673ffffffffffffffffffffffffffffffffffffffff168152602001908152602001600020600001549050919050565b813073ffffffffffffffffffffffffffffffffffffffff163373ffffffffffffffffffffffffffffffffffffffff16148061072357506107228133611760565b5b610778576040517f08c379a0000000000000000000000000000000000000000000000000000000008152600401808060200182810382526023815260200180612d556023913960400191505060405180910390fd5b6000809054906101000a900473ffffffffffffffffffffffffffffffffffffffff1673ffffffffffffffffffffffffffffffffffffffff16630bcd4ebb836040518263ffffffff1660e01b8152600401808273ffffffffffffffffffffffffffffffffffffffff1673ffffffffffffffffffffffffffffffffffffffff16815260200191505060206040518083038186803b15801561081657600080fd5b505afa15801561082a573d6000803e3d6000fd5b505050506040513d602081101561084057600080fd5b81019080805190602001909291905050506108c3576040517f08c379a000000000000000000000000000000000000000000000000000000000815260040180806020018281038252601c8152602001807f424d3a206d6f64756c65206973206e6f7420726567697374657265640000000081525060200191505060405180910390fd5b8273ffffffffffffffffffffffffffffffffffffffff16631f17732d8360016040518363ffffffff1660e01b8152600401808373ffffffffffffffffffffffffffffffffffffffff1673ffffffffffffffffffffffffffffffffffffffff1681526020018215151515815260200192505050600060405180830381600087803b15801561094f57600080fd5b505af1158015610963573d6000803e3d6000fd5b50505050505050565b600360009054906101000a900473ffffffffffffffffffffffffffffffffffffffff1681565b823073ffffffffffffffffffffffffffffffffffffffff163373ffffffffffffffffffffffffffffffffffffffff1614806109d357506109d28133611760565b5b610a28576040517f08c379a0000000000000000000000000000000000000000000000000000000008152600401808060200182810382526023815260200180612d556023913960400191505060405180910390fd5b83600160009054906101000a900473ffffffffffffffffffffffffffffffffffffffff1673ffffffffffffffffffffffffffffffffffffffff16634a4fbeec826040518263ffffffff1660e01b8152600401808273ffffffffffffffffffffffffffffffffffffffff1673ffffffffffffffffffffffffffffffffffffffff16815260200191505060206040518083038186803b158015610ac857600080fd5b505afa158015610adc573d6000803e3d6000fd5b505050506040513d6020811015610af257600080fd5b810190808051906020019092919050505015610b76576040517f08c379a000000000000000000000000000000000000000000000000000000000815260040180806020018281038252601b8152602001807f424d3a2077616c6c6574206d75737420626520756e6c6f636b6564000000000081525060200191505060405180910390fd5b612710831115610bd1576040517f08c379a0000000000000000000000000000000000000000000000000000000008152600401808060200182810382526033815260200180612cf06033913960400191505060405180910390fd5b610bdc858585611819565b8473ffffffffffffffffffffffffffffffffffffffff167f9aa275f858ea6286ee2cacd32cd2ae55f918a310ee6d0320caad244ee9d6109e8585604051808373ffffffffffffffffffffffffffffffffffffffff1673ffffffffffffffffffffffffffffffffffffffff1681526020018281526020019250505060405180910390a25050505050565b60008173ffffffffffffffffffffffffffffffffffffffff166370a08231306040518263ffffffff1660e01b8152600401808273ffffffffffffffffffffffffffffffffffffffff1673ffffffffffffffffffffffffffffffffffffffff16815260200191505060206040518083038186803b158015610ce457600080fd5b505afa158015610cf8573d6000803e3d6000fd5b505050506040513d6020811015610d0e57600080fd5b810190808051906020019092919050505090508173ffffffffffffffffffffffffffffffffffffffff1663a9059cbb6000809054906101000a900473ffffffffffffffffffffffffffffffffffffffff16836040518363ffffffff1660e01b8152600401808373ffffffffffffffffffffffffffffffffffffffff1673ffffffffffffffffffffffffffffffffffffffff16815260200182815260200192505050602060405180830381600087803b158015610dc957600080fd5b505af1158015610ddd573d6000803e3d6000fd5b505050506040513d6020811015610df357600080fd5b8101908080519060200190929190505050505050565b6000805a90506000610e65308c60008d8d8080601f016020809104026020016040519081016040528093929190818152602001838380828437600081840152601f19601f820116905080830192505050505050508c8a8a611b23565b9050610e728b8983611d20565b610ee4576040517f08c379a00000000000000000000000000000000000000000000000000000000081526004018080602001828103825260158152602001807f524d3a204475706c69636174652072657175657374000000000000000000000081525060200191505060405180910390fd5b610f328b8b8b8080601f016020809104026020016040519081016040528093929190818152602001838380828437600081840152601f19601f82011690508083019250505050505050611d35565b610f87576040517f08c379a000000000000000000000000000000000000000000000000000000000815260040180806020018281038252604a815260200180612ca6604a913960600191505060405180910390fd5b6000610fd78c8c8c8080601f016020809104026020016040519081016040528093929190818152602001838380828437600081840152601f19601f82011690508083019250505050505050611df0565b90508787905060418202141561112557610ff38c868884611dfc565b1561112457600081148061109757506110968c8c8c8080601f016020809104026020016040519081016040528093929190818152602001838380828437600081840152601f19601f82011690508083019250505050505050848b8b8080601f016020809104026020016040519081016040528093929190818152602001838380828437600081840152601f19601f82011690508083019250505050505050611f12565b5b15611123573073ffffffffffffffffffffffffffffffffffffffff168b8b6040518083838082843780830192505050925050506000604051808303816000865af19150503d8060008114611107576040519150601f19603f3d011682016040523d82523d6000602084013e61110c565b606091505b5050809450506111228c5a850388888533611f38565b5b5b5b8315158c73ffffffffffffffffffffffffffffffffffffffff167f6bb0b384ce772133df63560651bc8c727c53306cec1d51e2cbf8ea35fb8f2ec1846040518082815260200191505060405180910390a350505098975050505050505050565b60026020528060005260406000206000915090508060000154905081565b6000806000600360009054906101000a900473ffffffffffffffffffffffffffffffffffffffff1673ffffffffffffffffffffffffffffffffffffffff166306f2bf62856040518263ffffffff1660e01b8152600401808273ffffffffffffffffffffffffffffffffffffffff1673ffffffffffffffffffffffffffffffffffffffff16815260200191505060206040518083038186803b15801561124757600080fd5b505afa15801561125b573d6000803e3d6000fd5b505050506040513d602081101561127157600080fd5b8101908080519060200190929190505050905060008473ffffffffffffffffffffffffffffffffffffffff166370a08231836040518263ffffffff1660e01b8152600401808273ffffffffffffffffffffffffffffffffffffffff1673ffffffffffffffffffffffffffffffffffffffff16815260200191505060206040518083038186803b15801561130357600080fd5b505afa158015611317573d6000803e3d6000fd5b505050506040513d602081101561132d57600080fd5b8101908080519060200190929190505050905060008273ffffffffffffffffffffffffffffffffffffffff166370a08231886040518263ffffffff1660e01b8152600401808273ffffffffffffffffffffffffffffffffffffffff1673ffffffffffffffffffffffffffffffffffffffff16815260200191505060206040518083038186803b1580156113bf57600080fd5b505afa1580156113d3573d6000803e3d6000fd5b505050506040513d60208110156113e957600080fd5b8101908080519060200190929190505050905060008373ffffffffffffffffffffffffffffffffffffffff166318160ddd6040518163ffffffff1660e01b815260040160206040518083038186803b15801561144457600080fd5b505afa158015611458573d6000803e3d6000fd5b505050506040513d602081101561146e57600080fd5b810190808051906020019092919050505090506114b9816114ab600261149d8787611fa090919063ffffffff16565b611fa090919063ffffffff16565b611fda90919063ffffffff16565b955060009450505050509250929050565b600063d490da4d60e01b905090565b6000843073ffffffffffffffffffffffffffffffffffffffff163373ffffffffffffffffffffffffffffffffffffffff16148061151c575061151b8133611760565b5b611571576040517f08c379a0000000000000000000000000000000000000000000000000000000008152600401808060200182810382526023815260200180612d556023913960400191505060405180910390fd5b85600160009054906101000a900473ffffffffffffffffffffffffffffffffffffffff1673ffffffffffffffffffffffffffffffffffffffff16634a4fbeec826040518263ffffffff1660e01b8152600401808273ffffffffffffffffffffffffffffffffffffffff1673ffffffffffffffffffffffffffffffffffffffff16815260200191505060206040518083038186803b15801561161157600080fd5b505afa158015611625573d6000803e3d6000fd5b505050506040513d602081101561163b57600080fd5b8101908080519060200190929190505050156116bf576040517f08c379a000000000000000000000000000000000000000000000000000000000815260040180806020018281038252601b8152602001807f424d3a2077616c6c6574206d75737420626520756e6c6f636b6564000000000081525060200191505060405180910390fd5b6116ca878787612000565b92508673ffffffffffffffffffffffffffffffffffffffff167ff8eece150ed2126815122a6def9737751aecd814379d4ce8c9edd07133a49cdb878787604051808473ffffffffffffffffffffffffffffffffffffffff1673ffffffffffffffffffffffffffffffffffffffff168152602001838152602001828152602001935050505060405180910390a25050949350505050565b60008173ffffffffffffffffffffffffffffffffffffffff168373ffffffffffffffffffffffffffffffffffffffff16638da5cb5b6040518163ffffffff1660e01b815260040160206040518083038186803b1580156117bf57600080fd5b505afa1580156117d3573d6000803e3d6000fd5b505050506040513d60208110156117e957600080fd5b810190808051906020019092919050505073ffffffffffffffffffffffffffffffffffffffff1614905092915050565b6000600360009054906101000a900473ffffffffffffffffffffffffffffffffffffffff1673ffffffffffffffffffffffffffffffffffffffff166306f2bf62846040518263ffffffff1660e01b8152600401808273ffffffffffffffffffffffffffffffffffffffff1673ffffffffffffffffffffffffffffffffffffffff16815260200191505060206040518083038186803b1580156118ba57600080fd5b505afa1580156118ce573d6000803e3d6000fd5b505050506040513d60208110156118e457600080fd5b81019080805190602001909291905050509050600073ffffffffffffffffffffffffffffffffffffffff168173ffffffffffffffffffffffffffffffffffffffff16141561197d576040517f08c379a0000000000000000000000000000000000000000000000000000000008152600401808060200182810382526032815260200180612d236032913960400191505060405180910390fd5b60008173ffffffffffffffffffffffffffffffffffffffff166370a08231866040518263ffffffff1660e01b8152600401808273ffffffffffffffffffffffffffffffffffffffff1673ffffffffffffffffffffffffffffffffffffffff16815260200191505060206040518083038186803b1580156119fc57600080fd5b505afa158015611a10573d6000803e3d6000fd5b505050506040513d6020811015611a2657600080fd5b81019080805190602001909291905050509050611b1b85836000611a67612710611a598988611fa090919063ffffffff16565b611fda90919063ffffffff16565b60018060014201604051602401808581526020018460ff1681526020018360ff1681526020018281526020019450505050506040516020818303038152906040527ff88bf15a000000000000000000000000000000000000000000000000000000007bffffffffffffffffffffffffffffffffffffffffffffffffffffffff19166020820180517bffffffffffffffffffffffffffffffffffffffffffffffffffffffff8381831617835250505050612797565b505050505050565b6000601960f81b600060f81b89898989898989604051602001808a7effffffffffffffffffffffffffffffffffffffffffffffffffffffffffffff19167effffffffffffffffffffffffffffffffffffffffffffffffffffffffffffff19168152600101897effffffffffffffffffffffffffffffffffffffffffffffffffffffffffffff19167effffffffffffffffffffffffffffffffffffffffffffffffffffffffffffff191681526001018873ffffffffffffffffffffffffffffffffffffffff1673ffffffffffffffffffffffffffffffffffffffff1660601b81526014018773ffffffffffffffffffffffffffffffffffffffff1673ffffffffffffffffffffffffffffffffffffffff1660601b815260140186815260200185805190602001908083835b60208310611c705780518252602082019150602081019050602083039250611c4d565b6001836020036101000a03801982511681845116808217855250505050505090500184815260200183815260200182815260200199505050505050505050506040516020818303038152906040528051906020012060405160200180807f19457468657265756d205369676e6564204d6573736167653a0a333200000000815250601c01828152602001915050604051602081830303815290604052805190602001209050979650505050505050565b6000611d2c8484612aff565b90509392505050565b6000602482511015611daf576040517f08c379a00000000000000000000000000000000000000000000000000000000081526004018080602001828103825260168152602001807f524d3a20496e76616c6964206461746157616c6c65740000000000000000000081525060200191505060405180910390fd5b6000602483015190508373ffffffffffffffffffffffffffffffffffffffff168173ffffffffffffffffffffffffffffffffffffffff161491505092915050565b60006001905092915050565b60008083118015611e0d5750600182115b8015611ef757508284028573ffffffffffffffffffffffffffffffffffffffff16311080611ef65750600015158573ffffffffffffffffffffffffffffffffffffffff1663d6eb1bbf306040518263ffffffff1660e01b8152600401808273ffffffffffffffffffffffffffffffffffffffff1673ffffffffffffffffffffffffffffffffffffffff16815260200191505060206040518083038186803b158015611eb757600080fd5b505afa158015611ecb573d6000803e3d6000fd5b505050506040513d6020811015611ee157600080fd5b81019080805190602001909291905050501515145b5b15611f055760009050611f0a565b600190505b949350505050565b600080611f2184846000612be7565b9050611f2d8682611760565b915050949350505050565b60008561726c019050600085118015611f515750600183115b8015611f5d5750838111155b15611f97573a851115611f74573a81029050611f7a565b84810290505b611f9587838360405180602001604052806000815250612797565b505b50505050505050565b600080831415611fb35760009050611fd4565b6000828402905082848281611fc457fe5b0414611fcf57600080fd5b809150505b92915050565b6000808211611fe857600080fd5b6000828481611ff357fe5b0490508091505092915050565b6000808211612077576040517f08c379a000000000000000000000000000000000000000000000000000000000815260040180806020018281038252601e8152602001807f556e69737761703a2063616e2774206164642030206c6971756964697479000081525060200191505060405180910390fd5b6000600360009054906101000a900473ffffffffffffffffffffffffffffffffffffffff1673ffffffffffffffffffffffffffffffffffffffff166306f2bf62856040518263ffffffff1660e01b8152600401808273ffffffffffffffffffffffffffffffffffffffff1673ffffffffffffffffffffffffffffffffffffffff16815260200191505060206040518083038186803b15801561211857600080fd5b505afa15801561212c573d6000803e3d6000fd5b505050506040513d602081101561214257600080fd5b81019080805190602001909291905050509050600073ffffffffffffffffffffffffffffffffffffffff168173ffffffffffffffffffffffffffffffffffffffff1614156121db576040517f08c379a000000000000000000000000000000000000000000000000000000000815260040180806020018281038252602e815260200180612d78602e913960400191505060405180910390fd5b60008473ffffffffffffffffffffffffffffffffffffffff166370a08231876040518263ffffffff1660e01b8152600401808273ffffffffffffffffffffffffffffffffffffffff1673ffffffffffffffffffffffffffffffffffffffff16815260200191505060206040518083038186803b15801561225a57600080fd5b505afa15801561226e573d6000803e3d6000fd5b505050506040513d602081101561228457600080fd5b81019080805190602001909291905050509050808411156124645760008273ffffffffffffffffffffffffffffffffffffffff166359e948628387036040518263ffffffff1660e01b81526004018082815260200191505060206040518083038186803b1580156122f457600080fd5b505afa158015612308573d6000803e3d6000fd5b505050506040513d602081101561231e57600080fd5b810190808051906020019092919050505090508673ffffffffffffffffffffffffffffffffffffffff16318111156123be576040517f08c379a000000000000000000000000000000000000000000000000000000000815260040180806020018281038252601f8152602001807f556e69737761703a206e6f7420656e6f7567682045544820746f20737761700081525060200191505060405180910390fd5b6124618784838589034260405160240180838152602001828152602001925050506040516020818303038152906040527f6b1d4db7000000000000000000000000000000000000000000000000000000007bffffffffffffffffffffffffffffffffffffffffffffffffffffffff19166020820180517bffffffffffffffffffffffffffffffffffffffffffffffffffffffff8381831617835250505050612797565b50505b60008573ffffffffffffffffffffffffffffffffffffffff166370a08231846040518263ffffffff1660e01b8152600401808273ffffffffffffffffffffffffffffffffffffffff1673ffffffffffffffffffffffffffffffffffffffff16815260200191505060206040518083038186803b1580156124e357600080fd5b505afa1580156124f7573d6000803e3d6000fd5b505050506040513d602081101561250d57600080fd5b8101908080519060200190929190505050905060008373ffffffffffffffffffffffffffffffffffffffff163190506000612566836125588460018b03611fa090919063ffffffff16565b611fda90919063ffffffff16565b90508873ffffffffffffffffffffffffffffffffffffffff16318111156125f5576040517f08c379a000000000000000000000000000000000000000000000000000000000815260040180806020018281038252601f8152602001807f556e69737761703a206e6f7420656e6f7567682045544820746f20706f6f6c0081525060200191505060405180910390fd5b6126c389896000888b604051602401808373ffffffffffffffffffffffffffffffffffffffff1673ffffffffffffffffffffffffffffffffffffffff168152602001828152602001925050506040516020818303038152906040527f095ea7b3000000000000000000000000000000000000000000000000000000007bffffffffffffffffffffffffffffffffffffffffffffffffffffffff19166020820180517bffffffffffffffffffffffffffffffffffffffffffffffffffffffff8381831617835250505050612797565b5061277489868360018b60014201604051602401808460ff16815260200183815260200182815260200193505050506040516020818303038152906040527f422f1043000000000000000000000000000000000000000000000000000000007bffffffffffffffffffffffffffffffffffffffffffffffffffffffff19166020820180517bffffffffffffffffffffffffffffffffffffffffffffffffffffffff8381831617835250505050612797565b50612789600288611fa090919063ffffffff16565b955050505050509392505050565b606060008573ffffffffffffffffffffffffffffffffffffffff16858585604051602401808473ffffffffffffffffffffffffffffffffffffffff1673ffffffffffffffffffffffffffffffffffffffff16815260200183815260200180602001828103825283818151815260200191508051906020019080838360005b83811015612830578082015181840152602081019050612815565b50505050905090810190601f16801561285d5780820380516001836020036101000a031916815260200191505b509450505050506040516020818303038152906040527f8f6f0332000000000000000000000000000000000000000000000000000000007bffffffffffffffffffffffffffffffffffffffffffffffffffffffff19166020820180517bffffffffffffffffffffffffffffffffffffffffffffffffffffffff83818316178352505050506040518082805190602001908083835b6020831061291457805182526020820191506020810190506020830392506128f1565b6001836020036101000a0380198251168184511680821785525050505050509050019150506000604051808303816000865af19150503d8060008114612976576040519150601f19603f3d011682016040523d82523d6000602084013e61297b565b606091505b508093508192505050808015612992575060008251115b15612a6e578180602001905160208110156129ac57600080fd5b81019080805160405193929190846401000000008211156129cc57600080fd5b838201915060208201858111156129e257600080fd5b82518660018202830111640100000000821117156129ff57600080fd5b8083526020830192505050908051906020019080838360005b83811015612a33578082015181840152602081019050612a18565b50505050905090810190601f168015612a605780820380516001836020036101000a031916815260200191505b506040525050509150612af6565b600082511115612a82573d6000803e3d6000fd5b80612af5576040517f08c379a000000000000000000000000000000000000000000000000000000000815260040180806020018281038252601a8152602001807f424d3a2077616c6c657420696e766f6b6520726576657274656400000000000081525060200191505060405180910390fd5b5b50949350505050565b6000600260008473ffffffffffffffffffffffffffffffffffffffff1673ffffffffffffffffffffffffffffffffffffffff168152602001908152602001600020600001548211612b535760009050612be1565b600060807fffffffffffffffffffffffffffffffff000000000000000000000000000000008416901c90506127104301811115612b94576000915050612be1565b82600260008673ffffffffffffffffffffffffffffffffffffffff1673ffffffffffffffffffffffffffffffffffffffff1681526020019081526020016000206000018190555060019150505b92915050565b60008060008084604102602001860151915084604102604001860151905060ff85604102604101870151169250601b8360ff161480612c295750601c8360ff16145b612c3257600080fd5b60018784848460405160008152602001604052604051808581526020018460ff1660ff1681526020018381526020018281526020019450505050506020604051602081039080840390855afa158015612c8f573d6000803e3d6000fd5b505050602060405103519350505050939250505056fe524d3a207468652077616c6c657420617574686f72697a656420697320646966666572656e74207468656e2074686520746172676574206f66207468652072656c617965642064617461556e69737761703a205f6672616374696f6e206d7573742062652065787072657373656420696e203120706572203130303030556e69737761703a205468652074617267657420746f6b656e206973206e6f7420747261646564206f6e20556e6973776170424d3a206d75737420626520616e206f776e657220666f72207468652077616c6c6574556e69737761703a2074617267657420746f6b656e206973206e6f7420747261646564206f6e20556e6973776170a265627a7a723158208c89fd14c5ce930b8b14296e14efaebe097f24616e49fef264566d8d1d3e29e264736f6c63430005100032",
  "source": "// Copyright (C) 2018  Argent Labs Ltd. <https://argent.xyz>\n\n// This program is free software: you can redistribute it and/or modify\n// it under the terms of the GNU General Public License as published by\n// the Free Software Foundation, either version 3 of the License, or\n// (at your option) any later version.\n\n// This program is distributed in the hope that it will be useful,\n// but WITHOUT ANY WARRANTY; without even the implied warranty of\n// MERCHANTABILITY or FITNESS FOR A PARTICULAR PURPOSE.  See the\n// GNU General Public License for more details.\n\n// You should have received a copy of the GNU General Public License\n// along with this program.  If not, see <http://www.gnu.org/licenses/>.\n\npragma solidity ^0.5.4;\n\nimport \"../../lib/utils/SafeMath.sol\";\nimport \"../wallet/BaseWallet.sol\";\nimport \"./common/BaseModule.sol\";\nimport \"./common/RelayerModule.sol\";\nimport \"./common/OnlyOwnerModule.sol\";\nimport \"../defi/Invest.sol\";\n\ninterface UniswapFactory {\n    function getExchange(address _token) external view returns(address);\n}\n\ninterface UniswapExchange {\n    function getEthToTokenOutputPrice(uint256 _tokens_bought) external view returns (uint256);\n    function getEthToTokenInputPrice(uint256 _eth_sold) external view returns (uint256);\n    function getTokenToEthOutputPrice(uint256 _eth_bought) external view returns (uint256);\n    function getTokenToEthInputPrice(uint256 _tokens_sold) external view returns (uint256);\n}\n\n/**\n * @title UniswapInvestManager\n * @dev Module to invest tokens with Uniswap in order to earn an interest\n * @author Julien Niset - <julien@argent.xyz>\n */\ncontract UniswapManager is Invest, BaseModule, RelayerModule, OnlyOwnerModule {\n\n    bytes32 constant NAME = \"UniswapInvestManager\";\n\n    // The Uniswap Factory contract\n    UniswapFactory public uniswapFactory;\n\n    // Mock token address for ETH\n    address constant internal ETH_TOKEN_ADDRESS = 0xEeeeeEeeeEeEeeEeEeEeeEEEeeeeEeeeeeeeEEeE;\n\n    using SafeMath for uint256;\n\n    constructor(\n        ModuleRegistry _registry,\n        GuardianStorage _guardianStorage,\n        UniswapFactory _uniswapFactory\n    )\n        BaseModule(_registry, _guardianStorage, NAME)\n        public\n    {\n        uniswapFactory = _uniswapFactory;\n    }\n\n    /* ********************************** Implementation of Invest ************************************* */\n\n    /**\n     * @dev Invest tokens for a given period.\n     * @param _wallet The target wallet.\n     * @param _token The token address.\n     * @param _amount The amount of tokens to invest.\n     * @param _period The period over which the tokens may be locked in the investment (optional).\n     * @return The amount of tokens that have been invested.\n     */\n    function addInvestment(\n        BaseWallet _wallet,\n        address _token,\n        uint256 _amount,\n        uint256 _period\n    )\n        external\n        onlyWalletOwner(_wallet)\n        onlyWhenUnlocked(_wallet)\n        returns (uint256 _invested)\n    {\n        _invested = addLiquidity(_wallet, _token, _amount);\n        emit InvestmentAdded(address(_wallet), _token, _amount, _period);\n    }\n\n    /**\n     * @dev Removes a fraction of the tokens from an investment.\n     * @param _wallet The target wallet.s\n     * @param _token The array of token address.\n     * @param _fraction The fraction of invested tokens to exit in per 10000.\n     */\n    function removeInvestment(\n        BaseWallet _wallet,\n        address _token,\n        uint256 _fraction\n    )\n        external\n        onlyWalletOwner(_wallet)\n        onlyWhenUnlocked(_wallet)\n    {\n        require(_fraction <= 10000, \"Uniswap: _fraction must be expressed in 1 per 10000\");\n        removeLiquidity(_wallet, _token, _fraction);\n        emit InvestmentRemoved(address(_wallet), _token, _fraction);\n    }\n\n    /**\n     * @dev Get the amount of investment in a given token.\n     * @param _wallet The target wallet.\n     * @param _token The token address.\n     * @return The value in tokens of the investment (including interests) and the time at which the investment can be removed.\n     */\n    function getInvestment(\n        BaseWallet _wallet,\n        address _token\n    )\n        external\n        view\n        returns (uint256 _tokenValue, uint256 _periodEnd)\n    {\n        address tokenPool = uniswapFactory.getExchange(_token);\n        uint256 tokenPoolSize = ERC20(_token).balanceOf(tokenPool);\n        uint shares = ERC20(tokenPool).balanceOf(address(_wallet));\n        uint totalSupply = ERC20(tokenPool).totalSupply();\n        _tokenValue = shares.mul(tokenPoolSize).mul(2).div(totalSupply);\n        _periodEnd = 0;\n    }\n\n    /* ****************************************** Uniswap utilities ******************************************* */\n\n    /**\n     * @dev Adds liquidity to a Uniswap ETH-ERC20 pair.\n     * @param _wallet The target wallet\n     * @param _token The address of the ERC20 token of the pair.\n     * @param _amount The amount of tokens to add to the pool.\n     */\n    function addLiquidity(\n        BaseWallet _wallet,\n        address _token,\n        uint256 _amount\n    )\n        internal\n        returns (uint256)\n    {\n        require(_amount > 0, \"Uniswap: can't add 0 liquidity\");\n        address tokenPool = uniswapFactory.getExchange(_token);\n        require(tokenPool != address(0), \"Uniswap: target token is not traded on Uniswap\");\n\n        uint256 tokenBalance = ERC20(_token).balanceOf(address(_wallet));\n        if (_amount > tokenBalance) {\n            uint256 ethToSwap = UniswapExchange(tokenPool).getEthToTokenOutputPrice(_amount - tokenBalance);\n            require(ethToSwap <= address(_wallet).balance, \"Uniswap: not enough ETH to swap\");\n            invokeWallet(address(_wallet), tokenPool, ethToSwap, abi.encodeWithSignature(\"ethToTokenSwapOutput(uint256,uint256)\", _amount - tokenBalance, block.timestamp));\n        }\n\n        uint256 tokenLiquidity = ERC20(_token).balanceOf(tokenPool);\n        uint256 ethLiquidity = tokenPool.balance;\n        uint256 ethToPool = (_amount - 1).mul(ethLiquidity).div(tokenLiquidity);\n        require(ethToPool <= address(_wallet).balance, \"Uniswap: not enough ETH to pool\");\n        invokeWallet(address(_wallet), _token, 0, abi.encodeWithSignature(\"approve(address,uint256)\", tokenPool, _amount));\n        invokeWallet(\n            address(_wallet),\n            tokenPool,\n            ethToPool,\n            abi.encodeWithSignature(\"addLiquidity(uint256,uint256,uint256)\",\n            1,\n            _amount,\n            block.timestamp + 1));\n        return _amount.mul(2);\n    }\n\n    /**\n     * @dev Removes liquidity from a Uniswap ETH-ERC20 pair.\n     * @param _wallet The target wallet\n     * @param _token The address of the ERC20 token of the pair.\n     * @param _fraction The fraction of pool shares to liquidate.\n     */\n    function removeLiquidity(\n        BaseWallet _wallet,\n        address _token,\n        uint256 _fraction\n    )\n        internal\n    {\n        address tokenPool = uniswapFactory.getExchange(_token);\n        require(tokenPool != address(0), \"Uniswap: The target token is not traded on Uniswap\");\n        uint256 shares = ERC20(tokenPool).balanceOf(address(_wallet));\n        invokeWallet(\n            address(_wallet),\n            tokenPool,\n            0,\n            abi.encodeWithSignature(\"removeLiquidity(uint256,uint256,uint256,uint256)\",\n            shares.mul(_fraction).div(10000),\n            1,\n            1,\n            block.timestamp + 1));\n    }\n}\n\n",
  "sourcePath": "/Users/name/dev/argent-contracts-release-1.5.0/contracts/modules/UniswapManager.sol",
  "compiler": {
    "name": "solc",
    "version": "0.5.16+commit.9c3226ce.Emscripten.clang"
  },
  "schemaVersion": "3.0.23",
  "updatedAt": "2020-03-31T19:53:31.498Z",
  "devdoc": {
    "author": "Julien Niset - <julien@argent.xyz>",
    "details": "Module to invest tokens with Uniswap in order to earn an interest",
    "methods": {
      "addInvestment(address,address,uint256,uint256)": {
        "details": "Invest tokens for a given period.",
        "params": {
          "_amount": "The amount of tokens to invest.",
          "_period": "The period over which the tokens may be locked in the investment (optional).",
          "_token": "The token address.",
          "_wallet": "The target wallet."
        },
        "return": "The amount of tokens that have been invested."
      },
      "addModule(address,address)": {
        "details": "Adds a module to a wallet. First checks that the module is registered. Unlike its overrided parent, this method can be called via the RelayerModule's execute()",
        "params": {
          "_module": "The modules to authorise.",
          "_wallet": "The target wallet."
        }
      },
      "execute(address,bytes,uint256,bytes,uint256,uint256)": {
        "details": "Executes a relayed transaction.",
        "params": {
          "_data": "The data for the relayed transaction",
          "_gasLimit": "The gas limit to use for the gas refund.",
          "_gasPrice": "The gas price to use for the gas refund.",
          "_nonce": "The nonce used to prevent replay attacks.",
          "_signatures": "The signatures as a concatenated byte array.",
          "_wallet": "The target wallet."
        }
      },
      "getInvestment(address,address)": {
        "details": "Get the amount of investment in a given token.",
        "params": {
          "_token": "The token address.",
          "_wallet": "The target wallet."
        },
        "return": "The value in tokens of the investment (including interests) and the time at which the investment can be removed."
      },
      "getNonce(address)": {
        "details": "Gets the current nonce for a wallet.",
        "params": {
          "_wallet": "The target wallet."
        }
      },
      "init(address)": {
        "details": "Inits the module for a wallet by logging an event. The method can only be called by the wallet itself.",
        "params": {
          "_wallet": "The wallet."
        }
      },
      "isOnlyOwnerModule()": {
        "details": "Returns a constant that indicates that the module is an OnlyOwnerModule.",
        "return": "The constant bytes4(keccak256(\"isOnlyOwnerModule()\"))"
      },
      "recoverToken(address)": {
        "details": "Utility method enbaling anyone to recover ERC20 token sent to the module by mistake and transfer them to the Module Registry.",
        "params": {
          "_token": "The token to recover."
        }
      },
      "removeInvestment(address,address,uint256)": {
        "details": "Removes a fraction of the tokens from an investment.",
        "params": {
          "_fraction": "The fraction of invested tokens to exit in per 10000.",
          "_token": "The array of token address.",
          "_wallet": "The target wallet.s"
        }
      }
    },
    "title": "UniswapInvestManager"
  },
  "userdoc": {
    "methods": {}
  }
}