{
  "contractName": "WalletFactory",
  "abi": [
    {
      "inputs": [
        {
          "internalType": "address",
          "name": "_moduleRegistry",
          "type": "address"
        },
        {
          "internalType": "address",
          "name": "_walletImplementation",
          "type": "address"
        },
        {
          "internalType": "address",
          "name": "_ensManager",
          "type": "address"
        }
      ],
      "payable": false,
      "stateMutability": "nonpayable",
      "type": "constructor"
    },
    {
      "anonymous": false,
      "inputs": [
        {
          "indexed": false,
          "internalType": "address",
          "name": "addr",
          "type": "address"
        }
      ],
      "name": "ENSManagerChanged",
      "type": "event"
    },
    {
      "anonymous": false,
      "inputs": [
        {
          "indexed": false,
          "internalType": "address",
          "name": "addr",
          "type": "address"
        }
      ],
      "name": "GuardianStorageChanged",
      "type": "event"
    },
    {
      "anonymous": false,
      "inputs": [
        {
          "indexed": true,
          "internalType": "address",
          "name": "_manager",
          "type": "address"
        }
      ],
      "name": "ManagerAdded",
      "type": "event"
    },
    {
      "anonymous": false,
      "inputs": [
        {
          "indexed": true,
          "internalType": "address",
          "name": "_manager",
          "type": "address"
        }
      ],
      "name": "ManagerRevoked",
      "type": "event"
    },
    {
      "anonymous": false,
      "inputs": [
        {
          "indexed": false,
          "internalType": "address",
          "name": "addr",
          "type": "address"
        }
      ],
      "name": "ModuleRegistryChanged",
      "type": "event"
    },
    {
      "anonymous": false,
      "inputs": [
        {
          "indexed": true,
          "internalType": "address",
          "name": "_newOwner",
          "type": "address"
        }
      ],
      "name": "OwnerChanged",
      "type": "event"
    },
    {
      "anonymous": false,
      "inputs": [
        {
          "indexed": true,
          "internalType": "address",
          "name": "wallet",
          "type": "address"
        },
        {
          "indexed": true,
          "internalType": "address",
          "name": "owner",
          "type": "address"
        },
        {
          "indexed": true,
          "internalType": "address",
          "name": "guardian",
          "type": "address"
        }
      ],
      "name": "WalletCreated",
      "type": "event"
    },
    {
      "constant": false,
      "inputs": [
        {
          "internalType": "address",
          "name": "_manager",
          "type": "address"
        }
      ],
      "name": "addManager",
      "outputs": [],
      "payable": false,
      "stateMutability": "nonpayable",
      "type": "function"
    },
    {
      "constant": false,
      "inputs": [
        {
          "internalType": "address",
          "name": "_newOwner",
          "type": "address"
        }
      ],
      "name": "changeOwner",
      "outputs": [],
      "payable": false,
      "stateMutability": "nonpayable",
      "type": "function"
    },
    {
      "constant": true,
      "inputs": [],
      "name": "ensManager",
      "outputs": [
        {
          "internalType": "address",
          "name": "",
          "type": "address"
        }
      ],
      "payable": false,
      "stateMutability": "view",
      "type": "function"
    },
    {
      "constant": true,
      "inputs": [],
      "name": "guardianStorage",
      "outputs": [
        {
          "internalType": "address",
          "name": "",
          "type": "address"
        }
      ],
      "payable": false,
      "stateMutability": "view",
      "type": "function"
    },
    {
      "constant": true,
      "inputs": [
        {
          "internalType": "address",
          "name": "",
          "type": "address"
        }
      ],
      "name": "managers",
      "outputs": [
        {
          "internalType": "bool",
          "name": "",
          "type": "bool"
        }
      ],
      "payable": false,
      "stateMutability": "view",
      "type": "function"
    },
    {
      "constant": true,
      "inputs": [],
      "name": "moduleRegistry",
      "outputs": [
        {
          "internalType": "address",
          "name": "",
          "type": "address"
        }
      ],
      "payable": false,
      "stateMutability": "view",
      "type": "function"
    },
    {
      "constant": true,
      "inputs": [],
      "name": "owner",
      "outputs": [
        {
          "internalType": "address",
          "name": "",
          "type": "address"
        }
      ],
      "payable": false,
      "stateMutability": "view",
      "type": "function"
    },
    {
      "constant": false,
      "inputs": [
        {
          "internalType": "address",
          "name": "_manager",
          "type": "address"
        }
      ],
      "name": "revokeManager",
      "outputs": [],
      "payable": false,
      "stateMutability": "nonpayable",
      "type": "function"
    },
    {
      "constant": true,
      "inputs": [],
      "name": "walletImplementation",
      "outputs": [
        {
          "internalType": "address",
          "name": "",
          "type": "address"
        }
      ],
      "payable": false,
      "stateMutability": "view",
      "type": "function"
    },
    {
      "constant": false,
      "inputs": [
        {
          "internalType": "address",
          "name": "_owner",
          "type": "address"
        },
        {
          "internalType": "address[]",
          "name": "_modules",
          "type": "address[]"
        },
        {
          "internalType": "string",
          "name": "_label",
          "type": "string"
        }
      ],
      "name": "createWallet",
      "outputs": [],
      "payable": false,
      "stateMutability": "nonpayable",
      "type": "function"
    },
    {
      "constant": false,
      "inputs": [
        {
          "internalType": "address",
          "name": "_owner",
          "type": "address"
        },
        {
          "internalType": "address[]",
          "name": "_modules",
          "type": "address[]"
        },
        {
          "internalType": "string",
          "name": "_label",
          "type": "string"
        },
        {
          "internalType": "address",
          "name": "_guardian",
          "type": "address"
        }
      ],
      "name": "createWalletWithGuardian",
      "outputs": [],
      "payable": false,
      "stateMutability": "nonpayable",
      "type": "function"
    },
    {
      "constant": false,
      "inputs": [
        {
          "internalType": "address",
          "name": "_owner",
          "type": "address"
        },
        {
          "internalType": "address[]",
          "name": "_modules",
          "type": "address[]"
        },
        {
          "internalType": "string",
          "name": "_label",
          "type": "string"
        },
        {
          "internalType": "bytes32",
          "name": "_salt",
          "type": "bytes32"
        }
      ],
      "name": "createCounterfactualWallet",
      "outputs": [],
      "payable": false,
      "stateMutability": "nonpayable",
      "type": "function"
    },
    {
      "constant": false,
      "inputs": [
        {
          "internalType": "address",
          "name": "_owner",
          "type": "address"
        },
        {
          "internalType": "address[]",
          "name": "_modules",
          "type": "address[]"
        },
        {
          "internalType": "string",
          "name": "_label",
          "type": "string"
        },
        {
          "internalType": "address",
          "name": "_guardian",
          "type": "address"
        },
        {
          "internalType": "bytes32",
          "name": "_salt",
          "type": "bytes32"
        }
      ],
      "name": "createCounterfactualWalletWithGuardian",
      "outputs": [],
      "payable": false,
      "stateMutability": "nonpayable",
      "type": "function"
    },
    {
      "constant": true,
      "inputs": [
        {
          "internalType": "address",
          "name": "_owner",
          "type": "address"
        },
        {
          "internalType": "address[]",
          "name": "_modules",
          "type": "address[]"
        },
        {
          "internalType": "bytes32",
          "name": "_salt",
          "type": "bytes32"
        }
      ],
      "name": "getAddressForCounterfactualWallet",
      "outputs": [
        {
          "internalType": "address",
          "name": "_wallet",
          "type": "address"
        }
      ],
      "payable": false,
      "stateMutability": "view",
      "type": "function"
    },
    {
      "constant": true,
      "inputs": [
        {
          "internalType": "address",
          "name": "_owner",
          "type": "address"
        },
        {
          "internalType": "address[]",
          "name": "_modules",
          "type": "address[]"
        },
        {
          "internalType": "address",
          "name": "_guardian",
          "type": "address"
        },
        {
          "internalType": "bytes32",
          "name": "_salt",
          "type": "bytes32"
        }
      ],
      "name": "getAddressForCounterfactualWalletWithGuardian",
      "outputs": [
        {
          "internalType": "address",
          "name": "_wallet",
          "type": "address"
        }
      ],
      "payable": false,
      "stateMutability": "view",
      "type": "function"
    },
    {
      "constant": false,
      "inputs": [
        {
          "internalType": "address",
          "name": "_moduleRegistry",
          "type": "address"
        }
      ],
      "name": "changeModuleRegistry",
      "outputs": [],
      "payable": false,
      "stateMutability": "nonpayable",
      "type": "function"
    },
    {
      "constant": false,
      "inputs": [
        {
          "internalType": "address",
          "name": "_ensManager",
          "type": "address"
        }
      ],
      "name": "changeENSManager",
      "outputs": [],
      "payable": false,
      "stateMutability": "nonpayable",
      "type": "function"
    },
    {
      "constant": false,
      "inputs": [
        {
          "internalType": "address",
          "name": "_guardianStorage",
          "type": "address"
        }
      ],
      "name": "changeGuardianStorage",
      "outputs": [],
      "payable": false,
      "stateMutability": "nonpayable",
      "type": "function"
    },
    {
      "constant": true,
      "inputs": [
        {
          "internalType": "contract BaseWallet",
          "name": "_wallet",
          "type": "address"
        }
      ],
      "name": "init",
      "outputs": [],
      "payable": false,
      "stateMutability": "pure",
      "type": "function"
    }
  ],
  "bytecode": "0x608060405234801561001057600080fd5b506040516136d63803806136d68339818101604052606081101561003357600080fd5b81019080805190602001909291908051906020019092919080519060200190929190505050336000806101000a81548173ffffffffffffffffffffffffffffffffffffffff021916908373ffffffffffffffffffffffffffffffffffffffff16021790555082600260006101000a81548173ffffffffffffffffffffffffffffffffffffffff021916908373ffffffffffffffffffffffffffffffffffffffff16021790555081600360006101000a81548173ffffffffffffffffffffffffffffffffffffffff021916908373ffffffffffffffffffffffffffffffffffffffff16021790555080600460006101000a81548173ffffffffffffffffffffffffffffffffffffffff021916908373ffffffffffffffffffffffffffffffffffffffff1602179055505050506135698061016d6000396000f3fe608060405234801561001057600080fd5b50600436106101215760003560e01c80639d1df5ee116100ad578063bb1cef7211610071578063bb1cef72146106f3578063c3606c88146107f6578063c6e79bbe1461090e578063d89784fc14610a1c578063fdff9b4d14610a6657610121565b80639d1df5ee14610450578063a6f9dae114610494578063aff18575146104d8578063b95459e4146105c6578063b97ccf2f1461061057610121565b8063377e32e6116100f4578063377e32e6146102ea5780635a6971f91461032e5780638117abc1146103785780638da5cb5b146103c257806390ed991c1461040c57610121565b806308d668bc1461012657806319ab453c1461016a5780632d06177a146101ae578063350aaa9a146101f2575b600080fd5b6101686004803603602081101561013c57600080fd5b81019080803573ffffffffffffffffffffffffffffffffffffffff169060200190929190505050610ac2565b005b6101ac6004803603602081101561018057600080fd5b81019080803573ffffffffffffffffffffffffffffffffffffffff169060200190929190505050610cce565b005b6101f0600480360360208110156101c457600080fd5b81019080803573ffffffffffffffffffffffffffffffffffffffff169060200190929190505050610cd1565b005b6102e86004803603608081101561020857600080fd5b81019080803573ffffffffffffffffffffffffffffffffffffffff1690602001909291908035906020019064010000000081111561024557600080fd5b82018360208201111561025757600080fd5b8035906020019184602083028401116401000000008311171561027957600080fd5b90919293919293908035906020019064010000000081111561029a57600080fd5b8201836020820111156102ac57600080fd5b803590602001918460018302840111640100000000831117156102ce57600080fd5b909192939192939080359060200190929190505050610f2d565b005b61032c6004803603602081101561030057600080fd5b81019080803573ffffffffffffffffffffffffffffffffffffffff16906020019092919050505061108e565b005b61033661128e565b604051808273ffffffffffffffffffffffffffffffffffffffff1673ffffffffffffffffffffffffffffffffffffffff16815260200191505060405180910390f35b6103806112b4565b604051808273ffffffffffffffffffffffffffffffffffffffff1673ffffffffffffffffffffffffffffffffffffffff16815260200191505060405180910390f35b6103ca6112da565b604051808273ffffffffffffffffffffffffffffffffffffffff1673ffffffffffffffffffffffffffffffffffffffff16815260200191505060405180910390f35b61044e6004803603602081101561042257600080fd5b81019080803573ffffffffffffffffffffffffffffffffffffffff1690602001909291905050506112ff565b005b6104926004803603602081101561046657600080fd5b81019080803573ffffffffffffffffffffffffffffffffffffffff16906020019092919050505061150b565b005b6104d6600480360360208110156104aa57600080fd5b81019080803573ffffffffffffffffffffffffffffffffffffffff169060200190929190505050611717565b005b6105c4600480360360608110156104ee57600080fd5b81019080803573ffffffffffffffffffffffffffffffffffffffff1690602001909291908035906020019064010000000081111561052b57600080fd5b82018360208201111561053d57600080fd5b8035906020019184602083028401116401000000008311171561055f57600080fd5b90919293919293908035906020019064010000000081111561058057600080fd5b82018360208201111561059257600080fd5b803590602001918460018302840111640100000000831117156105b457600080fd5b9091929391929390505050611902565b005b6105ce611a61565b604051808273ffffffffffffffffffffffffffffffffffffffff1673ffffffffffffffffffffffffffffffffffffffff16815260200191505060405180910390f35b6106b16004803603606081101561062657600080fd5b81019080803573ffffffffffffffffffffffffffffffffffffffff1690602001909291908035906020019064010000000081111561066357600080fd5b82018360208201111561067557600080fd5b8035906020019184602083028401116401000000008311171561069757600080fd5b909192939192939080359060200190929190505050611a87565b604051808273ffffffffffffffffffffffffffffffffffffffff1673ffffffffffffffffffffffffffffffffffffffff16815260200191505060405180910390f35b6107b46004803603608081101561070957600080fd5b81019080803573ffffffffffffffffffffffffffffffffffffffff1690602001909291908035906020019064010000000081111561074657600080fd5b82018360208201111561075857600080fd5b8035906020019184602083028401116401000000008311171561077a57600080fd5b9091929391929390803573ffffffffffffffffffffffffffffffffffffffff16906020019092919080359060200190929190505050611ae1565b604051808273ffffffffffffffffffffffffffffffffffffffff1673ffffffffffffffffffffffffffffffffffffffff16815260200191505060405180910390f35b61090c600480360360a081101561080c57600080fd5b81019080803573ffffffffffffffffffffffffffffffffffffffff1690602001909291908035906020019064010000000081111561084957600080fd5b82018360208201111561085b57600080fd5b8035906020019184602083028401116401000000008311171561087d57600080fd5b90919293919293908035906020019064010000000081111561089e57600080fd5b8201836020820111156108b057600080fd5b803590602001918460018302840111640100000000831117156108d257600080fd5b9091929391929390803573ffffffffffffffffffffffffffffffffffffffff16906020019092919080359060200190929190505050611bdd565b005b610a1a6004803603608081101561092457600080fd5b81019080803573ffffffffffffffffffffffffffffffffffffffff1690602001909291908035906020019064010000000081111561096157600080fd5b82018360208201111561097357600080fd5b8035906020019184602083028401116401000000008311171561099557600080fd5b9091929391929390803590602001906401000000008111156109b657600080fd5b8201836020820111156109c857600080fd5b803590602001918460018302840111640100000000831117156109ea57600080fd5b9091929391929390803573ffffffffffffffffffffffffffffffffffffffff169060200190929190505050611e89565b005b610a24612133565b604051808273ffffffffffffffffffffffffffffffffffffffff1673ffffffffffffffffffffffffffffffffffffffff16815260200191505060405180910390f35b610aa860048036036020811015610a7c57600080fd5b81019080803573ffffffffffffffffffffffffffffffffffffffff169060200190929190505050612159565b604051808215151515815260200191505060405180910390f35b6000809054906101000a900473ffffffffffffffffffffffffffffffffffffffff1673ffffffffffffffffffffffffffffffffffffffff163373ffffffffffffffffffffffffffffffffffffffff1614610b84576040517f08c379a000000000000000000000000000000000000000000000000000000000815260040180806020018281038252600d8152602001807f4d757374206265206f776e65720000000000000000000000000000000000000081525060200191505060405180910390fd5b600073ffffffffffffffffffffffffffffffffffffffff168173ffffffffffffffffffffffffffffffffffffffff161415610c27576040517f08c379a000000000000000000000000000000000000000000000000000000000815260040180806020018281038252601a8152602001807f57463a20616464726573732063616e6e6f74206265206e756c6c00000000000081525060200191505060405180910390fd5b80600260006101000a81548173ffffffffffffffffffffffffffffffffffffffff021916908373ffffffffffffffffffffffffffffffffffffffff1602179055507f9bf4baeb20b6008af8dfd7fed5c50dce707a05623b022e5d61a00c7db7f90c7281604051808273ffffffffffffffffffffffffffffffffffffffff1673ffffffffffffffffffffffffffffffffffffffff16815260200191505060405180910390a150565b50565b6000809054906101000a900473ffffffffffffffffffffffffffffffffffffffff1673ffffffffffffffffffffffffffffffffffffffff163373ffffffffffffffffffffffffffffffffffffffff1614610d93576040517f08c379a000000000000000000000000000000000000000000000000000000000815260040180806020018281038252600d8152602001807f4d757374206265206f776e65720000000000000000000000000000000000000081525060200191505060405180910390fd5b600073ffffffffffffffffffffffffffffffffffffffff168173ffffffffffffffffffffffffffffffffffffffff161415610e36576040517f08c379a000000000000000000000000000000000000000000000000000000000815260040180806020018281038252601b8152602001807f4d3a2041646472657373206d757374206e6f74206265206e756c6c000000000081525060200191505060405180910390fd5b60001515600160008373ffffffffffffffffffffffffffffffffffffffff1673ffffffffffffffffffffffffffffffffffffffff16815260200190815260200160002060009054906101000a900460ff1615151415610f2a5760018060008373ffffffffffffffffffffffffffffffffffffffff1673ffffffffffffffffffffffffffffffffffffffff16815260200190815260200160002060006101000a81548160ff0219169083151502179055508073ffffffffffffffffffffffffffffffffffffffff167f3b4a40cccf2058c593542587329dd385be4f0b588db5471fbd9598e56dd7093a60405160405180910390a25b50565b60011515600160003373ffffffffffffffffffffffffffffffffffffffff1673ffffffffffffffffffffffffffffffffffffffff16815260200190815260200160002060009054906101000a900460ff16151514610ff3576040517f08c379a00000000000000000000000000000000000000000000000000000000081526004018080602001828103825260128152602001807f4d3a204d757374206265206d616e61676572000000000000000000000000000081525060200191505060405180910390fd5b61108686868680806020026020016040519081016040528093929190818152602001838360200280828437600081840152601f19601f8201169050808301925050505050505085858080601f016020809104026020016040519081016040528093929190818152602001838380828437600081840152601f19601f82011690508083019250505050505050600085612179565b505050505050565b6000809054906101000a900473ffffffffffffffffffffffffffffffffffffffff1673ffffffffffffffffffffffffffffffffffffffff163373ffffffffffffffffffffffffffffffffffffffff1614611150576040517f08c379a000000000000000000000000000000000000000000000000000000000815260040180806020018281038252600d8152602001807f4d757374206265206f776e65720000000000000000000000000000000000000081525060200191505060405180910390fd5b60011515600160008373ffffffffffffffffffffffffffffffffffffffff1673ffffffffffffffffffffffffffffffffffffffff16815260200190815260200160002060009054906101000a900460ff161515146111f9576040517f08c379a000000000000000000000000000000000000000000000000000000000815260040180806020018281038252602581526020018061349a6025913960400191505060405180910390fd5b600160008273ffffffffffffffffffffffffffffffffffffffff1673ffffffffffffffffffffffffffffffffffffffff16815260200190815260200160002060006101000a81549060ff02191690558073ffffffffffffffffffffffffffffffffffffffff167fe5def11e0516f317f9c37b8835aec29fc01db4d4b6d6fecaca339d3596a29bc160405160405180910390a250565b600460009054906101000a900473ffffffffffffffffffffffffffffffffffffffff1681565b600360009054906101000a900473ffffffffffffffffffffffffffffffffffffffff1681565b6000809054906101000a900473ffffffffffffffffffffffffffffffffffffffff1681565b6000809054906101000a900473ffffffffffffffffffffffffffffffffffffffff1673ffffffffffffffffffffffffffffffffffffffff163373ffffffffffffffffffffffffffffffffffffffff16146113c1576040517f08c379a000000000000000000000000000000000000000000000000000000000815260040180806020018281038252600d8152602001807f4d757374206265206f776e65720000000000000000000000000000000000000081525060200191505060405180910390fd5b600073ffffffffffffffffffffffffffffffffffffffff168173ffffffffffffffffffffffffffffffffffffffff161415611464576040517f08c379a000000000000000000000000000000000000000000000000000000000815260040180806020018281038252601a8152602001807f57463a20616464726573732063616e6e6f74206265206e756c6c00000000000081525060200191505060405180910390fd5b80600460006101000a81548173ffffffffffffffffffffffffffffffffffffffff021916908373ffffffffffffffffffffffffffffffffffffffff1602179055507f5b22021f5b1f5f8a744edb1f20f667875f22a1b29c4d9a46418ee25110c76cb881604051808273ffffffffffffffffffffffffffffffffffffffff1673ffffffffffffffffffffffffffffffffffffffff16815260200191505060405180910390a150565b6000809054906101000a900473ffffffffffffffffffffffffffffffffffffffff1673ffffffffffffffffffffffffffffffffffffffff163373ffffffffffffffffffffffffffffffffffffffff16146115cd576040517f08c379a000000000000000000000000000000000000000000000000000000000815260040180806020018281038252600d8152602001807f4d757374206265206f776e65720000000000000000000000000000000000000081525060200191505060405180910390fd5b600073ffffffffffffffffffffffffffffffffffffffff168173ffffffffffffffffffffffffffffffffffffffff161415611670576040517f08c379a000000000000000000000000000000000000000000000000000000000815260040180806020018281038252601a8152602001807f57463a20616464726573732063616e6e6f74206265206e756c6c00000000000081525060200191505060405180910390fd5b80600560006101000a81548173ffffffffffffffffffffffffffffffffffffffff021916908373ffffffffffffffffffffffffffffffffffffffff1602179055507fe897b5d59fcdf32efc14ac4f270d09939e2280487d6d5e156dcb41a29cb0343981604051808273ffffffffffffffffffffffffffffffffffffffff1673ffffffffffffffffffffffffffffffffffffffff16815260200191505060405180910390a150565b6000809054906101000a900473ffffffffffffffffffffffffffffffffffffffff1673ffffffffffffffffffffffffffffffffffffffff163373ffffffffffffffffffffffffffffffffffffffff16146117d9576040517f08c379a000000000000000000000000000000000000000000000000000000000815260040180806020018281038252600d8152602001807f4d757374206265206f776e65720000000000000000000000000000000000000081525060200191505060405180910390fd5b600073ffffffffffffffffffffffffffffffffffffffff168173ffffffffffffffffffffffffffffffffffffffff16141561187c576040517f08c379a00000000000000000000000000000000000000000000000000000000081526004018080602001828103825260188152602001807f41646472657373206d757374206e6f74206265206e756c6c000000000000000081525060200191505060405180910390fd5b806000806101000a81548173ffffffffffffffffffffffffffffffffffffffff021916908373ffffffffffffffffffffffffffffffffffffffff1602179055508073ffffffffffffffffffffffffffffffffffffffff167fa2ea9883a321a3e97b8266c2b078bfeec6d50c711ed71f874a90d500ae2eaf3660405160405180910390a250565b60011515600160003373ffffffffffffffffffffffffffffffffffffffff1673ffffffffffffffffffffffffffffffffffffffff16815260200190815260200160002060009054906101000a900460ff161515146119c8576040517f08c379a00000000000000000000000000000000000000000000000000000000081526004018080602001828103825260128152602001807f4d3a204d757374206265206d616e61676572000000000000000000000000000081525060200191505060405180910390fd5b611a5a85858580806020026020016040519081016040528093929190818152602001838360200280828437600081840152601f19601f8201169050808301925050505050505084848080601f016020809104026020016040519081016040528093929190818152602001838380828437600081840152601f19601f820116905080830192505050505050506000612296565b5050505050565b600260009054906101000a900473ffffffffffffffffffffffffffffffffffffffff1681565b6000611ad785858580806020026020016040519081016040528093929190818152602001838360200280828437600081840152601f19601f82011690508083019250505050505050600085612341565b9050949350505050565b60008073ffffffffffffffffffffffffffffffffffffffff168373ffffffffffffffffffffffffffffffffffffffff161415611b85576040517f08c379a000000000000000000000000000000000000000000000000000000000815260040180806020018281038252601b8152602001807f57463a20677561726469616e2063616e6e6f74206265206e756c6c000000000081525060200191505060405180910390fd5b611bd286868680806020026020016040519081016040528093929190818152602001838360200280828437600081840152601f19601f820116905080830192505050505050508585612341565b905095945050505050565b60011515600160003373ffffffffffffffffffffffffffffffffffffffff1673ffffffffffffffffffffffffffffffffffffffff16815260200190815260200160002060009054906101000a900460ff16151514611ca3576040517f08c379a00000000000000000000000000000000000000000000000000000000081526004018080602001828103825260128152602001807f4d3a204d757374206265206d616e61676572000000000000000000000000000081525060200191505060405180910390fd5b600073ffffffffffffffffffffffffffffffffffffffff16600560009054906101000a900473ffffffffffffffffffffffffffffffffffffffff1673ffffffffffffffffffffffffffffffffffffffff161415611d4b576040517f08c379a00000000000000000000000000000000000000000000000000000000081526004018080602001828103825260238152602001806135126023913960400191505060405180910390fd5b600073ffffffffffffffffffffffffffffffffffffffff168273ffffffffffffffffffffffffffffffffffffffff161415611dee576040517f08c379a000000000000000000000000000000000000000000000000000000000815260040180806020018281038252601b8152602001807f57463a20677561726469616e2063616e6e6f74206265206e756c6c000000000081525060200191505060405180910390fd5b611e8087878780806020026020016040519081016040528093929190818152602001838360200280828437600081840152601f19601f8201169050808301925050505050505086868080601f016020809104026020016040519081016040528093929190818152602001838380828437600081840152601f19601f820116905080830192505050505050508585612179565b50505050505050565b60011515600160003373ffffffffffffffffffffffffffffffffffffffff1673ffffffffffffffffffffffffffffffffffffffff16815260200190815260200160002060009054906101000a900460ff16151514611f4f576040517f08c379a00000000000000000000000000000000000000000000000000000000081526004018080602001828103825260128152602001807f4d3a204d757374206265206d616e61676572000000000000000000000000000081525060200191505060405180910390fd5b600073ffffffffffffffffffffffffffffffffffffffff16600560009054906101000a900473ffffffffffffffffffffffffffffffffffffffff1673ffffffffffffffffffffffffffffffffffffffff161415611ff7576040517f08c379a00000000000000000000000000000000000000000000000000000000081526004018080602001828103825260238152602001806135126023913960400191505060405180910390fd5b600073ffffffffffffffffffffffffffffffffffffffff168173ffffffffffffffffffffffffffffffffffffffff16141561209a576040517f08c379a000000000000000000000000000000000000000000000000000000000815260040180806020018281038252601b8152602001807f57463a20677561726469616e2063616e6e6f74206265206e756c6c000000000081525060200191505060405180910390fd5b61212b86868680806020026020016040519081016040528093929190818152602001838360200280828437600081840152601f19601f8201169050808301925050505050505085858080601f016020809104026020016040519081016040528093929190818152602001838380828437600081840152601f19601f8201169050808301925050505050505084612296565b505050505050565b600560009054906101000a900473ffffffffffffffffffffffffffffffffffffffff1681565b60016020528060005260406000206000915054906101000a900460ff1681565b6121848585856124f6565b6000612192828787866127ba565b90506060604051806020016121a690613300565b6020820181038252601f19601f82011660405250600360009054906101000a900473ffffffffffffffffffffffffffffffffffffffff1673ffffffffffffffffffffffffffffffffffffffff166040516020018083805190602001908083835b602083106122295780518252602082019150602081019050602083039250612206565b6001836020036101000a0380198251168184511680821785525050505050509050018281526020019250505060405160208183030381529060405290506000828251602084016000f59050803b61227f573d6000fd5b61228c818989898961295f565b5050505050505050565b6122a18484846124f6565b6000600360009054906101000a900473ffffffffffffffffffffffffffffffffffffffff166040516122d290613300565b808273ffffffffffffffffffffffffffffffffffffffff1673ffffffffffffffffffffffffffffffffffffffff168152602001915050604051809103906000f080158015612324573d6000803e3d6000fd5b5090506000819050612339818787878761295f565b505050505050565b600080612350838787876127ba565b905060606040518060200161236490613300565b6020820181038252601f19601f82011660405250600360009054906101000a900473ffffffffffffffffffffffffffffffffffffffff1673ffffffffffffffffffffffffffffffffffffffff166040516020018083805190602001908083835b602083106123e757805182526020820191506020810190506020830392506123c4565b6001836020036101000a038019825116818451168082178552505050505050905001828152602001925050506040516020818303038152906040529050600060ff60f81b3084848051906020012060405160200180857effffffffffffffffffffffffffffffffffffffffffffffffffffffffffffff19167effffffffffffffffffffffffffffffffffffffffffffffffffffffffffffff191681526001018473ffffffffffffffffffffffffffffffffffffffff1673ffffffffffffffffffffffffffffffffffffffff1660601b81526014018381526020018281526020019450505050506040516020818303038152906040528051906020012090508060001c9350505050949350505050565b600073ffffffffffffffffffffffffffffffffffffffff168373ffffffffffffffffffffffffffffffffffffffff161415612599576040517f08c379a00000000000000000000000000000000000000000000000000000000081526004018080602001828103825260188152602001807f57463a206f776e65722063616e6e6f74206265206e756c6c000000000000000081525060200191505060405180910390fd5b60008251116125f3576040517f08c379a00000000000000000000000000000000000000000000000000000000081526004018080602001828103825260298152602001806134e96029913960400191505060405180910390fd5b600260009054906101000a900473ffffffffffffffffffffffffffffffffffffffff1673ffffffffffffffffffffffffffffffffffffffff16636bb18a54836040518263ffffffff1660e01b81526004018080602001828103825283818151815260200191508051906020019060200280838360005b83811015612684578082015181840152602081019050612669565b505050509050019250505060206040518083038186803b1580156126a757600080fd5b505afa1580156126bb573d6000803e3d6000fd5b505050506040513d60208110156126d157600080fd5b8101908080519060200190929190505050612737576040517f08c379a000000000000000000000000000000000000000000000000000000000815260040180806020018281038252602a8152602001806134bf602a913960400191505060405180910390fd5b60608190506000815114156127b4576040517f08c379a000000000000000000000000000000000000000000000000000000000815260040180806020018281038252601d8152602001807f57463a20454e53206c61626c65206d75737420626520646566696e656400000081525060200191505060405180910390fd5b50505050565b60008073ffffffffffffffffffffffffffffffffffffffff168273ffffffffffffffffffffffffffffffffffffffff16141561288a57848484604051602001808481526020018373ffffffffffffffffffffffffffffffffffffffff1673ffffffffffffffffffffffffffffffffffffffff1660601b8152601401828051906020019060200280838360005b83811015612861578082015181840152602081019050612846565b505050509050019350505050604051602081830303815290604052805190602001209050612957565b84848484604051602001808581526020018473ffffffffffffffffffffffffffffffffffffffff1673ffffffffffffffffffffffffffffffffffffffff1660601b8152601401838051906020019060200280838360005b838110156128fc5780820151818401526020810190506128e1565b505050509050018273ffffffffffffffffffffffffffffffffffffffff1673ffffffffffffffffffffffffffffffffffffffff1660601b81526014019450505050506040516020818303038152906040528051906020012090505b949350505050565b606060018451016040519080825280602002602001820160405280156129945781602001602082028038833980820191505090505b50905030816000815181106129a557fe5b602002602001019073ffffffffffffffffffffffffffffffffffffffff16908173ffffffffffffffffffffffffffffffffffffffff168152505060008090505b8451811015612a58578481815181106129fa57fe5b6020026020010151826001830181518110612a1157fe5b602002602001019073ffffffffffffffffffffffffffffffffffffffff16908173ffffffffffffffffffffffffffffffffffffffff168152505080806001019150506129e5565b508573ffffffffffffffffffffffffffffffffffffffff16633c5a3cea86836040518363ffffffff1660e01b8152600401808373ffffffffffffffffffffffffffffffffffffffff1673ffffffffffffffffffffffffffffffffffffffff16815260200180602001828103825283818151815260200191508051906020019060200280838360005b83811015612afb578082015181840152602081019050612ae0565b505050509050019350505050600060405180830381600087803b158015612b2157600080fd5b505af1158015612b35573d6000803e3d6000fd5b50505050600073ffffffffffffffffffffffffffffffffffffffff168273ffffffffffffffffffffffffffffffffffffffff1614612c5b57600560009054906101000a900473ffffffffffffffffffffffffffffffffffffffff1673ffffffffffffffffffffffffffffffffffffffff1663c684521087846040518363ffffffff1660e01b8152600401808373ffffffffffffffffffffffffffffffffffffffff1673ffffffffffffffffffffffffffffffffffffffff1681526020018273ffffffffffffffffffffffffffffffffffffffff1673ffffffffffffffffffffffffffffffffffffffff16815260200192505050600060405180830381600087803b158015612c4257600080fd5b505af1158015612c56573d6000803e3d6000fd5b505050505b612c658684612d82565b8573ffffffffffffffffffffffffffffffffffffffff16631f17732d3060006040518363ffffffff1660e01b8152600401808373ffffffffffffffffffffffffffffffffffffffff1673ffffffffffffffffffffffffffffffffffffffff1681526020018215151515815260200192505050600060405180830381600087803b158015612cf157600080fd5b505af1158015612d05573d6000803e3d6000fd5b505050508173ffffffffffffffffffffffffffffffffffffffff168573ffffffffffffffffffffffffffffffffffffffff168773ffffffffffffffffffffffffffffffffffffffff167fca0b7dde26052d34217ef1a0cee48085a07ca32da0a918609937a307d496bbf560405160405180910390a4505050505050565b6000600460009054906101000a900473ffffffffffffffffffffffffffffffffffffffff1673ffffffffffffffffffffffffffffffffffffffff1663adce1c5f6040518163ffffffff1660e01b815260040160206040518083038186803b158015612dec57600080fd5b505afa158015612e00573d6000803e3d6000fd5b505050506040513d6020811015612e1657600080fd5b810190808051906020019092919050505090506060600460009054906101000a900473ffffffffffffffffffffffffffffffffffffffff1682604051602401808373ffffffffffffffffffffffffffffffffffffffff1673ffffffffffffffffffffffffffffffffffffffff1681526020018273ffffffffffffffffffffffffffffffffffffffff1673ffffffffffffffffffffffffffffffffffffffff168152602001925050506040516020818303038152906040527f0f5a5466000000000000000000000000000000000000000000000000000000007bffffffffffffffffffffffffffffffffffffffffffffffffffffffff19166020820180517bffffffffffffffffffffffffffffffffffffffffffffffffffffffff838183161783525050505090506000600460009054906101000a900473ffffffffffffffffffffffffffffffffffffffff1673ffffffffffffffffffffffffffffffffffffffff166309d734426040518163ffffffff1660e01b815260040160206040518083038186803b158015612fa757600080fd5b505afa158015612fbb573d6000803e3d6000fd5b505050506040513d6020811015612fd157600080fd5b810190808051906020019092919050505090508473ffffffffffffffffffffffffffffffffffffffff16638f6f0332826000856040518463ffffffff1660e01b8152600401808473ffffffffffffffffffffffffffffffffffffffff1673ffffffffffffffffffffffffffffffffffffffff16815260200183815260200180602001828103825283818151815260200191508051906020019080838360005b8381101561308b578082015181840152602081019050613070565b50505050905090810190601f1680156130b85780820380516001836020036101000a031916815260200191505b50945050505050600060405180830381600087803b1580156130d957600080fd5b505af11580156130ed573d6000803e3d6000fd5b505050506040513d6000823e3d601f19601f82011682018060405250602081101561311757600080fd5b810190808051604051939291908464010000000082111561313757600080fd5b8382019150602082018581111561314d57600080fd5b825186600182028301116401000000008211171561316a57600080fd5b8083526020830192505050908051906020019080838360005b8381101561319e578082015181840152602081019050613183565b50505050905090810190601f1680156131cb5780820380516001836020036101000a031916815260200191505b5060405250505050600460009054906101000a900473ffffffffffffffffffffffffffffffffffffffff1673ffffffffffffffffffffffffffffffffffffffff16631e59c52985876040518363ffffffff1660e01b815260040180806020018373ffffffffffffffffffffffffffffffffffffffff1673ffffffffffffffffffffffffffffffffffffffff168152602001828103825284818151815260200191508051906020019080838360005b83811015613294578082015181840152602081019050613279565b50505050905090810190601f1680156132c15780820380516001836020036101000a031916815260200191505b509350505050600060405180830381600087803b1580156132e157600080fd5b505af11580156132f5573d6000803e3d6000fd5b505050505050505050565b61018c8061330e8339019056fe608060405234801561001057600080fd5b5060405161018c38038061018c8339818101604052602081101561003357600080fd5b8101908080519060200190929190505050806000806101000a81548173ffffffffffffffffffffffffffffffffffffffff021916908373ffffffffffffffffffffffffffffffffffffffff1602179055505060f9806100936000396000f3fe608060405260008036905014801560165750600034115b15609a573373ffffffffffffffffffffffffffffffffffffffff16347f606834f57405380c4fb88d1f4850326ad3885f014bab3b568dfbf7a041eef73860003660405180806020018281038252848482818152602001925080828437600081840152601f19601f820116905080830192505050935050505060405180910390a360c2565b6000543660008037600080366000845af43d6000803e806000811460bd573d6000f35b3d6000fd5b00fea265627a7a72315820d5e3b40983af854eea2359cb9277a66526d0f99a76988d375723f614d741537364736f6c634300051000324d3a20546172676574206d75737420626520616e206578697374696e67206d616e6167657257463a206f6e65206f72206d6f7265206d6f64756c657320617265206e6f74207265676973746572656457463a2063616e6e6f742061737369676e2077697468206c657373207468616e2031206d6f64756c65477561726469616e53746f726167652061646472657373206e6f7420646566696e6564a265627a7a723158206383359724ce4101e1d9da0f72568d114c451627b770a6c16e75af1f6d58463764736f6c63430005100032",
  "source": "// Copyright (C) 2018  Argent Labs Ltd. <https://argent.xyz>\n\n// This program is free software: you can redistribute it and/or modify\n// it under the terms of the GNU General Public License as published by\n// the Free Software Foundation, either version 3 of the License, or\n// (at your option) any later version.\n\n// This program is distributed in the hope that it will be useful,\n// but WITHOUT ANY WARRANTY; without even the implied warranty of\n// MERCHANTABILITY or FITNESS FOR A PARTICULAR PURPOSE.  See the\n// GNU General Public License for more details.\n\n// You should have received a copy of the GNU General Public License\n// along with this program.  If not, see <http://www.gnu.org/licenses/>.\n\npragma solidity ^0.5.4;\nimport \"./Proxy.sol\";\nimport \"./BaseWallet.sol\";\nimport \"../base/Owned.sol\";\nimport \"../base/Managed.sol\";\nimport \"../ens/IENSManager.sol\";\nimport \"../upgrade/ModuleRegistry.sol\";\nimport \"../storage/IGuardianStorage.sol\";\n\n/**\n * @title WalletFactory\n * @dev The WalletFactory contract creates and assigns wallets to accounts.\n * @author Julien Niset - <julien@argent.xyz>\n */\ncontract WalletFactory is Owned, Managed {\n\n    // The address of the module dregistry\n    address public moduleRegistry;\n    // The address of the base wallet implementation\n    address public walletImplementation;\n    // The address of the ENS manager\n    address public ensManager;\n    // The address of the GuardianStorage\n    address public guardianStorage;\n\n    // *************** Events *************************** //\n\n    event ModuleRegistryChanged(address addr);\n    event ENSManagerChanged(address addr);\n    event GuardianStorageChanged(address addr);\n    event WalletCreated(address indexed wallet, address indexed owner, address indexed guardian);\n\n    // *************** Modifiers *************************** //\n\n    /**\n     * @dev Throws if the guardian storage address is not set.\n     */\n    modifier guardianStorageDefined {\n        require(guardianStorage != address(0), \"GuardianStorage address not defined\");\n        _;\n    }\n\n    // *************** Constructor ********************** //\n\n    /**\n     * @dev Default constructor.\n     */\n    constructor(address _moduleRegistry, address _walletImplementation, address _ensManager) public {\n        moduleRegistry = _moduleRegistry;\n        walletImplementation = _walletImplementation;\n        ensManager = _ensManager;\n    }\n\n    // *************** External Functions ********************* //\n\n    /**\n     * @dev Lets the manager create a wallet for an owner account.\n     * The wallet is initialised with a list of modules and an ENS..\n     * The wallet is created using the CREATE opcode.\n     * @param _owner The account address.\n     * @param _modules The list of modules.\n     * @param _label ENS label of the new wallet, e.g. franck.\n     */\n    function createWallet(\n        address _owner,\n        address[] calldata _modules,\n        string calldata _label\n    )\n        external\n        onlyManager\n    {\n        _createWallet(_owner, _modules, _label, address(0));\n    }\n\n    /**\n     * @dev Lets the manager create a wallet for an owner account.\n     * The wallet is initialised with a list of modules, a first guardian, and an ENS..\n     * The wallet is created using the CREATE opcode.\n     * @param _owner The account address.\n     * @param _modules The list of modules.\n     * @param _label ENS label of the new wallet, e.g. franck.\n     * @param _guardian The guardian address.\n     */\n    function createWalletWithGuardian(\n        address _owner,\n        address[] calldata _modules,\n        string calldata _label,\n        address _guardian\n    )\n        external\n        onlyManager\n        guardianStorageDefined\n    {\n        require(_guardian != (address(0)), \"WF: guardian cannot be null\");\n        _createWallet(_owner, _modules, _label, _guardian);\n    }\n\n    /**\n     * @dev Lets the manager create a wallet for an owner account at a specific address.\n     * The wallet is initialised with a list of modules and an ENS.\n     * The wallet is created using the CREATE2 opcode.\n     * @param _owner The account address.\n     * @param _modules The list of modules.\n     * @param _label ENS label of the new wallet, e.g. franck.\n     * @param _salt The salt.\n     */\n    function createCounterfactualWallet(\n        address _owner,\n        address[] calldata _modules,\n        string calldata _label,\n        bytes32 _salt\n    )\n        external\n        onlyManager\n    {\n        _createCounterfactualWallet(_owner, _modules, _label, address(0), _salt);\n    }\n\n    /**\n     * @dev Lets the manager create a wallet for an owner account at a specific address.\n     * The wallet is initialised with a list of modules, a first guardian, and an ENS.\n     * The wallet is created using the CREATE2 opcode.\n     * @param _owner The account address.\n     * @param _modules The list of modules.\n     * @param _label ENS label of the new wallet, e.g. franck.\n     * @param _guardian The guardian address.\n     * @param _salt The salt.\n     */\n    function createCounterfactualWalletWithGuardian(\n        address _owner,\n        address[] calldata _modules,\n        string calldata _label,\n        address _guardian,\n        bytes32 _salt\n    )\n        external\n        onlyManager\n        guardianStorageDefined\n    {\n        require(_guardian != (address(0)), \"WF: guardian cannot be null\");\n        _createCounterfactualWallet(_owner, _modules, _label, _guardian, _salt);\n    }\n\n    /**\n     * @dev Gets the address of a counterfactual wallet.\n     * @param _owner The account address.\n     * @param _modules The list of modules.\n     * @param _salt The salt.\n     * @return the address that the wallet will have when created using CREATE2 and the same input parameters.\n     */\n    function getAddressForCounterfactualWallet(\n        address _owner,\n        address[] calldata _modules,\n        bytes32 _salt\n    )\n        external\n        view\n        returns (address _wallet)\n    {\n        _wallet = _getAddressForCounterfactualWallet(_owner, _modules, address(0), _salt);\n    }\n\n    /**\n     * @dev Gets the address of a counterfactual wallet with a first default guardian.\n     * @param _owner The account address.\n     * @param _modules The list of modules.\n     * @param _guardian The guardian address.\n     * @param _salt The salt.\n     * @return the address that the wallet will have when created using CREATE2 and the same input parameters.\n     */\n    function getAddressForCounterfactualWalletWithGuardian(\n        address _owner,\n        address[] calldata _modules,\n        address _guardian,\n        bytes32 _salt\n    )\n        external\n        view\n        returns (address _wallet)\n    {\n        require(_guardian != (address(0)), \"WF: guardian cannot be null\");\n        _wallet = _getAddressForCounterfactualWallet(_owner, _modules, _guardian, _salt);\n    }\n\n    /**\n     * @dev Lets the owner change the address of the module registry contract.\n     * @param _moduleRegistry The address of the module registry contract.\n     */\n    function changeModuleRegistry(address _moduleRegistry) external onlyOwner {\n        require(_moduleRegistry != address(0), \"WF: address cannot be null\");\n        moduleRegistry = _moduleRegistry;\n        emit ModuleRegistryChanged(_moduleRegistry);\n    }\n\n    /**\n     * @dev Lets the owner change the address of the ENS manager contract.\n     * @param _ensManager The address of the ENS manager contract.\n     */\n    function changeENSManager(address _ensManager) external onlyOwner {\n        require(_ensManager != address(0), \"WF: address cannot be null\");\n        ensManager = _ensManager;\n        emit ENSManagerChanged(_ensManager);\n    }\n\n    /**\n     * @dev Lets the owner change the address of the GuardianStorage contract.\n     * @param _guardianStorage The address of the GuardianStorage contract.\n     */\n    function changeGuardianStorage(address _guardianStorage) external onlyOwner {\n        require(_guardianStorage != address(0), \"WF: address cannot be null\");\n        guardianStorage = _guardianStorage;\n        emit GuardianStorageChanged(_guardianStorage);\n    }\n\n    /**\n     * @dev Inits the module for a wallet by logging an event.\n     * The method can only be called by the wallet itself.\n     * @param _wallet The wallet.\n     */\n    function init(BaseWallet _wallet) external pure { // solium-disable-line no-empty-blocks\n        //do nothing\n    }\n\n    // *************** Internal Functions ********************* //\n\n    /**\n     * @dev Helper method to create a wallet for an owner account.\n     * The wallet is initialised with a list of modules, a first guardian, and an ENS.\n     * The wallet is created using the CREATE opcode.\n     * @param _owner The account address.\n     * @param _modules The list of modules.\n     * @param _label ENS label of the new wallet, e.g. franck.\n     * @param _guardian (Optional) The guardian address.\n     */\n    function _createWallet(address _owner, address[] memory _modules, string memory _label, address _guardian) internal {\n        _validateInputs(_owner, _modules, _label);\n        Proxy proxy = new Proxy(walletImplementation);\n        address payable wallet = address(proxy);\n        _configureWallet(BaseWallet(wallet), _owner, _modules, _label, _guardian);\n    }\n\n    /**\n     * @dev Helper method to create a wallet for an owner account at a specific address.\n     * The wallet is initialised with a list of modules, a first guardian, and an ENS.\n     * The wallet is created using the CREATE2 opcode.\n     * @param _owner The account address.\n     * @param _modules The list of modules.\n     * @param _label ENS label of the new wallet, e.g. franck.\n     * @param _guardian The guardian address.\n     * @param _salt The salt.\n     */\n    function _createCounterfactualWallet(\n        address _owner,\n        address[] memory _modules,\n        string memory _label,\n        address _guardian,\n        bytes32 _salt\n    )\n        internal\n    {\n        _validateInputs(_owner, _modules, _label);\n        bytes32 newsalt = _newSalt(_salt, _owner, _modules, _guardian);\n        bytes memory code = abi.encodePacked(type(Proxy).creationCode, uint256(walletImplementation));\n        address payable wallet;\n        // solium-disable-next-line security/no-inline-assembly\n        assembly {\n            wallet := create2(0, add(code, 0x20), mload(code), newsalt)\n            if iszero(extcodesize(wallet)) { revert(0, returndatasize) }\n        }\n        _configureWallet(BaseWallet(wallet), _owner, _modules, _label, _guardian);\n    }\n\n    /**\n     * @dev Helper method to configure a wallet for a set of input parameters.\n     * @param _wallet The target wallet\n     * @param _owner The account address.\n     * @param _modules The list of modules.\n     * @param _label ENS label of the new wallet, e.g. franck.\n     * @param _guardian (Optional) The guardian address.\n     */\n    function _configureWallet(\n        BaseWallet _wallet,\n        address _owner,\n        address[] memory _modules,\n        string memory _label,\n        address _guardian\n    )\n        internal\n    {\n        // add the factory to modules so it can claim the reverse ENS or add a guardian\n        address[] memory extendedModules = new address[](_modules.length + 1);\n        extendedModules[0] = address(this);\n        for (uint i = 0; i < _modules.length; i++) {\n            extendedModules[i + 1] = _modules[i];\n        }\n        // initialise the wallet with the owner and the extended modules\n        _wallet.init(_owner, extendedModules);\n        // add guardian if needed\n        if (_guardian != address(0)) {\n            IGuardianStorage(guardianStorage).addGuardian(_wallet, _guardian);\n        }\n        // register ENS\n        _registerWalletENS(address(_wallet), _label);\n        // remove the factory from the authorised modules\n        _wallet.authoriseModule(address(this), false);\n        // emit event\n        emit WalletCreated(address(_wallet), _owner, _guardian);\n    }\n\n    /**\n     * @dev Gets the address of a counterfactual wallet.\n     * @param _owner The account address.\n     * @param _modules The list of modules.\n     * @param _salt The salt.\n     * @param _guardian (Optional) The guardian address.\n     * @return the address that the wallet will have when created using CREATE2 and the same input parameters.\n     */\n    function _getAddressForCounterfactualWallet(\n        address _owner,\n        address[] memory _modules,\n        address _guardian,\n        bytes32 _salt\n    )\n        internal\n        view\n        returns (address _wallet)\n    {\n        bytes32 newsalt = _newSalt(_salt, _owner, _modules, _guardian);\n        bytes memory code = abi.encodePacked(type(Proxy).creationCode, uint256(walletImplementation));\n        bytes32 hash = keccak256(abi.encodePacked(bytes1(0xff), address(this), newsalt, keccak256(code)));\n        _wallet = address(uint160(uint256(hash)));\n    }\n\n    /**\n     * @dev Generates a new salt based on a provided salt, an owner, a list of modules and an optional guardian.\n     * @param _salt The slat provided.\n     * @param _owner The owner address.\n     * @param _modules The list of modules.\n     * @param _guardian The guardian address.\n     */\n    function _newSalt(bytes32 _salt, address _owner, address[] memory _modules, address _guardian) internal pure returns (bytes32) {\n        if (_guardian == address(0)) {\n            return keccak256(abi.encodePacked(_salt, _owner, _modules));\n        } else {\n            return keccak256(abi.encodePacked(_salt, _owner, _modules, _guardian));\n        }\n    }\n\n    /**\n     * @dev Throws if the owner and the modules are not valid.\n     * @param _owner The owner address.\n     * @param _modules The list of modules.\n     */\n    function _validateInputs(address _owner, address[] memory _modules, string memory _label) internal view {\n        require(_owner != address(0), \"WF: owner cannot be null\");\n        require(_modules.length > 0, \"WF: cannot assign with less than 1 module\");\n        require(ModuleRegistry(moduleRegistry).isRegisteredModule(_modules), \"WF: one or more modules are not registered\");\n        bytes memory labelBytes = bytes(_label);\n        require(labelBytes.length != 0, \"WF: ENS lable must be defined\");\n    }\n\n    /**\n     * @dev Register an ENS subname to a wallet.\n     * @param _wallet The wallet address.\n     * @param _label ENS label of the new wallet (e.g. franck).\n     */\n    function _registerWalletENS(address payable _wallet, string memory _label) internal {\n        // claim reverse\n        address ensResolver = IENSManager(ensManager).ensResolver();\n        bytes memory methodData = abi.encodeWithSignature(\"claimWithResolver(address,address)\", ensManager, ensResolver);\n        address ensReverseRegistrar = IENSManager(ensManager).getENSReverseRegistrar();\n        BaseWallet(_wallet).invoke(ensReverseRegistrar, 0, methodData);\n        // register with ENS manager\n        IENSManager(ensManager).register(_label, _wallet);\n    }\n}\n",
  "sourcePath": "/Users/name/dev/argent-contracts-release-1.5.0/contracts/wallet/WalletFactory.sol",
  "compiler": {
    "name": "solc",
    "version": "0.5.16+commit.9c3226ce.Emscripten.clang"
  },
  "schemaVersion": "3.0.23",
  "updatedAt": "2020-03-31T19:53:31.680Z",
  "devdoc": {
    "author": "Julien Niset - <julien@argent.xyz>",
    "details": "The WalletFactory contract creates and assigns wallets to accounts.",
    "methods": {
      "addManager(address)": {
        "details": "Adds a manager.",
        "params": {
          "_manager": "The address of the manager."
        }
      },
      "changeENSManager(address)": {
        "details": "Lets the owner change the address of the ENS manager contract.",
        "params": {
          "_ensManager": "The address of the ENS manager contract."
        }
      },
      "changeGuardianStorage(address)": {
        "details": "Lets the owner change the address of the GuardianStorage contract.",
        "params": {
          "_guardianStorage": "The address of the GuardianStorage contract."
        }
      },
      "changeModuleRegistry(address)": {
        "details": "Lets the owner change the address of the module registry contract.",
        "params": {
          "_moduleRegistry": "The address of the module registry contract."
        }
      },
      "changeOwner(address)": {
        "details": "Lets the owner transfer ownership of the contract to a new owner.",
        "params": {
          "_newOwner": "The new owner."
        }
      },
      "constructor": {
        "details": "Default constructor."
      },
      "createCounterfactualWallet(address,address[],string,bytes32)": {
        "details": "Lets the manager create a wallet for an owner account at a specific address. The wallet is initialised with a list of modules and an ENS. The wallet is created using the CREATE2 opcode.",
        "params": {
          "_label": "ENS label of the new wallet, e.g. franck.",
          "_modules": "The list of modules.",
          "_owner": "The account address.",
          "_salt": "The salt."
        }
      },
      "createCounterfactualWalletWithGuardian(address,address[],string,address,bytes32)": {
        "details": "Lets the manager create a wallet for an owner account at a specific address. The wallet is initialised with a list of modules, a first guardian, and an ENS. The wallet is created using the CREATE2 opcode.",
        "params": {
          "_guardian": "The guardian address.",
          "_label": "ENS label of the new wallet, e.g. franck.",
          "_modules": "The list of modules.",
          "_owner": "The account address.",
          "_salt": "The salt."
        }
      },
      "createWallet(address,address[],string)": {
        "details": "Lets the manager create a wallet for an owner account. The wallet is initialised with a list of modules and an ENS.. The wallet is created using the CREATE opcode.",
        "params": {
          "_label": "ENS label of the new wallet, e.g. franck.",
          "_modules": "The list of modules.",
          "_owner": "The account address."
        }
      },
      "createWalletWithGuardian(address,address[],string,address)": {
        "details": "Lets the manager create a wallet for an owner account. The wallet is initialised with a list of modules, a first guardian, and an ENS.. The wallet is created using the CREATE opcode.",
        "params": {
          "_guardian": "The guardian address.",
          "_label": "ENS label of the new wallet, e.g. franck.",
          "_modules": "The list of modules.",
          "_owner": "The account address."
        }
      },
      "getAddressForCounterfactualWallet(address,address[],bytes32)": {
        "details": "Gets the address of a counterfactual wallet.",
        "params": {
          "_modules": "The list of modules.",
          "_owner": "The account address.",
          "_salt": "The salt."
        },
        "return": "the address that the wallet will have when created using CREATE2 and the same input parameters."
      },
      "getAddressForCounterfactualWalletWithGuardian(address,address[],address,bytes32)": {
        "details": "Gets the address of a counterfactual wallet with a first default guardian.",
        "params": {
          "_guardian": "The guardian address.",
          "_modules": "The list of modules.",
          "_owner": "The account address.",
          "_salt": "The salt."
        },
        "return": "the address that the wallet will have when created using CREATE2 and the same input parameters."
      },
      "init(address)": {
        "details": "Inits the module for a wallet by logging an event. The method can only be called by the wallet itself.",
        "params": {
          "_wallet": "The wallet."
        }
      },
      "revokeManager(address)": {
        "details": "Revokes a manager.",
        "params": {
          "_manager": "The address of the manager."
        }
      }
    },
    "title": "WalletFactory"
  },
  "userdoc": {
    "methods": {}
  }
}