{
  "contractName": "WhitePaperInterestRateModel",
  "abi": [
    {
      "inputs": [
        {
          "internalType": "uint256",
          "name": "baseRate_",
          "type": "uint256"
        },
        {
          "internalType": "uint256",
          "name": "multiplier_",
          "type": "uint256"
        }
      ],
      "payable": false,
      "stateMutability": "nonpayable",
      "type": "constructor"
    },
    {
      "constant": true,
      "inputs": [],
      "name": "baseRate",
      "outputs": [
        {
          "internalType": "uint256",
          "name": "",
          "type": "uint256"
        }
      ],
      "payable": false,
      "stateMutability": "view",
      "type": "function"
    },
    {
      "constant": true,
      "inputs": [],
      "name": "blocksPerYear",
      "outputs": [
        {
          "internalType": "uint256",
          "name": "",
          "type": "uint256"
        }
      ],
      "payable": false,
      "stateMutability": "view",
      "type": "function"
    },
    {
      "constant": true,
      "inputs": [],
      "name": "isInterestRateModel",
      "outputs": [
        {
          "internalType": "bool",
          "name": "",
          "type": "bool"
        }
      ],
      "payable": false,
      "stateMutability": "view",
      "type": "function"
    },
    {
      "constant": true,
      "inputs": [],
      "name": "multiplier",
      "outputs": [
        {
          "internalType": "uint256",
          "name": "",
          "type": "uint256"
        }
      ],
      "payable": false,
      "stateMutability": "view",
      "type": "function"
    },
    {
      "constant": true,
      "inputs": [
        {
          "internalType": "uint256",
          "name": "cash",
          "type": "uint256"
        },
        {
          "internalType": "uint256",
          "name": "borrows",
          "type": "uint256"
        },
        {
          "internalType": "uint256",
          "name": "_reserves",
          "type": "uint256"
        }
      ],
      "name": "getBorrowRate",
      "outputs": [
        {
          "internalType": "uint256",
          "name": "",
          "type": "uint256"
        },
        {
          "internalType": "uint256",
          "name": "",
          "type": "uint256"
        }
      ],
      "payable": false,
      "stateMutability": "view",
      "type": "function"
    }
  ],
  "bytecode": "0x608060405234801561001057600080fd5b5060405161083e38038061083e8339818101604052604081101561003357600080fd5b810190808051906020019092919080519060200190929190505050816001819055508060008190555050506107d18061006d6000396000f3fe608060405234801561001057600080fd5b50600436106100575760003560e01c806315f240531461005c5780631b3ed722146100b95780631f68f20a146100d75780632191f92a146100f5578063a385fb9614610117575b600080fd5b61009c6004803603606081101561007257600080fd5b81019080803590602001909291908035906020019092919080359060200190929190505050610135565b604051808381526020018281526020019250505060405180910390f35b6100c16101f4565b6040518082815260200191505060405180910390f35b6100df6101fa565b6040518082815260200191505060405180910390f35b6100fd610200565b604051808215151515815260200191505060405180910390f35b61011f610205565b6040518082815260200191505060405180910390f35b6000806000610142610789565b61014a610789565b610154888861020c565b9250925092506000600481111561016757fe5b83600481111561017357fe5b146101955782600481111561018457fe5b6000809050945094505050506101ec565b600061019f610789565b6101ac83622014806103d2565b91509150600060038111156101bd57fe5b8260038111156101c957fe5b146101d057fe5b600060048111156101dd57fe5b81600001519650965050505050505b935093915050565b60005481565b60015481565b600181565b6220148081565b6000610216610789565b61021e610789565b6000610228610789565b6102328787610450565b915091506000600481111561024357fe5b82600481111561024f57fe5b146102885781604051806020016040528060008152506040518060200160405280600081525081915080905094509450945050506103cb565b6000610292610789565b61029e8360005461053b565b91509150600060038111156102af57fe5b8260038111156102bb57fe5b146102f75760036040518060200160405280600081525060405180602001604052806000815250819150809050965096509650505050506103cb565b6000610301610789565b61031383670de0b6b3a76400006103d2565b915091506000600381111561032457fe5b82600381111561033057fe5b1461033757fe5b6000610341610789565b61035b8360405180602001604052806001548152506105b9565b915091506000600381111561036c57fe5b82600381111561037857fe5b146103b857600460405180602001604052806000815250604051806020016040528060008152508191508090509a509a509a5050505050505050506103cb565b600087829a509a509a5050505050505050505b9250925092565b60006103dc610789565b6000806103ed8660000151866105fc565b91509150600060038111156103fe57fe5b82600381111561040a57fe5b1461042e578160405180602001604052806000815250809050935093505050610449565b60006040518060200160405280838152508090509350935050505b9250929050565b600061045a610789565b60008314156104815760006040518060200160405280600081525080905091509150610534565b60008061048e8686610630565b915091506000600381111561049f57fe5b8260038111156104ab57fe5b146104d057600160405180602001604052806000815250809050935093505050610534565b60006104da610789565b6104e48784610662565b91509150600060038111156104f557fe5b82600381111561050157fe5b14610528576002604051806020016040528060008152508090509550955050505050610534565b60008195509550505050505b9250929050565b6000610545610789565b600080610556866000015186610736565b915091506000600381111561056757fe5b82600381111561057357fe5b146105975781604051806020016040528060008152508090509350935050506105b2565b60006040518060200160405280838152508090509350935050505b9250929050565b60006105c3610789565b6000806105d886600001518660000151610630565b91509150816040518060200160405280838152508090509350935050509250929050565b6000806000831415610618576001600080905091509150610629565b600083858161062357fe5b04915091505b9250929050565b6000806000838501905084811061064e57600081925092505061065b565b6002600080905092509250505b9250929050565b600061066c610789565b60008061068186670de0b6b3a7640000610736565b915091506000600381111561069257fe5b82600381111561069e57fe5b146106c257816040518060200160405280600081525080905093509350505061072f565b6000806106cf83886105fc565b91509150600060038111156106e057fe5b8260038111156106ec57fe5b14610712578160405180602001604052806000815250809050955095505050505061072f565b600060405180602001604052808381525080905095509550505050505b9250929050565b60008060008414156107515760008080905091509150610782565b600083850290508385828161076257fe5b041461077957600260008090509250925050610782565b60008192509250505b9250929050565b604051806020016040528060008152509056fea265627a7a72315820bbbdb46c9c7b1918d0658ea899c17ad5ddf9b99b4629105bf67171424834f65864736f6c63430005100032",
  "source": "pragma solidity ^0.5.4;\n\nimport \"./Exponential.sol\";\nimport \"./InterestRateModel.sol\";\n\n/**\n  * @title The Compound Standard Interest Rate Model with pluggable constants\n  * @author Compound\n  * @notice See Section 2.4 of the Compound Whitepaper\n  */\ncontract WhitePaperInterestRateModel is InterestRateModel, Exponential {\n    /**\n     * @notice Indicator that this is an InterestRateModel contract (for inspection)\n     */\n    bool public constant isInterestRateModel = true;\n\n    /**\n     * @notice The multiplier of utilization rate that gives the slope of the interest rate\n     */\n    uint public multiplier;\n\n    /**\n     * @notice The base interest rate which is the y-intercept when utilization rate is 0\n     */\n    uint public baseRate;\n\n    /**\n     * @notice The approximate number of blocks per year that is assumed by the interest rate model\n     */\n    uint public constant blocksPerYear = 2102400;\n\n    constructor(uint baseRate_, uint multiplier_) public {\n        baseRate = baseRate_;\n        multiplier = multiplier_;\n    }\n\n    enum IRError {\n        NO_ERROR,\n        FAILED_TO_ADD_CASH_PLUS_BORROWS,\n        FAILED_TO_GET_EXP,\n        FAILED_TO_MUL_UTILIZATION_RATE,\n        FAILED_TO_ADD_BASE_RATE\n    }\n\n    /*\n     * @dev Calculates the utilization rate (borrows / (cash + borrows)) as an Exp\n     */\n    function getUtilizationRate(uint cash, uint borrows) pure internal returns (IRError, Exp memory) {\n        if (borrows == 0) {\n            // Utilization rate is zero when there's no borrows\n            return (IRError.NO_ERROR, Exp({mantissa: 0}));\n        }\n\n        (MathError err0, uint cashPlusBorrows) = addUInt(cash, borrows);\n        if (err0 != MathError.NO_ERROR) {\n            return (IRError.FAILED_TO_ADD_CASH_PLUS_BORROWS, Exp({mantissa: 0}));\n        }\n\n        (MathError err1, Exp memory utilizationRate) = getExp(borrows, cashPlusBorrows);\n        if (err1 != MathError.NO_ERROR) {\n            return (IRError.FAILED_TO_GET_EXP, Exp({mantissa: 0}));\n        }\n\n        return (IRError.NO_ERROR, utilizationRate);\n    }\n\n    /*\n     * @dev Calculates the utilization and borrow rates for use by getBorrowRate function\n     */\n    function getUtilizationAndAnnualBorrowRate(uint cash, uint borrows) view internal returns (IRError, Exp memory, Exp memory) {\n        (IRError err0, Exp memory utilizationRate) = getUtilizationRate(cash, borrows);\n        if (err0 != IRError.NO_ERROR) {\n            return (err0, Exp({mantissa: 0}), Exp({mantissa: 0}));\n        }\n\n        // Borrow Rate is 5% + UtilizationRate * 45% (baseRate + UtilizationRate * multiplier);\n        // 45% of utilizationRate, is `rate * 45 / 100`\n        (MathError err1, Exp memory utilizationRateMuled) = mulScalar(utilizationRate, multiplier);\n        // `mulScalar` only overflows when the product is >= 2^256.\n        // utilizationRate is a real number on the interval [0,1], which means that\n        // utilizationRate.mantissa is in the interval [0e18,1e18], which means that 45 times\n        // that is in the interval [0e18,45e18]. That interval has no intersection with 2^256, and therefore\n        // this can never overflow for the standard rates.\n        if (err1 != MathError.NO_ERROR) {\n            return (IRError.FAILED_TO_MUL_UTILIZATION_RATE, Exp({mantissa: 0}), Exp({mantissa: 0}));\n        }\n\n        (MathError err2, Exp memory utilizationRateScaled) = divScalar(utilizationRateMuled, mantissaOne);\n        // 100 is a constant, and therefore cannot be zero, which is the only error case of divScalar.\n        assert(err2 == MathError.NO_ERROR);\n\n        // Add the 5% for (5% + 45% * Ua)\n        (MathError err3, Exp memory annualBorrowRate) = addExp(utilizationRateScaled, Exp({mantissa: baseRate}));\n        // `addExp` only fails when the addition of mantissas overflow.\n        // As per above, utilizationRateMuled is capped at 45e18,\n        // and utilizationRateScaled is capped at 4.5e17. mantissaFivePercent = 0.5e17, and thus the addition\n        // is capped at 5e17, which is less than 2^256. This only applies to the standard rates\n        if (err3 != MathError.NO_ERROR) {\n            return (IRError.FAILED_TO_ADD_BASE_RATE, Exp({mantissa: 0}), Exp({mantissa: 0}));\n        }\n\n        return (IRError.NO_ERROR, utilizationRate, annualBorrowRate);\n    }\n\n    /**\n      * @notice Gets the current borrow interest rate based on the given asset, total cash, total borrows\n      *         and total reserves.\n      * @dev The return value should be scaled by 1e18, thus a return value of\n      *      `(true, 1000000000000)` implies an interest rate of 0.000001 or 0.0001% *per block*.\n      * @param cash The total cash of the underlying asset in the CToken\n      * @param borrows The total borrows of the underlying asset in the CToken\n      * @param _reserves The total reserves of the underlying asset in the CToken\n      * @return Success or failure and the borrow interest rate per block scaled by 10e18\n      */\n    function getBorrowRate(uint cash, uint borrows, uint _reserves) public view returns (uint, uint) {\n        _reserves; // pragma ignore unused argument\n\n        (IRError err0, Exp memory _utilizationRate, Exp memory annualBorrowRate) = getUtilizationAndAnnualBorrowRate(cash, borrows);\n        if (err0 != IRError.NO_ERROR) {\n            return (uint(err0), 0);\n        }\n\n        // And then divide down by blocks per year.\n        (MathError err1, Exp memory borrowRate) = divScalar(annualBorrowRate, blocksPerYear); // basis points * blocks per year\n        // divScalar only fails when divisor is zero. This is clearly not the case.\n        assert(err1 == MathError.NO_ERROR);\n\n        _utilizationRate; // pragma ignore unused variable\n\n        // Note: mantissa is the rate scaled 1e18, which matches the expected result\n        return (uint(IRError.NO_ERROR), borrowRate.mantissa);\n    }\n}\n",
  "sourcePath": "/Users/name/dev/argent-contracts-release-1.5.0/contracts/test/compound/WhitePaperInterestRateModel.sol",
  "compiler": {
    "name": "solc",
    "version": "0.5.16+commit.9c3226ce.Emscripten.clang"
  },
  "schemaVersion": "3.0.23",
  "updatedAt": "2020-03-31T19:52:06.861Z",
  "devdoc": {
    "author": "Compound",
    "methods": {
      "getBorrowRate(uint256,uint256,uint256)": {
        "details": "The return value should be scaled by 1e18, thus a return value of     `(true, 1000000000000)` implies an interest rate of 0.000001 or 0.0001% *per block*.",
        "params": {
          "_reserves": "The total reserves of the underlying asset in the CToken",
          "borrows": "The total borrows of the underlying asset in the CToken",
          "cash": "The total cash of the underlying asset in the CToken"
        },
        "return": "Success or failure and the borrow interest rate per block scaled by 10e18"
      }
    },
    "title": "The Compound Standard Interest Rate Model with pluggable constants"
  },
  "userdoc": {
    "methods": {
      "getBorrowRate(uint256,uint256,uint256)": {
        "notice": "Gets the current borrow interest rate based on the given asset, total cash, total borrows        and total reserves."
      }
    },
    "notice": "See Section 2.4 of the Compound Whitepaper"
  }
}